{
	"data": {
		"bytecode": {
			"linkReferences": {},
			"object": "6080604052348015600e575f80fd5b50335f806101000a81548173ffffffffffffffffffffffffffffffffffffffff021916908373ffffffffffffffffffffffffffffffffffffffff1602179055506134958061005b5f395ff3fe608060405234801561000f575f80fd5b5060043610610135575f3560e01c80637843bb79116100b6578063a81e53d31161007a578063a81e53d3146103c1578063c4e41b22146103df578063e80a7eb9146103fd578063f2fde38b1461041b578063f45f147c1461044b578063fd6befb21461047b57610135565b80637843bb7914610307578063789237e614610325578063893d20e8146103555780639d7b8e68146103735780639e41b4061461039157610135565b806347c44529116100fd57806347c44529146102175780635a97595c146102475780636440f6b21461027757806364611bd6146102a757806365895f95146102d757610135565b8063072652fe146101395780631d37fd6814610157578063207573f01461018757806337324a4c146101b75780633b7479e0146101e7575b5f80fd5b6101416104ab565b60405161014e9190611ee1565b60405180910390f35b610171600480360381019061016c9190611f35565b6104b4565b60405161017e91906120b9565b60405180910390f35b6101a1600480360381019061019c9190612205565b610747565b6040516101ae9190612295565b60405180910390f35b6101d160048036038101906101cc91906122ae565b6107a7565b6040516101de9190612295565b60405180910390f35b61020160048036038101906101fc9190612395565b610ac6565b60405161020e9190612295565b60405180910390f35b610231600480360381019061022c919061244d565b610e7e565b60405161023e9190611ee1565b60405180910390f35b610261600480360381019061025c919061244d565b610ead565b60405161026e9190612295565b60405180910390f35b610291600480360381019061028c9190612494565b610ee8565b60405161029e9190612295565b60405180910390f35b6102c160048036038101906102bc91906125bd565b61128c565b6040516102ce9190611ee1565b60405180910390f35b6102f160048036038101906102ec919061244d565b61132a565b6040516102fe9190612739565b60405180910390f35b61030f6113a6565b60405161031c9190611ee1565b60405180910390f35b61033f600480360381019061033a919061244d565b6113af565b60405161034c9190612814565b60405180910390f35b61035d6114a9565b60405161036a9190612873565b60405180910390f35b61037b6114d0565b6040516103889190611ee1565b60405180910390f35b6103ab60048036038101906103a6919061288c565b6114d9565b6040516103b89190612295565b60405180910390f35b6103c961174e565b6040516103d69190612814565b60405180910390f35b6103e7611822565b6040516103f49190611ee1565b60405180910390f35b61040561182b565b6040516104129190612814565b60405180910390f35b610435600480360381019061043091906129af565b6118ff565b6040516104429190612295565b60405180910390f35b6104656004803603810190610460919061244d565b611abd565b6040516104729190612295565b60405180910390f35b610495600480360381019061049091906129da565b611af8565b6040516104a29190612abe565b60405180910390f35b5f600254905090565b6104bc611e6a565b600a5f8381526020019081526020015f20604051806101000160405290815f82015481526020016001820180546104f290612b04565b80601f016020809104026020016040519081016040528092919081815260200182805461051e90612b04565b80156105695780601f1061054057610100808354040283529160200191610569565b820191905f5260205f20905b81548152906001019060200180831161054c57829003601f168201915b5050505050815260200160028201805461058290612b04565b80601f01602080910402602001604051908101604052809291908181526020018280546105ae90612b04565b80156105f95780601f106105d0576101008083540402835291602001916105f9565b820191905f5260205f20905b8154815290600101906020018083116105dc57829003601f168201915b5050505050815260200160038201805461061290612b04565b80601f016020809104026020016040519081016040528092919081815260200182805461063e90612b04565b80156106895780601f1061066057610100808354040283529160200191610689565b820191905f5260205f20905b81548152906001019060200180831161066c57829003601f168201915b505050505081526020016004820180546106a290612b04565b80601f01602080910402602001604051908101604052809291908181526020018280546106ce90612b04565b80156107195780601f106106f057610100808354040283529160200191610719565b820191905f5260205f20905b8154815290600101906020018083116106fc57829003601f168201915b5050505050815260200160058201548152602001600682015481526020016007820154815250509050919050565b5f600861075384611b9f565b6040516107609190612b6e565b908152602001604051809103902061077783611b9f565b6040516107849190612b6e565b90815260200160405180910390205f9054906101000a900460ff16905092915050565b5f805f9054906101000a900473ffffffffffffffffffffffffffffffffffffffff1673ffffffffffffffffffffffffffffffffffffffff163373ffffffffffffffffffffffffffffffffffffffff1614610836576040517f08c379a000000000000000000000000000000000000000000000000000000000815260040161082d90612c04565b60405180910390fd5b5f61084087611b9f565b90505f61084c87611b9f565b90505f61085887611b9f565b90505f61086487611b9f565b905085600c856040516108779190612b6e565b9081526020016040518091039020846040516108939190612b6e565b9081526020016040518091039020836040516108af9190612b6e565b9081526020016040518091039020826040516108cb9190612b6e565b908152602001604051809103902054121561091b576040517f08c379a000000000000000000000000000000000000000000000000000000000815260040161091290612c6c565b60405180910390fd5b85600c8560405161092c9190612b6e565b9081526020016040518091039020846040516109489190612b6e565b9081526020016040518091039020836040516109649190612b6e565b9081526020016040518091039020826040516109809190612b6e565b90815260200160405180910390205f82825461099c9190612cb7565b9250508190555085600d856040516109b49190612b6e565b90815260200160405180910390205f8282546109d09190612cb7565b92505081905550856006846040516109e89190612b6e565b908152602001604051809103902083604051610a049190612b6e565b908152602001604051809103902082604051610a209190612b6e565b90815260200160405180910390206002015f828254610a3f9190612cf7565b925050819055508560015f828254610a579190612cb7565b925050819055508560025f828254610a6f9190612cf7565b925050819055507f071a264e53b40e97de0acd1c1884477a24d4165acbadd4955cc8b22ab40dc02c848484848a604051610aad959493929190612d70565b60405180910390a1600194505050505095945050505050565b5f805f9054906101000a900473ffffffffffffffffffffffffffffffffffffffff1673ffffffffffffffffffffffffffffffffffffffff163373ffffffffffffffffffffffffffffffffffffffff1614610b55576040517f08c379a0000000000000000000000000000000000000000000000000000000008152600401610b4c90612c04565b60405180910390fd5b5f610b5f86611b9f565b90505f610b6b86611b9f565b90505f610b7786611b9f565b9050610b8281610ead565b610bef57600f81908060018154018082558091505060019003905f5260205f20015f909190919091509081610bb79190612f7a565b506001600e82604051610bca9190612b6e565b90815260200160405180910390205f6101000a81548160ff0219169083151502179055505b8460015f828254610c009190612cf7565b925050819055505f600684604051610c189190612b6e565b908152602001604051809103902083604051610c349190612b6e565b908152602001604051809103902082604051610c509190612b6e565b9081526020016040518091039020905085815f015f828254610c729190612cf7565b9250508190555085816001015f828254610c8c9190612cf7565b925050819055505f816002015f828254610ca69190612cf7565b92505081905550600784604051610cbd9190612b6e565b90815260200160405180910390205f9054906101000a900460ff16610d4557600584908060018154018082558091505060019003905f5260205f20015f909190919091509081610d0d9190612f7a565b506001600785604051610d209190612b6e565b90815260200160405180910390205f6101000a81548160ff0219169083151502179055505b600884604051610d559190612b6e565b908152602001604051809103902083604051610d719190612b6e565b90815260200160405180910390205f9054906101000a900460ff16610e3157600984604051610da09190612b6e565b908152602001604051809103902083908060018154018082558091505060019003905f5260205f20015f909190919091509081610ddd9190612f7a565b506001600885604051610df09190612b6e565b908152602001604051809103902084604051610e0c9190612b6e565b90815260200160405180910390205f6101000a81548160ff0219169083151502179055505b7fe12950f72ff2ec319916813b0c8bbad49dc1a8dcb7e539beb82a3292b51944f784848489604051610e669493929190613049565b60405180910390a16001945050505050949350505050565b5f600d610e8a83611b9f565b604051610e979190612b6e565b9081526020016040518091039020549050919050565b5f600e610eb983611b9f565b604051610ec69190612b6e565b90815260200160405180910390205f9054906101000a900460ff169050919050565b5f805f9054906101000a900473ffffffffffffffffffffffffffffffffffffffff1673ffffffffffffffffffffffffffffffffffffffff163373ffffffffffffffffffffffffffffffffffffffff1614610f77576040517f08c379a0000000000000000000000000000000000000000000000000000000008152600401610f6e90612c04565b60405180910390fd5b5f610f8189611b9f565b90505f610f8d89611b9f565b90505f610f9989611b9f565b90505f610fa589611b9f565b90505f610fb189611b9f565b9050610fbd8585611c9b565b610ffc576040517f08c379a0000000000000000000000000000000000000000000000000000000008152600401610ff3906130eb565b60405180910390fd5b87600c8660405161100d9190612b6e565b9081526020016040518091039020846040516110299190612b6e565b9081526020016040518091039020836040516110459190612b6e565b9081526020016040518091039020826040516110619190612b6e565b90815260200160405180910390205412156110b1576040517f08c379a00000000000000000000000000000000000000000000000000000000081526004016110a890612c6c565b60405180910390fd5b87600c866040516110c29190612b6e565b9081526020016040518091039020846040516110de9190612b6e565b9081526020016040518091039020836040516110fa9190612b6e565b9081526020016040518091039020826040516111169190612b6e565b90815260200160405180910390205f8282546111329190612cb7565b9250508190555087600d8660405161114a9190612b6e565b90815260200160405180910390205f8282546111669190612cb7565b9250508190555087600c8560405161117e9190612b6e565b90815260200160405180910390208460405161119a9190612b6e565b9081526020016040518091039020836040516111b69190612b6e565b9081526020016040518091039020826040516111d29190612b6e565b90815260200160405180910390205f8282546111ee9190612cf7565b9250508190555087600d856040516112069190612b6e565b90815260200160405180910390205f8282546112229190612cf7565b925050819055507f4bf3d601ea57d080a44151e6faaca262f82f23cd8144c59ad5cc4a708831744b85858585858d8d6040516112649796959493929190613109565b60405180910390a161127a848484848c8c611cf3565b95505050505050979650505050505050565b5f600c61129886611b9f565b6040516112a59190612b6e565b90815260200160405180910390206112bc85611b9f565b6040516112c99190612b6e565b90815260200160405180910390206112e084611b9f565b6040516112ed9190612b6e565b908152602001604051809103902061130483611b9f565b6040516113119190612b6e565b9081526020016040518091039020549050949350505050565b6060600b61133783611b9f565b6040516113449190612b6e565b908152602001604051809103902080548060200260200160405190810160405280929190818152602001828054801561139a57602002820191905f5260205f20905b815481526020019060010190808311611386575b50505050509050919050565b5f600454905090565b606060096113bc83611b9f565b6040516113c99190612b6e565b9081526020016040518091039020805480602002602001604051908101604052809291908181526020015f905b8282101561149e578382905f5260205f2001805461141390612b04565b80601f016020809104026020016040519081016040528092919081815260200182805461143f90612b04565b801561148a5780601f106114615761010080835404028352916020019161148a565b820191905f5260205f20905b81548152906001019060200180831161146d57829003601f168201915b5050505050815260200190600101906113f6565b505050509050919050565b5f805f9054906101000a900473ffffffffffffffffffffffffffffffffffffffff16905090565b5f600354905090565b5f805f9054906101000a900473ffffffffffffffffffffffffffffffffffffffff1673ffffffffffffffffffffffffffffffffffffffff163373ffffffffffffffffffffffffffffffffffffffff1614611568576040517f08c379a000000000000000000000000000000000000000000000000000000000815260040161155f90612c04565b60405180910390fd5b5f61157288611b9f565b90505f61157e88611b9f565b90505f61158a88611b9f565b90505f61159688611b9f565b9050866006846040516115a99190612b6e565b9081526020016040518091039020836040516115c59190612b6e565b9081526020016040518091039020826040516115e19190612b6e565b9081526020016040518091039020600101541215611634576040517f08c379a000000000000000000000000000000000000000000000000000000000815260040161162b9061322f565b60405180910390fd5b866006846040516116459190612b6e565b9081526020016040518091039020836040516116619190612b6e565b90815260200160405180910390208260405161167d9190612b6e565b90815260200160405180910390206001015f82825461169c9190612cb7565b9250508190555086600d856040516116b49190612b6e565b90815260200160405180910390205f8282546116d09190612cf7565b925050819055508660035f8282546116e89190612cf7565b925050819055507f1b54ef0cccbeab6ff65480564fd3654638160f7c56ee2e640cd276661f32ea36848484848b8b6040516117289695949392919061324d565b60405180910390a161173e848484848b8b611cf3565b9450505050509695505050505050565b6060600f805480602002602001604051908101604052809291908181526020015f905b82821015611819578382905f5260205f2001805461178e90612b04565b80601f01602080910402602001604051908101604052809291908181526020018280546117ba90612b04565b80156118055780601f106117dc57610100808354040283529160200191611805565b820191905f5260205f20905b8154815290600101906020018083116117e857829003601f168201915b505050505081526020019060010190611771565b50505050905090565b5f600154905090565b60606005805480602002602001604051908101604052809291908181526020015f905b828210156118f6578382905f5260205f2001805461186b90612b04565b80601f016020809104026020016040519081016040528092919081815260200182805461189790612b04565b80156118e25780601f106118b9576101008083540402835291602001916118e2565b820191905f5260205f20905b8154815290600101906020018083116118c557829003601f168201915b50505050508152602001906001019061184e565b50505050905090565b5f805f9054906101000a900473ffffffffffffffffffffffffffffffffffffffff1673ffffffffffffffffffffffffffffffffffffffff163373ffffffffffffffffffffffffffffffffffffffff161461198e576040517f08c379a000000000000000000000000000000000000000000000000000000000815260040161198590612c04565b60405180910390fd5b5f73ffffffffffffffffffffffffffffffffffffffff168273ffffffffffffffffffffffffffffffffffffffff16036119fc576040517f08c379a00000000000000000000000000000000000000000000000000000000081526004016119f390613312565b60405180910390fd5b815f806101000a81548173ffffffffffffffffffffffffffffffffffffffff021916908373ffffffffffffffffffffffffffffffffffffffff1602179055508173ffffffffffffffffffffffffffffffffffffffff165f8054906101000a900473ffffffffffffffffffffffffffffffffffffffff1673ffffffffffffffffffffffffffffffffffffffff167f8be0079c531659141344cd1fd0a4f28419497f9722a3daafe3b4186f6b6457e060405160405180910390a360019050919050565b5f6007611ac983611b9f565b604051611ad69190612b6e565b90815260200160405180910390205f9054906101000a900460ff169050919050565b611b00611eab565b6006611b0b85611b9f565b604051611b189190612b6e565b9081526020016040518091039020611b2f84611b9f565b604051611b3c9190612b6e565b9081526020016040518091039020611b5383611b9f565b604051611b609190612b6e565b90815260200160405180910390206040518060600160405290815f82015481526020016001820154815260200160028201548152505090509392505050565b60605f8290505f815190505f5b81811015611c90576041838281518110611bc957611bc8613330565b5b602001015160f81c60f81b60f81c60ff1610158015611c0c5750605a838281518110611bf857611bf7613330565b5b602001015160f81c60f81b60f81c60ff1611155b15611c83576020838281518110611c2657611c25613330565b5b602001015160f81c60f81b60f81c611c3e9190613369565b60f81b838281518110611c5457611c53613330565b5b60200101907effffffffffffffffffffffffffffffffffffffffffffffffffffffffffffff191690815f1a9053505b8080600101915050611bac565b508192505050919050565b5f81604051602001611cad9190612b6e565b6040516020818303038152906040528051906020012083604051602001611cd49190612b6e565b6040516020818303038152906040528051906020012014905092915050565b5f80611cfe88611b9f565b90505f611d0a88611b9f565b90505f611d1688611b9f565b90505f611d2288611b9f565b905060045f815480929190611d369061339d565b91905055505f600a5f60045481526020019081526020015f209050600454815f018190555084816001019081611d6c9190612f7a565b5083816002019081611d7e9190612f7a565b5082816003019081611d909190612f7a565b5081816004019081611da29190612f7a565b5087816005015f828254611db69190612cf7565b92505081905550868160060181905550428160070181905550600b85604051611ddf9190612b6e565b9081526020016040518091039020815f0154908060018154018082558091505060019003905f5260205f20015f90919091909150557fd74e30340db693955384afdcf8b3879b8e97d050e96ad43bddae4356682f7f3b600454868686868d604051611e4f969594939291906133e4565b60405180910390a16001955050505050509695505050505050565b6040518061010001604052805f8152602001606081526020016060815260200160608152602001606081526020015f81526020015f81526020015f81525090565b60405180606001604052805f81526020015f81526020015f81525090565b5f819050919050565b611edb81611ec9565b82525050565b5f602082019050611ef45f830184611ed2565b92915050565b5f604051905090565b5f80fd5b5f80fd5b611f1481611ec9565b8114611f1e575f80fd5b50565b5f81359050611f2f81611f0b565b92915050565b5f60208284031215611f4a57611f49611f03565b5b5f611f5784828501611f21565b91505092915050565b611f6981611ec9565b82525050565b5f81519050919050565b5f82825260208201905092915050565b8281835e5f83830152505050565b5f601f19601f8301169050919050565b5f611fb182611f6f565b611fbb8185611f79565b9350611fcb818560208601611f89565b611fd481611f97565b840191505092915050565b5f819050919050565b611ff181611fdf565b82525050565b5f61010083015f83015161200d5f860182611f60565b50602083015184820360208601526120258282611fa7565b9150506040830151848203604086015261203f8282611fa7565b915050606083015184820360608601526120598282611fa7565b915050608083015184820360808601526120738282611fa7565b91505060a083015161208860a0860182611f60565b5060c083015161209b60c0860182611f60565b5060e08301516120ae60e0860182611fe8565b508091505092915050565b5f6020820190508181035f8301526120d18184611ff7565b905092915050565b5f80fd5b5f80fd5b7f4e487b71000000000000000000000000000000000000000000000000000000005f52604160045260245ffd5b61211782611f97565b810181811067ffffffffffffffff82111715612136576121356120e1565b5b80604052505050565b5f612148611efa565b9050612154828261210e565b919050565b5f67ffffffffffffffff821115612173576121726120e1565b5b61217c82611f97565b9050602081019050919050565b828183375f83830152505050565b5f6121a96121a484612159565b61213f565b9050828152602081018484840111156121c5576121c46120dd565b5b6121d0848285612189565b509392505050565b5f82601f8301126121ec576121eb6120d9565b5b81356121fc848260208601612197565b91505092915050565b5f806040838503121561221b5761221a611f03565b5b5f83013567ffffffffffffffff81111561223857612237611f07565b5b612244858286016121d8565b925050602083013567ffffffffffffffff81111561226557612264611f07565b5b612271858286016121d8565b9150509250929050565b5f8115159050919050565b61228f8161227b565b82525050565b5f6020820190506122a85f830184612286565b92915050565b5f805f805f60a086880312156122c7576122c6611f03565b5b5f86013567ffffffffffffffff8111156122e4576122e3611f07565b5b6122f0888289016121d8565b955050602086013567ffffffffffffffff81111561231157612310611f07565b5b61231d888289016121d8565b945050604086013567ffffffffffffffff81111561233e5761233d611f07565b5b61234a888289016121d8565b935050606086013567ffffffffffffffff81111561236b5761236a611f07565b5b612377888289016121d8565b925050608061238888828901611f21565b9150509295509295909350565b5f805f80608085870312156123ad576123ac611f03565b5b5f85013567ffffffffffffffff8111156123ca576123c9611f07565b5b6123d6878288016121d8565b945050602085013567ffffffffffffffff8111156123f7576123f6611f07565b5b612403878288016121d8565b935050604085013567ffffffffffffffff81111561242457612423611f07565b5b612430878288016121d8565b925050606061244187828801611f21565b91505092959194509250565b5f6020828403121561246257612461611f03565b5b5f82013567ffffffffffffffff81111561247f5761247e611f07565b5b61248b848285016121d8565b91505092915050565b5f805f805f805f60e0888a0312156124af576124ae611f03565b5b5f88013567ffffffffffffffff8111156124cc576124cb611f07565b5b6124d88a828b016121d8565b975050602088013567ffffffffffffffff8111156124f9576124f8611f07565b5b6125058a828b016121d8565b965050604088013567ffffffffffffffff81111561252657612525611f07565b5b6125328a828b016121d8565b955050606088013567ffffffffffffffff81111561255357612552611f07565b5b61255f8a828b016121d8565b945050608088013567ffffffffffffffff8111156125805761257f611f07565b5b61258c8a828b016121d8565b93505060a061259d8a828b01611f21565b92505060c06125ae8a828b01611f21565b91505092959891949750929550565b5f805f80608085870312156125d5576125d4611f03565b5b5f85013567ffffffffffffffff8111156125f2576125f1611f07565b5b6125fe878288016121d8565b945050602085013567ffffffffffffffff81111561261f5761261e611f07565b5b61262b878288016121d8565b935050604085013567ffffffffffffffff81111561264c5761264b611f07565b5b612658878288016121d8565b925050606085013567ffffffffffffffff81111561267957612678611f07565b5b612685878288016121d8565b91505092959194509250565b5f81519050919050565b5f82825260208201905092915050565b5f819050602082019050919050565b5f6126c58383611f60565b60208301905092915050565b5f602082019050919050565b5f6126e782612691565b6126f1818561269b565b93506126fc836126ab565b805f5b8381101561272c57815161271388826126ba565b975061271e836126d1565b9250506001810190506126ff565b5085935050505092915050565b5f6020820190508181035f83015261275181846126dd565b905092915050565b5f81519050919050565b5f82825260208201905092915050565b5f819050602082019050919050565b5f61278d8383611fa7565b905092915050565b5f602082019050919050565b5f6127ab82612759565b6127b58185612763565b9350836020820285016127c785612773565b805f5b8581101561280257848403895281516127e38582612782565b94506127ee83612795565b925060208a019950506001810190506127ca565b50829750879550505050505092915050565b5f6020820190508181035f83015261282c81846127a1565b905092915050565b5f73ffffffffffffffffffffffffffffffffffffffff82169050919050565b5f61285d82612834565b9050919050565b61286d81612853565b82525050565b5f6020820190506128865f830184612864565b92915050565b5f805f805f8060c087890312156128a6576128a5611f03565b5b5f87013567ffffffffffffffff8111156128c3576128c2611f07565b5b6128cf89828a016121d8565b965050602087013567ffffffffffffffff8111156128f0576128ef611f07565b5b6128fc89828a016121d8565b955050604087013567ffffffffffffffff81111561291d5761291c611f07565b5b61292989828a016121d8565b945050606087013567ffffffffffffffff81111561294a57612949611f07565b5b61295689828a016121d8565b935050608061296789828a01611f21565b92505060a061297889828a01611f21565b9150509295509295509295565b61298e81612853565b8114612998575f80fd5b50565b5f813590506129a981612985565b92915050565b5f602082840312156129c4576129c3611f03565b5b5f6129d18482850161299b565b91505092915050565b5f805f606084860312156129f1576129f0611f03565b5b5f84013567ffffffffffffffff811115612a0e57612a0d611f07565b5b612a1a868287016121d8565b935050602084013567ffffffffffffffff811115612a3b57612a3a611f07565b5b612a47868287016121d8565b925050604084013567ffffffffffffffff811115612a6857612a67611f07565b5b612a74868287016121d8565b9150509250925092565b606082015f820151612a925f850182611f60565b506020820151612aa56020850182611f60565b506040820151612ab86040850182611f60565b50505050565b5f606082019050612ad15f830184612a7e565b92915050565b7f4e487b71000000000000000000000000000000000000000000000000000000005f52602260045260245ffd5b5f6002820490506001821680612b1b57607f821691505b602082108103612b2e57612b2d612ad7565b5b50919050565b5f81905092915050565b5f612b4882611f6f565b612b528185612b34565b9350612b62818560208601611f89565b80840191505092915050565b5f612b798284612b3e565b915081905092915050565b5f82825260208201905092915050565b7f4f6e6c792074686520636f6e7472616374206f776e65722063616e2063616c6c5f8201527f20746869732066756e6374696f6e2e0000000000000000000000000000000000602082015250565b5f612bee602f83612b84565b9150612bf982612b94565b604082019050919050565b5f6020820190508181035f830152612c1b81612be2565b9050919050565b7f496e73756666696369656e742062616c616e63650000000000000000000000005f82015250565b5f612c56601483612b84565b9150612c6182612c22565b602082019050919050565b5f6020820190508181035f830152612c8381612c4a565b9050919050565b7f4e487b71000000000000000000000000000000000000000000000000000000005f52601160045260245ffd5b5f612cc182611ec9565b9150612ccc83611ec9565b925082820390508181125f8412168282135f851215161715612cf157612cf0612c8a565b5b92915050565b5f612d0182611ec9565b9150612d0c83611ec9565b92508282019050828112155f8312168382125f841215161715612d3257612d31612c8a565b5b92915050565b5f612d4282611f6f565b612d4c8185612b84565b9350612d5c818560208601611f89565b612d6581611f97565b840191505092915050565b5f60a0820190508181035f830152612d888188612d38565b90508181036020830152612d9c8187612d38565b90508181036040830152612db08186612d38565b90508181036060830152612dc48185612d38565b9050612dd36080830184611ed2565b9695505050505050565b5f819050815f5260205f209050919050565b5f6020601f8301049050919050565b5f82821b905092915050565b5f60088302612e397fffffffffffffffffffffffffffffffffffffffffffffffffffffffffffffffff82612dfe565b612e438683612dfe565b95508019841693508086168417925050509392505050565b5f819050919050565b5f612e7e612e79612e7484611fdf565b612e5b565b611fdf565b9050919050565b5f819050919050565b612e9783612e64565b612eab612ea382612e85565b848454612e0a565b825550505050565b5f90565b612ebf612eb3565b612eca818484612e8e565b505050565b5b81811015612eed57612ee25f82612eb7565b600181019050612ed0565b5050565b601f821115612f3257612f0381612ddd565b612f0c84612def565b81016020851015612f1b578190505b612f2f612f2785612def565b830182612ecf565b50505b505050565b5f82821c905092915050565b5f612f525f1984600802612f37565b1980831691505092915050565b5f612f6a8383612f43565b9150826002028217905092915050565b612f8382611f6f565b67ffffffffffffffff811115612f9c57612f9b6120e1565b5b612fa68254612b04565b612fb1828285612ef1565b5f60209050601f831160018114612fe2575f8415612fd0578287015190505b612fda8582612f5f565b865550613041565b601f198416612ff086612ddd565b5f5b8281101561301757848901518255600182019150602085019450602081019050612ff2565b868310156130345784890151613030601f891682612f43565b8355505b6001600288020188555050505b505050505050565b5f6080820190508181035f8301526130618187612d38565b905081810360208301526130758186612d38565b905081810360408301526130898185612d38565b90506130986060830184611ed2565b95945050505050565b7f43616e6e6f74207472616e7366657220746f2073656c662e00000000000000005f82015250565b5f6130d5601883612b84565b91506130e0826130a1565b602082019050919050565b5f6020820190508181035f830152613102816130c9565b9050919050565b5f60e0820190508181035f830152613121818a612d38565b905081810360208301526131358189612d38565b905081810360408301526131498188612d38565b9050818103606083015261315d8187612d38565b905081810360808301526131718186612d38565b905061318060a0830185611ed2565b61318d60c0830184611ed2565b98975050505050505050565b7f496e73756666696369656e742069737375656420737570706c792066726f6d205f8201527f746865207370656369666965642070726f647563657220616e6420766572696660208201527f6965722e00000000000000000000000000000000000000000000000000000000604082015250565b5f613219604483612b84565b915061322482613199565b606082019050919050565b5f6020820190508181035f8301526132468161320d565b9050919050565b5f60c0820190508181035f8301526132658189612d38565b905081810360208301526132798188612d38565b9050818103604083015261328d8187612d38565b905081810360608301526132a18186612d38565b90506132b06080830185611ed2565b6132bd60a0830184611ed2565b979650505050505050565b7f496e76616c6964206e6577206f776e657220616464726573732e0000000000005f82015250565b5f6132fc601a83612b84565b9150613307826132c8565b602082019050919050565b5f6020820190508181035f830152613329816132f0565b9050919050565b7f4e487b71000000000000000000000000000000000000000000000000000000005f52603260045260245ffd5b5f60ff82169050919050565b5f6133738261335d565b915061337e8361335d565b9250828201905060ff81111561339757613396612c8a565b5b92915050565b5f6133a782611ec9565b91507f7fffffffffffffffffffffffffffffffffffffffffffffffffffffffffffffff82036133d9576133d8612c8a565b5b600182019050919050565b5f60c0820190506133f75f830189611ed2565b81810360208301526134098188612d38565b9050818103604083015261341d8187612d38565b905081810360608301526134318186612d38565b905081810360808301526134458185612d38565b905061345460a0830184611ed2565b97965050505050505056fea264697066735822122023fd005a133769a7a2f0726d47b4e1bc3345109488f0df3948a3b3e6963f09ab64736f6c63430008190033",
			"opcodes": "PUSH1 0x80 PUSH1 0x40 MSTORE CALLVALUE DUP1 ISZERO PUSH1 0xE JUMPI PUSH0 DUP1 REVERT JUMPDEST POP CALLER PUSH0 DUP1 PUSH2 0x100 EXP DUP2 SLOAD DUP2 PUSH20 0xFFFFFFFFFFFFFFFFFFFFFFFFFFFFFFFFFFFFFFFF MUL NOT AND SWAP1 DUP4 PUSH20 0xFFFFFFFFFFFFFFFFFFFFFFFFFFFFFFFFFFFFFFFF AND MUL OR SWAP1 SSTORE POP PUSH2 0x3495 DUP1 PUSH2 0x5B PUSH0 CODECOPY PUSH0 RETURN INVALID PUSH1 0x80 PUSH1 0x40 MSTORE CALLVALUE DUP1 ISZERO PUSH2 0xF JUMPI PUSH0 DUP1 REVERT JUMPDEST POP PUSH1 0x4 CALLDATASIZE LT PUSH2 0x135 JUMPI PUSH0 CALLDATALOAD PUSH1 0xE0 SHR DUP1 PUSH4 0x7843BB79 GT PUSH2 0xB6 JUMPI DUP1 PUSH4 0xA81E53D3 GT PUSH2 0x7A JUMPI DUP1 PUSH4 0xA81E53D3 EQ PUSH2 0x3C1 JUMPI DUP1 PUSH4 0xC4E41B22 EQ PUSH2 0x3DF JUMPI DUP1 PUSH4 0xE80A7EB9 EQ PUSH2 0x3FD JUMPI DUP1 PUSH4 0xF2FDE38B EQ PUSH2 0x41B JUMPI DUP1 PUSH4 0xF45F147C EQ PUSH2 0x44B JUMPI DUP1 PUSH4 0xFD6BEFB2 EQ PUSH2 0x47B JUMPI PUSH2 0x135 JUMP JUMPDEST DUP1 PUSH4 0x7843BB79 EQ PUSH2 0x307 JUMPI DUP1 PUSH4 0x789237E6 EQ PUSH2 0x325 JUMPI DUP1 PUSH4 0x893D20E8 EQ PUSH2 0x355 JUMPI DUP1 PUSH4 0x9D7B8E68 EQ PUSH2 0x373 JUMPI DUP1 PUSH4 0x9E41B406 EQ PUSH2 0x391 JUMPI PUSH2 0x135 JUMP JUMPDEST DUP1 PUSH4 0x47C44529 GT PUSH2 0xFD JUMPI DUP1 PUSH4 0x47C44529 EQ PUSH2 0x217 JUMPI DUP1 PUSH4 0x5A97595C EQ PUSH2 0x247 JUMPI DUP1 PUSH4 0x6440F6B2 EQ PUSH2 0x277 JUMPI DUP1 PUSH4 0x64611BD6 EQ PUSH2 0x2A7 JUMPI DUP1 PUSH4 0x65895F95 EQ PUSH2 0x2D7 JUMPI PUSH2 0x135 JUMP JUMPDEST DUP1 PUSH4 0x72652FE EQ PUSH2 0x139 JUMPI DUP1 PUSH4 0x1D37FD68 EQ PUSH2 0x157 JUMPI DUP1 PUSH4 0x207573F0 EQ PUSH2 0x187 JUMPI DUP1 PUSH4 0x37324A4C EQ PUSH2 0x1B7 JUMPI DUP1 PUSH4 0x3B7479E0 EQ PUSH2 0x1E7 JUMPI JUMPDEST PUSH0 DUP1 REVERT JUMPDEST PUSH2 0x141 PUSH2 0x4AB JUMP JUMPDEST PUSH1 0x40 MLOAD PUSH2 0x14E SWAP2 SWAP1 PUSH2 0x1EE1 JUMP JUMPDEST PUSH1 0x40 MLOAD DUP1 SWAP2 SUB SWAP1 RETURN JUMPDEST PUSH2 0x171 PUSH1 0x4 DUP1 CALLDATASIZE SUB DUP2 ADD SWAP1 PUSH2 0x16C SWAP2 SWAP1 PUSH2 0x1F35 JUMP JUMPDEST PUSH2 0x4B4 JUMP JUMPDEST PUSH1 0x40 MLOAD PUSH2 0x17E SWAP2 SWAP1 PUSH2 0x20B9 JUMP JUMPDEST PUSH1 0x40 MLOAD DUP1 SWAP2 SUB SWAP1 RETURN JUMPDEST PUSH2 0x1A1 PUSH1 0x4 DUP1 CALLDATASIZE SUB DUP2 ADD SWAP1 PUSH2 0x19C SWAP2 SWAP1 PUSH2 0x2205 JUMP JUMPDEST PUSH2 0x747 JUMP JUMPDEST PUSH1 0x40 MLOAD PUSH2 0x1AE SWAP2 SWAP1 PUSH2 0x2295 JUMP JUMPDEST PUSH1 0x40 MLOAD DUP1 SWAP2 SUB SWAP1 RETURN JUMPDEST PUSH2 0x1D1 PUSH1 0x4 DUP1 CALLDATASIZE SUB DUP2 ADD SWAP1 PUSH2 0x1CC SWAP2 SWAP1 PUSH2 0x22AE JUMP JUMPDEST PUSH2 0x7A7 JUMP JUMPDEST PUSH1 0x40 MLOAD PUSH2 0x1DE SWAP2 SWAP1 PUSH2 0x2295 JUMP JUMPDEST PUSH1 0x40 MLOAD DUP1 SWAP2 SUB SWAP1 RETURN JUMPDEST PUSH2 0x201 PUSH1 0x4 DUP1 CALLDATASIZE SUB DUP2 ADD SWAP1 PUSH2 0x1FC SWAP2 SWAP1 PUSH2 0x2395 JUMP JUMPDEST PUSH2 0xAC6 JUMP JUMPDEST PUSH1 0x40 MLOAD PUSH2 0x20E SWAP2 SWAP1 PUSH2 0x2295 JUMP JUMPDEST PUSH1 0x40 MLOAD DUP1 SWAP2 SUB SWAP1 RETURN JUMPDEST PUSH2 0x231 PUSH1 0x4 DUP1 CALLDATASIZE SUB DUP2 ADD SWAP1 PUSH2 0x22C SWAP2 SWAP1 PUSH2 0x244D JUMP JUMPDEST PUSH2 0xE7E JUMP JUMPDEST PUSH1 0x40 MLOAD PUSH2 0x23E SWAP2 SWAP1 PUSH2 0x1EE1 JUMP JUMPDEST PUSH1 0x40 MLOAD DUP1 SWAP2 SUB SWAP1 RETURN JUMPDEST PUSH2 0x261 PUSH1 0x4 DUP1 CALLDATASIZE SUB DUP2 ADD SWAP1 PUSH2 0x25C SWAP2 SWAP1 PUSH2 0x244D JUMP JUMPDEST PUSH2 0xEAD JUMP JUMPDEST PUSH1 0x40 MLOAD PUSH2 0x26E SWAP2 SWAP1 PUSH2 0x2295 JUMP JUMPDEST PUSH1 0x40 MLOAD DUP1 SWAP2 SUB SWAP1 RETURN JUMPDEST PUSH2 0x291 PUSH1 0x4 DUP1 CALLDATASIZE SUB DUP2 ADD SWAP1 PUSH2 0x28C SWAP2 SWAP1 PUSH2 0x2494 JUMP JUMPDEST PUSH2 0xEE8 JUMP JUMPDEST PUSH1 0x40 MLOAD PUSH2 0x29E SWAP2 SWAP1 PUSH2 0x2295 JUMP JUMPDEST PUSH1 0x40 MLOAD DUP1 SWAP2 SUB SWAP1 RETURN JUMPDEST PUSH2 0x2C1 PUSH1 0x4 DUP1 CALLDATASIZE SUB DUP2 ADD SWAP1 PUSH2 0x2BC SWAP2 SWAP1 PUSH2 0x25BD JUMP JUMPDEST PUSH2 0x128C JUMP JUMPDEST PUSH1 0x40 MLOAD PUSH2 0x2CE SWAP2 SWAP1 PUSH2 0x1EE1 JUMP JUMPDEST PUSH1 0x40 MLOAD DUP1 SWAP2 SUB SWAP1 RETURN JUMPDEST PUSH2 0x2F1 PUSH1 0x4 DUP1 CALLDATASIZE SUB DUP2 ADD SWAP1 PUSH2 0x2EC SWAP2 SWAP1 PUSH2 0x244D JUMP JUMPDEST PUSH2 0x132A JUMP JUMPDEST PUSH1 0x40 MLOAD PUSH2 0x2FE SWAP2 SWAP1 PUSH2 0x2739 JUMP JUMPDEST PUSH1 0x40 MLOAD DUP1 SWAP2 SUB SWAP1 RETURN JUMPDEST PUSH2 0x30F PUSH2 0x13A6 JUMP JUMPDEST PUSH1 0x40 MLOAD PUSH2 0x31C SWAP2 SWAP1 PUSH2 0x1EE1 JUMP JUMPDEST PUSH1 0x40 MLOAD DUP1 SWAP2 SUB SWAP1 RETURN JUMPDEST PUSH2 0x33F PUSH1 0x4 DUP1 CALLDATASIZE SUB DUP2 ADD SWAP1 PUSH2 0x33A SWAP2 SWAP1 PUSH2 0x244D JUMP JUMPDEST PUSH2 0x13AF JUMP JUMPDEST PUSH1 0x40 MLOAD PUSH2 0x34C SWAP2 SWAP1 PUSH2 0x2814 JUMP JUMPDEST PUSH1 0x40 MLOAD DUP1 SWAP2 SUB SWAP1 RETURN JUMPDEST PUSH2 0x35D PUSH2 0x14A9 JUMP JUMPDEST PUSH1 0x40 MLOAD PUSH2 0x36A SWAP2 SWAP1 PUSH2 0x2873 JUMP JUMPDEST PUSH1 0x40 MLOAD DUP1 SWAP2 SUB SWAP1 RETURN JUMPDEST PUSH2 0x37B PUSH2 0x14D0 JUMP JUMPDEST PUSH1 0x40 MLOAD PUSH2 0x388 SWAP2 SWAP1 PUSH2 0x1EE1 JUMP JUMPDEST PUSH1 0x40 MLOAD DUP1 SWAP2 SUB SWAP1 RETURN JUMPDEST PUSH2 0x3AB PUSH1 0x4 DUP1 CALLDATASIZE SUB DUP2 ADD SWAP1 PUSH2 0x3A6 SWAP2 SWAP1 PUSH2 0x288C JUMP JUMPDEST PUSH2 0x14D9 JUMP JUMPDEST PUSH1 0x40 MLOAD PUSH2 0x3B8 SWAP2 SWAP1 PUSH2 0x2295 JUMP JUMPDEST PUSH1 0x40 MLOAD DUP1 SWAP2 SUB SWAP1 RETURN JUMPDEST PUSH2 0x3C9 PUSH2 0x174E JUMP JUMPDEST PUSH1 0x40 MLOAD PUSH2 0x3D6 SWAP2 SWAP1 PUSH2 0x2814 JUMP JUMPDEST PUSH1 0x40 MLOAD DUP1 SWAP2 SUB SWAP1 RETURN JUMPDEST PUSH2 0x3E7 PUSH2 0x1822 JUMP JUMPDEST PUSH1 0x40 MLOAD PUSH2 0x3F4 SWAP2 SWAP1 PUSH2 0x1EE1 JUMP JUMPDEST PUSH1 0x40 MLOAD DUP1 SWAP2 SUB SWAP1 RETURN JUMPDEST PUSH2 0x405 PUSH2 0x182B JUMP JUMPDEST PUSH1 0x40 MLOAD PUSH2 0x412 SWAP2 SWAP1 PUSH2 0x2814 JUMP JUMPDEST PUSH1 0x40 MLOAD DUP1 SWAP2 SUB SWAP1 RETURN JUMPDEST PUSH2 0x435 PUSH1 0x4 DUP1 CALLDATASIZE SUB DUP2 ADD SWAP1 PUSH2 0x430 SWAP2 SWAP1 PUSH2 0x29AF JUMP JUMPDEST PUSH2 0x18FF JUMP JUMPDEST PUSH1 0x40 MLOAD PUSH2 0x442 SWAP2 SWAP1 PUSH2 0x2295 JUMP JUMPDEST PUSH1 0x40 MLOAD DUP1 SWAP2 SUB SWAP1 RETURN JUMPDEST PUSH2 0x465 PUSH1 0x4 DUP1 CALLDATASIZE SUB DUP2 ADD SWAP1 PUSH2 0x460 SWAP2 SWAP1 PUSH2 0x244D JUMP JUMPDEST PUSH2 0x1ABD JUMP JUMPDEST PUSH1 0x40 MLOAD PUSH2 0x472 SWAP2 SWAP1 PUSH2 0x2295 JUMP JUMPDEST PUSH1 0x40 MLOAD DUP1 SWAP2 SUB SWAP1 RETURN JUMPDEST PUSH2 0x495 PUSH1 0x4 DUP1 CALLDATASIZE SUB DUP2 ADD SWAP1 PUSH2 0x490 SWAP2 SWAP1 PUSH2 0x29DA JUMP JUMPDEST PUSH2 0x1AF8 JUMP JUMPDEST PUSH1 0x40 MLOAD PUSH2 0x4A2 SWAP2 SWAP1 PUSH2 0x2ABE JUMP JUMPDEST PUSH1 0x40 MLOAD DUP1 SWAP2 SUB SWAP1 RETURN JUMPDEST PUSH0 PUSH1 0x2 SLOAD SWAP1 POP SWAP1 JUMP JUMPDEST PUSH2 0x4BC PUSH2 0x1E6A JUMP JUMPDEST PUSH1 0xA PUSH0 DUP4 DUP2 MSTORE PUSH1 0x20 ADD SWAP1 DUP2 MSTORE PUSH1 0x20 ADD PUSH0 KECCAK256 PUSH1 0x40 MLOAD DUP1 PUSH2 0x100 ADD PUSH1 0x40 MSTORE SWAP1 DUP2 PUSH0 DUP3 ADD SLOAD DUP2 MSTORE PUSH1 0x20 ADD PUSH1 0x1 DUP3 ADD DUP1 SLOAD PUSH2 0x4F2 SWAP1 PUSH2 0x2B04 JUMP JUMPDEST DUP1 PUSH1 0x1F ADD PUSH1 0x20 DUP1 SWAP2 DIV MUL PUSH1 0x20 ADD PUSH1 0x40 MLOAD SWAP1 DUP2 ADD PUSH1 0x40 MSTORE DUP1 SWAP3 SWAP2 SWAP1 DUP2 DUP2 MSTORE PUSH1 0x20 ADD DUP3 DUP1 SLOAD PUSH2 0x51E SWAP1 PUSH2 0x2B04 JUMP JUMPDEST DUP1 ISZERO PUSH2 0x569 JUMPI DUP1 PUSH1 0x1F LT PUSH2 0x540 JUMPI PUSH2 0x100 DUP1 DUP4 SLOAD DIV MUL DUP4 MSTORE SWAP2 PUSH1 0x20 ADD SWAP2 PUSH2 0x569 JUMP JUMPDEST DUP3 ADD SWAP2 SWAP1 PUSH0 MSTORE PUSH1 0x20 PUSH0 KECCAK256 SWAP1 JUMPDEST DUP2 SLOAD DUP2 MSTORE SWAP1 PUSH1 0x1 ADD SWAP1 PUSH1 0x20 ADD DUP1 DUP4 GT PUSH2 0x54C JUMPI DUP3 SWAP1 SUB PUSH1 0x1F AND DUP3 ADD SWAP2 JUMPDEST POP POP POP POP POP DUP2 MSTORE PUSH1 0x20 ADD PUSH1 0x2 DUP3 ADD DUP1 SLOAD PUSH2 0x582 SWAP1 PUSH2 0x2B04 JUMP JUMPDEST DUP1 PUSH1 0x1F ADD PUSH1 0x20 DUP1 SWAP2 DIV MUL PUSH1 0x20 ADD PUSH1 0x40 MLOAD SWAP1 DUP2 ADD PUSH1 0x40 MSTORE DUP1 SWAP3 SWAP2 SWAP1 DUP2 DUP2 MSTORE PUSH1 0x20 ADD DUP3 DUP1 SLOAD PUSH2 0x5AE SWAP1 PUSH2 0x2B04 JUMP JUMPDEST DUP1 ISZERO PUSH2 0x5F9 JUMPI DUP1 PUSH1 0x1F LT PUSH2 0x5D0 JUMPI PUSH2 0x100 DUP1 DUP4 SLOAD DIV MUL DUP4 MSTORE SWAP2 PUSH1 0x20 ADD SWAP2 PUSH2 0x5F9 JUMP JUMPDEST DUP3 ADD SWAP2 SWAP1 PUSH0 MSTORE PUSH1 0x20 PUSH0 KECCAK256 SWAP1 JUMPDEST DUP2 SLOAD DUP2 MSTORE SWAP1 PUSH1 0x1 ADD SWAP1 PUSH1 0x20 ADD DUP1 DUP4 GT PUSH2 0x5DC JUMPI DUP3 SWAP1 SUB PUSH1 0x1F AND DUP3 ADD SWAP2 JUMPDEST POP POP POP POP POP DUP2 MSTORE PUSH1 0x20 ADD PUSH1 0x3 DUP3 ADD DUP1 SLOAD PUSH2 0x612 SWAP1 PUSH2 0x2B04 JUMP JUMPDEST DUP1 PUSH1 0x1F ADD PUSH1 0x20 DUP1 SWAP2 DIV MUL PUSH1 0x20 ADD PUSH1 0x40 MLOAD SWAP1 DUP2 ADD PUSH1 0x40 MSTORE DUP1 SWAP3 SWAP2 SWAP1 DUP2 DUP2 MSTORE PUSH1 0x20 ADD DUP3 DUP1 SLOAD PUSH2 0x63E SWAP1 PUSH2 0x2B04 JUMP JUMPDEST DUP1 ISZERO PUSH2 0x689 JUMPI DUP1 PUSH1 0x1F LT PUSH2 0x660 JUMPI PUSH2 0x100 DUP1 DUP4 SLOAD DIV MUL DUP4 MSTORE SWAP2 PUSH1 0x20 ADD SWAP2 PUSH2 0x689 JUMP JUMPDEST DUP3 ADD SWAP2 SWAP1 PUSH0 MSTORE PUSH1 0x20 PUSH0 KECCAK256 SWAP1 JUMPDEST DUP2 SLOAD DUP2 MSTORE SWAP1 PUSH1 0x1 ADD SWAP1 PUSH1 0x20 ADD DUP1 DUP4 GT PUSH2 0x66C JUMPI DUP3 SWAP1 SUB PUSH1 0x1F AND DUP3 ADD SWAP2 JUMPDEST POP POP POP POP POP DUP2 MSTORE PUSH1 0x20 ADD PUSH1 0x4 DUP3 ADD DUP1 SLOAD PUSH2 0x6A2 SWAP1 PUSH2 0x2B04 JUMP JUMPDEST DUP1 PUSH1 0x1F ADD PUSH1 0x20 DUP1 SWAP2 DIV MUL PUSH1 0x20 ADD PUSH1 0x40 MLOAD SWAP1 DUP2 ADD PUSH1 0x40 MSTORE DUP1 SWAP3 SWAP2 SWAP1 DUP2 DUP2 MSTORE PUSH1 0x20 ADD DUP3 DUP1 SLOAD PUSH2 0x6CE SWAP1 PUSH2 0x2B04 JUMP JUMPDEST DUP1 ISZERO PUSH2 0x719 JUMPI DUP1 PUSH1 0x1F LT PUSH2 0x6F0 JUMPI PUSH2 0x100 DUP1 DUP4 SLOAD DIV MUL DUP4 MSTORE SWAP2 PUSH1 0x20 ADD SWAP2 PUSH2 0x719 JUMP JUMPDEST DUP3 ADD SWAP2 SWAP1 PUSH0 MSTORE PUSH1 0x20 PUSH0 KECCAK256 SWAP1 JUMPDEST DUP2 SLOAD DUP2 MSTORE SWAP1 PUSH1 0x1 ADD SWAP1 PUSH1 0x20 ADD DUP1 DUP4 GT PUSH2 0x6FC JUMPI DUP3 SWAP1 SUB PUSH1 0x1F AND DUP3 ADD SWAP2 JUMPDEST POP POP POP POP POP DUP2 MSTORE PUSH1 0x20 ADD PUSH1 0x5 DUP3 ADD SLOAD DUP2 MSTORE PUSH1 0x20 ADD PUSH1 0x6 DUP3 ADD SLOAD DUP2 MSTORE PUSH1 0x20 ADD PUSH1 0x7 DUP3 ADD SLOAD DUP2 MSTORE POP POP SWAP1 POP SWAP2 SWAP1 POP JUMP JUMPDEST PUSH0 PUSH1 0x8 PUSH2 0x753 DUP5 PUSH2 0x1B9F JUMP JUMPDEST PUSH1 0x40 MLOAD PUSH2 0x760 SWAP2 SWAP1 PUSH2 0x2B6E JUMP JUMPDEST SWAP1 DUP2 MSTORE PUSH1 0x20 ADD PUSH1 0x40 MLOAD DUP1 SWAP2 SUB SWAP1 KECCAK256 PUSH2 0x777 DUP4 PUSH2 0x1B9F JUMP JUMPDEST PUSH1 0x40 MLOAD PUSH2 0x784 SWAP2 SWAP1 PUSH2 0x2B6E JUMP JUMPDEST SWAP1 DUP2 MSTORE PUSH1 0x20 ADD PUSH1 0x40 MLOAD DUP1 SWAP2 SUB SWAP1 KECCAK256 PUSH0 SWAP1 SLOAD SWAP1 PUSH2 0x100 EXP SWAP1 DIV PUSH1 0xFF AND SWAP1 POP SWAP3 SWAP2 POP POP JUMP JUMPDEST PUSH0 DUP1 PUSH0 SWAP1 SLOAD SWAP1 PUSH2 0x100 EXP SWAP1 DIV PUSH20 0xFFFFFFFFFFFFFFFFFFFFFFFFFFFFFFFFFFFFFFFF AND PUSH20 0xFFFFFFFFFFFFFFFFFFFFFFFFFFFFFFFFFFFFFFFF AND CALLER PUSH20 0xFFFFFFFFFFFFFFFFFFFFFFFFFFFFFFFFFFFFFFFF AND EQ PUSH2 0x836 JUMPI PUSH1 0x40 MLOAD PUSH32 0x8C379A000000000000000000000000000000000000000000000000000000000 DUP2 MSTORE PUSH1 0x4 ADD PUSH2 0x82D SWAP1 PUSH2 0x2C04 JUMP JUMPDEST PUSH1 0x40 MLOAD DUP1 SWAP2 SUB SWAP1 REVERT JUMPDEST PUSH0 PUSH2 0x840 DUP8 PUSH2 0x1B9F JUMP JUMPDEST SWAP1 POP PUSH0 PUSH2 0x84C DUP8 PUSH2 0x1B9F JUMP JUMPDEST SWAP1 POP PUSH0 PUSH2 0x858 DUP8 PUSH2 0x1B9F JUMP JUMPDEST SWAP1 POP PUSH0 PUSH2 0x864 DUP8 PUSH2 0x1B9F JUMP JUMPDEST SWAP1 POP DUP6 PUSH1 0xC DUP6 PUSH1 0x40 MLOAD PUSH2 0x877 SWAP2 SWAP1 PUSH2 0x2B6E JUMP JUMPDEST SWAP1 DUP2 MSTORE PUSH1 0x20 ADD PUSH1 0x40 MLOAD DUP1 SWAP2 SUB SWAP1 KECCAK256 DUP5 PUSH1 0x40 MLOAD PUSH2 0x893 SWAP2 SWAP1 PUSH2 0x2B6E JUMP JUMPDEST SWAP1 DUP2 MSTORE PUSH1 0x20 ADD PUSH1 0x40 MLOAD DUP1 SWAP2 SUB SWAP1 KECCAK256 DUP4 PUSH1 0x40 MLOAD PUSH2 0x8AF SWAP2 SWAP1 PUSH2 0x2B6E JUMP JUMPDEST SWAP1 DUP2 MSTORE PUSH1 0x20 ADD PUSH1 0x40 MLOAD DUP1 SWAP2 SUB SWAP1 KECCAK256 DUP3 PUSH1 0x40 MLOAD PUSH2 0x8CB SWAP2 SWAP1 PUSH2 0x2B6E JUMP JUMPDEST SWAP1 DUP2 MSTORE PUSH1 0x20 ADD PUSH1 0x40 MLOAD DUP1 SWAP2 SUB SWAP1 KECCAK256 SLOAD SLT ISZERO PUSH2 0x91B JUMPI PUSH1 0x40 MLOAD PUSH32 0x8C379A000000000000000000000000000000000000000000000000000000000 DUP2 MSTORE PUSH1 0x4 ADD PUSH2 0x912 SWAP1 PUSH2 0x2C6C JUMP JUMPDEST PUSH1 0x40 MLOAD DUP1 SWAP2 SUB SWAP1 REVERT JUMPDEST DUP6 PUSH1 0xC DUP6 PUSH1 0x40 MLOAD PUSH2 0x92C SWAP2 SWAP1 PUSH2 0x2B6E JUMP JUMPDEST SWAP1 DUP2 MSTORE PUSH1 0x20 ADD PUSH1 0x40 MLOAD DUP1 SWAP2 SUB SWAP1 KECCAK256 DUP5 PUSH1 0x40 MLOAD PUSH2 0x948 SWAP2 SWAP1 PUSH2 0x2B6E JUMP JUMPDEST SWAP1 DUP2 MSTORE PUSH1 0x20 ADD PUSH1 0x40 MLOAD DUP1 SWAP2 SUB SWAP1 KECCAK256 DUP4 PUSH1 0x40 MLOAD PUSH2 0x964 SWAP2 SWAP1 PUSH2 0x2B6E JUMP JUMPDEST SWAP1 DUP2 MSTORE PUSH1 0x20 ADD PUSH1 0x40 MLOAD DUP1 SWAP2 SUB SWAP1 KECCAK256 DUP3 PUSH1 0x40 MLOAD PUSH2 0x980 SWAP2 SWAP1 PUSH2 0x2B6E JUMP JUMPDEST SWAP1 DUP2 MSTORE PUSH1 0x20 ADD PUSH1 0x40 MLOAD DUP1 SWAP2 SUB SWAP1 KECCAK256 PUSH0 DUP3 DUP3 SLOAD PUSH2 0x99C SWAP2 SWAP1 PUSH2 0x2CB7 JUMP JUMPDEST SWAP3 POP POP DUP2 SWAP1 SSTORE POP DUP6 PUSH1 0xD DUP6 PUSH1 0x40 MLOAD PUSH2 0x9B4 SWAP2 SWAP1 PUSH2 0x2B6E JUMP JUMPDEST SWAP1 DUP2 MSTORE PUSH1 0x20 ADD PUSH1 0x40 MLOAD DUP1 SWAP2 SUB SWAP1 KECCAK256 PUSH0 DUP3 DUP3 SLOAD PUSH2 0x9D0 SWAP2 SWAP1 PUSH2 0x2CB7 JUMP JUMPDEST SWAP3 POP POP DUP2 SWAP1 SSTORE POP DUP6 PUSH1 0x6 DUP5 PUSH1 0x40 MLOAD PUSH2 0x9E8 SWAP2 SWAP1 PUSH2 0x2B6E JUMP JUMPDEST SWAP1 DUP2 MSTORE PUSH1 0x20 ADD PUSH1 0x40 MLOAD DUP1 SWAP2 SUB SWAP1 KECCAK256 DUP4 PUSH1 0x40 MLOAD PUSH2 0xA04 SWAP2 SWAP1 PUSH2 0x2B6E JUMP JUMPDEST SWAP1 DUP2 MSTORE PUSH1 0x20 ADD PUSH1 0x40 MLOAD DUP1 SWAP2 SUB SWAP1 KECCAK256 DUP3 PUSH1 0x40 MLOAD PUSH2 0xA20 SWAP2 SWAP1 PUSH2 0x2B6E JUMP JUMPDEST SWAP1 DUP2 MSTORE PUSH1 0x20 ADD PUSH1 0x40 MLOAD DUP1 SWAP2 SUB SWAP1 KECCAK256 PUSH1 0x2 ADD PUSH0 DUP3 DUP3 SLOAD PUSH2 0xA3F SWAP2 SWAP1 PUSH2 0x2CF7 JUMP JUMPDEST SWAP3 POP POP DUP2 SWAP1 SSTORE POP DUP6 PUSH1 0x1 PUSH0 DUP3 DUP3 SLOAD PUSH2 0xA57 SWAP2 SWAP1 PUSH2 0x2CB7 JUMP JUMPDEST SWAP3 POP POP DUP2 SWAP1 SSTORE POP DUP6 PUSH1 0x2 PUSH0 DUP3 DUP3 SLOAD PUSH2 0xA6F SWAP2 SWAP1 PUSH2 0x2CF7 JUMP JUMPDEST SWAP3 POP POP DUP2 SWAP1 SSTORE POP PUSH32 0x71A264E53B40E97DE0ACD1C1884477A24D4165ACBADD4955CC8B22AB40DC02C DUP5 DUP5 DUP5 DUP5 DUP11 PUSH1 0x40 MLOAD PUSH2 0xAAD SWAP6 SWAP5 SWAP4 SWAP3 SWAP2 SWAP1 PUSH2 0x2D70 JUMP JUMPDEST PUSH1 0x40 MLOAD DUP1 SWAP2 SUB SWAP1 LOG1 PUSH1 0x1 SWAP5 POP POP POP POP POP SWAP6 SWAP5 POP POP POP POP POP JUMP JUMPDEST PUSH0 DUP1 PUSH0 SWAP1 SLOAD SWAP1 PUSH2 0x100 EXP SWAP1 DIV PUSH20 0xFFFFFFFFFFFFFFFFFFFFFFFFFFFFFFFFFFFFFFFF AND PUSH20 0xFFFFFFFFFFFFFFFFFFFFFFFFFFFFFFFFFFFFFFFF AND CALLER PUSH20 0xFFFFFFFFFFFFFFFFFFFFFFFFFFFFFFFFFFFFFFFF AND EQ PUSH2 0xB55 JUMPI PUSH1 0x40 MLOAD PUSH32 0x8C379A000000000000000000000000000000000000000000000000000000000 DUP2 MSTORE PUSH1 0x4 ADD PUSH2 0xB4C SWAP1 PUSH2 0x2C04 JUMP JUMPDEST PUSH1 0x40 MLOAD DUP1 SWAP2 SUB SWAP1 REVERT JUMPDEST PUSH0 PUSH2 0xB5F DUP7 PUSH2 0x1B9F JUMP JUMPDEST SWAP1 POP PUSH0 PUSH2 0xB6B DUP7 PUSH2 0x1B9F JUMP JUMPDEST SWAP1 POP PUSH0 PUSH2 0xB77 DUP7 PUSH2 0x1B9F JUMP JUMPDEST SWAP1 POP PUSH2 0xB82 DUP2 PUSH2 0xEAD JUMP JUMPDEST PUSH2 0xBEF JUMPI PUSH1 0xF DUP2 SWAP1 DUP1 PUSH1 0x1 DUP2 SLOAD ADD DUP1 DUP3 SSTORE DUP1 SWAP2 POP POP PUSH1 0x1 SWAP1 SUB SWAP1 PUSH0 MSTORE PUSH1 0x20 PUSH0 KECCAK256 ADD PUSH0 SWAP1 SWAP2 SWAP1 SWAP2 SWAP1 SWAP2 POP SWAP1 DUP2 PUSH2 0xBB7 SWAP2 SWAP1 PUSH2 0x2F7A JUMP JUMPDEST POP PUSH1 0x1 PUSH1 0xE DUP3 PUSH1 0x40 MLOAD PUSH2 0xBCA SWAP2 SWAP1 PUSH2 0x2B6E JUMP JUMPDEST SWAP1 DUP2 MSTORE PUSH1 0x20 ADD PUSH1 0x40 MLOAD DUP1 SWAP2 SUB SWAP1 KECCAK256 PUSH0 PUSH2 0x100 EXP DUP2 SLOAD DUP2 PUSH1 0xFF MUL NOT AND SWAP1 DUP4 ISZERO ISZERO MUL OR SWAP1 SSTORE POP JUMPDEST DUP5 PUSH1 0x1 PUSH0 DUP3 DUP3 SLOAD PUSH2 0xC00 SWAP2 SWAP1 PUSH2 0x2CF7 JUMP JUMPDEST SWAP3 POP POP DUP2 SWAP1 SSTORE POP PUSH0 PUSH1 0x6 DUP5 PUSH1 0x40 MLOAD PUSH2 0xC18 SWAP2 SWAP1 PUSH2 0x2B6E JUMP JUMPDEST SWAP1 DUP2 MSTORE PUSH1 0x20 ADD PUSH1 0x40 MLOAD DUP1 SWAP2 SUB SWAP1 KECCAK256 DUP4 PUSH1 0x40 MLOAD PUSH2 0xC34 SWAP2 SWAP1 PUSH2 0x2B6E JUMP JUMPDEST SWAP1 DUP2 MSTORE PUSH1 0x20 ADD PUSH1 0x40 MLOAD DUP1 SWAP2 SUB SWAP1 KECCAK256 DUP3 PUSH1 0x40 MLOAD PUSH2 0xC50 SWAP2 SWAP1 PUSH2 0x2B6E JUMP JUMPDEST SWAP1 DUP2 MSTORE PUSH1 0x20 ADD PUSH1 0x40 MLOAD DUP1 SWAP2 SUB SWAP1 KECCAK256 SWAP1 POP DUP6 DUP2 PUSH0 ADD PUSH0 DUP3 DUP3 SLOAD PUSH2 0xC72 SWAP2 SWAP1 PUSH2 0x2CF7 JUMP JUMPDEST SWAP3 POP POP DUP2 SWAP1 SSTORE POP DUP6 DUP2 PUSH1 0x1 ADD PUSH0 DUP3 DUP3 SLOAD PUSH2 0xC8C SWAP2 SWAP1 PUSH2 0x2CF7 JUMP JUMPDEST SWAP3 POP POP DUP2 SWAP1 SSTORE POP PUSH0 DUP2 PUSH1 0x2 ADD PUSH0 DUP3 DUP3 SLOAD PUSH2 0xCA6 SWAP2 SWAP1 PUSH2 0x2CF7 JUMP JUMPDEST SWAP3 POP POP DUP2 SWAP1 SSTORE POP PUSH1 0x7 DUP5 PUSH1 0x40 MLOAD PUSH2 0xCBD SWAP2 SWAP1 PUSH2 0x2B6E JUMP JUMPDEST SWAP1 DUP2 MSTORE PUSH1 0x20 ADD PUSH1 0x40 MLOAD DUP1 SWAP2 SUB SWAP1 KECCAK256 PUSH0 SWAP1 SLOAD SWAP1 PUSH2 0x100 EXP SWAP1 DIV PUSH1 0xFF AND PUSH2 0xD45 JUMPI PUSH1 0x5 DUP5 SWAP1 DUP1 PUSH1 0x1 DUP2 SLOAD ADD DUP1 DUP3 SSTORE DUP1 SWAP2 POP POP PUSH1 0x1 SWAP1 SUB SWAP1 PUSH0 MSTORE PUSH1 0x20 PUSH0 KECCAK256 ADD PUSH0 SWAP1 SWAP2 SWAP1 SWAP2 SWAP1 SWAP2 POP SWAP1 DUP2 PUSH2 0xD0D SWAP2 SWAP1 PUSH2 0x2F7A JUMP JUMPDEST POP PUSH1 0x1 PUSH1 0x7 DUP6 PUSH1 0x40 MLOAD PUSH2 0xD20 SWAP2 SWAP1 PUSH2 0x2B6E JUMP JUMPDEST SWAP1 DUP2 MSTORE PUSH1 0x20 ADD PUSH1 0x40 MLOAD DUP1 SWAP2 SUB SWAP1 KECCAK256 PUSH0 PUSH2 0x100 EXP DUP2 SLOAD DUP2 PUSH1 0xFF MUL NOT AND SWAP1 DUP4 ISZERO ISZERO MUL OR SWAP1 SSTORE POP JUMPDEST PUSH1 0x8 DUP5 PUSH1 0x40 MLOAD PUSH2 0xD55 SWAP2 SWAP1 PUSH2 0x2B6E JUMP JUMPDEST SWAP1 DUP2 MSTORE PUSH1 0x20 ADD PUSH1 0x40 MLOAD DUP1 SWAP2 SUB SWAP1 KECCAK256 DUP4 PUSH1 0x40 MLOAD PUSH2 0xD71 SWAP2 SWAP1 PUSH2 0x2B6E JUMP JUMPDEST SWAP1 DUP2 MSTORE PUSH1 0x20 ADD PUSH1 0x40 MLOAD DUP1 SWAP2 SUB SWAP1 KECCAK256 PUSH0 SWAP1 SLOAD SWAP1 PUSH2 0x100 EXP SWAP1 DIV PUSH1 0xFF AND PUSH2 0xE31 JUMPI PUSH1 0x9 DUP5 PUSH1 0x40 MLOAD PUSH2 0xDA0 SWAP2 SWAP1 PUSH2 0x2B6E JUMP JUMPDEST SWAP1 DUP2 MSTORE PUSH1 0x20 ADD PUSH1 0x40 MLOAD DUP1 SWAP2 SUB SWAP1 KECCAK256 DUP4 SWAP1 DUP1 PUSH1 0x1 DUP2 SLOAD ADD DUP1 DUP3 SSTORE DUP1 SWAP2 POP POP PUSH1 0x1 SWAP1 SUB SWAP1 PUSH0 MSTORE PUSH1 0x20 PUSH0 KECCAK256 ADD PUSH0 SWAP1 SWAP2 SWAP1 SWAP2 SWAP1 SWAP2 POP SWAP1 DUP2 PUSH2 0xDDD SWAP2 SWAP1 PUSH2 0x2F7A JUMP JUMPDEST POP PUSH1 0x1 PUSH1 0x8 DUP6 PUSH1 0x40 MLOAD PUSH2 0xDF0 SWAP2 SWAP1 PUSH2 0x2B6E JUMP JUMPDEST SWAP1 DUP2 MSTORE PUSH1 0x20 ADD PUSH1 0x40 MLOAD DUP1 SWAP2 SUB SWAP1 KECCAK256 DUP5 PUSH1 0x40 MLOAD PUSH2 0xE0C SWAP2 SWAP1 PUSH2 0x2B6E JUMP JUMPDEST SWAP1 DUP2 MSTORE PUSH1 0x20 ADD PUSH1 0x40 MLOAD DUP1 SWAP2 SUB SWAP1 KECCAK256 PUSH0 PUSH2 0x100 EXP DUP2 SLOAD DUP2 PUSH1 0xFF MUL NOT AND SWAP1 DUP4 ISZERO ISZERO MUL OR SWAP1 SSTORE POP JUMPDEST PUSH32 0xE12950F72FF2EC319916813B0C8BBAD49DC1A8DCB7E539BEB82A3292B51944F7 DUP5 DUP5 DUP5 DUP10 PUSH1 0x40 MLOAD PUSH2 0xE66 SWAP5 SWAP4 SWAP3 SWAP2 SWAP1 PUSH2 0x3049 JUMP JUMPDEST PUSH1 0x40 MLOAD DUP1 SWAP2 SUB SWAP1 LOG1 PUSH1 0x1 SWAP5 POP POP POP POP POP SWAP5 SWAP4 POP POP POP POP JUMP JUMPDEST PUSH0 PUSH1 0xD PUSH2 0xE8A DUP4 PUSH2 0x1B9F JUMP JUMPDEST PUSH1 0x40 MLOAD PUSH2 0xE97 SWAP2 SWAP1 PUSH2 0x2B6E JUMP JUMPDEST SWAP1 DUP2 MSTORE PUSH1 0x20 ADD PUSH1 0x40 MLOAD DUP1 SWAP2 SUB SWAP1 KECCAK256 SLOAD SWAP1 POP SWAP2 SWAP1 POP JUMP JUMPDEST PUSH0 PUSH1 0xE PUSH2 0xEB9 DUP4 PUSH2 0x1B9F JUMP JUMPDEST PUSH1 0x40 MLOAD PUSH2 0xEC6 SWAP2 SWAP1 PUSH2 0x2B6E JUMP JUMPDEST SWAP1 DUP2 MSTORE PUSH1 0x20 ADD PUSH1 0x40 MLOAD DUP1 SWAP2 SUB SWAP1 KECCAK256 PUSH0 SWAP1 SLOAD SWAP1 PUSH2 0x100 EXP SWAP1 DIV PUSH1 0xFF AND SWAP1 POP SWAP2 SWAP1 POP JUMP JUMPDEST PUSH0 DUP1 PUSH0 SWAP1 SLOAD SWAP1 PUSH2 0x100 EXP SWAP1 DIV PUSH20 0xFFFFFFFFFFFFFFFFFFFFFFFFFFFFFFFFFFFFFFFF AND PUSH20 0xFFFFFFFFFFFFFFFFFFFFFFFFFFFFFFFFFFFFFFFF AND CALLER PUSH20 0xFFFFFFFFFFFFFFFFFFFFFFFFFFFFFFFFFFFFFFFF AND EQ PUSH2 0xF77 JUMPI PUSH1 0x40 MLOAD PUSH32 0x8C379A000000000000000000000000000000000000000000000000000000000 DUP2 MSTORE PUSH1 0x4 ADD PUSH2 0xF6E SWAP1 PUSH2 0x2C04 JUMP JUMPDEST PUSH1 0x40 MLOAD DUP1 SWAP2 SUB SWAP1 REVERT JUMPDEST PUSH0 PUSH2 0xF81 DUP10 PUSH2 0x1B9F JUMP JUMPDEST SWAP1 POP PUSH0 PUSH2 0xF8D DUP10 PUSH2 0x1B9F JUMP JUMPDEST SWAP1 POP PUSH0 PUSH2 0xF99 DUP10 PUSH2 0x1B9F JUMP JUMPDEST SWAP1 POP PUSH0 PUSH2 0xFA5 DUP10 PUSH2 0x1B9F JUMP JUMPDEST SWAP1 POP PUSH0 PUSH2 0xFB1 DUP10 PUSH2 0x1B9F JUMP JUMPDEST SWAP1 POP PUSH2 0xFBD DUP6 DUP6 PUSH2 0x1C9B JUMP JUMPDEST PUSH2 0xFFC JUMPI PUSH1 0x40 MLOAD PUSH32 0x8C379A000000000000000000000000000000000000000000000000000000000 DUP2 MSTORE PUSH1 0x4 ADD PUSH2 0xFF3 SWAP1 PUSH2 0x30EB JUMP JUMPDEST PUSH1 0x40 MLOAD DUP1 SWAP2 SUB SWAP1 REVERT JUMPDEST DUP8 PUSH1 0xC DUP7 PUSH1 0x40 MLOAD PUSH2 0x100D SWAP2 SWAP1 PUSH2 0x2B6E JUMP JUMPDEST SWAP1 DUP2 MSTORE PUSH1 0x20 ADD PUSH1 0x40 MLOAD DUP1 SWAP2 SUB SWAP1 KECCAK256 DUP5 PUSH1 0x40 MLOAD PUSH2 0x1029 SWAP2 SWAP1 PUSH2 0x2B6E JUMP JUMPDEST SWAP1 DUP2 MSTORE PUSH1 0x20 ADD PUSH1 0x40 MLOAD DUP1 SWAP2 SUB SWAP1 KECCAK256 DUP4 PUSH1 0x40 MLOAD PUSH2 0x1045 SWAP2 SWAP1 PUSH2 0x2B6E JUMP JUMPDEST SWAP1 DUP2 MSTORE PUSH1 0x20 ADD PUSH1 0x40 MLOAD DUP1 SWAP2 SUB SWAP1 KECCAK256 DUP3 PUSH1 0x40 MLOAD PUSH2 0x1061 SWAP2 SWAP1 PUSH2 0x2B6E JUMP JUMPDEST SWAP1 DUP2 MSTORE PUSH1 0x20 ADD PUSH1 0x40 MLOAD DUP1 SWAP2 SUB SWAP1 KECCAK256 SLOAD SLT ISZERO PUSH2 0x10B1 JUMPI PUSH1 0x40 MLOAD PUSH32 0x8C379A000000000000000000000000000000000000000000000000000000000 DUP2 MSTORE PUSH1 0x4 ADD PUSH2 0x10A8 SWAP1 PUSH2 0x2C6C JUMP JUMPDEST PUSH1 0x40 MLOAD DUP1 SWAP2 SUB SWAP1 REVERT JUMPDEST DUP8 PUSH1 0xC DUP7 PUSH1 0x40 MLOAD PUSH2 0x10C2 SWAP2 SWAP1 PUSH2 0x2B6E JUMP JUMPDEST SWAP1 DUP2 MSTORE PUSH1 0x20 ADD PUSH1 0x40 MLOAD DUP1 SWAP2 SUB SWAP1 KECCAK256 DUP5 PUSH1 0x40 MLOAD PUSH2 0x10DE SWAP2 SWAP1 PUSH2 0x2B6E JUMP JUMPDEST SWAP1 DUP2 MSTORE PUSH1 0x20 ADD PUSH1 0x40 MLOAD DUP1 SWAP2 SUB SWAP1 KECCAK256 DUP4 PUSH1 0x40 MLOAD PUSH2 0x10FA SWAP2 SWAP1 PUSH2 0x2B6E JUMP JUMPDEST SWAP1 DUP2 MSTORE PUSH1 0x20 ADD PUSH1 0x40 MLOAD DUP1 SWAP2 SUB SWAP1 KECCAK256 DUP3 PUSH1 0x40 MLOAD PUSH2 0x1116 SWAP2 SWAP1 PUSH2 0x2B6E JUMP JUMPDEST SWAP1 DUP2 MSTORE PUSH1 0x20 ADD PUSH1 0x40 MLOAD DUP1 SWAP2 SUB SWAP1 KECCAK256 PUSH0 DUP3 DUP3 SLOAD PUSH2 0x1132 SWAP2 SWAP1 PUSH2 0x2CB7 JUMP JUMPDEST SWAP3 POP POP DUP2 SWAP1 SSTORE POP DUP8 PUSH1 0xD DUP7 PUSH1 0x40 MLOAD PUSH2 0x114A SWAP2 SWAP1 PUSH2 0x2B6E JUMP JUMPDEST SWAP1 DUP2 MSTORE PUSH1 0x20 ADD PUSH1 0x40 MLOAD DUP1 SWAP2 SUB SWAP1 KECCAK256 PUSH0 DUP3 DUP3 SLOAD PUSH2 0x1166 SWAP2 SWAP1 PUSH2 0x2CB7 JUMP JUMPDEST SWAP3 POP POP DUP2 SWAP1 SSTORE POP DUP8 PUSH1 0xC DUP6 PUSH1 0x40 MLOAD PUSH2 0x117E SWAP2 SWAP1 PUSH2 0x2B6E JUMP JUMPDEST SWAP1 DUP2 MSTORE PUSH1 0x20 ADD PUSH1 0x40 MLOAD DUP1 SWAP2 SUB SWAP1 KECCAK256 DUP5 PUSH1 0x40 MLOAD PUSH2 0x119A SWAP2 SWAP1 PUSH2 0x2B6E JUMP JUMPDEST SWAP1 DUP2 MSTORE PUSH1 0x20 ADD PUSH1 0x40 MLOAD DUP1 SWAP2 SUB SWAP1 KECCAK256 DUP4 PUSH1 0x40 MLOAD PUSH2 0x11B6 SWAP2 SWAP1 PUSH2 0x2B6E JUMP JUMPDEST SWAP1 DUP2 MSTORE PUSH1 0x20 ADD PUSH1 0x40 MLOAD DUP1 SWAP2 SUB SWAP1 KECCAK256 DUP3 PUSH1 0x40 MLOAD PUSH2 0x11D2 SWAP2 SWAP1 PUSH2 0x2B6E JUMP JUMPDEST SWAP1 DUP2 MSTORE PUSH1 0x20 ADD PUSH1 0x40 MLOAD DUP1 SWAP2 SUB SWAP1 KECCAK256 PUSH0 DUP3 DUP3 SLOAD PUSH2 0x11EE SWAP2 SWAP1 PUSH2 0x2CF7 JUMP JUMPDEST SWAP3 POP POP DUP2 SWAP1 SSTORE POP DUP8 PUSH1 0xD DUP6 PUSH1 0x40 MLOAD PUSH2 0x1206 SWAP2 SWAP1 PUSH2 0x2B6E JUMP JUMPDEST SWAP1 DUP2 MSTORE PUSH1 0x20 ADD PUSH1 0x40 MLOAD DUP1 SWAP2 SUB SWAP1 KECCAK256 PUSH0 DUP3 DUP3 SLOAD PUSH2 0x1222 SWAP2 SWAP1 PUSH2 0x2CF7 JUMP JUMPDEST SWAP3 POP POP DUP2 SWAP1 SSTORE POP PUSH32 0x4BF3D601EA57D080A44151E6FAACA262F82F23CD8144C59AD5CC4A708831744B DUP6 DUP6 DUP6 DUP6 DUP6 DUP14 DUP14 PUSH1 0x40 MLOAD PUSH2 0x1264 SWAP8 SWAP7 SWAP6 SWAP5 SWAP4 SWAP3 SWAP2 SWAP1 PUSH2 0x3109 JUMP JUMPDEST PUSH1 0x40 MLOAD DUP1 SWAP2 SUB SWAP1 LOG1 PUSH2 0x127A DUP5 DUP5 DUP5 DUP5 DUP13 DUP13 PUSH2 0x1CF3 JUMP JUMPDEST SWAP6 POP POP POP POP POP POP SWAP8 SWAP7 POP POP POP POP POP POP POP JUMP JUMPDEST PUSH0 PUSH1 0xC PUSH2 0x1298 DUP7 PUSH2 0x1B9F JUMP JUMPDEST PUSH1 0x40 MLOAD PUSH2 0x12A5 SWAP2 SWAP1 PUSH2 0x2B6E JUMP JUMPDEST SWAP1 DUP2 MSTORE PUSH1 0x20 ADD PUSH1 0x40 MLOAD DUP1 SWAP2 SUB SWAP1 KECCAK256 PUSH2 0x12BC DUP6 PUSH2 0x1B9F JUMP JUMPDEST PUSH1 0x40 MLOAD PUSH2 0x12C9 SWAP2 SWAP1 PUSH2 0x2B6E JUMP JUMPDEST SWAP1 DUP2 MSTORE PUSH1 0x20 ADD PUSH1 0x40 MLOAD DUP1 SWAP2 SUB SWAP1 KECCAK256 PUSH2 0x12E0 DUP5 PUSH2 0x1B9F JUMP JUMPDEST PUSH1 0x40 MLOAD PUSH2 0x12ED SWAP2 SWAP1 PUSH2 0x2B6E JUMP JUMPDEST SWAP1 DUP2 MSTORE PUSH1 0x20 ADD PUSH1 0x40 MLOAD DUP1 SWAP2 SUB SWAP1 KECCAK256 PUSH2 0x1304 DUP4 PUSH2 0x1B9F JUMP JUMPDEST PUSH1 0x40 MLOAD PUSH2 0x1311 SWAP2 SWAP1 PUSH2 0x2B6E JUMP JUMPDEST SWAP1 DUP2 MSTORE PUSH1 0x20 ADD PUSH1 0x40 MLOAD DUP1 SWAP2 SUB SWAP1 KECCAK256 SLOAD SWAP1 POP SWAP5 SWAP4 POP POP POP POP JUMP JUMPDEST PUSH1 0x60 PUSH1 0xB PUSH2 0x1337 DUP4 PUSH2 0x1B9F JUMP JUMPDEST PUSH1 0x40 MLOAD PUSH2 0x1344 SWAP2 SWAP1 PUSH2 0x2B6E JUMP JUMPDEST SWAP1 DUP2 MSTORE PUSH1 0x20 ADD PUSH1 0x40 MLOAD DUP1 SWAP2 SUB SWAP1 KECCAK256 DUP1 SLOAD DUP1 PUSH1 0x20 MUL PUSH1 0x20 ADD PUSH1 0x40 MLOAD SWAP1 DUP2 ADD PUSH1 0x40 MSTORE DUP1 SWAP3 SWAP2 SWAP1 DUP2 DUP2 MSTORE PUSH1 0x20 ADD DUP3 DUP1 SLOAD DUP1 ISZERO PUSH2 0x139A JUMPI PUSH1 0x20 MUL DUP3 ADD SWAP2 SWAP1 PUSH0 MSTORE PUSH1 0x20 PUSH0 KECCAK256 SWAP1 JUMPDEST DUP2 SLOAD DUP2 MSTORE PUSH1 0x20 ADD SWAP1 PUSH1 0x1 ADD SWAP1 DUP1 DUP4 GT PUSH2 0x1386 JUMPI JUMPDEST POP POP POP POP POP SWAP1 POP SWAP2 SWAP1 POP JUMP JUMPDEST PUSH0 PUSH1 0x4 SLOAD SWAP1 POP SWAP1 JUMP JUMPDEST PUSH1 0x60 PUSH1 0x9 PUSH2 0x13BC DUP4 PUSH2 0x1B9F JUMP JUMPDEST PUSH1 0x40 MLOAD PUSH2 0x13C9 SWAP2 SWAP1 PUSH2 0x2B6E JUMP JUMPDEST SWAP1 DUP2 MSTORE PUSH1 0x20 ADD PUSH1 0x40 MLOAD DUP1 SWAP2 SUB SWAP1 KECCAK256 DUP1 SLOAD DUP1 PUSH1 0x20 MUL PUSH1 0x20 ADD PUSH1 0x40 MLOAD SWAP1 DUP2 ADD PUSH1 0x40 MSTORE DUP1 SWAP3 SWAP2 SWAP1 DUP2 DUP2 MSTORE PUSH1 0x20 ADD PUSH0 SWAP1 JUMPDEST DUP3 DUP3 LT ISZERO PUSH2 0x149E JUMPI DUP4 DUP3 SWAP1 PUSH0 MSTORE PUSH1 0x20 PUSH0 KECCAK256 ADD DUP1 SLOAD PUSH2 0x1413 SWAP1 PUSH2 0x2B04 JUMP JUMPDEST DUP1 PUSH1 0x1F ADD PUSH1 0x20 DUP1 SWAP2 DIV MUL PUSH1 0x20 ADD PUSH1 0x40 MLOAD SWAP1 DUP2 ADD PUSH1 0x40 MSTORE DUP1 SWAP3 SWAP2 SWAP1 DUP2 DUP2 MSTORE PUSH1 0x20 ADD DUP3 DUP1 SLOAD PUSH2 0x143F SWAP1 PUSH2 0x2B04 JUMP JUMPDEST DUP1 ISZERO PUSH2 0x148A JUMPI DUP1 PUSH1 0x1F LT PUSH2 0x1461 JUMPI PUSH2 0x100 DUP1 DUP4 SLOAD DIV MUL DUP4 MSTORE SWAP2 PUSH1 0x20 ADD SWAP2 PUSH2 0x148A JUMP JUMPDEST DUP3 ADD SWAP2 SWAP1 PUSH0 MSTORE PUSH1 0x20 PUSH0 KECCAK256 SWAP1 JUMPDEST DUP2 SLOAD DUP2 MSTORE SWAP1 PUSH1 0x1 ADD SWAP1 PUSH1 0x20 ADD DUP1 DUP4 GT PUSH2 0x146D JUMPI DUP3 SWAP1 SUB PUSH1 0x1F AND DUP3 ADD SWAP2 JUMPDEST POP POP POP POP POP DUP2 MSTORE PUSH1 0x20 ADD SWAP1 PUSH1 0x1 ADD SWAP1 PUSH2 0x13F6 JUMP JUMPDEST POP POP POP POP SWAP1 POP SWAP2 SWAP1 POP JUMP JUMPDEST PUSH0 DUP1 PUSH0 SWAP1 SLOAD SWAP1 PUSH2 0x100 EXP SWAP1 DIV PUSH20 0xFFFFFFFFFFFFFFFFFFFFFFFFFFFFFFFFFFFFFFFF AND SWAP1 POP SWAP1 JUMP JUMPDEST PUSH0 PUSH1 0x3 SLOAD SWAP1 POP SWAP1 JUMP JUMPDEST PUSH0 DUP1 PUSH0 SWAP1 SLOAD SWAP1 PUSH2 0x100 EXP SWAP1 DIV PUSH20 0xFFFFFFFFFFFFFFFFFFFFFFFFFFFFFFFFFFFFFFFF AND PUSH20 0xFFFFFFFFFFFFFFFFFFFFFFFFFFFFFFFFFFFFFFFF AND CALLER PUSH20 0xFFFFFFFFFFFFFFFFFFFFFFFFFFFFFFFFFFFFFFFF AND EQ PUSH2 0x1568 JUMPI PUSH1 0x40 MLOAD PUSH32 0x8C379A000000000000000000000000000000000000000000000000000000000 DUP2 MSTORE PUSH1 0x4 ADD PUSH2 0x155F SWAP1 PUSH2 0x2C04 JUMP JUMPDEST PUSH1 0x40 MLOAD DUP1 SWAP2 SUB SWAP1 REVERT JUMPDEST PUSH0 PUSH2 0x1572 DUP9 PUSH2 0x1B9F JUMP JUMPDEST SWAP1 POP PUSH0 PUSH2 0x157E DUP9 PUSH2 0x1B9F JUMP JUMPDEST SWAP1 POP PUSH0 PUSH2 0x158A DUP9 PUSH2 0x1B9F JUMP JUMPDEST SWAP1 POP PUSH0 PUSH2 0x1596 DUP9 PUSH2 0x1B9F JUMP JUMPDEST SWAP1 POP DUP7 PUSH1 0x6 DUP5 PUSH1 0x40 MLOAD PUSH2 0x15A9 SWAP2 SWAP1 PUSH2 0x2B6E JUMP JUMPDEST SWAP1 DUP2 MSTORE PUSH1 0x20 ADD PUSH1 0x40 MLOAD DUP1 SWAP2 SUB SWAP1 KECCAK256 DUP4 PUSH1 0x40 MLOAD PUSH2 0x15C5 SWAP2 SWAP1 PUSH2 0x2B6E JUMP JUMPDEST SWAP1 DUP2 MSTORE PUSH1 0x20 ADD PUSH1 0x40 MLOAD DUP1 SWAP2 SUB SWAP1 KECCAK256 DUP3 PUSH1 0x40 MLOAD PUSH2 0x15E1 SWAP2 SWAP1 PUSH2 0x2B6E JUMP JUMPDEST SWAP1 DUP2 MSTORE PUSH1 0x20 ADD PUSH1 0x40 MLOAD DUP1 SWAP2 SUB SWAP1 KECCAK256 PUSH1 0x1 ADD SLOAD SLT ISZERO PUSH2 0x1634 JUMPI PUSH1 0x40 MLOAD PUSH32 0x8C379A000000000000000000000000000000000000000000000000000000000 DUP2 MSTORE PUSH1 0x4 ADD PUSH2 0x162B SWAP1 PUSH2 0x322F JUMP JUMPDEST PUSH1 0x40 MLOAD DUP1 SWAP2 SUB SWAP1 REVERT JUMPDEST DUP7 PUSH1 0x6 DUP5 PUSH1 0x40 MLOAD PUSH2 0x1645 SWAP2 SWAP1 PUSH2 0x2B6E JUMP JUMPDEST SWAP1 DUP2 MSTORE PUSH1 0x20 ADD PUSH1 0x40 MLOAD DUP1 SWAP2 SUB SWAP1 KECCAK256 DUP4 PUSH1 0x40 MLOAD PUSH2 0x1661 SWAP2 SWAP1 PUSH2 0x2B6E JUMP JUMPDEST SWAP1 DUP2 MSTORE PUSH1 0x20 ADD PUSH1 0x40 MLOAD DUP1 SWAP2 SUB SWAP1 KECCAK256 DUP3 PUSH1 0x40 MLOAD PUSH2 0x167D SWAP2 SWAP1 PUSH2 0x2B6E JUMP JUMPDEST SWAP1 DUP2 MSTORE PUSH1 0x20 ADD PUSH1 0x40 MLOAD DUP1 SWAP2 SUB SWAP1 KECCAK256 PUSH1 0x1 ADD PUSH0 DUP3 DUP3 SLOAD PUSH2 0x169C SWAP2 SWAP1 PUSH2 0x2CB7 JUMP JUMPDEST SWAP3 POP POP DUP2 SWAP1 SSTORE POP DUP7 PUSH1 0xD DUP6 PUSH1 0x40 MLOAD PUSH2 0x16B4 SWAP2 SWAP1 PUSH2 0x2B6E JUMP JUMPDEST SWAP1 DUP2 MSTORE PUSH1 0x20 ADD PUSH1 0x40 MLOAD DUP1 SWAP2 SUB SWAP1 KECCAK256 PUSH0 DUP3 DUP3 SLOAD PUSH2 0x16D0 SWAP2 SWAP1 PUSH2 0x2CF7 JUMP JUMPDEST SWAP3 POP POP DUP2 SWAP1 SSTORE POP DUP7 PUSH1 0x3 PUSH0 DUP3 DUP3 SLOAD PUSH2 0x16E8 SWAP2 SWAP1 PUSH2 0x2CF7 JUMP JUMPDEST SWAP3 POP POP DUP2 SWAP1 SSTORE POP PUSH32 0x1B54EF0CCCBEAB6FF65480564FD3654638160F7C56EE2E640CD276661F32EA36 DUP5 DUP5 DUP5 DUP5 DUP12 DUP12 PUSH1 0x40 MLOAD PUSH2 0x1728 SWAP7 SWAP6 SWAP5 SWAP4 SWAP3 SWAP2 SWAP1 PUSH2 0x324D JUMP JUMPDEST PUSH1 0x40 MLOAD DUP1 SWAP2 SUB SWAP1 LOG1 PUSH2 0x173E DUP5 DUP5 DUP5 DUP5 DUP12 DUP12 PUSH2 0x1CF3 JUMP JUMPDEST SWAP5 POP POP POP POP POP SWAP7 SWAP6 POP POP POP POP POP POP JUMP JUMPDEST PUSH1 0x60 PUSH1 0xF DUP1 SLOAD DUP1 PUSH1 0x20 MUL PUSH1 0x20 ADD PUSH1 0x40 MLOAD SWAP1 DUP2 ADD PUSH1 0x40 MSTORE DUP1 SWAP3 SWAP2 SWAP1 DUP2 DUP2 MSTORE PUSH1 0x20 ADD PUSH0 SWAP1 JUMPDEST DUP3 DUP3 LT ISZERO PUSH2 0x1819 JUMPI DUP4 DUP3 SWAP1 PUSH0 MSTORE PUSH1 0x20 PUSH0 KECCAK256 ADD DUP1 SLOAD PUSH2 0x178E SWAP1 PUSH2 0x2B04 JUMP JUMPDEST DUP1 PUSH1 0x1F ADD PUSH1 0x20 DUP1 SWAP2 DIV MUL PUSH1 0x20 ADD PUSH1 0x40 MLOAD SWAP1 DUP2 ADD PUSH1 0x40 MSTORE DUP1 SWAP3 SWAP2 SWAP1 DUP2 DUP2 MSTORE PUSH1 0x20 ADD DUP3 DUP1 SLOAD PUSH2 0x17BA SWAP1 PUSH2 0x2B04 JUMP JUMPDEST DUP1 ISZERO PUSH2 0x1805 JUMPI DUP1 PUSH1 0x1F LT PUSH2 0x17DC JUMPI PUSH2 0x100 DUP1 DUP4 SLOAD DIV MUL DUP4 MSTORE SWAP2 PUSH1 0x20 ADD SWAP2 PUSH2 0x1805 JUMP JUMPDEST DUP3 ADD SWAP2 SWAP1 PUSH0 MSTORE PUSH1 0x20 PUSH0 KECCAK256 SWAP1 JUMPDEST DUP2 SLOAD DUP2 MSTORE SWAP1 PUSH1 0x1 ADD SWAP1 PUSH1 0x20 ADD DUP1 DUP4 GT PUSH2 0x17E8 JUMPI DUP3 SWAP1 SUB PUSH1 0x1F AND DUP3 ADD SWAP2 JUMPDEST POP POP POP POP POP DUP2 MSTORE PUSH1 0x20 ADD SWAP1 PUSH1 0x1 ADD SWAP1 PUSH2 0x1771 JUMP JUMPDEST POP POP POP POP SWAP1 POP SWAP1 JUMP JUMPDEST PUSH0 PUSH1 0x1 SLOAD SWAP1 POP SWAP1 JUMP JUMPDEST PUSH1 0x60 PUSH1 0x5 DUP1 SLOAD DUP1 PUSH1 0x20 MUL PUSH1 0x20 ADD PUSH1 0x40 MLOAD SWAP1 DUP2 ADD PUSH1 0x40 MSTORE DUP1 SWAP3 SWAP2 SWAP1 DUP2 DUP2 MSTORE PUSH1 0x20 ADD PUSH0 SWAP1 JUMPDEST DUP3 DUP3 LT ISZERO PUSH2 0x18F6 JUMPI DUP4 DUP3 SWAP1 PUSH0 MSTORE PUSH1 0x20 PUSH0 KECCAK256 ADD DUP1 SLOAD PUSH2 0x186B SWAP1 PUSH2 0x2B04 JUMP JUMPDEST DUP1 PUSH1 0x1F ADD PUSH1 0x20 DUP1 SWAP2 DIV MUL PUSH1 0x20 ADD PUSH1 0x40 MLOAD SWAP1 DUP2 ADD PUSH1 0x40 MSTORE DUP1 SWAP3 SWAP2 SWAP1 DUP2 DUP2 MSTORE PUSH1 0x20 ADD DUP3 DUP1 SLOAD PUSH2 0x1897 SWAP1 PUSH2 0x2B04 JUMP JUMPDEST DUP1 ISZERO PUSH2 0x18E2 JUMPI DUP1 PUSH1 0x1F LT PUSH2 0x18B9 JUMPI PUSH2 0x100 DUP1 DUP4 SLOAD DIV MUL DUP4 MSTORE SWAP2 PUSH1 0x20 ADD SWAP2 PUSH2 0x18E2 JUMP JUMPDEST DUP3 ADD SWAP2 SWAP1 PUSH0 MSTORE PUSH1 0x20 PUSH0 KECCAK256 SWAP1 JUMPDEST DUP2 SLOAD DUP2 MSTORE SWAP1 PUSH1 0x1 ADD SWAP1 PUSH1 0x20 ADD DUP1 DUP4 GT PUSH2 0x18C5 JUMPI DUP3 SWAP1 SUB PUSH1 0x1F AND DUP3 ADD SWAP2 JUMPDEST POP POP POP POP POP DUP2 MSTORE PUSH1 0x20 ADD SWAP1 PUSH1 0x1 ADD SWAP1 PUSH2 0x184E JUMP JUMPDEST POP POP POP POP SWAP1 POP SWAP1 JUMP JUMPDEST PUSH0 DUP1 PUSH0 SWAP1 SLOAD SWAP1 PUSH2 0x100 EXP SWAP1 DIV PUSH20 0xFFFFFFFFFFFFFFFFFFFFFFFFFFFFFFFFFFFFFFFF AND PUSH20 0xFFFFFFFFFFFFFFFFFFFFFFFFFFFFFFFFFFFFFFFF AND CALLER PUSH20 0xFFFFFFFFFFFFFFFFFFFFFFFFFFFFFFFFFFFFFFFF AND EQ PUSH2 0x198E JUMPI PUSH1 0x40 MLOAD PUSH32 0x8C379A000000000000000000000000000000000000000000000000000000000 DUP2 MSTORE PUSH1 0x4 ADD PUSH2 0x1985 SWAP1 PUSH2 0x2C04 JUMP JUMPDEST PUSH1 0x40 MLOAD DUP1 SWAP2 SUB SWAP1 REVERT JUMPDEST PUSH0 PUSH20 0xFFFFFFFFFFFFFFFFFFFFFFFFFFFFFFFFFFFFFFFF AND DUP3 PUSH20 0xFFFFFFFFFFFFFFFFFFFFFFFFFFFFFFFFFFFFFFFF AND SUB PUSH2 0x19FC JUMPI PUSH1 0x40 MLOAD PUSH32 0x8C379A000000000000000000000000000000000000000000000000000000000 DUP2 MSTORE PUSH1 0x4 ADD PUSH2 0x19F3 SWAP1 PUSH2 0x3312 JUMP JUMPDEST PUSH1 0x40 MLOAD DUP1 SWAP2 SUB SWAP1 REVERT JUMPDEST DUP2 PUSH0 DUP1 PUSH2 0x100 EXP DUP2 SLOAD DUP2 PUSH20 0xFFFFFFFFFFFFFFFFFFFFFFFFFFFFFFFFFFFFFFFF MUL NOT AND SWAP1 DUP4 PUSH20 0xFFFFFFFFFFFFFFFFFFFFFFFFFFFFFFFFFFFFFFFF AND MUL OR SWAP1 SSTORE POP DUP2 PUSH20 0xFFFFFFFFFFFFFFFFFFFFFFFFFFFFFFFFFFFFFFFF AND PUSH0 DUP1 SLOAD SWAP1 PUSH2 0x100 EXP SWAP1 DIV PUSH20 0xFFFFFFFFFFFFFFFFFFFFFFFFFFFFFFFFFFFFFFFF AND PUSH20 0xFFFFFFFFFFFFFFFFFFFFFFFFFFFFFFFFFFFFFFFF AND PUSH32 0x8BE0079C531659141344CD1FD0A4F28419497F9722A3DAAFE3B4186F6B6457E0 PUSH1 0x40 MLOAD PUSH1 0x40 MLOAD DUP1 SWAP2 SUB SWAP1 LOG3 PUSH1 0x1 SWAP1 POP SWAP2 SWAP1 POP JUMP JUMPDEST PUSH0 PUSH1 0x7 PUSH2 0x1AC9 DUP4 PUSH2 0x1B9F JUMP JUMPDEST PUSH1 0x40 MLOAD PUSH2 0x1AD6 SWAP2 SWAP1 PUSH2 0x2B6E JUMP JUMPDEST SWAP1 DUP2 MSTORE PUSH1 0x20 ADD PUSH1 0x40 MLOAD DUP1 SWAP2 SUB SWAP1 KECCAK256 PUSH0 SWAP1 SLOAD SWAP1 PUSH2 0x100 EXP SWAP1 DIV PUSH1 0xFF AND SWAP1 POP SWAP2 SWAP1 POP JUMP JUMPDEST PUSH2 0x1B00 PUSH2 0x1EAB JUMP JUMPDEST PUSH1 0x6 PUSH2 0x1B0B DUP6 PUSH2 0x1B9F JUMP JUMPDEST PUSH1 0x40 MLOAD PUSH2 0x1B18 SWAP2 SWAP1 PUSH2 0x2B6E JUMP JUMPDEST SWAP1 DUP2 MSTORE PUSH1 0x20 ADD PUSH1 0x40 MLOAD DUP1 SWAP2 SUB SWAP1 KECCAK256 PUSH2 0x1B2F DUP5 PUSH2 0x1B9F JUMP JUMPDEST PUSH1 0x40 MLOAD PUSH2 0x1B3C SWAP2 SWAP1 PUSH2 0x2B6E JUMP JUMPDEST SWAP1 DUP2 MSTORE PUSH1 0x20 ADD PUSH1 0x40 MLOAD DUP1 SWAP2 SUB SWAP1 KECCAK256 PUSH2 0x1B53 DUP4 PUSH2 0x1B9F JUMP JUMPDEST PUSH1 0x40 MLOAD PUSH2 0x1B60 SWAP2 SWAP1 PUSH2 0x2B6E JUMP JUMPDEST SWAP1 DUP2 MSTORE PUSH1 0x20 ADD PUSH1 0x40 MLOAD DUP1 SWAP2 SUB SWAP1 KECCAK256 PUSH1 0x40 MLOAD DUP1 PUSH1 0x60 ADD PUSH1 0x40 MSTORE SWAP1 DUP2 PUSH0 DUP3 ADD SLOAD DUP2 MSTORE PUSH1 0x20 ADD PUSH1 0x1 DUP3 ADD SLOAD DUP2 MSTORE PUSH1 0x20 ADD PUSH1 0x2 DUP3 ADD SLOAD DUP2 MSTORE POP POP SWAP1 POP SWAP4 SWAP3 POP POP POP JUMP JUMPDEST PUSH1 0x60 PUSH0 DUP3 SWAP1 POP PUSH0 DUP2 MLOAD SWAP1 POP PUSH0 JUMPDEST DUP2 DUP2 LT ISZERO PUSH2 0x1C90 JUMPI PUSH1 0x41 DUP4 DUP3 DUP2 MLOAD DUP2 LT PUSH2 0x1BC9 JUMPI PUSH2 0x1BC8 PUSH2 0x3330 JUMP JUMPDEST JUMPDEST PUSH1 0x20 ADD ADD MLOAD PUSH1 0xF8 SHR PUSH1 0xF8 SHL PUSH1 0xF8 SHR PUSH1 0xFF AND LT ISZERO DUP1 ISZERO PUSH2 0x1C0C JUMPI POP PUSH1 0x5A DUP4 DUP3 DUP2 MLOAD DUP2 LT PUSH2 0x1BF8 JUMPI PUSH2 0x1BF7 PUSH2 0x3330 JUMP JUMPDEST JUMPDEST PUSH1 0x20 ADD ADD MLOAD PUSH1 0xF8 SHR PUSH1 0xF8 SHL PUSH1 0xF8 SHR PUSH1 0xFF AND GT ISZERO JUMPDEST ISZERO PUSH2 0x1C83 JUMPI PUSH1 0x20 DUP4 DUP3 DUP2 MLOAD DUP2 LT PUSH2 0x1C26 JUMPI PUSH2 0x1C25 PUSH2 0x3330 JUMP JUMPDEST JUMPDEST PUSH1 0x20 ADD ADD MLOAD PUSH1 0xF8 SHR PUSH1 0xF8 SHL PUSH1 0xF8 SHR PUSH2 0x1C3E SWAP2 SWAP1 PUSH2 0x3369 JUMP JUMPDEST PUSH1 0xF8 SHL DUP4 DUP3 DUP2 MLOAD DUP2 LT PUSH2 0x1C54 JUMPI PUSH2 0x1C53 PUSH2 0x3330 JUMP JUMPDEST JUMPDEST PUSH1 0x20 ADD ADD SWAP1 PUSH31 0xFFFFFFFFFFFFFFFFFFFFFFFFFFFFFFFFFFFFFFFFFFFFFFFFFFFFFFFFFFFFFF NOT AND SWAP1 DUP2 PUSH0 BYTE SWAP1 MSTORE8 POP JUMPDEST DUP1 DUP1 PUSH1 0x1 ADD SWAP2 POP POP PUSH2 0x1BAC JUMP JUMPDEST POP DUP2 SWAP3 POP POP POP SWAP2 SWAP1 POP JUMP JUMPDEST PUSH0 DUP2 PUSH1 0x40 MLOAD PUSH1 0x20 ADD PUSH2 0x1CAD SWAP2 SWAP1 PUSH2 0x2B6E JUMP JUMPDEST PUSH1 0x40 MLOAD PUSH1 0x20 DUP2 DUP4 SUB SUB DUP2 MSTORE SWAP1 PUSH1 0x40 MSTORE DUP1 MLOAD SWAP1 PUSH1 0x20 ADD KECCAK256 DUP4 PUSH1 0x40 MLOAD PUSH1 0x20 ADD PUSH2 0x1CD4 SWAP2 SWAP1 PUSH2 0x2B6E JUMP JUMPDEST PUSH1 0x40 MLOAD PUSH1 0x20 DUP2 DUP4 SUB SUB DUP2 MSTORE SWAP1 PUSH1 0x40 MSTORE DUP1 MLOAD SWAP1 PUSH1 0x20 ADD KECCAK256 EQ SWAP1 POP SWAP3 SWAP2 POP POP JUMP JUMPDEST PUSH0 DUP1 PUSH2 0x1CFE DUP9 PUSH2 0x1B9F JUMP JUMPDEST SWAP1 POP PUSH0 PUSH2 0x1D0A DUP9 PUSH2 0x1B9F JUMP JUMPDEST SWAP1 POP PUSH0 PUSH2 0x1D16 DUP9 PUSH2 0x1B9F JUMP JUMPDEST SWAP1 POP PUSH0 PUSH2 0x1D22 DUP9 PUSH2 0x1B9F JUMP JUMPDEST SWAP1 POP PUSH1 0x4 PUSH0 DUP2 SLOAD DUP1 SWAP3 SWAP2 SWAP1 PUSH2 0x1D36 SWAP1 PUSH2 0x339D JUMP JUMPDEST SWAP2 SWAP1 POP SSTORE POP PUSH0 PUSH1 0xA PUSH0 PUSH1 0x4 SLOAD DUP2 MSTORE PUSH1 0x20 ADD SWAP1 DUP2 MSTORE PUSH1 0x20 ADD PUSH0 KECCAK256 SWAP1 POP PUSH1 0x4 SLOAD DUP2 PUSH0 ADD DUP2 SWAP1 SSTORE POP DUP5 DUP2 PUSH1 0x1 ADD SWAP1 DUP2 PUSH2 0x1D6C SWAP2 SWAP1 PUSH2 0x2F7A JUMP JUMPDEST POP DUP4 DUP2 PUSH1 0x2 ADD SWAP1 DUP2 PUSH2 0x1D7E SWAP2 SWAP1 PUSH2 0x2F7A JUMP JUMPDEST POP DUP3 DUP2 PUSH1 0x3 ADD SWAP1 DUP2 PUSH2 0x1D90 SWAP2 SWAP1 PUSH2 0x2F7A JUMP JUMPDEST POP DUP2 DUP2 PUSH1 0x4 ADD SWAP1 DUP2 PUSH2 0x1DA2 SWAP2 SWAP1 PUSH2 0x2F7A JUMP JUMPDEST POP DUP8 DUP2 PUSH1 0x5 ADD PUSH0 DUP3 DUP3 SLOAD PUSH2 0x1DB6 SWAP2 SWAP1 PUSH2 0x2CF7 JUMP JUMPDEST SWAP3 POP POP DUP2 SWAP1 SSTORE POP DUP7 DUP2 PUSH1 0x6 ADD DUP2 SWAP1 SSTORE POP TIMESTAMP DUP2 PUSH1 0x7 ADD DUP2 SWAP1 SSTORE POP PUSH1 0xB DUP6 PUSH1 0x40 MLOAD PUSH2 0x1DDF SWAP2 SWAP1 PUSH2 0x2B6E JUMP JUMPDEST SWAP1 DUP2 MSTORE PUSH1 0x20 ADD PUSH1 0x40 MLOAD DUP1 SWAP2 SUB SWAP1 KECCAK256 DUP2 PUSH0 ADD SLOAD SWAP1 DUP1 PUSH1 0x1 DUP2 SLOAD ADD DUP1 DUP3 SSTORE DUP1 SWAP2 POP POP PUSH1 0x1 SWAP1 SUB SWAP1 PUSH0 MSTORE PUSH1 0x20 PUSH0 KECCAK256 ADD PUSH0 SWAP1 SWAP2 SWAP1 SWAP2 SWAP1 SWAP2 POP SSTORE PUSH32 0xD74E30340DB693955384AFDCF8B3879B8E97D050E96AD43BDDAE4356682F7F3B PUSH1 0x4 SLOAD DUP7 DUP7 DUP7 DUP7 DUP14 PUSH1 0x40 MLOAD PUSH2 0x1E4F SWAP7 SWAP6 SWAP5 SWAP4 SWAP3 SWAP2 SWAP1 PUSH2 0x33E4 JUMP JUMPDEST PUSH1 0x40 MLOAD DUP1 SWAP2 SUB SWAP1 LOG1 PUSH1 0x1 SWAP6 POP POP POP POP POP POP SWAP7 SWAP6 POP POP POP POP POP POP JUMP JUMPDEST PUSH1 0x40 MLOAD DUP1 PUSH2 0x100 ADD PUSH1 0x40 MSTORE DUP1 PUSH0 DUP2 MSTORE PUSH1 0x20 ADD PUSH1 0x60 DUP2 MSTORE PUSH1 0x20 ADD PUSH1 0x60 DUP2 MSTORE PUSH1 0x20 ADD PUSH1 0x60 DUP2 MSTORE PUSH1 0x20 ADD PUSH1 0x60 DUP2 MSTORE PUSH1 0x20 ADD PUSH0 DUP2 MSTORE PUSH1 0x20 ADD PUSH0 DUP2 MSTORE PUSH1 0x20 ADD PUSH0 DUP2 MSTORE POP SWAP1 JUMP JUMPDEST PUSH1 0x40 MLOAD DUP1 PUSH1 0x60 ADD PUSH1 0x40 MSTORE DUP1 PUSH0 DUP2 MSTORE PUSH1 0x20 ADD PUSH0 DUP2 MSTORE PUSH1 0x20 ADD PUSH0 DUP2 MSTORE POP SWAP1 JUMP JUMPDEST PUSH0 DUP2 SWAP1 POP SWAP2 SWAP1 POP JUMP JUMPDEST PUSH2 0x1EDB DUP2 PUSH2 0x1EC9 JUMP JUMPDEST DUP3 MSTORE POP POP JUMP JUMPDEST PUSH0 PUSH1 0x20 DUP3 ADD SWAP1 POP PUSH2 0x1EF4 PUSH0 DUP4 ADD DUP5 PUSH2 0x1ED2 JUMP JUMPDEST SWAP3 SWAP2 POP POP JUMP JUMPDEST PUSH0 PUSH1 0x40 MLOAD SWAP1 POP SWAP1 JUMP JUMPDEST PUSH0 DUP1 REVERT JUMPDEST PUSH0 DUP1 REVERT JUMPDEST PUSH2 0x1F14 DUP2 PUSH2 0x1EC9 JUMP JUMPDEST DUP2 EQ PUSH2 0x1F1E JUMPI PUSH0 DUP1 REVERT JUMPDEST POP JUMP JUMPDEST PUSH0 DUP2 CALLDATALOAD SWAP1 POP PUSH2 0x1F2F DUP2 PUSH2 0x1F0B JUMP JUMPDEST SWAP3 SWAP2 POP POP JUMP JUMPDEST PUSH0 PUSH1 0x20 DUP3 DUP5 SUB SLT ISZERO PUSH2 0x1F4A JUMPI PUSH2 0x1F49 PUSH2 0x1F03 JUMP JUMPDEST JUMPDEST PUSH0 PUSH2 0x1F57 DUP5 DUP3 DUP6 ADD PUSH2 0x1F21 JUMP JUMPDEST SWAP2 POP POP SWAP3 SWAP2 POP POP JUMP JUMPDEST PUSH2 0x1F69 DUP2 PUSH2 0x1EC9 JUMP JUMPDEST DUP3 MSTORE POP POP JUMP JUMPDEST PUSH0 DUP2 MLOAD SWAP1 POP SWAP2 SWAP1 POP JUMP JUMPDEST PUSH0 DUP3 DUP3 MSTORE PUSH1 0x20 DUP3 ADD SWAP1 POP SWAP3 SWAP2 POP POP JUMP JUMPDEST DUP3 DUP2 DUP4 MCOPY PUSH0 DUP4 DUP4 ADD MSTORE POP POP POP JUMP JUMPDEST PUSH0 PUSH1 0x1F NOT PUSH1 0x1F DUP4 ADD AND SWAP1 POP SWAP2 SWAP1 POP JUMP JUMPDEST PUSH0 PUSH2 0x1FB1 DUP3 PUSH2 0x1F6F JUMP JUMPDEST PUSH2 0x1FBB DUP2 DUP6 PUSH2 0x1F79 JUMP JUMPDEST SWAP4 POP PUSH2 0x1FCB DUP2 DUP6 PUSH1 0x20 DUP7 ADD PUSH2 0x1F89 JUMP JUMPDEST PUSH2 0x1FD4 DUP2 PUSH2 0x1F97 JUMP JUMPDEST DUP5 ADD SWAP2 POP POP SWAP3 SWAP2 POP POP JUMP JUMPDEST PUSH0 DUP2 SWAP1 POP SWAP2 SWAP1 POP JUMP JUMPDEST PUSH2 0x1FF1 DUP2 PUSH2 0x1FDF JUMP JUMPDEST DUP3 MSTORE POP POP JUMP JUMPDEST PUSH0 PUSH2 0x100 DUP4 ADD PUSH0 DUP4 ADD MLOAD PUSH2 0x200D PUSH0 DUP7 ADD DUP3 PUSH2 0x1F60 JUMP JUMPDEST POP PUSH1 0x20 DUP4 ADD MLOAD DUP5 DUP3 SUB PUSH1 0x20 DUP7 ADD MSTORE PUSH2 0x2025 DUP3 DUP3 PUSH2 0x1FA7 JUMP JUMPDEST SWAP2 POP POP PUSH1 0x40 DUP4 ADD MLOAD DUP5 DUP3 SUB PUSH1 0x40 DUP7 ADD MSTORE PUSH2 0x203F DUP3 DUP3 PUSH2 0x1FA7 JUMP JUMPDEST SWAP2 POP POP PUSH1 0x60 DUP4 ADD MLOAD DUP5 DUP3 SUB PUSH1 0x60 DUP7 ADD MSTORE PUSH2 0x2059 DUP3 DUP3 PUSH2 0x1FA7 JUMP JUMPDEST SWAP2 POP POP PUSH1 0x80 DUP4 ADD MLOAD DUP5 DUP3 SUB PUSH1 0x80 DUP7 ADD MSTORE PUSH2 0x2073 DUP3 DUP3 PUSH2 0x1FA7 JUMP JUMPDEST SWAP2 POP POP PUSH1 0xA0 DUP4 ADD MLOAD PUSH2 0x2088 PUSH1 0xA0 DUP7 ADD DUP3 PUSH2 0x1F60 JUMP JUMPDEST POP PUSH1 0xC0 DUP4 ADD MLOAD PUSH2 0x209B PUSH1 0xC0 DUP7 ADD DUP3 PUSH2 0x1F60 JUMP JUMPDEST POP PUSH1 0xE0 DUP4 ADD MLOAD PUSH2 0x20AE PUSH1 0xE0 DUP7 ADD DUP3 PUSH2 0x1FE8 JUMP JUMPDEST POP DUP1 SWAP2 POP POP SWAP3 SWAP2 POP POP JUMP JUMPDEST PUSH0 PUSH1 0x20 DUP3 ADD SWAP1 POP DUP2 DUP2 SUB PUSH0 DUP4 ADD MSTORE PUSH2 0x20D1 DUP2 DUP5 PUSH2 0x1FF7 JUMP JUMPDEST SWAP1 POP SWAP3 SWAP2 POP POP JUMP JUMPDEST PUSH0 DUP1 REVERT JUMPDEST PUSH0 DUP1 REVERT JUMPDEST PUSH32 0x4E487B7100000000000000000000000000000000000000000000000000000000 PUSH0 MSTORE PUSH1 0x41 PUSH1 0x4 MSTORE PUSH1 0x24 PUSH0 REVERT JUMPDEST PUSH2 0x2117 DUP3 PUSH2 0x1F97 JUMP JUMPDEST DUP2 ADD DUP2 DUP2 LT PUSH8 0xFFFFFFFFFFFFFFFF DUP3 GT OR ISZERO PUSH2 0x2136 JUMPI PUSH2 0x2135 PUSH2 0x20E1 JUMP JUMPDEST JUMPDEST DUP1 PUSH1 0x40 MSTORE POP POP POP JUMP JUMPDEST PUSH0 PUSH2 0x2148 PUSH2 0x1EFA JUMP JUMPDEST SWAP1 POP PUSH2 0x2154 DUP3 DUP3 PUSH2 0x210E JUMP JUMPDEST SWAP2 SWAP1 POP JUMP JUMPDEST PUSH0 PUSH8 0xFFFFFFFFFFFFFFFF DUP3 GT ISZERO PUSH2 0x2173 JUMPI PUSH2 0x2172 PUSH2 0x20E1 JUMP JUMPDEST JUMPDEST PUSH2 0x217C DUP3 PUSH2 0x1F97 JUMP JUMPDEST SWAP1 POP PUSH1 0x20 DUP2 ADD SWAP1 POP SWAP2 SWAP1 POP JUMP JUMPDEST DUP3 DUP2 DUP4 CALLDATACOPY PUSH0 DUP4 DUP4 ADD MSTORE POP POP POP JUMP JUMPDEST PUSH0 PUSH2 0x21A9 PUSH2 0x21A4 DUP5 PUSH2 0x2159 JUMP JUMPDEST PUSH2 0x213F JUMP JUMPDEST SWAP1 POP DUP3 DUP2 MSTORE PUSH1 0x20 DUP2 ADD DUP5 DUP5 DUP5 ADD GT ISZERO PUSH2 0x21C5 JUMPI PUSH2 0x21C4 PUSH2 0x20DD JUMP JUMPDEST JUMPDEST PUSH2 0x21D0 DUP5 DUP3 DUP6 PUSH2 0x2189 JUMP JUMPDEST POP SWAP4 SWAP3 POP POP POP JUMP JUMPDEST PUSH0 DUP3 PUSH1 0x1F DUP4 ADD SLT PUSH2 0x21EC JUMPI PUSH2 0x21EB PUSH2 0x20D9 JUMP JUMPDEST JUMPDEST DUP2 CALLDATALOAD PUSH2 0x21FC DUP5 DUP3 PUSH1 0x20 DUP7 ADD PUSH2 0x2197 JUMP JUMPDEST SWAP2 POP POP SWAP3 SWAP2 POP POP JUMP JUMPDEST PUSH0 DUP1 PUSH1 0x40 DUP4 DUP6 SUB SLT ISZERO PUSH2 0x221B JUMPI PUSH2 0x221A PUSH2 0x1F03 JUMP JUMPDEST JUMPDEST PUSH0 DUP4 ADD CALLDATALOAD PUSH8 0xFFFFFFFFFFFFFFFF DUP2 GT ISZERO PUSH2 0x2238 JUMPI PUSH2 0x2237 PUSH2 0x1F07 JUMP JUMPDEST JUMPDEST PUSH2 0x2244 DUP6 DUP3 DUP7 ADD PUSH2 0x21D8 JUMP JUMPDEST SWAP3 POP POP PUSH1 0x20 DUP4 ADD CALLDATALOAD PUSH8 0xFFFFFFFFFFFFFFFF DUP2 GT ISZERO PUSH2 0x2265 JUMPI PUSH2 0x2264 PUSH2 0x1F07 JUMP JUMPDEST JUMPDEST PUSH2 0x2271 DUP6 DUP3 DUP7 ADD PUSH2 0x21D8 JUMP JUMPDEST SWAP2 POP POP SWAP3 POP SWAP3 SWAP1 POP JUMP JUMPDEST PUSH0 DUP2 ISZERO ISZERO SWAP1 POP SWAP2 SWAP1 POP JUMP JUMPDEST PUSH2 0x228F DUP2 PUSH2 0x227B JUMP JUMPDEST DUP3 MSTORE POP POP JUMP JUMPDEST PUSH0 PUSH1 0x20 DUP3 ADD SWAP1 POP PUSH2 0x22A8 PUSH0 DUP4 ADD DUP5 PUSH2 0x2286 JUMP JUMPDEST SWAP3 SWAP2 POP POP JUMP JUMPDEST PUSH0 DUP1 PUSH0 DUP1 PUSH0 PUSH1 0xA0 DUP7 DUP9 SUB SLT ISZERO PUSH2 0x22C7 JUMPI PUSH2 0x22C6 PUSH2 0x1F03 JUMP JUMPDEST JUMPDEST PUSH0 DUP7 ADD CALLDATALOAD PUSH8 0xFFFFFFFFFFFFFFFF DUP2 GT ISZERO PUSH2 0x22E4 JUMPI PUSH2 0x22E3 PUSH2 0x1F07 JUMP JUMPDEST JUMPDEST PUSH2 0x22F0 DUP9 DUP3 DUP10 ADD PUSH2 0x21D8 JUMP JUMPDEST SWAP6 POP POP PUSH1 0x20 DUP7 ADD CALLDATALOAD PUSH8 0xFFFFFFFFFFFFFFFF DUP2 GT ISZERO PUSH2 0x2311 JUMPI PUSH2 0x2310 PUSH2 0x1F07 JUMP JUMPDEST JUMPDEST PUSH2 0x231D DUP9 DUP3 DUP10 ADD PUSH2 0x21D8 JUMP JUMPDEST SWAP5 POP POP PUSH1 0x40 DUP7 ADD CALLDATALOAD PUSH8 0xFFFFFFFFFFFFFFFF DUP2 GT ISZERO PUSH2 0x233E JUMPI PUSH2 0x233D PUSH2 0x1F07 JUMP JUMPDEST JUMPDEST PUSH2 0x234A DUP9 DUP3 DUP10 ADD PUSH2 0x21D8 JUMP JUMPDEST SWAP4 POP POP PUSH1 0x60 DUP7 ADD CALLDATALOAD PUSH8 0xFFFFFFFFFFFFFFFF DUP2 GT ISZERO PUSH2 0x236B JUMPI PUSH2 0x236A PUSH2 0x1F07 JUMP JUMPDEST JUMPDEST PUSH2 0x2377 DUP9 DUP3 DUP10 ADD PUSH2 0x21D8 JUMP JUMPDEST SWAP3 POP POP PUSH1 0x80 PUSH2 0x2388 DUP9 DUP3 DUP10 ADD PUSH2 0x1F21 JUMP JUMPDEST SWAP2 POP POP SWAP3 SWAP6 POP SWAP3 SWAP6 SWAP1 SWAP4 POP JUMP JUMPDEST PUSH0 DUP1 PUSH0 DUP1 PUSH1 0x80 DUP6 DUP8 SUB SLT ISZERO PUSH2 0x23AD JUMPI PUSH2 0x23AC PUSH2 0x1F03 JUMP JUMPDEST JUMPDEST PUSH0 DUP6 ADD CALLDATALOAD PUSH8 0xFFFFFFFFFFFFFFFF DUP2 GT ISZERO PUSH2 0x23CA JUMPI PUSH2 0x23C9 PUSH2 0x1F07 JUMP JUMPDEST JUMPDEST PUSH2 0x23D6 DUP8 DUP3 DUP9 ADD PUSH2 0x21D8 JUMP JUMPDEST SWAP5 POP POP PUSH1 0x20 DUP6 ADD CALLDATALOAD PUSH8 0xFFFFFFFFFFFFFFFF DUP2 GT ISZERO PUSH2 0x23F7 JUMPI PUSH2 0x23F6 PUSH2 0x1F07 JUMP JUMPDEST JUMPDEST PUSH2 0x2403 DUP8 DUP3 DUP9 ADD PUSH2 0x21D8 JUMP JUMPDEST SWAP4 POP POP PUSH1 0x40 DUP6 ADD CALLDATALOAD PUSH8 0xFFFFFFFFFFFFFFFF DUP2 GT ISZERO PUSH2 0x2424 JUMPI PUSH2 0x2423 PUSH2 0x1F07 JUMP JUMPDEST JUMPDEST PUSH2 0x2430 DUP8 DUP3 DUP9 ADD PUSH2 0x21D8 JUMP JUMPDEST SWAP3 POP POP PUSH1 0x60 PUSH2 0x2441 DUP8 DUP3 DUP9 ADD PUSH2 0x1F21 JUMP JUMPDEST SWAP2 POP POP SWAP3 SWAP6 SWAP2 SWAP5 POP SWAP3 POP JUMP JUMPDEST PUSH0 PUSH1 0x20 DUP3 DUP5 SUB SLT ISZERO PUSH2 0x2462 JUMPI PUSH2 0x2461 PUSH2 0x1F03 JUMP JUMPDEST JUMPDEST PUSH0 DUP3 ADD CALLDATALOAD PUSH8 0xFFFFFFFFFFFFFFFF DUP2 GT ISZERO PUSH2 0x247F JUMPI PUSH2 0x247E PUSH2 0x1F07 JUMP JUMPDEST JUMPDEST PUSH2 0x248B DUP5 DUP3 DUP6 ADD PUSH2 0x21D8 JUMP JUMPDEST SWAP2 POP POP SWAP3 SWAP2 POP POP JUMP JUMPDEST PUSH0 DUP1 PUSH0 DUP1 PUSH0 DUP1 PUSH0 PUSH1 0xE0 DUP9 DUP11 SUB SLT ISZERO PUSH2 0x24AF JUMPI PUSH2 0x24AE PUSH2 0x1F03 JUMP JUMPDEST JUMPDEST PUSH0 DUP9 ADD CALLDATALOAD PUSH8 0xFFFFFFFFFFFFFFFF DUP2 GT ISZERO PUSH2 0x24CC JUMPI PUSH2 0x24CB PUSH2 0x1F07 JUMP JUMPDEST JUMPDEST PUSH2 0x24D8 DUP11 DUP3 DUP12 ADD PUSH2 0x21D8 JUMP JUMPDEST SWAP8 POP POP PUSH1 0x20 DUP9 ADD CALLDATALOAD PUSH8 0xFFFFFFFFFFFFFFFF DUP2 GT ISZERO PUSH2 0x24F9 JUMPI PUSH2 0x24F8 PUSH2 0x1F07 JUMP JUMPDEST JUMPDEST PUSH2 0x2505 DUP11 DUP3 DUP12 ADD PUSH2 0x21D8 JUMP JUMPDEST SWAP7 POP POP PUSH1 0x40 DUP9 ADD CALLDATALOAD PUSH8 0xFFFFFFFFFFFFFFFF DUP2 GT ISZERO PUSH2 0x2526 JUMPI PUSH2 0x2525 PUSH2 0x1F07 JUMP JUMPDEST JUMPDEST PUSH2 0x2532 DUP11 DUP3 DUP12 ADD PUSH2 0x21D8 JUMP JUMPDEST SWAP6 POP POP PUSH1 0x60 DUP9 ADD CALLDATALOAD PUSH8 0xFFFFFFFFFFFFFFFF DUP2 GT ISZERO PUSH2 0x2553 JUMPI PUSH2 0x2552 PUSH2 0x1F07 JUMP JUMPDEST JUMPDEST PUSH2 0x255F DUP11 DUP3 DUP12 ADD PUSH2 0x21D8 JUMP JUMPDEST SWAP5 POP POP PUSH1 0x80 DUP9 ADD CALLDATALOAD PUSH8 0xFFFFFFFFFFFFFFFF DUP2 GT ISZERO PUSH2 0x2580 JUMPI PUSH2 0x257F PUSH2 0x1F07 JUMP JUMPDEST JUMPDEST PUSH2 0x258C DUP11 DUP3 DUP12 ADD PUSH2 0x21D8 JUMP JUMPDEST SWAP4 POP POP PUSH1 0xA0 PUSH2 0x259D DUP11 DUP3 DUP12 ADD PUSH2 0x1F21 JUMP JUMPDEST SWAP3 POP POP PUSH1 0xC0 PUSH2 0x25AE DUP11 DUP3 DUP12 ADD PUSH2 0x1F21 JUMP JUMPDEST SWAP2 POP POP SWAP3 SWAP6 SWAP9 SWAP2 SWAP5 SWAP8 POP SWAP3 SWAP6 POP JUMP JUMPDEST PUSH0 DUP1 PUSH0 DUP1 PUSH1 0x80 DUP6 DUP8 SUB SLT ISZERO PUSH2 0x25D5 JUMPI PUSH2 0x25D4 PUSH2 0x1F03 JUMP JUMPDEST JUMPDEST PUSH0 DUP6 ADD CALLDATALOAD PUSH8 0xFFFFFFFFFFFFFFFF DUP2 GT ISZERO PUSH2 0x25F2 JUMPI PUSH2 0x25F1 PUSH2 0x1F07 JUMP JUMPDEST JUMPDEST PUSH2 0x25FE DUP8 DUP3 DUP9 ADD PUSH2 0x21D8 JUMP JUMPDEST SWAP5 POP POP PUSH1 0x20 DUP6 ADD CALLDATALOAD PUSH8 0xFFFFFFFFFFFFFFFF DUP2 GT ISZERO PUSH2 0x261F JUMPI PUSH2 0x261E PUSH2 0x1F07 JUMP JUMPDEST JUMPDEST PUSH2 0x262B DUP8 DUP3 DUP9 ADD PUSH2 0x21D8 JUMP JUMPDEST SWAP4 POP POP PUSH1 0x40 DUP6 ADD CALLDATALOAD PUSH8 0xFFFFFFFFFFFFFFFF DUP2 GT ISZERO PUSH2 0x264C JUMPI PUSH2 0x264B PUSH2 0x1F07 JUMP JUMPDEST JUMPDEST PUSH2 0x2658 DUP8 DUP3 DUP9 ADD PUSH2 0x21D8 JUMP JUMPDEST SWAP3 POP POP PUSH1 0x60 DUP6 ADD CALLDATALOAD PUSH8 0xFFFFFFFFFFFFFFFF DUP2 GT ISZERO PUSH2 0x2679 JUMPI PUSH2 0x2678 PUSH2 0x1F07 JUMP JUMPDEST JUMPDEST PUSH2 0x2685 DUP8 DUP3 DUP9 ADD PUSH2 0x21D8 JUMP JUMPDEST SWAP2 POP POP SWAP3 SWAP6 SWAP2 SWAP5 POP SWAP3 POP JUMP JUMPDEST PUSH0 DUP2 MLOAD SWAP1 POP SWAP2 SWAP1 POP JUMP JUMPDEST PUSH0 DUP3 DUP3 MSTORE PUSH1 0x20 DUP3 ADD SWAP1 POP SWAP3 SWAP2 POP POP JUMP JUMPDEST PUSH0 DUP2 SWAP1 POP PUSH1 0x20 DUP3 ADD SWAP1 POP SWAP2 SWAP1 POP JUMP JUMPDEST PUSH0 PUSH2 0x26C5 DUP4 DUP4 PUSH2 0x1F60 JUMP JUMPDEST PUSH1 0x20 DUP4 ADD SWAP1 POP SWAP3 SWAP2 POP POP JUMP JUMPDEST PUSH0 PUSH1 0x20 DUP3 ADD SWAP1 POP SWAP2 SWAP1 POP JUMP JUMPDEST PUSH0 PUSH2 0x26E7 DUP3 PUSH2 0x2691 JUMP JUMPDEST PUSH2 0x26F1 DUP2 DUP6 PUSH2 0x269B JUMP JUMPDEST SWAP4 POP PUSH2 0x26FC DUP4 PUSH2 0x26AB JUMP JUMPDEST DUP1 PUSH0 JUMPDEST DUP4 DUP2 LT ISZERO PUSH2 0x272C JUMPI DUP2 MLOAD PUSH2 0x2713 DUP9 DUP3 PUSH2 0x26BA JUMP JUMPDEST SWAP8 POP PUSH2 0x271E DUP4 PUSH2 0x26D1 JUMP JUMPDEST SWAP3 POP POP PUSH1 0x1 DUP2 ADD SWAP1 POP PUSH2 0x26FF JUMP JUMPDEST POP DUP6 SWAP4 POP POP POP POP SWAP3 SWAP2 POP POP JUMP JUMPDEST PUSH0 PUSH1 0x20 DUP3 ADD SWAP1 POP DUP2 DUP2 SUB PUSH0 DUP4 ADD MSTORE PUSH2 0x2751 DUP2 DUP5 PUSH2 0x26DD JUMP JUMPDEST SWAP1 POP SWAP3 SWAP2 POP POP JUMP JUMPDEST PUSH0 DUP2 MLOAD SWAP1 POP SWAP2 SWAP1 POP JUMP JUMPDEST PUSH0 DUP3 DUP3 MSTORE PUSH1 0x20 DUP3 ADD SWAP1 POP SWAP3 SWAP2 POP POP JUMP JUMPDEST PUSH0 DUP2 SWAP1 POP PUSH1 0x20 DUP3 ADD SWAP1 POP SWAP2 SWAP1 POP JUMP JUMPDEST PUSH0 PUSH2 0x278D DUP4 DUP4 PUSH2 0x1FA7 JUMP JUMPDEST SWAP1 POP SWAP3 SWAP2 POP POP JUMP JUMPDEST PUSH0 PUSH1 0x20 DUP3 ADD SWAP1 POP SWAP2 SWAP1 POP JUMP JUMPDEST PUSH0 PUSH2 0x27AB DUP3 PUSH2 0x2759 JUMP JUMPDEST PUSH2 0x27B5 DUP2 DUP6 PUSH2 0x2763 JUMP JUMPDEST SWAP4 POP DUP4 PUSH1 0x20 DUP3 MUL DUP6 ADD PUSH2 0x27C7 DUP6 PUSH2 0x2773 JUMP JUMPDEST DUP1 PUSH0 JUMPDEST DUP6 DUP2 LT ISZERO PUSH2 0x2802 JUMPI DUP5 DUP5 SUB DUP10 MSTORE DUP2 MLOAD PUSH2 0x27E3 DUP6 DUP3 PUSH2 0x2782 JUMP JUMPDEST SWAP5 POP PUSH2 0x27EE DUP4 PUSH2 0x2795 JUMP JUMPDEST SWAP3 POP PUSH1 0x20 DUP11 ADD SWAP10 POP POP PUSH1 0x1 DUP2 ADD SWAP1 POP PUSH2 0x27CA JUMP JUMPDEST POP DUP3 SWAP8 POP DUP8 SWAP6 POP POP POP POP POP POP SWAP3 SWAP2 POP POP JUMP JUMPDEST PUSH0 PUSH1 0x20 DUP3 ADD SWAP1 POP DUP2 DUP2 SUB PUSH0 DUP4 ADD MSTORE PUSH2 0x282C DUP2 DUP5 PUSH2 0x27A1 JUMP JUMPDEST SWAP1 POP SWAP3 SWAP2 POP POP JUMP JUMPDEST PUSH0 PUSH20 0xFFFFFFFFFFFFFFFFFFFFFFFFFFFFFFFFFFFFFFFF DUP3 AND SWAP1 POP SWAP2 SWAP1 POP JUMP JUMPDEST PUSH0 PUSH2 0x285D DUP3 PUSH2 0x2834 JUMP JUMPDEST SWAP1 POP SWAP2 SWAP1 POP JUMP JUMPDEST PUSH2 0x286D DUP2 PUSH2 0x2853 JUMP JUMPDEST DUP3 MSTORE POP POP JUMP JUMPDEST PUSH0 PUSH1 0x20 DUP3 ADD SWAP1 POP PUSH2 0x2886 PUSH0 DUP4 ADD DUP5 PUSH2 0x2864 JUMP JUMPDEST SWAP3 SWAP2 POP POP JUMP JUMPDEST PUSH0 DUP1 PUSH0 DUP1 PUSH0 DUP1 PUSH1 0xC0 DUP8 DUP10 SUB SLT ISZERO PUSH2 0x28A6 JUMPI PUSH2 0x28A5 PUSH2 0x1F03 JUMP JUMPDEST JUMPDEST PUSH0 DUP8 ADD CALLDATALOAD PUSH8 0xFFFFFFFFFFFFFFFF DUP2 GT ISZERO PUSH2 0x28C3 JUMPI PUSH2 0x28C2 PUSH2 0x1F07 JUMP JUMPDEST JUMPDEST PUSH2 0x28CF DUP10 DUP3 DUP11 ADD PUSH2 0x21D8 JUMP JUMPDEST SWAP7 POP POP PUSH1 0x20 DUP8 ADD CALLDATALOAD PUSH8 0xFFFFFFFFFFFFFFFF DUP2 GT ISZERO PUSH2 0x28F0 JUMPI PUSH2 0x28EF PUSH2 0x1F07 JUMP JUMPDEST JUMPDEST PUSH2 0x28FC DUP10 DUP3 DUP11 ADD PUSH2 0x21D8 JUMP JUMPDEST SWAP6 POP POP PUSH1 0x40 DUP8 ADD CALLDATALOAD PUSH8 0xFFFFFFFFFFFFFFFF DUP2 GT ISZERO PUSH2 0x291D JUMPI PUSH2 0x291C PUSH2 0x1F07 JUMP JUMPDEST JUMPDEST PUSH2 0x2929 DUP10 DUP3 DUP11 ADD PUSH2 0x21D8 JUMP JUMPDEST SWAP5 POP POP PUSH1 0x60 DUP8 ADD CALLDATALOAD PUSH8 0xFFFFFFFFFFFFFFFF DUP2 GT ISZERO PUSH2 0x294A JUMPI PUSH2 0x2949 PUSH2 0x1F07 JUMP JUMPDEST JUMPDEST PUSH2 0x2956 DUP10 DUP3 DUP11 ADD PUSH2 0x21D8 JUMP JUMPDEST SWAP4 POP POP PUSH1 0x80 PUSH2 0x2967 DUP10 DUP3 DUP11 ADD PUSH2 0x1F21 JUMP JUMPDEST SWAP3 POP POP PUSH1 0xA0 PUSH2 0x2978 DUP10 DUP3 DUP11 ADD PUSH2 0x1F21 JUMP JUMPDEST SWAP2 POP POP SWAP3 SWAP6 POP SWAP3 SWAP6 POP SWAP3 SWAP6 JUMP JUMPDEST PUSH2 0x298E DUP2 PUSH2 0x2853 JUMP JUMPDEST DUP2 EQ PUSH2 0x2998 JUMPI PUSH0 DUP1 REVERT JUMPDEST POP JUMP JUMPDEST PUSH0 DUP2 CALLDATALOAD SWAP1 POP PUSH2 0x29A9 DUP2 PUSH2 0x2985 JUMP JUMPDEST SWAP3 SWAP2 POP POP JUMP JUMPDEST PUSH0 PUSH1 0x20 DUP3 DUP5 SUB SLT ISZERO PUSH2 0x29C4 JUMPI PUSH2 0x29C3 PUSH2 0x1F03 JUMP JUMPDEST JUMPDEST PUSH0 PUSH2 0x29D1 DUP5 DUP3 DUP6 ADD PUSH2 0x299B JUMP JUMPDEST SWAP2 POP POP SWAP3 SWAP2 POP POP JUMP JUMPDEST PUSH0 DUP1 PUSH0 PUSH1 0x60 DUP5 DUP7 SUB SLT ISZERO PUSH2 0x29F1 JUMPI PUSH2 0x29F0 PUSH2 0x1F03 JUMP JUMPDEST JUMPDEST PUSH0 DUP5 ADD CALLDATALOAD PUSH8 0xFFFFFFFFFFFFFFFF DUP2 GT ISZERO PUSH2 0x2A0E JUMPI PUSH2 0x2A0D PUSH2 0x1F07 JUMP JUMPDEST JUMPDEST PUSH2 0x2A1A DUP7 DUP3 DUP8 ADD PUSH2 0x21D8 JUMP JUMPDEST SWAP4 POP POP PUSH1 0x20 DUP5 ADD CALLDATALOAD PUSH8 0xFFFFFFFFFFFFFFFF DUP2 GT ISZERO PUSH2 0x2A3B JUMPI PUSH2 0x2A3A PUSH2 0x1F07 JUMP JUMPDEST JUMPDEST PUSH2 0x2A47 DUP7 DUP3 DUP8 ADD PUSH2 0x21D8 JUMP JUMPDEST SWAP3 POP POP PUSH1 0x40 DUP5 ADD CALLDATALOAD PUSH8 0xFFFFFFFFFFFFFFFF DUP2 GT ISZERO PUSH2 0x2A68 JUMPI PUSH2 0x2A67 PUSH2 0x1F07 JUMP JUMPDEST JUMPDEST PUSH2 0x2A74 DUP7 DUP3 DUP8 ADD PUSH2 0x21D8 JUMP JUMPDEST SWAP2 POP POP SWAP3 POP SWAP3 POP SWAP3 JUMP JUMPDEST PUSH1 0x60 DUP3 ADD PUSH0 DUP3 ADD MLOAD PUSH2 0x2A92 PUSH0 DUP6 ADD DUP3 PUSH2 0x1F60 JUMP JUMPDEST POP PUSH1 0x20 DUP3 ADD MLOAD PUSH2 0x2AA5 PUSH1 0x20 DUP6 ADD DUP3 PUSH2 0x1F60 JUMP JUMPDEST POP PUSH1 0x40 DUP3 ADD MLOAD PUSH2 0x2AB8 PUSH1 0x40 DUP6 ADD DUP3 PUSH2 0x1F60 JUMP JUMPDEST POP POP POP POP JUMP JUMPDEST PUSH0 PUSH1 0x60 DUP3 ADD SWAP1 POP PUSH2 0x2AD1 PUSH0 DUP4 ADD DUP5 PUSH2 0x2A7E JUMP JUMPDEST SWAP3 SWAP2 POP POP JUMP JUMPDEST PUSH32 0x4E487B7100000000000000000000000000000000000000000000000000000000 PUSH0 MSTORE PUSH1 0x22 PUSH1 0x4 MSTORE PUSH1 0x24 PUSH0 REVERT JUMPDEST PUSH0 PUSH1 0x2 DUP3 DIV SWAP1 POP PUSH1 0x1 DUP3 AND DUP1 PUSH2 0x2B1B JUMPI PUSH1 0x7F DUP3 AND SWAP2 POP JUMPDEST PUSH1 0x20 DUP3 LT DUP2 SUB PUSH2 0x2B2E JUMPI PUSH2 0x2B2D PUSH2 0x2AD7 JUMP JUMPDEST JUMPDEST POP SWAP2 SWAP1 POP JUMP JUMPDEST PUSH0 DUP2 SWAP1 POP SWAP3 SWAP2 POP POP JUMP JUMPDEST PUSH0 PUSH2 0x2B48 DUP3 PUSH2 0x1F6F JUMP JUMPDEST PUSH2 0x2B52 DUP2 DUP6 PUSH2 0x2B34 JUMP JUMPDEST SWAP4 POP PUSH2 0x2B62 DUP2 DUP6 PUSH1 0x20 DUP7 ADD PUSH2 0x1F89 JUMP JUMPDEST DUP1 DUP5 ADD SWAP2 POP POP SWAP3 SWAP2 POP POP JUMP JUMPDEST PUSH0 PUSH2 0x2B79 DUP3 DUP5 PUSH2 0x2B3E JUMP JUMPDEST SWAP2 POP DUP2 SWAP1 POP SWAP3 SWAP2 POP POP JUMP JUMPDEST PUSH0 DUP3 DUP3 MSTORE PUSH1 0x20 DUP3 ADD SWAP1 POP SWAP3 SWAP2 POP POP JUMP JUMPDEST PUSH32 0x4F6E6C792074686520636F6E7472616374206F776E65722063616E2063616C6C PUSH0 DUP3 ADD MSTORE PUSH32 0x20746869732066756E6374696F6E2E0000000000000000000000000000000000 PUSH1 0x20 DUP3 ADD MSTORE POP JUMP JUMPDEST PUSH0 PUSH2 0x2BEE PUSH1 0x2F DUP4 PUSH2 0x2B84 JUMP JUMPDEST SWAP2 POP PUSH2 0x2BF9 DUP3 PUSH2 0x2B94 JUMP JUMPDEST PUSH1 0x40 DUP3 ADD SWAP1 POP SWAP2 SWAP1 POP JUMP JUMPDEST PUSH0 PUSH1 0x20 DUP3 ADD SWAP1 POP DUP2 DUP2 SUB PUSH0 DUP4 ADD MSTORE PUSH2 0x2C1B DUP2 PUSH2 0x2BE2 JUMP JUMPDEST SWAP1 POP SWAP2 SWAP1 POP JUMP JUMPDEST PUSH32 0x496E73756666696369656E742062616C616E6365000000000000000000000000 PUSH0 DUP3 ADD MSTORE POP JUMP JUMPDEST PUSH0 PUSH2 0x2C56 PUSH1 0x14 DUP4 PUSH2 0x2B84 JUMP JUMPDEST SWAP2 POP PUSH2 0x2C61 DUP3 PUSH2 0x2C22 JUMP JUMPDEST PUSH1 0x20 DUP3 ADD SWAP1 POP SWAP2 SWAP1 POP JUMP JUMPDEST PUSH0 PUSH1 0x20 DUP3 ADD SWAP1 POP DUP2 DUP2 SUB PUSH0 DUP4 ADD MSTORE PUSH2 0x2C83 DUP2 PUSH2 0x2C4A JUMP JUMPDEST SWAP1 POP SWAP2 SWAP1 POP JUMP JUMPDEST PUSH32 0x4E487B7100000000000000000000000000000000000000000000000000000000 PUSH0 MSTORE PUSH1 0x11 PUSH1 0x4 MSTORE PUSH1 0x24 PUSH0 REVERT JUMPDEST PUSH0 PUSH2 0x2CC1 DUP3 PUSH2 0x1EC9 JUMP JUMPDEST SWAP2 POP PUSH2 0x2CCC DUP4 PUSH2 0x1EC9 JUMP JUMPDEST SWAP3 POP DUP3 DUP3 SUB SWAP1 POP DUP2 DUP2 SLT PUSH0 DUP5 SLT AND DUP3 DUP3 SGT PUSH0 DUP6 SLT ISZERO AND OR ISZERO PUSH2 0x2CF1 JUMPI PUSH2 0x2CF0 PUSH2 0x2C8A JUMP JUMPDEST JUMPDEST SWAP3 SWAP2 POP POP JUMP JUMPDEST PUSH0 PUSH2 0x2D01 DUP3 PUSH2 0x1EC9 JUMP JUMPDEST SWAP2 POP PUSH2 0x2D0C DUP4 PUSH2 0x1EC9 JUMP JUMPDEST SWAP3 POP DUP3 DUP3 ADD SWAP1 POP DUP3 DUP2 SLT ISZERO PUSH0 DUP4 SLT AND DUP4 DUP3 SLT PUSH0 DUP5 SLT ISZERO AND OR ISZERO PUSH2 0x2D32 JUMPI PUSH2 0x2D31 PUSH2 0x2C8A JUMP JUMPDEST JUMPDEST SWAP3 SWAP2 POP POP JUMP JUMPDEST PUSH0 PUSH2 0x2D42 DUP3 PUSH2 0x1F6F JUMP JUMPDEST PUSH2 0x2D4C DUP2 DUP6 PUSH2 0x2B84 JUMP JUMPDEST SWAP4 POP PUSH2 0x2D5C DUP2 DUP6 PUSH1 0x20 DUP7 ADD PUSH2 0x1F89 JUMP JUMPDEST PUSH2 0x2D65 DUP2 PUSH2 0x1F97 JUMP JUMPDEST DUP5 ADD SWAP2 POP POP SWAP3 SWAP2 POP POP JUMP JUMPDEST PUSH0 PUSH1 0xA0 DUP3 ADD SWAP1 POP DUP2 DUP2 SUB PUSH0 DUP4 ADD MSTORE PUSH2 0x2D88 DUP2 DUP9 PUSH2 0x2D38 JUMP JUMPDEST SWAP1 POP DUP2 DUP2 SUB PUSH1 0x20 DUP4 ADD MSTORE PUSH2 0x2D9C DUP2 DUP8 PUSH2 0x2D38 JUMP JUMPDEST SWAP1 POP DUP2 DUP2 SUB PUSH1 0x40 DUP4 ADD MSTORE PUSH2 0x2DB0 DUP2 DUP7 PUSH2 0x2D38 JUMP JUMPDEST SWAP1 POP DUP2 DUP2 SUB PUSH1 0x60 DUP4 ADD MSTORE PUSH2 0x2DC4 DUP2 DUP6 PUSH2 0x2D38 JUMP JUMPDEST SWAP1 POP PUSH2 0x2DD3 PUSH1 0x80 DUP4 ADD DUP5 PUSH2 0x1ED2 JUMP JUMPDEST SWAP7 SWAP6 POP POP POP POP POP POP JUMP JUMPDEST PUSH0 DUP2 SWAP1 POP DUP2 PUSH0 MSTORE PUSH1 0x20 PUSH0 KECCAK256 SWAP1 POP SWAP2 SWAP1 POP JUMP JUMPDEST PUSH0 PUSH1 0x20 PUSH1 0x1F DUP4 ADD DIV SWAP1 POP SWAP2 SWAP1 POP JUMP JUMPDEST PUSH0 DUP3 DUP3 SHL SWAP1 POP SWAP3 SWAP2 POP POP JUMP JUMPDEST PUSH0 PUSH1 0x8 DUP4 MUL PUSH2 0x2E39 PUSH32 0xFFFFFFFFFFFFFFFFFFFFFFFFFFFFFFFFFFFFFFFFFFFFFFFFFFFFFFFFFFFFFFFF DUP3 PUSH2 0x2DFE JUMP JUMPDEST PUSH2 0x2E43 DUP7 DUP4 PUSH2 0x2DFE JUMP JUMPDEST SWAP6 POP DUP1 NOT DUP5 AND SWAP4 POP DUP1 DUP7 AND DUP5 OR SWAP3 POP POP POP SWAP4 SWAP3 POP POP POP JUMP JUMPDEST PUSH0 DUP2 SWAP1 POP SWAP2 SWAP1 POP JUMP JUMPDEST PUSH0 PUSH2 0x2E7E PUSH2 0x2E79 PUSH2 0x2E74 DUP5 PUSH2 0x1FDF JUMP JUMPDEST PUSH2 0x2E5B JUMP JUMPDEST PUSH2 0x1FDF JUMP JUMPDEST SWAP1 POP SWAP2 SWAP1 POP JUMP JUMPDEST PUSH0 DUP2 SWAP1 POP SWAP2 SWAP1 POP JUMP JUMPDEST PUSH2 0x2E97 DUP4 PUSH2 0x2E64 JUMP JUMPDEST PUSH2 0x2EAB PUSH2 0x2EA3 DUP3 PUSH2 0x2E85 JUMP JUMPDEST DUP5 DUP5 SLOAD PUSH2 0x2E0A JUMP JUMPDEST DUP3 SSTORE POP POP POP POP JUMP JUMPDEST PUSH0 SWAP1 JUMP JUMPDEST PUSH2 0x2EBF PUSH2 0x2EB3 JUMP JUMPDEST PUSH2 0x2ECA DUP2 DUP5 DUP5 PUSH2 0x2E8E JUMP JUMPDEST POP POP POP JUMP JUMPDEST JUMPDEST DUP2 DUP2 LT ISZERO PUSH2 0x2EED JUMPI PUSH2 0x2EE2 PUSH0 DUP3 PUSH2 0x2EB7 JUMP JUMPDEST PUSH1 0x1 DUP2 ADD SWAP1 POP PUSH2 0x2ED0 JUMP JUMPDEST POP POP JUMP JUMPDEST PUSH1 0x1F DUP3 GT ISZERO PUSH2 0x2F32 JUMPI PUSH2 0x2F03 DUP2 PUSH2 0x2DDD JUMP JUMPDEST PUSH2 0x2F0C DUP5 PUSH2 0x2DEF JUMP JUMPDEST DUP2 ADD PUSH1 0x20 DUP6 LT ISZERO PUSH2 0x2F1B JUMPI DUP2 SWAP1 POP JUMPDEST PUSH2 0x2F2F PUSH2 0x2F27 DUP6 PUSH2 0x2DEF JUMP JUMPDEST DUP4 ADD DUP3 PUSH2 0x2ECF JUMP JUMPDEST POP POP JUMPDEST POP POP POP JUMP JUMPDEST PUSH0 DUP3 DUP3 SHR SWAP1 POP SWAP3 SWAP2 POP POP JUMP JUMPDEST PUSH0 PUSH2 0x2F52 PUSH0 NOT DUP5 PUSH1 0x8 MUL PUSH2 0x2F37 JUMP JUMPDEST NOT DUP1 DUP4 AND SWAP2 POP POP SWAP3 SWAP2 POP POP JUMP JUMPDEST PUSH0 PUSH2 0x2F6A DUP4 DUP4 PUSH2 0x2F43 JUMP JUMPDEST SWAP2 POP DUP3 PUSH1 0x2 MUL DUP3 OR SWAP1 POP SWAP3 SWAP2 POP POP JUMP JUMPDEST PUSH2 0x2F83 DUP3 PUSH2 0x1F6F JUMP JUMPDEST PUSH8 0xFFFFFFFFFFFFFFFF DUP2 GT ISZERO PUSH2 0x2F9C JUMPI PUSH2 0x2F9B PUSH2 0x20E1 JUMP JUMPDEST JUMPDEST PUSH2 0x2FA6 DUP3 SLOAD PUSH2 0x2B04 JUMP JUMPDEST PUSH2 0x2FB1 DUP3 DUP3 DUP6 PUSH2 0x2EF1 JUMP JUMPDEST PUSH0 PUSH1 0x20 SWAP1 POP PUSH1 0x1F DUP4 GT PUSH1 0x1 DUP2 EQ PUSH2 0x2FE2 JUMPI PUSH0 DUP5 ISZERO PUSH2 0x2FD0 JUMPI DUP3 DUP8 ADD MLOAD SWAP1 POP JUMPDEST PUSH2 0x2FDA DUP6 DUP3 PUSH2 0x2F5F JUMP JUMPDEST DUP7 SSTORE POP PUSH2 0x3041 JUMP JUMPDEST PUSH1 0x1F NOT DUP5 AND PUSH2 0x2FF0 DUP7 PUSH2 0x2DDD JUMP JUMPDEST PUSH0 JUMPDEST DUP3 DUP2 LT ISZERO PUSH2 0x3017 JUMPI DUP5 DUP10 ADD MLOAD DUP3 SSTORE PUSH1 0x1 DUP3 ADD SWAP2 POP PUSH1 0x20 DUP6 ADD SWAP5 POP PUSH1 0x20 DUP2 ADD SWAP1 POP PUSH2 0x2FF2 JUMP JUMPDEST DUP7 DUP4 LT ISZERO PUSH2 0x3034 JUMPI DUP5 DUP10 ADD MLOAD PUSH2 0x3030 PUSH1 0x1F DUP10 AND DUP3 PUSH2 0x2F43 JUMP JUMPDEST DUP4 SSTORE POP JUMPDEST PUSH1 0x1 PUSH1 0x2 DUP9 MUL ADD DUP9 SSTORE POP POP POP JUMPDEST POP POP POP POP POP POP JUMP JUMPDEST PUSH0 PUSH1 0x80 DUP3 ADD SWAP1 POP DUP2 DUP2 SUB PUSH0 DUP4 ADD MSTORE PUSH2 0x3061 DUP2 DUP8 PUSH2 0x2D38 JUMP JUMPDEST SWAP1 POP DUP2 DUP2 SUB PUSH1 0x20 DUP4 ADD MSTORE PUSH2 0x3075 DUP2 DUP7 PUSH2 0x2D38 JUMP JUMPDEST SWAP1 POP DUP2 DUP2 SUB PUSH1 0x40 DUP4 ADD MSTORE PUSH2 0x3089 DUP2 DUP6 PUSH2 0x2D38 JUMP JUMPDEST SWAP1 POP PUSH2 0x3098 PUSH1 0x60 DUP4 ADD DUP5 PUSH2 0x1ED2 JUMP JUMPDEST SWAP6 SWAP5 POP POP POP POP POP JUMP JUMPDEST PUSH32 0x43616E6E6F74207472616E7366657220746F2073656C662E0000000000000000 PUSH0 DUP3 ADD MSTORE POP JUMP JUMPDEST PUSH0 PUSH2 0x30D5 PUSH1 0x18 DUP4 PUSH2 0x2B84 JUMP JUMPDEST SWAP2 POP PUSH2 0x30E0 DUP3 PUSH2 0x30A1 JUMP JUMPDEST PUSH1 0x20 DUP3 ADD SWAP1 POP SWAP2 SWAP1 POP JUMP JUMPDEST PUSH0 PUSH1 0x20 DUP3 ADD SWAP1 POP DUP2 DUP2 SUB PUSH0 DUP4 ADD MSTORE PUSH2 0x3102 DUP2 PUSH2 0x30C9 JUMP JUMPDEST SWAP1 POP SWAP2 SWAP1 POP JUMP JUMPDEST PUSH0 PUSH1 0xE0 DUP3 ADD SWAP1 POP DUP2 DUP2 SUB PUSH0 DUP4 ADD MSTORE PUSH2 0x3121 DUP2 DUP11 PUSH2 0x2D38 JUMP JUMPDEST SWAP1 POP DUP2 DUP2 SUB PUSH1 0x20 DUP4 ADD MSTORE PUSH2 0x3135 DUP2 DUP10 PUSH2 0x2D38 JUMP JUMPDEST SWAP1 POP DUP2 DUP2 SUB PUSH1 0x40 DUP4 ADD MSTORE PUSH2 0x3149 DUP2 DUP9 PUSH2 0x2D38 JUMP JUMPDEST SWAP1 POP DUP2 DUP2 SUB PUSH1 0x60 DUP4 ADD MSTORE PUSH2 0x315D DUP2 DUP8 PUSH2 0x2D38 JUMP JUMPDEST SWAP1 POP DUP2 DUP2 SUB PUSH1 0x80 DUP4 ADD MSTORE PUSH2 0x3171 DUP2 DUP7 PUSH2 0x2D38 JUMP JUMPDEST SWAP1 POP PUSH2 0x3180 PUSH1 0xA0 DUP4 ADD DUP6 PUSH2 0x1ED2 JUMP JUMPDEST PUSH2 0x318D PUSH1 0xC0 DUP4 ADD DUP5 PUSH2 0x1ED2 JUMP JUMPDEST SWAP9 SWAP8 POP POP POP POP POP POP POP POP JUMP JUMPDEST PUSH32 0x496E73756666696369656E742069737375656420737570706C792066726F6D20 PUSH0 DUP3 ADD MSTORE PUSH32 0x746865207370656369666965642070726F647563657220616E64207665726966 PUSH1 0x20 DUP3 ADD MSTORE PUSH32 0x6965722E00000000000000000000000000000000000000000000000000000000 PUSH1 0x40 DUP3 ADD MSTORE POP JUMP JUMPDEST PUSH0 PUSH2 0x3219 PUSH1 0x44 DUP4 PUSH2 0x2B84 JUMP JUMPDEST SWAP2 POP PUSH2 0x3224 DUP3 PUSH2 0x3199 JUMP JUMPDEST PUSH1 0x60 DUP3 ADD SWAP1 POP SWAP2 SWAP1 POP JUMP JUMPDEST PUSH0 PUSH1 0x20 DUP3 ADD SWAP1 POP DUP2 DUP2 SUB PUSH0 DUP4 ADD MSTORE PUSH2 0x3246 DUP2 PUSH2 0x320D JUMP JUMPDEST SWAP1 POP SWAP2 SWAP1 POP JUMP JUMPDEST PUSH0 PUSH1 0xC0 DUP3 ADD SWAP1 POP DUP2 DUP2 SUB PUSH0 DUP4 ADD MSTORE PUSH2 0x3265 DUP2 DUP10 PUSH2 0x2D38 JUMP JUMPDEST SWAP1 POP DUP2 DUP2 SUB PUSH1 0x20 DUP4 ADD MSTORE PUSH2 0x3279 DUP2 DUP9 PUSH2 0x2D38 JUMP JUMPDEST SWAP1 POP DUP2 DUP2 SUB PUSH1 0x40 DUP4 ADD MSTORE PUSH2 0x328D DUP2 DUP8 PUSH2 0x2D38 JUMP JUMPDEST SWAP1 POP DUP2 DUP2 SUB PUSH1 0x60 DUP4 ADD MSTORE PUSH2 0x32A1 DUP2 DUP7 PUSH2 0x2D38 JUMP JUMPDEST SWAP1 POP PUSH2 0x32B0 PUSH1 0x80 DUP4 ADD DUP6 PUSH2 0x1ED2 JUMP JUMPDEST PUSH2 0x32BD PUSH1 0xA0 DUP4 ADD DUP5 PUSH2 0x1ED2 JUMP JUMPDEST SWAP8 SWAP7 POP POP POP POP POP POP POP JUMP JUMPDEST PUSH32 0x496E76616C6964206E6577206F776E657220616464726573732E000000000000 PUSH0 DUP3 ADD MSTORE POP JUMP JUMPDEST PUSH0 PUSH2 0x32FC PUSH1 0x1A DUP4 PUSH2 0x2B84 JUMP JUMPDEST SWAP2 POP PUSH2 0x3307 DUP3 PUSH2 0x32C8 JUMP JUMPDEST PUSH1 0x20 DUP3 ADD SWAP1 POP SWAP2 SWAP1 POP JUMP JUMPDEST PUSH0 PUSH1 0x20 DUP3 ADD SWAP1 POP DUP2 DUP2 SUB PUSH0 DUP4 ADD MSTORE PUSH2 0x3329 DUP2 PUSH2 0x32F0 JUMP JUMPDEST SWAP1 POP SWAP2 SWAP1 POP JUMP JUMPDEST PUSH32 0x4E487B7100000000000000000000000000000000000000000000000000000000 PUSH0 MSTORE PUSH1 0x32 PUSH1 0x4 MSTORE PUSH1 0x24 PUSH0 REVERT JUMPDEST PUSH0 PUSH1 0xFF DUP3 AND SWAP1 POP SWAP2 SWAP1 POP JUMP JUMPDEST PUSH0 PUSH2 0x3373 DUP3 PUSH2 0x335D JUMP JUMPDEST SWAP2 POP PUSH2 0x337E DUP4 PUSH2 0x335D JUMP JUMPDEST SWAP3 POP DUP3 DUP3 ADD SWAP1 POP PUSH1 0xFF DUP2 GT ISZERO PUSH2 0x3397 JUMPI PUSH2 0x3396 PUSH2 0x2C8A JUMP JUMPDEST JUMPDEST SWAP3 SWAP2 POP POP JUMP JUMPDEST PUSH0 PUSH2 0x33A7 DUP3 PUSH2 0x1EC9 JUMP JUMPDEST SWAP2 POP PUSH32 0x7FFFFFFFFFFFFFFFFFFFFFFFFFFFFFFFFFFFFFFFFFFFFFFFFFFFFFFFFFFFFFFF DUP3 SUB PUSH2 0x33D9 JUMPI PUSH2 0x33D8 PUSH2 0x2C8A JUMP JUMPDEST JUMPDEST PUSH1 0x1 DUP3 ADD SWAP1 POP SWAP2 SWAP1 POP JUMP JUMPDEST PUSH0 PUSH1 0xC0 DUP3 ADD SWAP1 POP PUSH2 0x33F7 PUSH0 DUP4 ADD DUP10 PUSH2 0x1ED2 JUMP JUMPDEST DUP2 DUP2 SUB PUSH1 0x20 DUP4 ADD MSTORE PUSH2 0x3409 DUP2 DUP9 PUSH2 0x2D38 JUMP JUMPDEST SWAP1 POP DUP2 DUP2 SUB PUSH1 0x40 DUP4 ADD MSTORE PUSH2 0x341D DUP2 DUP8 PUSH2 0x2D38 JUMP JUMPDEST SWAP1 POP DUP2 DUP2 SUB PUSH1 0x60 DUP4 ADD MSTORE PUSH2 0x3431 DUP2 DUP7 PUSH2 0x2D38 JUMP JUMPDEST SWAP1 POP DUP2 DUP2 SUB PUSH1 0x80 DUP4 ADD MSTORE PUSH2 0x3445 DUP2 DUP6 PUSH2 0x2D38 JUMP JUMPDEST SWAP1 POP PUSH2 0x3454 PUSH1 0xA0 DUP4 ADD DUP5 PUSH2 0x1ED2 JUMP JUMPDEST SWAP8 SWAP7 POP POP POP POP POP POP POP JUMP INVALID LOG2 PUSH5 0x6970667358 0x22 SLT KECCAK256 0x23 REVERT STOP GAS SGT CALLDATACOPY PUSH10 0xA7A2F0726D47B4E1BC33 GASLIMIT LT SWAP5 DUP9 CREATE 0xDF CODECOPY BASEFEE LOG3 0xB3 0xE6 SWAP7 EXTCODEHASH MULMOD 0xAB PUSH5 0x736F6C6343 STOP ADDMOD NOT STOP CALLER "
		},
		"gasEstimates": {
			"creation": {
				"codeDepositCost": "2692200",
				"executionCost": "27186",
				"totalCost": "2719386"
			},
			"external": {
				"buyCredits(string,string,string,string,int256,int256)": "infinite",
				"donateCredits(string,string,string,string,int256)": "infinite",
				"getAccountBalance(string,string,string,string)": "infinite",
				"getAccountCertificates(string)": "infinite",
				"getAccountTotalBalance(string)": "infinite",
				"getCertificateById(int256)": "infinite",
				"getCreditTypes()": "infinite",
				"getOwner()": "2582",
				"getProducerVerifiers(string)": "infinite",
				"getProducers()": "infinite",
				"getSupply(string,string,string)": "infinite",
				"getTotalCertificates()": "2455",
				"getTotalDonatedSupply()": "2456",
				"getTotalSold()": "2521",
				"getTotalSupply()": "2476",
				"isCreditRegistered(string)": "infinite",
				"isProducerRegistered(string)": "infinite",
				"isProducerVerified(string,string)": "infinite",
				"issueCredits(string,string,string,int256)": "infinite",
				"transferCredits(string,string,string,string,string,int256,int256)": "infinite",
				"transferOwnership(address)": "30881"
			},
			"internal": {
				"_compareStrings(string memory,string memory)": "infinite",
				"_mintCertificate(string memory,string memory,string memory,string memory,int256,int256)": "infinite",
				"_toLowerCase(string memory)": "infinite"
			}
		},
		"methodIdentifiers": {
			"buyCredits(string,string,string,string,int256,int256)": "9e41b406",
			"donateCredits(string,string,string,string,int256)": "37324a4c",
			"getAccountBalance(string,string,string,string)": "64611bd6",
			"getAccountCertificates(string)": "65895f95",
			"getAccountTotalBalance(string)": "47c44529",
			"getCertificateById(int256)": "1d37fd68",
			"getCreditTypes()": "a81e53d3",
			"getOwner()": "893d20e8",
			"getProducerVerifiers(string)": "789237e6",
			"getProducers()": "e80a7eb9",
			"getSupply(string,string,string)": "fd6befb2",
			"getTotalCertificates()": "7843bb79",
			"getTotalDonatedSupply()": "072652fe",
			"getTotalSold()": "9d7b8e68",
			"getTotalSupply()": "c4e41b22",
			"isCreditRegistered(string)": "5a97595c",
			"isProducerRegistered(string)": "f45f147c",
			"isProducerVerified(string,string)": "207573f0",
			"issueCredits(string,string,string,int256)": "3b7479e0",
			"transferCredits(string,string,string,string,string,int256,int256)": "6440f6b2",
			"transferOwnership(address)": "f2fde38b"
		}
	},
	"abi": [
		{
			"inputs": [],
			"stateMutability": "nonpayable",
			"type": "constructor"
		},
		{
			"anonymous": false,
			"inputs": [
				{
					"indexed": false,
					"internalType": "int256",
					"name": "certificateId",
					"type": "int256"
				},
				{
					"indexed": false,
					"internalType": "string",
					"name": "accountID",
					"type": "string"
				},
				{
					"indexed": false,
					"internalType": "string",
					"name": "producer",
					"type": "string"
				},
				{
					"indexed": false,
					"internalType": "string",
					"name": "verifier",
					"type": "string"
				},
				{
					"indexed": false,
					"internalType": "string",
					"name": "creditType",
					"type": "string"
				},
				{
					"indexed": false,
					"internalType": "int256",
					"name": "balance",
					"type": "int256"
				}
			],
			"name": "CertificateCreated",
			"type": "event"
		},
		{
			"anonymous": false,
			"inputs": [
				{
					"indexed": false,
					"internalType": "string",
					"name": "accountID",
					"type": "string"
				},
				{
					"indexed": false,
					"internalType": "string",
					"name": "producer",
					"type": "string"
				},
				{
					"indexed": false,
					"internalType": "string",
					"name": "verifier",
					"type": "string"
				},
				{
					"indexed": false,
					"internalType": "string",
					"name": "creditType",
					"type": "string"
				},
				{
					"indexed": false,
					"internalType": "int256",
					"name": "amount",
					"type": "int256"
				},
				{
					"indexed": false,
					"internalType": "int256",
					"name": "price",
					"type": "int256"
				}
			],
			"name": "CreditsBought",
			"type": "event"
		},
		{
			"anonymous": false,
			"inputs": [
				{
					"indexed": false,
					"internalType": "string",
					"name": "accountID",
					"type": "string"
				},
				{
					"indexed": false,
					"internalType": "string",
					"name": "producer",
					"type": "string"
				},
				{
					"indexed": false,
					"internalType": "string",
					"name": "verifier",
					"type": "string"
				},
				{
					"indexed": false,
					"internalType": "string",
					"name": "creditType",
					"type": "string"
				},
				{
					"indexed": false,
					"internalType": "int256",
					"name": "amount",
					"type": "int256"
				}
			],
			"name": "CreditsDonated",
			"type": "event"
		},
		{
			"anonymous": false,
			"inputs": [
				{
					"indexed": false,
					"internalType": "string",
					"name": "producer",
					"type": "string"
				},
				{
					"indexed": false,
					"internalType": "string",
					"name": "verifier",
					"type": "string"
				},
				{
					"indexed": false,
					"internalType": "string",
					"name": "creditType",
					"type": "string"
				},
				{
					"indexed": false,
					"internalType": "int256",
					"name": "amount",
					"type": "int256"
				}
			],
			"name": "CreditsIssued",
			"type": "event"
		},
		{
			"anonymous": false,
			"inputs": [
				{
					"indexed": false,
					"internalType": "string",
					"name": "senderAccountID",
					"type": "string"
				},
				{
					"indexed": false,
					"internalType": "string",
					"name": "receiverAccountID",
					"type": "string"
				},
				{
					"indexed": false,
					"internalType": "string",
					"name": "producer",
					"type": "string"
				},
				{
					"indexed": false,
					"internalType": "string",
					"name": "verifier",
					"type": "string"
				},
				{
					"indexed": false,
					"internalType": "string",
					"name": "creditType",
					"type": "string"
				},
				{
					"indexed": false,
					"internalType": "int256",
					"name": "amount",
					"type": "int256"
				},
				{
					"indexed": false,
					"internalType": "int256",
					"name": "price",
					"type": "int256"
				}
			],
			"name": "CreditsTransferred",
			"type": "event"
		},
		{
			"anonymous": false,
			"inputs": [
				{
					"indexed": true,
					"internalType": "address",
					"name": "previousOwner",
					"type": "address"
				},
				{
					"indexed": true,
					"internalType": "address",
					"name": "newOwner",
					"type": "address"
				}
			],
			"name": "OwnershipTransferred",
			"type": "event"
		},
		{
			"inputs": [
				{
					"internalType": "string",
					"name": "_accountID",
					"type": "string"
				},
				{
					"internalType": "string",
					"name": "_producer",
					"type": "string"
				},
				{
					"internalType": "string",
					"name": "_verifier",
					"type": "string"
				},
				{
					"internalType": "string",
					"name": "_creditType",
					"type": "string"
				},
				{
					"internalType": "int256",
					"name": "amount",
					"type": "int256"
				},
				{
					"internalType": "int256",
					"name": "price",
					"type": "int256"
				}
			],
			"name": "buyCredits",
			"outputs": [
				{
					"internalType": "bool",
					"name": "_creditsBought",
					"type": "bool"
				}
			],
			"stateMutability": "nonpayable",
			"type": "function"
		},
		{
			"inputs": [
				{
					"internalType": "string",
					"name": "_accountID",
					"type": "string"
				},
				{
					"internalType": "string",
					"name": "_producer",
					"type": "string"
				},
				{
					"internalType": "string",
					"name": "_verifier",
					"type": "string"
				},
				{
					"internalType": "string",
					"name": "_creditType",
					"type": "string"
				},
				{
					"internalType": "int256",
					"name": "amount",
					"type": "int256"
				}
			],
			"name": "donateCredits",
			"outputs": [
				{
					"internalType": "bool",
					"name": "_creditsDonated",
					"type": "bool"
				}
			],
			"stateMutability": "nonpayable",
			"type": "function"
		},
		{
			"inputs": [
				{
					"internalType": "string",
					"name": "accountID",
					"type": "string"
				},
				{
					"internalType": "string",
					"name": "producer",
					"type": "string"
				},
				{
					"internalType": "string",
					"name": "verifier",
					"type": "string"
				},
				{
					"internalType": "string",
					"name": "creditType",
					"type": "string"
				}
			],
			"name": "getAccountBalance",
			"outputs": [
				{
					"internalType": "int256",
					"name": "_accountBalance",
					"type": "int256"
				}
			],
			"stateMutability": "view",
			"type": "function"
		},
		{
			"inputs": [
				{
					"internalType": "string",
					"name": "accountID",
					"type": "string"
				}
			],
			"name": "getAccountCertificates",
			"outputs": [
				{
					"internalType": "int256[]",
					"name": "_accountCertificates",
					"type": "int256[]"
				}
			],
			"stateMutability": "view",
			"type": "function"
		},
		{
			"inputs": [
				{
					"internalType": "string",
					"name": "accountID",
					"type": "string"
				}
			],
			"name": "getAccountTotalBalance",
			"outputs": [
				{
					"internalType": "int256",
					"name": "_accountTotalBalance",
					"type": "int256"
				}
			],
			"stateMutability": "view",
			"type": "function"
		},
		{
			"inputs": [
				{
					"internalType": "int256",
					"name": "certificateId",
					"type": "int256"
				}
			],
			"name": "getCertificateById",
			"outputs": [
				{
					"components": [
						{
							"internalType": "int256",
							"name": "id",
							"type": "int256"
						},
						{
							"internalType": "string",
							"name": "buyer",
							"type": "string"
						},
						{
							"internalType": "string",
							"name": "producer",
							"type": "string"
						},
						{
							"internalType": "string",
							"name": "verifier",
							"type": "string"
						},
						{
							"internalType": "string",
							"name": "creditType",
							"type": "string"
						},
						{
							"internalType": "int256",
							"name": "balance",
							"type": "int256"
						},
						{
							"internalType": "int256",
							"name": "price",
							"type": "int256"
						},
						{
							"internalType": "uint256",
							"name": "timestamp",
							"type": "uint256"
						}
					],
					"internalType": "struct CreditContract.Certificate",
					"name": "_certificate",
					"type": "tuple"
				}
			],
			"stateMutability": "view",
			"type": "function"
		},
		{
			"inputs": [],
			"name": "getCreditTypes",
			"outputs": [
				{
					"internalType": "string[]",
					"name": "_creditTypes",
					"type": "string[]"
				}
			],
			"stateMutability": "view",
			"type": "function"
		},
		{
			"inputs": [],
			"name": "getOwner",
			"outputs": [
				{
					"internalType": "address",
					"name": "_owner",
					"type": "address"
				}
			],
			"stateMutability": "view",
			"type": "function"
		},
		{
			"inputs": [
				{
					"internalType": "string",
					"name": "producer",
					"type": "string"
				}
			],
			"name": "getProducerVerifiers",
			"outputs": [
				{
					"internalType": "string[]",
					"name": "_producerVerifiers",
					"type": "string[]"
				}
			],
			"stateMutability": "view",
			"type": "function"
		},
		{
			"inputs": [],
			"name": "getProducers",
			"outputs": [
				{
					"internalType": "string[]",
					"name": "_producers",
					"type": "string[]"
				}
			],
			"stateMutability": "view",
			"type": "function"
		},
		{
			"inputs": [
				{
					"internalType": "string",
					"name": "producer",
					"type": "string"
				},
				{
					"internalType": "string",
					"name": "verifier",
					"type": "string"
				},
				{
					"internalType": "string",
					"name": "creditType",
					"type": "string"
				}
			],
			"name": "getSupply",
			"outputs": [
				{
					"components": [
						{
							"internalType": "int256",
							"name": "issued",
							"type": "int256"
						},
						{
							"internalType": "int256",
							"name": "available",
							"type": "int256"
						},
						{
							"internalType": "int256",
							"name": "donated",
							"type": "int256"
						}
					],
					"internalType": "struct CreditContract.Supply",
					"name": "_supply",
					"type": "tuple"
				}
			],
			"stateMutability": "view",
			"type": "function"
		},
		{
			"inputs": [],
			"name": "getTotalCertificates",
			"outputs": [
				{
					"internalType": "int256",
					"name": "_totalCertificates",
					"type": "int256"
				}
			],
			"stateMutability": "view",
			"type": "function"
		},
		{
			"inputs": [],
			"name": "getTotalDonatedSupply",
			"outputs": [
				{
					"internalType": "int256",
					"name": "_totalDonatedSupply",
					"type": "int256"
				}
			],
			"stateMutability": "view",
			"type": "function"
		},
		{
			"inputs": [],
			"name": "getTotalSold",
			"outputs": [
				{
					"internalType": "int256",
					"name": "_totalSold",
					"type": "int256"
				}
			],
			"stateMutability": "view",
			"type": "function"
		},
		{
			"inputs": [],
			"name": "getTotalSupply",
			"outputs": [
				{
					"internalType": "int256",
					"name": "_totalSupply",
					"type": "int256"
				}
			],
			"stateMutability": "view",
			"type": "function"
		},
		{
			"inputs": [
				{
					"internalType": "string",
					"name": "creditType",
					"type": "string"
				}
			],
			"name": "isCreditRegistered",
			"outputs": [
				{
					"internalType": "bool",
					"name": "_creditRegistered",
					"type": "bool"
				}
			],
			"stateMutability": "view",
			"type": "function"
		},
		{
			"inputs": [
				{
					"internalType": "string",
					"name": "producer",
					"type": "string"
				}
			],
			"name": "isProducerRegistered",
			"outputs": [
				{
					"internalType": "bool",
					"name": "_producerRegistered",
					"type": "bool"
				}
			],
			"stateMutability": "view",
			"type": "function"
		},
		{
			"inputs": [
				{
					"internalType": "string",
					"name": "producer",
					"type": "string"
				},
				{
					"internalType": "string",
					"name": "verifier",
					"type": "string"
				}
			],
			"name": "isProducerVerified",
			"outputs": [
				{
					"internalType": "bool",
					"name": "_producerVerified",
					"type": "bool"
				}
			],
			"stateMutability": "view",
			"type": "function"
		},
		{
			"inputs": [
				{
					"internalType": "string",
					"name": "_producer",
					"type": "string"
				},
				{
					"internalType": "string",
					"name": "_verifier",
					"type": "string"
				},
				{
					"internalType": "string",
					"name": "_creditType",
					"type": "string"
				},
				{
					"internalType": "int256",
					"name": "amount",
					"type": "int256"
				}
			],
			"name": "issueCredits",
			"outputs": [
				{
					"internalType": "bool",
					"name": "_issued",
					"type": "bool"
				}
			],
			"stateMutability": "nonpayable",
			"type": "function"
		},
		{
			"inputs": [
				{
					"internalType": "string",
					"name": "senderAccountID",
					"type": "string"
				},
				{
					"internalType": "string",
					"name": "receiverAccountID",
					"type": "string"
				},
				{
					"internalType": "string",
					"name": "_producer",
					"type": "string"
				},
				{
					"internalType": "string",
					"name": "_verifier",
					"type": "string"
				},
				{
					"internalType": "string",
					"name": "_creditType",
					"type": "string"
				},
				{
					"internalType": "int256",
					"name": "amount",
					"type": "int256"
				},
				{
					"internalType": "int256",
					"name": "price",
					"type": "int256"
				}
			],
			"name": "transferCredits",
			"outputs": [
				{
					"internalType": "bool",
					"name": "_creditsTransferred",
					"type": "bool"
				}
			],
			"stateMutability": "nonpayable",
			"type": "function"
		},
		{
			"inputs": [
				{
					"internalType": "address",
					"name": "newOwner",
					"type": "address"
				}
			],
			"name": "transferOwnership",
			"outputs": [
				{
					"internalType": "bool",
					"name": "",
					"type": "bool"
				}
			],
			"stateMutability": "nonpayable",
			"type": "function"
		}
	]
}