{
	"data": {
		"bytecode": {
			"linkReferences": {},
			"object": "60a0604052306080526301e1338060155534801561001b575f80fd5b506040518060400160405280601381526020017f4e657074756e65436861696e4372656469747300000000000000000000000000815250604051806040016040528060038152602001624e434360e81b815250816003908161007d9190610139565b50600461008a8282610139565b50506005805460ff191690555060016006556101f8565b634e487b7160e01b5f52604160045260245ffd5b600181811c908216806100c957607f821691505b6020821081036100e757634e487b7160e01b5f52602260045260245ffd5b50919050565b601f82111561013457805f5260205f20601f840160051c810160208510156101125750805b601f840160051c820191505b81811015610131575f815560010161011e565b50505b505050565b81516001600160401b03811115610152576101526100a1565b6101668161016084546100b5565b846100ed565b602080601f831160018114610199575f84156101825750858301515b5f19600386901b1c1916600185901b1785556101f0565b5f85815260208120601f198616915b828110156101c7578886015182559484019460019091019084016101a8565b50858210156101e457878501515f19600388901b60f8161c191681555b505060018460011b0185555b505050505050565b608051613d3a61021e5f395f81816125600152818161258901526127490152613d3a5ff3fe6080604052600436106101db575f3560e01c8063775dd988116100fd578063a9059cbb11610092578063c0c53b8b11610062578063c0c53b8b14610582578063cb3e1fe7146105a1578063dd62ed3e146105d4578063e7705db614610618575f80fd5b8063a9059cbb146104f5578063ad3cb1cc14610514578063b783bdec14610544578063c08440e514610563575f80fd5b806391c2c469116100cd57806391c2c4691461047057806392c2becc1461048f57806395d89b41146104c2578063a01f271f146104d6575f80fd5b8063775dd988146103ff5780638456cb591461041e578063879bf10614610432578063889d5b9114610451575f80fd5b806347c10d90116101735780635c975abb116101435780635c975abb1461034e57806370a082311461036557806375b238fc1461039957806376082a5e146103cc575f80fd5b806347c10d90146102f35780634f1ef2861461031257806352d1902d1461032557806354761a2a14610339575f80fd5b80631aa9edcc116101ae5780631aa9edcc1461028d57806323b872dd146102a3578063313ce567146102c25780633f4ba83a146102dd575f80fd5b806306fdde03146101df578063095ea7b31461020957806318160ddd14610238578063192ffe7614610256575b5f80fd5b3480156101ea575f80fd5b506101f361064b565b6040516102009190612ffe565b60405180910390f35b348015610214575f80fd5b50610228610223366004613024565b6106db565b6040519015158152602001610200565b348015610243575f80fd5b506002545b604051908152602001610200565b348015610261575f80fd5b50600754610275906001600160a01b031681565b6040516001600160a01b039091168152602001610200565b348015610298575f80fd5b5061024862278d0081565b3480156102ae575f80fd5b506102286102bd36600461304e565b6106f4565b3480156102cd575f80fd5b5060405160128152602001610200565b3480156102e8575f80fd5b506102f1610719565b005b3480156102fe575f80fd5b506102f161030d366004613177565b6107b2565b6102f161032036600461322d565b610d01565b348015610330575f80fd5b50610248610d20565b348015610344575f80fd5b5061024860155481565b348015610359575f80fd5b5060055460ff16610228565b348015610370575f80fd5b5061024861037f36600461328c565b6001600160a01b03165f9081526020819052604090205490565b3480156103a4575f80fd5b506102487fa49807205ce4d355092ef5a8a18f56e8913cf4a201fbe287825b095693c2177581565b3480156103d7575f80fd5b506102487fb165298935924f540e4181c03493a5d686c54a0aaeb3f6216de85b7ffbba773881565b34801561040a575f80fd5b506102f16104193660046132a7565b610d3b565b348015610429575f80fd5b506102f1610eaf565b34801561043d575f80fd5b506102f161044c3660046132e0565b610f3d565b34801561045c575f80fd5b506102f161046b36600461338c565b6113a3565b34801561047b575f80fd5b50600854610275906001600160a01b031681565b34801561049a575f80fd5b506102487f25cf2b509f2a7f322675b2a5322b182f44ad2c03ac941a0af17c9b178f5d5d5f81565b3480156104cd575f80fd5b506101f36115d5565b3480156104e1575f80fd5b506102f16104f03660046133e1565b6115e4565b348015610500575f80fd5b5061022861050f366004613024565b6116b7565b34801561051f575f80fd5b506101f3604051806040016040528060058152602001640352e302e360dc1b81525081565b34801561054f575f80fd5b5061022861055e3660046133f8565b6116c4565b34801561056e575f80fd5b506102f161057d3660046134ae565b611bb1565b34801561058d575f80fd5b506102f161059c366004613588565b61211d565b3480156105ac575f80fd5b506102487f8eb467f061ca67f42a2d2ca4a346fc9fb645efc0ba75056ee9f71c3a0ccc10a881565b3480156105df575f80fd5b506102486105ee3660046135d0565b6001600160a01b039182165f90815260016020908152604080832093909416825291909152205490565b348015610623575f80fd5b506102487f0ce23c3e399818cfee81a7ab0880f714e53d7672b08df0fa62f2843416e1ea0981565b60606003805461065a90613607565b80601f016020809104026020016040519081016040528092919081815260200182805461068690613607565b80156106d15780601f106106a8576101008083540402835291602001916106d1565b820191905f5260205f20905b8154815290600101906020018083116106b457829003601f168201915b5050505050905090565b5f336106e881858561225f565b60019150505b92915050565b5f3361070185828561226c565b61070c8585856122e7565b60019150505b9392505050565b6009546040516342282d9560e01b81523360048201526001600160a01b03909116906342282d9590602401602060405180830381865afa15801561075f573d5f803e3d5ffd5b505050506040513d601f19601f820116820180604052508101906107839190613653565b6107a85760405162461bcd60e51b815260040161079f9061366c565b60405180910390fd5b6107b0612344565b565b6009546040516349e89cc760e11b81523360048201526001600160a01b03909116906393d1398e90602401602060405180830381865afa1580156107f8573d5f803e3d5ffd5b505050506040513d601f19601f8201168201806040525081019061081c9190613653565b6108385760405162461bcd60e51b815260040161079f906136a3565b60085460405163518ab27b60e01b815287916001600160a01b03169063518ab27b90610868908490600401612ffe565b602060405180830381865afa158015610883573d5f803e3d5ffd5b505050506040513d601f19601f820116820180604052508101906108a79190613653565b6108c35760405162461bcd60e51b815260040161079f906136ee565b60085460405163a8b0773560e01b815288917fb165298935924f540e4181c03493a5d686c54a0aaeb3f6216de85b7ffbba7738916001600160a01b039091169063a8b07735906109199085908590600401613736565b602060405180830381865afa158015610934573d5f803e3d5ffd5b505050506040513d601f19601f820116820180604052508101906109589190613653565b6109745760405162461bcd60e51b815260040161079f90613757565b60085460405163020884f760e41b81528a916001600160a01b0316906320884f70906109a4908490600401612ffe565b5f604051808303815f87803b1580156109bb575f80fd5b505af11580156109cd573d5f803e3d5ffd5b505050506109d9612396565b600c896040516109e991906137b8565b908152602001604051809103902088604051610a0591906137b8565b9081526040519081900360200190205460ff16610a345760405162461bcd60e51b815260040161079f906137c3565b5f600a8a604051610a4591906137b8565b908152602001604051809103902089604051610a6191906137b8565b908152602001604051809103902088604051610a7d91906137b8565b908152602001604051809103902090508681600101541015610ae15760405162461bcd60e51b815260206004820152601c60248201527f4e6f7420656e6f756768206372656469747320617661696c61626c6500000000604482015260640161079f565b305f90815260208190526040902054871115610b3f5760405162461bcd60e51b815260206004820152601a60248201527f496e73756666696369656e742045524332302062616c616e6365000000000000604482015260640161079f565b610bce3060085f9054906101000a90046001600160a01b03166001600160a01b031663f3f9f2678e6040518263ffffffff1660e01b8152600401610b839190612ffe565b5f60405180830381865afa158015610b9d573d5f803e3d5ffd5b505050506040513d5f823e601f3d908101601f19168201604052610bc49190810190613859565b60200151896122e7565b86816001015f828254610be19190613916565b925050819055508660108c604051610bf991906137b8565b90815260200160405180910390208b604051610c1591906137b8565b90815260200160405180910390208a604051610c3191906137b8565b908152602001604051809103902089604051610c4d91906137b8565b90815260200160405180910390205f828254610c699190613929565b925050819055508660135f828254610c81919061393c565b90915550610c9590508b8b8b8b8b8b6123ef565b8a604051610ca391906137b8565b60405180910390207f813cea928c822937359d0fa4ac249b67de34efd9c45cebcc2055a6b5cdecfcb08b8b8b8b8b604051610ce2959493929190613963565b60405180910390a250610cf56001600655565b50505050505050505050565b610d09612555565b610d12826125f9565b610d1c8282612682565b5050565b5f610d2961273e565b505f80516020613ce583398151915290565b6009546040516349e89cc760e11b81523360048201526001600160a01b03909116906393d1398e90602401602060405180830381865afa158015610d81573d5f803e3d5ffd5b505050506040513d601f19601f82011682018060405250810190610da59190613653565b610dc15760405162461bcd60e51b815260040161079f906136a3565b5f610dcb82612787565b9050600b81604051610ddd91906137b8565b9081526040519081900360200190205460ff1615610e3d5760405162461bcd60e51b815260206004820152601b60248201527f50726f647563657220616c726561647920726567697374657265640000000000604482015260640161079f565b6001600b82604051610e4f91906137b8565b908152604051908190036020019020805491151560ff19909216919091179055601280546001810182555f919091527fbb8a6a4669ba250d26cd7a459eca9d215f8307e33aebe50379bc5a3617ec344401610eaa82826139f4565b505050565b6009546040516342282d9560e01b81523360048201526001600160a01b03909116906342282d9590602401602060405180830381865afa158015610ef5573d5f803e3d5ffd5b505050506040513d601f19601f82011682018060405250810190610f199190613653565b610f355760405162461bcd60e51b815260040161079f9061366c565b6107b06128da565b6009546040516349e89cc760e11b81523360048201526001600160a01b03909116906393d1398e90602401602060405180830381865afa158015610f83573d5f803e3d5ffd5b505050506040513d601f19601f82011682018060405250810190610fa79190613653565b610fc35760405162461bcd60e51b815260040161079f906136a3565b60085460405163518ab27b60e01b815286916001600160a01b03169063518ab27b90610ff3908490600401612ffe565b602060405180830381865afa15801561100e573d5f803e3d5ffd5b505050506040513d601f19601f820116820180604052508101906110329190613653565b61104e5760405162461bcd60e51b815260040161079f906136ee565b8484600c8260405161106091906137b8565b90815260200160405180910390208160405161107c91906137b8565b9081526040519081900360200190205460ff166110ab5760405162461bcd60e51b815260040161079f906137c3565b60085460405163020884f760e41b815289916001600160a01b0316906320884f70906110db908490600401612ffe565b5f604051808303815f87803b1580156110f2575f80fd5b505af1158015611104573d5f803e3d5ffd5b50505050611110612396565b8460108a60405161112191906137b8565b90815260200160405180910390208960405161113d91906137b8565b90815260200160405180910390208860405161115991906137b8565b90815260200160405180910390208760405161117591906137b8565b90815260200160405180910390205410156111c95760405162461bcd60e51b8152602060048201526014602482015273496e73756666696369656e742062616c616e636560601b604482015260640161079f565b8460108a6040516111da91906137b8565b9081526020016040518091039020896040516111f691906137b8565b90815260200160405180910390208860405161121291906137b8565b90815260200160405180910390208760405161122e91906137b8565b90815260200160405180910390205f82825461124a9190613916565b9250508190555084600a8960405161126291906137b8565b90815260200160405180910390208860405161127e91906137b8565b90815260200160405180910390208760405161129a91906137b8565b90815260200160405180910390206002015f8282546112b99190613929565b909155505060085460405163f3f9f26760e01b815261133b916001600160a01b03169063f3f9f267906112f0908d90600401612ffe565b5f60405180830381865afa15801561130a573d5f803e3d5ffd5b505050506040513d5f823e601f3d908101601f191682016040526113319190810190613859565b6020015186612917565b8860405161134991906137b8565b60405180910390207fee867755dffca0e563622713b0165b6d4882fad3cb3388637b963fc301fe8af7898989896040516113869493929190613ab3565b60405180910390a26113986001600655565b505050505050505050565b6009546040516349e89cc760e11b81523360048201526001600160a01b03909116906393d1398e90602401602060405180830381865afa1580156113e9573d5f803e3d5ffd5b505050506040513d601f19601f8201168201806040525081019061140d9190613653565b6114295760405162461bcd60e51b815260040161079f906136a3565b81600b8160405161143a91906137b8565b9081526040519081900360200190205460ff166114995760405162461bcd60e51b815260206004820152601760248201527f50726f6475636572206e6f742072656769737465726564000000000000000000604482015260640161079f565b5f6114a383612787565b9050600c846040516114b591906137b8565b9081526020016040518091039020816040516114d191906137b8565b9081526040519081900360200190205460ff16156115475760405162461bcd60e51b815260206004820152602d60248201527f566572696669657220616c7265616479207265676973746572656420666f722060448201526c3a3434b990383937b23ab1b2b960991b606482015260840161079f565b6001600c8560405161155991906137b8565b90815260200160405180910390208260405161157591906137b8565b908152604051908190036020018120805492151560ff1990931692909217909155600d906115a49086906137b8565b9081526040516020918190038201902080546001810182555f918252919020016115ce82826139f4565b5050505050565b60606004805461065a90613607565b6009546040516342282d9560e01b81523360048201526001600160a01b03909116906342282d9590602401602060405180830381865afa15801561162a573d5f803e3d5ffd5b505050506040513d601f19601f8201168201806040525081019061164e9190613653565b61166a5760405162461bcd60e51b815260040161079f9061366c565b62278d008110156116b25760405162461bcd60e51b8152602060048201526012602482015271111d5c985d1a5bdb881d1bdbc81cda1bdc9d60721b604482015260640161079f565b601555565b5f336106e88185856122e7565b6009546040516349e89cc760e11b81523360048201525f916001600160a01b0316906393d1398e90602401602060405180830381865afa15801561170a573d5f803e3d5ffd5b505050506040513d601f19601f8201168201806040525081019061172e9190613653565b61174a5760405162461bcd60e51b815260040161079f906136a3565b60085460405163518ab27b60e01b815288916001600160a01b03169063518ab27b9061177a908490600401612ffe565b602060405180830381865afa158015611795573d5f803e3d5ffd5b505050506040513d601f19601f820116820180604052508101906117b99190613653565b6117d55760405162461bcd60e51b815260040161079f906136ee565b60085460405163a8b0773560e01b815289917f8eb467f061ca67f42a2d2ca4a346fc9fb645efc0ba75056ee9f71c3a0ccc10a8916001600160a01b039091169063a8b077359061182b9085908590600401613736565b602060405180830381865afa158015611846573d5f803e3d5ffd5b505050506040513d601f19601f8201168201806040525081019061186a9190613653565b6118865760405162461bcd60e51b815260040161079f90613757565b8787600c8260405161189891906137b8565b9081526020016040518091039020816040516118b491906137b8565b9081526040519081900360200190205460ff166118e35760405162461bcd60e51b815260040161079f906137c3565b60085460405163020884f760e41b81528d916001600160a01b0316906320884f7090611913908490600401612ffe565b5f604051808303815f87803b15801561192a575f80fd5b505af115801561193c573d5f803e3d5ffd5b5050505061194a8d8d61294b565b6119965760405162461bcd60e51b815260206004820152601b60248201527f53656e64657220646f6573206e6f74206f776e20746865204e46540000000000604482015260640161079f565b6119a08c8a612a40565b6119f85760405162461bcd60e51b815260206004820152602360248201527f4372656469742074797065206e6f7420616c6c6f77656420627920746869732060448201526213919560ea1b606482015260840161079f565b60075460405163736dea8160e01b81526001600160a01b039091169063736dea8190611a2a908f908d90600401613afd565b602060405180830381865afa158015611a45573d5f803e3d5ffd5b505050506040513d601f19601f82011682018060405250810190611a699190613b15565b881115611ab85760405162461bcd60e51b815260206004820152601c60248201527f4578636565647320616c6c6f77656420737570706c79206c696d697400000000604482015260640161079f565b611ac23089612b47565b5f600a8c604051611ad391906137b8565b90815260200160405180910390208b604051611aef91906137b8565b90815260200160405180910390208a604051611b0b91906137b8565b9081526020016040518091039020905088815f015f828254611b2d9190613929565b9250508190555088816001015f828254611b479190613929565b9091555050604051611b5a908d906137b8565b60405180910390207f318e492117ab4b619bbbd70fb86784a5ed13c9aa0f9ce45434cd4fc9b28a60bd8c8c8c604051611b9593929190613b2c565b60405180910390a25060019d9c50505050505050505050505050565b6009546040516349e89cc760e11b81523360048201526001600160a01b03909116906393d1398e90602401602060405180830381865afa158015611bf7573d5f803e3d5ffd5b505050506040513d601f19601f82011682018060405250810190611c1b9190613653565b611c375760405162461bcd60e51b815260040161079f906136a3565b60085460405163518ab27b60e01b815288916001600160a01b03169063518ab27b90611c67908490600401612ffe565b602060405180830381865afa158015611c82573d5f803e3d5ffd5b505050506040513d601f19601f82011682018060405250810190611ca69190613653565b611cc25760405162461bcd60e51b815260040161079f906136ee565b60085460405163518ab27b60e01b815288916001600160a01b03169063518ab27b90611cf2908490600401612ffe565b602060405180830381865afa158015611d0d573d5f803e3d5ffd5b505050506040513d601f19601f82011682018060405250810190611d319190613653565b611d4d5760405162461bcd60e51b815260040161079f906136ee565b8686600c82604051611d5f91906137b8565b908152602001604051809103902081604051611d7b91906137b8565b9081526040519081900360200190205460ff16611daa5760405162461bcd60e51b815260040161079f906137c3565b60085460405163020884f760e41b81528c916001600160a01b0316906320884f7090611dda908490600401612ffe565b5f604051808303815f87803b158015611df1575f80fd5b505af1158015611e03573d5f803e3d5ffd5b50505050611e0f612396565b8660108d604051611e2091906137b8565b90815260200160405180910390208b604051611e3c91906137b8565b90815260200160405180910390208a604051611e5891906137b8565b908152602001604051809103902089604051611e7491906137b8565b9081526020016040518091039020541015611ec85760405162461bcd60e51b8152602060048201526014602482015273496e73756666696369656e742062616c616e636560601b604482015260640161079f565b8660108d604051611ed991906137b8565b90815260200160405180910390208b604051611ef591906137b8565b90815260200160405180910390208a604051611f1191906137b8565b908152602001604051809103902089604051611f2d91906137b8565b90815260200160405180910390205f828254611f499190613916565b925050819055508660108c604051611f6191906137b8565b90815260200160405180910390208b604051611f7d91906137b8565b90815260200160405180910390208a604051611f9991906137b8565b908152602001604051809103902089604051611fb591906137b8565b90815260200160405180910390205f828254611fd19190613929565b925050819055506120a060085f9054906101000a90046001600160a01b03166001600160a01b031663f3f9f2678e6040518263ffffffff1660e01b815260040161201b9190612ffe565b5f60405180830381865afa158015612035573d5f803e3d5ffd5b505050506040513d5f823e601f3d908101601f1916820160405261205c9190810190613859565b6020015160085f9054906101000a90046001600160a01b03166001600160a01b031663f3f9f2678e6040518263ffffffff1660e01b8152600401610b839190612ffe565b6120ae8b8b8b8b8b8b6123ef565b8b6040516120bc91906137b8565b60405180910390207fa9d0859125d9e78ecfeb1193258eaa45094480969781c169c2653e86058056f78c8c8c8c8c8c6040516120fd96959493929190613b61565b60405180910390a261210f6001600655565b505050505050505050505050565b7ff0c57e16840df040f15088dc2f81fe391c3923bec73e23a9662efc9c229c6a008054600160401b810460ff1615906001600160401b03165f811580156121615750825b90505f826001600160401b0316600114801561217c5750303b155b90508115801561218a575080155b156121a85760405163f92ee8a960e01b815260040160405180910390fd5b845467ffffffffffffffff1916600117855583156121d257845460ff60401b1916600160401b1785555b600780546001600160a01b03808b166001600160a01b0319928316179092556009805489841690831617905560088054928a1692909116919091179055831561225557845460ff60401b19168555604051600181527fc7f505b2f371ae2175ee4913f4499e1f2633a7b5936321eed1cdaeb6115181d29060200160405180910390a15b5050505050505050565b610eaa8383836001612b7b565b6001600160a01b038381165f908152600160209081526040808320938616835292905220545f1981146122e157818110156122d357604051637dc7a0d960e11b81526001600160a01b0384166004820152602481018290526044810183905260640161079f565b6122e184848484035f612b7b565b50505050565b6001600160a01b03831661231057604051634b637e8f60e11b81525f600482015260240161079f565b6001600160a01b0382166123395760405163ec442f0560e01b81525f600482015260240161079f565b610eaa838383612c4d565b61234c612d73565b6005805460ff191690557f5db9ee0a495bf2e6ff9c91a7834c1ba4fdd244a5e8aa4e537bd38aeae4b073aa335b6040516001600160a01b03909116815260200160405180910390a1565b6002600654036123e85760405162461bcd60e51b815260206004820152601f60248201527f5265656e7472616e637947756172643a207265656e7472616e742063616c6c00604482015260640161079f565b6002600655565b5f60145f81546123fe90613bc3565b9182905550604080516101008101825282815260208082018b81528284018b9052606083018a90526080830189905260a0830188905260c083018790524260e08401525f858152600e90925292902081518155915192935091600182019061246690826139f4565b506040820151600282019061247b90826139f4565b506060820151600382019061249090826139f4565b50608082015160048201906124a590826139f4565b5060a0820151816005015560c0820151816006015560e08201518160070155905050600f876040516124d791906137b8565b908152604051908190036020908101822080546001810182555f918252919020018290556125069088906137b8565b6040518091039020817f6a1be0ab6d63eee48d486196b881ab2fef0fc7a715855e495eb8cebdedb3e257888888886040516125449493929190613ab3565b60405180910390a350505050505050565b306001600160a01b037f00000000000000000000000000000000000000000000000000000000000000001614806125db57507f00000000000000000000000000000000000000000000000000000000000000006001600160a01b03166125cf5f80516020613ce5833981519152546001600160a01b031690565b6001600160a01b031614155b156107b05760405163703e46dd60e11b815260040160405180910390fd5b6009546040516342282d9560e01b81523360048201526001600160a01b03909116906342282d9590602401602060405180830381865afa15801561263f573d5f803e3d5ffd5b505050506040513d601f19601f820116820180604052508101906126639190613653565b61267f5760405162461bcd60e51b815260040161079f9061366c565b50565b816001600160a01b03166352d1902d6040518163ffffffff1660e01b8152600401602060405180830381865afa9250505080156126dc575060408051601f3d908101601f191682019092526126d991810190613b15565b60015b61270457604051634c9c8ce360e01b81526001600160a01b038316600482015260240161079f565b5f80516020613ce5833981519152811461273457604051632a87526960e21b81526004810182905260240161079f565b610eaa8383612dbc565b306001600160a01b037f000000000000000000000000000000000000000000000000000000000000000016146107b05760405163703e46dd60e11b815260040160405180910390fd5b60605f8290505f81516001600160401b038111156127a7576127a761308c565b6040519080825280601f01601f1916602001820160405280156127d1576020820181803683370190505b5090505f5b82518110156128d25760418382815181106127f3576127f3613be1565b016020015160f81c108015906128235750605a83828151811061281857612818613be1565b016020015160f81c11155b156128845782818151811061283a5761283a613be1565b602001015160f81c60f81b60f81c60206128549190613bf5565b60f81b82828151811061286957612869613be1565b60200101906001600160f81b03191690815f1a9053506128ca565b82818151811061289657612896613be1565b602001015160f81c60f81b8282815181106128b3576128b3613be1565b60200101906001600160f81b03191690815f1a9053505b6001016127d6565b509392505050565b6128e2612e11565b6005805460ff191660011790557f62e78cea01bee320cd4e420270b5ea74000d11b0c9f74754ebdbfc544b05a2586123793390565b6001600160a01b03821661294057604051634b637e8f60e11b81525f600482015260240161079f565b610d1c825f83612c4d565b60085460405163f3f9f26760e01b81525f916001600160a01b03169063f3f9f2679061297b908690600401612ffe565b5f60405180830381865afa158015612995573d5f803e3d5ffd5b505050506040513d5f823e601f3d908101601f191682016040526129bc9190810190613859565b602001516007546040516331a9108f60e11b8152600481018590526001600160a01b039283169290911690636352211e90602401602060405180830381865afa158015612a0b573d5f803e3d5ffd5b505050506040513d601f19601f82011682018060405250810190612a2f9190613c0e565b6001600160a01b0316149392505050565b600754604051637f177d3160e01b8152600481018490525f9182916001600160a01b0390911690637f177d31906024015f60405180830381865afa158015612a8a573d5f803e3d5ffd5b505050506040513d5f823e601f3d908101601f19168201604052612ab19190810190613c29565b90505f5b8151811015612b3d5783604051602001612acf91906137b8565b60405160208183030381529060405280519060200120828281518110612af757612af7613be1565b6020026020010151604051602001612b0f91906137b8565b6040516020818303038152906040528051906020012003612b35576001925050506106ee565b600101612ab5565b505f949350505050565b6001600160a01b038216612b705760405163ec442f0560e01b81525f600482015260240161079f565b610d1c5f8383612c4d565b6001600160a01b038416612ba45760405163e602df0560e01b81525f600482015260240161079f565b6001600160a01b038316612bcd57604051634a1406b160e11b81525f600482015260240161079f565b6001600160a01b038085165f90815260016020908152604080832093871683529290522082905580156122e157826001600160a01b0316846001600160a01b03167f8c5be1e5ebec7d5bd14f71427d1e84f3dd0314c0f7b2291e5b200ac8c7c3b92584604051612c3f91815260200190565b60405180910390a350505050565b6001600160a01b038316612c77578060025f828254612c6c9190613929565b90915550612ce79050565b6001600160a01b0383165f9081526020819052604090205481811015612cc95760405163391434e360e21b81526001600160a01b0385166004820152602481018290526044810183905260640161079f565b6001600160a01b0384165f9081526020819052604090209082900390555b6001600160a01b038216612d0357600280548290039055612d21565b6001600160a01b0382165f9081526020819052604090208054820190555b816001600160a01b0316836001600160a01b03167fddf252ad1be2c89b69c2b068fc378daa952ba7f163c4a11628f55a4df523b3ef83604051612d6691815260200190565b60405180910390a3505050565b60055460ff166107b05760405162461bcd60e51b815260206004820152601460248201527314185d5cd8589b194e881b9bdd081c185d5cd95960621b604482015260640161079f565b612dc582612e57565b6040516001600160a01b038316907fbc7cd75a20ee27fd9adebab32041f755214dbc6bffa90cc0225b39da2e5c2d3b905f90a2805115612e0957610eaa8282612eba565b610d1c612f2c565b60055460ff16156107b05760405162461bcd60e51b815260206004820152601060248201526f14185d5cd8589b194e881c185d5cd95960821b604482015260640161079f565b806001600160a01b03163b5f03612e8c57604051634c9c8ce360e01b81526001600160a01b038216600482015260240161079f565b5f80516020613ce583398151915280546001600160a01b0319166001600160a01b0392909216919091179055565b60605f80846001600160a01b031684604051612ed691906137b8565b5f60405180830381855af49150503d805f8114612f0e576040519150601f19603f3d011682016040523d82523d5f602084013e612f13565b606091505b5091509150612f23858383612f4b565b95945050505050565b34156107b05760405163b398979f60e01b815260040160405180910390fd5b606082612f6057612f5b82612fa7565b610712565b8151158015612f7757506001600160a01b0384163b155b15612fa057604051639996b31560e01b81526001600160a01b038516600482015260240161079f565b5080610712565b805115612fb75780518082602001fd5b604051630a12f52160e11b815260040160405180910390fd5b5f81518084528060208401602086015e5f602082860101526020601f19601f83011685010191505092915050565b602081525f6107126020830184612fd0565b6001600160a01b038116811461267f575f80fd5b5f8060408385031215613035575f80fd5b823561304081613010565b946020939093013593505050565b5f805f60608486031215613060575f80fd5b833561306b81613010565b9250602084013561307b81613010565b929592945050506040919091013590565b634e487b7160e01b5f52604160045260245ffd5b60405160a081016001600160401b03811182821017156130c2576130c261308c565b60405290565b604051601f8201601f191681016001600160401b03811182821017156130f0576130f061308c565b604052919050565b5f6001600160401b038211156131105761311061308c565b50601f01601f191660200190565b5f61313061312b846130f8565b6130c8565b9050828152838383011115613143575f80fd5b828260208301375f602084830101529392505050565b5f82601f830112613168575f80fd5b6107128383356020850161311e565b5f805f805f8060c0878903121561318c575f80fd5b86356001600160401b03808211156131a2575f80fd5b6131ae8a838b01613159565b975060208901359150808211156131c3575f80fd5b6131cf8a838b01613159565b965060408901359150808211156131e4575f80fd5b6131f08a838b01613159565b95506060890135915080821115613205575f80fd5b5061321289828a01613159565b9350506080870135915060a087013590509295509295509295565b5f806040838503121561323e575f80fd5b823561324981613010565b915060208301356001600160401b03811115613263575f80fd5b8301601f81018513613273575f80fd5b6132828582356020840161311e565b9150509250929050565b5f6020828403121561329c575f80fd5b813561071281613010565b5f602082840312156132b7575f80fd5b81356001600160401b038111156132cc575f80fd5b6132d884828501613159565b949350505050565b5f805f805f60a086880312156132f4575f80fd5b85356001600160401b038082111561330a575f80fd5b61331689838a01613159565b9650602088013591508082111561332b575f80fd5b61333789838a01613159565b9550604088013591508082111561334c575f80fd5b61335889838a01613159565b9450606088013591508082111561336d575f80fd5b5061337a88828901613159565b95989497509295608001359392505050565b5f806040838503121561339d575f80fd5b82356001600160401b03808211156133b3575f80fd5b6133bf86838701613159565b935060208501359150808211156133d4575f80fd5b5061328285828601613159565b5f602082840312156133f1575f80fd5b5035919050565b5f805f805f8060c0878903121561340d575f80fd5b86356001600160401b0380821115613423575f80fd5b61342f8a838b01613159565b975060208901359650604089013591508082111561344b575f80fd5b6134578a838b01613159565b9550606089013591508082111561346c575f80fd5b6134788a838b01613159565b9450608089013591508082111561348d575f80fd5b5061349a89828a01613159565b92505060a087013590509295509295509295565b5f805f805f805f60e0888a0312156134c4575f80fd5b87356001600160401b03808211156134da575f80fd5b6134e68b838c01613159565b985060208a01359150808211156134fb575f80fd5b6135078b838c01613159565b975060408a013591508082111561351c575f80fd5b6135288b838c01613159565b965060608a013591508082111561353d575f80fd5b6135498b838c01613159565b955060808a013591508082111561355e575f80fd5b5061356b8a828b01613159565b93505060a0880135915060c0880135905092959891949750929550565b5f805f6060848603121561359a575f80fd5b83356135a581613010565b925060208401356135b581613010565b915060408401356135c581613010565b809150509250925092565b5f80604083850312156135e1575f80fd5b82356135ec81613010565b915060208301356135fc81613010565b809150509250929050565b600181811c9082168061361b57607f821691505b60208210810361363957634e487b7160e01b5f52602260045260245ffd5b50919050565b8051801515811461364e575f80fd5b919050565b5f60208284031215613663575f80fd5b6107128261363f565b6020808252601f908201527f43616c6c6572206973206e6f7420616e2061646d696e20616464726573732e00604082015260600190565b6020808252602b908201527f43616c6c6572206973206e6f7420616e2061646d696e206f7220206261636b6560408201526a37321030b2323932b9b99760a91b606082015260800190565b60208082526028908201527f4163636f756e74206e6f742072656769737465726564206f7220697320626c6160408201526718dadb1a5cdd195960c21b606082015260800190565b604081525f6137486040830185612fd0565b90508260208301529392505050565b6020808252602a908201527f4163636f756e7420646f6573206e6f7420686176652074686520617070726f70604082015269726961746520726f6c6560b01b606082015260800190565b5f81518060208401855e5f93019283525090919050565b5f61071282846137a1565b60208082526029908201527f5665726966696572206e6f74207265676973746572656420666f72207468697360408201526810383937b23ab1b2b960b91b606082015260800190565b5f82601f83011261381b575f80fd5b815161382961312b826130f8565b81815284602083860101111561383d575f80fd5b8160208501602083015e5f918101602001919091529392505050565b5f60208284031215613869575f80fd5b81516001600160401b038082111561387f575f80fd5b9083019060a08286031215613892575f80fd5b61389a6130a0565b8251828111156138a8575f80fd5b6138b48782860161380c565b825250602083015191506138c782613010565b8160208201526138d96040840161363f565b6040820152606083015160608201526138f46080840161363f565b608082015295945050505050565b634e487b7160e01b5f52601160045260245ffd5b818103818111156106ee576106ee613902565b808201808211156106ee576106ee613902565b8082018281125f83128015821682158216171561395b5761395b613902565b505092915050565b60a081525f61397560a0830188612fd0565b82810360208401526139878188612fd0565b9050828103604084015261399b8187612fd0565b60608401959095525050608001529392505050565b601f821115610eaa57805f5260205f20601f840160051c810160208510156139d55750805b601f840160051c820191505b818110156115ce575f81556001016139e1565b81516001600160401b03811115613a0d57613a0d61308c565b613a2181613a1b8454613607565b846139b0565b602080601f831160018114613a54575f8415613a3d5750858301515b5f19600386901b1c1916600185901b178555613aab565b5f85815260208120601f198616915b82811015613a8257888601518255948401946001909101908401613a63565b5085821015613a9f57878501515f19600388901b60f8161c191681555b505060018460011b0185555b505050505050565b608081525f613ac56080830187612fd0565b8281036020840152613ad78187612fd0565b90508281036040840152613aeb8186612fd0565b91505082606083015295945050505050565b828152604060208201525f6132d86040830184612fd0565b5f60208284031215613b25575f80fd5b5051919050565b606081525f613b3e6060830186612fd0565b8281036020840152613b508186612fd0565b915050826040830152949350505050565b60c081525f613b7360c0830189612fd0565b8281036020840152613b858189612fd0565b90508281036040840152613b998188612fd0565b90508281036060840152613bad8187612fd0565b6080840195909552505060a00152949350505050565b5f6001600160ff1b018201613bda57613bda613902565b5060010190565b634e487b7160e01b5f52603260045260245ffd5b60ff81811683821601908111156106ee576106ee613902565b5f60208284031215613c1e575f80fd5b815161071281613010565b5f6020808385031215613c3a575f80fd5b82516001600160401b0380821115613c50575f80fd5b818501915085601f830112613c63575f80fd5b815181811115613c7557613c7561308c565b8060051b613c848582016130c8565b9182528381018501918581019089841115613c9d575f80fd5b86860192505b83831015613cd757825185811115613cb9575f80fd5b613cc78b89838a010161380c565b8352509186019190860190613ca3565b999850505050505050505056fe360894a13ba1a3210667c828492db98dca3e2076cc3735a920a3ca505d382bbca2646970667358221220bf89c6a2c4f5fd3a5c08bdf1008055c496799a6f1c449e2bb25e65816878367f64736f6c63430008190033",
			"opcodes": "PUSH1 0xA0 PUSH1 0x40 MSTORE ADDRESS PUSH1 0x80 MSTORE PUSH4 0x1E13380 PUSH1 0x15 SSTORE CALLVALUE DUP1 ISZERO PUSH2 0x1B JUMPI PUSH0 DUP1 REVERT JUMPDEST POP PUSH1 0x40 MLOAD DUP1 PUSH1 0x40 ADD PUSH1 0x40 MSTORE DUP1 PUSH1 0x13 DUP2 MSTORE PUSH1 0x20 ADD PUSH32 0x4E657074756E65436861696E4372656469747300000000000000000000000000 DUP2 MSTORE POP PUSH1 0x40 MLOAD DUP1 PUSH1 0x40 ADD PUSH1 0x40 MSTORE DUP1 PUSH1 0x3 DUP2 MSTORE PUSH1 0x20 ADD PUSH3 0x4E4343 PUSH1 0xE8 SHL DUP2 MSTORE POP DUP2 PUSH1 0x3 SWAP1 DUP2 PUSH2 0x7D SWAP2 SWAP1 PUSH2 0x139 JUMP JUMPDEST POP PUSH1 0x4 PUSH2 0x8A DUP3 DUP3 PUSH2 0x139 JUMP JUMPDEST POP POP PUSH1 0x5 DUP1 SLOAD PUSH1 0xFF NOT AND SWAP1 SSTORE POP PUSH1 0x1 PUSH1 0x6 SSTORE PUSH2 0x1F8 JUMP JUMPDEST PUSH4 0x4E487B71 PUSH1 0xE0 SHL PUSH0 MSTORE PUSH1 0x41 PUSH1 0x4 MSTORE PUSH1 0x24 PUSH0 REVERT JUMPDEST PUSH1 0x1 DUP2 DUP2 SHR SWAP1 DUP3 AND DUP1 PUSH2 0xC9 JUMPI PUSH1 0x7F DUP3 AND SWAP2 POP JUMPDEST PUSH1 0x20 DUP3 LT DUP2 SUB PUSH2 0xE7 JUMPI PUSH4 0x4E487B71 PUSH1 0xE0 SHL PUSH0 MSTORE PUSH1 0x22 PUSH1 0x4 MSTORE PUSH1 0x24 PUSH0 REVERT JUMPDEST POP SWAP2 SWAP1 POP JUMP JUMPDEST PUSH1 0x1F DUP3 GT ISZERO PUSH2 0x134 JUMPI DUP1 PUSH0 MSTORE PUSH1 0x20 PUSH0 KECCAK256 PUSH1 0x1F DUP5 ADD PUSH1 0x5 SHR DUP2 ADD PUSH1 0x20 DUP6 LT ISZERO PUSH2 0x112 JUMPI POP DUP1 JUMPDEST PUSH1 0x1F DUP5 ADD PUSH1 0x5 SHR DUP3 ADD SWAP2 POP JUMPDEST DUP2 DUP2 LT ISZERO PUSH2 0x131 JUMPI PUSH0 DUP2 SSTORE PUSH1 0x1 ADD PUSH2 0x11E JUMP JUMPDEST POP POP JUMPDEST POP POP POP JUMP JUMPDEST DUP2 MLOAD PUSH1 0x1 PUSH1 0x1 PUSH1 0x40 SHL SUB DUP2 GT ISZERO PUSH2 0x152 JUMPI PUSH2 0x152 PUSH2 0xA1 JUMP JUMPDEST PUSH2 0x166 DUP2 PUSH2 0x160 DUP5 SLOAD PUSH2 0xB5 JUMP JUMPDEST DUP5 PUSH2 0xED JUMP JUMPDEST PUSH1 0x20 DUP1 PUSH1 0x1F DUP4 GT PUSH1 0x1 DUP2 EQ PUSH2 0x199 JUMPI PUSH0 DUP5 ISZERO PUSH2 0x182 JUMPI POP DUP6 DUP4 ADD MLOAD JUMPDEST PUSH0 NOT PUSH1 0x3 DUP7 SWAP1 SHL SHR NOT AND PUSH1 0x1 DUP6 SWAP1 SHL OR DUP6 SSTORE PUSH2 0x1F0 JUMP JUMPDEST PUSH0 DUP6 DUP2 MSTORE PUSH1 0x20 DUP2 KECCAK256 PUSH1 0x1F NOT DUP7 AND SWAP2 JUMPDEST DUP3 DUP2 LT ISZERO PUSH2 0x1C7 JUMPI DUP9 DUP7 ADD MLOAD DUP3 SSTORE SWAP5 DUP5 ADD SWAP5 PUSH1 0x1 SWAP1 SWAP2 ADD SWAP1 DUP5 ADD PUSH2 0x1A8 JUMP JUMPDEST POP DUP6 DUP3 LT ISZERO PUSH2 0x1E4 JUMPI DUP8 DUP6 ADD MLOAD PUSH0 NOT PUSH1 0x3 DUP9 SWAP1 SHL PUSH1 0xF8 AND SHR NOT AND DUP2 SSTORE JUMPDEST POP POP PUSH1 0x1 DUP5 PUSH1 0x1 SHL ADD DUP6 SSTORE JUMPDEST POP POP POP POP POP POP JUMP JUMPDEST PUSH1 0x80 MLOAD PUSH2 0x3D3A PUSH2 0x21E PUSH0 CODECOPY PUSH0 DUP2 DUP2 PUSH2 0x2560 ADD MSTORE DUP2 DUP2 PUSH2 0x2589 ADD MSTORE PUSH2 0x2749 ADD MSTORE PUSH2 0x3D3A PUSH0 RETURN INVALID PUSH1 0x80 PUSH1 0x40 MSTORE PUSH1 0x4 CALLDATASIZE LT PUSH2 0x1DB JUMPI PUSH0 CALLDATALOAD PUSH1 0xE0 SHR DUP1 PUSH4 0x775DD988 GT PUSH2 0xFD JUMPI DUP1 PUSH4 0xA9059CBB GT PUSH2 0x92 JUMPI DUP1 PUSH4 0xC0C53B8B GT PUSH2 0x62 JUMPI DUP1 PUSH4 0xC0C53B8B EQ PUSH2 0x582 JUMPI DUP1 PUSH4 0xCB3E1FE7 EQ PUSH2 0x5A1 JUMPI DUP1 PUSH4 0xDD62ED3E EQ PUSH2 0x5D4 JUMPI DUP1 PUSH4 0xE7705DB6 EQ PUSH2 0x618 JUMPI PUSH0 DUP1 REVERT JUMPDEST DUP1 PUSH4 0xA9059CBB EQ PUSH2 0x4F5 JUMPI DUP1 PUSH4 0xAD3CB1CC EQ PUSH2 0x514 JUMPI DUP1 PUSH4 0xB783BDEC EQ PUSH2 0x544 JUMPI DUP1 PUSH4 0xC08440E5 EQ PUSH2 0x563 JUMPI PUSH0 DUP1 REVERT JUMPDEST DUP1 PUSH4 0x91C2C469 GT PUSH2 0xCD JUMPI DUP1 PUSH4 0x91C2C469 EQ PUSH2 0x470 JUMPI DUP1 PUSH4 0x92C2BECC EQ PUSH2 0x48F JUMPI DUP1 PUSH4 0x95D89B41 EQ PUSH2 0x4C2 JUMPI DUP1 PUSH4 0xA01F271F EQ PUSH2 0x4D6 JUMPI PUSH0 DUP1 REVERT JUMPDEST DUP1 PUSH4 0x775DD988 EQ PUSH2 0x3FF JUMPI DUP1 PUSH4 0x8456CB59 EQ PUSH2 0x41E JUMPI DUP1 PUSH4 0x879BF106 EQ PUSH2 0x432 JUMPI DUP1 PUSH4 0x889D5B91 EQ PUSH2 0x451 JUMPI PUSH0 DUP1 REVERT JUMPDEST DUP1 PUSH4 0x47C10D90 GT PUSH2 0x173 JUMPI DUP1 PUSH4 0x5C975ABB GT PUSH2 0x143 JUMPI DUP1 PUSH4 0x5C975ABB EQ PUSH2 0x34E JUMPI DUP1 PUSH4 0x70A08231 EQ PUSH2 0x365 JUMPI DUP1 PUSH4 0x75B238FC EQ PUSH2 0x399 JUMPI DUP1 PUSH4 0x76082A5E EQ PUSH2 0x3CC JUMPI PUSH0 DUP1 REVERT JUMPDEST DUP1 PUSH4 0x47C10D90 EQ PUSH2 0x2F3 JUMPI DUP1 PUSH4 0x4F1EF286 EQ PUSH2 0x312 JUMPI DUP1 PUSH4 0x52D1902D EQ PUSH2 0x325 JUMPI DUP1 PUSH4 0x54761A2A EQ PUSH2 0x339 JUMPI PUSH0 DUP1 REVERT JUMPDEST DUP1 PUSH4 0x1AA9EDCC GT PUSH2 0x1AE JUMPI DUP1 PUSH4 0x1AA9EDCC EQ PUSH2 0x28D JUMPI DUP1 PUSH4 0x23B872DD EQ PUSH2 0x2A3 JUMPI DUP1 PUSH4 0x313CE567 EQ PUSH2 0x2C2 JUMPI DUP1 PUSH4 0x3F4BA83A EQ PUSH2 0x2DD JUMPI PUSH0 DUP1 REVERT JUMPDEST DUP1 PUSH4 0x6FDDE03 EQ PUSH2 0x1DF JUMPI DUP1 PUSH4 0x95EA7B3 EQ PUSH2 0x209 JUMPI DUP1 PUSH4 0x18160DDD EQ PUSH2 0x238 JUMPI DUP1 PUSH4 0x192FFE76 EQ PUSH2 0x256 JUMPI JUMPDEST PUSH0 DUP1 REVERT JUMPDEST CALLVALUE DUP1 ISZERO PUSH2 0x1EA JUMPI PUSH0 DUP1 REVERT JUMPDEST POP PUSH2 0x1F3 PUSH2 0x64B JUMP JUMPDEST PUSH1 0x40 MLOAD PUSH2 0x200 SWAP2 SWAP1 PUSH2 0x2FFE JUMP JUMPDEST PUSH1 0x40 MLOAD DUP1 SWAP2 SUB SWAP1 RETURN JUMPDEST CALLVALUE DUP1 ISZERO PUSH2 0x214 JUMPI PUSH0 DUP1 REVERT JUMPDEST POP PUSH2 0x228 PUSH2 0x223 CALLDATASIZE PUSH1 0x4 PUSH2 0x3024 JUMP JUMPDEST PUSH2 0x6DB JUMP JUMPDEST PUSH1 0x40 MLOAD SWAP1 ISZERO ISZERO DUP2 MSTORE PUSH1 0x20 ADD PUSH2 0x200 JUMP JUMPDEST CALLVALUE DUP1 ISZERO PUSH2 0x243 JUMPI PUSH0 DUP1 REVERT JUMPDEST POP PUSH1 0x2 SLOAD JUMPDEST PUSH1 0x40 MLOAD SWAP1 DUP2 MSTORE PUSH1 0x20 ADD PUSH2 0x200 JUMP JUMPDEST CALLVALUE DUP1 ISZERO PUSH2 0x261 JUMPI PUSH0 DUP1 REVERT JUMPDEST POP PUSH1 0x7 SLOAD PUSH2 0x275 SWAP1 PUSH1 0x1 PUSH1 0x1 PUSH1 0xA0 SHL SUB AND DUP2 JUMP JUMPDEST PUSH1 0x40 MLOAD PUSH1 0x1 PUSH1 0x1 PUSH1 0xA0 SHL SUB SWAP1 SWAP2 AND DUP2 MSTORE PUSH1 0x20 ADD PUSH2 0x200 JUMP JUMPDEST CALLVALUE DUP1 ISZERO PUSH2 0x298 JUMPI PUSH0 DUP1 REVERT JUMPDEST POP PUSH2 0x248 PUSH3 0x278D00 DUP2 JUMP JUMPDEST CALLVALUE DUP1 ISZERO PUSH2 0x2AE JUMPI PUSH0 DUP1 REVERT JUMPDEST POP PUSH2 0x228 PUSH2 0x2BD CALLDATASIZE PUSH1 0x4 PUSH2 0x304E JUMP JUMPDEST PUSH2 0x6F4 JUMP JUMPDEST CALLVALUE DUP1 ISZERO PUSH2 0x2CD JUMPI PUSH0 DUP1 REVERT JUMPDEST POP PUSH1 0x40 MLOAD PUSH1 0x12 DUP2 MSTORE PUSH1 0x20 ADD PUSH2 0x200 JUMP JUMPDEST CALLVALUE DUP1 ISZERO PUSH2 0x2E8 JUMPI PUSH0 DUP1 REVERT JUMPDEST POP PUSH2 0x2F1 PUSH2 0x719 JUMP JUMPDEST STOP JUMPDEST CALLVALUE DUP1 ISZERO PUSH2 0x2FE JUMPI PUSH0 DUP1 REVERT JUMPDEST POP PUSH2 0x2F1 PUSH2 0x30D CALLDATASIZE PUSH1 0x4 PUSH2 0x3177 JUMP JUMPDEST PUSH2 0x7B2 JUMP JUMPDEST PUSH2 0x2F1 PUSH2 0x320 CALLDATASIZE PUSH1 0x4 PUSH2 0x322D JUMP JUMPDEST PUSH2 0xD01 JUMP JUMPDEST CALLVALUE DUP1 ISZERO PUSH2 0x330 JUMPI PUSH0 DUP1 REVERT JUMPDEST POP PUSH2 0x248 PUSH2 0xD20 JUMP JUMPDEST CALLVALUE DUP1 ISZERO PUSH2 0x344 JUMPI PUSH0 DUP1 REVERT JUMPDEST POP PUSH2 0x248 PUSH1 0x15 SLOAD DUP2 JUMP JUMPDEST CALLVALUE DUP1 ISZERO PUSH2 0x359 JUMPI PUSH0 DUP1 REVERT JUMPDEST POP PUSH1 0x5 SLOAD PUSH1 0xFF AND PUSH2 0x228 JUMP JUMPDEST CALLVALUE DUP1 ISZERO PUSH2 0x370 JUMPI PUSH0 DUP1 REVERT JUMPDEST POP PUSH2 0x248 PUSH2 0x37F CALLDATASIZE PUSH1 0x4 PUSH2 0x328C JUMP JUMPDEST PUSH1 0x1 PUSH1 0x1 PUSH1 0xA0 SHL SUB AND PUSH0 SWAP1 DUP2 MSTORE PUSH1 0x20 DUP2 SWAP1 MSTORE PUSH1 0x40 SWAP1 KECCAK256 SLOAD SWAP1 JUMP JUMPDEST CALLVALUE DUP1 ISZERO PUSH2 0x3A4 JUMPI PUSH0 DUP1 REVERT JUMPDEST POP PUSH2 0x248 PUSH32 0xA49807205CE4D355092EF5A8A18F56E8913CF4A201FBE287825B095693C21775 DUP2 JUMP JUMPDEST CALLVALUE DUP1 ISZERO PUSH2 0x3D7 JUMPI PUSH0 DUP1 REVERT JUMPDEST POP PUSH2 0x248 PUSH32 0xB165298935924F540E4181C03493A5D686C54A0AAEB3F6216DE85B7FFBBA7738 DUP2 JUMP JUMPDEST CALLVALUE DUP1 ISZERO PUSH2 0x40A JUMPI PUSH0 DUP1 REVERT JUMPDEST POP PUSH2 0x2F1 PUSH2 0x419 CALLDATASIZE PUSH1 0x4 PUSH2 0x32A7 JUMP JUMPDEST PUSH2 0xD3B JUMP JUMPDEST CALLVALUE DUP1 ISZERO PUSH2 0x429 JUMPI PUSH0 DUP1 REVERT JUMPDEST POP PUSH2 0x2F1 PUSH2 0xEAF JUMP JUMPDEST CALLVALUE DUP1 ISZERO PUSH2 0x43D JUMPI PUSH0 DUP1 REVERT JUMPDEST POP PUSH2 0x2F1 PUSH2 0x44C CALLDATASIZE PUSH1 0x4 PUSH2 0x32E0 JUMP JUMPDEST PUSH2 0xF3D JUMP JUMPDEST CALLVALUE DUP1 ISZERO PUSH2 0x45C JUMPI PUSH0 DUP1 REVERT JUMPDEST POP PUSH2 0x2F1 PUSH2 0x46B CALLDATASIZE PUSH1 0x4 PUSH2 0x338C JUMP JUMPDEST PUSH2 0x13A3 JUMP JUMPDEST CALLVALUE DUP1 ISZERO PUSH2 0x47B JUMPI PUSH0 DUP1 REVERT JUMPDEST POP PUSH1 0x8 SLOAD PUSH2 0x275 SWAP1 PUSH1 0x1 PUSH1 0x1 PUSH1 0xA0 SHL SUB AND DUP2 JUMP JUMPDEST CALLVALUE DUP1 ISZERO PUSH2 0x49A JUMPI PUSH0 DUP1 REVERT JUMPDEST POP PUSH2 0x248 PUSH32 0x25CF2B509F2A7F322675B2A5322B182F44AD2C03AC941A0AF17C9B178F5D5D5F DUP2 JUMP JUMPDEST CALLVALUE DUP1 ISZERO PUSH2 0x4CD JUMPI PUSH0 DUP1 REVERT JUMPDEST POP PUSH2 0x1F3 PUSH2 0x15D5 JUMP JUMPDEST CALLVALUE DUP1 ISZERO PUSH2 0x4E1 JUMPI PUSH0 DUP1 REVERT JUMPDEST POP PUSH2 0x2F1 PUSH2 0x4F0 CALLDATASIZE PUSH1 0x4 PUSH2 0x33E1 JUMP JUMPDEST PUSH2 0x15E4 JUMP JUMPDEST CALLVALUE DUP1 ISZERO PUSH2 0x500 JUMPI PUSH0 DUP1 REVERT JUMPDEST POP PUSH2 0x228 PUSH2 0x50F CALLDATASIZE PUSH1 0x4 PUSH2 0x3024 JUMP JUMPDEST PUSH2 0x16B7 JUMP JUMPDEST CALLVALUE DUP1 ISZERO PUSH2 0x51F JUMPI PUSH0 DUP1 REVERT JUMPDEST POP PUSH2 0x1F3 PUSH1 0x40 MLOAD DUP1 PUSH1 0x40 ADD PUSH1 0x40 MSTORE DUP1 PUSH1 0x5 DUP2 MSTORE PUSH1 0x20 ADD PUSH5 0x352E302E3 PUSH1 0xDC SHL DUP2 MSTORE POP DUP2 JUMP JUMPDEST CALLVALUE DUP1 ISZERO PUSH2 0x54F JUMPI PUSH0 DUP1 REVERT JUMPDEST POP PUSH2 0x228 PUSH2 0x55E CALLDATASIZE PUSH1 0x4 PUSH2 0x33F8 JUMP JUMPDEST PUSH2 0x16C4 JUMP JUMPDEST CALLVALUE DUP1 ISZERO PUSH2 0x56E JUMPI PUSH0 DUP1 REVERT JUMPDEST POP PUSH2 0x2F1 PUSH2 0x57D CALLDATASIZE PUSH1 0x4 PUSH2 0x34AE JUMP JUMPDEST PUSH2 0x1BB1 JUMP JUMPDEST CALLVALUE DUP1 ISZERO PUSH2 0x58D JUMPI PUSH0 DUP1 REVERT JUMPDEST POP PUSH2 0x2F1 PUSH2 0x59C CALLDATASIZE PUSH1 0x4 PUSH2 0x3588 JUMP JUMPDEST PUSH2 0x211D JUMP JUMPDEST CALLVALUE DUP1 ISZERO PUSH2 0x5AC JUMPI PUSH0 DUP1 REVERT JUMPDEST POP PUSH2 0x248 PUSH32 0x8EB467F061CA67F42A2D2CA4A346FC9FB645EFC0BA75056EE9F71C3A0CCC10A8 DUP2 JUMP JUMPDEST CALLVALUE DUP1 ISZERO PUSH2 0x5DF JUMPI PUSH0 DUP1 REVERT JUMPDEST POP PUSH2 0x248 PUSH2 0x5EE CALLDATASIZE PUSH1 0x4 PUSH2 0x35D0 JUMP JUMPDEST PUSH1 0x1 PUSH1 0x1 PUSH1 0xA0 SHL SUB SWAP2 DUP3 AND PUSH0 SWAP1 DUP2 MSTORE PUSH1 0x1 PUSH1 0x20 SWAP1 DUP2 MSTORE PUSH1 0x40 DUP1 DUP4 KECCAK256 SWAP4 SWAP1 SWAP5 AND DUP3 MSTORE SWAP2 SWAP1 SWAP2 MSTORE KECCAK256 SLOAD SWAP1 JUMP JUMPDEST CALLVALUE DUP1 ISZERO PUSH2 0x623 JUMPI PUSH0 DUP1 REVERT JUMPDEST POP PUSH2 0x248 PUSH32 0xCE23C3E399818CFEE81A7AB0880F714E53D7672B08DF0FA62F2843416E1EA09 DUP2 JUMP JUMPDEST PUSH1 0x60 PUSH1 0x3 DUP1 SLOAD PUSH2 0x65A SWAP1 PUSH2 0x3607 JUMP JUMPDEST DUP1 PUSH1 0x1F ADD PUSH1 0x20 DUP1 SWAP2 DIV MUL PUSH1 0x20 ADD PUSH1 0x40 MLOAD SWAP1 DUP2 ADD PUSH1 0x40 MSTORE DUP1 SWAP3 SWAP2 SWAP1 DUP2 DUP2 MSTORE PUSH1 0x20 ADD DUP3 DUP1 SLOAD PUSH2 0x686 SWAP1 PUSH2 0x3607 JUMP JUMPDEST DUP1 ISZERO PUSH2 0x6D1 JUMPI DUP1 PUSH1 0x1F LT PUSH2 0x6A8 JUMPI PUSH2 0x100 DUP1 DUP4 SLOAD DIV MUL DUP4 MSTORE SWAP2 PUSH1 0x20 ADD SWAP2 PUSH2 0x6D1 JUMP JUMPDEST DUP3 ADD SWAP2 SWAP1 PUSH0 MSTORE PUSH1 0x20 PUSH0 KECCAK256 SWAP1 JUMPDEST DUP2 SLOAD DUP2 MSTORE SWAP1 PUSH1 0x1 ADD SWAP1 PUSH1 0x20 ADD DUP1 DUP4 GT PUSH2 0x6B4 JUMPI DUP3 SWAP1 SUB PUSH1 0x1F AND DUP3 ADD SWAP2 JUMPDEST POP POP POP POP POP SWAP1 POP SWAP1 JUMP JUMPDEST PUSH0 CALLER PUSH2 0x6E8 DUP2 DUP6 DUP6 PUSH2 0x225F JUMP JUMPDEST PUSH1 0x1 SWAP2 POP POP JUMPDEST SWAP3 SWAP2 POP POP JUMP JUMPDEST PUSH0 CALLER PUSH2 0x701 DUP6 DUP3 DUP6 PUSH2 0x226C JUMP JUMPDEST PUSH2 0x70C DUP6 DUP6 DUP6 PUSH2 0x22E7 JUMP JUMPDEST PUSH1 0x1 SWAP2 POP POP JUMPDEST SWAP4 SWAP3 POP POP POP JUMP JUMPDEST PUSH1 0x9 SLOAD PUSH1 0x40 MLOAD PUSH4 0x42282D95 PUSH1 0xE0 SHL DUP2 MSTORE CALLER PUSH1 0x4 DUP3 ADD MSTORE PUSH1 0x1 PUSH1 0x1 PUSH1 0xA0 SHL SUB SWAP1 SWAP2 AND SWAP1 PUSH4 0x42282D95 SWAP1 PUSH1 0x24 ADD PUSH1 0x20 PUSH1 0x40 MLOAD DUP1 DUP4 SUB DUP2 DUP7 GAS STATICCALL ISZERO DUP1 ISZERO PUSH2 0x75F JUMPI RETURNDATASIZE PUSH0 DUP1 RETURNDATACOPY RETURNDATASIZE PUSH0 REVERT JUMPDEST POP POP POP POP PUSH1 0x40 MLOAD RETURNDATASIZE PUSH1 0x1F NOT PUSH1 0x1F DUP3 ADD AND DUP3 ADD DUP1 PUSH1 0x40 MSTORE POP DUP2 ADD SWAP1 PUSH2 0x783 SWAP2 SWAP1 PUSH2 0x3653 JUMP JUMPDEST PUSH2 0x7A8 JUMPI PUSH1 0x40 MLOAD PUSH3 0x461BCD PUSH1 0xE5 SHL DUP2 MSTORE PUSH1 0x4 ADD PUSH2 0x79F SWAP1 PUSH2 0x366C JUMP JUMPDEST PUSH1 0x40 MLOAD DUP1 SWAP2 SUB SWAP1 REVERT JUMPDEST PUSH2 0x7B0 PUSH2 0x2344 JUMP JUMPDEST JUMP JUMPDEST PUSH1 0x9 SLOAD PUSH1 0x40 MLOAD PUSH4 0x49E89CC7 PUSH1 0xE1 SHL DUP2 MSTORE CALLER PUSH1 0x4 DUP3 ADD MSTORE PUSH1 0x1 PUSH1 0x1 PUSH1 0xA0 SHL SUB SWAP1 SWAP2 AND SWAP1 PUSH4 0x93D1398E SWAP1 PUSH1 0x24 ADD PUSH1 0x20 PUSH1 0x40 MLOAD DUP1 DUP4 SUB DUP2 DUP7 GAS STATICCALL ISZERO DUP1 ISZERO PUSH2 0x7F8 JUMPI RETURNDATASIZE PUSH0 DUP1 RETURNDATACOPY RETURNDATASIZE PUSH0 REVERT JUMPDEST POP POP POP POP PUSH1 0x40 MLOAD RETURNDATASIZE PUSH1 0x1F NOT PUSH1 0x1F DUP3 ADD AND DUP3 ADD DUP1 PUSH1 0x40 MSTORE POP DUP2 ADD SWAP1 PUSH2 0x81C SWAP2 SWAP1 PUSH2 0x3653 JUMP JUMPDEST PUSH2 0x838 JUMPI PUSH1 0x40 MLOAD PUSH3 0x461BCD PUSH1 0xE5 SHL DUP2 MSTORE PUSH1 0x4 ADD PUSH2 0x79F SWAP1 PUSH2 0x36A3 JUMP JUMPDEST PUSH1 0x8 SLOAD PUSH1 0x40 MLOAD PUSH4 0x518AB27B PUSH1 0xE0 SHL DUP2 MSTORE DUP8 SWAP2 PUSH1 0x1 PUSH1 0x1 PUSH1 0xA0 SHL SUB AND SWAP1 PUSH4 0x518AB27B SWAP1 PUSH2 0x868 SWAP1 DUP5 SWAP1 PUSH1 0x4 ADD PUSH2 0x2FFE JUMP JUMPDEST PUSH1 0x20 PUSH1 0x40 MLOAD DUP1 DUP4 SUB DUP2 DUP7 GAS STATICCALL ISZERO DUP1 ISZERO PUSH2 0x883 JUMPI RETURNDATASIZE PUSH0 DUP1 RETURNDATACOPY RETURNDATASIZE PUSH0 REVERT JUMPDEST POP POP POP POP PUSH1 0x40 MLOAD RETURNDATASIZE PUSH1 0x1F NOT PUSH1 0x1F DUP3 ADD AND DUP3 ADD DUP1 PUSH1 0x40 MSTORE POP DUP2 ADD SWAP1 PUSH2 0x8A7 SWAP2 SWAP1 PUSH2 0x3653 JUMP JUMPDEST PUSH2 0x8C3 JUMPI PUSH1 0x40 MLOAD PUSH3 0x461BCD PUSH1 0xE5 SHL DUP2 MSTORE PUSH1 0x4 ADD PUSH2 0x79F SWAP1 PUSH2 0x36EE JUMP JUMPDEST PUSH1 0x8 SLOAD PUSH1 0x40 MLOAD PUSH4 0xA8B07735 PUSH1 0xE0 SHL DUP2 MSTORE DUP9 SWAP2 PUSH32 0xB165298935924F540E4181C03493A5D686C54A0AAEB3F6216DE85B7FFBBA7738 SWAP2 PUSH1 0x1 PUSH1 0x1 PUSH1 0xA0 SHL SUB SWAP1 SWAP2 AND SWAP1 PUSH4 0xA8B07735 SWAP1 PUSH2 0x919 SWAP1 DUP6 SWAP1 DUP6 SWAP1 PUSH1 0x4 ADD PUSH2 0x3736 JUMP JUMPDEST PUSH1 0x20 PUSH1 0x40 MLOAD DUP1 DUP4 SUB DUP2 DUP7 GAS STATICCALL ISZERO DUP1 ISZERO PUSH2 0x934 JUMPI RETURNDATASIZE PUSH0 DUP1 RETURNDATACOPY RETURNDATASIZE PUSH0 REVERT JUMPDEST POP POP POP POP PUSH1 0x40 MLOAD RETURNDATASIZE PUSH1 0x1F NOT PUSH1 0x1F DUP3 ADD AND DUP3 ADD DUP1 PUSH1 0x40 MSTORE POP DUP2 ADD SWAP1 PUSH2 0x958 SWAP2 SWAP1 PUSH2 0x3653 JUMP JUMPDEST PUSH2 0x974 JUMPI PUSH1 0x40 MLOAD PUSH3 0x461BCD PUSH1 0xE5 SHL DUP2 MSTORE PUSH1 0x4 ADD PUSH2 0x79F SWAP1 PUSH2 0x3757 JUMP JUMPDEST PUSH1 0x8 SLOAD PUSH1 0x40 MLOAD PUSH4 0x20884F7 PUSH1 0xE4 SHL DUP2 MSTORE DUP11 SWAP2 PUSH1 0x1 PUSH1 0x1 PUSH1 0xA0 SHL SUB AND SWAP1 PUSH4 0x20884F70 SWAP1 PUSH2 0x9A4 SWAP1 DUP5 SWAP1 PUSH1 0x4 ADD PUSH2 0x2FFE JUMP JUMPDEST PUSH0 PUSH1 0x40 MLOAD DUP1 DUP4 SUB DUP2 PUSH0 DUP8 DUP1 EXTCODESIZE ISZERO DUP1 ISZERO PUSH2 0x9BB JUMPI PUSH0 DUP1 REVERT JUMPDEST POP GAS CALL ISZERO DUP1 ISZERO PUSH2 0x9CD JUMPI RETURNDATASIZE PUSH0 DUP1 RETURNDATACOPY RETURNDATASIZE PUSH0 REVERT JUMPDEST POP POP POP POP PUSH2 0x9D9 PUSH2 0x2396 JUMP JUMPDEST PUSH1 0xC DUP10 PUSH1 0x40 MLOAD PUSH2 0x9E9 SWAP2 SWAP1 PUSH2 0x37B8 JUMP JUMPDEST SWAP1 DUP2 MSTORE PUSH1 0x20 ADD PUSH1 0x40 MLOAD DUP1 SWAP2 SUB SWAP1 KECCAK256 DUP9 PUSH1 0x40 MLOAD PUSH2 0xA05 SWAP2 SWAP1 PUSH2 0x37B8 JUMP JUMPDEST SWAP1 DUP2 MSTORE PUSH1 0x40 MLOAD SWAP1 DUP2 SWAP1 SUB PUSH1 0x20 ADD SWAP1 KECCAK256 SLOAD PUSH1 0xFF AND PUSH2 0xA34 JUMPI PUSH1 0x40 MLOAD PUSH3 0x461BCD PUSH1 0xE5 SHL DUP2 MSTORE PUSH1 0x4 ADD PUSH2 0x79F SWAP1 PUSH2 0x37C3 JUMP JUMPDEST PUSH0 PUSH1 0xA DUP11 PUSH1 0x40 MLOAD PUSH2 0xA45 SWAP2 SWAP1 PUSH2 0x37B8 JUMP JUMPDEST SWAP1 DUP2 MSTORE PUSH1 0x20 ADD PUSH1 0x40 MLOAD DUP1 SWAP2 SUB SWAP1 KECCAK256 DUP10 PUSH1 0x40 MLOAD PUSH2 0xA61 SWAP2 SWAP1 PUSH2 0x37B8 JUMP JUMPDEST SWAP1 DUP2 MSTORE PUSH1 0x20 ADD PUSH1 0x40 MLOAD DUP1 SWAP2 SUB SWAP1 KECCAK256 DUP9 PUSH1 0x40 MLOAD PUSH2 0xA7D SWAP2 SWAP1 PUSH2 0x37B8 JUMP JUMPDEST SWAP1 DUP2 MSTORE PUSH1 0x20 ADD PUSH1 0x40 MLOAD DUP1 SWAP2 SUB SWAP1 KECCAK256 SWAP1 POP DUP7 DUP2 PUSH1 0x1 ADD SLOAD LT ISZERO PUSH2 0xAE1 JUMPI PUSH1 0x40 MLOAD PUSH3 0x461BCD PUSH1 0xE5 SHL DUP2 MSTORE PUSH1 0x20 PUSH1 0x4 DUP3 ADD MSTORE PUSH1 0x1C PUSH1 0x24 DUP3 ADD MSTORE PUSH32 0x4E6F7420656E6F756768206372656469747320617661696C61626C6500000000 PUSH1 0x44 DUP3 ADD MSTORE PUSH1 0x64 ADD PUSH2 0x79F JUMP JUMPDEST ADDRESS PUSH0 SWAP1 DUP2 MSTORE PUSH1 0x20 DUP2 SWAP1 MSTORE PUSH1 0x40 SWAP1 KECCAK256 SLOAD DUP8 GT ISZERO PUSH2 0xB3F JUMPI PUSH1 0x40 MLOAD PUSH3 0x461BCD PUSH1 0xE5 SHL DUP2 MSTORE PUSH1 0x20 PUSH1 0x4 DUP3 ADD MSTORE PUSH1 0x1A PUSH1 0x24 DUP3 ADD MSTORE PUSH32 0x496E73756666696369656E742045524332302062616C616E6365000000000000 PUSH1 0x44 DUP3 ADD MSTORE PUSH1 0x64 ADD PUSH2 0x79F JUMP JUMPDEST PUSH2 0xBCE ADDRESS PUSH1 0x8 PUSH0 SWAP1 SLOAD SWAP1 PUSH2 0x100 EXP SWAP1 DIV PUSH1 0x1 PUSH1 0x1 PUSH1 0xA0 SHL SUB AND PUSH1 0x1 PUSH1 0x1 PUSH1 0xA0 SHL SUB AND PUSH4 0xF3F9F267 DUP15 PUSH1 0x40 MLOAD DUP3 PUSH4 0xFFFFFFFF AND PUSH1 0xE0 SHL DUP2 MSTORE PUSH1 0x4 ADD PUSH2 0xB83 SWAP2 SWAP1 PUSH2 0x2FFE JUMP JUMPDEST PUSH0 PUSH1 0x40 MLOAD DUP1 DUP4 SUB DUP2 DUP7 GAS STATICCALL ISZERO DUP1 ISZERO PUSH2 0xB9D JUMPI RETURNDATASIZE PUSH0 DUP1 RETURNDATACOPY RETURNDATASIZE PUSH0 REVERT JUMPDEST POP POP POP POP PUSH1 0x40 MLOAD RETURNDATASIZE PUSH0 DUP3 RETURNDATACOPY PUSH1 0x1F RETURNDATASIZE SWAP1 DUP2 ADD PUSH1 0x1F NOT AND DUP3 ADD PUSH1 0x40 MSTORE PUSH2 0xBC4 SWAP2 SWAP1 DUP2 ADD SWAP1 PUSH2 0x3859 JUMP JUMPDEST PUSH1 0x20 ADD MLOAD DUP10 PUSH2 0x22E7 JUMP JUMPDEST DUP7 DUP2 PUSH1 0x1 ADD PUSH0 DUP3 DUP3 SLOAD PUSH2 0xBE1 SWAP2 SWAP1 PUSH2 0x3916 JUMP JUMPDEST SWAP3 POP POP DUP2 SWAP1 SSTORE POP DUP7 PUSH1 0x10 DUP13 PUSH1 0x40 MLOAD PUSH2 0xBF9 SWAP2 SWAP1 PUSH2 0x37B8 JUMP JUMPDEST SWAP1 DUP2 MSTORE PUSH1 0x20 ADD PUSH1 0x40 MLOAD DUP1 SWAP2 SUB SWAP1 KECCAK256 DUP12 PUSH1 0x40 MLOAD PUSH2 0xC15 SWAP2 SWAP1 PUSH2 0x37B8 JUMP JUMPDEST SWAP1 DUP2 MSTORE PUSH1 0x20 ADD PUSH1 0x40 MLOAD DUP1 SWAP2 SUB SWAP1 KECCAK256 DUP11 PUSH1 0x40 MLOAD PUSH2 0xC31 SWAP2 SWAP1 PUSH2 0x37B8 JUMP JUMPDEST SWAP1 DUP2 MSTORE PUSH1 0x20 ADD PUSH1 0x40 MLOAD DUP1 SWAP2 SUB SWAP1 KECCAK256 DUP10 PUSH1 0x40 MLOAD PUSH2 0xC4D SWAP2 SWAP1 PUSH2 0x37B8 JUMP JUMPDEST SWAP1 DUP2 MSTORE PUSH1 0x20 ADD PUSH1 0x40 MLOAD DUP1 SWAP2 SUB SWAP1 KECCAK256 PUSH0 DUP3 DUP3 SLOAD PUSH2 0xC69 SWAP2 SWAP1 PUSH2 0x3929 JUMP JUMPDEST SWAP3 POP POP DUP2 SWAP1 SSTORE POP DUP7 PUSH1 0x13 PUSH0 DUP3 DUP3 SLOAD PUSH2 0xC81 SWAP2 SWAP1 PUSH2 0x393C JUMP JUMPDEST SWAP1 SWAP2 SSTORE POP PUSH2 0xC95 SWAP1 POP DUP12 DUP12 DUP12 DUP12 DUP12 DUP12 PUSH2 0x23EF JUMP JUMPDEST DUP11 PUSH1 0x40 MLOAD PUSH2 0xCA3 SWAP2 SWAP1 PUSH2 0x37B8 JUMP JUMPDEST PUSH1 0x40 MLOAD DUP1 SWAP2 SUB SWAP1 KECCAK256 PUSH32 0x813CEA928C822937359D0FA4AC249B67DE34EFD9C45CEBCC2055A6B5CDECFCB0 DUP12 DUP12 DUP12 DUP12 DUP12 PUSH1 0x40 MLOAD PUSH2 0xCE2 SWAP6 SWAP5 SWAP4 SWAP3 SWAP2 SWAP1 PUSH2 0x3963 JUMP JUMPDEST PUSH1 0x40 MLOAD DUP1 SWAP2 SUB SWAP1 LOG2 POP PUSH2 0xCF5 PUSH1 0x1 PUSH1 0x6 SSTORE JUMP JUMPDEST POP POP POP POP POP POP POP POP POP POP JUMP JUMPDEST PUSH2 0xD09 PUSH2 0x2555 JUMP JUMPDEST PUSH2 0xD12 DUP3 PUSH2 0x25F9 JUMP JUMPDEST PUSH2 0xD1C DUP3 DUP3 PUSH2 0x2682 JUMP JUMPDEST POP POP JUMP JUMPDEST PUSH0 PUSH2 0xD29 PUSH2 0x273E JUMP JUMPDEST POP PUSH0 DUP1 MLOAD PUSH1 0x20 PUSH2 0x3CE5 DUP4 CODECOPY DUP2 MLOAD SWAP2 MSTORE SWAP1 JUMP JUMPDEST PUSH1 0x9 SLOAD PUSH1 0x40 MLOAD PUSH4 0x49E89CC7 PUSH1 0xE1 SHL DUP2 MSTORE CALLER PUSH1 0x4 DUP3 ADD MSTORE PUSH1 0x1 PUSH1 0x1 PUSH1 0xA0 SHL SUB SWAP1 SWAP2 AND SWAP1 PUSH4 0x93D1398E SWAP1 PUSH1 0x24 ADD PUSH1 0x20 PUSH1 0x40 MLOAD DUP1 DUP4 SUB DUP2 DUP7 GAS STATICCALL ISZERO DUP1 ISZERO PUSH2 0xD81 JUMPI RETURNDATASIZE PUSH0 DUP1 RETURNDATACOPY RETURNDATASIZE PUSH0 REVERT JUMPDEST POP POP POP POP PUSH1 0x40 MLOAD RETURNDATASIZE PUSH1 0x1F NOT PUSH1 0x1F DUP3 ADD AND DUP3 ADD DUP1 PUSH1 0x40 MSTORE POP DUP2 ADD SWAP1 PUSH2 0xDA5 SWAP2 SWAP1 PUSH2 0x3653 JUMP JUMPDEST PUSH2 0xDC1 JUMPI PUSH1 0x40 MLOAD PUSH3 0x461BCD PUSH1 0xE5 SHL DUP2 MSTORE PUSH1 0x4 ADD PUSH2 0x79F SWAP1 PUSH2 0x36A3 JUMP JUMPDEST PUSH0 PUSH2 0xDCB DUP3 PUSH2 0x2787 JUMP JUMPDEST SWAP1 POP PUSH1 0xB DUP2 PUSH1 0x40 MLOAD PUSH2 0xDDD SWAP2 SWAP1 PUSH2 0x37B8 JUMP JUMPDEST SWAP1 DUP2 MSTORE PUSH1 0x40 MLOAD SWAP1 DUP2 SWAP1 SUB PUSH1 0x20 ADD SWAP1 KECCAK256 SLOAD PUSH1 0xFF AND ISZERO PUSH2 0xE3D JUMPI PUSH1 0x40 MLOAD PUSH3 0x461BCD PUSH1 0xE5 SHL DUP2 MSTORE PUSH1 0x20 PUSH1 0x4 DUP3 ADD MSTORE PUSH1 0x1B PUSH1 0x24 DUP3 ADD MSTORE PUSH32 0x50726F647563657220616C726561647920726567697374657265640000000000 PUSH1 0x44 DUP3 ADD MSTORE PUSH1 0x64 ADD PUSH2 0x79F JUMP JUMPDEST PUSH1 0x1 PUSH1 0xB DUP3 PUSH1 0x40 MLOAD PUSH2 0xE4F SWAP2 SWAP1 PUSH2 0x37B8 JUMP JUMPDEST SWAP1 DUP2 MSTORE PUSH1 0x40 MLOAD SWAP1 DUP2 SWAP1 SUB PUSH1 0x20 ADD SWAP1 KECCAK256 DUP1 SLOAD SWAP2 ISZERO ISZERO PUSH1 0xFF NOT SWAP1 SWAP3 AND SWAP2 SWAP1 SWAP2 OR SWAP1 SSTORE PUSH1 0x12 DUP1 SLOAD PUSH1 0x1 DUP2 ADD DUP3 SSTORE PUSH0 SWAP2 SWAP1 SWAP2 MSTORE PUSH32 0xBB8A6A4669BA250D26CD7A459ECA9D215F8307E33AEBE50379BC5A3617EC3444 ADD PUSH2 0xEAA DUP3 DUP3 PUSH2 0x39F4 JUMP JUMPDEST POP POP POP JUMP JUMPDEST PUSH1 0x9 SLOAD PUSH1 0x40 MLOAD PUSH4 0x42282D95 PUSH1 0xE0 SHL DUP2 MSTORE CALLER PUSH1 0x4 DUP3 ADD MSTORE PUSH1 0x1 PUSH1 0x1 PUSH1 0xA0 SHL SUB SWAP1 SWAP2 AND SWAP1 PUSH4 0x42282D95 SWAP1 PUSH1 0x24 ADD PUSH1 0x20 PUSH1 0x40 MLOAD DUP1 DUP4 SUB DUP2 DUP7 GAS STATICCALL ISZERO DUP1 ISZERO PUSH2 0xEF5 JUMPI RETURNDATASIZE PUSH0 DUP1 RETURNDATACOPY RETURNDATASIZE PUSH0 REVERT JUMPDEST POP POP POP POP PUSH1 0x40 MLOAD RETURNDATASIZE PUSH1 0x1F NOT PUSH1 0x1F DUP3 ADD AND DUP3 ADD DUP1 PUSH1 0x40 MSTORE POP DUP2 ADD SWAP1 PUSH2 0xF19 SWAP2 SWAP1 PUSH2 0x3653 JUMP JUMPDEST PUSH2 0xF35 JUMPI PUSH1 0x40 MLOAD PUSH3 0x461BCD PUSH1 0xE5 SHL DUP2 MSTORE PUSH1 0x4 ADD PUSH2 0x79F SWAP1 PUSH2 0x366C JUMP JUMPDEST PUSH2 0x7B0 PUSH2 0x28DA JUMP JUMPDEST PUSH1 0x9 SLOAD PUSH1 0x40 MLOAD PUSH4 0x49E89CC7 PUSH1 0xE1 SHL DUP2 MSTORE CALLER PUSH1 0x4 DUP3 ADD MSTORE PUSH1 0x1 PUSH1 0x1 PUSH1 0xA0 SHL SUB SWAP1 SWAP2 AND SWAP1 PUSH4 0x93D1398E SWAP1 PUSH1 0x24 ADD PUSH1 0x20 PUSH1 0x40 MLOAD DUP1 DUP4 SUB DUP2 DUP7 GAS STATICCALL ISZERO DUP1 ISZERO PUSH2 0xF83 JUMPI RETURNDATASIZE PUSH0 DUP1 RETURNDATACOPY RETURNDATASIZE PUSH0 REVERT JUMPDEST POP POP POP POP PUSH1 0x40 MLOAD RETURNDATASIZE PUSH1 0x1F NOT PUSH1 0x1F DUP3 ADD AND DUP3 ADD DUP1 PUSH1 0x40 MSTORE POP DUP2 ADD SWAP1 PUSH2 0xFA7 SWAP2 SWAP1 PUSH2 0x3653 JUMP JUMPDEST PUSH2 0xFC3 JUMPI PUSH1 0x40 MLOAD PUSH3 0x461BCD PUSH1 0xE5 SHL DUP2 MSTORE PUSH1 0x4 ADD PUSH2 0x79F SWAP1 PUSH2 0x36A3 JUMP JUMPDEST PUSH1 0x8 SLOAD PUSH1 0x40 MLOAD PUSH4 0x518AB27B PUSH1 0xE0 SHL DUP2 MSTORE DUP7 SWAP2 PUSH1 0x1 PUSH1 0x1 PUSH1 0xA0 SHL SUB AND SWAP1 PUSH4 0x518AB27B SWAP1 PUSH2 0xFF3 SWAP1 DUP5 SWAP1 PUSH1 0x4 ADD PUSH2 0x2FFE JUMP JUMPDEST PUSH1 0x20 PUSH1 0x40 MLOAD DUP1 DUP4 SUB DUP2 DUP7 GAS STATICCALL ISZERO DUP1 ISZERO PUSH2 0x100E JUMPI RETURNDATASIZE PUSH0 DUP1 RETURNDATACOPY RETURNDATASIZE PUSH0 REVERT JUMPDEST POP POP POP POP PUSH1 0x40 MLOAD RETURNDATASIZE PUSH1 0x1F NOT PUSH1 0x1F DUP3 ADD AND DUP3 ADD DUP1 PUSH1 0x40 MSTORE POP DUP2 ADD SWAP1 PUSH2 0x1032 SWAP2 SWAP1 PUSH2 0x3653 JUMP JUMPDEST PUSH2 0x104E JUMPI PUSH1 0x40 MLOAD PUSH3 0x461BCD PUSH1 0xE5 SHL DUP2 MSTORE PUSH1 0x4 ADD PUSH2 0x79F SWAP1 PUSH2 0x36EE JUMP JUMPDEST DUP5 DUP5 PUSH1 0xC DUP3 PUSH1 0x40 MLOAD PUSH2 0x1060 SWAP2 SWAP1 PUSH2 0x37B8 JUMP JUMPDEST SWAP1 DUP2 MSTORE PUSH1 0x20 ADD PUSH1 0x40 MLOAD DUP1 SWAP2 SUB SWAP1 KECCAK256 DUP2 PUSH1 0x40 MLOAD PUSH2 0x107C SWAP2 SWAP1 PUSH2 0x37B8 JUMP JUMPDEST SWAP1 DUP2 MSTORE PUSH1 0x40 MLOAD SWAP1 DUP2 SWAP1 SUB PUSH1 0x20 ADD SWAP1 KECCAK256 SLOAD PUSH1 0xFF AND PUSH2 0x10AB JUMPI PUSH1 0x40 MLOAD PUSH3 0x461BCD PUSH1 0xE5 SHL DUP2 MSTORE PUSH1 0x4 ADD PUSH2 0x79F SWAP1 PUSH2 0x37C3 JUMP JUMPDEST PUSH1 0x8 SLOAD PUSH1 0x40 MLOAD PUSH4 0x20884F7 PUSH1 0xE4 SHL DUP2 MSTORE DUP10 SWAP2 PUSH1 0x1 PUSH1 0x1 PUSH1 0xA0 SHL SUB AND SWAP1 PUSH4 0x20884F70 SWAP1 PUSH2 0x10DB SWAP1 DUP5 SWAP1 PUSH1 0x4 ADD PUSH2 0x2FFE JUMP JUMPDEST PUSH0 PUSH1 0x40 MLOAD DUP1 DUP4 SUB DUP2 PUSH0 DUP8 DUP1 EXTCODESIZE ISZERO DUP1 ISZERO PUSH2 0x10F2 JUMPI PUSH0 DUP1 REVERT JUMPDEST POP GAS CALL ISZERO DUP1 ISZERO PUSH2 0x1104 JUMPI RETURNDATASIZE PUSH0 DUP1 RETURNDATACOPY RETURNDATASIZE PUSH0 REVERT JUMPDEST POP POP POP POP PUSH2 0x1110 PUSH2 0x2396 JUMP JUMPDEST DUP5 PUSH1 0x10 DUP11 PUSH1 0x40 MLOAD PUSH2 0x1121 SWAP2 SWAP1 PUSH2 0x37B8 JUMP JUMPDEST SWAP1 DUP2 MSTORE PUSH1 0x20 ADD PUSH1 0x40 MLOAD DUP1 SWAP2 SUB SWAP1 KECCAK256 DUP10 PUSH1 0x40 MLOAD PUSH2 0x113D SWAP2 SWAP1 PUSH2 0x37B8 JUMP JUMPDEST SWAP1 DUP2 MSTORE PUSH1 0x20 ADD PUSH1 0x40 MLOAD DUP1 SWAP2 SUB SWAP1 KECCAK256 DUP9 PUSH1 0x40 MLOAD PUSH2 0x1159 SWAP2 SWAP1 PUSH2 0x37B8 JUMP JUMPDEST SWAP1 DUP2 MSTORE PUSH1 0x20 ADD PUSH1 0x40 MLOAD DUP1 SWAP2 SUB SWAP1 KECCAK256 DUP8 PUSH1 0x40 MLOAD PUSH2 0x1175 SWAP2 SWAP1 PUSH2 0x37B8 JUMP JUMPDEST SWAP1 DUP2 MSTORE PUSH1 0x20 ADD PUSH1 0x40 MLOAD DUP1 SWAP2 SUB SWAP1 KECCAK256 SLOAD LT ISZERO PUSH2 0x11C9 JUMPI PUSH1 0x40 MLOAD PUSH3 0x461BCD PUSH1 0xE5 SHL DUP2 MSTORE PUSH1 0x20 PUSH1 0x4 DUP3 ADD MSTORE PUSH1 0x14 PUSH1 0x24 DUP3 ADD MSTORE PUSH20 0x496E73756666696369656E742062616C616E6365 PUSH1 0x60 SHL PUSH1 0x44 DUP3 ADD MSTORE PUSH1 0x64 ADD PUSH2 0x79F JUMP JUMPDEST DUP5 PUSH1 0x10 DUP11 PUSH1 0x40 MLOAD PUSH2 0x11DA SWAP2 SWAP1 PUSH2 0x37B8 JUMP JUMPDEST SWAP1 DUP2 MSTORE PUSH1 0x20 ADD PUSH1 0x40 MLOAD DUP1 SWAP2 SUB SWAP1 KECCAK256 DUP10 PUSH1 0x40 MLOAD PUSH2 0x11F6 SWAP2 SWAP1 PUSH2 0x37B8 JUMP JUMPDEST SWAP1 DUP2 MSTORE PUSH1 0x20 ADD PUSH1 0x40 MLOAD DUP1 SWAP2 SUB SWAP1 KECCAK256 DUP9 PUSH1 0x40 MLOAD PUSH2 0x1212 SWAP2 SWAP1 PUSH2 0x37B8 JUMP JUMPDEST SWAP1 DUP2 MSTORE PUSH1 0x20 ADD PUSH1 0x40 MLOAD DUP1 SWAP2 SUB SWAP1 KECCAK256 DUP8 PUSH1 0x40 MLOAD PUSH2 0x122E SWAP2 SWAP1 PUSH2 0x37B8 JUMP JUMPDEST SWAP1 DUP2 MSTORE PUSH1 0x20 ADD PUSH1 0x40 MLOAD DUP1 SWAP2 SUB SWAP1 KECCAK256 PUSH0 DUP3 DUP3 SLOAD PUSH2 0x124A SWAP2 SWAP1 PUSH2 0x3916 JUMP JUMPDEST SWAP3 POP POP DUP2 SWAP1 SSTORE POP DUP5 PUSH1 0xA DUP10 PUSH1 0x40 MLOAD PUSH2 0x1262 SWAP2 SWAP1 PUSH2 0x37B8 JUMP JUMPDEST SWAP1 DUP2 MSTORE PUSH1 0x20 ADD PUSH1 0x40 MLOAD DUP1 SWAP2 SUB SWAP1 KECCAK256 DUP9 PUSH1 0x40 MLOAD PUSH2 0x127E SWAP2 SWAP1 PUSH2 0x37B8 JUMP JUMPDEST SWAP1 DUP2 MSTORE PUSH1 0x20 ADD PUSH1 0x40 MLOAD DUP1 SWAP2 SUB SWAP1 KECCAK256 DUP8 PUSH1 0x40 MLOAD PUSH2 0x129A SWAP2 SWAP1 PUSH2 0x37B8 JUMP JUMPDEST SWAP1 DUP2 MSTORE PUSH1 0x20 ADD PUSH1 0x40 MLOAD DUP1 SWAP2 SUB SWAP1 KECCAK256 PUSH1 0x2 ADD PUSH0 DUP3 DUP3 SLOAD PUSH2 0x12B9 SWAP2 SWAP1 PUSH2 0x3929 JUMP JUMPDEST SWAP1 SWAP2 SSTORE POP POP PUSH1 0x8 SLOAD PUSH1 0x40 MLOAD PUSH4 0xF3F9F267 PUSH1 0xE0 SHL DUP2 MSTORE PUSH2 0x133B SWAP2 PUSH1 0x1 PUSH1 0x1 PUSH1 0xA0 SHL SUB AND SWAP1 PUSH4 0xF3F9F267 SWAP1 PUSH2 0x12F0 SWAP1 DUP14 SWAP1 PUSH1 0x4 ADD PUSH2 0x2FFE JUMP JUMPDEST PUSH0 PUSH1 0x40 MLOAD DUP1 DUP4 SUB DUP2 DUP7 GAS STATICCALL ISZERO DUP1 ISZERO PUSH2 0x130A JUMPI RETURNDATASIZE PUSH0 DUP1 RETURNDATACOPY RETURNDATASIZE PUSH0 REVERT JUMPDEST POP POP POP POP PUSH1 0x40 MLOAD RETURNDATASIZE PUSH0 DUP3 RETURNDATACOPY PUSH1 0x1F RETURNDATASIZE SWAP1 DUP2 ADD PUSH1 0x1F NOT AND DUP3 ADD PUSH1 0x40 MSTORE PUSH2 0x1331 SWAP2 SWAP1 DUP2 ADD SWAP1 PUSH2 0x3859 JUMP JUMPDEST PUSH1 0x20 ADD MLOAD DUP7 PUSH2 0x2917 JUMP JUMPDEST DUP9 PUSH1 0x40 MLOAD PUSH2 0x1349 SWAP2 SWAP1 PUSH2 0x37B8 JUMP JUMPDEST PUSH1 0x40 MLOAD DUP1 SWAP2 SUB SWAP1 KECCAK256 PUSH32 0xEE867755DFFCA0E563622713B0165B6D4882FAD3CB3388637B963FC301FE8AF7 DUP10 DUP10 DUP10 DUP10 PUSH1 0x40 MLOAD PUSH2 0x1386 SWAP5 SWAP4 SWAP3 SWAP2 SWAP1 PUSH2 0x3AB3 JUMP JUMPDEST PUSH1 0x40 MLOAD DUP1 SWAP2 SUB SWAP1 LOG2 PUSH2 0x1398 PUSH1 0x1 PUSH1 0x6 SSTORE JUMP JUMPDEST POP POP POP POP POP POP POP POP POP JUMP JUMPDEST PUSH1 0x9 SLOAD PUSH1 0x40 MLOAD PUSH4 0x49E89CC7 PUSH1 0xE1 SHL DUP2 MSTORE CALLER PUSH1 0x4 DUP3 ADD MSTORE PUSH1 0x1 PUSH1 0x1 PUSH1 0xA0 SHL SUB SWAP1 SWAP2 AND SWAP1 PUSH4 0x93D1398E SWAP1 PUSH1 0x24 ADD PUSH1 0x20 PUSH1 0x40 MLOAD DUP1 DUP4 SUB DUP2 DUP7 GAS STATICCALL ISZERO DUP1 ISZERO PUSH2 0x13E9 JUMPI RETURNDATASIZE PUSH0 DUP1 RETURNDATACOPY RETURNDATASIZE PUSH0 REVERT JUMPDEST POP POP POP POP PUSH1 0x40 MLOAD RETURNDATASIZE PUSH1 0x1F NOT PUSH1 0x1F DUP3 ADD AND DUP3 ADD DUP1 PUSH1 0x40 MSTORE POP DUP2 ADD SWAP1 PUSH2 0x140D SWAP2 SWAP1 PUSH2 0x3653 JUMP JUMPDEST PUSH2 0x1429 JUMPI PUSH1 0x40 MLOAD PUSH3 0x461BCD PUSH1 0xE5 SHL DUP2 MSTORE PUSH1 0x4 ADD PUSH2 0x79F SWAP1 PUSH2 0x36A3 JUMP JUMPDEST DUP2 PUSH1 0xB DUP2 PUSH1 0x40 MLOAD PUSH2 0x143A SWAP2 SWAP1 PUSH2 0x37B8 JUMP JUMPDEST SWAP1 DUP2 MSTORE PUSH1 0x40 MLOAD SWAP1 DUP2 SWAP1 SUB PUSH1 0x20 ADD SWAP1 KECCAK256 SLOAD PUSH1 0xFF AND PUSH2 0x1499 JUMPI PUSH1 0x40 MLOAD PUSH3 0x461BCD PUSH1 0xE5 SHL DUP2 MSTORE PUSH1 0x20 PUSH1 0x4 DUP3 ADD MSTORE PUSH1 0x17 PUSH1 0x24 DUP3 ADD MSTORE PUSH32 0x50726F6475636572206E6F742072656769737465726564000000000000000000 PUSH1 0x44 DUP3 ADD MSTORE PUSH1 0x64 ADD PUSH2 0x79F JUMP JUMPDEST PUSH0 PUSH2 0x14A3 DUP4 PUSH2 0x2787 JUMP JUMPDEST SWAP1 POP PUSH1 0xC DUP5 PUSH1 0x40 MLOAD PUSH2 0x14B5 SWAP2 SWAP1 PUSH2 0x37B8 JUMP JUMPDEST SWAP1 DUP2 MSTORE PUSH1 0x20 ADD PUSH1 0x40 MLOAD DUP1 SWAP2 SUB SWAP1 KECCAK256 DUP2 PUSH1 0x40 MLOAD PUSH2 0x14D1 SWAP2 SWAP1 PUSH2 0x37B8 JUMP JUMPDEST SWAP1 DUP2 MSTORE PUSH1 0x40 MLOAD SWAP1 DUP2 SWAP1 SUB PUSH1 0x20 ADD SWAP1 KECCAK256 SLOAD PUSH1 0xFF AND ISZERO PUSH2 0x1547 JUMPI PUSH1 0x40 MLOAD PUSH3 0x461BCD PUSH1 0xE5 SHL DUP2 MSTORE PUSH1 0x20 PUSH1 0x4 DUP3 ADD MSTORE PUSH1 0x2D PUSH1 0x24 DUP3 ADD MSTORE PUSH32 0x566572696669657220616C7265616479207265676973746572656420666F7220 PUSH1 0x44 DUP3 ADD MSTORE PUSH13 0x3A3434B990383937B23AB1B2B9 PUSH1 0x99 SHL PUSH1 0x64 DUP3 ADD MSTORE PUSH1 0x84 ADD PUSH2 0x79F JUMP JUMPDEST PUSH1 0x1 PUSH1 0xC DUP6 PUSH1 0x40 MLOAD PUSH2 0x1559 SWAP2 SWAP1 PUSH2 0x37B8 JUMP JUMPDEST SWAP1 DUP2 MSTORE PUSH1 0x20 ADD PUSH1 0x40 MLOAD DUP1 SWAP2 SUB SWAP1 KECCAK256 DUP3 PUSH1 0x40 MLOAD PUSH2 0x1575 SWAP2 SWAP1 PUSH2 0x37B8 JUMP JUMPDEST SWAP1 DUP2 MSTORE PUSH1 0x40 MLOAD SWAP1 DUP2 SWAP1 SUB PUSH1 0x20 ADD DUP2 KECCAK256 DUP1 SLOAD SWAP3 ISZERO ISZERO PUSH1 0xFF NOT SWAP1 SWAP4 AND SWAP3 SWAP1 SWAP3 OR SWAP1 SWAP2 SSTORE PUSH1 0xD SWAP1 PUSH2 0x15A4 SWAP1 DUP7 SWAP1 PUSH2 0x37B8 JUMP JUMPDEST SWAP1 DUP2 MSTORE PUSH1 0x40 MLOAD PUSH1 0x20 SWAP2 DUP2 SWAP1 SUB DUP3 ADD SWAP1 KECCAK256 DUP1 SLOAD PUSH1 0x1 DUP2 ADD DUP3 SSTORE PUSH0 SWAP2 DUP3 MSTORE SWAP2 SWAP1 KECCAK256 ADD PUSH2 0x15CE DUP3 DUP3 PUSH2 0x39F4 JUMP JUMPDEST POP POP POP POP POP JUMP JUMPDEST PUSH1 0x60 PUSH1 0x4 DUP1 SLOAD PUSH2 0x65A SWAP1 PUSH2 0x3607 JUMP JUMPDEST PUSH1 0x9 SLOAD PUSH1 0x40 MLOAD PUSH4 0x42282D95 PUSH1 0xE0 SHL DUP2 MSTORE CALLER PUSH1 0x4 DUP3 ADD MSTORE PUSH1 0x1 PUSH1 0x1 PUSH1 0xA0 SHL SUB SWAP1 SWAP2 AND SWAP1 PUSH4 0x42282D95 SWAP1 PUSH1 0x24 ADD PUSH1 0x20 PUSH1 0x40 MLOAD DUP1 DUP4 SUB DUP2 DUP7 GAS STATICCALL ISZERO DUP1 ISZERO PUSH2 0x162A JUMPI RETURNDATASIZE PUSH0 DUP1 RETURNDATACOPY RETURNDATASIZE PUSH0 REVERT JUMPDEST POP POP POP POP PUSH1 0x40 MLOAD RETURNDATASIZE PUSH1 0x1F NOT PUSH1 0x1F DUP3 ADD AND DUP3 ADD DUP1 PUSH1 0x40 MSTORE POP DUP2 ADD SWAP1 PUSH2 0x164E SWAP2 SWAP1 PUSH2 0x3653 JUMP JUMPDEST PUSH2 0x166A JUMPI PUSH1 0x40 MLOAD PUSH3 0x461BCD PUSH1 0xE5 SHL DUP2 MSTORE PUSH1 0x4 ADD PUSH2 0x79F SWAP1 PUSH2 0x366C JUMP JUMPDEST PUSH3 0x278D00 DUP2 LT ISZERO PUSH2 0x16B2 JUMPI PUSH1 0x40 MLOAD PUSH3 0x461BCD PUSH1 0xE5 SHL DUP2 MSTORE PUSH1 0x20 PUSH1 0x4 DUP3 ADD MSTORE PUSH1 0x12 PUSH1 0x24 DUP3 ADD MSTORE PUSH18 0x111D5C985D1A5BDB881D1BDBC81CDA1BDC9D PUSH1 0x72 SHL PUSH1 0x44 DUP3 ADD MSTORE PUSH1 0x64 ADD PUSH2 0x79F JUMP JUMPDEST PUSH1 0x15 SSTORE JUMP JUMPDEST PUSH0 CALLER PUSH2 0x6E8 DUP2 DUP6 DUP6 PUSH2 0x22E7 JUMP JUMPDEST PUSH1 0x9 SLOAD PUSH1 0x40 MLOAD PUSH4 0x49E89CC7 PUSH1 0xE1 SHL DUP2 MSTORE CALLER PUSH1 0x4 DUP3 ADD MSTORE PUSH0 SWAP2 PUSH1 0x1 PUSH1 0x1 PUSH1 0xA0 SHL SUB AND SWAP1 PUSH4 0x93D1398E SWAP1 PUSH1 0x24 ADD PUSH1 0x20 PUSH1 0x40 MLOAD DUP1 DUP4 SUB DUP2 DUP7 GAS STATICCALL ISZERO DUP1 ISZERO PUSH2 0x170A JUMPI RETURNDATASIZE PUSH0 DUP1 RETURNDATACOPY RETURNDATASIZE PUSH0 REVERT JUMPDEST POP POP POP POP PUSH1 0x40 MLOAD RETURNDATASIZE PUSH1 0x1F NOT PUSH1 0x1F DUP3 ADD AND DUP3 ADD DUP1 PUSH1 0x40 MSTORE POP DUP2 ADD SWAP1 PUSH2 0x172E SWAP2 SWAP1 PUSH2 0x3653 JUMP JUMPDEST PUSH2 0x174A JUMPI PUSH1 0x40 MLOAD PUSH3 0x461BCD PUSH1 0xE5 SHL DUP2 MSTORE PUSH1 0x4 ADD PUSH2 0x79F SWAP1 PUSH2 0x36A3 JUMP JUMPDEST PUSH1 0x8 SLOAD PUSH1 0x40 MLOAD PUSH4 0x518AB27B PUSH1 0xE0 SHL DUP2 MSTORE DUP9 SWAP2 PUSH1 0x1 PUSH1 0x1 PUSH1 0xA0 SHL SUB AND SWAP1 PUSH4 0x518AB27B SWAP1 PUSH2 0x177A SWAP1 DUP5 SWAP1 PUSH1 0x4 ADD PUSH2 0x2FFE JUMP JUMPDEST PUSH1 0x20 PUSH1 0x40 MLOAD DUP1 DUP4 SUB DUP2 DUP7 GAS STATICCALL ISZERO DUP1 ISZERO PUSH2 0x1795 JUMPI RETURNDATASIZE PUSH0 DUP1 RETURNDATACOPY RETURNDATASIZE PUSH0 REVERT JUMPDEST POP POP POP POP PUSH1 0x40 MLOAD RETURNDATASIZE PUSH1 0x1F NOT PUSH1 0x1F DUP3 ADD AND DUP3 ADD DUP1 PUSH1 0x40 MSTORE POP DUP2 ADD SWAP1 PUSH2 0x17B9 SWAP2 SWAP1 PUSH2 0x3653 JUMP JUMPDEST PUSH2 0x17D5 JUMPI PUSH1 0x40 MLOAD PUSH3 0x461BCD PUSH1 0xE5 SHL DUP2 MSTORE PUSH1 0x4 ADD PUSH2 0x79F SWAP1 PUSH2 0x36EE JUMP JUMPDEST PUSH1 0x8 SLOAD PUSH1 0x40 MLOAD PUSH4 0xA8B07735 PUSH1 0xE0 SHL DUP2 MSTORE DUP10 SWAP2 PUSH32 0x8EB467F061CA67F42A2D2CA4A346FC9FB645EFC0BA75056EE9F71C3A0CCC10A8 SWAP2 PUSH1 0x1 PUSH1 0x1 PUSH1 0xA0 SHL SUB SWAP1 SWAP2 AND SWAP1 PUSH4 0xA8B07735 SWAP1 PUSH2 0x182B SWAP1 DUP6 SWAP1 DUP6 SWAP1 PUSH1 0x4 ADD PUSH2 0x3736 JUMP JUMPDEST PUSH1 0x20 PUSH1 0x40 MLOAD DUP1 DUP4 SUB DUP2 DUP7 GAS STATICCALL ISZERO DUP1 ISZERO PUSH2 0x1846 JUMPI RETURNDATASIZE PUSH0 DUP1 RETURNDATACOPY RETURNDATASIZE PUSH0 REVERT JUMPDEST POP POP POP POP PUSH1 0x40 MLOAD RETURNDATASIZE PUSH1 0x1F NOT PUSH1 0x1F DUP3 ADD AND DUP3 ADD DUP1 PUSH1 0x40 MSTORE POP DUP2 ADD SWAP1 PUSH2 0x186A SWAP2 SWAP1 PUSH2 0x3653 JUMP JUMPDEST PUSH2 0x1886 JUMPI PUSH1 0x40 MLOAD PUSH3 0x461BCD PUSH1 0xE5 SHL DUP2 MSTORE PUSH1 0x4 ADD PUSH2 0x79F SWAP1 PUSH2 0x3757 JUMP JUMPDEST DUP8 DUP8 PUSH1 0xC DUP3 PUSH1 0x40 MLOAD PUSH2 0x1898 SWAP2 SWAP1 PUSH2 0x37B8 JUMP JUMPDEST SWAP1 DUP2 MSTORE PUSH1 0x20 ADD PUSH1 0x40 MLOAD DUP1 SWAP2 SUB SWAP1 KECCAK256 DUP2 PUSH1 0x40 MLOAD PUSH2 0x18B4 SWAP2 SWAP1 PUSH2 0x37B8 JUMP JUMPDEST SWAP1 DUP2 MSTORE PUSH1 0x40 MLOAD SWAP1 DUP2 SWAP1 SUB PUSH1 0x20 ADD SWAP1 KECCAK256 SLOAD PUSH1 0xFF AND PUSH2 0x18E3 JUMPI PUSH1 0x40 MLOAD PUSH3 0x461BCD PUSH1 0xE5 SHL DUP2 MSTORE PUSH1 0x4 ADD PUSH2 0x79F SWAP1 PUSH2 0x37C3 JUMP JUMPDEST PUSH1 0x8 SLOAD PUSH1 0x40 MLOAD PUSH4 0x20884F7 PUSH1 0xE4 SHL DUP2 MSTORE DUP14 SWAP2 PUSH1 0x1 PUSH1 0x1 PUSH1 0xA0 SHL SUB AND SWAP1 PUSH4 0x20884F70 SWAP1 PUSH2 0x1913 SWAP1 DUP5 SWAP1 PUSH1 0x4 ADD PUSH2 0x2FFE JUMP JUMPDEST PUSH0 PUSH1 0x40 MLOAD DUP1 DUP4 SUB DUP2 PUSH0 DUP8 DUP1 EXTCODESIZE ISZERO DUP1 ISZERO PUSH2 0x192A JUMPI PUSH0 DUP1 REVERT JUMPDEST POP GAS CALL ISZERO DUP1 ISZERO PUSH2 0x193C JUMPI RETURNDATASIZE PUSH0 DUP1 RETURNDATACOPY RETURNDATASIZE PUSH0 REVERT JUMPDEST POP POP POP POP PUSH2 0x194A DUP14 DUP14 PUSH2 0x294B JUMP JUMPDEST PUSH2 0x1996 JUMPI PUSH1 0x40 MLOAD PUSH3 0x461BCD PUSH1 0xE5 SHL DUP2 MSTORE PUSH1 0x20 PUSH1 0x4 DUP3 ADD MSTORE PUSH1 0x1B PUSH1 0x24 DUP3 ADD MSTORE PUSH32 0x53656E64657220646F6573206E6F74206F776E20746865204E46540000000000 PUSH1 0x44 DUP3 ADD MSTORE PUSH1 0x64 ADD PUSH2 0x79F JUMP JUMPDEST PUSH2 0x19A0 DUP13 DUP11 PUSH2 0x2A40 JUMP JUMPDEST PUSH2 0x19F8 JUMPI PUSH1 0x40 MLOAD PUSH3 0x461BCD PUSH1 0xE5 SHL DUP2 MSTORE PUSH1 0x20 PUSH1 0x4 DUP3 ADD MSTORE PUSH1 0x23 PUSH1 0x24 DUP3 ADD MSTORE PUSH32 0x4372656469742074797065206E6F7420616C6C6F776564206279207468697320 PUSH1 0x44 DUP3 ADD MSTORE PUSH3 0x139195 PUSH1 0xEA SHL PUSH1 0x64 DUP3 ADD MSTORE PUSH1 0x84 ADD PUSH2 0x79F JUMP JUMPDEST PUSH1 0x7 SLOAD PUSH1 0x40 MLOAD PUSH4 0x736DEA81 PUSH1 0xE0 SHL DUP2 MSTORE PUSH1 0x1 PUSH1 0x1 PUSH1 0xA0 SHL SUB SWAP1 SWAP2 AND SWAP1 PUSH4 0x736DEA81 SWAP1 PUSH2 0x1A2A SWAP1 DUP16 SWAP1 DUP14 SWAP1 PUSH1 0x4 ADD PUSH2 0x3AFD JUMP JUMPDEST PUSH1 0x20 PUSH1 0x40 MLOAD DUP1 DUP4 SUB DUP2 DUP7 GAS STATICCALL ISZERO DUP1 ISZERO PUSH2 0x1A45 JUMPI RETURNDATASIZE PUSH0 DUP1 RETURNDATACOPY RETURNDATASIZE PUSH0 REVERT JUMPDEST POP POP POP POP PUSH1 0x40 MLOAD RETURNDATASIZE PUSH1 0x1F NOT PUSH1 0x1F DUP3 ADD AND DUP3 ADD DUP1 PUSH1 0x40 MSTORE POP DUP2 ADD SWAP1 PUSH2 0x1A69 SWAP2 SWAP1 PUSH2 0x3B15 JUMP JUMPDEST DUP9 GT ISZERO PUSH2 0x1AB8 JUMPI PUSH1 0x40 MLOAD PUSH3 0x461BCD PUSH1 0xE5 SHL DUP2 MSTORE PUSH1 0x20 PUSH1 0x4 DUP3 ADD MSTORE PUSH1 0x1C PUSH1 0x24 DUP3 ADD MSTORE PUSH32 0x4578636565647320616C6C6F77656420737570706C79206C696D697400000000 PUSH1 0x44 DUP3 ADD MSTORE PUSH1 0x64 ADD PUSH2 0x79F JUMP JUMPDEST PUSH2 0x1AC2 ADDRESS DUP10 PUSH2 0x2B47 JUMP JUMPDEST PUSH0 PUSH1 0xA DUP13 PUSH1 0x40 MLOAD PUSH2 0x1AD3 SWAP2 SWAP1 PUSH2 0x37B8 JUMP JUMPDEST SWAP1 DUP2 MSTORE PUSH1 0x20 ADD PUSH1 0x40 MLOAD DUP1 SWAP2 SUB SWAP1 KECCAK256 DUP12 PUSH1 0x40 MLOAD PUSH2 0x1AEF SWAP2 SWAP1 PUSH2 0x37B8 JUMP JUMPDEST SWAP1 DUP2 MSTORE PUSH1 0x20 ADD PUSH1 0x40 MLOAD DUP1 SWAP2 SUB SWAP1 KECCAK256 DUP11 PUSH1 0x40 MLOAD PUSH2 0x1B0B SWAP2 SWAP1 PUSH2 0x37B8 JUMP JUMPDEST SWAP1 DUP2 MSTORE PUSH1 0x20 ADD PUSH1 0x40 MLOAD DUP1 SWAP2 SUB SWAP1 KECCAK256 SWAP1 POP DUP9 DUP2 PUSH0 ADD PUSH0 DUP3 DUP3 SLOAD PUSH2 0x1B2D SWAP2 SWAP1 PUSH2 0x3929 JUMP JUMPDEST SWAP3 POP POP DUP2 SWAP1 SSTORE POP DUP9 DUP2 PUSH1 0x1 ADD PUSH0 DUP3 DUP3 SLOAD PUSH2 0x1B47 SWAP2 SWAP1 PUSH2 0x3929 JUMP JUMPDEST SWAP1 SWAP2 SSTORE POP POP PUSH1 0x40 MLOAD PUSH2 0x1B5A SWAP1 DUP14 SWAP1 PUSH2 0x37B8 JUMP JUMPDEST PUSH1 0x40 MLOAD DUP1 SWAP2 SUB SWAP1 KECCAK256 PUSH32 0x318E492117AB4B619BBBD70FB86784A5ED13C9AA0F9CE45434CD4FC9B28A60BD DUP13 DUP13 DUP13 PUSH1 0x40 MLOAD PUSH2 0x1B95 SWAP4 SWAP3 SWAP2 SWAP1 PUSH2 0x3B2C JUMP JUMPDEST PUSH1 0x40 MLOAD DUP1 SWAP2 SUB SWAP1 LOG2 POP PUSH1 0x1 SWAP14 SWAP13 POP POP POP POP POP POP POP POP POP POP POP POP POP JUMP JUMPDEST PUSH1 0x9 SLOAD PUSH1 0x40 MLOAD PUSH4 0x49E89CC7 PUSH1 0xE1 SHL DUP2 MSTORE CALLER PUSH1 0x4 DUP3 ADD MSTORE PUSH1 0x1 PUSH1 0x1 PUSH1 0xA0 SHL SUB SWAP1 SWAP2 AND SWAP1 PUSH4 0x93D1398E SWAP1 PUSH1 0x24 ADD PUSH1 0x20 PUSH1 0x40 MLOAD DUP1 DUP4 SUB DUP2 DUP7 GAS STATICCALL ISZERO DUP1 ISZERO PUSH2 0x1BF7 JUMPI RETURNDATASIZE PUSH0 DUP1 RETURNDATACOPY RETURNDATASIZE PUSH0 REVERT JUMPDEST POP POP POP POP PUSH1 0x40 MLOAD RETURNDATASIZE PUSH1 0x1F NOT PUSH1 0x1F DUP3 ADD AND DUP3 ADD DUP1 PUSH1 0x40 MSTORE POP DUP2 ADD SWAP1 PUSH2 0x1C1B SWAP2 SWAP1 PUSH2 0x3653 JUMP JUMPDEST PUSH2 0x1C37 JUMPI PUSH1 0x40 MLOAD PUSH3 0x461BCD PUSH1 0xE5 SHL DUP2 MSTORE PUSH1 0x4 ADD PUSH2 0x79F SWAP1 PUSH2 0x36A3 JUMP JUMPDEST PUSH1 0x8 SLOAD PUSH1 0x40 MLOAD PUSH4 0x518AB27B PUSH1 0xE0 SHL DUP2 MSTORE DUP9 SWAP2 PUSH1 0x1 PUSH1 0x1 PUSH1 0xA0 SHL SUB AND SWAP1 PUSH4 0x518AB27B SWAP1 PUSH2 0x1C67 SWAP1 DUP5 SWAP1 PUSH1 0x4 ADD PUSH2 0x2FFE JUMP JUMPDEST PUSH1 0x20 PUSH1 0x40 MLOAD DUP1 DUP4 SUB DUP2 DUP7 GAS STATICCALL ISZERO DUP1 ISZERO PUSH2 0x1C82 JUMPI RETURNDATASIZE PUSH0 DUP1 RETURNDATACOPY RETURNDATASIZE PUSH0 REVERT JUMPDEST POP POP POP POP PUSH1 0x40 MLOAD RETURNDATASIZE PUSH1 0x1F NOT PUSH1 0x1F DUP3 ADD AND DUP3 ADD DUP1 PUSH1 0x40 MSTORE POP DUP2 ADD SWAP1 PUSH2 0x1CA6 SWAP2 SWAP1 PUSH2 0x3653 JUMP JUMPDEST PUSH2 0x1CC2 JUMPI PUSH1 0x40 MLOAD PUSH3 0x461BCD PUSH1 0xE5 SHL DUP2 MSTORE PUSH1 0x4 ADD PUSH2 0x79F SWAP1 PUSH2 0x36EE JUMP JUMPDEST PUSH1 0x8 SLOAD PUSH1 0x40 MLOAD PUSH4 0x518AB27B PUSH1 0xE0 SHL DUP2 MSTORE DUP9 SWAP2 PUSH1 0x1 PUSH1 0x1 PUSH1 0xA0 SHL SUB AND SWAP1 PUSH4 0x518AB27B SWAP1 PUSH2 0x1CF2 SWAP1 DUP5 SWAP1 PUSH1 0x4 ADD PUSH2 0x2FFE JUMP JUMPDEST PUSH1 0x20 PUSH1 0x40 MLOAD DUP1 DUP4 SUB DUP2 DUP7 GAS STATICCALL ISZERO DUP1 ISZERO PUSH2 0x1D0D JUMPI RETURNDATASIZE PUSH0 DUP1 RETURNDATACOPY RETURNDATASIZE PUSH0 REVERT JUMPDEST POP POP POP POP PUSH1 0x40 MLOAD RETURNDATASIZE PUSH1 0x1F NOT PUSH1 0x1F DUP3 ADD AND DUP3 ADD DUP1 PUSH1 0x40 MSTORE POP DUP2 ADD SWAP1 PUSH2 0x1D31 SWAP2 SWAP1 PUSH2 0x3653 JUMP JUMPDEST PUSH2 0x1D4D JUMPI PUSH1 0x40 MLOAD PUSH3 0x461BCD PUSH1 0xE5 SHL DUP2 MSTORE PUSH1 0x4 ADD PUSH2 0x79F SWAP1 PUSH2 0x36EE JUMP JUMPDEST DUP7 DUP7 PUSH1 0xC DUP3 PUSH1 0x40 MLOAD PUSH2 0x1D5F SWAP2 SWAP1 PUSH2 0x37B8 JUMP JUMPDEST SWAP1 DUP2 MSTORE PUSH1 0x20 ADD PUSH1 0x40 MLOAD DUP1 SWAP2 SUB SWAP1 KECCAK256 DUP2 PUSH1 0x40 MLOAD PUSH2 0x1D7B SWAP2 SWAP1 PUSH2 0x37B8 JUMP JUMPDEST SWAP1 DUP2 MSTORE PUSH1 0x40 MLOAD SWAP1 DUP2 SWAP1 SUB PUSH1 0x20 ADD SWAP1 KECCAK256 SLOAD PUSH1 0xFF AND PUSH2 0x1DAA JUMPI PUSH1 0x40 MLOAD PUSH3 0x461BCD PUSH1 0xE5 SHL DUP2 MSTORE PUSH1 0x4 ADD PUSH2 0x79F SWAP1 PUSH2 0x37C3 JUMP JUMPDEST PUSH1 0x8 SLOAD PUSH1 0x40 MLOAD PUSH4 0x20884F7 PUSH1 0xE4 SHL DUP2 MSTORE DUP13 SWAP2 PUSH1 0x1 PUSH1 0x1 PUSH1 0xA0 SHL SUB AND SWAP1 PUSH4 0x20884F70 SWAP1 PUSH2 0x1DDA SWAP1 DUP5 SWAP1 PUSH1 0x4 ADD PUSH2 0x2FFE JUMP JUMPDEST PUSH0 PUSH1 0x40 MLOAD DUP1 DUP4 SUB DUP2 PUSH0 DUP8 DUP1 EXTCODESIZE ISZERO DUP1 ISZERO PUSH2 0x1DF1 JUMPI PUSH0 DUP1 REVERT JUMPDEST POP GAS CALL ISZERO DUP1 ISZERO PUSH2 0x1E03 JUMPI RETURNDATASIZE PUSH0 DUP1 RETURNDATACOPY RETURNDATASIZE PUSH0 REVERT JUMPDEST POP POP POP POP PUSH2 0x1E0F PUSH2 0x2396 JUMP JUMPDEST DUP7 PUSH1 0x10 DUP14 PUSH1 0x40 MLOAD PUSH2 0x1E20 SWAP2 SWAP1 PUSH2 0x37B8 JUMP JUMPDEST SWAP1 DUP2 MSTORE PUSH1 0x20 ADD PUSH1 0x40 MLOAD DUP1 SWAP2 SUB SWAP1 KECCAK256 DUP12 PUSH1 0x40 MLOAD PUSH2 0x1E3C SWAP2 SWAP1 PUSH2 0x37B8 JUMP JUMPDEST SWAP1 DUP2 MSTORE PUSH1 0x20 ADD PUSH1 0x40 MLOAD DUP1 SWAP2 SUB SWAP1 KECCAK256 DUP11 PUSH1 0x40 MLOAD PUSH2 0x1E58 SWAP2 SWAP1 PUSH2 0x37B8 JUMP JUMPDEST SWAP1 DUP2 MSTORE PUSH1 0x20 ADD PUSH1 0x40 MLOAD DUP1 SWAP2 SUB SWAP1 KECCAK256 DUP10 PUSH1 0x40 MLOAD PUSH2 0x1E74 SWAP2 SWAP1 PUSH2 0x37B8 JUMP JUMPDEST SWAP1 DUP2 MSTORE PUSH1 0x20 ADD PUSH1 0x40 MLOAD DUP1 SWAP2 SUB SWAP1 KECCAK256 SLOAD LT ISZERO PUSH2 0x1EC8 JUMPI PUSH1 0x40 MLOAD PUSH3 0x461BCD PUSH1 0xE5 SHL DUP2 MSTORE PUSH1 0x20 PUSH1 0x4 DUP3 ADD MSTORE PUSH1 0x14 PUSH1 0x24 DUP3 ADD MSTORE PUSH20 0x496E73756666696369656E742062616C616E6365 PUSH1 0x60 SHL PUSH1 0x44 DUP3 ADD MSTORE PUSH1 0x64 ADD PUSH2 0x79F JUMP JUMPDEST DUP7 PUSH1 0x10 DUP14 PUSH1 0x40 MLOAD PUSH2 0x1ED9 SWAP2 SWAP1 PUSH2 0x37B8 JUMP JUMPDEST SWAP1 DUP2 MSTORE PUSH1 0x20 ADD PUSH1 0x40 MLOAD DUP1 SWAP2 SUB SWAP1 KECCAK256 DUP12 PUSH1 0x40 MLOAD PUSH2 0x1EF5 SWAP2 SWAP1 PUSH2 0x37B8 JUMP JUMPDEST SWAP1 DUP2 MSTORE PUSH1 0x20 ADD PUSH1 0x40 MLOAD DUP1 SWAP2 SUB SWAP1 KECCAK256 DUP11 PUSH1 0x40 MLOAD PUSH2 0x1F11 SWAP2 SWAP1 PUSH2 0x37B8 JUMP JUMPDEST SWAP1 DUP2 MSTORE PUSH1 0x20 ADD PUSH1 0x40 MLOAD DUP1 SWAP2 SUB SWAP1 KECCAK256 DUP10 PUSH1 0x40 MLOAD PUSH2 0x1F2D SWAP2 SWAP1 PUSH2 0x37B8 JUMP JUMPDEST SWAP1 DUP2 MSTORE PUSH1 0x20 ADD PUSH1 0x40 MLOAD DUP1 SWAP2 SUB SWAP1 KECCAK256 PUSH0 DUP3 DUP3 SLOAD PUSH2 0x1F49 SWAP2 SWAP1 PUSH2 0x3916 JUMP JUMPDEST SWAP3 POP POP DUP2 SWAP1 SSTORE POP DUP7 PUSH1 0x10 DUP13 PUSH1 0x40 MLOAD PUSH2 0x1F61 SWAP2 SWAP1 PUSH2 0x37B8 JUMP JUMPDEST SWAP1 DUP2 MSTORE PUSH1 0x20 ADD PUSH1 0x40 MLOAD DUP1 SWAP2 SUB SWAP1 KECCAK256 DUP12 PUSH1 0x40 MLOAD PUSH2 0x1F7D SWAP2 SWAP1 PUSH2 0x37B8 JUMP JUMPDEST SWAP1 DUP2 MSTORE PUSH1 0x20 ADD PUSH1 0x40 MLOAD DUP1 SWAP2 SUB SWAP1 KECCAK256 DUP11 PUSH1 0x40 MLOAD PUSH2 0x1F99 SWAP2 SWAP1 PUSH2 0x37B8 JUMP JUMPDEST SWAP1 DUP2 MSTORE PUSH1 0x20 ADD PUSH1 0x40 MLOAD DUP1 SWAP2 SUB SWAP1 KECCAK256 DUP10 PUSH1 0x40 MLOAD PUSH2 0x1FB5 SWAP2 SWAP1 PUSH2 0x37B8 JUMP JUMPDEST SWAP1 DUP2 MSTORE PUSH1 0x20 ADD PUSH1 0x40 MLOAD DUP1 SWAP2 SUB SWAP1 KECCAK256 PUSH0 DUP3 DUP3 SLOAD PUSH2 0x1FD1 SWAP2 SWAP1 PUSH2 0x3929 JUMP JUMPDEST SWAP3 POP POP DUP2 SWAP1 SSTORE POP PUSH2 0x20A0 PUSH1 0x8 PUSH0 SWAP1 SLOAD SWAP1 PUSH2 0x100 EXP SWAP1 DIV PUSH1 0x1 PUSH1 0x1 PUSH1 0xA0 SHL SUB AND PUSH1 0x1 PUSH1 0x1 PUSH1 0xA0 SHL SUB AND PUSH4 0xF3F9F267 DUP15 PUSH1 0x40 MLOAD DUP3 PUSH4 0xFFFFFFFF AND PUSH1 0xE0 SHL DUP2 MSTORE PUSH1 0x4 ADD PUSH2 0x201B SWAP2 SWAP1 PUSH2 0x2FFE JUMP JUMPDEST PUSH0 PUSH1 0x40 MLOAD DUP1 DUP4 SUB DUP2 DUP7 GAS STATICCALL ISZERO DUP1 ISZERO PUSH2 0x2035 JUMPI RETURNDATASIZE PUSH0 DUP1 RETURNDATACOPY RETURNDATASIZE PUSH0 REVERT JUMPDEST POP POP POP POP PUSH1 0x40 MLOAD RETURNDATASIZE PUSH0 DUP3 RETURNDATACOPY PUSH1 0x1F RETURNDATASIZE SWAP1 DUP2 ADD PUSH1 0x1F NOT AND DUP3 ADD PUSH1 0x40 MSTORE PUSH2 0x205C SWAP2 SWAP1 DUP2 ADD SWAP1 PUSH2 0x3859 JUMP JUMPDEST PUSH1 0x20 ADD MLOAD PUSH1 0x8 PUSH0 SWAP1 SLOAD SWAP1 PUSH2 0x100 EXP SWAP1 DIV PUSH1 0x1 PUSH1 0x1 PUSH1 0xA0 SHL SUB AND PUSH1 0x1 PUSH1 0x1 PUSH1 0xA0 SHL SUB AND PUSH4 0xF3F9F267 DUP15 PUSH1 0x40 MLOAD DUP3 PUSH4 0xFFFFFFFF AND PUSH1 0xE0 SHL DUP2 MSTORE PUSH1 0x4 ADD PUSH2 0xB83 SWAP2 SWAP1 PUSH2 0x2FFE JUMP JUMPDEST PUSH2 0x20AE DUP12 DUP12 DUP12 DUP12 DUP12 DUP12 PUSH2 0x23EF JUMP JUMPDEST DUP12 PUSH1 0x40 MLOAD PUSH2 0x20BC SWAP2 SWAP1 PUSH2 0x37B8 JUMP JUMPDEST PUSH1 0x40 MLOAD DUP1 SWAP2 SUB SWAP1 KECCAK256 PUSH32 0xA9D0859125D9E78ECFEB1193258EAA45094480969781C169C2653E86058056F7 DUP13 DUP13 DUP13 DUP13 DUP13 DUP13 PUSH1 0x40 MLOAD PUSH2 0x20FD SWAP7 SWAP6 SWAP5 SWAP4 SWAP3 SWAP2 SWAP1 PUSH2 0x3B61 JUMP JUMPDEST PUSH1 0x40 MLOAD DUP1 SWAP2 SUB SWAP1 LOG2 PUSH2 0x210F PUSH1 0x1 PUSH1 0x6 SSTORE JUMP JUMPDEST POP POP POP POP POP POP POP POP POP POP POP POP JUMP JUMPDEST PUSH32 0xF0C57E16840DF040F15088DC2F81FE391C3923BEC73E23A9662EFC9C229C6A00 DUP1 SLOAD PUSH1 0x1 PUSH1 0x40 SHL DUP2 DIV PUSH1 0xFF AND ISZERO SWAP1 PUSH1 0x1 PUSH1 0x1 PUSH1 0x40 SHL SUB AND PUSH0 DUP2 ISZERO DUP1 ISZERO PUSH2 0x2161 JUMPI POP DUP3 JUMPDEST SWAP1 POP PUSH0 DUP3 PUSH1 0x1 PUSH1 0x1 PUSH1 0x40 SHL SUB AND PUSH1 0x1 EQ DUP1 ISZERO PUSH2 0x217C JUMPI POP ADDRESS EXTCODESIZE ISZERO JUMPDEST SWAP1 POP DUP2 ISZERO DUP1 ISZERO PUSH2 0x218A JUMPI POP DUP1 ISZERO JUMPDEST ISZERO PUSH2 0x21A8 JUMPI PUSH1 0x40 MLOAD PUSH4 0xF92EE8A9 PUSH1 0xE0 SHL DUP2 MSTORE PUSH1 0x4 ADD PUSH1 0x40 MLOAD DUP1 SWAP2 SUB SWAP1 REVERT JUMPDEST DUP5 SLOAD PUSH8 0xFFFFFFFFFFFFFFFF NOT AND PUSH1 0x1 OR DUP6 SSTORE DUP4 ISZERO PUSH2 0x21D2 JUMPI DUP5 SLOAD PUSH1 0xFF PUSH1 0x40 SHL NOT AND PUSH1 0x1 PUSH1 0x40 SHL OR DUP6 SSTORE JUMPDEST PUSH1 0x7 DUP1 SLOAD PUSH1 0x1 PUSH1 0x1 PUSH1 0xA0 SHL SUB DUP1 DUP12 AND PUSH1 0x1 PUSH1 0x1 PUSH1 0xA0 SHL SUB NOT SWAP3 DUP4 AND OR SWAP1 SWAP3 SSTORE PUSH1 0x9 DUP1 SLOAD DUP10 DUP5 AND SWAP1 DUP4 AND OR SWAP1 SSTORE PUSH1 0x8 DUP1 SLOAD SWAP3 DUP11 AND SWAP3 SWAP1 SWAP2 AND SWAP2 SWAP1 SWAP2 OR SWAP1 SSTORE DUP4 ISZERO PUSH2 0x2255 JUMPI DUP5 SLOAD PUSH1 0xFF PUSH1 0x40 SHL NOT AND DUP6 SSTORE PUSH1 0x40 MLOAD PUSH1 0x1 DUP2 MSTORE PUSH32 0xC7F505B2F371AE2175EE4913F4499E1F2633A7B5936321EED1CDAEB6115181D2 SWAP1 PUSH1 0x20 ADD PUSH1 0x40 MLOAD DUP1 SWAP2 SUB SWAP1 LOG1 JUMPDEST POP POP POP POP POP POP POP POP JUMP JUMPDEST PUSH2 0xEAA DUP4 DUP4 DUP4 PUSH1 0x1 PUSH2 0x2B7B JUMP JUMPDEST PUSH1 0x1 PUSH1 0x1 PUSH1 0xA0 SHL SUB DUP4 DUP2 AND PUSH0 SWAP1 DUP2 MSTORE PUSH1 0x1 PUSH1 0x20 SWAP1 DUP2 MSTORE PUSH1 0x40 DUP1 DUP4 KECCAK256 SWAP4 DUP7 AND DUP4 MSTORE SWAP3 SWAP1 MSTORE KECCAK256 SLOAD PUSH0 NOT DUP2 EQ PUSH2 0x22E1 JUMPI DUP2 DUP2 LT ISZERO PUSH2 0x22D3 JUMPI PUSH1 0x40 MLOAD PUSH4 0x7DC7A0D9 PUSH1 0xE1 SHL DUP2 MSTORE PUSH1 0x1 PUSH1 0x1 PUSH1 0xA0 SHL SUB DUP5 AND PUSH1 0x4 DUP3 ADD MSTORE PUSH1 0x24 DUP2 ADD DUP3 SWAP1 MSTORE PUSH1 0x44 DUP2 ADD DUP4 SWAP1 MSTORE PUSH1 0x64 ADD PUSH2 0x79F JUMP JUMPDEST PUSH2 0x22E1 DUP5 DUP5 DUP5 DUP5 SUB PUSH0 PUSH2 0x2B7B JUMP JUMPDEST POP POP POP POP JUMP JUMPDEST PUSH1 0x1 PUSH1 0x1 PUSH1 0xA0 SHL SUB DUP4 AND PUSH2 0x2310 JUMPI PUSH1 0x40 MLOAD PUSH4 0x4B637E8F PUSH1 0xE1 SHL DUP2 MSTORE PUSH0 PUSH1 0x4 DUP3 ADD MSTORE PUSH1 0x24 ADD PUSH2 0x79F JUMP JUMPDEST PUSH1 0x1 PUSH1 0x1 PUSH1 0xA0 SHL SUB DUP3 AND PUSH2 0x2339 JUMPI PUSH1 0x40 MLOAD PUSH4 0xEC442F05 PUSH1 0xE0 SHL DUP2 MSTORE PUSH0 PUSH1 0x4 DUP3 ADD MSTORE PUSH1 0x24 ADD PUSH2 0x79F JUMP JUMPDEST PUSH2 0xEAA DUP4 DUP4 DUP4 PUSH2 0x2C4D JUMP JUMPDEST PUSH2 0x234C PUSH2 0x2D73 JUMP JUMPDEST PUSH1 0x5 DUP1 SLOAD PUSH1 0xFF NOT AND SWAP1 SSTORE PUSH32 0x5DB9EE0A495BF2E6FF9C91A7834C1BA4FDD244A5E8AA4E537BD38AEAE4B073AA CALLER JUMPDEST PUSH1 0x40 MLOAD PUSH1 0x1 PUSH1 0x1 PUSH1 0xA0 SHL SUB SWAP1 SWAP2 AND DUP2 MSTORE PUSH1 0x20 ADD PUSH1 0x40 MLOAD DUP1 SWAP2 SUB SWAP1 LOG1 JUMP JUMPDEST PUSH1 0x2 PUSH1 0x6 SLOAD SUB PUSH2 0x23E8 JUMPI PUSH1 0x40 MLOAD PUSH3 0x461BCD PUSH1 0xE5 SHL DUP2 MSTORE PUSH1 0x20 PUSH1 0x4 DUP3 ADD MSTORE PUSH1 0x1F PUSH1 0x24 DUP3 ADD MSTORE PUSH32 0x5265656E7472616E637947756172643A207265656E7472616E742063616C6C00 PUSH1 0x44 DUP3 ADD MSTORE PUSH1 0x64 ADD PUSH2 0x79F JUMP JUMPDEST PUSH1 0x2 PUSH1 0x6 SSTORE JUMP JUMPDEST PUSH0 PUSH1 0x14 PUSH0 DUP2 SLOAD PUSH2 0x23FE SWAP1 PUSH2 0x3BC3 JUMP JUMPDEST SWAP2 DUP3 SWAP1 SSTORE POP PUSH1 0x40 DUP1 MLOAD PUSH2 0x100 DUP2 ADD DUP3 MSTORE DUP3 DUP2 MSTORE PUSH1 0x20 DUP1 DUP3 ADD DUP12 DUP2 MSTORE DUP3 DUP5 ADD DUP12 SWAP1 MSTORE PUSH1 0x60 DUP4 ADD DUP11 SWAP1 MSTORE PUSH1 0x80 DUP4 ADD DUP10 SWAP1 MSTORE PUSH1 0xA0 DUP4 ADD DUP9 SWAP1 MSTORE PUSH1 0xC0 DUP4 ADD DUP8 SWAP1 MSTORE TIMESTAMP PUSH1 0xE0 DUP5 ADD MSTORE PUSH0 DUP6 DUP2 MSTORE PUSH1 0xE SWAP1 SWAP3 MSTORE SWAP3 SWAP1 KECCAK256 DUP2 MLOAD DUP2 SSTORE SWAP2 MLOAD SWAP3 SWAP4 POP SWAP2 PUSH1 0x1 DUP3 ADD SWAP1 PUSH2 0x2466 SWAP1 DUP3 PUSH2 0x39F4 JUMP JUMPDEST POP PUSH1 0x40 DUP3 ADD MLOAD PUSH1 0x2 DUP3 ADD SWAP1 PUSH2 0x247B SWAP1 DUP3 PUSH2 0x39F4 JUMP JUMPDEST POP PUSH1 0x60 DUP3 ADD MLOAD PUSH1 0x3 DUP3 ADD SWAP1 PUSH2 0x2490 SWAP1 DUP3 PUSH2 0x39F4 JUMP JUMPDEST POP PUSH1 0x80 DUP3 ADD MLOAD PUSH1 0x4 DUP3 ADD SWAP1 PUSH2 0x24A5 SWAP1 DUP3 PUSH2 0x39F4 JUMP JUMPDEST POP PUSH1 0xA0 DUP3 ADD MLOAD DUP2 PUSH1 0x5 ADD SSTORE PUSH1 0xC0 DUP3 ADD MLOAD DUP2 PUSH1 0x6 ADD SSTORE PUSH1 0xE0 DUP3 ADD MLOAD DUP2 PUSH1 0x7 ADD SSTORE SWAP1 POP POP PUSH1 0xF DUP8 PUSH1 0x40 MLOAD PUSH2 0x24D7 SWAP2 SWAP1 PUSH2 0x37B8 JUMP JUMPDEST SWAP1 DUP2 MSTORE PUSH1 0x40 MLOAD SWAP1 DUP2 SWAP1 SUB PUSH1 0x20 SWAP1 DUP2 ADD DUP3 KECCAK256 DUP1 SLOAD PUSH1 0x1 DUP2 ADD DUP3 SSTORE PUSH0 SWAP2 DUP3 MSTORE SWAP2 SWAP1 KECCAK256 ADD DUP3 SWAP1 SSTORE PUSH2 0x2506 SWAP1 DUP9 SWAP1 PUSH2 0x37B8 JUMP JUMPDEST PUSH1 0x40 MLOAD DUP1 SWAP2 SUB SWAP1 KECCAK256 DUP2 PUSH32 0x6A1BE0AB6D63EEE48D486196B881AB2FEF0FC7A715855E495EB8CEBDEDB3E257 DUP9 DUP9 DUP9 DUP9 PUSH1 0x40 MLOAD PUSH2 0x2544 SWAP5 SWAP4 SWAP3 SWAP2 SWAP1 PUSH2 0x3AB3 JUMP JUMPDEST PUSH1 0x40 MLOAD DUP1 SWAP2 SUB SWAP1 LOG3 POP POP POP POP POP POP POP JUMP JUMPDEST ADDRESS PUSH1 0x1 PUSH1 0x1 PUSH1 0xA0 SHL SUB PUSH32 0x0 AND EQ DUP1 PUSH2 0x25DB JUMPI POP PUSH32 0x0 PUSH1 0x1 PUSH1 0x1 PUSH1 0xA0 SHL SUB AND PUSH2 0x25CF PUSH0 DUP1 MLOAD PUSH1 0x20 PUSH2 0x3CE5 DUP4 CODECOPY DUP2 MLOAD SWAP2 MSTORE SLOAD PUSH1 0x1 PUSH1 0x1 PUSH1 0xA0 SHL SUB AND SWAP1 JUMP JUMPDEST PUSH1 0x1 PUSH1 0x1 PUSH1 0xA0 SHL SUB AND EQ ISZERO JUMPDEST ISZERO PUSH2 0x7B0 JUMPI PUSH1 0x40 MLOAD PUSH4 0x703E46DD PUSH1 0xE1 SHL DUP2 MSTORE PUSH1 0x4 ADD PUSH1 0x40 MLOAD DUP1 SWAP2 SUB SWAP1 REVERT JUMPDEST PUSH1 0x9 SLOAD PUSH1 0x40 MLOAD PUSH4 0x42282D95 PUSH1 0xE0 SHL DUP2 MSTORE CALLER PUSH1 0x4 DUP3 ADD MSTORE PUSH1 0x1 PUSH1 0x1 PUSH1 0xA0 SHL SUB SWAP1 SWAP2 AND SWAP1 PUSH4 0x42282D95 SWAP1 PUSH1 0x24 ADD PUSH1 0x20 PUSH1 0x40 MLOAD DUP1 DUP4 SUB DUP2 DUP7 GAS STATICCALL ISZERO DUP1 ISZERO PUSH2 0x263F JUMPI RETURNDATASIZE PUSH0 DUP1 RETURNDATACOPY RETURNDATASIZE PUSH0 REVERT JUMPDEST POP POP POP POP PUSH1 0x40 MLOAD RETURNDATASIZE PUSH1 0x1F NOT PUSH1 0x1F DUP3 ADD AND DUP3 ADD DUP1 PUSH1 0x40 MSTORE POP DUP2 ADD SWAP1 PUSH2 0x2663 SWAP2 SWAP1 PUSH2 0x3653 JUMP JUMPDEST PUSH2 0x267F JUMPI PUSH1 0x40 MLOAD PUSH3 0x461BCD PUSH1 0xE5 SHL DUP2 MSTORE PUSH1 0x4 ADD PUSH2 0x79F SWAP1 PUSH2 0x366C JUMP JUMPDEST POP JUMP JUMPDEST DUP2 PUSH1 0x1 PUSH1 0x1 PUSH1 0xA0 SHL SUB AND PUSH4 0x52D1902D PUSH1 0x40 MLOAD DUP2 PUSH4 0xFFFFFFFF AND PUSH1 0xE0 SHL DUP2 MSTORE PUSH1 0x4 ADD PUSH1 0x20 PUSH1 0x40 MLOAD DUP1 DUP4 SUB DUP2 DUP7 GAS STATICCALL SWAP3 POP POP POP DUP1 ISZERO PUSH2 0x26DC JUMPI POP PUSH1 0x40 DUP1 MLOAD PUSH1 0x1F RETURNDATASIZE SWAP1 DUP2 ADD PUSH1 0x1F NOT AND DUP3 ADD SWAP1 SWAP3 MSTORE PUSH2 0x26D9 SWAP2 DUP2 ADD SWAP1 PUSH2 0x3B15 JUMP JUMPDEST PUSH1 0x1 JUMPDEST PUSH2 0x2704 JUMPI PUSH1 0x40 MLOAD PUSH4 0x4C9C8CE3 PUSH1 0xE0 SHL DUP2 MSTORE PUSH1 0x1 PUSH1 0x1 PUSH1 0xA0 SHL SUB DUP4 AND PUSH1 0x4 DUP3 ADD MSTORE PUSH1 0x24 ADD PUSH2 0x79F JUMP JUMPDEST PUSH0 DUP1 MLOAD PUSH1 0x20 PUSH2 0x3CE5 DUP4 CODECOPY DUP2 MLOAD SWAP2 MSTORE DUP2 EQ PUSH2 0x2734 JUMPI PUSH1 0x40 MLOAD PUSH4 0x2A875269 PUSH1 0xE2 SHL DUP2 MSTORE PUSH1 0x4 DUP2 ADD DUP3 SWAP1 MSTORE PUSH1 0x24 ADD PUSH2 0x79F JUMP JUMPDEST PUSH2 0xEAA DUP4 DUP4 PUSH2 0x2DBC JUMP JUMPDEST ADDRESS PUSH1 0x1 PUSH1 0x1 PUSH1 0xA0 SHL SUB PUSH32 0x0 AND EQ PUSH2 0x7B0 JUMPI PUSH1 0x40 MLOAD PUSH4 0x703E46DD PUSH1 0xE1 SHL DUP2 MSTORE PUSH1 0x4 ADD PUSH1 0x40 MLOAD DUP1 SWAP2 SUB SWAP1 REVERT JUMPDEST PUSH1 0x60 PUSH0 DUP3 SWAP1 POP PUSH0 DUP2 MLOAD PUSH1 0x1 PUSH1 0x1 PUSH1 0x40 SHL SUB DUP2 GT ISZERO PUSH2 0x27A7 JUMPI PUSH2 0x27A7 PUSH2 0x308C JUMP JUMPDEST PUSH1 0x40 MLOAD SWAP1 DUP1 DUP3 MSTORE DUP1 PUSH1 0x1F ADD PUSH1 0x1F NOT AND PUSH1 0x20 ADD DUP3 ADD PUSH1 0x40 MSTORE DUP1 ISZERO PUSH2 0x27D1 JUMPI PUSH1 0x20 DUP3 ADD DUP2 DUP1 CALLDATASIZE DUP4 CALLDATACOPY ADD SWAP1 POP JUMPDEST POP SWAP1 POP PUSH0 JUMPDEST DUP3 MLOAD DUP2 LT ISZERO PUSH2 0x28D2 JUMPI PUSH1 0x41 DUP4 DUP3 DUP2 MLOAD DUP2 LT PUSH2 0x27F3 JUMPI PUSH2 0x27F3 PUSH2 0x3BE1 JUMP JUMPDEST ADD PUSH1 0x20 ADD MLOAD PUSH1 0xF8 SHR LT DUP1 ISZERO SWAP1 PUSH2 0x2823 JUMPI POP PUSH1 0x5A DUP4 DUP3 DUP2 MLOAD DUP2 LT PUSH2 0x2818 JUMPI PUSH2 0x2818 PUSH2 0x3BE1 JUMP JUMPDEST ADD PUSH1 0x20 ADD MLOAD PUSH1 0xF8 SHR GT ISZERO JUMPDEST ISZERO PUSH2 0x2884 JUMPI DUP3 DUP2 DUP2 MLOAD DUP2 LT PUSH2 0x283A JUMPI PUSH2 0x283A PUSH2 0x3BE1 JUMP JUMPDEST PUSH1 0x20 ADD ADD MLOAD PUSH1 0xF8 SHR PUSH1 0xF8 SHL PUSH1 0xF8 SHR PUSH1 0x20 PUSH2 0x2854 SWAP2 SWAP1 PUSH2 0x3BF5 JUMP JUMPDEST PUSH1 0xF8 SHL DUP3 DUP3 DUP2 MLOAD DUP2 LT PUSH2 0x2869 JUMPI PUSH2 0x2869 PUSH2 0x3BE1 JUMP JUMPDEST PUSH1 0x20 ADD ADD SWAP1 PUSH1 0x1 PUSH1 0x1 PUSH1 0xF8 SHL SUB NOT AND SWAP1 DUP2 PUSH0 BYTE SWAP1 MSTORE8 POP PUSH2 0x28CA JUMP JUMPDEST DUP3 DUP2 DUP2 MLOAD DUP2 LT PUSH2 0x2896 JUMPI PUSH2 0x2896 PUSH2 0x3BE1 JUMP JUMPDEST PUSH1 0x20 ADD ADD MLOAD PUSH1 0xF8 SHR PUSH1 0xF8 SHL DUP3 DUP3 DUP2 MLOAD DUP2 LT PUSH2 0x28B3 JUMPI PUSH2 0x28B3 PUSH2 0x3BE1 JUMP JUMPDEST PUSH1 0x20 ADD ADD SWAP1 PUSH1 0x1 PUSH1 0x1 PUSH1 0xF8 SHL SUB NOT AND SWAP1 DUP2 PUSH0 BYTE SWAP1 MSTORE8 POP JUMPDEST PUSH1 0x1 ADD PUSH2 0x27D6 JUMP JUMPDEST POP SWAP4 SWAP3 POP POP POP JUMP JUMPDEST PUSH2 0x28E2 PUSH2 0x2E11 JUMP JUMPDEST PUSH1 0x5 DUP1 SLOAD PUSH1 0xFF NOT AND PUSH1 0x1 OR SWAP1 SSTORE PUSH32 0x62E78CEA01BEE320CD4E420270B5EA74000D11B0C9F74754EBDBFC544B05A258 PUSH2 0x2379 CALLER SWAP1 JUMP JUMPDEST PUSH1 0x1 PUSH1 0x1 PUSH1 0xA0 SHL SUB DUP3 AND PUSH2 0x2940 JUMPI PUSH1 0x40 MLOAD PUSH4 0x4B637E8F PUSH1 0xE1 SHL DUP2 MSTORE PUSH0 PUSH1 0x4 DUP3 ADD MSTORE PUSH1 0x24 ADD PUSH2 0x79F JUMP JUMPDEST PUSH2 0xD1C DUP3 PUSH0 DUP4 PUSH2 0x2C4D JUMP JUMPDEST PUSH1 0x8 SLOAD PUSH1 0x40 MLOAD PUSH4 0xF3F9F267 PUSH1 0xE0 SHL DUP2 MSTORE PUSH0 SWAP2 PUSH1 0x1 PUSH1 0x1 PUSH1 0xA0 SHL SUB AND SWAP1 PUSH4 0xF3F9F267 SWAP1 PUSH2 0x297B SWAP1 DUP7 SWAP1 PUSH1 0x4 ADD PUSH2 0x2FFE JUMP JUMPDEST PUSH0 PUSH1 0x40 MLOAD DUP1 DUP4 SUB DUP2 DUP7 GAS STATICCALL ISZERO DUP1 ISZERO PUSH2 0x2995 JUMPI RETURNDATASIZE PUSH0 DUP1 RETURNDATACOPY RETURNDATASIZE PUSH0 REVERT JUMPDEST POP POP POP POP PUSH1 0x40 MLOAD RETURNDATASIZE PUSH0 DUP3 RETURNDATACOPY PUSH1 0x1F RETURNDATASIZE SWAP1 DUP2 ADD PUSH1 0x1F NOT AND DUP3 ADD PUSH1 0x40 MSTORE PUSH2 0x29BC SWAP2 SWAP1 DUP2 ADD SWAP1 PUSH2 0x3859 JUMP JUMPDEST PUSH1 0x20 ADD MLOAD PUSH1 0x7 SLOAD PUSH1 0x40 MLOAD PUSH4 0x31A9108F PUSH1 0xE1 SHL DUP2 MSTORE PUSH1 0x4 DUP2 ADD DUP6 SWAP1 MSTORE PUSH1 0x1 PUSH1 0x1 PUSH1 0xA0 SHL SUB SWAP3 DUP4 AND SWAP3 SWAP1 SWAP2 AND SWAP1 PUSH4 0x6352211E SWAP1 PUSH1 0x24 ADD PUSH1 0x20 PUSH1 0x40 MLOAD DUP1 DUP4 SUB DUP2 DUP7 GAS STATICCALL ISZERO DUP1 ISZERO PUSH2 0x2A0B JUMPI RETURNDATASIZE PUSH0 DUP1 RETURNDATACOPY RETURNDATASIZE PUSH0 REVERT JUMPDEST POP POP POP POP PUSH1 0x40 MLOAD RETURNDATASIZE PUSH1 0x1F NOT PUSH1 0x1F DUP3 ADD AND DUP3 ADD DUP1 PUSH1 0x40 MSTORE POP DUP2 ADD SWAP1 PUSH2 0x2A2F SWAP2 SWAP1 PUSH2 0x3C0E JUMP JUMPDEST PUSH1 0x1 PUSH1 0x1 PUSH1 0xA0 SHL SUB AND EQ SWAP4 SWAP3 POP POP POP JUMP JUMPDEST PUSH1 0x7 SLOAD PUSH1 0x40 MLOAD PUSH4 0x7F177D31 PUSH1 0xE0 SHL DUP2 MSTORE PUSH1 0x4 DUP2 ADD DUP5 SWAP1 MSTORE PUSH0 SWAP2 DUP3 SWAP2 PUSH1 0x1 PUSH1 0x1 PUSH1 0xA0 SHL SUB SWAP1 SWAP2 AND SWAP1 PUSH4 0x7F177D31 SWAP1 PUSH1 0x24 ADD PUSH0 PUSH1 0x40 MLOAD DUP1 DUP4 SUB DUP2 DUP7 GAS STATICCALL ISZERO DUP1 ISZERO PUSH2 0x2A8A JUMPI RETURNDATASIZE PUSH0 DUP1 RETURNDATACOPY RETURNDATASIZE PUSH0 REVERT JUMPDEST POP POP POP POP PUSH1 0x40 MLOAD RETURNDATASIZE PUSH0 DUP3 RETURNDATACOPY PUSH1 0x1F RETURNDATASIZE SWAP1 DUP2 ADD PUSH1 0x1F NOT AND DUP3 ADD PUSH1 0x40 MSTORE PUSH2 0x2AB1 SWAP2 SWAP1 DUP2 ADD SWAP1 PUSH2 0x3C29 JUMP JUMPDEST SWAP1 POP PUSH0 JUMPDEST DUP2 MLOAD DUP2 LT ISZERO PUSH2 0x2B3D JUMPI DUP4 PUSH1 0x40 MLOAD PUSH1 0x20 ADD PUSH2 0x2ACF SWAP2 SWAP1 PUSH2 0x37B8 JUMP JUMPDEST PUSH1 0x40 MLOAD PUSH1 0x20 DUP2 DUP4 SUB SUB DUP2 MSTORE SWAP1 PUSH1 0x40 MSTORE DUP1 MLOAD SWAP1 PUSH1 0x20 ADD KECCAK256 DUP3 DUP3 DUP2 MLOAD DUP2 LT PUSH2 0x2AF7 JUMPI PUSH2 0x2AF7 PUSH2 0x3BE1 JUMP JUMPDEST PUSH1 0x20 MUL PUSH1 0x20 ADD ADD MLOAD PUSH1 0x40 MLOAD PUSH1 0x20 ADD PUSH2 0x2B0F SWAP2 SWAP1 PUSH2 0x37B8 JUMP JUMPDEST PUSH1 0x40 MLOAD PUSH1 0x20 DUP2 DUP4 SUB SUB DUP2 MSTORE SWAP1 PUSH1 0x40 MSTORE DUP1 MLOAD SWAP1 PUSH1 0x20 ADD KECCAK256 SUB PUSH2 0x2B35 JUMPI PUSH1 0x1 SWAP3 POP POP POP PUSH2 0x6EE JUMP JUMPDEST PUSH1 0x1 ADD PUSH2 0x2AB5 JUMP JUMPDEST POP PUSH0 SWAP5 SWAP4 POP POP POP POP JUMP JUMPDEST PUSH1 0x1 PUSH1 0x1 PUSH1 0xA0 SHL SUB DUP3 AND PUSH2 0x2B70 JUMPI PUSH1 0x40 MLOAD PUSH4 0xEC442F05 PUSH1 0xE0 SHL DUP2 MSTORE PUSH0 PUSH1 0x4 DUP3 ADD MSTORE PUSH1 0x24 ADD PUSH2 0x79F JUMP JUMPDEST PUSH2 0xD1C PUSH0 DUP4 DUP4 PUSH2 0x2C4D JUMP JUMPDEST PUSH1 0x1 PUSH1 0x1 PUSH1 0xA0 SHL SUB DUP5 AND PUSH2 0x2BA4 JUMPI PUSH1 0x40 MLOAD PUSH4 0xE602DF05 PUSH1 0xE0 SHL DUP2 MSTORE PUSH0 PUSH1 0x4 DUP3 ADD MSTORE PUSH1 0x24 ADD PUSH2 0x79F JUMP JUMPDEST PUSH1 0x1 PUSH1 0x1 PUSH1 0xA0 SHL SUB DUP4 AND PUSH2 0x2BCD JUMPI PUSH1 0x40 MLOAD PUSH4 0x4A1406B1 PUSH1 0xE1 SHL DUP2 MSTORE PUSH0 PUSH1 0x4 DUP3 ADD MSTORE PUSH1 0x24 ADD PUSH2 0x79F JUMP JUMPDEST PUSH1 0x1 PUSH1 0x1 PUSH1 0xA0 SHL SUB DUP1 DUP6 AND PUSH0 SWAP1 DUP2 MSTORE PUSH1 0x1 PUSH1 0x20 SWAP1 DUP2 MSTORE PUSH1 0x40 DUP1 DUP4 KECCAK256 SWAP4 DUP8 AND DUP4 MSTORE SWAP3 SWAP1 MSTORE KECCAK256 DUP3 SWAP1 SSTORE DUP1 ISZERO PUSH2 0x22E1 JUMPI DUP3 PUSH1 0x1 PUSH1 0x1 PUSH1 0xA0 SHL SUB AND DUP5 PUSH1 0x1 PUSH1 0x1 PUSH1 0xA0 SHL SUB AND PUSH32 0x8C5BE1E5EBEC7D5BD14F71427D1E84F3DD0314C0F7B2291E5B200AC8C7C3B925 DUP5 PUSH1 0x40 MLOAD PUSH2 0x2C3F SWAP2 DUP2 MSTORE PUSH1 0x20 ADD SWAP1 JUMP JUMPDEST PUSH1 0x40 MLOAD DUP1 SWAP2 SUB SWAP1 LOG3 POP POP POP POP JUMP JUMPDEST PUSH1 0x1 PUSH1 0x1 PUSH1 0xA0 SHL SUB DUP4 AND PUSH2 0x2C77 JUMPI DUP1 PUSH1 0x2 PUSH0 DUP3 DUP3 SLOAD PUSH2 0x2C6C SWAP2 SWAP1 PUSH2 0x3929 JUMP JUMPDEST SWAP1 SWAP2 SSTORE POP PUSH2 0x2CE7 SWAP1 POP JUMP JUMPDEST PUSH1 0x1 PUSH1 0x1 PUSH1 0xA0 SHL SUB DUP4 AND PUSH0 SWAP1 DUP2 MSTORE PUSH1 0x20 DUP2 SWAP1 MSTORE PUSH1 0x40 SWAP1 KECCAK256 SLOAD DUP2 DUP2 LT ISZERO PUSH2 0x2CC9 JUMPI PUSH1 0x40 MLOAD PUSH4 0x391434E3 PUSH1 0xE2 SHL DUP2 MSTORE PUSH1 0x1 PUSH1 0x1 PUSH1 0xA0 SHL SUB DUP6 AND PUSH1 0x4 DUP3 ADD MSTORE PUSH1 0x24 DUP2 ADD DUP3 SWAP1 MSTORE PUSH1 0x44 DUP2 ADD DUP4 SWAP1 MSTORE PUSH1 0x64 ADD PUSH2 0x79F JUMP JUMPDEST PUSH1 0x1 PUSH1 0x1 PUSH1 0xA0 SHL SUB DUP5 AND PUSH0 SWAP1 DUP2 MSTORE PUSH1 0x20 DUP2 SWAP1 MSTORE PUSH1 0x40 SWAP1 KECCAK256 SWAP1 DUP3 SWAP1 SUB SWAP1 SSTORE JUMPDEST PUSH1 0x1 PUSH1 0x1 PUSH1 0xA0 SHL SUB DUP3 AND PUSH2 0x2D03 JUMPI PUSH1 0x2 DUP1 SLOAD DUP3 SWAP1 SUB SWAP1 SSTORE PUSH2 0x2D21 JUMP JUMPDEST PUSH1 0x1 PUSH1 0x1 PUSH1 0xA0 SHL SUB DUP3 AND PUSH0 SWAP1 DUP2 MSTORE PUSH1 0x20 DUP2 SWAP1 MSTORE PUSH1 0x40 SWAP1 KECCAK256 DUP1 SLOAD DUP3 ADD SWAP1 SSTORE JUMPDEST DUP2 PUSH1 0x1 PUSH1 0x1 PUSH1 0xA0 SHL SUB AND DUP4 PUSH1 0x1 PUSH1 0x1 PUSH1 0xA0 SHL SUB AND PUSH32 0xDDF252AD1BE2C89B69C2B068FC378DAA952BA7F163C4A11628F55A4DF523B3EF DUP4 PUSH1 0x40 MLOAD PUSH2 0x2D66 SWAP2 DUP2 MSTORE PUSH1 0x20 ADD SWAP1 JUMP JUMPDEST PUSH1 0x40 MLOAD DUP1 SWAP2 SUB SWAP1 LOG3 POP POP POP JUMP JUMPDEST PUSH1 0x5 SLOAD PUSH1 0xFF AND PUSH2 0x7B0 JUMPI PUSH1 0x40 MLOAD PUSH3 0x461BCD PUSH1 0xE5 SHL DUP2 MSTORE PUSH1 0x20 PUSH1 0x4 DUP3 ADD MSTORE PUSH1 0x14 PUSH1 0x24 DUP3 ADD MSTORE PUSH20 0x14185D5CD8589B194E881B9BDD081C185D5CD959 PUSH1 0x62 SHL PUSH1 0x44 DUP3 ADD MSTORE PUSH1 0x64 ADD PUSH2 0x79F JUMP JUMPDEST PUSH2 0x2DC5 DUP3 PUSH2 0x2E57 JUMP JUMPDEST PUSH1 0x40 MLOAD PUSH1 0x1 PUSH1 0x1 PUSH1 0xA0 SHL SUB DUP4 AND SWAP1 PUSH32 0xBC7CD75A20EE27FD9ADEBAB32041F755214DBC6BFFA90CC0225B39DA2E5C2D3B SWAP1 PUSH0 SWAP1 LOG2 DUP1 MLOAD ISZERO PUSH2 0x2E09 JUMPI PUSH2 0xEAA DUP3 DUP3 PUSH2 0x2EBA JUMP JUMPDEST PUSH2 0xD1C PUSH2 0x2F2C JUMP JUMPDEST PUSH1 0x5 SLOAD PUSH1 0xFF AND ISZERO PUSH2 0x7B0 JUMPI PUSH1 0x40 MLOAD PUSH3 0x461BCD PUSH1 0xE5 SHL DUP2 MSTORE PUSH1 0x20 PUSH1 0x4 DUP3 ADD MSTORE PUSH1 0x10 PUSH1 0x24 DUP3 ADD MSTORE PUSH16 0x14185D5CD8589B194E881C185D5CD959 PUSH1 0x82 SHL PUSH1 0x44 DUP3 ADD MSTORE PUSH1 0x64 ADD PUSH2 0x79F JUMP JUMPDEST DUP1 PUSH1 0x1 PUSH1 0x1 PUSH1 0xA0 SHL SUB AND EXTCODESIZE PUSH0 SUB PUSH2 0x2E8C JUMPI PUSH1 0x40 MLOAD PUSH4 0x4C9C8CE3 PUSH1 0xE0 SHL DUP2 MSTORE PUSH1 0x1 PUSH1 0x1 PUSH1 0xA0 SHL SUB DUP3 AND PUSH1 0x4 DUP3 ADD MSTORE PUSH1 0x24 ADD PUSH2 0x79F JUMP JUMPDEST PUSH0 DUP1 MLOAD PUSH1 0x20 PUSH2 0x3CE5 DUP4 CODECOPY DUP2 MLOAD SWAP2 MSTORE DUP1 SLOAD PUSH1 0x1 PUSH1 0x1 PUSH1 0xA0 SHL SUB NOT AND PUSH1 0x1 PUSH1 0x1 PUSH1 0xA0 SHL SUB SWAP3 SWAP1 SWAP3 AND SWAP2 SWAP1 SWAP2 OR SWAP1 SSTORE JUMP JUMPDEST PUSH1 0x60 PUSH0 DUP1 DUP5 PUSH1 0x1 PUSH1 0x1 PUSH1 0xA0 SHL SUB AND DUP5 PUSH1 0x40 MLOAD PUSH2 0x2ED6 SWAP2 SWAP1 PUSH2 0x37B8 JUMP JUMPDEST PUSH0 PUSH1 0x40 MLOAD DUP1 DUP4 SUB DUP2 DUP6 GAS DELEGATECALL SWAP2 POP POP RETURNDATASIZE DUP1 PUSH0 DUP2 EQ PUSH2 0x2F0E JUMPI PUSH1 0x40 MLOAD SWAP2 POP PUSH1 0x1F NOT PUSH1 0x3F RETURNDATASIZE ADD AND DUP3 ADD PUSH1 0x40 MSTORE RETURNDATASIZE DUP3 MSTORE RETURNDATASIZE PUSH0 PUSH1 0x20 DUP5 ADD RETURNDATACOPY PUSH2 0x2F13 JUMP JUMPDEST PUSH1 0x60 SWAP2 POP JUMPDEST POP SWAP2 POP SWAP2 POP PUSH2 0x2F23 DUP6 DUP4 DUP4 PUSH2 0x2F4B JUMP JUMPDEST SWAP6 SWAP5 POP POP POP POP POP JUMP JUMPDEST CALLVALUE ISZERO PUSH2 0x7B0 JUMPI PUSH1 0x40 MLOAD PUSH4 0xB398979F PUSH1 0xE0 SHL DUP2 MSTORE PUSH1 0x4 ADD PUSH1 0x40 MLOAD DUP1 SWAP2 SUB SWAP1 REVERT JUMPDEST PUSH1 0x60 DUP3 PUSH2 0x2F60 JUMPI PUSH2 0x2F5B DUP3 PUSH2 0x2FA7 JUMP JUMPDEST PUSH2 0x712 JUMP JUMPDEST DUP2 MLOAD ISZERO DUP1 ISZERO PUSH2 0x2F77 JUMPI POP PUSH1 0x1 PUSH1 0x1 PUSH1 0xA0 SHL SUB DUP5 AND EXTCODESIZE ISZERO JUMPDEST ISZERO PUSH2 0x2FA0 JUMPI PUSH1 0x40 MLOAD PUSH4 0x9996B315 PUSH1 0xE0 SHL DUP2 MSTORE PUSH1 0x1 PUSH1 0x1 PUSH1 0xA0 SHL SUB DUP6 AND PUSH1 0x4 DUP3 ADD MSTORE PUSH1 0x24 ADD PUSH2 0x79F JUMP JUMPDEST POP DUP1 PUSH2 0x712 JUMP JUMPDEST DUP1 MLOAD ISZERO PUSH2 0x2FB7 JUMPI DUP1 MLOAD DUP1 DUP3 PUSH1 0x20 ADD REVERT JUMPDEST PUSH1 0x40 MLOAD PUSH4 0xA12F521 PUSH1 0xE1 SHL DUP2 MSTORE PUSH1 0x4 ADD PUSH1 0x40 MLOAD DUP1 SWAP2 SUB SWAP1 REVERT JUMPDEST PUSH0 DUP2 MLOAD DUP1 DUP5 MSTORE DUP1 PUSH1 0x20 DUP5 ADD PUSH1 0x20 DUP7 ADD MCOPY PUSH0 PUSH1 0x20 DUP3 DUP7 ADD ADD MSTORE PUSH1 0x20 PUSH1 0x1F NOT PUSH1 0x1F DUP4 ADD AND DUP6 ADD ADD SWAP2 POP POP SWAP3 SWAP2 POP POP JUMP JUMPDEST PUSH1 0x20 DUP2 MSTORE PUSH0 PUSH2 0x712 PUSH1 0x20 DUP4 ADD DUP5 PUSH2 0x2FD0 JUMP JUMPDEST PUSH1 0x1 PUSH1 0x1 PUSH1 0xA0 SHL SUB DUP2 AND DUP2 EQ PUSH2 0x267F JUMPI PUSH0 DUP1 REVERT JUMPDEST PUSH0 DUP1 PUSH1 0x40 DUP4 DUP6 SUB SLT ISZERO PUSH2 0x3035 JUMPI PUSH0 DUP1 REVERT JUMPDEST DUP3 CALLDATALOAD PUSH2 0x3040 DUP2 PUSH2 0x3010 JUMP JUMPDEST SWAP5 PUSH1 0x20 SWAP4 SWAP1 SWAP4 ADD CALLDATALOAD SWAP4 POP POP POP JUMP JUMPDEST PUSH0 DUP1 PUSH0 PUSH1 0x60 DUP5 DUP7 SUB SLT ISZERO PUSH2 0x3060 JUMPI PUSH0 DUP1 REVERT JUMPDEST DUP4 CALLDATALOAD PUSH2 0x306B DUP2 PUSH2 0x3010 JUMP JUMPDEST SWAP3 POP PUSH1 0x20 DUP5 ADD CALLDATALOAD PUSH2 0x307B DUP2 PUSH2 0x3010 JUMP JUMPDEST SWAP3 SWAP6 SWAP3 SWAP5 POP POP POP PUSH1 0x40 SWAP2 SWAP1 SWAP2 ADD CALLDATALOAD SWAP1 JUMP JUMPDEST PUSH4 0x4E487B71 PUSH1 0xE0 SHL PUSH0 MSTORE PUSH1 0x41 PUSH1 0x4 MSTORE PUSH1 0x24 PUSH0 REVERT JUMPDEST PUSH1 0x40 MLOAD PUSH1 0xA0 DUP2 ADD PUSH1 0x1 PUSH1 0x1 PUSH1 0x40 SHL SUB DUP2 GT DUP3 DUP3 LT OR ISZERO PUSH2 0x30C2 JUMPI PUSH2 0x30C2 PUSH2 0x308C JUMP JUMPDEST PUSH1 0x40 MSTORE SWAP1 JUMP JUMPDEST PUSH1 0x40 MLOAD PUSH1 0x1F DUP3 ADD PUSH1 0x1F NOT AND DUP2 ADD PUSH1 0x1 PUSH1 0x1 PUSH1 0x40 SHL SUB DUP2 GT DUP3 DUP3 LT OR ISZERO PUSH2 0x30F0 JUMPI PUSH2 0x30F0 PUSH2 0x308C JUMP JUMPDEST PUSH1 0x40 MSTORE SWAP2 SWAP1 POP JUMP JUMPDEST PUSH0 PUSH1 0x1 PUSH1 0x1 PUSH1 0x40 SHL SUB DUP3 GT ISZERO PUSH2 0x3110 JUMPI PUSH2 0x3110 PUSH2 0x308C JUMP JUMPDEST POP PUSH1 0x1F ADD PUSH1 0x1F NOT AND PUSH1 0x20 ADD SWAP1 JUMP JUMPDEST PUSH0 PUSH2 0x3130 PUSH2 0x312B DUP5 PUSH2 0x30F8 JUMP JUMPDEST PUSH2 0x30C8 JUMP JUMPDEST SWAP1 POP DUP3 DUP2 MSTORE DUP4 DUP4 DUP4 ADD GT ISZERO PUSH2 0x3143 JUMPI PUSH0 DUP1 REVERT JUMPDEST DUP3 DUP3 PUSH1 0x20 DUP4 ADD CALLDATACOPY PUSH0 PUSH1 0x20 DUP5 DUP4 ADD ADD MSTORE SWAP4 SWAP3 POP POP POP JUMP JUMPDEST PUSH0 DUP3 PUSH1 0x1F DUP4 ADD SLT PUSH2 0x3168 JUMPI PUSH0 DUP1 REVERT JUMPDEST PUSH2 0x712 DUP4 DUP4 CALLDATALOAD PUSH1 0x20 DUP6 ADD PUSH2 0x311E JUMP JUMPDEST PUSH0 DUP1 PUSH0 DUP1 PUSH0 DUP1 PUSH1 0xC0 DUP8 DUP10 SUB SLT ISZERO PUSH2 0x318C JUMPI PUSH0 DUP1 REVERT JUMPDEST DUP7 CALLDATALOAD PUSH1 0x1 PUSH1 0x1 PUSH1 0x40 SHL SUB DUP1 DUP3 GT ISZERO PUSH2 0x31A2 JUMPI PUSH0 DUP1 REVERT JUMPDEST PUSH2 0x31AE DUP11 DUP4 DUP12 ADD PUSH2 0x3159 JUMP JUMPDEST SWAP8 POP PUSH1 0x20 DUP10 ADD CALLDATALOAD SWAP2 POP DUP1 DUP3 GT ISZERO PUSH2 0x31C3 JUMPI PUSH0 DUP1 REVERT JUMPDEST PUSH2 0x31CF DUP11 DUP4 DUP12 ADD PUSH2 0x3159 JUMP JUMPDEST SWAP7 POP PUSH1 0x40 DUP10 ADD CALLDATALOAD SWAP2 POP DUP1 DUP3 GT ISZERO PUSH2 0x31E4 JUMPI PUSH0 DUP1 REVERT JUMPDEST PUSH2 0x31F0 DUP11 DUP4 DUP12 ADD PUSH2 0x3159 JUMP JUMPDEST SWAP6 POP PUSH1 0x60 DUP10 ADD CALLDATALOAD SWAP2 POP DUP1 DUP3 GT ISZERO PUSH2 0x3205 JUMPI PUSH0 DUP1 REVERT JUMPDEST POP PUSH2 0x3212 DUP10 DUP3 DUP11 ADD PUSH2 0x3159 JUMP JUMPDEST SWAP4 POP POP PUSH1 0x80 DUP8 ADD CALLDATALOAD SWAP2 POP PUSH1 0xA0 DUP8 ADD CALLDATALOAD SWAP1 POP SWAP3 SWAP6 POP SWAP3 SWAP6 POP SWAP3 SWAP6 JUMP JUMPDEST PUSH0 DUP1 PUSH1 0x40 DUP4 DUP6 SUB SLT ISZERO PUSH2 0x323E JUMPI PUSH0 DUP1 REVERT JUMPDEST DUP3 CALLDATALOAD PUSH2 0x3249 DUP2 PUSH2 0x3010 JUMP JUMPDEST SWAP2 POP PUSH1 0x20 DUP4 ADD CALLDATALOAD PUSH1 0x1 PUSH1 0x1 PUSH1 0x40 SHL SUB DUP2 GT ISZERO PUSH2 0x3263 JUMPI PUSH0 DUP1 REVERT JUMPDEST DUP4 ADD PUSH1 0x1F DUP2 ADD DUP6 SGT PUSH2 0x3273 JUMPI PUSH0 DUP1 REVERT JUMPDEST PUSH2 0x3282 DUP6 DUP3 CALLDATALOAD PUSH1 0x20 DUP5 ADD PUSH2 0x311E JUMP JUMPDEST SWAP2 POP POP SWAP3 POP SWAP3 SWAP1 POP JUMP JUMPDEST PUSH0 PUSH1 0x20 DUP3 DUP5 SUB SLT ISZERO PUSH2 0x329C JUMPI PUSH0 DUP1 REVERT JUMPDEST DUP2 CALLDATALOAD PUSH2 0x712 DUP2 PUSH2 0x3010 JUMP JUMPDEST PUSH0 PUSH1 0x20 DUP3 DUP5 SUB SLT ISZERO PUSH2 0x32B7 JUMPI PUSH0 DUP1 REVERT JUMPDEST DUP2 CALLDATALOAD PUSH1 0x1 PUSH1 0x1 PUSH1 0x40 SHL SUB DUP2 GT ISZERO PUSH2 0x32CC JUMPI PUSH0 DUP1 REVERT JUMPDEST PUSH2 0x32D8 DUP5 DUP3 DUP6 ADD PUSH2 0x3159 JUMP JUMPDEST SWAP5 SWAP4 POP POP POP POP JUMP JUMPDEST PUSH0 DUP1 PUSH0 DUP1 PUSH0 PUSH1 0xA0 DUP7 DUP9 SUB SLT ISZERO PUSH2 0x32F4 JUMPI PUSH0 DUP1 REVERT JUMPDEST DUP6 CALLDATALOAD PUSH1 0x1 PUSH1 0x1 PUSH1 0x40 SHL SUB DUP1 DUP3 GT ISZERO PUSH2 0x330A JUMPI PUSH0 DUP1 REVERT JUMPDEST PUSH2 0x3316 DUP10 DUP4 DUP11 ADD PUSH2 0x3159 JUMP JUMPDEST SWAP7 POP PUSH1 0x20 DUP9 ADD CALLDATALOAD SWAP2 POP DUP1 DUP3 GT ISZERO PUSH2 0x332B JUMPI PUSH0 DUP1 REVERT JUMPDEST PUSH2 0x3337 DUP10 DUP4 DUP11 ADD PUSH2 0x3159 JUMP JUMPDEST SWAP6 POP PUSH1 0x40 DUP9 ADD CALLDATALOAD SWAP2 POP DUP1 DUP3 GT ISZERO PUSH2 0x334C JUMPI PUSH0 DUP1 REVERT JUMPDEST PUSH2 0x3358 DUP10 DUP4 DUP11 ADD PUSH2 0x3159 JUMP JUMPDEST SWAP5 POP PUSH1 0x60 DUP9 ADD CALLDATALOAD SWAP2 POP DUP1 DUP3 GT ISZERO PUSH2 0x336D JUMPI PUSH0 DUP1 REVERT JUMPDEST POP PUSH2 0x337A DUP9 DUP3 DUP10 ADD PUSH2 0x3159 JUMP JUMPDEST SWAP6 SWAP9 SWAP5 SWAP8 POP SWAP3 SWAP6 PUSH1 0x80 ADD CALLDATALOAD SWAP4 SWAP3 POP POP POP JUMP JUMPDEST PUSH0 DUP1 PUSH1 0x40 DUP4 DUP6 SUB SLT ISZERO PUSH2 0x339D JUMPI PUSH0 DUP1 REVERT JUMPDEST DUP3 CALLDATALOAD PUSH1 0x1 PUSH1 0x1 PUSH1 0x40 SHL SUB DUP1 DUP3 GT ISZERO PUSH2 0x33B3 JUMPI PUSH0 DUP1 REVERT JUMPDEST PUSH2 0x33BF DUP7 DUP4 DUP8 ADD PUSH2 0x3159 JUMP JUMPDEST SWAP4 POP PUSH1 0x20 DUP6 ADD CALLDATALOAD SWAP2 POP DUP1 DUP3 GT ISZERO PUSH2 0x33D4 JUMPI PUSH0 DUP1 REVERT JUMPDEST POP PUSH2 0x3282 DUP6 DUP3 DUP7 ADD PUSH2 0x3159 JUMP JUMPDEST PUSH0 PUSH1 0x20 DUP3 DUP5 SUB SLT ISZERO PUSH2 0x33F1 JUMPI PUSH0 DUP1 REVERT JUMPDEST POP CALLDATALOAD SWAP2 SWAP1 POP JUMP JUMPDEST PUSH0 DUP1 PUSH0 DUP1 PUSH0 DUP1 PUSH1 0xC0 DUP8 DUP10 SUB SLT ISZERO PUSH2 0x340D JUMPI PUSH0 DUP1 REVERT JUMPDEST DUP7 CALLDATALOAD PUSH1 0x1 PUSH1 0x1 PUSH1 0x40 SHL SUB DUP1 DUP3 GT ISZERO PUSH2 0x3423 JUMPI PUSH0 DUP1 REVERT JUMPDEST PUSH2 0x342F DUP11 DUP4 DUP12 ADD PUSH2 0x3159 JUMP JUMPDEST SWAP8 POP PUSH1 0x20 DUP10 ADD CALLDATALOAD SWAP7 POP PUSH1 0x40 DUP10 ADD CALLDATALOAD SWAP2 POP DUP1 DUP3 GT ISZERO PUSH2 0x344B JUMPI PUSH0 DUP1 REVERT JUMPDEST PUSH2 0x3457 DUP11 DUP4 DUP12 ADD PUSH2 0x3159 JUMP JUMPDEST SWAP6 POP PUSH1 0x60 DUP10 ADD CALLDATALOAD SWAP2 POP DUP1 DUP3 GT ISZERO PUSH2 0x346C JUMPI PUSH0 DUP1 REVERT JUMPDEST PUSH2 0x3478 DUP11 DUP4 DUP12 ADD PUSH2 0x3159 JUMP JUMPDEST SWAP5 POP PUSH1 0x80 DUP10 ADD CALLDATALOAD SWAP2 POP DUP1 DUP3 GT ISZERO PUSH2 0x348D JUMPI PUSH0 DUP1 REVERT JUMPDEST POP PUSH2 0x349A DUP10 DUP3 DUP11 ADD PUSH2 0x3159 JUMP JUMPDEST SWAP3 POP POP PUSH1 0xA0 DUP8 ADD CALLDATALOAD SWAP1 POP SWAP3 SWAP6 POP SWAP3 SWAP6 POP SWAP3 SWAP6 JUMP JUMPDEST PUSH0 DUP1 PUSH0 DUP1 PUSH0 DUP1 PUSH0 PUSH1 0xE0 DUP9 DUP11 SUB SLT ISZERO PUSH2 0x34C4 JUMPI PUSH0 DUP1 REVERT JUMPDEST DUP8 CALLDATALOAD PUSH1 0x1 PUSH1 0x1 PUSH1 0x40 SHL SUB DUP1 DUP3 GT ISZERO PUSH2 0x34DA JUMPI PUSH0 DUP1 REVERT JUMPDEST PUSH2 0x34E6 DUP12 DUP4 DUP13 ADD PUSH2 0x3159 JUMP JUMPDEST SWAP9 POP PUSH1 0x20 DUP11 ADD CALLDATALOAD SWAP2 POP DUP1 DUP3 GT ISZERO PUSH2 0x34FB JUMPI PUSH0 DUP1 REVERT JUMPDEST PUSH2 0x3507 DUP12 DUP4 DUP13 ADD PUSH2 0x3159 JUMP JUMPDEST SWAP8 POP PUSH1 0x40 DUP11 ADD CALLDATALOAD SWAP2 POP DUP1 DUP3 GT ISZERO PUSH2 0x351C JUMPI PUSH0 DUP1 REVERT JUMPDEST PUSH2 0x3528 DUP12 DUP4 DUP13 ADD PUSH2 0x3159 JUMP JUMPDEST SWAP7 POP PUSH1 0x60 DUP11 ADD CALLDATALOAD SWAP2 POP DUP1 DUP3 GT ISZERO PUSH2 0x353D JUMPI PUSH0 DUP1 REVERT JUMPDEST PUSH2 0x3549 DUP12 DUP4 DUP13 ADD PUSH2 0x3159 JUMP JUMPDEST SWAP6 POP PUSH1 0x80 DUP11 ADD CALLDATALOAD SWAP2 POP DUP1 DUP3 GT ISZERO PUSH2 0x355E JUMPI PUSH0 DUP1 REVERT JUMPDEST POP PUSH2 0x356B DUP11 DUP3 DUP12 ADD PUSH2 0x3159 JUMP JUMPDEST SWAP4 POP POP PUSH1 0xA0 DUP9 ADD CALLDATALOAD SWAP2 POP PUSH1 0xC0 DUP9 ADD CALLDATALOAD SWAP1 POP SWAP3 SWAP6 SWAP9 SWAP2 SWAP5 SWAP8 POP SWAP3 SWAP6 POP JUMP JUMPDEST PUSH0 DUP1 PUSH0 PUSH1 0x60 DUP5 DUP7 SUB SLT ISZERO PUSH2 0x359A JUMPI PUSH0 DUP1 REVERT JUMPDEST DUP4 CALLDATALOAD PUSH2 0x35A5 DUP2 PUSH2 0x3010 JUMP JUMPDEST SWAP3 POP PUSH1 0x20 DUP5 ADD CALLDATALOAD PUSH2 0x35B5 DUP2 PUSH2 0x3010 JUMP JUMPDEST SWAP2 POP PUSH1 0x40 DUP5 ADD CALLDATALOAD PUSH2 0x35C5 DUP2 PUSH2 0x3010 JUMP JUMPDEST DUP1 SWAP2 POP POP SWAP3 POP SWAP3 POP SWAP3 JUMP JUMPDEST PUSH0 DUP1 PUSH1 0x40 DUP4 DUP6 SUB SLT ISZERO PUSH2 0x35E1 JUMPI PUSH0 DUP1 REVERT JUMPDEST DUP3 CALLDATALOAD PUSH2 0x35EC DUP2 PUSH2 0x3010 JUMP JUMPDEST SWAP2 POP PUSH1 0x20 DUP4 ADD CALLDATALOAD PUSH2 0x35FC DUP2 PUSH2 0x3010 JUMP JUMPDEST DUP1 SWAP2 POP POP SWAP3 POP SWAP3 SWAP1 POP JUMP JUMPDEST PUSH1 0x1 DUP2 DUP2 SHR SWAP1 DUP3 AND DUP1 PUSH2 0x361B JUMPI PUSH1 0x7F DUP3 AND SWAP2 POP JUMPDEST PUSH1 0x20 DUP3 LT DUP2 SUB PUSH2 0x3639 JUMPI PUSH4 0x4E487B71 PUSH1 0xE0 SHL PUSH0 MSTORE PUSH1 0x22 PUSH1 0x4 MSTORE PUSH1 0x24 PUSH0 REVERT JUMPDEST POP SWAP2 SWAP1 POP JUMP JUMPDEST DUP1 MLOAD DUP1 ISZERO ISZERO DUP2 EQ PUSH2 0x364E JUMPI PUSH0 DUP1 REVERT JUMPDEST SWAP2 SWAP1 POP JUMP JUMPDEST PUSH0 PUSH1 0x20 DUP3 DUP5 SUB SLT ISZERO PUSH2 0x3663 JUMPI PUSH0 DUP1 REVERT JUMPDEST PUSH2 0x712 DUP3 PUSH2 0x363F JUMP JUMPDEST PUSH1 0x20 DUP1 DUP3 MSTORE PUSH1 0x1F SWAP1 DUP3 ADD MSTORE PUSH32 0x43616C6C6572206973206E6F7420616E2061646D696E20616464726573732E00 PUSH1 0x40 DUP3 ADD MSTORE PUSH1 0x60 ADD SWAP1 JUMP JUMPDEST PUSH1 0x20 DUP1 DUP3 MSTORE PUSH1 0x2B SWAP1 DUP3 ADD MSTORE PUSH32 0x43616C6C6572206973206E6F7420616E2061646D696E206F7220206261636B65 PUSH1 0x40 DUP3 ADD MSTORE PUSH11 0x37321030B2323932B9B997 PUSH1 0xA9 SHL PUSH1 0x60 DUP3 ADD MSTORE PUSH1 0x80 ADD SWAP1 JUMP JUMPDEST PUSH1 0x20 DUP1 DUP3 MSTORE PUSH1 0x28 SWAP1 DUP3 ADD MSTORE PUSH32 0x4163636F756E74206E6F742072656769737465726564206F7220697320626C61 PUSH1 0x40 DUP3 ADD MSTORE PUSH8 0x18DADB1A5CDD1959 PUSH1 0xC2 SHL PUSH1 0x60 DUP3 ADD MSTORE PUSH1 0x80 ADD SWAP1 JUMP JUMPDEST PUSH1 0x40 DUP2 MSTORE PUSH0 PUSH2 0x3748 PUSH1 0x40 DUP4 ADD DUP6 PUSH2 0x2FD0 JUMP JUMPDEST SWAP1 POP DUP3 PUSH1 0x20 DUP4 ADD MSTORE SWAP4 SWAP3 POP POP POP JUMP JUMPDEST PUSH1 0x20 DUP1 DUP3 MSTORE PUSH1 0x2A SWAP1 DUP3 ADD MSTORE PUSH32 0x4163636F756E7420646F6573206E6F7420686176652074686520617070726F70 PUSH1 0x40 DUP3 ADD MSTORE PUSH10 0x726961746520726F6C65 PUSH1 0xB0 SHL PUSH1 0x60 DUP3 ADD MSTORE PUSH1 0x80 ADD SWAP1 JUMP JUMPDEST PUSH0 DUP2 MLOAD DUP1 PUSH1 0x20 DUP5 ADD DUP6 MCOPY PUSH0 SWAP4 ADD SWAP3 DUP4 MSTORE POP SWAP1 SWAP2 SWAP1 POP JUMP JUMPDEST PUSH0 PUSH2 0x712 DUP3 DUP5 PUSH2 0x37A1 JUMP JUMPDEST PUSH1 0x20 DUP1 DUP3 MSTORE PUSH1 0x29 SWAP1 DUP3 ADD MSTORE PUSH32 0x5665726966696572206E6F74207265676973746572656420666F722074686973 PUSH1 0x40 DUP3 ADD MSTORE PUSH9 0x10383937B23AB1B2B9 PUSH1 0xB9 SHL PUSH1 0x60 DUP3 ADD MSTORE PUSH1 0x80 ADD SWAP1 JUMP JUMPDEST PUSH0 DUP3 PUSH1 0x1F DUP4 ADD SLT PUSH2 0x381B JUMPI PUSH0 DUP1 REVERT JUMPDEST DUP2 MLOAD PUSH2 0x3829 PUSH2 0x312B DUP3 PUSH2 0x30F8 JUMP JUMPDEST DUP2 DUP2 MSTORE DUP5 PUSH1 0x20 DUP4 DUP7 ADD ADD GT ISZERO PUSH2 0x383D JUMPI PUSH0 DUP1 REVERT JUMPDEST DUP2 PUSH1 0x20 DUP6 ADD PUSH1 0x20 DUP4 ADD MCOPY PUSH0 SWAP2 DUP2 ADD PUSH1 0x20 ADD SWAP2 SWAP1 SWAP2 MSTORE SWAP4 SWAP3 POP POP POP JUMP JUMPDEST PUSH0 PUSH1 0x20 DUP3 DUP5 SUB SLT ISZERO PUSH2 0x3869 JUMPI PUSH0 DUP1 REVERT JUMPDEST DUP2 MLOAD PUSH1 0x1 PUSH1 0x1 PUSH1 0x40 SHL SUB DUP1 DUP3 GT ISZERO PUSH2 0x387F JUMPI PUSH0 DUP1 REVERT JUMPDEST SWAP1 DUP4 ADD SWAP1 PUSH1 0xA0 DUP3 DUP7 SUB SLT ISZERO PUSH2 0x3892 JUMPI PUSH0 DUP1 REVERT JUMPDEST PUSH2 0x389A PUSH2 0x30A0 JUMP JUMPDEST DUP3 MLOAD DUP3 DUP2 GT ISZERO PUSH2 0x38A8 JUMPI PUSH0 DUP1 REVERT JUMPDEST PUSH2 0x38B4 DUP8 DUP3 DUP7 ADD PUSH2 0x380C JUMP JUMPDEST DUP3 MSTORE POP PUSH1 0x20 DUP4 ADD MLOAD SWAP2 POP PUSH2 0x38C7 DUP3 PUSH2 0x3010 JUMP JUMPDEST DUP2 PUSH1 0x20 DUP3 ADD MSTORE PUSH2 0x38D9 PUSH1 0x40 DUP5 ADD PUSH2 0x363F JUMP JUMPDEST PUSH1 0x40 DUP3 ADD MSTORE PUSH1 0x60 DUP4 ADD MLOAD PUSH1 0x60 DUP3 ADD MSTORE PUSH2 0x38F4 PUSH1 0x80 DUP5 ADD PUSH2 0x363F JUMP JUMPDEST PUSH1 0x80 DUP3 ADD MSTORE SWAP6 SWAP5 POP POP POP POP POP JUMP JUMPDEST PUSH4 0x4E487B71 PUSH1 0xE0 SHL PUSH0 MSTORE PUSH1 0x11 PUSH1 0x4 MSTORE PUSH1 0x24 PUSH0 REVERT JUMPDEST DUP2 DUP2 SUB DUP2 DUP2 GT ISZERO PUSH2 0x6EE JUMPI PUSH2 0x6EE PUSH2 0x3902 JUMP JUMPDEST DUP1 DUP3 ADD DUP1 DUP3 GT ISZERO PUSH2 0x6EE JUMPI PUSH2 0x6EE PUSH2 0x3902 JUMP JUMPDEST DUP1 DUP3 ADD DUP3 DUP2 SLT PUSH0 DUP4 SLT DUP1 ISZERO DUP3 AND DUP3 ISZERO DUP3 AND OR ISZERO PUSH2 0x395B JUMPI PUSH2 0x395B PUSH2 0x3902 JUMP JUMPDEST POP POP SWAP3 SWAP2 POP POP JUMP JUMPDEST PUSH1 0xA0 DUP2 MSTORE PUSH0 PUSH2 0x3975 PUSH1 0xA0 DUP4 ADD DUP9 PUSH2 0x2FD0 JUMP JUMPDEST DUP3 DUP2 SUB PUSH1 0x20 DUP5 ADD MSTORE PUSH2 0x3987 DUP2 DUP9 PUSH2 0x2FD0 JUMP JUMPDEST SWAP1 POP DUP3 DUP2 SUB PUSH1 0x40 DUP5 ADD MSTORE PUSH2 0x399B DUP2 DUP8 PUSH2 0x2FD0 JUMP JUMPDEST PUSH1 0x60 DUP5 ADD SWAP6 SWAP1 SWAP6 MSTORE POP POP PUSH1 0x80 ADD MSTORE SWAP4 SWAP3 POP POP POP JUMP JUMPDEST PUSH1 0x1F DUP3 GT ISZERO PUSH2 0xEAA JUMPI DUP1 PUSH0 MSTORE PUSH1 0x20 PUSH0 KECCAK256 PUSH1 0x1F DUP5 ADD PUSH1 0x5 SHR DUP2 ADD PUSH1 0x20 DUP6 LT ISZERO PUSH2 0x39D5 JUMPI POP DUP1 JUMPDEST PUSH1 0x1F DUP5 ADD PUSH1 0x5 SHR DUP3 ADD SWAP2 POP JUMPDEST DUP2 DUP2 LT ISZERO PUSH2 0x15CE JUMPI PUSH0 DUP2 SSTORE PUSH1 0x1 ADD PUSH2 0x39E1 JUMP JUMPDEST DUP2 MLOAD PUSH1 0x1 PUSH1 0x1 PUSH1 0x40 SHL SUB DUP2 GT ISZERO PUSH2 0x3A0D JUMPI PUSH2 0x3A0D PUSH2 0x308C JUMP JUMPDEST PUSH2 0x3A21 DUP2 PUSH2 0x3A1B DUP5 SLOAD PUSH2 0x3607 JUMP JUMPDEST DUP5 PUSH2 0x39B0 JUMP JUMPDEST PUSH1 0x20 DUP1 PUSH1 0x1F DUP4 GT PUSH1 0x1 DUP2 EQ PUSH2 0x3A54 JUMPI PUSH0 DUP5 ISZERO PUSH2 0x3A3D JUMPI POP DUP6 DUP4 ADD MLOAD JUMPDEST PUSH0 NOT PUSH1 0x3 DUP7 SWAP1 SHL SHR NOT AND PUSH1 0x1 DUP6 SWAP1 SHL OR DUP6 SSTORE PUSH2 0x3AAB JUMP JUMPDEST PUSH0 DUP6 DUP2 MSTORE PUSH1 0x20 DUP2 KECCAK256 PUSH1 0x1F NOT DUP7 AND SWAP2 JUMPDEST DUP3 DUP2 LT ISZERO PUSH2 0x3A82 JUMPI DUP9 DUP7 ADD MLOAD DUP3 SSTORE SWAP5 DUP5 ADD SWAP5 PUSH1 0x1 SWAP1 SWAP2 ADD SWAP1 DUP5 ADD PUSH2 0x3A63 JUMP JUMPDEST POP DUP6 DUP3 LT ISZERO PUSH2 0x3A9F JUMPI DUP8 DUP6 ADD MLOAD PUSH0 NOT PUSH1 0x3 DUP9 SWAP1 SHL PUSH1 0xF8 AND SHR NOT AND DUP2 SSTORE JUMPDEST POP POP PUSH1 0x1 DUP5 PUSH1 0x1 SHL ADD DUP6 SSTORE JUMPDEST POP POP POP POP POP POP JUMP JUMPDEST PUSH1 0x80 DUP2 MSTORE PUSH0 PUSH2 0x3AC5 PUSH1 0x80 DUP4 ADD DUP8 PUSH2 0x2FD0 JUMP JUMPDEST DUP3 DUP2 SUB PUSH1 0x20 DUP5 ADD MSTORE PUSH2 0x3AD7 DUP2 DUP8 PUSH2 0x2FD0 JUMP JUMPDEST SWAP1 POP DUP3 DUP2 SUB PUSH1 0x40 DUP5 ADD MSTORE PUSH2 0x3AEB DUP2 DUP7 PUSH2 0x2FD0 JUMP JUMPDEST SWAP2 POP POP DUP3 PUSH1 0x60 DUP4 ADD MSTORE SWAP6 SWAP5 POP POP POP POP POP JUMP JUMPDEST DUP3 DUP2 MSTORE PUSH1 0x40 PUSH1 0x20 DUP3 ADD MSTORE PUSH0 PUSH2 0x32D8 PUSH1 0x40 DUP4 ADD DUP5 PUSH2 0x2FD0 JUMP JUMPDEST PUSH0 PUSH1 0x20 DUP3 DUP5 SUB SLT ISZERO PUSH2 0x3B25 JUMPI PUSH0 DUP1 REVERT JUMPDEST POP MLOAD SWAP2 SWAP1 POP JUMP JUMPDEST PUSH1 0x60 DUP2 MSTORE PUSH0 PUSH2 0x3B3E PUSH1 0x60 DUP4 ADD DUP7 PUSH2 0x2FD0 JUMP JUMPDEST DUP3 DUP2 SUB PUSH1 0x20 DUP5 ADD MSTORE PUSH2 0x3B50 DUP2 DUP7 PUSH2 0x2FD0 JUMP JUMPDEST SWAP2 POP POP DUP3 PUSH1 0x40 DUP4 ADD MSTORE SWAP5 SWAP4 POP POP POP POP JUMP JUMPDEST PUSH1 0xC0 DUP2 MSTORE PUSH0 PUSH2 0x3B73 PUSH1 0xC0 DUP4 ADD DUP10 PUSH2 0x2FD0 JUMP JUMPDEST DUP3 DUP2 SUB PUSH1 0x20 DUP5 ADD MSTORE PUSH2 0x3B85 DUP2 DUP10 PUSH2 0x2FD0 JUMP JUMPDEST SWAP1 POP DUP3 DUP2 SUB PUSH1 0x40 DUP5 ADD MSTORE PUSH2 0x3B99 DUP2 DUP9 PUSH2 0x2FD0 JUMP JUMPDEST SWAP1 POP DUP3 DUP2 SUB PUSH1 0x60 DUP5 ADD MSTORE PUSH2 0x3BAD DUP2 DUP8 PUSH2 0x2FD0 JUMP JUMPDEST PUSH1 0x80 DUP5 ADD SWAP6 SWAP1 SWAP6 MSTORE POP POP PUSH1 0xA0 ADD MSTORE SWAP5 SWAP4 POP POP POP POP JUMP JUMPDEST PUSH0 PUSH1 0x1 PUSH1 0x1 PUSH1 0xFF SHL ADD DUP3 ADD PUSH2 0x3BDA JUMPI PUSH2 0x3BDA PUSH2 0x3902 JUMP JUMPDEST POP PUSH1 0x1 ADD SWAP1 JUMP JUMPDEST PUSH4 0x4E487B71 PUSH1 0xE0 SHL PUSH0 MSTORE PUSH1 0x32 PUSH1 0x4 MSTORE PUSH1 0x24 PUSH0 REVERT JUMPDEST PUSH1 0xFF DUP2 DUP2 AND DUP4 DUP3 AND ADD SWAP1 DUP2 GT ISZERO PUSH2 0x6EE JUMPI PUSH2 0x6EE PUSH2 0x3902 JUMP JUMPDEST PUSH0 PUSH1 0x20 DUP3 DUP5 SUB SLT ISZERO PUSH2 0x3C1E JUMPI PUSH0 DUP1 REVERT JUMPDEST DUP2 MLOAD PUSH2 0x712 DUP2 PUSH2 0x3010 JUMP JUMPDEST PUSH0 PUSH1 0x20 DUP1 DUP4 DUP6 SUB SLT ISZERO PUSH2 0x3C3A JUMPI PUSH0 DUP1 REVERT JUMPDEST DUP3 MLOAD PUSH1 0x1 PUSH1 0x1 PUSH1 0x40 SHL SUB DUP1 DUP3 GT ISZERO PUSH2 0x3C50 JUMPI PUSH0 DUP1 REVERT JUMPDEST DUP2 DUP6 ADD SWAP2 POP DUP6 PUSH1 0x1F DUP4 ADD SLT PUSH2 0x3C63 JUMPI PUSH0 DUP1 REVERT JUMPDEST DUP2 MLOAD DUP2 DUP2 GT ISZERO PUSH2 0x3C75 JUMPI PUSH2 0x3C75 PUSH2 0x308C JUMP JUMPDEST DUP1 PUSH1 0x5 SHL PUSH2 0x3C84 DUP6 DUP3 ADD PUSH2 0x30C8 JUMP JUMPDEST SWAP2 DUP3 MSTORE DUP4 DUP2 ADD DUP6 ADD SWAP2 DUP6 DUP2 ADD SWAP1 DUP10 DUP5 GT ISZERO PUSH2 0x3C9D JUMPI PUSH0 DUP1 REVERT JUMPDEST DUP7 DUP7 ADD SWAP3 POP JUMPDEST DUP4 DUP4 LT ISZERO PUSH2 0x3CD7 JUMPI DUP3 MLOAD DUP6 DUP2 GT ISZERO PUSH2 0x3CB9 JUMPI PUSH0 DUP1 REVERT JUMPDEST PUSH2 0x3CC7 DUP12 DUP10 DUP4 DUP11 ADD ADD PUSH2 0x380C JUMP JUMPDEST DUP4 MSTORE POP SWAP2 DUP7 ADD SWAP2 SWAP1 DUP7 ADD SWAP1 PUSH2 0x3CA3 JUMP JUMPDEST SWAP10 SWAP9 POP POP POP POP POP POP POP POP POP JUMP INVALID CALLDATASIZE ADDMOD SWAP5 LOG1 EXTCODESIZE LOG1 LOG3 0x21 MOD PUSH8 0xC828492DB98DCA3E KECCAK256 PUSH23 0xCC3735A920A3CA505D382BBCA2646970667358221220BF DUP10 0xC6 LOG2 0xC4 CREATE2 REVERT GASPRICE TLOAD ADDMOD 0xBD CALL STOP DUP1 SSTORE 0xC4 SWAP7 PUSH26 0x9A6F1C449E2BB25E65816878367F64736F6C6343000819003300 "
		},
		"gasEstimates": {
			"creation": {
				"codeDepositCost": "3134800",
				"executionCost": "infinite",
				"totalCost": "infinite"
			},
			"external": {
				"ADMIN_ROLE()": "283",
				"BACKEND_ROLE()": "261",
				"INVESTOR_ROLE()": "305",
				"MIN_RECOVERY_DURATION()": "240",
				"PRODUCER_ROLE()": "260",
				"UPGRADE_INTERFACE_VERSION()": "infinite",
				"VERIFIER_ROLE()": "304",
				"accountManager()": "2381",
				"allowance(address,address)": "infinite",
				"approve(address,uint256)": "24775",
				"balanceOf(address)": "2598",
				"buyCredits(string,string,string,string,uint256,uint256)": "infinite",
				"decimals()": "266",
				"donateCredits(string,string,string,string,uint256)": "infinite",
				"initialize(address,address,address)": "infinite",
				"issueCredits(string,uint256,string,string,string,uint256)": "infinite",
				"name()": "infinite",
				"npcNFT()": "2449",
				"pause()": "infinite",
				"paused()": "2348",
				"proxiableUUID()": "infinite",
				"recoveryDuration()": "2406",
				"registerProducer(string)": "infinite",
				"registerVerifier(string,string)": "infinite",
				"setRecoveryDuration(uint256)": "infinite",
				"symbol()": "infinite",
				"totalSupply()": "2371",
				"transfer(address,uint256)": "51255",
				"transferCredits(string,string,string,string,string,uint256,uint256)": "infinite",
				"transferFrom(address,address,uint256)": "infinite",
				"unpause()": "infinite",
				"upgradeToAndCall(address,bytes)": "infinite"
			},
			"internal": {
				"_authorizeUpgrade(address)": "infinite",
				"_mintCertificate(string memory,string memory,string memory,string memory,uint256,uint256)": "infinite",
				"_toLowerCase(string memory)": "infinite",
				"isAllowedCreditType(uint256,string memory)": "infinite",
				"ownerOfNFT(string memory,uint256)": "infinite"
			}
		},
		"methodIdentifiers": {
			"ADMIN_ROLE()": "75b238fc",
			"BACKEND_ROLE()": "92c2becc",
			"INVESTOR_ROLE()": "76082a5e",
			"MIN_RECOVERY_DURATION()": "1aa9edcc",
			"PRODUCER_ROLE()": "cb3e1fe7",
			"UPGRADE_INTERFACE_VERSION()": "ad3cb1cc",
			"VERIFIER_ROLE()": "e7705db6",
			"accountManager()": "91c2c469",
			"allowance(address,address)": "dd62ed3e",
			"approve(address,uint256)": "095ea7b3",
			"balanceOf(address)": "70a08231",
			"buyCredits(string,string,string,string,uint256,uint256)": "47c10d90",
			"decimals()": "313ce567",
			"donateCredits(string,string,string,string,uint256)": "879bf106",
			"initialize(address,address,address)": "c0c53b8b",
			"issueCredits(string,uint256,string,string,string,uint256)": "b783bdec",
			"name()": "06fdde03",
			"npcNFT()": "192ffe76",
			"pause()": "8456cb59",
			"paused()": "5c975abb",
			"proxiableUUID()": "52d1902d",
			"recoveryDuration()": "54761a2a",
			"registerProducer(string)": "775dd988",
			"registerVerifier(string,string)": "889d5b91",
			"setRecoveryDuration(uint256)": "a01f271f",
			"symbol()": "95d89b41",
			"totalSupply()": "18160ddd",
			"transfer(address,uint256)": "a9059cbb",
			"transferCredits(string,string,string,string,string,uint256,uint256)": "c08440e5",
			"transferFrom(address,address,uint256)": "23b872dd",
			"unpause()": "3f4ba83a",
			"upgradeToAndCall(address,bytes)": "4f1ef286"
		}
	},
	"abi": [
		{
			"inputs": [],
			"stateMutability": "nonpayable",
			"type": "constructor"
		},
		{
			"inputs": [
				{
					"internalType": "address",
					"name": "target",
					"type": "address"
				}
			],
			"name": "AddressEmptyCode",
			"type": "error"
		},
		{
			"inputs": [
				{
					"internalType": "address",
					"name": "implementation",
					"type": "address"
				}
			],
			"name": "ERC1967InvalidImplementation",
			"type": "error"
		},
		{
			"inputs": [],
			"name": "ERC1967NonPayable",
			"type": "error"
		},
		{
			"inputs": [
				{
					"internalType": "address",
					"name": "spender",
					"type": "address"
				},
				{
					"internalType": "uint256",
					"name": "allowance",
					"type": "uint256"
				},
				{
					"internalType": "uint256",
					"name": "needed",
					"type": "uint256"
				}
			],
			"name": "ERC20InsufficientAllowance",
			"type": "error"
		},
		{
			"inputs": [
				{
					"internalType": "address",
					"name": "sender",
					"type": "address"
				},
				{
					"internalType": "uint256",
					"name": "balance",
					"type": "uint256"
				},
				{
					"internalType": "uint256",
					"name": "needed",
					"type": "uint256"
				}
			],
			"name": "ERC20InsufficientBalance",
			"type": "error"
		},
		{
			"inputs": [
				{
					"internalType": "address",
					"name": "approver",
					"type": "address"
				}
			],
			"name": "ERC20InvalidApprover",
			"type": "error"
		},
		{
			"inputs": [
				{
					"internalType": "address",
					"name": "receiver",
					"type": "address"
				}
			],
			"name": "ERC20InvalidReceiver",
			"type": "error"
		},
		{
			"inputs": [
				{
					"internalType": "address",
					"name": "sender",
					"type": "address"
				}
			],
			"name": "ERC20InvalidSender",
			"type": "error"
		},
		{
			"inputs": [
				{
					"internalType": "address",
					"name": "spender",
					"type": "address"
				}
			],
			"name": "ERC20InvalidSpender",
			"type": "error"
		},
		{
			"inputs": [],
			"name": "FailedInnerCall",
			"type": "error"
		},
		{
			"inputs": [],
			"name": "InvalidInitialization",
			"type": "error"
		},
		{
			"inputs": [],
			"name": "NotInitializing",
			"type": "error"
		},
		{
			"inputs": [],
			"name": "UUPSUnauthorizedCallContext",
			"type": "error"
		},
		{
			"inputs": [
				{
					"internalType": "bytes32",
					"name": "slot",
					"type": "bytes32"
				}
			],
			"name": "UUPSUnsupportedProxiableUUID",
			"type": "error"
		},
		{
			"anonymous": false,
			"inputs": [
				{
					"indexed": true,
					"internalType": "address",
					"name": "owner",
					"type": "address"
				},
				{
					"indexed": true,
					"internalType": "address",
					"name": "spender",
					"type": "address"
				},
				{
					"indexed": false,
					"internalType": "uint256",
					"name": "value",
					"type": "uint256"
				}
			],
			"name": "Approval",
			"type": "event"
		},
		{
			"anonymous": false,
			"inputs": [
				{
					"indexed": true,
					"internalType": "int256",
					"name": "certificateId",
					"type": "int256"
				},
				{
					"indexed": true,
					"internalType": "string",
					"name": "accountID",
					"type": "string"
				},
				{
					"indexed": false,
					"internalType": "string",
					"name": "producer",
					"type": "string"
				},
				{
					"indexed": false,
					"internalType": "string",
					"name": "verifier",
					"type": "string"
				},
				{
					"indexed": false,
					"internalType": "string",
					"name": "creditType",
					"type": "string"
				},
				{
					"indexed": false,
					"internalType": "uint256",
					"name": "balance",
					"type": "uint256"
				}
			],
			"name": "CertificateCreated",
			"type": "event"
		},
		{
			"anonymous": false,
			"inputs": [
				{
					"indexed": true,
					"internalType": "string",
					"name": "accountID",
					"type": "string"
				},
				{
					"indexed": false,
					"internalType": "string",
					"name": "producer",
					"type": "string"
				},
				{
					"indexed": false,
					"internalType": "string",
					"name": "verifier",
					"type": "string"
				},
				{
					"indexed": false,
					"internalType": "string",
					"name": "creditType",
					"type": "string"
				},
				{
					"indexed": false,
					"internalType": "uint256",
					"name": "amount",
					"type": "uint256"
				},
				{
					"indexed": false,
					"internalType": "uint256",
					"name": "price",
					"type": "uint256"
				}
			],
			"name": "CreditsBought",
			"type": "event"
		},
		{
			"anonymous": false,
			"inputs": [
				{
					"indexed": true,
					"internalType": "string",
					"name": "accountID",
					"type": "string"
				},
				{
					"indexed": false,
					"internalType": "string",
					"name": "producer",
					"type": "string"
				},
				{
					"indexed": false,
					"internalType": "string",
					"name": "verifier",
					"type": "string"
				},
				{
					"indexed": false,
					"internalType": "string",
					"name": "creditType",
					"type": "string"
				},
				{
					"indexed": false,
					"internalType": "uint256",
					"name": "amount",
					"type": "uint256"
				}
			],
			"name": "CreditsDonated",
			"type": "event"
		},
		{
			"anonymous": false,
			"inputs": [
				{
					"indexed": true,
					"internalType": "string",
					"name": "producer",
					"type": "string"
				},
				{
					"indexed": false,
					"internalType": "string",
					"name": "verifier",
					"type": "string"
				},
				{
					"indexed": false,
					"internalType": "string",
					"name": "creditType",
					"type": "string"
				},
				{
					"indexed": false,
					"internalType": "uint256",
					"name": "amount",
					"type": "uint256"
				}
			],
			"name": "CreditsIssued",
			"type": "event"
		},
		{
			"anonymous": false,
			"inputs": [
				{
					"indexed": true,
					"internalType": "string",
					"name": "senderAccountID",
					"type": "string"
				},
				{
					"indexed": false,
					"internalType": "string",
					"name": "receiverAccountID",
					"type": "string"
				},
				{
					"indexed": false,
					"internalType": "string",
					"name": "producer",
					"type": "string"
				},
				{
					"indexed": false,
					"internalType": "string",
					"name": "verifier",
					"type": "string"
				},
				{
					"indexed": false,
					"internalType": "string",
					"name": "creditType",
					"type": "string"
				},
				{
					"indexed": false,
					"internalType": "uint256",
					"name": "amount",
					"type": "uint256"
				},
				{
					"indexed": false,
					"internalType": "uint256",
					"name": "price",
					"type": "uint256"
				}
			],
			"name": "CreditsTransferred",
			"type": "event"
		},
		{
			"anonymous": false,
			"inputs": [
				{
					"indexed": false,
					"internalType": "uint64",
					"name": "version",
					"type": "uint64"
				}
			],
			"name": "Initialized",
			"type": "event"
		},
		{
			"anonymous": false,
			"inputs": [
				{
					"indexed": false,
					"internalType": "address",
					"name": "account",
					"type": "address"
				}
			],
			"name": "Paused",
			"type": "event"
		},
		{
			"anonymous": false,
			"inputs": [
				{
					"indexed": true,
					"internalType": "string",
					"name": "accountID",
					"type": "string"
				},
				{
					"indexed": false,
					"internalType": "uint256",
					"name": "amount",
					"type": "uint256"
				}
			],
			"name": "TokensRecovered",
			"type": "event"
		},
		{
			"anonymous": false,
			"inputs": [
				{
					"indexed": true,
					"internalType": "address",
					"name": "from",
					"type": "address"
				},
				{
					"indexed": true,
					"internalType": "address",
					"name": "to",
					"type": "address"
				},
				{
					"indexed": false,
					"internalType": "uint256",
					"name": "value",
					"type": "uint256"
				}
			],
			"name": "Transfer",
			"type": "event"
		},
		{
			"anonymous": false,
			"inputs": [
				{
					"indexed": false,
					"internalType": "address",
					"name": "account",
					"type": "address"
				}
			],
			"name": "Unpaused",
			"type": "event"
		},
		{
			"anonymous": false,
			"inputs": [
				{
					"indexed": true,
					"internalType": "address",
					"name": "implementation",
					"type": "address"
				}
			],
			"name": "Upgraded",
			"type": "event"
		},
		{
			"inputs": [],
			"name": "ADMIN_ROLE",
			"outputs": [
				{
					"internalType": "bytes32",
					"name": "",
					"type": "bytes32"
				}
			],
			"stateMutability": "view",
			"type": "function"
		},
		{
			"inputs": [],
			"name": "BACKEND_ROLE",
			"outputs": [
				{
					"internalType": "bytes32",
					"name": "",
					"type": "bytes32"
				}
			],
			"stateMutability": "view",
			"type": "function"
		},
		{
			"inputs": [],
			"name": "INVESTOR_ROLE",
			"outputs": [
				{
					"internalType": "bytes32",
					"name": "",
					"type": "bytes32"
				}
			],
			"stateMutability": "view",
			"type": "function"
		},
		{
			"inputs": [],
			"name": "MIN_RECOVERY_DURATION",
			"outputs": [
				{
					"internalType": "uint256",
					"name": "",
					"type": "uint256"
				}
			],
			"stateMutability": "view",
			"type": "function"
		},
		{
			"inputs": [],
			"name": "PRODUCER_ROLE",
			"outputs": [
				{
					"internalType": "bytes32",
					"name": "",
					"type": "bytes32"
				}
			],
			"stateMutability": "view",
			"type": "function"
		},
		{
			"inputs": [],
			"name": "UPGRADE_INTERFACE_VERSION",
			"outputs": [
				{
					"internalType": "string",
					"name": "",
					"type": "string"
				}
			],
			"stateMutability": "view",
			"type": "function"
		},
		{
			"inputs": [],
			"name": "VERIFIER_ROLE",
			"outputs": [
				{
					"internalType": "bytes32",
					"name": "",
					"type": "bytes32"
				}
			],
			"stateMutability": "view",
			"type": "function"
		},
		{
			"inputs": [],
			"name": "accountManager",
			"outputs": [
				{
					"internalType": "contract NPC_AccountManager",
					"name": "",
					"type": "address"
				}
			],
			"stateMutability": "view",
			"type": "function"
		},
		{
			"inputs": [
				{
					"internalType": "address",
					"name": "owner",
					"type": "address"
				},
				{
					"internalType": "address",
					"name": "spender",
					"type": "address"
				}
			],
			"name": "allowance",
			"outputs": [
				{
					"internalType": "uint256",
					"name": "",
					"type": "uint256"
				}
			],
			"stateMutability": "view",
			"type": "function"
		},
		{
			"inputs": [
				{
					"internalType": "address",
					"name": "spender",
					"type": "address"
				},
				{
					"internalType": "uint256",
					"name": "value",
					"type": "uint256"
				}
			],
			"name": "approve",
			"outputs": [
				{
					"internalType": "bool",
					"name": "",
					"type": "bool"
				}
			],
			"stateMutability": "nonpayable",
			"type": "function"
		},
		{
			"inputs": [
				{
					"internalType": "address",
					"name": "account",
					"type": "address"
				}
			],
			"name": "balanceOf",
			"outputs": [
				{
					"internalType": "uint256",
					"name": "",
					"type": "uint256"
				}
			],
			"stateMutability": "view",
			"type": "function"
		},
		{
			"inputs": [
				{
					"internalType": "string",
					"name": "accountID",
					"type": "string"
				},
				{
					"internalType": "string",
					"name": "producer",
					"type": "string"
				},
				{
					"internalType": "string",
					"name": "verifier",
					"type": "string"
				},
				{
					"internalType": "string",
					"name": "creditType",
					"type": "string"
				},
				{
					"internalType": "uint256",
					"name": "amount",
					"type": "uint256"
				},
				{
					"internalType": "uint256",
					"name": "price",
					"type": "uint256"
				}
			],
			"name": "buyCredits",
			"outputs": [],
			"stateMutability": "nonpayable",
			"type": "function"
		},
		{
			"inputs": [],
			"name": "decimals",
			"outputs": [
				{
					"internalType": "uint8",
					"name": "",
					"type": "uint8"
				}
			],
			"stateMutability": "view",
			"type": "function"
		},
		{
			"inputs": [
				{
					"internalType": "string",
					"name": "senderID",
					"type": "string"
				},
				{
					"internalType": "string",
					"name": "producer",
					"type": "string"
				},
				{
					"internalType": "string",
					"name": "verifier",
					"type": "string"
				},
				{
					"internalType": "string",
					"name": "creditType",
					"type": "string"
				},
				{
					"internalType": "uint256",
					"name": "amount",
					"type": "uint256"
				}
			],
			"name": "donateCredits",
			"outputs": [],
			"stateMutability": "nonpayable",
			"type": "function"
		},
		{
			"inputs": [
				{
					"internalType": "address",
					"name": "_npcNFT",
					"type": "address"
				},
				{
					"internalType": "address",
					"name": "accountManagerAddress",
					"type": "address"
				},
				{
					"internalType": "address",
					"name": "roleManagerAddress",
					"type": "address"
				}
			],
			"name": "initialize",
			"outputs": [],
			"stateMutability": "nonpayable",
			"type": "function"
		},
		{
			"inputs": [
				{
					"internalType": "string",
					"name": "senderID",
					"type": "string"
				},
				{
					"internalType": "uint256",
					"name": "nftTokenId",
					"type": "uint256"
				},
				{
					"internalType": "string",
					"name": "producer",
					"type": "string"
				},
				{
					"internalType": "string",
					"name": "verifier",
					"type": "string"
				},
				{
					"internalType": "string",
					"name": "creditType",
					"type": "string"
				},
				{
					"internalType": "uint256",
					"name": "amount",
					"type": "uint256"
				}
			],
			"name": "issueCredits",
			"outputs": [
				{
					"internalType": "bool",
					"name": "",
					"type": "bool"
				}
			],
			"stateMutability": "nonpayable",
			"type": "function"
		},
		{
			"inputs": [],
			"name": "name",
			"outputs": [
				{
					"internalType": "string",
					"name": "",
					"type": "string"
				}
			],
			"stateMutability": "view",
			"type": "function"
		},
		{
			"inputs": [],
			"name": "npcNFT",
			"outputs": [
				{
					"internalType": "contract INPCNFT",
					"name": "",
					"type": "address"
				}
			],
			"stateMutability": "view",
			"type": "function"
		},
		{
			"inputs": [],
			"name": "pause",
			"outputs": [],
			"stateMutability": "nonpayable",
			"type": "function"
		},
		{
			"inputs": [],
			"name": "paused",
			"outputs": [
				{
					"internalType": "bool",
					"name": "",
					"type": "bool"
				}
			],
			"stateMutability": "view",
			"type": "function"
		},
		{
			"inputs": [],
			"name": "proxiableUUID",
			"outputs": [
				{
					"internalType": "bytes32",
					"name": "",
					"type": "bytes32"
				}
			],
			"stateMutability": "view",
			"type": "function"
		},
		{
			"inputs": [],
			"name": "recoveryDuration",
			"outputs": [
				{
					"internalType": "uint256",
					"name": "",
					"type": "uint256"
				}
			],
			"stateMutability": "view",
			"type": "function"
		},
		{
			"inputs": [
				{
					"internalType": "string",
					"name": "producer",
					"type": "string"
				}
			],
			"name": "registerProducer",
			"outputs": [],
			"stateMutability": "nonpayable",
			"type": "function"
		},
		{
			"inputs": [
				{
					"internalType": "string",
					"name": "producer",
					"type": "string"
				},
				{
					"internalType": "string",
					"name": "verifier",
					"type": "string"
				}
			],
			"name": "registerVerifier",
			"outputs": [],
			"stateMutability": "nonpayable",
			"type": "function"
		},
		{
			"inputs": [
				{
					"internalType": "uint256",
					"name": "duration",
					"type": "uint256"
				}
			],
			"name": "setRecoveryDuration",
			"outputs": [],
			"stateMutability": "nonpayable",
			"type": "function"
		},
		{
			"inputs": [],
			"name": "symbol",
			"outputs": [
				{
					"internalType": "string",
					"name": "",
					"type": "string"
				}
			],
			"stateMutability": "view",
			"type": "function"
		},
		{
			"inputs": [],
			"name": "totalSupply",
			"outputs": [
				{
					"internalType": "uint256",
					"name": "",
					"type": "uint256"
				}
			],
			"stateMutability": "view",
			"type": "function"
		},
		{
			"inputs": [
				{
					"internalType": "address",
					"name": "to",
					"type": "address"
				},
				{
					"internalType": "uint256",
					"name": "value",
					"type": "uint256"
				}
			],
			"name": "transfer",
			"outputs": [
				{
					"internalType": "bool",
					"name": "",
					"type": "bool"
				}
			],
			"stateMutability": "nonpayable",
			"type": "function"
		},
		{
			"inputs": [
				{
					"internalType": "string",
					"name": "senderID",
					"type": "string"
				},
				{
					"internalType": "string",
					"name": "recipientID",
					"type": "string"
				},
				{
					"internalType": "string",
					"name": "producer",
					"type": "string"
				},
				{
					"internalType": "string",
					"name": "verifier",
					"type": "string"
				},
				{
					"internalType": "string",
					"name": "creditType",
					"type": "string"
				},
				{
					"internalType": "uint256",
					"name": "amount",
					"type": "uint256"
				},
				{
					"internalType": "uint256",
					"name": "price",
					"type": "uint256"
				}
			],
			"name": "transferCredits",
			"outputs": [],
			"stateMutability": "nonpayable",
			"type": "function"
		},
		{
			"inputs": [
				{
					"internalType": "address",
					"name": "from",
					"type": "address"
				},
				{
					"internalType": "address",
					"name": "to",
					"type": "address"
				},
				{
					"internalType": "uint256",
					"name": "value",
					"type": "uint256"
				}
			],
			"name": "transferFrom",
			"outputs": [
				{
					"internalType": "bool",
					"name": "",
					"type": "bool"
				}
			],
			"stateMutability": "nonpayable",
			"type": "function"
		},
		{
			"inputs": [],
			"name": "unpause",
			"outputs": [],
			"stateMutability": "nonpayable",
			"type": "function"
		},
		{
			"inputs": [
				{
					"internalType": "address",
					"name": "newImplementation",
					"type": "address"
				},
				{
					"internalType": "bytes",
					"name": "data",
					"type": "bytes"
				}
			],
			"name": "upgradeToAndCall",
			"outputs": [],
			"stateMutability": "payable",
			"type": "function"
		}
	]
}