{
	"data": {
		"bytecode": {
			"linkReferences": {},
			"object": "6080604052610168600e55348015610015575f80fd5b5060405161363d38038061363d833981016040819052610034916100f1565b6040518060400160405280600c81526020016b2732b83a3ab732a1b430b4b760a11b815250604051806040016040528060038152602001624e504360e81b815250815f908161008391906101ba565b50600161009082826101ba565b5050600a805460ff19169055506001600b55600c80546001600160a01b039283166001600160a01b031991821617909155600d8054939092169216919091179055610279565b80516001600160a01b03811681146100ec575f80fd5b919050565b5f8060408385031215610102575f80fd5b61010b836100d6565b9150610119602084016100d6565b90509250929050565b634e487b7160e01b5f52604160045260245ffd5b600181811c9082168061014a57607f821691505b60208210810361016857634e487b7160e01b5f52602260045260245ffd5b50919050565b601f8211156101b557805f5260205f20601f840160051c810160208510156101935750805b601f840160051c820191505b818110156101b2575f815560010161019f565b50505b505050565b81516001600160401b038111156101d3576101d3610122565b6101e7816101e18454610136565b8461016e565b602080601f83116001811461021a575f84156102035750858301515b5f19600386901b1c1916600185901b178555610271565b5f85815260208120601f198616915b8281101561024857888601518255948401946001909101908401610229565b508582101561026557878501515f19600388901b60f8161c191681555b505060018460011b0185555b505050505050565b6133b7806102865f395ff3fe608060405234801561000f575f80fd5b50600436106101e7575f3560e01c8063736dea8111610109578063a22cb4651161009e578063d4010f931161006e578063d4010f9314610459578063d5dbd6d41461046c578063db2e21bc1461047f578063e985e9c514610487575f80fd5b8063a22cb465146103f5578063a6b3e02f14610408578063b88d4fde14610433578063c87b56dd14610446575f80fd5b806380e0684f116100d957806380e0684f146103b05780638456cb59146103c357806395d89b41146103cb5780639b5b2ef6146103d3575f80fd5b8063736dea811461033f57806374ccf3111461035257806376b0526c146103655780637f177d3114610390575f80fd5b80633f4ba83a1161017f5780635c975abb1161014f5780635c975abb146102fb5780635eaf0a0d146103065780636352211e1461031957806370a082311461032c575f80fd5b80633f4ba83a146102a957806342842e0e146102b15780634f6ccce7146102c4578063564a565d146102d7575f80fd5b806318160ddd116101ba57806318160ddd1461026857806323b872dd1461027a5780632f745c591461028d5780633e20c018146102a0575f80fd5b806301ffc9a7146101eb57806306fdde0314610213578063081812fc14610228578063095ea7b314610253575b5f80fd5b6101fe6101f93660046126fe565b61049a565b60405190151581526020015b60405180910390f35b61021b6104c4565b60405161020a9190612747565b61023b610236366004612759565b610553565b6040516001600160a01b03909116815260200161020a565b610266610261366004612784565b61057a565b005b6008545b60405190815260200161020a565b6102666102883660046127ae565b610589565b61026c61029b366004612784565b610617565b61026c600e5481565b61026661067a565b6102666102bf3660046127ae565b61070a565b61026c6102d2366004612759565b610729565b6102ea6102e5366004612759565b61077e565b60405161020a9594939291906127ec565b600a5460ff166101fe565b610266610314366004612759565b6109c6565b61023b610327366004612759565b610a51565b61026c61033a36600461284d565b610a5b565b61026c61034d366004612868565b610aa0565b61026c6103603660046129c7565b610ad5565b61026c610373366004612a26565b805160208183018101805160178252928201919093012091525481565b6103a361039e366004612759565b610d3e565b60405161020a9190612a57565b6102666103be366004612ab9565b610e23565b6102666111d7565b61021b611265565b6103e66103e1366004612a26565b611274565b60405161020a93929190612b3a565b610266610403366004612b71565b61132b565b61026c610416366004612a26565b805160208183018101805160168252928201919093012091525481565b610266610441366004612ba8565b611336565b61021b610454366004612759565b61134d565b610266610467366004612c22565b6113be565b61026661047a366004612d2a565b6115bb565b610266611bbd565b6101fe610495366004612e2d565b611c6f565b5f6001600160e01b0319821663780e9d6360e01b14806104be57506104be82611c9c565b92915050565b60605f80546104d290612e59565b80601f01602080910402602001604051908101604052809291908181526020018280546104fe90612e59565b80156105495780601f1061052057610100808354040283529160200191610549565b820191905f5260205f20905b81548152906001019060200180831161052c57829003601f168201915b5050505050905090565b5f61055d82611ceb565b505f828152600460205260409020546001600160a01b03166104be565b610585828233611d23565b5050565b6001600160a01b0382166105b757604051633250574960e11b81525f60048201526024015b60405180910390fd5b5f6105c3838333611d30565b9050836001600160a01b0316816001600160a01b031614610611576040516364283d7b60e01b81526001600160a01b03808616600483015260248201849052821660448201526064016105ae565b50505050565b5f61062183610a5b565b82106106525760405163295f44f760e21b81526001600160a01b0384166004820152602481018390526044016105ae565b506001600160a01b03919091165f908152600660209081526040808320938352929052205490565b600c546040516342282d9560e01b81523360048201526001600160a01b03909116906342282d9590602401602060405180830381865afa1580156106c0573d5f803e3d5ffd5b505050506040513d601f19601f820116820180604052508101906106e49190612ea1565b6107005760405162461bcd60e51b81526004016105ae90612ebc565b610708611e03565b565b61072483838360405180602001604052805f815250611336565b505050565b5f61073360085490565b821061075b5760405163295f44f760e21b81525f6004820152602481018390526044016105ae565b6008828154811061076e5761076e612ef1565b905f5260205f2001549050919050565b60156020525f908152604090208054819061079890612e59565b80601f01602080910402602001604051908101604052809291908181526020018280546107c490612e59565b801561080f5780601f106107e65761010080835404028352916020019161080f565b820191905f5260205f20905b8154815290600101906020018083116107f257829003601f168201915b50505050509080600101805461082490612e59565b80601f016020809104026020016040519081016040528092919081815260200182805461085090612e59565b801561089b5780601f106108725761010080835404028352916020019161089b565b820191905f5260205f20905b81548152906001019060200180831161087e57829003601f168201915b5050505050908060020180546108b090612e59565b80601f01602080910402602001604051908101604052809291908181526020018280546108dc90612e59565b80156109275780601f106108fe57610100808354040283529160200191610927565b820191905f5260205f20905b81548152906001019060200180831161090a57829003601f168201915b50505050509080600301805461093c90612e59565b80601f016020809104026020016040519081016040528092919081815260200182805461096890612e59565b80156109b35780601f1061098a576101008083540402835291602001916109b3565b820191905f5260205f20905b81548152906001019060200180831161099657829003601f168201915b5050506004909301549192505060ff1685565b600c546040516342282d9560e01b81523360048201526001600160a01b03909116906342282d9590602401602060405180830381865afa158015610a0c573d5f803e3d5ffd5b505050506040513d601f19601f82011682018060405250810190610a309190612ea1565b610a4c5760405162461bcd60e51b81526004016105ae90612ebc565b600e55565b5f6104be82611ceb565b5f6001600160a01b038216610a85576040516322718ad960e21b81525f60048201526024016105ae565b506001600160a01b03165f9081526003602052604090205490565b5f838152601360205260408082209051610abd9085908590612f05565b90815260200160405180910390205490509392505050565b5f610ade611e55565b600c546040516364648f5760e01b81523360048201526001600160a01b03909116906364648f5790602401602060405180830381865afa158015610b24573d5f803e3d5ffd5b505050506040513d601f19601f82011682018060405250810190610b489190612ea1565b610b645760405162461bcd60e51b81526004016105ae90612ebc565b82600e54601682604051610b789190612f2b565b90815260200160405180910390205442610b929190612f4a565b13610bf35760405162461bcd60e51b815260206004820152602b60248201527f596f75206e65656420746f2077616974206265666f726520616e6f746865722060448201526a39bab136b4b9b9b4b7b71760a91b60648201526084016105ae565b600d5460405163518ab27b60e01b815285916001600160a01b03169063518ab27b90610c23908490600401612747565b602060405180830381865afa158015610c3e573d5f803e3d5ffd5b505050506040513d601f19601f82011682018060405250810190610c629190612ea1565b610c7e5760405162461bcd60e51b81526004016105ae90612ebc565b5f601485604051610c8f9190612f2b565b90815260200160405180910390209050600f5f8154610cad90612f5d565b9182905550815560018101610cc28782612fb9565b5060028101805460ff191690556040514290601690610ce2908990612f2b565b9081526020016040518091039020819055507f7af9ea8bcf333c45ac0f9dcff15c12784f7b3f6d0023592d8ed3bcd8828ff951600f548688604051610d2993929190613078565b60405180910390a15050600f54949350505050565b606060125f8381526020019081526020015f20805480602002602001604051908101604052809291908181526020015f905b82821015610e18578382905f5260205f20018054610d8d90612e59565b80601f0160208091040260200160405190810160405280929190818152602001828054610db990612e59565b8015610e045780601f10610ddb57610100808354040283529160200191610e04565b820191905f5260205f20905b815481529060010190602001808311610de757829003601f168201915b505050505081526020019060010190610d70565b505050509050919050565b610e2b611e55565b600c546040516364648f5760e01b81523360048201526001600160a01b03909116906364648f5790602401602060405180830381865afa158015610e71573d5f803e3d5ffd5b505050506040513d601f19601f82011682018060405250810190610e959190612ea1565b610eb15760405162461bcd60e51b81526004016105ae90612ebc565b600d5460405163518ab27b60e01b815284916001600160a01b03169063518ab27b90610ee1908490600401612747565b602060405180830381865afa158015610efc573d5f803e3d5ffd5b505050506040513d601f19601f82011682018060405250810190610f209190612ea1565b610f3c5760405162461bcd60e51b81526004016105ae90612ebc565b825f601482604051610f4e9190612f2b565b9081526040519081900360200190205411610fa25760405162461bcd60e51b8152602060048201526014602482015273105cdcd95d08191bd95cc81b9bdd08195e1a5cdd60621b60448201526064016105ae565b84604051602001610fb39190612f2b565b60405160208183030381529060405280519060200120601485604051610fd99190612f2b565b9081526020016040518091039020600101604051602001610ffa91906130ac565b60405160208183030381529060405280519060200120146110725760405162461bcd60e51b815260206004820152602c60248201527f4f6e6c79207468652064617461207375626d69747465722063616e207261697360448201526b329030903234b9b83aba329760a11b60648201526084016105ae565b6040518060a0016040528085815260200184815260200160405180602001604052805f8152508152602001604051806040016040528060098152602001681cdd589b5a5d1d195960ba1b81525081526020015f151581525060155f60115f81546110db90612f5d565b9182905550815260208101919091526040015f20815181906110fd9082612fb9565b50602082015160018201906111129082612fb9565b50604082015160028201906111279082612fb9565b506060820151600382019061113c9082612fb9565b50608091909101516004909101805460ff1916911515919091179055604051601490611169908690612f2b565b908152604051908190036020908101822060118054600390920180546001810182555f91825293902090920155547f788f04cb5a31369702426696d678406eb73d1f562a588ff3d3a2b7a209adc54d916111c891879187908a9061311e565b60405180910390a15050505050565b600c546040516342282d9560e01b81523360048201526001600160a01b03909116906342282d9590602401602060405180830381865afa15801561121d573d5f803e3d5ffd5b505050506040513d601f19601f820116820180604052508101906112419190612ea1565b61125d5760405162461bcd60e51b81526004016105ae90612ebc565b610708611e9b565b6060600180546104d290612e59565b8051602081830181018051601482529282019190930120915280546001820180549192916112a190612e59565b80601f01602080910402602001604051908101604052809291908181526020018280546112cd90612e59565b80156113185780601f106112ef57610100808354040283529160200191611318565b820191905f5260205f20905b8154815290600101906020018083116112fb57829003601f168201915b5050506002909301549192505060ff1683565b610585338383611ed8565b611341848484610589565b61061184848484611f76565b606061135882611ceb565b505f61136e60408051602081019091525f815290565b90505f81511161138c5760405180602001604052805f8152506113b7565b806113968461209c565b6040516020016113a7929190613167565b6040516020818303038152906040525b9392505050565b6113c6611e55565b600c546040516364648f5760e01b81523360048201526001600160a01b03909116906364648f5790602401602060405180830381865afa15801561140c573d5f803e3d5ffd5b505050506040513d601f19601f820116820180604052508101906114309190612ea1565b61144c5760405162461bcd60e51b81526004016105ae90612ebc565b600d5460405163518ab27b60e01b815285916001600160a01b03169063518ab27b9061147c908490600401612747565b602060405180830381865afa158015611497573d5f803e3d5ffd5b505050506040513d601f19601f820116820180604052508101906114bb9190612ea1565b6114d75760405162461bcd60e51b81526004016105ae90612ebc565b5f84815260156020526040902060040154849060ff161561153a5760405162461bcd60e51b815260206004820181905260248201527f4469737075746520646f6573206e6f74206578697374206f7220636c6f73656460448201526064016105ae565b5f858152601560205260409020600381016115558582612fb9565b50600281016115648682612fb9565b5060048101805460ff191660011790556040517fa59ac1d81cd76a923bbed1fb84e23f2a7c144da30edeb0bb9c7f5069ecc8496c906115aa908390899089908c906131f4565b60405180910390a150505050505050565b6115c3611e55565b600c546040516364648f5760e01b81523360048201526001600160a01b03909116906364648f5790602401602060405180830381865afa158015611609573d5f803e3d5ffd5b505050506040513d601f19601f8201168201806040525081019061162d9190612ea1565b6116495760405162461bcd60e51b81526004016105ae90612ebc565b600d5460405163518ab27b60e01b815285916001600160a01b03169063518ab27b90611679908490600401612747565b602060405180830381865afa158015611694573d5f803e3d5ffd5b505050506040513d601f19601f820116820180604052508101906116b89190612ea1565b6116d45760405162461bcd60e51b81526004016105ae90612ebc565b600d5460405163f3f9f26760e01b815286915f916001600160a01b039091169063f3f9f26790611708908590600401612747565b5f60405180830381865afa158015611722573d5f803e3d5ffd5b505050506040513d5f823e601f3d908101601f191682016040526117499190810190613211565b90507fd8d69c1da829f8277e4e80945a974b3ca009835eb268c14bf9321952f1cf169e815f01516040516020016117809190612f2b565b60405160208183030381529060405280519060200120146117e35760405162461bcd60e51b815260206004820152601760248201527f55736572206973206e6f7420612076657269666965722e00000000000000000060448201526064016105ae565b855f6014826040516117f59190612f2b565b90815260405190819003602001902054116118495760405162461bcd60e51b8152602060048201526014602482015273105cdcd95d08191bd95cc81b9bdd08195e1a5cdd60621b60448201526064016105ae565b5f60148860405161185a9190612f2b565b908152604051908190036020019020600281015490915060ff16156118ba5760405162461bcd60e51b81526020600482015260166024820152752230ba309030b63932b0b23c903b32b934b334b2b21760511b60448201526064016105ae565b85518751146119225760405162461bcd60e51b815260206004820152602e60248201527f43726564697420747970657320616e6420737570706c79206c696d697473206c60448201526d0cadccee8d040dad2e6dac2e8c6d60931b60648201526084016105ae565b8054600d5460405163f3f9f26760e01b81525f916001600160a01b03169063f3f9f267906119579060018701906004016132ed565b5f60405180830381865afa158015611971573d5f803e3d5ffd5b505050506040513d5f823e601f3d908101601f191682016040526119989190810190613211565b90506119a881602001518361212b565b5f5b8951811015611a67575f8381526012602052604090208a518b90839081106119d4576119d4612ef1565b60209081029190910181015182546001810184555f9384529190922001906119fc9082612fb9565b50888181518110611a0f57611a0f612ef1565b602002602001015160135f8581526020019081526020015f208b8381518110611a3a57611a3a612ef1565b6020026020010151604051611a4f9190612f2b565b908152604051908190036020019020556001016119aa565b50817faaa3ef9b79affd1b4052e81dd38126a7a1dd22345b41b8866fbe06d6c5cb02fe8a604051611a989190612a57565b60405180910390a25f5b8951811015611b1f57827ff09c4f8065057564478e900e30beeaa7be6409e52ad156a4067fdcab3e9ad5d08b8381518110611adf57611adf612ef1565b60200260200101518b8481518110611af957611af9612ef1565b6020026020010151604051611b0f9291906132ff565b60405180910390a2600101611aa2565b5060028301805460ff19166001179055604051601790611b40908d90612f2b565b9081526040519081900360200190208054905f611b5c83612f5d565b909155505060108054905f611b7083612f5d565b91905055507f0610d2b6125b91dc10a1587c0bfa755c2248f4989a7c63bbd1d22421bcf71923828b8d604051611ba893929190613078565b60405180910390a15050505050505050505050565b600c546040516342282d9560e01b81523360048201526001600160a01b03909116906342282d9590602401602060405180830381865afa158015611c03573d5f803e3d5ffd5b505050506040513d601f19601f82011682018060405250810190611c279190612ea1565b611c435760405162461bcd60e51b81526004016105ae90612ebc565b60405133904780156108fc02915f818181858888f19350505050158015611c6c573d5f803e3d5ffd5b50565b6001600160a01b039182165f90815260056020908152604080832093909416825291909152205460ff1690565b5f6001600160e01b031982166380ac58cd60e01b1480611ccc57506001600160e01b03198216635b5e139f60e01b145b806104be57506301ffc9a760e01b6001600160e01b03198316146104be565b5f818152600260205260408120546001600160a01b0316806104be57604051637e27328960e01b8152600481018490526024016105ae565b610724838383600161218c565b5f80611d3d858585612290565b90506001600160a01b038116611d9957611d9484600880545f838152600960205260408120829055600182018355919091527ff3f7a9fe364faab93b216da50a3214154f22a0a2b415b23a84c8169e8b636ee30155565b611dbc565b846001600160a01b0316816001600160a01b031614611dbc57611dbc8185612382565b6001600160a01b038516611dd857611dd38461240f565b611dfb565b846001600160a01b0316816001600160a01b031614611dfb57611dfb85856124b6565b949350505050565b611e0b612504565b600a805460ff191690557f5db9ee0a495bf2e6ff9c91a7834c1ba4fdd244a5e8aa4e537bd38aeae4b073aa335b6040516001600160a01b03909116815260200160405180910390a1565b600a5460ff16156107085760405162461bcd60e51b815260206004820152601060248201526f14185d5cd8589b194e881c185d5cd95960821b60448201526064016105ae565b611ea3611e55565b600a805460ff191660011790557f62e78cea01bee320cd4e420270b5ea74000d11b0c9f74754ebdbfc544b05a258611e383390565b6001600160a01b038216611f0a57604051630b61174360e31b81526001600160a01b03831660048201526024016105ae565b6001600160a01b038381165f81815260056020908152604080832094871680845294825291829020805460ff191686151590811790915591519182527f17307eab39ab6107e8899845ad3d59bd9653f200f220920489ca2b5937696c31910160405180910390a3505050565b6001600160a01b0383163b1561061157604051630a85bd0160e11b81526001600160a01b0384169063150b7a0290611fb8903390889087908790600401613320565b6020604051808303815f875af1925050508015611ff2575060408051601f3d908101601f19168201909252611fef91810190613352565b60015b612059573d80801561201f576040519150601f19603f3d011682016040523d82523d5f602084013e612024565b606091505b5080515f0361205157604051633250574960e11b81526001600160a01b03851660048201526024016105ae565b805181602001fd5b6001600160e01b03198116630a85bd0160e11b1461209557604051633250574960e11b81526001600160a01b03851660048201526024016105ae565b5050505050565b60605f6120a88361254d565b60010190505f816001600160401b038111156120c6576120c66128dc565b6040519080825280601f01601f1916602001820160405280156120f0576020820181803683370190505b5090508181016020015b5f19016f181899199a1a9b1b9c1cb0b131b232b360811b600a86061a8153600a85049450846120fa57509392505050565b6001600160a01b03821661215457604051633250574960e11b81525f60048201526024016105ae565b5f61216083835f611d30565b90506001600160a01b03811615610724576040516339e3563760e11b81525f60048201526024016105ae565b80806121a057506001600160a01b03821615155b15612261575f6121af84611ceb565b90506001600160a01b038316158015906121db5750826001600160a01b0316816001600160a01b031614155b80156121ee57506121ec8184611c6f565b155b156122175760405163a9fbf51f60e01b81526001600160a01b03841660048201526024016105ae565b811561225f5783856001600160a01b0316826001600160a01b03167f8c5be1e5ebec7d5bd14f71427d1e84f3dd0314c0f7b2291e5b200ac8c7c3b92560405160405180910390a45b505b50505f90815260046020526040902080546001600160a01b0319166001600160a01b0392909216919091179055565b5f828152600260205260408120546001600160a01b03908116908316156122bc576122bc818486612624565b6001600160a01b038116156122f6576122d75f855f8061218c565b6001600160a01b0381165f90815260036020526040902080545f190190555b6001600160a01b03851615612324576001600160a01b0385165f908152600360205260409020805460010190555b5f8481526002602052604080822080546001600160a01b0319166001600160a01b0389811691821790925591518793918516917fddf252ad1be2c89b69c2b068fc378daa952ba7f163c4a11628f55a4df523b3ef91a4949350505050565b5f61238c83610a5b565b5f838152600760205260409020549091508082146123dd576001600160a01b0384165f9081526006602090815260408083208584528252808320548484528184208190558352600790915290208190555b505f9182526007602090815260408084208490556001600160a01b039094168352600681528383209183525290812055565b6008545f9061242090600190612f4a565b5f838152600960205260408120546008805493945090928490811061244757612447612ef1565b905f5260205f2001549050806008838154811061246657612466612ef1565b5f91825260208083209091019290925582815260099091526040808220849055858252812055600880548061249d5761249d61336d565b600190038181905f5260205f20015f9055905550505050565b5f60016124c284610a5b565b6124cc9190612f4a565b6001600160a01b039093165f908152600660209081526040808320868452825280832085905593825260079052919091209190915550565b600a5460ff166107085760405162461bcd60e51b815260206004820152601460248201527314185d5cd8589b194e881b9bdd081c185d5cd95960621b60448201526064016105ae565b5f8072184f03e93ff9f4daa797ed6e38ed64bf6a1f0160401b831061258b5772184f03e93ff9f4daa797ed6e38ed64bf6a1f0160401b830492506040015b6d04ee2d6d415b85acef810000000083106125b7576d04ee2d6d415b85acef8100000000830492506020015b662386f26fc1000083106125d557662386f26fc10000830492506010015b6305f5e10083106125ed576305f5e100830492506008015b612710831061260157612710830492506004015b60648310612613576064830492506002015b600a83106104be5760010192915050565b61262f838383612688565b610724576001600160a01b03831661265d57604051637e27328960e01b8152600481018290526024016105ae565b60405163177e802f60e01b81526001600160a01b0383166004820152602481018290526044016105ae565b5f6001600160a01b03831615801590611dfb5750826001600160a01b0316846001600160a01b031614806126c157506126c18484611c6f565b80611dfb5750505f908152600460205260409020546001600160a01b03908116911614919050565b6001600160e01b031981168114611c6c575f80fd5b5f6020828403121561270e575f80fd5b81356113b7816126e9565b5f81518084528060208401602086015e5f602082860101526020601f19601f83011685010191505092915050565b602081525f6113b76020830184612719565b5f60208284031215612769575f80fd5b5035919050565b6001600160a01b0381168114611c6c575f80fd5b5f8060408385031215612795575f80fd5b82356127a081612770565b946020939093013593505050565b5f805f606084860312156127c0575f80fd5b83356127cb81612770565b925060208401356127db81612770565b929592945050506040919091013590565b60a081525f6127fe60a0830188612719565b82810360208401526128108188612719565b905082810360408401526128248187612719565b905082810360608401526128388186612719565b91505082151560808301529695505050505050565b5f6020828403121561285d575f80fd5b81356113b781612770565b5f805f6040848603121561287a575f80fd5b8335925060208401356001600160401b0380821115612897575f80fd5b818601915086601f8301126128aa575f80fd5b8135818111156128b8575f80fd5b8760208285010111156128c9575f80fd5b6020830194508093505050509250925092565b634e487b7160e01b5f52604160045260245ffd5b60405160a081016001600160401b0381118282101715612912576129126128dc565b60405290565b604051601f8201601f191681016001600160401b0381118282101715612940576129406128dc565b604052919050565b5f6001600160401b03821115612960576129606128dc565b50601f01601f191660200190565b5f61298061297b84612948565b612918565b9050828152838383011115612993575f80fd5b828260208301375f602084830101529392505050565b5f82601f8301126129b8575f80fd5b6113b78383356020850161296e565b5f80604083850312156129d8575f80fd5b82356001600160401b03808211156129ee575f80fd5b6129fa868387016129a9565b93506020850135915080821115612a0f575f80fd5b50612a1c858286016129a9565b9150509250929050565b5f60208284031215612a36575f80fd5b81356001600160401b03811115612a4b575f80fd5b611dfb848285016129a9565b5f60208083016020845280855180835260408601915060408160051b8701019250602087015f5b82811015612aac57603f19888603018452612a9a858351612719565b94509285019290850190600101612a7e565b5092979650505050505050565b5f805f60608486031215612acb575f80fd5b83356001600160401b0380821115612ae1575f80fd5b612aed878388016129a9565b94506020860135915080821115612b02575f80fd5b612b0e878388016129a9565b93506040860135915080821115612b23575f80fd5b50612b30868287016129a9565b9150509250925092565b838152606060208201525f612b526060830185612719565b90508215156040830152949350505050565b8015158114611c6c575f80fd5b5f8060408385031215612b82575f80fd5b8235612b8d81612770565b91506020830135612b9d81612b64565b809150509250929050565b5f805f8060808587031215612bbb575f80fd5b8435612bc681612770565b93506020850135612bd681612770565b92506040850135915060608501356001600160401b03811115612bf7575f80fd5b8501601f81018713612c07575f80fd5b612c168782356020840161296e565b91505092959194509250565b5f805f8060808587031215612c35575f80fd5b84356001600160401b0380821115612c4b575f80fd5b612c57888389016129a9565b9550602087013594506040870135915080821115612c73575f80fd5b612c7f888389016129a9565b93506060870135915080821115612c94575f80fd5b50612c16878288016129a9565b5f6001600160401b03821115612cb957612cb96128dc565b5060051b60200190565b5f82601f830112612cd2575f80fd5b81356020612ce261297b83612ca1565b8083825260208201915060208460051b870101935086841115612d03575f80fd5b602086015b84811015612d1f5780358352918301918301612d08565b509695505050505050565b5f805f8060808587031215612d3d575f80fd5b84356001600160401b0380821115612d53575f80fd5b612d5f888389016129a9565b9550602091508187013581811115612d75575f80fd5b612d8189828a016129a9565b955050604087013581811115612d95575f80fd5b8701601f81018913612da5575f80fd5b8035612db361297b82612ca1565b81815260059190911b8201840190848101908b831115612dd1575f80fd5b8584015b83811015612e0757803586811115612deb575f80fd5b612df98e89838901016129a9565b845250918601918601612dd5565b5096505050506060870135915080821115612e20575f80fd5b50612c1687828801612cc3565b5f8060408385031215612e3e575f80fd5b8235612e4981612770565b91506020830135612b9d81612770565b600181811c90821680612e6d57607f821691505b602082108103612e8b57634e487b7160e01b5f52602260045260245ffd5b50919050565b8051612e9c81612b64565b919050565b5f60208284031215612eb1575f80fd5b81516113b781612b64565b6020808252818101527f43616c6c6572206973206e6f742061206261636b656e6420616464726573732e604082015260600190565b634e487b7160e01b5f52603260045260245ffd5b818382375f9101908152919050565b5f81518060208401855e5f93019283525090919050565b5f6113b78284612f14565b634e487b7160e01b5f52601160045260245ffd5b818103818111156104be576104be612f36565b5f60018201612f6e57612f6e612f36565b5060010190565b601f82111561072457805f5260205f20601f840160051c81016020851015612f9a5750805b601f840160051c820191505b81811015612095575f8155600101612fa6565b81516001600160401b03811115612fd257612fd26128dc565b612fe681612fe08454612e59565b84612f75565b602080601f831160018114613019575f84156130025750858301515b5f19600386901b1c1916600185901b178555613070565b5f85815260208120601f198616915b8281101561304757888601518255948401946001909101908401613028565b508582101561306457878501515f19600388901b60f8161c191681555b505060018460011b0185555b505050505050565b838152606060208201525f6130906060830185612719565b82810360408401526130a28185612719565b9695505050505050565b5f8083546130b981612e59565b600182811680156130d157600181146130e657613112565b60ff1984168752821515830287019450613112565b875f526020805f205f5b858110156131095781548a8201529084019082016130f0565b50505082870194505b50929695505050505050565b608081525f6131306080830187612719565b85602084015282810360408401526131488186612719565b9050828103606084015261315c8185612719565b979650505050505050565b5f611dfb6131758386612f14565b84612f14565b5f815461318781612e59565b8085526020600183811680156131a457600181146131be576131e9565b60ff1985168884015283151560051b8801830195506131e9565b865f52825f205f5b858110156131e15781548a82018601529083019084016131c6565b890184019650505b505050505092915050565b608081525f613130608083018761317b565b8051612e9c81612770565b5f6020808385031215613222575f80fd5b82516001600160401b0380821115613238575f80fd5b9084019060a0828703121561324b575f80fd5b6132536128f0565b825182811115613261575f80fd5b83019150601f82018713613273575f80fd5b815161328161297b82612948565b8181528886838601011115613294575f80fd5b818685018783015e5f86838301015280835250506132b3848401613206565b848201526132c360408401612e91565b6040820152606083015160608201526132de60808401612e91565b60808201529695505050505050565b602081525f6113b7602083018461317b565b604081525f6133116040830185612719565b90508260208301529392505050565b6001600160a01b03858116825284166020820152604081018390526080606082018190525f906130a290830184612719565b5f60208284031215613362575f80fd5b81516113b7816126e9565b634e487b7160e01b5f52603160045260245ffdfea2646970667358221220f3e1688e6fa43e8e866f87d08797d63740d175f78d08bfcc17fa2fef3925183464736f6c63430008190033",
			"opcodes": "PUSH1 0x80 PUSH1 0x40 MSTORE PUSH2 0x168 PUSH1 0xE SSTORE CALLVALUE DUP1 ISZERO PUSH2 0x15 JUMPI PUSH0 DUP1 REVERT JUMPDEST POP PUSH1 0x40 MLOAD PUSH2 0x363D CODESIZE SUB DUP1 PUSH2 0x363D DUP4 CODECOPY DUP2 ADD PUSH1 0x40 DUP2 SWAP1 MSTORE PUSH2 0x34 SWAP2 PUSH2 0xF1 JUMP JUMPDEST PUSH1 0x40 MLOAD DUP1 PUSH1 0x40 ADD PUSH1 0x40 MSTORE DUP1 PUSH1 0xC DUP2 MSTORE PUSH1 0x20 ADD PUSH12 0x2732B83A3AB732A1B430B4B7 PUSH1 0xA1 SHL DUP2 MSTORE POP PUSH1 0x40 MLOAD DUP1 PUSH1 0x40 ADD PUSH1 0x40 MSTORE DUP1 PUSH1 0x3 DUP2 MSTORE PUSH1 0x20 ADD PUSH3 0x4E5043 PUSH1 0xE8 SHL DUP2 MSTORE POP DUP2 PUSH0 SWAP1 DUP2 PUSH2 0x83 SWAP2 SWAP1 PUSH2 0x1BA JUMP JUMPDEST POP PUSH1 0x1 PUSH2 0x90 DUP3 DUP3 PUSH2 0x1BA JUMP JUMPDEST POP POP PUSH1 0xA DUP1 SLOAD PUSH1 0xFF NOT AND SWAP1 SSTORE POP PUSH1 0x1 PUSH1 0xB SSTORE PUSH1 0xC DUP1 SLOAD PUSH1 0x1 PUSH1 0x1 PUSH1 0xA0 SHL SUB SWAP3 DUP4 AND PUSH1 0x1 PUSH1 0x1 PUSH1 0xA0 SHL SUB NOT SWAP2 DUP3 AND OR SWAP1 SWAP2 SSTORE PUSH1 0xD DUP1 SLOAD SWAP4 SWAP1 SWAP3 AND SWAP3 AND SWAP2 SWAP1 SWAP2 OR SWAP1 SSTORE PUSH2 0x279 JUMP JUMPDEST DUP1 MLOAD PUSH1 0x1 PUSH1 0x1 PUSH1 0xA0 SHL SUB DUP2 AND DUP2 EQ PUSH2 0xEC JUMPI PUSH0 DUP1 REVERT JUMPDEST SWAP2 SWAP1 POP JUMP JUMPDEST PUSH0 DUP1 PUSH1 0x40 DUP4 DUP6 SUB SLT ISZERO PUSH2 0x102 JUMPI PUSH0 DUP1 REVERT JUMPDEST PUSH2 0x10B DUP4 PUSH2 0xD6 JUMP JUMPDEST SWAP2 POP PUSH2 0x119 PUSH1 0x20 DUP5 ADD PUSH2 0xD6 JUMP JUMPDEST SWAP1 POP SWAP3 POP SWAP3 SWAP1 POP JUMP JUMPDEST PUSH4 0x4E487B71 PUSH1 0xE0 SHL PUSH0 MSTORE PUSH1 0x41 PUSH1 0x4 MSTORE PUSH1 0x24 PUSH0 REVERT JUMPDEST PUSH1 0x1 DUP2 DUP2 SHR SWAP1 DUP3 AND DUP1 PUSH2 0x14A JUMPI PUSH1 0x7F DUP3 AND SWAP2 POP JUMPDEST PUSH1 0x20 DUP3 LT DUP2 SUB PUSH2 0x168 JUMPI PUSH4 0x4E487B71 PUSH1 0xE0 SHL PUSH0 MSTORE PUSH1 0x22 PUSH1 0x4 MSTORE PUSH1 0x24 PUSH0 REVERT JUMPDEST POP SWAP2 SWAP1 POP JUMP JUMPDEST PUSH1 0x1F DUP3 GT ISZERO PUSH2 0x1B5 JUMPI DUP1 PUSH0 MSTORE PUSH1 0x20 PUSH0 KECCAK256 PUSH1 0x1F DUP5 ADD PUSH1 0x5 SHR DUP2 ADD PUSH1 0x20 DUP6 LT ISZERO PUSH2 0x193 JUMPI POP DUP1 JUMPDEST PUSH1 0x1F DUP5 ADD PUSH1 0x5 SHR DUP3 ADD SWAP2 POP JUMPDEST DUP2 DUP2 LT ISZERO PUSH2 0x1B2 JUMPI PUSH0 DUP2 SSTORE PUSH1 0x1 ADD PUSH2 0x19F JUMP JUMPDEST POP POP JUMPDEST POP POP POP JUMP JUMPDEST DUP2 MLOAD PUSH1 0x1 PUSH1 0x1 PUSH1 0x40 SHL SUB DUP2 GT ISZERO PUSH2 0x1D3 JUMPI PUSH2 0x1D3 PUSH2 0x122 JUMP JUMPDEST PUSH2 0x1E7 DUP2 PUSH2 0x1E1 DUP5 SLOAD PUSH2 0x136 JUMP JUMPDEST DUP5 PUSH2 0x16E JUMP JUMPDEST PUSH1 0x20 DUP1 PUSH1 0x1F DUP4 GT PUSH1 0x1 DUP2 EQ PUSH2 0x21A JUMPI PUSH0 DUP5 ISZERO PUSH2 0x203 JUMPI POP DUP6 DUP4 ADD MLOAD JUMPDEST PUSH0 NOT PUSH1 0x3 DUP7 SWAP1 SHL SHR NOT AND PUSH1 0x1 DUP6 SWAP1 SHL OR DUP6 SSTORE PUSH2 0x271 JUMP JUMPDEST PUSH0 DUP6 DUP2 MSTORE PUSH1 0x20 DUP2 KECCAK256 PUSH1 0x1F NOT DUP7 AND SWAP2 JUMPDEST DUP3 DUP2 LT ISZERO PUSH2 0x248 JUMPI DUP9 DUP7 ADD MLOAD DUP3 SSTORE SWAP5 DUP5 ADD SWAP5 PUSH1 0x1 SWAP1 SWAP2 ADD SWAP1 DUP5 ADD PUSH2 0x229 JUMP JUMPDEST POP DUP6 DUP3 LT ISZERO PUSH2 0x265 JUMPI DUP8 DUP6 ADD MLOAD PUSH0 NOT PUSH1 0x3 DUP9 SWAP1 SHL PUSH1 0xF8 AND SHR NOT AND DUP2 SSTORE JUMPDEST POP POP PUSH1 0x1 DUP5 PUSH1 0x1 SHL ADD DUP6 SSTORE JUMPDEST POP POP POP POP POP POP JUMP JUMPDEST PUSH2 0x33B7 DUP1 PUSH2 0x286 PUSH0 CODECOPY PUSH0 RETURN INVALID PUSH1 0x80 PUSH1 0x40 MSTORE CALLVALUE DUP1 ISZERO PUSH2 0xF JUMPI PUSH0 DUP1 REVERT JUMPDEST POP PUSH1 0x4 CALLDATASIZE LT PUSH2 0x1E7 JUMPI PUSH0 CALLDATALOAD PUSH1 0xE0 SHR DUP1 PUSH4 0x736DEA81 GT PUSH2 0x109 JUMPI DUP1 PUSH4 0xA22CB465 GT PUSH2 0x9E JUMPI DUP1 PUSH4 0xD4010F93 GT PUSH2 0x6E JUMPI DUP1 PUSH4 0xD4010F93 EQ PUSH2 0x459 JUMPI DUP1 PUSH4 0xD5DBD6D4 EQ PUSH2 0x46C JUMPI DUP1 PUSH4 0xDB2E21BC EQ PUSH2 0x47F JUMPI DUP1 PUSH4 0xE985E9C5 EQ PUSH2 0x487 JUMPI PUSH0 DUP1 REVERT JUMPDEST DUP1 PUSH4 0xA22CB465 EQ PUSH2 0x3F5 JUMPI DUP1 PUSH4 0xA6B3E02F EQ PUSH2 0x408 JUMPI DUP1 PUSH4 0xB88D4FDE EQ PUSH2 0x433 JUMPI DUP1 PUSH4 0xC87B56DD EQ PUSH2 0x446 JUMPI PUSH0 DUP1 REVERT JUMPDEST DUP1 PUSH4 0x80E0684F GT PUSH2 0xD9 JUMPI DUP1 PUSH4 0x80E0684F EQ PUSH2 0x3B0 JUMPI DUP1 PUSH4 0x8456CB59 EQ PUSH2 0x3C3 JUMPI DUP1 PUSH4 0x95D89B41 EQ PUSH2 0x3CB JUMPI DUP1 PUSH4 0x9B5B2EF6 EQ PUSH2 0x3D3 JUMPI PUSH0 DUP1 REVERT JUMPDEST DUP1 PUSH4 0x736DEA81 EQ PUSH2 0x33F JUMPI DUP1 PUSH4 0x74CCF311 EQ PUSH2 0x352 JUMPI DUP1 PUSH4 0x76B0526C EQ PUSH2 0x365 JUMPI DUP1 PUSH4 0x7F177D31 EQ PUSH2 0x390 JUMPI PUSH0 DUP1 REVERT JUMPDEST DUP1 PUSH4 0x3F4BA83A GT PUSH2 0x17F JUMPI DUP1 PUSH4 0x5C975ABB GT PUSH2 0x14F JUMPI DUP1 PUSH4 0x5C975ABB EQ PUSH2 0x2FB JUMPI DUP1 PUSH4 0x5EAF0A0D EQ PUSH2 0x306 JUMPI DUP1 PUSH4 0x6352211E EQ PUSH2 0x319 JUMPI DUP1 PUSH4 0x70A08231 EQ PUSH2 0x32C JUMPI PUSH0 DUP1 REVERT JUMPDEST DUP1 PUSH4 0x3F4BA83A EQ PUSH2 0x2A9 JUMPI DUP1 PUSH4 0x42842E0E EQ PUSH2 0x2B1 JUMPI DUP1 PUSH4 0x4F6CCCE7 EQ PUSH2 0x2C4 JUMPI DUP1 PUSH4 0x564A565D EQ PUSH2 0x2D7 JUMPI PUSH0 DUP1 REVERT JUMPDEST DUP1 PUSH4 0x18160DDD GT PUSH2 0x1BA JUMPI DUP1 PUSH4 0x18160DDD EQ PUSH2 0x268 JUMPI DUP1 PUSH4 0x23B872DD EQ PUSH2 0x27A JUMPI DUP1 PUSH4 0x2F745C59 EQ PUSH2 0x28D JUMPI DUP1 PUSH4 0x3E20C018 EQ PUSH2 0x2A0 JUMPI PUSH0 DUP1 REVERT JUMPDEST DUP1 PUSH4 0x1FFC9A7 EQ PUSH2 0x1EB JUMPI DUP1 PUSH4 0x6FDDE03 EQ PUSH2 0x213 JUMPI DUP1 PUSH4 0x81812FC EQ PUSH2 0x228 JUMPI DUP1 PUSH4 0x95EA7B3 EQ PUSH2 0x253 JUMPI JUMPDEST PUSH0 DUP1 REVERT JUMPDEST PUSH2 0x1FE PUSH2 0x1F9 CALLDATASIZE PUSH1 0x4 PUSH2 0x26FE JUMP JUMPDEST PUSH2 0x49A JUMP JUMPDEST PUSH1 0x40 MLOAD SWAP1 ISZERO ISZERO DUP2 MSTORE PUSH1 0x20 ADD JUMPDEST PUSH1 0x40 MLOAD DUP1 SWAP2 SUB SWAP1 RETURN JUMPDEST PUSH2 0x21B PUSH2 0x4C4 JUMP JUMPDEST PUSH1 0x40 MLOAD PUSH2 0x20A SWAP2 SWAP1 PUSH2 0x2747 JUMP JUMPDEST PUSH2 0x23B PUSH2 0x236 CALLDATASIZE PUSH1 0x4 PUSH2 0x2759 JUMP JUMPDEST PUSH2 0x553 JUMP JUMPDEST PUSH1 0x40 MLOAD PUSH1 0x1 PUSH1 0x1 PUSH1 0xA0 SHL SUB SWAP1 SWAP2 AND DUP2 MSTORE PUSH1 0x20 ADD PUSH2 0x20A JUMP JUMPDEST PUSH2 0x266 PUSH2 0x261 CALLDATASIZE PUSH1 0x4 PUSH2 0x2784 JUMP JUMPDEST PUSH2 0x57A JUMP JUMPDEST STOP JUMPDEST PUSH1 0x8 SLOAD JUMPDEST PUSH1 0x40 MLOAD SWAP1 DUP2 MSTORE PUSH1 0x20 ADD PUSH2 0x20A JUMP JUMPDEST PUSH2 0x266 PUSH2 0x288 CALLDATASIZE PUSH1 0x4 PUSH2 0x27AE JUMP JUMPDEST PUSH2 0x589 JUMP JUMPDEST PUSH2 0x26C PUSH2 0x29B CALLDATASIZE PUSH1 0x4 PUSH2 0x2784 JUMP JUMPDEST PUSH2 0x617 JUMP JUMPDEST PUSH2 0x26C PUSH1 0xE SLOAD DUP2 JUMP JUMPDEST PUSH2 0x266 PUSH2 0x67A JUMP JUMPDEST PUSH2 0x266 PUSH2 0x2BF CALLDATASIZE PUSH1 0x4 PUSH2 0x27AE JUMP JUMPDEST PUSH2 0x70A JUMP JUMPDEST PUSH2 0x26C PUSH2 0x2D2 CALLDATASIZE PUSH1 0x4 PUSH2 0x2759 JUMP JUMPDEST PUSH2 0x729 JUMP JUMPDEST PUSH2 0x2EA PUSH2 0x2E5 CALLDATASIZE PUSH1 0x4 PUSH2 0x2759 JUMP JUMPDEST PUSH2 0x77E JUMP JUMPDEST PUSH1 0x40 MLOAD PUSH2 0x20A SWAP6 SWAP5 SWAP4 SWAP3 SWAP2 SWAP1 PUSH2 0x27EC JUMP JUMPDEST PUSH1 0xA SLOAD PUSH1 0xFF AND PUSH2 0x1FE JUMP JUMPDEST PUSH2 0x266 PUSH2 0x314 CALLDATASIZE PUSH1 0x4 PUSH2 0x2759 JUMP JUMPDEST PUSH2 0x9C6 JUMP JUMPDEST PUSH2 0x23B PUSH2 0x327 CALLDATASIZE PUSH1 0x4 PUSH2 0x2759 JUMP JUMPDEST PUSH2 0xA51 JUMP JUMPDEST PUSH2 0x26C PUSH2 0x33A CALLDATASIZE PUSH1 0x4 PUSH2 0x284D JUMP JUMPDEST PUSH2 0xA5B JUMP JUMPDEST PUSH2 0x26C PUSH2 0x34D CALLDATASIZE PUSH1 0x4 PUSH2 0x2868 JUMP JUMPDEST PUSH2 0xAA0 JUMP JUMPDEST PUSH2 0x26C PUSH2 0x360 CALLDATASIZE PUSH1 0x4 PUSH2 0x29C7 JUMP JUMPDEST PUSH2 0xAD5 JUMP JUMPDEST PUSH2 0x26C PUSH2 0x373 CALLDATASIZE PUSH1 0x4 PUSH2 0x2A26 JUMP JUMPDEST DUP1 MLOAD PUSH1 0x20 DUP2 DUP4 ADD DUP2 ADD DUP1 MLOAD PUSH1 0x17 DUP3 MSTORE SWAP3 DUP3 ADD SWAP2 SWAP1 SWAP4 ADD KECCAK256 SWAP2 MSTORE SLOAD DUP2 JUMP JUMPDEST PUSH2 0x3A3 PUSH2 0x39E CALLDATASIZE PUSH1 0x4 PUSH2 0x2759 JUMP JUMPDEST PUSH2 0xD3E JUMP JUMPDEST PUSH1 0x40 MLOAD PUSH2 0x20A SWAP2 SWAP1 PUSH2 0x2A57 JUMP JUMPDEST PUSH2 0x266 PUSH2 0x3BE CALLDATASIZE PUSH1 0x4 PUSH2 0x2AB9 JUMP JUMPDEST PUSH2 0xE23 JUMP JUMPDEST PUSH2 0x266 PUSH2 0x11D7 JUMP JUMPDEST PUSH2 0x21B PUSH2 0x1265 JUMP JUMPDEST PUSH2 0x3E6 PUSH2 0x3E1 CALLDATASIZE PUSH1 0x4 PUSH2 0x2A26 JUMP JUMPDEST PUSH2 0x1274 JUMP JUMPDEST PUSH1 0x40 MLOAD PUSH2 0x20A SWAP4 SWAP3 SWAP2 SWAP1 PUSH2 0x2B3A JUMP JUMPDEST PUSH2 0x266 PUSH2 0x403 CALLDATASIZE PUSH1 0x4 PUSH2 0x2B71 JUMP JUMPDEST PUSH2 0x132B JUMP JUMPDEST PUSH2 0x26C PUSH2 0x416 CALLDATASIZE PUSH1 0x4 PUSH2 0x2A26 JUMP JUMPDEST DUP1 MLOAD PUSH1 0x20 DUP2 DUP4 ADD DUP2 ADD DUP1 MLOAD PUSH1 0x16 DUP3 MSTORE SWAP3 DUP3 ADD SWAP2 SWAP1 SWAP4 ADD KECCAK256 SWAP2 MSTORE SLOAD DUP2 JUMP JUMPDEST PUSH2 0x266 PUSH2 0x441 CALLDATASIZE PUSH1 0x4 PUSH2 0x2BA8 JUMP JUMPDEST PUSH2 0x1336 JUMP JUMPDEST PUSH2 0x21B PUSH2 0x454 CALLDATASIZE PUSH1 0x4 PUSH2 0x2759 JUMP JUMPDEST PUSH2 0x134D JUMP JUMPDEST PUSH2 0x266 PUSH2 0x467 CALLDATASIZE PUSH1 0x4 PUSH2 0x2C22 JUMP JUMPDEST PUSH2 0x13BE JUMP JUMPDEST PUSH2 0x266 PUSH2 0x47A CALLDATASIZE PUSH1 0x4 PUSH2 0x2D2A JUMP JUMPDEST PUSH2 0x15BB JUMP JUMPDEST PUSH2 0x266 PUSH2 0x1BBD JUMP JUMPDEST PUSH2 0x1FE PUSH2 0x495 CALLDATASIZE PUSH1 0x4 PUSH2 0x2E2D JUMP JUMPDEST PUSH2 0x1C6F JUMP JUMPDEST PUSH0 PUSH1 0x1 PUSH1 0x1 PUSH1 0xE0 SHL SUB NOT DUP3 AND PUSH4 0x780E9D63 PUSH1 0xE0 SHL EQ DUP1 PUSH2 0x4BE JUMPI POP PUSH2 0x4BE DUP3 PUSH2 0x1C9C JUMP JUMPDEST SWAP3 SWAP2 POP POP JUMP JUMPDEST PUSH1 0x60 PUSH0 DUP1 SLOAD PUSH2 0x4D2 SWAP1 PUSH2 0x2E59 JUMP JUMPDEST DUP1 PUSH1 0x1F ADD PUSH1 0x20 DUP1 SWAP2 DIV MUL PUSH1 0x20 ADD PUSH1 0x40 MLOAD SWAP1 DUP2 ADD PUSH1 0x40 MSTORE DUP1 SWAP3 SWAP2 SWAP1 DUP2 DUP2 MSTORE PUSH1 0x20 ADD DUP3 DUP1 SLOAD PUSH2 0x4FE SWAP1 PUSH2 0x2E59 JUMP JUMPDEST DUP1 ISZERO PUSH2 0x549 JUMPI DUP1 PUSH1 0x1F LT PUSH2 0x520 JUMPI PUSH2 0x100 DUP1 DUP4 SLOAD DIV MUL DUP4 MSTORE SWAP2 PUSH1 0x20 ADD SWAP2 PUSH2 0x549 JUMP JUMPDEST DUP3 ADD SWAP2 SWAP1 PUSH0 MSTORE PUSH1 0x20 PUSH0 KECCAK256 SWAP1 JUMPDEST DUP2 SLOAD DUP2 MSTORE SWAP1 PUSH1 0x1 ADD SWAP1 PUSH1 0x20 ADD DUP1 DUP4 GT PUSH2 0x52C JUMPI DUP3 SWAP1 SUB PUSH1 0x1F AND DUP3 ADD SWAP2 JUMPDEST POP POP POP POP POP SWAP1 POP SWAP1 JUMP JUMPDEST PUSH0 PUSH2 0x55D DUP3 PUSH2 0x1CEB JUMP JUMPDEST POP PUSH0 DUP3 DUP2 MSTORE PUSH1 0x4 PUSH1 0x20 MSTORE PUSH1 0x40 SWAP1 KECCAK256 SLOAD PUSH1 0x1 PUSH1 0x1 PUSH1 0xA0 SHL SUB AND PUSH2 0x4BE JUMP JUMPDEST PUSH2 0x585 DUP3 DUP3 CALLER PUSH2 0x1D23 JUMP JUMPDEST POP POP JUMP JUMPDEST PUSH1 0x1 PUSH1 0x1 PUSH1 0xA0 SHL SUB DUP3 AND PUSH2 0x5B7 JUMPI PUSH1 0x40 MLOAD PUSH4 0x32505749 PUSH1 0xE1 SHL DUP2 MSTORE PUSH0 PUSH1 0x4 DUP3 ADD MSTORE PUSH1 0x24 ADD JUMPDEST PUSH1 0x40 MLOAD DUP1 SWAP2 SUB SWAP1 REVERT JUMPDEST PUSH0 PUSH2 0x5C3 DUP4 DUP4 CALLER PUSH2 0x1D30 JUMP JUMPDEST SWAP1 POP DUP4 PUSH1 0x1 PUSH1 0x1 PUSH1 0xA0 SHL SUB AND DUP2 PUSH1 0x1 PUSH1 0x1 PUSH1 0xA0 SHL SUB AND EQ PUSH2 0x611 JUMPI PUSH1 0x40 MLOAD PUSH4 0x64283D7B PUSH1 0xE0 SHL DUP2 MSTORE PUSH1 0x1 PUSH1 0x1 PUSH1 0xA0 SHL SUB DUP1 DUP7 AND PUSH1 0x4 DUP4 ADD MSTORE PUSH1 0x24 DUP3 ADD DUP5 SWAP1 MSTORE DUP3 AND PUSH1 0x44 DUP3 ADD MSTORE PUSH1 0x64 ADD PUSH2 0x5AE JUMP JUMPDEST POP POP POP POP JUMP JUMPDEST PUSH0 PUSH2 0x621 DUP4 PUSH2 0xA5B JUMP JUMPDEST DUP3 LT PUSH2 0x652 JUMPI PUSH1 0x40 MLOAD PUSH4 0x295F44F7 PUSH1 0xE2 SHL DUP2 MSTORE PUSH1 0x1 PUSH1 0x1 PUSH1 0xA0 SHL SUB DUP5 AND PUSH1 0x4 DUP3 ADD MSTORE PUSH1 0x24 DUP2 ADD DUP4 SWAP1 MSTORE PUSH1 0x44 ADD PUSH2 0x5AE JUMP JUMPDEST POP PUSH1 0x1 PUSH1 0x1 PUSH1 0xA0 SHL SUB SWAP2 SWAP1 SWAP2 AND PUSH0 SWAP1 DUP2 MSTORE PUSH1 0x6 PUSH1 0x20 SWAP1 DUP2 MSTORE PUSH1 0x40 DUP1 DUP4 KECCAK256 SWAP4 DUP4 MSTORE SWAP3 SWAP1 MSTORE KECCAK256 SLOAD SWAP1 JUMP JUMPDEST PUSH1 0xC SLOAD PUSH1 0x40 MLOAD PUSH4 0x42282D95 PUSH1 0xE0 SHL DUP2 MSTORE CALLER PUSH1 0x4 DUP3 ADD MSTORE PUSH1 0x1 PUSH1 0x1 PUSH1 0xA0 SHL SUB SWAP1 SWAP2 AND SWAP1 PUSH4 0x42282D95 SWAP1 PUSH1 0x24 ADD PUSH1 0x20 PUSH1 0x40 MLOAD DUP1 DUP4 SUB DUP2 DUP7 GAS STATICCALL ISZERO DUP1 ISZERO PUSH2 0x6C0 JUMPI RETURNDATASIZE PUSH0 DUP1 RETURNDATACOPY RETURNDATASIZE PUSH0 REVERT JUMPDEST POP POP POP POP PUSH1 0x40 MLOAD RETURNDATASIZE PUSH1 0x1F NOT PUSH1 0x1F DUP3 ADD AND DUP3 ADD DUP1 PUSH1 0x40 MSTORE POP DUP2 ADD SWAP1 PUSH2 0x6E4 SWAP2 SWAP1 PUSH2 0x2EA1 JUMP JUMPDEST PUSH2 0x700 JUMPI PUSH1 0x40 MLOAD PUSH3 0x461BCD PUSH1 0xE5 SHL DUP2 MSTORE PUSH1 0x4 ADD PUSH2 0x5AE SWAP1 PUSH2 0x2EBC JUMP JUMPDEST PUSH2 0x708 PUSH2 0x1E03 JUMP JUMPDEST JUMP JUMPDEST PUSH2 0x724 DUP4 DUP4 DUP4 PUSH1 0x40 MLOAD DUP1 PUSH1 0x20 ADD PUSH1 0x40 MSTORE DUP1 PUSH0 DUP2 MSTORE POP PUSH2 0x1336 JUMP JUMPDEST POP POP POP JUMP JUMPDEST PUSH0 PUSH2 0x733 PUSH1 0x8 SLOAD SWAP1 JUMP JUMPDEST DUP3 LT PUSH2 0x75B JUMPI PUSH1 0x40 MLOAD PUSH4 0x295F44F7 PUSH1 0xE2 SHL DUP2 MSTORE PUSH0 PUSH1 0x4 DUP3 ADD MSTORE PUSH1 0x24 DUP2 ADD DUP4 SWAP1 MSTORE PUSH1 0x44 ADD PUSH2 0x5AE JUMP JUMPDEST PUSH1 0x8 DUP3 DUP2 SLOAD DUP2 LT PUSH2 0x76E JUMPI PUSH2 0x76E PUSH2 0x2EF1 JUMP JUMPDEST SWAP1 PUSH0 MSTORE PUSH1 0x20 PUSH0 KECCAK256 ADD SLOAD SWAP1 POP SWAP2 SWAP1 POP JUMP JUMPDEST PUSH1 0x15 PUSH1 0x20 MSTORE PUSH0 SWAP1 DUP2 MSTORE PUSH1 0x40 SWAP1 KECCAK256 DUP1 SLOAD DUP2 SWAP1 PUSH2 0x798 SWAP1 PUSH2 0x2E59 JUMP JUMPDEST DUP1 PUSH1 0x1F ADD PUSH1 0x20 DUP1 SWAP2 DIV MUL PUSH1 0x20 ADD PUSH1 0x40 MLOAD SWAP1 DUP2 ADD PUSH1 0x40 MSTORE DUP1 SWAP3 SWAP2 SWAP1 DUP2 DUP2 MSTORE PUSH1 0x20 ADD DUP3 DUP1 SLOAD PUSH2 0x7C4 SWAP1 PUSH2 0x2E59 JUMP JUMPDEST DUP1 ISZERO PUSH2 0x80F JUMPI DUP1 PUSH1 0x1F LT PUSH2 0x7E6 JUMPI PUSH2 0x100 DUP1 DUP4 SLOAD DIV MUL DUP4 MSTORE SWAP2 PUSH1 0x20 ADD SWAP2 PUSH2 0x80F JUMP JUMPDEST DUP3 ADD SWAP2 SWAP1 PUSH0 MSTORE PUSH1 0x20 PUSH0 KECCAK256 SWAP1 JUMPDEST DUP2 SLOAD DUP2 MSTORE SWAP1 PUSH1 0x1 ADD SWAP1 PUSH1 0x20 ADD DUP1 DUP4 GT PUSH2 0x7F2 JUMPI DUP3 SWAP1 SUB PUSH1 0x1F AND DUP3 ADD SWAP2 JUMPDEST POP POP POP POP POP SWAP1 DUP1 PUSH1 0x1 ADD DUP1 SLOAD PUSH2 0x824 SWAP1 PUSH2 0x2E59 JUMP JUMPDEST DUP1 PUSH1 0x1F ADD PUSH1 0x20 DUP1 SWAP2 DIV MUL PUSH1 0x20 ADD PUSH1 0x40 MLOAD SWAP1 DUP2 ADD PUSH1 0x40 MSTORE DUP1 SWAP3 SWAP2 SWAP1 DUP2 DUP2 MSTORE PUSH1 0x20 ADD DUP3 DUP1 SLOAD PUSH2 0x850 SWAP1 PUSH2 0x2E59 JUMP JUMPDEST DUP1 ISZERO PUSH2 0x89B JUMPI DUP1 PUSH1 0x1F LT PUSH2 0x872 JUMPI PUSH2 0x100 DUP1 DUP4 SLOAD DIV MUL DUP4 MSTORE SWAP2 PUSH1 0x20 ADD SWAP2 PUSH2 0x89B JUMP JUMPDEST DUP3 ADD SWAP2 SWAP1 PUSH0 MSTORE PUSH1 0x20 PUSH0 KECCAK256 SWAP1 JUMPDEST DUP2 SLOAD DUP2 MSTORE SWAP1 PUSH1 0x1 ADD SWAP1 PUSH1 0x20 ADD DUP1 DUP4 GT PUSH2 0x87E JUMPI DUP3 SWAP1 SUB PUSH1 0x1F AND DUP3 ADD SWAP2 JUMPDEST POP POP POP POP POP SWAP1 DUP1 PUSH1 0x2 ADD DUP1 SLOAD PUSH2 0x8B0 SWAP1 PUSH2 0x2E59 JUMP JUMPDEST DUP1 PUSH1 0x1F ADD PUSH1 0x20 DUP1 SWAP2 DIV MUL PUSH1 0x20 ADD PUSH1 0x40 MLOAD SWAP1 DUP2 ADD PUSH1 0x40 MSTORE DUP1 SWAP3 SWAP2 SWAP1 DUP2 DUP2 MSTORE PUSH1 0x20 ADD DUP3 DUP1 SLOAD PUSH2 0x8DC SWAP1 PUSH2 0x2E59 JUMP JUMPDEST DUP1 ISZERO PUSH2 0x927 JUMPI DUP1 PUSH1 0x1F LT PUSH2 0x8FE JUMPI PUSH2 0x100 DUP1 DUP4 SLOAD DIV MUL DUP4 MSTORE SWAP2 PUSH1 0x20 ADD SWAP2 PUSH2 0x927 JUMP JUMPDEST DUP3 ADD SWAP2 SWAP1 PUSH0 MSTORE PUSH1 0x20 PUSH0 KECCAK256 SWAP1 JUMPDEST DUP2 SLOAD DUP2 MSTORE SWAP1 PUSH1 0x1 ADD SWAP1 PUSH1 0x20 ADD DUP1 DUP4 GT PUSH2 0x90A JUMPI DUP3 SWAP1 SUB PUSH1 0x1F AND DUP3 ADD SWAP2 JUMPDEST POP POP POP POP POP SWAP1 DUP1 PUSH1 0x3 ADD DUP1 SLOAD PUSH2 0x93C SWAP1 PUSH2 0x2E59 JUMP JUMPDEST DUP1 PUSH1 0x1F ADD PUSH1 0x20 DUP1 SWAP2 DIV MUL PUSH1 0x20 ADD PUSH1 0x40 MLOAD SWAP1 DUP2 ADD PUSH1 0x40 MSTORE DUP1 SWAP3 SWAP2 SWAP1 DUP2 DUP2 MSTORE PUSH1 0x20 ADD DUP3 DUP1 SLOAD PUSH2 0x968 SWAP1 PUSH2 0x2E59 JUMP JUMPDEST DUP1 ISZERO PUSH2 0x9B3 JUMPI DUP1 PUSH1 0x1F LT PUSH2 0x98A JUMPI PUSH2 0x100 DUP1 DUP4 SLOAD DIV MUL DUP4 MSTORE SWAP2 PUSH1 0x20 ADD SWAP2 PUSH2 0x9B3 JUMP JUMPDEST DUP3 ADD SWAP2 SWAP1 PUSH0 MSTORE PUSH1 0x20 PUSH0 KECCAK256 SWAP1 JUMPDEST DUP2 SLOAD DUP2 MSTORE SWAP1 PUSH1 0x1 ADD SWAP1 PUSH1 0x20 ADD DUP1 DUP4 GT PUSH2 0x996 JUMPI DUP3 SWAP1 SUB PUSH1 0x1F AND DUP3 ADD SWAP2 JUMPDEST POP POP POP PUSH1 0x4 SWAP1 SWAP4 ADD SLOAD SWAP2 SWAP3 POP POP PUSH1 0xFF AND DUP6 JUMP JUMPDEST PUSH1 0xC SLOAD PUSH1 0x40 MLOAD PUSH4 0x42282D95 PUSH1 0xE0 SHL DUP2 MSTORE CALLER PUSH1 0x4 DUP3 ADD MSTORE PUSH1 0x1 PUSH1 0x1 PUSH1 0xA0 SHL SUB SWAP1 SWAP2 AND SWAP1 PUSH4 0x42282D95 SWAP1 PUSH1 0x24 ADD PUSH1 0x20 PUSH1 0x40 MLOAD DUP1 DUP4 SUB DUP2 DUP7 GAS STATICCALL ISZERO DUP1 ISZERO PUSH2 0xA0C JUMPI RETURNDATASIZE PUSH0 DUP1 RETURNDATACOPY RETURNDATASIZE PUSH0 REVERT JUMPDEST POP POP POP POP PUSH1 0x40 MLOAD RETURNDATASIZE PUSH1 0x1F NOT PUSH1 0x1F DUP3 ADD AND DUP3 ADD DUP1 PUSH1 0x40 MSTORE POP DUP2 ADD SWAP1 PUSH2 0xA30 SWAP2 SWAP1 PUSH2 0x2EA1 JUMP JUMPDEST PUSH2 0xA4C JUMPI PUSH1 0x40 MLOAD PUSH3 0x461BCD PUSH1 0xE5 SHL DUP2 MSTORE PUSH1 0x4 ADD PUSH2 0x5AE SWAP1 PUSH2 0x2EBC JUMP JUMPDEST PUSH1 0xE SSTORE JUMP JUMPDEST PUSH0 PUSH2 0x4BE DUP3 PUSH2 0x1CEB JUMP JUMPDEST PUSH0 PUSH1 0x1 PUSH1 0x1 PUSH1 0xA0 SHL SUB DUP3 AND PUSH2 0xA85 JUMPI PUSH1 0x40 MLOAD PUSH4 0x22718AD9 PUSH1 0xE2 SHL DUP2 MSTORE PUSH0 PUSH1 0x4 DUP3 ADD MSTORE PUSH1 0x24 ADD PUSH2 0x5AE JUMP JUMPDEST POP PUSH1 0x1 PUSH1 0x1 PUSH1 0xA0 SHL SUB AND PUSH0 SWAP1 DUP2 MSTORE PUSH1 0x3 PUSH1 0x20 MSTORE PUSH1 0x40 SWAP1 KECCAK256 SLOAD SWAP1 JUMP JUMPDEST PUSH0 DUP4 DUP2 MSTORE PUSH1 0x13 PUSH1 0x20 MSTORE PUSH1 0x40 DUP1 DUP3 KECCAK256 SWAP1 MLOAD PUSH2 0xABD SWAP1 DUP6 SWAP1 DUP6 SWAP1 PUSH2 0x2F05 JUMP JUMPDEST SWAP1 DUP2 MSTORE PUSH1 0x20 ADD PUSH1 0x40 MLOAD DUP1 SWAP2 SUB SWAP1 KECCAK256 SLOAD SWAP1 POP SWAP4 SWAP3 POP POP POP JUMP JUMPDEST PUSH0 PUSH2 0xADE PUSH2 0x1E55 JUMP JUMPDEST PUSH1 0xC SLOAD PUSH1 0x40 MLOAD PUSH4 0x64648F57 PUSH1 0xE0 SHL DUP2 MSTORE CALLER PUSH1 0x4 DUP3 ADD MSTORE PUSH1 0x1 PUSH1 0x1 PUSH1 0xA0 SHL SUB SWAP1 SWAP2 AND SWAP1 PUSH4 0x64648F57 SWAP1 PUSH1 0x24 ADD PUSH1 0x20 PUSH1 0x40 MLOAD DUP1 DUP4 SUB DUP2 DUP7 GAS STATICCALL ISZERO DUP1 ISZERO PUSH2 0xB24 JUMPI RETURNDATASIZE PUSH0 DUP1 RETURNDATACOPY RETURNDATASIZE PUSH0 REVERT JUMPDEST POP POP POP POP PUSH1 0x40 MLOAD RETURNDATASIZE PUSH1 0x1F NOT PUSH1 0x1F DUP3 ADD AND DUP3 ADD DUP1 PUSH1 0x40 MSTORE POP DUP2 ADD SWAP1 PUSH2 0xB48 SWAP2 SWAP1 PUSH2 0x2EA1 JUMP JUMPDEST PUSH2 0xB64 JUMPI PUSH1 0x40 MLOAD PUSH3 0x461BCD PUSH1 0xE5 SHL DUP2 MSTORE PUSH1 0x4 ADD PUSH2 0x5AE SWAP1 PUSH2 0x2EBC JUMP JUMPDEST DUP3 PUSH1 0xE SLOAD PUSH1 0x16 DUP3 PUSH1 0x40 MLOAD PUSH2 0xB78 SWAP2 SWAP1 PUSH2 0x2F2B JUMP JUMPDEST SWAP1 DUP2 MSTORE PUSH1 0x20 ADD PUSH1 0x40 MLOAD DUP1 SWAP2 SUB SWAP1 KECCAK256 SLOAD TIMESTAMP PUSH2 0xB92 SWAP2 SWAP1 PUSH2 0x2F4A JUMP JUMPDEST SGT PUSH2 0xBF3 JUMPI PUSH1 0x40 MLOAD PUSH3 0x461BCD PUSH1 0xE5 SHL DUP2 MSTORE PUSH1 0x20 PUSH1 0x4 DUP3 ADD MSTORE PUSH1 0x2B PUSH1 0x24 DUP3 ADD MSTORE PUSH32 0x596F75206E65656420746F2077616974206265666F726520616E6F7468657220 PUSH1 0x44 DUP3 ADD MSTORE PUSH11 0x39BAB136B4B9B9B4B7B717 PUSH1 0xA9 SHL PUSH1 0x64 DUP3 ADD MSTORE PUSH1 0x84 ADD PUSH2 0x5AE JUMP JUMPDEST PUSH1 0xD SLOAD PUSH1 0x40 MLOAD PUSH4 0x518AB27B PUSH1 0xE0 SHL DUP2 MSTORE DUP6 SWAP2 PUSH1 0x1 PUSH1 0x1 PUSH1 0xA0 SHL SUB AND SWAP1 PUSH4 0x518AB27B SWAP1 PUSH2 0xC23 SWAP1 DUP5 SWAP1 PUSH1 0x4 ADD PUSH2 0x2747 JUMP JUMPDEST PUSH1 0x20 PUSH1 0x40 MLOAD DUP1 DUP4 SUB DUP2 DUP7 GAS STATICCALL ISZERO DUP1 ISZERO PUSH2 0xC3E JUMPI RETURNDATASIZE PUSH0 DUP1 RETURNDATACOPY RETURNDATASIZE PUSH0 REVERT JUMPDEST POP POP POP POP PUSH1 0x40 MLOAD RETURNDATASIZE PUSH1 0x1F NOT PUSH1 0x1F DUP3 ADD AND DUP3 ADD DUP1 PUSH1 0x40 MSTORE POP DUP2 ADD SWAP1 PUSH2 0xC62 SWAP2 SWAP1 PUSH2 0x2EA1 JUMP JUMPDEST PUSH2 0xC7E JUMPI PUSH1 0x40 MLOAD PUSH3 0x461BCD PUSH1 0xE5 SHL DUP2 MSTORE PUSH1 0x4 ADD PUSH2 0x5AE SWAP1 PUSH2 0x2EBC JUMP JUMPDEST PUSH0 PUSH1 0x14 DUP6 PUSH1 0x40 MLOAD PUSH2 0xC8F SWAP2 SWAP1 PUSH2 0x2F2B JUMP JUMPDEST SWAP1 DUP2 MSTORE PUSH1 0x20 ADD PUSH1 0x40 MLOAD DUP1 SWAP2 SUB SWAP1 KECCAK256 SWAP1 POP PUSH1 0xF PUSH0 DUP2 SLOAD PUSH2 0xCAD SWAP1 PUSH2 0x2F5D JUMP JUMPDEST SWAP2 DUP3 SWAP1 SSTORE POP DUP2 SSTORE PUSH1 0x1 DUP2 ADD PUSH2 0xCC2 DUP8 DUP3 PUSH2 0x2FB9 JUMP JUMPDEST POP PUSH1 0x2 DUP2 ADD DUP1 SLOAD PUSH1 0xFF NOT AND SWAP1 SSTORE PUSH1 0x40 MLOAD TIMESTAMP SWAP1 PUSH1 0x16 SWAP1 PUSH2 0xCE2 SWAP1 DUP10 SWAP1 PUSH2 0x2F2B JUMP JUMPDEST SWAP1 DUP2 MSTORE PUSH1 0x20 ADD PUSH1 0x40 MLOAD DUP1 SWAP2 SUB SWAP1 KECCAK256 DUP2 SWAP1 SSTORE POP PUSH32 0x7AF9EA8BCF333C45AC0F9DCFF15C12784F7B3F6D0023592D8ED3BCD8828FF951 PUSH1 0xF SLOAD DUP7 DUP9 PUSH1 0x40 MLOAD PUSH2 0xD29 SWAP4 SWAP3 SWAP2 SWAP1 PUSH2 0x3078 JUMP JUMPDEST PUSH1 0x40 MLOAD DUP1 SWAP2 SUB SWAP1 LOG1 POP POP PUSH1 0xF SLOAD SWAP5 SWAP4 POP POP POP POP JUMP JUMPDEST PUSH1 0x60 PUSH1 0x12 PUSH0 DUP4 DUP2 MSTORE PUSH1 0x20 ADD SWAP1 DUP2 MSTORE PUSH1 0x20 ADD PUSH0 KECCAK256 DUP1 SLOAD DUP1 PUSH1 0x20 MUL PUSH1 0x20 ADD PUSH1 0x40 MLOAD SWAP1 DUP2 ADD PUSH1 0x40 MSTORE DUP1 SWAP3 SWAP2 SWAP1 DUP2 DUP2 MSTORE PUSH1 0x20 ADD PUSH0 SWAP1 JUMPDEST DUP3 DUP3 LT ISZERO PUSH2 0xE18 JUMPI DUP4 DUP3 SWAP1 PUSH0 MSTORE PUSH1 0x20 PUSH0 KECCAK256 ADD DUP1 SLOAD PUSH2 0xD8D SWAP1 PUSH2 0x2E59 JUMP JUMPDEST DUP1 PUSH1 0x1F ADD PUSH1 0x20 DUP1 SWAP2 DIV MUL PUSH1 0x20 ADD PUSH1 0x40 MLOAD SWAP1 DUP2 ADD PUSH1 0x40 MSTORE DUP1 SWAP3 SWAP2 SWAP1 DUP2 DUP2 MSTORE PUSH1 0x20 ADD DUP3 DUP1 SLOAD PUSH2 0xDB9 SWAP1 PUSH2 0x2E59 JUMP JUMPDEST DUP1 ISZERO PUSH2 0xE04 JUMPI DUP1 PUSH1 0x1F LT PUSH2 0xDDB JUMPI PUSH2 0x100 DUP1 DUP4 SLOAD DIV MUL DUP4 MSTORE SWAP2 PUSH1 0x20 ADD SWAP2 PUSH2 0xE04 JUMP JUMPDEST DUP3 ADD SWAP2 SWAP1 PUSH0 MSTORE PUSH1 0x20 PUSH0 KECCAK256 SWAP1 JUMPDEST DUP2 SLOAD DUP2 MSTORE SWAP1 PUSH1 0x1 ADD SWAP1 PUSH1 0x20 ADD DUP1 DUP4 GT PUSH2 0xDE7 JUMPI DUP3 SWAP1 SUB PUSH1 0x1F AND DUP3 ADD SWAP2 JUMPDEST POP POP POP POP POP DUP2 MSTORE PUSH1 0x20 ADD SWAP1 PUSH1 0x1 ADD SWAP1 PUSH2 0xD70 JUMP JUMPDEST POP POP POP POP SWAP1 POP SWAP2 SWAP1 POP JUMP JUMPDEST PUSH2 0xE2B PUSH2 0x1E55 JUMP JUMPDEST PUSH1 0xC SLOAD PUSH1 0x40 MLOAD PUSH4 0x64648F57 PUSH1 0xE0 SHL DUP2 MSTORE CALLER PUSH1 0x4 DUP3 ADD MSTORE PUSH1 0x1 PUSH1 0x1 PUSH1 0xA0 SHL SUB SWAP1 SWAP2 AND SWAP1 PUSH4 0x64648F57 SWAP1 PUSH1 0x24 ADD PUSH1 0x20 PUSH1 0x40 MLOAD DUP1 DUP4 SUB DUP2 DUP7 GAS STATICCALL ISZERO DUP1 ISZERO PUSH2 0xE71 JUMPI RETURNDATASIZE PUSH0 DUP1 RETURNDATACOPY RETURNDATASIZE PUSH0 REVERT JUMPDEST POP POP POP POP PUSH1 0x40 MLOAD RETURNDATASIZE PUSH1 0x1F NOT PUSH1 0x1F DUP3 ADD AND DUP3 ADD DUP1 PUSH1 0x40 MSTORE POP DUP2 ADD SWAP1 PUSH2 0xE95 SWAP2 SWAP1 PUSH2 0x2EA1 JUMP JUMPDEST PUSH2 0xEB1 JUMPI PUSH1 0x40 MLOAD PUSH3 0x461BCD PUSH1 0xE5 SHL DUP2 MSTORE PUSH1 0x4 ADD PUSH2 0x5AE SWAP1 PUSH2 0x2EBC JUMP JUMPDEST PUSH1 0xD SLOAD PUSH1 0x40 MLOAD PUSH4 0x518AB27B PUSH1 0xE0 SHL DUP2 MSTORE DUP5 SWAP2 PUSH1 0x1 PUSH1 0x1 PUSH1 0xA0 SHL SUB AND SWAP1 PUSH4 0x518AB27B SWAP1 PUSH2 0xEE1 SWAP1 DUP5 SWAP1 PUSH1 0x4 ADD PUSH2 0x2747 JUMP JUMPDEST PUSH1 0x20 PUSH1 0x40 MLOAD DUP1 DUP4 SUB DUP2 DUP7 GAS STATICCALL ISZERO DUP1 ISZERO PUSH2 0xEFC JUMPI RETURNDATASIZE PUSH0 DUP1 RETURNDATACOPY RETURNDATASIZE PUSH0 REVERT JUMPDEST POP POP POP POP PUSH1 0x40 MLOAD RETURNDATASIZE PUSH1 0x1F NOT PUSH1 0x1F DUP3 ADD AND DUP3 ADD DUP1 PUSH1 0x40 MSTORE POP DUP2 ADD SWAP1 PUSH2 0xF20 SWAP2 SWAP1 PUSH2 0x2EA1 JUMP JUMPDEST PUSH2 0xF3C JUMPI PUSH1 0x40 MLOAD PUSH3 0x461BCD PUSH1 0xE5 SHL DUP2 MSTORE PUSH1 0x4 ADD PUSH2 0x5AE SWAP1 PUSH2 0x2EBC JUMP JUMPDEST DUP3 PUSH0 PUSH1 0x14 DUP3 PUSH1 0x40 MLOAD PUSH2 0xF4E SWAP2 SWAP1 PUSH2 0x2F2B JUMP JUMPDEST SWAP1 DUP2 MSTORE PUSH1 0x40 MLOAD SWAP1 DUP2 SWAP1 SUB PUSH1 0x20 ADD SWAP1 KECCAK256 SLOAD GT PUSH2 0xFA2 JUMPI PUSH1 0x40 MLOAD PUSH3 0x461BCD PUSH1 0xE5 SHL DUP2 MSTORE PUSH1 0x20 PUSH1 0x4 DUP3 ADD MSTORE PUSH1 0x14 PUSH1 0x24 DUP3 ADD MSTORE PUSH20 0x105CDCD95D08191BD95CC81B9BDD08195E1A5CDD PUSH1 0x62 SHL PUSH1 0x44 DUP3 ADD MSTORE PUSH1 0x64 ADD PUSH2 0x5AE JUMP JUMPDEST DUP5 PUSH1 0x40 MLOAD PUSH1 0x20 ADD PUSH2 0xFB3 SWAP2 SWAP1 PUSH2 0x2F2B JUMP JUMPDEST PUSH1 0x40 MLOAD PUSH1 0x20 DUP2 DUP4 SUB SUB DUP2 MSTORE SWAP1 PUSH1 0x40 MSTORE DUP1 MLOAD SWAP1 PUSH1 0x20 ADD KECCAK256 PUSH1 0x14 DUP6 PUSH1 0x40 MLOAD PUSH2 0xFD9 SWAP2 SWAP1 PUSH2 0x2F2B JUMP JUMPDEST SWAP1 DUP2 MSTORE PUSH1 0x20 ADD PUSH1 0x40 MLOAD DUP1 SWAP2 SUB SWAP1 KECCAK256 PUSH1 0x1 ADD PUSH1 0x40 MLOAD PUSH1 0x20 ADD PUSH2 0xFFA SWAP2 SWAP1 PUSH2 0x30AC JUMP JUMPDEST PUSH1 0x40 MLOAD PUSH1 0x20 DUP2 DUP4 SUB SUB DUP2 MSTORE SWAP1 PUSH1 0x40 MSTORE DUP1 MLOAD SWAP1 PUSH1 0x20 ADD KECCAK256 EQ PUSH2 0x1072 JUMPI PUSH1 0x40 MLOAD PUSH3 0x461BCD PUSH1 0xE5 SHL DUP2 MSTORE PUSH1 0x20 PUSH1 0x4 DUP3 ADD MSTORE PUSH1 0x2C PUSH1 0x24 DUP3 ADD MSTORE PUSH32 0x4F6E6C79207468652064617461207375626D69747465722063616E2072616973 PUSH1 0x44 DUP3 ADD MSTORE PUSH12 0x329030903234B9B83ABA3297 PUSH1 0xA1 SHL PUSH1 0x64 DUP3 ADD MSTORE PUSH1 0x84 ADD PUSH2 0x5AE JUMP JUMPDEST PUSH1 0x40 MLOAD DUP1 PUSH1 0xA0 ADD PUSH1 0x40 MSTORE DUP1 DUP6 DUP2 MSTORE PUSH1 0x20 ADD DUP5 DUP2 MSTORE PUSH1 0x20 ADD PUSH1 0x40 MLOAD DUP1 PUSH1 0x20 ADD PUSH1 0x40 MSTORE DUP1 PUSH0 DUP2 MSTORE POP DUP2 MSTORE PUSH1 0x20 ADD PUSH1 0x40 MLOAD DUP1 PUSH1 0x40 ADD PUSH1 0x40 MSTORE DUP1 PUSH1 0x9 DUP2 MSTORE PUSH1 0x20 ADD PUSH9 0x1CDD589B5A5D1D1959 PUSH1 0xBA SHL DUP2 MSTORE POP DUP2 MSTORE PUSH1 0x20 ADD PUSH0 ISZERO ISZERO DUP2 MSTORE POP PUSH1 0x15 PUSH0 PUSH1 0x11 PUSH0 DUP2 SLOAD PUSH2 0x10DB SWAP1 PUSH2 0x2F5D JUMP JUMPDEST SWAP2 DUP3 SWAP1 SSTORE POP DUP2 MSTORE PUSH1 0x20 DUP2 ADD SWAP2 SWAP1 SWAP2 MSTORE PUSH1 0x40 ADD PUSH0 KECCAK256 DUP2 MLOAD DUP2 SWAP1 PUSH2 0x10FD SWAP1 DUP3 PUSH2 0x2FB9 JUMP JUMPDEST POP PUSH1 0x20 DUP3 ADD MLOAD PUSH1 0x1 DUP3 ADD SWAP1 PUSH2 0x1112 SWAP1 DUP3 PUSH2 0x2FB9 JUMP JUMPDEST POP PUSH1 0x40 DUP3 ADD MLOAD PUSH1 0x2 DUP3 ADD SWAP1 PUSH2 0x1127 SWAP1 DUP3 PUSH2 0x2FB9 JUMP JUMPDEST POP PUSH1 0x60 DUP3 ADD MLOAD PUSH1 0x3 DUP3 ADD SWAP1 PUSH2 0x113C SWAP1 DUP3 PUSH2 0x2FB9 JUMP JUMPDEST POP PUSH1 0x80 SWAP2 SWAP1 SWAP2 ADD MLOAD PUSH1 0x4 SWAP1 SWAP2 ADD DUP1 SLOAD PUSH1 0xFF NOT AND SWAP2 ISZERO ISZERO SWAP2 SWAP1 SWAP2 OR SWAP1 SSTORE PUSH1 0x40 MLOAD PUSH1 0x14 SWAP1 PUSH2 0x1169 SWAP1 DUP7 SWAP1 PUSH2 0x2F2B JUMP JUMPDEST SWAP1 DUP2 MSTORE PUSH1 0x40 MLOAD SWAP1 DUP2 SWAP1 SUB PUSH1 0x20 SWAP1 DUP2 ADD DUP3 KECCAK256 PUSH1 0x11 DUP1 SLOAD PUSH1 0x3 SWAP1 SWAP3 ADD DUP1 SLOAD PUSH1 0x1 DUP2 ADD DUP3 SSTORE PUSH0 SWAP2 DUP3 MSTORE SWAP4 SWAP1 KECCAK256 SWAP1 SWAP3 ADD SSTORE SLOAD PUSH32 0x788F04CB5A31369702426696D678406EB73D1F562A588FF3D3A2B7A209ADC54D SWAP2 PUSH2 0x11C8 SWAP2 DUP8 SWAP2 DUP8 SWAP1 DUP11 SWAP1 PUSH2 0x311E JUMP JUMPDEST PUSH1 0x40 MLOAD DUP1 SWAP2 SUB SWAP1 LOG1 POP POP POP POP POP JUMP JUMPDEST PUSH1 0xC SLOAD PUSH1 0x40 MLOAD PUSH4 0x42282D95 PUSH1 0xE0 SHL DUP2 MSTORE CALLER PUSH1 0x4 DUP3 ADD MSTORE PUSH1 0x1 PUSH1 0x1 PUSH1 0xA0 SHL SUB SWAP1 SWAP2 AND SWAP1 PUSH4 0x42282D95 SWAP1 PUSH1 0x24 ADD PUSH1 0x20 PUSH1 0x40 MLOAD DUP1 DUP4 SUB DUP2 DUP7 GAS STATICCALL ISZERO DUP1 ISZERO PUSH2 0x121D JUMPI RETURNDATASIZE PUSH0 DUP1 RETURNDATACOPY RETURNDATASIZE PUSH0 REVERT JUMPDEST POP POP POP POP PUSH1 0x40 MLOAD RETURNDATASIZE PUSH1 0x1F NOT PUSH1 0x1F DUP3 ADD AND DUP3 ADD DUP1 PUSH1 0x40 MSTORE POP DUP2 ADD SWAP1 PUSH2 0x1241 SWAP2 SWAP1 PUSH2 0x2EA1 JUMP JUMPDEST PUSH2 0x125D JUMPI PUSH1 0x40 MLOAD PUSH3 0x461BCD PUSH1 0xE5 SHL DUP2 MSTORE PUSH1 0x4 ADD PUSH2 0x5AE SWAP1 PUSH2 0x2EBC JUMP JUMPDEST PUSH2 0x708 PUSH2 0x1E9B JUMP JUMPDEST PUSH1 0x60 PUSH1 0x1 DUP1 SLOAD PUSH2 0x4D2 SWAP1 PUSH2 0x2E59 JUMP JUMPDEST DUP1 MLOAD PUSH1 0x20 DUP2 DUP4 ADD DUP2 ADD DUP1 MLOAD PUSH1 0x14 DUP3 MSTORE SWAP3 DUP3 ADD SWAP2 SWAP1 SWAP4 ADD KECCAK256 SWAP2 MSTORE DUP1 SLOAD PUSH1 0x1 DUP3 ADD DUP1 SLOAD SWAP2 SWAP3 SWAP2 PUSH2 0x12A1 SWAP1 PUSH2 0x2E59 JUMP JUMPDEST DUP1 PUSH1 0x1F ADD PUSH1 0x20 DUP1 SWAP2 DIV MUL PUSH1 0x20 ADD PUSH1 0x40 MLOAD SWAP1 DUP2 ADD PUSH1 0x40 MSTORE DUP1 SWAP3 SWAP2 SWAP1 DUP2 DUP2 MSTORE PUSH1 0x20 ADD DUP3 DUP1 SLOAD PUSH2 0x12CD SWAP1 PUSH2 0x2E59 JUMP JUMPDEST DUP1 ISZERO PUSH2 0x1318 JUMPI DUP1 PUSH1 0x1F LT PUSH2 0x12EF JUMPI PUSH2 0x100 DUP1 DUP4 SLOAD DIV MUL DUP4 MSTORE SWAP2 PUSH1 0x20 ADD SWAP2 PUSH2 0x1318 JUMP JUMPDEST DUP3 ADD SWAP2 SWAP1 PUSH0 MSTORE PUSH1 0x20 PUSH0 KECCAK256 SWAP1 JUMPDEST DUP2 SLOAD DUP2 MSTORE SWAP1 PUSH1 0x1 ADD SWAP1 PUSH1 0x20 ADD DUP1 DUP4 GT PUSH2 0x12FB JUMPI DUP3 SWAP1 SUB PUSH1 0x1F AND DUP3 ADD SWAP2 JUMPDEST POP POP POP PUSH1 0x2 SWAP1 SWAP4 ADD SLOAD SWAP2 SWAP3 POP POP PUSH1 0xFF AND DUP4 JUMP JUMPDEST PUSH2 0x585 CALLER DUP4 DUP4 PUSH2 0x1ED8 JUMP JUMPDEST PUSH2 0x1341 DUP5 DUP5 DUP5 PUSH2 0x589 JUMP JUMPDEST PUSH2 0x611 DUP5 DUP5 DUP5 DUP5 PUSH2 0x1F76 JUMP JUMPDEST PUSH1 0x60 PUSH2 0x1358 DUP3 PUSH2 0x1CEB JUMP JUMPDEST POP PUSH0 PUSH2 0x136E PUSH1 0x40 DUP1 MLOAD PUSH1 0x20 DUP2 ADD SWAP1 SWAP2 MSTORE PUSH0 DUP2 MSTORE SWAP1 JUMP JUMPDEST SWAP1 POP PUSH0 DUP2 MLOAD GT PUSH2 0x138C JUMPI PUSH1 0x40 MLOAD DUP1 PUSH1 0x20 ADD PUSH1 0x40 MSTORE DUP1 PUSH0 DUP2 MSTORE POP PUSH2 0x13B7 JUMP JUMPDEST DUP1 PUSH2 0x1396 DUP5 PUSH2 0x209C JUMP JUMPDEST PUSH1 0x40 MLOAD PUSH1 0x20 ADD PUSH2 0x13A7 SWAP3 SWAP2 SWAP1 PUSH2 0x3167 JUMP JUMPDEST PUSH1 0x40 MLOAD PUSH1 0x20 DUP2 DUP4 SUB SUB DUP2 MSTORE SWAP1 PUSH1 0x40 MSTORE JUMPDEST SWAP4 SWAP3 POP POP POP JUMP JUMPDEST PUSH2 0x13C6 PUSH2 0x1E55 JUMP JUMPDEST PUSH1 0xC SLOAD PUSH1 0x40 MLOAD PUSH4 0x64648F57 PUSH1 0xE0 SHL DUP2 MSTORE CALLER PUSH1 0x4 DUP3 ADD MSTORE PUSH1 0x1 PUSH1 0x1 PUSH1 0xA0 SHL SUB SWAP1 SWAP2 AND SWAP1 PUSH4 0x64648F57 SWAP1 PUSH1 0x24 ADD PUSH1 0x20 PUSH1 0x40 MLOAD DUP1 DUP4 SUB DUP2 DUP7 GAS STATICCALL ISZERO DUP1 ISZERO PUSH2 0x140C JUMPI RETURNDATASIZE PUSH0 DUP1 RETURNDATACOPY RETURNDATASIZE PUSH0 REVERT JUMPDEST POP POP POP POP PUSH1 0x40 MLOAD RETURNDATASIZE PUSH1 0x1F NOT PUSH1 0x1F DUP3 ADD AND DUP3 ADD DUP1 PUSH1 0x40 MSTORE POP DUP2 ADD SWAP1 PUSH2 0x1430 SWAP2 SWAP1 PUSH2 0x2EA1 JUMP JUMPDEST PUSH2 0x144C JUMPI PUSH1 0x40 MLOAD PUSH3 0x461BCD PUSH1 0xE5 SHL DUP2 MSTORE PUSH1 0x4 ADD PUSH2 0x5AE SWAP1 PUSH2 0x2EBC JUMP JUMPDEST PUSH1 0xD SLOAD PUSH1 0x40 MLOAD PUSH4 0x518AB27B PUSH1 0xE0 SHL DUP2 MSTORE DUP6 SWAP2 PUSH1 0x1 PUSH1 0x1 PUSH1 0xA0 SHL SUB AND SWAP1 PUSH4 0x518AB27B SWAP1 PUSH2 0x147C SWAP1 DUP5 SWAP1 PUSH1 0x4 ADD PUSH2 0x2747 JUMP JUMPDEST PUSH1 0x20 PUSH1 0x40 MLOAD DUP1 DUP4 SUB DUP2 DUP7 GAS STATICCALL ISZERO DUP1 ISZERO PUSH2 0x1497 JUMPI RETURNDATASIZE PUSH0 DUP1 RETURNDATACOPY RETURNDATASIZE PUSH0 REVERT JUMPDEST POP POP POP POP PUSH1 0x40 MLOAD RETURNDATASIZE PUSH1 0x1F NOT PUSH1 0x1F DUP3 ADD AND DUP3 ADD DUP1 PUSH1 0x40 MSTORE POP DUP2 ADD SWAP1 PUSH2 0x14BB SWAP2 SWAP1 PUSH2 0x2EA1 JUMP JUMPDEST PUSH2 0x14D7 JUMPI PUSH1 0x40 MLOAD PUSH3 0x461BCD PUSH1 0xE5 SHL DUP2 MSTORE PUSH1 0x4 ADD PUSH2 0x5AE SWAP1 PUSH2 0x2EBC JUMP JUMPDEST PUSH0 DUP5 DUP2 MSTORE PUSH1 0x15 PUSH1 0x20 MSTORE PUSH1 0x40 SWAP1 KECCAK256 PUSH1 0x4 ADD SLOAD DUP5 SWAP1 PUSH1 0xFF AND ISZERO PUSH2 0x153A JUMPI PUSH1 0x40 MLOAD PUSH3 0x461BCD PUSH1 0xE5 SHL DUP2 MSTORE PUSH1 0x20 PUSH1 0x4 DUP3 ADD DUP2 SWAP1 MSTORE PUSH1 0x24 DUP3 ADD MSTORE PUSH32 0x4469737075746520646F6573206E6F74206578697374206F7220636C6F736564 PUSH1 0x44 DUP3 ADD MSTORE PUSH1 0x64 ADD PUSH2 0x5AE JUMP JUMPDEST PUSH0 DUP6 DUP2 MSTORE PUSH1 0x15 PUSH1 0x20 MSTORE PUSH1 0x40 SWAP1 KECCAK256 PUSH1 0x3 DUP2 ADD PUSH2 0x1555 DUP6 DUP3 PUSH2 0x2FB9 JUMP JUMPDEST POP PUSH1 0x2 DUP2 ADD PUSH2 0x1564 DUP7 DUP3 PUSH2 0x2FB9 JUMP JUMPDEST POP PUSH1 0x4 DUP2 ADD DUP1 SLOAD PUSH1 0xFF NOT AND PUSH1 0x1 OR SWAP1 SSTORE PUSH1 0x40 MLOAD PUSH32 0xA59AC1D81CD76A923BBED1FB84E23F2A7C144DA30EDEB0BB9C7F5069ECC8496C SWAP1 PUSH2 0x15AA SWAP1 DUP4 SWAP1 DUP10 SWAP1 DUP10 SWAP1 DUP13 SWAP1 PUSH2 0x31F4 JUMP JUMPDEST PUSH1 0x40 MLOAD DUP1 SWAP2 SUB SWAP1 LOG1 POP POP POP POP POP POP POP JUMP JUMPDEST PUSH2 0x15C3 PUSH2 0x1E55 JUMP JUMPDEST PUSH1 0xC SLOAD PUSH1 0x40 MLOAD PUSH4 0x64648F57 PUSH1 0xE0 SHL DUP2 MSTORE CALLER PUSH1 0x4 DUP3 ADD MSTORE PUSH1 0x1 PUSH1 0x1 PUSH1 0xA0 SHL SUB SWAP1 SWAP2 AND SWAP1 PUSH4 0x64648F57 SWAP1 PUSH1 0x24 ADD PUSH1 0x20 PUSH1 0x40 MLOAD DUP1 DUP4 SUB DUP2 DUP7 GAS STATICCALL ISZERO DUP1 ISZERO PUSH2 0x1609 JUMPI RETURNDATASIZE PUSH0 DUP1 RETURNDATACOPY RETURNDATASIZE PUSH0 REVERT JUMPDEST POP POP POP POP PUSH1 0x40 MLOAD RETURNDATASIZE PUSH1 0x1F NOT PUSH1 0x1F DUP3 ADD AND DUP3 ADD DUP1 PUSH1 0x40 MSTORE POP DUP2 ADD SWAP1 PUSH2 0x162D SWAP2 SWAP1 PUSH2 0x2EA1 JUMP JUMPDEST PUSH2 0x1649 JUMPI PUSH1 0x40 MLOAD PUSH3 0x461BCD PUSH1 0xE5 SHL DUP2 MSTORE PUSH1 0x4 ADD PUSH2 0x5AE SWAP1 PUSH2 0x2EBC JUMP JUMPDEST PUSH1 0xD SLOAD PUSH1 0x40 MLOAD PUSH4 0x518AB27B PUSH1 0xE0 SHL DUP2 MSTORE DUP6 SWAP2 PUSH1 0x1 PUSH1 0x1 PUSH1 0xA0 SHL SUB AND SWAP1 PUSH4 0x518AB27B SWAP1 PUSH2 0x1679 SWAP1 DUP5 SWAP1 PUSH1 0x4 ADD PUSH2 0x2747 JUMP JUMPDEST PUSH1 0x20 PUSH1 0x40 MLOAD DUP1 DUP4 SUB DUP2 DUP7 GAS STATICCALL ISZERO DUP1 ISZERO PUSH2 0x1694 JUMPI RETURNDATASIZE PUSH0 DUP1 RETURNDATACOPY RETURNDATASIZE PUSH0 REVERT JUMPDEST POP POP POP POP PUSH1 0x40 MLOAD RETURNDATASIZE PUSH1 0x1F NOT PUSH1 0x1F DUP3 ADD AND DUP3 ADD DUP1 PUSH1 0x40 MSTORE POP DUP2 ADD SWAP1 PUSH2 0x16B8 SWAP2 SWAP1 PUSH2 0x2EA1 JUMP JUMPDEST PUSH2 0x16D4 JUMPI PUSH1 0x40 MLOAD PUSH3 0x461BCD PUSH1 0xE5 SHL DUP2 MSTORE PUSH1 0x4 ADD PUSH2 0x5AE SWAP1 PUSH2 0x2EBC JUMP JUMPDEST PUSH1 0xD SLOAD PUSH1 0x40 MLOAD PUSH4 0xF3F9F267 PUSH1 0xE0 SHL DUP2 MSTORE DUP7 SWAP2 PUSH0 SWAP2 PUSH1 0x1 PUSH1 0x1 PUSH1 0xA0 SHL SUB SWAP1 SWAP2 AND SWAP1 PUSH4 0xF3F9F267 SWAP1 PUSH2 0x1708 SWAP1 DUP6 SWAP1 PUSH1 0x4 ADD PUSH2 0x2747 JUMP JUMPDEST PUSH0 PUSH1 0x40 MLOAD DUP1 DUP4 SUB DUP2 DUP7 GAS STATICCALL ISZERO DUP1 ISZERO PUSH2 0x1722 JUMPI RETURNDATASIZE PUSH0 DUP1 RETURNDATACOPY RETURNDATASIZE PUSH0 REVERT JUMPDEST POP POP POP POP PUSH1 0x40 MLOAD RETURNDATASIZE PUSH0 DUP3 RETURNDATACOPY PUSH1 0x1F RETURNDATASIZE SWAP1 DUP2 ADD PUSH1 0x1F NOT AND DUP3 ADD PUSH1 0x40 MSTORE PUSH2 0x1749 SWAP2 SWAP1 DUP2 ADD SWAP1 PUSH2 0x3211 JUMP JUMPDEST SWAP1 POP PUSH32 0xD8D69C1DA829F8277E4E80945A974B3CA009835EB268C14BF9321952F1CF169E DUP2 PUSH0 ADD MLOAD PUSH1 0x40 MLOAD PUSH1 0x20 ADD PUSH2 0x1780 SWAP2 SWAP1 PUSH2 0x2F2B JUMP JUMPDEST PUSH1 0x40 MLOAD PUSH1 0x20 DUP2 DUP4 SUB SUB DUP2 MSTORE SWAP1 PUSH1 0x40 MSTORE DUP1 MLOAD SWAP1 PUSH1 0x20 ADD KECCAK256 EQ PUSH2 0x17E3 JUMPI PUSH1 0x40 MLOAD PUSH3 0x461BCD PUSH1 0xE5 SHL DUP2 MSTORE PUSH1 0x20 PUSH1 0x4 DUP3 ADD MSTORE PUSH1 0x17 PUSH1 0x24 DUP3 ADD MSTORE PUSH32 0x55736572206973206E6F7420612076657269666965722E000000000000000000 PUSH1 0x44 DUP3 ADD MSTORE PUSH1 0x64 ADD PUSH2 0x5AE JUMP JUMPDEST DUP6 PUSH0 PUSH1 0x14 DUP3 PUSH1 0x40 MLOAD PUSH2 0x17F5 SWAP2 SWAP1 PUSH2 0x2F2B JUMP JUMPDEST SWAP1 DUP2 MSTORE PUSH1 0x40 MLOAD SWAP1 DUP2 SWAP1 SUB PUSH1 0x20 ADD SWAP1 KECCAK256 SLOAD GT PUSH2 0x1849 JUMPI PUSH1 0x40 MLOAD PUSH3 0x461BCD PUSH1 0xE5 SHL DUP2 MSTORE PUSH1 0x20 PUSH1 0x4 DUP3 ADD MSTORE PUSH1 0x14 PUSH1 0x24 DUP3 ADD MSTORE PUSH20 0x105CDCD95D08191BD95CC81B9BDD08195E1A5CDD PUSH1 0x62 SHL PUSH1 0x44 DUP3 ADD MSTORE PUSH1 0x64 ADD PUSH2 0x5AE JUMP JUMPDEST PUSH0 PUSH1 0x14 DUP9 PUSH1 0x40 MLOAD PUSH2 0x185A SWAP2 SWAP1 PUSH2 0x2F2B JUMP JUMPDEST SWAP1 DUP2 MSTORE PUSH1 0x40 MLOAD SWAP1 DUP2 SWAP1 SUB PUSH1 0x20 ADD SWAP1 KECCAK256 PUSH1 0x2 DUP2 ADD SLOAD SWAP1 SWAP2 POP PUSH1 0xFF AND ISZERO PUSH2 0x18BA JUMPI PUSH1 0x40 MLOAD PUSH3 0x461BCD PUSH1 0xE5 SHL DUP2 MSTORE PUSH1 0x20 PUSH1 0x4 DUP3 ADD MSTORE PUSH1 0x16 PUSH1 0x24 DUP3 ADD MSTORE PUSH22 0x2230BA309030B63932B0B23C903B32B934B334B2B217 PUSH1 0x51 SHL PUSH1 0x44 DUP3 ADD MSTORE PUSH1 0x64 ADD PUSH2 0x5AE JUMP JUMPDEST DUP6 MLOAD DUP8 MLOAD EQ PUSH2 0x1922 JUMPI PUSH1 0x40 MLOAD PUSH3 0x461BCD PUSH1 0xE5 SHL DUP2 MSTORE PUSH1 0x20 PUSH1 0x4 DUP3 ADD MSTORE PUSH1 0x2E PUSH1 0x24 DUP3 ADD MSTORE PUSH32 0x43726564697420747970657320616E6420737570706C79206C696D697473206C PUSH1 0x44 DUP3 ADD MSTORE PUSH14 0xCADCCEE8D040DAD2E6DAC2E8C6D PUSH1 0x93 SHL PUSH1 0x64 DUP3 ADD MSTORE PUSH1 0x84 ADD PUSH2 0x5AE JUMP JUMPDEST DUP1 SLOAD PUSH1 0xD SLOAD PUSH1 0x40 MLOAD PUSH4 0xF3F9F267 PUSH1 0xE0 SHL DUP2 MSTORE PUSH0 SWAP2 PUSH1 0x1 PUSH1 0x1 PUSH1 0xA0 SHL SUB AND SWAP1 PUSH4 0xF3F9F267 SWAP1 PUSH2 0x1957 SWAP1 PUSH1 0x1 DUP8 ADD SWAP1 PUSH1 0x4 ADD PUSH2 0x32ED JUMP JUMPDEST PUSH0 PUSH1 0x40 MLOAD DUP1 DUP4 SUB DUP2 DUP7 GAS STATICCALL ISZERO DUP1 ISZERO PUSH2 0x1971 JUMPI RETURNDATASIZE PUSH0 DUP1 RETURNDATACOPY RETURNDATASIZE PUSH0 REVERT JUMPDEST POP POP POP POP PUSH1 0x40 MLOAD RETURNDATASIZE PUSH0 DUP3 RETURNDATACOPY PUSH1 0x1F RETURNDATASIZE SWAP1 DUP2 ADD PUSH1 0x1F NOT AND DUP3 ADD PUSH1 0x40 MSTORE PUSH2 0x1998 SWAP2 SWAP1 DUP2 ADD SWAP1 PUSH2 0x3211 JUMP JUMPDEST SWAP1 POP PUSH2 0x19A8 DUP2 PUSH1 0x20 ADD MLOAD DUP4 PUSH2 0x212B JUMP JUMPDEST PUSH0 JUMPDEST DUP10 MLOAD DUP2 LT ISZERO PUSH2 0x1A67 JUMPI PUSH0 DUP4 DUP2 MSTORE PUSH1 0x12 PUSH1 0x20 MSTORE PUSH1 0x40 SWAP1 KECCAK256 DUP11 MLOAD DUP12 SWAP1 DUP4 SWAP1 DUP2 LT PUSH2 0x19D4 JUMPI PUSH2 0x19D4 PUSH2 0x2EF1 JUMP JUMPDEST PUSH1 0x20 SWAP1 DUP2 MUL SWAP2 SWAP1 SWAP2 ADD DUP2 ADD MLOAD DUP3 SLOAD PUSH1 0x1 DUP2 ADD DUP5 SSTORE PUSH0 SWAP4 DUP5 MSTORE SWAP2 SWAP1 SWAP3 KECCAK256 ADD SWAP1 PUSH2 0x19FC SWAP1 DUP3 PUSH2 0x2FB9 JUMP JUMPDEST POP DUP9 DUP2 DUP2 MLOAD DUP2 LT PUSH2 0x1A0F JUMPI PUSH2 0x1A0F PUSH2 0x2EF1 JUMP JUMPDEST PUSH1 0x20 MUL PUSH1 0x20 ADD ADD MLOAD PUSH1 0x13 PUSH0 DUP6 DUP2 MSTORE PUSH1 0x20 ADD SWAP1 DUP2 MSTORE PUSH1 0x20 ADD PUSH0 KECCAK256 DUP12 DUP4 DUP2 MLOAD DUP2 LT PUSH2 0x1A3A JUMPI PUSH2 0x1A3A PUSH2 0x2EF1 JUMP JUMPDEST PUSH1 0x20 MUL PUSH1 0x20 ADD ADD MLOAD PUSH1 0x40 MLOAD PUSH2 0x1A4F SWAP2 SWAP1 PUSH2 0x2F2B JUMP JUMPDEST SWAP1 DUP2 MSTORE PUSH1 0x40 MLOAD SWAP1 DUP2 SWAP1 SUB PUSH1 0x20 ADD SWAP1 KECCAK256 SSTORE PUSH1 0x1 ADD PUSH2 0x19AA JUMP JUMPDEST POP DUP2 PUSH32 0xAAA3EF9B79AFFD1B4052E81DD38126A7A1DD22345B41B8866FBE06D6C5CB02FE DUP11 PUSH1 0x40 MLOAD PUSH2 0x1A98 SWAP2 SWAP1 PUSH2 0x2A57 JUMP JUMPDEST PUSH1 0x40 MLOAD DUP1 SWAP2 SUB SWAP1 LOG2 PUSH0 JUMPDEST DUP10 MLOAD DUP2 LT ISZERO PUSH2 0x1B1F JUMPI DUP3 PUSH32 0xF09C4F8065057564478E900E30BEEAA7BE6409E52AD156A4067FDCAB3E9AD5D0 DUP12 DUP4 DUP2 MLOAD DUP2 LT PUSH2 0x1ADF JUMPI PUSH2 0x1ADF PUSH2 0x2EF1 JUMP JUMPDEST PUSH1 0x20 MUL PUSH1 0x20 ADD ADD MLOAD DUP12 DUP5 DUP2 MLOAD DUP2 LT PUSH2 0x1AF9 JUMPI PUSH2 0x1AF9 PUSH2 0x2EF1 JUMP JUMPDEST PUSH1 0x20 MUL PUSH1 0x20 ADD ADD MLOAD PUSH1 0x40 MLOAD PUSH2 0x1B0F SWAP3 SWAP2 SWAP1 PUSH2 0x32FF JUMP JUMPDEST PUSH1 0x40 MLOAD DUP1 SWAP2 SUB SWAP1 LOG2 PUSH1 0x1 ADD PUSH2 0x1AA2 JUMP JUMPDEST POP PUSH1 0x2 DUP4 ADD DUP1 SLOAD PUSH1 0xFF NOT AND PUSH1 0x1 OR SWAP1 SSTORE PUSH1 0x40 MLOAD PUSH1 0x17 SWAP1 PUSH2 0x1B40 SWAP1 DUP14 SWAP1 PUSH2 0x2F2B JUMP JUMPDEST SWAP1 DUP2 MSTORE PUSH1 0x40 MLOAD SWAP1 DUP2 SWAP1 SUB PUSH1 0x20 ADD SWAP1 KECCAK256 DUP1 SLOAD SWAP1 PUSH0 PUSH2 0x1B5C DUP4 PUSH2 0x2F5D JUMP JUMPDEST SWAP1 SWAP2 SSTORE POP POP PUSH1 0x10 DUP1 SLOAD SWAP1 PUSH0 PUSH2 0x1B70 DUP4 PUSH2 0x2F5D JUMP JUMPDEST SWAP2 SWAP1 POP SSTORE POP PUSH32 0x610D2B6125B91DC10A1587C0BFA755C2248F4989A7C63BBD1D22421BCF71923 DUP3 DUP12 DUP14 PUSH1 0x40 MLOAD PUSH2 0x1BA8 SWAP4 SWAP3 SWAP2 SWAP1 PUSH2 0x3078 JUMP JUMPDEST PUSH1 0x40 MLOAD DUP1 SWAP2 SUB SWAP1 LOG1 POP POP POP POP POP POP POP POP POP POP POP JUMP JUMPDEST PUSH1 0xC SLOAD PUSH1 0x40 MLOAD PUSH4 0x42282D95 PUSH1 0xE0 SHL DUP2 MSTORE CALLER PUSH1 0x4 DUP3 ADD MSTORE PUSH1 0x1 PUSH1 0x1 PUSH1 0xA0 SHL SUB SWAP1 SWAP2 AND SWAP1 PUSH4 0x42282D95 SWAP1 PUSH1 0x24 ADD PUSH1 0x20 PUSH1 0x40 MLOAD DUP1 DUP4 SUB DUP2 DUP7 GAS STATICCALL ISZERO DUP1 ISZERO PUSH2 0x1C03 JUMPI RETURNDATASIZE PUSH0 DUP1 RETURNDATACOPY RETURNDATASIZE PUSH0 REVERT JUMPDEST POP POP POP POP PUSH1 0x40 MLOAD RETURNDATASIZE PUSH1 0x1F NOT PUSH1 0x1F DUP3 ADD AND DUP3 ADD DUP1 PUSH1 0x40 MSTORE POP DUP2 ADD SWAP1 PUSH2 0x1C27 SWAP2 SWAP1 PUSH2 0x2EA1 JUMP JUMPDEST PUSH2 0x1C43 JUMPI PUSH1 0x40 MLOAD PUSH3 0x461BCD PUSH1 0xE5 SHL DUP2 MSTORE PUSH1 0x4 ADD PUSH2 0x5AE SWAP1 PUSH2 0x2EBC JUMP JUMPDEST PUSH1 0x40 MLOAD CALLER SWAP1 SELFBALANCE DUP1 ISZERO PUSH2 0x8FC MUL SWAP2 PUSH0 DUP2 DUP2 DUP2 DUP6 DUP9 DUP9 CALL SWAP4 POP POP POP POP ISZERO DUP1 ISZERO PUSH2 0x1C6C JUMPI RETURNDATASIZE PUSH0 DUP1 RETURNDATACOPY RETURNDATASIZE PUSH0 REVERT JUMPDEST POP JUMP JUMPDEST PUSH1 0x1 PUSH1 0x1 PUSH1 0xA0 SHL SUB SWAP2 DUP3 AND PUSH0 SWAP1 DUP2 MSTORE PUSH1 0x5 PUSH1 0x20 SWAP1 DUP2 MSTORE PUSH1 0x40 DUP1 DUP4 KECCAK256 SWAP4 SWAP1 SWAP5 AND DUP3 MSTORE SWAP2 SWAP1 SWAP2 MSTORE KECCAK256 SLOAD PUSH1 0xFF AND SWAP1 JUMP JUMPDEST PUSH0 PUSH1 0x1 PUSH1 0x1 PUSH1 0xE0 SHL SUB NOT DUP3 AND PUSH4 0x80AC58CD PUSH1 0xE0 SHL EQ DUP1 PUSH2 0x1CCC JUMPI POP PUSH1 0x1 PUSH1 0x1 PUSH1 0xE0 SHL SUB NOT DUP3 AND PUSH4 0x5B5E139F PUSH1 0xE0 SHL EQ JUMPDEST DUP1 PUSH2 0x4BE JUMPI POP PUSH4 0x1FFC9A7 PUSH1 0xE0 SHL PUSH1 0x1 PUSH1 0x1 PUSH1 0xE0 SHL SUB NOT DUP4 AND EQ PUSH2 0x4BE JUMP JUMPDEST PUSH0 DUP2 DUP2 MSTORE PUSH1 0x2 PUSH1 0x20 MSTORE PUSH1 0x40 DUP2 KECCAK256 SLOAD PUSH1 0x1 PUSH1 0x1 PUSH1 0xA0 SHL SUB AND DUP1 PUSH2 0x4BE JUMPI PUSH1 0x40 MLOAD PUSH4 0x7E273289 PUSH1 0xE0 SHL DUP2 MSTORE PUSH1 0x4 DUP2 ADD DUP5 SWAP1 MSTORE PUSH1 0x24 ADD PUSH2 0x5AE JUMP JUMPDEST PUSH2 0x724 DUP4 DUP4 DUP4 PUSH1 0x1 PUSH2 0x218C JUMP JUMPDEST PUSH0 DUP1 PUSH2 0x1D3D DUP6 DUP6 DUP6 PUSH2 0x2290 JUMP JUMPDEST SWAP1 POP PUSH1 0x1 PUSH1 0x1 PUSH1 0xA0 SHL SUB DUP2 AND PUSH2 0x1D99 JUMPI PUSH2 0x1D94 DUP5 PUSH1 0x8 DUP1 SLOAD PUSH0 DUP4 DUP2 MSTORE PUSH1 0x9 PUSH1 0x20 MSTORE PUSH1 0x40 DUP2 KECCAK256 DUP3 SWAP1 SSTORE PUSH1 0x1 DUP3 ADD DUP4 SSTORE SWAP2 SWAP1 SWAP2 MSTORE PUSH32 0xF3F7A9FE364FAAB93B216DA50A3214154F22A0A2B415B23A84C8169E8B636EE3 ADD SSTORE JUMP JUMPDEST PUSH2 0x1DBC JUMP JUMPDEST DUP5 PUSH1 0x1 PUSH1 0x1 PUSH1 0xA0 SHL SUB AND DUP2 PUSH1 0x1 PUSH1 0x1 PUSH1 0xA0 SHL SUB AND EQ PUSH2 0x1DBC JUMPI PUSH2 0x1DBC DUP2 DUP6 PUSH2 0x2382 JUMP JUMPDEST PUSH1 0x1 PUSH1 0x1 PUSH1 0xA0 SHL SUB DUP6 AND PUSH2 0x1DD8 JUMPI PUSH2 0x1DD3 DUP5 PUSH2 0x240F JUMP JUMPDEST PUSH2 0x1DFB JUMP JUMPDEST DUP5 PUSH1 0x1 PUSH1 0x1 PUSH1 0xA0 SHL SUB AND DUP2 PUSH1 0x1 PUSH1 0x1 PUSH1 0xA0 SHL SUB AND EQ PUSH2 0x1DFB JUMPI PUSH2 0x1DFB DUP6 DUP6 PUSH2 0x24B6 JUMP JUMPDEST SWAP5 SWAP4 POP POP POP POP JUMP JUMPDEST PUSH2 0x1E0B PUSH2 0x2504 JUMP JUMPDEST PUSH1 0xA DUP1 SLOAD PUSH1 0xFF NOT AND SWAP1 SSTORE PUSH32 0x5DB9EE0A495BF2E6FF9C91A7834C1BA4FDD244A5E8AA4E537BD38AEAE4B073AA CALLER JUMPDEST PUSH1 0x40 MLOAD PUSH1 0x1 PUSH1 0x1 PUSH1 0xA0 SHL SUB SWAP1 SWAP2 AND DUP2 MSTORE PUSH1 0x20 ADD PUSH1 0x40 MLOAD DUP1 SWAP2 SUB SWAP1 LOG1 JUMP JUMPDEST PUSH1 0xA SLOAD PUSH1 0xFF AND ISZERO PUSH2 0x708 JUMPI PUSH1 0x40 MLOAD PUSH3 0x461BCD PUSH1 0xE5 SHL DUP2 MSTORE PUSH1 0x20 PUSH1 0x4 DUP3 ADD MSTORE PUSH1 0x10 PUSH1 0x24 DUP3 ADD MSTORE PUSH16 0x14185D5CD8589B194E881C185D5CD959 PUSH1 0x82 SHL PUSH1 0x44 DUP3 ADD MSTORE PUSH1 0x64 ADD PUSH2 0x5AE JUMP JUMPDEST PUSH2 0x1EA3 PUSH2 0x1E55 JUMP JUMPDEST PUSH1 0xA DUP1 SLOAD PUSH1 0xFF NOT AND PUSH1 0x1 OR SWAP1 SSTORE PUSH32 0x62E78CEA01BEE320CD4E420270B5EA74000D11B0C9F74754EBDBFC544B05A258 PUSH2 0x1E38 CALLER SWAP1 JUMP JUMPDEST PUSH1 0x1 PUSH1 0x1 PUSH1 0xA0 SHL SUB DUP3 AND PUSH2 0x1F0A JUMPI PUSH1 0x40 MLOAD PUSH4 0xB611743 PUSH1 0xE3 SHL DUP2 MSTORE PUSH1 0x1 PUSH1 0x1 PUSH1 0xA0 SHL SUB DUP4 AND PUSH1 0x4 DUP3 ADD MSTORE PUSH1 0x24 ADD PUSH2 0x5AE JUMP JUMPDEST PUSH1 0x1 PUSH1 0x1 PUSH1 0xA0 SHL SUB DUP4 DUP2 AND PUSH0 DUP2 DUP2 MSTORE PUSH1 0x5 PUSH1 0x20 SWAP1 DUP2 MSTORE PUSH1 0x40 DUP1 DUP4 KECCAK256 SWAP5 DUP8 AND DUP1 DUP5 MSTORE SWAP5 DUP3 MSTORE SWAP2 DUP3 SWAP1 KECCAK256 DUP1 SLOAD PUSH1 0xFF NOT AND DUP7 ISZERO ISZERO SWAP1 DUP2 OR SWAP1 SWAP2 SSTORE SWAP2 MLOAD SWAP2 DUP3 MSTORE PUSH32 0x17307EAB39AB6107E8899845AD3D59BD9653F200F220920489CA2B5937696C31 SWAP2 ADD PUSH1 0x40 MLOAD DUP1 SWAP2 SUB SWAP1 LOG3 POP POP POP JUMP JUMPDEST PUSH1 0x1 PUSH1 0x1 PUSH1 0xA0 SHL SUB DUP4 AND EXTCODESIZE ISZERO PUSH2 0x611 JUMPI PUSH1 0x40 MLOAD PUSH4 0xA85BD01 PUSH1 0xE1 SHL DUP2 MSTORE PUSH1 0x1 PUSH1 0x1 PUSH1 0xA0 SHL SUB DUP5 AND SWAP1 PUSH4 0x150B7A02 SWAP1 PUSH2 0x1FB8 SWAP1 CALLER SWAP1 DUP9 SWAP1 DUP8 SWAP1 DUP8 SWAP1 PUSH1 0x4 ADD PUSH2 0x3320 JUMP JUMPDEST PUSH1 0x20 PUSH1 0x40 MLOAD DUP1 DUP4 SUB DUP2 PUSH0 DUP8 GAS CALL SWAP3 POP POP POP DUP1 ISZERO PUSH2 0x1FF2 JUMPI POP PUSH1 0x40 DUP1 MLOAD PUSH1 0x1F RETURNDATASIZE SWAP1 DUP2 ADD PUSH1 0x1F NOT AND DUP3 ADD SWAP1 SWAP3 MSTORE PUSH2 0x1FEF SWAP2 DUP2 ADD SWAP1 PUSH2 0x3352 JUMP JUMPDEST PUSH1 0x1 JUMPDEST PUSH2 0x2059 JUMPI RETURNDATASIZE DUP1 DUP1 ISZERO PUSH2 0x201F JUMPI PUSH1 0x40 MLOAD SWAP2 POP PUSH1 0x1F NOT PUSH1 0x3F RETURNDATASIZE ADD AND DUP3 ADD PUSH1 0x40 MSTORE RETURNDATASIZE DUP3 MSTORE RETURNDATASIZE PUSH0 PUSH1 0x20 DUP5 ADD RETURNDATACOPY PUSH2 0x2024 JUMP JUMPDEST PUSH1 0x60 SWAP2 POP JUMPDEST POP DUP1 MLOAD PUSH0 SUB PUSH2 0x2051 JUMPI PUSH1 0x40 MLOAD PUSH4 0x32505749 PUSH1 0xE1 SHL DUP2 MSTORE PUSH1 0x1 PUSH1 0x1 PUSH1 0xA0 SHL SUB DUP6 AND PUSH1 0x4 DUP3 ADD MSTORE PUSH1 0x24 ADD PUSH2 0x5AE JUMP JUMPDEST DUP1 MLOAD DUP2 PUSH1 0x20 ADD REVERT JUMPDEST PUSH1 0x1 PUSH1 0x1 PUSH1 0xE0 SHL SUB NOT DUP2 AND PUSH4 0xA85BD01 PUSH1 0xE1 SHL EQ PUSH2 0x2095 JUMPI PUSH1 0x40 MLOAD PUSH4 0x32505749 PUSH1 0xE1 SHL DUP2 MSTORE PUSH1 0x1 PUSH1 0x1 PUSH1 0xA0 SHL SUB DUP6 AND PUSH1 0x4 DUP3 ADD MSTORE PUSH1 0x24 ADD PUSH2 0x5AE JUMP JUMPDEST POP POP POP POP POP JUMP JUMPDEST PUSH1 0x60 PUSH0 PUSH2 0x20A8 DUP4 PUSH2 0x254D JUMP JUMPDEST PUSH1 0x1 ADD SWAP1 POP PUSH0 DUP2 PUSH1 0x1 PUSH1 0x1 PUSH1 0x40 SHL SUB DUP2 GT ISZERO PUSH2 0x20C6 JUMPI PUSH2 0x20C6 PUSH2 0x28DC JUMP JUMPDEST PUSH1 0x40 MLOAD SWAP1 DUP1 DUP3 MSTORE DUP1 PUSH1 0x1F ADD PUSH1 0x1F NOT AND PUSH1 0x20 ADD DUP3 ADD PUSH1 0x40 MSTORE DUP1 ISZERO PUSH2 0x20F0 JUMPI PUSH1 0x20 DUP3 ADD DUP2 DUP1 CALLDATASIZE DUP4 CALLDATACOPY ADD SWAP1 POP JUMPDEST POP SWAP1 POP DUP2 DUP2 ADD PUSH1 0x20 ADD JUMPDEST PUSH0 NOT ADD PUSH16 0x181899199A1A9B1B9C1CB0B131B232B3 PUSH1 0x81 SHL PUSH1 0xA DUP7 MOD BYTE DUP2 MSTORE8 PUSH1 0xA DUP6 DIV SWAP5 POP DUP5 PUSH2 0x20FA JUMPI POP SWAP4 SWAP3 POP POP POP JUMP JUMPDEST PUSH1 0x1 PUSH1 0x1 PUSH1 0xA0 SHL SUB DUP3 AND PUSH2 0x2154 JUMPI PUSH1 0x40 MLOAD PUSH4 0x32505749 PUSH1 0xE1 SHL DUP2 MSTORE PUSH0 PUSH1 0x4 DUP3 ADD MSTORE PUSH1 0x24 ADD PUSH2 0x5AE JUMP JUMPDEST PUSH0 PUSH2 0x2160 DUP4 DUP4 PUSH0 PUSH2 0x1D30 JUMP JUMPDEST SWAP1 POP PUSH1 0x1 PUSH1 0x1 PUSH1 0xA0 SHL SUB DUP2 AND ISZERO PUSH2 0x724 JUMPI PUSH1 0x40 MLOAD PUSH4 0x39E35637 PUSH1 0xE1 SHL DUP2 MSTORE PUSH0 PUSH1 0x4 DUP3 ADD MSTORE PUSH1 0x24 ADD PUSH2 0x5AE JUMP JUMPDEST DUP1 DUP1 PUSH2 0x21A0 JUMPI POP PUSH1 0x1 PUSH1 0x1 PUSH1 0xA0 SHL SUB DUP3 AND ISZERO ISZERO JUMPDEST ISZERO PUSH2 0x2261 JUMPI PUSH0 PUSH2 0x21AF DUP5 PUSH2 0x1CEB JUMP JUMPDEST SWAP1 POP PUSH1 0x1 PUSH1 0x1 PUSH1 0xA0 SHL SUB DUP4 AND ISZERO DUP1 ISZERO SWAP1 PUSH2 0x21DB JUMPI POP DUP3 PUSH1 0x1 PUSH1 0x1 PUSH1 0xA0 SHL SUB AND DUP2 PUSH1 0x1 PUSH1 0x1 PUSH1 0xA0 SHL SUB AND EQ ISZERO JUMPDEST DUP1 ISZERO PUSH2 0x21EE JUMPI POP PUSH2 0x21EC DUP2 DUP5 PUSH2 0x1C6F JUMP JUMPDEST ISZERO JUMPDEST ISZERO PUSH2 0x2217 JUMPI PUSH1 0x40 MLOAD PUSH4 0xA9FBF51F PUSH1 0xE0 SHL DUP2 MSTORE PUSH1 0x1 PUSH1 0x1 PUSH1 0xA0 SHL SUB DUP5 AND PUSH1 0x4 DUP3 ADD MSTORE PUSH1 0x24 ADD PUSH2 0x5AE JUMP JUMPDEST DUP2 ISZERO PUSH2 0x225F JUMPI DUP4 DUP6 PUSH1 0x1 PUSH1 0x1 PUSH1 0xA0 SHL SUB AND DUP3 PUSH1 0x1 PUSH1 0x1 PUSH1 0xA0 SHL SUB AND PUSH32 0x8C5BE1E5EBEC7D5BD14F71427D1E84F3DD0314C0F7B2291E5B200AC8C7C3B925 PUSH1 0x40 MLOAD PUSH1 0x40 MLOAD DUP1 SWAP2 SUB SWAP1 LOG4 JUMPDEST POP JUMPDEST POP POP PUSH0 SWAP1 DUP2 MSTORE PUSH1 0x4 PUSH1 0x20 MSTORE PUSH1 0x40 SWAP1 KECCAK256 DUP1 SLOAD PUSH1 0x1 PUSH1 0x1 PUSH1 0xA0 SHL SUB NOT AND PUSH1 0x1 PUSH1 0x1 PUSH1 0xA0 SHL SUB SWAP3 SWAP1 SWAP3 AND SWAP2 SWAP1 SWAP2 OR SWAP1 SSTORE JUMP JUMPDEST PUSH0 DUP3 DUP2 MSTORE PUSH1 0x2 PUSH1 0x20 MSTORE PUSH1 0x40 DUP2 KECCAK256 SLOAD PUSH1 0x1 PUSH1 0x1 PUSH1 0xA0 SHL SUB SWAP1 DUP2 AND SWAP1 DUP4 AND ISZERO PUSH2 0x22BC JUMPI PUSH2 0x22BC DUP2 DUP5 DUP7 PUSH2 0x2624 JUMP JUMPDEST PUSH1 0x1 PUSH1 0x1 PUSH1 0xA0 SHL SUB DUP2 AND ISZERO PUSH2 0x22F6 JUMPI PUSH2 0x22D7 PUSH0 DUP6 PUSH0 DUP1 PUSH2 0x218C JUMP JUMPDEST PUSH1 0x1 PUSH1 0x1 PUSH1 0xA0 SHL SUB DUP2 AND PUSH0 SWAP1 DUP2 MSTORE PUSH1 0x3 PUSH1 0x20 MSTORE PUSH1 0x40 SWAP1 KECCAK256 DUP1 SLOAD PUSH0 NOT ADD SWAP1 SSTORE JUMPDEST PUSH1 0x1 PUSH1 0x1 PUSH1 0xA0 SHL SUB DUP6 AND ISZERO PUSH2 0x2324 JUMPI PUSH1 0x1 PUSH1 0x1 PUSH1 0xA0 SHL SUB DUP6 AND PUSH0 SWAP1 DUP2 MSTORE PUSH1 0x3 PUSH1 0x20 MSTORE PUSH1 0x40 SWAP1 KECCAK256 DUP1 SLOAD PUSH1 0x1 ADD SWAP1 SSTORE JUMPDEST PUSH0 DUP5 DUP2 MSTORE PUSH1 0x2 PUSH1 0x20 MSTORE PUSH1 0x40 DUP1 DUP3 KECCAK256 DUP1 SLOAD PUSH1 0x1 PUSH1 0x1 PUSH1 0xA0 SHL SUB NOT AND PUSH1 0x1 PUSH1 0x1 PUSH1 0xA0 SHL SUB DUP10 DUP2 AND SWAP2 DUP3 OR SWAP1 SWAP3 SSTORE SWAP2 MLOAD DUP8 SWAP4 SWAP2 DUP6 AND SWAP2 PUSH32 0xDDF252AD1BE2C89B69C2B068FC378DAA952BA7F163C4A11628F55A4DF523B3EF SWAP2 LOG4 SWAP5 SWAP4 POP POP POP POP JUMP JUMPDEST PUSH0 PUSH2 0x238C DUP4 PUSH2 0xA5B JUMP JUMPDEST PUSH0 DUP4 DUP2 MSTORE PUSH1 0x7 PUSH1 0x20 MSTORE PUSH1 0x40 SWAP1 KECCAK256 SLOAD SWAP1 SWAP2 POP DUP1 DUP3 EQ PUSH2 0x23DD JUMPI PUSH1 0x1 PUSH1 0x1 PUSH1 0xA0 SHL SUB DUP5 AND PUSH0 SWAP1 DUP2 MSTORE PUSH1 0x6 PUSH1 0x20 SWAP1 DUP2 MSTORE PUSH1 0x40 DUP1 DUP4 KECCAK256 DUP6 DUP5 MSTORE DUP3 MSTORE DUP1 DUP4 KECCAK256 SLOAD DUP5 DUP5 MSTORE DUP2 DUP5 KECCAK256 DUP2 SWAP1 SSTORE DUP4 MSTORE PUSH1 0x7 SWAP1 SWAP2 MSTORE SWAP1 KECCAK256 DUP2 SWAP1 SSTORE JUMPDEST POP PUSH0 SWAP2 DUP3 MSTORE PUSH1 0x7 PUSH1 0x20 SWAP1 DUP2 MSTORE PUSH1 0x40 DUP1 DUP5 KECCAK256 DUP5 SWAP1 SSTORE PUSH1 0x1 PUSH1 0x1 PUSH1 0xA0 SHL SUB SWAP1 SWAP5 AND DUP4 MSTORE PUSH1 0x6 DUP2 MSTORE DUP4 DUP4 KECCAK256 SWAP2 DUP4 MSTORE MSTORE SWAP1 DUP2 KECCAK256 SSTORE JUMP JUMPDEST PUSH1 0x8 SLOAD PUSH0 SWAP1 PUSH2 0x2420 SWAP1 PUSH1 0x1 SWAP1 PUSH2 0x2F4A JUMP JUMPDEST PUSH0 DUP4 DUP2 MSTORE PUSH1 0x9 PUSH1 0x20 MSTORE PUSH1 0x40 DUP2 KECCAK256 SLOAD PUSH1 0x8 DUP1 SLOAD SWAP4 SWAP5 POP SWAP1 SWAP3 DUP5 SWAP1 DUP2 LT PUSH2 0x2447 JUMPI PUSH2 0x2447 PUSH2 0x2EF1 JUMP JUMPDEST SWAP1 PUSH0 MSTORE PUSH1 0x20 PUSH0 KECCAK256 ADD SLOAD SWAP1 POP DUP1 PUSH1 0x8 DUP4 DUP2 SLOAD DUP2 LT PUSH2 0x2466 JUMPI PUSH2 0x2466 PUSH2 0x2EF1 JUMP JUMPDEST PUSH0 SWAP2 DUP3 MSTORE PUSH1 0x20 DUP1 DUP4 KECCAK256 SWAP1 SWAP2 ADD SWAP3 SWAP1 SWAP3 SSTORE DUP3 DUP2 MSTORE PUSH1 0x9 SWAP1 SWAP2 MSTORE PUSH1 0x40 DUP1 DUP3 KECCAK256 DUP5 SWAP1 SSTORE DUP6 DUP3 MSTORE DUP2 KECCAK256 SSTORE PUSH1 0x8 DUP1 SLOAD DUP1 PUSH2 0x249D JUMPI PUSH2 0x249D PUSH2 0x336D JUMP JUMPDEST PUSH1 0x1 SWAP1 SUB DUP2 DUP2 SWAP1 PUSH0 MSTORE PUSH1 0x20 PUSH0 KECCAK256 ADD PUSH0 SWAP1 SSTORE SWAP1 SSTORE POP POP POP POP JUMP JUMPDEST PUSH0 PUSH1 0x1 PUSH2 0x24C2 DUP5 PUSH2 0xA5B JUMP JUMPDEST PUSH2 0x24CC SWAP2 SWAP1 PUSH2 0x2F4A JUMP JUMPDEST PUSH1 0x1 PUSH1 0x1 PUSH1 0xA0 SHL SUB SWAP1 SWAP4 AND PUSH0 SWAP1 DUP2 MSTORE PUSH1 0x6 PUSH1 0x20 SWAP1 DUP2 MSTORE PUSH1 0x40 DUP1 DUP4 KECCAK256 DUP7 DUP5 MSTORE DUP3 MSTORE DUP1 DUP4 KECCAK256 DUP6 SWAP1 SSTORE SWAP4 DUP3 MSTORE PUSH1 0x7 SWAP1 MSTORE SWAP2 SWAP1 SWAP2 KECCAK256 SWAP2 SWAP1 SWAP2 SSTORE POP JUMP JUMPDEST PUSH1 0xA SLOAD PUSH1 0xFF AND PUSH2 0x708 JUMPI PUSH1 0x40 MLOAD PUSH3 0x461BCD PUSH1 0xE5 SHL DUP2 MSTORE PUSH1 0x20 PUSH1 0x4 DUP3 ADD MSTORE PUSH1 0x14 PUSH1 0x24 DUP3 ADD MSTORE PUSH20 0x14185D5CD8589B194E881B9BDD081C185D5CD959 PUSH1 0x62 SHL PUSH1 0x44 DUP3 ADD MSTORE PUSH1 0x64 ADD PUSH2 0x5AE JUMP JUMPDEST PUSH0 DUP1 PUSH19 0x184F03E93FF9F4DAA797ED6E38ED64BF6A1F01 PUSH1 0x40 SHL DUP4 LT PUSH2 0x258B JUMPI PUSH19 0x184F03E93FF9F4DAA797ED6E38ED64BF6A1F01 PUSH1 0x40 SHL DUP4 DIV SWAP3 POP PUSH1 0x40 ADD JUMPDEST PUSH14 0x4EE2D6D415B85ACEF8100000000 DUP4 LT PUSH2 0x25B7 JUMPI PUSH14 0x4EE2D6D415B85ACEF8100000000 DUP4 DIV SWAP3 POP PUSH1 0x20 ADD JUMPDEST PUSH7 0x2386F26FC10000 DUP4 LT PUSH2 0x25D5 JUMPI PUSH7 0x2386F26FC10000 DUP4 DIV SWAP3 POP PUSH1 0x10 ADD JUMPDEST PUSH4 0x5F5E100 DUP4 LT PUSH2 0x25ED JUMPI PUSH4 0x5F5E100 DUP4 DIV SWAP3 POP PUSH1 0x8 ADD JUMPDEST PUSH2 0x2710 DUP4 LT PUSH2 0x2601 JUMPI PUSH2 0x2710 DUP4 DIV SWAP3 POP PUSH1 0x4 ADD JUMPDEST PUSH1 0x64 DUP4 LT PUSH2 0x2613 JUMPI PUSH1 0x64 DUP4 DIV SWAP3 POP PUSH1 0x2 ADD JUMPDEST PUSH1 0xA DUP4 LT PUSH2 0x4BE JUMPI PUSH1 0x1 ADD SWAP3 SWAP2 POP POP JUMP JUMPDEST PUSH2 0x262F DUP4 DUP4 DUP4 PUSH2 0x2688 JUMP JUMPDEST PUSH2 0x724 JUMPI PUSH1 0x1 PUSH1 0x1 PUSH1 0xA0 SHL SUB DUP4 AND PUSH2 0x265D JUMPI PUSH1 0x40 MLOAD PUSH4 0x7E273289 PUSH1 0xE0 SHL DUP2 MSTORE PUSH1 0x4 DUP2 ADD DUP3 SWAP1 MSTORE PUSH1 0x24 ADD PUSH2 0x5AE JUMP JUMPDEST PUSH1 0x40 MLOAD PUSH4 0x177E802F PUSH1 0xE0 SHL DUP2 MSTORE PUSH1 0x1 PUSH1 0x1 PUSH1 0xA0 SHL SUB DUP4 AND PUSH1 0x4 DUP3 ADD MSTORE PUSH1 0x24 DUP2 ADD DUP3 SWAP1 MSTORE PUSH1 0x44 ADD PUSH2 0x5AE JUMP JUMPDEST PUSH0 PUSH1 0x1 PUSH1 0x1 PUSH1 0xA0 SHL SUB DUP4 AND ISZERO DUP1 ISZERO SWAP1 PUSH2 0x1DFB JUMPI POP DUP3 PUSH1 0x1 PUSH1 0x1 PUSH1 0xA0 SHL SUB AND DUP5 PUSH1 0x1 PUSH1 0x1 PUSH1 0xA0 SHL SUB AND EQ DUP1 PUSH2 0x26C1 JUMPI POP PUSH2 0x26C1 DUP5 DUP5 PUSH2 0x1C6F JUMP JUMPDEST DUP1 PUSH2 0x1DFB JUMPI POP POP PUSH0 SWAP1 DUP2 MSTORE PUSH1 0x4 PUSH1 0x20 MSTORE PUSH1 0x40 SWAP1 KECCAK256 SLOAD PUSH1 0x1 PUSH1 0x1 PUSH1 0xA0 SHL SUB SWAP1 DUP2 AND SWAP2 AND EQ SWAP2 SWAP1 POP JUMP JUMPDEST PUSH1 0x1 PUSH1 0x1 PUSH1 0xE0 SHL SUB NOT DUP2 AND DUP2 EQ PUSH2 0x1C6C JUMPI PUSH0 DUP1 REVERT JUMPDEST PUSH0 PUSH1 0x20 DUP3 DUP5 SUB SLT ISZERO PUSH2 0x270E JUMPI PUSH0 DUP1 REVERT JUMPDEST DUP2 CALLDATALOAD PUSH2 0x13B7 DUP2 PUSH2 0x26E9 JUMP JUMPDEST PUSH0 DUP2 MLOAD DUP1 DUP5 MSTORE DUP1 PUSH1 0x20 DUP5 ADD PUSH1 0x20 DUP7 ADD MCOPY PUSH0 PUSH1 0x20 DUP3 DUP7 ADD ADD MSTORE PUSH1 0x20 PUSH1 0x1F NOT PUSH1 0x1F DUP4 ADD AND DUP6 ADD ADD SWAP2 POP POP SWAP3 SWAP2 POP POP JUMP JUMPDEST PUSH1 0x20 DUP2 MSTORE PUSH0 PUSH2 0x13B7 PUSH1 0x20 DUP4 ADD DUP5 PUSH2 0x2719 JUMP JUMPDEST PUSH0 PUSH1 0x20 DUP3 DUP5 SUB SLT ISZERO PUSH2 0x2769 JUMPI PUSH0 DUP1 REVERT JUMPDEST POP CALLDATALOAD SWAP2 SWAP1 POP JUMP JUMPDEST PUSH1 0x1 PUSH1 0x1 PUSH1 0xA0 SHL SUB DUP2 AND DUP2 EQ PUSH2 0x1C6C JUMPI PUSH0 DUP1 REVERT JUMPDEST PUSH0 DUP1 PUSH1 0x40 DUP4 DUP6 SUB SLT ISZERO PUSH2 0x2795 JUMPI PUSH0 DUP1 REVERT JUMPDEST DUP3 CALLDATALOAD PUSH2 0x27A0 DUP2 PUSH2 0x2770 JUMP JUMPDEST SWAP5 PUSH1 0x20 SWAP4 SWAP1 SWAP4 ADD CALLDATALOAD SWAP4 POP POP POP JUMP JUMPDEST PUSH0 DUP1 PUSH0 PUSH1 0x60 DUP5 DUP7 SUB SLT ISZERO PUSH2 0x27C0 JUMPI PUSH0 DUP1 REVERT JUMPDEST DUP4 CALLDATALOAD PUSH2 0x27CB DUP2 PUSH2 0x2770 JUMP JUMPDEST SWAP3 POP PUSH1 0x20 DUP5 ADD CALLDATALOAD PUSH2 0x27DB DUP2 PUSH2 0x2770 JUMP JUMPDEST SWAP3 SWAP6 SWAP3 SWAP5 POP POP POP PUSH1 0x40 SWAP2 SWAP1 SWAP2 ADD CALLDATALOAD SWAP1 JUMP JUMPDEST PUSH1 0xA0 DUP2 MSTORE PUSH0 PUSH2 0x27FE PUSH1 0xA0 DUP4 ADD DUP9 PUSH2 0x2719 JUMP JUMPDEST DUP3 DUP2 SUB PUSH1 0x20 DUP5 ADD MSTORE PUSH2 0x2810 DUP2 DUP9 PUSH2 0x2719 JUMP JUMPDEST SWAP1 POP DUP3 DUP2 SUB PUSH1 0x40 DUP5 ADD MSTORE PUSH2 0x2824 DUP2 DUP8 PUSH2 0x2719 JUMP JUMPDEST SWAP1 POP DUP3 DUP2 SUB PUSH1 0x60 DUP5 ADD MSTORE PUSH2 0x2838 DUP2 DUP7 PUSH2 0x2719 JUMP JUMPDEST SWAP2 POP POP DUP3 ISZERO ISZERO PUSH1 0x80 DUP4 ADD MSTORE SWAP7 SWAP6 POP POP POP POP POP POP JUMP JUMPDEST PUSH0 PUSH1 0x20 DUP3 DUP5 SUB SLT ISZERO PUSH2 0x285D JUMPI PUSH0 DUP1 REVERT JUMPDEST DUP2 CALLDATALOAD PUSH2 0x13B7 DUP2 PUSH2 0x2770 JUMP JUMPDEST PUSH0 DUP1 PUSH0 PUSH1 0x40 DUP5 DUP7 SUB SLT ISZERO PUSH2 0x287A JUMPI PUSH0 DUP1 REVERT JUMPDEST DUP4 CALLDATALOAD SWAP3 POP PUSH1 0x20 DUP5 ADD CALLDATALOAD PUSH1 0x1 PUSH1 0x1 PUSH1 0x40 SHL SUB DUP1 DUP3 GT ISZERO PUSH2 0x2897 JUMPI PUSH0 DUP1 REVERT JUMPDEST DUP2 DUP7 ADD SWAP2 POP DUP7 PUSH1 0x1F DUP4 ADD SLT PUSH2 0x28AA JUMPI PUSH0 DUP1 REVERT JUMPDEST DUP2 CALLDATALOAD DUP2 DUP2 GT ISZERO PUSH2 0x28B8 JUMPI PUSH0 DUP1 REVERT JUMPDEST DUP8 PUSH1 0x20 DUP3 DUP6 ADD ADD GT ISZERO PUSH2 0x28C9 JUMPI PUSH0 DUP1 REVERT JUMPDEST PUSH1 0x20 DUP4 ADD SWAP5 POP DUP1 SWAP4 POP POP POP POP SWAP3 POP SWAP3 POP SWAP3 JUMP JUMPDEST PUSH4 0x4E487B71 PUSH1 0xE0 SHL PUSH0 MSTORE PUSH1 0x41 PUSH1 0x4 MSTORE PUSH1 0x24 PUSH0 REVERT JUMPDEST PUSH1 0x40 MLOAD PUSH1 0xA0 DUP2 ADD PUSH1 0x1 PUSH1 0x1 PUSH1 0x40 SHL SUB DUP2 GT DUP3 DUP3 LT OR ISZERO PUSH2 0x2912 JUMPI PUSH2 0x2912 PUSH2 0x28DC JUMP JUMPDEST PUSH1 0x40 MSTORE SWAP1 JUMP JUMPDEST PUSH1 0x40 MLOAD PUSH1 0x1F DUP3 ADD PUSH1 0x1F NOT AND DUP2 ADD PUSH1 0x1 PUSH1 0x1 PUSH1 0x40 SHL SUB DUP2 GT DUP3 DUP3 LT OR ISZERO PUSH2 0x2940 JUMPI PUSH2 0x2940 PUSH2 0x28DC JUMP JUMPDEST PUSH1 0x40 MSTORE SWAP2 SWAP1 POP JUMP JUMPDEST PUSH0 PUSH1 0x1 PUSH1 0x1 PUSH1 0x40 SHL SUB DUP3 GT ISZERO PUSH2 0x2960 JUMPI PUSH2 0x2960 PUSH2 0x28DC JUMP JUMPDEST POP PUSH1 0x1F ADD PUSH1 0x1F NOT AND PUSH1 0x20 ADD SWAP1 JUMP JUMPDEST PUSH0 PUSH2 0x2980 PUSH2 0x297B DUP5 PUSH2 0x2948 JUMP JUMPDEST PUSH2 0x2918 JUMP JUMPDEST SWAP1 POP DUP3 DUP2 MSTORE DUP4 DUP4 DUP4 ADD GT ISZERO PUSH2 0x2993 JUMPI PUSH0 DUP1 REVERT JUMPDEST DUP3 DUP3 PUSH1 0x20 DUP4 ADD CALLDATACOPY PUSH0 PUSH1 0x20 DUP5 DUP4 ADD ADD MSTORE SWAP4 SWAP3 POP POP POP JUMP JUMPDEST PUSH0 DUP3 PUSH1 0x1F DUP4 ADD SLT PUSH2 0x29B8 JUMPI PUSH0 DUP1 REVERT JUMPDEST PUSH2 0x13B7 DUP4 DUP4 CALLDATALOAD PUSH1 0x20 DUP6 ADD PUSH2 0x296E JUMP JUMPDEST PUSH0 DUP1 PUSH1 0x40 DUP4 DUP6 SUB SLT ISZERO PUSH2 0x29D8 JUMPI PUSH0 DUP1 REVERT JUMPDEST DUP3 CALLDATALOAD PUSH1 0x1 PUSH1 0x1 PUSH1 0x40 SHL SUB DUP1 DUP3 GT ISZERO PUSH2 0x29EE JUMPI PUSH0 DUP1 REVERT JUMPDEST PUSH2 0x29FA DUP7 DUP4 DUP8 ADD PUSH2 0x29A9 JUMP JUMPDEST SWAP4 POP PUSH1 0x20 DUP6 ADD CALLDATALOAD SWAP2 POP DUP1 DUP3 GT ISZERO PUSH2 0x2A0F JUMPI PUSH0 DUP1 REVERT JUMPDEST POP PUSH2 0x2A1C DUP6 DUP3 DUP7 ADD PUSH2 0x29A9 JUMP JUMPDEST SWAP2 POP POP SWAP3 POP SWAP3 SWAP1 POP JUMP JUMPDEST PUSH0 PUSH1 0x20 DUP3 DUP5 SUB SLT ISZERO PUSH2 0x2A36 JUMPI PUSH0 DUP1 REVERT JUMPDEST DUP2 CALLDATALOAD PUSH1 0x1 PUSH1 0x1 PUSH1 0x40 SHL SUB DUP2 GT ISZERO PUSH2 0x2A4B JUMPI PUSH0 DUP1 REVERT JUMPDEST PUSH2 0x1DFB DUP5 DUP3 DUP6 ADD PUSH2 0x29A9 JUMP JUMPDEST PUSH0 PUSH1 0x20 DUP1 DUP4 ADD PUSH1 0x20 DUP5 MSTORE DUP1 DUP6 MLOAD DUP1 DUP4 MSTORE PUSH1 0x40 DUP7 ADD SWAP2 POP PUSH1 0x40 DUP2 PUSH1 0x5 SHL DUP8 ADD ADD SWAP3 POP PUSH1 0x20 DUP8 ADD PUSH0 JUMPDEST DUP3 DUP2 LT ISZERO PUSH2 0x2AAC JUMPI PUSH1 0x3F NOT DUP9 DUP7 SUB ADD DUP5 MSTORE PUSH2 0x2A9A DUP6 DUP4 MLOAD PUSH2 0x2719 JUMP JUMPDEST SWAP5 POP SWAP3 DUP6 ADD SWAP3 SWAP1 DUP6 ADD SWAP1 PUSH1 0x1 ADD PUSH2 0x2A7E JUMP JUMPDEST POP SWAP3 SWAP8 SWAP7 POP POP POP POP POP POP POP JUMP JUMPDEST PUSH0 DUP1 PUSH0 PUSH1 0x60 DUP5 DUP7 SUB SLT ISZERO PUSH2 0x2ACB JUMPI PUSH0 DUP1 REVERT JUMPDEST DUP4 CALLDATALOAD PUSH1 0x1 PUSH1 0x1 PUSH1 0x40 SHL SUB DUP1 DUP3 GT ISZERO PUSH2 0x2AE1 JUMPI PUSH0 DUP1 REVERT JUMPDEST PUSH2 0x2AED DUP8 DUP4 DUP9 ADD PUSH2 0x29A9 JUMP JUMPDEST SWAP5 POP PUSH1 0x20 DUP7 ADD CALLDATALOAD SWAP2 POP DUP1 DUP3 GT ISZERO PUSH2 0x2B02 JUMPI PUSH0 DUP1 REVERT JUMPDEST PUSH2 0x2B0E DUP8 DUP4 DUP9 ADD PUSH2 0x29A9 JUMP JUMPDEST SWAP4 POP PUSH1 0x40 DUP7 ADD CALLDATALOAD SWAP2 POP DUP1 DUP3 GT ISZERO PUSH2 0x2B23 JUMPI PUSH0 DUP1 REVERT JUMPDEST POP PUSH2 0x2B30 DUP7 DUP3 DUP8 ADD PUSH2 0x29A9 JUMP JUMPDEST SWAP2 POP POP SWAP3 POP SWAP3 POP SWAP3 JUMP JUMPDEST DUP4 DUP2 MSTORE PUSH1 0x60 PUSH1 0x20 DUP3 ADD MSTORE PUSH0 PUSH2 0x2B52 PUSH1 0x60 DUP4 ADD DUP6 PUSH2 0x2719 JUMP JUMPDEST SWAP1 POP DUP3 ISZERO ISZERO PUSH1 0x40 DUP4 ADD MSTORE SWAP5 SWAP4 POP POP POP POP JUMP JUMPDEST DUP1 ISZERO ISZERO DUP2 EQ PUSH2 0x1C6C JUMPI PUSH0 DUP1 REVERT JUMPDEST PUSH0 DUP1 PUSH1 0x40 DUP4 DUP6 SUB SLT ISZERO PUSH2 0x2B82 JUMPI PUSH0 DUP1 REVERT JUMPDEST DUP3 CALLDATALOAD PUSH2 0x2B8D DUP2 PUSH2 0x2770 JUMP JUMPDEST SWAP2 POP PUSH1 0x20 DUP4 ADD CALLDATALOAD PUSH2 0x2B9D DUP2 PUSH2 0x2B64 JUMP JUMPDEST DUP1 SWAP2 POP POP SWAP3 POP SWAP3 SWAP1 POP JUMP JUMPDEST PUSH0 DUP1 PUSH0 DUP1 PUSH1 0x80 DUP6 DUP8 SUB SLT ISZERO PUSH2 0x2BBB JUMPI PUSH0 DUP1 REVERT JUMPDEST DUP5 CALLDATALOAD PUSH2 0x2BC6 DUP2 PUSH2 0x2770 JUMP JUMPDEST SWAP4 POP PUSH1 0x20 DUP6 ADD CALLDATALOAD PUSH2 0x2BD6 DUP2 PUSH2 0x2770 JUMP JUMPDEST SWAP3 POP PUSH1 0x40 DUP6 ADD CALLDATALOAD SWAP2 POP PUSH1 0x60 DUP6 ADD CALLDATALOAD PUSH1 0x1 PUSH1 0x1 PUSH1 0x40 SHL SUB DUP2 GT ISZERO PUSH2 0x2BF7 JUMPI PUSH0 DUP1 REVERT JUMPDEST DUP6 ADD PUSH1 0x1F DUP2 ADD DUP8 SGT PUSH2 0x2C07 JUMPI PUSH0 DUP1 REVERT JUMPDEST PUSH2 0x2C16 DUP8 DUP3 CALLDATALOAD PUSH1 0x20 DUP5 ADD PUSH2 0x296E JUMP JUMPDEST SWAP2 POP POP SWAP3 SWAP6 SWAP2 SWAP5 POP SWAP3 POP JUMP JUMPDEST PUSH0 DUP1 PUSH0 DUP1 PUSH1 0x80 DUP6 DUP8 SUB SLT ISZERO PUSH2 0x2C35 JUMPI PUSH0 DUP1 REVERT JUMPDEST DUP5 CALLDATALOAD PUSH1 0x1 PUSH1 0x1 PUSH1 0x40 SHL SUB DUP1 DUP3 GT ISZERO PUSH2 0x2C4B JUMPI PUSH0 DUP1 REVERT JUMPDEST PUSH2 0x2C57 DUP9 DUP4 DUP10 ADD PUSH2 0x29A9 JUMP JUMPDEST SWAP6 POP PUSH1 0x20 DUP8 ADD CALLDATALOAD SWAP5 POP PUSH1 0x40 DUP8 ADD CALLDATALOAD SWAP2 POP DUP1 DUP3 GT ISZERO PUSH2 0x2C73 JUMPI PUSH0 DUP1 REVERT JUMPDEST PUSH2 0x2C7F DUP9 DUP4 DUP10 ADD PUSH2 0x29A9 JUMP JUMPDEST SWAP4 POP PUSH1 0x60 DUP8 ADD CALLDATALOAD SWAP2 POP DUP1 DUP3 GT ISZERO PUSH2 0x2C94 JUMPI PUSH0 DUP1 REVERT JUMPDEST POP PUSH2 0x2C16 DUP8 DUP3 DUP9 ADD PUSH2 0x29A9 JUMP JUMPDEST PUSH0 PUSH1 0x1 PUSH1 0x1 PUSH1 0x40 SHL SUB DUP3 GT ISZERO PUSH2 0x2CB9 JUMPI PUSH2 0x2CB9 PUSH2 0x28DC JUMP JUMPDEST POP PUSH1 0x5 SHL PUSH1 0x20 ADD SWAP1 JUMP JUMPDEST PUSH0 DUP3 PUSH1 0x1F DUP4 ADD SLT PUSH2 0x2CD2 JUMPI PUSH0 DUP1 REVERT JUMPDEST DUP2 CALLDATALOAD PUSH1 0x20 PUSH2 0x2CE2 PUSH2 0x297B DUP4 PUSH2 0x2CA1 JUMP JUMPDEST DUP1 DUP4 DUP3 MSTORE PUSH1 0x20 DUP3 ADD SWAP2 POP PUSH1 0x20 DUP5 PUSH1 0x5 SHL DUP8 ADD ADD SWAP4 POP DUP7 DUP5 GT ISZERO PUSH2 0x2D03 JUMPI PUSH0 DUP1 REVERT JUMPDEST PUSH1 0x20 DUP7 ADD JUMPDEST DUP5 DUP2 LT ISZERO PUSH2 0x2D1F JUMPI DUP1 CALLDATALOAD DUP4 MSTORE SWAP2 DUP4 ADD SWAP2 DUP4 ADD PUSH2 0x2D08 JUMP JUMPDEST POP SWAP7 SWAP6 POP POP POP POP POP POP JUMP JUMPDEST PUSH0 DUP1 PUSH0 DUP1 PUSH1 0x80 DUP6 DUP8 SUB SLT ISZERO PUSH2 0x2D3D JUMPI PUSH0 DUP1 REVERT JUMPDEST DUP5 CALLDATALOAD PUSH1 0x1 PUSH1 0x1 PUSH1 0x40 SHL SUB DUP1 DUP3 GT ISZERO PUSH2 0x2D53 JUMPI PUSH0 DUP1 REVERT JUMPDEST PUSH2 0x2D5F DUP9 DUP4 DUP10 ADD PUSH2 0x29A9 JUMP JUMPDEST SWAP6 POP PUSH1 0x20 SWAP2 POP DUP2 DUP8 ADD CALLDATALOAD DUP2 DUP2 GT ISZERO PUSH2 0x2D75 JUMPI PUSH0 DUP1 REVERT JUMPDEST PUSH2 0x2D81 DUP10 DUP3 DUP11 ADD PUSH2 0x29A9 JUMP JUMPDEST SWAP6 POP POP PUSH1 0x40 DUP8 ADD CALLDATALOAD DUP2 DUP2 GT ISZERO PUSH2 0x2D95 JUMPI PUSH0 DUP1 REVERT JUMPDEST DUP8 ADD PUSH1 0x1F DUP2 ADD DUP10 SGT PUSH2 0x2DA5 JUMPI PUSH0 DUP1 REVERT JUMPDEST DUP1 CALLDATALOAD PUSH2 0x2DB3 PUSH2 0x297B DUP3 PUSH2 0x2CA1 JUMP JUMPDEST DUP2 DUP2 MSTORE PUSH1 0x5 SWAP2 SWAP1 SWAP2 SHL DUP3 ADD DUP5 ADD SWAP1 DUP5 DUP2 ADD SWAP1 DUP12 DUP4 GT ISZERO PUSH2 0x2DD1 JUMPI PUSH0 DUP1 REVERT JUMPDEST DUP6 DUP5 ADD JUMPDEST DUP4 DUP2 LT ISZERO PUSH2 0x2E07 JUMPI DUP1 CALLDATALOAD DUP7 DUP2 GT ISZERO PUSH2 0x2DEB JUMPI PUSH0 DUP1 REVERT JUMPDEST PUSH2 0x2DF9 DUP15 DUP10 DUP4 DUP10 ADD ADD PUSH2 0x29A9 JUMP JUMPDEST DUP5 MSTORE POP SWAP2 DUP7 ADD SWAP2 DUP7 ADD PUSH2 0x2DD5 JUMP JUMPDEST POP SWAP7 POP POP POP POP PUSH1 0x60 DUP8 ADD CALLDATALOAD SWAP2 POP DUP1 DUP3 GT ISZERO PUSH2 0x2E20 JUMPI PUSH0 DUP1 REVERT JUMPDEST POP PUSH2 0x2C16 DUP8 DUP3 DUP9 ADD PUSH2 0x2CC3 JUMP JUMPDEST PUSH0 DUP1 PUSH1 0x40 DUP4 DUP6 SUB SLT ISZERO PUSH2 0x2E3E JUMPI PUSH0 DUP1 REVERT JUMPDEST DUP3 CALLDATALOAD PUSH2 0x2E49 DUP2 PUSH2 0x2770 JUMP JUMPDEST SWAP2 POP PUSH1 0x20 DUP4 ADD CALLDATALOAD PUSH2 0x2B9D DUP2 PUSH2 0x2770 JUMP JUMPDEST PUSH1 0x1 DUP2 DUP2 SHR SWAP1 DUP3 AND DUP1 PUSH2 0x2E6D JUMPI PUSH1 0x7F DUP3 AND SWAP2 POP JUMPDEST PUSH1 0x20 DUP3 LT DUP2 SUB PUSH2 0x2E8B JUMPI PUSH4 0x4E487B71 PUSH1 0xE0 SHL PUSH0 MSTORE PUSH1 0x22 PUSH1 0x4 MSTORE PUSH1 0x24 PUSH0 REVERT JUMPDEST POP SWAP2 SWAP1 POP JUMP JUMPDEST DUP1 MLOAD PUSH2 0x2E9C DUP2 PUSH2 0x2B64 JUMP JUMPDEST SWAP2 SWAP1 POP JUMP JUMPDEST PUSH0 PUSH1 0x20 DUP3 DUP5 SUB SLT ISZERO PUSH2 0x2EB1 JUMPI PUSH0 DUP1 REVERT JUMPDEST DUP2 MLOAD PUSH2 0x13B7 DUP2 PUSH2 0x2B64 JUMP JUMPDEST PUSH1 0x20 DUP1 DUP3 MSTORE DUP2 DUP2 ADD MSTORE PUSH32 0x43616C6C6572206973206E6F742061206261636B656E6420616464726573732E PUSH1 0x40 DUP3 ADD MSTORE PUSH1 0x60 ADD SWAP1 JUMP JUMPDEST PUSH4 0x4E487B71 PUSH1 0xE0 SHL PUSH0 MSTORE PUSH1 0x32 PUSH1 0x4 MSTORE PUSH1 0x24 PUSH0 REVERT JUMPDEST DUP2 DUP4 DUP3 CALLDATACOPY PUSH0 SWAP2 ADD SWAP1 DUP2 MSTORE SWAP2 SWAP1 POP JUMP JUMPDEST PUSH0 DUP2 MLOAD DUP1 PUSH1 0x20 DUP5 ADD DUP6 MCOPY PUSH0 SWAP4 ADD SWAP3 DUP4 MSTORE POP SWAP1 SWAP2 SWAP1 POP JUMP JUMPDEST PUSH0 PUSH2 0x13B7 DUP3 DUP5 PUSH2 0x2F14 JUMP JUMPDEST PUSH4 0x4E487B71 PUSH1 0xE0 SHL PUSH0 MSTORE PUSH1 0x11 PUSH1 0x4 MSTORE PUSH1 0x24 PUSH0 REVERT JUMPDEST DUP2 DUP2 SUB DUP2 DUP2 GT ISZERO PUSH2 0x4BE JUMPI PUSH2 0x4BE PUSH2 0x2F36 JUMP JUMPDEST PUSH0 PUSH1 0x1 DUP3 ADD PUSH2 0x2F6E JUMPI PUSH2 0x2F6E PUSH2 0x2F36 JUMP JUMPDEST POP PUSH1 0x1 ADD SWAP1 JUMP JUMPDEST PUSH1 0x1F DUP3 GT ISZERO PUSH2 0x724 JUMPI DUP1 PUSH0 MSTORE PUSH1 0x20 PUSH0 KECCAK256 PUSH1 0x1F DUP5 ADD PUSH1 0x5 SHR DUP2 ADD PUSH1 0x20 DUP6 LT ISZERO PUSH2 0x2F9A JUMPI POP DUP1 JUMPDEST PUSH1 0x1F DUP5 ADD PUSH1 0x5 SHR DUP3 ADD SWAP2 POP JUMPDEST DUP2 DUP2 LT ISZERO PUSH2 0x2095 JUMPI PUSH0 DUP2 SSTORE PUSH1 0x1 ADD PUSH2 0x2FA6 JUMP JUMPDEST DUP2 MLOAD PUSH1 0x1 PUSH1 0x1 PUSH1 0x40 SHL SUB DUP2 GT ISZERO PUSH2 0x2FD2 JUMPI PUSH2 0x2FD2 PUSH2 0x28DC JUMP JUMPDEST PUSH2 0x2FE6 DUP2 PUSH2 0x2FE0 DUP5 SLOAD PUSH2 0x2E59 JUMP JUMPDEST DUP5 PUSH2 0x2F75 JUMP JUMPDEST PUSH1 0x20 DUP1 PUSH1 0x1F DUP4 GT PUSH1 0x1 DUP2 EQ PUSH2 0x3019 JUMPI PUSH0 DUP5 ISZERO PUSH2 0x3002 JUMPI POP DUP6 DUP4 ADD MLOAD JUMPDEST PUSH0 NOT PUSH1 0x3 DUP7 SWAP1 SHL SHR NOT AND PUSH1 0x1 DUP6 SWAP1 SHL OR DUP6 SSTORE PUSH2 0x3070 JUMP JUMPDEST PUSH0 DUP6 DUP2 MSTORE PUSH1 0x20 DUP2 KECCAK256 PUSH1 0x1F NOT DUP7 AND SWAP2 JUMPDEST DUP3 DUP2 LT ISZERO PUSH2 0x3047 JUMPI DUP9 DUP7 ADD MLOAD DUP3 SSTORE SWAP5 DUP5 ADD SWAP5 PUSH1 0x1 SWAP1 SWAP2 ADD SWAP1 DUP5 ADD PUSH2 0x3028 JUMP JUMPDEST POP DUP6 DUP3 LT ISZERO PUSH2 0x3064 JUMPI DUP8 DUP6 ADD MLOAD PUSH0 NOT PUSH1 0x3 DUP9 SWAP1 SHL PUSH1 0xF8 AND SHR NOT AND DUP2 SSTORE JUMPDEST POP POP PUSH1 0x1 DUP5 PUSH1 0x1 SHL ADD DUP6 SSTORE JUMPDEST POP POP POP POP POP POP JUMP JUMPDEST DUP4 DUP2 MSTORE PUSH1 0x60 PUSH1 0x20 DUP3 ADD MSTORE PUSH0 PUSH2 0x3090 PUSH1 0x60 DUP4 ADD DUP6 PUSH2 0x2719 JUMP JUMPDEST DUP3 DUP2 SUB PUSH1 0x40 DUP5 ADD MSTORE PUSH2 0x30A2 DUP2 DUP6 PUSH2 0x2719 JUMP JUMPDEST SWAP7 SWAP6 POP POP POP POP POP POP JUMP JUMPDEST PUSH0 DUP1 DUP4 SLOAD PUSH2 0x30B9 DUP2 PUSH2 0x2E59 JUMP JUMPDEST PUSH1 0x1 DUP3 DUP2 AND DUP1 ISZERO PUSH2 0x30D1 JUMPI PUSH1 0x1 DUP2 EQ PUSH2 0x30E6 JUMPI PUSH2 0x3112 JUMP JUMPDEST PUSH1 0xFF NOT DUP5 AND DUP8 MSTORE DUP3 ISZERO ISZERO DUP4 MUL DUP8 ADD SWAP5 POP PUSH2 0x3112 JUMP JUMPDEST DUP8 PUSH0 MSTORE PUSH1 0x20 DUP1 PUSH0 KECCAK256 PUSH0 JUMPDEST DUP6 DUP2 LT ISZERO PUSH2 0x3109 JUMPI DUP2 SLOAD DUP11 DUP3 ADD MSTORE SWAP1 DUP5 ADD SWAP1 DUP3 ADD PUSH2 0x30F0 JUMP JUMPDEST POP POP POP DUP3 DUP8 ADD SWAP5 POP JUMPDEST POP SWAP3 SWAP7 SWAP6 POP POP POP POP POP POP JUMP JUMPDEST PUSH1 0x80 DUP2 MSTORE PUSH0 PUSH2 0x3130 PUSH1 0x80 DUP4 ADD DUP8 PUSH2 0x2719 JUMP JUMPDEST DUP6 PUSH1 0x20 DUP5 ADD MSTORE DUP3 DUP2 SUB PUSH1 0x40 DUP5 ADD MSTORE PUSH2 0x3148 DUP2 DUP7 PUSH2 0x2719 JUMP JUMPDEST SWAP1 POP DUP3 DUP2 SUB PUSH1 0x60 DUP5 ADD MSTORE PUSH2 0x315C DUP2 DUP6 PUSH2 0x2719 JUMP JUMPDEST SWAP8 SWAP7 POP POP POP POP POP POP POP JUMP JUMPDEST PUSH0 PUSH2 0x1DFB PUSH2 0x3175 DUP4 DUP7 PUSH2 0x2F14 JUMP JUMPDEST DUP5 PUSH2 0x2F14 JUMP JUMPDEST PUSH0 DUP2 SLOAD PUSH2 0x3187 DUP2 PUSH2 0x2E59 JUMP JUMPDEST DUP1 DUP6 MSTORE PUSH1 0x20 PUSH1 0x1 DUP4 DUP2 AND DUP1 ISZERO PUSH2 0x31A4 JUMPI PUSH1 0x1 DUP2 EQ PUSH2 0x31BE JUMPI PUSH2 0x31E9 JUMP JUMPDEST PUSH1 0xFF NOT DUP6 AND DUP9 DUP5 ADD MSTORE DUP4 ISZERO ISZERO PUSH1 0x5 SHL DUP9 ADD DUP4 ADD SWAP6 POP PUSH2 0x31E9 JUMP JUMPDEST DUP7 PUSH0 MSTORE DUP3 PUSH0 KECCAK256 PUSH0 JUMPDEST DUP6 DUP2 LT ISZERO PUSH2 0x31E1 JUMPI DUP2 SLOAD DUP11 DUP3 ADD DUP7 ADD MSTORE SWAP1 DUP4 ADD SWAP1 DUP5 ADD PUSH2 0x31C6 JUMP JUMPDEST DUP10 ADD DUP5 ADD SWAP7 POP POP JUMPDEST POP POP POP POP POP SWAP3 SWAP2 POP POP JUMP JUMPDEST PUSH1 0x80 DUP2 MSTORE PUSH0 PUSH2 0x3130 PUSH1 0x80 DUP4 ADD DUP8 PUSH2 0x317B JUMP JUMPDEST DUP1 MLOAD PUSH2 0x2E9C DUP2 PUSH2 0x2770 JUMP JUMPDEST PUSH0 PUSH1 0x20 DUP1 DUP4 DUP6 SUB SLT ISZERO PUSH2 0x3222 JUMPI PUSH0 DUP1 REVERT JUMPDEST DUP3 MLOAD PUSH1 0x1 PUSH1 0x1 PUSH1 0x40 SHL SUB DUP1 DUP3 GT ISZERO PUSH2 0x3238 JUMPI PUSH0 DUP1 REVERT JUMPDEST SWAP1 DUP5 ADD SWAP1 PUSH1 0xA0 DUP3 DUP8 SUB SLT ISZERO PUSH2 0x324B JUMPI PUSH0 DUP1 REVERT JUMPDEST PUSH2 0x3253 PUSH2 0x28F0 JUMP JUMPDEST DUP3 MLOAD DUP3 DUP2 GT ISZERO PUSH2 0x3261 JUMPI PUSH0 DUP1 REVERT JUMPDEST DUP4 ADD SWAP2 POP PUSH1 0x1F DUP3 ADD DUP8 SGT PUSH2 0x3273 JUMPI PUSH0 DUP1 REVERT JUMPDEST DUP2 MLOAD PUSH2 0x3281 PUSH2 0x297B DUP3 PUSH2 0x2948 JUMP JUMPDEST DUP2 DUP2 MSTORE DUP9 DUP7 DUP4 DUP7 ADD ADD GT ISZERO PUSH2 0x3294 JUMPI PUSH0 DUP1 REVERT JUMPDEST DUP2 DUP7 DUP6 ADD DUP8 DUP4 ADD MCOPY PUSH0 DUP7 DUP4 DUP4 ADD ADD MSTORE DUP1 DUP4 MSTORE POP POP PUSH2 0x32B3 DUP5 DUP5 ADD PUSH2 0x3206 JUMP JUMPDEST DUP5 DUP3 ADD MSTORE PUSH2 0x32C3 PUSH1 0x40 DUP5 ADD PUSH2 0x2E91 JUMP JUMPDEST PUSH1 0x40 DUP3 ADD MSTORE PUSH1 0x60 DUP4 ADD MLOAD PUSH1 0x60 DUP3 ADD MSTORE PUSH2 0x32DE PUSH1 0x80 DUP5 ADD PUSH2 0x2E91 JUMP JUMPDEST PUSH1 0x80 DUP3 ADD MSTORE SWAP7 SWAP6 POP POP POP POP POP POP JUMP JUMPDEST PUSH1 0x20 DUP2 MSTORE PUSH0 PUSH2 0x13B7 PUSH1 0x20 DUP4 ADD DUP5 PUSH2 0x317B JUMP JUMPDEST PUSH1 0x40 DUP2 MSTORE PUSH0 PUSH2 0x3311 PUSH1 0x40 DUP4 ADD DUP6 PUSH2 0x2719 JUMP JUMPDEST SWAP1 POP DUP3 PUSH1 0x20 DUP4 ADD MSTORE SWAP4 SWAP3 POP POP POP JUMP JUMPDEST PUSH1 0x1 PUSH1 0x1 PUSH1 0xA0 SHL SUB DUP6 DUP2 AND DUP3 MSTORE DUP5 AND PUSH1 0x20 DUP3 ADD MSTORE PUSH1 0x40 DUP2 ADD DUP4 SWAP1 MSTORE PUSH1 0x80 PUSH1 0x60 DUP3 ADD DUP2 SWAP1 MSTORE PUSH0 SWAP1 PUSH2 0x30A2 SWAP1 DUP4 ADD DUP5 PUSH2 0x2719 JUMP JUMPDEST PUSH0 PUSH1 0x20 DUP3 DUP5 SUB SLT ISZERO PUSH2 0x3362 JUMPI PUSH0 DUP1 REVERT JUMPDEST DUP2 MLOAD PUSH2 0x13B7 DUP2 PUSH2 0x26E9 JUMP JUMPDEST PUSH4 0x4E487B71 PUSH1 0xE0 SHL PUSH0 MSTORE PUSH1 0x31 PUSH1 0x4 MSTORE PUSH1 0x24 PUSH0 REVERT INVALID LOG2 PUSH5 0x6970667358 0x22 SLT KECCAK256 RETURN 0xE1 PUSH9 0x8E6FA43E8E866F87D0 DUP8 SWAP8 0xD6 CALLDATACOPY BLOCKHASH 0xD1 PUSH22 0xF78D08BFCC17FA2FEF3925183464736F6C6343000819 STOP CALLER "
		},
		"gasEstimates": {
			"creation": {
				"codeDepositCost": "2647800",
				"executionCost": "infinite",
				"totalCost": "infinite"
			},
			"external": {
				"approve(address,uint256)": "31548",
				"approveAsset(string,string,string[],uint256[])": "infinite",
				"balanceOf(address)": "2690",
				"disputes(uint256)": "infinite",
				"emergencyWithdraw()": "infinite",
				"getApproved(uint256)": "infinite",
				"getCreditSupplyLimit(uint256,string)": "infinite",
				"getCreditTypes(uint256)": "infinite",
				"isApprovedForAll(address,address)": "infinite",
				"lastSubmission(string)": "infinite",
				"name()": "infinite",
				"ownerOf(uint256)": "infinite",
				"pause()": "infinite",
				"paused()": "2337",
				"qTime()": "2406",
				"raiseDispute(string,string,string)": "infinite",
				"resolveDispute(string,uint256,string,string)": "infinite",
				"safeTransferFrom(address,address,uint256)": "infinite",
				"safeTransferFrom(address,address,uint256,bytes)": "infinite",
				"setApprovalForAll(address,bool)": "infinite",
				"setQTime(int256)": "infinite",
				"submitAsset(string,string)": "infinite",
				"supportsInterface(bytes4)": "infinite",
				"symbol()": "infinite",
				"tokenByIndex(uint256)": "6800",
				"tokenOfOwnerByIndex(address,uint256)": "5008",
				"tokenURI(uint256)": "infinite",
				"totalSupply()": "2326",
				"transferFrom(address,address,uint256)": "infinite",
				"unpause()": "infinite",
				"verifications(string)": "infinite",
				"verifierReputation(string)": "infinite"
			}
		},
		"methodIdentifiers": {
			"approve(address,uint256)": "095ea7b3",
			"approveAsset(string,string,string[],uint256[])": "d5dbd6d4",
			"balanceOf(address)": "70a08231",
			"disputes(uint256)": "564a565d",
			"emergencyWithdraw()": "db2e21bc",
			"getApproved(uint256)": "081812fc",
			"getCreditSupplyLimit(uint256,string)": "736dea81",
			"getCreditTypes(uint256)": "7f177d31",
			"isApprovedForAll(address,address)": "e985e9c5",
			"lastSubmission(string)": "a6b3e02f",
			"name()": "06fdde03",
			"ownerOf(uint256)": "6352211e",
			"pause()": "8456cb59",
			"paused()": "5c975abb",
			"qTime()": "3e20c018",
			"raiseDispute(string,string,string)": "80e0684f",
			"resolveDispute(string,uint256,string,string)": "d4010f93",
			"safeTransferFrom(address,address,uint256)": "42842e0e",
			"safeTransferFrom(address,address,uint256,bytes)": "b88d4fde",
			"setApprovalForAll(address,bool)": "a22cb465",
			"setQTime(int256)": "5eaf0a0d",
			"submitAsset(string,string)": "74ccf311",
			"supportsInterface(bytes4)": "01ffc9a7",
			"symbol()": "95d89b41",
			"tokenByIndex(uint256)": "4f6ccce7",
			"tokenOfOwnerByIndex(address,uint256)": "2f745c59",
			"tokenURI(uint256)": "c87b56dd",
			"totalSupply()": "18160ddd",
			"transferFrom(address,address,uint256)": "23b872dd",
			"unpause()": "3f4ba83a",
			"verifications(string)": "9b5b2ef6",
			"verifierReputation(string)": "76b0526c"
		}
	},
	"abi": [
		{
			"inputs": [
				{
					"internalType": "address",
					"name": "accountManagerAddress",
					"type": "address"
				},
				{
					"internalType": "address",
					"name": "roleManagerAddress",
					"type": "address"
				}
			],
			"stateMutability": "nonpayable",
			"type": "constructor"
		},
		{
			"inputs": [],
			"name": "ERC721EnumerableForbiddenBatchMint",
			"type": "error"
		},
		{
			"inputs": [
				{
					"internalType": "address",
					"name": "sender",
					"type": "address"
				},
				{
					"internalType": "uint256",
					"name": "tokenId",
					"type": "uint256"
				},
				{
					"internalType": "address",
					"name": "owner",
					"type": "address"
				}
			],
			"name": "ERC721IncorrectOwner",
			"type": "error"
		},
		{
			"inputs": [
				{
					"internalType": "address",
					"name": "operator",
					"type": "address"
				},
				{
					"internalType": "uint256",
					"name": "tokenId",
					"type": "uint256"
				}
			],
			"name": "ERC721InsufficientApproval",
			"type": "error"
		},
		{
			"inputs": [
				{
					"internalType": "address",
					"name": "approver",
					"type": "address"
				}
			],
			"name": "ERC721InvalidApprover",
			"type": "error"
		},
		{
			"inputs": [
				{
					"internalType": "address",
					"name": "operator",
					"type": "address"
				}
			],
			"name": "ERC721InvalidOperator",
			"type": "error"
		},
		{
			"inputs": [
				{
					"internalType": "address",
					"name": "owner",
					"type": "address"
				}
			],
			"name": "ERC721InvalidOwner",
			"type": "error"
		},
		{
			"inputs": [
				{
					"internalType": "address",
					"name": "receiver",
					"type": "address"
				}
			],
			"name": "ERC721InvalidReceiver",
			"type": "error"
		},
		{
			"inputs": [
				{
					"internalType": "address",
					"name": "sender",
					"type": "address"
				}
			],
			"name": "ERC721InvalidSender",
			"type": "error"
		},
		{
			"inputs": [
				{
					"internalType": "uint256",
					"name": "tokenId",
					"type": "uint256"
				}
			],
			"name": "ERC721NonexistentToken",
			"type": "error"
		},
		{
			"inputs": [
				{
					"internalType": "address",
					"name": "owner",
					"type": "address"
				},
				{
					"internalType": "uint256",
					"name": "index",
					"type": "uint256"
				}
			],
			"name": "ERC721OutOfBoundsIndex",
			"type": "error"
		},
		{
			"anonymous": false,
			"inputs": [
				{
					"indexed": true,
					"internalType": "address",
					"name": "owner",
					"type": "address"
				},
				{
					"indexed": true,
					"internalType": "address",
					"name": "approved",
					"type": "address"
				},
				{
					"indexed": true,
					"internalType": "uint256",
					"name": "tokenId",
					"type": "uint256"
				}
			],
			"name": "Approval",
			"type": "event"
		},
		{
			"anonymous": false,
			"inputs": [
				{
					"indexed": true,
					"internalType": "address",
					"name": "owner",
					"type": "address"
				},
				{
					"indexed": true,
					"internalType": "address",
					"name": "operator",
					"type": "address"
				},
				{
					"indexed": false,
					"internalType": "bool",
					"name": "approved",
					"type": "bool"
				}
			],
			"name": "ApprovalForAll",
			"type": "event"
		},
		{
			"anonymous": false,
			"inputs": [
				{
					"indexed": false,
					"internalType": "uint256",
					"name": "id",
					"type": "uint256"
				},
				{
					"indexed": false,
					"internalType": "string",
					"name": "assetID",
					"type": "string"
				},
				{
					"indexed": false,
					"internalType": "string",
					"name": "accountID",
					"type": "string"
				}
			],
			"name": "AssetSubmitted",
			"type": "event"
		},
		{
			"anonymous": false,
			"inputs": [
				{
					"indexed": false,
					"internalType": "uint256",
					"name": "id",
					"type": "uint256"
				},
				{
					"indexed": false,
					"internalType": "string",
					"name": "assetID",
					"type": "string"
				},
				{
					"indexed": false,
					"internalType": "string",
					"name": "accountID",
					"type": "string"
				}
			],
			"name": "AssetVerified",
			"type": "event"
		},
		{
			"anonymous": false,
			"inputs": [
				{
					"indexed": true,
					"internalType": "uint256",
					"name": "tokenId",
					"type": "uint256"
				},
				{
					"indexed": false,
					"internalType": "string",
					"name": "creditType",
					"type": "string"
				},
				{
					"indexed": false,
					"internalType": "uint256",
					"name": "supplyLimit",
					"type": "uint256"
				}
			],
			"name": "CreditSupplyLimitUpdated",
			"type": "event"
		},
		{
			"anonymous": false,
			"inputs": [
				{
					"indexed": true,
					"internalType": "uint256",
					"name": "tokenId",
					"type": "uint256"
				},
				{
					"indexed": false,
					"internalType": "string[]",
					"name": "creditTypes",
					"type": "string[]"
				}
			],
			"name": "CreditTypesUpdated",
			"type": "event"
		},
		{
			"anonymous": false,
			"inputs": [
				{
					"indexed": false,
					"internalType": "string",
					"name": "assetID",
					"type": "string"
				},
				{
					"indexed": false,
					"internalType": "uint256",
					"name": "disputeID",
					"type": "uint256"
				},
				{
					"indexed": false,
					"internalType": "string",
					"name": "reason",
					"type": "string"
				},
				{
					"indexed": false,
					"internalType": "string",
					"name": "accountID",
					"type": "string"
				}
			],
			"name": "DisputeRaised",
			"type": "event"
		},
		{
			"anonymous": false,
			"inputs": [
				{
					"indexed": false,
					"internalType": "string",
					"name": "assetID",
					"type": "string"
				},
				{
					"indexed": false,
					"internalType": "uint256",
					"name": "disputeID",
					"type": "uint256"
				},
				{
					"indexed": false,
					"internalType": "string",
					"name": "solution",
					"type": "string"
				},
				{
					"indexed": false,
					"internalType": "string",
					"name": "accountID",
					"type": "string"
				}
			],
			"name": "DisputeResolved",
			"type": "event"
		},
		{
			"anonymous": false,
			"inputs": [
				{
					"indexed": false,
					"internalType": "address",
					"name": "account",
					"type": "address"
				}
			],
			"name": "Paused",
			"type": "event"
		},
		{
			"anonymous": false,
			"inputs": [
				{
					"indexed": true,
					"internalType": "address",
					"name": "from",
					"type": "address"
				},
				{
					"indexed": true,
					"internalType": "address",
					"name": "to",
					"type": "address"
				},
				{
					"indexed": true,
					"internalType": "uint256",
					"name": "tokenId",
					"type": "uint256"
				}
			],
			"name": "Transfer",
			"type": "event"
		},
		{
			"anonymous": false,
			"inputs": [
				{
					"indexed": false,
					"internalType": "address",
					"name": "account",
					"type": "address"
				}
			],
			"name": "Unpaused",
			"type": "event"
		},
		{
			"inputs": [
				{
					"internalType": "address",
					"name": "to",
					"type": "address"
				},
				{
					"internalType": "uint256",
					"name": "tokenId",
					"type": "uint256"
				}
			],
			"name": "approve",
			"outputs": [],
			"stateMutability": "nonpayable",
			"type": "function"
		},
		{
			"inputs": [
				{
					"internalType": "string",
					"name": "accountID",
					"type": "string"
				},
				{
					"internalType": "string",
					"name": "assetID",
					"type": "string"
				},
				{
					"internalType": "string[]",
					"name": "creditTypes",
					"type": "string[]"
				},
				{
					"internalType": "uint256[]",
					"name": "creditSupplyLimits",
					"type": "uint256[]"
				}
			],
			"name": "approveAsset",
			"outputs": [],
			"stateMutability": "nonpayable",
			"type": "function"
		},
		{
			"inputs": [
				{
					"internalType": "address",
					"name": "owner",
					"type": "address"
				}
			],
			"name": "balanceOf",
			"outputs": [
				{
					"internalType": "uint256",
					"name": "",
					"type": "uint256"
				}
			],
			"stateMutability": "view",
			"type": "function"
		},
		{
			"inputs": [
				{
					"internalType": "uint256",
					"name": "",
					"type": "uint256"
				}
			],
			"name": "disputes",
			"outputs": [
				{
					"internalType": "string",
					"name": "assetID",
					"type": "string"
				},
				{
					"internalType": "string",
					"name": "reason",
					"type": "string"
				},
				{
					"internalType": "string",
					"name": "solution",
					"type": "string"
				},
				{
					"internalType": "string",
					"name": "status",
					"type": "string"
				},
				{
					"internalType": "bool",
					"name": "closed",
					"type": "bool"
				}
			],
			"stateMutability": "view",
			"type": "function"
		},
		{
			"inputs": [],
			"name": "emergencyWithdraw",
			"outputs": [],
			"stateMutability": "nonpayable",
			"type": "function"
		},
		{
			"inputs": [
				{
					"internalType": "uint256",
					"name": "tokenId",
					"type": "uint256"
				}
			],
			"name": "getApproved",
			"outputs": [
				{
					"internalType": "address",
					"name": "",
					"type": "address"
				}
			],
			"stateMutability": "view",
			"type": "function"
		},
		{
			"inputs": [
				{
					"internalType": "uint256",
					"name": "tokenId",
					"type": "uint256"
				},
				{
					"internalType": "string",
					"name": "creditType",
					"type": "string"
				}
			],
			"name": "getCreditSupplyLimit",
			"outputs": [
				{
					"internalType": "uint256",
					"name": "",
					"type": "uint256"
				}
			],
			"stateMutability": "view",
			"type": "function"
		},
		{
			"inputs": [
				{
					"internalType": "uint256",
					"name": "tokenId",
					"type": "uint256"
				}
			],
			"name": "getCreditTypes",
			"outputs": [
				{
					"internalType": "string[]",
					"name": "",
					"type": "string[]"
				}
			],
			"stateMutability": "view",
			"type": "function"
		},
		{
			"inputs": [
				{
					"internalType": "address",
					"name": "owner",
					"type": "address"
				},
				{
					"internalType": "address",
					"name": "operator",
					"type": "address"
				}
			],
			"name": "isApprovedForAll",
			"outputs": [
				{
					"internalType": "bool",
					"name": "",
					"type": "bool"
				}
			],
			"stateMutability": "view",
			"type": "function"
		},
		{
			"inputs": [
				{
					"internalType": "string",
					"name": "",
					"type": "string"
				}
			],
			"name": "lastSubmission",
			"outputs": [
				{
					"internalType": "uint256",
					"name": "",
					"type": "uint256"
				}
			],
			"stateMutability": "view",
			"type": "function"
		},
		{
			"inputs": [],
			"name": "name",
			"outputs": [
				{
					"internalType": "string",
					"name": "",
					"type": "string"
				}
			],
			"stateMutability": "view",
			"type": "function"
		},
		{
			"inputs": [
				{
					"internalType": "uint256",
					"name": "tokenId",
					"type": "uint256"
				}
			],
			"name": "ownerOf",
			"outputs": [
				{
					"internalType": "address",
					"name": "",
					"type": "address"
				}
			],
			"stateMutability": "view",
			"type": "function"
		},
		{
			"inputs": [],
			"name": "pause",
			"outputs": [],
			"stateMutability": "nonpayable",
			"type": "function"
		},
		{
			"inputs": [],
			"name": "paused",
			"outputs": [
				{
					"internalType": "bool",
					"name": "",
					"type": "bool"
				}
			],
			"stateMutability": "view",
			"type": "function"
		},
		{
			"inputs": [],
			"name": "qTime",
			"outputs": [
				{
					"internalType": "int256",
					"name": "",
					"type": "int256"
				}
			],
			"stateMutability": "view",
			"type": "function"
		},
		{
			"inputs": [
				{
					"internalType": "string",
					"name": "accountID",
					"type": "string"
				},
				{
					"internalType": "string",
					"name": "assetID",
					"type": "string"
				},
				{
					"internalType": "string",
					"name": "reason",
					"type": "string"
				}
			],
			"name": "raiseDispute",
			"outputs": [],
			"stateMutability": "nonpayable",
			"type": "function"
		},
		{
			"inputs": [
				{
					"internalType": "string",
					"name": "accountID",
					"type": "string"
				},
				{
					"internalType": "uint256",
					"name": "disputeID",
					"type": "uint256"
				},
				{
					"internalType": "string",
					"name": "solution",
					"type": "string"
				},
				{
					"internalType": "string",
					"name": "status",
					"type": "string"
				}
			],
			"name": "resolveDispute",
			"outputs": [],
			"stateMutability": "nonpayable",
			"type": "function"
		},
		{
			"inputs": [
				{
					"internalType": "address",
					"name": "from",
					"type": "address"
				},
				{
					"internalType": "address",
					"name": "to",
					"type": "address"
				},
				{
					"internalType": "uint256",
					"name": "tokenId",
					"type": "uint256"
				}
			],
			"name": "safeTransferFrom",
			"outputs": [],
			"stateMutability": "nonpayable",
			"type": "function"
		},
		{
			"inputs": [
				{
					"internalType": "address",
					"name": "from",
					"type": "address"
				},
				{
					"internalType": "address",
					"name": "to",
					"type": "address"
				},
				{
					"internalType": "uint256",
					"name": "tokenId",
					"type": "uint256"
				},
				{
					"internalType": "bytes",
					"name": "data",
					"type": "bytes"
				}
			],
			"name": "safeTransferFrom",
			"outputs": [],
			"stateMutability": "nonpayable",
			"type": "function"
		},
		{
			"inputs": [
				{
					"internalType": "address",
					"name": "operator",
					"type": "address"
				},
				{
					"internalType": "bool",
					"name": "approved",
					"type": "bool"
				}
			],
			"name": "setApprovalForAll",
			"outputs": [],
			"stateMutability": "nonpayable",
			"type": "function"
		},
		{
			"inputs": [
				{
					"internalType": "int256",
					"name": "newQTime",
					"type": "int256"
				}
			],
			"name": "setQTime",
			"outputs": [],
			"stateMutability": "nonpayable",
			"type": "function"
		},
		{
			"inputs": [
				{
					"internalType": "string",
					"name": "accountID",
					"type": "string"
				},
				{
					"internalType": "string",
					"name": "assetID",
					"type": "string"
				}
			],
			"name": "submitAsset",
			"outputs": [
				{
					"internalType": "uint256",
					"name": "",
					"type": "uint256"
				}
			],
			"stateMutability": "nonpayable",
			"type": "function"
		},
		{
			"inputs": [
				{
					"internalType": "bytes4",
					"name": "interfaceId",
					"type": "bytes4"
				}
			],
			"name": "supportsInterface",
			"outputs": [
				{
					"internalType": "bool",
					"name": "",
					"type": "bool"
				}
			],
			"stateMutability": "view",
			"type": "function"
		},
		{
			"inputs": [],
			"name": "symbol",
			"outputs": [
				{
					"internalType": "string",
					"name": "",
					"type": "string"
				}
			],
			"stateMutability": "view",
			"type": "function"
		},
		{
			"inputs": [
				{
					"internalType": "uint256",
					"name": "index",
					"type": "uint256"
				}
			],
			"name": "tokenByIndex",
			"outputs": [
				{
					"internalType": "uint256",
					"name": "",
					"type": "uint256"
				}
			],
			"stateMutability": "view",
			"type": "function"
		},
		{
			"inputs": [
				{
					"internalType": "address",
					"name": "owner",
					"type": "address"
				},
				{
					"internalType": "uint256",
					"name": "index",
					"type": "uint256"
				}
			],
			"name": "tokenOfOwnerByIndex",
			"outputs": [
				{
					"internalType": "uint256",
					"name": "",
					"type": "uint256"
				}
			],
			"stateMutability": "view",
			"type": "function"
		},
		{
			"inputs": [
				{
					"internalType": "uint256",
					"name": "tokenId",
					"type": "uint256"
				}
			],
			"name": "tokenURI",
			"outputs": [
				{
					"internalType": "string",
					"name": "",
					"type": "string"
				}
			],
			"stateMutability": "view",
			"type": "function"
		},
		{
			"inputs": [],
			"name": "totalSupply",
			"outputs": [
				{
					"internalType": "uint256",
					"name": "",
					"type": "uint256"
				}
			],
			"stateMutability": "view",
			"type": "function"
		},
		{
			"inputs": [
				{
					"internalType": "address",
					"name": "from",
					"type": "address"
				},
				{
					"internalType": "address",
					"name": "to",
					"type": "address"
				},
				{
					"internalType": "uint256",
					"name": "tokenId",
					"type": "uint256"
				}
			],
			"name": "transferFrom",
			"outputs": [],
			"stateMutability": "nonpayable",
			"type": "function"
		},
		{
			"inputs": [],
			"name": "unpause",
			"outputs": [],
			"stateMutability": "nonpayable",
			"type": "function"
		},
		{
			"inputs": [
				{
					"internalType": "string",
					"name": "",
					"type": "string"
				}
			],
			"name": "verifications",
			"outputs": [
				{
					"internalType": "uint256",
					"name": "id",
					"type": "uint256"
				},
				{
					"internalType": "string",
					"name": "accountID",
					"type": "string"
				},
				{
					"internalType": "bool",
					"name": "approved",
					"type": "bool"
				}
			],
			"stateMutability": "view",
			"type": "function"
		},
		{
			"inputs": [
				{
					"internalType": "string",
					"name": "",
					"type": "string"
				}
			],
			"name": "verifierReputation",
			"outputs": [
				{
					"internalType": "uint256",
					"name": "",
					"type": "uint256"
				}
			],
			"stateMutability": "view",
			"type": "function"
		}
	]
}