{
	"data": {
		"bytecode": {
			"linkReferences": {},
			"object": "608060405234801561000f575f80fd5b5061001a5f3361004b565b506100457fa49807205ce4d355092ef5a8a18f56e8913cf4a201fbe287825b095693c217753361004b565b506100f4565b5f828152602081815260408083206001600160a01b038516845290915281205460ff166100eb575f838152602081815260408083206001600160a01b03861684529091529020805460ff191660011790556100a33390565b6001600160a01b0316826001600160a01b0316847f2f8788117e7eff1d82e926ec794901d17c78024a50270940304540a733656f0d60405160405180910390a45060016100ee565b505f5b92915050565b610790806101015f395ff3fe608060405234801561000f575f80fd5b50600436106100fa575f3560e01c806375b238fc1161009357806395101181116100635780639510118114610218578063a217fddf1461022b578063a90706f114610232578063d547741f14610245575f80fd5b806375b238fc146101ca57806391d14854146101de57806392c2becc146101f157806393d1398e14610205575f80fd5b80632f2ff15d116100ce5780632f2ff15d1461017e57806336568abe1461019157806342282d95146101a457806364648f57146101b7575f80fd5b80624fba00146100fe57806301ffc9a71461011357806320e6fcef1461013b578063248a9ca31461014e575b5f80fd5b61011161010c366004610692565b610258565b005b6101266101213660046106b2565b6102bd565b60405190151581526020015b60405180910390f35b610111610149366004610692565b6102f3565b61017061015c3660046106d9565b5f9081526020819052604090206001015490565b604051908152602001610132565b61011161018c3660046106f0565b610358565b61011161019f3660046106f0565b610382565b6101266101b2366004610692565b6103ba565b6101266101c5366004610692565b6103d2565b6101705f8051602061073b83398151915281565b6101266101ec3660046106f0565b6103e6565b6101705f8051602061071b83398151915281565b610126610213366004610692565b61040e565b610111610226366004610692565b610443565b6101705f81565b610111610240366004610692565b6104a8565b6101116102533660046106f0565b61050d565b5f8051602061073b83398151915261026f81610531565b6102865f8051602061073b83398151915283610358565b6040516001600160a01b038316907f089aa9975328102f8cdff40d2e2b75ad3b940f83f42c2e13c43ed875ff8f046a905f90a25050565b5f6001600160e01b03198216637965db0b60e01b14806102ed57506301ffc9a760e01b6001600160e01b03198316145b92915050565b5f8051602061073b83398151915261030a81610531565b6103215f8051602061071b8339815191528361050d565b6040516001600160a01b038316907fc35337777d1208755251731fe1fbf5efb5549c4e19d19185e4cf7b44fd08eecc905f90a25050565b5f8281526020819052604090206001015461037281610531565b61037c838361053e565b50505050565b6001600160a01b03811633146103ab5760405163334bd91960e11b815260040160405180910390fd5b6103b582826105cd565b505050565b5f6102ed5f8051602061073b833981519152836103e6565b5f6102ed5f8051602061071b833981519152835b5f918252602082815260408084206001600160a01b0393909316845291905290205460ff1690565b5f6104265f8051602061073b833981519152836103e6565b806102ed57506102ed5f8051602061071b833981519152836103e6565b5f8051602061073b83398151915261045a81610531565b6104715f8051602061073b8339815191528361050d565b6040516001600160a01b038316907fc41dab03d4639245f86ebd733046feb495209977c224698a4d1318fec207af5a905f90a25050565b5f8051602061073b8339815191526104bf81610531565b6104d65f8051602061071b83398151915283610358565b6040516001600160a01b038316907f4d385d80c744c6a840d5ba51dca1f91c2c8eb92da70cd10f33dcc5da623098c3905f90a25050565b5f8281526020819052604090206001015461052781610531565b61037c83836105cd565b61053b8133610636565b50565b5f61054983836103e6565b6105c6575f838152602081815260408083206001600160a01b03861684529091529020805460ff1916600117905561057e3390565b6001600160a01b0316826001600160a01b0316847f2f8788117e7eff1d82e926ec794901d17c78024a50270940304540a733656f0d60405160405180910390a45060016102ed565b505f6102ed565b5f6105d883836103e6565b156105c6575f838152602081815260408083206001600160a01b0386168085529252808320805460ff1916905551339286917ff6391f5c32d9c69d2a47ea670b442974b53935d1edc7fd64eb21e047a839171b9190a45060016102ed565b61064082826103e6565b6106735760405163e2517d3f60e01b81526001600160a01b03821660048201526024810183905260440160405180910390fd5b5050565b80356001600160a01b038116811461068d575f80fd5b919050565b5f602082840312156106a2575f80fd5b6106ab82610677565b9392505050565b5f602082840312156106c2575f80fd5b81356001600160e01b0319811681146106ab575f80fd5b5f602082840312156106e9575f80fd5b5035919050565b5f8060408385031215610701575f80fd5b8235915061071160208401610677565b9050925092905056fe25cf2b509f2a7f322675b2a5322b182f44ad2c03ac941a0af17c9b178f5d5d5fa49807205ce4d355092ef5a8a18f56e8913cf4a201fbe287825b095693c21775a2646970667358221220a977d7798138540d327b5cc1e316c741a0622c64fe376abb8d6d2d3cc235d2f464736f6c63430008190033",
			"opcodes": "PUSH1 0x80 PUSH1 0x40 MSTORE CALLVALUE DUP1 ISZERO PUSH2 0xF JUMPI PUSH0 DUP1 REVERT JUMPDEST POP PUSH2 0x1A PUSH0 CALLER PUSH2 0x4B JUMP JUMPDEST POP PUSH2 0x45 PUSH32 0xA49807205CE4D355092EF5A8A18F56E8913CF4A201FBE287825B095693C21775 CALLER PUSH2 0x4B JUMP JUMPDEST POP PUSH2 0xF4 JUMP JUMPDEST PUSH0 DUP3 DUP2 MSTORE PUSH1 0x20 DUP2 DUP2 MSTORE PUSH1 0x40 DUP1 DUP4 KECCAK256 PUSH1 0x1 PUSH1 0x1 PUSH1 0xA0 SHL SUB DUP6 AND DUP5 MSTORE SWAP1 SWAP2 MSTORE DUP2 KECCAK256 SLOAD PUSH1 0xFF AND PUSH2 0xEB JUMPI PUSH0 DUP4 DUP2 MSTORE PUSH1 0x20 DUP2 DUP2 MSTORE PUSH1 0x40 DUP1 DUP4 KECCAK256 PUSH1 0x1 PUSH1 0x1 PUSH1 0xA0 SHL SUB DUP7 AND DUP5 MSTORE SWAP1 SWAP2 MSTORE SWAP1 KECCAK256 DUP1 SLOAD PUSH1 0xFF NOT AND PUSH1 0x1 OR SWAP1 SSTORE PUSH2 0xA3 CALLER SWAP1 JUMP JUMPDEST PUSH1 0x1 PUSH1 0x1 PUSH1 0xA0 SHL SUB AND DUP3 PUSH1 0x1 PUSH1 0x1 PUSH1 0xA0 SHL SUB AND DUP5 PUSH32 0x2F8788117E7EFF1D82E926EC794901D17C78024A50270940304540A733656F0D PUSH1 0x40 MLOAD PUSH1 0x40 MLOAD DUP1 SWAP2 SUB SWAP1 LOG4 POP PUSH1 0x1 PUSH2 0xEE JUMP JUMPDEST POP PUSH0 JUMPDEST SWAP3 SWAP2 POP POP JUMP JUMPDEST PUSH2 0x790 DUP1 PUSH2 0x101 PUSH0 CODECOPY PUSH0 RETURN INVALID PUSH1 0x80 PUSH1 0x40 MSTORE CALLVALUE DUP1 ISZERO PUSH2 0xF JUMPI PUSH0 DUP1 REVERT JUMPDEST POP PUSH1 0x4 CALLDATASIZE LT PUSH2 0xFA JUMPI PUSH0 CALLDATALOAD PUSH1 0xE0 SHR DUP1 PUSH4 0x75B238FC GT PUSH2 0x93 JUMPI DUP1 PUSH4 0x95101181 GT PUSH2 0x63 JUMPI DUP1 PUSH4 0x95101181 EQ PUSH2 0x218 JUMPI DUP1 PUSH4 0xA217FDDF EQ PUSH2 0x22B JUMPI DUP1 PUSH4 0xA90706F1 EQ PUSH2 0x232 JUMPI DUP1 PUSH4 0xD547741F EQ PUSH2 0x245 JUMPI PUSH0 DUP1 REVERT JUMPDEST DUP1 PUSH4 0x75B238FC EQ PUSH2 0x1CA JUMPI DUP1 PUSH4 0x91D14854 EQ PUSH2 0x1DE JUMPI DUP1 PUSH4 0x92C2BECC EQ PUSH2 0x1F1 JUMPI DUP1 PUSH4 0x93D1398E EQ PUSH2 0x205 JUMPI PUSH0 DUP1 REVERT JUMPDEST DUP1 PUSH4 0x2F2FF15D GT PUSH2 0xCE JUMPI DUP1 PUSH4 0x2F2FF15D EQ PUSH2 0x17E JUMPI DUP1 PUSH4 0x36568ABE EQ PUSH2 0x191 JUMPI DUP1 PUSH4 0x42282D95 EQ PUSH2 0x1A4 JUMPI DUP1 PUSH4 0x64648F57 EQ PUSH2 0x1B7 JUMPI PUSH0 DUP1 REVERT JUMPDEST DUP1 PUSH3 0x4FBA00 EQ PUSH2 0xFE JUMPI DUP1 PUSH4 0x1FFC9A7 EQ PUSH2 0x113 JUMPI DUP1 PUSH4 0x20E6FCEF EQ PUSH2 0x13B JUMPI DUP1 PUSH4 0x248A9CA3 EQ PUSH2 0x14E JUMPI JUMPDEST PUSH0 DUP1 REVERT JUMPDEST PUSH2 0x111 PUSH2 0x10C CALLDATASIZE PUSH1 0x4 PUSH2 0x692 JUMP JUMPDEST PUSH2 0x258 JUMP JUMPDEST STOP JUMPDEST PUSH2 0x126 PUSH2 0x121 CALLDATASIZE PUSH1 0x4 PUSH2 0x6B2 JUMP JUMPDEST PUSH2 0x2BD JUMP JUMPDEST PUSH1 0x40 MLOAD SWAP1 ISZERO ISZERO DUP2 MSTORE PUSH1 0x20 ADD JUMPDEST PUSH1 0x40 MLOAD DUP1 SWAP2 SUB SWAP1 RETURN JUMPDEST PUSH2 0x111 PUSH2 0x149 CALLDATASIZE PUSH1 0x4 PUSH2 0x692 JUMP JUMPDEST PUSH2 0x2F3 JUMP JUMPDEST PUSH2 0x170 PUSH2 0x15C CALLDATASIZE PUSH1 0x4 PUSH2 0x6D9 JUMP JUMPDEST PUSH0 SWAP1 DUP2 MSTORE PUSH1 0x20 DUP2 SWAP1 MSTORE PUSH1 0x40 SWAP1 KECCAK256 PUSH1 0x1 ADD SLOAD SWAP1 JUMP JUMPDEST PUSH1 0x40 MLOAD SWAP1 DUP2 MSTORE PUSH1 0x20 ADD PUSH2 0x132 JUMP JUMPDEST PUSH2 0x111 PUSH2 0x18C CALLDATASIZE PUSH1 0x4 PUSH2 0x6F0 JUMP JUMPDEST PUSH2 0x358 JUMP JUMPDEST PUSH2 0x111 PUSH2 0x19F CALLDATASIZE PUSH1 0x4 PUSH2 0x6F0 JUMP JUMPDEST PUSH2 0x382 JUMP JUMPDEST PUSH2 0x126 PUSH2 0x1B2 CALLDATASIZE PUSH1 0x4 PUSH2 0x692 JUMP JUMPDEST PUSH2 0x3BA JUMP JUMPDEST PUSH2 0x126 PUSH2 0x1C5 CALLDATASIZE PUSH1 0x4 PUSH2 0x692 JUMP JUMPDEST PUSH2 0x3D2 JUMP JUMPDEST PUSH2 0x170 PUSH0 DUP1 MLOAD PUSH1 0x20 PUSH2 0x73B DUP4 CODECOPY DUP2 MLOAD SWAP2 MSTORE DUP2 JUMP JUMPDEST PUSH2 0x126 PUSH2 0x1EC CALLDATASIZE PUSH1 0x4 PUSH2 0x6F0 JUMP JUMPDEST PUSH2 0x3E6 JUMP JUMPDEST PUSH2 0x170 PUSH0 DUP1 MLOAD PUSH1 0x20 PUSH2 0x71B DUP4 CODECOPY DUP2 MLOAD SWAP2 MSTORE DUP2 JUMP JUMPDEST PUSH2 0x126 PUSH2 0x213 CALLDATASIZE PUSH1 0x4 PUSH2 0x692 JUMP JUMPDEST PUSH2 0x40E JUMP JUMPDEST PUSH2 0x111 PUSH2 0x226 CALLDATASIZE PUSH1 0x4 PUSH2 0x692 JUMP JUMPDEST PUSH2 0x443 JUMP JUMPDEST PUSH2 0x170 PUSH0 DUP2 JUMP JUMPDEST PUSH2 0x111 PUSH2 0x240 CALLDATASIZE PUSH1 0x4 PUSH2 0x692 JUMP JUMPDEST PUSH2 0x4A8 JUMP JUMPDEST PUSH2 0x111 PUSH2 0x253 CALLDATASIZE PUSH1 0x4 PUSH2 0x6F0 JUMP JUMPDEST PUSH2 0x50D JUMP JUMPDEST PUSH0 DUP1 MLOAD PUSH1 0x20 PUSH2 0x73B DUP4 CODECOPY DUP2 MLOAD SWAP2 MSTORE PUSH2 0x26F DUP2 PUSH2 0x531 JUMP JUMPDEST PUSH2 0x286 PUSH0 DUP1 MLOAD PUSH1 0x20 PUSH2 0x73B DUP4 CODECOPY DUP2 MLOAD SWAP2 MSTORE DUP4 PUSH2 0x358 JUMP JUMPDEST PUSH1 0x40 MLOAD PUSH1 0x1 PUSH1 0x1 PUSH1 0xA0 SHL SUB DUP4 AND SWAP1 PUSH32 0x89AA9975328102F8CDFF40D2E2B75AD3B940F83F42C2E13C43ED875FF8F046A SWAP1 PUSH0 SWAP1 LOG2 POP POP JUMP JUMPDEST PUSH0 PUSH1 0x1 PUSH1 0x1 PUSH1 0xE0 SHL SUB NOT DUP3 AND PUSH4 0x7965DB0B PUSH1 0xE0 SHL EQ DUP1 PUSH2 0x2ED JUMPI POP PUSH4 0x1FFC9A7 PUSH1 0xE0 SHL PUSH1 0x1 PUSH1 0x1 PUSH1 0xE0 SHL SUB NOT DUP4 AND EQ JUMPDEST SWAP3 SWAP2 POP POP JUMP JUMPDEST PUSH0 DUP1 MLOAD PUSH1 0x20 PUSH2 0x73B DUP4 CODECOPY DUP2 MLOAD SWAP2 MSTORE PUSH2 0x30A DUP2 PUSH2 0x531 JUMP JUMPDEST PUSH2 0x321 PUSH0 DUP1 MLOAD PUSH1 0x20 PUSH2 0x71B DUP4 CODECOPY DUP2 MLOAD SWAP2 MSTORE DUP4 PUSH2 0x50D JUMP JUMPDEST PUSH1 0x40 MLOAD PUSH1 0x1 PUSH1 0x1 PUSH1 0xA0 SHL SUB DUP4 AND SWAP1 PUSH32 0xC35337777D1208755251731FE1FBF5EFB5549C4E19D19185E4CF7B44FD08EECC SWAP1 PUSH0 SWAP1 LOG2 POP POP JUMP JUMPDEST PUSH0 DUP3 DUP2 MSTORE PUSH1 0x20 DUP2 SWAP1 MSTORE PUSH1 0x40 SWAP1 KECCAK256 PUSH1 0x1 ADD SLOAD PUSH2 0x372 DUP2 PUSH2 0x531 JUMP JUMPDEST PUSH2 0x37C DUP4 DUP4 PUSH2 0x53E JUMP JUMPDEST POP POP POP POP JUMP JUMPDEST PUSH1 0x1 PUSH1 0x1 PUSH1 0xA0 SHL SUB DUP2 AND CALLER EQ PUSH2 0x3AB JUMPI PUSH1 0x40 MLOAD PUSH4 0x334BD919 PUSH1 0xE1 SHL DUP2 MSTORE PUSH1 0x4 ADD PUSH1 0x40 MLOAD DUP1 SWAP2 SUB SWAP1 REVERT JUMPDEST PUSH2 0x3B5 DUP3 DUP3 PUSH2 0x5CD JUMP JUMPDEST POP POP POP JUMP JUMPDEST PUSH0 PUSH2 0x2ED PUSH0 DUP1 MLOAD PUSH1 0x20 PUSH2 0x73B DUP4 CODECOPY DUP2 MLOAD SWAP2 MSTORE DUP4 PUSH2 0x3E6 JUMP JUMPDEST PUSH0 PUSH2 0x2ED PUSH0 DUP1 MLOAD PUSH1 0x20 PUSH2 0x71B DUP4 CODECOPY DUP2 MLOAD SWAP2 MSTORE DUP4 JUMPDEST PUSH0 SWAP2 DUP3 MSTORE PUSH1 0x20 DUP3 DUP2 MSTORE PUSH1 0x40 DUP1 DUP5 KECCAK256 PUSH1 0x1 PUSH1 0x1 PUSH1 0xA0 SHL SUB SWAP4 SWAP1 SWAP4 AND DUP5 MSTORE SWAP2 SWAP1 MSTORE SWAP1 KECCAK256 SLOAD PUSH1 0xFF AND SWAP1 JUMP JUMPDEST PUSH0 PUSH2 0x426 PUSH0 DUP1 MLOAD PUSH1 0x20 PUSH2 0x73B DUP4 CODECOPY DUP2 MLOAD SWAP2 MSTORE DUP4 PUSH2 0x3E6 JUMP JUMPDEST DUP1 PUSH2 0x2ED JUMPI POP PUSH2 0x2ED PUSH0 DUP1 MLOAD PUSH1 0x20 PUSH2 0x71B DUP4 CODECOPY DUP2 MLOAD SWAP2 MSTORE DUP4 PUSH2 0x3E6 JUMP JUMPDEST PUSH0 DUP1 MLOAD PUSH1 0x20 PUSH2 0x73B DUP4 CODECOPY DUP2 MLOAD SWAP2 MSTORE PUSH2 0x45A DUP2 PUSH2 0x531 JUMP JUMPDEST PUSH2 0x471 PUSH0 DUP1 MLOAD PUSH1 0x20 PUSH2 0x73B DUP4 CODECOPY DUP2 MLOAD SWAP2 MSTORE DUP4 PUSH2 0x50D JUMP JUMPDEST PUSH1 0x40 MLOAD PUSH1 0x1 PUSH1 0x1 PUSH1 0xA0 SHL SUB DUP4 AND SWAP1 PUSH32 0xC41DAB03D4639245F86EBD733046FEB495209977C224698A4D1318FEC207AF5A SWAP1 PUSH0 SWAP1 LOG2 POP POP JUMP JUMPDEST PUSH0 DUP1 MLOAD PUSH1 0x20 PUSH2 0x73B DUP4 CODECOPY DUP2 MLOAD SWAP2 MSTORE PUSH2 0x4BF DUP2 PUSH2 0x531 JUMP JUMPDEST PUSH2 0x4D6 PUSH0 DUP1 MLOAD PUSH1 0x20 PUSH2 0x71B DUP4 CODECOPY DUP2 MLOAD SWAP2 MSTORE DUP4 PUSH2 0x358 JUMP JUMPDEST PUSH1 0x40 MLOAD PUSH1 0x1 PUSH1 0x1 PUSH1 0xA0 SHL SUB DUP4 AND SWAP1 PUSH32 0x4D385D80C744C6A840D5BA51DCA1F91C2C8EB92DA70CD10F33DCC5DA623098C3 SWAP1 PUSH0 SWAP1 LOG2 POP POP JUMP JUMPDEST PUSH0 DUP3 DUP2 MSTORE PUSH1 0x20 DUP2 SWAP1 MSTORE PUSH1 0x40 SWAP1 KECCAK256 PUSH1 0x1 ADD SLOAD PUSH2 0x527 DUP2 PUSH2 0x531 JUMP JUMPDEST PUSH2 0x37C DUP4 DUP4 PUSH2 0x5CD JUMP JUMPDEST PUSH2 0x53B DUP2 CALLER PUSH2 0x636 JUMP JUMPDEST POP JUMP JUMPDEST PUSH0 PUSH2 0x549 DUP4 DUP4 PUSH2 0x3E6 JUMP JUMPDEST PUSH2 0x5C6 JUMPI PUSH0 DUP4 DUP2 MSTORE PUSH1 0x20 DUP2 DUP2 MSTORE PUSH1 0x40 DUP1 DUP4 KECCAK256 PUSH1 0x1 PUSH1 0x1 PUSH1 0xA0 SHL SUB DUP7 AND DUP5 MSTORE SWAP1 SWAP2 MSTORE SWAP1 KECCAK256 DUP1 SLOAD PUSH1 0xFF NOT AND PUSH1 0x1 OR SWAP1 SSTORE PUSH2 0x57E CALLER SWAP1 JUMP JUMPDEST PUSH1 0x1 PUSH1 0x1 PUSH1 0xA0 SHL SUB AND DUP3 PUSH1 0x1 PUSH1 0x1 PUSH1 0xA0 SHL SUB AND DUP5 PUSH32 0x2F8788117E7EFF1D82E926EC794901D17C78024A50270940304540A733656F0D PUSH1 0x40 MLOAD PUSH1 0x40 MLOAD DUP1 SWAP2 SUB SWAP1 LOG4 POP PUSH1 0x1 PUSH2 0x2ED JUMP JUMPDEST POP PUSH0 PUSH2 0x2ED JUMP JUMPDEST PUSH0 PUSH2 0x5D8 DUP4 DUP4 PUSH2 0x3E6 JUMP JUMPDEST ISZERO PUSH2 0x5C6 JUMPI PUSH0 DUP4 DUP2 MSTORE PUSH1 0x20 DUP2 DUP2 MSTORE PUSH1 0x40 DUP1 DUP4 KECCAK256 PUSH1 0x1 PUSH1 0x1 PUSH1 0xA0 SHL SUB DUP7 AND DUP1 DUP6 MSTORE SWAP3 MSTORE DUP1 DUP4 KECCAK256 DUP1 SLOAD PUSH1 0xFF NOT AND SWAP1 SSTORE MLOAD CALLER SWAP3 DUP7 SWAP2 PUSH32 0xF6391F5C32D9C69D2A47EA670B442974B53935D1EDC7FD64EB21E047A839171B SWAP2 SWAP1 LOG4 POP PUSH1 0x1 PUSH2 0x2ED JUMP JUMPDEST PUSH2 0x640 DUP3 DUP3 PUSH2 0x3E6 JUMP JUMPDEST PUSH2 0x673 JUMPI PUSH1 0x40 MLOAD PUSH4 0xE2517D3F PUSH1 0xE0 SHL DUP2 MSTORE PUSH1 0x1 PUSH1 0x1 PUSH1 0xA0 SHL SUB DUP3 AND PUSH1 0x4 DUP3 ADD MSTORE PUSH1 0x24 DUP2 ADD DUP4 SWAP1 MSTORE PUSH1 0x44 ADD PUSH1 0x40 MLOAD DUP1 SWAP2 SUB SWAP1 REVERT JUMPDEST POP POP JUMP JUMPDEST DUP1 CALLDATALOAD PUSH1 0x1 PUSH1 0x1 PUSH1 0xA0 SHL SUB DUP2 AND DUP2 EQ PUSH2 0x68D JUMPI PUSH0 DUP1 REVERT JUMPDEST SWAP2 SWAP1 POP JUMP JUMPDEST PUSH0 PUSH1 0x20 DUP3 DUP5 SUB SLT ISZERO PUSH2 0x6A2 JUMPI PUSH0 DUP1 REVERT JUMPDEST PUSH2 0x6AB DUP3 PUSH2 0x677 JUMP JUMPDEST SWAP4 SWAP3 POP POP POP JUMP JUMPDEST PUSH0 PUSH1 0x20 DUP3 DUP5 SUB SLT ISZERO PUSH2 0x6C2 JUMPI PUSH0 DUP1 REVERT JUMPDEST DUP2 CALLDATALOAD PUSH1 0x1 PUSH1 0x1 PUSH1 0xE0 SHL SUB NOT DUP2 AND DUP2 EQ PUSH2 0x6AB JUMPI PUSH0 DUP1 REVERT JUMPDEST PUSH0 PUSH1 0x20 DUP3 DUP5 SUB SLT ISZERO PUSH2 0x6E9 JUMPI PUSH0 DUP1 REVERT JUMPDEST POP CALLDATALOAD SWAP2 SWAP1 POP JUMP JUMPDEST PUSH0 DUP1 PUSH1 0x40 DUP4 DUP6 SUB SLT ISZERO PUSH2 0x701 JUMPI PUSH0 DUP1 REVERT JUMPDEST DUP3 CALLDATALOAD SWAP2 POP PUSH2 0x711 PUSH1 0x20 DUP5 ADD PUSH2 0x677 JUMP JUMPDEST SWAP1 POP SWAP3 POP SWAP3 SWAP1 POP JUMP INVALID 0x25 0xCF 0x2B POP SWAP16 0x2A PUSH32 0x322675B2A5322B182F44AD2C03AC941A0AF17C9B178F5D5D5FA49807205CE4D3 SSTORE MULMOD 0x2E CREATE2 0xA8 LOG1 DUP16 JUMP 0xE8 SWAP2 EXTCODECOPY DELEGATECALL LOG2 ADD 0xFB 0xE2 DUP8 DUP3 JUMPDEST MULMOD JUMP SWAP4 0xC2 OR PUSH22 0xA2646970667358221220A977D7798138540D327B5CC1 0xE3 AND 0xC7 COINBASE LOG0 PUSH3 0x2C64FE CALLDATACOPY PUSH11 0xBB8D6D2D3CC235D2F46473 PUSH16 0x6C634300081900330000000000000000 "
		},
		"gasEstimates": {
			"creation": {
				"codeDepositCost": "387200",
				"executionCost": "infinite",
				"totalCost": "infinite"
			},
			"external": {
				"ADMIN_ROLE()": "infinite",
				"BACKEND_ROLE()": "infinite",
				"DEFAULT_ADMIN_ROLE()": "237",
				"addAdminAddress(address)": "infinite",
				"addBackendAddress(address)": "infinite",
				"getRoleAdmin(bytes32)": "2534",
				"grantRole(bytes32,address)": "infinite",
				"hasRole(bytes32,address)": "2693",
				"isBackendAddress(address)": "infinite",
				"isOnlyAdmin(address)": "infinite",
				"onlyAdminOrBackend(address)": "infinite",
				"removeAdminAddress(address)": "infinite",
				"removeBackendAddress(address)": "infinite",
				"renounceRole(bytes32,address)": "29063",
				"revokeRole(bytes32,address)": "infinite",
				"supportsInterface(bytes4)": "469"
			}
		},
		"methodIdentifiers": {
			"ADMIN_ROLE()": "75b238fc",
			"BACKEND_ROLE()": "92c2becc",
			"DEFAULT_ADMIN_ROLE()": "a217fddf",
			"addAdminAddress(address)": "004fba00",
			"addBackendAddress(address)": "a90706f1",
			"getRoleAdmin(bytes32)": "248a9ca3",
			"grantRole(bytes32,address)": "2f2ff15d",
			"hasRole(bytes32,address)": "91d14854",
			"isBackendAddress(address)": "64648f57",
			"isOnlyAdmin(address)": "42282d95",
			"onlyAdminOrBackend(address)": "93d1398e",
			"removeAdminAddress(address)": "95101181",
			"removeBackendAddress(address)": "20e6fcef",
			"renounceRole(bytes32,address)": "36568abe",
			"revokeRole(bytes32,address)": "d547741f",
			"supportsInterface(bytes4)": "01ffc9a7"
		}
	},
	"abi": [
		{
			"inputs": [],
			"stateMutability": "nonpayable",
			"type": "constructor"
		},
		{
			"inputs": [],
			"name": "AccessControlBadConfirmation",
			"type": "error"
		},
		{
			"inputs": [
				{
					"internalType": "address",
					"name": "account",
					"type": "address"
				},
				{
					"internalType": "bytes32",
					"name": "neededRole",
					"type": "bytes32"
				}
			],
			"name": "AccessControlUnauthorizedAccount",
			"type": "error"
		},
		{
			"anonymous": false,
			"inputs": [
				{
					"indexed": true,
					"internalType": "address",
					"name": "account",
					"type": "address"
				}
			],
			"name": "AdminAddressAdded",
			"type": "event"
		},
		{
			"anonymous": false,
			"inputs": [
				{
					"indexed": true,
					"internalType": "address",
					"name": "account",
					"type": "address"
				}
			],
			"name": "AdminAddressRemoved",
			"type": "event"
		},
		{
			"anonymous": false,
			"inputs": [
				{
					"indexed": true,
					"internalType": "address",
					"name": "account",
					"type": "address"
				}
			],
			"name": "BackendAddressAdded",
			"type": "event"
		},
		{
			"anonymous": false,
			"inputs": [
				{
					"indexed": true,
					"internalType": "address",
					"name": "account",
					"type": "address"
				}
			],
			"name": "BackendAddressRemoved",
			"type": "event"
		},
		{
			"anonymous": false,
			"inputs": [
				{
					"indexed": true,
					"internalType": "bytes32",
					"name": "role",
					"type": "bytes32"
				},
				{
					"indexed": true,
					"internalType": "bytes32",
					"name": "previousAdminRole",
					"type": "bytes32"
				},
				{
					"indexed": true,
					"internalType": "bytes32",
					"name": "newAdminRole",
					"type": "bytes32"
				}
			],
			"name": "RoleAdminChanged",
			"type": "event"
		},
		{
			"anonymous": false,
			"inputs": [
				{
					"indexed": true,
					"internalType": "bytes32",
					"name": "role",
					"type": "bytes32"
				},
				{
					"indexed": true,
					"internalType": "address",
					"name": "account",
					"type": "address"
				},
				{
					"indexed": true,
					"internalType": "address",
					"name": "sender",
					"type": "address"
				}
			],
			"name": "RoleGranted",
			"type": "event"
		},
		{
			"anonymous": false,
			"inputs": [
				{
					"indexed": true,
					"internalType": "bytes32",
					"name": "role",
					"type": "bytes32"
				},
				{
					"indexed": true,
					"internalType": "address",
					"name": "account",
					"type": "address"
				},
				{
					"indexed": true,
					"internalType": "address",
					"name": "sender",
					"type": "address"
				}
			],
			"name": "RoleRevoked",
			"type": "event"
		},
		{
			"inputs": [],
			"name": "ADMIN_ROLE",
			"outputs": [
				{
					"internalType": "bytes32",
					"name": "",
					"type": "bytes32"
				}
			],
			"stateMutability": "view",
			"type": "function"
		},
		{
			"inputs": [],
			"name": "BACKEND_ROLE",
			"outputs": [
				{
					"internalType": "bytes32",
					"name": "",
					"type": "bytes32"
				}
			],
			"stateMutability": "view",
			"type": "function"
		},
		{
			"inputs": [],
			"name": "DEFAULT_ADMIN_ROLE",
			"outputs": [
				{
					"internalType": "bytes32",
					"name": "",
					"type": "bytes32"
				}
			],
			"stateMutability": "view",
			"type": "function"
		},
		{
			"inputs": [
				{
					"internalType": "address",
					"name": "account",
					"type": "address"
				}
			],
			"name": "addAdminAddress",
			"outputs": [],
			"stateMutability": "nonpayable",
			"type": "function"
		},
		{
			"inputs": [
				{
					"internalType": "address",
					"name": "account",
					"type": "address"
				}
			],
			"name": "addBackendAddress",
			"outputs": [],
			"stateMutability": "nonpayable",
			"type": "function"
		},
		{
			"inputs": [
				{
					"internalType": "bytes32",
					"name": "role",
					"type": "bytes32"
				}
			],
			"name": "getRoleAdmin",
			"outputs": [
				{
					"internalType": "bytes32",
					"name": "",
					"type": "bytes32"
				}
			],
			"stateMutability": "view",
			"type": "function"
		},
		{
			"inputs": [
				{
					"internalType": "bytes32",
					"name": "role",
					"type": "bytes32"
				},
				{
					"internalType": "address",
					"name": "account",
					"type": "address"
				}
			],
			"name": "grantRole",
			"outputs": [],
			"stateMutability": "nonpayable",
			"type": "function"
		},
		{
			"inputs": [
				{
					"internalType": "bytes32",
					"name": "role",
					"type": "bytes32"
				},
				{
					"internalType": "address",
					"name": "account",
					"type": "address"
				}
			],
			"name": "hasRole",
			"outputs": [
				{
					"internalType": "bool",
					"name": "",
					"type": "bool"
				}
			],
			"stateMutability": "view",
			"type": "function"
		},
		{
			"inputs": [
				{
					"internalType": "address",
					"name": "account",
					"type": "address"
				}
			],
			"name": "isBackendAddress",
			"outputs": [
				{
					"internalType": "bool",
					"name": "",
					"type": "bool"
				}
			],
			"stateMutability": "view",
			"type": "function"
		},
		{
			"inputs": [
				{
					"internalType": "address",
					"name": "account",
					"type": "address"
				}
			],
			"name": "isOnlyAdmin",
			"outputs": [
				{
					"internalType": "bool",
					"name": "",
					"type": "bool"
				}
			],
			"stateMutability": "view",
			"type": "function"
		},
		{
			"inputs": [
				{
					"internalType": "address",
					"name": "account",
					"type": "address"
				}
			],
			"name": "onlyAdminOrBackend",
			"outputs": [
				{
					"internalType": "bool",
					"name": "",
					"type": "bool"
				}
			],
			"stateMutability": "view",
			"type": "function"
		},
		{
			"inputs": [
				{
					"internalType": "address",
					"name": "account",
					"type": "address"
				}
			],
			"name": "removeAdminAddress",
			"outputs": [],
			"stateMutability": "nonpayable",
			"type": "function"
		},
		{
			"inputs": [
				{
					"internalType": "address",
					"name": "account",
					"type": "address"
				}
			],
			"name": "removeBackendAddress",
			"outputs": [],
			"stateMutability": "nonpayable",
			"type": "function"
		},
		{
			"inputs": [
				{
					"internalType": "bytes32",
					"name": "role",
					"type": "bytes32"
				},
				{
					"internalType": "address",
					"name": "callerConfirmation",
					"type": "address"
				}
			],
			"name": "renounceRole",
			"outputs": [],
			"stateMutability": "nonpayable",
			"type": "function"
		},
		{
			"inputs": [
				{
					"internalType": "bytes32",
					"name": "role",
					"type": "bytes32"
				},
				{
					"internalType": "address",
					"name": "account",
					"type": "address"
				}
			],
			"name": "revokeRole",
			"outputs": [],
			"stateMutability": "nonpayable",
			"type": "function"
		},
		{
			"inputs": [
				{
					"internalType": "bytes4",
					"name": "interfaceId",
					"type": "bytes4"
				}
			],
			"name": "supportsInterface",
			"outputs": [
				{
					"internalType": "bool",
					"name": "",
					"type": "bool"
				}
			],
			"stateMutability": "view",
			"type": "function"
		}
	]
}