{
	"contracts/npc_credits/NPC_AccountManager.sol": {
		"NPC_AccountManager": {
			"abi": [
				{
					"inputs": [
						{
							"internalType": "address",
							"name": "roleManagerAddress",
							"type": "address"
						}
					],
					"stateMutability": "nonpayable",
					"type": "constructor"
				},
				{
					"anonymous": false,
					"inputs": [
						{
							"indexed": true,
							"internalType": "string",
							"name": "accountID",
							"type": "string"
						},
						{
							"indexed": false,
							"internalType": "bool",
							"name": "isBlacklisted",
							"type": "bool"
						}
					],
					"name": "AccountBlacklisted",
					"type": "event"
				},
				{
					"anonymous": false,
					"inputs": [
						{
							"indexed": true,
							"internalType": "string",
							"name": "accountID",
							"type": "string"
						},
						{
							"indexed": false,
							"internalType": "string",
							"name": "role",
							"type": "string"
						},
						{
							"indexed": false,
							"internalType": "address",
							"name": "txAddress",
							"type": "address"
						}
					],
					"name": "AccountRegistered",
					"type": "event"
				},
				{
					"inputs": [],
					"name": "ADMIN_ROLE",
					"outputs": [
						{
							"internalType": "bytes32",
							"name": "",
							"type": "bytes32"
						}
					],
					"stateMutability": "view",
					"type": "function"
				},
				{
					"inputs": [],
					"name": "BACKEND_ROLE",
					"outputs": [
						{
							"internalType": "bytes32",
							"name": "",
							"type": "bytes32"
						}
					],
					"stateMutability": "view",
					"type": "function"
				},
				{
					"inputs": [],
					"name": "INVESTOR_ROLE",
					"outputs": [
						{
							"internalType": "bytes32",
							"name": "",
							"type": "bytes32"
						}
					],
					"stateMutability": "view",
					"type": "function"
				},
				{
					"inputs": [],
					"name": "PRODUCER_ROLE",
					"outputs": [
						{
							"internalType": "bytes32",
							"name": "",
							"type": "bytes32"
						}
					],
					"stateMutability": "view",
					"type": "function"
				},
				{
					"inputs": [],
					"name": "VERIFIER_ROLE",
					"outputs": [
						{
							"internalType": "bytes32",
							"name": "",
							"type": "bytes32"
						}
					],
					"stateMutability": "view",
					"type": "function"
				},
				{
					"inputs": [
						{
							"internalType": "string",
							"name": "accountID",
							"type": "string"
						},
						{
							"internalType": "bool",
							"name": "status",
							"type": "bool"
						}
					],
					"name": "blacklistAccount",
					"outputs": [],
					"stateMutability": "nonpayable",
					"type": "function"
				},
				{
					"inputs": [
						{
							"internalType": "string",
							"name": "accountID",
							"type": "string"
						}
					],
					"name": "getAccountData",
					"outputs": [
						{
							"components": [
								{
									"internalType": "string",
									"name": "role",
									"type": "string"
								},
								{
									"internalType": "address",
									"name": "txAddress",
									"type": "address"
								},
								{
									"internalType": "bool",
									"name": "isBlacklisted",
									"type": "bool"
								},
								{
									"internalType": "uint256",
									"name": "lastActive",
									"type": "uint256"
								},
								{
									"internalType": "bool",
									"name": "registered",
									"type": "bool"
								}
							],
							"internalType": "struct NPC_AccountManager.AccountData",
							"name": "",
							"type": "tuple"
						}
					],
					"stateMutability": "view",
					"type": "function"
				},
				{
					"inputs": [
						{
							"internalType": "string",
							"name": "accountID",
							"type": "string"
						}
					],
					"name": "isNotBlacklisted",
					"outputs": [
						{
							"internalType": "bool",
							"name": "",
							"type": "bool"
						}
					],
					"stateMutability": "view",
					"type": "function"
				},
				{
					"inputs": [
						{
							"internalType": "string",
							"name": "accountID",
							"type": "string"
						}
					],
					"name": "isRegistered",
					"outputs": [
						{
							"internalType": "bool",
							"name": "",
							"type": "bool"
						}
					],
					"stateMutability": "view",
					"type": "function"
				},
				{
					"inputs": [
						{
							"internalType": "string",
							"name": "accountID",
							"type": "string"
						},
						{
							"internalType": "string",
							"name": "role",
							"type": "string"
						},
						{
							"internalType": "address",
							"name": "txAddress",
							"type": "address"
						}
					],
					"name": "registerAccount",
					"outputs": [],
					"stateMutability": "nonpayable",
					"type": "function"
				},
				{
					"inputs": [
						{
							"internalType": "string",
							"name": "accountID",
							"type": "string"
						}
					],
					"name": "updateLastActive",
					"outputs": [],
					"stateMutability": "nonpayable",
					"type": "function"
				},
				{
					"inputs": [
						{
							"internalType": "string",
							"name": "accountID",
							"type": "string"
						},
						{
							"internalType": "bytes32",
							"name": "role",
							"type": "bytes32"
						}
					],
					"name": "verifyRole",
					"outputs": [
						{
							"internalType": "bool",
							"name": "",
							"type": "bool"
						}
					],
					"stateMutability": "view",
					"type": "function"
				}
			],
			"devdoc": {
				"details": "This contract manages account IDs and account data.",
				"kind": "dev",
				"methods": {
					"blacklistAccount(string,bool)": {
						"details": "Blacklist or unblacklist an account.",
						"params": {
							"accountID": "The ID of the account to blacklist/unblacklist.",
							"status": "The blacklist status (true to blacklist, false to unblacklist)."
						}
					},
					"constructor": {
						"details": "Constructor to initialize roles.",
						"params": {
							"roleManagerAddress": "The address of the NPC_RoleManager contract."
						}
					},
					"getAccountData(string)": {
						"details": "Get account data by account ID.",
						"params": {
							"accountID": "The ID of the account."
						},
						"returns": {
							"_0": "The account data."
						}
					},
					"registerAccount(string,string,address)": {
						"details": "Register a new account with a specific role.",
						"params": {
							"accountID": "The ID of the account to register.",
							"role": "The role of the account.",
							"txAddress": "The address of the account."
						}
					}
				},
				"title": "NPC_AccountManager",
				"version": 1
			},
			"evm": {
				"assembly": "    /* \"contracts/npc_credits/NPC_AccountManager.sol\":188:5263  contract NPC_AccountManager {... */\n  mstore(0x40, 0x80)\n    /* \"contracts/npc_credits/NPC_AccountManager.sol\":1251:1357  constructor(address roleManagerAddress) {... */\n  callvalue\n  dup1\n  iszero\n  tag_1\n  jumpi\n  0x00\n  dup1\n  revert\ntag_1:\n  pop\n  mload(0x40)\n  sub(codesize, bytecodeSize)\n  dup1\n  bytecodeSize\n  dup4\n  codecopy\n  dup2\n  add\n  0x40\n  dup2\n  swap1\n  mstore\n  tag_2\n  swap2\n  tag_3\n  jump\t// in\ntag_2:\n    /* \"contracts/npc_credits/NPC_AccountManager.sol\":1301:1312  roleManager */\n  0x00\n    /* \"contracts/npc_credits/NPC_AccountManager.sol\":1301:1350  roleManager = NPC_RoleManager(roleManagerAddress) */\n  dup1\n  sload\n  not(sub(shl(0xa0, 0x01), 0x01))\n  and\n  sub(shl(0xa0, 0x01), 0x01)\n  swap3\n  swap1\n  swap3\n  and\n  swap2\n  swap1\n  swap2\n  or\n  swap1\n  sstore\n    /* \"contracts/npc_credits/NPC_AccountManager.sol\":188:5263  contract NPC_AccountManager {... */\n  jump(tag_7)\n    /* \"#utility.yul\":14:304   */\ntag_3:\n    /* \"#utility.yul\":84:90   */\n  0x00\n    /* \"#utility.yul\":137:139   */\n  0x20\n    /* \"#utility.yul\":125:134   */\n  dup3\n    /* \"#utility.yul\":116:123   */\n  dup5\n    /* \"#utility.yul\":112:135   */\n  sub\n    /* \"#utility.yul\":108:140   */\n  slt\n    /* \"#utility.yul\":105:157   */\n  iszero\n  tag_9\n  jumpi\n    /* \"#utility.yul\":153:154   */\n  0x00\n    /* \"#utility.yul\":150:151   */\n  dup1\n    /* \"#utility.yul\":143:155   */\n  revert\n    /* \"#utility.yul\":105:157   */\ntag_9:\n    /* \"#utility.yul\":179:195   */\n  dup2\n  mload\n  sub(shl(0xa0, 0x01), 0x01)\n    /* \"#utility.yul\":224:255   */\n  dup2\n  and\n    /* \"#utility.yul\":214:256   */\n  dup2\n  eq\n    /* \"#utility.yul\":204:274   */\n  tag_10\n  jumpi\n    /* \"#utility.yul\":270:271   */\n  0x00\n    /* \"#utility.yul\":267:268   */\n  dup1\n    /* \"#utility.yul\":260:272   */\n  revert\n    /* \"#utility.yul\":204:274   */\ntag_10:\n    /* \"#utility.yul\":293:298   */\n  swap4\n    /* \"#utility.yul\":14:304   */\n  swap3\n  pop\n  pop\n  pop\n  jump\t// out\ntag_7:\n    /* \"contracts/npc_credits/NPC_AccountManager.sol\":188:5263  contract NPC_AccountManager {... */\n  dataSize(sub_0)\n  dup1\n  dataOffset(sub_0)\n  0x00\n  codecopy\n  0x00\n  return\nstop\n\nsub_0: assembly {\n        /* \"contracts/npc_credits/NPC_AccountManager.sol\":188:5263  contract NPC_AccountManager {... */\n      mstore(0x40, 0x80)\n      callvalue\n      dup1\n      iszero\n      tag_1\n      jumpi\n      0x00\n      dup1\n      revert\n    tag_1:\n      pop\n      jumpi(tag_2, lt(calldatasize, 0x04))\n      shr(0xe0, calldataload(0x00))\n      dup1\n      0xc822d7f0\n      gt\n      tag_15\n      jumpi\n      dup1\n      0xc822d7f0\n      eq\n      tag_9\n      jumpi\n      dup1\n      0xcb3e1fe7\n      eq\n      tag_10\n      jumpi\n      dup1\n      0xcd367584\n      eq\n      tag_11\n      jumpi\n      dup1\n      0xe7705db6\n      eq\n      tag_12\n      jumpi\n      dup1\n      0xea46f8e3\n      eq\n      tag_13\n      jumpi\n      dup1\n      0xf3f9f267\n      eq\n      tag_14\n      jumpi\n      0x00\n      dup1\n      revert\n    tag_15:\n      dup1\n      0x20884f70\n      eq\n      tag_3\n      jumpi\n      dup1\n      0x518ab27b\n      eq\n      tag_4\n      jumpi\n      dup1\n      0x75b238fc\n      eq\n      tag_5\n      jumpi\n      dup1\n      0x76082a5e\n      eq\n      tag_6\n      jumpi\n      dup1\n      0x92c2becc\n      eq\n      tag_7\n      jumpi\n      dup1\n      0xa8b07735\n      eq\n      tag_8\n      jumpi\n    tag_2:\n      0x00\n      dup1\n      revert\n        /* \"contracts/npc_credits/NPC_AccountManager.sol\":3836:3964  function updateLastActive(string calldata accountID) public {... */\n    tag_3:\n      tag_16\n      tag_17\n      calldatasize\n      0x04\n      tag_18\n      jump\t// in\n    tag_17:\n      tag_19\n      jump\t// in\n    tag_16:\n      stop\n        /* \"contracts/npc_credits/NPC_AccountManager.sol\":2300:2435  function isNotBlacklisted(string memory accountID) onlyNotBlacklisted(accountID) public view returns(bool) {... */\n    tag_4:\n      tag_20\n      tag_21\n      calldatasize\n      0x04\n      tag_22\n      jump\t// in\n    tag_21:\n      tag_23\n      jump\t// in\n    tag_20:\n      mload(0x40)\n        /* \"#utility.yul\":2131:2145   */\n      swap1\n      iszero\n        /* \"#utility.yul\":2124:2146   */\n      iszero\n        /* \"#utility.yul\":2106:2147   */\n      dup2\n      mstore\n        /* \"#utility.yul\":2094:2096   */\n      0x20\n        /* \"#utility.yul\":2079:2097   */\n      add\n        /* \"contracts/npc_credits/NPC_AccountManager.sol\":2300:2435  function isNotBlacklisted(string memory accountID) onlyNotBlacklisted(accountID) public view returns(bool) {... */\n    tag_24:\n      mload(0x40)\n      dup1\n      swap2\n      sub\n      swap1\n      return\n        /* \"contracts/npc_credits/NPC_AccountManager.sol\":222:282  bytes32 public constant ADMIN_ROLE = keccak256(\"ADMIN_ROLE\") */\n    tag_5:\n      tag_26\n        /* \"contracts/npc_credits/NPC_AccountManager.sol\":259:282  keccak256(\"ADMIN_ROLE\") */\n      0xa49807205ce4d355092ef5a8a18f56e8913cf4a201fbe287825b095693c21775\n        /* \"contracts/npc_credits/NPC_AccountManager.sol\":222:282  bytes32 public constant ADMIN_ROLE = keccak256(\"ADMIN_ROLE\") */\n      dup2\n      jump\n    tag_26:\n      mload(0x40)\n        /* \"#utility.yul\":2304:2329   */\n      swap1\n      dup2\n      mstore\n        /* \"#utility.yul\":2292:2294   */\n      0x20\n        /* \"#utility.yul\":2277:2295   */\n      add\n        /* \"contracts/npc_credits/NPC_AccountManager.sol\":222:282  bytes32 public constant ADMIN_ROLE = keccak256(\"ADMIN_ROLE\") */\n      tag_24\n        /* \"#utility.yul\":2158:2335   */\n      jump\n        /* \"contracts/npc_credits/NPC_AccountManager.sol\":503:569  bytes32 public constant INVESTOR_ROLE = keccak256(\"INVESTOR_ROLE\") */\n    tag_6:\n      tag_26\n        /* \"contracts/npc_credits/NPC_AccountManager.sol\":543:569  keccak256(\"INVESTOR_ROLE\") */\n      0xb165298935924f540e4181c03493a5d686c54a0aaeb3f6216de85b7ffbba7738\n        /* \"contracts/npc_credits/NPC_AccountManager.sol\":503:569  bytes32 public constant INVESTOR_ROLE = keccak256(\"INVESTOR_ROLE\") */\n      dup2\n      jump\n        /* \"contracts/npc_credits/NPC_AccountManager.sol\":288:352  bytes32 public constant BACKEND_ROLE = keccak256(\"BACKEND_ROLE\") */\n    tag_7:\n      tag_26\n        /* \"contracts/npc_credits/NPC_AccountManager.sol\":327:352  keccak256(\"BACKEND_ROLE\") */\n      0x25cf2b509f2a7f322675b2a5322b182f44ad2c03ac941a0af17c9b178f5d5d5f\n        /* \"contracts/npc_credits/NPC_AccountManager.sol\":288:352  bytes32 public constant BACKEND_ROLE = keccak256(\"BACKEND_ROLE\") */\n      dup2\n      jump\n        /* \"contracts/npc_credits/NPC_AccountManager.sol\":1943:2160  function verifyRole(string memory accountID, bytes32 role) public view returns(bool) {... */\n    tag_8:\n      tag_20\n      tag_37\n      calldatasize\n      0x04\n      tag_38\n      jump\t// in\n    tag_37:\n      tag_39\n      jump\t// in\n        /* \"contracts/npc_credits/NPC_AccountManager.sol\":2167:2294  function isRegistered(string memory accountID) onlyRegistered(accountID) public view returns(bool) {... */\n    tag_9:\n      tag_20\n      tag_42\n      calldatasize\n      0x04\n      tag_22\n      jump\t// in\n    tag_42:\n      tag_43\n      jump\t// in\n        /* \"contracts/npc_credits/NPC_AccountManager.sol\":359:425  bytes32 public constant PRODUCER_ROLE = keccak256(\"PRODUCER_ROLE\") */\n    tag_10:\n      tag_26\n        /* \"contracts/npc_credits/NPC_AccountManager.sol\":399:425  keccak256(\"PRODUCER_ROLE\") */\n      0x8eb467f061ca67f42a2d2ca4a346fc9fb645efc0ba75056ee9f71c3a0ccc10a8\n        /* \"contracts/npc_credits/NPC_AccountManager.sol\":359:425  bytes32 public constant PRODUCER_ROLE = keccak256(\"PRODUCER_ROLE\") */\n      dup2\n      jump\n        /* \"contracts/npc_credits/NPC_AccountManager.sol\":3568:3830  function blacklistAccount(string calldata accountID, bool status)... */\n    tag_11:\n      tag_16\n      tag_49\n      calldatasize\n      0x04\n      tag_50\n      jump\t// in\n    tag_49:\n      tag_51\n      jump\t// in\n        /* \"contracts/npc_credits/NPC_AccountManager.sol\":431:497  bytes32 public constant VERIFIER_ROLE = keccak256(\"VERIFIER_ROLE\") */\n    tag_12:\n      tag_26\n        /* \"contracts/npc_credits/NPC_AccountManager.sol\":471:497  keccak256(\"VERIFIER_ROLE\") */\n      0x0ce23c3e399818cfee81a7ab0880f714e53d7672b08df0fa62f2843416e1ea09\n        /* \"contracts/npc_credits/NPC_AccountManager.sol\":431:497  bytes32 public constant VERIFIER_ROLE = keccak256(\"VERIFIER_ROLE\") */\n      dup2\n      jump\n        /* \"contracts/npc_credits/NPC_AccountManager.sol\":2669:3340  function registerAccount(... */\n    tag_13:\n      tag_16\n      tag_56\n      calldatasize\n      0x04\n      tag_57\n      jump\t// in\n    tag_56:\n      tag_58\n      jump\t// in\n        /* \"contracts/npc_credits/NPC_AccountManager.sol\":4110:4278  function getAccountData(string calldata accountID)... */\n    tag_14:\n      tag_59\n      tag_60\n      calldatasize\n      0x04\n      tag_18\n      jump\t// in\n    tag_60:\n      tag_61\n      jump\t// in\n    tag_59:\n      mload(0x40)\n      tag_24\n      swap2\n      swap1\n      tag_63\n      jump\t// in\n        /* \"contracts/npc_credits/NPC_AccountManager.sol\":3836:3964  function updateLastActive(string calldata accountID) public {... */\n    tag_19:\n        /* \"contracts/npc_credits/NPC_AccountManager.sol\":3942:3957  block.timestamp */\n      timestamp\n        /* \"contracts/npc_credits/NPC_AccountManager.sol\":3906:3917  accountData */\n      0x01\n        /* \"contracts/npc_credits/NPC_AccountManager.sol\":3918:3927  accountID */\n      dup4\n      dup4\n        /* \"contracts/npc_credits/NPC_AccountManager.sol\":3906:3928  accountData[accountID] */\n      mload(0x40)\n      tag_65\n      swap3\n      swap2\n      swap1\n      tag_66\n      jump\t// in\n    tag_65:\n      swap1\n      dup2\n      mstore\n      mload(0x40)\n      swap1\n      dup2\n      swap1\n      sub\n      0x20\n      add\n      swap1\n      keccak256\n        /* \"contracts/npc_credits/NPC_AccountManager.sol\":3906:3939  accountData[accountID].lastActive */\n      0x02\n      add\n        /* \"contracts/npc_credits/NPC_AccountManager.sol\":3906:3957  accountData[accountID].lastActive = block.timestamp */\n      sstore\n      pop\n      pop\n        /* \"contracts/npc_credits/NPC_AccountManager.sol\":3836:3964  function updateLastActive(string calldata accountID) public {... */\n      jump\t// out\n        /* \"contracts/npc_credits/NPC_AccountManager.sol\":2300:2435  function isNotBlacklisted(string memory accountID) onlyNotBlacklisted(accountID) public view returns(bool) {... */\n    tag_23:\n        /* \"contracts/npc_credits/NPC_AccountManager.sol\":2401:2405  bool */\n      0x00\n        /* \"contracts/npc_credits/NPC_AccountManager.sol\":2370:2379  accountID */\n      dup2\n        /* \"contracts/npc_credits/NPC_AccountManager.sol\":1780:1791  accountData */\n      0x01\n        /* \"contracts/npc_credits/NPC_AccountManager.sol\":1792:1801  accountID */\n      dup2\n        /* \"contracts/npc_credits/NPC_AccountManager.sol\":1780:1802  accountData[accountID] */\n      mload(0x40)\n      tag_68\n      swap2\n      swap1\n      tag_69\n      jump\t// in\n    tag_68:\n      swap1\n      dup2\n      mstore\n      mload(0x40)\n      swap1\n      dup2\n      swap1\n      sub\n      0x20\n      add\n      swap1\n      keccak256\n        /* \"contracts/npc_credits/NPC_AccountManager.sol\":1780:1813  accountData[accountID].registered */\n      0x03\n      add\n      sload\n      0xff\n      and\n        /* \"contracts/npc_credits/NPC_AccountManager.sol\":1772:1840  require(accountData[accountID].registered, \"Account not registered\") */\n      tag_70\n      jumpi\n      mload(0x40)\n      shl(0xe5, 0x461bcd)\n      dup2\n      mstore\n      0x04\n      add\n      tag_71\n      swap1\n      tag_72\n      jump\t// in\n    tag_71:\n      mload(0x40)\n      dup1\n      swap2\n      sub\n      swap1\n      revert\n    tag_70:\n        /* \"contracts/npc_credits/NPC_AccountManager.sol\":1859:1870  accountData */\n      0x01\n        /* \"contracts/npc_credits/NPC_AccountManager.sol\":1871:1880  accountID */\n      dup2\n        /* \"contracts/npc_credits/NPC_AccountManager.sol\":1859:1881  accountData[accountID] */\n      mload(0x40)\n      tag_73\n      swap2\n      swap1\n      tag_69\n      jump\t// in\n    tag_73:\n      swap1\n      dup2\n      mstore\n      mload(0x40)\n      swap1\n      dup2\n      swap1\n      sub\n      0x20\n      add\n      swap1\n      keccak256\n        /* \"contracts/npc_credits/NPC_AccountManager.sol\":1859:1895  accountData[accountID].isBlacklisted */\n      0x01\n      add\n      sload\n      0xff\n      shl(0xa0, 0x01)\n      swap1\n      swap2\n      div\n      and\n        /* \"contracts/npc_credits/NPC_AccountManager.sol\":1858:1895  !accountData[accountID].isBlacklisted */\n      iszero\n        /* \"contracts/npc_credits/NPC_AccountManager.sol\":1850:1919  require(!accountData[accountID].isBlacklisted, \"Account blacklisted\") */\n      tag_74\n      jumpi\n      mload(0x40)\n      shl(0xe5, 0x461bcd)\n      dup2\n      mstore\n        /* \"#utility.yul\":6414:6416   */\n      0x20\n        /* \"contracts/npc_credits/NPC_AccountManager.sol\":1850:1919  require(!accountData[accountID].isBlacklisted, \"Account blacklisted\") */\n      0x04\n      dup3\n      add\n        /* \"#utility.yul\":6396:6417   */\n      mstore\n        /* \"#utility.yul\":6453:6455   */\n      0x13\n        /* \"#utility.yul\":6433:6451   */\n      0x24\n      dup3\n      add\n        /* \"#utility.yul\":6426:6456   */\n      mstore\n      shl(0x6a, 0x1058d8dbdd5b9d08189b1858dadb1a5cdd1959)\n        /* \"#utility.yul\":6472:6490   */\n      0x44\n      dup3\n      add\n        /* \"#utility.yul\":6465:6514   */\n      mstore\n        /* \"#utility.yul\":6531:6549   */\n      0x64\n      add\n        /* \"contracts/npc_credits/NPC_AccountManager.sol\":1850:1919  require(!accountData[accountID].isBlacklisted, \"Account blacklisted\") */\n      tag_71\n        /* \"#utility.yul\":6212:6555   */\n      jump\n        /* \"contracts/npc_credits/NPC_AccountManager.sol\":1850:1919  require(!accountData[accountID].isBlacklisted, \"Account blacklisted\") */\n    tag_74:\n        /* \"contracts/npc_credits/NPC_AccountManager.sol\":2424:2428  true */\n      0x01\n        /* \"contracts/npc_credits/NPC_AccountManager.sol\":2417:2428  return true */\n      swap2\n      pop\n        /* \"contracts/npc_credits/NPC_AccountManager.sol\":1929:1930  _ */\n    tag_77:\n        /* \"contracts/npc_credits/NPC_AccountManager.sol\":2300:2435  function isNotBlacklisted(string memory accountID) onlyNotBlacklisted(accountID) public view returns(bool) {... */\n      pop\n      swap2\n      swap1\n      pop\n      jump\t// out\n        /* \"contracts/npc_credits/NPC_AccountManager.sol\":1943:2160  function verifyRole(string memory accountID, bytes32 role) public view returns(bool) {... */\n    tag_39:\n        /* \"contracts/npc_credits/NPC_AccountManager.sol\":2022:2026  bool */\n      0x00\n        /* \"contracts/npc_credits/NPC_AccountManager.sol\":2132:2151  _roleToString(role) */\n      tag_79\n        /* \"contracts/npc_credits/NPC_AccountManager.sol\":2146:2150  role */\n      dup3\n        /* \"contracts/npc_credits/NPC_AccountManager.sol\":2132:2145  _roleToString */\n      tag_80\n        /* \"contracts/npc_credits/NPC_AccountManager.sol\":2132:2151  _roleToString(role) */\n      jump\t// in\n    tag_79:\n        /* \"contracts/npc_credits/NPC_AccountManager.sol\":2115:2152  abi.encodePacked(_roleToString(role)) */\n      add(0x20, mload(0x40))\n      tag_81\n      swap2\n      swap1\n      tag_69\n      jump\t// in\n    tag_81:\n      mload(0x40)\n      0x20\n      dup2\n      dup4\n      sub\n      sub\n      dup2\n      mstore\n      swap1\n      0x40\n      mstore\n        /* \"contracts/npc_credits/NPC_AccountManager.sol\":2105:2153  keccak256(abi.encodePacked(_roleToString(role))) */\n      dup1\n      mload\n      swap1\n      0x20\n      add\n      keccak256\n        /* \"contracts/npc_credits/NPC_AccountManager.sol\":2072:2083  accountData */\n      0x01\n        /* \"contracts/npc_credits/NPC_AccountManager.sol\":2084:2093  accountID */\n      dup5\n        /* \"contracts/npc_credits/NPC_AccountManager.sol\":2072:2094  accountData[accountID] */\n      mload(0x40)\n      tag_82\n      swap2\n      swap1\n      tag_69\n      jump\t// in\n    tag_82:\n      swap1\n      dup2\n      mstore\n      mload(0x40)\n      0x20\n      swap2\n      dup2\n      swap1\n      sub\n      dup3\n      add\n      dup2\n      keccak256\n        /* \"contracts/npc_credits/NPC_AccountManager.sol\":2055:2100  abi.encodePacked(accountData[accountID].role) */\n      tag_83\n      swap3\n        /* \"contracts/npc_credits/NPC_AccountManager.sol\":2072:2094  accountData[accountID] */\n      swap1\n      swap2\n        /* \"contracts/npc_credits/NPC_AccountManager.sol\":2055:2100  abi.encodePacked(accountData[accountID].role) */\n      add\n      tag_84\n      jump\t// in\n    tag_83:\n      mload(0x40)\n      0x20\n      dup2\n      dup4\n      sub\n      sub\n      dup2\n      mstore\n      swap1\n      0x40\n      mstore\n        /* \"contracts/npc_credits/NPC_AccountManager.sol\":2045:2101  keccak256(abi.encodePacked(accountData[accountID].role)) */\n      dup1\n      mload\n      swap1\n      0x20\n      add\n      keccak256\n        /* \"contracts/npc_credits/NPC_AccountManager.sol\":2045:2153  keccak256(abi.encodePacked(accountData[accountID].role)) == keccak256(abi.encodePacked(_roleToString(role))) */\n      eq\n        /* \"contracts/npc_credits/NPC_AccountManager.sol\":2038:2153  return keccak256(abi.encodePacked(accountData[accountID].role)) == keccak256(abi.encodePacked(_roleToString(role))) */\n      swap1\n      pop\n        /* \"contracts/npc_credits/NPC_AccountManager.sol\":1943:2160  function verifyRole(string memory accountID, bytes32 role) public view returns(bool) {... */\n    tag_78:\n      swap3\n      swap2\n      pop\n      pop\n      jump\t// out\n        /* \"contracts/npc_credits/NPC_AccountManager.sol\":2167:2294  function isRegistered(string memory accountID) onlyRegistered(accountID) public view returns(bool) {... */\n    tag_43:\n        /* \"contracts/npc_credits/NPC_AccountManager.sol\":2260:2264  bool */\n      0x00\n        /* \"contracts/npc_credits/NPC_AccountManager.sol\":2229:2238  accountID */\n      dup2\n        /* \"contracts/npc_credits/NPC_AccountManager.sol\":1625:1636  accountData */\n      0x01\n        /* \"contracts/npc_credits/NPC_AccountManager.sol\":1637:1646  accountID */\n      dup2\n        /* \"contracts/npc_credits/NPC_AccountManager.sol\":1625:1647  accountData[accountID] */\n      mload(0x40)\n      tag_86\n      swap2\n      swap1\n      tag_69\n      jump\t// in\n    tag_86:\n      swap1\n      dup2\n      mstore\n      mload(0x40)\n      swap1\n      dup2\n      swap1\n      sub\n      0x20\n      add\n      swap1\n      keccak256\n        /* \"contracts/npc_credits/NPC_AccountManager.sol\":1625:1658  accountData[accountID].registered */\n      0x03\n      add\n      sload\n      0xff\n      and\n        /* \"contracts/npc_credits/NPC_AccountManager.sol\":1617:1685  require(accountData[accountID].registered, \"Account not registered\") */\n      tag_74\n      jumpi\n      mload(0x40)\n      shl(0xe5, 0x461bcd)\n      dup2\n      mstore\n      0x04\n      add\n      tag_71\n      swap1\n      tag_72\n      jump\t// in\n        /* \"contracts/npc_credits/NPC_AccountManager.sol\":3568:3830  function blacklistAccount(string calldata accountID, bool status)... */\n    tag_51:\n        /* \"contracts/npc_credits/NPC_AccountManager.sol\":1424:1435  roleManager */\n      sload(0x00)\n        /* \"contracts/npc_credits/NPC_AccountManager.sol\":1424:1466  roleManager.onlyAdminOrBackend(msg.sender) */\n      mload(0x40)\n      shl(0xe1, 0x49e89cc7)\n      dup2\n      mstore\n        /* \"contracts/npc_credits/NPC_AccountManager.sol\":1455:1465  msg.sender */\n      caller\n        /* \"contracts/npc_credits/NPC_AccountManager.sol\":1424:1466  roleManager.onlyAdminOrBackend(msg.sender) */\n      0x04\n      dup3\n      add\n        /* \"#utility.yul\":8065:8116   */\n      mstore\n      sub(shl(0xa0, 0x01), 0x01)\n        /* \"contracts/npc_credits/NPC_AccountManager.sol\":1424:1435  roleManager */\n      swap1\n      swap2\n      and\n      swap1\n        /* \"contracts/npc_credits/NPC_AccountManager.sol\":1424:1454  roleManager.onlyAdminOrBackend */\n      0x93d1398e\n      swap1\n        /* \"#utility.yul\":8038:8056   */\n      0x24\n      add\n        /* \"contracts/npc_credits/NPC_AccountManager.sol\":1424:1466  roleManager.onlyAdminOrBackend(msg.sender) */\n      0x20\n      mload(0x40)\n      dup1\n      dup4\n      sub\n      dup2\n      dup7\n      gas\n      staticcall\n      iszero\n      dup1\n      iszero\n      tag_94\n      jumpi\n      returndatasize\n      0x00\n      dup1\n      returndatacopy\n      revert(0x00, returndatasize)\n    tag_94:\n      pop\n      pop\n      pop\n      pop\n      mload(0x40)\n      returndatasize\n      not(0x1f)\n      0x1f\n      dup3\n      add\n      and\n      dup3\n      add\n      dup1\n      0x40\n      mstore\n      pop\n      dup2\n      add\n      swap1\n      tag_95\n      swap2\n      swap1\n      tag_96\n      jump\t// in\n    tag_95:\n        /* \"contracts/npc_credits/NPC_AccountManager.sol\":1403:1534  require(... */\n      tag_97\n      jumpi\n      mload(0x40)\n      shl(0xe5, 0x461bcd)\n      dup2\n      mstore\n      0x04\n      add\n      tag_71\n      swap1\n      tag_99\n      jump\t// in\n    tag_97:\n        /* \"contracts/npc_credits/NPC_AccountManager.sol\":3701:3710  accountID */\n      dup3\n      dup3\n        /* \"contracts/npc_credits/NPC_AccountManager.sol\":1558:1703  modifier onlyRegistered(string memory accountID) {... */\n      dup1\n      dup1\n      0x1f\n      add\n      0x20\n      dup1\n      swap2\n      div\n      mul\n      0x20\n      add\n      mload(0x40)\n      swap1\n      dup2\n      add\n      0x40\n      mstore\n      dup1\n      swap4\n      swap3\n      swap2\n      swap1\n      dup2\n      dup2\n      mstore\n      0x20\n      add\n      dup4\n      dup4\n      dup1\n      dup3\n      dup5\n      calldatacopy\n      0x00\n      swap3\n      add\n      swap2\n      swap1\n      swap2\n      mstore\n      pop\n      pop\n        /* \"contracts/npc_credits/NPC_AccountManager.sol\":1625:1647  accountData[accountID] */\n      mload(0x40)\n        /* \"contracts/npc_credits/NPC_AccountManager.sol\":1625:1636  accountData */\n      0x01\n      swap3\n      pop\n        /* \"contracts/npc_credits/NPC_AccountManager.sol\":1625:1647  accountData[accountID] */\n      tag_101\n      swap2\n      pop\n        /* \"contracts/npc_credits/NPC_AccountManager.sol\":1637:1646  accountID */\n      dup4\n      swap1\n        /* \"contracts/npc_credits/NPC_AccountManager.sol\":1625:1647  accountData[accountID] */\n      tag_69\n      jump\t// in\n    tag_101:\n      swap1\n      dup2\n      mstore\n      mload(0x40)\n      swap1\n      dup2\n      swap1\n      sub\n      0x20\n      add\n      swap1\n      keccak256\n        /* \"contracts/npc_credits/NPC_AccountManager.sol\":1625:1658  accountData[accountID].registered */\n      0x03\n      add\n      sload\n      0xff\n      and\n        /* \"contracts/npc_credits/NPC_AccountManager.sol\":1617:1685  require(accountData[accountID].registered, \"Account not registered\") */\n      tag_102\n      jumpi\n      mload(0x40)\n      shl(0xe5, 0x461bcd)\n      dup2\n      mstore\n      0x04\n      add\n      tag_71\n      swap1\n      tag_72\n      jump\t// in\n    tag_102:\n        /* \"contracts/npc_credits/NPC_AccountManager.sol\":3765:3771  status */\n      dup2\n        /* \"contracts/npc_credits/NPC_AccountManager.sol\":3726:3737  accountData */\n      0x01\n        /* \"contracts/npc_credits/NPC_AccountManager.sol\":3738:3747  accountID */\n      dup6\n      dup6\n        /* \"contracts/npc_credits/NPC_AccountManager.sol\":3726:3748  accountData[accountID] */\n      mload(0x40)\n      tag_105\n      swap3\n      swap2\n      swap1\n      tag_66\n      jump\t// in\n    tag_105:\n      swap1\n      dup2\n      mstore\n      mload(0x40)\n      swap1\n      dup2\n      swap1\n      sub\n      0x20\n      add\n      dup2\n      keccak256\n        /* \"contracts/npc_credits/NPC_AccountManager.sol\":3726:3762  accountData[accountID].isBlacklisted */\n      0x01\n      add\n        /* \"contracts/npc_credits/NPC_AccountManager.sol\":3726:3771  accountData[accountID].isBlacklisted = status */\n      dup1\n      sload\n      swap3\n      iszero\n      iszero\n      shl(0xa0, 0x01)\n      mul\n      not(shl(0xa0, 0xff))\n      swap1\n      swap4\n      and\n      swap3\n      swap1\n      swap3\n      or\n      swap1\n      swap2\n      sstore\n        /* \"contracts/npc_credits/NPC_AccountManager.sol\":3786:3823  AccountBlacklisted(accountID, status) */\n      tag_106\n      swap1\n        /* \"contracts/npc_credits/NPC_AccountManager.sol\":3805:3814  accountID */\n      dup6\n      swap1\n      dup6\n      swap1\n        /* \"contracts/npc_credits/NPC_AccountManager.sol\":3786:3823  AccountBlacklisted(accountID, status) */\n      tag_66\n      jump\t// in\n    tag_106:\n      mload(0x40)\n      swap1\n      dup2\n      swap1\n      sub\n      dup2\n      keccak256\n        /* \"#utility.yul\":2131:2145   */\n      dup4\n      iszero\n        /* \"#utility.yul\":2124:2146   */\n      iszero\n        /* \"#utility.yul\":2106:2147   */\n      dup3\n      mstore\n        /* \"contracts/npc_credits/NPC_AccountManager.sol\":3786:3823  AccountBlacklisted(accountID, status) */\n      swap1\n      0x62bfd135dde7dcb1853c9e9e971372460194c791876483c80577bf3028691e48\n      swap1\n        /* \"#utility.yul\":2094:2096   */\n      0x20\n        /* \"#utility.yul\":2079:2097   */\n      add\n        /* \"contracts/npc_credits/NPC_AccountManager.sol\":3786:3823  AccountBlacklisted(accountID, status) */\n      mload(0x40)\n      dup1\n      swap2\n      sub\n      swap1\n      log2\n        /* \"contracts/npc_credits/NPC_AccountManager.sol\":1544:1545  _ */\n      pop\n        /* \"contracts/npc_credits/NPC_AccountManager.sol\":3568:3830  function blacklistAccount(string calldata accountID, bool status)... */\n      pop\n      pop\n      pop\n      jump\t// out\n        /* \"contracts/npc_credits/NPC_AccountManager.sol\":2669:3340  function registerAccount(... */\n    tag_58:\n        /* \"contracts/npc_credits/NPC_AccountManager.sol\":1424:1435  roleManager */\n      sload(0x00)\n        /* \"contracts/npc_credits/NPC_AccountManager.sol\":1424:1466  roleManager.onlyAdminOrBackend(msg.sender) */\n      mload(0x40)\n      shl(0xe1, 0x49e89cc7)\n      dup2\n      mstore\n        /* \"contracts/npc_credits/NPC_AccountManager.sol\":1455:1465  msg.sender */\n      caller\n        /* \"contracts/npc_credits/NPC_AccountManager.sol\":1424:1466  roleManager.onlyAdminOrBackend(msg.sender) */\n      0x04\n      dup3\n      add\n        /* \"#utility.yul\":8065:8116   */\n      mstore\n      sub(shl(0xa0, 0x01), 0x01)\n        /* \"contracts/npc_credits/NPC_AccountManager.sol\":1424:1435  roleManager */\n      swap1\n      swap2\n      and\n      swap1\n        /* \"contracts/npc_credits/NPC_AccountManager.sol\":1424:1454  roleManager.onlyAdminOrBackend */\n      0x93d1398e\n      swap1\n        /* \"#utility.yul\":8038:8056   */\n      0x24\n      add\n        /* \"contracts/npc_credits/NPC_AccountManager.sol\":1424:1466  roleManager.onlyAdminOrBackend(msg.sender) */\n      0x20\n      mload(0x40)\n      dup1\n      dup4\n      sub\n      dup2\n      dup7\n      gas\n      staticcall\n      iszero\n      dup1\n      iszero\n      tag_111\n      jumpi\n      returndatasize\n      0x00\n      dup1\n      returndatacopy\n      revert(0x00, returndatasize)\n    tag_111:\n      pop\n      pop\n      pop\n      pop\n      mload(0x40)\n      returndatasize\n      not(0x1f)\n      0x1f\n      dup3\n      add\n      and\n      dup3\n      add\n      dup1\n      0x40\n      mstore\n      pop\n      dup2\n      add\n      swap1\n      tag_112\n      swap2\n      swap1\n      tag_96\n      jump\t// in\n    tag_112:\n        /* \"contracts/npc_credits/NPC_AccountManager.sol\":1403:1534  require(... */\n      tag_113\n      jumpi\n      mload(0x40)\n      shl(0xe5, 0x461bcd)\n      dup2\n      mstore\n      0x04\n      add\n      tag_71\n      swap1\n      tag_99\n      jump\t// in\n    tag_113:\n        /* \"contracts/npc_credits/NPC_AccountManager.sol\":2830:2854  string memory _accountID */\n      0x00\n        /* \"contracts/npc_credits/NPC_AccountManager.sol\":2857:2880  _toLowerCase(accountID) */\n      tag_116\n        /* \"contracts/npc_credits/NPC_AccountManager.sol\":2870:2879  accountID */\n      dup7\n      dup7\n        /* \"contracts/npc_credits/NPC_AccountManager.sol\":2857:2880  _toLowerCase(accountID) */\n      dup1\n      dup1\n      0x1f\n      add\n      0x20\n      dup1\n      swap2\n      div\n      mul\n      0x20\n      add\n      mload(0x40)\n      swap1\n      dup2\n      add\n      0x40\n      mstore\n      dup1\n      swap4\n      swap3\n      swap2\n      swap1\n      dup2\n      dup2\n      mstore\n      0x20\n      add\n      dup4\n      dup4\n      dup1\n      dup3\n      dup5\n      calldatacopy\n      0x00\n      swap3\n      add\n      swap2\n      swap1\n      swap2\n      mstore\n      pop\n        /* \"contracts/npc_credits/NPC_AccountManager.sol\":2857:2869  _toLowerCase */\n      tag_117\n      swap3\n      pop\n      pop\n      pop\n        /* \"contracts/npc_credits/NPC_AccountManager.sol\":2857:2880  _toLowerCase(accountID) */\n      jump\t// in\n    tag_116:\n        /* \"contracts/npc_credits/NPC_AccountManager.sol\":2830:2880  string memory _accountID = _toLowerCase(accountID) */\n      swap1\n      pop\n        /* \"contracts/npc_credits/NPC_AccountManager.sol\":2890:2909  string memory _role */\n      0x00\n        /* \"contracts/npc_credits/NPC_AccountManager.sol\":2912:2930  _toLowerCase(role) */\n      tag_118\n        /* \"contracts/npc_credits/NPC_AccountManager.sol\":2925:2929  role */\n      dup6\n      dup6\n        /* \"contracts/npc_credits/NPC_AccountManager.sol\":2912:2930  _toLowerCase(role) */\n      dup1\n      dup1\n      0x1f\n      add\n      0x20\n      dup1\n      swap2\n      div\n      mul\n      0x20\n      add\n      mload(0x40)\n      swap1\n      dup2\n      add\n      0x40\n      mstore\n      dup1\n      swap4\n      swap3\n      swap2\n      swap1\n      dup2\n      dup2\n      mstore\n      0x20\n      add\n      dup4\n      dup4\n      dup1\n      dup3\n      dup5\n      calldatacopy\n      0x00\n      swap3\n      add\n      swap2\n      swap1\n      swap2\n      mstore\n      pop\n        /* \"contracts/npc_credits/NPC_AccountManager.sol\":2912:2924  _toLowerCase */\n      tag_117\n      swap3\n      pop\n      pop\n      pop\n        /* \"contracts/npc_credits/NPC_AccountManager.sol\":2912:2930  _toLowerCase(role) */\n      jump\t// in\n    tag_118:\n        /* \"contracts/npc_credits/NPC_AccountManager.sol\":2890:2930  string memory _role = _toLowerCase(role) */\n      swap1\n      pop\n        /* \"contracts/npc_credits/NPC_AccountManager.sol\":2962:2973  accountData */\n      0x01\n        /* \"contracts/npc_credits/NPC_AccountManager.sol\":2974:2984  _accountID */\n      dup3\n        /* \"contracts/npc_credits/NPC_AccountManager.sol\":2962:2985  accountData[_accountID] */\n      mload(0x40)\n      tag_119\n      swap2\n      swap1\n      tag_69\n      jump\t// in\n    tag_119:\n      swap1\n      dup2\n      mstore\n      mload(0x40)\n      swap1\n      dup2\n      swap1\n      sub\n      0x20\n      add\n      swap1\n      keccak256\n        /* \"contracts/npc_credits/NPC_AccountManager.sol\":2962:2996  accountData[_accountID].registered */\n      0x03\n      add\n      sload\n      0xff\n      and\n        /* \"contracts/npc_credits/NPC_AccountManager.sol\":2961:2996  !accountData[_accountID].registered */\n      iszero\n        /* \"contracts/npc_credits/NPC_AccountManager.sol\":2940:3048  require(... */\n      tag_120\n      jumpi\n      mload(0x40)\n      shl(0xe5, 0x461bcd)\n      dup2\n      mstore\n        /* \"#utility.yul\":8990:8992   */\n      0x20\n        /* \"contracts/npc_credits/NPC_AccountManager.sol\":2940:3048  require(... */\n      0x04\n      dup3\n      add\n        /* \"#utility.yul\":8972:8993   */\n      mstore\n        /* \"#utility.yul\":9029:9031   */\n      0x1a\n        /* \"#utility.yul\":9009:9027   */\n      0x24\n      dup3\n      add\n        /* \"#utility.yul\":9002:9032   */\n      mstore\n        /* \"#utility.yul\":9068:9096   */\n      0x4163636f756e7420616c72656164792072656769737465726564000000000000\n        /* \"#utility.yul\":9048:9066   */\n      0x44\n      dup3\n      add\n        /* \"#utility.yul\":9041:9097   */\n      mstore\n        /* \"#utility.yul\":9114:9132   */\n      0x64\n      add\n        /* \"contracts/npc_credits/NPC_AccountManager.sol\":2940:3048  require(... */\n      tag_71\n        /* \"#utility.yul\":8788:9138   */\n      jump\n        /* \"contracts/npc_credits/NPC_AccountManager.sol\":2940:3048  require(... */\n    tag_120:\n        /* \"contracts/npc_credits/NPC_AccountManager.sol\":3084:3271  AccountData({... */\n      0x40\n      dup1\n      mload\n      0xa0\n      dup2\n      add\n      dup3\n      mstore\n      dup3\n      dup2\n      mstore\n      sub(shl(0xa0, 0x01), 0x01)\n      dup6\n      and\n      0x20\n      dup3\n      add\n      mstore\n      0x00\n      dup2\n      dup4\n      add\n      mstore\n        /* \"contracts/npc_credits/NPC_AccountManager.sol\":3215:3230  block.timestamp */\n      timestamp\n        /* \"contracts/npc_credits/NPC_AccountManager.sol\":3084:3271  AccountData({... */\n      0x60\n      dup3\n      add\n      mstore\n      0x01\n      0x80\n      dup3\n      add\n      dup2\n      swap1\n      mstore\n        /* \"contracts/npc_credits/NPC_AccountManager.sol\":3058:3081  accountData[_accountID] */\n      swap2\n      mload\n        /* \"contracts/npc_credits/NPC_AccountManager.sol\":3084:3271  AccountData({... */\n      swap1\n      swap2\n      swap1\n        /* \"contracts/npc_credits/NPC_AccountManager.sol\":3058:3081  accountData[_accountID] */\n      tag_123\n      swap1\n        /* \"contracts/npc_credits/NPC_AccountManager.sol\":3070:3080  _accountID */\n      dup6\n      swap1\n        /* \"contracts/npc_credits/NPC_AccountManager.sol\":3058:3081  accountData[_accountID] */\n      tag_69\n      jump\t// in\n    tag_123:\n      swap1\n      dup2\n      mstore\n      mload(0x40)\n      swap1\n      dup2\n      swap1\n      sub\n      0x20\n      add\n      swap1\n      keccak256\n        /* \"contracts/npc_credits/NPC_AccountManager.sol\":3058:3271  accountData[_accountID] = AccountData({... */\n      dup2\n      mload\n        /* \"contracts/npc_credits/NPC_AccountManager.sol\":3058:3081  accountData[_accountID] */\n      dup2\n      swap1\n        /* \"contracts/npc_credits/NPC_AccountManager.sol\":3058:3271  accountData[_accountID] = AccountData({... */\n      tag_124\n      swap1\n        /* \"contracts/npc_credits/NPC_AccountManager.sol\":3058:3081  accountData[_accountID] */\n      dup3\n        /* \"contracts/npc_credits/NPC_AccountManager.sol\":3058:3271  accountData[_accountID] = AccountData({... */\n      tag_125\n      jump\t// in\n    tag_124:\n      pop\n      0x20\n      dup3\n      add\n      mload\n      0x01\n      dup3\n      add\n      dup1\n      sload\n      0x40\n      dup1\n      dup7\n      add\n      mload\n      iszero\n      iszero\n      shl(0xa0, 0x01)\n      mul\n      not(sub(shl(0xa8, 0x01), 0x01))\n      swap1\n      swap3\n      and\n      sub(shl(0xa0, 0x01), 0x01)\n      swap1\n      swap5\n      and\n      swap4\n      swap1\n      swap4\n      or\n      or\n      swap1\n      sstore\n      0x60\n      dup4\n      add\n      mload\n      0x02\n      dup4\n      add\n      sstore\n      0x80\n      swap1\n      swap3\n      add\n      mload\n      0x03\n      swap1\n      swap2\n      add\n      dup1\n      sload\n      swap2\n      iszero\n      iszero\n      not(0xff)\n      swap1\n      swap3\n      and\n      swap2\n      swap1\n      swap2\n      or\n      swap1\n      sstore\n        /* \"contracts/npc_credits/NPC_AccountManager.sol\":3286:3333  AccountRegistered(_accountID, _role, txAddress) */\n      mload\n      tag_126\n      swap1\n        /* \"contracts/npc_credits/NPC_AccountManager.sol\":3304:3314  _accountID */\n      dup4\n      swap1\n        /* \"contracts/npc_credits/NPC_AccountManager.sol\":3286:3333  AccountRegistered(_accountID, _role, txAddress) */\n      tag_69\n      jump\t// in\n    tag_126:\n      mload(0x40)\n      dup1\n      swap2\n      sub\n      swap1\n      keccak256\n      0x15fe06bcd718db76e0542b653589a63f11b9a7e090d89e436200f6faec8a0c10\n        /* \"contracts/npc_credits/NPC_AccountManager.sol\":3316:3321  _role */\n      dup3\n        /* \"contracts/npc_credits/NPC_AccountManager.sol\":3323:3332  txAddress */\n      dup6\n        /* \"contracts/npc_credits/NPC_AccountManager.sol\":3286:3333  AccountRegistered(_accountID, _role, txAddress) */\n      mload(0x40)\n      tag_127\n      swap3\n      swap2\n      swap1\n      tag_128\n      jump\t// in\n    tag_127:\n      mload(0x40)\n      dup1\n      swap2\n      sub\n      swap1\n      log2\n        /* \"contracts/npc_credits/NPC_AccountManager.sol\":2820:3340  {... */\n      pop\n      pop\n        /* \"contracts/npc_credits/NPC_AccountManager.sol\":2669:3340  function registerAccount(... */\n      pop\n      pop\n      pop\n      pop\n      pop\n      jump\t// out\n        /* \"contracts/npc_credits/NPC_AccountManager.sol\":4110:4278  function getAccountData(string calldata accountID)... */\n    tag_61:\n      0x40\n      dup1\n      mload\n      0xa0\n      dup2\n      add\n      dup3\n      mstore\n      0x60\n      dup1\n      dup3\n      mstore\n      0x00\n      0x20\n      dup4\n      add\n      dup2\n      swap1\n      mstore\n      dup3\n      dup5\n      add\n      dup2\n      swap1\n      mstore\n      swap1\n      dup3\n      add\n      dup2\n      swap1\n      mstore\n      0x80\n      dup3\n      add\n      mstore\n        /* \"contracts/npc_credits/NPC_AccountManager.sol\":4249:4271  accountData[accountID] */\n      swap1\n      mload\n        /* \"contracts/npc_credits/NPC_AccountManager.sol\":4249:4260  accountData */\n      0x01\n      swap1\n        /* \"contracts/npc_credits/NPC_AccountManager.sol\":4249:4271  accountData[accountID] */\n      tag_132\n      swap1\n        /* \"contracts/npc_credits/NPC_AccountManager.sol\":4261:4270  accountID */\n      dup6\n      swap1\n      dup6\n      swap1\n        /* \"contracts/npc_credits/NPC_AccountManager.sol\":4249:4271  accountData[accountID] */\n      tag_66\n      jump\t// in\n    tag_132:\n      swap1\n      dup2\n      mstore\n      0x20\n      add\n      mload(0x40)\n      dup1\n      swap2\n      sub\n      swap1\n      keccak256\n        /* \"contracts/npc_credits/NPC_AccountManager.sol\":4242:4271  return accountData[accountID] */\n      mload(0x40)\n      dup1\n      0xa0\n      add\n      0x40\n      mstore\n      swap1\n      dup2\n      0x00\n      dup3\n      add\n      dup1\n      sload\n      tag_133\n      swap1\n      tag_134\n      jump\t// in\n    tag_133:\n      dup1\n      0x1f\n      add\n      0x20\n      dup1\n      swap2\n      div\n      mul\n      0x20\n      add\n      mload(0x40)\n      swap1\n      dup2\n      add\n      0x40\n      mstore\n      dup1\n      swap3\n      swap2\n      swap1\n      dup2\n      dup2\n      mstore\n      0x20\n      add\n      dup3\n      dup1\n      sload\n      tag_135\n      swap1\n      tag_134\n      jump\t// in\n    tag_135:\n      dup1\n      iszero\n      tag_136\n      jumpi\n      dup1\n      0x1f\n      lt\n      tag_137\n      jumpi\n      0x0100\n      dup1\n      dup4\n      sload\n      div\n      mul\n      dup4\n      mstore\n      swap2\n      0x20\n      add\n      swap2\n      jump(tag_136)\n    tag_137:\n      dup3\n      add\n      swap2\n      swap1\n      0x00\n      mstore\n      keccak256(0x00, 0x20)\n      swap1\n    tag_138:\n      dup2\n      sload\n      dup2\n      mstore\n      swap1\n      0x01\n      add\n      swap1\n      0x20\n      add\n      dup1\n      dup4\n      gt\n      tag_138\n      jumpi\n      dup3\n      swap1\n      sub\n      0x1f\n      and\n      dup3\n      add\n      swap2\n    tag_136:\n      pop\n      pop\n      pop\n      swap2\n      dup4\n      mstore\n      pop\n      pop\n      0x01\n      dup3\n      add\n      sload\n      sub(shl(0xa0, 0x01), 0x01)\n      dup2\n      and\n      0x20\n      dup4\n      add\n      mstore\n      shl(0xa0, 0x01)\n      swap1\n      div\n      0xff\n      swap1\n      dup2\n      and\n      iszero\n      iszero\n      0x40\n      dup4\n      add\n      mstore\n      0x02\n      dup4\n      add\n      sload\n      0x60\n      dup4\n      add\n      mstore\n      0x03\n      swap1\n      swap3\n      add\n      sload\n      swap1\n      swap2\n      and\n      iszero\n      iszero\n      0x80\n      swap1\n      swap2\n      add\n      mstore\n      swap4\n        /* \"contracts/npc_credits/NPC_AccountManager.sol\":4110:4278  function getAccountData(string calldata accountID)... */\n      swap3\n      pop\n      pop\n      pop\n      jump\t// out\n        /* \"contracts/npc_credits/NPC_AccountManager.sol\":5044:5261  function _roleToString(bytes32 role) internal pure returns (string memory) {... */\n    tag_80:\n        /* \"contracts/npc_credits/NPC_AccountManager.sol\":5104:5117  string memory */\n      0x60\n        /* \"contracts/npc_credits/NPC_AccountManager.sol\":399:425  keccak256(\"PRODUCER_ROLE\") */\n      0x8eb467f061ca67f42a2d2ca4a346fc9fb645efc0ba75056ee9f71c3a0ccc10a8\n        /* \"contracts/npc_credits/NPC_AccountManager.sol\":5133:5137  role */\n      dup3\n        /* \"contracts/npc_credits/NPC_AccountManager.sol\":5133:5154  role == PRODUCER_ROLE */\n      sub\n        /* \"contracts/npc_credits/NPC_AccountManager.sol\":5129:5173  if (role == PRODUCER_ROLE) return \"producer\" */\n      tag_140\n      jumpi\n      pop\n      pop\n        /* \"contracts/npc_credits/NPC_AccountManager.sol\":5156:5173  return \"producer\" */\n      0x40\n      dup1\n      mload\n      dup1\n      dup3\n      add\n      swap1\n      swap2\n      mstore\n      0x08\n      dup2\n      mstore\n      shl(0xc1, 0x383937b23ab1b2b9)\n      0x20\n      dup3\n      add\n      mstore\n      swap1\n        /* \"contracts/npc_credits/NPC_AccountManager.sol\":5044:5261  function _roleToString(bytes32 role) internal pure returns (string memory) {... */\n      jump\t// out\n        /* \"contracts/npc_credits/NPC_AccountManager.sol\":5129:5173  if (role == PRODUCER_ROLE) return \"producer\" */\n    tag_140:\n        /* \"contracts/npc_credits/NPC_AccountManager.sol\":471:497  keccak256(\"VERIFIER_ROLE\") */\n      0x0ce23c3e399818cfee81a7ab0880f714e53d7672b08df0fa62f2843416e1ea09\n        /* \"contracts/npc_credits/NPC_AccountManager.sol\":5187:5191  role */\n      dup3\n        /* \"contracts/npc_credits/NPC_AccountManager.sol\":5187:5208  role == VERIFIER_ROLE */\n      sub\n        /* \"contracts/npc_credits/NPC_AccountManager.sol\":5183:5227  if (role == VERIFIER_ROLE) return \"verifier\" */\n      tag_141\n      jumpi\n      pop\n      pop\n        /* \"contracts/npc_credits/NPC_AccountManager.sol\":5210:5227  return \"verifier\" */\n      0x40\n      dup1\n      mload\n      dup1\n      dup3\n      add\n      swap1\n      swap2\n      mstore\n      0x08\n      dup2\n      mstore\n      shl(0xc1, 0x3b32b934b334b2b9)\n      0x20\n      dup3\n      add\n      mstore\n      swap1\n        /* \"contracts/npc_credits/NPC_AccountManager.sol\":5044:5261  function _roleToString(bytes32 role) internal pure returns (string memory) {... */\n      jump\t// out\n        /* \"contracts/npc_credits/NPC_AccountManager.sol\":5183:5227  if (role == VERIFIER_ROLE) return \"verifier\" */\n    tag_141:\n      pop\n      pop\n        /* \"contracts/npc_credits/NPC_AccountManager.sol\":5237:5254  return \"investor\" */\n      0x40\n      dup1\n      mload\n      dup1\n      dup3\n      add\n      swap1\n      swap2\n      mstore\n      0x08\n      dup2\n      mstore\n      shl(0xc1, 0x34b73b32b9ba37b9)\n      0x20\n      dup3\n      add\n      mstore\n      swap1\n        /* \"contracts/npc_credits/NPC_AccountManager.sol\":5044:5261  function _roleToString(bytes32 role) internal pure returns (string memory) {... */\n      jump\t// out\n        /* \"contracts/npc_credits/NPC_AccountManager.sol\":4421:4919  function _toLowerCase(string memory str)... */\n    tag_117:\n        /* \"contracts/npc_credits/NPC_AccountManager.sol\":4509:4522  string memory */\n      0x60\n        /* \"contracts/npc_credits/NPC_AccountManager.sol\":4538:4555  bytes memory bStr */\n      0x00\n        /* \"contracts/npc_credits/NPC_AccountManager.sol\":4564:4567  str */\n      dup3\n        /* \"contracts/npc_credits/NPC_AccountManager.sol\":4538:4568  bytes memory bStr = bytes(str) */\n      swap1\n      pop\n        /* \"contracts/npc_credits/NPC_AccountManager.sol\":4578:4597  bytes memory bLower */\n      0x00\n        /* \"contracts/npc_credits/NPC_AccountManager.sol\":4610:4614  bStr */\n      dup2\n        /* \"contracts/npc_credits/NPC_AccountManager.sol\":4610:4621  bStr.length */\n      mload\n        /* \"contracts/npc_credits/NPC_AccountManager.sol\":4600:4622  new bytes(bStr.length) */\n      0xffffffffffffffff\n      dup2\n      gt\n      iszero\n      tag_144\n      jumpi\n      tag_144\n      tag_145\n      jump\t// in\n    tag_144:\n      mload(0x40)\n      swap1\n      dup1\n      dup3\n      mstore\n      dup1\n      0x1f\n      add\n      not(0x1f)\n      and\n      0x20\n      add\n      dup3\n      add\n      0x40\n      mstore\n      dup1\n      iszero\n      tag_146\n      jumpi\n      0x20\n      dup3\n      add\n      dup2\n      dup1\n      calldatasize\n      dup4\n      calldatacopy\n      add\n      swap1\n      pop\n    tag_146:\n      pop\n        /* \"contracts/npc_credits/NPC_AccountManager.sol\":4578:4622  bytes memory bLower = new bytes(bStr.length) */\n      swap1\n      pop\n        /* \"contracts/npc_credits/NPC_AccountManager.sol\":4637:4646  uint256 i */\n      0x00\n        /* \"contracts/npc_credits/NPC_AccountManager.sol\":4632:4882  for (uint256 i = 0; i < bStr.length; i++) {... */\n    tag_147:\n        /* \"contracts/npc_credits/NPC_AccountManager.sol\":4656:4660  bStr */\n      dup3\n        /* \"contracts/npc_credits/NPC_AccountManager.sol\":4656:4667  bStr.length */\n      mload\n        /* \"contracts/npc_credits/NPC_AccountManager.sol\":4652:4653  i */\n      dup2\n        /* \"contracts/npc_credits/NPC_AccountManager.sol\":4652:4667  i < bStr.length */\n      lt\n        /* \"contracts/npc_credits/NPC_AccountManager.sol\":4632:4882  for (uint256 i = 0; i < bStr.length; i++) {... */\n      iszero\n      tag_148\n      jumpi\n        /* \"contracts/npc_credits/NPC_AccountManager.sol\":4711:4713  65 */\n      0x41\n        /* \"contracts/npc_credits/NPC_AccountManager.sol\":4699:4703  bStr */\n      dup4\n        /* \"contracts/npc_credits/NPC_AccountManager.sol\":4704:4705  i */\n      dup3\n        /* \"contracts/npc_credits/NPC_AccountManager.sol\":4699:4706  bStr[i] */\n      dup2\n      mload\n      dup2\n      lt\n      tag_151\n      jumpi\n      tag_151\n      tag_152\n      jump\t// in\n    tag_151:\n      add\n      0x20\n      add\n      mload\n      0xf8\n      shr\n        /* \"contracts/npc_credits/NPC_AccountManager.sol\":4693:4713  uint8(bStr[i]) >= 65 */\n      lt\n      dup1\n      iszero\n      swap1\n        /* \"contracts/npc_credits/NPC_AccountManager.sol\":4692:4740  (uint8(bStr[i]) >= 65) && (uint8(bStr[i]) <= 90) */\n      tag_153\n      jumpi\n      pop\n        /* \"contracts/npc_credits/NPC_AccountManager.sol\":4737:4739  90 */\n      0x5a\n        /* \"contracts/npc_credits/NPC_AccountManager.sol\":4725:4729  bStr */\n      dup4\n        /* \"contracts/npc_credits/NPC_AccountManager.sol\":4730:4731  i */\n      dup3\n        /* \"contracts/npc_credits/NPC_AccountManager.sol\":4725:4732  bStr[i] */\n      dup2\n      mload\n      dup2\n      lt\n      tag_155\n      jumpi\n      tag_155\n      tag_152\n      jump\t// in\n    tag_155:\n      add\n      0x20\n      add\n      mload\n      0xf8\n      shr\n        /* \"contracts/npc_credits/NPC_AccountManager.sol\":4719:4739  uint8(bStr[i]) <= 90 */\n      gt\n      iszero\n        /* \"contracts/npc_credits/NPC_AccountManager.sol\":4692:4740  (uint8(bStr[i]) >= 65) && (uint8(bStr[i]) <= 90) */\n    tag_153:\n        /* \"contracts/npc_credits/NPC_AccountManager.sol\":4688:4872  if ((uint8(bStr[i]) >= 65) && (uint8(bStr[i]) <= 90)) {... */\n      iszero\n      tag_156\n      jumpi\n        /* \"contracts/npc_credits/NPC_AccountManager.sol\":4785:4789  bStr */\n      dup3\n        /* \"contracts/npc_credits/NPC_AccountManager.sol\":4790:4791  i */\n      dup2\n        /* \"contracts/npc_credits/NPC_AccountManager.sol\":4785:4792  bStr[i] */\n      dup2\n      mload\n      dup2\n      lt\n      tag_158\n      jumpi\n      tag_158\n      tag_152\n      jump\t// in\n    tag_158:\n      0x20\n      add\n      add\n      mload\n      0xf8\n      shr\n      0xf8\n      shl\n        /* \"contracts/npc_credits/NPC_AccountManager.sol\":4779:4793  uint8(bStr[i]) */\n      0xf8\n      shr\n        /* \"contracts/npc_credits/NPC_AccountManager.sol\":4796:4798  32 */\n      0x20\n        /* \"contracts/npc_credits/NPC_AccountManager.sol\":4779:4798  uint8(bStr[i]) + 32 */\n      tag_159\n      swap2\n      swap1\n      tag_160\n      jump\t// in\n    tag_159:\n        /* \"contracts/npc_credits/NPC_AccountManager.sol\":4772:4799  bytes1(uint8(bStr[i]) + 32) */\n      0xf8\n      shl\n        /* \"contracts/npc_credits/NPC_AccountManager.sol\":4760:4766  bLower */\n      dup3\n        /* \"contracts/npc_credits/NPC_AccountManager.sol\":4767:4768  i */\n      dup3\n        /* \"contracts/npc_credits/NPC_AccountManager.sol\":4760:4769  bLower[i] */\n      dup2\n      mload\n      dup2\n      lt\n      tag_162\n      jumpi\n      tag_162\n      tag_152\n      jump\t// in\n    tag_162:\n      0x20\n      add\n      add\n        /* \"contracts/npc_credits/NPC_AccountManager.sol\":4760:4799  bLower[i] = bytes1(uint8(bStr[i]) + 32) */\n      swap1\n      not(sub(shl(0xf8, 0x01), 0x01))\n      and\n      swap1\n      dup2\n      0x00\n      byte\n      swap1\n      mstore8\n      pop\n        /* \"contracts/npc_credits/NPC_AccountManager.sol\":4688:4872  if ((uint8(bStr[i]) >= 65) && (uint8(bStr[i]) <= 90)) {... */\n      jump(tag_163)\n    tag_156:\n        /* \"contracts/npc_credits/NPC_AccountManager.sol\":4850:4854  bStr */\n      dup3\n        /* \"contracts/npc_credits/NPC_AccountManager.sol\":4855:4856  i */\n      dup2\n        /* \"contracts/npc_credits/NPC_AccountManager.sol\":4850:4857  bStr[i] */\n      dup2\n      mload\n      dup2\n      lt\n      tag_165\n      jumpi\n      tag_165\n      tag_152\n      jump\t// in\n    tag_165:\n      0x20\n      add\n      add\n      mload\n      0xf8\n      shr\n      0xf8\n      shl\n        /* \"contracts/npc_credits/NPC_AccountManager.sol\":4838:4844  bLower */\n      dup3\n        /* \"contracts/npc_credits/NPC_AccountManager.sol\":4845:4846  i */\n      dup3\n        /* \"contracts/npc_credits/NPC_AccountManager.sol\":4838:4847  bLower[i] */\n      dup2\n      mload\n      dup2\n      lt\n      tag_167\n      jumpi\n      tag_167\n      tag_152\n      jump\t// in\n    tag_167:\n      0x20\n      add\n      add\n        /* \"contracts/npc_credits/NPC_AccountManager.sol\":4838:4857  bLower[i] = bStr[i] */\n      swap1\n      not(sub(shl(0xf8, 0x01), 0x01))\n      and\n      swap1\n      dup2\n      0x00\n      byte\n      swap1\n      mstore8\n      pop\n        /* \"contracts/npc_credits/NPC_AccountManager.sol\":4688:4872  if ((uint8(bStr[i]) >= 65) && (uint8(bStr[i]) <= 90)) {... */\n    tag_163:\n        /* \"contracts/npc_credits/NPC_AccountManager.sol\":4669:4672  i++ */\n      0x01\n      add\n        /* \"contracts/npc_credits/NPC_AccountManager.sol\":4632:4882  for (uint256 i = 0; i < bStr.length; i++) {... */\n      jump(tag_147)\n    tag_148:\n      pop\n        /* \"contracts/npc_credits/NPC_AccountManager.sol\":4905:4911  bLower */\n      swap4\n        /* \"contracts/npc_credits/NPC_AccountManager.sol\":4421:4919  function _toLowerCase(string memory str)... */\n      swap3\n      pop\n      pop\n      pop\n      jump\t// out\n        /* \"#utility.yul\":14:362   */\n    tag_168:\n        /* \"#utility.yul\":66:74   */\n      0x00\n        /* \"#utility.yul\":76:82   */\n      dup1\n        /* \"#utility.yul\":130:133   */\n      dup4\n        /* \"#utility.yul\":123:127   */\n      0x1f\n        /* \"#utility.yul\":115:121   */\n      dup5\n        /* \"#utility.yul\":111:128   */\n      add\n        /* \"#utility.yul\":107:134   */\n      slt\n        /* \"#utility.yul\":97:152   */\n      tag_177\n      jumpi\n        /* \"#utility.yul\":148:149   */\n      0x00\n        /* \"#utility.yul\":145:146   */\n      dup1\n        /* \"#utility.yul\":138:150   */\n      revert\n        /* \"#utility.yul\":97:152   */\n    tag_177:\n      pop\n        /* \"#utility.yul\":171:191   */\n      dup2\n      calldataload\n        /* \"#utility.yul\":214:232   */\n      0xffffffffffffffff\n        /* \"#utility.yul\":203:233   */\n      dup2\n      gt\n        /* \"#utility.yul\":200:250   */\n      iszero\n      tag_178\n      jumpi\n        /* \"#utility.yul\":246:247   */\n      0x00\n        /* \"#utility.yul\":243:244   */\n      dup1\n        /* \"#utility.yul\":236:248   */\n      revert\n        /* \"#utility.yul\":200:250   */\n    tag_178:\n        /* \"#utility.yul\":283:287   */\n      0x20\n        /* \"#utility.yul\":275:281   */\n      dup4\n        /* \"#utility.yul\":271:288   */\n      add\n        /* \"#utility.yul\":259:288   */\n      swap2\n      pop\n        /* \"#utility.yul\":335:338   */\n      dup4\n        /* \"#utility.yul\":328:332   */\n      0x20\n        /* \"#utility.yul\":319:325   */\n      dup3\n        /* \"#utility.yul\":311:317   */\n      dup6\n        /* \"#utility.yul\":307:326   */\n      add\n        /* \"#utility.yul\":303:333   */\n      add\n        /* \"#utility.yul\":300:339   */\n      gt\n        /* \"#utility.yul\":297:356   */\n      iszero\n      tag_179\n      jumpi\n        /* \"#utility.yul\":352:353   */\n      0x00\n        /* \"#utility.yul\":349:350   */\n      dup1\n        /* \"#utility.yul\":342:354   */\n      revert\n        /* \"#utility.yul\":297:356   */\n    tag_179:\n        /* \"#utility.yul\":14:362   */\n      swap3\n      pop\n      swap3\n      swap1\n      pop\n      jump\t// out\n        /* \"#utility.yul\":367:778   */\n    tag_18:\n        /* \"#utility.yul\":438:444   */\n      0x00\n        /* \"#utility.yul\":446:452   */\n      dup1\n        /* \"#utility.yul\":499:501   */\n      0x20\n        /* \"#utility.yul\":487:496   */\n      dup4\n        /* \"#utility.yul\":478:485   */\n      dup6\n        /* \"#utility.yul\":474:497   */\n      sub\n        /* \"#utility.yul\":470:502   */\n      slt\n        /* \"#utility.yul\":467:519   */\n      iszero\n      tag_181\n      jumpi\n        /* \"#utility.yul\":515:516   */\n      0x00\n        /* \"#utility.yul\":512:513   */\n      dup1\n        /* \"#utility.yul\":505:517   */\n      revert\n        /* \"#utility.yul\":467:519   */\n    tag_181:\n        /* \"#utility.yul\":555:564   */\n      dup3\n        /* \"#utility.yul\":542:565   */\n      calldataload\n        /* \"#utility.yul\":588:606   */\n      0xffffffffffffffff\n        /* \"#utility.yul\":580:586   */\n      dup2\n        /* \"#utility.yul\":577:607   */\n      gt\n        /* \"#utility.yul\":574:624   */\n      iszero\n      tag_182\n      jumpi\n        /* \"#utility.yul\":620:621   */\n      0x00\n        /* \"#utility.yul\":617:618   */\n      dup1\n        /* \"#utility.yul\":610:622   */\n      revert\n        /* \"#utility.yul\":574:624   */\n    tag_182:\n        /* \"#utility.yul\":659:718   */\n      tag_183\n        /* \"#utility.yul\":710:717   */\n      dup6\n        /* \"#utility.yul\":701:707   */\n      dup3\n        /* \"#utility.yul\":690:699   */\n      dup7\n        /* \"#utility.yul\":686:708   */\n      add\n        /* \"#utility.yul\":659:718   */\n      tag_168\n      jump\t// in\n    tag_183:\n        /* \"#utility.yul\":737:745   */\n      swap1\n      swap7\n        /* \"#utility.yul\":633:718   */\n      swap1\n      swap6\n      pop\n        /* \"#utility.yul\":367:778   */\n      swap4\n      pop\n      pop\n      pop\n      pop\n      jump\t// out\n        /* \"#utility.yul\":783:910   */\n    tag_145:\n        /* \"#utility.yul\":844:854   */\n      0x4e487b71\n        /* \"#utility.yul\":839:842   */\n      0xe0\n        /* \"#utility.yul\":835:855   */\n      shl\n        /* \"#utility.yul\":832:833   */\n      0x00\n        /* \"#utility.yul\":825:856   */\n      mstore\n        /* \"#utility.yul\":875:879   */\n      0x41\n        /* \"#utility.yul\":872:873   */\n      0x04\n        /* \"#utility.yul\":865:880   */\n      mstore\n        /* \"#utility.yul\":899:903   */\n      0x24\n        /* \"#utility.yul\":896:897   */\n      0x00\n        /* \"#utility.yul\":889:904   */\n      revert\n        /* \"#utility.yul\":915:1634   */\n    tag_169:\n        /* \"#utility.yul\":958:963   */\n      0x00\n        /* \"#utility.yul\":1011:1014   */\n      dup3\n        /* \"#utility.yul\":1004:1008   */\n      0x1f\n        /* \"#utility.yul\":996:1002   */\n      dup4\n        /* \"#utility.yul\":992:1009   */\n      add\n        /* \"#utility.yul\":988:1015   */\n      slt\n        /* \"#utility.yul\":978:1033   */\n      tag_186\n      jumpi\n        /* \"#utility.yul\":1029:1030   */\n      0x00\n        /* \"#utility.yul\":1026:1027   */\n      dup1\n        /* \"#utility.yul\":1019:1031   */\n      revert\n        /* \"#utility.yul\":978:1033   */\n    tag_186:\n        /* \"#utility.yul\":1065:1071   */\n      dup2\n        /* \"#utility.yul\":1052:1072   */\n      calldataload\n        /* \"#utility.yul\":1091:1109   */\n      0xffffffffffffffff\n        /* \"#utility.yul\":1128:1130   */\n      dup1\n        /* \"#utility.yul\":1124:1126   */\n      dup3\n        /* \"#utility.yul\":1121:1131   */\n      gt\n        /* \"#utility.yul\":1118:1154   */\n      iszero\n      tag_188\n      jumpi\n        /* \"#utility.yul\":1134:1152   */\n      tag_188\n      tag_145\n      jump\t// in\n    tag_188:\n        /* \"#utility.yul\":1209:1211   */\n      0x40\n        /* \"#utility.yul\":1203:1212   */\n      mload\n        /* \"#utility.yul\":1177:1179   */\n      0x1f\n        /* \"#utility.yul\":1263:1276   */\n      dup4\n      add\n      not(0x1f)\n        /* \"#utility.yul\":1259:1281   */\n      swap1\n      dup2\n      and\n        /* \"#utility.yul\":1283:1285   */\n      0x3f\n        /* \"#utility.yul\":1255:1286   */\n      add\n        /* \"#utility.yul\":1251:1291   */\n      and\n        /* \"#utility.yul\":1239:1292   */\n      dup2\n      add\n      swap1\n        /* \"#utility.yul\":1307:1325   */\n      dup3\n      dup3\n      gt\n        /* \"#utility.yul\":1327:1349   */\n      dup2\n      dup4\n      lt\n        /* \"#utility.yul\":1304:1350   */\n      or\n        /* \"#utility.yul\":1301:1373   */\n      iszero\n      tag_190\n      jumpi\n        /* \"#utility.yul\":1353:1371   */\n      tag_190\n      tag_145\n      jump\t// in\n    tag_190:\n        /* \"#utility.yul\":1393:1403   */\n      dup2\n        /* \"#utility.yul\":1389:1391   */\n      0x40\n        /* \"#utility.yul\":1382:1404   */\n      mstore\n        /* \"#utility.yul\":1428:1430   */\n      dup4\n        /* \"#utility.yul\":1420:1426   */\n      dup2\n        /* \"#utility.yul\":1413:1431   */\n      mstore\n        /* \"#utility.yul\":1474:1477   */\n      dup7\n        /* \"#utility.yul\":1467:1471   */\n      0x20\n        /* \"#utility.yul\":1462:1464   */\n      dup6\n        /* \"#utility.yul\":1454:1460   */\n      dup9\n        /* \"#utility.yul\":1450:1465   */\n      add\n        /* \"#utility.yul\":1446:1472   */\n      add\n        /* \"#utility.yul\":1443:1478   */\n      gt\n        /* \"#utility.yul\":1440:1495   */\n      iszero\n      tag_191\n      jumpi\n        /* \"#utility.yul\":1491:1492   */\n      0x00\n        /* \"#utility.yul\":1488:1489   */\n      dup1\n        /* \"#utility.yul\":1481:1493   */\n      revert\n        /* \"#utility.yul\":1440:1495   */\n    tag_191:\n        /* \"#utility.yul\":1555:1557   */\n      dup4\n        /* \"#utility.yul\":1548:1552   */\n      0x20\n        /* \"#utility.yul\":1540:1546   */\n      dup8\n        /* \"#utility.yul\":1536:1553   */\n      add\n        /* \"#utility.yul\":1529:1533   */\n      0x20\n        /* \"#utility.yul\":1521:1527   */\n      dup4\n        /* \"#utility.yul\":1517:1534   */\n      add\n        /* \"#utility.yul\":1504:1558   */\n      calldatacopy\n        /* \"#utility.yul\":1602:1603   */\n      0x00\n        /* \"#utility.yul\":1595:1599   */\n      0x20\n        /* \"#utility.yul\":1590:1592   */\n      dup6\n        /* \"#utility.yul\":1582:1588   */\n      dup4\n        /* \"#utility.yul\":1578:1593   */\n      add\n        /* \"#utility.yul\":1574:1600   */\n      add\n        /* \"#utility.yul\":1567:1604   */\n      mstore\n        /* \"#utility.yul\":1622:1628   */\n      dup1\n        /* \"#utility.yul\":1613:1628   */\n      swap5\n      pop\n      pop\n      pop\n      pop\n      pop\n        /* \"#utility.yul\":915:1634   */\n      swap3\n      swap2\n      pop\n      pop\n      jump\t// out\n        /* \"#utility.yul\":1639:1961   */\n    tag_22:\n        /* \"#utility.yul\":1708:1714   */\n      0x00\n        /* \"#utility.yul\":1761:1763   */\n      0x20\n        /* \"#utility.yul\":1749:1758   */\n      dup3\n        /* \"#utility.yul\":1740:1747   */\n      dup5\n        /* \"#utility.yul\":1736:1759   */\n      sub\n        /* \"#utility.yul\":1732:1764   */\n      slt\n        /* \"#utility.yul\":1729:1781   */\n      iszero\n      tag_193\n      jumpi\n        /* \"#utility.yul\":1777:1778   */\n      0x00\n        /* \"#utility.yul\":1774:1775   */\n      dup1\n        /* \"#utility.yul\":1767:1779   */\n      revert\n        /* \"#utility.yul\":1729:1781   */\n    tag_193:\n        /* \"#utility.yul\":1817:1826   */\n      dup2\n        /* \"#utility.yul\":1804:1827   */\n      calldataload\n        /* \"#utility.yul\":1850:1868   */\n      0xffffffffffffffff\n        /* \"#utility.yul\":1842:1848   */\n      dup2\n        /* \"#utility.yul\":1839:1869   */\n      gt\n        /* \"#utility.yul\":1836:1886   */\n      iszero\n      tag_194\n      jumpi\n        /* \"#utility.yul\":1882:1883   */\n      0x00\n        /* \"#utility.yul\":1879:1880   */\n      dup1\n        /* \"#utility.yul\":1872:1884   */\n      revert\n        /* \"#utility.yul\":1836:1886   */\n    tag_194:\n        /* \"#utility.yul\":1905:1955   */\n      tag_195\n        /* \"#utility.yul\":1947:1954   */\n      dup5\n        /* \"#utility.yul\":1938:1944   */\n      dup3\n        /* \"#utility.yul\":1927:1936   */\n      dup6\n        /* \"#utility.yul\":1923:1945   */\n      add\n        /* \"#utility.yul\":1905:1955   */\n      tag_169\n      jump\t// in\n    tag_195:\n        /* \"#utility.yul\":1895:1955   */\n      swap5\n        /* \"#utility.yul\":1639:1961   */\n      swap4\n      pop\n      pop\n      pop\n      pop\n      jump\t// out\n        /* \"#utility.yul\":2340:2730   */\n    tag_38:\n        /* \"#utility.yul\":2418:2424   */\n      0x00\n        /* \"#utility.yul\":2426:2432   */\n      dup1\n        /* \"#utility.yul\":2479:2481   */\n      0x40\n        /* \"#utility.yul\":2467:2476   */\n      dup4\n        /* \"#utility.yul\":2458:2465   */\n      dup6\n        /* \"#utility.yul\":2454:2477   */\n      sub\n        /* \"#utility.yul\":2450:2482   */\n      slt\n        /* \"#utility.yul\":2447:2499   */\n      iszero\n      tag_199\n      jumpi\n        /* \"#utility.yul\":2495:2496   */\n      0x00\n        /* \"#utility.yul\":2492:2493   */\n      dup1\n        /* \"#utility.yul\":2485:2497   */\n      revert\n        /* \"#utility.yul\":2447:2499   */\n    tag_199:\n        /* \"#utility.yul\":2535:2544   */\n      dup3\n        /* \"#utility.yul\":2522:2545   */\n      calldataload\n        /* \"#utility.yul\":2568:2586   */\n      0xffffffffffffffff\n        /* \"#utility.yul\":2560:2566   */\n      dup2\n        /* \"#utility.yul\":2557:2587   */\n      gt\n        /* \"#utility.yul\":2554:2604   */\n      iszero\n      tag_200\n      jumpi\n        /* \"#utility.yul\":2600:2601   */\n      0x00\n        /* \"#utility.yul\":2597:2598   */\n      dup1\n        /* \"#utility.yul\":2590:2602   */\n      revert\n        /* \"#utility.yul\":2554:2604   */\n    tag_200:\n        /* \"#utility.yul\":2623:2673   */\n      tag_201\n        /* \"#utility.yul\":2665:2672   */\n      dup6\n        /* \"#utility.yul\":2656:2662   */\n      dup3\n        /* \"#utility.yul\":2645:2654   */\n      dup7\n        /* \"#utility.yul\":2641:2663   */\n      add\n        /* \"#utility.yul\":2623:2673   */\n      tag_169\n      jump\t// in\n    tag_201:\n        /* \"#utility.yul\":2613:2673   */\n      swap6\n        /* \"#utility.yul\":2720:2722   */\n      0x20\n        /* \"#utility.yul\":2705:2723   */\n      swap5\n      swap1\n      swap5\n      add\n        /* \"#utility.yul\":2692:2724   */\n      calldataload\n      swap5\n      pop\n      pop\n      pop\n      pop\n        /* \"#utility.yul\":2340:2730   */\n      jump\t// out\n        /* \"#utility.yul\":2735:2853   */\n    tag_170:\n        /* \"#utility.yul\":2821:2826   */\n      dup1\n        /* \"#utility.yul\":2814:2827   */\n      iszero\n        /* \"#utility.yul\":2807:2828   */\n      iszero\n        /* \"#utility.yul\":2800:2805   */\n      dup2\n        /* \"#utility.yul\":2797:2829   */\n      eq\n        /* \"#utility.yul\":2787:2847   */\n      tag_203\n      jumpi\n        /* \"#utility.yul\":2843:2844   */\n      0x00\n        /* \"#utility.yul\":2840:2841   */\n      dup1\n        /* \"#utility.yul\":2833:2845   */\n      revert\n        /* \"#utility.yul\":2787:2847   */\n    tag_203:\n        /* \"#utility.yul\":2735:2853   */\n      pop\n      jump\t// out\n        /* \"#utility.yul\":2858:3398   */\n    tag_50:\n        /* \"#utility.yul\":2935:2941   */\n      0x00\n        /* \"#utility.yul\":2943:2949   */\n      dup1\n        /* \"#utility.yul\":2951:2957   */\n      0x00\n        /* \"#utility.yul\":3004:3006   */\n      0x40\n        /* \"#utility.yul\":2992:3001   */\n      dup5\n        /* \"#utility.yul\":2983:2990   */\n      dup7\n        /* \"#utility.yul\":2979:3002   */\n      sub\n        /* \"#utility.yul\":2975:3007   */\n      slt\n        /* \"#utility.yul\":2972:3024   */\n      iszero\n      tag_205\n      jumpi\n        /* \"#utility.yul\":3020:3021   */\n      0x00\n        /* \"#utility.yul\":3017:3018   */\n      dup1\n        /* \"#utility.yul\":3010:3022   */\n      revert\n        /* \"#utility.yul\":2972:3024   */\n    tag_205:\n        /* \"#utility.yul\":3060:3069   */\n      dup4\n        /* \"#utility.yul\":3047:3070   */\n      calldataload\n        /* \"#utility.yul\":3093:3111   */\n      0xffffffffffffffff\n        /* \"#utility.yul\":3085:3091   */\n      dup2\n        /* \"#utility.yul\":3082:3112   */\n      gt\n        /* \"#utility.yul\":3079:3129   */\n      iszero\n      tag_206\n      jumpi\n        /* \"#utility.yul\":3125:3126   */\n      0x00\n        /* \"#utility.yul\":3122:3123   */\n      dup1\n        /* \"#utility.yul\":3115:3127   */\n      revert\n        /* \"#utility.yul\":3079:3129   */\n    tag_206:\n        /* \"#utility.yul\":3164:3223   */\n      tag_207\n        /* \"#utility.yul\":3215:3222   */\n      dup7\n        /* \"#utility.yul\":3206:3212   */\n      dup3\n        /* \"#utility.yul\":3195:3204   */\n      dup8\n        /* \"#utility.yul\":3191:3213   */\n      add\n        /* \"#utility.yul\":3164:3223   */\n      tag_168\n      jump\t// in\n    tag_207:\n        /* \"#utility.yul\":3242:3250   */\n      swap1\n      swap5\n      pop\n        /* \"#utility.yul\":3138:3223   */\n      swap3\n      pop\n      pop\n        /* \"#utility.yul\":3327:3329   */\n      0x20\n        /* \"#utility.yul\":3312:3330   */\n      dup5\n      add\n        /* \"#utility.yul\":3299:3331   */\n      calldataload\n        /* \"#utility.yul\":3340:3368   */\n      tag_208\n        /* \"#utility.yul\":3299:3331   */\n      dup2\n        /* \"#utility.yul\":3340:3368   */\n      tag_170\n      jump\t// in\n    tag_208:\n        /* \"#utility.yul\":3387:3392   */\n      dup1\n        /* \"#utility.yul\":3377:3392   */\n      swap2\n      pop\n      pop\n        /* \"#utility.yul\":2858:3398   */\n      swap3\n      pop\n      swap3\n      pop\n      swap3\n      jump\t// out\n        /* \"#utility.yul\":3403:4298   */\n    tag_57:\n        /* \"#utility.yul\":3504:3510   */\n      0x00\n        /* \"#utility.yul\":3512:3518   */\n      dup1\n        /* \"#utility.yul\":3520:3526   */\n      0x00\n        /* \"#utility.yul\":3528:3534   */\n      dup1\n        /* \"#utility.yul\":3536:3542   */\n      0x00\n        /* \"#utility.yul\":3589:3591   */\n      0x60\n        /* \"#utility.yul\":3577:3586   */\n      dup7\n        /* \"#utility.yul\":3568:3575   */\n      dup9\n        /* \"#utility.yul\":3564:3587   */\n      sub\n        /* \"#utility.yul\":3560:3592   */\n      slt\n        /* \"#utility.yul\":3557:3609   */\n      iszero\n      tag_210\n      jumpi\n        /* \"#utility.yul\":3605:3606   */\n      0x00\n        /* \"#utility.yul\":3602:3603   */\n      dup1\n        /* \"#utility.yul\":3595:3607   */\n      revert\n        /* \"#utility.yul\":3557:3609   */\n    tag_210:\n        /* \"#utility.yul\":3645:3654   */\n      dup6\n        /* \"#utility.yul\":3632:3655   */\n      calldataload\n        /* \"#utility.yul\":3674:3692   */\n      0xffffffffffffffff\n        /* \"#utility.yul\":3715:3717   */\n      dup1\n        /* \"#utility.yul\":3707:3713   */\n      dup3\n        /* \"#utility.yul\":3704:3718   */\n      gt\n        /* \"#utility.yul\":3701:3735   */\n      iszero\n      tag_211\n      jumpi\n        /* \"#utility.yul\":3731:3732   */\n      0x00\n        /* \"#utility.yul\":3728:3729   */\n      dup1\n        /* \"#utility.yul\":3721:3733   */\n      revert\n        /* \"#utility.yul\":3701:3735   */\n    tag_211:\n        /* \"#utility.yul\":3770:3829   */\n      tag_212\n        /* \"#utility.yul\":3821:3828   */\n      dup10\n        /* \"#utility.yul\":3812:3818   */\n      dup4\n        /* \"#utility.yul\":3801:3810   */\n      dup11\n        /* \"#utility.yul\":3797:3819   */\n      add\n        /* \"#utility.yul\":3770:3829   */\n      tag_168\n      jump\t// in\n    tag_212:\n        /* \"#utility.yul\":3848:3856   */\n      swap1\n      swap8\n      pop\n        /* \"#utility.yul\":3744:3829   */\n      swap6\n      pop\n        /* \"#utility.yul\":3936:3938   */\n      0x20\n        /* \"#utility.yul\":3921:3939   */\n      dup9\n      add\n        /* \"#utility.yul\":3908:3940   */\n      calldataload\n      swap2\n      pop\n        /* \"#utility.yul\":3952:3968   */\n      dup1\n      dup3\n      gt\n        /* \"#utility.yul\":3949:3985   */\n      iszero\n      tag_213\n      jumpi\n        /* \"#utility.yul\":3981:3982   */\n      0x00\n        /* \"#utility.yul\":3978:3979   */\n      dup1\n        /* \"#utility.yul\":3971:3983   */\n      revert\n        /* \"#utility.yul\":3949:3985   */\n    tag_213:\n      pop\n        /* \"#utility.yul\":4020:4081   */\n      tag_214\n        /* \"#utility.yul\":4073:4080   */\n      dup9\n        /* \"#utility.yul\":4062:4070   */\n      dup3\n        /* \"#utility.yul\":4051:4060   */\n      dup10\n        /* \"#utility.yul\":4047:4071   */\n      add\n        /* \"#utility.yul\":4020:4081   */\n      tag_168\n      jump\t// in\n    tag_214:\n        /* \"#utility.yul\":4100:4108   */\n      swap1\n      swap5\n      pop\n        /* \"#utility.yul\":3994:4081   */\n      swap3\n      pop\n      pop\n        /* \"#utility.yul\":4185:4187   */\n      0x40\n        /* \"#utility.yul\":4170:4188   */\n      dup7\n      add\n        /* \"#utility.yul\":4157:4189   */\n      calldataload\n      sub(shl(0xa0, 0x01), 0x01)\n        /* \"#utility.yul\":4218:4249   */\n      dup2\n      and\n        /* \"#utility.yul\":4208:4250   */\n      dup2\n      eq\n        /* \"#utility.yul\":4198:4268   */\n      tag_215\n      jumpi\n        /* \"#utility.yul\":4264:4265   */\n      0x00\n        /* \"#utility.yul\":4261:4262   */\n      dup1\n        /* \"#utility.yul\":4254:4266   */\n      revert\n        /* \"#utility.yul\":4198:4268   */\n    tag_215:\n        /* \"#utility.yul\":4287:4292   */\n      dup1\n        /* \"#utility.yul\":4277:4292   */\n      swap2\n      pop\n      pop\n        /* \"#utility.yul\":3403:4298   */\n      swap3\n      swap6\n      pop\n      swap3\n      swap6\n      swap1\n      swap4\n      pop\n      jump\t// out\n        /* \"#utility.yul\":4303:4592   */\n    tag_171:\n        /* \"#utility.yul\":4345:4348   */\n      0x00\n        /* \"#utility.yul\":4383:4388   */\n      dup2\n        /* \"#utility.yul\":4377:4389   */\n      mload\n        /* \"#utility.yul\":4410:4416   */\n      dup1\n        /* \"#utility.yul\":4405:4408   */\n      dup5\n        /* \"#utility.yul\":4398:4417   */\n      mstore\n        /* \"#utility.yul\":4466:4472   */\n      dup1\n        /* \"#utility.yul\":4459:4463   */\n      0x20\n        /* \"#utility.yul\":4452:4457   */\n      dup5\n        /* \"#utility.yul\":4448:4464   */\n      add\n        /* \"#utility.yul\":4441:4445   */\n      0x20\n        /* \"#utility.yul\":4436:4439   */\n      dup7\n        /* \"#utility.yul\":4432:4446   */\n      add\n        /* \"#utility.yul\":4426:4473   */\n      mcopy\n        /* \"#utility.yul\":4518:4519   */\n      0x00\n        /* \"#utility.yul\":4511:4515   */\n      0x20\n        /* \"#utility.yul\":4502:4508   */\n      dup3\n        /* \"#utility.yul\":4497:4500   */\n      dup7\n        /* \"#utility.yul\":4493:4509   */\n      add\n        /* \"#utility.yul\":4489:4516   */\n      add\n        /* \"#utility.yul\":4482:4520   */\n      mstore\n        /* \"#utility.yul\":4581:4585   */\n      0x20\n        /* \"#utility.yul\":4574:4576   */\n      0x1f\n        /* \"#utility.yul\":4570:4577   */\n      not\n        /* \"#utility.yul\":4565:4567   */\n      0x1f\n        /* \"#utility.yul\":4557:4563   */\n      dup4\n        /* \"#utility.yul\":4553:4568   */\n      add\n        /* \"#utility.yul\":4549:4578   */\n      and\n        /* \"#utility.yul\":4544:4547   */\n      dup6\n        /* \"#utility.yul\":4540:4579   */\n      add\n        /* \"#utility.yul\":4536:4586   */\n      add\n        /* \"#utility.yul\":4529:4586   */\n      swap2\n      pop\n      pop\n        /* \"#utility.yul\":4303:4592   */\n      swap3\n      swap2\n      pop\n      pop\n      jump\t// out\n        /* \"#utility.yul\":4597:5270   */\n    tag_63:\n        /* \"#utility.yul\":4782:4784   */\n      0x20\n        /* \"#utility.yul\":4771:4780   */\n      dup2\n        /* \"#utility.yul\":4764:4785   */\n      mstore\n        /* \"#utility.yul\":4745:4749   */\n      0x00\n        /* \"#utility.yul\":4820:4826   */\n      dup3\n        /* \"#utility.yul\":4814:4827   */\n      mload\n        /* \"#utility.yul\":4863:4867   */\n      0xa0\n        /* \"#utility.yul\":4858:4860   */\n      0x20\n        /* \"#utility.yul\":4847:4856   */\n      dup5\n        /* \"#utility.yul\":4843:4861   */\n      add\n        /* \"#utility.yul\":4836:4868   */\n      mstore\n        /* \"#utility.yul\":4891:4943   */\n      tag_218\n        /* \"#utility.yul\":4938:4941   */\n      0xc0\n        /* \"#utility.yul\":4927:4936   */\n      dup5\n        /* \"#utility.yul\":4923:4942   */\n      add\n        /* \"#utility.yul\":4909:4921   */\n      dup3\n        /* \"#utility.yul\":4891:4943   */\n      tag_171\n      jump\t// in\n    tag_218:\n        /* \"#utility.yul\":4877:4943   */\n      swap1\n      pop\n        /* \"#utility.yul\":5024:5025   */\n      0x01\n        /* \"#utility.yul\":5020:5021   */\n      dup1\n        /* \"#utility.yul\":5015:5018   */\n      0xa0\n        /* \"#utility.yul\":5011:5022   */\n      shl\n        /* \"#utility.yul\":5007:5026   */\n      sub\n        /* \"#utility.yul\":5001:5003   */\n      0x20\n        /* \"#utility.yul\":4993:4999   */\n      dup6\n        /* \"#utility.yul\":4989:5004   */\n      add\n        /* \"#utility.yul\":4983:5005   */\n      mload\n        /* \"#utility.yul\":4979:5027   */\n      and\n        /* \"#utility.yul\":4974:4976   */\n      0x40\n        /* \"#utility.yul\":4963:4972   */\n      dup5\n        /* \"#utility.yul\":4959:4977   */\n      add\n        /* \"#utility.yul\":4952:5028   */\n      mstore\n        /* \"#utility.yul\":5096:5098   */\n      0x40\n        /* \"#utility.yul\":5088:5094   */\n      dup5\n        /* \"#utility.yul\":5084:5099   */\n      add\n        /* \"#utility.yul\":5078:5100   */\n      mload\n        /* \"#utility.yul\":5071:5101   */\n      iszero\n        /* \"#utility.yul\":5064:5102   */\n      iszero\n        /* \"#utility.yul\":5059:5061   */\n      0x60\n        /* \"#utility.yul\":5048:5057   */\n      dup5\n        /* \"#utility.yul\":5044:5062   */\n      add\n        /* \"#utility.yul\":5037:5103   */\n      mstore\n        /* \"#utility.yul\":5158:5160   */\n      0x60\n        /* \"#utility.yul\":5150:5156   */\n      dup5\n        /* \"#utility.yul\":5146:5161   */\n      add\n        /* \"#utility.yul\":5140:5162   */\n      mload\n        /* \"#utility.yul\":5134:5137   */\n      0x80\n        /* \"#utility.yul\":5123:5132   */\n      dup5\n        /* \"#utility.yul\":5119:5138   */\n      add\n        /* \"#utility.yul\":5112:5163   */\n      mstore\n        /* \"#utility.yul\":5233:5236   */\n      0x80\n        /* \"#utility.yul\":5225:5231   */\n      dup5\n        /* \"#utility.yul\":5221:5237   */\n      add\n        /* \"#utility.yul\":5215:5238   */\n      mload\n        /* \"#utility.yul\":5208:5239   */\n      iszero\n        /* \"#utility.yul\":5201:5240   */\n      iszero\n        /* \"#utility.yul\":5194:5198   */\n      0xa0\n        /* \"#utility.yul\":5183:5192   */\n      dup5\n        /* \"#utility.yul\":5179:5199   */\n      add\n        /* \"#utility.yul\":5172:5241   */\n      mstore\n        /* \"#utility.yul\":5258:5264   */\n      dup1\n        /* \"#utility.yul\":5250:5264   */\n      swap2\n      pop\n      pop\n        /* \"#utility.yul\":4597:5270   */\n      swap3\n      swap2\n      pop\n      pop\n      jump\t// out\n        /* \"#utility.yul\":5275:5548   */\n    tag_66:\n        /* \"#utility.yul\":5460:5466   */\n      dup2\n        /* \"#utility.yul\":5452:5458   */\n      dup4\n        /* \"#utility.yul\":5447:5450   */\n      dup3\n        /* \"#utility.yul\":5434:5467   */\n      calldatacopy\n        /* \"#utility.yul\":5416:5419   */\n      0x00\n        /* \"#utility.yul\":5486:5502   */\n      swap2\n      add\n        /* \"#utility.yul\":5511:5524   */\n      swap1\n      dup2\n      mstore\n        /* \"#utility.yul\":5486:5502   */\n      swap2\n        /* \"#utility.yul\":5275:5548   */\n      swap1\n      pop\n      jump\t// out\n        /* \"#utility.yul\":5553:5856   */\n    tag_69:\n        /* \"#utility.yul\":5684:5687   */\n      0x00\n        /* \"#utility.yul\":5722:5728   */\n      dup3\n        /* \"#utility.yul\":5716:5729   */\n      mload\n        /* \"#utility.yul\":5768:5774   */\n      dup1\n        /* \"#utility.yul\":5761:5765   */\n      0x20\n        /* \"#utility.yul\":5753:5759   */\n      dup6\n        /* \"#utility.yul\":5749:5766   */\n      add\n        /* \"#utility.yul\":5744:5747   */\n      dup5\n        /* \"#utility.yul\":5738:5775   */\n      mcopy\n        /* \"#utility.yul\":5830:5831   */\n      0x00\n        /* \"#utility.yul\":5794:5810   */\n      swap3\n      add\n        /* \"#utility.yul\":5819:5832   */\n      swap2\n      dup3\n      mstore\n      pop\n        /* \"#utility.yul\":5794:5810   */\n      swap2\n        /* \"#utility.yul\":5553:5856   */\n      swap1\n      pop\n      jump\t// out\n        /* \"#utility.yul\":5861:6207   */\n    tag_72:\n        /* \"#utility.yul\":6063:6065   */\n      0x20\n        /* \"#utility.yul\":6045:6066   */\n      dup1\n      dup3\n      mstore\n        /* \"#utility.yul\":6102:6104   */\n      0x16\n        /* \"#utility.yul\":6082:6100   */\n      swap1\n      dup3\n      add\n        /* \"#utility.yul\":6075:6105   */\n      mstore\n      shl(0x52, 0x1058d8dbdd5b9d081b9bdd081c9959da5cdd195c9959)\n        /* \"#utility.yul\":6136:6138   */\n      0x40\n        /* \"#utility.yul\":6121:6139   */\n      dup3\n      add\n        /* \"#utility.yul\":6114:6166   */\n      mstore\n        /* \"#utility.yul\":6198:6200   */\n      0x60\n        /* \"#utility.yul\":6183:6201   */\n      add\n      swap1\n        /* \"#utility.yul\":5861:6207   */\n      jump\t// out\n        /* \"#utility.yul\":6560:6940   */\n    tag_134:\n        /* \"#utility.yul\":6639:6640   */\n      0x01\n        /* \"#utility.yul\":6635:6647   */\n      dup2\n      dup2\n      shr\n      swap1\n        /* \"#utility.yul\":6682:6694   */\n      dup3\n      and\n      dup1\n        /* \"#utility.yul\":6703:6764   */\n      tag_224\n      jumpi\n        /* \"#utility.yul\":6757:6761   */\n      0x7f\n        /* \"#utility.yul\":6749:6755   */\n      dup3\n        /* \"#utility.yul\":6745:6762   */\n      and\n        /* \"#utility.yul\":6735:6762   */\n      swap2\n      pop\n        /* \"#utility.yul\":6703:6764   */\n    tag_224:\n        /* \"#utility.yul\":6810:6812   */\n      0x20\n        /* \"#utility.yul\":6802:6808   */\n      dup3\n        /* \"#utility.yul\":6799:6813   */\n      lt\n        /* \"#utility.yul\":6779:6797   */\n      dup2\n        /* \"#utility.yul\":6776:6814   */\n      sub\n        /* \"#utility.yul\":6773:6934   */\n      tag_77\n      jumpi\n        /* \"#utility.yul\":6856:6866   */\n      0x4e487b71\n        /* \"#utility.yul\":6851:6854   */\n      0xe0\n        /* \"#utility.yul\":6847:6867   */\n      shl\n        /* \"#utility.yul\":6844:6845   */\n      0x00\n        /* \"#utility.yul\":6837:6868   */\n      mstore\n        /* \"#utility.yul\":6891:6895   */\n      0x22\n        /* \"#utility.yul\":6888:6889   */\n      0x04\n        /* \"#utility.yul\":6881:6896   */\n      mstore\n        /* \"#utility.yul\":6919:6923   */\n      0x24\n        /* \"#utility.yul\":6916:6917   */\n      0x00\n        /* \"#utility.yul\":6909:6924   */\n      revert\n        /* \"#utility.yul\":7071:7914   */\n    tag_84:\n        /* \"#utility.yul\":7199:7202   */\n      0x00\n        /* \"#utility.yul\":7228:7229   */\n      dup1\n        /* \"#utility.yul\":7261:7267   */\n      dup4\n        /* \"#utility.yul\":7255:7268   */\n      sload\n        /* \"#utility.yul\":7291:7327   */\n      tag_228\n        /* \"#utility.yul\":7317:7326   */\n      dup2\n        /* \"#utility.yul\":7291:7327   */\n      tag_134\n      jump\t// in\n    tag_228:\n        /* \"#utility.yul\":7346:7347   */\n      0x01\n        /* \"#utility.yul\":7363:7380   */\n      dup3\n      dup2\n      and\n        /* \"#utility.yul\":7389:7522   */\n      dup1\n      iszero\n      tag_230\n      jumpi\n        /* \"#utility.yul\":7536:7537   */\n      0x01\n        /* \"#utility.yul\":7531:7889   */\n      dup2\n      eq\n      tag_231\n      jumpi\n        /* \"#utility.yul\":7356:7889   */\n      jump(tag_229)\n        /* \"#utility.yul\":7389:7522   */\n    tag_230:\n      not(0xff)\n        /* \"#utility.yul\":7422:7446   */\n      dup5\n      and\n        /* \"#utility.yul\":7410:7447   */\n      dup8\n      mstore\n        /* \"#utility.yul\":7495:7509   */\n      dup3\n      iszero\n        /* \"#utility.yul\":7488:7510   */\n      iszero\n        /* \"#utility.yul\":7476:7511   */\n      dup4\n      mul\n        /* \"#utility.yul\":7467:7512   */\n      dup8\n      add\n      swap5\n      pop\n        /* \"#utility.yul\":7389:7522   */\n      jump(tag_229)\n        /* \"#utility.yul\":7531:7889   */\n    tag_231:\n        /* \"#utility.yul\":7562:7568   */\n      dup8\n        /* \"#utility.yul\":7559:7560   */\n      0x00\n        /* \"#utility.yul\":7552:7569   */\n      mstore\n        /* \"#utility.yul\":7592:7596   */\n      0x20\n        /* \"#utility.yul\":7637:7641   */\n      dup1\n        /* \"#utility.yul\":7634:7635   */\n      0x00\n        /* \"#utility.yul\":7624:7642   */\n      keccak256\n        /* \"#utility.yul\":7664:7665   */\n      0x00\n        /* \"#utility.yul\":7678:7843   */\n    tag_232:\n        /* \"#utility.yul\":7692:7698   */\n      dup6\n        /* \"#utility.yul\":7689:7690   */\n      dup2\n        /* \"#utility.yul\":7686:7699   */\n      lt\n        /* \"#utility.yul\":7678:7843   */\n      iszero\n      tag_234\n      jumpi\n        /* \"#utility.yul\":7770:7784   */\n      dup2\n      sload\n        /* \"#utility.yul\":7757:7768   */\n      dup11\n      dup3\n      add\n        /* \"#utility.yul\":7750:7785   */\n      mstore\n        /* \"#utility.yul\":7813:7829   */\n      swap1\n      dup5\n      add\n      swap1\n        /* \"#utility.yul\":7707:7717   */\n      dup3\n      add\n        /* \"#utility.yul\":7678:7843   */\n      jump(tag_232)\n    tag_234:\n        /* \"#utility.yul\":7682:7685   */\n      pop\n      pop\n      pop\n        /* \"#utility.yul\":7872:7878   */\n      dup3\n        /* \"#utility.yul\":7867:7870   */\n      dup8\n        /* \"#utility.yul\":7863:7879   */\n      add\n        /* \"#utility.yul\":7856:7879   */\n      swap5\n      pop\n        /* \"#utility.yul\":7356:7889   */\n    tag_229:\n      pop\n        /* \"#utility.yul\":7905:7908   */\n      swap3\n      swap7\n        /* \"#utility.yul\":7071:7914   */\n      swap6\n      pop\n      pop\n      pop\n      pop\n      pop\n      pop\n      jump\t// out\n        /* \"#utility.yul\":8127:8372   */\n    tag_96:\n        /* \"#utility.yul\":8194:8200   */\n      0x00\n        /* \"#utility.yul\":8247:8249   */\n      0x20\n        /* \"#utility.yul\":8235:8244   */\n      dup3\n        /* \"#utility.yul\":8226:8233   */\n      dup5\n        /* \"#utility.yul\":8222:8245   */\n      sub\n        /* \"#utility.yul\":8218:8250   */\n      slt\n        /* \"#utility.yul\":8215:8267   */\n      iszero\n      tag_237\n      jumpi\n        /* \"#utility.yul\":8263:8264   */\n      0x00\n        /* \"#utility.yul\":8260:8261   */\n      dup1\n        /* \"#utility.yul\":8253:8265   */\n      revert\n        /* \"#utility.yul\":8215:8267   */\n    tag_237:\n        /* \"#utility.yul\":8295:8304   */\n      dup2\n        /* \"#utility.yul\":8289:8305   */\n      mload\n        /* \"#utility.yul\":8314:8342   */\n      tag_238\n        /* \"#utility.yul\":8336:8341   */\n      dup2\n        /* \"#utility.yul\":8314:8342   */\n      tag_170\n      jump\t// in\n    tag_238:\n        /* \"#utility.yul\":8361:8366   */\n      swap4\n        /* \"#utility.yul\":8127:8372   */\n      swap3\n      pop\n      pop\n      pop\n      jump\t// out\n        /* \"#utility.yul\":8377:8783   */\n    tag_99:\n        /* \"#utility.yul\":8579:8581   */\n      0x20\n        /* \"#utility.yul\":8561:8582   */\n      dup1\n      dup3\n      mstore\n        /* \"#utility.yul\":8618:8620   */\n      0x2a\n        /* \"#utility.yul\":8598:8616   */\n      swap1\n      dup3\n      add\n        /* \"#utility.yul\":8591:8621   */\n      mstore\n        /* \"#utility.yul\":8657:8691   */\n      0x43616c6c6572206973206e6f7420616e2061646d696e206f72206261636b656e\n        /* \"#utility.yul\":8652:8654   */\n      0x40\n        /* \"#utility.yul\":8637:8655   */\n      dup3\n      add\n        /* \"#utility.yul\":8630:8692   */\n      mstore\n      shl(0xb1, 0x321030b2323932b9b997)\n        /* \"#utility.yul\":8723:8725   */\n      0x60\n        /* \"#utility.yul\":8708:8726   */\n      dup3\n      add\n        /* \"#utility.yul\":8701:8741   */\n      mstore\n        /* \"#utility.yul\":8773:8776   */\n      0x80\n        /* \"#utility.yul\":8758:8777   */\n      add\n      swap1\n        /* \"#utility.yul\":8377:8783   */\n      jump\t// out\n        /* \"#utility.yul\":9143:9661   */\n    tag_173:\n        /* \"#utility.yul\":9245:9247   */\n      0x1f\n        /* \"#utility.yul\":9240:9243   */\n      dup3\n        /* \"#utility.yul\":9237:9248   */\n      gt\n        /* \"#utility.yul\":9234:9655   */\n      iszero\n      tag_242\n      jumpi\n        /* \"#utility.yul\":9281:9286   */\n      dup1\n        /* \"#utility.yul\":9278:9279   */\n      0x00\n        /* \"#utility.yul\":9271:9287   */\n      mstore\n        /* \"#utility.yul\":9325:9329   */\n      0x20\n        /* \"#utility.yul\":9322:9323   */\n      0x00\n        /* \"#utility.yul\":9312:9330   */\n      keccak256\n        /* \"#utility.yul\":9395:9397   */\n      0x1f\n        /* \"#utility.yul\":9383:9393   */\n      dup5\n        /* \"#utility.yul\":9379:9398   */\n      add\n        /* \"#utility.yul\":9376:9377   */\n      0x05\n        /* \"#utility.yul\":9372:9399   */\n      shr\n        /* \"#utility.yul\":9366:9370   */\n      dup2\n        /* \"#utility.yul\":9362:9400   */\n      add\n        /* \"#utility.yul\":9431:9435   */\n      0x20\n        /* \"#utility.yul\":9419:9429   */\n      dup6\n        /* \"#utility.yul\":9416:9436   */\n      lt\n        /* \"#utility.yul\":9413:9460   */\n      iszero\n      tag_243\n      jumpi\n      pop\n        /* \"#utility.yul\":9454:9458   */\n      dup1\n        /* \"#utility.yul\":9413:9460   */\n    tag_243:\n        /* \"#utility.yul\":9509:9511   */\n      0x1f\n        /* \"#utility.yul\":9504:9507   */\n      dup5\n        /* \"#utility.yul\":9500:9512   */\n      add\n        /* \"#utility.yul\":9497:9498   */\n      0x05\n        /* \"#utility.yul\":9493:9513   */\n      shr\n        /* \"#utility.yul\":9487:9491   */\n      dup3\n        /* \"#utility.yul\":9483:9514   */\n      add\n        /* \"#utility.yul\":9473:9514   */\n      swap2\n      pop\n        /* \"#utility.yul\":9564:9645   */\n    tag_244:\n        /* \"#utility.yul\":9582:9584   */\n      dup2\n        /* \"#utility.yul\":9575:9580   */\n      dup2\n        /* \"#utility.yul\":9572:9585   */\n      lt\n        /* \"#utility.yul\":9564:9645   */\n      iszero\n      tag_246\n      jumpi\n        /* \"#utility.yul\":9641:9642   */\n      0x00\n        /* \"#utility.yul\":9627:9643   */\n      dup2\n      sstore\n        /* \"#utility.yul\":9608:9609   */\n      0x01\n        /* \"#utility.yul\":9597:9610   */\n      add\n        /* \"#utility.yul\":9564:9645   */\n      jump(tag_244)\n    tag_246:\n        /* \"#utility.yul\":9568:9571   */\n      pop\n      pop\n        /* \"#utility.yul\":9234:9655   */\n    tag_242:\n        /* \"#utility.yul\":9143:9661   */\n      pop\n      pop\n      pop\n      jump\t// out\n        /* \"#utility.yul\":9837:11182   */\n    tag_125:\n        /* \"#utility.yul\":9963:9966   */\n      dup2\n        /* \"#utility.yul\":9957:9967   */\n      mload\n        /* \"#utility.yul\":9990:10008   */\n      0xffffffffffffffff\n        /* \"#utility.yul\":9982:9988   */\n      dup2\n        /* \"#utility.yul\":9979:10009   */\n      gt\n        /* \"#utility.yul\":9976:10032   */\n      iszero\n      tag_250\n      jumpi\n        /* \"#utility.yul\":10012:10030   */\n      tag_250\n      tag_145\n      jump\t// in\n    tag_250:\n        /* \"#utility.yul\":10041:10138   */\n      tag_251\n        /* \"#utility.yul\":10131:10137   */\n      dup2\n        /* \"#utility.yul\":10091:10129   */\n      tag_252\n        /* \"#utility.yul\":10123:10127   */\n      dup5\n        /* \"#utility.yul\":10117:10128   */\n      sload\n        /* \"#utility.yul\":10091:10129   */\n      tag_134\n      jump\t// in\n    tag_252:\n        /* \"#utility.yul\":10085:10089   */\n      dup5\n        /* \"#utility.yul\":10041:10138   */\n      tag_173\n      jump\t// in\n    tag_251:\n        /* \"#utility.yul\":10193:10197   */\n      0x20\n      dup1\n        /* \"#utility.yul\":10250:10252   */\n      0x1f\n        /* \"#utility.yul\":10239:10253   */\n      dup4\n      gt\n        /* \"#utility.yul\":10267:10268   */\n      0x01\n        /* \"#utility.yul\":10262:10925   */\n      dup2\n      eq\n      tag_254\n      jumpi\n        /* \"#utility.yul\":10969:10970   */\n      0x00\n        /* \"#utility.yul\":10986:10992   */\n      dup5\n        /* \"#utility.yul\":10983:11072   */\n      iszero\n      tag_255\n      jumpi\n      pop\n        /* \"#utility.yul\":11038:11057   */\n      dup6\n      dup4\n      add\n        /* \"#utility.yul\":11032:11058   */\n      mload\n        /* \"#utility.yul\":10983:11072   */\n    tag_255:\n      not(0x00)\n        /* \"#utility.yul\":9794:9795   */\n      0x03\n        /* \"#utility.yul\":9790:9801   */\n      dup7\n      swap1\n      shl\n        /* \"#utility.yul\":9786:9810   */\n      shr\n        /* \"#utility.yul\":9782:9811   */\n      not\n        /* \"#utility.yul\":9772:9812   */\n      and\n        /* \"#utility.yul\":9818:9819   */\n      0x01\n        /* \"#utility.yul\":9814:9825   */\n      dup6\n      swap1\n      shl\n        /* \"#utility.yul\":9769:9826   */\n      or\n        /* \"#utility.yul\":11085:11166   */\n      dup6\n      sstore\n        /* \"#utility.yul\":10232:11176   */\n      jump(tag_253)\n        /* \"#utility.yul\":10262:10925   */\n    tag_254:\n        /* \"#utility.yul\":7018:7019   */\n      0x00\n        /* \"#utility.yul\":7011:7025   */\n      dup6\n      dup2\n      mstore\n        /* \"#utility.yul\":7055:7059   */\n      0x20\n        /* \"#utility.yul\":7042:7060   */\n      dup2\n      keccak256\n      not(0x1f)\n        /* \"#utility.yul\":10298:10318   */\n      dup7\n      and\n      swap2\n        /* \"#utility.yul\":10416:10652   */\n    tag_258:\n        /* \"#utility.yul\":10430:10437   */\n      dup3\n        /* \"#utility.yul\":10427:10428   */\n      dup2\n        /* \"#utility.yul\":10424:10438   */\n      lt\n        /* \"#utility.yul\":10416:10652   */\n      iszero\n      tag_260\n      jumpi\n        /* \"#utility.yul\":10519:10538   */\n      dup9\n      dup7\n      add\n        /* \"#utility.yul\":10513:10539   */\n      mload\n        /* \"#utility.yul\":10498:10540   */\n      dup3\n      sstore\n        /* \"#utility.yul\":10611:10638   */\n      swap5\n      dup5\n      add\n      swap5\n        /* \"#utility.yul\":10579:10580   */\n      0x01\n        /* \"#utility.yul\":10567:10581   */\n      swap1\n      swap2\n      add\n      swap1\n        /* \"#utility.yul\":10446:10465   */\n      dup5\n      add\n        /* \"#utility.yul\":10416:10652   */\n      jump(tag_258)\n    tag_260:\n        /* \"#utility.yul\":10420:10423   */\n      pop\n        /* \"#utility.yul\":10680:10686   */\n      dup6\n        /* \"#utility.yul\":10671:10678   */\n      dup3\n        /* \"#utility.yul\":10668:10687   */\n      lt\n        /* \"#utility.yul\":10665:10866   */\n      iszero\n      tag_261\n      jumpi\n        /* \"#utility.yul\":10741:10760   */\n      dup8\n      dup6\n      add\n        /* \"#utility.yul\":10735:10761   */\n      mload\n      not(0x00)\n        /* \"#utility.yul\":10824:10825   */\n      0x03\n        /* \"#utility.yul\":10820:10834   */\n      dup9\n      swap1\n      shl\n        /* \"#utility.yul\":10836:10839   */\n      0xf8\n        /* \"#utility.yul\":10816:10840   */\n      and\n        /* \"#utility.yul\":10812:10849   */\n      shr\n        /* \"#utility.yul\":10808:10850   */\n      not\n        /* \"#utility.yul\":10793:10851   */\n      and\n        /* \"#utility.yul\":10778:10852   */\n      dup2\n      sstore\n        /* \"#utility.yul\":10665:10866   */\n    tag_261:\n      pop\n      pop\n        /* \"#utility.yul\":10912:10913   */\n      0x01\n        /* \"#utility.yul\":10903:10909   */\n      dup5\n        /* \"#utility.yul\":10900:10901   */\n      0x01\n        /* \"#utility.yul\":10896:10910   */\n      shl\n        /* \"#utility.yul\":10892:10914   */\n      add\n        /* \"#utility.yul\":10886:10890   */\n      dup6\n        /* \"#utility.yul\":10879:10915   */\n      sstore\n        /* \"#utility.yul\":10232:11176   */\n    tag_253:\n      pop\n      pop\n      pop\n      pop\n        /* \"#utility.yul\":9837:11182   */\n      pop\n      pop\n      jump\t// out\n        /* \"#utility.yul\":11187:11504   */\n    tag_128:\n        /* \"#utility.yul\":11364:11366   */\n      0x40\n        /* \"#utility.yul\":11353:11362   */\n      dup2\n        /* \"#utility.yul\":11346:11367   */\n      mstore\n        /* \"#utility.yul\":11327:11331   */\n      0x00\n        /* \"#utility.yul\":11384:11429   */\n      tag_263\n        /* \"#utility.yul\":11425:11427   */\n      0x40\n        /* \"#utility.yul\":11414:11423   */\n      dup4\n        /* \"#utility.yul\":11410:11428   */\n      add\n        /* \"#utility.yul\":11402:11408   */\n      dup6\n        /* \"#utility.yul\":11384:11429   */\n      tag_171\n      jump\t// in\n    tag_263:\n        /* \"#utility.yul\":11376:11429   */\n      swap1\n      pop\n        /* \"#utility.yul\":11494:11495   */\n      0x01\n        /* \"#utility.yul\":11490:11491   */\n      dup1\n        /* \"#utility.yul\":11485:11488   */\n      0xa0\n        /* \"#utility.yul\":11481:11492   */\n      shl\n        /* \"#utility.yul\":11477:11496   */\n      sub\n        /* \"#utility.yul\":11469:11475   */\n      dup4\n        /* \"#utility.yul\":11465:11497   */\n      and\n        /* \"#utility.yul\":11460:11462   */\n      0x20\n        /* \"#utility.yul\":11449:11458   */\n      dup4\n        /* \"#utility.yul\":11445:11463   */\n      add\n        /* \"#utility.yul\":11438:11498   */\n      mstore\n        /* \"#utility.yul\":11187:11504   */\n      swap4\n      swap3\n      pop\n      pop\n      pop\n      jump\t// out\n        /* \"#utility.yul\":11509:11636   */\n    tag_152:\n        /* \"#utility.yul\":11570:11580   */\n      0x4e487b71\n        /* \"#utility.yul\":11565:11568   */\n      0xe0\n        /* \"#utility.yul\":11561:11581   */\n      shl\n        /* \"#utility.yul\":11558:11559   */\n      0x00\n        /* \"#utility.yul\":11551:11582   */\n      mstore\n        /* \"#utility.yul\":11601:11605   */\n      0x32\n        /* \"#utility.yul\":11598:11599   */\n      0x04\n        /* \"#utility.yul\":11591:11606   */\n      mstore\n        /* \"#utility.yul\":11625:11629   */\n      0x24\n        /* \"#utility.yul\":11622:11623   */\n      0x00\n        /* \"#utility.yul\":11615:11630   */\n      revert\n        /* \"#utility.yul\":11641:11886   */\n    tag_160:\n        /* \"#utility.yul\":11729:11733   */\n      0xff\n        /* \"#utility.yul\":11708:11720   */\n      dup2\n      dup2\n      and\n        /* \"#utility.yul\":11722:11734   */\n      dup4\n      dup3\n      and\n        /* \"#utility.yul\":11704:11735   */\n      add\n      swap1\n        /* \"#utility.yul\":11747:11760   */\n      dup2\n      gt\n        /* \"#utility.yul\":11744:11880   */\n      iszero\n      tag_78\n      jumpi\n        /* \"#utility.yul\":11802:11812   */\n      0x4e487b71\n        /* \"#utility.yul\":11797:11800   */\n      0xe0\n        /* \"#utility.yul\":11793:11813   */\n      shl\n        /* \"#utility.yul\":11790:11791   */\n      0x00\n        /* \"#utility.yul\":11783:11814   */\n      mstore\n        /* \"#utility.yul\":11837:11841   */\n      0x11\n        /* \"#utility.yul\":11834:11835   */\n      0x04\n        /* \"#utility.yul\":11827:11842   */\n      mstore\n        /* \"#utility.yul\":11865:11869   */\n      0x24\n        /* \"#utility.yul\":11862:11863   */\n      0x00\n        /* \"#utility.yul\":11855:11870   */\n      revert\n\n    auxdata: 0xa26469706673582212201dfd89d2f5e538adfe5bfda2ef8729d25978beb20d058b1a90e3b78df7cadc6c64736f6c63430008190033\n}\n",
				"bytecode": {
					"linkReferences": {},
					"object": "6080604052348015600e575f80fd5b506040516111d43803806111d4833981016040819052602b91604e565b5f80546001600160a01b0319166001600160a01b03929092169190911790556079565b5f60208284031215605d575f80fd5b81516001600160a01b03811681146072575f80fd5b9392505050565b61114e806100865f395ff3fe608060405234801561000f575f80fd5b50600436106100b1575f3560e01c8063c822d7f01161006e578063c822d7f014610188578063cb3e1fe71461019b578063cd367584146101c2578063e7705db6146101d5578063ea46f8e3146101fc578063f3f9f2671461020f575f80fd5b806320884f70146100b5578063518ab27b146100ca57806375b238fc146100f257806376082a5e1461012757806392c2becc1461014e578063a8b0773514610175575b5f80fd5b6100c86100c3366004610b78565b61022f565b005b6100dd6100d8366004610c54565b610259565b60405190151581526020015b60405180910390f35b6101197fa49807205ce4d355092ef5a8a18f56e8913cf4a201fbe287825b095693c2177581565b6040519081526020016100e9565b6101197fb165298935924f540e4181c03493a5d686c54a0aaeb3f6216de85b7ffbba773881565b6101197f25cf2b509f2a7f322675b2a5322b182f44ad2c03ac941a0af17c9b178f5d5d5f81565b6100dd610183366004610c8e565b610322565b6100dd610196366004610c54565b61039e565b6101197f8eb467f061ca67f42a2d2ca4a346fc9fb645efc0ba75056ee9f71c3a0ccc10a881565b6100c86101d0366004610ce0565b6103e2565b6101197f0ce23c3e399818cfee81a7ab0880f714e53d7672b08df0fa62f2843416e1ea0981565b6100c861020a366004610d33565b61056e565b61022261021d366004610b78565b6107f9565b6040516100e99190610dea565b4260018383604051610242929190610e45565b908152604051908190036020019020600201555050565b5f8160018160405161026b9190610e54565b9081526040519081900360200190206003015460ff166102a65760405162461bcd60e51b815260040161029d90610e6a565b60405180910390fd5b6001816040516102b69190610e54565b9081526040519081900360200190206001015460ff600160a01b90910416156103175760405162461bcd60e51b81526020600482015260136024820152721058d8dbdd5b9d08189b1858dadb1a5cdd1959606a1b604482015260640161029d565b600191505b50919050565b5f61032c82610923565b60405160200161033c9190610e54565b604051602081830303815290604052805190602001206001846040516103629190610e54565b9081526040516020918190038201812061037e92909101610ecc565b604051602081830303815290604052805190602001201490505b92915050565b5f816001816040516103b09190610e54565b9081526040519081900360200190206003015460ff166103175760405162461bcd60e51b815260040161029d90610e6a565b5f546040516349e89cc760e11b81523360048201526001600160a01b03909116906393d1398e90602401602060405180830381865afa158015610427573d5f803e3d5ffd5b505050506040513d601f19601f8201168201806040525081019061044b9190610f3e565b6104675760405162461bcd60e51b815260040161029d90610f60565b82828080601f0160208091040260200160405190810160405280939291908181526020018383808284375f9201919091525050604051600192506104ad91508390610e54565b9081526040519081900360200190206003015460ff166104df5760405162461bcd60e51b815260040161029d90610e6a565b81600185856040516104f2929190610e45565b9081526040519081900360200181206001018054921515600160a01b0260ff60a01b199093169290921790915561052c9085908590610e45565b6040519081900381208315158252907f62bfd135dde7dcb1853c9e9e971372460194c791876483c80577bf3028691e489060200160405180910390a250505050565b5f546040516349e89cc760e11b81523360048201526001600160a01b03909116906393d1398e90602401602060405180830381865afa1580156105b3573d5f803e3d5ffd5b505050506040513d601f19601f820116820180604052508101906105d79190610f3e565b6105f35760405162461bcd60e51b815260040161029d90610f60565b5f61063286868080601f0160208091040260200160405190810160405280939291908181526020018383808284375f920191909152506109df92505050565b90505f61067385858080601f0160208091040260200160405190810160405280939291908181526020018383808284375f920191909152506109df92505050565b90506001826040516106859190610e54565b9081526040519081900360200190206003015460ff16156106e85760405162461bcd60e51b815260206004820152601a60248201527f4163636f756e7420616c72656164792072656769737465726564000000000000604482015260640161029d565b6040805160a0810182528281526001600160a01b03851660208201525f818301524260608201526001608082018190529151909190610728908590610e54565b908152604051908190036020019020815181906107459082610ff6565b5060208201516001820180546040808601511515600160a01b026001600160a81b03199092166001600160a01b0390941693909317179055606083015160028301556080909201516003909101805491151560ff19909216919091179055516107af908390610e54565b60405180910390207f15fe06bcd718db76e0542b653589a63f11b9a7e090d89e436200f6faec8a0c1082856040516107e89291906110b6565b60405180910390a250505050505050565b6040805160a08101825260608082525f60208301819052828401819052908201819052608082015290516001906108339085908590610e45565b90815260200160405180910390206040518060a00160405290815f8201805461085b90610e9a565b80601f016020809104026020016040519081016040528092919081815260200182805461088790610e9a565b80156108d25780601f106108a9576101008083540402835291602001916108d2565b820191905f5260205f20905b8154815290600101906020018083116108b557829003601f168201915b505050918352505060018201546001600160a01b0381166020830152600160a01b900460ff908116151560408301526002830154606083015260039092015490911615156080909101529392505050565b60607f8eb467f061ca67f42a2d2ca4a346fc9fb645efc0ba75056ee9f71c3a0ccc10a88203610970575050604080518082019091526008815267383937b23ab1b2b960c11b602082015290565b7f0ce23c3e399818cfee81a7ab0880f714e53d7672b08df0fa62f2843416e1ea0982036109bb5750506040805180820190915260088152673b32b934b334b2b960c11b602082015290565b505060408051808201909152600881526734b73b32b9ba37b960c11b602082015290565b60605f8290505f815167ffffffffffffffff811115610a0057610a00610bb7565b6040519080825280601f01601f191660200182016040528015610a2a576020820181803683370190505b5090505f5b8251811015610b2b576041838281518110610a4c57610a4c6110df565b016020015160f81c10801590610a7c5750605a838281518110610a7157610a716110df565b016020015160f81c11155b15610add57828181518110610a9357610a936110df565b602001015160f81c60f81b60f81c6020610aad91906110f3565b60f81b828281518110610ac257610ac26110df565b60200101906001600160f81b03191690815f1a905350610b23565b828181518110610aef57610aef6110df565b602001015160f81c60f81b828281518110610b0c57610b0c6110df565b60200101906001600160f81b03191690815f1a9053505b600101610a2f565b509392505050565b5f8083601f840112610b43575f80fd5b50813567ffffffffffffffff811115610b5a575f80fd5b602083019150836020828501011115610b71575f80fd5b9250929050565b5f8060208385031215610b89575f80fd5b823567ffffffffffffffff811115610b9f575f80fd5b610bab85828601610b33565b90969095509350505050565b634e487b7160e01b5f52604160045260245ffd5b5f82601f830112610bda575f80fd5b813567ffffffffffffffff80821115610bf557610bf5610bb7565b604051601f8301601f19908116603f01168101908282118183101715610c1d57610c1d610bb7565b81604052838152866020858801011115610c35575f80fd5b836020870160208301375f602085830101528094505050505092915050565b5f60208284031215610c64575f80fd5b813567ffffffffffffffff811115610c7a575f80fd5b610c8684828501610bcb565b949350505050565b5f8060408385031215610c9f575f80fd5b823567ffffffffffffffff811115610cb5575f80fd5b610cc185828601610bcb565b95602094909401359450505050565b8015158114610cdd575f80fd5b50565b5f805f60408486031215610cf2575f80fd5b833567ffffffffffffffff811115610d08575f80fd5b610d1486828701610b33565b9094509250506020840135610d2881610cd0565b809150509250925092565b5f805f805f60608688031215610d47575f80fd5b853567ffffffffffffffff80821115610d5e575f80fd5b610d6a89838a01610b33565b90975095506020880135915080821115610d82575f80fd5b50610d8f88828901610b33565b90945092505060408601356001600160a01b0381168114610dae575f80fd5b809150509295509295909350565b5f81518084528060208401602086015e5f602082860101526020601f19601f83011685010191505092915050565b602081525f825160a06020840152610e0560c0840182610dbc565b905060018060a01b036020850151166040840152604084015115156060840152606084015160808401526080840151151560a08401528091505092915050565b818382375f9101908152919050565b5f82518060208501845e5f920191825250919050565b6020808252601690820152751058d8dbdd5b9d081b9bdd081c9959da5cdd195c995960521b604082015260600190565b600181811c90821680610eae57607f821691505b60208210810361031c57634e487b7160e01b5f52602260045260245ffd5b5f808354610ed981610e9a565b60018281168015610ef15760018114610f0657610f32565b60ff1984168752821515830287019450610f32565b875f526020805f205f5b85811015610f295781548a820152908401908201610f10565b50505082870194505b50929695505050505050565b5f60208284031215610f4e575f80fd5b8151610f5981610cd0565b9392505050565b6020808252602a908201527f43616c6c6572206973206e6f7420616e2061646d696e206f72206261636b656e604082015269321030b2323932b9b99760b11b606082015260800190565b601f821115610ff157805f5260205f20601f840160051c81016020851015610fcf5750805b601f840160051c820191505b81811015610fee575f8155600101610fdb565b50505b505050565b815167ffffffffffffffff81111561101057611010610bb7565b6110248161101e8454610e9a565b84610faa565b602080601f831160018114611057575f84156110405750858301515b5f19600386901b1c1916600185901b1785556110ae565b5f85815260208120601f198616915b8281101561108557888601518255948401946001909101908401611066565b50858210156110a257878501515f19600388901b60f8161c191681555b505060018460011b0185555b505050505050565b604081525f6110c86040830185610dbc565b905060018060a01b03831660208301529392505050565b634e487b7160e01b5f52603260045260245ffd5b60ff818116838216019081111561039857634e487b7160e01b5f52601160045260245ffdfea26469706673582212201dfd89d2f5e538adfe5bfda2ef8729d25978beb20d058b1a90e3b78df7cadc6c64736f6c63430008190033",
					"opcodes": "PUSH1 0x80 PUSH1 0x40 MSTORE CALLVALUE DUP1 ISZERO PUSH1 0xE JUMPI PUSH0 DUP1 REVERT JUMPDEST POP PUSH1 0x40 MLOAD PUSH2 0x11D4 CODESIZE SUB DUP1 PUSH2 0x11D4 DUP4 CODECOPY DUP2 ADD PUSH1 0x40 DUP2 SWAP1 MSTORE PUSH1 0x2B SWAP2 PUSH1 0x4E JUMP JUMPDEST PUSH0 DUP1 SLOAD PUSH1 0x1 PUSH1 0x1 PUSH1 0xA0 SHL SUB NOT AND PUSH1 0x1 PUSH1 0x1 PUSH1 0xA0 SHL SUB SWAP3 SWAP1 SWAP3 AND SWAP2 SWAP1 SWAP2 OR SWAP1 SSTORE PUSH1 0x79 JUMP JUMPDEST PUSH0 PUSH1 0x20 DUP3 DUP5 SUB SLT ISZERO PUSH1 0x5D JUMPI PUSH0 DUP1 REVERT JUMPDEST DUP2 MLOAD PUSH1 0x1 PUSH1 0x1 PUSH1 0xA0 SHL SUB DUP2 AND DUP2 EQ PUSH1 0x72 JUMPI PUSH0 DUP1 REVERT JUMPDEST SWAP4 SWAP3 POP POP POP JUMP JUMPDEST PUSH2 0x114E DUP1 PUSH2 0x86 PUSH0 CODECOPY PUSH0 RETURN INVALID PUSH1 0x80 PUSH1 0x40 MSTORE CALLVALUE DUP1 ISZERO PUSH2 0xF JUMPI PUSH0 DUP1 REVERT JUMPDEST POP PUSH1 0x4 CALLDATASIZE LT PUSH2 0xB1 JUMPI PUSH0 CALLDATALOAD PUSH1 0xE0 SHR DUP1 PUSH4 0xC822D7F0 GT PUSH2 0x6E JUMPI DUP1 PUSH4 0xC822D7F0 EQ PUSH2 0x188 JUMPI DUP1 PUSH4 0xCB3E1FE7 EQ PUSH2 0x19B JUMPI DUP1 PUSH4 0xCD367584 EQ PUSH2 0x1C2 JUMPI DUP1 PUSH4 0xE7705DB6 EQ PUSH2 0x1D5 JUMPI DUP1 PUSH4 0xEA46F8E3 EQ PUSH2 0x1FC JUMPI DUP1 PUSH4 0xF3F9F267 EQ PUSH2 0x20F JUMPI PUSH0 DUP1 REVERT JUMPDEST DUP1 PUSH4 0x20884F70 EQ PUSH2 0xB5 JUMPI DUP1 PUSH4 0x518AB27B EQ PUSH2 0xCA JUMPI DUP1 PUSH4 0x75B238FC EQ PUSH2 0xF2 JUMPI DUP1 PUSH4 0x76082A5E EQ PUSH2 0x127 JUMPI DUP1 PUSH4 0x92C2BECC EQ PUSH2 0x14E JUMPI DUP1 PUSH4 0xA8B07735 EQ PUSH2 0x175 JUMPI JUMPDEST PUSH0 DUP1 REVERT JUMPDEST PUSH2 0xC8 PUSH2 0xC3 CALLDATASIZE PUSH1 0x4 PUSH2 0xB78 JUMP JUMPDEST PUSH2 0x22F JUMP JUMPDEST STOP JUMPDEST PUSH2 0xDD PUSH2 0xD8 CALLDATASIZE PUSH1 0x4 PUSH2 0xC54 JUMP JUMPDEST PUSH2 0x259 JUMP JUMPDEST PUSH1 0x40 MLOAD SWAP1 ISZERO ISZERO DUP2 MSTORE PUSH1 0x20 ADD JUMPDEST PUSH1 0x40 MLOAD DUP1 SWAP2 SUB SWAP1 RETURN JUMPDEST PUSH2 0x119 PUSH32 0xA49807205CE4D355092EF5A8A18F56E8913CF4A201FBE287825B095693C21775 DUP2 JUMP JUMPDEST PUSH1 0x40 MLOAD SWAP1 DUP2 MSTORE PUSH1 0x20 ADD PUSH2 0xE9 JUMP JUMPDEST PUSH2 0x119 PUSH32 0xB165298935924F540E4181C03493A5D686C54A0AAEB3F6216DE85B7FFBBA7738 DUP2 JUMP JUMPDEST PUSH2 0x119 PUSH32 0x25CF2B509F2A7F322675B2A5322B182F44AD2C03AC941A0AF17C9B178F5D5D5F DUP2 JUMP JUMPDEST PUSH2 0xDD PUSH2 0x183 CALLDATASIZE PUSH1 0x4 PUSH2 0xC8E JUMP JUMPDEST PUSH2 0x322 JUMP JUMPDEST PUSH2 0xDD PUSH2 0x196 CALLDATASIZE PUSH1 0x4 PUSH2 0xC54 JUMP JUMPDEST PUSH2 0x39E JUMP JUMPDEST PUSH2 0x119 PUSH32 0x8EB467F061CA67F42A2D2CA4A346FC9FB645EFC0BA75056EE9F71C3A0CCC10A8 DUP2 JUMP JUMPDEST PUSH2 0xC8 PUSH2 0x1D0 CALLDATASIZE PUSH1 0x4 PUSH2 0xCE0 JUMP JUMPDEST PUSH2 0x3E2 JUMP JUMPDEST PUSH2 0x119 PUSH32 0xCE23C3E399818CFEE81A7AB0880F714E53D7672B08DF0FA62F2843416E1EA09 DUP2 JUMP JUMPDEST PUSH2 0xC8 PUSH2 0x20A CALLDATASIZE PUSH1 0x4 PUSH2 0xD33 JUMP JUMPDEST PUSH2 0x56E JUMP JUMPDEST PUSH2 0x222 PUSH2 0x21D CALLDATASIZE PUSH1 0x4 PUSH2 0xB78 JUMP JUMPDEST PUSH2 0x7F9 JUMP JUMPDEST PUSH1 0x40 MLOAD PUSH2 0xE9 SWAP2 SWAP1 PUSH2 0xDEA JUMP JUMPDEST TIMESTAMP PUSH1 0x1 DUP4 DUP4 PUSH1 0x40 MLOAD PUSH2 0x242 SWAP3 SWAP2 SWAP1 PUSH2 0xE45 JUMP JUMPDEST SWAP1 DUP2 MSTORE PUSH1 0x40 MLOAD SWAP1 DUP2 SWAP1 SUB PUSH1 0x20 ADD SWAP1 KECCAK256 PUSH1 0x2 ADD SSTORE POP POP JUMP JUMPDEST PUSH0 DUP2 PUSH1 0x1 DUP2 PUSH1 0x40 MLOAD PUSH2 0x26B SWAP2 SWAP1 PUSH2 0xE54 JUMP JUMPDEST SWAP1 DUP2 MSTORE PUSH1 0x40 MLOAD SWAP1 DUP2 SWAP1 SUB PUSH1 0x20 ADD SWAP1 KECCAK256 PUSH1 0x3 ADD SLOAD PUSH1 0xFF AND PUSH2 0x2A6 JUMPI PUSH1 0x40 MLOAD PUSH3 0x461BCD PUSH1 0xE5 SHL DUP2 MSTORE PUSH1 0x4 ADD PUSH2 0x29D SWAP1 PUSH2 0xE6A JUMP JUMPDEST PUSH1 0x40 MLOAD DUP1 SWAP2 SUB SWAP1 REVERT JUMPDEST PUSH1 0x1 DUP2 PUSH1 0x40 MLOAD PUSH2 0x2B6 SWAP2 SWAP1 PUSH2 0xE54 JUMP JUMPDEST SWAP1 DUP2 MSTORE PUSH1 0x40 MLOAD SWAP1 DUP2 SWAP1 SUB PUSH1 0x20 ADD SWAP1 KECCAK256 PUSH1 0x1 ADD SLOAD PUSH1 0xFF PUSH1 0x1 PUSH1 0xA0 SHL SWAP1 SWAP2 DIV AND ISZERO PUSH2 0x317 JUMPI PUSH1 0x40 MLOAD PUSH3 0x461BCD PUSH1 0xE5 SHL DUP2 MSTORE PUSH1 0x20 PUSH1 0x4 DUP3 ADD MSTORE PUSH1 0x13 PUSH1 0x24 DUP3 ADD MSTORE PUSH19 0x1058D8DBDD5B9D08189B1858DADB1A5CDD1959 PUSH1 0x6A SHL PUSH1 0x44 DUP3 ADD MSTORE PUSH1 0x64 ADD PUSH2 0x29D JUMP JUMPDEST PUSH1 0x1 SWAP2 POP JUMPDEST POP SWAP2 SWAP1 POP JUMP JUMPDEST PUSH0 PUSH2 0x32C DUP3 PUSH2 0x923 JUMP JUMPDEST PUSH1 0x40 MLOAD PUSH1 0x20 ADD PUSH2 0x33C SWAP2 SWAP1 PUSH2 0xE54 JUMP JUMPDEST PUSH1 0x40 MLOAD PUSH1 0x20 DUP2 DUP4 SUB SUB DUP2 MSTORE SWAP1 PUSH1 0x40 MSTORE DUP1 MLOAD SWAP1 PUSH1 0x20 ADD KECCAK256 PUSH1 0x1 DUP5 PUSH1 0x40 MLOAD PUSH2 0x362 SWAP2 SWAP1 PUSH2 0xE54 JUMP JUMPDEST SWAP1 DUP2 MSTORE PUSH1 0x40 MLOAD PUSH1 0x20 SWAP2 DUP2 SWAP1 SUB DUP3 ADD DUP2 KECCAK256 PUSH2 0x37E SWAP3 SWAP1 SWAP2 ADD PUSH2 0xECC JUMP JUMPDEST PUSH1 0x40 MLOAD PUSH1 0x20 DUP2 DUP4 SUB SUB DUP2 MSTORE SWAP1 PUSH1 0x40 MSTORE DUP1 MLOAD SWAP1 PUSH1 0x20 ADD KECCAK256 EQ SWAP1 POP JUMPDEST SWAP3 SWAP2 POP POP JUMP JUMPDEST PUSH0 DUP2 PUSH1 0x1 DUP2 PUSH1 0x40 MLOAD PUSH2 0x3B0 SWAP2 SWAP1 PUSH2 0xE54 JUMP JUMPDEST SWAP1 DUP2 MSTORE PUSH1 0x40 MLOAD SWAP1 DUP2 SWAP1 SUB PUSH1 0x20 ADD SWAP1 KECCAK256 PUSH1 0x3 ADD SLOAD PUSH1 0xFF AND PUSH2 0x317 JUMPI PUSH1 0x40 MLOAD PUSH3 0x461BCD PUSH1 0xE5 SHL DUP2 MSTORE PUSH1 0x4 ADD PUSH2 0x29D SWAP1 PUSH2 0xE6A JUMP JUMPDEST PUSH0 SLOAD PUSH1 0x40 MLOAD PUSH4 0x49E89CC7 PUSH1 0xE1 SHL DUP2 MSTORE CALLER PUSH1 0x4 DUP3 ADD MSTORE PUSH1 0x1 PUSH1 0x1 PUSH1 0xA0 SHL SUB SWAP1 SWAP2 AND SWAP1 PUSH4 0x93D1398E SWAP1 PUSH1 0x24 ADD PUSH1 0x20 PUSH1 0x40 MLOAD DUP1 DUP4 SUB DUP2 DUP7 GAS STATICCALL ISZERO DUP1 ISZERO PUSH2 0x427 JUMPI RETURNDATASIZE PUSH0 DUP1 RETURNDATACOPY RETURNDATASIZE PUSH0 REVERT JUMPDEST POP POP POP POP PUSH1 0x40 MLOAD RETURNDATASIZE PUSH1 0x1F NOT PUSH1 0x1F DUP3 ADD AND DUP3 ADD DUP1 PUSH1 0x40 MSTORE POP DUP2 ADD SWAP1 PUSH2 0x44B SWAP2 SWAP1 PUSH2 0xF3E JUMP JUMPDEST PUSH2 0x467 JUMPI PUSH1 0x40 MLOAD PUSH3 0x461BCD PUSH1 0xE5 SHL DUP2 MSTORE PUSH1 0x4 ADD PUSH2 0x29D SWAP1 PUSH2 0xF60 JUMP JUMPDEST DUP3 DUP3 DUP1 DUP1 PUSH1 0x1F ADD PUSH1 0x20 DUP1 SWAP2 DIV MUL PUSH1 0x20 ADD PUSH1 0x40 MLOAD SWAP1 DUP2 ADD PUSH1 0x40 MSTORE DUP1 SWAP4 SWAP3 SWAP2 SWAP1 DUP2 DUP2 MSTORE PUSH1 0x20 ADD DUP4 DUP4 DUP1 DUP3 DUP5 CALLDATACOPY PUSH0 SWAP3 ADD SWAP2 SWAP1 SWAP2 MSTORE POP POP PUSH1 0x40 MLOAD PUSH1 0x1 SWAP3 POP PUSH2 0x4AD SWAP2 POP DUP4 SWAP1 PUSH2 0xE54 JUMP JUMPDEST SWAP1 DUP2 MSTORE PUSH1 0x40 MLOAD SWAP1 DUP2 SWAP1 SUB PUSH1 0x20 ADD SWAP1 KECCAK256 PUSH1 0x3 ADD SLOAD PUSH1 0xFF AND PUSH2 0x4DF JUMPI PUSH1 0x40 MLOAD PUSH3 0x461BCD PUSH1 0xE5 SHL DUP2 MSTORE PUSH1 0x4 ADD PUSH2 0x29D SWAP1 PUSH2 0xE6A JUMP JUMPDEST DUP2 PUSH1 0x1 DUP6 DUP6 PUSH1 0x40 MLOAD PUSH2 0x4F2 SWAP3 SWAP2 SWAP1 PUSH2 0xE45 JUMP JUMPDEST SWAP1 DUP2 MSTORE PUSH1 0x40 MLOAD SWAP1 DUP2 SWAP1 SUB PUSH1 0x20 ADD DUP2 KECCAK256 PUSH1 0x1 ADD DUP1 SLOAD SWAP3 ISZERO ISZERO PUSH1 0x1 PUSH1 0xA0 SHL MUL PUSH1 0xFF PUSH1 0xA0 SHL NOT SWAP1 SWAP4 AND SWAP3 SWAP1 SWAP3 OR SWAP1 SWAP2 SSTORE PUSH2 0x52C SWAP1 DUP6 SWAP1 DUP6 SWAP1 PUSH2 0xE45 JUMP JUMPDEST PUSH1 0x40 MLOAD SWAP1 DUP2 SWAP1 SUB DUP2 KECCAK256 DUP4 ISZERO ISZERO DUP3 MSTORE SWAP1 PUSH32 0x62BFD135DDE7DCB1853C9E9E971372460194C791876483C80577BF3028691E48 SWAP1 PUSH1 0x20 ADD PUSH1 0x40 MLOAD DUP1 SWAP2 SUB SWAP1 LOG2 POP POP POP POP JUMP JUMPDEST PUSH0 SLOAD PUSH1 0x40 MLOAD PUSH4 0x49E89CC7 PUSH1 0xE1 SHL DUP2 MSTORE CALLER PUSH1 0x4 DUP3 ADD MSTORE PUSH1 0x1 PUSH1 0x1 PUSH1 0xA0 SHL SUB SWAP1 SWAP2 AND SWAP1 PUSH4 0x93D1398E SWAP1 PUSH1 0x24 ADD PUSH1 0x20 PUSH1 0x40 MLOAD DUP1 DUP4 SUB DUP2 DUP7 GAS STATICCALL ISZERO DUP1 ISZERO PUSH2 0x5B3 JUMPI RETURNDATASIZE PUSH0 DUP1 RETURNDATACOPY RETURNDATASIZE PUSH0 REVERT JUMPDEST POP POP POP POP PUSH1 0x40 MLOAD RETURNDATASIZE PUSH1 0x1F NOT PUSH1 0x1F DUP3 ADD AND DUP3 ADD DUP1 PUSH1 0x40 MSTORE POP DUP2 ADD SWAP1 PUSH2 0x5D7 SWAP2 SWAP1 PUSH2 0xF3E JUMP JUMPDEST PUSH2 0x5F3 JUMPI PUSH1 0x40 MLOAD PUSH3 0x461BCD PUSH1 0xE5 SHL DUP2 MSTORE PUSH1 0x4 ADD PUSH2 0x29D SWAP1 PUSH2 0xF60 JUMP JUMPDEST PUSH0 PUSH2 0x632 DUP7 DUP7 DUP1 DUP1 PUSH1 0x1F ADD PUSH1 0x20 DUP1 SWAP2 DIV MUL PUSH1 0x20 ADD PUSH1 0x40 MLOAD SWAP1 DUP2 ADD PUSH1 0x40 MSTORE DUP1 SWAP4 SWAP3 SWAP2 SWAP1 DUP2 DUP2 MSTORE PUSH1 0x20 ADD DUP4 DUP4 DUP1 DUP3 DUP5 CALLDATACOPY PUSH0 SWAP3 ADD SWAP2 SWAP1 SWAP2 MSTORE POP PUSH2 0x9DF SWAP3 POP POP POP JUMP JUMPDEST SWAP1 POP PUSH0 PUSH2 0x673 DUP6 DUP6 DUP1 DUP1 PUSH1 0x1F ADD PUSH1 0x20 DUP1 SWAP2 DIV MUL PUSH1 0x20 ADD PUSH1 0x40 MLOAD SWAP1 DUP2 ADD PUSH1 0x40 MSTORE DUP1 SWAP4 SWAP3 SWAP2 SWAP1 DUP2 DUP2 MSTORE PUSH1 0x20 ADD DUP4 DUP4 DUP1 DUP3 DUP5 CALLDATACOPY PUSH0 SWAP3 ADD SWAP2 SWAP1 SWAP2 MSTORE POP PUSH2 0x9DF SWAP3 POP POP POP JUMP JUMPDEST SWAP1 POP PUSH1 0x1 DUP3 PUSH1 0x40 MLOAD PUSH2 0x685 SWAP2 SWAP1 PUSH2 0xE54 JUMP JUMPDEST SWAP1 DUP2 MSTORE PUSH1 0x40 MLOAD SWAP1 DUP2 SWAP1 SUB PUSH1 0x20 ADD SWAP1 KECCAK256 PUSH1 0x3 ADD SLOAD PUSH1 0xFF AND ISZERO PUSH2 0x6E8 JUMPI PUSH1 0x40 MLOAD PUSH3 0x461BCD PUSH1 0xE5 SHL DUP2 MSTORE PUSH1 0x20 PUSH1 0x4 DUP3 ADD MSTORE PUSH1 0x1A PUSH1 0x24 DUP3 ADD MSTORE PUSH32 0x4163636F756E7420616C72656164792072656769737465726564000000000000 PUSH1 0x44 DUP3 ADD MSTORE PUSH1 0x64 ADD PUSH2 0x29D JUMP JUMPDEST PUSH1 0x40 DUP1 MLOAD PUSH1 0xA0 DUP2 ADD DUP3 MSTORE DUP3 DUP2 MSTORE PUSH1 0x1 PUSH1 0x1 PUSH1 0xA0 SHL SUB DUP6 AND PUSH1 0x20 DUP3 ADD MSTORE PUSH0 DUP2 DUP4 ADD MSTORE TIMESTAMP PUSH1 0x60 DUP3 ADD MSTORE PUSH1 0x1 PUSH1 0x80 DUP3 ADD DUP2 SWAP1 MSTORE SWAP2 MLOAD SWAP1 SWAP2 SWAP1 PUSH2 0x728 SWAP1 DUP6 SWAP1 PUSH2 0xE54 JUMP JUMPDEST SWAP1 DUP2 MSTORE PUSH1 0x40 MLOAD SWAP1 DUP2 SWAP1 SUB PUSH1 0x20 ADD SWAP1 KECCAK256 DUP2 MLOAD DUP2 SWAP1 PUSH2 0x745 SWAP1 DUP3 PUSH2 0xFF6 JUMP JUMPDEST POP PUSH1 0x20 DUP3 ADD MLOAD PUSH1 0x1 DUP3 ADD DUP1 SLOAD PUSH1 0x40 DUP1 DUP7 ADD MLOAD ISZERO ISZERO PUSH1 0x1 PUSH1 0xA0 SHL MUL PUSH1 0x1 PUSH1 0x1 PUSH1 0xA8 SHL SUB NOT SWAP1 SWAP3 AND PUSH1 0x1 PUSH1 0x1 PUSH1 0xA0 SHL SUB SWAP1 SWAP5 AND SWAP4 SWAP1 SWAP4 OR OR SWAP1 SSTORE PUSH1 0x60 DUP4 ADD MLOAD PUSH1 0x2 DUP4 ADD SSTORE PUSH1 0x80 SWAP1 SWAP3 ADD MLOAD PUSH1 0x3 SWAP1 SWAP2 ADD DUP1 SLOAD SWAP2 ISZERO ISZERO PUSH1 0xFF NOT SWAP1 SWAP3 AND SWAP2 SWAP1 SWAP2 OR SWAP1 SSTORE MLOAD PUSH2 0x7AF SWAP1 DUP4 SWAP1 PUSH2 0xE54 JUMP JUMPDEST PUSH1 0x40 MLOAD DUP1 SWAP2 SUB SWAP1 KECCAK256 PUSH32 0x15FE06BCD718DB76E0542B653589A63F11B9A7E090D89E436200F6FAEC8A0C10 DUP3 DUP6 PUSH1 0x40 MLOAD PUSH2 0x7E8 SWAP3 SWAP2 SWAP1 PUSH2 0x10B6 JUMP JUMPDEST PUSH1 0x40 MLOAD DUP1 SWAP2 SUB SWAP1 LOG2 POP POP POP POP POP POP POP JUMP JUMPDEST PUSH1 0x40 DUP1 MLOAD PUSH1 0xA0 DUP2 ADD DUP3 MSTORE PUSH1 0x60 DUP1 DUP3 MSTORE PUSH0 PUSH1 0x20 DUP4 ADD DUP2 SWAP1 MSTORE DUP3 DUP5 ADD DUP2 SWAP1 MSTORE SWAP1 DUP3 ADD DUP2 SWAP1 MSTORE PUSH1 0x80 DUP3 ADD MSTORE SWAP1 MLOAD PUSH1 0x1 SWAP1 PUSH2 0x833 SWAP1 DUP6 SWAP1 DUP6 SWAP1 PUSH2 0xE45 JUMP JUMPDEST SWAP1 DUP2 MSTORE PUSH1 0x20 ADD PUSH1 0x40 MLOAD DUP1 SWAP2 SUB SWAP1 KECCAK256 PUSH1 0x40 MLOAD DUP1 PUSH1 0xA0 ADD PUSH1 0x40 MSTORE SWAP1 DUP2 PUSH0 DUP3 ADD DUP1 SLOAD PUSH2 0x85B SWAP1 PUSH2 0xE9A JUMP JUMPDEST DUP1 PUSH1 0x1F ADD PUSH1 0x20 DUP1 SWAP2 DIV MUL PUSH1 0x20 ADD PUSH1 0x40 MLOAD SWAP1 DUP2 ADD PUSH1 0x40 MSTORE DUP1 SWAP3 SWAP2 SWAP1 DUP2 DUP2 MSTORE PUSH1 0x20 ADD DUP3 DUP1 SLOAD PUSH2 0x887 SWAP1 PUSH2 0xE9A JUMP JUMPDEST DUP1 ISZERO PUSH2 0x8D2 JUMPI DUP1 PUSH1 0x1F LT PUSH2 0x8A9 JUMPI PUSH2 0x100 DUP1 DUP4 SLOAD DIV MUL DUP4 MSTORE SWAP2 PUSH1 0x20 ADD SWAP2 PUSH2 0x8D2 JUMP JUMPDEST DUP3 ADD SWAP2 SWAP1 PUSH0 MSTORE PUSH1 0x20 PUSH0 KECCAK256 SWAP1 JUMPDEST DUP2 SLOAD DUP2 MSTORE SWAP1 PUSH1 0x1 ADD SWAP1 PUSH1 0x20 ADD DUP1 DUP4 GT PUSH2 0x8B5 JUMPI DUP3 SWAP1 SUB PUSH1 0x1F AND DUP3 ADD SWAP2 JUMPDEST POP POP POP SWAP2 DUP4 MSTORE POP POP PUSH1 0x1 DUP3 ADD SLOAD PUSH1 0x1 PUSH1 0x1 PUSH1 0xA0 SHL SUB DUP2 AND PUSH1 0x20 DUP4 ADD MSTORE PUSH1 0x1 PUSH1 0xA0 SHL SWAP1 DIV PUSH1 0xFF SWAP1 DUP2 AND ISZERO ISZERO PUSH1 0x40 DUP4 ADD MSTORE PUSH1 0x2 DUP4 ADD SLOAD PUSH1 0x60 DUP4 ADD MSTORE PUSH1 0x3 SWAP1 SWAP3 ADD SLOAD SWAP1 SWAP2 AND ISZERO ISZERO PUSH1 0x80 SWAP1 SWAP2 ADD MSTORE SWAP4 SWAP3 POP POP POP JUMP JUMPDEST PUSH1 0x60 PUSH32 0x8EB467F061CA67F42A2D2CA4A346FC9FB645EFC0BA75056EE9F71C3A0CCC10A8 DUP3 SUB PUSH2 0x970 JUMPI POP POP PUSH1 0x40 DUP1 MLOAD DUP1 DUP3 ADD SWAP1 SWAP2 MSTORE PUSH1 0x8 DUP2 MSTORE PUSH8 0x383937B23AB1B2B9 PUSH1 0xC1 SHL PUSH1 0x20 DUP3 ADD MSTORE SWAP1 JUMP JUMPDEST PUSH32 0xCE23C3E399818CFEE81A7AB0880F714E53D7672B08DF0FA62F2843416E1EA09 DUP3 SUB PUSH2 0x9BB JUMPI POP POP PUSH1 0x40 DUP1 MLOAD DUP1 DUP3 ADD SWAP1 SWAP2 MSTORE PUSH1 0x8 DUP2 MSTORE PUSH8 0x3B32B934B334B2B9 PUSH1 0xC1 SHL PUSH1 0x20 DUP3 ADD MSTORE SWAP1 JUMP JUMPDEST POP POP PUSH1 0x40 DUP1 MLOAD DUP1 DUP3 ADD SWAP1 SWAP2 MSTORE PUSH1 0x8 DUP2 MSTORE PUSH8 0x34B73B32B9BA37B9 PUSH1 0xC1 SHL PUSH1 0x20 DUP3 ADD MSTORE SWAP1 JUMP JUMPDEST PUSH1 0x60 PUSH0 DUP3 SWAP1 POP PUSH0 DUP2 MLOAD PUSH8 0xFFFFFFFFFFFFFFFF DUP2 GT ISZERO PUSH2 0xA00 JUMPI PUSH2 0xA00 PUSH2 0xBB7 JUMP JUMPDEST PUSH1 0x40 MLOAD SWAP1 DUP1 DUP3 MSTORE DUP1 PUSH1 0x1F ADD PUSH1 0x1F NOT AND PUSH1 0x20 ADD DUP3 ADD PUSH1 0x40 MSTORE DUP1 ISZERO PUSH2 0xA2A JUMPI PUSH1 0x20 DUP3 ADD DUP2 DUP1 CALLDATASIZE DUP4 CALLDATACOPY ADD SWAP1 POP JUMPDEST POP SWAP1 POP PUSH0 JUMPDEST DUP3 MLOAD DUP2 LT ISZERO PUSH2 0xB2B JUMPI PUSH1 0x41 DUP4 DUP3 DUP2 MLOAD DUP2 LT PUSH2 0xA4C JUMPI PUSH2 0xA4C PUSH2 0x10DF JUMP JUMPDEST ADD PUSH1 0x20 ADD MLOAD PUSH1 0xF8 SHR LT DUP1 ISZERO SWAP1 PUSH2 0xA7C JUMPI POP PUSH1 0x5A DUP4 DUP3 DUP2 MLOAD DUP2 LT PUSH2 0xA71 JUMPI PUSH2 0xA71 PUSH2 0x10DF JUMP JUMPDEST ADD PUSH1 0x20 ADD MLOAD PUSH1 0xF8 SHR GT ISZERO JUMPDEST ISZERO PUSH2 0xADD JUMPI DUP3 DUP2 DUP2 MLOAD DUP2 LT PUSH2 0xA93 JUMPI PUSH2 0xA93 PUSH2 0x10DF JUMP JUMPDEST PUSH1 0x20 ADD ADD MLOAD PUSH1 0xF8 SHR PUSH1 0xF8 SHL PUSH1 0xF8 SHR PUSH1 0x20 PUSH2 0xAAD SWAP2 SWAP1 PUSH2 0x10F3 JUMP JUMPDEST PUSH1 0xF8 SHL DUP3 DUP3 DUP2 MLOAD DUP2 LT PUSH2 0xAC2 JUMPI PUSH2 0xAC2 PUSH2 0x10DF JUMP JUMPDEST PUSH1 0x20 ADD ADD SWAP1 PUSH1 0x1 PUSH1 0x1 PUSH1 0xF8 SHL SUB NOT AND SWAP1 DUP2 PUSH0 BYTE SWAP1 MSTORE8 POP PUSH2 0xB23 JUMP JUMPDEST DUP3 DUP2 DUP2 MLOAD DUP2 LT PUSH2 0xAEF JUMPI PUSH2 0xAEF PUSH2 0x10DF JUMP JUMPDEST PUSH1 0x20 ADD ADD MLOAD PUSH1 0xF8 SHR PUSH1 0xF8 SHL DUP3 DUP3 DUP2 MLOAD DUP2 LT PUSH2 0xB0C JUMPI PUSH2 0xB0C PUSH2 0x10DF JUMP JUMPDEST PUSH1 0x20 ADD ADD SWAP1 PUSH1 0x1 PUSH1 0x1 PUSH1 0xF8 SHL SUB NOT AND SWAP1 DUP2 PUSH0 BYTE SWAP1 MSTORE8 POP JUMPDEST PUSH1 0x1 ADD PUSH2 0xA2F JUMP JUMPDEST POP SWAP4 SWAP3 POP POP POP JUMP JUMPDEST PUSH0 DUP1 DUP4 PUSH1 0x1F DUP5 ADD SLT PUSH2 0xB43 JUMPI PUSH0 DUP1 REVERT JUMPDEST POP DUP2 CALLDATALOAD PUSH8 0xFFFFFFFFFFFFFFFF DUP2 GT ISZERO PUSH2 0xB5A JUMPI PUSH0 DUP1 REVERT JUMPDEST PUSH1 0x20 DUP4 ADD SWAP2 POP DUP4 PUSH1 0x20 DUP3 DUP6 ADD ADD GT ISZERO PUSH2 0xB71 JUMPI PUSH0 DUP1 REVERT JUMPDEST SWAP3 POP SWAP3 SWAP1 POP JUMP JUMPDEST PUSH0 DUP1 PUSH1 0x20 DUP4 DUP6 SUB SLT ISZERO PUSH2 0xB89 JUMPI PUSH0 DUP1 REVERT JUMPDEST DUP3 CALLDATALOAD PUSH8 0xFFFFFFFFFFFFFFFF DUP2 GT ISZERO PUSH2 0xB9F JUMPI PUSH0 DUP1 REVERT JUMPDEST PUSH2 0xBAB DUP6 DUP3 DUP7 ADD PUSH2 0xB33 JUMP JUMPDEST SWAP1 SWAP7 SWAP1 SWAP6 POP SWAP4 POP POP POP POP JUMP JUMPDEST PUSH4 0x4E487B71 PUSH1 0xE0 SHL PUSH0 MSTORE PUSH1 0x41 PUSH1 0x4 MSTORE PUSH1 0x24 PUSH0 REVERT JUMPDEST PUSH0 DUP3 PUSH1 0x1F DUP4 ADD SLT PUSH2 0xBDA JUMPI PUSH0 DUP1 REVERT JUMPDEST DUP2 CALLDATALOAD PUSH8 0xFFFFFFFFFFFFFFFF DUP1 DUP3 GT ISZERO PUSH2 0xBF5 JUMPI PUSH2 0xBF5 PUSH2 0xBB7 JUMP JUMPDEST PUSH1 0x40 MLOAD PUSH1 0x1F DUP4 ADD PUSH1 0x1F NOT SWAP1 DUP2 AND PUSH1 0x3F ADD AND DUP2 ADD SWAP1 DUP3 DUP3 GT DUP2 DUP4 LT OR ISZERO PUSH2 0xC1D JUMPI PUSH2 0xC1D PUSH2 0xBB7 JUMP JUMPDEST DUP2 PUSH1 0x40 MSTORE DUP4 DUP2 MSTORE DUP7 PUSH1 0x20 DUP6 DUP9 ADD ADD GT ISZERO PUSH2 0xC35 JUMPI PUSH0 DUP1 REVERT JUMPDEST DUP4 PUSH1 0x20 DUP8 ADD PUSH1 0x20 DUP4 ADD CALLDATACOPY PUSH0 PUSH1 0x20 DUP6 DUP4 ADD ADD MSTORE DUP1 SWAP5 POP POP POP POP POP SWAP3 SWAP2 POP POP JUMP JUMPDEST PUSH0 PUSH1 0x20 DUP3 DUP5 SUB SLT ISZERO PUSH2 0xC64 JUMPI PUSH0 DUP1 REVERT JUMPDEST DUP2 CALLDATALOAD PUSH8 0xFFFFFFFFFFFFFFFF DUP2 GT ISZERO PUSH2 0xC7A JUMPI PUSH0 DUP1 REVERT JUMPDEST PUSH2 0xC86 DUP5 DUP3 DUP6 ADD PUSH2 0xBCB JUMP JUMPDEST SWAP5 SWAP4 POP POP POP POP JUMP JUMPDEST PUSH0 DUP1 PUSH1 0x40 DUP4 DUP6 SUB SLT ISZERO PUSH2 0xC9F JUMPI PUSH0 DUP1 REVERT JUMPDEST DUP3 CALLDATALOAD PUSH8 0xFFFFFFFFFFFFFFFF DUP2 GT ISZERO PUSH2 0xCB5 JUMPI PUSH0 DUP1 REVERT JUMPDEST PUSH2 0xCC1 DUP6 DUP3 DUP7 ADD PUSH2 0xBCB JUMP JUMPDEST SWAP6 PUSH1 0x20 SWAP5 SWAP1 SWAP5 ADD CALLDATALOAD SWAP5 POP POP POP POP JUMP JUMPDEST DUP1 ISZERO ISZERO DUP2 EQ PUSH2 0xCDD JUMPI PUSH0 DUP1 REVERT JUMPDEST POP JUMP JUMPDEST PUSH0 DUP1 PUSH0 PUSH1 0x40 DUP5 DUP7 SUB SLT ISZERO PUSH2 0xCF2 JUMPI PUSH0 DUP1 REVERT JUMPDEST DUP4 CALLDATALOAD PUSH8 0xFFFFFFFFFFFFFFFF DUP2 GT ISZERO PUSH2 0xD08 JUMPI PUSH0 DUP1 REVERT JUMPDEST PUSH2 0xD14 DUP7 DUP3 DUP8 ADD PUSH2 0xB33 JUMP JUMPDEST SWAP1 SWAP5 POP SWAP3 POP POP PUSH1 0x20 DUP5 ADD CALLDATALOAD PUSH2 0xD28 DUP2 PUSH2 0xCD0 JUMP JUMPDEST DUP1 SWAP2 POP POP SWAP3 POP SWAP3 POP SWAP3 JUMP JUMPDEST PUSH0 DUP1 PUSH0 DUP1 PUSH0 PUSH1 0x60 DUP7 DUP9 SUB SLT ISZERO PUSH2 0xD47 JUMPI PUSH0 DUP1 REVERT JUMPDEST DUP6 CALLDATALOAD PUSH8 0xFFFFFFFFFFFFFFFF DUP1 DUP3 GT ISZERO PUSH2 0xD5E JUMPI PUSH0 DUP1 REVERT JUMPDEST PUSH2 0xD6A DUP10 DUP4 DUP11 ADD PUSH2 0xB33 JUMP JUMPDEST SWAP1 SWAP8 POP SWAP6 POP PUSH1 0x20 DUP9 ADD CALLDATALOAD SWAP2 POP DUP1 DUP3 GT ISZERO PUSH2 0xD82 JUMPI PUSH0 DUP1 REVERT JUMPDEST POP PUSH2 0xD8F DUP9 DUP3 DUP10 ADD PUSH2 0xB33 JUMP JUMPDEST SWAP1 SWAP5 POP SWAP3 POP POP PUSH1 0x40 DUP7 ADD CALLDATALOAD PUSH1 0x1 PUSH1 0x1 PUSH1 0xA0 SHL SUB DUP2 AND DUP2 EQ PUSH2 0xDAE JUMPI PUSH0 DUP1 REVERT JUMPDEST DUP1 SWAP2 POP POP SWAP3 SWAP6 POP SWAP3 SWAP6 SWAP1 SWAP4 POP JUMP JUMPDEST PUSH0 DUP2 MLOAD DUP1 DUP5 MSTORE DUP1 PUSH1 0x20 DUP5 ADD PUSH1 0x20 DUP7 ADD MCOPY PUSH0 PUSH1 0x20 DUP3 DUP7 ADD ADD MSTORE PUSH1 0x20 PUSH1 0x1F NOT PUSH1 0x1F DUP4 ADD AND DUP6 ADD ADD SWAP2 POP POP SWAP3 SWAP2 POP POP JUMP JUMPDEST PUSH1 0x20 DUP2 MSTORE PUSH0 DUP3 MLOAD PUSH1 0xA0 PUSH1 0x20 DUP5 ADD MSTORE PUSH2 0xE05 PUSH1 0xC0 DUP5 ADD DUP3 PUSH2 0xDBC JUMP JUMPDEST SWAP1 POP PUSH1 0x1 DUP1 PUSH1 0xA0 SHL SUB PUSH1 0x20 DUP6 ADD MLOAD AND PUSH1 0x40 DUP5 ADD MSTORE PUSH1 0x40 DUP5 ADD MLOAD ISZERO ISZERO PUSH1 0x60 DUP5 ADD MSTORE PUSH1 0x60 DUP5 ADD MLOAD PUSH1 0x80 DUP5 ADD MSTORE PUSH1 0x80 DUP5 ADD MLOAD ISZERO ISZERO PUSH1 0xA0 DUP5 ADD MSTORE DUP1 SWAP2 POP POP SWAP3 SWAP2 POP POP JUMP JUMPDEST DUP2 DUP4 DUP3 CALLDATACOPY PUSH0 SWAP2 ADD SWAP1 DUP2 MSTORE SWAP2 SWAP1 POP JUMP JUMPDEST PUSH0 DUP3 MLOAD DUP1 PUSH1 0x20 DUP6 ADD DUP5 MCOPY PUSH0 SWAP3 ADD SWAP2 DUP3 MSTORE POP SWAP2 SWAP1 POP JUMP JUMPDEST PUSH1 0x20 DUP1 DUP3 MSTORE PUSH1 0x16 SWAP1 DUP3 ADD MSTORE PUSH22 0x1058D8DBDD5B9D081B9BDD081C9959DA5CDD195C9959 PUSH1 0x52 SHL PUSH1 0x40 DUP3 ADD MSTORE PUSH1 0x60 ADD SWAP1 JUMP JUMPDEST PUSH1 0x1 DUP2 DUP2 SHR SWAP1 DUP3 AND DUP1 PUSH2 0xEAE JUMPI PUSH1 0x7F DUP3 AND SWAP2 POP JUMPDEST PUSH1 0x20 DUP3 LT DUP2 SUB PUSH2 0x31C JUMPI PUSH4 0x4E487B71 PUSH1 0xE0 SHL PUSH0 MSTORE PUSH1 0x22 PUSH1 0x4 MSTORE PUSH1 0x24 PUSH0 REVERT JUMPDEST PUSH0 DUP1 DUP4 SLOAD PUSH2 0xED9 DUP2 PUSH2 0xE9A JUMP JUMPDEST PUSH1 0x1 DUP3 DUP2 AND DUP1 ISZERO PUSH2 0xEF1 JUMPI PUSH1 0x1 DUP2 EQ PUSH2 0xF06 JUMPI PUSH2 0xF32 JUMP JUMPDEST PUSH1 0xFF NOT DUP5 AND DUP8 MSTORE DUP3 ISZERO ISZERO DUP4 MUL DUP8 ADD SWAP5 POP PUSH2 0xF32 JUMP JUMPDEST DUP8 PUSH0 MSTORE PUSH1 0x20 DUP1 PUSH0 KECCAK256 PUSH0 JUMPDEST DUP6 DUP2 LT ISZERO PUSH2 0xF29 JUMPI DUP2 SLOAD DUP11 DUP3 ADD MSTORE SWAP1 DUP5 ADD SWAP1 DUP3 ADD PUSH2 0xF10 JUMP JUMPDEST POP POP POP DUP3 DUP8 ADD SWAP5 POP JUMPDEST POP SWAP3 SWAP7 SWAP6 POP POP POP POP POP POP JUMP JUMPDEST PUSH0 PUSH1 0x20 DUP3 DUP5 SUB SLT ISZERO PUSH2 0xF4E JUMPI PUSH0 DUP1 REVERT JUMPDEST DUP2 MLOAD PUSH2 0xF59 DUP2 PUSH2 0xCD0 JUMP JUMPDEST SWAP4 SWAP3 POP POP POP JUMP JUMPDEST PUSH1 0x20 DUP1 DUP3 MSTORE PUSH1 0x2A SWAP1 DUP3 ADD MSTORE PUSH32 0x43616C6C6572206973206E6F7420616E2061646D696E206F72206261636B656E PUSH1 0x40 DUP3 ADD MSTORE PUSH10 0x321030B2323932B9B997 PUSH1 0xB1 SHL PUSH1 0x60 DUP3 ADD MSTORE PUSH1 0x80 ADD SWAP1 JUMP JUMPDEST PUSH1 0x1F DUP3 GT ISZERO PUSH2 0xFF1 JUMPI DUP1 PUSH0 MSTORE PUSH1 0x20 PUSH0 KECCAK256 PUSH1 0x1F DUP5 ADD PUSH1 0x5 SHR DUP2 ADD PUSH1 0x20 DUP6 LT ISZERO PUSH2 0xFCF JUMPI POP DUP1 JUMPDEST PUSH1 0x1F DUP5 ADD PUSH1 0x5 SHR DUP3 ADD SWAP2 POP JUMPDEST DUP2 DUP2 LT ISZERO PUSH2 0xFEE JUMPI PUSH0 DUP2 SSTORE PUSH1 0x1 ADD PUSH2 0xFDB JUMP JUMPDEST POP POP JUMPDEST POP POP POP JUMP JUMPDEST DUP2 MLOAD PUSH8 0xFFFFFFFFFFFFFFFF DUP2 GT ISZERO PUSH2 0x1010 JUMPI PUSH2 0x1010 PUSH2 0xBB7 JUMP JUMPDEST PUSH2 0x1024 DUP2 PUSH2 0x101E DUP5 SLOAD PUSH2 0xE9A JUMP JUMPDEST DUP5 PUSH2 0xFAA JUMP JUMPDEST PUSH1 0x20 DUP1 PUSH1 0x1F DUP4 GT PUSH1 0x1 DUP2 EQ PUSH2 0x1057 JUMPI PUSH0 DUP5 ISZERO PUSH2 0x1040 JUMPI POP DUP6 DUP4 ADD MLOAD JUMPDEST PUSH0 NOT PUSH1 0x3 DUP7 SWAP1 SHL SHR NOT AND PUSH1 0x1 DUP6 SWAP1 SHL OR DUP6 SSTORE PUSH2 0x10AE JUMP JUMPDEST PUSH0 DUP6 DUP2 MSTORE PUSH1 0x20 DUP2 KECCAK256 PUSH1 0x1F NOT DUP7 AND SWAP2 JUMPDEST DUP3 DUP2 LT ISZERO PUSH2 0x1085 JUMPI DUP9 DUP7 ADD MLOAD DUP3 SSTORE SWAP5 DUP5 ADD SWAP5 PUSH1 0x1 SWAP1 SWAP2 ADD SWAP1 DUP5 ADD PUSH2 0x1066 JUMP JUMPDEST POP DUP6 DUP3 LT ISZERO PUSH2 0x10A2 JUMPI DUP8 DUP6 ADD MLOAD PUSH0 NOT PUSH1 0x3 DUP9 SWAP1 SHL PUSH1 0xF8 AND SHR NOT AND DUP2 SSTORE JUMPDEST POP POP PUSH1 0x1 DUP5 PUSH1 0x1 SHL ADD DUP6 SSTORE JUMPDEST POP POP POP POP POP POP JUMP JUMPDEST PUSH1 0x40 DUP2 MSTORE PUSH0 PUSH2 0x10C8 PUSH1 0x40 DUP4 ADD DUP6 PUSH2 0xDBC JUMP JUMPDEST SWAP1 POP PUSH1 0x1 DUP1 PUSH1 0xA0 SHL SUB DUP4 AND PUSH1 0x20 DUP4 ADD MSTORE SWAP4 SWAP3 POP POP POP JUMP JUMPDEST PUSH4 0x4E487B71 PUSH1 0xE0 SHL PUSH0 MSTORE PUSH1 0x32 PUSH1 0x4 MSTORE PUSH1 0x24 PUSH0 REVERT JUMPDEST PUSH1 0xFF DUP2 DUP2 AND DUP4 DUP3 AND ADD SWAP1 DUP2 GT ISZERO PUSH2 0x398 JUMPI PUSH4 0x4E487B71 PUSH1 0xE0 SHL PUSH0 MSTORE PUSH1 0x11 PUSH1 0x4 MSTORE PUSH1 0x24 PUSH0 REVERT INVALID LOG2 PUSH5 0x6970667358 0x22 SLT KECCAK256 SAR REVERT DUP10 0xD2 CREATE2 0xE5 CODESIZE 0xAD INVALID JUMPDEST REVERT LOG2 0xEF DUP8 0x29 0xD2 MSIZE PUSH25 0xBEB20D058B1A90E3B78DF7CADC6C64736F6C63430008190033 "
				},
				"gasEstimates": {
					"creation": {
						"codeDepositCost": "886000",
						"executionCost": "infinite",
						"totalCost": "infinite"
					},
					"external": {
						"ADMIN_ROLE()": "239",
						"BACKEND_ROLE()": "283",
						"INVESTOR_ROLE()": "261",
						"PRODUCER_ROLE()": "216",
						"VERIFIER_ROLE()": "260",
						"blacklistAccount(string,bool)": "infinite",
						"getAccountData(string)": "infinite",
						"isNotBlacklisted(string)": "infinite",
						"isRegistered(string)": "infinite",
						"registerAccount(string,string,address)": "infinite",
						"updateLastActive(string)": "infinite",
						"verifyRole(string,bytes32)": "infinite"
					},
					"internal": {
						"_roleToString(bytes32)": "infinite",
						"_toLowerCase(string memory)": "infinite"
					}
				},
				"methodIdentifiers": {
					"ADMIN_ROLE()": "75b238fc",
					"BACKEND_ROLE()": "92c2becc",
					"INVESTOR_ROLE()": "76082a5e",
					"PRODUCER_ROLE()": "cb3e1fe7",
					"VERIFIER_ROLE()": "e7705db6",
					"blacklistAccount(string,bool)": "cd367584",
					"getAccountData(string)": "f3f9f267",
					"isNotBlacklisted(string)": "518ab27b",
					"isRegistered(string)": "c822d7f0",
					"registerAccount(string,string,address)": "ea46f8e3",
					"updateLastActive(string)": "20884f70",
					"verifyRole(string,bytes32)": "a8b07735"
				}
			},
			"storageLayout": {
				"storage": [
					{
						"astId": 476,
						"contract": "contracts/npc_credits/NPC_AccountManager.sol:NPC_AccountManager",
						"label": "roleManager",
						"offset": 0,
						"slot": "0",
						"type": "t_contract(NPC_RoleManager)1013"
					},
					{
						"astId": 492,
						"contract": "contracts/npc_credits/NPC_AccountManager.sol:NPC_AccountManager",
						"label": "accountData",
						"offset": 0,
						"slot": "1",
						"type": "t_mapping(t_string_memory_ptr,t_struct(AccountData)487_storage)"
					}
				],
				"types": {
					"t_address": {
						"encoding": "inplace",
						"label": "address",
						"numberOfBytes": "20"
					},
					"t_bool": {
						"encoding": "inplace",
						"label": "bool",
						"numberOfBytes": "1"
					},
					"t_contract(NPC_RoleManager)1013": {
						"encoding": "inplace",
						"label": "contract NPC_RoleManager",
						"numberOfBytes": "20"
					},
					"t_mapping(t_string_memory_ptr,t_struct(AccountData)487_storage)": {
						"encoding": "mapping",
						"key": "t_string_memory_ptr",
						"label": "mapping(string => struct NPC_AccountManager.AccountData)",
						"numberOfBytes": "32",
						"value": "t_struct(AccountData)487_storage"
					},
					"t_string_memory_ptr": {
						"encoding": "bytes",
						"label": "string",
						"numberOfBytes": "32"
					},
					"t_string_storage": {
						"encoding": "bytes",
						"label": "string",
						"numberOfBytes": "32"
					},
					"t_struct(AccountData)487_storage": {
						"encoding": "inplace",
						"label": "struct NPC_AccountManager.AccountData",
						"members": [
							{
								"astId": 478,
								"contract": "contracts/npc_credits/NPC_AccountManager.sol:NPC_AccountManager",
								"label": "role",
								"offset": 0,
								"slot": "0",
								"type": "t_string_storage"
							},
							{
								"astId": 480,
								"contract": "contracts/npc_credits/NPC_AccountManager.sol:NPC_AccountManager",
								"label": "txAddress",
								"offset": 0,
								"slot": "1",
								"type": "t_address"
							},
							{
								"astId": 482,
								"contract": "contracts/npc_credits/NPC_AccountManager.sol:NPC_AccountManager",
								"label": "isBlacklisted",
								"offset": 20,
								"slot": "1",
								"type": "t_bool"
							},
							{
								"astId": 484,
								"contract": "contracts/npc_credits/NPC_AccountManager.sol:NPC_AccountManager",
								"label": "lastActive",
								"offset": 0,
								"slot": "2",
								"type": "t_uint256"
							},
							{
								"astId": 486,
								"contract": "contracts/npc_credits/NPC_AccountManager.sol:NPC_AccountManager",
								"label": "registered",
								"offset": 0,
								"slot": "3",
								"type": "t_bool"
							}
						],
						"numberOfBytes": "128"
					},
					"t_uint256": {
						"encoding": "inplace",
						"label": "uint256",
						"numberOfBytes": "32"
					}
				}
			},
			"userdoc": {
				"kind": "user",
				"methods": {},
				"version": 1
			}
		}
	}
}