{
	"contracts/npc_credits/npc_credits.sol": {
		"CreditContract": {
			"abi": [
				{
					"inputs": [],
					"stateMutability": "nonpayable",
					"type": "constructor"
				},
				{
					"anonymous": false,
					"inputs": [
						{
							"indexed": false,
							"internalType": "int256",
							"name": "certificateId",
							"type": "int256"
						},
						{
							"indexed": false,
							"internalType": "string",
							"name": "accountID",
							"type": "string"
						},
						{
							"indexed": false,
							"internalType": "string",
							"name": "producer",
							"type": "string"
						},
						{
							"indexed": false,
							"internalType": "string",
							"name": "verifier",
							"type": "string"
						},
						{
							"indexed": false,
							"internalType": "string",
							"name": "creditType",
							"type": "string"
						},
						{
							"indexed": false,
							"internalType": "int256",
							"name": "balance",
							"type": "int256"
						}
					],
					"name": "CertificateCreated",
					"type": "event"
				},
				{
					"anonymous": false,
					"inputs": [
						{
							"indexed": false,
							"internalType": "string",
							"name": "accountID",
							"type": "string"
						},
						{
							"indexed": false,
							"internalType": "string",
							"name": "producer",
							"type": "string"
						},
						{
							"indexed": false,
							"internalType": "string",
							"name": "verifier",
							"type": "string"
						},
						{
							"indexed": false,
							"internalType": "string",
							"name": "creditType",
							"type": "string"
						},
						{
							"indexed": false,
							"internalType": "int256",
							"name": "amount",
							"type": "int256"
						},
						{
							"indexed": false,
							"internalType": "int256",
							"name": "price",
							"type": "int256"
						}
					],
					"name": "CreditsBought",
					"type": "event"
				},
				{
					"anonymous": false,
					"inputs": [
						{
							"indexed": false,
							"internalType": "string",
							"name": "accountID",
							"type": "string"
						},
						{
							"indexed": false,
							"internalType": "string",
							"name": "producer",
							"type": "string"
						},
						{
							"indexed": false,
							"internalType": "string",
							"name": "verifier",
							"type": "string"
						},
						{
							"indexed": false,
							"internalType": "string",
							"name": "creditType",
							"type": "string"
						},
						{
							"indexed": false,
							"internalType": "int256",
							"name": "amount",
							"type": "int256"
						}
					],
					"name": "CreditsDonated",
					"type": "event"
				},
				{
					"anonymous": false,
					"inputs": [
						{
							"indexed": false,
							"internalType": "string",
							"name": "producer",
							"type": "string"
						},
						{
							"indexed": false,
							"internalType": "string",
							"name": "verifier",
							"type": "string"
						},
						{
							"indexed": false,
							"internalType": "string",
							"name": "creditType",
							"type": "string"
						},
						{
							"indexed": false,
							"internalType": "int256",
							"name": "amount",
							"type": "int256"
						}
					],
					"name": "CreditsIssued",
					"type": "event"
				},
				{
					"anonymous": false,
					"inputs": [
						{
							"indexed": false,
							"internalType": "string",
							"name": "senderAccountID",
							"type": "string"
						},
						{
							"indexed": false,
							"internalType": "string",
							"name": "receiverAccountID",
							"type": "string"
						},
						{
							"indexed": false,
							"internalType": "string",
							"name": "producer",
							"type": "string"
						},
						{
							"indexed": false,
							"internalType": "string",
							"name": "verifier",
							"type": "string"
						},
						{
							"indexed": false,
							"internalType": "string",
							"name": "creditType",
							"type": "string"
						},
						{
							"indexed": false,
							"internalType": "int256",
							"name": "amount",
							"type": "int256"
						},
						{
							"indexed": false,
							"internalType": "int256",
							"name": "price",
							"type": "int256"
						}
					],
					"name": "CreditsTransferred",
					"type": "event"
				},
				{
					"anonymous": false,
					"inputs": [
						{
							"indexed": true,
							"internalType": "address",
							"name": "previousOwner",
							"type": "address"
						},
						{
							"indexed": true,
							"internalType": "address",
							"name": "newOwner",
							"type": "address"
						}
					],
					"name": "OwnershipTransferred",
					"type": "event"
				},
				{
					"inputs": [
						{
							"internalType": "string",
							"name": "_accountID",
							"type": "string"
						},
						{
							"internalType": "string",
							"name": "_producer",
							"type": "string"
						},
						{
							"internalType": "string",
							"name": "_verifier",
							"type": "string"
						},
						{
							"internalType": "string",
							"name": "_creditType",
							"type": "string"
						},
						{
							"internalType": "int256",
							"name": "amount",
							"type": "int256"
						},
						{
							"internalType": "int256",
							"name": "price",
							"type": "int256"
						}
					],
					"name": "buyCredits",
					"outputs": [
						{
							"internalType": "bool",
							"name": "_creditsBought",
							"type": "bool"
						}
					],
					"stateMutability": "nonpayable",
					"type": "function"
				},
				{
					"inputs": [
						{
							"internalType": "string",
							"name": "_accountID",
							"type": "string"
						},
						{
							"internalType": "string",
							"name": "_producer",
							"type": "string"
						},
						{
							"internalType": "string",
							"name": "_verifier",
							"type": "string"
						},
						{
							"internalType": "string",
							"name": "_creditType",
							"type": "string"
						},
						{
							"internalType": "int256",
							"name": "amount",
							"type": "int256"
						}
					],
					"name": "donateCredits",
					"outputs": [
						{
							"internalType": "bool",
							"name": "_creditsDonated",
							"type": "bool"
						}
					],
					"stateMutability": "nonpayable",
					"type": "function"
				},
				{
					"inputs": [
						{
							"internalType": "string",
							"name": "accountID",
							"type": "string"
						},
						{
							"internalType": "string",
							"name": "producer",
							"type": "string"
						},
						{
							"internalType": "string",
							"name": "verifier",
							"type": "string"
						},
						{
							"internalType": "string",
							"name": "creditType",
							"type": "string"
						}
					],
					"name": "getAccountBalance",
					"outputs": [
						{
							"internalType": "int256",
							"name": "_accountBalance",
							"type": "int256"
						}
					],
					"stateMutability": "view",
					"type": "function"
				},
				{
					"inputs": [
						{
							"internalType": "string",
							"name": "accountID",
							"type": "string"
						}
					],
					"name": "getAccountCertificates",
					"outputs": [
						{
							"internalType": "int256[]",
							"name": "_accountCertificates",
							"type": "int256[]"
						}
					],
					"stateMutability": "view",
					"type": "function"
				},
				{
					"inputs": [
						{
							"internalType": "string",
							"name": "accountID",
							"type": "string"
						}
					],
					"name": "getAccountTotalBalance",
					"outputs": [
						{
							"internalType": "int256",
							"name": "_accountTotalBalance",
							"type": "int256"
						}
					],
					"stateMutability": "view",
					"type": "function"
				},
				{
					"inputs": [
						{
							"internalType": "int256",
							"name": "certificateId",
							"type": "int256"
						}
					],
					"name": "getCertificateById",
					"outputs": [
						{
							"components": [
								{
									"internalType": "int256",
									"name": "id",
									"type": "int256"
								},
								{
									"internalType": "string",
									"name": "buyer",
									"type": "string"
								},
								{
									"internalType": "string",
									"name": "producer",
									"type": "string"
								},
								{
									"internalType": "string",
									"name": "verifier",
									"type": "string"
								},
								{
									"internalType": "string",
									"name": "creditType",
									"type": "string"
								},
								{
									"internalType": "int256",
									"name": "balance",
									"type": "int256"
								},
								{
									"internalType": "int256",
									"name": "price",
									"type": "int256"
								},
								{
									"internalType": "uint256",
									"name": "timestamp",
									"type": "uint256"
								}
							],
							"internalType": "struct CreditContract.Certificate",
							"name": "_certificate",
							"type": "tuple"
						}
					],
					"stateMutability": "view",
					"type": "function"
				},
				{
					"inputs": [],
					"name": "getCreditTypes",
					"outputs": [
						{
							"internalType": "string[]",
							"name": "_creditTypes",
							"type": "string[]"
						}
					],
					"stateMutability": "view",
					"type": "function"
				},
				{
					"inputs": [],
					"name": "getOwner",
					"outputs": [
						{
							"internalType": "address",
							"name": "_owner",
							"type": "address"
						}
					],
					"stateMutability": "view",
					"type": "function"
				},
				{
					"inputs": [
						{
							"internalType": "string",
							"name": "producer",
							"type": "string"
						}
					],
					"name": "getProducerVerifiers",
					"outputs": [
						{
							"internalType": "string[]",
							"name": "_producerVerifiers",
							"type": "string[]"
						}
					],
					"stateMutability": "view",
					"type": "function"
				},
				{
					"inputs": [],
					"name": "getProducers",
					"outputs": [
						{
							"internalType": "string[]",
							"name": "_producers",
							"type": "string[]"
						}
					],
					"stateMutability": "view",
					"type": "function"
				},
				{
					"inputs": [
						{
							"internalType": "string",
							"name": "producer",
							"type": "string"
						},
						{
							"internalType": "string",
							"name": "verifier",
							"type": "string"
						},
						{
							"internalType": "string",
							"name": "creditType",
							"type": "string"
						}
					],
					"name": "getSupply",
					"outputs": [
						{
							"components": [
								{
									"internalType": "int256",
									"name": "issued",
									"type": "int256"
								},
								{
									"internalType": "int256",
									"name": "available",
									"type": "int256"
								},
								{
									"internalType": "int256",
									"name": "donated",
									"type": "int256"
								}
							],
							"internalType": "struct CreditContract.Supply",
							"name": "_supply",
							"type": "tuple"
						}
					],
					"stateMutability": "view",
					"type": "function"
				},
				{
					"inputs": [],
					"name": "getTotalCertificates",
					"outputs": [
						{
							"internalType": "int256",
							"name": "_totalCertificates",
							"type": "int256"
						}
					],
					"stateMutability": "view",
					"type": "function"
				},
				{
					"inputs": [],
					"name": "getTotalDonatedSupply",
					"outputs": [
						{
							"internalType": "int256",
							"name": "_totalDonatedSupply",
							"type": "int256"
						}
					],
					"stateMutability": "view",
					"type": "function"
				},
				{
					"inputs": [],
					"name": "getTotalSold",
					"outputs": [
						{
							"internalType": "int256",
							"name": "_totalSold",
							"type": "int256"
						}
					],
					"stateMutability": "view",
					"type": "function"
				},
				{
					"inputs": [],
					"name": "getTotalSupply",
					"outputs": [
						{
							"internalType": "int256",
							"name": "_totalSupply",
							"type": "int256"
						}
					],
					"stateMutability": "view",
					"type": "function"
				},
				{
					"inputs": [
						{
							"internalType": "string",
							"name": "creditType",
							"type": "string"
						}
					],
					"name": "isCreditRegistered",
					"outputs": [
						{
							"internalType": "bool",
							"name": "_creditRegistered",
							"type": "bool"
						}
					],
					"stateMutability": "view",
					"type": "function"
				},
				{
					"inputs": [
						{
							"internalType": "string",
							"name": "producer",
							"type": "string"
						}
					],
					"name": "isProducerRegistered",
					"outputs": [
						{
							"internalType": "bool",
							"name": "_producerRegistered",
							"type": "bool"
						}
					],
					"stateMutability": "view",
					"type": "function"
				},
				{
					"inputs": [
						{
							"internalType": "string",
							"name": "producer",
							"type": "string"
						},
						{
							"internalType": "string",
							"name": "verifier",
							"type": "string"
						}
					],
					"name": "isProducerVerified",
					"outputs": [
						{
							"internalType": "bool",
							"name": "_producerVerified",
							"type": "bool"
						}
					],
					"stateMutability": "view",
					"type": "function"
				},
				{
					"inputs": [
						{
							"internalType": "string",
							"name": "_producer",
							"type": "string"
						},
						{
							"internalType": "string",
							"name": "_verifier",
							"type": "string"
						},
						{
							"internalType": "string",
							"name": "_creditType",
							"type": "string"
						},
						{
							"internalType": "int256",
							"name": "amount",
							"type": "int256"
						}
					],
					"name": "issueCredits",
					"outputs": [
						{
							"internalType": "bool",
							"name": "_issued",
							"type": "bool"
						}
					],
					"stateMutability": "nonpayable",
					"type": "function"
				},
				{
					"inputs": [
						{
							"internalType": "string",
							"name": "senderAccountID",
							"type": "string"
						},
						{
							"internalType": "string",
							"name": "receiverAccountID",
							"type": "string"
						},
						{
							"internalType": "string",
							"name": "_producer",
							"type": "string"
						},
						{
							"internalType": "string",
							"name": "_verifier",
							"type": "string"
						},
						{
							"internalType": "string",
							"name": "_creditType",
							"type": "string"
						},
						{
							"internalType": "int256",
							"name": "amount",
							"type": "int256"
						},
						{
							"internalType": "int256",
							"name": "price",
							"type": "int256"
						}
					],
					"name": "transferCredits",
					"outputs": [
						{
							"internalType": "bool",
							"name": "_creditsTransferred",
							"type": "bool"
						}
					],
					"stateMutability": "nonpayable",
					"type": "function"
				},
				{
					"inputs": [
						{
							"internalType": "address",
							"name": "newOwner",
							"type": "address"
						}
					],
					"name": "transferOwnership",
					"outputs": [
						{
							"internalType": "bool",
							"name": "",
							"type": "bool"
						}
					],
					"stateMutability": "nonpayable",
					"type": "function"
				}
			],
			"devdoc": {
				"kind": "dev",
				"methods": {},
				"version": 1
			},
			"evm": {
				"assembly": "    /* \"contracts/npc_credits/npc_credits.sol\":60:12726  contract CreditContract {... */\n  mstore(0x40, 0x80)\n    /* \"contracts/npc_credits/npc_credits.sol\":2316:2375  constructor() {... */\n  callvalue\n  dup1\n  iszero\n  tag_1\n  jumpi\n  0x00\n  dup1\n  revert\ntag_1:\n  pop\n    /* \"contracts/npc_credits/npc_credits.sol\":2357:2367  msg.sender */\n  caller\n    /* \"contracts/npc_credits/npc_credits.sol\":2341:2354  contractOwner */\n  0x00\n  dup1\n    /* \"contracts/npc_credits/npc_credits.sol\":2341:2367  contractOwner = msg.sender */\n  0x0100\n  exp\n  dup2\n  sload\n  dup2\n  0xffffffffffffffffffffffffffffffffffffffff\n  mul\n  not\n  and\n  swap1\n  dup4\n  0xffffffffffffffffffffffffffffffffffffffff\n  and\n  mul\n  or\n  swap1\n  sstore\n  pop\n    /* \"contracts/npc_credits/npc_credits.sol\":60:12726  contract CreditContract {... */\n  dataSize(sub_0)\n  dup1\n  dataOffset(sub_0)\n  0x00\n  codecopy\n  0x00\n  return\nstop\n\nsub_0: assembly {\n        /* \"contracts/npc_credits/npc_credits.sol\":60:12726  contract CreditContract {... */\n      mstore(0x40, 0x80)\n      callvalue\n      dup1\n      iszero\n      tag_1\n      jumpi\n      0x00\n      dup1\n      revert\n    tag_1:\n      pop\n      jumpi(tag_2, lt(calldatasize, 0x04))\n      shr(0xe0, calldataload(0x00))\n      dup1\n      0x7843bb79\n      gt\n      tag_24\n      jumpi\n      dup1\n      0xa81e53d3\n      gt\n      tag_25\n      jumpi\n      dup1\n      0xa81e53d3\n      eq\n      tag_18\n      jumpi\n      dup1\n      0xc4e41b22\n      eq\n      tag_19\n      jumpi\n      dup1\n      0xe80a7eb9\n      eq\n      tag_20\n      jumpi\n      dup1\n      0xf2fde38b\n      eq\n      tag_21\n      jumpi\n      dup1\n      0xf45f147c\n      eq\n      tag_22\n      jumpi\n      dup1\n      0xfd6befb2\n      eq\n      tag_23\n      jumpi\n      jump(tag_2)\n    tag_25:\n      dup1\n      0x7843bb79\n      eq\n      tag_13\n      jumpi\n      dup1\n      0x789237e6\n      eq\n      tag_14\n      jumpi\n      dup1\n      0x893d20e8\n      eq\n      tag_15\n      jumpi\n      dup1\n      0x9d7b8e68\n      eq\n      tag_16\n      jumpi\n      dup1\n      0x9e41b406\n      eq\n      tag_17\n      jumpi\n      jump(tag_2)\n    tag_24:\n      dup1\n      0x47c44529\n      gt\n      tag_26\n      jumpi\n      dup1\n      0x47c44529\n      eq\n      tag_8\n      jumpi\n      dup1\n      0x5a97595c\n      eq\n      tag_9\n      jumpi\n      dup1\n      0x6440f6b2\n      eq\n      tag_10\n      jumpi\n      dup1\n      0x64611bd6\n      eq\n      tag_11\n      jumpi\n      dup1\n      0x65895f95\n      eq\n      tag_12\n      jumpi\n      jump(tag_2)\n    tag_26:\n      dup1\n      0x072652fe\n      eq\n      tag_3\n      jumpi\n      dup1\n      0x1d37fd68\n      eq\n      tag_4\n      jumpi\n      dup1\n      0x207573f0\n      eq\n      tag_5\n      jumpi\n      dup1\n      0x37324a4c\n      eq\n      tag_6\n      jumpi\n      dup1\n      0x3b7479e0\n      eq\n      tag_7\n      jumpi\n    tag_2:\n      0x00\n      dup1\n      revert\n        /* \"contracts/npc_credits/npc_credits.sol\":2794:2967  function getTotalDonatedSupply()... */\n    tag_3:\n      tag_27\n      tag_28\n      jump\t// in\n    tag_27:\n      mload(0x40)\n      tag_29\n      swap2\n      swap1\n      tag_30\n      jump\t// in\n    tag_29:\n      mload(0x40)\n      dup1\n      swap2\n      sub\n      swap1\n      return\n        /* \"contracts/npc_credits/npc_credits.sol\":3152:3337  function getCertificateById(... */\n    tag_4:\n      tag_31\n      0x04\n      dup1\n      calldatasize\n      sub\n      dup2\n      add\n      swap1\n      tag_32\n      swap2\n      swap1\n      tag_33\n      jump\t// in\n    tag_32:\n      tag_34\n      jump\t// in\n    tag_31:\n      mload(0x40)\n      tag_35\n      swap2\n      swap1\n      tag_36\n      jump\t// in\n    tag_35:\n      mload(0x40)\n      dup1\n      swap2\n      sub\n      swap1\n      return\n        /* \"contracts/npc_credits/npc_credits.sol\":5484:5757  function isProducerVerified(... */\n    tag_5:\n      tag_37\n      0x04\n      dup1\n      calldatasize\n      sub\n      dup2\n      add\n      swap1\n      tag_38\n      swap2\n      swap1\n      tag_39\n      jump\t// in\n    tag_38:\n      tag_40\n      jump\t// in\n    tag_37:\n      mload(0x40)\n      tag_41\n      swap2\n      swap1\n      tag_42\n      jump\t// in\n    tag_41:\n      mload(0x40)\n      dup1\n      swap2\n      sub\n      swap1\n      return\n        /* \"contracts/npc_credits/npc_credits.sol\":9486:10506  function donateCredits(... */\n    tag_6:\n      tag_43\n      0x04\n      dup1\n      calldatasize\n      sub\n      dup2\n      add\n      swap1\n      tag_44\n      swap2\n      swap1\n      tag_45\n      jump\t// in\n    tag_44:\n      tag_46\n      jump\t// in\n    tag_43:\n      mload(0x40)\n      tag_47\n      swap2\n      swap1\n      tag_42\n      jump\t// in\n    tag_47:\n      mload(0x40)\n      dup1\n      swap2\n      sub\n      swap1\n      return\n        /* \"contracts/npc_credits/npc_credits.sol\":5765:6931  function issueCredits(... */\n    tag_7:\n      tag_48\n      0x04\n      dup1\n      calldatasize\n      sub\n      dup2\n      add\n      swap1\n      tag_49\n      swap2\n      swap1\n      tag_50\n      jump\t// in\n    tag_49:\n      tag_51\n      jump\t// in\n    tag_48:\n      mload(0x40)\n      tag_52\n      swap2\n      swap1\n      tag_42\n      jump\t// in\n    tag_52:\n      mload(0x40)\n      dup1\n      swap2\n      sub\n      swap1\n      return\n        /* \"contracts/npc_credits/npc_credits.sol\":4833:5042  function getAccountTotalBalance(... */\n    tag_8:\n      tag_53\n      0x04\n      dup1\n      calldatasize\n      sub\n      dup2\n      add\n      swap1\n      tag_54\n      swap2\n      swap1\n      tag_55\n      jump\t// in\n    tag_54:\n      tag_56\n      jump\t// in\n    tag_53:\n      mload(0x40)\n      tag_57\n      swap2\n      swap1\n      tag_30\n      jump\t// in\n    tag_57:\n      mload(0x40)\n      dup1\n      swap2\n      sub\n      swap1\n      return\n        /* \"contracts/npc_credits/npc_credits.sol\":3683:3879  function isCreditRegistered(... */\n    tag_9:\n      tag_58\n      0x04\n      dup1\n      calldatasize\n      sub\n      dup2\n      add\n      swap1\n      tag_59\n      swap2\n      swap1\n      tag_55\n      jump\t// in\n    tag_59:\n      tag_60\n      jump\t// in\n    tag_58:\n      mload(0x40)\n      tag_61\n      swap2\n      swap1\n      tag_42\n      jump\t// in\n    tag_61:\n      mload(0x40)\n      dup1\n      swap2\n      sub\n      swap1\n      return\n        /* \"contracts/npc_credits/npc_credits.sol\":8072:9478  function transferCredits(... */\n    tag_10:\n      tag_62\n      0x04\n      dup1\n      calldatasize\n      sub\n      dup2\n      add\n      swap1\n      tag_63\n      swap2\n      swap1\n      tag_64\n      jump\t// in\n    tag_63:\n      tag_65\n      jump\t// in\n    tag_62:\n      mload(0x40)\n      tag_66\n      swap2\n      swap1\n      tag_42\n      jump\t// in\n    tag_66:\n      mload(0x40)\n      dup1\n      swap2\n      sub\n      swap1\n      return\n        /* \"contracts/npc_credits/npc_credits.sol\":4437:4825  function getAccountBalance(... */\n    tag_11:\n      tag_67\n      0x04\n      dup1\n      calldatasize\n      sub\n      dup2\n      add\n      swap1\n      tag_68\n      swap2\n      swap1\n      tag_69\n      jump\t// in\n    tag_68:\n      tag_70\n      jump\t// in\n    tag_67:\n      mload(0x40)\n      tag_71\n      swap2\n      swap1\n      tag_30\n      jump\t// in\n    tag_71:\n      mload(0x40)\n      dup1\n      swap2\n      sub\n      swap1\n      return\n        /* \"contracts/npc_credits/npc_credits.sol\":5050:5268  function getAccountCertificates(... */\n    tag_12:\n      tag_72\n      0x04\n      dup1\n      calldatasize\n      sub\n      dup2\n      add\n      swap1\n      tag_73\n      swap2\n      swap1\n      tag_55\n      jump\t// in\n    tag_73:\n      tag_74\n      jump\t// in\n    tag_72:\n      mload(0x40)\n      tag_75\n      swap2\n      swap1\n      tag_76\n      jump\t// in\n    tag_75:\n      mload(0x40)\n      dup1\n      swap2\n      sub\n      swap1\n      return\n        /* \"contracts/npc_credits/npc_credits.sol\":2975:3144  function getTotalCertificates()... */\n    tag_13:\n      tag_77\n      tag_78\n      jump\t// in\n    tag_77:\n      mload(0x40)\n      tag_79\n      swap2\n      swap1\n      tag_30\n      jump\t// in\n    tag_79:\n      mload(0x40)\n      dup1\n      swap2\n      sub\n      swap1\n      return\n        /* \"contracts/npc_credits/npc_credits.sol\":3467:3675  function getProducerVerifiers(... */\n    tag_14:\n      tag_80\n      0x04\n      dup1\n      calldatasize\n      sub\n      dup2\n      add\n      swap1\n      tag_81\n      swap2\n      swap1\n      tag_55\n      jump\t// in\n    tag_81:\n      tag_82\n      jump\t// in\n    tag_80:\n      mload(0x40)\n      tag_83\n      swap2\n      swap1\n      tag_84\n      jump\t// in\n    tag_83:\n      mload(0x40)\n      dup1\n      swap2\n      sub\n      swap1\n      return\n        /* \"contracts/npc_credits/npc_credits.sol\":2567:2665  function getOwner() public view returns (address _owner) {... */\n    tag_15:\n      tag_85\n      tag_86\n      jump\t// in\n    tag_85:\n      mload(0x40)\n      tag_87\n      swap2\n      swap1\n      tag_88\n      jump\t// in\n    tag_87:\n      mload(0x40)\n      dup1\n      swap2\n      sub\n      swap1\n      return\n        /* \"contracts/npc_credits/npc_credits.sol\":4326:4429  function getTotalSold() public view returns(int256 _totalSold) {... */\n    tag_16:\n      tag_89\n      tag_90\n      jump\t// in\n    tag_89:\n      mload(0x40)\n      tag_91\n      swap2\n      swap1\n      tag_30\n      jump\t// in\n    tag_91:\n      mload(0x40)\n      dup1\n      swap2\n      sub\n      swap1\n      return\n        /* \"contracts/npc_credits/npc_credits.sol\":6939:8064  function buyCredits(... */\n    tag_17:\n      tag_92\n      0x04\n      dup1\n      calldatasize\n      sub\n      dup2\n      add\n      swap1\n      tag_93\n      swap2\n      swap1\n      tag_94\n      jump\t// in\n    tag_93:\n      tag_95\n      jump\t// in\n    tag_92:\n      mload(0x40)\n      tag_96\n      swap2\n      swap1\n      tag_42\n      jump\t// in\n    tag_96:\n      mload(0x40)\n      dup1\n      swap2\n      sub\n      swap1\n      return\n        /* \"contracts/npc_credits/npc_credits.sol\":3887:4008  function getCreditTypes() public view returns(string[] memory _creditTypes) {... */\n    tag_18:\n      tag_97\n      tag_98\n      jump\t// in\n    tag_97:\n      mload(0x40)\n      tag_99\n      swap2\n      swap1\n      tag_84\n      jump\t// in\n    tag_99:\n      mload(0x40)\n      dup1\n      swap2\n      sub\n      swap1\n      return\n        /* \"contracts/npc_credits/npc_credits.sol\":2673:2786  function getTotalSupply() public view returns (int256 _totalSupply) {... */\n    tag_19:\n      tag_100\n      tag_101\n      jump\t// in\n    tag_100:\n      mload(0x40)\n      tag_102\n      swap2\n      swap1\n      tag_30\n      jump\t// in\n    tag_102:\n      mload(0x40)\n      dup1\n      swap2\n      sub\n      swap1\n      return\n        /* \"contracts/npc_credits/npc_credits.sol\":3345:3459  function getProducers() public view returns (string[] memory _producers) {... */\n    tag_20:\n      tag_103\n      tag_104\n      jump\t// in\n    tag_103:\n      mload(0x40)\n      tag_105\n      swap2\n      swap1\n      tag_84\n      jump\t// in\n    tag_105:\n      mload(0x40)\n      dup1\n      swap2\n      sub\n      swap1\n      return\n        /* \"contracts/npc_credits/npc_credits.sol\":10514:10805  function transferOwnership(... */\n    tag_21:\n      tag_106\n      0x04\n      dup1\n      calldatasize\n      sub\n      dup2\n      add\n      swap1\n      tag_107\n      swap2\n      swap1\n      tag_108\n      jump\t// in\n    tag_107:\n      tag_109\n      jump\t// in\n    tag_106:\n      mload(0x40)\n      tag_110\n      swap2\n      swap1\n      tag_42\n      jump\t// in\n    tag_110:\n      mload(0x40)\n      dup1\n      swap2\n      sub\n      swap1\n      return\n        /* \"contracts/npc_credits/npc_credits.sol\":5276:5476  function isProducerRegistered(... */\n    tag_22:\n      tag_111\n      0x04\n      dup1\n      calldatasize\n      sub\n      dup2\n      add\n      swap1\n      tag_112\n      swap2\n      swap1\n      tag_55\n      jump\t// in\n    tag_112:\n      tag_113\n      jump\t// in\n    tag_111:\n      mload(0x40)\n      tag_114\n      swap2\n      swap1\n      tag_42\n      jump\t// in\n    tag_114:\n      mload(0x40)\n      dup1\n      swap2\n      sub\n      swap1\n      return\n        /* \"contracts/npc_credits/npc_credits.sol\":4014:4318  function getSupply(... */\n    tag_23:\n      tag_115\n      0x04\n      dup1\n      calldatasize\n      sub\n      dup2\n      add\n      swap1\n      tag_116\n      swap2\n      swap1\n      tag_117\n      jump\t// in\n    tag_116:\n      tag_118\n      jump\t// in\n    tag_115:\n      mload(0x40)\n      tag_119\n      swap2\n      swap1\n      tag_120\n      jump\t// in\n    tag_119:\n      mload(0x40)\n      dup1\n      swap2\n      sub\n      swap1\n      return\n        /* \"contracts/npc_credits/npc_credits.sol\":2794:2967  function getTotalDonatedSupply()... */\n    tag_28:\n        /* \"contracts/npc_credits/npc_credits.sol\":2875:2901  int256 _totalDonatedSupply */\n      0x00\n        /* \"contracts/npc_credits/npc_credits.sol\":2941:2959  totalDonatedSupply */\n      sload(0x02)\n        /* \"contracts/npc_credits/npc_credits.sol\":2919:2959  _totalDonatedSupply = totalDonatedSupply */\n      swap1\n      pop\n        /* \"contracts/npc_credits/npc_credits.sol\":2794:2967  function getTotalDonatedSupply()... */\n      swap1\n      jump\t// out\n        /* \"contracts/npc_credits/npc_credits.sol\":3152:3337  function getCertificateById(... */\n    tag_34:\n        /* \"contracts/npc_credits/npc_credits.sol\":3239:3270  Certificate memory _certificate */\n      tag_122\n      tag_123\n      jump\t// in\n    tag_122:\n        /* \"contracts/npc_credits/npc_credits.sol\":3298:3314  certificatesById */\n      0x0a\n        /* \"contracts/npc_credits/npc_credits.sol\":3298:3329  certificatesById[certificateId] */\n      0x00\n        /* \"contracts/npc_credits/npc_credits.sol\":3315:3328  certificateId */\n      dup4\n        /* \"contracts/npc_credits/npc_credits.sol\":3298:3329  certificatesById[certificateId] */\n      dup2\n      mstore\n      0x20\n      add\n      swap1\n      dup2\n      mstore\n      0x20\n      add\n      0x00\n      keccak256\n        /* \"contracts/npc_credits/npc_credits.sol\":3283:3329  _certificate = certificatesById[certificateId] */\n      mload(0x40)\n      dup1\n      0x0100\n      add\n      0x40\n      mstore\n      swap1\n      dup2\n      0x00\n      dup3\n      add\n      sload\n      dup2\n      mstore\n      0x20\n      add\n      0x01\n      dup3\n      add\n      dup1\n      sload\n      tag_125\n      swap1\n      tag_126\n      jump\t// in\n    tag_125:\n      dup1\n      0x1f\n      add\n      0x20\n      dup1\n      swap2\n      div\n      mul\n      0x20\n      add\n      mload(0x40)\n      swap1\n      dup2\n      add\n      0x40\n      mstore\n      dup1\n      swap3\n      swap2\n      swap1\n      dup2\n      dup2\n      mstore\n      0x20\n      add\n      dup3\n      dup1\n      sload\n      tag_127\n      swap1\n      tag_126\n      jump\t// in\n    tag_127:\n      dup1\n      iszero\n      tag_128\n      jumpi\n      dup1\n      0x1f\n      lt\n      tag_129\n      jumpi\n      0x0100\n      dup1\n      dup4\n      sload\n      div\n      mul\n      dup4\n      mstore\n      swap2\n      0x20\n      add\n      swap2\n      jump(tag_128)\n    tag_129:\n      dup3\n      add\n      swap2\n      swap1\n      0x00\n      mstore\n      keccak256(0x00, 0x20)\n      swap1\n    tag_130:\n      dup2\n      sload\n      dup2\n      mstore\n      swap1\n      0x01\n      add\n      swap1\n      0x20\n      add\n      dup1\n      dup4\n      gt\n      tag_130\n      jumpi\n      dup3\n      swap1\n      sub\n      0x1f\n      and\n      dup3\n      add\n      swap2\n    tag_128:\n      pop\n      pop\n      pop\n      pop\n      pop\n      dup2\n      mstore\n      0x20\n      add\n      0x02\n      dup3\n      add\n      dup1\n      sload\n      tag_131\n      swap1\n      tag_126\n      jump\t// in\n    tag_131:\n      dup1\n      0x1f\n      add\n      0x20\n      dup1\n      swap2\n      div\n      mul\n      0x20\n      add\n      mload(0x40)\n      swap1\n      dup2\n      add\n      0x40\n      mstore\n      dup1\n      swap3\n      swap2\n      swap1\n      dup2\n      dup2\n      mstore\n      0x20\n      add\n      dup3\n      dup1\n      sload\n      tag_132\n      swap1\n      tag_126\n      jump\t// in\n    tag_132:\n      dup1\n      iszero\n      tag_133\n      jumpi\n      dup1\n      0x1f\n      lt\n      tag_134\n      jumpi\n      0x0100\n      dup1\n      dup4\n      sload\n      div\n      mul\n      dup4\n      mstore\n      swap2\n      0x20\n      add\n      swap2\n      jump(tag_133)\n    tag_134:\n      dup3\n      add\n      swap2\n      swap1\n      0x00\n      mstore\n      keccak256(0x00, 0x20)\n      swap1\n    tag_135:\n      dup2\n      sload\n      dup2\n      mstore\n      swap1\n      0x01\n      add\n      swap1\n      0x20\n      add\n      dup1\n      dup4\n      gt\n      tag_135\n      jumpi\n      dup3\n      swap1\n      sub\n      0x1f\n      and\n      dup3\n      add\n      swap2\n    tag_133:\n      pop\n      pop\n      pop\n      pop\n      pop\n      dup2\n      mstore\n      0x20\n      add\n      0x03\n      dup3\n      add\n      dup1\n      sload\n      tag_136\n      swap1\n      tag_126\n      jump\t// in\n    tag_136:\n      dup1\n      0x1f\n      add\n      0x20\n      dup1\n      swap2\n      div\n      mul\n      0x20\n      add\n      mload(0x40)\n      swap1\n      dup2\n      add\n      0x40\n      mstore\n      dup1\n      swap3\n      swap2\n      swap1\n      dup2\n      dup2\n      mstore\n      0x20\n      add\n      dup3\n      dup1\n      sload\n      tag_137\n      swap1\n      tag_126\n      jump\t// in\n    tag_137:\n      dup1\n      iszero\n      tag_138\n      jumpi\n      dup1\n      0x1f\n      lt\n      tag_139\n      jumpi\n      0x0100\n      dup1\n      dup4\n      sload\n      div\n      mul\n      dup4\n      mstore\n      swap2\n      0x20\n      add\n      swap2\n      jump(tag_138)\n    tag_139:\n      dup3\n      add\n      swap2\n      swap1\n      0x00\n      mstore\n      keccak256(0x00, 0x20)\n      swap1\n    tag_140:\n      dup2\n      sload\n      dup2\n      mstore\n      swap1\n      0x01\n      add\n      swap1\n      0x20\n      add\n      dup1\n      dup4\n      gt\n      tag_140\n      jumpi\n      dup3\n      swap1\n      sub\n      0x1f\n      and\n      dup3\n      add\n      swap2\n    tag_138:\n      pop\n      pop\n      pop\n      pop\n      pop\n      dup2\n      mstore\n      0x20\n      add\n      0x04\n      dup3\n      add\n      dup1\n      sload\n      tag_141\n      swap1\n      tag_126\n      jump\t// in\n    tag_141:\n      dup1\n      0x1f\n      add\n      0x20\n      dup1\n      swap2\n      div\n      mul\n      0x20\n      add\n      mload(0x40)\n      swap1\n      dup2\n      add\n      0x40\n      mstore\n      dup1\n      swap3\n      swap2\n      swap1\n      dup2\n      dup2\n      mstore\n      0x20\n      add\n      dup3\n      dup1\n      sload\n      tag_142\n      swap1\n      tag_126\n      jump\t// in\n    tag_142:\n      dup1\n      iszero\n      tag_143\n      jumpi\n      dup1\n      0x1f\n      lt\n      tag_144\n      jumpi\n      0x0100\n      dup1\n      dup4\n      sload\n      div\n      mul\n      dup4\n      mstore\n      swap2\n      0x20\n      add\n      swap2\n      jump(tag_143)\n    tag_144:\n      dup3\n      add\n      swap2\n      swap1\n      0x00\n      mstore\n      keccak256(0x00, 0x20)\n      swap1\n    tag_145:\n      dup2\n      sload\n      dup2\n      mstore\n      swap1\n      0x01\n      add\n      swap1\n      0x20\n      add\n      dup1\n      dup4\n      gt\n      tag_145\n      jumpi\n      dup3\n      swap1\n      sub\n      0x1f\n      and\n      dup3\n      add\n      swap2\n    tag_143:\n      pop\n      pop\n      pop\n      pop\n      pop\n      dup2\n      mstore\n      0x20\n      add\n      0x05\n      dup3\n      add\n      sload\n      dup2\n      mstore\n      0x20\n      add\n      0x06\n      dup3\n      add\n      sload\n      dup2\n      mstore\n      0x20\n      add\n      0x07\n      dup3\n      add\n      sload\n      dup2\n      mstore\n      pop\n      pop\n      swap1\n      pop\n        /* \"contracts/npc_credits/npc_credits.sol\":3152:3337  function getCertificateById(... */\n      swap2\n      swap1\n      pop\n      jump\t// out\n        /* \"contracts/npc_credits/npc_credits.sol\":5484:5757  function isProducerVerified(... */\n    tag_40:\n        /* \"contracts/npc_credits/npc_credits.sol\":5606:5628  bool _producerVerified */\n      0x00\n        /* \"contracts/npc_credits/npc_credits.sol\":5661:5677  producerVerified */\n      0x08\n        /* \"contracts/npc_credits/npc_credits.sol\":5678:5700  _toLowerCase(producer) */\n      tag_147\n        /* \"contracts/npc_credits/npc_credits.sol\":5691:5699  producer */\n      dup5\n        /* \"contracts/npc_credits/npc_credits.sol\":5678:5690  _toLowerCase */\n      tag_148\n        /* \"contracts/npc_credits/npc_credits.sol\":5678:5700  _toLowerCase(producer) */\n      jump\t// in\n    tag_147:\n        /* \"contracts/npc_credits/npc_credits.sol\":5661:5701  producerVerified[_toLowerCase(producer)] */\n      mload(0x40)\n      tag_149\n      swap2\n      swap1\n      tag_150\n      jump\t// in\n    tag_149:\n      swap1\n      dup2\n      mstore\n      0x20\n      add\n      mload(0x40)\n      dup1\n      swap2\n      sub\n      swap1\n      keccak256\n        /* \"contracts/npc_credits/npc_credits.sol\":5716:5738  _toLowerCase(verifier) */\n      tag_151\n        /* \"contracts/npc_credits/npc_credits.sol\":5729:5737  verifier */\n      dup4\n        /* \"contracts/npc_credits/npc_credits.sol\":5716:5728  _toLowerCase */\n      tag_148\n        /* \"contracts/npc_credits/npc_credits.sol\":5716:5738  _toLowerCase(verifier) */\n      jump\t// in\n    tag_151:\n        /* \"contracts/npc_credits/npc_credits.sol\":5661:5749  producerVerified[_toLowerCase(producer)][... */\n      mload(0x40)\n      tag_152\n      swap2\n      swap1\n      tag_150\n      jump\t// in\n    tag_152:\n      swap1\n      dup2\n      mstore\n      0x20\n      add\n      mload(0x40)\n      dup1\n      swap2\n      sub\n      swap1\n      keccak256\n      0x00\n      swap1\n      sload\n      swap1\n      0x0100\n      exp\n      swap1\n      div\n      0xff\n      and\n        /* \"contracts/npc_credits/npc_credits.sol\":5641:5749  _producerVerified = producerVerified[_toLowerCase(producer)][... */\n      swap1\n      pop\n        /* \"contracts/npc_credits/npc_credits.sol\":5484:5757  function isProducerVerified(... */\n      swap3\n      swap2\n      pop\n      pop\n      jump\t// out\n        /* \"contracts/npc_credits/npc_credits.sol\":9486:10506  function donateCredits(... */\n    tag_46:\n        /* \"contracts/npc_credits/npc_credits.sol\":9705:9725  bool _creditsDonated */\n      0x00\n        /* \"contracts/npc_credits/npc_credits.sol\":2451:2464  contractOwner */\n      dup1\n      0x00\n      swap1\n      sload\n      swap1\n      0x0100\n      exp\n      swap1\n      div\n      0xffffffffffffffffffffffffffffffffffffffff\n      and\n        /* \"contracts/npc_credits/npc_credits.sol\":2437:2464  msg.sender == contractOwner */\n      0xffffffffffffffffffffffffffffffffffffffff\n      and\n        /* \"contracts/npc_credits/npc_credits.sol\":2437:2447  msg.sender */\n      caller\n        /* \"contracts/npc_credits/npc_credits.sol\":2437:2464  msg.sender == contractOwner */\n      0xffffffffffffffffffffffffffffffffffffffff\n      and\n      eq\n        /* \"contracts/npc_credits/npc_credits.sol\":2415:2539  require(... */\n      tag_154\n      jumpi\n      mload(0x40)\n      0x08c379a000000000000000000000000000000000000000000000000000000000\n      dup2\n      mstore\n      0x04\n      add\n      tag_155\n      swap1\n      tag_156\n      jump\t// in\n    tag_155:\n      mload(0x40)\n      dup1\n      swap2\n      sub\n      swap1\n      revert\n    tag_154:\n        /* \"contracts/npc_credits/npc_credits.sol\":9738:9761  string memory accountID */\n      0x00\n        /* \"contracts/npc_credits/npc_credits.sol\":9764:9788  _toLowerCase(_accountID) */\n      tag_158\n        /* \"contracts/npc_credits/npc_credits.sol\":9777:9787  _accountID */\n      dup8\n        /* \"contracts/npc_credits/npc_credits.sol\":9764:9776  _toLowerCase */\n      tag_148\n        /* \"contracts/npc_credits/npc_credits.sol\":9764:9788  _toLowerCase(_accountID) */\n      jump\t// in\n    tag_158:\n        /* \"contracts/npc_credits/npc_credits.sol\":9738:9788  string memory accountID = _toLowerCase(_accountID) */\n      swap1\n      pop\n        /* \"contracts/npc_credits/npc_credits.sol\":9799:9821  string memory producer */\n      0x00\n        /* \"contracts/npc_credits/npc_credits.sol\":9824:9847  _toLowerCase(_producer) */\n      tag_159\n        /* \"contracts/npc_credits/npc_credits.sol\":9837:9846  _producer */\n      dup8\n        /* \"contracts/npc_credits/npc_credits.sol\":9824:9836  _toLowerCase */\n      tag_148\n        /* \"contracts/npc_credits/npc_credits.sol\":9824:9847  _toLowerCase(_producer) */\n      jump\t// in\n    tag_159:\n        /* \"contracts/npc_credits/npc_credits.sol\":9799:9847  string memory producer = _toLowerCase(_producer) */\n      swap1\n      pop\n        /* \"contracts/npc_credits/npc_credits.sol\":9858:9880  string memory verifier */\n      0x00\n        /* \"contracts/npc_credits/npc_credits.sol\":9883:9906  _toLowerCase(_verifier) */\n      tag_160\n        /* \"contracts/npc_credits/npc_credits.sol\":9896:9905  _verifier */\n      dup8\n        /* \"contracts/npc_credits/npc_credits.sol\":9883:9895  _toLowerCase */\n      tag_148\n        /* \"contracts/npc_credits/npc_credits.sol\":9883:9906  _toLowerCase(_verifier) */\n      jump\t// in\n    tag_160:\n        /* \"contracts/npc_credits/npc_credits.sol\":9858:9906  string memory verifier = _toLowerCase(_verifier) */\n      swap1\n      pop\n        /* \"contracts/npc_credits/npc_credits.sol\":9917:9941  string memory creditType */\n      0x00\n        /* \"contracts/npc_credits/npc_credits.sol\":9944:9969  _toLowerCase(_creditType) */\n      tag_161\n        /* \"contracts/npc_credits/npc_credits.sol\":9957:9968  _creditType */\n      dup8\n        /* \"contracts/npc_credits/npc_credits.sol\":9944:9956  _toLowerCase */\n      tag_148\n        /* \"contracts/npc_credits/npc_credits.sol\":9944:9969  _toLowerCase(_creditType) */\n      jump\t// in\n    tag_161:\n        /* \"contracts/npc_credits/npc_credits.sol\":9917:9969  string memory creditType = _toLowerCase(_creditType) */\n      swap1\n      pop\n        /* \"contracts/npc_credits/npc_credits.sol\":10063:10069  amount */\n      dup6\n        /* \"contracts/npc_credits/npc_credits.sol\":10002:10016  accountBalance */\n      0x0c\n        /* \"contracts/npc_credits/npc_credits.sol\":10017:10026  accountID */\n      dup6\n        /* \"contracts/npc_credits/npc_credits.sol\":10002:10027  accountBalance[accountID] */\n      mload(0x40)\n      tag_162\n      swap2\n      swap1\n      tag_150\n      jump\t// in\n    tag_162:\n      swap1\n      dup2\n      mstore\n      0x20\n      add\n      mload(0x40)\n      dup1\n      swap2\n      sub\n      swap1\n      keccak256\n        /* \"contracts/npc_credits/npc_credits.sol\":10028:10036  producer */\n      dup5\n        /* \"contracts/npc_credits/npc_credits.sol\":10002:10037  accountBalance[accountID][producer] */\n      mload(0x40)\n      tag_163\n      swap2\n      swap1\n      tag_150\n      jump\t// in\n    tag_163:\n      swap1\n      dup2\n      mstore\n      0x20\n      add\n      mload(0x40)\n      dup1\n      swap2\n      sub\n      swap1\n      keccak256\n        /* \"contracts/npc_credits/npc_credits.sol\":10038:10046  verifier */\n      dup4\n        /* \"contracts/npc_credits/npc_credits.sol\":10002:10047  accountBalance[accountID][producer][verifier] */\n      mload(0x40)\n      tag_164\n      swap2\n      swap1\n      tag_150\n      jump\t// in\n    tag_164:\n      swap1\n      dup2\n      mstore\n      0x20\n      add\n      mload(0x40)\n      dup1\n      swap2\n      sub\n      swap1\n      keccak256\n        /* \"contracts/npc_credits/npc_credits.sol\":10048:10058  creditType */\n      dup3\n        /* \"contracts/npc_credits/npc_credits.sol\":10002:10059  accountBalance[accountID][producer][verifier][creditType] */\n      mload(0x40)\n      tag_165\n      swap2\n      swap1\n      tag_150\n      jump\t// in\n    tag_165:\n      swap1\n      dup2\n      mstore\n      0x20\n      add\n      mload(0x40)\n      dup1\n      swap2\n      sub\n      swap1\n      keccak256\n      sload\n        /* \"contracts/npc_credits/npc_credits.sol\":10002:10069  accountBalance[accountID][producer][verifier][creditType] >= amount */\n      slt\n      iszero\n        /* \"contracts/npc_credits/npc_credits.sol\":9980:10117  require(... */\n      tag_166\n      jumpi\n      mload(0x40)\n      0x08c379a000000000000000000000000000000000000000000000000000000000\n      dup2\n      mstore\n      0x04\n      add\n      tag_167\n      swap1\n      tag_168\n      jump\t// in\n    tag_167:\n      mload(0x40)\n      dup1\n      swap2\n      sub\n      swap1\n      revert\n    tag_166:\n        /* \"contracts/npc_credits/npc_credits.sol\":10189:10195  amount */\n      dup6\n        /* \"contracts/npc_credits/npc_credits.sol\":10128:10142  accountBalance */\n      0x0c\n        /* \"contracts/npc_credits/npc_credits.sol\":10143:10152  accountID */\n      dup6\n        /* \"contracts/npc_credits/npc_credits.sol\":10128:10153  accountBalance[accountID] */\n      mload(0x40)\n      tag_169\n      swap2\n      swap1\n      tag_150\n      jump\t// in\n    tag_169:\n      swap1\n      dup2\n      mstore\n      0x20\n      add\n      mload(0x40)\n      dup1\n      swap2\n      sub\n      swap1\n      keccak256\n        /* \"contracts/npc_credits/npc_credits.sol\":10154:10162  producer */\n      dup5\n        /* \"contracts/npc_credits/npc_credits.sol\":10128:10163  accountBalance[accountID][producer] */\n      mload(0x40)\n      tag_170\n      swap2\n      swap1\n      tag_150\n      jump\t// in\n    tag_170:\n      swap1\n      dup2\n      mstore\n      0x20\n      add\n      mload(0x40)\n      dup1\n      swap2\n      sub\n      swap1\n      keccak256\n        /* \"contracts/npc_credits/npc_credits.sol\":10164:10172  verifier */\n      dup4\n        /* \"contracts/npc_credits/npc_credits.sol\":10128:10173  accountBalance[accountID][producer][verifier] */\n      mload(0x40)\n      tag_171\n      swap2\n      swap1\n      tag_150\n      jump\t// in\n    tag_171:\n      swap1\n      dup2\n      mstore\n      0x20\n      add\n      mload(0x40)\n      dup1\n      swap2\n      sub\n      swap1\n      keccak256\n        /* \"contracts/npc_credits/npc_credits.sol\":10174:10184  creditType */\n      dup3\n        /* \"contracts/npc_credits/npc_credits.sol\":10128:10185  accountBalance[accountID][producer][verifier][creditType] */\n      mload(0x40)\n      tag_172\n      swap2\n      swap1\n      tag_150\n      jump\t// in\n    tag_172:\n      swap1\n      dup2\n      mstore\n      0x20\n      add\n      mload(0x40)\n      dup1\n      swap2\n      sub\n      swap1\n      keccak256\n      0x00\n        /* \"contracts/npc_credits/npc_credits.sol\":10128:10195  accountBalance[accountID][producer][verifier][creditType] -= amount */\n      dup3\n      dup3\n      sload\n      tag_173\n      swap2\n      swap1\n      tag_174\n      jump\t// in\n    tag_173:\n      swap3\n      pop\n      pop\n      dup2\n      swap1\n      sstore\n      pop\n        /* \"contracts/npc_credits/npc_credits.sol\":10240:10246  amount */\n      dup6\n        /* \"contracts/npc_credits/npc_credits.sol\":10206:10225  accountTotalBalance */\n      0x0d\n        /* \"contracts/npc_credits/npc_credits.sol\":10226:10235  accountID */\n      dup6\n        /* \"contracts/npc_credits/npc_credits.sol\":10206:10236  accountTotalBalance[accountID] */\n      mload(0x40)\n      tag_175\n      swap2\n      swap1\n      tag_150\n      jump\t// in\n    tag_175:\n      swap1\n      dup2\n      mstore\n      0x20\n      add\n      mload(0x40)\n      dup1\n      swap2\n      sub\n      swap1\n      keccak256\n      0x00\n        /* \"contracts/npc_credits/npc_credits.sol\":10206:10246  accountTotalBalance[accountID] -= amount */\n      dup3\n      dup3\n      sload\n      tag_176\n      swap2\n      swap1\n      tag_174\n      jump\t// in\n    tag_176:\n      swap3\n      pop\n      pop\n      dup2\n      swap1\n      sstore\n      pop\n        /* \"contracts/npc_credits/npc_credits.sol\":10307:10313  amount */\n      dup6\n        /* \"contracts/npc_credits/npc_credits.sol\":10257:10263  supply */\n      0x06\n        /* \"contracts/npc_credits/npc_credits.sol\":10264:10272  producer */\n      dup5\n        /* \"contracts/npc_credits/npc_credits.sol\":10257:10273  supply[producer] */\n      mload(0x40)\n      tag_177\n      swap2\n      swap1\n      tag_150\n      jump\t// in\n    tag_177:\n      swap1\n      dup2\n      mstore\n      0x20\n      add\n      mload(0x40)\n      dup1\n      swap2\n      sub\n      swap1\n      keccak256\n        /* \"contracts/npc_credits/npc_credits.sol\":10274:10282  verifier */\n      dup4\n        /* \"contracts/npc_credits/npc_credits.sol\":10257:10283  supply[producer][verifier] */\n      mload(0x40)\n      tag_178\n      swap2\n      swap1\n      tag_150\n      jump\t// in\n    tag_178:\n      swap1\n      dup2\n      mstore\n      0x20\n      add\n      mload(0x40)\n      dup1\n      swap2\n      sub\n      swap1\n      keccak256\n        /* \"contracts/npc_credits/npc_credits.sol\":10284:10294  creditType */\n      dup3\n        /* \"contracts/npc_credits/npc_credits.sol\":10257:10295  supply[producer][verifier][creditType] */\n      mload(0x40)\n      tag_179\n      swap2\n      swap1\n      tag_150\n      jump\t// in\n    tag_179:\n      swap1\n      dup2\n      mstore\n      0x20\n      add\n      mload(0x40)\n      dup1\n      swap2\n      sub\n      swap1\n      keccak256\n        /* \"contracts/npc_credits/npc_credits.sol\":10257:10303  supply[producer][verifier][creditType].donated */\n      0x02\n      add\n      0x00\n        /* \"contracts/npc_credits/npc_credits.sol\":10257:10313  supply[producer][verifier][creditType].donated += amount */\n      dup3\n      dup3\n      sload\n      tag_180\n      swap2\n      swap1\n      tag_181\n      jump\t// in\n    tag_180:\n      swap3\n      pop\n      pop\n      dup2\n      swap1\n      sstore\n      pop\n        /* \"contracts/npc_credits/npc_credits.sol\":10339:10345  amount */\n      dup6\n        /* \"contracts/npc_credits/npc_credits.sol\":10324:10335  totalSupply */\n      0x01\n      0x00\n        /* \"contracts/npc_credits/npc_credits.sol\":10324:10345  totalSupply -= amount */\n      dup3\n      dup3\n      sload\n      tag_182\n      swap2\n      swap1\n      tag_174\n      jump\t// in\n    tag_182:\n      swap3\n      pop\n      pop\n      dup2\n      swap1\n      sstore\n      pop\n        /* \"contracts/npc_credits/npc_credits.sol\":10378:10384  amount */\n      dup6\n        /* \"contracts/npc_credits/npc_credits.sol\":10356:10374  totalDonatedSupply */\n      0x02\n      0x00\n        /* \"contracts/npc_credits/npc_credits.sol\":10356:10384  totalDonatedSupply += amount */\n      dup3\n      dup3\n      sload\n      tag_183\n      swap2\n      swap1\n      tag_181\n      jump\t// in\n    tag_183:\n      swap3\n      pop\n      pop\n      dup2\n      swap1\n      sstore\n      pop\n        /* \"contracts/npc_credits/npc_credits.sol\":10400:10465  CreditsDonated(accountID, producer, verifier, creditType, amount) */\n      0x071a264e53b40e97de0acd1c1884477a24d4165acbadd4955cc8b22ab40dc02c\n        /* \"contracts/npc_credits/npc_credits.sol\":10415:10424  accountID */\n      dup5\n        /* \"contracts/npc_credits/npc_credits.sol\":10426:10434  producer */\n      dup5\n        /* \"contracts/npc_credits/npc_credits.sol\":10436:10444  verifier */\n      dup5\n        /* \"contracts/npc_credits/npc_credits.sol\":10446:10456  creditType */\n      dup5\n        /* \"contracts/npc_credits/npc_credits.sol\":10458:10464  amount */\n      dup11\n        /* \"contracts/npc_credits/npc_credits.sol\":10400:10465  CreditsDonated(accountID, producer, verifier, creditType, amount) */\n      mload(0x40)\n      tag_184\n      swap6\n      swap5\n      swap4\n      swap3\n      swap2\n      swap1\n      tag_185\n      jump\t// in\n    tag_184:\n      mload(0x40)\n      dup1\n      swap2\n      sub\n      swap1\n      log1\n        /* \"contracts/npc_credits/npc_credits.sol\":10494:10498  true */\n      0x01\n        /* \"contracts/npc_credits/npc_credits.sol\":10476:10498  _creditsDonated = true */\n      swap5\n      pop\n        /* \"contracts/npc_credits/npc_credits.sol\":9727:10506  {... */\n      pop\n      pop\n      pop\n      pop\n        /* \"contracts/npc_credits/npc_credits.sol\":9486:10506  function donateCredits(... */\n      swap6\n      swap5\n      pop\n      pop\n      pop\n      pop\n      pop\n      jump\t// out\n        /* \"contracts/npc_credits/npc_credits.sol\":5765:6931  function issueCredits(... */\n    tag_51:\n        /* \"contracts/npc_credits/npc_credits.sol\":5948:5960  bool _issued */\n      0x00\n        /* \"contracts/npc_credits/npc_credits.sol\":2451:2464  contractOwner */\n      dup1\n      0x00\n      swap1\n      sload\n      swap1\n      0x0100\n      exp\n      swap1\n      div\n      0xffffffffffffffffffffffffffffffffffffffff\n      and\n        /* \"contracts/npc_credits/npc_credits.sol\":2437:2464  msg.sender == contractOwner */\n      0xffffffffffffffffffffffffffffffffffffffff\n      and\n        /* \"contracts/npc_credits/npc_credits.sol\":2437:2447  msg.sender */\n      caller\n        /* \"contracts/npc_credits/npc_credits.sol\":2437:2464  msg.sender == contractOwner */\n      0xffffffffffffffffffffffffffffffffffffffff\n      and\n      eq\n        /* \"contracts/npc_credits/npc_credits.sol\":2415:2539  require(... */\n      tag_187\n      jumpi\n      mload(0x40)\n      0x08c379a000000000000000000000000000000000000000000000000000000000\n      dup2\n      mstore\n      0x04\n      add\n      tag_188\n      swap1\n      tag_156\n      jump\t// in\n    tag_188:\n      mload(0x40)\n      dup1\n      swap2\n      sub\n      swap1\n      revert\n    tag_187:\n        /* \"contracts/npc_credits/npc_credits.sol\":5973:5995  string memory producer */\n      0x00\n        /* \"contracts/npc_credits/npc_credits.sol\":5998:6021  _toLowerCase(_producer) */\n      tag_190\n        /* \"contracts/npc_credits/npc_credits.sol\":6011:6020  _producer */\n      dup7\n        /* \"contracts/npc_credits/npc_credits.sol\":5998:6010  _toLowerCase */\n      tag_148\n        /* \"contracts/npc_credits/npc_credits.sol\":5998:6021  _toLowerCase(_producer) */\n      jump\t// in\n    tag_190:\n        /* \"contracts/npc_credits/npc_credits.sol\":5973:6021  string memory producer = _toLowerCase(_producer) */\n      swap1\n      pop\n        /* \"contracts/npc_credits/npc_credits.sol\":6032:6054  string memory verifier */\n      0x00\n        /* \"contracts/npc_credits/npc_credits.sol\":6057:6080  _toLowerCase(_verifier) */\n      tag_191\n        /* \"contracts/npc_credits/npc_credits.sol\":6070:6079  _verifier */\n      dup7\n        /* \"contracts/npc_credits/npc_credits.sol\":6057:6069  _toLowerCase */\n      tag_148\n        /* \"contracts/npc_credits/npc_credits.sol\":6057:6080  _toLowerCase(_verifier) */\n      jump\t// in\n    tag_191:\n        /* \"contracts/npc_credits/npc_credits.sol\":6032:6080  string memory verifier = _toLowerCase(_verifier) */\n      swap1\n      pop\n        /* \"contracts/npc_credits/npc_credits.sol\":6091:6115  string memory creditType */\n      0x00\n        /* \"contracts/npc_credits/npc_credits.sol\":6118:6143  _toLowerCase(_creditType) */\n      tag_192\n        /* \"contracts/npc_credits/npc_credits.sol\":6131:6142  _creditType */\n      dup7\n        /* \"contracts/npc_credits/npc_credits.sol\":6118:6130  _toLowerCase */\n      tag_148\n        /* \"contracts/npc_credits/npc_credits.sol\":6118:6143  _toLowerCase(_creditType) */\n      jump\t// in\n    tag_192:\n        /* \"contracts/npc_credits/npc_credits.sol\":6091:6143  string memory creditType = _toLowerCase(_creditType) */\n      swap1\n      pop\n        /* \"contracts/npc_credits/npc_credits.sol\":6158:6188  isCreditRegistered(creditType) */\n      tag_193\n        /* \"contracts/npc_credits/npc_credits.sol\":6177:6187  creditType */\n      dup2\n        /* \"contracts/npc_credits/npc_credits.sol\":6158:6176  isCreditRegistered */\n      tag_60\n        /* \"contracts/npc_credits/npc_credits.sol\":6158:6188  isCreditRegistered(creditType) */\n      jump\t// in\n    tag_193:\n        /* \"contracts/npc_credits/npc_credits.sol\":6154:6294  if(!isCreditRegistered(creditType)){... */\n      tag_194\n      jumpi\n        /* \"contracts/npc_credits/npc_credits.sol\":6204:6215  creditTypes */\n      0x0f\n        /* \"contracts/npc_credits/npc_credits.sol\":6221:6231  creditType */\n      dup2\n        /* \"contracts/npc_credits/npc_credits.sol\":6204:6232  creditTypes.push(creditType) */\n      swap1\n      dup1\n      0x01\n      dup2\n      sload\n      add\n      dup1\n      dup3\n      sstore\n      dup1\n      swap2\n      pop\n      pop\n      0x01\n      swap1\n      sub\n      swap1\n      0x00\n      mstore\n      keccak256(0x00, 0x20)\n      add\n      0x00\n      swap1\n      swap2\n      swap1\n      swap2\n      swap1\n      swap2\n      pop\n      swap1\n      dup2\n      tag_196\n      swap2\n      swap1\n      tag_197\n      jump\t// in\n    tag_196:\n      pop\n        /* \"contracts/npc_credits/npc_credits.sol\":6278:6282  true */\n      0x01\n        /* \"contracts/npc_credits/npc_credits.sol\":6247:6263  creditRegistered */\n      0x0e\n        /* \"contracts/npc_credits/npc_credits.sol\":6264:6274  creditType */\n      dup3\n        /* \"contracts/npc_credits/npc_credits.sol\":6247:6275  creditRegistered[creditType] */\n      mload(0x40)\n      tag_198\n      swap2\n      swap1\n      tag_150\n      jump\t// in\n    tag_198:\n      swap1\n      dup2\n      mstore\n      0x20\n      add\n      mload(0x40)\n      dup1\n      swap2\n      sub\n      swap1\n      keccak256\n      0x00\n        /* \"contracts/npc_credits/npc_credits.sol\":6247:6282  creditRegistered[creditType] = true */\n      0x0100\n      exp\n      dup2\n      sload\n      dup2\n      0xff\n      mul\n      not\n      and\n      swap1\n      dup4\n      iszero\n      iszero\n      mul\n      or\n      swap1\n      sstore\n      pop\n        /* \"contracts/npc_credits/npc_credits.sol\":6154:6294  if(!isCreditRegistered(creditType)){... */\n    tag_194:\n        /* \"contracts/npc_credits/npc_credits.sol\":6319:6325  amount */\n      dup5\n        /* \"contracts/npc_credits/npc_credits.sol\":6304:6315  totalSupply */\n      0x01\n      0x00\n        /* \"contracts/npc_credits/npc_credits.sol\":6304:6325  totalSupply += amount */\n      dup3\n      dup3\n      sload\n      tag_199\n      swap2\n      swap1\n      tag_181\n      jump\t// in\n    tag_199:\n      swap3\n      pop\n      pop\n      dup2\n      swap1\n      sstore\n      pop\n        /* \"contracts/npc_credits/npc_credits.sol\":6336:6358  Supply storage _supply */\n      0x00\n        /* \"contracts/npc_credits/npc_credits.sol\":6361:6367  supply */\n      0x06\n        /* \"contracts/npc_credits/npc_credits.sol\":6368:6376  producer */\n      dup5\n        /* \"contracts/npc_credits/npc_credits.sol\":6361:6377  supply[producer] */\n      mload(0x40)\n      tag_200\n      swap2\n      swap1\n      tag_150\n      jump\t// in\n    tag_200:\n      swap1\n      dup2\n      mstore\n      0x20\n      add\n      mload(0x40)\n      dup1\n      swap2\n      sub\n      swap1\n      keccak256\n        /* \"contracts/npc_credits/npc_credits.sol\":6378:6386  verifier */\n      dup4\n        /* \"contracts/npc_credits/npc_credits.sol\":6361:6387  supply[producer][verifier] */\n      mload(0x40)\n      tag_201\n      swap2\n      swap1\n      tag_150\n      jump\t// in\n    tag_201:\n      swap1\n      dup2\n      mstore\n      0x20\n      add\n      mload(0x40)\n      dup1\n      swap2\n      sub\n      swap1\n      keccak256\n        /* \"contracts/npc_credits/npc_credits.sol\":6388:6398  creditType */\n      dup3\n        /* \"contracts/npc_credits/npc_credits.sol\":6361:6399  supply[producer][verifier][creditType] */\n      mload(0x40)\n      tag_202\n      swap2\n      swap1\n      tag_150\n      jump\t// in\n    tag_202:\n      swap1\n      dup2\n      mstore\n      0x20\n      add\n      mload(0x40)\n      dup1\n      swap2\n      sub\n      swap1\n      keccak256\n        /* \"contracts/npc_credits/npc_credits.sol\":6336:6399  Supply storage _supply = supply[producer][verifier][creditType] */\n      swap1\n      pop\n        /* \"contracts/npc_credits/npc_credits.sol\":6428:6434  amount */\n      dup6\n        /* \"contracts/npc_credits/npc_credits.sol\":6410:6417  _supply */\n      dup2\n        /* \"contracts/npc_credits/npc_credits.sol\":6410:6424  _supply.issued */\n      0x00\n      add\n      0x00\n        /* \"contracts/npc_credits/npc_credits.sol\":6410:6434  _supply.issued += amount */\n      dup3\n      dup3\n      sload\n      tag_203\n      swap2\n      swap1\n      tag_181\n      jump\t// in\n    tag_203:\n      swap3\n      pop\n      pop\n      dup2\n      swap1\n      sstore\n      pop\n        /* \"contracts/npc_credits/npc_credits.sol\":6466:6472  amount */\n      dup6\n        /* \"contracts/npc_credits/npc_credits.sol\":6445:6452  _supply */\n      dup2\n        /* \"contracts/npc_credits/npc_credits.sol\":6445:6462  _supply.available */\n      0x01\n      add\n      0x00\n        /* \"contracts/npc_credits/npc_credits.sol\":6445:6472  _supply.available += amount */\n      dup3\n      dup3\n      sload\n      tag_204\n      swap2\n      swap1\n      tag_181\n      jump\t// in\n    tag_204:\n      swap3\n      pop\n      pop\n      dup2\n      swap1\n      sstore\n      pop\n        /* \"contracts/npc_credits/npc_credits.sol\":6502:6503  0 */\n      0x00\n        /* \"contracts/npc_credits/npc_credits.sol\":6483:6490  _supply */\n      dup2\n        /* \"contracts/npc_credits/npc_credits.sol\":6483:6498  _supply.donated */\n      0x02\n      add\n      0x00\n        /* \"contracts/npc_credits/npc_credits.sol\":6483:6503  _supply.donated += 0 */\n      dup3\n      dup3\n      sload\n      tag_205\n      swap2\n      swap1\n      tag_181\n      jump\t// in\n    tag_205:\n      swap3\n      pop\n      pop\n      dup2\n      swap1\n      sstore\n      pop\n        /* \"contracts/npc_credits/npc_credits.sol\":6519:6537  producerRegistered */\n      0x07\n        /* \"contracts/npc_credits/npc_credits.sol\":6538:6546  producer */\n      dup5\n        /* \"contracts/npc_credits/npc_credits.sol\":6519:6547  producerRegistered[producer] */\n      mload(0x40)\n      tag_206\n      swap2\n      swap1\n      tag_150\n      jump\t// in\n    tag_206:\n      swap1\n      dup2\n      mstore\n      0x20\n      add\n      mload(0x40)\n      dup1\n      swap2\n      sub\n      swap1\n      keccak256\n      0x00\n      swap1\n      sload\n      swap1\n      0x0100\n      exp\n      swap1\n      div\n      0xff\n      and\n        /* \"contracts/npc_credits/npc_credits.sol\":6514:6650  if (!producerRegistered[producer]) {... */\n      tag_207\n      jumpi\n        /* \"contracts/npc_credits/npc_credits.sol\":6564:6573  producers */\n      0x05\n        /* \"contracts/npc_credits/npc_credits.sol\":6579:6587  producer */\n      dup5\n        /* \"contracts/npc_credits/npc_credits.sol\":6564:6588  producers.push(producer) */\n      swap1\n      dup1\n      0x01\n      dup2\n      sload\n      add\n      dup1\n      dup3\n      sstore\n      dup1\n      swap2\n      pop\n      pop\n      0x01\n      swap1\n      sub\n      swap1\n      0x00\n      mstore\n      keccak256(0x00, 0x20)\n      add\n      0x00\n      swap1\n      swap2\n      swap1\n      swap2\n      swap1\n      swap2\n      pop\n      swap1\n      dup2\n      tag_209\n      swap2\n      swap1\n      tag_197\n      jump\t// in\n    tag_209:\n      pop\n        /* \"contracts/npc_credits/npc_credits.sol\":6634:6638  true */\n      0x01\n        /* \"contracts/npc_credits/npc_credits.sol\":6603:6621  producerRegistered */\n      0x07\n        /* \"contracts/npc_credits/npc_credits.sol\":6622:6630  producer */\n      dup6\n        /* \"contracts/npc_credits/npc_credits.sol\":6603:6631  producerRegistered[producer] */\n      mload(0x40)\n      tag_210\n      swap2\n      swap1\n      tag_150\n      jump\t// in\n    tag_210:\n      swap1\n      dup2\n      mstore\n      0x20\n      add\n      mload(0x40)\n      dup1\n      swap2\n      sub\n      swap1\n      keccak256\n      0x00\n        /* \"contracts/npc_credits/npc_credits.sol\":6603:6638  producerRegistered[producer] = true */\n      0x0100\n      exp\n      dup2\n      sload\n      dup2\n      0xff\n      mul\n      not\n      and\n      swap1\n      dup4\n      iszero\n      iszero\n      mul\n      or\n      swap1\n      sstore\n      pop\n        /* \"contracts/npc_credits/npc_credits.sol\":6514:6650  if (!producerRegistered[producer]) {... */\n    tag_207:\n        /* \"contracts/npc_credits/npc_credits.sol\":6665:6681  producerVerified */\n      0x08\n        /* \"contracts/npc_credits/npc_credits.sol\":6682:6690  producer */\n      dup5\n        /* \"contracts/npc_credits/npc_credits.sol\":6665:6691  producerVerified[producer] */\n      mload(0x40)\n      tag_211\n      swap2\n      swap1\n      tag_150\n      jump\t// in\n    tag_211:\n      swap1\n      dup2\n      mstore\n      0x20\n      add\n      mload(0x40)\n      dup1\n      swap2\n      sub\n      swap1\n      keccak256\n        /* \"contracts/npc_credits/npc_credits.sol\":6692:6700  verifier */\n      dup4\n        /* \"contracts/npc_credits/npc_credits.sol\":6665:6701  producerVerified[producer][verifier] */\n      mload(0x40)\n      tag_212\n      swap2\n      swap1\n      tag_150\n      jump\t// in\n    tag_212:\n      swap1\n      dup2\n      mstore\n      0x20\n      add\n      mload(0x40)\n      dup1\n      swap2\n      sub\n      swap1\n      keccak256\n      0x00\n      swap1\n      sload\n      swap1\n      0x0100\n      exp\n      swap1\n      div\n      0xff\n      and\n        /* \"contracts/npc_credits/npc_credits.sol\":6660:6830  if (!producerVerified[producer][verifier]) {... */\n      tag_213\n      jumpi\n        /* \"contracts/npc_credits/npc_credits.sol\":6718:6735  producerVerifiers */\n      0x09\n        /* \"contracts/npc_credits/npc_credits.sol\":6736:6744  producer */\n      dup5\n        /* \"contracts/npc_credits/npc_credits.sol\":6718:6745  producerVerifiers[producer] */\n      mload(0x40)\n      tag_214\n      swap2\n      swap1\n      tag_150\n      jump\t// in\n    tag_214:\n      swap1\n      dup2\n      mstore\n      0x20\n      add\n      mload(0x40)\n      dup1\n      swap2\n      sub\n      swap1\n      keccak256\n        /* \"contracts/npc_credits/npc_credits.sol\":6751:6759  verifier */\n      dup4\n        /* \"contracts/npc_credits/npc_credits.sol\":6718:6760  producerVerifiers[producer].push(verifier) */\n      swap1\n      dup1\n      0x01\n      dup2\n      sload\n      add\n      dup1\n      dup3\n      sstore\n      dup1\n      swap2\n      pop\n      pop\n      0x01\n      swap1\n      sub\n      swap1\n      0x00\n      mstore\n      keccak256(0x00, 0x20)\n      add\n      0x00\n      swap1\n      swap2\n      swap1\n      swap2\n      swap1\n      swap2\n      pop\n      swap1\n      dup2\n      tag_216\n      swap2\n      swap1\n      tag_197\n      jump\t// in\n    tag_216:\n      pop\n        /* \"contracts/npc_credits/npc_credits.sol\":6814:6818  true */\n      0x01\n        /* \"contracts/npc_credits/npc_credits.sol\":6775:6791  producerVerified */\n      0x08\n        /* \"contracts/npc_credits/npc_credits.sol\":6792:6800  producer */\n      dup6\n        /* \"contracts/npc_credits/npc_credits.sol\":6775:6801  producerVerified[producer] */\n      mload(0x40)\n      tag_217\n      swap2\n      swap1\n      tag_150\n      jump\t// in\n    tag_217:\n      swap1\n      dup2\n      mstore\n      0x20\n      add\n      mload(0x40)\n      dup1\n      swap2\n      sub\n      swap1\n      keccak256\n        /* \"contracts/npc_credits/npc_credits.sol\":6802:6810  verifier */\n      dup5\n        /* \"contracts/npc_credits/npc_credits.sol\":6775:6811  producerVerified[producer][verifier] */\n      mload(0x40)\n      tag_218\n      swap2\n      swap1\n      tag_150\n      jump\t// in\n    tag_218:\n      swap1\n      dup2\n      mstore\n      0x20\n      add\n      mload(0x40)\n      dup1\n      swap2\n      sub\n      swap1\n      keccak256\n      0x00\n        /* \"contracts/npc_credits/npc_credits.sol\":6775:6818  producerVerified[producer][verifier] = true */\n      0x0100\n      exp\n      dup2\n      sload\n      dup2\n      0xff\n      mul\n      not\n      and\n      swap1\n      dup4\n      iszero\n      iszero\n      mul\n      or\n      swap1\n      sstore\n      pop\n        /* \"contracts/npc_credits/npc_credits.sol\":6660:6830  if (!producerVerified[producer][verifier]) {... */\n    tag_213:\n        /* \"contracts/npc_credits/npc_credits.sol\":6845:6898  CreditsIssued(producer, verifier, creditType, amount) */\n      0xe12950f72ff2ec319916813b0c8bbad49dc1a8dcb7e539beb82a3292b51944f7\n        /* \"contracts/npc_credits/npc_credits.sol\":6859:6867  producer */\n      dup5\n        /* \"contracts/npc_credits/npc_credits.sol\":6869:6877  verifier */\n      dup5\n        /* \"contracts/npc_credits/npc_credits.sol\":6879:6889  creditType */\n      dup5\n        /* \"contracts/npc_credits/npc_credits.sol\":6891:6897  amount */\n      dup10\n        /* \"contracts/npc_credits/npc_credits.sol\":6845:6898  CreditsIssued(producer, verifier, creditType, amount) */\n      mload(0x40)\n      tag_219\n      swap5\n      swap4\n      swap3\n      swap2\n      swap1\n      tag_220\n      jump\t// in\n    tag_219:\n      mload(0x40)\n      dup1\n      swap2\n      sub\n      swap1\n      log1\n        /* \"contracts/npc_credits/npc_credits.sol\":6919:6923  true */\n      0x01\n        /* \"contracts/npc_credits/npc_credits.sol\":6909:6923  _issued = true */\n      swap5\n      pop\n        /* \"contracts/npc_credits/npc_credits.sol\":5962:6931  {... */\n      pop\n      pop\n      pop\n      pop\n        /* \"contracts/npc_credits/npc_credits.sol\":5765:6931  function issueCredits(... */\n      swap5\n      swap4\n      pop\n      pop\n      pop\n      pop\n      jump\t// out\n        /* \"contracts/npc_credits/npc_credits.sol\":4833:5042  function getAccountTotalBalance(... */\n    tag_56:\n        /* \"contracts/npc_credits/npc_credits.sol\":4927:4954  int256 _accountTotalBalance */\n      0x00\n        /* \"contracts/npc_credits/npc_credits.sol\":4990:5009  accountTotalBalance */\n      0x0d\n        /* \"contracts/npc_credits/npc_credits.sol\":5010:5033  _toLowerCase(accountID) */\n      tag_222\n        /* \"contracts/npc_credits/npc_credits.sol\":5023:5032  accountID */\n      dup4\n        /* \"contracts/npc_credits/npc_credits.sol\":5010:5022  _toLowerCase */\n      tag_148\n        /* \"contracts/npc_credits/npc_credits.sol\":5010:5033  _toLowerCase(accountID) */\n      jump\t// in\n    tag_222:\n        /* \"contracts/npc_credits/npc_credits.sol\":4990:5034  accountTotalBalance[_toLowerCase(accountID)] */\n      mload(0x40)\n      tag_223\n      swap2\n      swap1\n      tag_150\n      jump\t// in\n    tag_223:\n      swap1\n      dup2\n      mstore\n      0x20\n      add\n      mload(0x40)\n      dup1\n      swap2\n      sub\n      swap1\n      keccak256\n      sload\n        /* \"contracts/npc_credits/npc_credits.sol\":4967:5034  _accountTotalBalance = accountTotalBalance[_toLowerCase(accountID)] */\n      swap1\n      pop\n        /* \"contracts/npc_credits/npc_credits.sol\":4833:5042  function getAccountTotalBalance(... */\n      swap2\n      swap1\n      pop\n      jump\t// out\n        /* \"contracts/npc_credits/npc_credits.sol\":3683:3879  function isCreditRegistered(... */\n    tag_60:\n        /* \"contracts/npc_credits/npc_credits.sol\":3774:3796  bool _creditRegistered */\n      0x00\n        /* \"contracts/npc_credits/npc_credits.sol\":3829:3845  creditRegistered */\n      0x0e\n        /* \"contracts/npc_credits/npc_credits.sol\":3846:3870  _toLowerCase(creditType) */\n      tag_225\n        /* \"contracts/npc_credits/npc_credits.sol\":3859:3869  creditType */\n      dup4\n        /* \"contracts/npc_credits/npc_credits.sol\":3846:3858  _toLowerCase */\n      tag_148\n        /* \"contracts/npc_credits/npc_credits.sol\":3846:3870  _toLowerCase(creditType) */\n      jump\t// in\n    tag_225:\n        /* \"contracts/npc_credits/npc_credits.sol\":3829:3871  creditRegistered[_toLowerCase(creditType)] */\n      mload(0x40)\n      tag_226\n      swap2\n      swap1\n      tag_150\n      jump\t// in\n    tag_226:\n      swap1\n      dup2\n      mstore\n      0x20\n      add\n      mload(0x40)\n      dup1\n      swap2\n      sub\n      swap1\n      keccak256\n      0x00\n      swap1\n      sload\n      swap1\n      0x0100\n      exp\n      swap1\n      div\n      0xff\n      and\n        /* \"contracts/npc_credits/npc_credits.sol\":3809:3871  _creditRegistered = creditRegistered[_toLowerCase(creditType)] */\n      swap1\n      pop\n        /* \"contracts/npc_credits/npc_credits.sol\":3683:3879  function isCreditRegistered(... */\n      swap2\n      swap1\n      pop\n      jump\t// out\n        /* \"contracts/npc_credits/npc_credits.sol\":8072:9478  function transferCredits(... */\n    tag_65:\n        /* \"contracts/npc_credits/npc_credits.sol\":8363:8387  bool _creditsTransferred */\n      0x00\n        /* \"contracts/npc_credits/npc_credits.sol\":2451:2464  contractOwner */\n      dup1\n      0x00\n      swap1\n      sload\n      swap1\n      0x0100\n      exp\n      swap1\n      div\n      0xffffffffffffffffffffffffffffffffffffffff\n      and\n        /* \"contracts/npc_credits/npc_credits.sol\":2437:2464  msg.sender == contractOwner */\n      0xffffffffffffffffffffffffffffffffffffffff\n      and\n        /* \"contracts/npc_credits/npc_credits.sol\":2437:2447  msg.sender */\n      caller\n        /* \"contracts/npc_credits/npc_credits.sol\":2437:2464  msg.sender == contractOwner */\n      0xffffffffffffffffffffffffffffffffffffffff\n      and\n      eq\n        /* \"contracts/npc_credits/npc_credits.sol\":2415:2539  require(... */\n      tag_228\n      jumpi\n      mload(0x40)\n      0x08c379a000000000000000000000000000000000000000000000000000000000\n      dup2\n      mstore\n      0x04\n      add\n      tag_229\n      swap1\n      tag_156\n      jump\t// in\n    tag_229:\n      mload(0x40)\n      dup1\n      swap2\n      sub\n      swap1\n      revert\n    tag_228:\n        /* \"contracts/npc_credits/npc_credits.sol\":8400:8420  string memory sender */\n      0x00\n        /* \"contracts/npc_credits/npc_credits.sol\":8423:8452  _toLowerCase(senderAccountID) */\n      tag_231\n        /* \"contracts/npc_credits/npc_credits.sol\":8436:8451  senderAccountID */\n      dup10\n        /* \"contracts/npc_credits/npc_credits.sol\":8423:8435  _toLowerCase */\n      tag_148\n        /* \"contracts/npc_credits/npc_credits.sol\":8423:8452  _toLowerCase(senderAccountID) */\n      jump\t// in\n    tag_231:\n        /* \"contracts/npc_credits/npc_credits.sol\":8400:8452  string memory sender = _toLowerCase(senderAccountID) */\n      swap1\n      pop\n        /* \"contracts/npc_credits/npc_credits.sol\":8463:8485  string memory receiver */\n      0x00\n        /* \"contracts/npc_credits/npc_credits.sol\":8488:8519  _toLowerCase(receiverAccountID) */\n      tag_232\n        /* \"contracts/npc_credits/npc_credits.sol\":8501:8518  receiverAccountID */\n      dup10\n        /* \"contracts/npc_credits/npc_credits.sol\":8488:8500  _toLowerCase */\n      tag_148\n        /* \"contracts/npc_credits/npc_credits.sol\":8488:8519  _toLowerCase(receiverAccountID) */\n      jump\t// in\n    tag_232:\n        /* \"contracts/npc_credits/npc_credits.sol\":8463:8519  string memory receiver = _toLowerCase(receiverAccountID) */\n      swap1\n      pop\n        /* \"contracts/npc_credits/npc_credits.sol\":8530:8552  string memory producer */\n      0x00\n        /* \"contracts/npc_credits/npc_credits.sol\":8555:8578  _toLowerCase(_producer) */\n      tag_233\n        /* \"contracts/npc_credits/npc_credits.sol\":8568:8577  _producer */\n      dup10\n        /* \"contracts/npc_credits/npc_credits.sol\":8555:8567  _toLowerCase */\n      tag_148\n        /* \"contracts/npc_credits/npc_credits.sol\":8555:8578  _toLowerCase(_producer) */\n      jump\t// in\n    tag_233:\n        /* \"contracts/npc_credits/npc_credits.sol\":8530:8578  string memory producer = _toLowerCase(_producer) */\n      swap1\n      pop\n        /* \"contracts/npc_credits/npc_credits.sol\":8589:8611  string memory verifier */\n      0x00\n        /* \"contracts/npc_credits/npc_credits.sol\":8614:8637  _toLowerCase(_verifier) */\n      tag_234\n        /* \"contracts/npc_credits/npc_credits.sol\":8627:8636  _verifier */\n      dup10\n        /* \"contracts/npc_credits/npc_credits.sol\":8614:8626  _toLowerCase */\n      tag_148\n        /* \"contracts/npc_credits/npc_credits.sol\":8614:8637  _toLowerCase(_verifier) */\n      jump\t// in\n    tag_234:\n        /* \"contracts/npc_credits/npc_credits.sol\":8589:8637  string memory verifier = _toLowerCase(_verifier) */\n      swap1\n      pop\n        /* \"contracts/npc_credits/npc_credits.sol\":8648:8672  string memory creditType */\n      0x00\n        /* \"contracts/npc_credits/npc_credits.sol\":8675:8700  _toLowerCase(_creditType) */\n      tag_235\n        /* \"contracts/npc_credits/npc_credits.sol\":8688:8699  _creditType */\n      dup10\n        /* \"contracts/npc_credits/npc_credits.sol\":8675:8687  _toLowerCase */\n      tag_148\n        /* \"contracts/npc_credits/npc_credits.sol\":8675:8700  _toLowerCase(_creditType) */\n      jump\t// in\n    tag_235:\n        /* \"contracts/npc_credits/npc_credits.sol\":8648:8700  string memory creditType = _toLowerCase(_creditType) */\n      swap1\n      pop\n        /* \"contracts/npc_credits/npc_credits.sol\":8719:8752  _compareStrings(sender, receiver) */\n      tag_236\n        /* \"contracts/npc_credits/npc_credits.sol\":8735:8741  sender */\n      dup6\n        /* \"contracts/npc_credits/npc_credits.sol\":8743:8751  receiver */\n      dup6\n        /* \"contracts/npc_credits/npc_credits.sol\":8719:8734  _compareStrings */\n      tag_237\n        /* \"contracts/npc_credits/npc_credits.sol\":8719:8752  _compareStrings(sender, receiver) */\n      jump\t// in\n    tag_236:\n        /* \"contracts/npc_credits/npc_credits.sol\":8711:8781  require(_compareStrings(sender, receiver), \"Cannot transfer to self.\") */\n      tag_238\n      jumpi\n      mload(0x40)\n      0x08c379a000000000000000000000000000000000000000000000000000000000\n      dup2\n      mstore\n      0x04\n      add\n      tag_239\n      swap1\n      tag_240\n      jump\t// in\n    tag_239:\n      mload(0x40)\n      dup1\n      swap2\n      sub\n      swap1\n      revert\n    tag_238:\n        /* \"contracts/npc_credits/npc_credits.sol\":8872:8878  amount */\n      dup8\n        /* \"contracts/npc_credits/npc_credits.sol\":8814:8828  accountBalance */\n      0x0c\n        /* \"contracts/npc_credits/npc_credits.sol\":8829:8835  sender */\n      dup7\n        /* \"contracts/npc_credits/npc_credits.sol\":8814:8836  accountBalance[sender] */\n      mload(0x40)\n      tag_241\n      swap2\n      swap1\n      tag_150\n      jump\t// in\n    tag_241:\n      swap1\n      dup2\n      mstore\n      0x20\n      add\n      mload(0x40)\n      dup1\n      swap2\n      sub\n      swap1\n      keccak256\n        /* \"contracts/npc_credits/npc_credits.sol\":8837:8845  producer */\n      dup5\n        /* \"contracts/npc_credits/npc_credits.sol\":8814:8846  accountBalance[sender][producer] */\n      mload(0x40)\n      tag_242\n      swap2\n      swap1\n      tag_150\n      jump\t// in\n    tag_242:\n      swap1\n      dup2\n      mstore\n      0x20\n      add\n      mload(0x40)\n      dup1\n      swap2\n      sub\n      swap1\n      keccak256\n        /* \"contracts/npc_credits/npc_credits.sol\":8847:8855  verifier */\n      dup4\n        /* \"contracts/npc_credits/npc_credits.sol\":8814:8856  accountBalance[sender][producer][verifier] */\n      mload(0x40)\n      tag_243\n      swap2\n      swap1\n      tag_150\n      jump\t// in\n    tag_243:\n      swap1\n      dup2\n      mstore\n      0x20\n      add\n      mload(0x40)\n      dup1\n      swap2\n      sub\n      swap1\n      keccak256\n        /* \"contracts/npc_credits/npc_credits.sol\":8857:8867  creditType */\n      dup3\n        /* \"contracts/npc_credits/npc_credits.sol\":8814:8868  accountBalance[sender][producer][verifier][creditType] */\n      mload(0x40)\n      tag_244\n      swap2\n      swap1\n      tag_150\n      jump\t// in\n    tag_244:\n      swap1\n      dup2\n      mstore\n      0x20\n      add\n      mload(0x40)\n      dup1\n      swap2\n      sub\n      swap1\n      keccak256\n      sload\n        /* \"contracts/npc_credits/npc_credits.sol\":8814:8878  accountBalance[sender][producer][verifier][creditType] >= amount */\n      slt\n      iszero\n        /* \"contracts/npc_credits/npc_credits.sol\":8792:8926  require(... */\n      tag_245\n      jumpi\n      mload(0x40)\n      0x08c379a000000000000000000000000000000000000000000000000000000000\n      dup2\n      mstore\n      0x04\n      add\n      tag_246\n      swap1\n      tag_168\n      jump\t// in\n    tag_246:\n      mload(0x40)\n      dup1\n      swap2\n      sub\n      swap1\n      revert\n    tag_245:\n        /* \"contracts/npc_credits/npc_credits.sol\":8995:9001  amount */\n      dup8\n        /* \"contracts/npc_credits/npc_credits.sol\":8937:8951  accountBalance */\n      0x0c\n        /* \"contracts/npc_credits/npc_credits.sol\":8952:8958  sender */\n      dup7\n        /* \"contracts/npc_credits/npc_credits.sol\":8937:8959  accountBalance[sender] */\n      mload(0x40)\n      tag_247\n      swap2\n      swap1\n      tag_150\n      jump\t// in\n    tag_247:\n      swap1\n      dup2\n      mstore\n      0x20\n      add\n      mload(0x40)\n      dup1\n      swap2\n      sub\n      swap1\n      keccak256\n        /* \"contracts/npc_credits/npc_credits.sol\":8960:8968  producer */\n      dup5\n        /* \"contracts/npc_credits/npc_credits.sol\":8937:8969  accountBalance[sender][producer] */\n      mload(0x40)\n      tag_248\n      swap2\n      swap1\n      tag_150\n      jump\t// in\n    tag_248:\n      swap1\n      dup2\n      mstore\n      0x20\n      add\n      mload(0x40)\n      dup1\n      swap2\n      sub\n      swap1\n      keccak256\n        /* \"contracts/npc_credits/npc_credits.sol\":8970:8978  verifier */\n      dup4\n        /* \"contracts/npc_credits/npc_credits.sol\":8937:8979  accountBalance[sender][producer][verifier] */\n      mload(0x40)\n      tag_249\n      swap2\n      swap1\n      tag_150\n      jump\t// in\n    tag_249:\n      swap1\n      dup2\n      mstore\n      0x20\n      add\n      mload(0x40)\n      dup1\n      swap2\n      sub\n      swap1\n      keccak256\n        /* \"contracts/npc_credits/npc_credits.sol\":8980:8990  creditType */\n      dup3\n        /* \"contracts/npc_credits/npc_credits.sol\":8937:8991  accountBalance[sender][producer][verifier][creditType] */\n      mload(0x40)\n      tag_250\n      swap2\n      swap1\n      tag_150\n      jump\t// in\n    tag_250:\n      swap1\n      dup2\n      mstore\n      0x20\n      add\n      mload(0x40)\n      dup1\n      swap2\n      sub\n      swap1\n      keccak256\n      0x00\n        /* \"contracts/npc_credits/npc_credits.sol\":8937:9001  accountBalance[sender][producer][verifier][creditType] -= amount */\n      dup3\n      dup3\n      sload\n      tag_251\n      swap2\n      swap1\n      tag_174\n      jump\t// in\n    tag_251:\n      swap3\n      pop\n      pop\n      dup2\n      swap1\n      sstore\n      pop\n        /* \"contracts/npc_credits/npc_credits.sol\":9043:9049  amount */\n      dup8\n        /* \"contracts/npc_credits/npc_credits.sol\":9012:9031  accountTotalBalance */\n      0x0d\n        /* \"contracts/npc_credits/npc_credits.sol\":9032:9038  sender */\n      dup7\n        /* \"contracts/npc_credits/npc_credits.sol\":9012:9039  accountTotalBalance[sender] */\n      mload(0x40)\n      tag_252\n      swap2\n      swap1\n      tag_150\n      jump\t// in\n    tag_252:\n      swap1\n      dup2\n      mstore\n      0x20\n      add\n      mload(0x40)\n      dup1\n      swap2\n      sub\n      swap1\n      keccak256\n      0x00\n        /* \"contracts/npc_credits/npc_credits.sol\":9012:9049  accountTotalBalance[sender] -= amount */\n      dup3\n      dup3\n      sload\n      tag_253\n      swap2\n      swap1\n      tag_174\n      jump\t// in\n    tag_253:\n      swap3\n      pop\n      pop\n      dup2\n      swap1\n      sstore\n      pop\n        /* \"contracts/npc_credits/npc_credits.sol\":9120:9126  amount */\n      dup8\n        /* \"contracts/npc_credits/npc_credits.sol\":9060:9074  accountBalance */\n      0x0c\n        /* \"contracts/npc_credits/npc_credits.sol\":9075:9083  receiver */\n      dup6\n        /* \"contracts/npc_credits/npc_credits.sol\":9060:9084  accountBalance[receiver] */\n      mload(0x40)\n      tag_254\n      swap2\n      swap1\n      tag_150\n      jump\t// in\n    tag_254:\n      swap1\n      dup2\n      mstore\n      0x20\n      add\n      mload(0x40)\n      dup1\n      swap2\n      sub\n      swap1\n      keccak256\n        /* \"contracts/npc_credits/npc_credits.sol\":9085:9093  producer */\n      dup5\n        /* \"contracts/npc_credits/npc_credits.sol\":9060:9094  accountBalance[receiver][producer] */\n      mload(0x40)\n      tag_255\n      swap2\n      swap1\n      tag_150\n      jump\t// in\n    tag_255:\n      swap1\n      dup2\n      mstore\n      0x20\n      add\n      mload(0x40)\n      dup1\n      swap2\n      sub\n      swap1\n      keccak256\n        /* \"contracts/npc_credits/npc_credits.sol\":9095:9103  verifier */\n      dup4\n        /* \"contracts/npc_credits/npc_credits.sol\":9060:9104  accountBalance[receiver][producer][verifier] */\n      mload(0x40)\n      tag_256\n      swap2\n      swap1\n      tag_150\n      jump\t// in\n    tag_256:\n      swap1\n      dup2\n      mstore\n      0x20\n      add\n      mload(0x40)\n      dup1\n      swap2\n      sub\n      swap1\n      keccak256\n        /* \"contracts/npc_credits/npc_credits.sol\":9105:9115  creditType */\n      dup3\n        /* \"contracts/npc_credits/npc_credits.sol\":9060:9116  accountBalance[receiver][producer][verifier][creditType] */\n      mload(0x40)\n      tag_257\n      swap2\n      swap1\n      tag_150\n      jump\t// in\n    tag_257:\n      swap1\n      dup2\n      mstore\n      0x20\n      add\n      mload(0x40)\n      dup1\n      swap2\n      sub\n      swap1\n      keccak256\n      0x00\n        /* \"contracts/npc_credits/npc_credits.sol\":9060:9126  accountBalance[receiver][producer][verifier][creditType] += amount */\n      dup3\n      dup3\n      sload\n      tag_258\n      swap2\n      swap1\n      tag_181\n      jump\t// in\n    tag_258:\n      swap3\n      pop\n      pop\n      dup2\n      swap1\n      sstore\n      pop\n        /* \"contracts/npc_credits/npc_credits.sol\":9170:9176  amount */\n      dup8\n        /* \"contracts/npc_credits/npc_credits.sol\":9137:9156  accountTotalBalance */\n      0x0d\n        /* \"contracts/npc_credits/npc_credits.sol\":9157:9165  receiver */\n      dup6\n        /* \"contracts/npc_credits/npc_credits.sol\":9137:9166  accountTotalBalance[receiver] */\n      mload(0x40)\n      tag_259\n      swap2\n      swap1\n      tag_150\n      jump\t// in\n    tag_259:\n      swap1\n      dup2\n      mstore\n      0x20\n      add\n      mload(0x40)\n      dup1\n      swap2\n      sub\n      swap1\n      keccak256\n      0x00\n        /* \"contracts/npc_credits/npc_credits.sol\":9137:9176  accountTotalBalance[receiver] += amount */\n      dup3\n      dup3\n      sload\n      tag_260\n      swap2\n      swap1\n      tag_181\n      jump\t// in\n    tag_260:\n      swap3\n      pop\n      pop\n      dup2\n      swap1\n      sstore\n      pop\n        /* \"contracts/npc_credits/npc_credits.sol\":9192:9275  CreditsTransferred(sender, receiver, producer, verifier, creditType, amount, price) */\n      0x4bf3d601ea57d080a44151e6faaca262f82f23cd8144c59ad5cc4a708831744b\n        /* \"contracts/npc_credits/npc_credits.sol\":9211:9217  sender */\n      dup6\n        /* \"contracts/npc_credits/npc_credits.sol\":9219:9227  receiver */\n      dup6\n        /* \"contracts/npc_credits/npc_credits.sol\":9229:9237  producer */\n      dup6\n        /* \"contracts/npc_credits/npc_credits.sol\":9239:9247  verifier */\n      dup6\n        /* \"contracts/npc_credits/npc_credits.sol\":9249:9259  creditType */\n      dup6\n        /* \"contracts/npc_credits/npc_credits.sol\":9261:9267  amount */\n      dup14\n        /* \"contracts/npc_credits/npc_credits.sol\":9269:9274  price */\n      dup14\n        /* \"contracts/npc_credits/npc_credits.sol\":9192:9275  CreditsTransferred(sender, receiver, producer, verifier, creditType, amount, price) */\n      mload(0x40)\n      tag_261\n      swap8\n      swap7\n      swap6\n      swap5\n      swap4\n      swap3\n      swap2\n      swap1\n      tag_262\n      jump\t// in\n    tag_261:\n      mload(0x40)\n      dup1\n      swap2\n      sub\n      swap1\n      log1\n        /* \"contracts/npc_credits/npc_credits.sol\":9308:9470  _mintCertificate(... */\n      tag_263\n        /* \"contracts/npc_credits/npc_credits.sol\":9339:9347  receiver */\n      dup5\n        /* \"contracts/npc_credits/npc_credits.sol\":9362:9370  producer */\n      dup5\n        /* \"contracts/npc_credits/npc_credits.sol\":9385:9393  verifier */\n      dup5\n        /* \"contracts/npc_credits/npc_credits.sol\":9408:9418  creditType */\n      dup5\n        /* \"contracts/npc_credits/npc_credits.sol\":9433:9439  amount */\n      dup13\n        /* \"contracts/npc_credits/npc_credits.sol\":9454:9459  price */\n      dup13\n        /* \"contracts/npc_credits/npc_credits.sol\":9308:9324  _mintCertificate */\n      tag_264\n        /* \"contracts/npc_credits/npc_credits.sol\":9308:9470  _mintCertificate(... */\n      jump\t// in\n    tag_263:\n        /* \"contracts/npc_credits/npc_credits.sol\":9286:9470  _creditsTransferred = _mintCertificate(... */\n      swap6\n      pop\n        /* \"contracts/npc_credits/npc_credits.sol\":8389:9478  {... */\n      pop\n      pop\n      pop\n      pop\n      pop\n        /* \"contracts/npc_credits/npc_credits.sol\":8072:9478  function transferCredits(... */\n      swap8\n      swap7\n      pop\n      pop\n      pop\n      pop\n      pop\n      pop\n      pop\n      jump\t// out\n        /* \"contracts/npc_credits/npc_credits.sol\":4437:4825  function getAccountBalance(... */\n    tag_70:\n        /* \"contracts/npc_credits/npc_credits.sol\":4627:4649  int256 _accountBalance */\n      0x00\n        /* \"contracts/npc_credits/npc_credits.sol\":4680:4694  accountBalance */\n      0x0c\n        /* \"contracts/npc_credits/npc_credits.sol\":4695:4718  _toLowerCase(accountID) */\n      tag_266\n        /* \"contracts/npc_credits/npc_credits.sol\":4708:4717  accountID */\n      dup7\n        /* \"contracts/npc_credits/npc_credits.sol\":4695:4707  _toLowerCase */\n      tag_148\n        /* \"contracts/npc_credits/npc_credits.sol\":4695:4718  _toLowerCase(accountID) */\n      jump\t// in\n    tag_266:\n        /* \"contracts/npc_credits/npc_credits.sol\":4680:4719  accountBalance[_toLowerCase(accountID)] */\n      mload(0x40)\n      tag_267\n      swap2\n      swap1\n      tag_150\n      jump\t// in\n    tag_267:\n      swap1\n      dup2\n      mstore\n      0x20\n      add\n      mload(0x40)\n      dup1\n      swap2\n      sub\n      swap1\n      keccak256\n        /* \"contracts/npc_credits/npc_credits.sol\":4734:4756  _toLowerCase(producer) */\n      tag_268\n        /* \"contracts/npc_credits/npc_credits.sol\":4747:4755  producer */\n      dup6\n        /* \"contracts/npc_credits/npc_credits.sol\":4734:4746  _toLowerCase */\n      tag_148\n        /* \"contracts/npc_credits/npc_credits.sol\":4734:4756  _toLowerCase(producer) */\n      jump\t// in\n    tag_268:\n        /* \"contracts/npc_credits/npc_credits.sol\":4680:4767  accountBalance[_toLowerCase(accountID)][... */\n      mload(0x40)\n      tag_269\n      swap2\n      swap1\n      tag_150\n      jump\t// in\n    tag_269:\n      swap1\n      dup2\n      mstore\n      0x20\n      add\n      mload(0x40)\n      dup1\n      swap2\n      sub\n      swap1\n      keccak256\n        /* \"contracts/npc_credits/npc_credits.sol\":4768:4790  _toLowerCase(verifier) */\n      tag_270\n        /* \"contracts/npc_credits/npc_credits.sol\":4781:4789  verifier */\n      dup5\n        /* \"contracts/npc_credits/npc_credits.sol\":4768:4780  _toLowerCase */\n      tag_148\n        /* \"contracts/npc_credits/npc_credits.sol\":4768:4790  _toLowerCase(verifier) */\n      jump\t// in\n    tag_270:\n        /* \"contracts/npc_credits/npc_credits.sol\":4680:4791  accountBalance[_toLowerCase(accountID)][... */\n      mload(0x40)\n      tag_271\n      swap2\n      swap1\n      tag_150\n      jump\t// in\n    tag_271:\n      swap1\n      dup2\n      mstore\n      0x20\n      add\n      mload(0x40)\n      dup1\n      swap2\n      sub\n      swap1\n      keccak256\n        /* \"contracts/npc_credits/npc_credits.sol\":4792:4816  _toLowerCase(creditType) */\n      tag_272\n        /* \"contracts/npc_credits/npc_credits.sol\":4805:4815  creditType */\n      dup4\n        /* \"contracts/npc_credits/npc_credits.sol\":4792:4804  _toLowerCase */\n      tag_148\n        /* \"contracts/npc_credits/npc_credits.sol\":4792:4816  _toLowerCase(creditType) */\n      jump\t// in\n    tag_272:\n        /* \"contracts/npc_credits/npc_credits.sol\":4680:4817  accountBalance[_toLowerCase(accountID)][... */\n      mload(0x40)\n      tag_273\n      swap2\n      swap1\n      tag_150\n      jump\t// in\n    tag_273:\n      swap1\n      dup2\n      mstore\n      0x20\n      add\n      mload(0x40)\n      dup1\n      swap2\n      sub\n      swap1\n      keccak256\n      sload\n        /* \"contracts/npc_credits/npc_credits.sol\":4662:4817  _accountBalance = accountBalance[_toLowerCase(accountID)][... */\n      swap1\n      pop\n        /* \"contracts/npc_credits/npc_credits.sol\":4437:4825  function getAccountBalance(... */\n      swap5\n      swap4\n      pop\n      pop\n      pop\n      pop\n      jump\t// out\n        /* \"contracts/npc_credits/npc_credits.sol\":5050:5268  function getAccountCertificates(... */\n    tag_74:\n        /* \"contracts/npc_credits/npc_credits.sol\":5144:5180  int256[] memory _accountCertificates */\n      0x60\n        /* \"contracts/npc_credits/npc_credits.sol\":5216:5235  accountCertificates */\n      0x0b\n        /* \"contracts/npc_credits/npc_credits.sol\":5236:5259  _toLowerCase(accountID) */\n      tag_275\n        /* \"contracts/npc_credits/npc_credits.sol\":5249:5258  accountID */\n      dup4\n        /* \"contracts/npc_credits/npc_credits.sol\":5236:5248  _toLowerCase */\n      tag_148\n        /* \"contracts/npc_credits/npc_credits.sol\":5236:5259  _toLowerCase(accountID) */\n      jump\t// in\n    tag_275:\n        /* \"contracts/npc_credits/npc_credits.sol\":5216:5260  accountCertificates[_toLowerCase(accountID)] */\n      mload(0x40)\n      tag_276\n      swap2\n      swap1\n      tag_150\n      jump\t// in\n    tag_276:\n      swap1\n      dup2\n      mstore\n      0x20\n      add\n      mload(0x40)\n      dup1\n      swap2\n      sub\n      swap1\n      keccak256\n        /* \"contracts/npc_credits/npc_credits.sol\":5193:5260  _accountCertificates = accountCertificates[_toLowerCase(accountID)] */\n      dup1\n      sload\n      dup1\n      0x20\n      mul\n      0x20\n      add\n      mload(0x40)\n      swap1\n      dup2\n      add\n      0x40\n      mstore\n      dup1\n      swap3\n      swap2\n      swap1\n      dup2\n      dup2\n      mstore\n      0x20\n      add\n      dup3\n      dup1\n      sload\n      dup1\n      iszero\n      tag_277\n      jumpi\n      0x20\n      mul\n      dup3\n      add\n      swap2\n      swap1\n      0x00\n      mstore\n      keccak256(0x00, 0x20)\n      swap1\n    tag_278:\n      dup2\n      sload\n      dup2\n      mstore\n      0x20\n      add\n      swap1\n      0x01\n      add\n      swap1\n      dup1\n      dup4\n      gt\n      tag_278\n      jumpi\n    tag_277:\n      pop\n      pop\n      pop\n      pop\n      pop\n      swap1\n      pop\n        /* \"contracts/npc_credits/npc_credits.sol\":5050:5268  function getAccountCertificates(... */\n      swap2\n      swap1\n      pop\n      jump\t// out\n        /* \"contracts/npc_credits/npc_credits.sol\":2975:3144  function getTotalCertificates()... */\n    tag_78:\n        /* \"contracts/npc_credits/npc_credits.sol\":3055:3080  int256 _totalCertificates */\n      0x00\n        /* \"contracts/npc_credits/npc_credits.sol\":3119:3136  totalCertificates */\n      sload(0x04)\n        /* \"contracts/npc_credits/npc_credits.sol\":3098:3136  _totalCertificates = totalCertificates */\n      swap1\n      pop\n        /* \"contracts/npc_credits/npc_credits.sol\":2975:3144  function getTotalCertificates()... */\n      swap1\n      jump\t// out\n        /* \"contracts/npc_credits/npc_credits.sol\":3467:3675  function getProducerVerifiers(... */\n    tag_82:\n        /* \"contracts/npc_credits/npc_credits.sol\":3558:3592  string[] memory _producerVerifiers */\n      0x60\n        /* \"contracts/npc_credits/npc_credits.sol\":3626:3643  producerVerifiers */\n      0x09\n        /* \"contracts/npc_credits/npc_credits.sol\":3644:3666  _toLowerCase(producer) */\n      tag_281\n        /* \"contracts/npc_credits/npc_credits.sol\":3657:3665  producer */\n      dup4\n        /* \"contracts/npc_credits/npc_credits.sol\":3644:3656  _toLowerCase */\n      tag_148\n        /* \"contracts/npc_credits/npc_credits.sol\":3644:3666  _toLowerCase(producer) */\n      jump\t// in\n    tag_281:\n        /* \"contracts/npc_credits/npc_credits.sol\":3626:3667  producerVerifiers[_toLowerCase(producer)] */\n      mload(0x40)\n      tag_282\n      swap2\n      swap1\n      tag_150\n      jump\t// in\n    tag_282:\n      swap1\n      dup2\n      mstore\n      0x20\n      add\n      mload(0x40)\n      dup1\n      swap2\n      sub\n      swap1\n      keccak256\n        /* \"contracts/npc_credits/npc_credits.sol\":3605:3667  _producerVerifiers = producerVerifiers[_toLowerCase(producer)] */\n      dup1\n      sload\n      dup1\n      0x20\n      mul\n      0x20\n      add\n      mload(0x40)\n      swap1\n      dup2\n      add\n      0x40\n      mstore\n      dup1\n      swap3\n      swap2\n      swap1\n      dup2\n      dup2\n      mstore\n      0x20\n      add\n      0x00\n      swap1\n    tag_283:\n      dup3\n      dup3\n      lt\n      iszero\n      tag_284\n      jumpi\n      dup4\n      dup3\n      swap1\n      0x00\n      mstore\n      keccak256(0x00, 0x20)\n      add\n      dup1\n      sload\n      tag_286\n      swap1\n      tag_126\n      jump\t// in\n    tag_286:\n      dup1\n      0x1f\n      add\n      0x20\n      dup1\n      swap2\n      div\n      mul\n      0x20\n      add\n      mload(0x40)\n      swap1\n      dup2\n      add\n      0x40\n      mstore\n      dup1\n      swap3\n      swap2\n      swap1\n      dup2\n      dup2\n      mstore\n      0x20\n      add\n      dup3\n      dup1\n      sload\n      tag_287\n      swap1\n      tag_126\n      jump\t// in\n    tag_287:\n      dup1\n      iszero\n      tag_288\n      jumpi\n      dup1\n      0x1f\n      lt\n      tag_289\n      jumpi\n      0x0100\n      dup1\n      dup4\n      sload\n      div\n      mul\n      dup4\n      mstore\n      swap2\n      0x20\n      add\n      swap2\n      jump(tag_288)\n    tag_289:\n      dup3\n      add\n      swap2\n      swap1\n      0x00\n      mstore\n      keccak256(0x00, 0x20)\n      swap1\n    tag_290:\n      dup2\n      sload\n      dup2\n      mstore\n      swap1\n      0x01\n      add\n      swap1\n      0x20\n      add\n      dup1\n      dup4\n      gt\n      tag_290\n      jumpi\n      dup3\n      swap1\n      sub\n      0x1f\n      and\n      dup3\n      add\n      swap2\n    tag_288:\n      pop\n      pop\n      pop\n      pop\n      pop\n      dup2\n      mstore\n      0x20\n      add\n      swap1\n      0x01\n      add\n      swap1\n      jump(tag_283)\n    tag_284:\n      pop\n      pop\n      pop\n      pop\n      swap1\n      pop\n        /* \"contracts/npc_credits/npc_credits.sol\":3467:3675  function getProducerVerifiers(... */\n      swap2\n      swap1\n      pop\n      jump\t// out\n        /* \"contracts/npc_credits/npc_credits.sol\":2567:2665  function getOwner() public view returns (address _owner) {... */\n    tag_86:\n        /* \"contracts/npc_credits/npc_credits.sol\":2608:2622  address _owner */\n      0x00\n        /* \"contracts/npc_credits/npc_credits.sol\":2644:2657  contractOwner */\n      dup1\n      0x00\n      swap1\n      sload\n      swap1\n      0x0100\n      exp\n      swap1\n      div\n      0xffffffffffffffffffffffffffffffffffffffff\n      and\n        /* \"contracts/npc_credits/npc_credits.sol\":2635:2657  _owner = contractOwner */\n      swap1\n      pop\n        /* \"contracts/npc_credits/npc_credits.sol\":2567:2665  function getOwner() public view returns (address _owner) {... */\n      swap1\n      jump\t// out\n        /* \"contracts/npc_credits/npc_credits.sol\":4326:4429  function getTotalSold() public view returns(int256 _totalSold) {... */\n    tag_90:\n        /* \"contracts/npc_credits/npc_credits.sol\":4370:4387  int256 _totalSold */\n      0x00\n        /* \"contracts/npc_credits/npc_credits.sol\":4412:4421  totalSold */\n      sload(0x03)\n        /* \"contracts/npc_credits/npc_credits.sol\":4399:4421  _totalSold = totalSold */\n      swap1\n      pop\n        /* \"contracts/npc_credits/npc_credits.sol\":4326:4429  function getTotalSold() public view returns(int256 _totalSold) {... */\n      swap1\n      jump\t// out\n        /* \"contracts/npc_credits/npc_credits.sol\":6939:8064  function buyCredits(... */\n    tag_95:\n        /* \"contracts/npc_credits/npc_credits.sol\":7178:7197  bool _creditsBought */\n      0x00\n        /* \"contracts/npc_credits/npc_credits.sol\":2451:2464  contractOwner */\n      dup1\n      0x00\n      swap1\n      sload\n      swap1\n      0x0100\n      exp\n      swap1\n      div\n      0xffffffffffffffffffffffffffffffffffffffff\n      and\n        /* \"contracts/npc_credits/npc_credits.sol\":2437:2464  msg.sender == contractOwner */\n      0xffffffffffffffffffffffffffffffffffffffff\n      and\n        /* \"contracts/npc_credits/npc_credits.sol\":2437:2447  msg.sender */\n      caller\n        /* \"contracts/npc_credits/npc_credits.sol\":2437:2464  msg.sender == contractOwner */\n      0xffffffffffffffffffffffffffffffffffffffff\n      and\n      eq\n        /* \"contracts/npc_credits/npc_credits.sol\":2415:2539  require(... */\n      tag_294\n      jumpi\n      mload(0x40)\n      0x08c379a000000000000000000000000000000000000000000000000000000000\n      dup2\n      mstore\n      0x04\n      add\n      tag_295\n      swap1\n      tag_156\n      jump\t// in\n    tag_295:\n      mload(0x40)\n      dup1\n      swap2\n      sub\n      swap1\n      revert\n    tag_294:\n        /* \"contracts/npc_credits/npc_credits.sol\":7210:7233  string memory accountID */\n      0x00\n        /* \"contracts/npc_credits/npc_credits.sol\":7236:7260  _toLowerCase(_accountID) */\n      tag_297\n        /* \"contracts/npc_credits/npc_credits.sol\":7249:7259  _accountID */\n      dup9\n        /* \"contracts/npc_credits/npc_credits.sol\":7236:7248  _toLowerCase */\n      tag_148\n        /* \"contracts/npc_credits/npc_credits.sol\":7236:7260  _toLowerCase(_accountID) */\n      jump\t// in\n    tag_297:\n        /* \"contracts/npc_credits/npc_credits.sol\":7210:7260  string memory accountID = _toLowerCase(_accountID) */\n      swap1\n      pop\n        /* \"contracts/npc_credits/npc_credits.sol\":7271:7293  string memory producer */\n      0x00\n        /* \"contracts/npc_credits/npc_credits.sol\":7296:7319  _toLowerCase(_producer) */\n      tag_298\n        /* \"contracts/npc_credits/npc_credits.sol\":7309:7318  _producer */\n      dup9\n        /* \"contracts/npc_credits/npc_credits.sol\":7296:7308  _toLowerCase */\n      tag_148\n        /* \"contracts/npc_credits/npc_credits.sol\":7296:7319  _toLowerCase(_producer) */\n      jump\t// in\n    tag_298:\n        /* \"contracts/npc_credits/npc_credits.sol\":7271:7319  string memory producer = _toLowerCase(_producer) */\n      swap1\n      pop\n        /* \"contracts/npc_credits/npc_credits.sol\":7330:7352  string memory verifier */\n      0x00\n        /* \"contracts/npc_credits/npc_credits.sol\":7355:7378  _toLowerCase(_verifier) */\n      tag_299\n        /* \"contracts/npc_credits/npc_credits.sol\":7368:7377  _verifier */\n      dup9\n        /* \"contracts/npc_credits/npc_credits.sol\":7355:7367  _toLowerCase */\n      tag_148\n        /* \"contracts/npc_credits/npc_credits.sol\":7355:7378  _toLowerCase(_verifier) */\n      jump\t// in\n    tag_299:\n        /* \"contracts/npc_credits/npc_credits.sol\":7330:7378  string memory verifier = _toLowerCase(_verifier) */\n      swap1\n      pop\n        /* \"contracts/npc_credits/npc_credits.sol\":7389:7413  string memory creditType */\n      0x00\n        /* \"contracts/npc_credits/npc_credits.sol\":7416:7441  _toLowerCase(_creditType) */\n      tag_300\n        /* \"contracts/npc_credits/npc_credits.sol\":7429:7440  _creditType */\n      dup9\n        /* \"contracts/npc_credits/npc_credits.sol\":7416:7428  _toLowerCase */\n      tag_148\n        /* \"contracts/npc_credits/npc_credits.sol\":7416:7441  _toLowerCase(_creditType) */\n      jump\t// in\n    tag_300:\n        /* \"contracts/npc_credits/npc_credits.sol\":7389:7441  string memory creditType = _toLowerCase(_creditType) */\n      swap1\n      pop\n        /* \"contracts/npc_credits/npc_credits.sol\":7526:7532  amount */\n      dup7\n        /* \"contracts/npc_credits/npc_credits.sol\":7474:7480  supply */\n      0x06\n        /* \"contracts/npc_credits/npc_credits.sol\":7481:7489  producer */\n      dup5\n        /* \"contracts/npc_credits/npc_credits.sol\":7474:7490  supply[producer] */\n      mload(0x40)\n      tag_301\n      swap2\n      swap1\n      tag_150\n      jump\t// in\n    tag_301:\n      swap1\n      dup2\n      mstore\n      0x20\n      add\n      mload(0x40)\n      dup1\n      swap2\n      sub\n      swap1\n      keccak256\n        /* \"contracts/npc_credits/npc_credits.sol\":7491:7499  verifier */\n      dup4\n        /* \"contracts/npc_credits/npc_credits.sol\":7474:7500  supply[producer][verifier] */\n      mload(0x40)\n      tag_302\n      swap2\n      swap1\n      tag_150\n      jump\t// in\n    tag_302:\n      swap1\n      dup2\n      mstore\n      0x20\n      add\n      mload(0x40)\n      dup1\n      swap2\n      sub\n      swap1\n      keccak256\n        /* \"contracts/npc_credits/npc_credits.sol\":7501:7511  creditType */\n      dup3\n        /* \"contracts/npc_credits/npc_credits.sol\":7474:7512  supply[producer][verifier][creditType] */\n      mload(0x40)\n      tag_303\n      swap2\n      swap1\n      tag_150\n      jump\t// in\n    tag_303:\n      swap1\n      dup2\n      mstore\n      0x20\n      add\n      mload(0x40)\n      dup1\n      swap2\n      sub\n      swap1\n      keccak256\n        /* \"contracts/npc_credits/npc_credits.sol\":7474:7522  supply[producer][verifier][creditType].available */\n      0x01\n      add\n      sload\n        /* \"contracts/npc_credits/npc_credits.sol\":7474:7532  supply[producer][verifier][creditType].available >= amount */\n      slt\n      iszero\n        /* \"contracts/npc_credits/npc_credits.sol\":7452:7628  require(... */\n      tag_304\n      jumpi\n      mload(0x40)\n      0x08c379a000000000000000000000000000000000000000000000000000000000\n      dup2\n      mstore\n      0x04\n      add\n      tag_305\n      swap1\n      tag_306\n      jump\t// in\n    tag_305:\n      mload(0x40)\n      dup1\n      swap2\n      sub\n      swap1\n      revert\n    tag_304:\n        /* \"contracts/npc_credits/npc_credits.sol\":7691:7697  amount */\n      dup7\n        /* \"contracts/npc_credits/npc_credits.sol\":7639:7645  supply */\n      0x06\n        /* \"contracts/npc_credits/npc_credits.sol\":7646:7654  producer */\n      dup5\n        /* \"contracts/npc_credits/npc_credits.sol\":7639:7655  supply[producer] */\n      mload(0x40)\n      tag_307\n      swap2\n      swap1\n      tag_150\n      jump\t// in\n    tag_307:\n      swap1\n      dup2\n      mstore\n      0x20\n      add\n      mload(0x40)\n      dup1\n      swap2\n      sub\n      swap1\n      keccak256\n        /* \"contracts/npc_credits/npc_credits.sol\":7656:7664  verifier */\n      dup4\n        /* \"contracts/npc_credits/npc_credits.sol\":7639:7665  supply[producer][verifier] */\n      mload(0x40)\n      tag_308\n      swap2\n      swap1\n      tag_150\n      jump\t// in\n    tag_308:\n      swap1\n      dup2\n      mstore\n      0x20\n      add\n      mload(0x40)\n      dup1\n      swap2\n      sub\n      swap1\n      keccak256\n        /* \"contracts/npc_credits/npc_credits.sol\":7666:7676  creditType */\n      dup3\n        /* \"contracts/npc_credits/npc_credits.sol\":7639:7677  supply[producer][verifier][creditType] */\n      mload(0x40)\n      tag_309\n      swap2\n      swap1\n      tag_150\n      jump\t// in\n    tag_309:\n      swap1\n      dup2\n      mstore\n      0x20\n      add\n      mload(0x40)\n      dup1\n      swap2\n      sub\n      swap1\n      keccak256\n        /* \"contracts/npc_credits/npc_credits.sol\":7639:7687  supply[producer][verifier][creditType].available */\n      0x01\n      add\n      0x00\n        /* \"contracts/npc_credits/npc_credits.sol\":7639:7697  supply[producer][verifier][creditType].available -= amount */\n      dup3\n      dup3\n      sload\n      tag_310\n      swap2\n      swap1\n      tag_174\n      jump\t// in\n    tag_310:\n      swap3\n      pop\n      pop\n      dup2\n      swap1\n      sstore\n      pop\n        /* \"contracts/npc_credits/npc_credits.sol\":7742:7748  amount */\n      dup7\n        /* \"contracts/npc_credits/npc_credits.sol\":7708:7727  accountTotalBalance */\n      0x0d\n        /* \"contracts/npc_credits/npc_credits.sol\":7728:7737  accountID */\n      dup6\n        /* \"contracts/npc_credits/npc_credits.sol\":7708:7738  accountTotalBalance[accountID] */\n      mload(0x40)\n      tag_311\n      swap2\n      swap1\n      tag_150\n      jump\t// in\n    tag_311:\n      swap1\n      dup2\n      mstore\n      0x20\n      add\n      mload(0x40)\n      dup1\n      swap2\n      sub\n      swap1\n      keccak256\n      0x00\n        /* \"contracts/npc_credits/npc_credits.sol\":7708:7748  accountTotalBalance[accountID] += amount */\n      dup3\n      dup3\n      sload\n      tag_312\n      swap2\n      swap1\n      tag_181\n      jump\t// in\n    tag_312:\n      swap3\n      pop\n      pop\n      dup2\n      swap1\n      sstore\n      pop\n        /* \"contracts/npc_credits/npc_credits.sol\":7772:7778  amount */\n      dup7\n        /* \"contracts/npc_credits/npc_credits.sol\":7759:7768  totalSold */\n      0x03\n      0x00\n        /* \"contracts/npc_credits/npc_credits.sol\":7759:7778  totalSold += amount */\n      dup3\n      dup3\n      sload\n      tag_313\n      swap2\n      swap1\n      tag_181\n      jump\t// in\n    tag_313:\n      swap3\n      pop\n      pop\n      dup2\n      swap1\n      sstore\n      pop\n        /* \"contracts/npc_credits/npc_credits.sol\":7794:7865  CreditsBought(accountID, producer, verifier, creditType, amount, price) */\n      0x1b54ef0cccbeab6ff65480564fd3654638160f7c56ee2e640cd276661f32ea36\n        /* \"contracts/npc_credits/npc_credits.sol\":7808:7817  accountID */\n      dup5\n        /* \"contracts/npc_credits/npc_credits.sol\":7819:7827  producer */\n      dup5\n        /* \"contracts/npc_credits/npc_credits.sol\":7829:7837  verifier */\n      dup5\n        /* \"contracts/npc_credits/npc_credits.sol\":7839:7849  creditType */\n      dup5\n        /* \"contracts/npc_credits/npc_credits.sol\":7851:7857  amount */\n      dup12\n        /* \"contracts/npc_credits/npc_credits.sol\":7859:7864  price */\n      dup12\n        /* \"contracts/npc_credits/npc_credits.sol\":7794:7865  CreditsBought(accountID, producer, verifier, creditType, amount, price) */\n      mload(0x40)\n      tag_314\n      swap7\n      swap6\n      swap5\n      swap4\n      swap3\n      swap2\n      swap1\n      tag_315\n      jump\t// in\n    tag_314:\n      mload(0x40)\n      dup1\n      swap2\n      sub\n      swap1\n      log1\n        /* \"contracts/npc_credits/npc_credits.sol\":7893:8056  _mintCertificate(... */\n      tag_316\n        /* \"contracts/npc_credits/npc_credits.sol\":7924:7933  accountID */\n      dup5\n        /* \"contracts/npc_credits/npc_credits.sol\":7948:7956  producer */\n      dup5\n        /* \"contracts/npc_credits/npc_credits.sol\":7971:7979  verifier */\n      dup5\n        /* \"contracts/npc_credits/npc_credits.sol\":7994:8004  creditType */\n      dup5\n        /* \"contracts/npc_credits/npc_credits.sol\":8019:8025  amount */\n      dup12\n        /* \"contracts/npc_credits/npc_credits.sol\":8040:8045  price */\n      dup12\n        /* \"contracts/npc_credits/npc_credits.sol\":7893:7909  _mintCertificate */\n      tag_264\n        /* \"contracts/npc_credits/npc_credits.sol\":7893:8056  _mintCertificate(... */\n      jump\t// in\n    tag_316:\n        /* \"contracts/npc_credits/npc_credits.sol\":7876:8056  _creditsBought = _mintCertificate(... */\n      swap5\n      pop\n        /* \"contracts/npc_credits/npc_credits.sol\":7199:8064  {... */\n      pop\n      pop\n      pop\n      pop\n        /* \"contracts/npc_credits/npc_credits.sol\":6939:8064  function buyCredits(... */\n      swap7\n      swap6\n      pop\n      pop\n      pop\n      pop\n      pop\n      pop\n      jump\t// out\n        /* \"contracts/npc_credits/npc_credits.sol\":3887:4008  function getCreditTypes() public view returns(string[] memory _creditTypes) {... */\n    tag_98:\n        /* \"contracts/npc_credits/npc_credits.sol\":3933:3961  string[] memory _creditTypes */\n      0x60\n        /* \"contracts/npc_credits/npc_credits.sol\":3989:4000  creditTypes */\n      0x0f\n        /* \"contracts/npc_credits/npc_credits.sol\":3974:4000  _creditTypes = creditTypes */\n      dup1\n      sload\n      dup1\n      0x20\n      mul\n      0x20\n      add\n      mload(0x40)\n      swap1\n      dup2\n      add\n      0x40\n      mstore\n      dup1\n      swap3\n      swap2\n      swap1\n      dup2\n      dup2\n      mstore\n      0x20\n      add\n      0x00\n      swap1\n    tag_318:\n      dup3\n      dup3\n      lt\n      iszero\n      tag_319\n      jumpi\n      dup4\n      dup3\n      swap1\n      0x00\n      mstore\n      keccak256(0x00, 0x20)\n      add\n      dup1\n      sload\n      tag_321\n      swap1\n      tag_126\n      jump\t// in\n    tag_321:\n      dup1\n      0x1f\n      add\n      0x20\n      dup1\n      swap2\n      div\n      mul\n      0x20\n      add\n      mload(0x40)\n      swap1\n      dup2\n      add\n      0x40\n      mstore\n      dup1\n      swap3\n      swap2\n      swap1\n      dup2\n      dup2\n      mstore\n      0x20\n      add\n      dup3\n      dup1\n      sload\n      tag_322\n      swap1\n      tag_126\n      jump\t// in\n    tag_322:\n      dup1\n      iszero\n      tag_323\n      jumpi\n      dup1\n      0x1f\n      lt\n      tag_324\n      jumpi\n      0x0100\n      dup1\n      dup4\n      sload\n      div\n      mul\n      dup4\n      mstore\n      swap2\n      0x20\n      add\n      swap2\n      jump(tag_323)\n    tag_324:\n      dup3\n      add\n      swap2\n      swap1\n      0x00\n      mstore\n      keccak256(0x00, 0x20)\n      swap1\n    tag_325:\n      dup2\n      sload\n      dup2\n      mstore\n      swap1\n      0x01\n      add\n      swap1\n      0x20\n      add\n      dup1\n      dup4\n      gt\n      tag_325\n      jumpi\n      dup3\n      swap1\n      sub\n      0x1f\n      and\n      dup3\n      add\n      swap2\n    tag_323:\n      pop\n      pop\n      pop\n      pop\n      pop\n      dup2\n      mstore\n      0x20\n      add\n      swap1\n      0x01\n      add\n      swap1\n      jump(tag_318)\n    tag_319:\n      pop\n      pop\n      pop\n      pop\n      swap1\n      pop\n        /* \"contracts/npc_credits/npc_credits.sol\":3887:4008  function getCreditTypes() public view returns(string[] memory _creditTypes) {... */\n      swap1\n      jump\t// out\n        /* \"contracts/npc_credits/npc_credits.sol\":2673:2786  function getTotalSupply() public view returns (int256 _totalSupply) {... */\n    tag_101:\n        /* \"contracts/npc_credits/npc_credits.sol\":2720:2739  int256 _totalSupply */\n      0x00\n        /* \"contracts/npc_credits/npc_credits.sol\":2767:2778  totalSupply */\n      sload(0x01)\n        /* \"contracts/npc_credits/npc_credits.sol\":2752:2778  _totalSupply = totalSupply */\n      swap1\n      pop\n        /* \"contracts/npc_credits/npc_credits.sol\":2673:2786  function getTotalSupply() public view returns (int256 _totalSupply) {... */\n      swap1\n      jump\t// out\n        /* \"contracts/npc_credits/npc_credits.sol\":3345:3459  function getProducers() public view returns (string[] memory _producers) {... */\n    tag_104:\n        /* \"contracts/npc_credits/npc_credits.sol\":3390:3416  string[] memory _producers */\n      0x60\n        /* \"contracts/npc_credits/npc_credits.sol\":3442:3451  producers */\n      0x05\n        /* \"contracts/npc_credits/npc_credits.sol\":3429:3451  _producers = producers */\n      dup1\n      sload\n      dup1\n      0x20\n      mul\n      0x20\n      add\n      mload(0x40)\n      swap1\n      dup2\n      add\n      0x40\n      mstore\n      dup1\n      swap3\n      swap2\n      swap1\n      dup2\n      dup2\n      mstore\n      0x20\n      add\n      0x00\n      swap1\n    tag_328:\n      dup3\n      dup3\n      lt\n      iszero\n      tag_329\n      jumpi\n      dup4\n      dup3\n      swap1\n      0x00\n      mstore\n      keccak256(0x00, 0x20)\n      add\n      dup1\n      sload\n      tag_331\n      swap1\n      tag_126\n      jump\t// in\n    tag_331:\n      dup1\n      0x1f\n      add\n      0x20\n      dup1\n      swap2\n      div\n      mul\n      0x20\n      add\n      mload(0x40)\n      swap1\n      dup2\n      add\n      0x40\n      mstore\n      dup1\n      swap3\n      swap2\n      swap1\n      dup2\n      dup2\n      mstore\n      0x20\n      add\n      dup3\n      dup1\n      sload\n      tag_332\n      swap1\n      tag_126\n      jump\t// in\n    tag_332:\n      dup1\n      iszero\n      tag_333\n      jumpi\n      dup1\n      0x1f\n      lt\n      tag_334\n      jumpi\n      0x0100\n      dup1\n      dup4\n      sload\n      div\n      mul\n      dup4\n      mstore\n      swap2\n      0x20\n      add\n      swap2\n      jump(tag_333)\n    tag_334:\n      dup3\n      add\n      swap2\n      swap1\n      0x00\n      mstore\n      keccak256(0x00, 0x20)\n      swap1\n    tag_335:\n      dup2\n      sload\n      dup2\n      mstore\n      swap1\n      0x01\n      add\n      swap1\n      0x20\n      add\n      dup1\n      dup4\n      gt\n      tag_335\n      jumpi\n      dup3\n      swap1\n      sub\n      0x1f\n      and\n      dup3\n      add\n      swap2\n    tag_333:\n      pop\n      pop\n      pop\n      pop\n      pop\n      dup2\n      mstore\n      0x20\n      add\n      swap1\n      0x01\n      add\n      swap1\n      jump(tag_328)\n    tag_329:\n      pop\n      pop\n      pop\n      pop\n      swap1\n      pop\n        /* \"contracts/npc_credits/npc_credits.sol\":3345:3459  function getProducers() public view returns (string[] memory _producers) {... */\n      swap1\n      jump\t// out\n        /* \"contracts/npc_credits/npc_credits.sol\":10514:10805  function transferOwnership(... */\n    tag_109:\n        /* \"contracts/npc_credits/npc_credits.sol\":10601:10605  bool */\n      0x00\n        /* \"contracts/npc_credits/npc_credits.sol\":2451:2464  contractOwner */\n      dup1\n      0x00\n      swap1\n      sload\n      swap1\n      0x0100\n      exp\n      swap1\n      div\n      0xffffffffffffffffffffffffffffffffffffffff\n      and\n        /* \"contracts/npc_credits/npc_credits.sol\":2437:2464  msg.sender == contractOwner */\n      0xffffffffffffffffffffffffffffffffffffffff\n      and\n        /* \"contracts/npc_credits/npc_credits.sol\":2437:2447  msg.sender */\n      caller\n        /* \"contracts/npc_credits/npc_credits.sol\":2437:2464  msg.sender == contractOwner */\n      0xffffffffffffffffffffffffffffffffffffffff\n      and\n      eq\n        /* \"contracts/npc_credits/npc_credits.sol\":2415:2539  require(... */\n      tag_337\n      jumpi\n      mload(0x40)\n      0x08c379a000000000000000000000000000000000000000000000000000000000\n      dup2\n      mstore\n      0x04\n      add\n      tag_338\n      swap1\n      tag_156\n      jump\t// in\n    tag_338:\n      mload(0x40)\n      dup1\n      swap2\n      sub\n      swap1\n      revert\n    tag_337:\n        /* \"contracts/npc_credits/npc_credits.sol\":10646:10647  0 */\n      0x00\n        /* \"contracts/npc_credits/npc_credits.sol\":10626:10648  newOwner != address(0) */\n      0xffffffffffffffffffffffffffffffffffffffff\n      and\n        /* \"contracts/npc_credits/npc_credits.sol\":10626:10634  newOwner */\n      dup3\n        /* \"contracts/npc_credits/npc_credits.sol\":10626:10648  newOwner != address(0) */\n      0xffffffffffffffffffffffffffffffffffffffff\n      and\n      sub\n        /* \"contracts/npc_credits/npc_credits.sol\":10618:10679  require(newOwner != address(0), \"Invalid new owner address.\") */\n      tag_340\n      jumpi\n      mload(0x40)\n      0x08c379a000000000000000000000000000000000000000000000000000000000\n      dup2\n      mstore\n      0x04\n      add\n      tag_341\n      swap1\n      tag_342\n      jump\t// in\n    tag_341:\n      mload(0x40)\n      dup1\n      swap2\n      sub\n      swap1\n      revert\n    tag_340:\n        /* \"contracts/npc_credits/npc_credits.sol\":10706:10714  newOwner */\n      dup2\n        /* \"contracts/npc_credits/npc_credits.sol\":10690:10703  contractOwner */\n      0x00\n      dup1\n        /* \"contracts/npc_credits/npc_credits.sol\":10690:10714  contractOwner = newOwner */\n      0x0100\n      exp\n      dup2\n      sload\n      dup2\n      0xffffffffffffffffffffffffffffffffffffffff\n      mul\n      not\n      and\n      swap1\n      dup4\n      0xffffffffffffffffffffffffffffffffffffffff\n      and\n      mul\n      or\n      swap1\n      sstore\n      pop\n        /* \"contracts/npc_credits/npc_credits.sol\":10766:10774  newOwner */\n      dup2\n        /* \"contracts/npc_credits/npc_credits.sol\":10730:10775  OwnershipTransferred(contractOwner, newOwner) */\n      0xffffffffffffffffffffffffffffffffffffffff\n      and\n        /* \"contracts/npc_credits/npc_credits.sol\":10751:10764  contractOwner */\n      0x00\n      dup1\n      sload\n      swap1\n      0x0100\n      exp\n      swap1\n      div\n      0xffffffffffffffffffffffffffffffffffffffff\n      and\n        /* \"contracts/npc_credits/npc_credits.sol\":10730:10775  OwnershipTransferred(contractOwner, newOwner) */\n      0xffffffffffffffffffffffffffffffffffffffff\n      and\n      0x8be0079c531659141344cd1fd0a4f28419497f9722a3daafe3b4186f6b6457e0\n      mload(0x40)\n      mload(0x40)\n      dup1\n      swap2\n      sub\n      swap1\n      log3\n        /* \"contracts/npc_credits/npc_credits.sol\":10793:10797  true */\n      0x01\n        /* \"contracts/npc_credits/npc_credits.sol\":10786:10797  return true */\n      swap1\n      pop\n        /* \"contracts/npc_credits/npc_credits.sol\":10514:10805  function transferOwnership(... */\n      swap2\n      swap1\n      pop\n      jump\t// out\n        /* \"contracts/npc_credits/npc_credits.sol\":5276:5476  function isProducerRegistered(... */\n    tag_113:\n        /* \"contracts/npc_credits/npc_credits.sol\":5367:5391  bool _producerRegistered */\n      0x00\n        /* \"contracts/npc_credits/npc_credits.sol\":5426:5444  producerRegistered */\n      0x07\n        /* \"contracts/npc_credits/npc_credits.sol\":5445:5467  _toLowerCase(producer) */\n      tag_344\n        /* \"contracts/npc_credits/npc_credits.sol\":5458:5466  producer */\n      dup4\n        /* \"contracts/npc_credits/npc_credits.sol\":5445:5457  _toLowerCase */\n      tag_148\n        /* \"contracts/npc_credits/npc_credits.sol\":5445:5467  _toLowerCase(producer) */\n      jump\t// in\n    tag_344:\n        /* \"contracts/npc_credits/npc_credits.sol\":5426:5468  producerRegistered[_toLowerCase(producer)] */\n      mload(0x40)\n      tag_345\n      swap2\n      swap1\n      tag_150\n      jump\t// in\n    tag_345:\n      swap1\n      dup2\n      mstore\n      0x20\n      add\n      mload(0x40)\n      dup1\n      swap2\n      sub\n      swap1\n      keccak256\n      0x00\n      swap1\n      sload\n      swap1\n      0x0100\n      exp\n      swap1\n      div\n      0xff\n      and\n        /* \"contracts/npc_credits/npc_credits.sol\":5404:5468  _producerRegistered = producerRegistered[_toLowerCase(producer)] */\n      swap1\n      pop\n        /* \"contracts/npc_credits/npc_credits.sol\":5276:5476  function isProducerRegistered(... */\n      swap2\n      swap1\n      pop\n      jump\t// out\n        /* \"contracts/npc_credits/npc_credits.sol\":4014:4318  function getSupply(... */\n    tag_118:\n        /* \"contracts/npc_credits/npc_credits.sol\":4162:4183  Supply memory _supply */\n      tag_346\n      tag_347\n      jump\t// in\n    tag_346:\n        /* \"contracts/npc_credits/npc_credits.sol\":4206:4212  supply */\n      0x06\n        /* \"contracts/npc_credits/npc_credits.sol\":4213:4235  _toLowerCase(producer) */\n      tag_349\n        /* \"contracts/npc_credits/npc_credits.sol\":4226:4234  producer */\n      dup6\n        /* \"contracts/npc_credits/npc_credits.sol\":4213:4225  _toLowerCase */\n      tag_148\n        /* \"contracts/npc_credits/npc_credits.sol\":4213:4235  _toLowerCase(producer) */\n      jump\t// in\n    tag_349:\n        /* \"contracts/npc_credits/npc_credits.sol\":4206:4236  supply[_toLowerCase(producer)] */\n      mload(0x40)\n      tag_350\n      swap2\n      swap1\n      tag_150\n      jump\t// in\n    tag_350:\n      swap1\n      dup2\n      mstore\n      0x20\n      add\n      mload(0x40)\n      dup1\n      swap2\n      sub\n      swap1\n      keccak256\n        /* \"contracts/npc_credits/npc_credits.sol\":4251:4273  _toLowerCase(verifier) */\n      tag_351\n        /* \"contracts/npc_credits/npc_credits.sol\":4264:4272  verifier */\n      dup5\n        /* \"contracts/npc_credits/npc_credits.sol\":4251:4263  _toLowerCase */\n      tag_148\n        /* \"contracts/npc_credits/npc_credits.sol\":4251:4273  _toLowerCase(verifier) */\n      jump\t// in\n    tag_351:\n        /* \"contracts/npc_credits/npc_credits.sol\":4206:4284  supply[_toLowerCase(producer)][... */\n      mload(0x40)\n      tag_352\n      swap2\n      swap1\n      tag_150\n      jump\t// in\n    tag_352:\n      swap1\n      dup2\n      mstore\n      0x20\n      add\n      mload(0x40)\n      dup1\n      swap2\n      sub\n      swap1\n      keccak256\n        /* \"contracts/npc_credits/npc_credits.sol\":4285:4309  _toLowerCase(creditType) */\n      tag_353\n        /* \"contracts/npc_credits/npc_credits.sol\":4298:4308  creditType */\n      dup4\n        /* \"contracts/npc_credits/npc_credits.sol\":4285:4297  _toLowerCase */\n      tag_148\n        /* \"contracts/npc_credits/npc_credits.sol\":4285:4309  _toLowerCase(creditType) */\n      jump\t// in\n    tag_353:\n        /* \"contracts/npc_credits/npc_credits.sol\":4206:4310  supply[_toLowerCase(producer)][... */\n      mload(0x40)\n      tag_354\n      swap2\n      swap1\n      tag_150\n      jump\t// in\n    tag_354:\n      swap1\n      dup2\n      mstore\n      0x20\n      add\n      mload(0x40)\n      dup1\n      swap2\n      sub\n      swap1\n      keccak256\n        /* \"contracts/npc_credits/npc_credits.sol\":4196:4310  _supply = supply[_toLowerCase(producer)][... */\n      mload(0x40)\n      dup1\n      0x60\n      add\n      0x40\n      mstore\n      swap1\n      dup2\n      0x00\n      dup3\n      add\n      sload\n      dup2\n      mstore\n      0x20\n      add\n      0x01\n      dup3\n      add\n      sload\n      dup2\n      mstore\n      0x20\n      add\n      0x02\n      dup3\n      add\n      sload\n      dup2\n      mstore\n      pop\n      pop\n      swap1\n      pop\n        /* \"contracts/npc_credits/npc_credits.sol\":4014:4318  function getSupply(... */\n      swap4\n      swap3\n      pop\n      pop\n      pop\n      jump\t// out\n        /* \"contracts/npc_credits/npc_credits.sol\":11972:12481  function _toLowerCase(... */\n    tag_148:\n        /* \"contracts/npc_credits/npc_credits.sol\":12053:12066  string memory */\n      0x60\n        /* \"contracts/npc_credits/npc_credits.sol\":12079:12100  bytes memory strBytes */\n      0x00\n        /* \"contracts/npc_credits/npc_credits.sol\":12109:12113  _str */\n      dup3\n        /* \"contracts/npc_credits/npc_credits.sol\":12079:12114  bytes memory strBytes = bytes(_str) */\n      swap1\n      pop\n        /* \"contracts/npc_credits/npc_credits.sol\":12125:12142  uint256 strLength */\n      0x00\n        /* \"contracts/npc_credits/npc_credits.sol\":12145:12153  strBytes */\n      dup2\n        /* \"contracts/npc_credits/npc_credits.sol\":12145:12160  strBytes.length */\n      mload\n        /* \"contracts/npc_credits/npc_credits.sol\":12125:12160  uint256 strLength = strBytes.length */\n      swap1\n      pop\n        /* \"contracts/npc_credits/npc_credits.sol\":12178:12187  uint256 i */\n      0x00\n        /* \"contracts/npc_credits/npc_credits.sol\":12173:12438  for (uint256 i = 0; i < strLength; i++) {... */\n    tag_356:\n        /* \"contracts/npc_credits/npc_credits.sol\":12197:12206  strLength */\n      dup2\n        /* \"contracts/npc_credits/npc_credits.sol\":12193:12194  i */\n      dup2\n        /* \"contracts/npc_credits/npc_credits.sol\":12193:12206  i < strLength */\n      lt\n        /* \"contracts/npc_credits/npc_credits.sol\":12173:12438  for (uint256 i = 0; i < strLength; i++) {... */\n      iszero\n      tag_357\n      jumpi\n        /* \"contracts/npc_credits/npc_credits.sol\":12312:12314  65 */\n      0x41\n        /* \"contracts/npc_credits/npc_credits.sol\":12296:12304  strBytes */\n      dup4\n        /* \"contracts/npc_credits/npc_credits.sol\":12305:12306  i */\n      dup3\n        /* \"contracts/npc_credits/npc_credits.sol\":12296:12307  strBytes[i] */\n      dup2\n      mload\n      dup2\n      lt\n      tag_359\n      jumpi\n      tag_360\n      tag_361\n      jump\t// in\n    tag_360:\n    tag_359:\n      0x20\n      add\n      add\n      mload\n      0xf8\n      shr\n      0xf8\n      shl\n        /* \"contracts/npc_credits/npc_credits.sol\":12290:12308  uint8(strBytes[i]) */\n      0xf8\n      shr\n        /* \"contracts/npc_credits/npc_credits.sol\":12290:12314  uint8(strBytes[i]) >= 65 */\n      0xff\n      and\n      lt\n      iszero\n        /* \"contracts/npc_credits/npc_credits.sol\":12289:12345  (uint8(strBytes[i]) >= 65) && (uint8(strBytes[i]) <= 90) */\n      dup1\n      iszero\n      tag_362\n      jumpi\n      pop\n        /* \"contracts/npc_credits/npc_credits.sol\":12342:12344  90 */\n      0x5a\n        /* \"contracts/npc_credits/npc_credits.sol\":12326:12334  strBytes */\n      dup4\n        /* \"contracts/npc_credits/npc_credits.sol\":12335:12336  i */\n      dup3\n        /* \"contracts/npc_credits/npc_credits.sol\":12326:12337  strBytes[i] */\n      dup2\n      mload\n      dup2\n      lt\n      tag_363\n      jumpi\n      tag_364\n      tag_361\n      jump\t// in\n    tag_364:\n    tag_363:\n      0x20\n      add\n      add\n      mload\n      0xf8\n      shr\n      0xf8\n      shl\n        /* \"contracts/npc_credits/npc_credits.sol\":12320:12338  uint8(strBytes[i]) */\n      0xf8\n      shr\n        /* \"contracts/npc_credits/npc_credits.sol\":12320:12344  uint8(strBytes[i]) <= 90 */\n      0xff\n      and\n      gt\n      iszero\n        /* \"contracts/npc_credits/npc_credits.sol\":12289:12345  (uint8(strBytes[i]) >= 65) && (uint8(strBytes[i]) <= 90) */\n    tag_362:\n        /* \"contracts/npc_credits/npc_credits.sol\":12285:12427  if ((uint8(strBytes[i]) >= 65) && (uint8(strBytes[i]) <= 90)) {... */\n      iszero\n      tag_365\n      jumpi\n        /* \"contracts/npc_credits/npc_credits.sol\":12408:12410  32 */\n      0x20\n        /* \"contracts/npc_credits/npc_credits.sol\":12393:12401  strBytes */\n      dup4\n        /* \"contracts/npc_credits/npc_credits.sol\":12402:12403  i */\n      dup3\n        /* \"contracts/npc_credits/npc_credits.sol\":12393:12404  strBytes[i] */\n      dup2\n      mload\n      dup2\n      lt\n      tag_366\n      jumpi\n      tag_367\n      tag_361\n      jump\t// in\n    tag_367:\n    tag_366:\n      0x20\n      add\n      add\n      mload\n      0xf8\n      shr\n      0xf8\n      shl\n        /* \"contracts/npc_credits/npc_credits.sol\":12387:12405  uint8(strBytes[i]) */\n      0xf8\n      shr\n        /* \"contracts/npc_credits/npc_credits.sol\":12387:12410  uint8(strBytes[i]) + 32 */\n      tag_368\n      swap2\n      swap1\n      tag_369\n      jump\t// in\n    tag_368:\n        /* \"contracts/npc_credits/npc_credits.sol\":12380:12411  bytes1(uint8(strBytes[i]) + 32) */\n      0xf8\n      shl\n        /* \"contracts/npc_credits/npc_credits.sol\":12366:12374  strBytes */\n      dup4\n        /* \"contracts/npc_credits/npc_credits.sol\":12375:12376  i */\n      dup3\n        /* \"contracts/npc_credits/npc_credits.sol\":12366:12377  strBytes[i] */\n      dup2\n      mload\n      dup2\n      lt\n      tag_370\n      jumpi\n      tag_371\n      tag_361\n      jump\t// in\n    tag_371:\n    tag_370:\n      0x20\n      add\n      add\n        /* \"contracts/npc_credits/npc_credits.sol\":12366:12411  strBytes[i] = bytes1(uint8(strBytes[i]) + 32) */\n      swap1\n      not(0xffffffffffffffffffffffffffffffffffffffffffffffffffffffffffffff)\n      and\n      swap1\n      dup2\n      0x00\n      byte\n      swap1\n      mstore8\n      pop\n        /* \"contracts/npc_credits/npc_credits.sol\":12285:12427  if ((uint8(strBytes[i]) >= 65) && (uint8(strBytes[i]) <= 90)) {... */\n    tag_365:\n        /* \"contracts/npc_credits/npc_credits.sol\":12208:12211  i++ */\n      dup1\n      dup1\n      0x01\n      add\n      swap2\n      pop\n      pop\n        /* \"contracts/npc_credits/npc_credits.sol\":12173:12438  for (uint256 i = 0; i < strLength; i++) {... */\n      jump(tag_356)\n    tag_357:\n      pop\n        /* \"contracts/npc_credits/npc_credits.sol\":12464:12472  strBytes */\n      dup2\n        /* \"contracts/npc_credits/npc_credits.sol\":12450:12473  return string(strBytes) */\n      swap3\n      pop\n      pop\n      pop\n        /* \"contracts/npc_credits/npc_credits.sol\":11972:12481  function _toLowerCase(... */\n      swap2\n      swap1\n      pop\n      jump\t// out\n        /* \"contracts/npc_credits/npc_credits.sol\":12489:12723  function _compareStrings(... */\n    tag_237:\n        /* \"contracts/npc_credits/npc_credits.sol\":12604:12608  bool */\n      0x00\n        /* \"contracts/npc_credits/npc_credits.sol\":12707:12712  _str2 */\n      dup2\n        /* \"contracts/npc_credits/npc_credits.sol\":12690:12713  abi.encodePacked(_str2) */\n      add(0x20, mload(0x40))\n      tag_373\n      swap2\n      swap1\n      tag_150\n      jump\t// in\n    tag_373:\n      mload(0x40)\n      0x20\n      dup2\n      dup4\n      sub\n      sub\n      dup2\n      mstore\n      swap1\n      0x40\n      mstore\n        /* \"contracts/npc_credits/npc_credits.sol\":12680:12714  keccak256(abi.encodePacked(_str2)) */\n      dup1\n      mload\n      swap1\n      0x20\n      add\n      keccak256\n        /* \"contracts/npc_credits/npc_credits.sol\":12656:12661  _str1 */\n      dup4\n        /* \"contracts/npc_credits/npc_credits.sol\":12639:12662  abi.encodePacked(_str1) */\n      add(0x20, mload(0x40))\n      tag_374\n      swap2\n      swap1\n      tag_150\n      jump\t// in\n    tag_374:\n      mload(0x40)\n      0x20\n      dup2\n      dup4\n      sub\n      sub\n      dup2\n      mstore\n      swap1\n      0x40\n      mstore\n        /* \"contracts/npc_credits/npc_credits.sol\":12629:12663  keccak256(abi.encodePacked(_str1)) */\n      dup1\n      mload\n      swap1\n      0x20\n      add\n      keccak256\n        /* \"contracts/npc_credits/npc_credits.sol\":12629:12714  keccak256(abi.encodePacked(_str1)) ==... */\n      eq\n        /* \"contracts/npc_credits/npc_credits.sol\":12621:12715  return (keccak256(abi.encodePacked(_str1)) ==... */\n      swap1\n      pop\n        /* \"contracts/npc_credits/npc_credits.sol\":12489:12723  function _compareStrings(... */\n      swap3\n      swap2\n      pop\n      pop\n      jump\t// out\n        /* \"contracts/npc_credits/npc_credits.sol\":10813:11964  function _mintCertificate(... */\n    tag_264:\n        /* \"contracts/npc_credits/npc_credits.sol\":11050:11054  bool */\n      0x00\n        /* \"contracts/npc_credits/npc_credits.sol\":11067:11090  string memory accountID */\n      dup1\n        /* \"contracts/npc_credits/npc_credits.sol\":11093:11117  _toLowerCase(_accountID) */\n      tag_376\n        /* \"contracts/npc_credits/npc_credits.sol\":11106:11116  _accountID */\n      dup9\n        /* \"contracts/npc_credits/npc_credits.sol\":11093:11105  _toLowerCase */\n      tag_148\n        /* \"contracts/npc_credits/npc_credits.sol\":11093:11117  _toLowerCase(_accountID) */\n      jump\t// in\n    tag_376:\n        /* \"contracts/npc_credits/npc_credits.sol\":11067:11117  string memory accountID = _toLowerCase(_accountID) */\n      swap1\n      pop\n        /* \"contracts/npc_credits/npc_credits.sol\":11128:11150  string memory producer */\n      0x00\n        /* \"contracts/npc_credits/npc_credits.sol\":11153:11176  _toLowerCase(_producer) */\n      tag_377\n        /* \"contracts/npc_credits/npc_credits.sol\":11166:11175  _producer */\n      dup9\n        /* \"contracts/npc_credits/npc_credits.sol\":11153:11165  _toLowerCase */\n      tag_148\n        /* \"contracts/npc_credits/npc_credits.sol\":11153:11176  _toLowerCase(_producer) */\n      jump\t// in\n    tag_377:\n        /* \"contracts/npc_credits/npc_credits.sol\":11128:11176  string memory producer = _toLowerCase(_producer) */\n      swap1\n      pop\n        /* \"contracts/npc_credits/npc_credits.sol\":11187:11209  string memory verifier */\n      0x00\n        /* \"contracts/npc_credits/npc_credits.sol\":11212:11235  _toLowerCase(_verifier) */\n      tag_378\n        /* \"contracts/npc_credits/npc_credits.sol\":11225:11234  _verifier */\n      dup9\n        /* \"contracts/npc_credits/npc_credits.sol\":11212:11224  _toLowerCase */\n      tag_148\n        /* \"contracts/npc_credits/npc_credits.sol\":11212:11235  _toLowerCase(_verifier) */\n      jump\t// in\n    tag_378:\n        /* \"contracts/npc_credits/npc_credits.sol\":11187:11235  string memory verifier = _toLowerCase(_verifier) */\n      swap1\n      pop\n        /* \"contracts/npc_credits/npc_credits.sol\":11246:11270  string memory creditType */\n      0x00\n        /* \"contracts/npc_credits/npc_credits.sol\":11273:11298  _toLowerCase(_creditType) */\n      tag_379\n        /* \"contracts/npc_credits/npc_credits.sol\":11286:11297  _creditType */\n      dup9\n        /* \"contracts/npc_credits/npc_credits.sol\":11273:11285  _toLowerCase */\n      tag_148\n        /* \"contracts/npc_credits/npc_credits.sol\":11273:11298  _toLowerCase(_creditType) */\n      jump\t// in\n    tag_379:\n        /* \"contracts/npc_credits/npc_credits.sol\":11246:11298  string memory creditType = _toLowerCase(_creditType) */\n      swap1\n      pop\n        /* \"contracts/npc_credits/npc_credits.sol\":11309:11326  totalCertificates */\n      0x04\n      0x00\n        /* \"contracts/npc_credits/npc_credits.sol\":11309:11328  totalCertificates++ */\n      dup2\n      sload\n      dup1\n      swap3\n      swap2\n      swap1\n      tag_380\n      swap1\n      tag_381\n      jump\t// in\n    tag_380:\n      swap2\n      swap1\n      pop\n      sstore\n      pop\n        /* \"contracts/npc_credits/npc_credits.sol\":11339:11363  Certificate storage cert */\n      0x00\n        /* \"contracts/npc_credits/npc_credits.sol\":11366:11382  certificatesById */\n      0x0a\n        /* \"contracts/npc_credits/npc_credits.sol\":11366:11401  certificatesById[totalCertificates] */\n      0x00\n        /* \"contracts/npc_credits/npc_credits.sol\":11383:11400  totalCertificates */\n      sload(0x04)\n        /* \"contracts/npc_credits/npc_credits.sol\":11366:11401  certificatesById[totalCertificates] */\n      dup2\n      mstore\n      0x20\n      add\n      swap1\n      dup2\n      mstore\n      0x20\n      add\n      0x00\n      keccak256\n        /* \"contracts/npc_credits/npc_credits.sol\":11339:11401  Certificate storage cert = certificatesById[totalCertificates] */\n      swap1\n      pop\n        /* \"contracts/npc_credits/npc_credits.sol\":11422:11439  totalCertificates */\n      sload(0x04)\n        /* \"contracts/npc_credits/npc_credits.sol\":11412:11416  cert */\n      dup2\n        /* \"contracts/npc_credits/npc_credits.sol\":11412:11419  cert.id */\n      0x00\n      add\n        /* \"contracts/npc_credits/npc_credits.sol\":11412:11439  cert.id = totalCertificates */\n      dup2\n      swap1\n      sstore\n      pop\n        /* \"contracts/npc_credits/npc_credits.sol\":11463:11472  accountID */\n      dup5\n        /* \"contracts/npc_credits/npc_credits.sol\":11450:11454  cert */\n      dup2\n        /* \"contracts/npc_credits/npc_credits.sol\":11450:11460  cert.buyer */\n      0x01\n      add\n        /* \"contracts/npc_credits/npc_credits.sol\":11450:11472  cert.buyer = accountID */\n      swap1\n      dup2\n      tag_382\n      swap2\n      swap1\n      tag_197\n      jump\t// in\n    tag_382:\n      pop\n        /* \"contracts/npc_credits/npc_credits.sol\":11499:11507  producer */\n      dup4\n        /* \"contracts/npc_credits/npc_credits.sol\":11483:11487  cert */\n      dup2\n        /* \"contracts/npc_credits/npc_credits.sol\":11483:11496  cert.producer */\n      0x02\n      add\n        /* \"contracts/npc_credits/npc_credits.sol\":11483:11507  cert.producer = producer */\n      swap1\n      dup2\n      tag_383\n      swap2\n      swap1\n      tag_197\n      jump\t// in\n    tag_383:\n      pop\n        /* \"contracts/npc_credits/npc_credits.sol\":11534:11542  verifier */\n      dup3\n        /* \"contracts/npc_credits/npc_credits.sol\":11518:11522  cert */\n      dup2\n        /* \"contracts/npc_credits/npc_credits.sol\":11518:11531  cert.verifier */\n      0x03\n      add\n        /* \"contracts/npc_credits/npc_credits.sol\":11518:11542  cert.verifier = verifier */\n      swap1\n      dup2\n      tag_384\n      swap2\n      swap1\n      tag_197\n      jump\t// in\n    tag_384:\n      pop\n        /* \"contracts/npc_credits/npc_credits.sol\":11571:11581  creditType */\n      dup2\n        /* \"contracts/npc_credits/npc_credits.sol\":11553:11557  cert */\n      dup2\n        /* \"contracts/npc_credits/npc_credits.sol\":11553:11568  cert.creditType */\n      0x04\n      add\n        /* \"contracts/npc_credits/npc_credits.sol\":11553:11581  cert.creditType = creditType */\n      swap1\n      dup2\n      tag_385\n      swap2\n      swap1\n      tag_197\n      jump\t// in\n    tag_385:\n      pop\n        /* \"contracts/npc_credits/npc_credits.sol\":11608:11614  amount */\n      dup8\n        /* \"contracts/npc_credits/npc_credits.sol\":11592:11596  cert */\n      dup2\n        /* \"contracts/npc_credits/npc_credits.sol\":11592:11604  cert.balance */\n      0x05\n      add\n      0x00\n        /* \"contracts/npc_credits/npc_credits.sol\":11592:11614  cert.balance += amount */\n      dup3\n      dup3\n      sload\n      tag_386\n      swap2\n      swap1\n      tag_181\n      jump\t// in\n    tag_386:\n      swap3\n      pop\n      pop\n      dup2\n      swap1\n      sstore\n      pop\n        /* \"contracts/npc_credits/npc_credits.sol\":11638:11643  price */\n      dup7\n        /* \"contracts/npc_credits/npc_credits.sol\":11625:11629  cert */\n      dup2\n        /* \"contracts/npc_credits/npc_credits.sol\":11625:11635  cert.price */\n      0x06\n      add\n        /* \"contracts/npc_credits/npc_credits.sol\":11625:11643  cert.price = price */\n      dup2\n      swap1\n      sstore\n      pop\n        /* \"contracts/npc_credits/npc_credits.sol\":11671:11686  block.timestamp */\n      timestamp\n        /* \"contracts/npc_credits/npc_credits.sol\":11654:11658  cert */\n      dup2\n        /* \"contracts/npc_credits/npc_credits.sol\":11654:11668  cert.timestamp */\n      0x07\n      add\n        /* \"contracts/npc_credits/npc_credits.sol\":11654:11686  cert.timestamp = block.timestamp */\n      dup2\n      swap1\n      sstore\n      pop\n        /* \"contracts/npc_credits/npc_credits.sol\":11697:11716  accountCertificates */\n      0x0b\n        /* \"contracts/npc_credits/npc_credits.sol\":11717:11726  accountID */\n      dup6\n        /* \"contracts/npc_credits/npc_credits.sol\":11697:11727  accountCertificates[accountID] */\n      mload(0x40)\n      tag_387\n      swap2\n      swap1\n      tag_150\n      jump\t// in\n    tag_387:\n      swap1\n      dup2\n      mstore\n      0x20\n      add\n      mload(0x40)\n      dup1\n      swap2\n      sub\n      swap1\n      keccak256\n        /* \"contracts/npc_credits/npc_credits.sol\":11733:11737  cert */\n      dup2\n        /* \"contracts/npc_credits/npc_credits.sol\":11733:11740  cert.id */\n      0x00\n      add\n      sload\n        /* \"contracts/npc_credits/npc_credits.sol\":11697:11741  accountCertificates[accountID].push(cert.id) */\n      swap1\n      dup1\n      0x01\n      dup2\n      sload\n      add\n      dup1\n      dup3\n      sstore\n      dup1\n      swap2\n      pop\n      pop\n      0x01\n      swap1\n      sub\n      swap1\n      0x00\n      mstore\n      keccak256(0x00, 0x20)\n      add\n      0x00\n      swap1\n      swap2\n      swap1\n      swap2\n      swap1\n      swap2\n      pop\n      sstore\n        /* \"contracts/npc_credits/npc_credits.sol\":11757:11934  CertificateCreated(... */\n      0xd74e30340db693955384afdcf8b3879b8e97d050e96ad43bddae4356682f7f3b\n        /* \"contracts/npc_credits/npc_credits.sol\":11790:11807  totalCertificates */\n      sload(0x04)\n        /* \"contracts/npc_credits/npc_credits.sol\":11822:11831  accountID */\n      dup7\n        /* \"contracts/npc_credits/npc_credits.sol\":11846:11854  producer */\n      dup7\n        /* \"contracts/npc_credits/npc_credits.sol\":11869:11877  verifier */\n      dup7\n        /* \"contracts/npc_credits/npc_credits.sol\":11892:11902  creditType */\n      dup7\n        /* \"contracts/npc_credits/npc_credits.sol\":11917:11923  amount */\n      dup14\n        /* \"contracts/npc_credits/npc_credits.sol\":11757:11934  CertificateCreated(... */\n      mload(0x40)\n      tag_389\n      swap7\n      swap6\n      swap5\n      swap4\n      swap3\n      swap2\n      swap1\n      tag_390\n      jump\t// in\n    tag_389:\n      mload(0x40)\n      dup1\n      swap2\n      sub\n      swap1\n      log1\n        /* \"contracts/npc_credits/npc_credits.sol\":11952:11956  true */\n      0x01\n        /* \"contracts/npc_credits/npc_credits.sol\":11945:11956  return true */\n      swap6\n      pop\n      pop\n      pop\n      pop\n      pop\n      pop\n        /* \"contracts/npc_credits/npc_credits.sol\":10813:11964  function _mintCertificate(... */\n      swap7\n      swap6\n      pop\n      pop\n      pop\n      pop\n      pop\n      pop\n      jump\t// out\n    tag_123:\n      mload(0x40)\n      dup1\n      0x0100\n      add\n      0x40\n      mstore\n      dup1\n      0x00\n      dup2\n      mstore\n      0x20\n      add\n      0x60\n      dup2\n      mstore\n      0x20\n      add\n      0x60\n      dup2\n      mstore\n      0x20\n      add\n      0x60\n      dup2\n      mstore\n      0x20\n      add\n      0x60\n      dup2\n      mstore\n      0x20\n      add\n      0x00\n      dup2\n      mstore\n      0x20\n      add\n      0x00\n      dup2\n      mstore\n      0x20\n      add\n      0x00\n      dup2\n      mstore\n      pop\n      swap1\n      jump\t// out\n    tag_347:\n      mload(0x40)\n      dup1\n      0x60\n      add\n      0x40\n      mstore\n      dup1\n      0x00\n      dup2\n      mstore\n      0x20\n      add\n      0x00\n      dup2\n      mstore\n      0x20\n      add\n      0x00\n      dup2\n      mstore\n      pop\n      swap1\n      jump\t// out\n        /* \"#utility.yul\":7:83   */\n    tag_391:\n        /* \"#utility.yul\":43:50   */\n      0x00\n        /* \"#utility.yul\":72:77   */\n      dup2\n        /* \"#utility.yul\":61:77   */\n      swap1\n      pop\n        /* \"#utility.yul\":7:83   */\n      swap2\n      swap1\n      pop\n      jump\t// out\n        /* \"#utility.yul\":89:204   */\n    tag_392:\n        /* \"#utility.yul\":174:197   */\n      tag_471\n        /* \"#utility.yul\":191:196   */\n      dup2\n        /* \"#utility.yul\":174:197   */\n      tag_391\n      jump\t// in\n    tag_471:\n        /* \"#utility.yul\":169:172   */\n      dup3\n        /* \"#utility.yul\":162:198   */\n      mstore\n        /* \"#utility.yul\":89:204   */\n      pop\n      pop\n      jump\t// out\n        /* \"#utility.yul\":210:428   */\n    tag_30:\n        /* \"#utility.yul\":301:305   */\n      0x00\n        /* \"#utility.yul\":339:341   */\n      0x20\n        /* \"#utility.yul\":328:337   */\n      dup3\n        /* \"#utility.yul\":324:342   */\n      add\n        /* \"#utility.yul\":316:342   */\n      swap1\n      pop\n        /* \"#utility.yul\":352:421   */\n      tag_473\n        /* \"#utility.yul\":418:419   */\n      0x00\n        /* \"#utility.yul\":407:416   */\n      dup4\n        /* \"#utility.yul\":403:420   */\n      add\n        /* \"#utility.yul\":394:400   */\n      dup5\n        /* \"#utility.yul\":352:421   */\n      tag_392\n      jump\t// in\n    tag_473:\n        /* \"#utility.yul\":210:428   */\n      swap3\n      swap2\n      pop\n      pop\n      jump\t// out\n        /* \"#utility.yul\":434:509   */\n    tag_393:\n        /* \"#utility.yul\":467:473   */\n      0x00\n        /* \"#utility.yul\":500:502   */\n      0x40\n        /* \"#utility.yul\":494:503   */\n      mload\n        /* \"#utility.yul\":484:503   */\n      swap1\n      pop\n        /* \"#utility.yul\":434:509   */\n      swap1\n      jump\t// out\n        /* \"#utility.yul\":515:632   */\n    tag_394:\n        /* \"#utility.yul\":624:625   */\n      0x00\n        /* \"#utility.yul\":621:622   */\n      dup1\n        /* \"#utility.yul\":614:626   */\n      revert\n        /* \"#utility.yul\":638:755   */\n    tag_395:\n        /* \"#utility.yul\":747:748   */\n      0x00\n        /* \"#utility.yul\":744:745   */\n      dup1\n        /* \"#utility.yul\":737:749   */\n      revert\n        /* \"#utility.yul\":761:881   */\n    tag_396:\n        /* \"#utility.yul\":833:856   */\n      tag_478\n        /* \"#utility.yul\":850:855   */\n      dup2\n        /* \"#utility.yul\":833:856   */\n      tag_391\n      jump\t// in\n    tag_478:\n        /* \"#utility.yul\":826:831   */\n      dup2\n        /* \"#utility.yul\":823:857   */\n      eq\n        /* \"#utility.yul\":813:875   */\n      tag_479\n      jumpi\n        /* \"#utility.yul\":871:872   */\n      0x00\n        /* \"#utility.yul\":868:869   */\n      dup1\n        /* \"#utility.yul\":861:873   */\n      revert\n        /* \"#utility.yul\":813:875   */\n    tag_479:\n        /* \"#utility.yul\":761:881   */\n      pop\n      jump\t// out\n        /* \"#utility.yul\":887:1024   */\n    tag_397:\n        /* \"#utility.yul\":932:937   */\n      0x00\n        /* \"#utility.yul\":970:976   */\n      dup2\n        /* \"#utility.yul\":957:977   */\n      calldataload\n        /* \"#utility.yul\":948:977   */\n      swap1\n      pop\n        /* \"#utility.yul\":986:1018   */\n      tag_481\n        /* \"#utility.yul\":1012:1017   */\n      dup2\n        /* \"#utility.yul\":986:1018   */\n      tag_396\n      jump\t// in\n    tag_481:\n        /* \"#utility.yul\":887:1024   */\n      swap3\n      swap2\n      pop\n      pop\n      jump\t// out\n        /* \"#utility.yul\":1030:1357   */\n    tag_33:\n        /* \"#utility.yul\":1088:1094   */\n      0x00\n        /* \"#utility.yul\":1137:1139   */\n      0x20\n        /* \"#utility.yul\":1125:1134   */\n      dup3\n        /* \"#utility.yul\":1116:1123   */\n      dup5\n        /* \"#utility.yul\":1112:1135   */\n      sub\n        /* \"#utility.yul\":1108:1140   */\n      slt\n        /* \"#utility.yul\":1105:1224   */\n      iszero\n      tag_483\n      jumpi\n        /* \"#utility.yul\":1143:1222   */\n      tag_484\n      tag_394\n      jump\t// in\n    tag_484:\n        /* \"#utility.yul\":1105:1224   */\n    tag_483:\n        /* \"#utility.yul\":1263:1264   */\n      0x00\n        /* \"#utility.yul\":1288:1340   */\n      tag_485\n        /* \"#utility.yul\":1332:1339   */\n      dup5\n        /* \"#utility.yul\":1323:1329   */\n      dup3\n        /* \"#utility.yul\":1312:1321   */\n      dup6\n        /* \"#utility.yul\":1308:1330   */\n      add\n        /* \"#utility.yul\":1288:1340   */\n      tag_397\n      jump\t// in\n    tag_485:\n        /* \"#utility.yul\":1278:1340   */\n      swap2\n      pop\n        /* \"#utility.yul\":1234:1350   */\n      pop\n        /* \"#utility.yul\":1030:1357   */\n      swap3\n      swap2\n      pop\n      pop\n      jump\t// out\n        /* \"#utility.yul\":1363:1468   */\n    tag_398:\n        /* \"#utility.yul\":1438:1461   */\n      tag_487\n        /* \"#utility.yul\":1455:1460   */\n      dup2\n        /* \"#utility.yul\":1438:1461   */\n      tag_391\n      jump\t// in\n    tag_487:\n        /* \"#utility.yul\":1433:1436   */\n      dup3\n        /* \"#utility.yul\":1426:1462   */\n      mstore\n        /* \"#utility.yul\":1363:1468   */\n      pop\n      pop\n      jump\t// out\n        /* \"#utility.yul\":1474:1573   */\n    tag_399:\n        /* \"#utility.yul\":1526:1532   */\n      0x00\n        /* \"#utility.yul\":1560:1565   */\n      dup2\n        /* \"#utility.yul\":1554:1566   */\n      mload\n        /* \"#utility.yul\":1544:1566   */\n      swap1\n      pop\n        /* \"#utility.yul\":1474:1573   */\n      swap2\n      swap1\n      pop\n      jump\t// out\n        /* \"#utility.yul\":1579:1738   */\n    tag_400:\n        /* \"#utility.yul\":1653:1664   */\n      0x00\n        /* \"#utility.yul\":1687:1693   */\n      dup3\n        /* \"#utility.yul\":1682:1685   */\n      dup3\n        /* \"#utility.yul\":1675:1694   */\n      mstore\n        /* \"#utility.yul\":1727:1731   */\n      0x20\n        /* \"#utility.yul\":1722:1725   */\n      dup3\n        /* \"#utility.yul\":1718:1732   */\n      add\n        /* \"#utility.yul\":1703:1732   */\n      swap1\n      pop\n        /* \"#utility.yul\":1579:1738   */\n      swap3\n      swap2\n      pop\n      pop\n      jump\t// out\n        /* \"#utility.yul\":1744:1883   */\n    tag_401:\n        /* \"#utility.yul\":1833:1839   */\n      dup3\n        /* \"#utility.yul\":1828:1831   */\n      dup2\n        /* \"#utility.yul\":1823:1826   */\n      dup4\n        /* \"#utility.yul\":1817:1840   */\n      mcopy\n        /* \"#utility.yul\":1874:1875   */\n      0x00\n        /* \"#utility.yul\":1865:1871   */\n      dup4\n        /* \"#utility.yul\":1860:1863   */\n      dup4\n        /* \"#utility.yul\":1856:1872   */\n      add\n        /* \"#utility.yul\":1849:1876   */\n      mstore\n        /* \"#utility.yul\":1744:1883   */\n      pop\n      pop\n      pop\n      jump\t// out\n        /* \"#utility.yul\":1889:1991   */\n    tag_402:\n        /* \"#utility.yul\":1930:1936   */\n      0x00\n        /* \"#utility.yul\":1981:1983   */\n      0x1f\n        /* \"#utility.yul\":1977:1984   */\n      not\n        /* \"#utility.yul\":1972:1974   */\n      0x1f\n        /* \"#utility.yul\":1965:1970   */\n      dup4\n        /* \"#utility.yul\":1961:1975   */\n      add\n        /* \"#utility.yul\":1957:1985   */\n      and\n        /* \"#utility.yul\":1947:1985   */\n      swap1\n      pop\n        /* \"#utility.yul\":1889:1991   */\n      swap2\n      swap1\n      pop\n      jump\t// out\n        /* \"#utility.yul\":1997:2354   */\n    tag_403:\n        /* \"#utility.yul\":2075:2078   */\n      0x00\n        /* \"#utility.yul\":2103:2142   */\n      tag_493\n        /* \"#utility.yul\":2136:2141   */\n      dup3\n        /* \"#utility.yul\":2103:2142   */\n      tag_399\n      jump\t// in\n    tag_493:\n        /* \"#utility.yul\":2158:2219   */\n      tag_494\n        /* \"#utility.yul\":2212:2218   */\n      dup2\n        /* \"#utility.yul\":2207:2210   */\n      dup6\n        /* \"#utility.yul\":2158:2219   */\n      tag_400\n      jump\t// in\n    tag_494:\n        /* \"#utility.yul\":2151:2219   */\n      swap4\n      pop\n        /* \"#utility.yul\":2228:2293   */\n      tag_495\n        /* \"#utility.yul\":2286:2292   */\n      dup2\n        /* \"#utility.yul\":2281:2284   */\n      dup6\n        /* \"#utility.yul\":2274:2278   */\n      0x20\n        /* \"#utility.yul\":2267:2272   */\n      dup7\n        /* \"#utility.yul\":2263:2279   */\n      add\n        /* \"#utility.yul\":2228:2293   */\n      tag_401\n      jump\t// in\n    tag_495:\n        /* \"#utility.yul\":2318:2347   */\n      tag_496\n        /* \"#utility.yul\":2340:2346   */\n      dup2\n        /* \"#utility.yul\":2318:2347   */\n      tag_402\n      jump\t// in\n    tag_496:\n        /* \"#utility.yul\":2313:2316   */\n      dup5\n        /* \"#utility.yul\":2309:2348   */\n      add\n        /* \"#utility.yul\":2302:2348   */\n      swap2\n      pop\n        /* \"#utility.yul\":2079:2354   */\n      pop\n        /* \"#utility.yul\":1997:2354   */\n      swap3\n      swap2\n      pop\n      pop\n      jump\t// out\n        /* \"#utility.yul\":2360:2437   */\n    tag_404:\n        /* \"#utility.yul\":2397:2404   */\n      0x00\n        /* \"#utility.yul\":2426:2431   */\n      dup2\n        /* \"#utility.yul\":2415:2431   */\n      swap1\n      pop\n        /* \"#utility.yul\":2360:2437   */\n      swap2\n      swap1\n      pop\n      jump\t// out\n        /* \"#utility.yul\":2443:2551   */\n    tag_405:\n        /* \"#utility.yul\":2520:2544   */\n      tag_499\n        /* \"#utility.yul\":2538:2543   */\n      dup2\n        /* \"#utility.yul\":2520:2544   */\n      tag_404\n      jump\t// in\n    tag_499:\n        /* \"#utility.yul\":2515:2518   */\n      dup3\n        /* \"#utility.yul\":2508:2545   */\n      mstore\n        /* \"#utility.yul\":2443:2551   */\n      pop\n      pop\n      jump\t// out\n        /* \"#utility.yul\":2635:4520   */\n    tag_406:\n        /* \"#utility.yul\":2758:2761   */\n      0x00\n        /* \"#utility.yul\":2794:2800   */\n      0x0100\n        /* \"#utility.yul\":2789:2792   */\n      dup4\n        /* \"#utility.yul\":2785:2801   */\n      add\n        /* \"#utility.yul\":2881:2885   */\n      0x00\n        /* \"#utility.yul\":2874:2879   */\n      dup4\n        /* \"#utility.yul\":2870:2886   */\n      add\n        /* \"#utility.yul\":2864:2887   */\n      mload\n        /* \"#utility.yul\":2900:2961   */\n      tag_501\n        /* \"#utility.yul\":2955:2959   */\n      0x00\n        /* \"#utility.yul\":2950:2953   */\n      dup7\n        /* \"#utility.yul\":2946:2960   */\n      add\n        /* \"#utility.yul\":2932:2944   */\n      dup3\n        /* \"#utility.yul\":2900:2961   */\n      tag_398\n      jump\t// in\n    tag_501:\n        /* \"#utility.yul\":2811:2971   */\n      pop\n        /* \"#utility.yul\":3054:3058   */\n      0x20\n        /* \"#utility.yul\":3047:3052   */\n      dup4\n        /* \"#utility.yul\":3043:3059   */\n      add\n        /* \"#utility.yul\":3037:3060   */\n      mload\n        /* \"#utility.yul\":3107:3110   */\n      dup5\n        /* \"#utility.yul\":3101:3105   */\n      dup3\n        /* \"#utility.yul\":3097:3111   */\n      sub\n        /* \"#utility.yul\":3090:3094   */\n      0x20\n        /* \"#utility.yul\":3085:3088   */\n      dup7\n        /* \"#utility.yul\":3081:3095   */\n      add\n        /* \"#utility.yul\":3074:3112   */\n      mstore\n        /* \"#utility.yul\":3133:3206   */\n      tag_502\n        /* \"#utility.yul\":3201:3205   */\n      dup3\n        /* \"#utility.yul\":3187:3199   */\n      dup3\n        /* \"#utility.yul\":3133:3206   */\n      tag_403\n      jump\t// in\n    tag_502:\n        /* \"#utility.yul\":3125:3206   */\n      swap2\n      pop\n        /* \"#utility.yul\":2981:3217   */\n      pop\n        /* \"#utility.yul\":3303:3307   */\n      0x40\n        /* \"#utility.yul\":3296:3301   */\n      dup4\n        /* \"#utility.yul\":3292:3308   */\n      add\n        /* \"#utility.yul\":3286:3309   */\n      mload\n        /* \"#utility.yul\":3356:3359   */\n      dup5\n        /* \"#utility.yul\":3350:3354   */\n      dup3\n        /* \"#utility.yul\":3346:3360   */\n      sub\n        /* \"#utility.yul\":3339:3343   */\n      0x40\n        /* \"#utility.yul\":3334:3337   */\n      dup7\n        /* \"#utility.yul\":3330:3344   */\n      add\n        /* \"#utility.yul\":3323:3361   */\n      mstore\n        /* \"#utility.yul\":3382:3455   */\n      tag_503\n        /* \"#utility.yul\":3450:3454   */\n      dup3\n        /* \"#utility.yul\":3436:3448   */\n      dup3\n        /* \"#utility.yul\":3382:3455   */\n      tag_403\n      jump\t// in\n    tag_503:\n        /* \"#utility.yul\":3374:3455   */\n      swap2\n      pop\n        /* \"#utility.yul\":3227:3466   */\n      pop\n        /* \"#utility.yul\":3552:3556   */\n      0x60\n        /* \"#utility.yul\":3545:3550   */\n      dup4\n        /* \"#utility.yul\":3541:3557   */\n      add\n        /* \"#utility.yul\":3535:3558   */\n      mload\n        /* \"#utility.yul\":3605:3608   */\n      dup5\n        /* \"#utility.yul\":3599:3603   */\n      dup3\n        /* \"#utility.yul\":3595:3609   */\n      sub\n        /* \"#utility.yul\":3588:3592   */\n      0x60\n        /* \"#utility.yul\":3583:3586   */\n      dup7\n        /* \"#utility.yul\":3579:3593   */\n      add\n        /* \"#utility.yul\":3572:3610   */\n      mstore\n        /* \"#utility.yul\":3631:3704   */\n      tag_504\n        /* \"#utility.yul\":3699:3703   */\n      dup3\n        /* \"#utility.yul\":3685:3697   */\n      dup3\n        /* \"#utility.yul\":3631:3704   */\n      tag_403\n      jump\t// in\n    tag_504:\n        /* \"#utility.yul\":3623:3704   */\n      swap2\n      pop\n        /* \"#utility.yul\":3476:3715   */\n      pop\n        /* \"#utility.yul\":3803:3807   */\n      0x80\n        /* \"#utility.yul\":3796:3801   */\n      dup4\n        /* \"#utility.yul\":3792:3808   */\n      add\n        /* \"#utility.yul\":3786:3809   */\n      mload\n        /* \"#utility.yul\":3856:3859   */\n      dup5\n        /* \"#utility.yul\":3850:3854   */\n      dup3\n        /* \"#utility.yul\":3846:3860   */\n      sub\n        /* \"#utility.yul\":3839:3843   */\n      0x80\n        /* \"#utility.yul\":3834:3837   */\n      dup7\n        /* \"#utility.yul\":3830:3844   */\n      add\n        /* \"#utility.yul\":3823:3861   */\n      mstore\n        /* \"#utility.yul\":3882:3955   */\n      tag_505\n        /* \"#utility.yul\":3950:3954   */\n      dup3\n        /* \"#utility.yul\":3936:3948   */\n      dup3\n        /* \"#utility.yul\":3882:3955   */\n      tag_403\n      jump\t// in\n    tag_505:\n        /* \"#utility.yul\":3874:3955   */\n      swap2\n      pop\n        /* \"#utility.yul\":3725:3966   */\n      pop\n        /* \"#utility.yul\":4051:4055   */\n      0xa0\n        /* \"#utility.yul\":4044:4049   */\n      dup4\n        /* \"#utility.yul\":4040:4056   */\n      add\n        /* \"#utility.yul\":4034:4057   */\n      mload\n        /* \"#utility.yul\":4070:4131   */\n      tag_506\n        /* \"#utility.yul\":4125:4129   */\n      0xa0\n        /* \"#utility.yul\":4120:4123   */\n      dup7\n        /* \"#utility.yul\":4116:4130   */\n      add\n        /* \"#utility.yul\":4102:4114   */\n      dup3\n        /* \"#utility.yul\":4070:4131   */\n      tag_398\n      jump\t// in\n    tag_506:\n        /* \"#utility.yul\":3976:4141   */\n      pop\n        /* \"#utility.yul\":4224:4228   */\n      0xc0\n        /* \"#utility.yul\":4217:4222   */\n      dup4\n        /* \"#utility.yul\":4213:4229   */\n      add\n        /* \"#utility.yul\":4207:4230   */\n      mload\n        /* \"#utility.yul\":4243:4304   */\n      tag_507\n        /* \"#utility.yul\":4298:4302   */\n      0xc0\n        /* \"#utility.yul\":4293:4296   */\n      dup7\n        /* \"#utility.yul\":4289:4303   */\n      add\n        /* \"#utility.yul\":4275:4287   */\n      dup3\n        /* \"#utility.yul\":4243:4304   */\n      tag_398\n      jump\t// in\n    tag_507:\n        /* \"#utility.yul\":4151:4314   */\n      pop\n        /* \"#utility.yul\":4401:4405   */\n      0xe0\n        /* \"#utility.yul\":4394:4399   */\n      dup4\n        /* \"#utility.yul\":4390:4406   */\n      add\n        /* \"#utility.yul\":4384:4407   */\n      mload\n        /* \"#utility.yul\":4420:4483   */\n      tag_508\n        /* \"#utility.yul\":4477:4481   */\n      0xe0\n        /* \"#utility.yul\":4472:4475   */\n      dup7\n        /* \"#utility.yul\":4468:4482   */\n      add\n        /* \"#utility.yul\":4454:4466   */\n      dup3\n        /* \"#utility.yul\":4420:4483   */\n      tag_405\n      jump\t// in\n    tag_508:\n        /* \"#utility.yul\":4324:4493   */\n      pop\n        /* \"#utility.yul\":4510:4514   */\n      dup1\n        /* \"#utility.yul\":4503:4514   */\n      swap2\n      pop\n        /* \"#utility.yul\":2763:4520   */\n      pop\n        /* \"#utility.yul\":2635:4520   */\n      swap3\n      swap2\n      pop\n      pop\n      jump\t// out\n        /* \"#utility.yul\":4526:4907   */\n    tag_36:\n        /* \"#utility.yul\":4673:4677   */\n      0x00\n        /* \"#utility.yul\":4711:4713   */\n      0x20\n        /* \"#utility.yul\":4700:4709   */\n      dup3\n        /* \"#utility.yul\":4696:4714   */\n      add\n        /* \"#utility.yul\":4688:4714   */\n      swap1\n      pop\n        /* \"#utility.yul\":4760:4769   */\n      dup2\n        /* \"#utility.yul\":4754:4758   */\n      dup2\n        /* \"#utility.yul\":4750:4770   */\n      sub\n        /* \"#utility.yul\":4746:4747   */\n      0x00\n        /* \"#utility.yul\":4735:4744   */\n      dup4\n        /* \"#utility.yul\":4731:4748   */\n      add\n        /* \"#utility.yul\":4724:4771   */\n      mstore\n        /* \"#utility.yul\":4788:4900   */\n      tag_510\n        /* \"#utility.yul\":4895:4899   */\n      dup2\n        /* \"#utility.yul\":4886:4892   */\n      dup5\n        /* \"#utility.yul\":4788:4900   */\n      tag_406\n      jump\t// in\n    tag_510:\n        /* \"#utility.yul\":4780:4900   */\n      swap1\n      pop\n        /* \"#utility.yul\":4526:4907   */\n      swap3\n      swap2\n      pop\n      pop\n      jump\t// out\n        /* \"#utility.yul\":4913:5030   */\n    tag_407:\n        /* \"#utility.yul\":5022:5023   */\n      0x00\n        /* \"#utility.yul\":5019:5020   */\n      dup1\n        /* \"#utility.yul\":5012:5024   */\n      revert\n        /* \"#utility.yul\":5036:5153   */\n    tag_408:\n        /* \"#utility.yul\":5145:5146   */\n      0x00\n        /* \"#utility.yul\":5142:5143   */\n      dup1\n        /* \"#utility.yul\":5135:5147   */\n      revert\n        /* \"#utility.yul\":5159:5339   */\n    tag_409:\n        /* \"#utility.yul\":5207:5284   */\n      0x4e487b7100000000000000000000000000000000000000000000000000000000\n        /* \"#utility.yul\":5204:5205   */\n      0x00\n        /* \"#utility.yul\":5197:5285   */\n      mstore\n        /* \"#utility.yul\":5304:5308   */\n      0x41\n        /* \"#utility.yul\":5301:5302   */\n      0x04\n        /* \"#utility.yul\":5294:5309   */\n      mstore\n        /* \"#utility.yul\":5328:5332   */\n      0x24\n        /* \"#utility.yul\":5325:5326   */\n      0x00\n        /* \"#utility.yul\":5318:5333   */\n      revert\n        /* \"#utility.yul\":5345:5626   */\n    tag_410:\n        /* \"#utility.yul\":5428:5455   */\n      tag_515\n        /* \"#utility.yul\":5450:5454   */\n      dup3\n        /* \"#utility.yul\":5428:5455   */\n      tag_402\n      jump\t// in\n    tag_515:\n        /* \"#utility.yul\":5420:5426   */\n      dup2\n        /* \"#utility.yul\":5416:5456   */\n      add\n        /* \"#utility.yul\":5558:5564   */\n      dup2\n        /* \"#utility.yul\":5546:5556   */\n      dup2\n        /* \"#utility.yul\":5543:5565   */\n      lt\n        /* \"#utility.yul\":5522:5540   */\n      0xffffffffffffffff\n        /* \"#utility.yul\":5510:5520   */\n      dup3\n        /* \"#utility.yul\":5507:5541   */\n      gt\n        /* \"#utility.yul\":5504:5566   */\n      or\n        /* \"#utility.yul\":5501:5589   */\n      iszero\n      tag_516\n      jumpi\n        /* \"#utility.yul\":5569:5587   */\n      tag_517\n      tag_409\n      jump\t// in\n    tag_517:\n        /* \"#utility.yul\":5501:5589   */\n    tag_516:\n        /* \"#utility.yul\":5609:5619   */\n      dup1\n        /* \"#utility.yul\":5605:5607   */\n      0x40\n        /* \"#utility.yul\":5598:5620   */\n      mstore\n        /* \"#utility.yul\":5388:5626   */\n      pop\n        /* \"#utility.yul\":5345:5626   */\n      pop\n      pop\n      jump\t// out\n        /* \"#utility.yul\":5632:5761   */\n    tag_411:\n        /* \"#utility.yul\":5666:5672   */\n      0x00\n        /* \"#utility.yul\":5693:5713   */\n      tag_519\n      tag_393\n      jump\t// in\n    tag_519:\n        /* \"#utility.yul\":5683:5713   */\n      swap1\n      pop\n        /* \"#utility.yul\":5722:5755   */\n      tag_520\n        /* \"#utility.yul\":5750:5754   */\n      dup3\n        /* \"#utility.yul\":5742:5748   */\n      dup3\n        /* \"#utility.yul\":5722:5755   */\n      tag_410\n      jump\t// in\n    tag_520:\n        /* \"#utility.yul\":5632:5761   */\n      swap2\n      swap1\n      pop\n      jump\t// out\n        /* \"#utility.yul\":5767:6075   */\n    tag_412:\n        /* \"#utility.yul\":5829:5833   */\n      0x00\n        /* \"#utility.yul\":5919:5937   */\n      0xffffffffffffffff\n        /* \"#utility.yul\":5911:5917   */\n      dup3\n        /* \"#utility.yul\":5908:5938   */\n      gt\n        /* \"#utility.yul\":5905:5961   */\n      iszero\n      tag_522\n      jumpi\n        /* \"#utility.yul\":5941:5959   */\n      tag_523\n      tag_409\n      jump\t// in\n    tag_523:\n        /* \"#utility.yul\":5905:5961   */\n    tag_522:\n        /* \"#utility.yul\":5979:6008   */\n      tag_524\n        /* \"#utility.yul\":6001:6007   */\n      dup3\n        /* \"#utility.yul\":5979:6008   */\n      tag_402\n      jump\t// in\n    tag_524:\n        /* \"#utility.yul\":5971:6008   */\n      swap1\n      pop\n        /* \"#utility.yul\":6063:6067   */\n      0x20\n        /* \"#utility.yul\":6057:6061   */\n      dup2\n        /* \"#utility.yul\":6053:6068   */\n      add\n        /* \"#utility.yul\":6045:6068   */\n      swap1\n      pop\n        /* \"#utility.yul\":5767:6075   */\n      swap2\n      swap1\n      pop\n      jump\t// out\n        /* \"#utility.yul\":6081:6229   */\n    tag_413:\n        /* \"#utility.yul\":6179:6185   */\n      dup3\n        /* \"#utility.yul\":6174:6177   */\n      dup2\n        /* \"#utility.yul\":6169:6172   */\n      dup4\n        /* \"#utility.yul\":6156:6186   */\n      calldatacopy\n        /* \"#utility.yul\":6220:6221   */\n      0x00\n        /* \"#utility.yul\":6211:6217   */\n      dup4\n        /* \"#utility.yul\":6206:6209   */\n      dup4\n        /* \"#utility.yul\":6202:6218   */\n      add\n        /* \"#utility.yul\":6195:6222   */\n      mstore\n        /* \"#utility.yul\":6081:6229   */\n      pop\n      pop\n      pop\n      jump\t// out\n        /* \"#utility.yul\":6235:6660   */\n    tag_414:\n        /* \"#utility.yul\":6313:6318   */\n      0x00\n        /* \"#utility.yul\":6338:6404   */\n      tag_527\n        /* \"#utility.yul\":6354:6403   */\n      tag_528\n        /* \"#utility.yul\":6396:6402   */\n      dup5\n        /* \"#utility.yul\":6354:6403   */\n      tag_412\n      jump\t// in\n    tag_528:\n        /* \"#utility.yul\":6338:6404   */\n      tag_411\n      jump\t// in\n    tag_527:\n        /* \"#utility.yul\":6329:6404   */\n      swap1\n      pop\n        /* \"#utility.yul\":6427:6433   */\n      dup3\n        /* \"#utility.yul\":6420:6425   */\n      dup2\n        /* \"#utility.yul\":6413:6434   */\n      mstore\n        /* \"#utility.yul\":6465:6469   */\n      0x20\n        /* \"#utility.yul\":6458:6463   */\n      dup2\n        /* \"#utility.yul\":6454:6470   */\n      add\n        /* \"#utility.yul\":6503:6506   */\n      dup5\n        /* \"#utility.yul\":6494:6500   */\n      dup5\n        /* \"#utility.yul\":6489:6492   */\n      dup5\n        /* \"#utility.yul\":6485:6501   */\n      add\n        /* \"#utility.yul\":6482:6507   */\n      gt\n        /* \"#utility.yul\":6479:6591   */\n      iszero\n      tag_529\n      jumpi\n        /* \"#utility.yul\":6510:6589   */\n      tag_530\n      tag_408\n      jump\t// in\n    tag_530:\n        /* \"#utility.yul\":6479:6591   */\n    tag_529:\n        /* \"#utility.yul\":6600:6654   */\n      tag_531\n        /* \"#utility.yul\":6647:6653   */\n      dup5\n        /* \"#utility.yul\":6642:6645   */\n      dup3\n        /* \"#utility.yul\":6637:6640   */\n      dup6\n        /* \"#utility.yul\":6600:6654   */\n      tag_413\n      jump\t// in\n    tag_531:\n        /* \"#utility.yul\":6319:6660   */\n      pop\n        /* \"#utility.yul\":6235:6660   */\n      swap4\n      swap3\n      pop\n      pop\n      pop\n      jump\t// out\n        /* \"#utility.yul\":6680:7020   */\n    tag_415:\n        /* \"#utility.yul\":6736:6741   */\n      0x00\n        /* \"#utility.yul\":6785:6788   */\n      dup3\n        /* \"#utility.yul\":6778:6782   */\n      0x1f\n        /* \"#utility.yul\":6770:6776   */\n      dup4\n        /* \"#utility.yul\":6766:6783   */\n      add\n        /* \"#utility.yul\":6762:6789   */\n      slt\n        /* \"#utility.yul\":6752:6874   */\n      tag_533\n      jumpi\n        /* \"#utility.yul\":6793:6872   */\n      tag_534\n      tag_407\n      jump\t// in\n    tag_534:\n        /* \"#utility.yul\":6752:6874   */\n    tag_533:\n        /* \"#utility.yul\":6910:6916   */\n      dup2\n        /* \"#utility.yul\":6897:6917   */\n      calldataload\n        /* \"#utility.yul\":6935:7014   */\n      tag_535\n        /* \"#utility.yul\":7010:7013   */\n      dup5\n        /* \"#utility.yul\":7002:7008   */\n      dup3\n        /* \"#utility.yul\":6995:6999   */\n      0x20\n        /* \"#utility.yul\":6987:6993   */\n      dup7\n        /* \"#utility.yul\":6983:7000   */\n      add\n        /* \"#utility.yul\":6935:7014   */\n      tag_414\n      jump\t// in\n    tag_535:\n        /* \"#utility.yul\":6926:7014   */\n      swap2\n      pop\n        /* \"#utility.yul\":6742:7020   */\n      pop\n        /* \"#utility.yul\":6680:7020   */\n      swap3\n      swap2\n      pop\n      pop\n      jump\t// out\n        /* \"#utility.yul\":7026:7860   */\n    tag_39:\n        /* \"#utility.yul\":7114:7120   */\n      0x00\n        /* \"#utility.yul\":7122:7128   */\n      dup1\n        /* \"#utility.yul\":7171:7173   */\n      0x40\n        /* \"#utility.yul\":7159:7168   */\n      dup4\n        /* \"#utility.yul\":7150:7157   */\n      dup6\n        /* \"#utility.yul\":7146:7169   */\n      sub\n        /* \"#utility.yul\":7142:7174   */\n      slt\n        /* \"#utility.yul\":7139:7258   */\n      iszero\n      tag_537\n      jumpi\n        /* \"#utility.yul\":7177:7256   */\n      tag_538\n      tag_394\n      jump\t// in\n    tag_538:\n        /* \"#utility.yul\":7139:7258   */\n    tag_537:\n        /* \"#utility.yul\":7325:7326   */\n      0x00\n        /* \"#utility.yul\":7314:7323   */\n      dup4\n        /* \"#utility.yul\":7310:7327   */\n      add\n        /* \"#utility.yul\":7297:7328   */\n      calldataload\n        /* \"#utility.yul\":7355:7373   */\n      0xffffffffffffffff\n        /* \"#utility.yul\":7347:7353   */\n      dup2\n        /* \"#utility.yul\":7344:7374   */\n      gt\n        /* \"#utility.yul\":7341:7458   */\n      iszero\n      tag_539\n      jumpi\n        /* \"#utility.yul\":7377:7456   */\n      tag_540\n      tag_395\n      jump\t// in\n    tag_540:\n        /* \"#utility.yul\":7341:7458   */\n    tag_539:\n        /* \"#utility.yul\":7482:7545   */\n      tag_541\n        /* \"#utility.yul\":7537:7544   */\n      dup6\n        /* \"#utility.yul\":7528:7534   */\n      dup3\n        /* \"#utility.yul\":7517:7526   */\n      dup7\n        /* \"#utility.yul\":7513:7535   */\n      add\n        /* \"#utility.yul\":7482:7545   */\n      tag_415\n      jump\t// in\n    tag_541:\n        /* \"#utility.yul\":7472:7545   */\n      swap3\n      pop\n        /* \"#utility.yul\":7268:7555   */\n      pop\n        /* \"#utility.yul\":7622:7624   */\n      0x20\n        /* \"#utility.yul\":7611:7620   */\n      dup4\n        /* \"#utility.yul\":7607:7625   */\n      add\n        /* \"#utility.yul\":7594:7626   */\n      calldataload\n        /* \"#utility.yul\":7653:7671   */\n      0xffffffffffffffff\n        /* \"#utility.yul\":7645:7651   */\n      dup2\n        /* \"#utility.yul\":7642:7672   */\n      gt\n        /* \"#utility.yul\":7639:7756   */\n      iszero\n      tag_542\n      jumpi\n        /* \"#utility.yul\":7675:7754   */\n      tag_543\n      tag_395\n      jump\t// in\n    tag_543:\n        /* \"#utility.yul\":7639:7756   */\n    tag_542:\n        /* \"#utility.yul\":7780:7843   */\n      tag_544\n        /* \"#utility.yul\":7835:7842   */\n      dup6\n        /* \"#utility.yul\":7826:7832   */\n      dup3\n        /* \"#utility.yul\":7815:7824   */\n      dup7\n        /* \"#utility.yul\":7811:7833   */\n      add\n        /* \"#utility.yul\":7780:7843   */\n      tag_415\n      jump\t// in\n    tag_544:\n        /* \"#utility.yul\":7770:7843   */\n      swap2\n      pop\n        /* \"#utility.yul\":7565:7853   */\n      pop\n        /* \"#utility.yul\":7026:7860   */\n      swap3\n      pop\n      swap3\n      swap1\n      pop\n      jump\t// out\n        /* \"#utility.yul\":7866:7956   */\n    tag_416:\n        /* \"#utility.yul\":7900:7907   */\n      0x00\n        /* \"#utility.yul\":7943:7948   */\n      dup2\n        /* \"#utility.yul\":7936:7949   */\n      iszero\n        /* \"#utility.yul\":7929:7950   */\n      iszero\n        /* \"#utility.yul\":7918:7950   */\n      swap1\n      pop\n        /* \"#utility.yul\":7866:7956   */\n      swap2\n      swap1\n      pop\n      jump\t// out\n        /* \"#utility.yul\":7962:8071   */\n    tag_417:\n        /* \"#utility.yul\":8043:8064   */\n      tag_547\n        /* \"#utility.yul\":8058:8063   */\n      dup2\n        /* \"#utility.yul\":8043:8064   */\n      tag_416\n      jump\t// in\n    tag_547:\n        /* \"#utility.yul\":8038:8041   */\n      dup3\n        /* \"#utility.yul\":8031:8065   */\n      mstore\n        /* \"#utility.yul\":7962:8071   */\n      pop\n      pop\n      jump\t// out\n        /* \"#utility.yul\":8077:8287   */\n    tag_42:\n        /* \"#utility.yul\":8164:8168   */\n      0x00\n        /* \"#utility.yul\":8202:8204   */\n      0x20\n        /* \"#utility.yul\":8191:8200   */\n      dup3\n        /* \"#utility.yul\":8187:8205   */\n      add\n        /* \"#utility.yul\":8179:8205   */\n      swap1\n      pop\n        /* \"#utility.yul\":8215:8280   */\n      tag_549\n        /* \"#utility.yul\":8277:8278   */\n      0x00\n        /* \"#utility.yul\":8266:8275   */\n      dup4\n        /* \"#utility.yul\":8262:8279   */\n      add\n        /* \"#utility.yul\":8253:8259   */\n      dup5\n        /* \"#utility.yul\":8215:8280   */\n      tag_417\n      jump\t// in\n    tag_549:\n        /* \"#utility.yul\":8077:8287   */\n      swap3\n      swap2\n      pop\n      pop\n      jump\t// out\n        /* \"#utility.yul\":8293:9922   */\n    tag_45:\n        /* \"#utility.yul\":8427:8433   */\n      0x00\n        /* \"#utility.yul\":8435:8441   */\n      dup1\n        /* \"#utility.yul\":8443:8449   */\n      0x00\n        /* \"#utility.yul\":8451:8457   */\n      dup1\n        /* \"#utility.yul\":8459:8465   */\n      0x00\n        /* \"#utility.yul\":8508:8511   */\n      0xa0\n        /* \"#utility.yul\":8496:8505   */\n      dup7\n        /* \"#utility.yul\":8487:8494   */\n      dup9\n        /* \"#utility.yul\":8483:8506   */\n      sub\n        /* \"#utility.yul\":8479:8512   */\n      slt\n        /* \"#utility.yul\":8476:8596   */\n      iszero\n      tag_551\n      jumpi\n        /* \"#utility.yul\":8515:8594   */\n      tag_552\n      tag_394\n      jump\t// in\n    tag_552:\n        /* \"#utility.yul\":8476:8596   */\n    tag_551:\n        /* \"#utility.yul\":8663:8664   */\n      0x00\n        /* \"#utility.yul\":8652:8661   */\n      dup7\n        /* \"#utility.yul\":8648:8665   */\n      add\n        /* \"#utility.yul\":8635:8666   */\n      calldataload\n        /* \"#utility.yul\":8693:8711   */\n      0xffffffffffffffff\n        /* \"#utility.yul\":8685:8691   */\n      dup2\n        /* \"#utility.yul\":8682:8712   */\n      gt\n        /* \"#utility.yul\":8679:8796   */\n      iszero\n      tag_553\n      jumpi\n        /* \"#utility.yul\":8715:8794   */\n      tag_554\n      tag_395\n      jump\t// in\n    tag_554:\n        /* \"#utility.yul\":8679:8796   */\n    tag_553:\n        /* \"#utility.yul\":8820:8883   */\n      tag_555\n        /* \"#utility.yul\":8875:8882   */\n      dup9\n        /* \"#utility.yul\":8866:8872   */\n      dup3\n        /* \"#utility.yul\":8855:8864   */\n      dup10\n        /* \"#utility.yul\":8851:8873   */\n      add\n        /* \"#utility.yul\":8820:8883   */\n      tag_415\n      jump\t// in\n    tag_555:\n        /* \"#utility.yul\":8810:8883   */\n      swap6\n      pop\n        /* \"#utility.yul\":8606:8893   */\n      pop\n        /* \"#utility.yul\":8960:8962   */\n      0x20\n        /* \"#utility.yul\":8949:8958   */\n      dup7\n        /* \"#utility.yul\":8945:8963   */\n      add\n        /* \"#utility.yul\":8932:8964   */\n      calldataload\n        /* \"#utility.yul\":8991:9009   */\n      0xffffffffffffffff\n        /* \"#utility.yul\":8983:8989   */\n      dup2\n        /* \"#utility.yul\":8980:9010   */\n      gt\n        /* \"#utility.yul\":8977:9094   */\n      iszero\n      tag_556\n      jumpi\n        /* \"#utility.yul\":9013:9092   */\n      tag_557\n      tag_395\n      jump\t// in\n    tag_557:\n        /* \"#utility.yul\":8977:9094   */\n    tag_556:\n        /* \"#utility.yul\":9118:9181   */\n      tag_558\n        /* \"#utility.yul\":9173:9180   */\n      dup9\n        /* \"#utility.yul\":9164:9170   */\n      dup3\n        /* \"#utility.yul\":9153:9162   */\n      dup10\n        /* \"#utility.yul\":9149:9171   */\n      add\n        /* \"#utility.yul\":9118:9181   */\n      tag_415\n      jump\t// in\n    tag_558:\n        /* \"#utility.yul\":9108:9181   */\n      swap5\n      pop\n        /* \"#utility.yul\":8903:9191   */\n      pop\n        /* \"#utility.yul\":9258:9260   */\n      0x40\n        /* \"#utility.yul\":9247:9256   */\n      dup7\n        /* \"#utility.yul\":9243:9261   */\n      add\n        /* \"#utility.yul\":9230:9262   */\n      calldataload\n        /* \"#utility.yul\":9289:9307   */\n      0xffffffffffffffff\n        /* \"#utility.yul\":9281:9287   */\n      dup2\n        /* \"#utility.yul\":9278:9308   */\n      gt\n        /* \"#utility.yul\":9275:9392   */\n      iszero\n      tag_559\n      jumpi\n        /* \"#utility.yul\":9311:9390   */\n      tag_560\n      tag_395\n      jump\t// in\n    tag_560:\n        /* \"#utility.yul\":9275:9392   */\n    tag_559:\n        /* \"#utility.yul\":9416:9479   */\n      tag_561\n        /* \"#utility.yul\":9471:9478   */\n      dup9\n        /* \"#utility.yul\":9462:9468   */\n      dup3\n        /* \"#utility.yul\":9451:9460   */\n      dup10\n        /* \"#utility.yul\":9447:9469   */\n      add\n        /* \"#utility.yul\":9416:9479   */\n      tag_415\n      jump\t// in\n    tag_561:\n        /* \"#utility.yul\":9406:9479   */\n      swap4\n      pop\n        /* \"#utility.yul\":9201:9489   */\n      pop\n        /* \"#utility.yul\":9556:9558   */\n      0x60\n        /* \"#utility.yul\":9545:9554   */\n      dup7\n        /* \"#utility.yul\":9541:9559   */\n      add\n        /* \"#utility.yul\":9528:9560   */\n      calldataload\n        /* \"#utility.yul\":9587:9605   */\n      0xffffffffffffffff\n        /* \"#utility.yul\":9579:9585   */\n      dup2\n        /* \"#utility.yul\":9576:9606   */\n      gt\n        /* \"#utility.yul\":9573:9690   */\n      iszero\n      tag_562\n      jumpi\n        /* \"#utility.yul\":9609:9688   */\n      tag_563\n      tag_395\n      jump\t// in\n    tag_563:\n        /* \"#utility.yul\":9573:9690   */\n    tag_562:\n        /* \"#utility.yul\":9714:9777   */\n      tag_564\n        /* \"#utility.yul\":9769:9776   */\n      dup9\n        /* \"#utility.yul\":9760:9766   */\n      dup3\n        /* \"#utility.yul\":9749:9758   */\n      dup10\n        /* \"#utility.yul\":9745:9767   */\n      add\n        /* \"#utility.yul\":9714:9777   */\n      tag_415\n      jump\t// in\n    tag_564:\n        /* \"#utility.yul\":9704:9777   */\n      swap3\n      pop\n        /* \"#utility.yul\":9499:9787   */\n      pop\n        /* \"#utility.yul\":9826:9829   */\n      0x80\n        /* \"#utility.yul\":9853:9905   */\n      tag_565\n        /* \"#utility.yul\":9897:9904   */\n      dup9\n        /* \"#utility.yul\":9888:9894   */\n      dup3\n        /* \"#utility.yul\":9877:9886   */\n      dup10\n        /* \"#utility.yul\":9873:9895   */\n      add\n        /* \"#utility.yul\":9853:9905   */\n      tag_397\n      jump\t// in\n    tag_565:\n        /* \"#utility.yul\":9843:9905   */\n      swap2\n      pop\n        /* \"#utility.yul\":9797:9915   */\n      pop\n        /* \"#utility.yul\":8293:9922   */\n      swap3\n      swap6\n      pop\n      swap3\n      swap6\n      swap1\n      swap4\n      pop\n      jump\t// out\n        /* \"#utility.yul\":9928:11231   */\n    tag_50:\n        /* \"#utility.yul\":10043:10049   */\n      0x00\n        /* \"#utility.yul\":10051:10057   */\n      dup1\n        /* \"#utility.yul\":10059:10065   */\n      0x00\n        /* \"#utility.yul\":10067:10073   */\n      dup1\n        /* \"#utility.yul\":10116:10119   */\n      0x80\n        /* \"#utility.yul\":10104:10113   */\n      dup6\n        /* \"#utility.yul\":10095:10102   */\n      dup8\n        /* \"#utility.yul\":10091:10114   */\n      sub\n        /* \"#utility.yul\":10087:10120   */\n      slt\n        /* \"#utility.yul\":10084:10204   */\n      iszero\n      tag_567\n      jumpi\n        /* \"#utility.yul\":10123:10202   */\n      tag_568\n      tag_394\n      jump\t// in\n    tag_568:\n        /* \"#utility.yul\":10084:10204   */\n    tag_567:\n        /* \"#utility.yul\":10271:10272   */\n      0x00\n        /* \"#utility.yul\":10260:10269   */\n      dup6\n        /* \"#utility.yul\":10256:10273   */\n      add\n        /* \"#utility.yul\":10243:10274   */\n      calldataload\n        /* \"#utility.yul\":10301:10319   */\n      0xffffffffffffffff\n        /* \"#utility.yul\":10293:10299   */\n      dup2\n        /* \"#utility.yul\":10290:10320   */\n      gt\n        /* \"#utility.yul\":10287:10404   */\n      iszero\n      tag_569\n      jumpi\n        /* \"#utility.yul\":10323:10402   */\n      tag_570\n      tag_395\n      jump\t// in\n    tag_570:\n        /* \"#utility.yul\":10287:10404   */\n    tag_569:\n        /* \"#utility.yul\":10428:10491   */\n      tag_571\n        /* \"#utility.yul\":10483:10490   */\n      dup8\n        /* \"#utility.yul\":10474:10480   */\n      dup3\n        /* \"#utility.yul\":10463:10472   */\n      dup9\n        /* \"#utility.yul\":10459:10481   */\n      add\n        /* \"#utility.yul\":10428:10491   */\n      tag_415\n      jump\t// in\n    tag_571:\n        /* \"#utility.yul\":10418:10491   */\n      swap5\n      pop\n        /* \"#utility.yul\":10214:10501   */\n      pop\n        /* \"#utility.yul\":10568:10570   */\n      0x20\n        /* \"#utility.yul\":10557:10566   */\n      dup6\n        /* \"#utility.yul\":10553:10571   */\n      add\n        /* \"#utility.yul\":10540:10572   */\n      calldataload\n        /* \"#utility.yul\":10599:10617   */\n      0xffffffffffffffff\n        /* \"#utility.yul\":10591:10597   */\n      dup2\n        /* \"#utility.yul\":10588:10618   */\n      gt\n        /* \"#utility.yul\":10585:10702   */\n      iszero\n      tag_572\n      jumpi\n        /* \"#utility.yul\":10621:10700   */\n      tag_573\n      tag_395\n      jump\t// in\n    tag_573:\n        /* \"#utility.yul\":10585:10702   */\n    tag_572:\n        /* \"#utility.yul\":10726:10789   */\n      tag_574\n        /* \"#utility.yul\":10781:10788   */\n      dup8\n        /* \"#utility.yul\":10772:10778   */\n      dup3\n        /* \"#utility.yul\":10761:10770   */\n      dup9\n        /* \"#utility.yul\":10757:10779   */\n      add\n        /* \"#utility.yul\":10726:10789   */\n      tag_415\n      jump\t// in\n    tag_574:\n        /* \"#utility.yul\":10716:10789   */\n      swap4\n      pop\n        /* \"#utility.yul\":10511:10799   */\n      pop\n        /* \"#utility.yul\":10866:10868   */\n      0x40\n        /* \"#utility.yul\":10855:10864   */\n      dup6\n        /* \"#utility.yul\":10851:10869   */\n      add\n        /* \"#utility.yul\":10838:10870   */\n      calldataload\n        /* \"#utility.yul\":10897:10915   */\n      0xffffffffffffffff\n        /* \"#utility.yul\":10889:10895   */\n      dup2\n        /* \"#utility.yul\":10886:10916   */\n      gt\n        /* \"#utility.yul\":10883:11000   */\n      iszero\n      tag_575\n      jumpi\n        /* \"#utility.yul\":10919:10998   */\n      tag_576\n      tag_395\n      jump\t// in\n    tag_576:\n        /* \"#utility.yul\":10883:11000   */\n    tag_575:\n        /* \"#utility.yul\":11024:11087   */\n      tag_577\n        /* \"#utility.yul\":11079:11086   */\n      dup8\n        /* \"#utility.yul\":11070:11076   */\n      dup3\n        /* \"#utility.yul\":11059:11068   */\n      dup9\n        /* \"#utility.yul\":11055:11077   */\n      add\n        /* \"#utility.yul\":11024:11087   */\n      tag_415\n      jump\t// in\n    tag_577:\n        /* \"#utility.yul\":11014:11087   */\n      swap3\n      pop\n        /* \"#utility.yul\":10809:11097   */\n      pop\n        /* \"#utility.yul\":11136:11138   */\n      0x60\n        /* \"#utility.yul\":11162:11214   */\n      tag_578\n        /* \"#utility.yul\":11206:11213   */\n      dup8\n        /* \"#utility.yul\":11197:11203   */\n      dup3\n        /* \"#utility.yul\":11186:11195   */\n      dup9\n        /* \"#utility.yul\":11182:11204   */\n      add\n        /* \"#utility.yul\":11162:11214   */\n      tag_397\n      jump\t// in\n    tag_578:\n        /* \"#utility.yul\":11152:11214   */\n      swap2\n      pop\n        /* \"#utility.yul\":11107:11224   */\n      pop\n        /* \"#utility.yul\":9928:11231   */\n      swap3\n      swap6\n      swap2\n      swap5\n      pop\n      swap3\n      pop\n      jump\t// out\n        /* \"#utility.yul\":11237:11746   */\n    tag_55:\n        /* \"#utility.yul\":11306:11312   */\n      0x00\n        /* \"#utility.yul\":11355:11357   */\n      0x20\n        /* \"#utility.yul\":11343:11352   */\n      dup3\n        /* \"#utility.yul\":11334:11341   */\n      dup5\n        /* \"#utility.yul\":11330:11353   */\n      sub\n        /* \"#utility.yul\":11326:11358   */\n      slt\n        /* \"#utility.yul\":11323:11442   */\n      iszero\n      tag_580\n      jumpi\n        /* \"#utility.yul\":11361:11440   */\n      tag_581\n      tag_394\n      jump\t// in\n    tag_581:\n        /* \"#utility.yul\":11323:11442   */\n    tag_580:\n        /* \"#utility.yul\":11509:11510   */\n      0x00\n        /* \"#utility.yul\":11498:11507   */\n      dup3\n        /* \"#utility.yul\":11494:11511   */\n      add\n        /* \"#utility.yul\":11481:11512   */\n      calldataload\n        /* \"#utility.yul\":11539:11557   */\n      0xffffffffffffffff\n        /* \"#utility.yul\":11531:11537   */\n      dup2\n        /* \"#utility.yul\":11528:11558   */\n      gt\n        /* \"#utility.yul\":11525:11642   */\n      iszero\n      tag_582\n      jumpi\n        /* \"#utility.yul\":11561:11640   */\n      tag_583\n      tag_395\n      jump\t// in\n    tag_583:\n        /* \"#utility.yul\":11525:11642   */\n    tag_582:\n        /* \"#utility.yul\":11666:11729   */\n      tag_584\n        /* \"#utility.yul\":11721:11728   */\n      dup5\n        /* \"#utility.yul\":11712:11718   */\n      dup3\n        /* \"#utility.yul\":11701:11710   */\n      dup6\n        /* \"#utility.yul\":11697:11719   */\n      add\n        /* \"#utility.yul\":11666:11729   */\n      tag_415\n      jump\t// in\n    tag_584:\n        /* \"#utility.yul\":11656:11729   */\n      swap2\n      pop\n        /* \"#utility.yul\":11452:11739   */\n      pop\n        /* \"#utility.yul\":11237:11746   */\n      swap3\n      swap2\n      pop\n      pop\n      jump\t// out\n        /* \"#utility.yul\":11752:13851   */\n    tag_64:\n        /* \"#utility.yul\":11913:11919   */\n      0x00\n        /* \"#utility.yul\":11921:11927   */\n      dup1\n        /* \"#utility.yul\":11929:11935   */\n      0x00\n        /* \"#utility.yul\":11937:11943   */\n      dup1\n        /* \"#utility.yul\":11945:11951   */\n      0x00\n        /* \"#utility.yul\":11953:11959   */\n      dup1\n        /* \"#utility.yul\":11961:11967   */\n      0x00\n        /* \"#utility.yul\":12010:12013   */\n      0xe0\n        /* \"#utility.yul\":11998:12007   */\n      dup9\n        /* \"#utility.yul\":11989:11996   */\n      dup11\n        /* \"#utility.yul\":11985:12008   */\n      sub\n        /* \"#utility.yul\":11981:12014   */\n      slt\n        /* \"#utility.yul\":11978:12098   */\n      iszero\n      tag_586\n      jumpi\n        /* \"#utility.yul\":12017:12096   */\n      tag_587\n      tag_394\n      jump\t// in\n    tag_587:\n        /* \"#utility.yul\":11978:12098   */\n    tag_586:\n        /* \"#utility.yul\":12165:12166   */\n      0x00\n        /* \"#utility.yul\":12154:12163   */\n      dup9\n        /* \"#utility.yul\":12150:12167   */\n      add\n        /* \"#utility.yul\":12137:12168   */\n      calldataload\n        /* \"#utility.yul\":12195:12213   */\n      0xffffffffffffffff\n        /* \"#utility.yul\":12187:12193   */\n      dup2\n        /* \"#utility.yul\":12184:12214   */\n      gt\n        /* \"#utility.yul\":12181:12298   */\n      iszero\n      tag_588\n      jumpi\n        /* \"#utility.yul\":12217:12296   */\n      tag_589\n      tag_395\n      jump\t// in\n    tag_589:\n        /* \"#utility.yul\":12181:12298   */\n    tag_588:\n        /* \"#utility.yul\":12322:12385   */\n      tag_590\n        /* \"#utility.yul\":12377:12384   */\n      dup11\n        /* \"#utility.yul\":12368:12374   */\n      dup3\n        /* \"#utility.yul\":12357:12366   */\n      dup12\n        /* \"#utility.yul\":12353:12375   */\n      add\n        /* \"#utility.yul\":12322:12385   */\n      tag_415\n      jump\t// in\n    tag_590:\n        /* \"#utility.yul\":12312:12385   */\n      swap8\n      pop\n        /* \"#utility.yul\":12108:12395   */\n      pop\n        /* \"#utility.yul\":12462:12464   */\n      0x20\n        /* \"#utility.yul\":12451:12460   */\n      dup9\n        /* \"#utility.yul\":12447:12465   */\n      add\n        /* \"#utility.yul\":12434:12466   */\n      calldataload\n        /* \"#utility.yul\":12493:12511   */\n      0xffffffffffffffff\n        /* \"#utility.yul\":12485:12491   */\n      dup2\n        /* \"#utility.yul\":12482:12512   */\n      gt\n        /* \"#utility.yul\":12479:12596   */\n      iszero\n      tag_591\n      jumpi\n        /* \"#utility.yul\":12515:12594   */\n      tag_592\n      tag_395\n      jump\t// in\n    tag_592:\n        /* \"#utility.yul\":12479:12596   */\n    tag_591:\n        /* \"#utility.yul\":12620:12683   */\n      tag_593\n        /* \"#utility.yul\":12675:12682   */\n      dup11\n        /* \"#utility.yul\":12666:12672   */\n      dup3\n        /* \"#utility.yul\":12655:12664   */\n      dup12\n        /* \"#utility.yul\":12651:12673   */\n      add\n        /* \"#utility.yul\":12620:12683   */\n      tag_415\n      jump\t// in\n    tag_593:\n        /* \"#utility.yul\":12610:12683   */\n      swap7\n      pop\n        /* \"#utility.yul\":12405:12693   */\n      pop\n        /* \"#utility.yul\":12760:12762   */\n      0x40\n        /* \"#utility.yul\":12749:12758   */\n      dup9\n        /* \"#utility.yul\":12745:12763   */\n      add\n        /* \"#utility.yul\":12732:12764   */\n      calldataload\n        /* \"#utility.yul\":12791:12809   */\n      0xffffffffffffffff\n        /* \"#utility.yul\":12783:12789   */\n      dup2\n        /* \"#utility.yul\":12780:12810   */\n      gt\n        /* \"#utility.yul\":12777:12894   */\n      iszero\n      tag_594\n      jumpi\n        /* \"#utility.yul\":12813:12892   */\n      tag_595\n      tag_395\n      jump\t// in\n    tag_595:\n        /* \"#utility.yul\":12777:12894   */\n    tag_594:\n        /* \"#utility.yul\":12918:12981   */\n      tag_596\n        /* \"#utility.yul\":12973:12980   */\n      dup11\n        /* \"#utility.yul\":12964:12970   */\n      dup3\n        /* \"#utility.yul\":12953:12962   */\n      dup12\n        /* \"#utility.yul\":12949:12971   */\n      add\n        /* \"#utility.yul\":12918:12981   */\n      tag_415\n      jump\t// in\n    tag_596:\n        /* \"#utility.yul\":12908:12981   */\n      swap6\n      pop\n        /* \"#utility.yul\":12703:12991   */\n      pop\n        /* \"#utility.yul\":13058:13060   */\n      0x60\n        /* \"#utility.yul\":13047:13056   */\n      dup9\n        /* \"#utility.yul\":13043:13061   */\n      add\n        /* \"#utility.yul\":13030:13062   */\n      calldataload\n        /* \"#utility.yul\":13089:13107   */\n      0xffffffffffffffff\n        /* \"#utility.yul\":13081:13087   */\n      dup2\n        /* \"#utility.yul\":13078:13108   */\n      gt\n        /* \"#utility.yul\":13075:13192   */\n      iszero\n      tag_597\n      jumpi\n        /* \"#utility.yul\":13111:13190   */\n      tag_598\n      tag_395\n      jump\t// in\n    tag_598:\n        /* \"#utility.yul\":13075:13192   */\n    tag_597:\n        /* \"#utility.yul\":13216:13279   */\n      tag_599\n        /* \"#utility.yul\":13271:13278   */\n      dup11\n        /* \"#utility.yul\":13262:13268   */\n      dup3\n        /* \"#utility.yul\":13251:13260   */\n      dup12\n        /* \"#utility.yul\":13247:13269   */\n      add\n        /* \"#utility.yul\":13216:13279   */\n      tag_415\n      jump\t// in\n    tag_599:\n        /* \"#utility.yul\":13206:13279   */\n      swap5\n      pop\n        /* \"#utility.yul\":13001:13289   */\n      pop\n        /* \"#utility.yul\":13356:13359   */\n      0x80\n        /* \"#utility.yul\":13345:13354   */\n      dup9\n        /* \"#utility.yul\":13341:13360   */\n      add\n        /* \"#utility.yul\":13328:13361   */\n      calldataload\n        /* \"#utility.yul\":13388:13406   */\n      0xffffffffffffffff\n        /* \"#utility.yul\":13380:13386   */\n      dup2\n        /* \"#utility.yul\":13377:13407   */\n      gt\n        /* \"#utility.yul\":13374:13491   */\n      iszero\n      tag_600\n      jumpi\n        /* \"#utility.yul\":13410:13489   */\n      tag_601\n      tag_395\n      jump\t// in\n    tag_601:\n        /* \"#utility.yul\":13374:13491   */\n    tag_600:\n        /* \"#utility.yul\":13515:13578   */\n      tag_602\n        /* \"#utility.yul\":13570:13577   */\n      dup11\n        /* \"#utility.yul\":13561:13567   */\n      dup3\n        /* \"#utility.yul\":13550:13559   */\n      dup12\n        /* \"#utility.yul\":13546:13568   */\n      add\n        /* \"#utility.yul\":13515:13578   */\n      tag_415\n      jump\t// in\n    tag_602:\n        /* \"#utility.yul\":13505:13578   */\n      swap4\n      pop\n        /* \"#utility.yul\":13299:13588   */\n      pop\n        /* \"#utility.yul\":13627:13630   */\n      0xa0\n        /* \"#utility.yul\":13654:13706   */\n      tag_603\n        /* \"#utility.yul\":13698:13705   */\n      dup11\n        /* \"#utility.yul\":13689:13695   */\n      dup3\n        /* \"#utility.yul\":13678:13687   */\n      dup12\n        /* \"#utility.yul\":13674:13696   */\n      add\n        /* \"#utility.yul\":13654:13706   */\n      tag_397\n      jump\t// in\n    tag_603:\n        /* \"#utility.yul\":13644:13706   */\n      swap3\n      pop\n        /* \"#utility.yul\":13598:13716   */\n      pop\n        /* \"#utility.yul\":13755:13758   */\n      0xc0\n        /* \"#utility.yul\":13782:13834   */\n      tag_604\n        /* \"#utility.yul\":13826:13833   */\n      dup11\n        /* \"#utility.yul\":13817:13823   */\n      dup3\n        /* \"#utility.yul\":13806:13815   */\n      dup12\n        /* \"#utility.yul\":13802:13824   */\n      add\n        /* \"#utility.yul\":13782:13834   */\n      tag_397\n      jump\t// in\n    tag_604:\n        /* \"#utility.yul\":13772:13834   */\n      swap2\n      pop\n        /* \"#utility.yul\":13726:13844   */\n      pop\n        /* \"#utility.yul\":11752:13851   */\n      swap3\n      swap6\n      swap9\n      swap2\n      swap5\n      swap8\n      pop\n      swap3\n      swap6\n      pop\n      jump\t// out\n        /* \"#utility.yul\":13857:15342   */\n    tag_69:\n        /* \"#utility.yul\":13983:13989   */\n      0x00\n        /* \"#utility.yul\":13991:13997   */\n      dup1\n        /* \"#utility.yul\":13999:14005   */\n      0x00\n        /* \"#utility.yul\":14007:14013   */\n      dup1\n        /* \"#utility.yul\":14056:14059   */\n      0x80\n        /* \"#utility.yul\":14044:14053   */\n      dup6\n        /* \"#utility.yul\":14035:14042   */\n      dup8\n        /* \"#utility.yul\":14031:14054   */\n      sub\n        /* \"#utility.yul\":14027:14060   */\n      slt\n        /* \"#utility.yul\":14024:14144   */\n      iszero\n      tag_606\n      jumpi\n        /* \"#utility.yul\":14063:14142   */\n      tag_607\n      tag_394\n      jump\t// in\n    tag_607:\n        /* \"#utility.yul\":14024:14144   */\n    tag_606:\n        /* \"#utility.yul\":14211:14212   */\n      0x00\n        /* \"#utility.yul\":14200:14209   */\n      dup6\n        /* \"#utility.yul\":14196:14213   */\n      add\n        /* \"#utility.yul\":14183:14214   */\n      calldataload\n        /* \"#utility.yul\":14241:14259   */\n      0xffffffffffffffff\n        /* \"#utility.yul\":14233:14239   */\n      dup2\n        /* \"#utility.yul\":14230:14260   */\n      gt\n        /* \"#utility.yul\":14227:14344   */\n      iszero\n      tag_608\n      jumpi\n        /* \"#utility.yul\":14263:14342   */\n      tag_609\n      tag_395\n      jump\t// in\n    tag_609:\n        /* \"#utility.yul\":14227:14344   */\n    tag_608:\n        /* \"#utility.yul\":14368:14431   */\n      tag_610\n        /* \"#utility.yul\":14423:14430   */\n      dup8\n        /* \"#utility.yul\":14414:14420   */\n      dup3\n        /* \"#utility.yul\":14403:14412   */\n      dup9\n        /* \"#utility.yul\":14399:14421   */\n      add\n        /* \"#utility.yul\":14368:14431   */\n      tag_415\n      jump\t// in\n    tag_610:\n        /* \"#utility.yul\":14358:14431   */\n      swap5\n      pop\n        /* \"#utility.yul\":14154:14441   */\n      pop\n        /* \"#utility.yul\":14508:14510   */\n      0x20\n        /* \"#utility.yul\":14497:14506   */\n      dup6\n        /* \"#utility.yul\":14493:14511   */\n      add\n        /* \"#utility.yul\":14480:14512   */\n      calldataload\n        /* \"#utility.yul\":14539:14557   */\n      0xffffffffffffffff\n        /* \"#utility.yul\":14531:14537   */\n      dup2\n        /* \"#utility.yul\":14528:14558   */\n      gt\n        /* \"#utility.yul\":14525:14642   */\n      iszero\n      tag_611\n      jumpi\n        /* \"#utility.yul\":14561:14640   */\n      tag_612\n      tag_395\n      jump\t// in\n    tag_612:\n        /* \"#utility.yul\":14525:14642   */\n    tag_611:\n        /* \"#utility.yul\":14666:14729   */\n      tag_613\n        /* \"#utility.yul\":14721:14728   */\n      dup8\n        /* \"#utility.yul\":14712:14718   */\n      dup3\n        /* \"#utility.yul\":14701:14710   */\n      dup9\n        /* \"#utility.yul\":14697:14719   */\n      add\n        /* \"#utility.yul\":14666:14729   */\n      tag_415\n      jump\t// in\n    tag_613:\n        /* \"#utility.yul\":14656:14729   */\n      swap4\n      pop\n        /* \"#utility.yul\":14451:14739   */\n      pop\n        /* \"#utility.yul\":14806:14808   */\n      0x40\n        /* \"#utility.yul\":14795:14804   */\n      dup6\n        /* \"#utility.yul\":14791:14809   */\n      add\n        /* \"#utility.yul\":14778:14810   */\n      calldataload\n        /* \"#utility.yul\":14837:14855   */\n      0xffffffffffffffff\n        /* \"#utility.yul\":14829:14835   */\n      dup2\n        /* \"#utility.yul\":14826:14856   */\n      gt\n        /* \"#utility.yul\":14823:14940   */\n      iszero\n      tag_614\n      jumpi\n        /* \"#utility.yul\":14859:14938   */\n      tag_615\n      tag_395\n      jump\t// in\n    tag_615:\n        /* \"#utility.yul\":14823:14940   */\n    tag_614:\n        /* \"#utility.yul\":14964:15027   */\n      tag_616\n        /* \"#utility.yul\":15019:15026   */\n      dup8\n        /* \"#utility.yul\":15010:15016   */\n      dup3\n        /* \"#utility.yul\":14999:15008   */\n      dup9\n        /* \"#utility.yul\":14995:15017   */\n      add\n        /* \"#utility.yul\":14964:15027   */\n      tag_415\n      jump\t// in\n    tag_616:\n        /* \"#utility.yul\":14954:15027   */\n      swap3\n      pop\n        /* \"#utility.yul\":14749:15037   */\n      pop\n        /* \"#utility.yul\":15104:15106   */\n      0x60\n        /* \"#utility.yul\":15093:15102   */\n      dup6\n        /* \"#utility.yul\":15089:15107   */\n      add\n        /* \"#utility.yul\":15076:15108   */\n      calldataload\n        /* \"#utility.yul\":15135:15153   */\n      0xffffffffffffffff\n        /* \"#utility.yul\":15127:15133   */\n      dup2\n        /* \"#utility.yul\":15124:15154   */\n      gt\n        /* \"#utility.yul\":15121:15238   */\n      iszero\n      tag_617\n      jumpi\n        /* \"#utility.yul\":15157:15236   */\n      tag_618\n      tag_395\n      jump\t// in\n    tag_618:\n        /* \"#utility.yul\":15121:15238   */\n    tag_617:\n        /* \"#utility.yul\":15262:15325   */\n      tag_619\n        /* \"#utility.yul\":15317:15324   */\n      dup8\n        /* \"#utility.yul\":15308:15314   */\n      dup3\n        /* \"#utility.yul\":15297:15306   */\n      dup9\n        /* \"#utility.yul\":15293:15315   */\n      add\n        /* \"#utility.yul\":15262:15325   */\n      tag_415\n      jump\t// in\n    tag_619:\n        /* \"#utility.yul\":15252:15325   */\n      swap2\n      pop\n        /* \"#utility.yul\":15047:15335   */\n      pop\n        /* \"#utility.yul\":13857:15342   */\n      swap3\n      swap6\n      swap2\n      swap5\n      pop\n      swap3\n      pop\n      jump\t// out\n        /* \"#utility.yul\":15348:15461   */\n    tag_418:\n        /* \"#utility.yul\":15414:15420   */\n      0x00\n        /* \"#utility.yul\":15448:15453   */\n      dup2\n        /* \"#utility.yul\":15442:15454   */\n      mload\n        /* \"#utility.yul\":15432:15454   */\n      swap1\n      pop\n        /* \"#utility.yul\":15348:15461   */\n      swap2\n      swap1\n      pop\n      jump\t// out\n        /* \"#utility.yul\":15467:15650   */\n    tag_419:\n        /* \"#utility.yul\":15565:15576   */\n      0x00\n        /* \"#utility.yul\":15599:15605   */\n      dup3\n        /* \"#utility.yul\":15594:15597   */\n      dup3\n        /* \"#utility.yul\":15587:15606   */\n      mstore\n        /* \"#utility.yul\":15639:15643   */\n      0x20\n        /* \"#utility.yul\":15634:15637   */\n      dup3\n        /* \"#utility.yul\":15630:15644   */\n      add\n        /* \"#utility.yul\":15615:15644   */\n      swap1\n      pop\n        /* \"#utility.yul\":15467:15650   */\n      swap3\n      swap2\n      pop\n      pop\n      jump\t// out\n        /* \"#utility.yul\":15656:15787   */\n    tag_420:\n        /* \"#utility.yul\":15722:15726   */\n      0x00\n        /* \"#utility.yul\":15745:15748   */\n      dup2\n        /* \"#utility.yul\":15737:15748   */\n      swap1\n      pop\n        /* \"#utility.yul\":15775:15779   */\n      0x20\n        /* \"#utility.yul\":15770:15773   */\n      dup3\n        /* \"#utility.yul\":15766:15780   */\n      add\n        /* \"#utility.yul\":15758:15780   */\n      swap1\n      pop\n        /* \"#utility.yul\":15656:15787   */\n      swap2\n      swap1\n      pop\n      jump\t// out\n        /* \"#utility.yul\":15793:15968   */\n    tag_421:\n        /* \"#utility.yul\":15860:15870   */\n      0x00\n        /* \"#utility.yul\":15881:15925   */\n      tag_624\n        /* \"#utility.yul\":15921:15924   */\n      dup4\n        /* \"#utility.yul\":15913:15919   */\n      dup4\n        /* \"#utility.yul\":15881:15925   */\n      tag_398\n      jump\t// in\n    tag_624:\n        /* \"#utility.yul\":15957:15961   */\n      0x20\n        /* \"#utility.yul\":15952:15955   */\n      dup4\n        /* \"#utility.yul\":15948:15962   */\n      add\n        /* \"#utility.yul\":15934:15962   */\n      swap1\n      pop\n        /* \"#utility.yul\":15793:15968   */\n      swap3\n      swap2\n      pop\n      pop\n      jump\t// out\n        /* \"#utility.yul\":15974:16086   */\n    tag_422:\n        /* \"#utility.yul\":16043:16047   */\n      0x00\n        /* \"#utility.yul\":16075:16079   */\n      0x20\n        /* \"#utility.yul\":16070:16073   */\n      dup3\n        /* \"#utility.yul\":16066:16080   */\n      add\n        /* \"#utility.yul\":16058:16080   */\n      swap1\n      pop\n        /* \"#utility.yul\":15974:16086   */\n      swap2\n      swap1\n      pop\n      jump\t// out\n        /* \"#utility.yul\":16120:16844   */\n    tag_423:\n        /* \"#utility.yul\":16237:16240   */\n      0x00\n        /* \"#utility.yul\":16266:16319   */\n      tag_627\n        /* \"#utility.yul\":16313:16318   */\n      dup3\n        /* \"#utility.yul\":16266:16319   */\n      tag_418\n      jump\t// in\n    tag_627:\n        /* \"#utility.yul\":16335:16420   */\n      tag_628\n        /* \"#utility.yul\":16413:16419   */\n      dup2\n        /* \"#utility.yul\":16408:16411   */\n      dup6\n        /* \"#utility.yul\":16335:16420   */\n      tag_419\n      jump\t// in\n    tag_628:\n        /* \"#utility.yul\":16328:16420   */\n      swap4\n      pop\n        /* \"#utility.yul\":16444:16499   */\n      tag_629\n        /* \"#utility.yul\":16493:16498   */\n      dup4\n        /* \"#utility.yul\":16444:16499   */\n      tag_420\n      jump\t// in\n    tag_629:\n        /* \"#utility.yul\":16522:16529   */\n      dup1\n        /* \"#utility.yul\":16553:16554   */\n      0x00\n        /* \"#utility.yul\":16538:16819   */\n    tag_630:\n        /* \"#utility.yul\":16563:16569   */\n      dup4\n        /* \"#utility.yul\":16560:16561   */\n      dup2\n        /* \"#utility.yul\":16557:16570   */\n      lt\n        /* \"#utility.yul\":16538:16819   */\n      iszero\n      tag_632\n      jumpi\n        /* \"#utility.yul\":16639:16645   */\n      dup2\n        /* \"#utility.yul\":16633:16646   */\n      mload\n        /* \"#utility.yul\":16666:16727   */\n      tag_633\n        /* \"#utility.yul\":16723:16726   */\n      dup9\n        /* \"#utility.yul\":16708:16721   */\n      dup3\n        /* \"#utility.yul\":16666:16727   */\n      tag_421\n      jump\t// in\n    tag_633:\n        /* \"#utility.yul\":16659:16727   */\n      swap8\n      pop\n        /* \"#utility.yul\":16750:16809   */\n      tag_634\n        /* \"#utility.yul\":16802:16808   */\n      dup4\n        /* \"#utility.yul\":16750:16809   */\n      tag_422\n      jump\t// in\n    tag_634:\n        /* \"#utility.yul\":16740:16809   */\n      swap3\n      pop\n        /* \"#utility.yul\":16598:16819   */\n      pop\n        /* \"#utility.yul\":16585:16586   */\n      0x01\n        /* \"#utility.yul\":16582:16583   */\n      dup2\n        /* \"#utility.yul\":16578:16587   */\n      add\n        /* \"#utility.yul\":16573:16587   */\n      swap1\n      pop\n        /* \"#utility.yul\":16538:16819   */\n      jump(tag_630)\n    tag_632:\n        /* \"#utility.yul\":16542:16556   */\n      pop\n        /* \"#utility.yul\":16835:16838   */\n      dup6\n        /* \"#utility.yul\":16828:16838   */\n      swap4\n      pop\n        /* \"#utility.yul\":16242:16844   */\n      pop\n      pop\n      pop\n        /* \"#utility.yul\":16120:16844   */\n      swap3\n      swap2\n      pop\n      pop\n      jump\t// out\n        /* \"#utility.yul\":16850:17219   */\n    tag_76:\n        /* \"#utility.yul\":16991:16995   */\n      0x00\n        /* \"#utility.yul\":17029:17031   */\n      0x20\n        /* \"#utility.yul\":17018:17027   */\n      dup3\n        /* \"#utility.yul\":17014:17032   */\n      add\n        /* \"#utility.yul\":17006:17032   */\n      swap1\n      pop\n        /* \"#utility.yul\":17078:17087   */\n      dup2\n        /* \"#utility.yul\":17072:17076   */\n      dup2\n        /* \"#utility.yul\":17068:17088   */\n      sub\n        /* \"#utility.yul\":17064:17065   */\n      0x00\n        /* \"#utility.yul\":17053:17062   */\n      dup4\n        /* \"#utility.yul\":17049:17066   */\n      add\n        /* \"#utility.yul\":17042:17089   */\n      mstore\n        /* \"#utility.yul\":17106:17212   */\n      tag_636\n        /* \"#utility.yul\":17207:17211   */\n      dup2\n        /* \"#utility.yul\":17198:17204   */\n      dup5\n        /* \"#utility.yul\":17106:17212   */\n      tag_423\n      jump\t// in\n    tag_636:\n        /* \"#utility.yul\":17098:17212   */\n      swap1\n      pop\n        /* \"#utility.yul\":16850:17219   */\n      swap3\n      swap2\n      pop\n      pop\n      jump\t// out\n        /* \"#utility.yul\":17225:17349   */\n    tag_424:\n        /* \"#utility.yul\":17302:17308   */\n      0x00\n        /* \"#utility.yul\":17336:17341   */\n      dup2\n        /* \"#utility.yul\":17330:17342   */\n      mload\n        /* \"#utility.yul\":17320:17342   */\n      swap1\n      pop\n        /* \"#utility.yul\":17225:17349   */\n      swap2\n      swap1\n      pop\n      jump\t// out\n        /* \"#utility.yul\":17355:17549   */\n    tag_425:\n        /* \"#utility.yul\":17464:17475   */\n      0x00\n        /* \"#utility.yul\":17498:17504   */\n      dup3\n        /* \"#utility.yul\":17493:17496   */\n      dup3\n        /* \"#utility.yul\":17486:17505   */\n      mstore\n        /* \"#utility.yul\":17538:17542   */\n      0x20\n        /* \"#utility.yul\":17533:17536   */\n      dup3\n        /* \"#utility.yul\":17529:17543   */\n      add\n        /* \"#utility.yul\":17514:17543   */\n      swap1\n      pop\n        /* \"#utility.yul\":17355:17549   */\n      swap3\n      swap2\n      pop\n      pop\n      jump\t// out\n        /* \"#utility.yul\":17555:17697   */\n    tag_426:\n        /* \"#utility.yul\":17632:17636   */\n      0x00\n        /* \"#utility.yul\":17655:17658   */\n      dup2\n        /* \"#utility.yul\":17647:17658   */\n      swap1\n      pop\n        /* \"#utility.yul\":17685:17689   */\n      0x20\n        /* \"#utility.yul\":17680:17683   */\n      dup3\n        /* \"#utility.yul\":17676:17690   */\n      add\n        /* \"#utility.yul\":17668:17690   */\n      swap1\n      pop\n        /* \"#utility.yul\":17555:17697   */\n      swap2\n      swap1\n      pop\n      jump\t// out\n        /* \"#utility.yul\":17703:17899   */\n    tag_427:\n        /* \"#utility.yul\":17792:17802   */\n      0x00\n        /* \"#utility.yul\":17827:17893   */\n      tag_641\n        /* \"#utility.yul\":17889:17892   */\n      dup4\n        /* \"#utility.yul\":17881:17887   */\n      dup4\n        /* \"#utility.yul\":17827:17893   */\n      tag_403\n      jump\t// in\n    tag_641:\n        /* \"#utility.yul\":17813:17893   */\n      swap1\n      pop\n        /* \"#utility.yul\":17703:17899   */\n      swap3\n      swap2\n      pop\n      pop\n      jump\t// out\n        /* \"#utility.yul\":17905:18028   */\n    tag_428:\n        /* \"#utility.yul\":17985:17989   */\n      0x00\n        /* \"#utility.yul\":18017:18021   */\n      0x20\n        /* \"#utility.yul\":18012:18015   */\n      dup3\n        /* \"#utility.yul\":18008:18022   */\n      add\n        /* \"#utility.yul\":18000:18022   */\n      swap1\n      pop\n        /* \"#utility.yul\":17905:18028   */\n      swap2\n      swap1\n      pop\n      jump\t// out\n        /* \"#utility.yul\":18062:19053   */\n    tag_429:\n        /* \"#utility.yul\":18201:18204   */\n      0x00\n        /* \"#utility.yul\":18230:18294   */\n      tag_644\n        /* \"#utility.yul\":18288:18293   */\n      dup3\n        /* \"#utility.yul\":18230:18294   */\n      tag_424\n      jump\t// in\n    tag_644:\n        /* \"#utility.yul\":18310:18406   */\n      tag_645\n        /* \"#utility.yul\":18399:18405   */\n      dup2\n        /* \"#utility.yul\":18394:18397   */\n      dup6\n        /* \"#utility.yul\":18310:18406   */\n      tag_425\n      jump\t// in\n    tag_645:\n        /* \"#utility.yul\":18303:18406   */\n      swap4\n      pop\n        /* \"#utility.yul\":18432:18435   */\n      dup4\n        /* \"#utility.yul\":18477:18481   */\n      0x20\n        /* \"#utility.yul\":18469:18475   */\n      dup3\n        /* \"#utility.yul\":18465:18482   */\n      mul\n        /* \"#utility.yul\":18460:18463   */\n      dup6\n        /* \"#utility.yul\":18456:18483   */\n      add\n        /* \"#utility.yul\":18507:18573   */\n      tag_646\n        /* \"#utility.yul\":18567:18572   */\n      dup6\n        /* \"#utility.yul\":18507:18573   */\n      tag_426\n      jump\t// in\n    tag_646:\n        /* \"#utility.yul\":18596:18603   */\n      dup1\n        /* \"#utility.yul\":18627:18628   */\n      0x00\n        /* \"#utility.yul\":18612:19008   */\n    tag_647:\n        /* \"#utility.yul\":18637:18643   */\n      dup6\n        /* \"#utility.yul\":18634:18635   */\n      dup2\n        /* \"#utility.yul\":18631:18644   */\n      lt\n        /* \"#utility.yul\":18612:19008   */\n      iszero\n      tag_649\n      jumpi\n        /* \"#utility.yul\":18708:18717   */\n      dup5\n        /* \"#utility.yul\":18702:18706   */\n      dup5\n        /* \"#utility.yul\":18698:18718   */\n      sub\n        /* \"#utility.yul\":18693:18696   */\n      dup10\n        /* \"#utility.yul\":18686:18719   */\n      mstore\n        /* \"#utility.yul\":18759:18765   */\n      dup2\n        /* \"#utility.yul\":18753:18766   */\n      mload\n        /* \"#utility.yul\":18787:18871   */\n      tag_650\n        /* \"#utility.yul\":18866:18870   */\n      dup6\n        /* \"#utility.yul\":18851:18864   */\n      dup3\n        /* \"#utility.yul\":18787:18871   */\n      tag_427\n      jump\t// in\n    tag_650:\n        /* \"#utility.yul\":18779:18871   */\n      swap5\n      pop\n        /* \"#utility.yul\":18894:18964   */\n      tag_651\n        /* \"#utility.yul\":18957:18963   */\n      dup4\n        /* \"#utility.yul\":18894:18964   */\n      tag_428\n      jump\t// in\n    tag_651:\n        /* \"#utility.yul\":18884:18964   */\n      swap3\n      pop\n        /* \"#utility.yul\":18993:18997   */\n      0x20\n        /* \"#utility.yul\":18988:18991   */\n      dup11\n        /* \"#utility.yul\":18984:18998   */\n      add\n        /* \"#utility.yul\":18977:18998   */\n      swap10\n      pop\n        /* \"#utility.yul\":18672:19008   */\n      pop\n        /* \"#utility.yul\":18659:18660   */\n      0x01\n        /* \"#utility.yul\":18656:18657   */\n      dup2\n        /* \"#utility.yul\":18652:18661   */\n      add\n        /* \"#utility.yul\":18647:18661   */\n      swap1\n      pop\n        /* \"#utility.yul\":18612:19008   */\n      jump(tag_647)\n    tag_649:\n        /* \"#utility.yul\":18616:18630   */\n      pop\n        /* \"#utility.yul\":19024:19028   */\n      dup3\n        /* \"#utility.yul\":19017:19028   */\n      swap8\n      pop\n        /* \"#utility.yul\":19044:19047   */\n      dup8\n        /* \"#utility.yul\":19037:19047   */\n      swap6\n      pop\n        /* \"#utility.yul\":18206:19053   */\n      pop\n      pop\n      pop\n      pop\n      pop\n        /* \"#utility.yul\":18062:19053   */\n      swap3\n      swap2\n      pop\n      pop\n      jump\t// out\n        /* \"#utility.yul\":19059:19472   */\n    tag_84:\n        /* \"#utility.yul\":19222:19226   */\n      0x00\n        /* \"#utility.yul\":19260:19262   */\n      0x20\n        /* \"#utility.yul\":19249:19258   */\n      dup3\n        /* \"#utility.yul\":19245:19263   */\n      add\n        /* \"#utility.yul\":19237:19263   */\n      swap1\n      pop\n        /* \"#utility.yul\":19309:19318   */\n      dup2\n        /* \"#utility.yul\":19303:19307   */\n      dup2\n        /* \"#utility.yul\":19299:19319   */\n      sub\n        /* \"#utility.yul\":19295:19296   */\n      0x00\n        /* \"#utility.yul\":19284:19293   */\n      dup4\n        /* \"#utility.yul\":19280:19297   */\n      add\n        /* \"#utility.yul\":19273:19320   */\n      mstore\n        /* \"#utility.yul\":19337:19465   */\n      tag_653\n        /* \"#utility.yul\":19460:19464   */\n      dup2\n        /* \"#utility.yul\":19451:19457   */\n      dup5\n        /* \"#utility.yul\":19337:19465   */\n      tag_429\n      jump\t// in\n    tag_653:\n        /* \"#utility.yul\":19329:19465   */\n      swap1\n      pop\n        /* \"#utility.yul\":19059:19472   */\n      swap3\n      swap2\n      pop\n      pop\n      jump\t// out\n        /* \"#utility.yul\":19478:19604   */\n    tag_430:\n        /* \"#utility.yul\":19515:19522   */\n      0x00\n        /* \"#utility.yul\":19555:19597   */\n      0xffffffffffffffffffffffffffffffffffffffff\n        /* \"#utility.yul\":19548:19553   */\n      dup3\n        /* \"#utility.yul\":19544:19598   */\n      and\n        /* \"#utility.yul\":19533:19598   */\n      swap1\n      pop\n        /* \"#utility.yul\":19478:19604   */\n      swap2\n      swap1\n      pop\n      jump\t// out\n        /* \"#utility.yul\":19610:19706   */\n    tag_431:\n        /* \"#utility.yul\":19647:19654   */\n      0x00\n        /* \"#utility.yul\":19676:19700   */\n      tag_656\n        /* \"#utility.yul\":19694:19699   */\n      dup3\n        /* \"#utility.yul\":19676:19700   */\n      tag_430\n      jump\t// in\n    tag_656:\n        /* \"#utility.yul\":19665:19700   */\n      swap1\n      pop\n        /* \"#utility.yul\":19610:19706   */\n      swap2\n      swap1\n      pop\n      jump\t// out\n        /* \"#utility.yul\":19712:19830   */\n    tag_432:\n        /* \"#utility.yul\":19799:19823   */\n      tag_658\n        /* \"#utility.yul\":19817:19822   */\n      dup2\n        /* \"#utility.yul\":19799:19823   */\n      tag_431\n      jump\t// in\n    tag_658:\n        /* \"#utility.yul\":19794:19797   */\n      dup3\n        /* \"#utility.yul\":19787:19824   */\n      mstore\n        /* \"#utility.yul\":19712:19830   */\n      pop\n      pop\n      jump\t// out\n        /* \"#utility.yul\":19836:20058   */\n    tag_88:\n        /* \"#utility.yul\":19929:19933   */\n      0x00\n        /* \"#utility.yul\":19967:19969   */\n      0x20\n        /* \"#utility.yul\":19956:19965   */\n      dup3\n        /* \"#utility.yul\":19952:19970   */\n      add\n        /* \"#utility.yul\":19944:19970   */\n      swap1\n      pop\n        /* \"#utility.yul\":19980:20051   */\n      tag_660\n        /* \"#utility.yul\":20048:20049   */\n      0x00\n        /* \"#utility.yul\":20037:20046   */\n      dup4\n        /* \"#utility.yul\":20033:20050   */\n      add\n        /* \"#utility.yul\":20024:20030   */\n      dup5\n        /* \"#utility.yul\":19980:20051   */\n      tag_432\n      jump\t// in\n    tag_660:\n        /* \"#utility.yul\":19836:20058   */\n      swap3\n      swap2\n      pop\n      pop\n      jump\t// out\n        /* \"#utility.yul\":20064:21837   */\n    tag_94:\n        /* \"#utility.yul\":20206:20212   */\n      0x00\n        /* \"#utility.yul\":20214:20220   */\n      dup1\n        /* \"#utility.yul\":20222:20228   */\n      0x00\n        /* \"#utility.yul\":20230:20236   */\n      dup1\n        /* \"#utility.yul\":20238:20244   */\n      0x00\n        /* \"#utility.yul\":20246:20252   */\n      dup1\n        /* \"#utility.yul\":20295:20298   */\n      0xc0\n        /* \"#utility.yul\":20283:20292   */\n      dup8\n        /* \"#utility.yul\":20274:20281   */\n      dup10\n        /* \"#utility.yul\":20270:20293   */\n      sub\n        /* \"#utility.yul\":20266:20299   */\n      slt\n        /* \"#utility.yul\":20263:20383   */\n      iszero\n      tag_662\n      jumpi\n        /* \"#utility.yul\":20302:20381   */\n      tag_663\n      tag_394\n      jump\t// in\n    tag_663:\n        /* \"#utility.yul\":20263:20383   */\n    tag_662:\n        /* \"#utility.yul\":20450:20451   */\n      0x00\n        /* \"#utility.yul\":20439:20448   */\n      dup8\n        /* \"#utility.yul\":20435:20452   */\n      add\n        /* \"#utility.yul\":20422:20453   */\n      calldataload\n        /* \"#utility.yul\":20480:20498   */\n      0xffffffffffffffff\n        /* \"#utility.yul\":20472:20478   */\n      dup2\n        /* \"#utility.yul\":20469:20499   */\n      gt\n        /* \"#utility.yul\":20466:20583   */\n      iszero\n      tag_664\n      jumpi\n        /* \"#utility.yul\":20502:20581   */\n      tag_665\n      tag_395\n      jump\t// in\n    tag_665:\n        /* \"#utility.yul\":20466:20583   */\n    tag_664:\n        /* \"#utility.yul\":20607:20670   */\n      tag_666\n        /* \"#utility.yul\":20662:20669   */\n      dup10\n        /* \"#utility.yul\":20653:20659   */\n      dup3\n        /* \"#utility.yul\":20642:20651   */\n      dup11\n        /* \"#utility.yul\":20638:20660   */\n      add\n        /* \"#utility.yul\":20607:20670   */\n      tag_415\n      jump\t// in\n    tag_666:\n        /* \"#utility.yul\":20597:20670   */\n      swap7\n      pop\n        /* \"#utility.yul\":20393:20680   */\n      pop\n        /* \"#utility.yul\":20747:20749   */\n      0x20\n        /* \"#utility.yul\":20736:20745   */\n      dup8\n        /* \"#utility.yul\":20732:20750   */\n      add\n        /* \"#utility.yul\":20719:20751   */\n      calldataload\n        /* \"#utility.yul\":20778:20796   */\n      0xffffffffffffffff\n        /* \"#utility.yul\":20770:20776   */\n      dup2\n        /* \"#utility.yul\":20767:20797   */\n      gt\n        /* \"#utility.yul\":20764:20881   */\n      iszero\n      tag_667\n      jumpi\n        /* \"#utility.yul\":20800:20879   */\n      tag_668\n      tag_395\n      jump\t// in\n    tag_668:\n        /* \"#utility.yul\":20764:20881   */\n    tag_667:\n        /* \"#utility.yul\":20905:20968   */\n      tag_669\n        /* \"#utility.yul\":20960:20967   */\n      dup10\n        /* \"#utility.yul\":20951:20957   */\n      dup3\n        /* \"#utility.yul\":20940:20949   */\n      dup11\n        /* \"#utility.yul\":20936:20958   */\n      add\n        /* \"#utility.yul\":20905:20968   */\n      tag_415\n      jump\t// in\n    tag_669:\n        /* \"#utility.yul\":20895:20968   */\n      swap6\n      pop\n        /* \"#utility.yul\":20690:20978   */\n      pop\n        /* \"#utility.yul\":21045:21047   */\n      0x40\n        /* \"#utility.yul\":21034:21043   */\n      dup8\n        /* \"#utility.yul\":21030:21048   */\n      add\n        /* \"#utility.yul\":21017:21049   */\n      calldataload\n        /* \"#utility.yul\":21076:21094   */\n      0xffffffffffffffff\n        /* \"#utility.yul\":21068:21074   */\n      dup2\n        /* \"#utility.yul\":21065:21095   */\n      gt\n        /* \"#utility.yul\":21062:21179   */\n      iszero\n      tag_670\n      jumpi\n        /* \"#utility.yul\":21098:21177   */\n      tag_671\n      tag_395\n      jump\t// in\n    tag_671:\n        /* \"#utility.yul\":21062:21179   */\n    tag_670:\n        /* \"#utility.yul\":21203:21266   */\n      tag_672\n        /* \"#utility.yul\":21258:21265   */\n      dup10\n        /* \"#utility.yul\":21249:21255   */\n      dup3\n        /* \"#utility.yul\":21238:21247   */\n      dup11\n        /* \"#utility.yul\":21234:21256   */\n      add\n        /* \"#utility.yul\":21203:21266   */\n      tag_415\n      jump\t// in\n    tag_672:\n        /* \"#utility.yul\":21193:21266   */\n      swap5\n      pop\n        /* \"#utility.yul\":20988:21276   */\n      pop\n        /* \"#utility.yul\":21343:21345   */\n      0x60\n        /* \"#utility.yul\":21332:21341   */\n      dup8\n        /* \"#utility.yul\":21328:21346   */\n      add\n        /* \"#utility.yul\":21315:21347   */\n      calldataload\n        /* \"#utility.yul\":21374:21392   */\n      0xffffffffffffffff\n        /* \"#utility.yul\":21366:21372   */\n      dup2\n        /* \"#utility.yul\":21363:21393   */\n      gt\n        /* \"#utility.yul\":21360:21477   */\n      iszero\n      tag_673\n      jumpi\n        /* \"#utility.yul\":21396:21475   */\n      tag_674\n      tag_395\n      jump\t// in\n    tag_674:\n        /* \"#utility.yul\":21360:21477   */\n    tag_673:\n        /* \"#utility.yul\":21501:21564   */\n      tag_675\n        /* \"#utility.yul\":21556:21563   */\n      dup10\n        /* \"#utility.yul\":21547:21553   */\n      dup3\n        /* \"#utility.yul\":21536:21545   */\n      dup11\n        /* \"#utility.yul\":21532:21554   */\n      add\n        /* \"#utility.yul\":21501:21564   */\n      tag_415\n      jump\t// in\n    tag_675:\n        /* \"#utility.yul\":21491:21564   */\n      swap4\n      pop\n        /* \"#utility.yul\":21286:21574   */\n      pop\n        /* \"#utility.yul\":21613:21616   */\n      0x80\n        /* \"#utility.yul\":21640:21692   */\n      tag_676\n        /* \"#utility.yul\":21684:21691   */\n      dup10\n        /* \"#utility.yul\":21675:21681   */\n      dup3\n        /* \"#utility.yul\":21664:21673   */\n      dup11\n        /* \"#utility.yul\":21660:21682   */\n      add\n        /* \"#utility.yul\":21640:21692   */\n      tag_397\n      jump\t// in\n    tag_676:\n        /* \"#utility.yul\":21630:21692   */\n      swap3\n      pop\n        /* \"#utility.yul\":21584:21702   */\n      pop\n        /* \"#utility.yul\":21741:21744   */\n      0xa0\n        /* \"#utility.yul\":21768:21820   */\n      tag_677\n        /* \"#utility.yul\":21812:21819   */\n      dup10\n        /* \"#utility.yul\":21803:21809   */\n      dup3\n        /* \"#utility.yul\":21792:21801   */\n      dup11\n        /* \"#utility.yul\":21788:21810   */\n      add\n        /* \"#utility.yul\":21768:21820   */\n      tag_397\n      jump\t// in\n    tag_677:\n        /* \"#utility.yul\":21758:21820   */\n      swap2\n      pop\n        /* \"#utility.yul\":21712:21830   */\n      pop\n        /* \"#utility.yul\":20064:21837   */\n      swap3\n      swap6\n      pop\n      swap3\n      swap6\n      pop\n      swap3\n      swap6\n      jump\t// out\n        /* \"#utility.yul\":21843:21965   */\n    tag_433:\n        /* \"#utility.yul\":21916:21940   */\n      tag_679\n        /* \"#utility.yul\":21934:21939   */\n      dup2\n        /* \"#utility.yul\":21916:21940   */\n      tag_431\n      jump\t// in\n    tag_679:\n        /* \"#utility.yul\":21909:21914   */\n      dup2\n        /* \"#utility.yul\":21906:21941   */\n      eq\n        /* \"#utility.yul\":21896:21959   */\n      tag_680\n      jumpi\n        /* \"#utility.yul\":21955:21956   */\n      0x00\n        /* \"#utility.yul\":21952:21953   */\n      dup1\n        /* \"#utility.yul\":21945:21957   */\n      revert\n        /* \"#utility.yul\":21896:21959   */\n    tag_680:\n        /* \"#utility.yul\":21843:21965   */\n      pop\n      jump\t// out\n        /* \"#utility.yul\":21971:22110   */\n    tag_434:\n        /* \"#utility.yul\":22017:22022   */\n      0x00\n        /* \"#utility.yul\":22055:22061   */\n      dup2\n        /* \"#utility.yul\":22042:22062   */\n      calldataload\n        /* \"#utility.yul\":22033:22062   */\n      swap1\n      pop\n        /* \"#utility.yul\":22071:22104   */\n      tag_682\n        /* \"#utility.yul\":22098:22103   */\n      dup2\n        /* \"#utility.yul\":22071:22104   */\n      tag_433\n      jump\t// in\n    tag_682:\n        /* \"#utility.yul\":21971:22110   */\n      swap3\n      swap2\n      pop\n      pop\n      jump\t// out\n        /* \"#utility.yul\":22116:22445   */\n    tag_108:\n        /* \"#utility.yul\":22175:22181   */\n      0x00\n        /* \"#utility.yul\":22224:22226   */\n      0x20\n        /* \"#utility.yul\":22212:22221   */\n      dup3\n        /* \"#utility.yul\":22203:22210   */\n      dup5\n        /* \"#utility.yul\":22199:22222   */\n      sub\n        /* \"#utility.yul\":22195:22227   */\n      slt\n        /* \"#utility.yul\":22192:22311   */\n      iszero\n      tag_684\n      jumpi\n        /* \"#utility.yul\":22230:22309   */\n      tag_685\n      tag_394\n      jump\t// in\n    tag_685:\n        /* \"#utility.yul\":22192:22311   */\n    tag_684:\n        /* \"#utility.yul\":22350:22351   */\n      0x00\n        /* \"#utility.yul\":22375:22428   */\n      tag_686\n        /* \"#utility.yul\":22420:22427   */\n      dup5\n        /* \"#utility.yul\":22411:22417   */\n      dup3\n        /* \"#utility.yul\":22400:22409   */\n      dup6\n        /* \"#utility.yul\":22396:22418   */\n      add\n        /* \"#utility.yul\":22375:22428   */\n      tag_434\n      jump\t// in\n    tag_686:\n        /* \"#utility.yul\":22365:22428   */\n      swap2\n      pop\n        /* \"#utility.yul\":22321:22438   */\n      pop\n        /* \"#utility.yul\":22116:22445   */\n      swap3\n      swap2\n      pop\n      pop\n      jump\t// out\n        /* \"#utility.yul\":22451:23610   */\n    tag_117:\n        /* \"#utility.yul\":22558:22564   */\n      0x00\n        /* \"#utility.yul\":22566:22572   */\n      dup1\n        /* \"#utility.yul\":22574:22580   */\n      0x00\n        /* \"#utility.yul\":22623:22625   */\n      0x60\n        /* \"#utility.yul\":22611:22620   */\n      dup5\n        /* \"#utility.yul\":22602:22609   */\n      dup7\n        /* \"#utility.yul\":22598:22621   */\n      sub\n        /* \"#utility.yul\":22594:22626   */\n      slt\n        /* \"#utility.yul\":22591:22710   */\n      iszero\n      tag_688\n      jumpi\n        /* \"#utility.yul\":22629:22708   */\n      tag_689\n      tag_394\n      jump\t// in\n    tag_689:\n        /* \"#utility.yul\":22591:22710   */\n    tag_688:\n        /* \"#utility.yul\":22777:22778   */\n      0x00\n        /* \"#utility.yul\":22766:22775   */\n      dup5\n        /* \"#utility.yul\":22762:22779   */\n      add\n        /* \"#utility.yul\":22749:22780   */\n      calldataload\n        /* \"#utility.yul\":22807:22825   */\n      0xffffffffffffffff\n        /* \"#utility.yul\":22799:22805   */\n      dup2\n        /* \"#utility.yul\":22796:22826   */\n      gt\n        /* \"#utility.yul\":22793:22910   */\n      iszero\n      tag_690\n      jumpi\n        /* \"#utility.yul\":22829:22908   */\n      tag_691\n      tag_395\n      jump\t// in\n    tag_691:\n        /* \"#utility.yul\":22793:22910   */\n    tag_690:\n        /* \"#utility.yul\":22934:22997   */\n      tag_692\n        /* \"#utility.yul\":22989:22996   */\n      dup7\n        /* \"#utility.yul\":22980:22986   */\n      dup3\n        /* \"#utility.yul\":22969:22978   */\n      dup8\n        /* \"#utility.yul\":22965:22987   */\n      add\n        /* \"#utility.yul\":22934:22997   */\n      tag_415\n      jump\t// in\n    tag_692:\n        /* \"#utility.yul\":22924:22997   */\n      swap4\n      pop\n        /* \"#utility.yul\":22720:23007   */\n      pop\n        /* \"#utility.yul\":23074:23076   */\n      0x20\n        /* \"#utility.yul\":23063:23072   */\n      dup5\n        /* \"#utility.yul\":23059:23077   */\n      add\n        /* \"#utility.yul\":23046:23078   */\n      calldataload\n        /* \"#utility.yul\":23105:23123   */\n      0xffffffffffffffff\n        /* \"#utility.yul\":23097:23103   */\n      dup2\n        /* \"#utility.yul\":23094:23124   */\n      gt\n        /* \"#utility.yul\":23091:23208   */\n      iszero\n      tag_693\n      jumpi\n        /* \"#utility.yul\":23127:23206   */\n      tag_694\n      tag_395\n      jump\t// in\n    tag_694:\n        /* \"#utility.yul\":23091:23208   */\n    tag_693:\n        /* \"#utility.yul\":23232:23295   */\n      tag_695\n        /* \"#utility.yul\":23287:23294   */\n      dup7\n        /* \"#utility.yul\":23278:23284   */\n      dup3\n        /* \"#utility.yul\":23267:23276   */\n      dup8\n        /* \"#utility.yul\":23263:23285   */\n      add\n        /* \"#utility.yul\":23232:23295   */\n      tag_415\n      jump\t// in\n    tag_695:\n        /* \"#utility.yul\":23222:23295   */\n      swap3\n      pop\n        /* \"#utility.yul\":23017:23305   */\n      pop\n        /* \"#utility.yul\":23372:23374   */\n      0x40\n        /* \"#utility.yul\":23361:23370   */\n      dup5\n        /* \"#utility.yul\":23357:23375   */\n      add\n        /* \"#utility.yul\":23344:23376   */\n      calldataload\n        /* \"#utility.yul\":23403:23421   */\n      0xffffffffffffffff\n        /* \"#utility.yul\":23395:23401   */\n      dup2\n        /* \"#utility.yul\":23392:23422   */\n      gt\n        /* \"#utility.yul\":23389:23506   */\n      iszero\n      tag_696\n      jumpi\n        /* \"#utility.yul\":23425:23504   */\n      tag_697\n      tag_395\n      jump\t// in\n    tag_697:\n        /* \"#utility.yul\":23389:23506   */\n    tag_696:\n        /* \"#utility.yul\":23530:23593   */\n      tag_698\n        /* \"#utility.yul\":23585:23592   */\n      dup7\n        /* \"#utility.yul\":23576:23582   */\n      dup3\n        /* \"#utility.yul\":23565:23574   */\n      dup8\n        /* \"#utility.yul\":23561:23583   */\n      add\n        /* \"#utility.yul\":23530:23593   */\n      tag_415\n      jump\t// in\n    tag_698:\n        /* \"#utility.yul\":23520:23593   */\n      swap2\n      pop\n        /* \"#utility.yul\":23315:23603   */\n      pop\n        /* \"#utility.yul\":22451:23610   */\n      swap3\n      pop\n      swap3\n      pop\n      swap3\n      jump\t// out\n        /* \"#utility.yul\":23684:24363   */\n    tag_435:\n        /* \"#utility.yul\":23825:23829   */\n      0x60\n        /* \"#utility.yul\":23820:23823   */\n      dup3\n        /* \"#utility.yul\":23816:23830   */\n      add\n        /* \"#utility.yul\":23914:23918   */\n      0x00\n        /* \"#utility.yul\":23907:23912   */\n      dup3\n        /* \"#utility.yul\":23903:23919   */\n      add\n        /* \"#utility.yul\":23897:23920   */\n      mload\n        /* \"#utility.yul\":23933:23994   */\n      tag_700\n        /* \"#utility.yul\":23988:23992   */\n      0x00\n        /* \"#utility.yul\":23983:23986   */\n      dup6\n        /* \"#utility.yul\":23979:23993   */\n      add\n        /* \"#utility.yul\":23965:23977   */\n      dup3\n        /* \"#utility.yul\":23933:23994   */\n      tag_398\n      jump\t// in\n    tag_700:\n        /* \"#utility.yul\":23840:24004   */\n      pop\n        /* \"#utility.yul\":24091:24095   */\n      0x20\n        /* \"#utility.yul\":24084:24089   */\n      dup3\n        /* \"#utility.yul\":24080:24096   */\n      add\n        /* \"#utility.yul\":24074:24097   */\n      mload\n        /* \"#utility.yul\":24110:24171   */\n      tag_701\n        /* \"#utility.yul\":24165:24169   */\n      0x20\n        /* \"#utility.yul\":24160:24163   */\n      dup6\n        /* \"#utility.yul\":24156:24170   */\n      add\n        /* \"#utility.yul\":24142:24154   */\n      dup3\n        /* \"#utility.yul\":24110:24171   */\n      tag_398\n      jump\t// in\n    tag_701:\n        /* \"#utility.yul\":24014:24181   */\n      pop\n        /* \"#utility.yul\":24266:24270   */\n      0x40\n        /* \"#utility.yul\":24259:24264   */\n      dup3\n        /* \"#utility.yul\":24255:24271   */\n      add\n        /* \"#utility.yul\":24249:24272   */\n      mload\n        /* \"#utility.yul\":24285:24346   */\n      tag_702\n        /* \"#utility.yul\":24340:24344   */\n      0x40\n        /* \"#utility.yul\":24335:24338   */\n      dup6\n        /* \"#utility.yul\":24331:24345   */\n      add\n        /* \"#utility.yul\":24317:24329   */\n      dup3\n        /* \"#utility.yul\":24285:24346   */\n      tag_398\n      jump\t// in\n    tag_702:\n        /* \"#utility.yul\":24191:24356   */\n      pop\n        /* \"#utility.yul\":23794:24363   */\n      pop\n        /* \"#utility.yul\":23684:24363   */\n      pop\n      pop\n      jump\t// out\n        /* \"#utility.yul\":24369:24679   */\n    tag_120:\n        /* \"#utility.yul\":24506:24510   */\n      0x00\n        /* \"#utility.yul\":24544:24546   */\n      0x60\n        /* \"#utility.yul\":24533:24542   */\n      dup3\n        /* \"#utility.yul\":24529:24547   */\n      add\n        /* \"#utility.yul\":24521:24547   */\n      swap1\n      pop\n        /* \"#utility.yul\":24557:24672   */\n      tag_704\n        /* \"#utility.yul\":24669:24670   */\n      0x00\n        /* \"#utility.yul\":24658:24667   */\n      dup4\n        /* \"#utility.yul\":24654:24671   */\n      add\n        /* \"#utility.yul\":24645:24651   */\n      dup5\n        /* \"#utility.yul\":24557:24672   */\n      tag_435\n      jump\t// in\n    tag_704:\n        /* \"#utility.yul\":24369:24679   */\n      swap3\n      swap2\n      pop\n      pop\n      jump\t// out\n        /* \"#utility.yul\":24685:24865   */\n    tag_436:\n        /* \"#utility.yul\":24733:24810   */\n      0x4e487b7100000000000000000000000000000000000000000000000000000000\n        /* \"#utility.yul\":24730:24731   */\n      0x00\n        /* \"#utility.yul\":24723:24811   */\n      mstore\n        /* \"#utility.yul\":24830:24834   */\n      0x22\n        /* \"#utility.yul\":24827:24828   */\n      0x04\n        /* \"#utility.yul\":24820:24835   */\n      mstore\n        /* \"#utility.yul\":24854:24858   */\n      0x24\n        /* \"#utility.yul\":24851:24852   */\n      0x00\n        /* \"#utility.yul\":24844:24859   */\n      revert\n        /* \"#utility.yul\":24871:25191   */\n    tag_126:\n        /* \"#utility.yul\":24915:24921   */\n      0x00\n        /* \"#utility.yul\":24952:24953   */\n      0x02\n        /* \"#utility.yul\":24946:24950   */\n      dup3\n        /* \"#utility.yul\":24942:24954   */\n      div\n        /* \"#utility.yul\":24932:24954   */\n      swap1\n      pop\n        /* \"#utility.yul\":24999:25000   */\n      0x01\n        /* \"#utility.yul\":24993:24997   */\n      dup3\n        /* \"#utility.yul\":24989:25001   */\n      and\n        /* \"#utility.yul\":25020:25038   */\n      dup1\n        /* \"#utility.yul\":25010:25091   */\n      tag_707\n      jumpi\n        /* \"#utility.yul\":25076:25080   */\n      0x7f\n        /* \"#utility.yul\":25068:25074   */\n      dup3\n        /* \"#utility.yul\":25064:25081   */\n      and\n        /* \"#utility.yul\":25054:25081   */\n      swap2\n      pop\n        /* \"#utility.yul\":25010:25091   */\n    tag_707:\n        /* \"#utility.yul\":25138:25140   */\n      0x20\n        /* \"#utility.yul\":25130:25136   */\n      dup3\n        /* \"#utility.yul\":25127:25141   */\n      lt\n        /* \"#utility.yul\":25107:25125   */\n      dup2\n        /* \"#utility.yul\":25104:25142   */\n      sub\n        /* \"#utility.yul\":25101:25185   */\n      tag_708\n      jumpi\n        /* \"#utility.yul\":25157:25175   */\n      tag_709\n      tag_436\n      jump\t// in\n    tag_709:\n        /* \"#utility.yul\":25101:25185   */\n    tag_708:\n        /* \"#utility.yul\":24922:25191   */\n      pop\n        /* \"#utility.yul\":24871:25191   */\n      swap2\n      swap1\n      pop\n      jump\t// out\n        /* \"#utility.yul\":25197:25345   */\n    tag_437:\n        /* \"#utility.yul\":25299:25310   */\n      0x00\n        /* \"#utility.yul\":25336:25339   */\n      dup2\n        /* \"#utility.yul\":25321:25339   */\n      swap1\n      pop\n        /* \"#utility.yul\":25197:25345   */\n      swap3\n      swap2\n      pop\n      pop\n      jump\t// out\n        /* \"#utility.yul\":25351:25741   */\n    tag_438:\n        /* \"#utility.yul\":25457:25460   */\n      0x00\n        /* \"#utility.yul\":25485:25524   */\n      tag_712\n        /* \"#utility.yul\":25518:25523   */\n      dup3\n        /* \"#utility.yul\":25485:25524   */\n      tag_399\n      jump\t// in\n    tag_712:\n        /* \"#utility.yul\":25540:25629   */\n      tag_713\n        /* \"#utility.yul\":25622:25628   */\n      dup2\n        /* \"#utility.yul\":25617:25620   */\n      dup6\n        /* \"#utility.yul\":25540:25629   */\n      tag_437\n      jump\t// in\n    tag_713:\n        /* \"#utility.yul\":25533:25629   */\n      swap4\n      pop\n        /* \"#utility.yul\":25638:25703   */\n      tag_714\n        /* \"#utility.yul\":25696:25702   */\n      dup2\n        /* \"#utility.yul\":25691:25694   */\n      dup6\n        /* \"#utility.yul\":25684:25688   */\n      0x20\n        /* \"#utility.yul\":25677:25682   */\n      dup7\n        /* \"#utility.yul\":25673:25689   */\n      add\n        /* \"#utility.yul\":25638:25703   */\n      tag_401\n      jump\t// in\n    tag_714:\n        /* \"#utility.yul\":25728:25734   */\n      dup1\n        /* \"#utility.yul\":25723:25726   */\n      dup5\n        /* \"#utility.yul\":25719:25735   */\n      add\n        /* \"#utility.yul\":25712:25735   */\n      swap2\n      pop\n        /* \"#utility.yul\":25461:25741   */\n      pop\n        /* \"#utility.yul\":25351:25741   */\n      swap3\n      swap2\n      pop\n      pop\n      jump\t// out\n        /* \"#utility.yul\":25747:26022   */\n    tag_150:\n        /* \"#utility.yul\":25879:25882   */\n      0x00\n        /* \"#utility.yul\":25901:25996   */\n      tag_716\n        /* \"#utility.yul\":25992:25995   */\n      dup3\n        /* \"#utility.yul\":25983:25989   */\n      dup5\n        /* \"#utility.yul\":25901:25996   */\n      tag_438\n      jump\t// in\n    tag_716:\n        /* \"#utility.yul\":25894:25996   */\n      swap2\n      pop\n        /* \"#utility.yul\":26013:26016   */\n      dup2\n        /* \"#utility.yul\":26006:26016   */\n      swap1\n      pop\n        /* \"#utility.yul\":25747:26022   */\n      swap3\n      swap2\n      pop\n      pop\n      jump\t// out\n        /* \"#utility.yul\":26028:26197   */\n    tag_439:\n        /* \"#utility.yul\":26112:26123   */\n      0x00\n        /* \"#utility.yul\":26146:26152   */\n      dup3\n        /* \"#utility.yul\":26141:26144   */\n      dup3\n        /* \"#utility.yul\":26134:26153   */\n      mstore\n        /* \"#utility.yul\":26186:26190   */\n      0x20\n        /* \"#utility.yul\":26181:26184   */\n      dup3\n        /* \"#utility.yul\":26177:26191   */\n      add\n        /* \"#utility.yul\":26162:26191   */\n      swap1\n      pop\n        /* \"#utility.yul\":26028:26197   */\n      swap3\n      swap2\n      pop\n      pop\n      jump\t// out\n        /* \"#utility.yul\":26203:26437   */\n    tag_440:\n        /* \"#utility.yul\":26343:26377   */\n      0x4f6e6c792074686520636f6e7472616374206f776e65722063616e2063616c6c\n        /* \"#utility.yul\":26339:26340   */\n      0x00\n        /* \"#utility.yul\":26331:26337   */\n      dup3\n        /* \"#utility.yul\":26327:26341   */\n      add\n        /* \"#utility.yul\":26320:26378   */\n      mstore\n        /* \"#utility.yul\":26412:26429   */\n      0x20746869732066756e6374696f6e2e0000000000000000000000000000000000\n        /* \"#utility.yul\":26407:26409   */\n      0x20\n        /* \"#utility.yul\":26399:26405   */\n      dup3\n        /* \"#utility.yul\":26395:26410   */\n      add\n        /* \"#utility.yul\":26388:26430   */\n      mstore\n        /* \"#utility.yul\":26203:26437   */\n      pop\n      jump\t// out\n        /* \"#utility.yul\":26443:26809   */\n    tag_441:\n        /* \"#utility.yul\":26585:26588   */\n      0x00\n        /* \"#utility.yul\":26606:26673   */\n      tag_720\n        /* \"#utility.yul\":26670:26672   */\n      0x2f\n        /* \"#utility.yul\":26665:26668   */\n      dup4\n        /* \"#utility.yul\":26606:26673   */\n      tag_439\n      jump\t// in\n    tag_720:\n        /* \"#utility.yul\":26599:26673   */\n      swap2\n      pop\n        /* \"#utility.yul\":26682:26775   */\n      tag_721\n        /* \"#utility.yul\":26771:26774   */\n      dup3\n        /* \"#utility.yul\":26682:26775   */\n      tag_440\n      jump\t// in\n    tag_721:\n        /* \"#utility.yul\":26800:26802   */\n      0x40\n        /* \"#utility.yul\":26795:26798   */\n      dup3\n        /* \"#utility.yul\":26791:26803   */\n      add\n        /* \"#utility.yul\":26784:26803   */\n      swap1\n      pop\n        /* \"#utility.yul\":26443:26809   */\n      swap2\n      swap1\n      pop\n      jump\t// out\n        /* \"#utility.yul\":26815:27234   */\n    tag_156:\n        /* \"#utility.yul\":26981:26985   */\n      0x00\n        /* \"#utility.yul\":27019:27021   */\n      0x20\n        /* \"#utility.yul\":27008:27017   */\n      dup3\n        /* \"#utility.yul\":27004:27022   */\n      add\n        /* \"#utility.yul\":26996:27022   */\n      swap1\n      pop\n        /* \"#utility.yul\":27068:27077   */\n      dup2\n        /* \"#utility.yul\":27062:27066   */\n      dup2\n        /* \"#utility.yul\":27058:27078   */\n      sub\n        /* \"#utility.yul\":27054:27055   */\n      0x00\n        /* \"#utility.yul\":27043:27052   */\n      dup4\n        /* \"#utility.yul\":27039:27056   */\n      add\n        /* \"#utility.yul\":27032:27079   */\n      mstore\n        /* \"#utility.yul\":27096:27227   */\n      tag_723\n        /* \"#utility.yul\":27222:27226   */\n      dup2\n        /* \"#utility.yul\":27096:27227   */\n      tag_441\n      jump\t// in\n    tag_723:\n        /* \"#utility.yul\":27088:27227   */\n      swap1\n      pop\n        /* \"#utility.yul\":26815:27234   */\n      swap2\n      swap1\n      pop\n      jump\t// out\n        /* \"#utility.yul\":27240:27410   */\n    tag_442:\n        /* \"#utility.yul\":27380:27402   */\n      0x496e73756666696369656e742062616c616e6365000000000000000000000000\n        /* \"#utility.yul\":27376:27377   */\n      0x00\n        /* \"#utility.yul\":27368:27374   */\n      dup3\n        /* \"#utility.yul\":27364:27378   */\n      add\n        /* \"#utility.yul\":27357:27403   */\n      mstore\n        /* \"#utility.yul\":27240:27410   */\n      pop\n      jump\t// out\n        /* \"#utility.yul\":27416:27782   */\n    tag_443:\n        /* \"#utility.yul\":27558:27561   */\n      0x00\n        /* \"#utility.yul\":27579:27646   */\n      tag_726\n        /* \"#utility.yul\":27643:27645   */\n      0x14\n        /* \"#utility.yul\":27638:27641   */\n      dup4\n        /* \"#utility.yul\":27579:27646   */\n      tag_439\n      jump\t// in\n    tag_726:\n        /* \"#utility.yul\":27572:27646   */\n      swap2\n      pop\n        /* \"#utility.yul\":27655:27748   */\n      tag_727\n        /* \"#utility.yul\":27744:27747   */\n      dup3\n        /* \"#utility.yul\":27655:27748   */\n      tag_442\n      jump\t// in\n    tag_727:\n        /* \"#utility.yul\":27773:27775   */\n      0x20\n        /* \"#utility.yul\":27768:27771   */\n      dup3\n        /* \"#utility.yul\":27764:27776   */\n      add\n        /* \"#utility.yul\":27757:27776   */\n      swap1\n      pop\n        /* \"#utility.yul\":27416:27782   */\n      swap2\n      swap1\n      pop\n      jump\t// out\n        /* \"#utility.yul\":27788:28207   */\n    tag_168:\n        /* \"#utility.yul\":27954:27958   */\n      0x00\n        /* \"#utility.yul\":27992:27994   */\n      0x20\n        /* \"#utility.yul\":27981:27990   */\n      dup3\n        /* \"#utility.yul\":27977:27995   */\n      add\n        /* \"#utility.yul\":27969:27995   */\n      swap1\n      pop\n        /* \"#utility.yul\":28041:28050   */\n      dup2\n        /* \"#utility.yul\":28035:28039   */\n      dup2\n        /* \"#utility.yul\":28031:28051   */\n      sub\n        /* \"#utility.yul\":28027:28028   */\n      0x00\n        /* \"#utility.yul\":28016:28025   */\n      dup4\n        /* \"#utility.yul\":28012:28029   */\n      add\n        /* \"#utility.yul\":28005:28052   */\n      mstore\n        /* \"#utility.yul\":28069:28200   */\n      tag_729\n        /* \"#utility.yul\":28195:28199   */\n      dup2\n        /* \"#utility.yul\":28069:28200   */\n      tag_443\n      jump\t// in\n    tag_729:\n        /* \"#utility.yul\":28061:28200   */\n      swap1\n      pop\n        /* \"#utility.yul\":27788:28207   */\n      swap2\n      swap1\n      pop\n      jump\t// out\n        /* \"#utility.yul\":28213:28393   */\n    tag_444:\n        /* \"#utility.yul\":28261:28338   */\n      0x4e487b7100000000000000000000000000000000000000000000000000000000\n        /* \"#utility.yul\":28258:28259   */\n      0x00\n        /* \"#utility.yul\":28251:28339   */\n      mstore\n        /* \"#utility.yul\":28358:28362   */\n      0x11\n        /* \"#utility.yul\":28355:28356   */\n      0x04\n        /* \"#utility.yul\":28348:28363   */\n      mstore\n        /* \"#utility.yul\":28382:28386   */\n      0x24\n        /* \"#utility.yul\":28379:28380   */\n      0x00\n        /* \"#utility.yul\":28372:28387   */\n      revert\n        /* \"#utility.yul\":28399:28771   */\n    tag_174:\n        /* \"#utility.yul\":28438:28442   */\n      0x00\n        /* \"#utility.yul\":28458:28477   */\n      tag_732\n        /* \"#utility.yul\":28475:28476   */\n      dup3\n        /* \"#utility.yul\":28458:28477   */\n      tag_391\n      jump\t// in\n    tag_732:\n        /* \"#utility.yul\":28453:28477   */\n      swap2\n      pop\n        /* \"#utility.yul\":28491:28510   */\n      tag_733\n        /* \"#utility.yul\":28508:28509   */\n      dup4\n        /* \"#utility.yul\":28491:28510   */\n      tag_391\n      jump\t// in\n    tag_733:\n        /* \"#utility.yul\":28486:28510   */\n      swap3\n      pop\n        /* \"#utility.yul\":28534:28535   */\n      dup3\n        /* \"#utility.yul\":28531:28532   */\n      dup3\n        /* \"#utility.yul\":28527:28536   */\n      sub\n        /* \"#utility.yul\":28519:28536   */\n      swap1\n      pop\n        /* \"#utility.yul\":28728:28729   */\n      dup2\n        /* \"#utility.yul\":28722:28726   */\n      dup2\n        /* \"#utility.yul\":28718:28730   */\n      slt\n        /* \"#utility.yul\":28714:28715   */\n      0x00\n        /* \"#utility.yul\":28711:28712   */\n      dup5\n        /* \"#utility.yul\":28707:28716   */\n      slt\n        /* \"#utility.yul\":28703:28731   */\n      and\n        /* \"#utility.yul\":28686:28687   */\n      dup3\n        /* \"#utility.yul\":28680:28684   */\n      dup3\n        /* \"#utility.yul\":28676:28688   */\n      sgt\n        /* \"#utility.yul\":28671:28672   */\n      0x00\n        /* \"#utility.yul\":28668:28669   */\n      dup6\n        /* \"#utility.yul\":28664:28673   */\n      slt\n        /* \"#utility.yul\":28657:28674   */\n      iszero\n        /* \"#utility.yul\":28653:28689   */\n      and\n        /* \"#utility.yul\":28637:28741   */\n      or\n        /* \"#utility.yul\":28634:28764   */\n      iszero\n      tag_734\n      jumpi\n        /* \"#utility.yul\":28744:28762   */\n      tag_735\n      tag_444\n      jump\t// in\n    tag_735:\n        /* \"#utility.yul\":28634:28764   */\n    tag_734:\n        /* \"#utility.yul\":28399:28771   */\n      swap3\n      swap2\n      pop\n      pop\n      jump\t// out\n        /* \"#utility.yul\":28777:29152   */\n    tag_181:\n        /* \"#utility.yul\":28816:28819   */\n      0x00\n        /* \"#utility.yul\":28835:28854   */\n      tag_737\n        /* \"#utility.yul\":28852:28853   */\n      dup3\n        /* \"#utility.yul\":28835:28854   */\n      tag_391\n      jump\t// in\n    tag_737:\n        /* \"#utility.yul\":28830:28854   */\n      swap2\n      pop\n        /* \"#utility.yul\":28868:28887   */\n      tag_738\n        /* \"#utility.yul\":28885:28886   */\n      dup4\n        /* \"#utility.yul\":28868:28887   */\n      tag_391\n      jump\t// in\n    tag_738:\n        /* \"#utility.yul\":28863:28887   */\n      swap3\n      pop\n        /* \"#utility.yul\":28910:28911   */\n      dup3\n        /* \"#utility.yul\":28907:28908   */\n      dup3\n        /* \"#utility.yul\":28903:28912   */\n      add\n        /* \"#utility.yul\":28896:28912   */\n      swap1\n      pop\n        /* \"#utility.yul\":29108:29109   */\n      dup3\n        /* \"#utility.yul\":29103:29106   */\n      dup2\n        /* \"#utility.yul\":29099:29110   */\n      slt\n        /* \"#utility.yul\":29092:29111   */\n      iszero\n        /* \"#utility.yul\":29088:29089   */\n      0x00\n        /* \"#utility.yul\":29085:29086   */\n      dup4\n        /* \"#utility.yul\":29081:29090   */\n      slt\n        /* \"#utility.yul\":29077:29112   */\n      and\n        /* \"#utility.yul\":29060:29061   */\n      dup4\n        /* \"#utility.yul\":29055:29058   */\n      dup3\n        /* \"#utility.yul\":29051:29062   */\n      slt\n        /* \"#utility.yul\":29046:29047   */\n      0x00\n        /* \"#utility.yul\":29043:29044   */\n      dup5\n        /* \"#utility.yul\":29039:29048   */\n      slt\n        /* \"#utility.yul\":29032:29049   */\n      iszero\n        /* \"#utility.yul\":29028:29063   */\n      and\n        /* \"#utility.yul\":29012:29122   */\n      or\n        /* \"#utility.yul\":29009:29145   */\n      iszero\n      tag_739\n      jumpi\n        /* \"#utility.yul\":29125:29143   */\n      tag_740\n      tag_444\n      jump\t// in\n    tag_740:\n        /* \"#utility.yul\":29009:29145   */\n    tag_739:\n        /* \"#utility.yul\":28777:29152   */\n      swap3\n      swap2\n      pop\n      pop\n      jump\t// out\n        /* \"#utility.yul\":29158:29535   */\n    tag_445:\n        /* \"#utility.yul\":29246:29249   */\n      0x00\n        /* \"#utility.yul\":29274:29313   */\n      tag_742\n        /* \"#utility.yul\":29307:29312   */\n      dup3\n        /* \"#utility.yul\":29274:29313   */\n      tag_399\n      jump\t// in\n    tag_742:\n        /* \"#utility.yul\":29329:29400   */\n      tag_743\n        /* \"#utility.yul\":29393:29399   */\n      dup2\n        /* \"#utility.yul\":29388:29391   */\n      dup6\n        /* \"#utility.yul\":29329:29400   */\n      tag_439\n      jump\t// in\n    tag_743:\n        /* \"#utility.yul\":29322:29400   */\n      swap4\n      pop\n        /* \"#utility.yul\":29409:29474   */\n      tag_744\n        /* \"#utility.yul\":29467:29473   */\n      dup2\n        /* \"#utility.yul\":29462:29465   */\n      dup6\n        /* \"#utility.yul\":29455:29459   */\n      0x20\n        /* \"#utility.yul\":29448:29453   */\n      dup7\n        /* \"#utility.yul\":29444:29460   */\n      add\n        /* \"#utility.yul\":29409:29474   */\n      tag_401\n      jump\t// in\n    tag_744:\n        /* \"#utility.yul\":29499:29528   */\n      tag_745\n        /* \"#utility.yul\":29521:29527   */\n      dup2\n        /* \"#utility.yul\":29499:29528   */\n      tag_402\n      jump\t// in\n    tag_745:\n        /* \"#utility.yul\":29494:29497   */\n      dup5\n        /* \"#utility.yul\":29490:29529   */\n      add\n        /* \"#utility.yul\":29483:29529   */\n      swap2\n      pop\n        /* \"#utility.yul\":29250:29535   */\n      pop\n        /* \"#utility.yul\":29158:29535   */\n      swap3\n      swap2\n      pop\n      pop\n      jump\t// out\n        /* \"#utility.yul\":29541:30565   */\n    tag_185:\n        /* \"#utility.yul\":29824:29828   */\n      0x00\n        /* \"#utility.yul\":29862:29865   */\n      0xa0\n        /* \"#utility.yul\":29851:29860   */\n      dup3\n        /* \"#utility.yul\":29847:29866   */\n      add\n        /* \"#utility.yul\":29839:29866   */\n      swap1\n      pop\n        /* \"#utility.yul\":29912:29921   */\n      dup2\n        /* \"#utility.yul\":29906:29910   */\n      dup2\n        /* \"#utility.yul\":29902:29922   */\n      sub\n        /* \"#utility.yul\":29898:29899   */\n      0x00\n        /* \"#utility.yul\":29887:29896   */\n      dup4\n        /* \"#utility.yul\":29883:29900   */\n      add\n        /* \"#utility.yul\":29876:29923   */\n      mstore\n        /* \"#utility.yul\":29940:30018   */\n      tag_747\n        /* \"#utility.yul\":30013:30017   */\n      dup2\n        /* \"#utility.yul\":30004:30010   */\n      dup9\n        /* \"#utility.yul\":29940:30018   */\n      tag_445\n      jump\t// in\n    tag_747:\n        /* \"#utility.yul\":29932:30018   */\n      swap1\n      pop\n        /* \"#utility.yul\":30065:30074   */\n      dup2\n        /* \"#utility.yul\":30059:30063   */\n      dup2\n        /* \"#utility.yul\":30055:30075   */\n      sub\n        /* \"#utility.yul\":30050:30052   */\n      0x20\n        /* \"#utility.yul\":30039:30048   */\n      dup4\n        /* \"#utility.yul\":30035:30053   */\n      add\n        /* \"#utility.yul\":30028:30076   */\n      mstore\n        /* \"#utility.yul\":30093:30171   */\n      tag_748\n        /* \"#utility.yul\":30166:30170   */\n      dup2\n        /* \"#utility.yul\":30157:30163   */\n      dup8\n        /* \"#utility.yul\":30093:30171   */\n      tag_445\n      jump\t// in\n    tag_748:\n        /* \"#utility.yul\":30085:30171   */\n      swap1\n      pop\n        /* \"#utility.yul\":30218:30227   */\n      dup2\n        /* \"#utility.yul\":30212:30216   */\n      dup2\n        /* \"#utility.yul\":30208:30228   */\n      sub\n        /* \"#utility.yul\":30203:30205   */\n      0x40\n        /* \"#utility.yul\":30192:30201   */\n      dup4\n        /* \"#utility.yul\":30188:30206   */\n      add\n        /* \"#utility.yul\":30181:30229   */\n      mstore\n        /* \"#utility.yul\":30246:30324   */\n      tag_749\n        /* \"#utility.yul\":30319:30323   */\n      dup2\n        /* \"#utility.yul\":30310:30316   */\n      dup7\n        /* \"#utility.yul\":30246:30324   */\n      tag_445\n      jump\t// in\n    tag_749:\n        /* \"#utility.yul\":30238:30324   */\n      swap1\n      pop\n        /* \"#utility.yul\":30371:30380   */\n      dup2\n        /* \"#utility.yul\":30365:30369   */\n      dup2\n        /* \"#utility.yul\":30361:30381   */\n      sub\n        /* \"#utility.yul\":30356:30358   */\n      0x60\n        /* \"#utility.yul\":30345:30354   */\n      dup4\n        /* \"#utility.yul\":30341:30359   */\n      add\n        /* \"#utility.yul\":30334:30382   */\n      mstore\n        /* \"#utility.yul\":30399:30477   */\n      tag_750\n        /* \"#utility.yul\":30472:30476   */\n      dup2\n        /* \"#utility.yul\":30463:30469   */\n      dup6\n        /* \"#utility.yul\":30399:30477   */\n      tag_445\n      jump\t// in\n    tag_750:\n        /* \"#utility.yul\":30391:30477   */\n      swap1\n      pop\n        /* \"#utility.yul\":30487:30558   */\n      tag_751\n        /* \"#utility.yul\":30553:30556   */\n      0x80\n        /* \"#utility.yul\":30542:30551   */\n      dup4\n        /* \"#utility.yul\":30538:30557   */\n      add\n        /* \"#utility.yul\":30529:30535   */\n      dup5\n        /* \"#utility.yul\":30487:30558   */\n      tag_392\n      jump\t// in\n    tag_751:\n        /* \"#utility.yul\":29541:30565   */\n      swap7\n      swap6\n      pop\n      pop\n      pop\n      pop\n      pop\n      pop\n      jump\t// out\n        /* \"#utility.yul\":30571:30712   */\n    tag_446:\n        /* \"#utility.yul\":30620:30624   */\n      0x00\n        /* \"#utility.yul\":30643:30646   */\n      dup2\n        /* \"#utility.yul\":30635:30646   */\n      swap1\n      pop\n        /* \"#utility.yul\":30666:30669   */\n      dup2\n        /* \"#utility.yul\":30663:30664   */\n      0x00\n        /* \"#utility.yul\":30656:30670   */\n      mstore\n        /* \"#utility.yul\":30700:30704   */\n      0x20\n        /* \"#utility.yul\":30697:30698   */\n      0x00\n        /* \"#utility.yul\":30687:30705   */\n      keccak256\n        /* \"#utility.yul\":30679:30705   */\n      swap1\n      pop\n        /* \"#utility.yul\":30571:30712   */\n      swap2\n      swap1\n      pop\n      jump\t// out\n        /* \"#utility.yul\":30718:30811   */\n    tag_447:\n        /* \"#utility.yul\":30755:30761   */\n      0x00\n        /* \"#utility.yul\":30802:30804   */\n      0x20\n        /* \"#utility.yul\":30797:30799   */\n      0x1f\n        /* \"#utility.yul\":30790:30795   */\n      dup4\n        /* \"#utility.yul\":30786:30800   */\n      add\n        /* \"#utility.yul\":30782:30805   */\n      div\n        /* \"#utility.yul\":30772:30805   */\n      swap1\n      pop\n        /* \"#utility.yul\":30718:30811   */\n      swap2\n      swap1\n      pop\n      jump\t// out\n        /* \"#utility.yul\":30817:30924   */\n    tag_448:\n        /* \"#utility.yul\":30861:30869   */\n      0x00\n        /* \"#utility.yul\":30911:30916   */\n      dup3\n        /* \"#utility.yul\":30905:30909   */\n      dup3\n        /* \"#utility.yul\":30901:30917   */\n      shl\n        /* \"#utility.yul\":30880:30917   */\n      swap1\n      pop\n        /* \"#utility.yul\":30817:30924   */\n      swap3\n      swap2\n      pop\n      pop\n      jump\t// out\n        /* \"#utility.yul\":30930:31323   */\n    tag_449:\n        /* \"#utility.yul\":30999:31005   */\n      0x00\n        /* \"#utility.yul\":31049:31050   */\n      0x08\n        /* \"#utility.yul\":31037:31047   */\n      dup4\n        /* \"#utility.yul\":31033:31051   */\n      mul\n        /* \"#utility.yul\":31072:31169   */\n      tag_756\n        /* \"#utility.yul\":31102:31168   */\n      0xffffffffffffffffffffffffffffffffffffffffffffffffffffffffffffffff\n        /* \"#utility.yul\":31091:31100   */\n      dup3\n        /* \"#utility.yul\":31072:31169   */\n      tag_448\n      jump\t// in\n    tag_756:\n        /* \"#utility.yul\":31190:31229   */\n      tag_757\n        /* \"#utility.yul\":31220:31228   */\n      dup7\n        /* \"#utility.yul\":31209:31218   */\n      dup4\n        /* \"#utility.yul\":31190:31229   */\n      tag_448\n      jump\t// in\n    tag_757:\n        /* \"#utility.yul\":31178:31229   */\n      swap6\n      pop\n        /* \"#utility.yul\":31262:31266   */\n      dup1\n        /* \"#utility.yul\":31258:31267   */\n      not\n        /* \"#utility.yul\":31251:31256   */\n      dup5\n        /* \"#utility.yul\":31247:31268   */\n      and\n        /* \"#utility.yul\":31238:31268   */\n      swap4\n      pop\n        /* \"#utility.yul\":31311:31315   */\n      dup1\n        /* \"#utility.yul\":31301:31309   */\n      dup7\n        /* \"#utility.yul\":31297:31316   */\n      and\n        /* \"#utility.yul\":31290:31295   */\n      dup5\n        /* \"#utility.yul\":31287:31317   */\n      or\n        /* \"#utility.yul\":31277:31317   */\n      swap3\n      pop\n        /* \"#utility.yul\":31006:31323   */\n      pop\n      pop\n        /* \"#utility.yul\":30930:31323   */\n      swap4\n      swap3\n      pop\n      pop\n      pop\n      jump\t// out\n        /* \"#utility.yul\":31329:31389   */\n    tag_450:\n        /* \"#utility.yul\":31357:31360   */\n      0x00\n        /* \"#utility.yul\":31378:31383   */\n      dup2\n        /* \"#utility.yul\":31371:31383   */\n      swap1\n      pop\n        /* \"#utility.yul\":31329:31389   */\n      swap2\n      swap1\n      pop\n      jump\t// out\n        /* \"#utility.yul\":31395:31537   */\n    tag_451:\n        /* \"#utility.yul\":31445:31454   */\n      0x00\n        /* \"#utility.yul\":31478:31531   */\n      tag_760\n        /* \"#utility.yul\":31496:31530   */\n      tag_761\n        /* \"#utility.yul\":31505:31529   */\n      tag_762\n        /* \"#utility.yul\":31523:31528   */\n      dup5\n        /* \"#utility.yul\":31505:31529   */\n      tag_404\n      jump\t// in\n    tag_762:\n        /* \"#utility.yul\":31496:31530   */\n      tag_450\n      jump\t// in\n    tag_761:\n        /* \"#utility.yul\":31478:31531   */\n      tag_404\n      jump\t// in\n    tag_760:\n        /* \"#utility.yul\":31465:31531   */\n      swap1\n      pop\n        /* \"#utility.yul\":31395:31537   */\n      swap2\n      swap1\n      pop\n      jump\t// out\n        /* \"#utility.yul\":31543:31618   */\n    tag_452:\n        /* \"#utility.yul\":31586:31589   */\n      0x00\n        /* \"#utility.yul\":31607:31612   */\n      dup2\n        /* \"#utility.yul\":31600:31612   */\n      swap1\n      pop\n        /* \"#utility.yul\":31543:31618   */\n      swap2\n      swap1\n      pop\n      jump\t// out\n        /* \"#utility.yul\":31624:31893   */\n    tag_453:\n        /* \"#utility.yul\":31734:31773   */\n      tag_765\n        /* \"#utility.yul\":31765:31772   */\n      dup4\n        /* \"#utility.yul\":31734:31773   */\n      tag_451\n      jump\t// in\n    tag_765:\n        /* \"#utility.yul\":31795:31886   */\n      tag_766\n        /* \"#utility.yul\":31844:31885   */\n      tag_767\n        /* \"#utility.yul\":31868:31884   */\n      dup3\n        /* \"#utility.yul\":31844:31885   */\n      tag_452\n      jump\t// in\n    tag_767:\n        /* \"#utility.yul\":31836:31842   */\n      dup5\n        /* \"#utility.yul\":31829:31833   */\n      dup5\n        /* \"#utility.yul\":31823:31834   */\n      sload\n        /* \"#utility.yul\":31795:31886   */\n      tag_449\n      jump\t// in\n    tag_766:\n        /* \"#utility.yul\":31789:31793   */\n      dup3\n        /* \"#utility.yul\":31782:31887   */\n      sstore\n        /* \"#utility.yul\":31700:31893   */\n      pop\n        /* \"#utility.yul\":31624:31893   */\n      pop\n      pop\n      pop\n      jump\t// out\n        /* \"#utility.yul\":31899:31972   */\n    tag_454:\n        /* \"#utility.yul\":31944:31947   */\n      0x00\n        /* \"#utility.yul\":31899:31972   */\n      swap1\n      jump\t// out\n        /* \"#utility.yul\":31978:32167   */\n    tag_455:\n        /* \"#utility.yul\":32055:32087   */\n      tag_770\n      tag_454\n      jump\t// in\n    tag_770:\n        /* \"#utility.yul\":32096:32161   */\n      tag_771\n        /* \"#utility.yul\":32154:32160   */\n      dup2\n        /* \"#utility.yul\":32146:32152   */\n      dup5\n        /* \"#utility.yul\":32140:32144   */\n      dup5\n        /* \"#utility.yul\":32096:32161   */\n      tag_453\n      jump\t// in\n    tag_771:\n        /* \"#utility.yul\":32031:32167   */\n      pop\n        /* \"#utility.yul\":31978:32167   */\n      pop\n      pop\n      jump\t// out\n        /* \"#utility.yul\":32173:32359   */\n    tag_456:\n        /* \"#utility.yul\":32233:32353   */\n    tag_773:\n        /* \"#utility.yul\":32250:32253   */\n      dup2\n        /* \"#utility.yul\":32243:32248   */\n      dup2\n        /* \"#utility.yul\":32240:32254   */\n      lt\n        /* \"#utility.yul\":32233:32353   */\n      iszero\n      tag_775\n      jumpi\n        /* \"#utility.yul\":32304:32343   */\n      tag_776\n        /* \"#utility.yul\":32341:32342   */\n      0x00\n        /* \"#utility.yul\":32334:32339   */\n      dup3\n        /* \"#utility.yul\":32304:32343   */\n      tag_455\n      jump\t// in\n    tag_776:\n        /* \"#utility.yul\":32277:32278   */\n      0x01\n        /* \"#utility.yul\":32270:32275   */\n      dup2\n        /* \"#utility.yul\":32266:32279   */\n      add\n        /* \"#utility.yul\":32257:32279   */\n      swap1\n      pop\n        /* \"#utility.yul\":32233:32353   */\n      jump(tag_773)\n    tag_775:\n        /* \"#utility.yul\":32173:32359   */\n      pop\n      pop\n      jump\t// out\n        /* \"#utility.yul\":32365:32908   */\n    tag_457:\n        /* \"#utility.yul\":32466:32468   */\n      0x1f\n        /* \"#utility.yul\":32461:32464   */\n      dup3\n        /* \"#utility.yul\":32458:32469   */\n      gt\n        /* \"#utility.yul\":32455:32901   */\n      iszero\n      tag_778\n      jumpi\n        /* \"#utility.yul\":32500:32538   */\n      tag_779\n        /* \"#utility.yul\":32532:32537   */\n      dup2\n        /* \"#utility.yul\":32500:32538   */\n      tag_446\n      jump\t// in\n    tag_779:\n        /* \"#utility.yul\":32584:32613   */\n      tag_780\n        /* \"#utility.yul\":32602:32612   */\n      dup5\n        /* \"#utility.yul\":32584:32613   */\n      tag_447\n      jump\t// in\n    tag_780:\n        /* \"#utility.yul\":32574:32582   */\n      dup2\n        /* \"#utility.yul\":32570:32614   */\n      add\n        /* \"#utility.yul\":32767:32769   */\n      0x20\n        /* \"#utility.yul\":32755:32765   */\n      dup6\n        /* \"#utility.yul\":32752:32770   */\n      lt\n        /* \"#utility.yul\":32749:32798   */\n      iszero\n      tag_781\n      jumpi\n        /* \"#utility.yul\":32788:32796   */\n      dup2\n        /* \"#utility.yul\":32773:32796   */\n      swap1\n      pop\n        /* \"#utility.yul\":32749:32798   */\n    tag_781:\n        /* \"#utility.yul\":32811:32891   */\n      tag_782\n        /* \"#utility.yul\":32867:32889   */\n      tag_783\n        /* \"#utility.yul\":32885:32888   */\n      dup6\n        /* \"#utility.yul\":32867:32889   */\n      tag_447\n      jump\t// in\n    tag_783:\n        /* \"#utility.yul\":32857:32865   */\n      dup4\n        /* \"#utility.yul\":32853:32890   */\n      add\n        /* \"#utility.yul\":32840:32851   */\n      dup3\n        /* \"#utility.yul\":32811:32891   */\n      tag_456\n      jump\t// in\n    tag_782:\n        /* \"#utility.yul\":32470:32901   */\n      pop\n      pop\n        /* \"#utility.yul\":32455:32901   */\n    tag_778:\n        /* \"#utility.yul\":32365:32908   */\n      pop\n      pop\n      pop\n      jump\t// out\n        /* \"#utility.yul\":32914:33031   */\n    tag_458:\n        /* \"#utility.yul\":32968:32976   */\n      0x00\n        /* \"#utility.yul\":33018:33023   */\n      dup3\n        /* \"#utility.yul\":33012:33016   */\n      dup3\n        /* \"#utility.yul\":33008:33024   */\n      shr\n        /* \"#utility.yul\":32987:33024   */\n      swap1\n      pop\n        /* \"#utility.yul\":32914:33031   */\n      swap3\n      swap2\n      pop\n      pop\n      jump\t// out\n        /* \"#utility.yul\":33037:33206   */\n    tag_459:\n        /* \"#utility.yul\":33081:33087   */\n      0x00\n        /* \"#utility.yul\":33114:33165   */\n      tag_786\n        /* \"#utility.yul\":33162:33163   */\n      0x00\n        /* \"#utility.yul\":33158:33164   */\n      not\n        /* \"#utility.yul\":33150:33155   */\n      dup5\n        /* \"#utility.yul\":33147:33148   */\n      0x08\n        /* \"#utility.yul\":33143:33156   */\n      mul\n        /* \"#utility.yul\":33114:33165   */\n      tag_458\n      jump\t// in\n    tag_786:\n        /* \"#utility.yul\":33110:33166   */\n      not\n        /* \"#utility.yul\":33195:33199   */\n      dup1\n        /* \"#utility.yul\":33189:33193   */\n      dup4\n        /* \"#utility.yul\":33185:33200   */\n      and\n        /* \"#utility.yul\":33175:33200   */\n      swap2\n      pop\n        /* \"#utility.yul\":33088:33206   */\n      pop\n        /* \"#utility.yul\":33037:33206   */\n      swap3\n      swap2\n      pop\n      pop\n      jump\t// out\n        /* \"#utility.yul\":33211:33506   */\n    tag_460:\n        /* \"#utility.yul\":33287:33291   */\n      0x00\n        /* \"#utility.yul\":33433:33462   */\n      tag_788\n        /* \"#utility.yul\":33458:33461   */\n      dup4\n        /* \"#utility.yul\":33452:33456   */\n      dup4\n        /* \"#utility.yul\":33433:33462   */\n      tag_459\n      jump\t// in\n    tag_788:\n        /* \"#utility.yul\":33425:33462   */\n      swap2\n      pop\n        /* \"#utility.yul\":33495:33498   */\n      dup3\n        /* \"#utility.yul\":33492:33493   */\n      0x02\n        /* \"#utility.yul\":33488:33499   */\n      mul\n        /* \"#utility.yul\":33482:33486   */\n      dup3\n        /* \"#utility.yul\":33479:33500   */\n      or\n        /* \"#utility.yul\":33471:33500   */\n      swap1\n      pop\n        /* \"#utility.yul\":33211:33506   */\n      swap3\n      swap2\n      pop\n      pop\n      jump\t// out\n        /* \"#utility.yul\":33511:34906   */\n    tag_197:\n        /* \"#utility.yul\":33628:33665   */\n      tag_790\n        /* \"#utility.yul\":33661:33664   */\n      dup3\n        /* \"#utility.yul\":33628:33665   */\n      tag_399\n      jump\t// in\n    tag_790:\n        /* \"#utility.yul\":33730:33748   */\n      0xffffffffffffffff\n        /* \"#utility.yul\":33722:33728   */\n      dup2\n        /* \"#utility.yul\":33719:33749   */\n      gt\n        /* \"#utility.yul\":33716:33772   */\n      iszero\n      tag_791\n      jumpi\n        /* \"#utility.yul\":33752:33770   */\n      tag_792\n      tag_409\n      jump\t// in\n    tag_792:\n        /* \"#utility.yul\":33716:33772   */\n    tag_791:\n        /* \"#utility.yul\":33796:33834   */\n      tag_793\n        /* \"#utility.yul\":33828:33832   */\n      dup3\n        /* \"#utility.yul\":33822:33833   */\n      sload\n        /* \"#utility.yul\":33796:33834   */\n      tag_126\n      jump\t// in\n    tag_793:\n        /* \"#utility.yul\":33881:33948   */\n      tag_794\n        /* \"#utility.yul\":33941:33947   */\n      dup3\n        /* \"#utility.yul\":33933:33939   */\n      dup3\n        /* \"#utility.yul\":33927:33931   */\n      dup6\n        /* \"#utility.yul\":33881:33948   */\n      tag_457\n      jump\t// in\n    tag_794:\n        /* \"#utility.yul\":33975:33976   */\n      0x00\n        /* \"#utility.yul\":33999:34003   */\n      0x20\n        /* \"#utility.yul\":33986:34003   */\n      swap1\n      pop\n        /* \"#utility.yul\":34031:34033   */\n      0x1f\n        /* \"#utility.yul\":34023:34029   */\n      dup4\n        /* \"#utility.yul\":34020:34034   */\n      gt\n        /* \"#utility.yul\":34048:34049   */\n      0x01\n        /* \"#utility.yul\":34043:34661   */\n      dup2\n      eq\n      tag_796\n      jumpi\n        /* \"#utility.yul\":34705:34706   */\n      0x00\n        /* \"#utility.yul\":34722:34728   */\n      dup5\n        /* \"#utility.yul\":34719:34796   */\n      iszero\n      tag_797\n      jumpi\n        /* \"#utility.yul\":34771:34780   */\n      dup3\n        /* \"#utility.yul\":34766:34769   */\n      dup8\n        /* \"#utility.yul\":34762:34781   */\n      add\n        /* \"#utility.yul\":34756:34782   */\n      mload\n        /* \"#utility.yul\":34747:34782   */\n      swap1\n      pop\n        /* \"#utility.yul\":34719:34796   */\n    tag_797:\n        /* \"#utility.yul\":34822:34889   */\n      tag_798\n        /* \"#utility.yul\":34882:34888   */\n      dup6\n        /* \"#utility.yul\":34875:34880   */\n      dup3\n        /* \"#utility.yul\":34822:34889   */\n      tag_460\n      jump\t// in\n    tag_798:\n        /* \"#utility.yul\":34816:34820   */\n      dup7\n        /* \"#utility.yul\":34809:34890   */\n      sstore\n        /* \"#utility.yul\":34678:34900   */\n      pop\n        /* \"#utility.yul\":34013:34900   */\n      jump(tag_795)\n        /* \"#utility.yul\":34043:34661   */\n    tag_796:\n        /* \"#utility.yul\":34095:34099   */\n      0x1f\n        /* \"#utility.yul\":34091:34100   */\n      not\n        /* \"#utility.yul\":34083:34089   */\n      dup5\n        /* \"#utility.yul\":34079:34101   */\n      and\n        /* \"#utility.yul\":34129:34166   */\n      tag_799\n        /* \"#utility.yul\":34161:34165   */\n      dup7\n        /* \"#utility.yul\":34129:34166   */\n      tag_446\n      jump\t// in\n    tag_799:\n        /* \"#utility.yul\":34188:34189   */\n      0x00\n        /* \"#utility.yul\":34202:34410   */\n    tag_800:\n        /* \"#utility.yul\":34216:34223   */\n      dup3\n        /* \"#utility.yul\":34213:34214   */\n      dup2\n        /* \"#utility.yul\":34210:34224   */\n      lt\n        /* \"#utility.yul\":34202:34410   */\n      iszero\n      tag_802\n      jumpi\n        /* \"#utility.yul\":34295:34304   */\n      dup5\n        /* \"#utility.yul\":34290:34293   */\n      dup10\n        /* \"#utility.yul\":34286:34305   */\n      add\n        /* \"#utility.yul\":34280:34306   */\n      mload\n        /* \"#utility.yul\":34272:34278   */\n      dup3\n        /* \"#utility.yul\":34265:34307   */\n      sstore\n        /* \"#utility.yul\":34346:34347   */\n      0x01\n        /* \"#utility.yul\":34338:34344   */\n      dup3\n        /* \"#utility.yul\":34334:34348   */\n      add\n        /* \"#utility.yul\":34324:34348   */\n      swap2\n      pop\n        /* \"#utility.yul\":34393:34395   */\n      0x20\n        /* \"#utility.yul\":34382:34391   */\n      dup6\n        /* \"#utility.yul\":34378:34396   */\n      add\n        /* \"#utility.yul\":34365:34396   */\n      swap5\n      pop\n        /* \"#utility.yul\":34239:34243   */\n      0x20\n        /* \"#utility.yul\":34236:34237   */\n      dup2\n        /* \"#utility.yul\":34232:34244   */\n      add\n        /* \"#utility.yul\":34227:34244   */\n      swap1\n      pop\n        /* \"#utility.yul\":34202:34410   */\n      jump(tag_800)\n    tag_802:\n        /* \"#utility.yul\":34438:34444   */\n      dup7\n        /* \"#utility.yul\":34429:34436   */\n      dup4\n        /* \"#utility.yul\":34426:34445   */\n      lt\n        /* \"#utility.yul\":34423:34602   */\n      iszero\n      tag_803\n      jumpi\n        /* \"#utility.yul\":34496:34505   */\n      dup5\n        /* \"#utility.yul\":34491:34494   */\n      dup10\n        /* \"#utility.yul\":34487:34506   */\n      add\n        /* \"#utility.yul\":34481:34507   */\n      mload\n        /* \"#utility.yul\":34539:34587   */\n      tag_804\n        /* \"#utility.yul\":34581:34585   */\n      0x1f\n        /* \"#utility.yul\":34573:34579   */\n      dup10\n        /* \"#utility.yul\":34569:34586   */\n      and\n        /* \"#utility.yul\":34558:34567   */\n      dup3\n        /* \"#utility.yul\":34539:34587   */\n      tag_459\n      jump\t// in\n    tag_804:\n        /* \"#utility.yul\":34531:34537   */\n      dup4\n        /* \"#utility.yul\":34524:34588   */\n      sstore\n        /* \"#utility.yul\":34446:34602   */\n      pop\n        /* \"#utility.yul\":34423:34602   */\n    tag_803:\n        /* \"#utility.yul\":34648:34649   */\n      0x01\n        /* \"#utility.yul\":34644:34645   */\n      0x02\n        /* \"#utility.yul\":34636:34642   */\n      dup9\n        /* \"#utility.yul\":34632:34646   */\n      mul\n        /* \"#utility.yul\":34628:34650   */\n      add\n        /* \"#utility.yul\":34622:34626   */\n      dup9\n        /* \"#utility.yul\":34615:34651   */\n      sstore\n        /* \"#utility.yul\":34050:34661   */\n      pop\n      pop\n      pop\n        /* \"#utility.yul\":34013:34900   */\n    tag_795:\n      pop\n        /* \"#utility.yul\":33603:34906   */\n      pop\n      pop\n      pop\n        /* \"#utility.yul\":33511:34906   */\n      pop\n      pop\n      jump\t// out\n        /* \"#utility.yul\":34912:35734   */\n    tag_220:\n        /* \"#utility.yul\":35147:35151   */\n      0x00\n        /* \"#utility.yul\":35185:35188   */\n      0x80\n        /* \"#utility.yul\":35174:35183   */\n      dup3\n        /* \"#utility.yul\":35170:35189   */\n      add\n        /* \"#utility.yul\":35162:35189   */\n      swap1\n      pop\n        /* \"#utility.yul\":35235:35244   */\n      dup2\n        /* \"#utility.yul\":35229:35233   */\n      dup2\n        /* \"#utility.yul\":35225:35245   */\n      sub\n        /* \"#utility.yul\":35221:35222   */\n      0x00\n        /* \"#utility.yul\":35210:35219   */\n      dup4\n        /* \"#utility.yul\":35206:35223   */\n      add\n        /* \"#utility.yul\":35199:35246   */\n      mstore\n        /* \"#utility.yul\":35263:35341   */\n      tag_806\n        /* \"#utility.yul\":35336:35340   */\n      dup2\n        /* \"#utility.yul\":35327:35333   */\n      dup8\n        /* \"#utility.yul\":35263:35341   */\n      tag_445\n      jump\t// in\n    tag_806:\n        /* \"#utility.yul\":35255:35341   */\n      swap1\n      pop\n        /* \"#utility.yul\":35388:35397   */\n      dup2\n        /* \"#utility.yul\":35382:35386   */\n      dup2\n        /* \"#utility.yul\":35378:35398   */\n      sub\n        /* \"#utility.yul\":35373:35375   */\n      0x20\n        /* \"#utility.yul\":35362:35371   */\n      dup4\n        /* \"#utility.yul\":35358:35376   */\n      add\n        /* \"#utility.yul\":35351:35399   */\n      mstore\n        /* \"#utility.yul\":35416:35494   */\n      tag_807\n        /* \"#utility.yul\":35489:35493   */\n      dup2\n        /* \"#utility.yul\":35480:35486   */\n      dup7\n        /* \"#utility.yul\":35416:35494   */\n      tag_445\n      jump\t// in\n    tag_807:\n        /* \"#utility.yul\":35408:35494   */\n      swap1\n      pop\n        /* \"#utility.yul\":35541:35550   */\n      dup2\n        /* \"#utility.yul\":35535:35539   */\n      dup2\n        /* \"#utility.yul\":35531:35551   */\n      sub\n        /* \"#utility.yul\":35526:35528   */\n      0x40\n        /* \"#utility.yul\":35515:35524   */\n      dup4\n        /* \"#utility.yul\":35511:35529   */\n      add\n        /* \"#utility.yul\":35504:35552   */\n      mstore\n        /* \"#utility.yul\":35569:35647   */\n      tag_808\n        /* \"#utility.yul\":35642:35646   */\n      dup2\n        /* \"#utility.yul\":35633:35639   */\n      dup6\n        /* \"#utility.yul\":35569:35647   */\n      tag_445\n      jump\t// in\n    tag_808:\n        /* \"#utility.yul\":35561:35647   */\n      swap1\n      pop\n        /* \"#utility.yul\":35657:35727   */\n      tag_809\n        /* \"#utility.yul\":35723:35725   */\n      0x60\n        /* \"#utility.yul\":35712:35721   */\n      dup4\n        /* \"#utility.yul\":35708:35726   */\n      add\n        /* \"#utility.yul\":35699:35705   */\n      dup5\n        /* \"#utility.yul\":35657:35727   */\n      tag_392\n      jump\t// in\n    tag_809:\n        /* \"#utility.yul\":34912:35734   */\n      swap6\n      swap5\n      pop\n      pop\n      pop\n      pop\n      pop\n      jump\t// out\n        /* \"#utility.yul\":35740:35914   */\n    tag_461:\n        /* \"#utility.yul\":35880:35906   */\n      0x43616e6e6f74207472616e7366657220746f2073656c662e0000000000000000\n        /* \"#utility.yul\":35876:35877   */\n      0x00\n        /* \"#utility.yul\":35868:35874   */\n      dup3\n        /* \"#utility.yul\":35864:35878   */\n      add\n        /* \"#utility.yul\":35857:35907   */\n      mstore\n        /* \"#utility.yul\":35740:35914   */\n      pop\n      jump\t// out\n        /* \"#utility.yul\":35920:36286   */\n    tag_462:\n        /* \"#utility.yul\":36062:36065   */\n      0x00\n        /* \"#utility.yul\":36083:36150   */\n      tag_812\n        /* \"#utility.yul\":36147:36149   */\n      0x18\n        /* \"#utility.yul\":36142:36145   */\n      dup4\n        /* \"#utility.yul\":36083:36150   */\n      tag_439\n      jump\t// in\n    tag_812:\n        /* \"#utility.yul\":36076:36150   */\n      swap2\n      pop\n        /* \"#utility.yul\":36159:36252   */\n      tag_813\n        /* \"#utility.yul\":36248:36251   */\n      dup3\n        /* \"#utility.yul\":36159:36252   */\n      tag_461\n      jump\t// in\n    tag_813:\n        /* \"#utility.yul\":36277:36279   */\n      0x20\n        /* \"#utility.yul\":36272:36275   */\n      dup3\n        /* \"#utility.yul\":36268:36280   */\n      add\n        /* \"#utility.yul\":36261:36280   */\n      swap1\n      pop\n        /* \"#utility.yul\":35920:36286   */\n      swap2\n      swap1\n      pop\n      jump\t// out\n        /* \"#utility.yul\":36292:36711   */\n    tag_240:\n        /* \"#utility.yul\":36458:36462   */\n      0x00\n        /* \"#utility.yul\":36496:36498   */\n      0x20\n        /* \"#utility.yul\":36485:36494   */\n      dup3\n        /* \"#utility.yul\":36481:36499   */\n      add\n        /* \"#utility.yul\":36473:36499   */\n      swap1\n      pop\n        /* \"#utility.yul\":36545:36554   */\n      dup2\n        /* \"#utility.yul\":36539:36543   */\n      dup2\n        /* \"#utility.yul\":36535:36555   */\n      sub\n        /* \"#utility.yul\":36531:36532   */\n      0x00\n        /* \"#utility.yul\":36520:36529   */\n      dup4\n        /* \"#utility.yul\":36516:36533   */\n      add\n        /* \"#utility.yul\":36509:36556   */\n      mstore\n        /* \"#utility.yul\":36573:36704   */\n      tag_815\n        /* \"#utility.yul\":36699:36703   */\n      dup2\n        /* \"#utility.yul\":36573:36704   */\n      tag_462\n      jump\t// in\n    tag_815:\n        /* \"#utility.yul\":36565:36704   */\n      swap1\n      pop\n        /* \"#utility.yul\":36292:36711   */\n      swap2\n      swap1\n      pop\n      jump\t// out\n        /* \"#utility.yul\":36717:38050   */\n    tag_262:\n        /* \"#utility.yul\":37074:37078   */\n      0x00\n        /* \"#utility.yul\":37112:37115   */\n      0xe0\n        /* \"#utility.yul\":37101:37110   */\n      dup3\n        /* \"#utility.yul\":37097:37116   */\n      add\n        /* \"#utility.yul\":37089:37116   */\n      swap1\n      pop\n        /* \"#utility.yul\":37162:37171   */\n      dup2\n        /* \"#utility.yul\":37156:37160   */\n      dup2\n        /* \"#utility.yul\":37152:37172   */\n      sub\n        /* \"#utility.yul\":37148:37149   */\n      0x00\n        /* \"#utility.yul\":37137:37146   */\n      dup4\n        /* \"#utility.yul\":37133:37150   */\n      add\n        /* \"#utility.yul\":37126:37173   */\n      mstore\n        /* \"#utility.yul\":37190:37268   */\n      tag_817\n        /* \"#utility.yul\":37263:37267   */\n      dup2\n        /* \"#utility.yul\":37254:37260   */\n      dup11\n        /* \"#utility.yul\":37190:37268   */\n      tag_445\n      jump\t// in\n    tag_817:\n        /* \"#utility.yul\":37182:37268   */\n      swap1\n      pop\n        /* \"#utility.yul\":37315:37324   */\n      dup2\n        /* \"#utility.yul\":37309:37313   */\n      dup2\n        /* \"#utility.yul\":37305:37325   */\n      sub\n        /* \"#utility.yul\":37300:37302   */\n      0x20\n        /* \"#utility.yul\":37289:37298   */\n      dup4\n        /* \"#utility.yul\":37285:37303   */\n      add\n        /* \"#utility.yul\":37278:37326   */\n      mstore\n        /* \"#utility.yul\":37343:37421   */\n      tag_818\n        /* \"#utility.yul\":37416:37420   */\n      dup2\n        /* \"#utility.yul\":37407:37413   */\n      dup10\n        /* \"#utility.yul\":37343:37421   */\n      tag_445\n      jump\t// in\n    tag_818:\n        /* \"#utility.yul\":37335:37421   */\n      swap1\n      pop\n        /* \"#utility.yul\":37468:37477   */\n      dup2\n        /* \"#utility.yul\":37462:37466   */\n      dup2\n        /* \"#utility.yul\":37458:37478   */\n      sub\n        /* \"#utility.yul\":37453:37455   */\n      0x40\n        /* \"#utility.yul\":37442:37451   */\n      dup4\n        /* \"#utility.yul\":37438:37456   */\n      add\n        /* \"#utility.yul\":37431:37479   */\n      mstore\n        /* \"#utility.yul\":37496:37574   */\n      tag_819\n        /* \"#utility.yul\":37569:37573   */\n      dup2\n        /* \"#utility.yul\":37560:37566   */\n      dup9\n        /* \"#utility.yul\":37496:37574   */\n      tag_445\n      jump\t// in\n    tag_819:\n        /* \"#utility.yul\":37488:37574   */\n      swap1\n      pop\n        /* \"#utility.yul\":37621:37630   */\n      dup2\n        /* \"#utility.yul\":37615:37619   */\n      dup2\n        /* \"#utility.yul\":37611:37631   */\n      sub\n        /* \"#utility.yul\":37606:37608   */\n      0x60\n        /* \"#utility.yul\":37595:37604   */\n      dup4\n        /* \"#utility.yul\":37591:37609   */\n      add\n        /* \"#utility.yul\":37584:37632   */\n      mstore\n        /* \"#utility.yul\":37649:37727   */\n      tag_820\n        /* \"#utility.yul\":37722:37726   */\n      dup2\n        /* \"#utility.yul\":37713:37719   */\n      dup8\n        /* \"#utility.yul\":37649:37727   */\n      tag_445\n      jump\t// in\n    tag_820:\n        /* \"#utility.yul\":37641:37727   */\n      swap1\n      pop\n        /* \"#utility.yul\":37775:37784   */\n      dup2\n        /* \"#utility.yul\":37769:37773   */\n      dup2\n        /* \"#utility.yul\":37765:37785   */\n      sub\n        /* \"#utility.yul\":37759:37762   */\n      0x80\n        /* \"#utility.yul\":37748:37757   */\n      dup4\n        /* \"#utility.yul\":37744:37763   */\n      add\n        /* \"#utility.yul\":37737:37786   */\n      mstore\n        /* \"#utility.yul\":37803:37881   */\n      tag_821\n        /* \"#utility.yul\":37876:37880   */\n      dup2\n        /* \"#utility.yul\":37867:37873   */\n      dup7\n        /* \"#utility.yul\":37803:37881   */\n      tag_445\n      jump\t// in\n    tag_821:\n        /* \"#utility.yul\":37795:37881   */\n      swap1\n      pop\n        /* \"#utility.yul\":37891:37962   */\n      tag_822\n        /* \"#utility.yul\":37957:37960   */\n      0xa0\n        /* \"#utility.yul\":37946:37955   */\n      dup4\n        /* \"#utility.yul\":37942:37961   */\n      add\n        /* \"#utility.yul\":37933:37939   */\n      dup6\n        /* \"#utility.yul\":37891:37962   */\n      tag_392\n      jump\t// in\n    tag_822:\n        /* \"#utility.yul\":37972:38043   */\n      tag_823\n        /* \"#utility.yul\":38038:38041   */\n      0xc0\n        /* \"#utility.yul\":38027:38036   */\n      dup4\n        /* \"#utility.yul\":38023:38042   */\n      add\n        /* \"#utility.yul\":38014:38020   */\n      dup5\n        /* \"#utility.yul\":37972:38043   */\n      tag_392\n      jump\t// in\n    tag_823:\n        /* \"#utility.yul\":36717:38050   */\n      swap9\n      swap8\n      pop\n      pop\n      pop\n      pop\n      pop\n      pop\n      pop\n      pop\n      jump\t// out\n        /* \"#utility.yul\":38056:38348   */\n    tag_463:\n        /* \"#utility.yul\":38196:38230   */\n      0x496e73756666696369656e742069737375656420737570706c792066726f6d20\n        /* \"#utility.yul\":38192:38193   */\n      0x00\n        /* \"#utility.yul\":38184:38190   */\n      dup3\n        /* \"#utility.yul\":38180:38194   */\n      add\n        /* \"#utility.yul\":38173:38231   */\n      mstore\n        /* \"#utility.yul\":38265:38299   */\n      0x746865207370656369666965642070726f647563657220616e64207665726966\n        /* \"#utility.yul\":38260:38262   */\n      0x20\n        /* \"#utility.yul\":38252:38258   */\n      dup3\n        /* \"#utility.yul\":38248:38263   */\n      add\n        /* \"#utility.yul\":38241:38300   */\n      mstore\n        /* \"#utility.yul\":38334:38340   */\n      0x6965722e00000000000000000000000000000000000000000000000000000000\n        /* \"#utility.yul\":38329:38331   */\n      0x40\n        /* \"#utility.yul\":38321:38327   */\n      dup3\n        /* \"#utility.yul\":38317:38332   */\n      add\n        /* \"#utility.yul\":38310:38341   */\n      mstore\n        /* \"#utility.yul\":38056:38348   */\n      pop\n      jump\t// out\n        /* \"#utility.yul\":38354:38720   */\n    tag_464:\n        /* \"#utility.yul\":38496:38499   */\n      0x00\n        /* \"#utility.yul\":38517:38584   */\n      tag_826\n        /* \"#utility.yul\":38581:38583   */\n      0x44\n        /* \"#utility.yul\":38576:38579   */\n      dup4\n        /* \"#utility.yul\":38517:38584   */\n      tag_439\n      jump\t// in\n    tag_826:\n        /* \"#utility.yul\":38510:38584   */\n      swap2\n      pop\n        /* \"#utility.yul\":38593:38686   */\n      tag_827\n        /* \"#utility.yul\":38682:38685   */\n      dup3\n        /* \"#utility.yul\":38593:38686   */\n      tag_463\n      jump\t// in\n    tag_827:\n        /* \"#utility.yul\":38711:38713   */\n      0x60\n        /* \"#utility.yul\":38706:38709   */\n      dup3\n        /* \"#utility.yul\":38702:38714   */\n      add\n        /* \"#utility.yul\":38695:38714   */\n      swap1\n      pop\n        /* \"#utility.yul\":38354:38720   */\n      swap2\n      swap1\n      pop\n      jump\t// out\n        /* \"#utility.yul\":38726:39145   */\n    tag_306:\n        /* \"#utility.yul\":38892:38896   */\n      0x00\n        /* \"#utility.yul\":38930:38932   */\n      0x20\n        /* \"#utility.yul\":38919:38928   */\n      dup3\n        /* \"#utility.yul\":38915:38933   */\n      add\n        /* \"#utility.yul\":38907:38933   */\n      swap1\n      pop\n        /* \"#utility.yul\":38979:38988   */\n      dup2\n        /* \"#utility.yul\":38973:38977   */\n      dup2\n        /* \"#utility.yul\":38969:38989   */\n      sub\n        /* \"#utility.yul\":38965:38966   */\n      0x00\n        /* \"#utility.yul\":38954:38963   */\n      dup4\n        /* \"#utility.yul\":38950:38967   */\n      add\n        /* \"#utility.yul\":38943:38990   */\n      mstore\n        /* \"#utility.yul\":39007:39138   */\n      tag_829\n        /* \"#utility.yul\":39133:39137   */\n      dup2\n        /* \"#utility.yul\":39007:39138   */\n      tag_464\n      jump\t// in\n    tag_829:\n        /* \"#utility.yul\":38999:39138   */\n      swap1\n      pop\n        /* \"#utility.yul\":38726:39145   */\n      swap2\n      swap1\n      pop\n      jump\t// out\n        /* \"#utility.yul\":39151:40282   */\n    tag_315:\n        /* \"#utility.yul\":39460:39464   */\n      0x00\n        /* \"#utility.yul\":39498:39501   */\n      0xc0\n        /* \"#utility.yul\":39487:39496   */\n      dup3\n        /* \"#utility.yul\":39483:39502   */\n      add\n        /* \"#utility.yul\":39475:39502   */\n      swap1\n      pop\n        /* \"#utility.yul\":39548:39557   */\n      dup2\n        /* \"#utility.yul\":39542:39546   */\n      dup2\n        /* \"#utility.yul\":39538:39558   */\n      sub\n        /* \"#utility.yul\":39534:39535   */\n      0x00\n        /* \"#utility.yul\":39523:39532   */\n      dup4\n        /* \"#utility.yul\":39519:39536   */\n      add\n        /* \"#utility.yul\":39512:39559   */\n      mstore\n        /* \"#utility.yul\":39576:39654   */\n      tag_831\n        /* \"#utility.yul\":39649:39653   */\n      dup2\n        /* \"#utility.yul\":39640:39646   */\n      dup10\n        /* \"#utility.yul\":39576:39654   */\n      tag_445\n      jump\t// in\n    tag_831:\n        /* \"#utility.yul\":39568:39654   */\n      swap1\n      pop\n        /* \"#utility.yul\":39701:39710   */\n      dup2\n        /* \"#utility.yul\":39695:39699   */\n      dup2\n        /* \"#utility.yul\":39691:39711   */\n      sub\n        /* \"#utility.yul\":39686:39688   */\n      0x20\n        /* \"#utility.yul\":39675:39684   */\n      dup4\n        /* \"#utility.yul\":39671:39689   */\n      add\n        /* \"#utility.yul\":39664:39712   */\n      mstore\n        /* \"#utility.yul\":39729:39807   */\n      tag_832\n        /* \"#utility.yul\":39802:39806   */\n      dup2\n        /* \"#utility.yul\":39793:39799   */\n      dup9\n        /* \"#utility.yul\":39729:39807   */\n      tag_445\n      jump\t// in\n    tag_832:\n        /* \"#utility.yul\":39721:39807   */\n      swap1\n      pop\n        /* \"#utility.yul\":39854:39863   */\n      dup2\n        /* \"#utility.yul\":39848:39852   */\n      dup2\n        /* \"#utility.yul\":39844:39864   */\n      sub\n        /* \"#utility.yul\":39839:39841   */\n      0x40\n        /* \"#utility.yul\":39828:39837   */\n      dup4\n        /* \"#utility.yul\":39824:39842   */\n      add\n        /* \"#utility.yul\":39817:39865   */\n      mstore\n        /* \"#utility.yul\":39882:39960   */\n      tag_833\n        /* \"#utility.yul\":39955:39959   */\n      dup2\n        /* \"#utility.yul\":39946:39952   */\n      dup8\n        /* \"#utility.yul\":39882:39960   */\n      tag_445\n      jump\t// in\n    tag_833:\n        /* \"#utility.yul\":39874:39960   */\n      swap1\n      pop\n        /* \"#utility.yul\":40007:40016   */\n      dup2\n        /* \"#utility.yul\":40001:40005   */\n      dup2\n        /* \"#utility.yul\":39997:40017   */\n      sub\n        /* \"#utility.yul\":39992:39994   */\n      0x60\n        /* \"#utility.yul\":39981:39990   */\n      dup4\n        /* \"#utility.yul\":39977:39995   */\n      add\n        /* \"#utility.yul\":39970:40018   */\n      mstore\n        /* \"#utility.yul\":40035:40113   */\n      tag_834\n        /* \"#utility.yul\":40108:40112   */\n      dup2\n        /* \"#utility.yul\":40099:40105   */\n      dup7\n        /* \"#utility.yul\":40035:40113   */\n      tag_445\n      jump\t// in\n    tag_834:\n        /* \"#utility.yul\":40027:40113   */\n      swap1\n      pop\n        /* \"#utility.yul\":40123:40194   */\n      tag_835\n        /* \"#utility.yul\":40189:40192   */\n      0x80\n        /* \"#utility.yul\":40178:40187   */\n      dup4\n        /* \"#utility.yul\":40174:40193   */\n      add\n        /* \"#utility.yul\":40165:40171   */\n      dup6\n        /* \"#utility.yul\":40123:40194   */\n      tag_392\n      jump\t// in\n    tag_835:\n        /* \"#utility.yul\":40204:40275   */\n      tag_836\n        /* \"#utility.yul\":40270:40273   */\n      0xa0\n        /* \"#utility.yul\":40259:40268   */\n      dup4\n        /* \"#utility.yul\":40255:40274   */\n      add\n        /* \"#utility.yul\":40246:40252   */\n      dup5\n        /* \"#utility.yul\":40204:40275   */\n      tag_392\n      jump\t// in\n    tag_836:\n        /* \"#utility.yul\":39151:40282   */\n      swap8\n      swap7\n      pop\n      pop\n      pop\n      pop\n      pop\n      pop\n      pop\n      jump\t// out\n        /* \"#utility.yul\":40288:40464   */\n    tag_465:\n        /* \"#utility.yul\":40428:40456   */\n      0x496e76616c6964206e6577206f776e657220616464726573732e000000000000\n        /* \"#utility.yul\":40424:40425   */\n      0x00\n        /* \"#utility.yul\":40416:40422   */\n      dup3\n        /* \"#utility.yul\":40412:40426   */\n      add\n        /* \"#utility.yul\":40405:40457   */\n      mstore\n        /* \"#utility.yul\":40288:40464   */\n      pop\n      jump\t// out\n        /* \"#utility.yul\":40470:40836   */\n    tag_466:\n        /* \"#utility.yul\":40612:40615   */\n      0x00\n        /* \"#utility.yul\":40633:40700   */\n      tag_839\n        /* \"#utility.yul\":40697:40699   */\n      0x1a\n        /* \"#utility.yul\":40692:40695   */\n      dup4\n        /* \"#utility.yul\":40633:40700   */\n      tag_439\n      jump\t// in\n    tag_839:\n        /* \"#utility.yul\":40626:40700   */\n      swap2\n      pop\n        /* \"#utility.yul\":40709:40802   */\n      tag_840\n        /* \"#utility.yul\":40798:40801   */\n      dup3\n        /* \"#utility.yul\":40709:40802   */\n      tag_465\n      jump\t// in\n    tag_840:\n        /* \"#utility.yul\":40827:40829   */\n      0x20\n        /* \"#utility.yul\":40822:40825   */\n      dup3\n        /* \"#utility.yul\":40818:40830   */\n      add\n        /* \"#utility.yul\":40811:40830   */\n      swap1\n      pop\n        /* \"#utility.yul\":40470:40836   */\n      swap2\n      swap1\n      pop\n      jump\t// out\n        /* \"#utility.yul\":40842:41261   */\n    tag_342:\n        /* \"#utility.yul\":41008:41012   */\n      0x00\n        /* \"#utility.yul\":41046:41048   */\n      0x20\n        /* \"#utility.yul\":41035:41044   */\n      dup3\n        /* \"#utility.yul\":41031:41049   */\n      add\n        /* \"#utility.yul\":41023:41049   */\n      swap1\n      pop\n        /* \"#utility.yul\":41095:41104   */\n      dup2\n        /* \"#utility.yul\":41089:41093   */\n      dup2\n        /* \"#utility.yul\":41085:41105   */\n      sub\n        /* \"#utility.yul\":41081:41082   */\n      0x00\n        /* \"#utility.yul\":41070:41079   */\n      dup4\n        /* \"#utility.yul\":41066:41083   */\n      add\n        /* \"#utility.yul\":41059:41106   */\n      mstore\n        /* \"#utility.yul\":41123:41254   */\n      tag_842\n        /* \"#utility.yul\":41249:41253   */\n      dup2\n        /* \"#utility.yul\":41123:41254   */\n      tag_466\n      jump\t// in\n    tag_842:\n        /* \"#utility.yul\":41115:41254   */\n      swap1\n      pop\n        /* \"#utility.yul\":40842:41261   */\n      swap2\n      swap1\n      pop\n      jump\t// out\n        /* \"#utility.yul\":41267:41447   */\n    tag_361:\n        /* \"#utility.yul\":41315:41392   */\n      0x4e487b7100000000000000000000000000000000000000000000000000000000\n        /* \"#utility.yul\":41312:41313   */\n      0x00\n        /* \"#utility.yul\":41305:41393   */\n      mstore\n        /* \"#utility.yul\":41412:41416   */\n      0x32\n        /* \"#utility.yul\":41409:41410   */\n      0x04\n        /* \"#utility.yul\":41402:41417   */\n      mstore\n        /* \"#utility.yul\":41436:41440   */\n      0x24\n        /* \"#utility.yul\":41433:41434   */\n      0x00\n        /* \"#utility.yul\":41426:41441   */\n      revert\n        /* \"#utility.yul\":41453:41539   */\n    tag_467:\n        /* \"#utility.yul\":41488:41495   */\n      0x00\n        /* \"#utility.yul\":41528:41532   */\n      0xff\n        /* \"#utility.yul\":41521:41526   */\n      dup3\n        /* \"#utility.yul\":41517:41533   */\n      and\n        /* \"#utility.yul\":41506:41533   */\n      swap1\n      pop\n        /* \"#utility.yul\":41453:41539   */\n      swap2\n      swap1\n      pop\n      jump\t// out\n        /* \"#utility.yul\":41545:41733   */\n    tag_369:\n        /* \"#utility.yul\":41583:41586   */\n      0x00\n        /* \"#utility.yul\":41602:41620   */\n      tag_846\n        /* \"#utility.yul\":41618:41619   */\n      dup3\n        /* \"#utility.yul\":41602:41620   */\n      tag_467\n      jump\t// in\n    tag_846:\n        /* \"#utility.yul\":41597:41620   */\n      swap2\n      pop\n        /* \"#utility.yul\":41634:41652   */\n      tag_847\n        /* \"#utility.yul\":41650:41651   */\n      dup4\n        /* \"#utility.yul\":41634:41652   */\n      tag_467\n      jump\t// in\n    tag_847:\n        /* \"#utility.yul\":41629:41652   */\n      swap3\n      pop\n        /* \"#utility.yul\":41675:41676   */\n      dup3\n        /* \"#utility.yul\":41672:41673   */\n      dup3\n        /* \"#utility.yul\":41668:41677   */\n      add\n        /* \"#utility.yul\":41661:41677   */\n      swap1\n      pop\n        /* \"#utility.yul\":41698:41702   */\n      0xff\n        /* \"#utility.yul\":41693:41696   */\n      dup2\n        /* \"#utility.yul\":41690:41703   */\n      gt\n        /* \"#utility.yul\":41687:41726   */\n      iszero\n      tag_848\n      jumpi\n        /* \"#utility.yul\":41706:41724   */\n      tag_849\n      tag_444\n      jump\t// in\n    tag_849:\n        /* \"#utility.yul\":41687:41726   */\n    tag_848:\n        /* \"#utility.yul\":41545:41733   */\n      swap3\n      swap2\n      pop\n      pop\n      jump\t// out\n        /* \"#utility.yul\":41739:41970   */\n    tag_381:\n        /* \"#utility.yul\":41777:41780   */\n      0x00\n        /* \"#utility.yul\":41800:41823   */\n      tag_851\n        /* \"#utility.yul\":41817:41822   */\n      dup3\n        /* \"#utility.yul\":41800:41823   */\n      tag_391\n      jump\t// in\n    tag_851:\n        /* \"#utility.yul\":41791:41823   */\n      swap2\n      pop\n        /* \"#utility.yul\":41845:41911   */\n      0x7fffffffffffffffffffffffffffffffffffffffffffffffffffffffffffffff\n        /* \"#utility.yul\":41838:41843   */\n      dup3\n        /* \"#utility.yul\":41835:41912   */\n      sub\n        /* \"#utility.yul\":41832:41935   */\n      tag_852\n      jumpi\n        /* \"#utility.yul\":41915:41933   */\n      tag_853\n      tag_444\n      jump\t// in\n    tag_853:\n        /* \"#utility.yul\":41832:41935   */\n    tag_852:\n        /* \"#utility.yul\":41962:41963   */\n      0x01\n        /* \"#utility.yul\":41955:41960   */\n      dup3\n        /* \"#utility.yul\":41951:41964   */\n      add\n        /* \"#utility.yul\":41944:41964   */\n      swap1\n      pop\n        /* \"#utility.yul\":41739:41970   */\n      swap2\n      swap1\n      pop\n      jump\t// out\n        /* \"#utility.yul\":41976:43107   */\n    tag_390:\n        /* \"#utility.yul\":42285:42289   */\n      0x00\n        /* \"#utility.yul\":42323:42326   */\n      0xc0\n        /* \"#utility.yul\":42312:42321   */\n      dup3\n        /* \"#utility.yul\":42308:42327   */\n      add\n        /* \"#utility.yul\":42300:42327   */\n      swap1\n      pop\n        /* \"#utility.yul\":42337:42406   */\n      tag_855\n        /* \"#utility.yul\":42403:42404   */\n      0x00\n        /* \"#utility.yul\":42392:42401   */\n      dup4\n        /* \"#utility.yul\":42388:42405   */\n      add\n        /* \"#utility.yul\":42379:42385   */\n      dup10\n        /* \"#utility.yul\":42337:42406   */\n      tag_392\n      jump\t// in\n    tag_855:\n        /* \"#utility.yul\":42453:42462   */\n      dup2\n        /* \"#utility.yul\":42447:42451   */\n      dup2\n        /* \"#utility.yul\":42443:42463   */\n      sub\n        /* \"#utility.yul\":42438:42440   */\n      0x20\n        /* \"#utility.yul\":42427:42436   */\n      dup4\n        /* \"#utility.yul\":42423:42441   */\n      add\n        /* \"#utility.yul\":42416:42464   */\n      mstore\n        /* \"#utility.yul\":42481:42559   */\n      tag_856\n        /* \"#utility.yul\":42554:42558   */\n      dup2\n        /* \"#utility.yul\":42545:42551   */\n      dup9\n        /* \"#utility.yul\":42481:42559   */\n      tag_445\n      jump\t// in\n    tag_856:\n        /* \"#utility.yul\":42473:42559   */\n      swap1\n      pop\n        /* \"#utility.yul\":42606:42615   */\n      dup2\n        /* \"#utility.yul\":42600:42604   */\n      dup2\n        /* \"#utility.yul\":42596:42616   */\n      sub\n        /* \"#utility.yul\":42591:42593   */\n      0x40\n        /* \"#utility.yul\":42580:42589   */\n      dup4\n        /* \"#utility.yul\":42576:42594   */\n      add\n        /* \"#utility.yul\":42569:42617   */\n      mstore\n        /* \"#utility.yul\":42634:42712   */\n      tag_857\n        /* \"#utility.yul\":42707:42711   */\n      dup2\n        /* \"#utility.yul\":42698:42704   */\n      dup8\n        /* \"#utility.yul\":42634:42712   */\n      tag_445\n      jump\t// in\n    tag_857:\n        /* \"#utility.yul\":42626:42712   */\n      swap1\n      pop\n        /* \"#utility.yul\":42759:42768   */\n      dup2\n        /* \"#utility.yul\":42753:42757   */\n      dup2\n        /* \"#utility.yul\":42749:42769   */\n      sub\n        /* \"#utility.yul\":42744:42746   */\n      0x60\n        /* \"#utility.yul\":42733:42742   */\n      dup4\n        /* \"#utility.yul\":42729:42747   */\n      add\n        /* \"#utility.yul\":42722:42770   */\n      mstore\n        /* \"#utility.yul\":42787:42865   */\n      tag_858\n        /* \"#utility.yul\":42860:42864   */\n      dup2\n        /* \"#utility.yul\":42851:42857   */\n      dup7\n        /* \"#utility.yul\":42787:42865   */\n      tag_445\n      jump\t// in\n    tag_858:\n        /* \"#utility.yul\":42779:42865   */\n      swap1\n      pop\n        /* \"#utility.yul\":42913:42922   */\n      dup2\n        /* \"#utility.yul\":42907:42911   */\n      dup2\n        /* \"#utility.yul\":42903:42923   */\n      sub\n        /* \"#utility.yul\":42897:42900   */\n      0x80\n        /* \"#utility.yul\":42886:42895   */\n      dup4\n        /* \"#utility.yul\":42882:42901   */\n      add\n        /* \"#utility.yul\":42875:42924   */\n      mstore\n        /* \"#utility.yul\":42941:43019   */\n      tag_859\n        /* \"#utility.yul\":43014:43018   */\n      dup2\n        /* \"#utility.yul\":43005:43011   */\n      dup6\n        /* \"#utility.yul\":42941:43019   */\n      tag_445\n      jump\t// in\n    tag_859:\n        /* \"#utility.yul\":42933:43019   */\n      swap1\n      pop\n        /* \"#utility.yul\":43029:43100   */\n      tag_860\n        /* \"#utility.yul\":43095:43098   */\n      0xa0\n        /* \"#utility.yul\":43084:43093   */\n      dup4\n        /* \"#utility.yul\":43080:43099   */\n      add\n        /* \"#utility.yul\":43071:43077   */\n      dup5\n        /* \"#utility.yul\":43029:43100   */\n      tag_392\n      jump\t// in\n    tag_860:\n        /* \"#utility.yul\":41976:43107   */\n      swap8\n      swap7\n      pop\n      pop\n      pop\n      pop\n      pop\n      pop\n      pop\n      jump\t// out\n\n    auxdata: 0xa264697066735822122023fd005a133769a7a2f0726d47b4e1bc3345109488f0df3948a3b3e6963f09ab64736f6c63430008190033\n}\n",
				"bytecode": {
					"linkReferences": {},
					"object": "6080604052348015600e575f80fd5b50335f806101000a81548173ffffffffffffffffffffffffffffffffffffffff021916908373ffffffffffffffffffffffffffffffffffffffff1602179055506134958061005b5f395ff3fe608060405234801561000f575f80fd5b5060043610610135575f3560e01c80637843bb79116100b6578063a81e53d31161007a578063a81e53d3146103c1578063c4e41b22146103df578063e80a7eb9146103fd578063f2fde38b1461041b578063f45f147c1461044b578063fd6befb21461047b57610135565b80637843bb7914610307578063789237e614610325578063893d20e8146103555780639d7b8e68146103735780639e41b4061461039157610135565b806347c44529116100fd57806347c44529146102175780635a97595c146102475780636440f6b21461027757806364611bd6146102a757806365895f95146102d757610135565b8063072652fe146101395780631d37fd6814610157578063207573f01461018757806337324a4c146101b75780633b7479e0146101e7575b5f80fd5b6101416104ab565b60405161014e9190611ee1565b60405180910390f35b610171600480360381019061016c9190611f35565b6104b4565b60405161017e91906120b9565b60405180910390f35b6101a1600480360381019061019c9190612205565b610747565b6040516101ae9190612295565b60405180910390f35b6101d160048036038101906101cc91906122ae565b6107a7565b6040516101de9190612295565b60405180910390f35b61020160048036038101906101fc9190612395565b610ac6565b60405161020e9190612295565b60405180910390f35b610231600480360381019061022c919061244d565b610e7e565b60405161023e9190611ee1565b60405180910390f35b610261600480360381019061025c919061244d565b610ead565b60405161026e9190612295565b60405180910390f35b610291600480360381019061028c9190612494565b610ee8565b60405161029e9190612295565b60405180910390f35b6102c160048036038101906102bc91906125bd565b61128c565b6040516102ce9190611ee1565b60405180910390f35b6102f160048036038101906102ec919061244d565b61132a565b6040516102fe9190612739565b60405180910390f35b61030f6113a6565b60405161031c9190611ee1565b60405180910390f35b61033f600480360381019061033a919061244d565b6113af565b60405161034c9190612814565b60405180910390f35b61035d6114a9565b60405161036a9190612873565b60405180910390f35b61037b6114d0565b6040516103889190611ee1565b60405180910390f35b6103ab60048036038101906103a6919061288c565b6114d9565b6040516103b89190612295565b60405180910390f35b6103c961174e565b6040516103d69190612814565b60405180910390f35b6103e7611822565b6040516103f49190611ee1565b60405180910390f35b61040561182b565b6040516104129190612814565b60405180910390f35b610435600480360381019061043091906129af565b6118ff565b6040516104429190612295565b60405180910390f35b6104656004803603810190610460919061244d565b611abd565b6040516104729190612295565b60405180910390f35b610495600480360381019061049091906129da565b611af8565b6040516104a29190612abe565b60405180910390f35b5f600254905090565b6104bc611e6a565b600a5f8381526020019081526020015f20604051806101000160405290815f82015481526020016001820180546104f290612b04565b80601f016020809104026020016040519081016040528092919081815260200182805461051e90612b04565b80156105695780601f1061054057610100808354040283529160200191610569565b820191905f5260205f20905b81548152906001019060200180831161054c57829003601f168201915b5050505050815260200160028201805461058290612b04565b80601f01602080910402602001604051908101604052809291908181526020018280546105ae90612b04565b80156105f95780601f106105d0576101008083540402835291602001916105f9565b820191905f5260205f20905b8154815290600101906020018083116105dc57829003601f168201915b5050505050815260200160038201805461061290612b04565b80601f016020809104026020016040519081016040528092919081815260200182805461063e90612b04565b80156106895780601f1061066057610100808354040283529160200191610689565b820191905f5260205f20905b81548152906001019060200180831161066c57829003601f168201915b505050505081526020016004820180546106a290612b04565b80601f01602080910402602001604051908101604052809291908181526020018280546106ce90612b04565b80156107195780601f106106f057610100808354040283529160200191610719565b820191905f5260205f20905b8154815290600101906020018083116106fc57829003601f168201915b5050505050815260200160058201548152602001600682015481526020016007820154815250509050919050565b5f600861075384611b9f565b6040516107609190612b6e565b908152602001604051809103902061077783611b9f565b6040516107849190612b6e565b90815260200160405180910390205f9054906101000a900460ff16905092915050565b5f805f9054906101000a900473ffffffffffffffffffffffffffffffffffffffff1673ffffffffffffffffffffffffffffffffffffffff163373ffffffffffffffffffffffffffffffffffffffff1614610836576040517f08c379a000000000000000000000000000000000000000000000000000000000815260040161082d90612c04565b60405180910390fd5b5f61084087611b9f565b90505f61084c87611b9f565b90505f61085887611b9f565b90505f61086487611b9f565b905085600c856040516108779190612b6e565b9081526020016040518091039020846040516108939190612b6e565b9081526020016040518091039020836040516108af9190612b6e565b9081526020016040518091039020826040516108cb9190612b6e565b908152602001604051809103902054121561091b576040517f08c379a000000000000000000000000000000000000000000000000000000000815260040161091290612c6c565b60405180910390fd5b85600c8560405161092c9190612b6e565b9081526020016040518091039020846040516109489190612b6e565b9081526020016040518091039020836040516109649190612b6e565b9081526020016040518091039020826040516109809190612b6e565b90815260200160405180910390205f82825461099c9190612cb7565b9250508190555085600d856040516109b49190612b6e565b90815260200160405180910390205f8282546109d09190612cb7565b92505081905550856006846040516109e89190612b6e565b908152602001604051809103902083604051610a049190612b6e565b908152602001604051809103902082604051610a209190612b6e565b90815260200160405180910390206002015f828254610a3f9190612cf7565b925050819055508560015f828254610a579190612cb7565b925050819055508560025f828254610a6f9190612cf7565b925050819055507f071a264e53b40e97de0acd1c1884477a24d4165acbadd4955cc8b22ab40dc02c848484848a604051610aad959493929190612d70565b60405180910390a1600194505050505095945050505050565b5f805f9054906101000a900473ffffffffffffffffffffffffffffffffffffffff1673ffffffffffffffffffffffffffffffffffffffff163373ffffffffffffffffffffffffffffffffffffffff1614610b55576040517f08c379a0000000000000000000000000000000000000000000000000000000008152600401610b4c90612c04565b60405180910390fd5b5f610b5f86611b9f565b90505f610b6b86611b9f565b90505f610b7786611b9f565b9050610b8281610ead565b610bef57600f81908060018154018082558091505060019003905f5260205f20015f909190919091509081610bb79190612f7a565b506001600e82604051610bca9190612b6e565b90815260200160405180910390205f6101000a81548160ff0219169083151502179055505b8460015f828254610c009190612cf7565b925050819055505f600684604051610c189190612b6e565b908152602001604051809103902083604051610c349190612b6e565b908152602001604051809103902082604051610c509190612b6e565b9081526020016040518091039020905085815f015f828254610c729190612cf7565b9250508190555085816001015f828254610c8c9190612cf7565b925050819055505f816002015f828254610ca69190612cf7565b92505081905550600784604051610cbd9190612b6e565b90815260200160405180910390205f9054906101000a900460ff16610d4557600584908060018154018082558091505060019003905f5260205f20015f909190919091509081610d0d9190612f7a565b506001600785604051610d209190612b6e565b90815260200160405180910390205f6101000a81548160ff0219169083151502179055505b600884604051610d559190612b6e565b908152602001604051809103902083604051610d719190612b6e565b90815260200160405180910390205f9054906101000a900460ff16610e3157600984604051610da09190612b6e565b908152602001604051809103902083908060018154018082558091505060019003905f5260205f20015f909190919091509081610ddd9190612f7a565b506001600885604051610df09190612b6e565b908152602001604051809103902084604051610e0c9190612b6e565b90815260200160405180910390205f6101000a81548160ff0219169083151502179055505b7fe12950f72ff2ec319916813b0c8bbad49dc1a8dcb7e539beb82a3292b51944f784848489604051610e669493929190613049565b60405180910390a16001945050505050949350505050565b5f600d610e8a83611b9f565b604051610e979190612b6e565b9081526020016040518091039020549050919050565b5f600e610eb983611b9f565b604051610ec69190612b6e565b90815260200160405180910390205f9054906101000a900460ff169050919050565b5f805f9054906101000a900473ffffffffffffffffffffffffffffffffffffffff1673ffffffffffffffffffffffffffffffffffffffff163373ffffffffffffffffffffffffffffffffffffffff1614610f77576040517f08c379a0000000000000000000000000000000000000000000000000000000008152600401610f6e90612c04565b60405180910390fd5b5f610f8189611b9f565b90505f610f8d89611b9f565b90505f610f9989611b9f565b90505f610fa589611b9f565b90505f610fb189611b9f565b9050610fbd8585611c9b565b610ffc576040517f08c379a0000000000000000000000000000000000000000000000000000000008152600401610ff3906130eb565b60405180910390fd5b87600c8660405161100d9190612b6e565b9081526020016040518091039020846040516110299190612b6e565b9081526020016040518091039020836040516110459190612b6e565b9081526020016040518091039020826040516110619190612b6e565b90815260200160405180910390205412156110b1576040517f08c379a00000000000000000000000000000000000000000000000000000000081526004016110a890612c6c565b60405180910390fd5b87600c866040516110c29190612b6e565b9081526020016040518091039020846040516110de9190612b6e565b9081526020016040518091039020836040516110fa9190612b6e565b9081526020016040518091039020826040516111169190612b6e565b90815260200160405180910390205f8282546111329190612cb7565b9250508190555087600d8660405161114a9190612b6e565b90815260200160405180910390205f8282546111669190612cb7565b9250508190555087600c8560405161117e9190612b6e565b90815260200160405180910390208460405161119a9190612b6e565b9081526020016040518091039020836040516111b69190612b6e565b9081526020016040518091039020826040516111d29190612b6e565b90815260200160405180910390205f8282546111ee9190612cf7565b9250508190555087600d856040516112069190612b6e565b90815260200160405180910390205f8282546112229190612cf7565b925050819055507f4bf3d601ea57d080a44151e6faaca262f82f23cd8144c59ad5cc4a708831744b85858585858d8d6040516112649796959493929190613109565b60405180910390a161127a848484848c8c611cf3565b95505050505050979650505050505050565b5f600c61129886611b9f565b6040516112a59190612b6e565b90815260200160405180910390206112bc85611b9f565b6040516112c99190612b6e565b90815260200160405180910390206112e084611b9f565b6040516112ed9190612b6e565b908152602001604051809103902061130483611b9f565b6040516113119190612b6e565b9081526020016040518091039020549050949350505050565b6060600b61133783611b9f565b6040516113449190612b6e565b908152602001604051809103902080548060200260200160405190810160405280929190818152602001828054801561139a57602002820191905f5260205f20905b815481526020019060010190808311611386575b50505050509050919050565b5f600454905090565b606060096113bc83611b9f565b6040516113c99190612b6e565b9081526020016040518091039020805480602002602001604051908101604052809291908181526020015f905b8282101561149e578382905f5260205f2001805461141390612b04565b80601f016020809104026020016040519081016040528092919081815260200182805461143f90612b04565b801561148a5780601f106114615761010080835404028352916020019161148a565b820191905f5260205f20905b81548152906001019060200180831161146d57829003601f168201915b5050505050815260200190600101906113f6565b505050509050919050565b5f805f9054906101000a900473ffffffffffffffffffffffffffffffffffffffff16905090565b5f600354905090565b5f805f9054906101000a900473ffffffffffffffffffffffffffffffffffffffff1673ffffffffffffffffffffffffffffffffffffffff163373ffffffffffffffffffffffffffffffffffffffff1614611568576040517f08c379a000000000000000000000000000000000000000000000000000000000815260040161155f90612c04565b60405180910390fd5b5f61157288611b9f565b90505f61157e88611b9f565b90505f61158a88611b9f565b90505f61159688611b9f565b9050866006846040516115a99190612b6e565b9081526020016040518091039020836040516115c59190612b6e565b9081526020016040518091039020826040516115e19190612b6e565b9081526020016040518091039020600101541215611634576040517f08c379a000000000000000000000000000000000000000000000000000000000815260040161162b9061322f565b60405180910390fd5b866006846040516116459190612b6e565b9081526020016040518091039020836040516116619190612b6e565b90815260200160405180910390208260405161167d9190612b6e565b90815260200160405180910390206001015f82825461169c9190612cb7565b9250508190555086600d856040516116b49190612b6e565b90815260200160405180910390205f8282546116d09190612cf7565b925050819055508660035f8282546116e89190612cf7565b925050819055507f1b54ef0cccbeab6ff65480564fd3654638160f7c56ee2e640cd276661f32ea36848484848b8b6040516117289695949392919061324d565b60405180910390a161173e848484848b8b611cf3565b9450505050509695505050505050565b6060600f805480602002602001604051908101604052809291908181526020015f905b82821015611819578382905f5260205f2001805461178e90612b04565b80601f01602080910402602001604051908101604052809291908181526020018280546117ba90612b04565b80156118055780601f106117dc57610100808354040283529160200191611805565b820191905f5260205f20905b8154815290600101906020018083116117e857829003601f168201915b505050505081526020019060010190611771565b50505050905090565b5f600154905090565b60606005805480602002602001604051908101604052809291908181526020015f905b828210156118f6578382905f5260205f2001805461186b90612b04565b80601f016020809104026020016040519081016040528092919081815260200182805461189790612b04565b80156118e25780601f106118b9576101008083540402835291602001916118e2565b820191905f5260205f20905b8154815290600101906020018083116118c557829003601f168201915b50505050508152602001906001019061184e565b50505050905090565b5f805f9054906101000a900473ffffffffffffffffffffffffffffffffffffffff1673ffffffffffffffffffffffffffffffffffffffff163373ffffffffffffffffffffffffffffffffffffffff161461198e576040517f08c379a000000000000000000000000000000000000000000000000000000000815260040161198590612c04565b60405180910390fd5b5f73ffffffffffffffffffffffffffffffffffffffff168273ffffffffffffffffffffffffffffffffffffffff16036119fc576040517f08c379a00000000000000000000000000000000000000000000000000000000081526004016119f390613312565b60405180910390fd5b815f806101000a81548173ffffffffffffffffffffffffffffffffffffffff021916908373ffffffffffffffffffffffffffffffffffffffff1602179055508173ffffffffffffffffffffffffffffffffffffffff165f8054906101000a900473ffffffffffffffffffffffffffffffffffffffff1673ffffffffffffffffffffffffffffffffffffffff167f8be0079c531659141344cd1fd0a4f28419497f9722a3daafe3b4186f6b6457e060405160405180910390a360019050919050565b5f6007611ac983611b9f565b604051611ad69190612b6e565b90815260200160405180910390205f9054906101000a900460ff169050919050565b611b00611eab565b6006611b0b85611b9f565b604051611b189190612b6e565b9081526020016040518091039020611b2f84611b9f565b604051611b3c9190612b6e565b9081526020016040518091039020611b5383611b9f565b604051611b609190612b6e565b90815260200160405180910390206040518060600160405290815f82015481526020016001820154815260200160028201548152505090509392505050565b60605f8290505f815190505f5b81811015611c90576041838281518110611bc957611bc8613330565b5b602001015160f81c60f81b60f81c60ff1610158015611c0c5750605a838281518110611bf857611bf7613330565b5b602001015160f81c60f81b60f81c60ff1611155b15611c83576020838281518110611c2657611c25613330565b5b602001015160f81c60f81b60f81c611c3e9190613369565b60f81b838281518110611c5457611c53613330565b5b60200101907effffffffffffffffffffffffffffffffffffffffffffffffffffffffffffff191690815f1a9053505b8080600101915050611bac565b508192505050919050565b5f81604051602001611cad9190612b6e565b6040516020818303038152906040528051906020012083604051602001611cd49190612b6e565b6040516020818303038152906040528051906020012014905092915050565b5f80611cfe88611b9f565b90505f611d0a88611b9f565b90505f611d1688611b9f565b90505f611d2288611b9f565b905060045f815480929190611d369061339d565b91905055505f600a5f60045481526020019081526020015f209050600454815f018190555084816001019081611d6c9190612f7a565b5083816002019081611d7e9190612f7a565b5082816003019081611d909190612f7a565b5081816004019081611da29190612f7a565b5087816005015f828254611db69190612cf7565b92505081905550868160060181905550428160070181905550600b85604051611ddf9190612b6e565b9081526020016040518091039020815f0154908060018154018082558091505060019003905f5260205f20015f90919091909150557fd74e30340db693955384afdcf8b3879b8e97d050e96ad43bddae4356682f7f3b600454868686868d604051611e4f969594939291906133e4565b60405180910390a16001955050505050509695505050505050565b6040518061010001604052805f8152602001606081526020016060815260200160608152602001606081526020015f81526020015f81526020015f81525090565b60405180606001604052805f81526020015f81526020015f81525090565b5f819050919050565b611edb81611ec9565b82525050565b5f602082019050611ef45f830184611ed2565b92915050565b5f604051905090565b5f80fd5b5f80fd5b611f1481611ec9565b8114611f1e575f80fd5b50565b5f81359050611f2f81611f0b565b92915050565b5f60208284031215611f4a57611f49611f03565b5b5f611f5784828501611f21565b91505092915050565b611f6981611ec9565b82525050565b5f81519050919050565b5f82825260208201905092915050565b8281835e5f83830152505050565b5f601f19601f8301169050919050565b5f611fb182611f6f565b611fbb8185611f79565b9350611fcb818560208601611f89565b611fd481611f97565b840191505092915050565b5f819050919050565b611ff181611fdf565b82525050565b5f61010083015f83015161200d5f860182611f60565b50602083015184820360208601526120258282611fa7565b9150506040830151848203604086015261203f8282611fa7565b915050606083015184820360608601526120598282611fa7565b915050608083015184820360808601526120738282611fa7565b91505060a083015161208860a0860182611f60565b5060c083015161209b60c0860182611f60565b5060e08301516120ae60e0860182611fe8565b508091505092915050565b5f6020820190508181035f8301526120d18184611ff7565b905092915050565b5f80fd5b5f80fd5b7f4e487b71000000000000000000000000000000000000000000000000000000005f52604160045260245ffd5b61211782611f97565b810181811067ffffffffffffffff82111715612136576121356120e1565b5b80604052505050565b5f612148611efa565b9050612154828261210e565b919050565b5f67ffffffffffffffff821115612173576121726120e1565b5b61217c82611f97565b9050602081019050919050565b828183375f83830152505050565b5f6121a96121a484612159565b61213f565b9050828152602081018484840111156121c5576121c46120dd565b5b6121d0848285612189565b509392505050565b5f82601f8301126121ec576121eb6120d9565b5b81356121fc848260208601612197565b91505092915050565b5f806040838503121561221b5761221a611f03565b5b5f83013567ffffffffffffffff81111561223857612237611f07565b5b612244858286016121d8565b925050602083013567ffffffffffffffff81111561226557612264611f07565b5b612271858286016121d8565b9150509250929050565b5f8115159050919050565b61228f8161227b565b82525050565b5f6020820190506122a85f830184612286565b92915050565b5f805f805f60a086880312156122c7576122c6611f03565b5b5f86013567ffffffffffffffff8111156122e4576122e3611f07565b5b6122f0888289016121d8565b955050602086013567ffffffffffffffff81111561231157612310611f07565b5b61231d888289016121d8565b945050604086013567ffffffffffffffff81111561233e5761233d611f07565b5b61234a888289016121d8565b935050606086013567ffffffffffffffff81111561236b5761236a611f07565b5b612377888289016121d8565b925050608061238888828901611f21565b9150509295509295909350565b5f805f80608085870312156123ad576123ac611f03565b5b5f85013567ffffffffffffffff8111156123ca576123c9611f07565b5b6123d6878288016121d8565b945050602085013567ffffffffffffffff8111156123f7576123f6611f07565b5b612403878288016121d8565b935050604085013567ffffffffffffffff81111561242457612423611f07565b5b612430878288016121d8565b925050606061244187828801611f21565b91505092959194509250565b5f6020828403121561246257612461611f03565b5b5f82013567ffffffffffffffff81111561247f5761247e611f07565b5b61248b848285016121d8565b91505092915050565b5f805f805f805f60e0888a0312156124af576124ae611f03565b5b5f88013567ffffffffffffffff8111156124cc576124cb611f07565b5b6124d88a828b016121d8565b975050602088013567ffffffffffffffff8111156124f9576124f8611f07565b5b6125058a828b016121d8565b965050604088013567ffffffffffffffff81111561252657612525611f07565b5b6125328a828b016121d8565b955050606088013567ffffffffffffffff81111561255357612552611f07565b5b61255f8a828b016121d8565b945050608088013567ffffffffffffffff8111156125805761257f611f07565b5b61258c8a828b016121d8565b93505060a061259d8a828b01611f21565b92505060c06125ae8a828b01611f21565b91505092959891949750929550565b5f805f80608085870312156125d5576125d4611f03565b5b5f85013567ffffffffffffffff8111156125f2576125f1611f07565b5b6125fe878288016121d8565b945050602085013567ffffffffffffffff81111561261f5761261e611f07565b5b61262b878288016121d8565b935050604085013567ffffffffffffffff81111561264c5761264b611f07565b5b612658878288016121d8565b925050606085013567ffffffffffffffff81111561267957612678611f07565b5b612685878288016121d8565b91505092959194509250565b5f81519050919050565b5f82825260208201905092915050565b5f819050602082019050919050565b5f6126c58383611f60565b60208301905092915050565b5f602082019050919050565b5f6126e782612691565b6126f1818561269b565b93506126fc836126ab565b805f5b8381101561272c57815161271388826126ba565b975061271e836126d1565b9250506001810190506126ff565b5085935050505092915050565b5f6020820190508181035f83015261275181846126dd565b905092915050565b5f81519050919050565b5f82825260208201905092915050565b5f819050602082019050919050565b5f61278d8383611fa7565b905092915050565b5f602082019050919050565b5f6127ab82612759565b6127b58185612763565b9350836020820285016127c785612773565b805f5b8581101561280257848403895281516127e38582612782565b94506127ee83612795565b925060208a019950506001810190506127ca565b50829750879550505050505092915050565b5f6020820190508181035f83015261282c81846127a1565b905092915050565b5f73ffffffffffffffffffffffffffffffffffffffff82169050919050565b5f61285d82612834565b9050919050565b61286d81612853565b82525050565b5f6020820190506128865f830184612864565b92915050565b5f805f805f8060c087890312156128a6576128a5611f03565b5b5f87013567ffffffffffffffff8111156128c3576128c2611f07565b5b6128cf89828a016121d8565b965050602087013567ffffffffffffffff8111156128f0576128ef611f07565b5b6128fc89828a016121d8565b955050604087013567ffffffffffffffff81111561291d5761291c611f07565b5b61292989828a016121d8565b945050606087013567ffffffffffffffff81111561294a57612949611f07565b5b61295689828a016121d8565b935050608061296789828a01611f21565b92505060a061297889828a01611f21565b9150509295509295509295565b61298e81612853565b8114612998575f80fd5b50565b5f813590506129a981612985565b92915050565b5f602082840312156129c4576129c3611f03565b5b5f6129d18482850161299b565b91505092915050565b5f805f606084860312156129f1576129f0611f03565b5b5f84013567ffffffffffffffff811115612a0e57612a0d611f07565b5b612a1a868287016121d8565b935050602084013567ffffffffffffffff811115612a3b57612a3a611f07565b5b612a47868287016121d8565b925050604084013567ffffffffffffffff811115612a6857612a67611f07565b5b612a74868287016121d8565b9150509250925092565b606082015f820151612a925f850182611f60565b506020820151612aa56020850182611f60565b506040820151612ab86040850182611f60565b50505050565b5f606082019050612ad15f830184612a7e565b92915050565b7f4e487b71000000000000000000000000000000000000000000000000000000005f52602260045260245ffd5b5f6002820490506001821680612b1b57607f821691505b602082108103612b2e57612b2d612ad7565b5b50919050565b5f81905092915050565b5f612b4882611f6f565b612b528185612b34565b9350612b62818560208601611f89565b80840191505092915050565b5f612b798284612b3e565b915081905092915050565b5f82825260208201905092915050565b7f4f6e6c792074686520636f6e7472616374206f776e65722063616e2063616c6c5f8201527f20746869732066756e6374696f6e2e0000000000000000000000000000000000602082015250565b5f612bee602f83612b84565b9150612bf982612b94565b604082019050919050565b5f6020820190508181035f830152612c1b81612be2565b9050919050565b7f496e73756666696369656e742062616c616e63650000000000000000000000005f82015250565b5f612c56601483612b84565b9150612c6182612c22565b602082019050919050565b5f6020820190508181035f830152612c8381612c4a565b9050919050565b7f4e487b71000000000000000000000000000000000000000000000000000000005f52601160045260245ffd5b5f612cc182611ec9565b9150612ccc83611ec9565b925082820390508181125f8412168282135f851215161715612cf157612cf0612c8a565b5b92915050565b5f612d0182611ec9565b9150612d0c83611ec9565b92508282019050828112155f8312168382125f841215161715612d3257612d31612c8a565b5b92915050565b5f612d4282611f6f565b612d4c8185612b84565b9350612d5c818560208601611f89565b612d6581611f97565b840191505092915050565b5f60a0820190508181035f830152612d888188612d38565b90508181036020830152612d9c8187612d38565b90508181036040830152612db08186612d38565b90508181036060830152612dc48185612d38565b9050612dd36080830184611ed2565b9695505050505050565b5f819050815f5260205f209050919050565b5f6020601f8301049050919050565b5f82821b905092915050565b5f60088302612e397fffffffffffffffffffffffffffffffffffffffffffffffffffffffffffffffff82612dfe565b612e438683612dfe565b95508019841693508086168417925050509392505050565b5f819050919050565b5f612e7e612e79612e7484611fdf565b612e5b565b611fdf565b9050919050565b5f819050919050565b612e9783612e64565b612eab612ea382612e85565b848454612e0a565b825550505050565b5f90565b612ebf612eb3565b612eca818484612e8e565b505050565b5b81811015612eed57612ee25f82612eb7565b600181019050612ed0565b5050565b601f821115612f3257612f0381612ddd565b612f0c84612def565b81016020851015612f1b578190505b612f2f612f2785612def565b830182612ecf565b50505b505050565b5f82821c905092915050565b5f612f525f1984600802612f37565b1980831691505092915050565b5f612f6a8383612f43565b9150826002028217905092915050565b612f8382611f6f565b67ffffffffffffffff811115612f9c57612f9b6120e1565b5b612fa68254612b04565b612fb1828285612ef1565b5f60209050601f831160018114612fe2575f8415612fd0578287015190505b612fda8582612f5f565b865550613041565b601f198416612ff086612ddd565b5f5b8281101561301757848901518255600182019150602085019450602081019050612ff2565b868310156130345784890151613030601f891682612f43565b8355505b6001600288020188555050505b505050505050565b5f6080820190508181035f8301526130618187612d38565b905081810360208301526130758186612d38565b905081810360408301526130898185612d38565b90506130986060830184611ed2565b95945050505050565b7f43616e6e6f74207472616e7366657220746f2073656c662e00000000000000005f82015250565b5f6130d5601883612b84565b91506130e0826130a1565b602082019050919050565b5f6020820190508181035f830152613102816130c9565b9050919050565b5f60e0820190508181035f830152613121818a612d38565b905081810360208301526131358189612d38565b905081810360408301526131498188612d38565b9050818103606083015261315d8187612d38565b905081810360808301526131718186612d38565b905061318060a0830185611ed2565b61318d60c0830184611ed2565b98975050505050505050565b7f496e73756666696369656e742069737375656420737570706c792066726f6d205f8201527f746865207370656369666965642070726f647563657220616e6420766572696660208201527f6965722e00000000000000000000000000000000000000000000000000000000604082015250565b5f613219604483612b84565b915061322482613199565b606082019050919050565b5f6020820190508181035f8301526132468161320d565b9050919050565b5f60c0820190508181035f8301526132658189612d38565b905081810360208301526132798188612d38565b9050818103604083015261328d8187612d38565b905081810360608301526132a18186612d38565b90506132b06080830185611ed2565b6132bd60a0830184611ed2565b979650505050505050565b7f496e76616c6964206e6577206f776e657220616464726573732e0000000000005f82015250565b5f6132fc601a83612b84565b9150613307826132c8565b602082019050919050565b5f6020820190508181035f830152613329816132f0565b9050919050565b7f4e487b71000000000000000000000000000000000000000000000000000000005f52603260045260245ffd5b5f60ff82169050919050565b5f6133738261335d565b915061337e8361335d565b9250828201905060ff81111561339757613396612c8a565b5b92915050565b5f6133a782611ec9565b91507f7fffffffffffffffffffffffffffffffffffffffffffffffffffffffffffffff82036133d9576133d8612c8a565b5b600182019050919050565b5f60c0820190506133f75f830189611ed2565b81810360208301526134098188612d38565b9050818103604083015261341d8187612d38565b905081810360608301526134318186612d38565b905081810360808301526134458185612d38565b905061345460a0830184611ed2565b97965050505050505056fea264697066735822122023fd005a133769a7a2f0726d47b4e1bc3345109488f0df3948a3b3e6963f09ab64736f6c63430008190033",
					"opcodes": "PUSH1 0x80 PUSH1 0x40 MSTORE CALLVALUE DUP1 ISZERO PUSH1 0xE JUMPI PUSH0 DUP1 REVERT JUMPDEST POP CALLER PUSH0 DUP1 PUSH2 0x100 EXP DUP2 SLOAD DUP2 PUSH20 0xFFFFFFFFFFFFFFFFFFFFFFFFFFFFFFFFFFFFFFFF MUL NOT AND SWAP1 DUP4 PUSH20 0xFFFFFFFFFFFFFFFFFFFFFFFFFFFFFFFFFFFFFFFF AND MUL OR SWAP1 SSTORE POP PUSH2 0x3495 DUP1 PUSH2 0x5B PUSH0 CODECOPY PUSH0 RETURN INVALID PUSH1 0x80 PUSH1 0x40 MSTORE CALLVALUE DUP1 ISZERO PUSH2 0xF JUMPI PUSH0 DUP1 REVERT JUMPDEST POP PUSH1 0x4 CALLDATASIZE LT PUSH2 0x135 JUMPI PUSH0 CALLDATALOAD PUSH1 0xE0 SHR DUP1 PUSH4 0x7843BB79 GT PUSH2 0xB6 JUMPI DUP1 PUSH4 0xA81E53D3 GT PUSH2 0x7A JUMPI DUP1 PUSH4 0xA81E53D3 EQ PUSH2 0x3C1 JUMPI DUP1 PUSH4 0xC4E41B22 EQ PUSH2 0x3DF JUMPI DUP1 PUSH4 0xE80A7EB9 EQ PUSH2 0x3FD JUMPI DUP1 PUSH4 0xF2FDE38B EQ PUSH2 0x41B JUMPI DUP1 PUSH4 0xF45F147C EQ PUSH2 0x44B JUMPI DUP1 PUSH4 0xFD6BEFB2 EQ PUSH2 0x47B JUMPI PUSH2 0x135 JUMP JUMPDEST DUP1 PUSH4 0x7843BB79 EQ PUSH2 0x307 JUMPI DUP1 PUSH4 0x789237E6 EQ PUSH2 0x325 JUMPI DUP1 PUSH4 0x893D20E8 EQ PUSH2 0x355 JUMPI DUP1 PUSH4 0x9D7B8E68 EQ PUSH2 0x373 JUMPI DUP1 PUSH4 0x9E41B406 EQ PUSH2 0x391 JUMPI PUSH2 0x135 JUMP JUMPDEST DUP1 PUSH4 0x47C44529 GT PUSH2 0xFD JUMPI DUP1 PUSH4 0x47C44529 EQ PUSH2 0x217 JUMPI DUP1 PUSH4 0x5A97595C EQ PUSH2 0x247 JUMPI DUP1 PUSH4 0x6440F6B2 EQ PUSH2 0x277 JUMPI DUP1 PUSH4 0x64611BD6 EQ PUSH2 0x2A7 JUMPI DUP1 PUSH4 0x65895F95 EQ PUSH2 0x2D7 JUMPI PUSH2 0x135 JUMP JUMPDEST DUP1 PUSH4 0x72652FE EQ PUSH2 0x139 JUMPI DUP1 PUSH4 0x1D37FD68 EQ PUSH2 0x157 JUMPI DUP1 PUSH4 0x207573F0 EQ PUSH2 0x187 JUMPI DUP1 PUSH4 0x37324A4C EQ PUSH2 0x1B7 JUMPI DUP1 PUSH4 0x3B7479E0 EQ PUSH2 0x1E7 JUMPI JUMPDEST PUSH0 DUP1 REVERT JUMPDEST PUSH2 0x141 PUSH2 0x4AB JUMP JUMPDEST PUSH1 0x40 MLOAD PUSH2 0x14E SWAP2 SWAP1 PUSH2 0x1EE1 JUMP JUMPDEST PUSH1 0x40 MLOAD DUP1 SWAP2 SUB SWAP1 RETURN JUMPDEST PUSH2 0x171 PUSH1 0x4 DUP1 CALLDATASIZE SUB DUP2 ADD SWAP1 PUSH2 0x16C SWAP2 SWAP1 PUSH2 0x1F35 JUMP JUMPDEST PUSH2 0x4B4 JUMP JUMPDEST PUSH1 0x40 MLOAD PUSH2 0x17E SWAP2 SWAP1 PUSH2 0x20B9 JUMP JUMPDEST PUSH1 0x40 MLOAD DUP1 SWAP2 SUB SWAP1 RETURN JUMPDEST PUSH2 0x1A1 PUSH1 0x4 DUP1 CALLDATASIZE SUB DUP2 ADD SWAP1 PUSH2 0x19C SWAP2 SWAP1 PUSH2 0x2205 JUMP JUMPDEST PUSH2 0x747 JUMP JUMPDEST PUSH1 0x40 MLOAD PUSH2 0x1AE SWAP2 SWAP1 PUSH2 0x2295 JUMP JUMPDEST PUSH1 0x40 MLOAD DUP1 SWAP2 SUB SWAP1 RETURN JUMPDEST PUSH2 0x1D1 PUSH1 0x4 DUP1 CALLDATASIZE SUB DUP2 ADD SWAP1 PUSH2 0x1CC SWAP2 SWAP1 PUSH2 0x22AE JUMP JUMPDEST PUSH2 0x7A7 JUMP JUMPDEST PUSH1 0x40 MLOAD PUSH2 0x1DE SWAP2 SWAP1 PUSH2 0x2295 JUMP JUMPDEST PUSH1 0x40 MLOAD DUP1 SWAP2 SUB SWAP1 RETURN JUMPDEST PUSH2 0x201 PUSH1 0x4 DUP1 CALLDATASIZE SUB DUP2 ADD SWAP1 PUSH2 0x1FC SWAP2 SWAP1 PUSH2 0x2395 JUMP JUMPDEST PUSH2 0xAC6 JUMP JUMPDEST PUSH1 0x40 MLOAD PUSH2 0x20E SWAP2 SWAP1 PUSH2 0x2295 JUMP JUMPDEST PUSH1 0x40 MLOAD DUP1 SWAP2 SUB SWAP1 RETURN JUMPDEST PUSH2 0x231 PUSH1 0x4 DUP1 CALLDATASIZE SUB DUP2 ADD SWAP1 PUSH2 0x22C SWAP2 SWAP1 PUSH2 0x244D JUMP JUMPDEST PUSH2 0xE7E JUMP JUMPDEST PUSH1 0x40 MLOAD PUSH2 0x23E SWAP2 SWAP1 PUSH2 0x1EE1 JUMP JUMPDEST PUSH1 0x40 MLOAD DUP1 SWAP2 SUB SWAP1 RETURN JUMPDEST PUSH2 0x261 PUSH1 0x4 DUP1 CALLDATASIZE SUB DUP2 ADD SWAP1 PUSH2 0x25C SWAP2 SWAP1 PUSH2 0x244D JUMP JUMPDEST PUSH2 0xEAD JUMP JUMPDEST PUSH1 0x40 MLOAD PUSH2 0x26E SWAP2 SWAP1 PUSH2 0x2295 JUMP JUMPDEST PUSH1 0x40 MLOAD DUP1 SWAP2 SUB SWAP1 RETURN JUMPDEST PUSH2 0x291 PUSH1 0x4 DUP1 CALLDATASIZE SUB DUP2 ADD SWAP1 PUSH2 0x28C SWAP2 SWAP1 PUSH2 0x2494 JUMP JUMPDEST PUSH2 0xEE8 JUMP JUMPDEST PUSH1 0x40 MLOAD PUSH2 0x29E SWAP2 SWAP1 PUSH2 0x2295 JUMP JUMPDEST PUSH1 0x40 MLOAD DUP1 SWAP2 SUB SWAP1 RETURN JUMPDEST PUSH2 0x2C1 PUSH1 0x4 DUP1 CALLDATASIZE SUB DUP2 ADD SWAP1 PUSH2 0x2BC SWAP2 SWAP1 PUSH2 0x25BD JUMP JUMPDEST PUSH2 0x128C JUMP JUMPDEST PUSH1 0x40 MLOAD PUSH2 0x2CE SWAP2 SWAP1 PUSH2 0x1EE1 JUMP JUMPDEST PUSH1 0x40 MLOAD DUP1 SWAP2 SUB SWAP1 RETURN JUMPDEST PUSH2 0x2F1 PUSH1 0x4 DUP1 CALLDATASIZE SUB DUP2 ADD SWAP1 PUSH2 0x2EC SWAP2 SWAP1 PUSH2 0x244D JUMP JUMPDEST PUSH2 0x132A JUMP JUMPDEST PUSH1 0x40 MLOAD PUSH2 0x2FE SWAP2 SWAP1 PUSH2 0x2739 JUMP JUMPDEST PUSH1 0x40 MLOAD DUP1 SWAP2 SUB SWAP1 RETURN JUMPDEST PUSH2 0x30F PUSH2 0x13A6 JUMP JUMPDEST PUSH1 0x40 MLOAD PUSH2 0x31C SWAP2 SWAP1 PUSH2 0x1EE1 JUMP JUMPDEST PUSH1 0x40 MLOAD DUP1 SWAP2 SUB SWAP1 RETURN JUMPDEST PUSH2 0x33F PUSH1 0x4 DUP1 CALLDATASIZE SUB DUP2 ADD SWAP1 PUSH2 0x33A SWAP2 SWAP1 PUSH2 0x244D JUMP JUMPDEST PUSH2 0x13AF JUMP JUMPDEST PUSH1 0x40 MLOAD PUSH2 0x34C SWAP2 SWAP1 PUSH2 0x2814 JUMP JUMPDEST PUSH1 0x40 MLOAD DUP1 SWAP2 SUB SWAP1 RETURN JUMPDEST PUSH2 0x35D PUSH2 0x14A9 JUMP JUMPDEST PUSH1 0x40 MLOAD PUSH2 0x36A SWAP2 SWAP1 PUSH2 0x2873 JUMP JUMPDEST PUSH1 0x40 MLOAD DUP1 SWAP2 SUB SWAP1 RETURN JUMPDEST PUSH2 0x37B PUSH2 0x14D0 JUMP JUMPDEST PUSH1 0x40 MLOAD PUSH2 0x388 SWAP2 SWAP1 PUSH2 0x1EE1 JUMP JUMPDEST PUSH1 0x40 MLOAD DUP1 SWAP2 SUB SWAP1 RETURN JUMPDEST PUSH2 0x3AB PUSH1 0x4 DUP1 CALLDATASIZE SUB DUP2 ADD SWAP1 PUSH2 0x3A6 SWAP2 SWAP1 PUSH2 0x288C JUMP JUMPDEST PUSH2 0x14D9 JUMP JUMPDEST PUSH1 0x40 MLOAD PUSH2 0x3B8 SWAP2 SWAP1 PUSH2 0x2295 JUMP JUMPDEST PUSH1 0x40 MLOAD DUP1 SWAP2 SUB SWAP1 RETURN JUMPDEST PUSH2 0x3C9 PUSH2 0x174E JUMP JUMPDEST PUSH1 0x40 MLOAD PUSH2 0x3D6 SWAP2 SWAP1 PUSH2 0x2814 JUMP JUMPDEST PUSH1 0x40 MLOAD DUP1 SWAP2 SUB SWAP1 RETURN JUMPDEST PUSH2 0x3E7 PUSH2 0x1822 JUMP JUMPDEST PUSH1 0x40 MLOAD PUSH2 0x3F4 SWAP2 SWAP1 PUSH2 0x1EE1 JUMP JUMPDEST PUSH1 0x40 MLOAD DUP1 SWAP2 SUB SWAP1 RETURN JUMPDEST PUSH2 0x405 PUSH2 0x182B JUMP JUMPDEST PUSH1 0x40 MLOAD PUSH2 0x412 SWAP2 SWAP1 PUSH2 0x2814 JUMP JUMPDEST PUSH1 0x40 MLOAD DUP1 SWAP2 SUB SWAP1 RETURN JUMPDEST PUSH2 0x435 PUSH1 0x4 DUP1 CALLDATASIZE SUB DUP2 ADD SWAP1 PUSH2 0x430 SWAP2 SWAP1 PUSH2 0x29AF JUMP JUMPDEST PUSH2 0x18FF JUMP JUMPDEST PUSH1 0x40 MLOAD PUSH2 0x442 SWAP2 SWAP1 PUSH2 0x2295 JUMP JUMPDEST PUSH1 0x40 MLOAD DUP1 SWAP2 SUB SWAP1 RETURN JUMPDEST PUSH2 0x465 PUSH1 0x4 DUP1 CALLDATASIZE SUB DUP2 ADD SWAP1 PUSH2 0x460 SWAP2 SWAP1 PUSH2 0x244D JUMP JUMPDEST PUSH2 0x1ABD JUMP JUMPDEST PUSH1 0x40 MLOAD PUSH2 0x472 SWAP2 SWAP1 PUSH2 0x2295 JUMP JUMPDEST PUSH1 0x40 MLOAD DUP1 SWAP2 SUB SWAP1 RETURN JUMPDEST PUSH2 0x495 PUSH1 0x4 DUP1 CALLDATASIZE SUB DUP2 ADD SWAP1 PUSH2 0x490 SWAP2 SWAP1 PUSH2 0x29DA JUMP JUMPDEST PUSH2 0x1AF8 JUMP JUMPDEST PUSH1 0x40 MLOAD PUSH2 0x4A2 SWAP2 SWAP1 PUSH2 0x2ABE JUMP JUMPDEST PUSH1 0x40 MLOAD DUP1 SWAP2 SUB SWAP1 RETURN JUMPDEST PUSH0 PUSH1 0x2 SLOAD SWAP1 POP SWAP1 JUMP JUMPDEST PUSH2 0x4BC PUSH2 0x1E6A JUMP JUMPDEST PUSH1 0xA PUSH0 DUP4 DUP2 MSTORE PUSH1 0x20 ADD SWAP1 DUP2 MSTORE PUSH1 0x20 ADD PUSH0 KECCAK256 PUSH1 0x40 MLOAD DUP1 PUSH2 0x100 ADD PUSH1 0x40 MSTORE SWAP1 DUP2 PUSH0 DUP3 ADD SLOAD DUP2 MSTORE PUSH1 0x20 ADD PUSH1 0x1 DUP3 ADD DUP1 SLOAD PUSH2 0x4F2 SWAP1 PUSH2 0x2B04 JUMP JUMPDEST DUP1 PUSH1 0x1F ADD PUSH1 0x20 DUP1 SWAP2 DIV MUL PUSH1 0x20 ADD PUSH1 0x40 MLOAD SWAP1 DUP2 ADD PUSH1 0x40 MSTORE DUP1 SWAP3 SWAP2 SWAP1 DUP2 DUP2 MSTORE PUSH1 0x20 ADD DUP3 DUP1 SLOAD PUSH2 0x51E SWAP1 PUSH2 0x2B04 JUMP JUMPDEST DUP1 ISZERO PUSH2 0x569 JUMPI DUP1 PUSH1 0x1F LT PUSH2 0x540 JUMPI PUSH2 0x100 DUP1 DUP4 SLOAD DIV MUL DUP4 MSTORE SWAP2 PUSH1 0x20 ADD SWAP2 PUSH2 0x569 JUMP JUMPDEST DUP3 ADD SWAP2 SWAP1 PUSH0 MSTORE PUSH1 0x20 PUSH0 KECCAK256 SWAP1 JUMPDEST DUP2 SLOAD DUP2 MSTORE SWAP1 PUSH1 0x1 ADD SWAP1 PUSH1 0x20 ADD DUP1 DUP4 GT PUSH2 0x54C JUMPI DUP3 SWAP1 SUB PUSH1 0x1F AND DUP3 ADD SWAP2 JUMPDEST POP POP POP POP POP DUP2 MSTORE PUSH1 0x20 ADD PUSH1 0x2 DUP3 ADD DUP1 SLOAD PUSH2 0x582 SWAP1 PUSH2 0x2B04 JUMP JUMPDEST DUP1 PUSH1 0x1F ADD PUSH1 0x20 DUP1 SWAP2 DIV MUL PUSH1 0x20 ADD PUSH1 0x40 MLOAD SWAP1 DUP2 ADD PUSH1 0x40 MSTORE DUP1 SWAP3 SWAP2 SWAP1 DUP2 DUP2 MSTORE PUSH1 0x20 ADD DUP3 DUP1 SLOAD PUSH2 0x5AE SWAP1 PUSH2 0x2B04 JUMP JUMPDEST DUP1 ISZERO PUSH2 0x5F9 JUMPI DUP1 PUSH1 0x1F LT PUSH2 0x5D0 JUMPI PUSH2 0x100 DUP1 DUP4 SLOAD DIV MUL DUP4 MSTORE SWAP2 PUSH1 0x20 ADD SWAP2 PUSH2 0x5F9 JUMP JUMPDEST DUP3 ADD SWAP2 SWAP1 PUSH0 MSTORE PUSH1 0x20 PUSH0 KECCAK256 SWAP1 JUMPDEST DUP2 SLOAD DUP2 MSTORE SWAP1 PUSH1 0x1 ADD SWAP1 PUSH1 0x20 ADD DUP1 DUP4 GT PUSH2 0x5DC JUMPI DUP3 SWAP1 SUB PUSH1 0x1F AND DUP3 ADD SWAP2 JUMPDEST POP POP POP POP POP DUP2 MSTORE PUSH1 0x20 ADD PUSH1 0x3 DUP3 ADD DUP1 SLOAD PUSH2 0x612 SWAP1 PUSH2 0x2B04 JUMP JUMPDEST DUP1 PUSH1 0x1F ADD PUSH1 0x20 DUP1 SWAP2 DIV MUL PUSH1 0x20 ADD PUSH1 0x40 MLOAD SWAP1 DUP2 ADD PUSH1 0x40 MSTORE DUP1 SWAP3 SWAP2 SWAP1 DUP2 DUP2 MSTORE PUSH1 0x20 ADD DUP3 DUP1 SLOAD PUSH2 0x63E SWAP1 PUSH2 0x2B04 JUMP JUMPDEST DUP1 ISZERO PUSH2 0x689 JUMPI DUP1 PUSH1 0x1F LT PUSH2 0x660 JUMPI PUSH2 0x100 DUP1 DUP4 SLOAD DIV MUL DUP4 MSTORE SWAP2 PUSH1 0x20 ADD SWAP2 PUSH2 0x689 JUMP JUMPDEST DUP3 ADD SWAP2 SWAP1 PUSH0 MSTORE PUSH1 0x20 PUSH0 KECCAK256 SWAP1 JUMPDEST DUP2 SLOAD DUP2 MSTORE SWAP1 PUSH1 0x1 ADD SWAP1 PUSH1 0x20 ADD DUP1 DUP4 GT PUSH2 0x66C JUMPI DUP3 SWAP1 SUB PUSH1 0x1F AND DUP3 ADD SWAP2 JUMPDEST POP POP POP POP POP DUP2 MSTORE PUSH1 0x20 ADD PUSH1 0x4 DUP3 ADD DUP1 SLOAD PUSH2 0x6A2 SWAP1 PUSH2 0x2B04 JUMP JUMPDEST DUP1 PUSH1 0x1F ADD PUSH1 0x20 DUP1 SWAP2 DIV MUL PUSH1 0x20 ADD PUSH1 0x40 MLOAD SWAP1 DUP2 ADD PUSH1 0x40 MSTORE DUP1 SWAP3 SWAP2 SWAP1 DUP2 DUP2 MSTORE PUSH1 0x20 ADD DUP3 DUP1 SLOAD PUSH2 0x6CE SWAP1 PUSH2 0x2B04 JUMP JUMPDEST DUP1 ISZERO PUSH2 0x719 JUMPI DUP1 PUSH1 0x1F LT PUSH2 0x6F0 JUMPI PUSH2 0x100 DUP1 DUP4 SLOAD DIV MUL DUP4 MSTORE SWAP2 PUSH1 0x20 ADD SWAP2 PUSH2 0x719 JUMP JUMPDEST DUP3 ADD SWAP2 SWAP1 PUSH0 MSTORE PUSH1 0x20 PUSH0 KECCAK256 SWAP1 JUMPDEST DUP2 SLOAD DUP2 MSTORE SWAP1 PUSH1 0x1 ADD SWAP1 PUSH1 0x20 ADD DUP1 DUP4 GT PUSH2 0x6FC JUMPI DUP3 SWAP1 SUB PUSH1 0x1F AND DUP3 ADD SWAP2 JUMPDEST POP POP POP POP POP DUP2 MSTORE PUSH1 0x20 ADD PUSH1 0x5 DUP3 ADD SLOAD DUP2 MSTORE PUSH1 0x20 ADD PUSH1 0x6 DUP3 ADD SLOAD DUP2 MSTORE PUSH1 0x20 ADD PUSH1 0x7 DUP3 ADD SLOAD DUP2 MSTORE POP POP SWAP1 POP SWAP2 SWAP1 POP JUMP JUMPDEST PUSH0 PUSH1 0x8 PUSH2 0x753 DUP5 PUSH2 0x1B9F JUMP JUMPDEST PUSH1 0x40 MLOAD PUSH2 0x760 SWAP2 SWAP1 PUSH2 0x2B6E JUMP JUMPDEST SWAP1 DUP2 MSTORE PUSH1 0x20 ADD PUSH1 0x40 MLOAD DUP1 SWAP2 SUB SWAP1 KECCAK256 PUSH2 0x777 DUP4 PUSH2 0x1B9F JUMP JUMPDEST PUSH1 0x40 MLOAD PUSH2 0x784 SWAP2 SWAP1 PUSH2 0x2B6E JUMP JUMPDEST SWAP1 DUP2 MSTORE PUSH1 0x20 ADD PUSH1 0x40 MLOAD DUP1 SWAP2 SUB SWAP1 KECCAK256 PUSH0 SWAP1 SLOAD SWAP1 PUSH2 0x100 EXP SWAP1 DIV PUSH1 0xFF AND SWAP1 POP SWAP3 SWAP2 POP POP JUMP JUMPDEST PUSH0 DUP1 PUSH0 SWAP1 SLOAD SWAP1 PUSH2 0x100 EXP SWAP1 DIV PUSH20 0xFFFFFFFFFFFFFFFFFFFFFFFFFFFFFFFFFFFFFFFF AND PUSH20 0xFFFFFFFFFFFFFFFFFFFFFFFFFFFFFFFFFFFFFFFF AND CALLER PUSH20 0xFFFFFFFFFFFFFFFFFFFFFFFFFFFFFFFFFFFFFFFF AND EQ PUSH2 0x836 JUMPI PUSH1 0x40 MLOAD PUSH32 0x8C379A000000000000000000000000000000000000000000000000000000000 DUP2 MSTORE PUSH1 0x4 ADD PUSH2 0x82D SWAP1 PUSH2 0x2C04 JUMP JUMPDEST PUSH1 0x40 MLOAD DUP1 SWAP2 SUB SWAP1 REVERT JUMPDEST PUSH0 PUSH2 0x840 DUP8 PUSH2 0x1B9F JUMP JUMPDEST SWAP1 POP PUSH0 PUSH2 0x84C DUP8 PUSH2 0x1B9F JUMP JUMPDEST SWAP1 POP PUSH0 PUSH2 0x858 DUP8 PUSH2 0x1B9F JUMP JUMPDEST SWAP1 POP PUSH0 PUSH2 0x864 DUP8 PUSH2 0x1B9F JUMP JUMPDEST SWAP1 POP DUP6 PUSH1 0xC DUP6 PUSH1 0x40 MLOAD PUSH2 0x877 SWAP2 SWAP1 PUSH2 0x2B6E JUMP JUMPDEST SWAP1 DUP2 MSTORE PUSH1 0x20 ADD PUSH1 0x40 MLOAD DUP1 SWAP2 SUB SWAP1 KECCAK256 DUP5 PUSH1 0x40 MLOAD PUSH2 0x893 SWAP2 SWAP1 PUSH2 0x2B6E JUMP JUMPDEST SWAP1 DUP2 MSTORE PUSH1 0x20 ADD PUSH1 0x40 MLOAD DUP1 SWAP2 SUB SWAP1 KECCAK256 DUP4 PUSH1 0x40 MLOAD PUSH2 0x8AF SWAP2 SWAP1 PUSH2 0x2B6E JUMP JUMPDEST SWAP1 DUP2 MSTORE PUSH1 0x20 ADD PUSH1 0x40 MLOAD DUP1 SWAP2 SUB SWAP1 KECCAK256 DUP3 PUSH1 0x40 MLOAD PUSH2 0x8CB SWAP2 SWAP1 PUSH2 0x2B6E JUMP JUMPDEST SWAP1 DUP2 MSTORE PUSH1 0x20 ADD PUSH1 0x40 MLOAD DUP1 SWAP2 SUB SWAP1 KECCAK256 SLOAD SLT ISZERO PUSH2 0x91B JUMPI PUSH1 0x40 MLOAD PUSH32 0x8C379A000000000000000000000000000000000000000000000000000000000 DUP2 MSTORE PUSH1 0x4 ADD PUSH2 0x912 SWAP1 PUSH2 0x2C6C JUMP JUMPDEST PUSH1 0x40 MLOAD DUP1 SWAP2 SUB SWAP1 REVERT JUMPDEST DUP6 PUSH1 0xC DUP6 PUSH1 0x40 MLOAD PUSH2 0x92C SWAP2 SWAP1 PUSH2 0x2B6E JUMP JUMPDEST SWAP1 DUP2 MSTORE PUSH1 0x20 ADD PUSH1 0x40 MLOAD DUP1 SWAP2 SUB SWAP1 KECCAK256 DUP5 PUSH1 0x40 MLOAD PUSH2 0x948 SWAP2 SWAP1 PUSH2 0x2B6E JUMP JUMPDEST SWAP1 DUP2 MSTORE PUSH1 0x20 ADD PUSH1 0x40 MLOAD DUP1 SWAP2 SUB SWAP1 KECCAK256 DUP4 PUSH1 0x40 MLOAD PUSH2 0x964 SWAP2 SWAP1 PUSH2 0x2B6E JUMP JUMPDEST SWAP1 DUP2 MSTORE PUSH1 0x20 ADD PUSH1 0x40 MLOAD DUP1 SWAP2 SUB SWAP1 KECCAK256 DUP3 PUSH1 0x40 MLOAD PUSH2 0x980 SWAP2 SWAP1 PUSH2 0x2B6E JUMP JUMPDEST SWAP1 DUP2 MSTORE PUSH1 0x20 ADD PUSH1 0x40 MLOAD DUP1 SWAP2 SUB SWAP1 KECCAK256 PUSH0 DUP3 DUP3 SLOAD PUSH2 0x99C SWAP2 SWAP1 PUSH2 0x2CB7 JUMP JUMPDEST SWAP3 POP POP DUP2 SWAP1 SSTORE POP DUP6 PUSH1 0xD DUP6 PUSH1 0x40 MLOAD PUSH2 0x9B4 SWAP2 SWAP1 PUSH2 0x2B6E JUMP JUMPDEST SWAP1 DUP2 MSTORE PUSH1 0x20 ADD PUSH1 0x40 MLOAD DUP1 SWAP2 SUB SWAP1 KECCAK256 PUSH0 DUP3 DUP3 SLOAD PUSH2 0x9D0 SWAP2 SWAP1 PUSH2 0x2CB7 JUMP JUMPDEST SWAP3 POP POP DUP2 SWAP1 SSTORE POP DUP6 PUSH1 0x6 DUP5 PUSH1 0x40 MLOAD PUSH2 0x9E8 SWAP2 SWAP1 PUSH2 0x2B6E JUMP JUMPDEST SWAP1 DUP2 MSTORE PUSH1 0x20 ADD PUSH1 0x40 MLOAD DUP1 SWAP2 SUB SWAP1 KECCAK256 DUP4 PUSH1 0x40 MLOAD PUSH2 0xA04 SWAP2 SWAP1 PUSH2 0x2B6E JUMP JUMPDEST SWAP1 DUP2 MSTORE PUSH1 0x20 ADD PUSH1 0x40 MLOAD DUP1 SWAP2 SUB SWAP1 KECCAK256 DUP3 PUSH1 0x40 MLOAD PUSH2 0xA20 SWAP2 SWAP1 PUSH2 0x2B6E JUMP JUMPDEST SWAP1 DUP2 MSTORE PUSH1 0x20 ADD PUSH1 0x40 MLOAD DUP1 SWAP2 SUB SWAP1 KECCAK256 PUSH1 0x2 ADD PUSH0 DUP3 DUP3 SLOAD PUSH2 0xA3F SWAP2 SWAP1 PUSH2 0x2CF7 JUMP JUMPDEST SWAP3 POP POP DUP2 SWAP1 SSTORE POP DUP6 PUSH1 0x1 PUSH0 DUP3 DUP3 SLOAD PUSH2 0xA57 SWAP2 SWAP1 PUSH2 0x2CB7 JUMP JUMPDEST SWAP3 POP POP DUP2 SWAP1 SSTORE POP DUP6 PUSH1 0x2 PUSH0 DUP3 DUP3 SLOAD PUSH2 0xA6F SWAP2 SWAP1 PUSH2 0x2CF7 JUMP JUMPDEST SWAP3 POP POP DUP2 SWAP1 SSTORE POP PUSH32 0x71A264E53B40E97DE0ACD1C1884477A24D4165ACBADD4955CC8B22AB40DC02C DUP5 DUP5 DUP5 DUP5 DUP11 PUSH1 0x40 MLOAD PUSH2 0xAAD SWAP6 SWAP5 SWAP4 SWAP3 SWAP2 SWAP1 PUSH2 0x2D70 JUMP JUMPDEST PUSH1 0x40 MLOAD DUP1 SWAP2 SUB SWAP1 LOG1 PUSH1 0x1 SWAP5 POP POP POP POP POP SWAP6 SWAP5 POP POP POP POP POP JUMP JUMPDEST PUSH0 DUP1 PUSH0 SWAP1 SLOAD SWAP1 PUSH2 0x100 EXP SWAP1 DIV PUSH20 0xFFFFFFFFFFFFFFFFFFFFFFFFFFFFFFFFFFFFFFFF AND PUSH20 0xFFFFFFFFFFFFFFFFFFFFFFFFFFFFFFFFFFFFFFFF AND CALLER PUSH20 0xFFFFFFFFFFFFFFFFFFFFFFFFFFFFFFFFFFFFFFFF AND EQ PUSH2 0xB55 JUMPI PUSH1 0x40 MLOAD PUSH32 0x8C379A000000000000000000000000000000000000000000000000000000000 DUP2 MSTORE PUSH1 0x4 ADD PUSH2 0xB4C SWAP1 PUSH2 0x2C04 JUMP JUMPDEST PUSH1 0x40 MLOAD DUP1 SWAP2 SUB SWAP1 REVERT JUMPDEST PUSH0 PUSH2 0xB5F DUP7 PUSH2 0x1B9F JUMP JUMPDEST SWAP1 POP PUSH0 PUSH2 0xB6B DUP7 PUSH2 0x1B9F JUMP JUMPDEST SWAP1 POP PUSH0 PUSH2 0xB77 DUP7 PUSH2 0x1B9F JUMP JUMPDEST SWAP1 POP PUSH2 0xB82 DUP2 PUSH2 0xEAD JUMP JUMPDEST PUSH2 0xBEF JUMPI PUSH1 0xF DUP2 SWAP1 DUP1 PUSH1 0x1 DUP2 SLOAD ADD DUP1 DUP3 SSTORE DUP1 SWAP2 POP POP PUSH1 0x1 SWAP1 SUB SWAP1 PUSH0 MSTORE PUSH1 0x20 PUSH0 KECCAK256 ADD PUSH0 SWAP1 SWAP2 SWAP1 SWAP2 SWAP1 SWAP2 POP SWAP1 DUP2 PUSH2 0xBB7 SWAP2 SWAP1 PUSH2 0x2F7A JUMP JUMPDEST POP PUSH1 0x1 PUSH1 0xE DUP3 PUSH1 0x40 MLOAD PUSH2 0xBCA SWAP2 SWAP1 PUSH2 0x2B6E JUMP JUMPDEST SWAP1 DUP2 MSTORE PUSH1 0x20 ADD PUSH1 0x40 MLOAD DUP1 SWAP2 SUB SWAP1 KECCAK256 PUSH0 PUSH2 0x100 EXP DUP2 SLOAD DUP2 PUSH1 0xFF MUL NOT AND SWAP1 DUP4 ISZERO ISZERO MUL OR SWAP1 SSTORE POP JUMPDEST DUP5 PUSH1 0x1 PUSH0 DUP3 DUP3 SLOAD PUSH2 0xC00 SWAP2 SWAP1 PUSH2 0x2CF7 JUMP JUMPDEST SWAP3 POP POP DUP2 SWAP1 SSTORE POP PUSH0 PUSH1 0x6 DUP5 PUSH1 0x40 MLOAD PUSH2 0xC18 SWAP2 SWAP1 PUSH2 0x2B6E JUMP JUMPDEST SWAP1 DUP2 MSTORE PUSH1 0x20 ADD PUSH1 0x40 MLOAD DUP1 SWAP2 SUB SWAP1 KECCAK256 DUP4 PUSH1 0x40 MLOAD PUSH2 0xC34 SWAP2 SWAP1 PUSH2 0x2B6E JUMP JUMPDEST SWAP1 DUP2 MSTORE PUSH1 0x20 ADD PUSH1 0x40 MLOAD DUP1 SWAP2 SUB SWAP1 KECCAK256 DUP3 PUSH1 0x40 MLOAD PUSH2 0xC50 SWAP2 SWAP1 PUSH2 0x2B6E JUMP JUMPDEST SWAP1 DUP2 MSTORE PUSH1 0x20 ADD PUSH1 0x40 MLOAD DUP1 SWAP2 SUB SWAP1 KECCAK256 SWAP1 POP DUP6 DUP2 PUSH0 ADD PUSH0 DUP3 DUP3 SLOAD PUSH2 0xC72 SWAP2 SWAP1 PUSH2 0x2CF7 JUMP JUMPDEST SWAP3 POP POP DUP2 SWAP1 SSTORE POP DUP6 DUP2 PUSH1 0x1 ADD PUSH0 DUP3 DUP3 SLOAD PUSH2 0xC8C SWAP2 SWAP1 PUSH2 0x2CF7 JUMP JUMPDEST SWAP3 POP POP DUP2 SWAP1 SSTORE POP PUSH0 DUP2 PUSH1 0x2 ADD PUSH0 DUP3 DUP3 SLOAD PUSH2 0xCA6 SWAP2 SWAP1 PUSH2 0x2CF7 JUMP JUMPDEST SWAP3 POP POP DUP2 SWAP1 SSTORE POP PUSH1 0x7 DUP5 PUSH1 0x40 MLOAD PUSH2 0xCBD SWAP2 SWAP1 PUSH2 0x2B6E JUMP JUMPDEST SWAP1 DUP2 MSTORE PUSH1 0x20 ADD PUSH1 0x40 MLOAD DUP1 SWAP2 SUB SWAP1 KECCAK256 PUSH0 SWAP1 SLOAD SWAP1 PUSH2 0x100 EXP SWAP1 DIV PUSH1 0xFF AND PUSH2 0xD45 JUMPI PUSH1 0x5 DUP5 SWAP1 DUP1 PUSH1 0x1 DUP2 SLOAD ADD DUP1 DUP3 SSTORE DUP1 SWAP2 POP POP PUSH1 0x1 SWAP1 SUB SWAP1 PUSH0 MSTORE PUSH1 0x20 PUSH0 KECCAK256 ADD PUSH0 SWAP1 SWAP2 SWAP1 SWAP2 SWAP1 SWAP2 POP SWAP1 DUP2 PUSH2 0xD0D SWAP2 SWAP1 PUSH2 0x2F7A JUMP JUMPDEST POP PUSH1 0x1 PUSH1 0x7 DUP6 PUSH1 0x40 MLOAD PUSH2 0xD20 SWAP2 SWAP1 PUSH2 0x2B6E JUMP JUMPDEST SWAP1 DUP2 MSTORE PUSH1 0x20 ADD PUSH1 0x40 MLOAD DUP1 SWAP2 SUB SWAP1 KECCAK256 PUSH0 PUSH2 0x100 EXP DUP2 SLOAD DUP2 PUSH1 0xFF MUL NOT AND SWAP1 DUP4 ISZERO ISZERO MUL OR SWAP1 SSTORE POP JUMPDEST PUSH1 0x8 DUP5 PUSH1 0x40 MLOAD PUSH2 0xD55 SWAP2 SWAP1 PUSH2 0x2B6E JUMP JUMPDEST SWAP1 DUP2 MSTORE PUSH1 0x20 ADD PUSH1 0x40 MLOAD DUP1 SWAP2 SUB SWAP1 KECCAK256 DUP4 PUSH1 0x40 MLOAD PUSH2 0xD71 SWAP2 SWAP1 PUSH2 0x2B6E JUMP JUMPDEST SWAP1 DUP2 MSTORE PUSH1 0x20 ADD PUSH1 0x40 MLOAD DUP1 SWAP2 SUB SWAP1 KECCAK256 PUSH0 SWAP1 SLOAD SWAP1 PUSH2 0x100 EXP SWAP1 DIV PUSH1 0xFF AND PUSH2 0xE31 JUMPI PUSH1 0x9 DUP5 PUSH1 0x40 MLOAD PUSH2 0xDA0 SWAP2 SWAP1 PUSH2 0x2B6E JUMP JUMPDEST SWAP1 DUP2 MSTORE PUSH1 0x20 ADD PUSH1 0x40 MLOAD DUP1 SWAP2 SUB SWAP1 KECCAK256 DUP4 SWAP1 DUP1 PUSH1 0x1 DUP2 SLOAD ADD DUP1 DUP3 SSTORE DUP1 SWAP2 POP POP PUSH1 0x1 SWAP1 SUB SWAP1 PUSH0 MSTORE PUSH1 0x20 PUSH0 KECCAK256 ADD PUSH0 SWAP1 SWAP2 SWAP1 SWAP2 SWAP1 SWAP2 POP SWAP1 DUP2 PUSH2 0xDDD SWAP2 SWAP1 PUSH2 0x2F7A JUMP JUMPDEST POP PUSH1 0x1 PUSH1 0x8 DUP6 PUSH1 0x40 MLOAD PUSH2 0xDF0 SWAP2 SWAP1 PUSH2 0x2B6E JUMP JUMPDEST SWAP1 DUP2 MSTORE PUSH1 0x20 ADD PUSH1 0x40 MLOAD DUP1 SWAP2 SUB SWAP1 KECCAK256 DUP5 PUSH1 0x40 MLOAD PUSH2 0xE0C SWAP2 SWAP1 PUSH2 0x2B6E JUMP JUMPDEST SWAP1 DUP2 MSTORE PUSH1 0x20 ADD PUSH1 0x40 MLOAD DUP1 SWAP2 SUB SWAP1 KECCAK256 PUSH0 PUSH2 0x100 EXP DUP2 SLOAD DUP2 PUSH1 0xFF MUL NOT AND SWAP1 DUP4 ISZERO ISZERO MUL OR SWAP1 SSTORE POP JUMPDEST PUSH32 0xE12950F72FF2EC319916813B0C8BBAD49DC1A8DCB7E539BEB82A3292B51944F7 DUP5 DUP5 DUP5 DUP10 PUSH1 0x40 MLOAD PUSH2 0xE66 SWAP5 SWAP4 SWAP3 SWAP2 SWAP1 PUSH2 0x3049 JUMP JUMPDEST PUSH1 0x40 MLOAD DUP1 SWAP2 SUB SWAP1 LOG1 PUSH1 0x1 SWAP5 POP POP POP POP POP SWAP5 SWAP4 POP POP POP POP JUMP JUMPDEST PUSH0 PUSH1 0xD PUSH2 0xE8A DUP4 PUSH2 0x1B9F JUMP JUMPDEST PUSH1 0x40 MLOAD PUSH2 0xE97 SWAP2 SWAP1 PUSH2 0x2B6E JUMP JUMPDEST SWAP1 DUP2 MSTORE PUSH1 0x20 ADD PUSH1 0x40 MLOAD DUP1 SWAP2 SUB SWAP1 KECCAK256 SLOAD SWAP1 POP SWAP2 SWAP1 POP JUMP JUMPDEST PUSH0 PUSH1 0xE PUSH2 0xEB9 DUP4 PUSH2 0x1B9F JUMP JUMPDEST PUSH1 0x40 MLOAD PUSH2 0xEC6 SWAP2 SWAP1 PUSH2 0x2B6E JUMP JUMPDEST SWAP1 DUP2 MSTORE PUSH1 0x20 ADD PUSH1 0x40 MLOAD DUP1 SWAP2 SUB SWAP1 KECCAK256 PUSH0 SWAP1 SLOAD SWAP1 PUSH2 0x100 EXP SWAP1 DIV PUSH1 0xFF AND SWAP1 POP SWAP2 SWAP1 POP JUMP JUMPDEST PUSH0 DUP1 PUSH0 SWAP1 SLOAD SWAP1 PUSH2 0x100 EXP SWAP1 DIV PUSH20 0xFFFFFFFFFFFFFFFFFFFFFFFFFFFFFFFFFFFFFFFF AND PUSH20 0xFFFFFFFFFFFFFFFFFFFFFFFFFFFFFFFFFFFFFFFF AND CALLER PUSH20 0xFFFFFFFFFFFFFFFFFFFFFFFFFFFFFFFFFFFFFFFF AND EQ PUSH2 0xF77 JUMPI PUSH1 0x40 MLOAD PUSH32 0x8C379A000000000000000000000000000000000000000000000000000000000 DUP2 MSTORE PUSH1 0x4 ADD PUSH2 0xF6E SWAP1 PUSH2 0x2C04 JUMP JUMPDEST PUSH1 0x40 MLOAD DUP1 SWAP2 SUB SWAP1 REVERT JUMPDEST PUSH0 PUSH2 0xF81 DUP10 PUSH2 0x1B9F JUMP JUMPDEST SWAP1 POP PUSH0 PUSH2 0xF8D DUP10 PUSH2 0x1B9F JUMP JUMPDEST SWAP1 POP PUSH0 PUSH2 0xF99 DUP10 PUSH2 0x1B9F JUMP JUMPDEST SWAP1 POP PUSH0 PUSH2 0xFA5 DUP10 PUSH2 0x1B9F JUMP JUMPDEST SWAP1 POP PUSH0 PUSH2 0xFB1 DUP10 PUSH2 0x1B9F JUMP JUMPDEST SWAP1 POP PUSH2 0xFBD DUP6 DUP6 PUSH2 0x1C9B JUMP JUMPDEST PUSH2 0xFFC JUMPI PUSH1 0x40 MLOAD PUSH32 0x8C379A000000000000000000000000000000000000000000000000000000000 DUP2 MSTORE PUSH1 0x4 ADD PUSH2 0xFF3 SWAP1 PUSH2 0x30EB JUMP JUMPDEST PUSH1 0x40 MLOAD DUP1 SWAP2 SUB SWAP1 REVERT JUMPDEST DUP8 PUSH1 0xC DUP7 PUSH1 0x40 MLOAD PUSH2 0x100D SWAP2 SWAP1 PUSH2 0x2B6E JUMP JUMPDEST SWAP1 DUP2 MSTORE PUSH1 0x20 ADD PUSH1 0x40 MLOAD DUP1 SWAP2 SUB SWAP1 KECCAK256 DUP5 PUSH1 0x40 MLOAD PUSH2 0x1029 SWAP2 SWAP1 PUSH2 0x2B6E JUMP JUMPDEST SWAP1 DUP2 MSTORE PUSH1 0x20 ADD PUSH1 0x40 MLOAD DUP1 SWAP2 SUB SWAP1 KECCAK256 DUP4 PUSH1 0x40 MLOAD PUSH2 0x1045 SWAP2 SWAP1 PUSH2 0x2B6E JUMP JUMPDEST SWAP1 DUP2 MSTORE PUSH1 0x20 ADD PUSH1 0x40 MLOAD DUP1 SWAP2 SUB SWAP1 KECCAK256 DUP3 PUSH1 0x40 MLOAD PUSH2 0x1061 SWAP2 SWAP1 PUSH2 0x2B6E JUMP JUMPDEST SWAP1 DUP2 MSTORE PUSH1 0x20 ADD PUSH1 0x40 MLOAD DUP1 SWAP2 SUB SWAP1 KECCAK256 SLOAD SLT ISZERO PUSH2 0x10B1 JUMPI PUSH1 0x40 MLOAD PUSH32 0x8C379A000000000000000000000000000000000000000000000000000000000 DUP2 MSTORE PUSH1 0x4 ADD PUSH2 0x10A8 SWAP1 PUSH2 0x2C6C JUMP JUMPDEST PUSH1 0x40 MLOAD DUP1 SWAP2 SUB SWAP1 REVERT JUMPDEST DUP8 PUSH1 0xC DUP7 PUSH1 0x40 MLOAD PUSH2 0x10C2 SWAP2 SWAP1 PUSH2 0x2B6E JUMP JUMPDEST SWAP1 DUP2 MSTORE PUSH1 0x20 ADD PUSH1 0x40 MLOAD DUP1 SWAP2 SUB SWAP1 KECCAK256 DUP5 PUSH1 0x40 MLOAD PUSH2 0x10DE SWAP2 SWAP1 PUSH2 0x2B6E JUMP JUMPDEST SWAP1 DUP2 MSTORE PUSH1 0x20 ADD PUSH1 0x40 MLOAD DUP1 SWAP2 SUB SWAP1 KECCAK256 DUP4 PUSH1 0x40 MLOAD PUSH2 0x10FA SWAP2 SWAP1 PUSH2 0x2B6E JUMP JUMPDEST SWAP1 DUP2 MSTORE PUSH1 0x20 ADD PUSH1 0x40 MLOAD DUP1 SWAP2 SUB SWAP1 KECCAK256 DUP3 PUSH1 0x40 MLOAD PUSH2 0x1116 SWAP2 SWAP1 PUSH2 0x2B6E JUMP JUMPDEST SWAP1 DUP2 MSTORE PUSH1 0x20 ADD PUSH1 0x40 MLOAD DUP1 SWAP2 SUB SWAP1 KECCAK256 PUSH0 DUP3 DUP3 SLOAD PUSH2 0x1132 SWAP2 SWAP1 PUSH2 0x2CB7 JUMP JUMPDEST SWAP3 POP POP DUP2 SWAP1 SSTORE POP DUP8 PUSH1 0xD DUP7 PUSH1 0x40 MLOAD PUSH2 0x114A SWAP2 SWAP1 PUSH2 0x2B6E JUMP JUMPDEST SWAP1 DUP2 MSTORE PUSH1 0x20 ADD PUSH1 0x40 MLOAD DUP1 SWAP2 SUB SWAP1 KECCAK256 PUSH0 DUP3 DUP3 SLOAD PUSH2 0x1166 SWAP2 SWAP1 PUSH2 0x2CB7 JUMP JUMPDEST SWAP3 POP POP DUP2 SWAP1 SSTORE POP DUP8 PUSH1 0xC DUP6 PUSH1 0x40 MLOAD PUSH2 0x117E SWAP2 SWAP1 PUSH2 0x2B6E JUMP JUMPDEST SWAP1 DUP2 MSTORE PUSH1 0x20 ADD PUSH1 0x40 MLOAD DUP1 SWAP2 SUB SWAP1 KECCAK256 DUP5 PUSH1 0x40 MLOAD PUSH2 0x119A SWAP2 SWAP1 PUSH2 0x2B6E JUMP JUMPDEST SWAP1 DUP2 MSTORE PUSH1 0x20 ADD PUSH1 0x40 MLOAD DUP1 SWAP2 SUB SWAP1 KECCAK256 DUP4 PUSH1 0x40 MLOAD PUSH2 0x11B6 SWAP2 SWAP1 PUSH2 0x2B6E JUMP JUMPDEST SWAP1 DUP2 MSTORE PUSH1 0x20 ADD PUSH1 0x40 MLOAD DUP1 SWAP2 SUB SWAP1 KECCAK256 DUP3 PUSH1 0x40 MLOAD PUSH2 0x11D2 SWAP2 SWAP1 PUSH2 0x2B6E JUMP JUMPDEST SWAP1 DUP2 MSTORE PUSH1 0x20 ADD PUSH1 0x40 MLOAD DUP1 SWAP2 SUB SWAP1 KECCAK256 PUSH0 DUP3 DUP3 SLOAD PUSH2 0x11EE SWAP2 SWAP1 PUSH2 0x2CF7 JUMP JUMPDEST SWAP3 POP POP DUP2 SWAP1 SSTORE POP DUP8 PUSH1 0xD DUP6 PUSH1 0x40 MLOAD PUSH2 0x1206 SWAP2 SWAP1 PUSH2 0x2B6E JUMP JUMPDEST SWAP1 DUP2 MSTORE PUSH1 0x20 ADD PUSH1 0x40 MLOAD DUP1 SWAP2 SUB SWAP1 KECCAK256 PUSH0 DUP3 DUP3 SLOAD PUSH2 0x1222 SWAP2 SWAP1 PUSH2 0x2CF7 JUMP JUMPDEST SWAP3 POP POP DUP2 SWAP1 SSTORE POP PUSH32 0x4BF3D601EA57D080A44151E6FAACA262F82F23CD8144C59AD5CC4A708831744B DUP6 DUP6 DUP6 DUP6 DUP6 DUP14 DUP14 PUSH1 0x40 MLOAD PUSH2 0x1264 SWAP8 SWAP7 SWAP6 SWAP5 SWAP4 SWAP3 SWAP2 SWAP1 PUSH2 0x3109 JUMP JUMPDEST PUSH1 0x40 MLOAD DUP1 SWAP2 SUB SWAP1 LOG1 PUSH2 0x127A DUP5 DUP5 DUP5 DUP5 DUP13 DUP13 PUSH2 0x1CF3 JUMP JUMPDEST SWAP6 POP POP POP POP POP POP SWAP8 SWAP7 POP POP POP POP POP POP POP JUMP JUMPDEST PUSH0 PUSH1 0xC PUSH2 0x1298 DUP7 PUSH2 0x1B9F JUMP JUMPDEST PUSH1 0x40 MLOAD PUSH2 0x12A5 SWAP2 SWAP1 PUSH2 0x2B6E JUMP JUMPDEST SWAP1 DUP2 MSTORE PUSH1 0x20 ADD PUSH1 0x40 MLOAD DUP1 SWAP2 SUB SWAP1 KECCAK256 PUSH2 0x12BC DUP6 PUSH2 0x1B9F JUMP JUMPDEST PUSH1 0x40 MLOAD PUSH2 0x12C9 SWAP2 SWAP1 PUSH2 0x2B6E JUMP JUMPDEST SWAP1 DUP2 MSTORE PUSH1 0x20 ADD PUSH1 0x40 MLOAD DUP1 SWAP2 SUB SWAP1 KECCAK256 PUSH2 0x12E0 DUP5 PUSH2 0x1B9F JUMP JUMPDEST PUSH1 0x40 MLOAD PUSH2 0x12ED SWAP2 SWAP1 PUSH2 0x2B6E JUMP JUMPDEST SWAP1 DUP2 MSTORE PUSH1 0x20 ADD PUSH1 0x40 MLOAD DUP1 SWAP2 SUB SWAP1 KECCAK256 PUSH2 0x1304 DUP4 PUSH2 0x1B9F JUMP JUMPDEST PUSH1 0x40 MLOAD PUSH2 0x1311 SWAP2 SWAP1 PUSH2 0x2B6E JUMP JUMPDEST SWAP1 DUP2 MSTORE PUSH1 0x20 ADD PUSH1 0x40 MLOAD DUP1 SWAP2 SUB SWAP1 KECCAK256 SLOAD SWAP1 POP SWAP5 SWAP4 POP POP POP POP JUMP JUMPDEST PUSH1 0x60 PUSH1 0xB PUSH2 0x1337 DUP4 PUSH2 0x1B9F JUMP JUMPDEST PUSH1 0x40 MLOAD PUSH2 0x1344 SWAP2 SWAP1 PUSH2 0x2B6E JUMP JUMPDEST SWAP1 DUP2 MSTORE PUSH1 0x20 ADD PUSH1 0x40 MLOAD DUP1 SWAP2 SUB SWAP1 KECCAK256 DUP1 SLOAD DUP1 PUSH1 0x20 MUL PUSH1 0x20 ADD PUSH1 0x40 MLOAD SWAP1 DUP2 ADD PUSH1 0x40 MSTORE DUP1 SWAP3 SWAP2 SWAP1 DUP2 DUP2 MSTORE PUSH1 0x20 ADD DUP3 DUP1 SLOAD DUP1 ISZERO PUSH2 0x139A JUMPI PUSH1 0x20 MUL DUP3 ADD SWAP2 SWAP1 PUSH0 MSTORE PUSH1 0x20 PUSH0 KECCAK256 SWAP1 JUMPDEST DUP2 SLOAD DUP2 MSTORE PUSH1 0x20 ADD SWAP1 PUSH1 0x1 ADD SWAP1 DUP1 DUP4 GT PUSH2 0x1386 JUMPI JUMPDEST POP POP POP POP POP SWAP1 POP SWAP2 SWAP1 POP JUMP JUMPDEST PUSH0 PUSH1 0x4 SLOAD SWAP1 POP SWAP1 JUMP JUMPDEST PUSH1 0x60 PUSH1 0x9 PUSH2 0x13BC DUP4 PUSH2 0x1B9F JUMP JUMPDEST PUSH1 0x40 MLOAD PUSH2 0x13C9 SWAP2 SWAP1 PUSH2 0x2B6E JUMP JUMPDEST SWAP1 DUP2 MSTORE PUSH1 0x20 ADD PUSH1 0x40 MLOAD DUP1 SWAP2 SUB SWAP1 KECCAK256 DUP1 SLOAD DUP1 PUSH1 0x20 MUL PUSH1 0x20 ADD PUSH1 0x40 MLOAD SWAP1 DUP2 ADD PUSH1 0x40 MSTORE DUP1 SWAP3 SWAP2 SWAP1 DUP2 DUP2 MSTORE PUSH1 0x20 ADD PUSH0 SWAP1 JUMPDEST DUP3 DUP3 LT ISZERO PUSH2 0x149E JUMPI DUP4 DUP3 SWAP1 PUSH0 MSTORE PUSH1 0x20 PUSH0 KECCAK256 ADD DUP1 SLOAD PUSH2 0x1413 SWAP1 PUSH2 0x2B04 JUMP JUMPDEST DUP1 PUSH1 0x1F ADD PUSH1 0x20 DUP1 SWAP2 DIV MUL PUSH1 0x20 ADD PUSH1 0x40 MLOAD SWAP1 DUP2 ADD PUSH1 0x40 MSTORE DUP1 SWAP3 SWAP2 SWAP1 DUP2 DUP2 MSTORE PUSH1 0x20 ADD DUP3 DUP1 SLOAD PUSH2 0x143F SWAP1 PUSH2 0x2B04 JUMP JUMPDEST DUP1 ISZERO PUSH2 0x148A JUMPI DUP1 PUSH1 0x1F LT PUSH2 0x1461 JUMPI PUSH2 0x100 DUP1 DUP4 SLOAD DIV MUL DUP4 MSTORE SWAP2 PUSH1 0x20 ADD SWAP2 PUSH2 0x148A JUMP JUMPDEST DUP3 ADD SWAP2 SWAP1 PUSH0 MSTORE PUSH1 0x20 PUSH0 KECCAK256 SWAP1 JUMPDEST DUP2 SLOAD DUP2 MSTORE SWAP1 PUSH1 0x1 ADD SWAP1 PUSH1 0x20 ADD DUP1 DUP4 GT PUSH2 0x146D JUMPI DUP3 SWAP1 SUB PUSH1 0x1F AND DUP3 ADD SWAP2 JUMPDEST POP POP POP POP POP DUP2 MSTORE PUSH1 0x20 ADD SWAP1 PUSH1 0x1 ADD SWAP1 PUSH2 0x13F6 JUMP JUMPDEST POP POP POP POP SWAP1 POP SWAP2 SWAP1 POP JUMP JUMPDEST PUSH0 DUP1 PUSH0 SWAP1 SLOAD SWAP1 PUSH2 0x100 EXP SWAP1 DIV PUSH20 0xFFFFFFFFFFFFFFFFFFFFFFFFFFFFFFFFFFFFFFFF AND SWAP1 POP SWAP1 JUMP JUMPDEST PUSH0 PUSH1 0x3 SLOAD SWAP1 POP SWAP1 JUMP JUMPDEST PUSH0 DUP1 PUSH0 SWAP1 SLOAD SWAP1 PUSH2 0x100 EXP SWAP1 DIV PUSH20 0xFFFFFFFFFFFFFFFFFFFFFFFFFFFFFFFFFFFFFFFF AND PUSH20 0xFFFFFFFFFFFFFFFFFFFFFFFFFFFFFFFFFFFFFFFF AND CALLER PUSH20 0xFFFFFFFFFFFFFFFFFFFFFFFFFFFFFFFFFFFFFFFF AND EQ PUSH2 0x1568 JUMPI PUSH1 0x40 MLOAD PUSH32 0x8C379A000000000000000000000000000000000000000000000000000000000 DUP2 MSTORE PUSH1 0x4 ADD PUSH2 0x155F SWAP1 PUSH2 0x2C04 JUMP JUMPDEST PUSH1 0x40 MLOAD DUP1 SWAP2 SUB SWAP1 REVERT JUMPDEST PUSH0 PUSH2 0x1572 DUP9 PUSH2 0x1B9F JUMP JUMPDEST SWAP1 POP PUSH0 PUSH2 0x157E DUP9 PUSH2 0x1B9F JUMP JUMPDEST SWAP1 POP PUSH0 PUSH2 0x158A DUP9 PUSH2 0x1B9F JUMP JUMPDEST SWAP1 POP PUSH0 PUSH2 0x1596 DUP9 PUSH2 0x1B9F JUMP JUMPDEST SWAP1 POP DUP7 PUSH1 0x6 DUP5 PUSH1 0x40 MLOAD PUSH2 0x15A9 SWAP2 SWAP1 PUSH2 0x2B6E JUMP JUMPDEST SWAP1 DUP2 MSTORE PUSH1 0x20 ADD PUSH1 0x40 MLOAD DUP1 SWAP2 SUB SWAP1 KECCAK256 DUP4 PUSH1 0x40 MLOAD PUSH2 0x15C5 SWAP2 SWAP1 PUSH2 0x2B6E JUMP JUMPDEST SWAP1 DUP2 MSTORE PUSH1 0x20 ADD PUSH1 0x40 MLOAD DUP1 SWAP2 SUB SWAP1 KECCAK256 DUP3 PUSH1 0x40 MLOAD PUSH2 0x15E1 SWAP2 SWAP1 PUSH2 0x2B6E JUMP JUMPDEST SWAP1 DUP2 MSTORE PUSH1 0x20 ADD PUSH1 0x40 MLOAD DUP1 SWAP2 SUB SWAP1 KECCAK256 PUSH1 0x1 ADD SLOAD SLT ISZERO PUSH2 0x1634 JUMPI PUSH1 0x40 MLOAD PUSH32 0x8C379A000000000000000000000000000000000000000000000000000000000 DUP2 MSTORE PUSH1 0x4 ADD PUSH2 0x162B SWAP1 PUSH2 0x322F JUMP JUMPDEST PUSH1 0x40 MLOAD DUP1 SWAP2 SUB SWAP1 REVERT JUMPDEST DUP7 PUSH1 0x6 DUP5 PUSH1 0x40 MLOAD PUSH2 0x1645 SWAP2 SWAP1 PUSH2 0x2B6E JUMP JUMPDEST SWAP1 DUP2 MSTORE PUSH1 0x20 ADD PUSH1 0x40 MLOAD DUP1 SWAP2 SUB SWAP1 KECCAK256 DUP4 PUSH1 0x40 MLOAD PUSH2 0x1661 SWAP2 SWAP1 PUSH2 0x2B6E JUMP JUMPDEST SWAP1 DUP2 MSTORE PUSH1 0x20 ADD PUSH1 0x40 MLOAD DUP1 SWAP2 SUB SWAP1 KECCAK256 DUP3 PUSH1 0x40 MLOAD PUSH2 0x167D SWAP2 SWAP1 PUSH2 0x2B6E JUMP JUMPDEST SWAP1 DUP2 MSTORE PUSH1 0x20 ADD PUSH1 0x40 MLOAD DUP1 SWAP2 SUB SWAP1 KECCAK256 PUSH1 0x1 ADD PUSH0 DUP3 DUP3 SLOAD PUSH2 0x169C SWAP2 SWAP1 PUSH2 0x2CB7 JUMP JUMPDEST SWAP3 POP POP DUP2 SWAP1 SSTORE POP DUP7 PUSH1 0xD DUP6 PUSH1 0x40 MLOAD PUSH2 0x16B4 SWAP2 SWAP1 PUSH2 0x2B6E JUMP JUMPDEST SWAP1 DUP2 MSTORE PUSH1 0x20 ADD PUSH1 0x40 MLOAD DUP1 SWAP2 SUB SWAP1 KECCAK256 PUSH0 DUP3 DUP3 SLOAD PUSH2 0x16D0 SWAP2 SWAP1 PUSH2 0x2CF7 JUMP JUMPDEST SWAP3 POP POP DUP2 SWAP1 SSTORE POP DUP7 PUSH1 0x3 PUSH0 DUP3 DUP3 SLOAD PUSH2 0x16E8 SWAP2 SWAP1 PUSH2 0x2CF7 JUMP JUMPDEST SWAP3 POP POP DUP2 SWAP1 SSTORE POP PUSH32 0x1B54EF0CCCBEAB6FF65480564FD3654638160F7C56EE2E640CD276661F32EA36 DUP5 DUP5 DUP5 DUP5 DUP12 DUP12 PUSH1 0x40 MLOAD PUSH2 0x1728 SWAP7 SWAP6 SWAP5 SWAP4 SWAP3 SWAP2 SWAP1 PUSH2 0x324D JUMP JUMPDEST PUSH1 0x40 MLOAD DUP1 SWAP2 SUB SWAP1 LOG1 PUSH2 0x173E DUP5 DUP5 DUP5 DUP5 DUP12 DUP12 PUSH2 0x1CF3 JUMP JUMPDEST SWAP5 POP POP POP POP POP SWAP7 SWAP6 POP POP POP POP POP POP JUMP JUMPDEST PUSH1 0x60 PUSH1 0xF DUP1 SLOAD DUP1 PUSH1 0x20 MUL PUSH1 0x20 ADD PUSH1 0x40 MLOAD SWAP1 DUP2 ADD PUSH1 0x40 MSTORE DUP1 SWAP3 SWAP2 SWAP1 DUP2 DUP2 MSTORE PUSH1 0x20 ADD PUSH0 SWAP1 JUMPDEST DUP3 DUP3 LT ISZERO PUSH2 0x1819 JUMPI DUP4 DUP3 SWAP1 PUSH0 MSTORE PUSH1 0x20 PUSH0 KECCAK256 ADD DUP1 SLOAD PUSH2 0x178E SWAP1 PUSH2 0x2B04 JUMP JUMPDEST DUP1 PUSH1 0x1F ADD PUSH1 0x20 DUP1 SWAP2 DIV MUL PUSH1 0x20 ADD PUSH1 0x40 MLOAD SWAP1 DUP2 ADD PUSH1 0x40 MSTORE DUP1 SWAP3 SWAP2 SWAP1 DUP2 DUP2 MSTORE PUSH1 0x20 ADD DUP3 DUP1 SLOAD PUSH2 0x17BA SWAP1 PUSH2 0x2B04 JUMP JUMPDEST DUP1 ISZERO PUSH2 0x1805 JUMPI DUP1 PUSH1 0x1F LT PUSH2 0x17DC JUMPI PUSH2 0x100 DUP1 DUP4 SLOAD DIV MUL DUP4 MSTORE SWAP2 PUSH1 0x20 ADD SWAP2 PUSH2 0x1805 JUMP JUMPDEST DUP3 ADD SWAP2 SWAP1 PUSH0 MSTORE PUSH1 0x20 PUSH0 KECCAK256 SWAP1 JUMPDEST DUP2 SLOAD DUP2 MSTORE SWAP1 PUSH1 0x1 ADD SWAP1 PUSH1 0x20 ADD DUP1 DUP4 GT PUSH2 0x17E8 JUMPI DUP3 SWAP1 SUB PUSH1 0x1F AND DUP3 ADD SWAP2 JUMPDEST POP POP POP POP POP DUP2 MSTORE PUSH1 0x20 ADD SWAP1 PUSH1 0x1 ADD SWAP1 PUSH2 0x1771 JUMP JUMPDEST POP POP POP POP SWAP1 POP SWAP1 JUMP JUMPDEST PUSH0 PUSH1 0x1 SLOAD SWAP1 POP SWAP1 JUMP JUMPDEST PUSH1 0x60 PUSH1 0x5 DUP1 SLOAD DUP1 PUSH1 0x20 MUL PUSH1 0x20 ADD PUSH1 0x40 MLOAD SWAP1 DUP2 ADD PUSH1 0x40 MSTORE DUP1 SWAP3 SWAP2 SWAP1 DUP2 DUP2 MSTORE PUSH1 0x20 ADD PUSH0 SWAP1 JUMPDEST DUP3 DUP3 LT ISZERO PUSH2 0x18F6 JUMPI DUP4 DUP3 SWAP1 PUSH0 MSTORE PUSH1 0x20 PUSH0 KECCAK256 ADD DUP1 SLOAD PUSH2 0x186B SWAP1 PUSH2 0x2B04 JUMP JUMPDEST DUP1 PUSH1 0x1F ADD PUSH1 0x20 DUP1 SWAP2 DIV MUL PUSH1 0x20 ADD PUSH1 0x40 MLOAD SWAP1 DUP2 ADD PUSH1 0x40 MSTORE DUP1 SWAP3 SWAP2 SWAP1 DUP2 DUP2 MSTORE PUSH1 0x20 ADD DUP3 DUP1 SLOAD PUSH2 0x1897 SWAP1 PUSH2 0x2B04 JUMP JUMPDEST DUP1 ISZERO PUSH2 0x18E2 JUMPI DUP1 PUSH1 0x1F LT PUSH2 0x18B9 JUMPI PUSH2 0x100 DUP1 DUP4 SLOAD DIV MUL DUP4 MSTORE SWAP2 PUSH1 0x20 ADD SWAP2 PUSH2 0x18E2 JUMP JUMPDEST DUP3 ADD SWAP2 SWAP1 PUSH0 MSTORE PUSH1 0x20 PUSH0 KECCAK256 SWAP1 JUMPDEST DUP2 SLOAD DUP2 MSTORE SWAP1 PUSH1 0x1 ADD SWAP1 PUSH1 0x20 ADD DUP1 DUP4 GT PUSH2 0x18C5 JUMPI DUP3 SWAP1 SUB PUSH1 0x1F AND DUP3 ADD SWAP2 JUMPDEST POP POP POP POP POP DUP2 MSTORE PUSH1 0x20 ADD SWAP1 PUSH1 0x1 ADD SWAP1 PUSH2 0x184E JUMP JUMPDEST POP POP POP POP SWAP1 POP SWAP1 JUMP JUMPDEST PUSH0 DUP1 PUSH0 SWAP1 SLOAD SWAP1 PUSH2 0x100 EXP SWAP1 DIV PUSH20 0xFFFFFFFFFFFFFFFFFFFFFFFFFFFFFFFFFFFFFFFF AND PUSH20 0xFFFFFFFFFFFFFFFFFFFFFFFFFFFFFFFFFFFFFFFF AND CALLER PUSH20 0xFFFFFFFFFFFFFFFFFFFFFFFFFFFFFFFFFFFFFFFF AND EQ PUSH2 0x198E JUMPI PUSH1 0x40 MLOAD PUSH32 0x8C379A000000000000000000000000000000000000000000000000000000000 DUP2 MSTORE PUSH1 0x4 ADD PUSH2 0x1985 SWAP1 PUSH2 0x2C04 JUMP JUMPDEST PUSH1 0x40 MLOAD DUP1 SWAP2 SUB SWAP1 REVERT JUMPDEST PUSH0 PUSH20 0xFFFFFFFFFFFFFFFFFFFFFFFFFFFFFFFFFFFFFFFF AND DUP3 PUSH20 0xFFFFFFFFFFFFFFFFFFFFFFFFFFFFFFFFFFFFFFFF AND SUB PUSH2 0x19FC JUMPI PUSH1 0x40 MLOAD PUSH32 0x8C379A000000000000000000000000000000000000000000000000000000000 DUP2 MSTORE PUSH1 0x4 ADD PUSH2 0x19F3 SWAP1 PUSH2 0x3312 JUMP JUMPDEST PUSH1 0x40 MLOAD DUP1 SWAP2 SUB SWAP1 REVERT JUMPDEST DUP2 PUSH0 DUP1 PUSH2 0x100 EXP DUP2 SLOAD DUP2 PUSH20 0xFFFFFFFFFFFFFFFFFFFFFFFFFFFFFFFFFFFFFFFF MUL NOT AND SWAP1 DUP4 PUSH20 0xFFFFFFFFFFFFFFFFFFFFFFFFFFFFFFFFFFFFFFFF AND MUL OR SWAP1 SSTORE POP DUP2 PUSH20 0xFFFFFFFFFFFFFFFFFFFFFFFFFFFFFFFFFFFFFFFF AND PUSH0 DUP1 SLOAD SWAP1 PUSH2 0x100 EXP SWAP1 DIV PUSH20 0xFFFFFFFFFFFFFFFFFFFFFFFFFFFFFFFFFFFFFFFF AND PUSH20 0xFFFFFFFFFFFFFFFFFFFFFFFFFFFFFFFFFFFFFFFF AND PUSH32 0x8BE0079C531659141344CD1FD0A4F28419497F9722A3DAAFE3B4186F6B6457E0 PUSH1 0x40 MLOAD PUSH1 0x40 MLOAD DUP1 SWAP2 SUB SWAP1 LOG3 PUSH1 0x1 SWAP1 POP SWAP2 SWAP1 POP JUMP JUMPDEST PUSH0 PUSH1 0x7 PUSH2 0x1AC9 DUP4 PUSH2 0x1B9F JUMP JUMPDEST PUSH1 0x40 MLOAD PUSH2 0x1AD6 SWAP2 SWAP1 PUSH2 0x2B6E JUMP JUMPDEST SWAP1 DUP2 MSTORE PUSH1 0x20 ADD PUSH1 0x40 MLOAD DUP1 SWAP2 SUB SWAP1 KECCAK256 PUSH0 SWAP1 SLOAD SWAP1 PUSH2 0x100 EXP SWAP1 DIV PUSH1 0xFF AND SWAP1 POP SWAP2 SWAP1 POP JUMP JUMPDEST PUSH2 0x1B00 PUSH2 0x1EAB JUMP JUMPDEST PUSH1 0x6 PUSH2 0x1B0B DUP6 PUSH2 0x1B9F JUMP JUMPDEST PUSH1 0x40 MLOAD PUSH2 0x1B18 SWAP2 SWAP1 PUSH2 0x2B6E JUMP JUMPDEST SWAP1 DUP2 MSTORE PUSH1 0x20 ADD PUSH1 0x40 MLOAD DUP1 SWAP2 SUB SWAP1 KECCAK256 PUSH2 0x1B2F DUP5 PUSH2 0x1B9F JUMP JUMPDEST PUSH1 0x40 MLOAD PUSH2 0x1B3C SWAP2 SWAP1 PUSH2 0x2B6E JUMP JUMPDEST SWAP1 DUP2 MSTORE PUSH1 0x20 ADD PUSH1 0x40 MLOAD DUP1 SWAP2 SUB SWAP1 KECCAK256 PUSH2 0x1B53 DUP4 PUSH2 0x1B9F JUMP JUMPDEST PUSH1 0x40 MLOAD PUSH2 0x1B60 SWAP2 SWAP1 PUSH2 0x2B6E JUMP JUMPDEST SWAP1 DUP2 MSTORE PUSH1 0x20 ADD PUSH1 0x40 MLOAD DUP1 SWAP2 SUB SWAP1 KECCAK256 PUSH1 0x40 MLOAD DUP1 PUSH1 0x60 ADD PUSH1 0x40 MSTORE SWAP1 DUP2 PUSH0 DUP3 ADD SLOAD DUP2 MSTORE PUSH1 0x20 ADD PUSH1 0x1 DUP3 ADD SLOAD DUP2 MSTORE PUSH1 0x20 ADD PUSH1 0x2 DUP3 ADD SLOAD DUP2 MSTORE POP POP SWAP1 POP SWAP4 SWAP3 POP POP POP JUMP JUMPDEST PUSH1 0x60 PUSH0 DUP3 SWAP1 POP PUSH0 DUP2 MLOAD SWAP1 POP PUSH0 JUMPDEST DUP2 DUP2 LT ISZERO PUSH2 0x1C90 JUMPI PUSH1 0x41 DUP4 DUP3 DUP2 MLOAD DUP2 LT PUSH2 0x1BC9 JUMPI PUSH2 0x1BC8 PUSH2 0x3330 JUMP JUMPDEST JUMPDEST PUSH1 0x20 ADD ADD MLOAD PUSH1 0xF8 SHR PUSH1 0xF8 SHL PUSH1 0xF8 SHR PUSH1 0xFF AND LT ISZERO DUP1 ISZERO PUSH2 0x1C0C JUMPI POP PUSH1 0x5A DUP4 DUP3 DUP2 MLOAD DUP2 LT PUSH2 0x1BF8 JUMPI PUSH2 0x1BF7 PUSH2 0x3330 JUMP JUMPDEST JUMPDEST PUSH1 0x20 ADD ADD MLOAD PUSH1 0xF8 SHR PUSH1 0xF8 SHL PUSH1 0xF8 SHR PUSH1 0xFF AND GT ISZERO JUMPDEST ISZERO PUSH2 0x1C83 JUMPI PUSH1 0x20 DUP4 DUP3 DUP2 MLOAD DUP2 LT PUSH2 0x1C26 JUMPI PUSH2 0x1C25 PUSH2 0x3330 JUMP JUMPDEST JUMPDEST PUSH1 0x20 ADD ADD MLOAD PUSH1 0xF8 SHR PUSH1 0xF8 SHL PUSH1 0xF8 SHR PUSH2 0x1C3E SWAP2 SWAP1 PUSH2 0x3369 JUMP JUMPDEST PUSH1 0xF8 SHL DUP4 DUP3 DUP2 MLOAD DUP2 LT PUSH2 0x1C54 JUMPI PUSH2 0x1C53 PUSH2 0x3330 JUMP JUMPDEST JUMPDEST PUSH1 0x20 ADD ADD SWAP1 PUSH31 0xFFFFFFFFFFFFFFFFFFFFFFFFFFFFFFFFFFFFFFFFFFFFFFFFFFFFFFFFFFFFFF NOT AND SWAP1 DUP2 PUSH0 BYTE SWAP1 MSTORE8 POP JUMPDEST DUP1 DUP1 PUSH1 0x1 ADD SWAP2 POP POP PUSH2 0x1BAC JUMP JUMPDEST POP DUP2 SWAP3 POP POP POP SWAP2 SWAP1 POP JUMP JUMPDEST PUSH0 DUP2 PUSH1 0x40 MLOAD PUSH1 0x20 ADD PUSH2 0x1CAD SWAP2 SWAP1 PUSH2 0x2B6E JUMP JUMPDEST PUSH1 0x40 MLOAD PUSH1 0x20 DUP2 DUP4 SUB SUB DUP2 MSTORE SWAP1 PUSH1 0x40 MSTORE DUP1 MLOAD SWAP1 PUSH1 0x20 ADD KECCAK256 DUP4 PUSH1 0x40 MLOAD PUSH1 0x20 ADD PUSH2 0x1CD4 SWAP2 SWAP1 PUSH2 0x2B6E JUMP JUMPDEST PUSH1 0x40 MLOAD PUSH1 0x20 DUP2 DUP4 SUB SUB DUP2 MSTORE SWAP1 PUSH1 0x40 MSTORE DUP1 MLOAD SWAP1 PUSH1 0x20 ADD KECCAK256 EQ SWAP1 POP SWAP3 SWAP2 POP POP JUMP JUMPDEST PUSH0 DUP1 PUSH2 0x1CFE DUP9 PUSH2 0x1B9F JUMP JUMPDEST SWAP1 POP PUSH0 PUSH2 0x1D0A DUP9 PUSH2 0x1B9F JUMP JUMPDEST SWAP1 POP PUSH0 PUSH2 0x1D16 DUP9 PUSH2 0x1B9F JUMP JUMPDEST SWAP1 POP PUSH0 PUSH2 0x1D22 DUP9 PUSH2 0x1B9F JUMP JUMPDEST SWAP1 POP PUSH1 0x4 PUSH0 DUP2 SLOAD DUP1 SWAP3 SWAP2 SWAP1 PUSH2 0x1D36 SWAP1 PUSH2 0x339D JUMP JUMPDEST SWAP2 SWAP1 POP SSTORE POP PUSH0 PUSH1 0xA PUSH0 PUSH1 0x4 SLOAD DUP2 MSTORE PUSH1 0x20 ADD SWAP1 DUP2 MSTORE PUSH1 0x20 ADD PUSH0 KECCAK256 SWAP1 POP PUSH1 0x4 SLOAD DUP2 PUSH0 ADD DUP2 SWAP1 SSTORE POP DUP5 DUP2 PUSH1 0x1 ADD SWAP1 DUP2 PUSH2 0x1D6C SWAP2 SWAP1 PUSH2 0x2F7A JUMP JUMPDEST POP DUP4 DUP2 PUSH1 0x2 ADD SWAP1 DUP2 PUSH2 0x1D7E SWAP2 SWAP1 PUSH2 0x2F7A JUMP JUMPDEST POP DUP3 DUP2 PUSH1 0x3 ADD SWAP1 DUP2 PUSH2 0x1D90 SWAP2 SWAP1 PUSH2 0x2F7A JUMP JUMPDEST POP DUP2 DUP2 PUSH1 0x4 ADD SWAP1 DUP2 PUSH2 0x1DA2 SWAP2 SWAP1 PUSH2 0x2F7A JUMP JUMPDEST POP DUP8 DUP2 PUSH1 0x5 ADD PUSH0 DUP3 DUP3 SLOAD PUSH2 0x1DB6 SWAP2 SWAP1 PUSH2 0x2CF7 JUMP JUMPDEST SWAP3 POP POP DUP2 SWAP1 SSTORE POP DUP7 DUP2 PUSH1 0x6 ADD DUP2 SWAP1 SSTORE POP TIMESTAMP DUP2 PUSH1 0x7 ADD DUP2 SWAP1 SSTORE POP PUSH1 0xB DUP6 PUSH1 0x40 MLOAD PUSH2 0x1DDF SWAP2 SWAP1 PUSH2 0x2B6E JUMP JUMPDEST SWAP1 DUP2 MSTORE PUSH1 0x20 ADD PUSH1 0x40 MLOAD DUP1 SWAP2 SUB SWAP1 KECCAK256 DUP2 PUSH0 ADD SLOAD SWAP1 DUP1 PUSH1 0x1 DUP2 SLOAD ADD DUP1 DUP3 SSTORE DUP1 SWAP2 POP POP PUSH1 0x1 SWAP1 SUB SWAP1 PUSH0 MSTORE PUSH1 0x20 PUSH0 KECCAK256 ADD PUSH0 SWAP1 SWAP2 SWAP1 SWAP2 SWAP1 SWAP2 POP SSTORE PUSH32 0xD74E30340DB693955384AFDCF8B3879B8E97D050E96AD43BDDAE4356682F7F3B PUSH1 0x4 SLOAD DUP7 DUP7 DUP7 DUP7 DUP14 PUSH1 0x40 MLOAD PUSH2 0x1E4F SWAP7 SWAP6 SWAP5 SWAP4 SWAP3 SWAP2 SWAP1 PUSH2 0x33E4 JUMP JUMPDEST PUSH1 0x40 MLOAD DUP1 SWAP2 SUB SWAP1 LOG1 PUSH1 0x1 SWAP6 POP POP POP POP POP POP SWAP7 SWAP6 POP POP POP POP POP POP JUMP JUMPDEST PUSH1 0x40 MLOAD DUP1 PUSH2 0x100 ADD PUSH1 0x40 MSTORE DUP1 PUSH0 DUP2 MSTORE PUSH1 0x20 ADD PUSH1 0x60 DUP2 MSTORE PUSH1 0x20 ADD PUSH1 0x60 DUP2 MSTORE PUSH1 0x20 ADD PUSH1 0x60 DUP2 MSTORE PUSH1 0x20 ADD PUSH1 0x60 DUP2 MSTORE PUSH1 0x20 ADD PUSH0 DUP2 MSTORE PUSH1 0x20 ADD PUSH0 DUP2 MSTORE PUSH1 0x20 ADD PUSH0 DUP2 MSTORE POP SWAP1 JUMP JUMPDEST PUSH1 0x40 MLOAD DUP1 PUSH1 0x60 ADD PUSH1 0x40 MSTORE DUP1 PUSH0 DUP2 MSTORE PUSH1 0x20 ADD PUSH0 DUP2 MSTORE PUSH1 0x20 ADD PUSH0 DUP2 MSTORE POP SWAP1 JUMP JUMPDEST PUSH0 DUP2 SWAP1 POP SWAP2 SWAP1 POP JUMP JUMPDEST PUSH2 0x1EDB DUP2 PUSH2 0x1EC9 JUMP JUMPDEST DUP3 MSTORE POP POP JUMP JUMPDEST PUSH0 PUSH1 0x20 DUP3 ADD SWAP1 POP PUSH2 0x1EF4 PUSH0 DUP4 ADD DUP5 PUSH2 0x1ED2 JUMP JUMPDEST SWAP3 SWAP2 POP POP JUMP JUMPDEST PUSH0 PUSH1 0x40 MLOAD SWAP1 POP SWAP1 JUMP JUMPDEST PUSH0 DUP1 REVERT JUMPDEST PUSH0 DUP1 REVERT JUMPDEST PUSH2 0x1F14 DUP2 PUSH2 0x1EC9 JUMP JUMPDEST DUP2 EQ PUSH2 0x1F1E JUMPI PUSH0 DUP1 REVERT JUMPDEST POP JUMP JUMPDEST PUSH0 DUP2 CALLDATALOAD SWAP1 POP PUSH2 0x1F2F DUP2 PUSH2 0x1F0B JUMP JUMPDEST SWAP3 SWAP2 POP POP JUMP JUMPDEST PUSH0 PUSH1 0x20 DUP3 DUP5 SUB SLT ISZERO PUSH2 0x1F4A JUMPI PUSH2 0x1F49 PUSH2 0x1F03 JUMP JUMPDEST JUMPDEST PUSH0 PUSH2 0x1F57 DUP5 DUP3 DUP6 ADD PUSH2 0x1F21 JUMP JUMPDEST SWAP2 POP POP SWAP3 SWAP2 POP POP JUMP JUMPDEST PUSH2 0x1F69 DUP2 PUSH2 0x1EC9 JUMP JUMPDEST DUP3 MSTORE POP POP JUMP JUMPDEST PUSH0 DUP2 MLOAD SWAP1 POP SWAP2 SWAP1 POP JUMP JUMPDEST PUSH0 DUP3 DUP3 MSTORE PUSH1 0x20 DUP3 ADD SWAP1 POP SWAP3 SWAP2 POP POP JUMP JUMPDEST DUP3 DUP2 DUP4 MCOPY PUSH0 DUP4 DUP4 ADD MSTORE POP POP POP JUMP JUMPDEST PUSH0 PUSH1 0x1F NOT PUSH1 0x1F DUP4 ADD AND SWAP1 POP SWAP2 SWAP1 POP JUMP JUMPDEST PUSH0 PUSH2 0x1FB1 DUP3 PUSH2 0x1F6F JUMP JUMPDEST PUSH2 0x1FBB DUP2 DUP6 PUSH2 0x1F79 JUMP JUMPDEST SWAP4 POP PUSH2 0x1FCB DUP2 DUP6 PUSH1 0x20 DUP7 ADD PUSH2 0x1F89 JUMP JUMPDEST PUSH2 0x1FD4 DUP2 PUSH2 0x1F97 JUMP JUMPDEST DUP5 ADD SWAP2 POP POP SWAP3 SWAP2 POP POP JUMP JUMPDEST PUSH0 DUP2 SWAP1 POP SWAP2 SWAP1 POP JUMP JUMPDEST PUSH2 0x1FF1 DUP2 PUSH2 0x1FDF JUMP JUMPDEST DUP3 MSTORE POP POP JUMP JUMPDEST PUSH0 PUSH2 0x100 DUP4 ADD PUSH0 DUP4 ADD MLOAD PUSH2 0x200D PUSH0 DUP7 ADD DUP3 PUSH2 0x1F60 JUMP JUMPDEST POP PUSH1 0x20 DUP4 ADD MLOAD DUP5 DUP3 SUB PUSH1 0x20 DUP7 ADD MSTORE PUSH2 0x2025 DUP3 DUP3 PUSH2 0x1FA7 JUMP JUMPDEST SWAP2 POP POP PUSH1 0x40 DUP4 ADD MLOAD DUP5 DUP3 SUB PUSH1 0x40 DUP7 ADD MSTORE PUSH2 0x203F DUP3 DUP3 PUSH2 0x1FA7 JUMP JUMPDEST SWAP2 POP POP PUSH1 0x60 DUP4 ADD MLOAD DUP5 DUP3 SUB PUSH1 0x60 DUP7 ADD MSTORE PUSH2 0x2059 DUP3 DUP3 PUSH2 0x1FA7 JUMP JUMPDEST SWAP2 POP POP PUSH1 0x80 DUP4 ADD MLOAD DUP5 DUP3 SUB PUSH1 0x80 DUP7 ADD MSTORE PUSH2 0x2073 DUP3 DUP3 PUSH2 0x1FA7 JUMP JUMPDEST SWAP2 POP POP PUSH1 0xA0 DUP4 ADD MLOAD PUSH2 0x2088 PUSH1 0xA0 DUP7 ADD DUP3 PUSH2 0x1F60 JUMP JUMPDEST POP PUSH1 0xC0 DUP4 ADD MLOAD PUSH2 0x209B PUSH1 0xC0 DUP7 ADD DUP3 PUSH2 0x1F60 JUMP JUMPDEST POP PUSH1 0xE0 DUP4 ADD MLOAD PUSH2 0x20AE PUSH1 0xE0 DUP7 ADD DUP3 PUSH2 0x1FE8 JUMP JUMPDEST POP DUP1 SWAP2 POP POP SWAP3 SWAP2 POP POP JUMP JUMPDEST PUSH0 PUSH1 0x20 DUP3 ADD SWAP1 POP DUP2 DUP2 SUB PUSH0 DUP4 ADD MSTORE PUSH2 0x20D1 DUP2 DUP5 PUSH2 0x1FF7 JUMP JUMPDEST SWAP1 POP SWAP3 SWAP2 POP POP JUMP JUMPDEST PUSH0 DUP1 REVERT JUMPDEST PUSH0 DUP1 REVERT JUMPDEST PUSH32 0x4E487B7100000000000000000000000000000000000000000000000000000000 PUSH0 MSTORE PUSH1 0x41 PUSH1 0x4 MSTORE PUSH1 0x24 PUSH0 REVERT JUMPDEST PUSH2 0x2117 DUP3 PUSH2 0x1F97 JUMP JUMPDEST DUP2 ADD DUP2 DUP2 LT PUSH8 0xFFFFFFFFFFFFFFFF DUP3 GT OR ISZERO PUSH2 0x2136 JUMPI PUSH2 0x2135 PUSH2 0x20E1 JUMP JUMPDEST JUMPDEST DUP1 PUSH1 0x40 MSTORE POP POP POP JUMP JUMPDEST PUSH0 PUSH2 0x2148 PUSH2 0x1EFA JUMP JUMPDEST SWAP1 POP PUSH2 0x2154 DUP3 DUP3 PUSH2 0x210E JUMP JUMPDEST SWAP2 SWAP1 POP JUMP JUMPDEST PUSH0 PUSH8 0xFFFFFFFFFFFFFFFF DUP3 GT ISZERO PUSH2 0x2173 JUMPI PUSH2 0x2172 PUSH2 0x20E1 JUMP JUMPDEST JUMPDEST PUSH2 0x217C DUP3 PUSH2 0x1F97 JUMP JUMPDEST SWAP1 POP PUSH1 0x20 DUP2 ADD SWAP1 POP SWAP2 SWAP1 POP JUMP JUMPDEST DUP3 DUP2 DUP4 CALLDATACOPY PUSH0 DUP4 DUP4 ADD MSTORE POP POP POP JUMP JUMPDEST PUSH0 PUSH2 0x21A9 PUSH2 0x21A4 DUP5 PUSH2 0x2159 JUMP JUMPDEST PUSH2 0x213F JUMP JUMPDEST SWAP1 POP DUP3 DUP2 MSTORE PUSH1 0x20 DUP2 ADD DUP5 DUP5 DUP5 ADD GT ISZERO PUSH2 0x21C5 JUMPI PUSH2 0x21C4 PUSH2 0x20DD JUMP JUMPDEST JUMPDEST PUSH2 0x21D0 DUP5 DUP3 DUP6 PUSH2 0x2189 JUMP JUMPDEST POP SWAP4 SWAP3 POP POP POP JUMP JUMPDEST PUSH0 DUP3 PUSH1 0x1F DUP4 ADD SLT PUSH2 0x21EC JUMPI PUSH2 0x21EB PUSH2 0x20D9 JUMP JUMPDEST JUMPDEST DUP2 CALLDATALOAD PUSH2 0x21FC DUP5 DUP3 PUSH1 0x20 DUP7 ADD PUSH2 0x2197 JUMP JUMPDEST SWAP2 POP POP SWAP3 SWAP2 POP POP JUMP JUMPDEST PUSH0 DUP1 PUSH1 0x40 DUP4 DUP6 SUB SLT ISZERO PUSH2 0x221B JUMPI PUSH2 0x221A PUSH2 0x1F03 JUMP JUMPDEST JUMPDEST PUSH0 DUP4 ADD CALLDATALOAD PUSH8 0xFFFFFFFFFFFFFFFF DUP2 GT ISZERO PUSH2 0x2238 JUMPI PUSH2 0x2237 PUSH2 0x1F07 JUMP JUMPDEST JUMPDEST PUSH2 0x2244 DUP6 DUP3 DUP7 ADD PUSH2 0x21D8 JUMP JUMPDEST SWAP3 POP POP PUSH1 0x20 DUP4 ADD CALLDATALOAD PUSH8 0xFFFFFFFFFFFFFFFF DUP2 GT ISZERO PUSH2 0x2265 JUMPI PUSH2 0x2264 PUSH2 0x1F07 JUMP JUMPDEST JUMPDEST PUSH2 0x2271 DUP6 DUP3 DUP7 ADD PUSH2 0x21D8 JUMP JUMPDEST SWAP2 POP POP SWAP3 POP SWAP3 SWAP1 POP JUMP JUMPDEST PUSH0 DUP2 ISZERO ISZERO SWAP1 POP SWAP2 SWAP1 POP JUMP JUMPDEST PUSH2 0x228F DUP2 PUSH2 0x227B JUMP JUMPDEST DUP3 MSTORE POP POP JUMP JUMPDEST PUSH0 PUSH1 0x20 DUP3 ADD SWAP1 POP PUSH2 0x22A8 PUSH0 DUP4 ADD DUP5 PUSH2 0x2286 JUMP JUMPDEST SWAP3 SWAP2 POP POP JUMP JUMPDEST PUSH0 DUP1 PUSH0 DUP1 PUSH0 PUSH1 0xA0 DUP7 DUP9 SUB SLT ISZERO PUSH2 0x22C7 JUMPI PUSH2 0x22C6 PUSH2 0x1F03 JUMP JUMPDEST JUMPDEST PUSH0 DUP7 ADD CALLDATALOAD PUSH8 0xFFFFFFFFFFFFFFFF DUP2 GT ISZERO PUSH2 0x22E4 JUMPI PUSH2 0x22E3 PUSH2 0x1F07 JUMP JUMPDEST JUMPDEST PUSH2 0x22F0 DUP9 DUP3 DUP10 ADD PUSH2 0x21D8 JUMP JUMPDEST SWAP6 POP POP PUSH1 0x20 DUP7 ADD CALLDATALOAD PUSH8 0xFFFFFFFFFFFFFFFF DUP2 GT ISZERO PUSH2 0x2311 JUMPI PUSH2 0x2310 PUSH2 0x1F07 JUMP JUMPDEST JUMPDEST PUSH2 0x231D DUP9 DUP3 DUP10 ADD PUSH2 0x21D8 JUMP JUMPDEST SWAP5 POP POP PUSH1 0x40 DUP7 ADD CALLDATALOAD PUSH8 0xFFFFFFFFFFFFFFFF DUP2 GT ISZERO PUSH2 0x233E JUMPI PUSH2 0x233D PUSH2 0x1F07 JUMP JUMPDEST JUMPDEST PUSH2 0x234A DUP9 DUP3 DUP10 ADD PUSH2 0x21D8 JUMP JUMPDEST SWAP4 POP POP PUSH1 0x60 DUP7 ADD CALLDATALOAD PUSH8 0xFFFFFFFFFFFFFFFF DUP2 GT ISZERO PUSH2 0x236B JUMPI PUSH2 0x236A PUSH2 0x1F07 JUMP JUMPDEST JUMPDEST PUSH2 0x2377 DUP9 DUP3 DUP10 ADD PUSH2 0x21D8 JUMP JUMPDEST SWAP3 POP POP PUSH1 0x80 PUSH2 0x2388 DUP9 DUP3 DUP10 ADD PUSH2 0x1F21 JUMP JUMPDEST SWAP2 POP POP SWAP3 SWAP6 POP SWAP3 SWAP6 SWAP1 SWAP4 POP JUMP JUMPDEST PUSH0 DUP1 PUSH0 DUP1 PUSH1 0x80 DUP6 DUP8 SUB SLT ISZERO PUSH2 0x23AD JUMPI PUSH2 0x23AC PUSH2 0x1F03 JUMP JUMPDEST JUMPDEST PUSH0 DUP6 ADD CALLDATALOAD PUSH8 0xFFFFFFFFFFFFFFFF DUP2 GT ISZERO PUSH2 0x23CA JUMPI PUSH2 0x23C9 PUSH2 0x1F07 JUMP JUMPDEST JUMPDEST PUSH2 0x23D6 DUP8 DUP3 DUP9 ADD PUSH2 0x21D8 JUMP JUMPDEST SWAP5 POP POP PUSH1 0x20 DUP6 ADD CALLDATALOAD PUSH8 0xFFFFFFFFFFFFFFFF DUP2 GT ISZERO PUSH2 0x23F7 JUMPI PUSH2 0x23F6 PUSH2 0x1F07 JUMP JUMPDEST JUMPDEST PUSH2 0x2403 DUP8 DUP3 DUP9 ADD PUSH2 0x21D8 JUMP JUMPDEST SWAP4 POP POP PUSH1 0x40 DUP6 ADD CALLDATALOAD PUSH8 0xFFFFFFFFFFFFFFFF DUP2 GT ISZERO PUSH2 0x2424 JUMPI PUSH2 0x2423 PUSH2 0x1F07 JUMP JUMPDEST JUMPDEST PUSH2 0x2430 DUP8 DUP3 DUP9 ADD PUSH2 0x21D8 JUMP JUMPDEST SWAP3 POP POP PUSH1 0x60 PUSH2 0x2441 DUP8 DUP3 DUP9 ADD PUSH2 0x1F21 JUMP JUMPDEST SWAP2 POP POP SWAP3 SWAP6 SWAP2 SWAP5 POP SWAP3 POP JUMP JUMPDEST PUSH0 PUSH1 0x20 DUP3 DUP5 SUB SLT ISZERO PUSH2 0x2462 JUMPI PUSH2 0x2461 PUSH2 0x1F03 JUMP JUMPDEST JUMPDEST PUSH0 DUP3 ADD CALLDATALOAD PUSH8 0xFFFFFFFFFFFFFFFF DUP2 GT ISZERO PUSH2 0x247F JUMPI PUSH2 0x247E PUSH2 0x1F07 JUMP JUMPDEST JUMPDEST PUSH2 0x248B DUP5 DUP3 DUP6 ADD PUSH2 0x21D8 JUMP JUMPDEST SWAP2 POP POP SWAP3 SWAP2 POP POP JUMP JUMPDEST PUSH0 DUP1 PUSH0 DUP1 PUSH0 DUP1 PUSH0 PUSH1 0xE0 DUP9 DUP11 SUB SLT ISZERO PUSH2 0x24AF JUMPI PUSH2 0x24AE PUSH2 0x1F03 JUMP JUMPDEST JUMPDEST PUSH0 DUP9 ADD CALLDATALOAD PUSH8 0xFFFFFFFFFFFFFFFF DUP2 GT ISZERO PUSH2 0x24CC JUMPI PUSH2 0x24CB PUSH2 0x1F07 JUMP JUMPDEST JUMPDEST PUSH2 0x24D8 DUP11 DUP3 DUP12 ADD PUSH2 0x21D8 JUMP JUMPDEST SWAP8 POP POP PUSH1 0x20 DUP9 ADD CALLDATALOAD PUSH8 0xFFFFFFFFFFFFFFFF DUP2 GT ISZERO PUSH2 0x24F9 JUMPI PUSH2 0x24F8 PUSH2 0x1F07 JUMP JUMPDEST JUMPDEST PUSH2 0x2505 DUP11 DUP3 DUP12 ADD PUSH2 0x21D8 JUMP JUMPDEST SWAP7 POP POP PUSH1 0x40 DUP9 ADD CALLDATALOAD PUSH8 0xFFFFFFFFFFFFFFFF DUP2 GT ISZERO PUSH2 0x2526 JUMPI PUSH2 0x2525 PUSH2 0x1F07 JUMP JUMPDEST JUMPDEST PUSH2 0x2532 DUP11 DUP3 DUP12 ADD PUSH2 0x21D8 JUMP JUMPDEST SWAP6 POP POP PUSH1 0x60 DUP9 ADD CALLDATALOAD PUSH8 0xFFFFFFFFFFFFFFFF DUP2 GT ISZERO PUSH2 0x2553 JUMPI PUSH2 0x2552 PUSH2 0x1F07 JUMP JUMPDEST JUMPDEST PUSH2 0x255F DUP11 DUP3 DUP12 ADD PUSH2 0x21D8 JUMP JUMPDEST SWAP5 POP POP PUSH1 0x80 DUP9 ADD CALLDATALOAD PUSH8 0xFFFFFFFFFFFFFFFF DUP2 GT ISZERO PUSH2 0x2580 JUMPI PUSH2 0x257F PUSH2 0x1F07 JUMP JUMPDEST JUMPDEST PUSH2 0x258C DUP11 DUP3 DUP12 ADD PUSH2 0x21D8 JUMP JUMPDEST SWAP4 POP POP PUSH1 0xA0 PUSH2 0x259D DUP11 DUP3 DUP12 ADD PUSH2 0x1F21 JUMP JUMPDEST SWAP3 POP POP PUSH1 0xC0 PUSH2 0x25AE DUP11 DUP3 DUP12 ADD PUSH2 0x1F21 JUMP JUMPDEST SWAP2 POP POP SWAP3 SWAP6 SWAP9 SWAP2 SWAP5 SWAP8 POP SWAP3 SWAP6 POP JUMP JUMPDEST PUSH0 DUP1 PUSH0 DUP1 PUSH1 0x80 DUP6 DUP8 SUB SLT ISZERO PUSH2 0x25D5 JUMPI PUSH2 0x25D4 PUSH2 0x1F03 JUMP JUMPDEST JUMPDEST PUSH0 DUP6 ADD CALLDATALOAD PUSH8 0xFFFFFFFFFFFFFFFF DUP2 GT ISZERO PUSH2 0x25F2 JUMPI PUSH2 0x25F1 PUSH2 0x1F07 JUMP JUMPDEST JUMPDEST PUSH2 0x25FE DUP8 DUP3 DUP9 ADD PUSH2 0x21D8 JUMP JUMPDEST SWAP5 POP POP PUSH1 0x20 DUP6 ADD CALLDATALOAD PUSH8 0xFFFFFFFFFFFFFFFF DUP2 GT ISZERO PUSH2 0x261F JUMPI PUSH2 0x261E PUSH2 0x1F07 JUMP JUMPDEST JUMPDEST PUSH2 0x262B DUP8 DUP3 DUP9 ADD PUSH2 0x21D8 JUMP JUMPDEST SWAP4 POP POP PUSH1 0x40 DUP6 ADD CALLDATALOAD PUSH8 0xFFFFFFFFFFFFFFFF DUP2 GT ISZERO PUSH2 0x264C JUMPI PUSH2 0x264B PUSH2 0x1F07 JUMP JUMPDEST JUMPDEST PUSH2 0x2658 DUP8 DUP3 DUP9 ADD PUSH2 0x21D8 JUMP JUMPDEST SWAP3 POP POP PUSH1 0x60 DUP6 ADD CALLDATALOAD PUSH8 0xFFFFFFFFFFFFFFFF DUP2 GT ISZERO PUSH2 0x2679 JUMPI PUSH2 0x2678 PUSH2 0x1F07 JUMP JUMPDEST JUMPDEST PUSH2 0x2685 DUP8 DUP3 DUP9 ADD PUSH2 0x21D8 JUMP JUMPDEST SWAP2 POP POP SWAP3 SWAP6 SWAP2 SWAP5 POP SWAP3 POP JUMP JUMPDEST PUSH0 DUP2 MLOAD SWAP1 POP SWAP2 SWAP1 POP JUMP JUMPDEST PUSH0 DUP3 DUP3 MSTORE PUSH1 0x20 DUP3 ADD SWAP1 POP SWAP3 SWAP2 POP POP JUMP JUMPDEST PUSH0 DUP2 SWAP1 POP PUSH1 0x20 DUP3 ADD SWAP1 POP SWAP2 SWAP1 POP JUMP JUMPDEST PUSH0 PUSH2 0x26C5 DUP4 DUP4 PUSH2 0x1F60 JUMP JUMPDEST PUSH1 0x20 DUP4 ADD SWAP1 POP SWAP3 SWAP2 POP POP JUMP JUMPDEST PUSH0 PUSH1 0x20 DUP3 ADD SWAP1 POP SWAP2 SWAP1 POP JUMP JUMPDEST PUSH0 PUSH2 0x26E7 DUP3 PUSH2 0x2691 JUMP JUMPDEST PUSH2 0x26F1 DUP2 DUP6 PUSH2 0x269B JUMP JUMPDEST SWAP4 POP PUSH2 0x26FC DUP4 PUSH2 0x26AB JUMP JUMPDEST DUP1 PUSH0 JUMPDEST DUP4 DUP2 LT ISZERO PUSH2 0x272C JUMPI DUP2 MLOAD PUSH2 0x2713 DUP9 DUP3 PUSH2 0x26BA JUMP JUMPDEST SWAP8 POP PUSH2 0x271E DUP4 PUSH2 0x26D1 JUMP JUMPDEST SWAP3 POP POP PUSH1 0x1 DUP2 ADD SWAP1 POP PUSH2 0x26FF JUMP JUMPDEST POP DUP6 SWAP4 POP POP POP POP SWAP3 SWAP2 POP POP JUMP JUMPDEST PUSH0 PUSH1 0x20 DUP3 ADD SWAP1 POP DUP2 DUP2 SUB PUSH0 DUP4 ADD MSTORE PUSH2 0x2751 DUP2 DUP5 PUSH2 0x26DD JUMP JUMPDEST SWAP1 POP SWAP3 SWAP2 POP POP JUMP JUMPDEST PUSH0 DUP2 MLOAD SWAP1 POP SWAP2 SWAP1 POP JUMP JUMPDEST PUSH0 DUP3 DUP3 MSTORE PUSH1 0x20 DUP3 ADD SWAP1 POP SWAP3 SWAP2 POP POP JUMP JUMPDEST PUSH0 DUP2 SWAP1 POP PUSH1 0x20 DUP3 ADD SWAP1 POP SWAP2 SWAP1 POP JUMP JUMPDEST PUSH0 PUSH2 0x278D DUP4 DUP4 PUSH2 0x1FA7 JUMP JUMPDEST SWAP1 POP SWAP3 SWAP2 POP POP JUMP JUMPDEST PUSH0 PUSH1 0x20 DUP3 ADD SWAP1 POP SWAP2 SWAP1 POP JUMP JUMPDEST PUSH0 PUSH2 0x27AB DUP3 PUSH2 0x2759 JUMP JUMPDEST PUSH2 0x27B5 DUP2 DUP6 PUSH2 0x2763 JUMP JUMPDEST SWAP4 POP DUP4 PUSH1 0x20 DUP3 MUL DUP6 ADD PUSH2 0x27C7 DUP6 PUSH2 0x2773 JUMP JUMPDEST DUP1 PUSH0 JUMPDEST DUP6 DUP2 LT ISZERO PUSH2 0x2802 JUMPI DUP5 DUP5 SUB DUP10 MSTORE DUP2 MLOAD PUSH2 0x27E3 DUP6 DUP3 PUSH2 0x2782 JUMP JUMPDEST SWAP5 POP PUSH2 0x27EE DUP4 PUSH2 0x2795 JUMP JUMPDEST SWAP3 POP PUSH1 0x20 DUP11 ADD SWAP10 POP POP PUSH1 0x1 DUP2 ADD SWAP1 POP PUSH2 0x27CA JUMP JUMPDEST POP DUP3 SWAP8 POP DUP8 SWAP6 POP POP POP POP POP POP SWAP3 SWAP2 POP POP JUMP JUMPDEST PUSH0 PUSH1 0x20 DUP3 ADD SWAP1 POP DUP2 DUP2 SUB PUSH0 DUP4 ADD MSTORE PUSH2 0x282C DUP2 DUP5 PUSH2 0x27A1 JUMP JUMPDEST SWAP1 POP SWAP3 SWAP2 POP POP JUMP JUMPDEST PUSH0 PUSH20 0xFFFFFFFFFFFFFFFFFFFFFFFFFFFFFFFFFFFFFFFF DUP3 AND SWAP1 POP SWAP2 SWAP1 POP JUMP JUMPDEST PUSH0 PUSH2 0x285D DUP3 PUSH2 0x2834 JUMP JUMPDEST SWAP1 POP SWAP2 SWAP1 POP JUMP JUMPDEST PUSH2 0x286D DUP2 PUSH2 0x2853 JUMP JUMPDEST DUP3 MSTORE POP POP JUMP JUMPDEST PUSH0 PUSH1 0x20 DUP3 ADD SWAP1 POP PUSH2 0x2886 PUSH0 DUP4 ADD DUP5 PUSH2 0x2864 JUMP JUMPDEST SWAP3 SWAP2 POP POP JUMP JUMPDEST PUSH0 DUP1 PUSH0 DUP1 PUSH0 DUP1 PUSH1 0xC0 DUP8 DUP10 SUB SLT ISZERO PUSH2 0x28A6 JUMPI PUSH2 0x28A5 PUSH2 0x1F03 JUMP JUMPDEST JUMPDEST PUSH0 DUP8 ADD CALLDATALOAD PUSH8 0xFFFFFFFFFFFFFFFF DUP2 GT ISZERO PUSH2 0x28C3 JUMPI PUSH2 0x28C2 PUSH2 0x1F07 JUMP JUMPDEST JUMPDEST PUSH2 0x28CF DUP10 DUP3 DUP11 ADD PUSH2 0x21D8 JUMP JUMPDEST SWAP7 POP POP PUSH1 0x20 DUP8 ADD CALLDATALOAD PUSH8 0xFFFFFFFFFFFFFFFF DUP2 GT ISZERO PUSH2 0x28F0 JUMPI PUSH2 0x28EF PUSH2 0x1F07 JUMP JUMPDEST JUMPDEST PUSH2 0x28FC DUP10 DUP3 DUP11 ADD PUSH2 0x21D8 JUMP JUMPDEST SWAP6 POP POP PUSH1 0x40 DUP8 ADD CALLDATALOAD PUSH8 0xFFFFFFFFFFFFFFFF DUP2 GT ISZERO PUSH2 0x291D JUMPI PUSH2 0x291C PUSH2 0x1F07 JUMP JUMPDEST JUMPDEST PUSH2 0x2929 DUP10 DUP3 DUP11 ADD PUSH2 0x21D8 JUMP JUMPDEST SWAP5 POP POP PUSH1 0x60 DUP8 ADD CALLDATALOAD PUSH8 0xFFFFFFFFFFFFFFFF DUP2 GT ISZERO PUSH2 0x294A JUMPI PUSH2 0x2949 PUSH2 0x1F07 JUMP JUMPDEST JUMPDEST PUSH2 0x2956 DUP10 DUP3 DUP11 ADD PUSH2 0x21D8 JUMP JUMPDEST SWAP4 POP POP PUSH1 0x80 PUSH2 0x2967 DUP10 DUP3 DUP11 ADD PUSH2 0x1F21 JUMP JUMPDEST SWAP3 POP POP PUSH1 0xA0 PUSH2 0x2978 DUP10 DUP3 DUP11 ADD PUSH2 0x1F21 JUMP JUMPDEST SWAP2 POP POP SWAP3 SWAP6 POP SWAP3 SWAP6 POP SWAP3 SWAP6 JUMP JUMPDEST PUSH2 0x298E DUP2 PUSH2 0x2853 JUMP JUMPDEST DUP2 EQ PUSH2 0x2998 JUMPI PUSH0 DUP1 REVERT JUMPDEST POP JUMP JUMPDEST PUSH0 DUP2 CALLDATALOAD SWAP1 POP PUSH2 0x29A9 DUP2 PUSH2 0x2985 JUMP JUMPDEST SWAP3 SWAP2 POP POP JUMP JUMPDEST PUSH0 PUSH1 0x20 DUP3 DUP5 SUB SLT ISZERO PUSH2 0x29C4 JUMPI PUSH2 0x29C3 PUSH2 0x1F03 JUMP JUMPDEST JUMPDEST PUSH0 PUSH2 0x29D1 DUP5 DUP3 DUP6 ADD PUSH2 0x299B JUMP JUMPDEST SWAP2 POP POP SWAP3 SWAP2 POP POP JUMP JUMPDEST PUSH0 DUP1 PUSH0 PUSH1 0x60 DUP5 DUP7 SUB SLT ISZERO PUSH2 0x29F1 JUMPI PUSH2 0x29F0 PUSH2 0x1F03 JUMP JUMPDEST JUMPDEST PUSH0 DUP5 ADD CALLDATALOAD PUSH8 0xFFFFFFFFFFFFFFFF DUP2 GT ISZERO PUSH2 0x2A0E JUMPI PUSH2 0x2A0D PUSH2 0x1F07 JUMP JUMPDEST JUMPDEST PUSH2 0x2A1A DUP7 DUP3 DUP8 ADD PUSH2 0x21D8 JUMP JUMPDEST SWAP4 POP POP PUSH1 0x20 DUP5 ADD CALLDATALOAD PUSH8 0xFFFFFFFFFFFFFFFF DUP2 GT ISZERO PUSH2 0x2A3B JUMPI PUSH2 0x2A3A PUSH2 0x1F07 JUMP JUMPDEST JUMPDEST PUSH2 0x2A47 DUP7 DUP3 DUP8 ADD PUSH2 0x21D8 JUMP JUMPDEST SWAP3 POP POP PUSH1 0x40 DUP5 ADD CALLDATALOAD PUSH8 0xFFFFFFFFFFFFFFFF DUP2 GT ISZERO PUSH2 0x2A68 JUMPI PUSH2 0x2A67 PUSH2 0x1F07 JUMP JUMPDEST JUMPDEST PUSH2 0x2A74 DUP7 DUP3 DUP8 ADD PUSH2 0x21D8 JUMP JUMPDEST SWAP2 POP POP SWAP3 POP SWAP3 POP SWAP3 JUMP JUMPDEST PUSH1 0x60 DUP3 ADD PUSH0 DUP3 ADD MLOAD PUSH2 0x2A92 PUSH0 DUP6 ADD DUP3 PUSH2 0x1F60 JUMP JUMPDEST POP PUSH1 0x20 DUP3 ADD MLOAD PUSH2 0x2AA5 PUSH1 0x20 DUP6 ADD DUP3 PUSH2 0x1F60 JUMP JUMPDEST POP PUSH1 0x40 DUP3 ADD MLOAD PUSH2 0x2AB8 PUSH1 0x40 DUP6 ADD DUP3 PUSH2 0x1F60 JUMP JUMPDEST POP POP POP POP JUMP JUMPDEST PUSH0 PUSH1 0x60 DUP3 ADD SWAP1 POP PUSH2 0x2AD1 PUSH0 DUP4 ADD DUP5 PUSH2 0x2A7E JUMP JUMPDEST SWAP3 SWAP2 POP POP JUMP JUMPDEST PUSH32 0x4E487B7100000000000000000000000000000000000000000000000000000000 PUSH0 MSTORE PUSH1 0x22 PUSH1 0x4 MSTORE PUSH1 0x24 PUSH0 REVERT JUMPDEST PUSH0 PUSH1 0x2 DUP3 DIV SWAP1 POP PUSH1 0x1 DUP3 AND DUP1 PUSH2 0x2B1B JUMPI PUSH1 0x7F DUP3 AND SWAP2 POP JUMPDEST PUSH1 0x20 DUP3 LT DUP2 SUB PUSH2 0x2B2E JUMPI PUSH2 0x2B2D PUSH2 0x2AD7 JUMP JUMPDEST JUMPDEST POP SWAP2 SWAP1 POP JUMP JUMPDEST PUSH0 DUP2 SWAP1 POP SWAP3 SWAP2 POP POP JUMP JUMPDEST PUSH0 PUSH2 0x2B48 DUP3 PUSH2 0x1F6F JUMP JUMPDEST PUSH2 0x2B52 DUP2 DUP6 PUSH2 0x2B34 JUMP JUMPDEST SWAP4 POP PUSH2 0x2B62 DUP2 DUP6 PUSH1 0x20 DUP7 ADD PUSH2 0x1F89 JUMP JUMPDEST DUP1 DUP5 ADD SWAP2 POP POP SWAP3 SWAP2 POP POP JUMP JUMPDEST PUSH0 PUSH2 0x2B79 DUP3 DUP5 PUSH2 0x2B3E JUMP JUMPDEST SWAP2 POP DUP2 SWAP1 POP SWAP3 SWAP2 POP POP JUMP JUMPDEST PUSH0 DUP3 DUP3 MSTORE PUSH1 0x20 DUP3 ADD SWAP1 POP SWAP3 SWAP2 POP POP JUMP JUMPDEST PUSH32 0x4F6E6C792074686520636F6E7472616374206F776E65722063616E2063616C6C PUSH0 DUP3 ADD MSTORE PUSH32 0x20746869732066756E6374696F6E2E0000000000000000000000000000000000 PUSH1 0x20 DUP3 ADD MSTORE POP JUMP JUMPDEST PUSH0 PUSH2 0x2BEE PUSH1 0x2F DUP4 PUSH2 0x2B84 JUMP JUMPDEST SWAP2 POP PUSH2 0x2BF9 DUP3 PUSH2 0x2B94 JUMP JUMPDEST PUSH1 0x40 DUP3 ADD SWAP1 POP SWAP2 SWAP1 POP JUMP JUMPDEST PUSH0 PUSH1 0x20 DUP3 ADD SWAP1 POP DUP2 DUP2 SUB PUSH0 DUP4 ADD MSTORE PUSH2 0x2C1B DUP2 PUSH2 0x2BE2 JUMP JUMPDEST SWAP1 POP SWAP2 SWAP1 POP JUMP JUMPDEST PUSH32 0x496E73756666696369656E742062616C616E6365000000000000000000000000 PUSH0 DUP3 ADD MSTORE POP JUMP JUMPDEST PUSH0 PUSH2 0x2C56 PUSH1 0x14 DUP4 PUSH2 0x2B84 JUMP JUMPDEST SWAP2 POP PUSH2 0x2C61 DUP3 PUSH2 0x2C22 JUMP JUMPDEST PUSH1 0x20 DUP3 ADD SWAP1 POP SWAP2 SWAP1 POP JUMP JUMPDEST PUSH0 PUSH1 0x20 DUP3 ADD SWAP1 POP DUP2 DUP2 SUB PUSH0 DUP4 ADD MSTORE PUSH2 0x2C83 DUP2 PUSH2 0x2C4A JUMP JUMPDEST SWAP1 POP SWAP2 SWAP1 POP JUMP JUMPDEST PUSH32 0x4E487B7100000000000000000000000000000000000000000000000000000000 PUSH0 MSTORE PUSH1 0x11 PUSH1 0x4 MSTORE PUSH1 0x24 PUSH0 REVERT JUMPDEST PUSH0 PUSH2 0x2CC1 DUP3 PUSH2 0x1EC9 JUMP JUMPDEST SWAP2 POP PUSH2 0x2CCC DUP4 PUSH2 0x1EC9 JUMP JUMPDEST SWAP3 POP DUP3 DUP3 SUB SWAP1 POP DUP2 DUP2 SLT PUSH0 DUP5 SLT AND DUP3 DUP3 SGT PUSH0 DUP6 SLT ISZERO AND OR ISZERO PUSH2 0x2CF1 JUMPI PUSH2 0x2CF0 PUSH2 0x2C8A JUMP JUMPDEST JUMPDEST SWAP3 SWAP2 POP POP JUMP JUMPDEST PUSH0 PUSH2 0x2D01 DUP3 PUSH2 0x1EC9 JUMP JUMPDEST SWAP2 POP PUSH2 0x2D0C DUP4 PUSH2 0x1EC9 JUMP JUMPDEST SWAP3 POP DUP3 DUP3 ADD SWAP1 POP DUP3 DUP2 SLT ISZERO PUSH0 DUP4 SLT AND DUP4 DUP3 SLT PUSH0 DUP5 SLT ISZERO AND OR ISZERO PUSH2 0x2D32 JUMPI PUSH2 0x2D31 PUSH2 0x2C8A JUMP JUMPDEST JUMPDEST SWAP3 SWAP2 POP POP JUMP JUMPDEST PUSH0 PUSH2 0x2D42 DUP3 PUSH2 0x1F6F JUMP JUMPDEST PUSH2 0x2D4C DUP2 DUP6 PUSH2 0x2B84 JUMP JUMPDEST SWAP4 POP PUSH2 0x2D5C DUP2 DUP6 PUSH1 0x20 DUP7 ADD PUSH2 0x1F89 JUMP JUMPDEST PUSH2 0x2D65 DUP2 PUSH2 0x1F97 JUMP JUMPDEST DUP5 ADD SWAP2 POP POP SWAP3 SWAP2 POP POP JUMP JUMPDEST PUSH0 PUSH1 0xA0 DUP3 ADD SWAP1 POP DUP2 DUP2 SUB PUSH0 DUP4 ADD MSTORE PUSH2 0x2D88 DUP2 DUP9 PUSH2 0x2D38 JUMP JUMPDEST SWAP1 POP DUP2 DUP2 SUB PUSH1 0x20 DUP4 ADD MSTORE PUSH2 0x2D9C DUP2 DUP8 PUSH2 0x2D38 JUMP JUMPDEST SWAP1 POP DUP2 DUP2 SUB PUSH1 0x40 DUP4 ADD MSTORE PUSH2 0x2DB0 DUP2 DUP7 PUSH2 0x2D38 JUMP JUMPDEST SWAP1 POP DUP2 DUP2 SUB PUSH1 0x60 DUP4 ADD MSTORE PUSH2 0x2DC4 DUP2 DUP6 PUSH2 0x2D38 JUMP JUMPDEST SWAP1 POP PUSH2 0x2DD3 PUSH1 0x80 DUP4 ADD DUP5 PUSH2 0x1ED2 JUMP JUMPDEST SWAP7 SWAP6 POP POP POP POP POP POP JUMP JUMPDEST PUSH0 DUP2 SWAP1 POP DUP2 PUSH0 MSTORE PUSH1 0x20 PUSH0 KECCAK256 SWAP1 POP SWAP2 SWAP1 POP JUMP JUMPDEST PUSH0 PUSH1 0x20 PUSH1 0x1F DUP4 ADD DIV SWAP1 POP SWAP2 SWAP1 POP JUMP JUMPDEST PUSH0 DUP3 DUP3 SHL SWAP1 POP SWAP3 SWAP2 POP POP JUMP JUMPDEST PUSH0 PUSH1 0x8 DUP4 MUL PUSH2 0x2E39 PUSH32 0xFFFFFFFFFFFFFFFFFFFFFFFFFFFFFFFFFFFFFFFFFFFFFFFFFFFFFFFFFFFFFFFF DUP3 PUSH2 0x2DFE JUMP JUMPDEST PUSH2 0x2E43 DUP7 DUP4 PUSH2 0x2DFE JUMP JUMPDEST SWAP6 POP DUP1 NOT DUP5 AND SWAP4 POP DUP1 DUP7 AND DUP5 OR SWAP3 POP POP POP SWAP4 SWAP3 POP POP POP JUMP JUMPDEST PUSH0 DUP2 SWAP1 POP SWAP2 SWAP1 POP JUMP JUMPDEST PUSH0 PUSH2 0x2E7E PUSH2 0x2E79 PUSH2 0x2E74 DUP5 PUSH2 0x1FDF JUMP JUMPDEST PUSH2 0x2E5B JUMP JUMPDEST PUSH2 0x1FDF JUMP JUMPDEST SWAP1 POP SWAP2 SWAP1 POP JUMP JUMPDEST PUSH0 DUP2 SWAP1 POP SWAP2 SWAP1 POP JUMP JUMPDEST PUSH2 0x2E97 DUP4 PUSH2 0x2E64 JUMP JUMPDEST PUSH2 0x2EAB PUSH2 0x2EA3 DUP3 PUSH2 0x2E85 JUMP JUMPDEST DUP5 DUP5 SLOAD PUSH2 0x2E0A JUMP JUMPDEST DUP3 SSTORE POP POP POP POP JUMP JUMPDEST PUSH0 SWAP1 JUMP JUMPDEST PUSH2 0x2EBF PUSH2 0x2EB3 JUMP JUMPDEST PUSH2 0x2ECA DUP2 DUP5 DUP5 PUSH2 0x2E8E JUMP JUMPDEST POP POP POP JUMP JUMPDEST JUMPDEST DUP2 DUP2 LT ISZERO PUSH2 0x2EED JUMPI PUSH2 0x2EE2 PUSH0 DUP3 PUSH2 0x2EB7 JUMP JUMPDEST PUSH1 0x1 DUP2 ADD SWAP1 POP PUSH2 0x2ED0 JUMP JUMPDEST POP POP JUMP JUMPDEST PUSH1 0x1F DUP3 GT ISZERO PUSH2 0x2F32 JUMPI PUSH2 0x2F03 DUP2 PUSH2 0x2DDD JUMP JUMPDEST PUSH2 0x2F0C DUP5 PUSH2 0x2DEF JUMP JUMPDEST DUP2 ADD PUSH1 0x20 DUP6 LT ISZERO PUSH2 0x2F1B JUMPI DUP2 SWAP1 POP JUMPDEST PUSH2 0x2F2F PUSH2 0x2F27 DUP6 PUSH2 0x2DEF JUMP JUMPDEST DUP4 ADD DUP3 PUSH2 0x2ECF JUMP JUMPDEST POP POP JUMPDEST POP POP POP JUMP JUMPDEST PUSH0 DUP3 DUP3 SHR SWAP1 POP SWAP3 SWAP2 POP POP JUMP JUMPDEST PUSH0 PUSH2 0x2F52 PUSH0 NOT DUP5 PUSH1 0x8 MUL PUSH2 0x2F37 JUMP JUMPDEST NOT DUP1 DUP4 AND SWAP2 POP POP SWAP3 SWAP2 POP POP JUMP JUMPDEST PUSH0 PUSH2 0x2F6A DUP4 DUP4 PUSH2 0x2F43 JUMP JUMPDEST SWAP2 POP DUP3 PUSH1 0x2 MUL DUP3 OR SWAP1 POP SWAP3 SWAP2 POP POP JUMP JUMPDEST PUSH2 0x2F83 DUP3 PUSH2 0x1F6F JUMP JUMPDEST PUSH8 0xFFFFFFFFFFFFFFFF DUP2 GT ISZERO PUSH2 0x2F9C JUMPI PUSH2 0x2F9B PUSH2 0x20E1 JUMP JUMPDEST JUMPDEST PUSH2 0x2FA6 DUP3 SLOAD PUSH2 0x2B04 JUMP JUMPDEST PUSH2 0x2FB1 DUP3 DUP3 DUP6 PUSH2 0x2EF1 JUMP JUMPDEST PUSH0 PUSH1 0x20 SWAP1 POP PUSH1 0x1F DUP4 GT PUSH1 0x1 DUP2 EQ PUSH2 0x2FE2 JUMPI PUSH0 DUP5 ISZERO PUSH2 0x2FD0 JUMPI DUP3 DUP8 ADD MLOAD SWAP1 POP JUMPDEST PUSH2 0x2FDA DUP6 DUP3 PUSH2 0x2F5F JUMP JUMPDEST DUP7 SSTORE POP PUSH2 0x3041 JUMP JUMPDEST PUSH1 0x1F NOT DUP5 AND PUSH2 0x2FF0 DUP7 PUSH2 0x2DDD JUMP JUMPDEST PUSH0 JUMPDEST DUP3 DUP2 LT ISZERO PUSH2 0x3017 JUMPI DUP5 DUP10 ADD MLOAD DUP3 SSTORE PUSH1 0x1 DUP3 ADD SWAP2 POP PUSH1 0x20 DUP6 ADD SWAP5 POP PUSH1 0x20 DUP2 ADD SWAP1 POP PUSH2 0x2FF2 JUMP JUMPDEST DUP7 DUP4 LT ISZERO PUSH2 0x3034 JUMPI DUP5 DUP10 ADD MLOAD PUSH2 0x3030 PUSH1 0x1F DUP10 AND DUP3 PUSH2 0x2F43 JUMP JUMPDEST DUP4 SSTORE POP JUMPDEST PUSH1 0x1 PUSH1 0x2 DUP9 MUL ADD DUP9 SSTORE POP POP POP JUMPDEST POP POP POP POP POP POP JUMP JUMPDEST PUSH0 PUSH1 0x80 DUP3 ADD SWAP1 POP DUP2 DUP2 SUB PUSH0 DUP4 ADD MSTORE PUSH2 0x3061 DUP2 DUP8 PUSH2 0x2D38 JUMP JUMPDEST SWAP1 POP DUP2 DUP2 SUB PUSH1 0x20 DUP4 ADD MSTORE PUSH2 0x3075 DUP2 DUP7 PUSH2 0x2D38 JUMP JUMPDEST SWAP1 POP DUP2 DUP2 SUB PUSH1 0x40 DUP4 ADD MSTORE PUSH2 0x3089 DUP2 DUP6 PUSH2 0x2D38 JUMP JUMPDEST SWAP1 POP PUSH2 0x3098 PUSH1 0x60 DUP4 ADD DUP5 PUSH2 0x1ED2 JUMP JUMPDEST SWAP6 SWAP5 POP POP POP POP POP JUMP JUMPDEST PUSH32 0x43616E6E6F74207472616E7366657220746F2073656C662E0000000000000000 PUSH0 DUP3 ADD MSTORE POP JUMP JUMPDEST PUSH0 PUSH2 0x30D5 PUSH1 0x18 DUP4 PUSH2 0x2B84 JUMP JUMPDEST SWAP2 POP PUSH2 0x30E0 DUP3 PUSH2 0x30A1 JUMP JUMPDEST PUSH1 0x20 DUP3 ADD SWAP1 POP SWAP2 SWAP1 POP JUMP JUMPDEST PUSH0 PUSH1 0x20 DUP3 ADD SWAP1 POP DUP2 DUP2 SUB PUSH0 DUP4 ADD MSTORE PUSH2 0x3102 DUP2 PUSH2 0x30C9 JUMP JUMPDEST SWAP1 POP SWAP2 SWAP1 POP JUMP JUMPDEST PUSH0 PUSH1 0xE0 DUP3 ADD SWAP1 POP DUP2 DUP2 SUB PUSH0 DUP4 ADD MSTORE PUSH2 0x3121 DUP2 DUP11 PUSH2 0x2D38 JUMP JUMPDEST SWAP1 POP DUP2 DUP2 SUB PUSH1 0x20 DUP4 ADD MSTORE PUSH2 0x3135 DUP2 DUP10 PUSH2 0x2D38 JUMP JUMPDEST SWAP1 POP DUP2 DUP2 SUB PUSH1 0x40 DUP4 ADD MSTORE PUSH2 0x3149 DUP2 DUP9 PUSH2 0x2D38 JUMP JUMPDEST SWAP1 POP DUP2 DUP2 SUB PUSH1 0x60 DUP4 ADD MSTORE PUSH2 0x315D DUP2 DUP8 PUSH2 0x2D38 JUMP JUMPDEST SWAP1 POP DUP2 DUP2 SUB PUSH1 0x80 DUP4 ADD MSTORE PUSH2 0x3171 DUP2 DUP7 PUSH2 0x2D38 JUMP JUMPDEST SWAP1 POP PUSH2 0x3180 PUSH1 0xA0 DUP4 ADD DUP6 PUSH2 0x1ED2 JUMP JUMPDEST PUSH2 0x318D PUSH1 0xC0 DUP4 ADD DUP5 PUSH2 0x1ED2 JUMP JUMPDEST SWAP9 SWAP8 POP POP POP POP POP POP POP POP JUMP JUMPDEST PUSH32 0x496E73756666696369656E742069737375656420737570706C792066726F6D20 PUSH0 DUP3 ADD MSTORE PUSH32 0x746865207370656369666965642070726F647563657220616E64207665726966 PUSH1 0x20 DUP3 ADD MSTORE PUSH32 0x6965722E00000000000000000000000000000000000000000000000000000000 PUSH1 0x40 DUP3 ADD MSTORE POP JUMP JUMPDEST PUSH0 PUSH2 0x3219 PUSH1 0x44 DUP4 PUSH2 0x2B84 JUMP JUMPDEST SWAP2 POP PUSH2 0x3224 DUP3 PUSH2 0x3199 JUMP JUMPDEST PUSH1 0x60 DUP3 ADD SWAP1 POP SWAP2 SWAP1 POP JUMP JUMPDEST PUSH0 PUSH1 0x20 DUP3 ADD SWAP1 POP DUP2 DUP2 SUB PUSH0 DUP4 ADD MSTORE PUSH2 0x3246 DUP2 PUSH2 0x320D JUMP JUMPDEST SWAP1 POP SWAP2 SWAP1 POP JUMP JUMPDEST PUSH0 PUSH1 0xC0 DUP3 ADD SWAP1 POP DUP2 DUP2 SUB PUSH0 DUP4 ADD MSTORE PUSH2 0x3265 DUP2 DUP10 PUSH2 0x2D38 JUMP JUMPDEST SWAP1 POP DUP2 DUP2 SUB PUSH1 0x20 DUP4 ADD MSTORE PUSH2 0x3279 DUP2 DUP9 PUSH2 0x2D38 JUMP JUMPDEST SWAP1 POP DUP2 DUP2 SUB PUSH1 0x40 DUP4 ADD MSTORE PUSH2 0x328D DUP2 DUP8 PUSH2 0x2D38 JUMP JUMPDEST SWAP1 POP DUP2 DUP2 SUB PUSH1 0x60 DUP4 ADD MSTORE PUSH2 0x32A1 DUP2 DUP7 PUSH2 0x2D38 JUMP JUMPDEST SWAP1 POP PUSH2 0x32B0 PUSH1 0x80 DUP4 ADD DUP6 PUSH2 0x1ED2 JUMP JUMPDEST PUSH2 0x32BD PUSH1 0xA0 DUP4 ADD DUP5 PUSH2 0x1ED2 JUMP JUMPDEST SWAP8 SWAP7 POP POP POP POP POP POP POP JUMP JUMPDEST PUSH32 0x496E76616C6964206E6577206F776E657220616464726573732E000000000000 PUSH0 DUP3 ADD MSTORE POP JUMP JUMPDEST PUSH0 PUSH2 0x32FC PUSH1 0x1A DUP4 PUSH2 0x2B84 JUMP JUMPDEST SWAP2 POP PUSH2 0x3307 DUP3 PUSH2 0x32C8 JUMP JUMPDEST PUSH1 0x20 DUP3 ADD SWAP1 POP SWAP2 SWAP1 POP JUMP JUMPDEST PUSH0 PUSH1 0x20 DUP3 ADD SWAP1 POP DUP2 DUP2 SUB PUSH0 DUP4 ADD MSTORE PUSH2 0x3329 DUP2 PUSH2 0x32F0 JUMP JUMPDEST SWAP1 POP SWAP2 SWAP1 POP JUMP JUMPDEST PUSH32 0x4E487B7100000000000000000000000000000000000000000000000000000000 PUSH0 MSTORE PUSH1 0x32 PUSH1 0x4 MSTORE PUSH1 0x24 PUSH0 REVERT JUMPDEST PUSH0 PUSH1 0xFF DUP3 AND SWAP1 POP SWAP2 SWAP1 POP JUMP JUMPDEST PUSH0 PUSH2 0x3373 DUP3 PUSH2 0x335D JUMP JUMPDEST SWAP2 POP PUSH2 0x337E DUP4 PUSH2 0x335D JUMP JUMPDEST SWAP3 POP DUP3 DUP3 ADD SWAP1 POP PUSH1 0xFF DUP2 GT ISZERO PUSH2 0x3397 JUMPI PUSH2 0x3396 PUSH2 0x2C8A JUMP JUMPDEST JUMPDEST SWAP3 SWAP2 POP POP JUMP JUMPDEST PUSH0 PUSH2 0x33A7 DUP3 PUSH2 0x1EC9 JUMP JUMPDEST SWAP2 POP PUSH32 0x7FFFFFFFFFFFFFFFFFFFFFFFFFFFFFFFFFFFFFFFFFFFFFFFFFFFFFFFFFFFFFFF DUP3 SUB PUSH2 0x33D9 JUMPI PUSH2 0x33D8 PUSH2 0x2C8A JUMP JUMPDEST JUMPDEST PUSH1 0x1 DUP3 ADD SWAP1 POP SWAP2 SWAP1 POP JUMP JUMPDEST PUSH0 PUSH1 0xC0 DUP3 ADD SWAP1 POP PUSH2 0x33F7 PUSH0 DUP4 ADD DUP10 PUSH2 0x1ED2 JUMP JUMPDEST DUP2 DUP2 SUB PUSH1 0x20 DUP4 ADD MSTORE PUSH2 0x3409 DUP2 DUP9 PUSH2 0x2D38 JUMP JUMPDEST SWAP1 POP DUP2 DUP2 SUB PUSH1 0x40 DUP4 ADD MSTORE PUSH2 0x341D DUP2 DUP8 PUSH2 0x2D38 JUMP JUMPDEST SWAP1 POP DUP2 DUP2 SUB PUSH1 0x60 DUP4 ADD MSTORE PUSH2 0x3431 DUP2 DUP7 PUSH2 0x2D38 JUMP JUMPDEST SWAP1 POP DUP2 DUP2 SUB PUSH1 0x80 DUP4 ADD MSTORE PUSH2 0x3445 DUP2 DUP6 PUSH2 0x2D38 JUMP JUMPDEST SWAP1 POP PUSH2 0x3454 PUSH1 0xA0 DUP4 ADD DUP5 PUSH2 0x1ED2 JUMP JUMPDEST SWAP8 SWAP7 POP POP POP POP POP POP POP JUMP INVALID LOG2 PUSH5 0x6970667358 0x22 SLT KECCAK256 0x23 REVERT STOP GAS SGT CALLDATACOPY PUSH10 0xA7A2F0726D47B4E1BC33 GASLIMIT LT SWAP5 DUP9 CREATE 0xDF CODECOPY BASEFEE LOG3 0xB3 0xE6 SWAP7 EXTCODEHASH MULMOD 0xAB PUSH5 0x736F6C6343 STOP ADDMOD NOT STOP CALLER "
				},
				"gasEstimates": {
					"creation": {
						"codeDepositCost": "2692200",
						"executionCost": "27186",
						"totalCost": "2719386"
					},
					"external": {
						"buyCredits(string,string,string,string,int256,int256)": "infinite",
						"donateCredits(string,string,string,string,int256)": "infinite",
						"getAccountBalance(string,string,string,string)": "infinite",
						"getAccountCertificates(string)": "infinite",
						"getAccountTotalBalance(string)": "infinite",
						"getCertificateById(int256)": "infinite",
						"getCreditTypes()": "infinite",
						"getOwner()": "2582",
						"getProducerVerifiers(string)": "infinite",
						"getProducers()": "infinite",
						"getSupply(string,string,string)": "infinite",
						"getTotalCertificates()": "2455",
						"getTotalDonatedSupply()": "2456",
						"getTotalSold()": "2521",
						"getTotalSupply()": "2476",
						"isCreditRegistered(string)": "infinite",
						"isProducerRegistered(string)": "infinite",
						"isProducerVerified(string,string)": "infinite",
						"issueCredits(string,string,string,int256)": "infinite",
						"transferCredits(string,string,string,string,string,int256,int256)": "infinite",
						"transferOwnership(address)": "30881"
					},
					"internal": {
						"_compareStrings(string memory,string memory)": "infinite",
						"_mintCertificate(string memory,string memory,string memory,string memory,int256,int256)": "infinite",
						"_toLowerCase(string memory)": "infinite"
					}
				},
				"methodIdentifiers": {
					"buyCredits(string,string,string,string,int256,int256)": "9e41b406",
					"donateCredits(string,string,string,string,int256)": "37324a4c",
					"getAccountBalance(string,string,string,string)": "64611bd6",
					"getAccountCertificates(string)": "65895f95",
					"getAccountTotalBalance(string)": "47c44529",
					"getCertificateById(int256)": "1d37fd68",
					"getCreditTypes()": "a81e53d3",
					"getOwner()": "893d20e8",
					"getProducerVerifiers(string)": "789237e6",
					"getProducers()": "e80a7eb9",
					"getSupply(string,string,string)": "fd6befb2",
					"getTotalCertificates()": "7843bb79",
					"getTotalDonatedSupply()": "072652fe",
					"getTotalSold()": "9d7b8e68",
					"getTotalSupply()": "c4e41b22",
					"isCreditRegistered(string)": "5a97595c",
					"isProducerRegistered(string)": "f45f147c",
					"isProducerVerified(string,string)": "207573f0",
					"issueCredits(string,string,string,int256)": "3b7479e0",
					"transferCredits(string,string,string,string,string,int256,int256)": "6440f6b2",
					"transferOwnership(address)": "f2fde38b"
				}
			},
			"storageLayout": {
				"storage": [
					{
						"astId": 3,
						"contract": "contracts/npc_credits/npc_credits.sol:CreditContract",
						"label": "contractOwner",
						"offset": 0,
						"slot": "0",
						"type": "t_address"
					},
					{
						"astId": 5,
						"contract": "contracts/npc_credits/npc_credits.sol:CreditContract",
						"label": "totalSupply",
						"offset": 0,
						"slot": "1",
						"type": "t_int256"
					},
					{
						"astId": 7,
						"contract": "contracts/npc_credits/npc_credits.sol:CreditContract",
						"label": "totalDonatedSupply",
						"offset": 0,
						"slot": "2",
						"type": "t_int256"
					},
					{
						"astId": 9,
						"contract": "contracts/npc_credits/npc_credits.sol:CreditContract",
						"label": "totalSold",
						"offset": 0,
						"slot": "3",
						"type": "t_int256"
					},
					{
						"astId": 11,
						"contract": "contracts/npc_credits/npc_credits.sol:CreditContract",
						"label": "totalCertificates",
						"offset": 0,
						"slot": "4",
						"type": "t_int256"
					},
					{
						"astId": 14,
						"contract": "contracts/npc_credits/npc_credits.sol:CreditContract",
						"label": "producers",
						"offset": 0,
						"slot": "5",
						"type": "t_array(t_string_storage)dyn_storage"
					},
					{
						"astId": 23,
						"contract": "contracts/npc_credits/npc_credits.sol:CreditContract",
						"label": "supply",
						"offset": 0,
						"slot": "6",
						"type": "t_mapping(t_string_memory_ptr,t_mapping(t_string_memory_ptr,t_mapping(t_string_memory_ptr,t_struct(Supply)93_storage)))"
					},
					{
						"astId": 27,
						"contract": "contracts/npc_credits/npc_credits.sol:CreditContract",
						"label": "producerRegistered",
						"offset": 0,
						"slot": "7",
						"type": "t_mapping(t_string_memory_ptr,t_bool)"
					},
					{
						"astId": 33,
						"contract": "contracts/npc_credits/npc_credits.sol:CreditContract",
						"label": "producerVerified",
						"offset": 0,
						"slot": "8",
						"type": "t_mapping(t_string_memory_ptr,t_mapping(t_string_memory_ptr,t_bool))"
					},
					{
						"astId": 38,
						"contract": "contracts/npc_credits/npc_credits.sol:CreditContract",
						"label": "producerVerifiers",
						"offset": 0,
						"slot": "9",
						"type": "t_mapping(t_string_memory_ptr,t_array(t_string_storage)dyn_storage)"
					},
					{
						"astId": 43,
						"contract": "contracts/npc_credits/npc_credits.sol:CreditContract",
						"label": "certificatesById",
						"offset": 0,
						"slot": "10",
						"type": "t_mapping(t_int256,t_struct(Certificate)86_storage)"
					},
					{
						"astId": 48,
						"contract": "contracts/npc_credits/npc_credits.sol:CreditContract",
						"label": "accountCertificates",
						"offset": 0,
						"slot": "11",
						"type": "t_mapping(t_string_memory_ptr,t_array(t_int256)dyn_storage)"
					},
					{
						"astId": 58,
						"contract": "contracts/npc_credits/npc_credits.sol:CreditContract",
						"label": "accountBalance",
						"offset": 0,
						"slot": "12",
						"type": "t_mapping(t_string_memory_ptr,t_mapping(t_string_memory_ptr,t_mapping(t_string_memory_ptr,t_mapping(t_string_memory_ptr,t_int256))))"
					},
					{
						"astId": 62,
						"contract": "contracts/npc_credits/npc_credits.sol:CreditContract",
						"label": "accountTotalBalance",
						"offset": 0,
						"slot": "13",
						"type": "t_mapping(t_string_memory_ptr,t_int256)"
					},
					{
						"astId": 66,
						"contract": "contracts/npc_credits/npc_credits.sol:CreditContract",
						"label": "creditRegistered",
						"offset": 0,
						"slot": "14",
						"type": "t_mapping(t_string_memory_ptr,t_bool)"
					},
					{
						"astId": 69,
						"contract": "contracts/npc_credits/npc_credits.sol:CreditContract",
						"label": "creditTypes",
						"offset": 0,
						"slot": "15",
						"type": "t_array(t_string_storage)dyn_storage"
					}
				],
				"types": {
					"t_address": {
						"encoding": "inplace",
						"label": "address",
						"numberOfBytes": "20"
					},
					"t_array(t_int256)dyn_storage": {
						"base": "t_int256",
						"encoding": "dynamic_array",
						"label": "int256[]",
						"numberOfBytes": "32"
					},
					"t_array(t_string_storage)dyn_storage": {
						"base": "t_string_storage",
						"encoding": "dynamic_array",
						"label": "string[]",
						"numberOfBytes": "32"
					},
					"t_bool": {
						"encoding": "inplace",
						"label": "bool",
						"numberOfBytes": "1"
					},
					"t_int256": {
						"encoding": "inplace",
						"label": "int256",
						"numberOfBytes": "32"
					},
					"t_mapping(t_int256,t_struct(Certificate)86_storage)": {
						"encoding": "mapping",
						"key": "t_int256",
						"label": "mapping(int256 => struct CreditContract.Certificate)",
						"numberOfBytes": "32",
						"value": "t_struct(Certificate)86_storage"
					},
					"t_mapping(t_string_memory_ptr,t_array(t_int256)dyn_storage)": {
						"encoding": "mapping",
						"key": "t_string_memory_ptr",
						"label": "mapping(string => int256[])",
						"numberOfBytes": "32",
						"value": "t_array(t_int256)dyn_storage"
					},
					"t_mapping(t_string_memory_ptr,t_array(t_string_storage)dyn_storage)": {
						"encoding": "mapping",
						"key": "t_string_memory_ptr",
						"label": "mapping(string => string[])",
						"numberOfBytes": "32",
						"value": "t_array(t_string_storage)dyn_storage"
					},
					"t_mapping(t_string_memory_ptr,t_bool)": {
						"encoding": "mapping",
						"key": "t_string_memory_ptr",
						"label": "mapping(string => bool)",
						"numberOfBytes": "32",
						"value": "t_bool"
					},
					"t_mapping(t_string_memory_ptr,t_int256)": {
						"encoding": "mapping",
						"key": "t_string_memory_ptr",
						"label": "mapping(string => int256)",
						"numberOfBytes": "32",
						"value": "t_int256"
					},
					"t_mapping(t_string_memory_ptr,t_mapping(t_string_memory_ptr,t_bool))": {
						"encoding": "mapping",
						"key": "t_string_memory_ptr",
						"label": "mapping(string => mapping(string => bool))",
						"numberOfBytes": "32",
						"value": "t_mapping(t_string_memory_ptr,t_bool)"
					},
					"t_mapping(t_string_memory_ptr,t_mapping(t_string_memory_ptr,t_int256))": {
						"encoding": "mapping",
						"key": "t_string_memory_ptr",
						"label": "mapping(string => mapping(string => int256))",
						"numberOfBytes": "32",
						"value": "t_mapping(t_string_memory_ptr,t_int256)"
					},
					"t_mapping(t_string_memory_ptr,t_mapping(t_string_memory_ptr,t_mapping(t_string_memory_ptr,t_int256)))": {
						"encoding": "mapping",
						"key": "t_string_memory_ptr",
						"label": "mapping(string => mapping(string => mapping(string => int256)))",
						"numberOfBytes": "32",
						"value": "t_mapping(t_string_memory_ptr,t_mapping(t_string_memory_ptr,t_int256))"
					},
					"t_mapping(t_string_memory_ptr,t_mapping(t_string_memory_ptr,t_mapping(t_string_memory_ptr,t_mapping(t_string_memory_ptr,t_int256))))": {
						"encoding": "mapping",
						"key": "t_string_memory_ptr",
						"label": "mapping(string => mapping(string => mapping(string => mapping(string => int256))))",
						"numberOfBytes": "32",
						"value": "t_mapping(t_string_memory_ptr,t_mapping(t_string_memory_ptr,t_mapping(t_string_memory_ptr,t_int256)))"
					},
					"t_mapping(t_string_memory_ptr,t_mapping(t_string_memory_ptr,t_mapping(t_string_memory_ptr,t_struct(Supply)93_storage)))": {
						"encoding": "mapping",
						"key": "t_string_memory_ptr",
						"label": "mapping(string => mapping(string => mapping(string => struct CreditContract.Supply)))",
						"numberOfBytes": "32",
						"value": "t_mapping(t_string_memory_ptr,t_mapping(t_string_memory_ptr,t_struct(Supply)93_storage))"
					},
					"t_mapping(t_string_memory_ptr,t_mapping(t_string_memory_ptr,t_struct(Supply)93_storage))": {
						"encoding": "mapping",
						"key": "t_string_memory_ptr",
						"label": "mapping(string => mapping(string => struct CreditContract.Supply))",
						"numberOfBytes": "32",
						"value": "t_mapping(t_string_memory_ptr,t_struct(Supply)93_storage)"
					},
					"t_mapping(t_string_memory_ptr,t_struct(Supply)93_storage)": {
						"encoding": "mapping",
						"key": "t_string_memory_ptr",
						"label": "mapping(string => struct CreditContract.Supply)",
						"numberOfBytes": "32",
						"value": "t_struct(Supply)93_storage"
					},
					"t_string_memory_ptr": {
						"encoding": "bytes",
						"label": "string",
						"numberOfBytes": "32"
					},
					"t_string_storage": {
						"encoding": "bytes",
						"label": "string",
						"numberOfBytes": "32"
					},
					"t_struct(Certificate)86_storage": {
						"encoding": "inplace",
						"label": "struct CreditContract.Certificate",
						"members": [
							{
								"astId": 71,
								"contract": "contracts/npc_credits/npc_credits.sol:CreditContract",
								"label": "id",
								"offset": 0,
								"slot": "0",
								"type": "t_int256"
							},
							{
								"astId": 73,
								"contract": "contracts/npc_credits/npc_credits.sol:CreditContract",
								"label": "buyer",
								"offset": 0,
								"slot": "1",
								"type": "t_string_storage"
							},
							{
								"astId": 75,
								"contract": "contracts/npc_credits/npc_credits.sol:CreditContract",
								"label": "producer",
								"offset": 0,
								"slot": "2",
								"type": "t_string_storage"
							},
							{
								"astId": 77,
								"contract": "contracts/npc_credits/npc_credits.sol:CreditContract",
								"label": "verifier",
								"offset": 0,
								"slot": "3",
								"type": "t_string_storage"
							},
							{
								"astId": 79,
								"contract": "contracts/npc_credits/npc_credits.sol:CreditContract",
								"label": "creditType",
								"offset": 0,
								"slot": "4",
								"type": "t_string_storage"
							},
							{
								"astId": 81,
								"contract": "contracts/npc_credits/npc_credits.sol:CreditContract",
								"label": "balance",
								"offset": 0,
								"slot": "5",
								"type": "t_int256"
							},
							{
								"astId": 83,
								"contract": "contracts/npc_credits/npc_credits.sol:CreditContract",
								"label": "price",
								"offset": 0,
								"slot": "6",
								"type": "t_int256"
							},
							{
								"astId": 85,
								"contract": "contracts/npc_credits/npc_credits.sol:CreditContract",
								"label": "timestamp",
								"offset": 0,
								"slot": "7",
								"type": "t_uint256"
							}
						],
						"numberOfBytes": "256"
					},
					"t_struct(Supply)93_storage": {
						"encoding": "inplace",
						"label": "struct CreditContract.Supply",
						"members": [
							{
								"astId": 88,
								"contract": "contracts/npc_credits/npc_credits.sol:CreditContract",
								"label": "issued",
								"offset": 0,
								"slot": "0",
								"type": "t_int256"
							},
							{
								"astId": 90,
								"contract": "contracts/npc_credits/npc_credits.sol:CreditContract",
								"label": "available",
								"offset": 0,
								"slot": "1",
								"type": "t_int256"
							},
							{
								"astId": 92,
								"contract": "contracts/npc_credits/npc_credits.sol:CreditContract",
								"label": "donated",
								"offset": 0,
								"slot": "2",
								"type": "t_int256"
							}
						],
						"numberOfBytes": "96"
					},
					"t_uint256": {
						"encoding": "inplace",
						"label": "uint256",
						"numberOfBytes": "32"
					}
				}
			},
			"userdoc": {
				"kind": "user",
				"methods": {},
				"version": 1
			}
		}
	}
}