{
	"contracts/npc_credits/NPC_AccountManager.sol": {
		"NPC_AccountManager": {
			"abi": [
				{
					"inputs": [
						{
							"internalType": "address",
							"name": "roleManagerAddress",
							"type": "address"
						}
					],
					"stateMutability": "nonpayable",
					"type": "constructor"
				},
				{
					"anonymous": false,
					"inputs": [
						{
							"indexed": true,
							"internalType": "string",
							"name": "accountID",
							"type": "string"
						},
						{
							"indexed": false,
							"internalType": "bool",
							"name": "isBlacklisted",
							"type": "bool"
						}
					],
					"name": "AccountBlacklisted",
					"type": "event"
				},
				{
					"anonymous": false,
					"inputs": [
						{
							"indexed": true,
							"internalType": "string",
							"name": "accountID",
							"type": "string"
						},
						{
							"indexed": false,
							"internalType": "string",
							"name": "role",
							"type": "string"
						},
						{
							"indexed": false,
							"internalType": "address",
							"name": "txAddress",
							"type": "address"
						}
					],
					"name": "AccountRegistered",
					"type": "event"
				},
				{
					"inputs": [],
					"name": "ADMIN_ROLE",
					"outputs": [
						{
							"internalType": "bytes32",
							"name": "",
							"type": "bytes32"
						}
					],
					"stateMutability": "view",
					"type": "function"
				},
				{
					"inputs": [],
					"name": "BACKEND_ROLE",
					"outputs": [
						{
							"internalType": "bytes32",
							"name": "",
							"type": "bytes32"
						}
					],
					"stateMutability": "view",
					"type": "function"
				},
				{
					"inputs": [],
					"name": "INVESTOR_ROLE",
					"outputs": [
						{
							"internalType": "bytes32",
							"name": "",
							"type": "bytes32"
						}
					],
					"stateMutability": "view",
					"type": "function"
				},
				{
					"inputs": [],
					"name": "PRODUCER_ROLE",
					"outputs": [
						{
							"internalType": "bytes32",
							"name": "",
							"type": "bytes32"
						}
					],
					"stateMutability": "view",
					"type": "function"
				},
				{
					"inputs": [],
					"name": "VERIFIER_ROLE",
					"outputs": [
						{
							"internalType": "bytes32",
							"name": "",
							"type": "bytes32"
						}
					],
					"stateMutability": "view",
					"type": "function"
				},
				{
					"inputs": [
						{
							"internalType": "string",
							"name": "accountID",
							"type": "string"
						},
						{
							"internalType": "bool",
							"name": "status",
							"type": "bool"
						}
					],
					"name": "blacklistAccount",
					"outputs": [],
					"stateMutability": "nonpayable",
					"type": "function"
				},
				{
					"inputs": [
						{
							"internalType": "string",
							"name": "accountID",
							"type": "string"
						}
					],
					"name": "getAccountData",
					"outputs": [
						{
							"components": [
								{
									"internalType": "string",
									"name": "role",
									"type": "string"
								},
								{
									"internalType": "address",
									"name": "txAddress",
									"type": "address"
								},
								{
									"internalType": "bool",
									"name": "isBlacklisted",
									"type": "bool"
								},
								{
									"internalType": "uint256",
									"name": "lastActive",
									"type": "uint256"
								},
								{
									"internalType": "bool",
									"name": "registered",
									"type": "bool"
								}
							],
							"internalType": "struct NPC_AccountManager.AccountData",
							"name": "",
							"type": "tuple"
						}
					],
					"stateMutability": "view",
					"type": "function"
				},
				{
					"inputs": [
						{
							"internalType": "string",
							"name": "accountID",
							"type": "string"
						}
					],
					"name": "isNotBlacklisted",
					"outputs": [
						{
							"internalType": "bool",
							"name": "",
							"type": "bool"
						}
					],
					"stateMutability": "view",
					"type": "function"
				},
				{
					"inputs": [
						{
							"internalType": "string",
							"name": "accountID",
							"type": "string"
						}
					],
					"name": "isRegistered",
					"outputs": [
						{
							"internalType": "bool",
							"name": "",
							"type": "bool"
						}
					],
					"stateMutability": "view",
					"type": "function"
				},
				{
					"inputs": [
						{
							"internalType": "string",
							"name": "accountID",
							"type": "string"
						},
						{
							"internalType": "string",
							"name": "role",
							"type": "string"
						},
						{
							"internalType": "address",
							"name": "txAddress",
							"type": "address"
						}
					],
					"name": "registerAccount",
					"outputs": [],
					"stateMutability": "nonpayable",
					"type": "function"
				},
				{
					"inputs": [
						{
							"internalType": "string",
							"name": "accountID",
							"type": "string"
						}
					],
					"name": "updateLastActive",
					"outputs": [],
					"stateMutability": "nonpayable",
					"type": "function"
				},
				{
					"inputs": [
						{
							"internalType": "string",
							"name": "accountID",
							"type": "string"
						},
						{
							"internalType": "bytes32",
							"name": "role",
							"type": "bytes32"
						}
					],
					"name": "verifyRole",
					"outputs": [
						{
							"internalType": "bool",
							"name": "",
							"type": "bool"
						}
					],
					"stateMutability": "view",
					"type": "function"
				}
			],
			"devdoc": {
				"details": "This contract manages account IDs and account data.",
				"kind": "dev",
				"methods": {
					"blacklistAccount(string,bool)": {
						"details": "Blacklist or unblacklist an account.",
						"params": {
							"accountID": "The ID of the account to blacklist/unblacklist.",
							"status": "The blacklist status (true to blacklist, false to unblacklist)."
						}
					},
					"constructor": {
						"details": "Constructor to initialize roles.",
						"params": {
							"roleManagerAddress": "The address of the NPC_RoleManager contract."
						}
					},
					"getAccountData(string)": {
						"details": "Get account data by account ID.",
						"params": {
							"accountID": "The ID of the account."
						},
						"returns": {
							"_0": "The account data."
						}
					},
					"registerAccount(string,string,address)": {
						"details": "Register a new account with a specific role.",
						"params": {
							"accountID": "The ID of the account to register.",
							"role": "The role of the account.",
							"txAddress": "The address of the account."
						}
					}
				},
				"title": "NPC_AccountManager",
				"version": 1
			},
			"evm": {
				"assembly": "    /* \"contracts/npc_credits/NPC_AccountManager.sol\":188:5267  contract NPC_AccountManager {... */\n  mstore(0x40, 0x80)\n    /* \"contracts/npc_credits/NPC_AccountManager.sol\":1251:1357  constructor(address roleManagerAddress) {... */\n  callvalue\n  dup1\n  iszero\n  tag_1\n  jumpi\n  0x00\n  dup1\n  revert\ntag_1:\n  pop\n  mload(0x40)\n  sub(codesize, bytecodeSize)\n  dup1\n  bytecodeSize\n  dup4\n  codecopy\n  dup2\n  add\n  0x40\n  dup2\n  swap1\n  mstore\n  tag_2\n  swap2\n  tag_3\n  jump\t// in\ntag_2:\n    /* \"contracts/npc_credits/NPC_AccountManager.sol\":1301:1312  roleManager */\n  0x00\n    /* \"contracts/npc_credits/NPC_AccountManager.sol\":1301:1350  roleManager = NPC_RoleManager(roleManagerAddress) */\n  dup1\n  sload\n  not(sub(shl(0xa0, 0x01), 0x01))\n  and\n  sub(shl(0xa0, 0x01), 0x01)\n  swap3\n  swap1\n  swap3\n  and\n  swap2\n  swap1\n  swap2\n  or\n  swap1\n  sstore\n    /* \"contracts/npc_credits/NPC_AccountManager.sol\":188:5267  contract NPC_AccountManager {... */\n  jump(tag_7)\n    /* \"#utility.yul\":14:304   */\ntag_3:\n    /* \"#utility.yul\":84:90   */\n  0x00\n    /* \"#utility.yul\":137:139   */\n  0x20\n    /* \"#utility.yul\":125:134   */\n  dup3\n    /* \"#utility.yul\":116:123   */\n  dup5\n    /* \"#utility.yul\":112:135   */\n  sub\n    /* \"#utility.yul\":108:140   */\n  slt\n    /* \"#utility.yul\":105:157   */\n  iszero\n  tag_9\n  jumpi\n    /* \"#utility.yul\":153:154   */\n  0x00\n    /* \"#utility.yul\":150:151   */\n  dup1\n    /* \"#utility.yul\":143:155   */\n  revert\n    /* \"#utility.yul\":105:157   */\ntag_9:\n    /* \"#utility.yul\":179:195   */\n  dup2\n  mload\n  sub(shl(0xa0, 0x01), 0x01)\n    /* \"#utility.yul\":224:255   */\n  dup2\n  and\n    /* \"#utility.yul\":214:256   */\n  dup2\n  eq\n    /* \"#utility.yul\":204:274   */\n  tag_10\n  jumpi\n    /* \"#utility.yul\":270:271   */\n  0x00\n    /* \"#utility.yul\":267:268   */\n  dup1\n    /* \"#utility.yul\":260:272   */\n  revert\n    /* \"#utility.yul\":204:274   */\ntag_10:\n    /* \"#utility.yul\":293:298   */\n  swap4\n    /* \"#utility.yul\":14:304   */\n  swap3\n  pop\n  pop\n  pop\n  jump\t// out\ntag_7:\n    /* \"contracts/npc_credits/NPC_AccountManager.sol\":188:5267  contract NPC_AccountManager {... */\n  dataSize(sub_0)\n  dup1\n  dataOffset(sub_0)\n  0x00\n  codecopy\n  0x00\n  return\nstop\n\nsub_0: assembly {\n        /* \"contracts/npc_credits/NPC_AccountManager.sol\":188:5267  contract NPC_AccountManager {... */\n      mstore(0x40, 0x80)\n      callvalue\n      dup1\n      iszero\n      tag_1\n      jumpi\n      0x00\n      dup1\n      revert\n    tag_1:\n      pop\n      jumpi(tag_2, lt(calldatasize, 0x04))\n      shr(0xe0, calldataload(0x00))\n      dup1\n      0xc822d7f0\n      gt\n      tag_15\n      jumpi\n      dup1\n      0xc822d7f0\n      eq\n      tag_9\n      jumpi\n      dup1\n      0xcb3e1fe7\n      eq\n      tag_10\n      jumpi\n      dup1\n      0xcd367584\n      eq\n      tag_11\n      jumpi\n      dup1\n      0xe7705db6\n      eq\n      tag_12\n      jumpi\n      dup1\n      0xea46f8e3\n      eq\n      tag_13\n      jumpi\n      dup1\n      0xf3f9f267\n      eq\n      tag_14\n      jumpi\n      0x00\n      dup1\n      revert\n    tag_15:\n      dup1\n      0x20884f70\n      eq\n      tag_3\n      jumpi\n      dup1\n      0x518ab27b\n      eq\n      tag_4\n      jumpi\n      dup1\n      0x75b238fc\n      eq\n      tag_5\n      jumpi\n      dup1\n      0x76082a5e\n      eq\n      tag_6\n      jumpi\n      dup1\n      0x92c2becc\n      eq\n      tag_7\n      jumpi\n      dup1\n      0xa8b07735\n      eq\n      tag_8\n      jumpi\n    tag_2:\n      0x00\n      dup1\n      revert\n        /* \"contracts/npc_credits/NPC_AccountManager.sol\":3830:3970  function updateLastActive(string memory accountID) public {... */\n    tag_3:\n      tag_16\n      tag_17\n      calldatasize\n      0x04\n      tag_18\n      jump\t// in\n    tag_17:\n      tag_19\n      jump\t// in\n    tag_16:\n      stop\n        /* \"contracts/npc_credits/NPC_AccountManager.sol\":2300:2435  function isNotBlacklisted(string memory accountID) onlyNotBlacklisted(accountID) public view returns(bool) {... */\n    tag_4:\n      tag_20\n      tag_21\n      calldatasize\n      0x04\n      tag_18\n      jump\t// in\n    tag_21:\n      tag_22\n      jump\t// in\n    tag_20:\n      mload(0x40)\n        /* \"#utility.yul\":1362:1376   */\n      swap1\n      iszero\n        /* \"#utility.yul\":1355:1377   */\n      iszero\n        /* \"#utility.yul\":1337:1378   */\n      dup2\n      mstore\n        /* \"#utility.yul\":1325:1327   */\n      0x20\n        /* \"#utility.yul\":1310:1328   */\n      add\n        /* \"contracts/npc_credits/NPC_AccountManager.sol\":2300:2435  function isNotBlacklisted(string memory accountID) onlyNotBlacklisted(accountID) public view returns(bool) {... */\n    tag_23:\n      mload(0x40)\n      dup1\n      swap2\n      sub\n      swap1\n      return\n        /* \"contracts/npc_credits/NPC_AccountManager.sol\":222:282  bytes32 public constant ADMIN_ROLE = keccak256(\"ADMIN_ROLE\") */\n    tag_5:\n      tag_25\n        /* \"contracts/npc_credits/NPC_AccountManager.sol\":259:282  keccak256(\"ADMIN_ROLE\") */\n      0xa49807205ce4d355092ef5a8a18f56e8913cf4a201fbe287825b095693c21775\n        /* \"contracts/npc_credits/NPC_AccountManager.sol\":222:282  bytes32 public constant ADMIN_ROLE = keccak256(\"ADMIN_ROLE\") */\n      dup2\n      jump\n    tag_25:\n      mload(0x40)\n        /* \"#utility.yul\":1535:1560   */\n      swap1\n      dup2\n      mstore\n        /* \"#utility.yul\":1523:1525   */\n      0x20\n        /* \"#utility.yul\":1508:1526   */\n      add\n        /* \"contracts/npc_credits/NPC_AccountManager.sol\":222:282  bytes32 public constant ADMIN_ROLE = keccak256(\"ADMIN_ROLE\") */\n      tag_23\n        /* \"#utility.yul\":1389:1566   */\n      jump\n        /* \"contracts/npc_credits/NPC_AccountManager.sol\":503:569  bytes32 public constant INVESTOR_ROLE = keccak256(\"INVESTOR_ROLE\") */\n    tag_6:\n      tag_25\n        /* \"contracts/npc_credits/NPC_AccountManager.sol\":543:569  keccak256(\"INVESTOR_ROLE\") */\n      0xb165298935924f540e4181c03493a5d686c54a0aaeb3f6216de85b7ffbba7738\n        /* \"contracts/npc_credits/NPC_AccountManager.sol\":503:569  bytes32 public constant INVESTOR_ROLE = keccak256(\"INVESTOR_ROLE\") */\n      dup2\n      jump\n        /* \"contracts/npc_credits/NPC_AccountManager.sol\":288:352  bytes32 public constant BACKEND_ROLE = keccak256(\"BACKEND_ROLE\") */\n    tag_7:\n      tag_25\n        /* \"contracts/npc_credits/NPC_AccountManager.sol\":327:352  keccak256(\"BACKEND_ROLE\") */\n      0x25cf2b509f2a7f322675b2a5322b182f44ad2c03ac941a0af17c9b178f5d5d5f\n        /* \"contracts/npc_credits/NPC_AccountManager.sol\":288:352  bytes32 public constant BACKEND_ROLE = keccak256(\"BACKEND_ROLE\") */\n      dup2\n      jump\n        /* \"contracts/npc_credits/NPC_AccountManager.sol\":1943:2160  function verifyRole(string memory accountID, bytes32 role) public view returns(bool) {... */\n    tag_8:\n      tag_20\n      tag_36\n      calldatasize\n      0x04\n      tag_37\n      jump\t// in\n    tag_36:\n      tag_38\n      jump\t// in\n        /* \"contracts/npc_credits/NPC_AccountManager.sol\":2167:2294  function isRegistered(string memory accountID) onlyRegistered(accountID) public view returns(bool) {... */\n    tag_9:\n      tag_20\n      tag_41\n      calldatasize\n      0x04\n      tag_18\n      jump\t// in\n    tag_41:\n      tag_42\n      jump\t// in\n        /* \"contracts/npc_credits/NPC_AccountManager.sol\":359:425  bytes32 public constant PRODUCER_ROLE = keccak256(\"PRODUCER_ROLE\") */\n    tag_10:\n      tag_25\n        /* \"contracts/npc_credits/NPC_AccountManager.sol\":399:425  keccak256(\"PRODUCER_ROLE\") */\n      0x8eb467f061ca67f42a2d2ca4a346fc9fb645efc0ba75056ee9f71c3a0ccc10a8\n        /* \"contracts/npc_credits/NPC_AccountManager.sol\":359:425  bytes32 public constant PRODUCER_ROLE = keccak256(\"PRODUCER_ROLE\") */\n      dup2\n      jump\n        /* \"contracts/npc_credits/NPC_AccountManager.sol\":3564:3824  function blacklistAccount(string memory accountID, bool status)... */\n    tag_11:\n      tag_16\n      tag_48\n      calldatasize\n      0x04\n      tag_49\n      jump\t// in\n    tag_48:\n      tag_50\n      jump\t// in\n        /* \"contracts/npc_credits/NPC_AccountManager.sol\":431:497  bytes32 public constant VERIFIER_ROLE = keccak256(\"VERIFIER_ROLE\") */\n    tag_12:\n      tag_25\n        /* \"contracts/npc_credits/NPC_AccountManager.sol\":471:497  keccak256(\"VERIFIER_ROLE\") */\n      0x0ce23c3e399818cfee81a7ab0880f714e53d7672b08df0fa62f2843416e1ea09\n        /* \"contracts/npc_credits/NPC_AccountManager.sol\":431:497  bytes32 public constant VERIFIER_ROLE = keccak256(\"VERIFIER_ROLE\") */\n      dup2\n      jump\n        /* \"contracts/npc_credits/NPC_AccountManager.sol\":2669:3336  function registerAccount(... */\n    tag_13:\n      tag_16\n      tag_55\n      calldatasize\n      0x04\n      tag_56\n      jump\t// in\n    tag_55:\n      tag_57\n      jump\t// in\n        /* \"contracts/npc_credits/NPC_AccountManager.sol\":4116:4282  function getAccountData(string memory accountID)... */\n    tag_14:\n      tag_58\n      tag_59\n      calldatasize\n      0x04\n      tag_18\n      jump\t// in\n    tag_59:\n      tag_60\n      jump\t// in\n    tag_58:\n      mload(0x40)\n      tag_23\n      swap2\n      swap1\n      tag_62\n      jump\t// in\n        /* \"contracts/npc_credits/NPC_AccountManager.sol\":3830:3970  function updateLastActive(string memory accountID) public {... */\n    tag_19:\n        /* \"contracts/npc_credits/NPC_AccountManager.sol\":3948:3963  block.timestamp */\n      timestamp\n        /* \"contracts/npc_credits/NPC_AccountManager.sol\":3898:3909  accountData */\n      0x01\n        /* \"contracts/npc_credits/NPC_AccountManager.sol\":3910:3933  _toLowerCase(accountID) */\n      tag_64\n        /* \"contracts/npc_credits/NPC_AccountManager.sol\":3923:3932  accountID */\n      dup4\n        /* \"contracts/npc_credits/NPC_AccountManager.sol\":3910:3922  _toLowerCase */\n      tag_65\n        /* \"contracts/npc_credits/NPC_AccountManager.sol\":3910:3933  _toLowerCase(accountID) */\n      jump\t// in\n    tag_64:\n        /* \"contracts/npc_credits/NPC_AccountManager.sol\":3898:3934  accountData[_toLowerCase(accountID)] */\n      mload(0x40)\n      tag_66\n      swap2\n      swap1\n      tag_67\n      jump\t// in\n    tag_66:\n      swap1\n      dup2\n      mstore\n      mload(0x40)\n      swap1\n      dup2\n      swap1\n      sub\n      0x20\n      add\n      swap1\n      keccak256\n        /* \"contracts/npc_credits/NPC_AccountManager.sol\":3898:3945  accountData[_toLowerCase(accountID)].lastActive */\n      0x02\n      add\n        /* \"contracts/npc_credits/NPC_AccountManager.sol\":3898:3963  accountData[_toLowerCase(accountID)].lastActive = block.timestamp */\n      sstore\n      pop\n        /* \"contracts/npc_credits/NPC_AccountManager.sol\":3830:3970  function updateLastActive(string memory accountID) public {... */\n      jump\t// out\n        /* \"contracts/npc_credits/NPC_AccountManager.sol\":2300:2435  function isNotBlacklisted(string memory accountID) onlyNotBlacklisted(accountID) public view returns(bool) {... */\n    tag_22:\n        /* \"contracts/npc_credits/NPC_AccountManager.sol\":2401:2405  bool */\n      0x00\n        /* \"contracts/npc_credits/NPC_AccountManager.sol\":2370:2379  accountID */\n      dup2\n        /* \"contracts/npc_credits/NPC_AccountManager.sol\":1780:1791  accountData */\n      0x01\n        /* \"contracts/npc_credits/NPC_AccountManager.sol\":1792:1801  accountID */\n      dup2\n        /* \"contracts/npc_credits/NPC_AccountManager.sol\":1780:1802  accountData[accountID] */\n      mload(0x40)\n      tag_69\n      swap2\n      swap1\n      tag_67\n      jump\t// in\n    tag_69:\n      swap1\n      dup2\n      mstore\n      mload(0x40)\n      swap1\n      dup2\n      swap1\n      sub\n      0x20\n      add\n      swap1\n      keccak256\n        /* \"contracts/npc_credits/NPC_AccountManager.sol\":1780:1813  accountData[accountID].registered */\n      0x03\n      add\n      sload\n      0xff\n      and\n        /* \"contracts/npc_credits/NPC_AccountManager.sol\":1772:1840  require(accountData[accountID].registered, \"Account not registered\") */\n      tag_70\n      jumpi\n      mload(0x40)\n      shl(0xe5, 0x461bcd)\n      dup2\n      mstore\n      0x04\n      add\n      tag_71\n      swap1\n      tag_72\n      jump\t// in\n    tag_71:\n      mload(0x40)\n      dup1\n      swap2\n      sub\n      swap1\n      revert\n    tag_70:\n        /* \"contracts/npc_credits/NPC_AccountManager.sol\":1859:1870  accountData */\n      0x01\n        /* \"contracts/npc_credits/NPC_AccountManager.sol\":1871:1880  accountID */\n      dup2\n        /* \"contracts/npc_credits/NPC_AccountManager.sol\":1859:1881  accountData[accountID] */\n      mload(0x40)\n      tag_73\n      swap2\n      swap1\n      tag_67\n      jump\t// in\n    tag_73:\n      swap1\n      dup2\n      mstore\n      mload(0x40)\n      swap1\n      dup2\n      swap1\n      sub\n      0x20\n      add\n      swap1\n      keccak256\n        /* \"contracts/npc_credits/NPC_AccountManager.sol\":1859:1895  accountData[accountID].isBlacklisted */\n      0x01\n      add\n      sload\n      0xff\n      shl(0xa0, 0x01)\n      swap1\n      swap2\n      div\n      and\n        /* \"contracts/npc_credits/NPC_AccountManager.sol\":1858:1895  !accountData[accountID].isBlacklisted */\n      iszero\n        /* \"contracts/npc_credits/NPC_AccountManager.sol\":1850:1919  require(!accountData[accountID].isBlacklisted, \"Account blacklisted\") */\n      tag_74\n      jumpi\n      mload(0x40)\n      shl(0xe5, 0x461bcd)\n      dup2\n      mstore\n        /* \"#utility.yul\":5100:5102   */\n      0x20\n        /* \"contracts/npc_credits/NPC_AccountManager.sol\":1850:1919  require(!accountData[accountID].isBlacklisted, \"Account blacklisted\") */\n      0x04\n      dup3\n      add\n        /* \"#utility.yul\":5082:5103   */\n      mstore\n        /* \"#utility.yul\":5139:5141   */\n      0x13\n        /* \"#utility.yul\":5119:5137   */\n      0x24\n      dup3\n      add\n        /* \"#utility.yul\":5112:5142   */\n      mstore\n      shl(0x6a, 0x1058d8dbdd5b9d08189b1858dadb1a5cdd1959)\n        /* \"#utility.yul\":5158:5176   */\n      0x44\n      dup3\n      add\n        /* \"#utility.yul\":5151:5200   */\n      mstore\n        /* \"#utility.yul\":5217:5235   */\n      0x64\n      add\n        /* \"contracts/npc_credits/NPC_AccountManager.sol\":1850:1919  require(!accountData[accountID].isBlacklisted, \"Account blacklisted\") */\n      tag_71\n        /* \"#utility.yul\":4898:5241   */\n      jump\n        /* \"contracts/npc_credits/NPC_AccountManager.sol\":1850:1919  require(!accountData[accountID].isBlacklisted, \"Account blacklisted\") */\n    tag_74:\n        /* \"contracts/npc_credits/NPC_AccountManager.sol\":2424:2428  true */\n      0x01\n        /* \"contracts/npc_credits/NPC_AccountManager.sol\":2417:2428  return true */\n      swap2\n      pop\n        /* \"contracts/npc_credits/NPC_AccountManager.sol\":1929:1930  _ */\n    tag_77:\n        /* \"contracts/npc_credits/NPC_AccountManager.sol\":2300:2435  function isNotBlacklisted(string memory accountID) onlyNotBlacklisted(accountID) public view returns(bool) {... */\n      pop\n      swap2\n      swap1\n      pop\n      jump\t// out\n        /* \"contracts/npc_credits/NPC_AccountManager.sol\":1943:2160  function verifyRole(string memory accountID, bytes32 role) public view returns(bool) {... */\n    tag_38:\n        /* \"contracts/npc_credits/NPC_AccountManager.sol\":2022:2026  bool */\n      0x00\n        /* \"contracts/npc_credits/NPC_AccountManager.sol\":2132:2151  _roleToString(role) */\n      tag_79\n        /* \"contracts/npc_credits/NPC_AccountManager.sol\":2146:2150  role */\n      dup3\n        /* \"contracts/npc_credits/NPC_AccountManager.sol\":2132:2145  _roleToString */\n      tag_80\n        /* \"contracts/npc_credits/NPC_AccountManager.sol\":2132:2151  _roleToString(role) */\n      jump\t// in\n    tag_79:\n        /* \"contracts/npc_credits/NPC_AccountManager.sol\":2115:2152  abi.encodePacked(_roleToString(role)) */\n      add(0x20, mload(0x40))\n      tag_81\n      swap2\n      swap1\n      tag_67\n      jump\t// in\n    tag_81:\n      mload(0x40)\n      0x20\n      dup2\n      dup4\n      sub\n      sub\n      dup2\n      mstore\n      swap1\n      0x40\n      mstore\n        /* \"contracts/npc_credits/NPC_AccountManager.sol\":2105:2153  keccak256(abi.encodePacked(_roleToString(role))) */\n      dup1\n      mload\n      swap1\n      0x20\n      add\n      keccak256\n        /* \"contracts/npc_credits/NPC_AccountManager.sol\":2072:2083  accountData */\n      0x01\n        /* \"contracts/npc_credits/NPC_AccountManager.sol\":2084:2093  accountID */\n      dup5\n        /* \"contracts/npc_credits/NPC_AccountManager.sol\":2072:2094  accountData[accountID] */\n      mload(0x40)\n      tag_82\n      swap2\n      swap1\n      tag_67\n      jump\t// in\n    tag_82:\n      swap1\n      dup2\n      mstore\n      mload(0x40)\n      0x20\n      swap2\n      dup2\n      swap1\n      sub\n      dup3\n      add\n      dup2\n      keccak256\n        /* \"contracts/npc_credits/NPC_AccountManager.sol\":2055:2100  abi.encodePacked(accountData[accountID].role) */\n      tag_83\n      swap3\n        /* \"contracts/npc_credits/NPC_AccountManager.sol\":2072:2094  accountData[accountID] */\n      swap1\n      swap2\n        /* \"contracts/npc_credits/NPC_AccountManager.sol\":2055:2100  abi.encodePacked(accountData[accountID].role) */\n      add\n      tag_84\n      jump\t// in\n    tag_83:\n      mload(0x40)\n      0x20\n      dup2\n      dup4\n      sub\n      sub\n      dup2\n      mstore\n      swap1\n      0x40\n      mstore\n        /* \"contracts/npc_credits/NPC_AccountManager.sol\":2045:2101  keccak256(abi.encodePacked(accountData[accountID].role)) */\n      dup1\n      mload\n      swap1\n      0x20\n      add\n      keccak256\n        /* \"contracts/npc_credits/NPC_AccountManager.sol\":2045:2153  keccak256(abi.encodePacked(accountData[accountID].role)) == keccak256(abi.encodePacked(_roleToString(role))) */\n      eq\n        /* \"contracts/npc_credits/NPC_AccountManager.sol\":2038:2153  return keccak256(abi.encodePacked(accountData[accountID].role)) == keccak256(abi.encodePacked(_roleToString(role))) */\n      swap1\n      pop\n        /* \"contracts/npc_credits/NPC_AccountManager.sol\":1943:2160  function verifyRole(string memory accountID, bytes32 role) public view returns(bool) {... */\n    tag_78:\n      swap3\n      swap2\n      pop\n      pop\n      jump\t// out\n        /* \"contracts/npc_credits/NPC_AccountManager.sol\":2167:2294  function isRegistered(string memory accountID) onlyRegistered(accountID) public view returns(bool) {... */\n    tag_42:\n        /* \"contracts/npc_credits/NPC_AccountManager.sol\":2260:2264  bool */\n      0x00\n        /* \"contracts/npc_credits/NPC_AccountManager.sol\":2229:2238  accountID */\n      dup2\n        /* \"contracts/npc_credits/NPC_AccountManager.sol\":1625:1636  accountData */\n      0x01\n        /* \"contracts/npc_credits/NPC_AccountManager.sol\":1637:1646  accountID */\n      dup2\n        /* \"contracts/npc_credits/NPC_AccountManager.sol\":1625:1647  accountData[accountID] */\n      mload(0x40)\n      tag_86\n      swap2\n      swap1\n      tag_67\n      jump\t// in\n    tag_86:\n      swap1\n      dup2\n      mstore\n      mload(0x40)\n      swap1\n      dup2\n      swap1\n      sub\n      0x20\n      add\n      swap1\n      keccak256\n        /* \"contracts/npc_credits/NPC_AccountManager.sol\":1625:1658  accountData[accountID].registered */\n      0x03\n      add\n      sload\n      0xff\n      and\n        /* \"contracts/npc_credits/NPC_AccountManager.sol\":1617:1685  require(accountData[accountID].registered, \"Account not registered\") */\n      tag_74\n      jumpi\n      mload(0x40)\n      shl(0xe5, 0x461bcd)\n      dup2\n      mstore\n      0x04\n      add\n      tag_71\n      swap1\n      tag_72\n      jump\t// in\n        /* \"contracts/npc_credits/NPC_AccountManager.sol\":3564:3824  function blacklistAccount(string memory accountID, bool status)... */\n    tag_50:\n        /* \"contracts/npc_credits/NPC_AccountManager.sol\":1424:1435  roleManager */\n      sload(0x00)\n        /* \"contracts/npc_credits/NPC_AccountManager.sol\":1424:1466  roleManager.onlyAdminOrBackend(msg.sender) */\n      mload(0x40)\n      shl(0xe1, 0x49e89cc7)\n      dup2\n      mstore\n        /* \"contracts/npc_credits/NPC_AccountManager.sol\":1455:1465  msg.sender */\n      caller\n        /* \"contracts/npc_credits/NPC_AccountManager.sol\":1424:1466  roleManager.onlyAdminOrBackend(msg.sender) */\n      0x04\n      dup3\n      add\n        /* \"#utility.yul\":6751:6802   */\n      mstore\n      sub(shl(0xa0, 0x01), 0x01)\n        /* \"contracts/npc_credits/NPC_AccountManager.sol\":1424:1435  roleManager */\n      swap1\n      swap2\n      and\n      swap1\n        /* \"contracts/npc_credits/NPC_AccountManager.sol\":1424:1454  roleManager.onlyAdminOrBackend */\n      0x93d1398e\n      swap1\n        /* \"#utility.yul\":6724:6742   */\n      0x24\n      add\n        /* \"contracts/npc_credits/NPC_AccountManager.sol\":1424:1466  roleManager.onlyAdminOrBackend(msg.sender) */\n      0x20\n      mload(0x40)\n      dup1\n      dup4\n      sub\n      dup2\n      dup7\n      gas\n      staticcall\n      iszero\n      dup1\n      iszero\n      tag_94\n      jumpi\n      returndatasize\n      0x00\n      dup1\n      returndatacopy\n      revert(0x00, returndatasize)\n    tag_94:\n      pop\n      pop\n      pop\n      pop\n      mload(0x40)\n      returndatasize\n      not(0x1f)\n      0x1f\n      dup3\n      add\n      and\n      dup3\n      add\n      dup1\n      0x40\n      mstore\n      pop\n      dup2\n      add\n      swap1\n      tag_95\n      swap2\n      swap1\n      tag_96\n      jump\t// in\n    tag_95:\n        /* \"contracts/npc_credits/NPC_AccountManager.sol\":1403:1534  require(... */\n      tag_97\n      jumpi\n      mload(0x40)\n      shl(0xe5, 0x461bcd)\n      dup2\n      mstore\n      0x04\n      add\n      tag_71\n      swap1\n      tag_99\n      jump\t// in\n    tag_97:\n        /* \"contracts/npc_credits/NPC_AccountManager.sol\":3695:3704  accountID */\n      dup2\n        /* \"contracts/npc_credits/NPC_AccountManager.sol\":1625:1636  accountData */\n      0x01\n        /* \"contracts/npc_credits/NPC_AccountManager.sol\":1637:1646  accountID */\n      dup2\n        /* \"contracts/npc_credits/NPC_AccountManager.sol\":1625:1647  accountData[accountID] */\n      mload(0x40)\n      tag_101\n      swap2\n      swap1\n      tag_67\n      jump\t// in\n    tag_101:\n      swap1\n      dup2\n      mstore\n      mload(0x40)\n      swap1\n      dup2\n      swap1\n      sub\n      0x20\n      add\n      swap1\n      keccak256\n        /* \"contracts/npc_credits/NPC_AccountManager.sol\":1625:1658  accountData[accountID].registered */\n      0x03\n      add\n      sload\n      0xff\n      and\n        /* \"contracts/npc_credits/NPC_AccountManager.sol\":1617:1685  require(accountData[accountID].registered, \"Account not registered\") */\n      tag_102\n      jumpi\n      mload(0x40)\n      shl(0xe5, 0x461bcd)\n      dup2\n      mstore\n      0x04\n      add\n      tag_71\n      swap1\n      tag_72\n      jump\t// in\n    tag_102:\n        /* \"contracts/npc_credits/NPC_AccountManager.sol\":3759:3765  status */\n      dup2\n        /* \"contracts/npc_credits/NPC_AccountManager.sol\":3720:3731  accountData */\n      0x01\n        /* \"contracts/npc_credits/NPC_AccountManager.sol\":3732:3741  accountID */\n      dup5\n        /* \"contracts/npc_credits/NPC_AccountManager.sol\":3720:3742  accountData[accountID] */\n      mload(0x40)\n      tag_105\n      swap2\n      swap1\n      tag_67\n      jump\t// in\n    tag_105:\n      swap1\n      dup2\n      mstore\n      mload(0x40)\n      swap1\n      dup2\n      swap1\n      sub\n      0x20\n      add\n      dup2\n      keccak256\n        /* \"contracts/npc_credits/NPC_AccountManager.sol\":3720:3756  accountData[accountID].isBlacklisted */\n      0x01\n      add\n        /* \"contracts/npc_credits/NPC_AccountManager.sol\":3720:3765  accountData[accountID].isBlacklisted = status */\n      dup1\n      sload\n      swap3\n      iszero\n      iszero\n      shl(0xa0, 0x01)\n      mul\n      not(shl(0xa0, 0xff))\n      swap1\n      swap4\n      and\n      swap3\n      swap1\n      swap3\n      or\n      swap1\n      swap2\n      sstore\n        /* \"contracts/npc_credits/NPC_AccountManager.sol\":3780:3817  AccountBlacklisted(accountID, status) */\n      tag_106\n      swap1\n        /* \"contracts/npc_credits/NPC_AccountManager.sol\":3799:3808  accountID */\n      dup5\n      swap1\n        /* \"contracts/npc_credits/NPC_AccountManager.sol\":3780:3817  AccountBlacklisted(accountID, status) */\n      tag_67\n      jump\t// in\n    tag_106:\n      mload(0x40)\n      swap1\n      dup2\n      swap1\n      sub\n      dup2\n      keccak256\n        /* \"#utility.yul\":1362:1376   */\n      dup4\n      iszero\n        /* \"#utility.yul\":1355:1377   */\n      iszero\n        /* \"#utility.yul\":1337:1378   */\n      dup3\n      mstore\n        /* \"contracts/npc_credits/NPC_AccountManager.sol\":3780:3817  AccountBlacklisted(accountID, status) */\n      swap1\n      0x62bfd135dde7dcb1853c9e9e971372460194c791876483c80577bf3028691e48\n      swap1\n        /* \"#utility.yul\":1325:1327   */\n      0x20\n        /* \"#utility.yul\":1310:1328   */\n      add\n        /* \"contracts/npc_credits/NPC_AccountManager.sol\":3780:3817  AccountBlacklisted(accountID, status) */\n      mload(0x40)\n      dup1\n      swap2\n      sub\n      swap1\n      log2\n        /* \"contracts/npc_credits/NPC_AccountManager.sol\":1544:1545  _ */\n      pop\n        /* \"contracts/npc_credits/NPC_AccountManager.sol\":3564:3824  function blacklistAccount(string memory accountID, bool status)... */\n      pop\n      pop\n      jump\t// out\n        /* \"contracts/npc_credits/NPC_AccountManager.sol\":2669:3336  function registerAccount(... */\n    tag_57:\n        /* \"contracts/npc_credits/NPC_AccountManager.sol\":1424:1435  roleManager */\n      sload(0x00)\n        /* \"contracts/npc_credits/NPC_AccountManager.sol\":1424:1466  roleManager.onlyAdminOrBackend(msg.sender) */\n      mload(0x40)\n      shl(0xe1, 0x49e89cc7)\n      dup2\n      mstore\n        /* \"contracts/npc_credits/NPC_AccountManager.sol\":1455:1465  msg.sender */\n      caller\n        /* \"contracts/npc_credits/NPC_AccountManager.sol\":1424:1466  roleManager.onlyAdminOrBackend(msg.sender) */\n      0x04\n      dup3\n      add\n        /* \"#utility.yul\":6751:6802   */\n      mstore\n      sub(shl(0xa0, 0x01), 0x01)\n        /* \"contracts/npc_credits/NPC_AccountManager.sol\":1424:1435  roleManager */\n      swap1\n      swap2\n      and\n      swap1\n        /* \"contracts/npc_credits/NPC_AccountManager.sol\":1424:1454  roleManager.onlyAdminOrBackend */\n      0x93d1398e\n      swap1\n        /* \"#utility.yul\":6724:6742   */\n      0x24\n      add\n        /* \"contracts/npc_credits/NPC_AccountManager.sol\":1424:1466  roleManager.onlyAdminOrBackend(msg.sender) */\n      0x20\n      mload(0x40)\n      dup1\n      dup4\n      sub\n      dup2\n      dup7\n      gas\n      staticcall\n      iszero\n      dup1\n      iszero\n      tag_111\n      jumpi\n      returndatasize\n      0x00\n      dup1\n      returndatacopy\n      revert(0x00, returndatasize)\n    tag_111:\n      pop\n      pop\n      pop\n      pop\n      mload(0x40)\n      returndatasize\n      not(0x1f)\n      0x1f\n      dup3\n      add\n      and\n      dup3\n      add\n      dup1\n      0x40\n      mstore\n      pop\n      dup2\n      add\n      swap1\n      tag_112\n      swap2\n      swap1\n      tag_96\n      jump\t// in\n    tag_112:\n        /* \"contracts/npc_credits/NPC_AccountManager.sol\":1403:1534  require(... */\n      tag_113\n      jumpi\n      mload(0x40)\n      shl(0xe5, 0x461bcd)\n      dup2\n      mstore\n      0x04\n      add\n      tag_71\n      swap1\n      tag_99\n      jump\t// in\n    tag_113:\n        /* \"contracts/npc_credits/NPC_AccountManager.sol\":2826:2850  string memory _accountID */\n      0x00\n        /* \"contracts/npc_credits/NPC_AccountManager.sol\":2853:2876  _toLowerCase(accountID) */\n      tag_116\n        /* \"contracts/npc_credits/NPC_AccountManager.sol\":2866:2875  accountID */\n      dup5\n        /* \"contracts/npc_credits/NPC_AccountManager.sol\":2853:2865  _toLowerCase */\n      tag_65\n        /* \"contracts/npc_credits/NPC_AccountManager.sol\":2853:2876  _toLowerCase(accountID) */\n      jump\t// in\n    tag_116:\n        /* \"contracts/npc_credits/NPC_AccountManager.sol\":2826:2876  string memory _accountID = _toLowerCase(accountID) */\n      swap1\n      pop\n        /* \"contracts/npc_credits/NPC_AccountManager.sol\":2886:2905  string memory _role */\n      0x00\n        /* \"contracts/npc_credits/NPC_AccountManager.sol\":2908:2926  _toLowerCase(role) */\n      tag_117\n        /* \"contracts/npc_credits/NPC_AccountManager.sol\":2921:2925  role */\n      dup5\n        /* \"contracts/npc_credits/NPC_AccountManager.sol\":2908:2920  _toLowerCase */\n      tag_65\n        /* \"contracts/npc_credits/NPC_AccountManager.sol\":2908:2926  _toLowerCase(role) */\n      jump\t// in\n    tag_117:\n        /* \"contracts/npc_credits/NPC_AccountManager.sol\":2886:2926  string memory _role = _toLowerCase(role) */\n      swap1\n      pop\n        /* \"contracts/npc_credits/NPC_AccountManager.sol\":2958:2969  accountData */\n      0x01\n        /* \"contracts/npc_credits/NPC_AccountManager.sol\":2970:2980  _accountID */\n      dup3\n        /* \"contracts/npc_credits/NPC_AccountManager.sol\":2958:2981  accountData[_accountID] */\n      mload(0x40)\n      tag_118\n      swap2\n      swap1\n      tag_67\n      jump\t// in\n    tag_118:\n      swap1\n      dup2\n      mstore\n      mload(0x40)\n      swap1\n      dup2\n      swap1\n      sub\n      0x20\n      add\n      swap1\n      keccak256\n        /* \"contracts/npc_credits/NPC_AccountManager.sol\":2958:2992  accountData[_accountID].registered */\n      0x03\n      add\n      sload\n      0xff\n      and\n        /* \"contracts/npc_credits/NPC_AccountManager.sol\":2957:2992  !accountData[_accountID].registered */\n      iszero\n        /* \"contracts/npc_credits/NPC_AccountManager.sol\":2936:3044  require(... */\n      tag_119\n      jumpi\n      mload(0x40)\n      shl(0xe5, 0x461bcd)\n      dup2\n      mstore\n        /* \"#utility.yul\":7676:7678   */\n      0x20\n        /* \"contracts/npc_credits/NPC_AccountManager.sol\":2936:3044  require(... */\n      0x04\n      dup3\n      add\n        /* \"#utility.yul\":7658:7679   */\n      mstore\n        /* \"#utility.yul\":7715:7717   */\n      0x1a\n        /* \"#utility.yul\":7695:7713   */\n      0x24\n      dup3\n      add\n        /* \"#utility.yul\":7688:7718   */\n      mstore\n        /* \"#utility.yul\":7754:7782   */\n      0x4163636f756e7420616c72656164792072656769737465726564000000000000\n        /* \"#utility.yul\":7734:7752   */\n      0x44\n      dup3\n      add\n        /* \"#utility.yul\":7727:7783   */\n      mstore\n        /* \"#utility.yul\":7800:7818   */\n      0x64\n      add\n        /* \"contracts/npc_credits/NPC_AccountManager.sol\":2936:3044  require(... */\n      tag_71\n        /* \"#utility.yul\":7474:7824   */\n      jump\n        /* \"contracts/npc_credits/NPC_AccountManager.sol\":2936:3044  require(... */\n    tag_119:\n        /* \"contracts/npc_credits/NPC_AccountManager.sol\":3080:3267  AccountData({... */\n      0x40\n      dup1\n      mload\n      0xa0\n      dup2\n      add\n      dup3\n      mstore\n      dup3\n      dup2\n      mstore\n      sub(shl(0xa0, 0x01), 0x01)\n      dup6\n      and\n      0x20\n      dup3\n      add\n      mstore\n      0x00\n      dup2\n      dup4\n      add\n      mstore\n        /* \"contracts/npc_credits/NPC_AccountManager.sol\":3211:3226  block.timestamp */\n      timestamp\n        /* \"contracts/npc_credits/NPC_AccountManager.sol\":3080:3267  AccountData({... */\n      0x60\n      dup3\n      add\n      mstore\n      0x01\n      0x80\n      dup3\n      add\n      dup2\n      swap1\n      mstore\n        /* \"contracts/npc_credits/NPC_AccountManager.sol\":3054:3077  accountData[_accountID] */\n      swap2\n      mload\n        /* \"contracts/npc_credits/NPC_AccountManager.sol\":3080:3267  AccountData({... */\n      swap1\n      swap2\n      swap1\n        /* \"contracts/npc_credits/NPC_AccountManager.sol\":3054:3077  accountData[_accountID] */\n      tag_122\n      swap1\n        /* \"contracts/npc_credits/NPC_AccountManager.sol\":3066:3076  _accountID */\n      dup6\n      swap1\n        /* \"contracts/npc_credits/NPC_AccountManager.sol\":3054:3077  accountData[_accountID] */\n      tag_67\n      jump\t// in\n    tag_122:\n      swap1\n      dup2\n      mstore\n      mload(0x40)\n      swap1\n      dup2\n      swap1\n      sub\n      0x20\n      add\n      swap1\n      keccak256\n        /* \"contracts/npc_credits/NPC_AccountManager.sol\":3054:3267  accountData[_accountID] = AccountData({... */\n      dup2\n      mload\n        /* \"contracts/npc_credits/NPC_AccountManager.sol\":3054:3077  accountData[_accountID] */\n      dup2\n      swap1\n        /* \"contracts/npc_credits/NPC_AccountManager.sol\":3054:3267  accountData[_accountID] = AccountData({... */\n      tag_123\n      swap1\n        /* \"contracts/npc_credits/NPC_AccountManager.sol\":3054:3077  accountData[_accountID] */\n      dup3\n        /* \"contracts/npc_credits/NPC_AccountManager.sol\":3054:3267  accountData[_accountID] = AccountData({... */\n      tag_124\n      jump\t// in\n    tag_123:\n      pop\n      0x20\n      dup3\n      add\n      mload\n      0x01\n      dup3\n      add\n      dup1\n      sload\n      0x40\n      dup1\n      dup7\n      add\n      mload\n      iszero\n      iszero\n      shl(0xa0, 0x01)\n      mul\n      not(sub(shl(0xa8, 0x01), 0x01))\n      swap1\n      swap3\n      and\n      sub(shl(0xa0, 0x01), 0x01)\n      swap1\n      swap5\n      and\n      swap4\n      swap1\n      swap4\n      or\n      or\n      swap1\n      sstore\n      0x60\n      dup4\n      add\n      mload\n      0x02\n      dup4\n      add\n      sstore\n      0x80\n      swap1\n      swap3\n      add\n      mload\n      0x03\n      swap1\n      swap2\n      add\n      dup1\n      sload\n      swap2\n      iszero\n      iszero\n      not(0xff)\n      swap1\n      swap3\n      and\n      swap2\n      swap1\n      swap2\n      or\n      swap1\n      sstore\n        /* \"contracts/npc_credits/NPC_AccountManager.sol\":3282:3329  AccountRegistered(_accountID, _role, txAddress) */\n      mload\n      tag_125\n      swap1\n        /* \"contracts/npc_credits/NPC_AccountManager.sol\":3300:3310  _accountID */\n      dup4\n      swap1\n        /* \"contracts/npc_credits/NPC_AccountManager.sol\":3282:3329  AccountRegistered(_accountID, _role, txAddress) */\n      tag_67\n      jump\t// in\n    tag_125:\n      mload(0x40)\n      dup1\n      swap2\n      sub\n      swap1\n      keccak256\n      0x15fe06bcd718db76e0542b653589a63f11b9a7e090d89e436200f6faec8a0c10\n        /* \"contracts/npc_credits/NPC_AccountManager.sol\":3312:3317  _role */\n      dup3\n        /* \"contracts/npc_credits/NPC_AccountManager.sol\":3319:3328  txAddress */\n      dup6\n        /* \"contracts/npc_credits/NPC_AccountManager.sol\":3282:3329  AccountRegistered(_accountID, _role, txAddress) */\n      mload(0x40)\n      tag_126\n      swap3\n      swap2\n      swap1\n      tag_127\n      jump\t// in\n    tag_126:\n      mload(0x40)\n      dup1\n      swap2\n      sub\n      swap1\n      log2\n        /* \"contracts/npc_credits/NPC_AccountManager.sol\":2816:3336  {... */\n      pop\n      pop\n        /* \"contracts/npc_credits/NPC_AccountManager.sol\":2669:3336  function registerAccount(... */\n      pop\n      pop\n      pop\n      jump\t// out\n        /* \"contracts/npc_credits/NPC_AccountManager.sol\":4116:4282  function getAccountData(string memory accountID)... */\n    tag_60:\n      0x40\n      dup1\n      mload\n      0xa0\n      dup2\n      add\n      dup3\n      mstore\n      0x60\n      dup1\n      dup3\n      mstore\n      0x00\n      0x20\n      dup4\n      add\n      dup2\n      swap1\n      mstore\n      dup3\n      dup5\n      add\n      dup2\n      swap1\n      mstore\n      swap1\n      dup3\n      add\n      dup2\n      swap1\n      mstore\n      0x80\n      dup3\n      add\n      mstore\n        /* \"contracts/npc_credits/NPC_AccountManager.sol\":4253:4275  accountData[accountID] */\n      swap1\n      mload\n        /* \"contracts/npc_credits/NPC_AccountManager.sol\":4253:4264  accountData */\n      0x01\n      swap1\n        /* \"contracts/npc_credits/NPC_AccountManager.sol\":4253:4275  accountData[accountID] */\n      tag_131\n      swap1\n        /* \"contracts/npc_credits/NPC_AccountManager.sol\":4265:4274  accountID */\n      dup5\n      swap1\n        /* \"contracts/npc_credits/NPC_AccountManager.sol\":4253:4275  accountData[accountID] */\n      tag_67\n      jump\t// in\n    tag_131:\n      swap1\n      dup2\n      mstore\n      0x20\n      add\n      mload(0x40)\n      dup1\n      swap2\n      sub\n      swap1\n      keccak256\n        /* \"contracts/npc_credits/NPC_AccountManager.sol\":4246:4275  return accountData[accountID] */\n      mload(0x40)\n      dup1\n      0xa0\n      add\n      0x40\n      mstore\n      swap1\n      dup2\n      0x00\n      dup3\n      add\n      dup1\n      sload\n      tag_132\n      swap1\n      tag_133\n      jump\t// in\n    tag_132:\n      dup1\n      0x1f\n      add\n      0x20\n      dup1\n      swap2\n      div\n      mul\n      0x20\n      add\n      mload(0x40)\n      swap1\n      dup2\n      add\n      0x40\n      mstore\n      dup1\n      swap3\n      swap2\n      swap1\n      dup2\n      dup2\n      mstore\n      0x20\n      add\n      dup3\n      dup1\n      sload\n      tag_134\n      swap1\n      tag_133\n      jump\t// in\n    tag_134:\n      dup1\n      iszero\n      tag_135\n      jumpi\n      dup1\n      0x1f\n      lt\n      tag_136\n      jumpi\n      0x0100\n      dup1\n      dup4\n      sload\n      div\n      mul\n      dup4\n      mstore\n      swap2\n      0x20\n      add\n      swap2\n      jump(tag_135)\n    tag_136:\n      dup3\n      add\n      swap2\n      swap1\n      0x00\n      mstore\n      keccak256(0x00, 0x20)\n      swap1\n    tag_137:\n      dup2\n      sload\n      dup2\n      mstore\n      swap1\n      0x01\n      add\n      swap1\n      0x20\n      add\n      dup1\n      dup4\n      gt\n      tag_137\n      jumpi\n      dup3\n      swap1\n      sub\n      0x1f\n      and\n      dup3\n      add\n      swap2\n    tag_135:\n      pop\n      pop\n      pop\n      swap2\n      dup4\n      mstore\n      pop\n      pop\n      0x01\n      dup3\n      add\n      sload\n      sub(shl(0xa0, 0x01), 0x01)\n      dup2\n      and\n      0x20\n      dup4\n      add\n      mstore\n      0xff\n      shl(0xa0, 0x01)\n      swap1\n      swap2\n      div\n      dup2\n      and\n      iszero\n      iszero\n      0x40\n      dup4\n      add\n      mstore\n      0x02\n      dup4\n      add\n      sload\n      0x60\n      dup4\n      add\n      mstore\n      0x03\n      swap1\n      swap3\n      add\n      sload\n      swap1\n      swap2\n      and\n      iszero\n      iszero\n      0x80\n      swap1\n      swap2\n      add\n      mstore\n      swap3\n        /* \"contracts/npc_credits/NPC_AccountManager.sol\":4116:4282  function getAccountData(string memory accountID)... */\n      swap2\n      pop\n      pop\n      jump\t// out\n        /* \"contracts/npc_credits/NPC_AccountManager.sol\":4425:4923  function _toLowerCase(string memory str)... */\n    tag_65:\n        /* \"contracts/npc_credits/NPC_AccountManager.sol\":4513:4526  string memory */\n      0x60\n        /* \"contracts/npc_credits/NPC_AccountManager.sol\":4542:4559  bytes memory bStr */\n      0x00\n        /* \"contracts/npc_credits/NPC_AccountManager.sol\":4568:4571  str */\n      dup3\n        /* \"contracts/npc_credits/NPC_AccountManager.sol\":4542:4572  bytes memory bStr = bytes(str) */\n      swap1\n      pop\n        /* \"contracts/npc_credits/NPC_AccountManager.sol\":4582:4601  bytes memory bLower */\n      0x00\n        /* \"contracts/npc_credits/NPC_AccountManager.sol\":4614:4618  bStr */\n      dup2\n        /* \"contracts/npc_credits/NPC_AccountManager.sol\":4614:4625  bStr.length */\n      mload\n        /* \"contracts/npc_credits/NPC_AccountManager.sol\":4604:4626  new bytes(bStr.length) */\n      0xffffffffffffffff\n      dup2\n      gt\n      iszero\n      tag_140\n      jumpi\n      tag_140\n      tag_141\n      jump\t// in\n    tag_140:\n      mload(0x40)\n      swap1\n      dup1\n      dup3\n      mstore\n      dup1\n      0x1f\n      add\n      not(0x1f)\n      and\n      0x20\n      add\n      dup3\n      add\n      0x40\n      mstore\n      dup1\n      iszero\n      tag_142\n      jumpi\n      0x20\n      dup3\n      add\n      dup2\n      dup1\n      calldatasize\n      dup4\n      calldatacopy\n      add\n      swap1\n      pop\n    tag_142:\n      pop\n        /* \"contracts/npc_credits/NPC_AccountManager.sol\":4582:4626  bytes memory bLower = new bytes(bStr.length) */\n      swap1\n      pop\n        /* \"contracts/npc_credits/NPC_AccountManager.sol\":4641:4650  uint256 i */\n      0x00\n        /* \"contracts/npc_credits/NPC_AccountManager.sol\":4636:4886  for (uint256 i = 0; i < bStr.length; i++) {... */\n    tag_143:\n        /* \"contracts/npc_credits/NPC_AccountManager.sol\":4660:4664  bStr */\n      dup3\n        /* \"contracts/npc_credits/NPC_AccountManager.sol\":4660:4671  bStr.length */\n      mload\n        /* \"contracts/npc_credits/NPC_AccountManager.sol\":4656:4657  i */\n      dup2\n        /* \"contracts/npc_credits/NPC_AccountManager.sol\":4656:4671  i < bStr.length */\n      lt\n        /* \"contracts/npc_credits/NPC_AccountManager.sol\":4636:4886  for (uint256 i = 0; i < bStr.length; i++) {... */\n      iszero\n      tag_144\n      jumpi\n        /* \"contracts/npc_credits/NPC_AccountManager.sol\":4715:4717  65 */\n      0x41\n        /* \"contracts/npc_credits/NPC_AccountManager.sol\":4703:4707  bStr */\n      dup4\n        /* \"contracts/npc_credits/NPC_AccountManager.sol\":4708:4709  i */\n      dup3\n        /* \"contracts/npc_credits/NPC_AccountManager.sol\":4703:4710  bStr[i] */\n      dup2\n      mload\n      dup2\n      lt\n      tag_147\n      jumpi\n      tag_147\n      tag_148\n      jump\t// in\n    tag_147:\n      add\n      0x20\n      add\n      mload\n      0xf8\n      shr\n        /* \"contracts/npc_credits/NPC_AccountManager.sol\":4697:4717  uint8(bStr[i]) >= 65 */\n      lt\n      dup1\n      iszero\n      swap1\n        /* \"contracts/npc_credits/NPC_AccountManager.sol\":4696:4744  (uint8(bStr[i]) >= 65) && (uint8(bStr[i]) <= 90) */\n      tag_149\n      jumpi\n      pop\n        /* \"contracts/npc_credits/NPC_AccountManager.sol\":4741:4743  90 */\n      0x5a\n        /* \"contracts/npc_credits/NPC_AccountManager.sol\":4729:4733  bStr */\n      dup4\n        /* \"contracts/npc_credits/NPC_AccountManager.sol\":4734:4735  i */\n      dup3\n        /* \"contracts/npc_credits/NPC_AccountManager.sol\":4729:4736  bStr[i] */\n      dup2\n      mload\n      dup2\n      lt\n      tag_151\n      jumpi\n      tag_151\n      tag_148\n      jump\t// in\n    tag_151:\n      add\n      0x20\n      add\n      mload\n      0xf8\n      shr\n        /* \"contracts/npc_credits/NPC_AccountManager.sol\":4723:4743  uint8(bStr[i]) <= 90 */\n      gt\n      iszero\n        /* \"contracts/npc_credits/NPC_AccountManager.sol\":4696:4744  (uint8(bStr[i]) >= 65) && (uint8(bStr[i]) <= 90) */\n    tag_149:\n        /* \"contracts/npc_credits/NPC_AccountManager.sol\":4692:4876  if ((uint8(bStr[i]) >= 65) && (uint8(bStr[i]) <= 90)) {... */\n      iszero\n      tag_152\n      jumpi\n        /* \"contracts/npc_credits/NPC_AccountManager.sol\":4789:4793  bStr */\n      dup3\n        /* \"contracts/npc_credits/NPC_AccountManager.sol\":4794:4795  i */\n      dup2\n        /* \"contracts/npc_credits/NPC_AccountManager.sol\":4789:4796  bStr[i] */\n      dup2\n      mload\n      dup2\n      lt\n      tag_154\n      jumpi\n      tag_154\n      tag_148\n      jump\t// in\n    tag_154:\n      0x20\n      add\n      add\n      mload\n      0xf8\n      shr\n      0xf8\n      shl\n        /* \"contracts/npc_credits/NPC_AccountManager.sol\":4783:4797  uint8(bStr[i]) */\n      0xf8\n      shr\n        /* \"contracts/npc_credits/NPC_AccountManager.sol\":4800:4802  32 */\n      0x20\n        /* \"contracts/npc_credits/NPC_AccountManager.sol\":4783:4802  uint8(bStr[i]) + 32 */\n      tag_155\n      swap2\n      swap1\n      tag_156\n      jump\t// in\n    tag_155:\n        /* \"contracts/npc_credits/NPC_AccountManager.sol\":4776:4803  bytes1(uint8(bStr[i]) + 32) */\n      0xf8\n      shl\n        /* \"contracts/npc_credits/NPC_AccountManager.sol\":4764:4770  bLower */\n      dup3\n        /* \"contracts/npc_credits/NPC_AccountManager.sol\":4771:4772  i */\n      dup3\n        /* \"contracts/npc_credits/NPC_AccountManager.sol\":4764:4773  bLower[i] */\n      dup2\n      mload\n      dup2\n      lt\n      tag_158\n      jumpi\n      tag_158\n      tag_148\n      jump\t// in\n    tag_158:\n      0x20\n      add\n      add\n        /* \"contracts/npc_credits/NPC_AccountManager.sol\":4764:4803  bLower[i] = bytes1(uint8(bStr[i]) + 32) */\n      swap1\n      not(sub(shl(0xf8, 0x01), 0x01))\n      and\n      swap1\n      dup2\n      0x00\n      byte\n      swap1\n      mstore8\n      pop\n        /* \"contracts/npc_credits/NPC_AccountManager.sol\":4692:4876  if ((uint8(bStr[i]) >= 65) && (uint8(bStr[i]) <= 90)) {... */\n      jump(tag_159)\n    tag_152:\n        /* \"contracts/npc_credits/NPC_AccountManager.sol\":4854:4858  bStr */\n      dup3\n        /* \"contracts/npc_credits/NPC_AccountManager.sol\":4859:4860  i */\n      dup2\n        /* \"contracts/npc_credits/NPC_AccountManager.sol\":4854:4861  bStr[i] */\n      dup2\n      mload\n      dup2\n      lt\n      tag_161\n      jumpi\n      tag_161\n      tag_148\n      jump\t// in\n    tag_161:\n      0x20\n      add\n      add\n      mload\n      0xf8\n      shr\n      0xf8\n      shl\n        /* \"contracts/npc_credits/NPC_AccountManager.sol\":4842:4848  bLower */\n      dup3\n        /* \"contracts/npc_credits/NPC_AccountManager.sol\":4849:4850  i */\n      dup3\n        /* \"contracts/npc_credits/NPC_AccountManager.sol\":4842:4851  bLower[i] */\n      dup2\n      mload\n      dup2\n      lt\n      tag_163\n      jumpi\n      tag_163\n      tag_148\n      jump\t// in\n    tag_163:\n      0x20\n      add\n      add\n        /* \"contracts/npc_credits/NPC_AccountManager.sol\":4842:4861  bLower[i] = bStr[i] */\n      swap1\n      not(sub(shl(0xf8, 0x01), 0x01))\n      and\n      swap1\n      dup2\n      0x00\n      byte\n      swap1\n      mstore8\n      pop\n        /* \"contracts/npc_credits/NPC_AccountManager.sol\":4692:4876  if ((uint8(bStr[i]) >= 65) && (uint8(bStr[i]) <= 90)) {... */\n    tag_159:\n        /* \"contracts/npc_credits/NPC_AccountManager.sol\":4673:4676  i++ */\n      0x01\n      add\n        /* \"contracts/npc_credits/NPC_AccountManager.sol\":4636:4886  for (uint256 i = 0; i < bStr.length; i++) {... */\n      jump(tag_143)\n    tag_144:\n      pop\n        /* \"contracts/npc_credits/NPC_AccountManager.sol\":4909:4915  bLower */\n      swap4\n        /* \"contracts/npc_credits/NPC_AccountManager.sol\":4425:4923  function _toLowerCase(string memory str)... */\n      swap3\n      pop\n      pop\n      pop\n      jump\t// out\n        /* \"contracts/npc_credits/NPC_AccountManager.sol\":5048:5265  function _roleToString(bytes32 role) internal pure returns (string memory) {... */\n    tag_80:\n        /* \"contracts/npc_credits/NPC_AccountManager.sol\":5108:5121  string memory */\n      0x60\n        /* \"contracts/npc_credits/NPC_AccountManager.sol\":399:425  keccak256(\"PRODUCER_ROLE\") */\n      0x8eb467f061ca67f42a2d2ca4a346fc9fb645efc0ba75056ee9f71c3a0ccc10a8\n        /* \"contracts/npc_credits/NPC_AccountManager.sol\":5137:5141  role */\n      dup3\n        /* \"contracts/npc_credits/NPC_AccountManager.sol\":5137:5158  role == PRODUCER_ROLE */\n      sub\n        /* \"contracts/npc_credits/NPC_AccountManager.sol\":5133:5177  if (role == PRODUCER_ROLE) return \"producer\" */\n      tag_165\n      jumpi\n      pop\n      pop\n        /* \"contracts/npc_credits/NPC_AccountManager.sol\":5160:5177  return \"producer\" */\n      0x40\n      dup1\n      mload\n      dup1\n      dup3\n      add\n      swap1\n      swap2\n      mstore\n      0x08\n      dup2\n      mstore\n      shl(0xc1, 0x383937b23ab1b2b9)\n      0x20\n      dup3\n      add\n      mstore\n      swap1\n        /* \"contracts/npc_credits/NPC_AccountManager.sol\":5048:5265  function _roleToString(bytes32 role) internal pure returns (string memory) {... */\n      jump\t// out\n        /* \"contracts/npc_credits/NPC_AccountManager.sol\":5133:5177  if (role == PRODUCER_ROLE) return \"producer\" */\n    tag_165:\n        /* \"contracts/npc_credits/NPC_AccountManager.sol\":471:497  keccak256(\"VERIFIER_ROLE\") */\n      0x0ce23c3e399818cfee81a7ab0880f714e53d7672b08df0fa62f2843416e1ea09\n        /* \"contracts/npc_credits/NPC_AccountManager.sol\":5191:5195  role */\n      dup3\n        /* \"contracts/npc_credits/NPC_AccountManager.sol\":5191:5212  role == VERIFIER_ROLE */\n      sub\n        /* \"contracts/npc_credits/NPC_AccountManager.sol\":5187:5231  if (role == VERIFIER_ROLE) return \"verifier\" */\n      tag_166\n      jumpi\n      pop\n      pop\n        /* \"contracts/npc_credits/NPC_AccountManager.sol\":5214:5231  return \"verifier\" */\n      0x40\n      dup1\n      mload\n      dup1\n      dup3\n      add\n      swap1\n      swap2\n      mstore\n      0x08\n      dup2\n      mstore\n      shl(0xc1, 0x3b32b934b334b2b9)\n      0x20\n      dup3\n      add\n      mstore\n      swap1\n        /* \"contracts/npc_credits/NPC_AccountManager.sol\":5048:5265  function _roleToString(bytes32 role) internal pure returns (string memory) {... */\n      jump\t// out\n        /* \"contracts/npc_credits/NPC_AccountManager.sol\":5187:5231  if (role == VERIFIER_ROLE) return \"verifier\" */\n    tag_166:\n      pop\n      pop\n        /* \"contracts/npc_credits/NPC_AccountManager.sol\":5241:5258  return \"investor\" */\n      0x40\n      dup1\n      mload\n      dup1\n      dup3\n      add\n      swap1\n      swap2\n      mstore\n      0x08\n      dup2\n      mstore\n      shl(0xc1, 0x34b73b32b9ba37b9)\n      0x20\n      dup3\n      add\n      mstore\n      swap1\n        /* \"contracts/npc_credits/NPC_AccountManager.sol\":5048:5265  function _roleToString(bytes32 role) internal pure returns (string memory) {... */\n      jump\t// out\n        /* \"#utility.yul\":14:141   */\n    tag_141:\n        /* \"#utility.yul\":75:85   */\n      0x4e487b71\n        /* \"#utility.yul\":70:73   */\n      0xe0\n        /* \"#utility.yul\":66:86   */\n      shl\n        /* \"#utility.yul\":63:64   */\n      0x00\n        /* \"#utility.yul\":56:87   */\n      mstore\n        /* \"#utility.yul\":106:110   */\n      0x41\n        /* \"#utility.yul\":103:104   */\n      0x04\n        /* \"#utility.yul\":96:111   */\n      mstore\n        /* \"#utility.yul\":130:134   */\n      0x24\n        /* \"#utility.yul\":127:128   */\n      0x00\n        /* \"#utility.yul\":120:135   */\n      revert\n        /* \"#utility.yul\":146:865   */\n    tag_167:\n        /* \"#utility.yul\":189:194   */\n      0x00\n        /* \"#utility.yul\":242:245   */\n      dup3\n        /* \"#utility.yul\":235:239   */\n      0x1f\n        /* \"#utility.yul\":227:233   */\n      dup4\n        /* \"#utility.yul\":223:240   */\n      add\n        /* \"#utility.yul\":219:246   */\n      slt\n        /* \"#utility.yul\":209:264   */\n      tag_176\n      jumpi\n        /* \"#utility.yul\":260:261   */\n      0x00\n        /* \"#utility.yul\":257:258   */\n      dup1\n        /* \"#utility.yul\":250:262   */\n      revert\n        /* \"#utility.yul\":209:264   */\n    tag_176:\n        /* \"#utility.yul\":296:302   */\n      dup2\n        /* \"#utility.yul\":283:303   */\n      calldataload\n        /* \"#utility.yul\":322:340   */\n      0xffffffffffffffff\n        /* \"#utility.yul\":359:361   */\n      dup1\n        /* \"#utility.yul\":355:357   */\n      dup3\n        /* \"#utility.yul\":352:362   */\n      gt\n        /* \"#utility.yul\":349:385   */\n      iszero\n      tag_178\n      jumpi\n        /* \"#utility.yul\":365:383   */\n      tag_178\n      tag_141\n      jump\t// in\n    tag_178:\n        /* \"#utility.yul\":440:442   */\n      0x40\n        /* \"#utility.yul\":434:443   */\n      mload\n        /* \"#utility.yul\":408:410   */\n      0x1f\n        /* \"#utility.yul\":494:507   */\n      dup4\n      add\n      not(0x1f)\n        /* \"#utility.yul\":490:512   */\n      swap1\n      dup2\n      and\n        /* \"#utility.yul\":514:516   */\n      0x3f\n        /* \"#utility.yul\":486:517   */\n      add\n        /* \"#utility.yul\":482:522   */\n      and\n        /* \"#utility.yul\":470:523   */\n      dup2\n      add\n      swap1\n        /* \"#utility.yul\":538:556   */\n      dup3\n      dup3\n      gt\n        /* \"#utility.yul\":558:580   */\n      dup2\n      dup4\n      lt\n        /* \"#utility.yul\":535:581   */\n      or\n        /* \"#utility.yul\":532:604   */\n      iszero\n      tag_180\n      jumpi\n        /* \"#utility.yul\":584:602   */\n      tag_180\n      tag_141\n      jump\t// in\n    tag_180:\n        /* \"#utility.yul\":624:634   */\n      dup2\n        /* \"#utility.yul\":620:622   */\n      0x40\n        /* \"#utility.yul\":613:635   */\n      mstore\n        /* \"#utility.yul\":659:661   */\n      dup4\n        /* \"#utility.yul\":651:657   */\n      dup2\n        /* \"#utility.yul\":644:662   */\n      mstore\n        /* \"#utility.yul\":705:708   */\n      dup7\n        /* \"#utility.yul\":698:702   */\n      0x20\n        /* \"#utility.yul\":693:695   */\n      dup6\n        /* \"#utility.yul\":685:691   */\n      dup9\n        /* \"#utility.yul\":681:696   */\n      add\n        /* \"#utility.yul\":677:703   */\n      add\n        /* \"#utility.yul\":674:709   */\n      gt\n        /* \"#utility.yul\":671:726   */\n      iszero\n      tag_181\n      jumpi\n        /* \"#utility.yul\":722:723   */\n      0x00\n        /* \"#utility.yul\":719:720   */\n      dup1\n        /* \"#utility.yul\":712:724   */\n      revert\n        /* \"#utility.yul\":671:726   */\n    tag_181:\n        /* \"#utility.yul\":786:788   */\n      dup4\n        /* \"#utility.yul\":779:783   */\n      0x20\n        /* \"#utility.yul\":771:777   */\n      dup8\n        /* \"#utility.yul\":767:784   */\n      add\n        /* \"#utility.yul\":760:764   */\n      0x20\n        /* \"#utility.yul\":752:758   */\n      dup4\n        /* \"#utility.yul\":748:765   */\n      add\n        /* \"#utility.yul\":735:789   */\n      calldatacopy\n        /* \"#utility.yul\":833:834   */\n      0x00\n        /* \"#utility.yul\":826:830   */\n      0x20\n        /* \"#utility.yul\":821:823   */\n      dup6\n        /* \"#utility.yul\":813:819   */\n      dup4\n        /* \"#utility.yul\":809:824   */\n      add\n        /* \"#utility.yul\":805:831   */\n      add\n        /* \"#utility.yul\":798:835   */\n      mstore\n        /* \"#utility.yul\":853:859   */\n      dup1\n        /* \"#utility.yul\":844:859   */\n      swap5\n      pop\n      pop\n      pop\n      pop\n      pop\n        /* \"#utility.yul\":146:865   */\n      swap3\n      swap2\n      pop\n      pop\n      jump\t// out\n        /* \"#utility.yul\":870:1192   */\n    tag_18:\n        /* \"#utility.yul\":939:945   */\n      0x00\n        /* \"#utility.yul\":992:994   */\n      0x20\n        /* \"#utility.yul\":980:989   */\n      dup3\n        /* \"#utility.yul\":971:978   */\n      dup5\n        /* \"#utility.yul\":967:990   */\n      sub\n        /* \"#utility.yul\":963:995   */\n      slt\n        /* \"#utility.yul\":960:1012   */\n      iszero\n      tag_183\n      jumpi\n        /* \"#utility.yul\":1008:1009   */\n      0x00\n        /* \"#utility.yul\":1005:1006   */\n      dup1\n        /* \"#utility.yul\":998:1010   */\n      revert\n        /* \"#utility.yul\":960:1012   */\n    tag_183:\n        /* \"#utility.yul\":1048:1057   */\n      dup2\n        /* \"#utility.yul\":1035:1058   */\n      calldataload\n        /* \"#utility.yul\":1081:1099   */\n      0xffffffffffffffff\n        /* \"#utility.yul\":1073:1079   */\n      dup2\n        /* \"#utility.yul\":1070:1100   */\n      gt\n        /* \"#utility.yul\":1067:1117   */\n      iszero\n      tag_184\n      jumpi\n        /* \"#utility.yul\":1113:1114   */\n      0x00\n        /* \"#utility.yul\":1110:1111   */\n      dup1\n        /* \"#utility.yul\":1103:1115   */\n      revert\n        /* \"#utility.yul\":1067:1117   */\n    tag_184:\n        /* \"#utility.yul\":1136:1186   */\n      tag_185\n        /* \"#utility.yul\":1178:1185   */\n      dup5\n        /* \"#utility.yul\":1169:1175   */\n      dup3\n        /* \"#utility.yul\":1158:1167   */\n      dup6\n        /* \"#utility.yul\":1154:1176   */\n      add\n        /* \"#utility.yul\":1136:1186   */\n      tag_167\n      jump\t// in\n    tag_185:\n        /* \"#utility.yul\":1126:1186   */\n      swap5\n        /* \"#utility.yul\":870:1192   */\n      swap4\n      pop\n      pop\n      pop\n      pop\n      jump\t// out\n        /* \"#utility.yul\":1571:1961   */\n    tag_37:\n        /* \"#utility.yul\":1649:1655   */\n      0x00\n        /* \"#utility.yul\":1657:1663   */\n      dup1\n        /* \"#utility.yul\":1710:1712   */\n      0x40\n        /* \"#utility.yul\":1698:1707   */\n      dup4\n        /* \"#utility.yul\":1689:1696   */\n      dup6\n        /* \"#utility.yul\":1685:1708   */\n      sub\n        /* \"#utility.yul\":1681:1713   */\n      slt\n        /* \"#utility.yul\":1678:1730   */\n      iszero\n      tag_189\n      jumpi\n        /* \"#utility.yul\":1726:1727   */\n      0x00\n        /* \"#utility.yul\":1723:1724   */\n      dup1\n        /* \"#utility.yul\":1716:1728   */\n      revert\n        /* \"#utility.yul\":1678:1730   */\n    tag_189:\n        /* \"#utility.yul\":1766:1775   */\n      dup3\n        /* \"#utility.yul\":1753:1776   */\n      calldataload\n        /* \"#utility.yul\":1799:1817   */\n      0xffffffffffffffff\n        /* \"#utility.yul\":1791:1797   */\n      dup2\n        /* \"#utility.yul\":1788:1818   */\n      gt\n        /* \"#utility.yul\":1785:1835   */\n      iszero\n      tag_190\n      jumpi\n        /* \"#utility.yul\":1831:1832   */\n      0x00\n        /* \"#utility.yul\":1828:1829   */\n      dup1\n        /* \"#utility.yul\":1821:1833   */\n      revert\n        /* \"#utility.yul\":1785:1835   */\n    tag_190:\n        /* \"#utility.yul\":1854:1904   */\n      tag_191\n        /* \"#utility.yul\":1896:1903   */\n      dup6\n        /* \"#utility.yul\":1887:1893   */\n      dup3\n        /* \"#utility.yul\":1876:1885   */\n      dup7\n        /* \"#utility.yul\":1872:1894   */\n      add\n        /* \"#utility.yul\":1854:1904   */\n      tag_167\n      jump\t// in\n    tag_191:\n        /* \"#utility.yul\":1844:1904   */\n      swap6\n        /* \"#utility.yul\":1951:1953   */\n      0x20\n        /* \"#utility.yul\":1936:1954   */\n      swap5\n      swap1\n      swap5\n      add\n        /* \"#utility.yul\":1923:1955   */\n      calldataload\n      swap5\n      pop\n      pop\n      pop\n      pop\n        /* \"#utility.yul\":1571:1961   */\n      jump\t// out\n        /* \"#utility.yul\":1966:2084   */\n    tag_168:\n        /* \"#utility.yul\":2052:2057   */\n      dup1\n        /* \"#utility.yul\":2045:2058   */\n      iszero\n        /* \"#utility.yul\":2038:2059   */\n      iszero\n        /* \"#utility.yul\":2031:2036   */\n      dup2\n        /* \"#utility.yul\":2028:2060   */\n      eq\n        /* \"#utility.yul\":2018:2078   */\n      tag_193\n      jumpi\n        /* \"#utility.yul\":2074:2075   */\n      0x00\n        /* \"#utility.yul\":2071:2072   */\n      dup1\n        /* \"#utility.yul\":2064:2076   */\n      revert\n        /* \"#utility.yul\":2018:2078   */\n    tag_193:\n        /* \"#utility.yul\":1966:2084   */\n      pop\n      jump\t// out\n        /* \"#utility.yul\":2089:2540   */\n    tag_49:\n        /* \"#utility.yul\":2164:2170   */\n      0x00\n        /* \"#utility.yul\":2172:2178   */\n      dup1\n        /* \"#utility.yul\":2225:2227   */\n      0x40\n        /* \"#utility.yul\":2213:2222   */\n      dup4\n        /* \"#utility.yul\":2204:2211   */\n      dup6\n        /* \"#utility.yul\":2200:2223   */\n      sub\n        /* \"#utility.yul\":2196:2228   */\n      slt\n        /* \"#utility.yul\":2193:2245   */\n      iszero\n      tag_195\n      jumpi\n        /* \"#utility.yul\":2241:2242   */\n      0x00\n        /* \"#utility.yul\":2238:2239   */\n      dup1\n        /* \"#utility.yul\":2231:2243   */\n      revert\n        /* \"#utility.yul\":2193:2245   */\n    tag_195:\n        /* \"#utility.yul\":2281:2290   */\n      dup3\n        /* \"#utility.yul\":2268:2291   */\n      calldataload\n        /* \"#utility.yul\":2314:2332   */\n      0xffffffffffffffff\n        /* \"#utility.yul\":2306:2312   */\n      dup2\n        /* \"#utility.yul\":2303:2333   */\n      gt\n        /* \"#utility.yul\":2300:2350   */\n      iszero\n      tag_196\n      jumpi\n        /* \"#utility.yul\":2346:2347   */\n      0x00\n        /* \"#utility.yul\":2343:2344   */\n      dup1\n        /* \"#utility.yul\":2336:2348   */\n      revert\n        /* \"#utility.yul\":2300:2350   */\n    tag_196:\n        /* \"#utility.yul\":2369:2419   */\n      tag_197\n        /* \"#utility.yul\":2411:2418   */\n      dup6\n        /* \"#utility.yul\":2402:2408   */\n      dup3\n        /* \"#utility.yul\":2391:2400   */\n      dup7\n        /* \"#utility.yul\":2387:2409   */\n      add\n        /* \"#utility.yul\":2369:2419   */\n      tag_167\n      jump\t// in\n    tag_197:\n        /* \"#utility.yul\":2359:2419   */\n      swap3\n      pop\n      pop\n        /* \"#utility.yul\":2469:2471   */\n      0x20\n        /* \"#utility.yul\":2458:2467   */\n      dup4\n        /* \"#utility.yul\":2454:2472   */\n      add\n        /* \"#utility.yul\":2441:2473   */\n      calldataload\n        /* \"#utility.yul\":2482:2510   */\n      tag_198\n        /* \"#utility.yul\":2504:2509   */\n      dup2\n        /* \"#utility.yul\":2482:2510   */\n      tag_168\n      jump\t// in\n    tag_198:\n        /* \"#utility.yul\":2529:2534   */\n      dup1\n        /* \"#utility.yul\":2519:2534   */\n      swap2\n      pop\n      pop\n        /* \"#utility.yul\":2089:2540   */\n      swap3\n      pop\n      swap3\n      swap1\n      pop\n      jump\t// out\n        /* \"#utility.yul\":2545:3262   */\n    tag_56:\n        /* \"#utility.yul\":2642:2648   */\n      0x00\n        /* \"#utility.yul\":2650:2656   */\n      dup1\n        /* \"#utility.yul\":2658:2664   */\n      0x00\n        /* \"#utility.yul\":2711:2713   */\n      0x60\n        /* \"#utility.yul\":2699:2708   */\n      dup5\n        /* \"#utility.yul\":2690:2697   */\n      dup7\n        /* \"#utility.yul\":2686:2709   */\n      sub\n        /* \"#utility.yul\":2682:2714   */\n      slt\n        /* \"#utility.yul\":2679:2731   */\n      iszero\n      tag_200\n      jumpi\n        /* \"#utility.yul\":2727:2728   */\n      0x00\n        /* \"#utility.yul\":2724:2725   */\n      dup1\n        /* \"#utility.yul\":2717:2729   */\n      revert\n        /* \"#utility.yul\":2679:2731   */\n    tag_200:\n        /* \"#utility.yul\":2767:2776   */\n      dup4\n        /* \"#utility.yul\":2754:2777   */\n      calldataload\n        /* \"#utility.yul\":2796:2814   */\n      0xffffffffffffffff\n        /* \"#utility.yul\":2837:2839   */\n      dup1\n        /* \"#utility.yul\":2829:2835   */\n      dup3\n        /* \"#utility.yul\":2826:2840   */\n      gt\n        /* \"#utility.yul\":2823:2857   */\n      iszero\n      tag_201\n      jumpi\n        /* \"#utility.yul\":2853:2854   */\n      0x00\n        /* \"#utility.yul\":2850:2851   */\n      dup1\n        /* \"#utility.yul\":2843:2855   */\n      revert\n        /* \"#utility.yul\":2823:2857   */\n    tag_201:\n        /* \"#utility.yul\":2876:2926   */\n      tag_202\n        /* \"#utility.yul\":2918:2925   */\n      dup8\n        /* \"#utility.yul\":2909:2915   */\n      dup4\n        /* \"#utility.yul\":2898:2907   */\n      dup9\n        /* \"#utility.yul\":2894:2916   */\n      add\n        /* \"#utility.yul\":2876:2926   */\n      tag_167\n      jump\t// in\n    tag_202:\n        /* \"#utility.yul\":2866:2926   */\n      swap5\n      pop\n        /* \"#utility.yul\":2979:2981   */\n      0x20\n        /* \"#utility.yul\":2968:2977   */\n      dup7\n        /* \"#utility.yul\":2964:2982   */\n      add\n        /* \"#utility.yul\":2951:2983   */\n      calldataload\n        /* \"#utility.yul\":2935:2983   */\n      swap2\n      pop\n        /* \"#utility.yul\":3008:3010   */\n      dup1\n        /* \"#utility.yul\":2998:3006   */\n      dup3\n        /* \"#utility.yul\":2995:3011   */\n      gt\n        /* \"#utility.yul\":2992:3028   */\n      iszero\n      tag_203\n      jumpi\n        /* \"#utility.yul\":3024:3025   */\n      0x00\n        /* \"#utility.yul\":3021:3022   */\n      dup1\n        /* \"#utility.yul\":3014:3026   */\n      revert\n        /* \"#utility.yul\":2992:3028   */\n    tag_203:\n      pop\n        /* \"#utility.yul\":3047:3099   */\n      tag_204\n        /* \"#utility.yul\":3091:3098   */\n      dup7\n        /* \"#utility.yul\":3080:3088   */\n      dup3\n        /* \"#utility.yul\":3069:3078   */\n      dup8\n        /* \"#utility.yul\":3065:3089   */\n      add\n        /* \"#utility.yul\":3047:3099   */\n      tag_167\n      jump\t// in\n    tag_204:\n        /* \"#utility.yul\":3037:3099   */\n      swap3\n      pop\n      pop\n        /* \"#utility.yul\":3149:3151   */\n      0x40\n        /* \"#utility.yul\":3134:3152   */\n      dup5\n      add\n        /* \"#utility.yul\":3121:3153   */\n      calldataload\n      sub(shl(0xa0, 0x01), 0x01)\n        /* \"#utility.yul\":3182:3213   */\n      dup2\n      and\n        /* \"#utility.yul\":3172:3214   */\n      dup2\n      eq\n        /* \"#utility.yul\":3162:3232   */\n      tag_205\n      jumpi\n        /* \"#utility.yul\":3228:3229   */\n      0x00\n        /* \"#utility.yul\":3225:3226   */\n      dup1\n        /* \"#utility.yul\":3218:3230   */\n      revert\n        /* \"#utility.yul\":3162:3232   */\n    tag_205:\n        /* \"#utility.yul\":3251:3256   */\n      dup1\n        /* \"#utility.yul\":3241:3256   */\n      swap2\n      pop\n      pop\n        /* \"#utility.yul\":2545:3262   */\n      swap3\n      pop\n      swap3\n      pop\n      swap3\n      jump\t// out\n        /* \"#utility.yul\":3267:3556   */\n    tag_169:\n        /* \"#utility.yul\":3309:3312   */\n      0x00\n        /* \"#utility.yul\":3347:3352   */\n      dup2\n        /* \"#utility.yul\":3341:3353   */\n      mload\n        /* \"#utility.yul\":3374:3380   */\n      dup1\n        /* \"#utility.yul\":3369:3372   */\n      dup5\n        /* \"#utility.yul\":3362:3381   */\n      mstore\n        /* \"#utility.yul\":3430:3436   */\n      dup1\n        /* \"#utility.yul\":3423:3427   */\n      0x20\n        /* \"#utility.yul\":3416:3421   */\n      dup5\n        /* \"#utility.yul\":3412:3428   */\n      add\n        /* \"#utility.yul\":3405:3409   */\n      0x20\n        /* \"#utility.yul\":3400:3403   */\n      dup7\n        /* \"#utility.yul\":3396:3410   */\n      add\n        /* \"#utility.yul\":3390:3437   */\n      mcopy\n        /* \"#utility.yul\":3482:3483   */\n      0x00\n        /* \"#utility.yul\":3475:3479   */\n      0x20\n        /* \"#utility.yul\":3466:3472   */\n      dup3\n        /* \"#utility.yul\":3461:3464   */\n      dup7\n        /* \"#utility.yul\":3457:3473   */\n      add\n        /* \"#utility.yul\":3453:3480   */\n      add\n        /* \"#utility.yul\":3446:3484   */\n      mstore\n        /* \"#utility.yul\":3545:3549   */\n      0x20\n        /* \"#utility.yul\":3538:3540   */\n      0x1f\n        /* \"#utility.yul\":3534:3541   */\n      not\n        /* \"#utility.yul\":3529:3531   */\n      0x1f\n        /* \"#utility.yul\":3521:3527   */\n      dup4\n        /* \"#utility.yul\":3517:3532   */\n      add\n        /* \"#utility.yul\":3513:3542   */\n      and\n        /* \"#utility.yul\":3508:3511   */\n      dup6\n        /* \"#utility.yul\":3504:3543   */\n      add\n        /* \"#utility.yul\":3500:3550   */\n      add\n        /* \"#utility.yul\":3493:3550   */\n      swap2\n      pop\n      pop\n        /* \"#utility.yul\":3267:3556   */\n      swap3\n      swap2\n      pop\n      pop\n      jump\t// out\n        /* \"#utility.yul\":3561:4234   */\n    tag_62:\n        /* \"#utility.yul\":3746:3748   */\n      0x20\n        /* \"#utility.yul\":3735:3744   */\n      dup2\n        /* \"#utility.yul\":3728:3749   */\n      mstore\n        /* \"#utility.yul\":3709:3713   */\n      0x00\n        /* \"#utility.yul\":3784:3790   */\n      dup3\n        /* \"#utility.yul\":3778:3791   */\n      mload\n        /* \"#utility.yul\":3827:3831   */\n      0xa0\n        /* \"#utility.yul\":3822:3824   */\n      0x20\n        /* \"#utility.yul\":3811:3820   */\n      dup5\n        /* \"#utility.yul\":3807:3825   */\n      add\n        /* \"#utility.yul\":3800:3832   */\n      mstore\n        /* \"#utility.yul\":3855:3907   */\n      tag_208\n        /* \"#utility.yul\":3902:3905   */\n      0xc0\n        /* \"#utility.yul\":3891:3900   */\n      dup5\n        /* \"#utility.yul\":3887:3906   */\n      add\n        /* \"#utility.yul\":3873:3885   */\n      dup3\n        /* \"#utility.yul\":3855:3907   */\n      tag_169\n      jump\t// in\n    tag_208:\n        /* \"#utility.yul\":3841:3907   */\n      swap1\n      pop\n        /* \"#utility.yul\":3988:3989   */\n      0x01\n        /* \"#utility.yul\":3984:3985   */\n      dup1\n        /* \"#utility.yul\":3979:3982   */\n      0xa0\n        /* \"#utility.yul\":3975:3986   */\n      shl\n        /* \"#utility.yul\":3971:3990   */\n      sub\n        /* \"#utility.yul\":3965:3967   */\n      0x20\n        /* \"#utility.yul\":3957:3963   */\n      dup6\n        /* \"#utility.yul\":3953:3968   */\n      add\n        /* \"#utility.yul\":3947:3969   */\n      mload\n        /* \"#utility.yul\":3943:3991   */\n      and\n        /* \"#utility.yul\":3938:3940   */\n      0x40\n        /* \"#utility.yul\":3927:3936   */\n      dup5\n        /* \"#utility.yul\":3923:3941   */\n      add\n        /* \"#utility.yul\":3916:3992   */\n      mstore\n        /* \"#utility.yul\":4060:4062   */\n      0x40\n        /* \"#utility.yul\":4052:4058   */\n      dup5\n        /* \"#utility.yul\":4048:4063   */\n      add\n        /* \"#utility.yul\":4042:4064   */\n      mload\n        /* \"#utility.yul\":4035:4065   */\n      iszero\n        /* \"#utility.yul\":4028:4066   */\n      iszero\n        /* \"#utility.yul\":4023:4025   */\n      0x60\n        /* \"#utility.yul\":4012:4021   */\n      dup5\n        /* \"#utility.yul\":4008:4026   */\n      add\n        /* \"#utility.yul\":4001:4067   */\n      mstore\n        /* \"#utility.yul\":4122:4124   */\n      0x60\n        /* \"#utility.yul\":4114:4120   */\n      dup5\n        /* \"#utility.yul\":4110:4125   */\n      add\n        /* \"#utility.yul\":4104:4126   */\n      mload\n        /* \"#utility.yul\":4098:4101   */\n      0x80\n        /* \"#utility.yul\":4087:4096   */\n      dup5\n        /* \"#utility.yul\":4083:4102   */\n      add\n        /* \"#utility.yul\":4076:4127   */\n      mstore\n        /* \"#utility.yul\":4197:4200   */\n      0x80\n        /* \"#utility.yul\":4189:4195   */\n      dup5\n        /* \"#utility.yul\":4185:4201   */\n      add\n        /* \"#utility.yul\":4179:4202   */\n      mload\n        /* \"#utility.yul\":4172:4203   */\n      iszero\n        /* \"#utility.yul\":4165:4204   */\n      iszero\n        /* \"#utility.yul\":4158:4162   */\n      0xa0\n        /* \"#utility.yul\":4147:4156   */\n      dup5\n        /* \"#utility.yul\":4143:4163   */\n      add\n        /* \"#utility.yul\":4136:4205   */\n      mstore\n        /* \"#utility.yul\":4222:4228   */\n      dup1\n        /* \"#utility.yul\":4214:4228   */\n      swap2\n      pop\n      pop\n        /* \"#utility.yul\":3561:4234   */\n      swap3\n      swap2\n      pop\n      pop\n      jump\t// out\n        /* \"#utility.yul\":4239:4542   */\n    tag_67:\n        /* \"#utility.yul\":4370:4373   */\n      0x00\n        /* \"#utility.yul\":4408:4414   */\n      dup3\n        /* \"#utility.yul\":4402:4415   */\n      mload\n        /* \"#utility.yul\":4454:4460   */\n      dup1\n        /* \"#utility.yul\":4447:4451   */\n      0x20\n        /* \"#utility.yul\":4439:4445   */\n      dup6\n        /* \"#utility.yul\":4435:4452   */\n      add\n        /* \"#utility.yul\":4430:4433   */\n      dup5\n        /* \"#utility.yul\":4424:4461   */\n      mcopy\n        /* \"#utility.yul\":4516:4517   */\n      0x00\n        /* \"#utility.yul\":4480:4496   */\n      swap3\n      add\n        /* \"#utility.yul\":4505:4518   */\n      swap2\n      dup3\n      mstore\n      pop\n        /* \"#utility.yul\":4480:4496   */\n      swap2\n        /* \"#utility.yul\":4239:4542   */\n      swap1\n      pop\n      jump\t// out\n        /* \"#utility.yul\":4547:4893   */\n    tag_72:\n        /* \"#utility.yul\":4749:4751   */\n      0x20\n        /* \"#utility.yul\":4731:4752   */\n      dup1\n      dup3\n      mstore\n        /* \"#utility.yul\":4788:4790   */\n      0x16\n        /* \"#utility.yul\":4768:4786   */\n      swap1\n      dup3\n      add\n        /* \"#utility.yul\":4761:4791   */\n      mstore\n      shl(0x52, 0x1058d8dbdd5b9d081b9bdd081c9959da5cdd195c9959)\n        /* \"#utility.yul\":4822:4824   */\n      0x40\n        /* \"#utility.yul\":4807:4825   */\n      dup3\n      add\n        /* \"#utility.yul\":4800:4852   */\n      mstore\n        /* \"#utility.yul\":4884:4886   */\n      0x60\n        /* \"#utility.yul\":4869:4887   */\n      add\n      swap1\n        /* \"#utility.yul\":4547:4893   */\n      jump\t// out\n        /* \"#utility.yul\":5246:5626   */\n    tag_133:\n        /* \"#utility.yul\":5325:5326   */\n      0x01\n        /* \"#utility.yul\":5321:5333   */\n      dup2\n      dup2\n      shr\n      swap1\n        /* \"#utility.yul\":5368:5380   */\n      dup3\n      and\n      dup1\n        /* \"#utility.yul\":5389:5450   */\n      tag_213\n      jumpi\n        /* \"#utility.yul\":5443:5447   */\n      0x7f\n        /* \"#utility.yul\":5435:5441   */\n      dup3\n        /* \"#utility.yul\":5431:5448   */\n      and\n        /* \"#utility.yul\":5421:5448   */\n      swap2\n      pop\n        /* \"#utility.yul\":5389:5450   */\n    tag_213:\n        /* \"#utility.yul\":5496:5498   */\n      0x20\n        /* \"#utility.yul\":5488:5494   */\n      dup3\n        /* \"#utility.yul\":5485:5499   */\n      lt\n        /* \"#utility.yul\":5465:5483   */\n      dup2\n        /* \"#utility.yul\":5462:5500   */\n      sub\n        /* \"#utility.yul\":5459:5620   */\n      tag_77\n      jumpi\n        /* \"#utility.yul\":5542:5552   */\n      0x4e487b71\n        /* \"#utility.yul\":5537:5540   */\n      0xe0\n        /* \"#utility.yul\":5533:5553   */\n      shl\n        /* \"#utility.yul\":5530:5531   */\n      0x00\n        /* \"#utility.yul\":5523:5554   */\n      mstore\n        /* \"#utility.yul\":5577:5581   */\n      0x22\n        /* \"#utility.yul\":5574:5575   */\n      0x04\n        /* \"#utility.yul\":5567:5582   */\n      mstore\n        /* \"#utility.yul\":5605:5609   */\n      0x24\n        /* \"#utility.yul\":5602:5603   */\n      0x00\n        /* \"#utility.yul\":5595:5610   */\n      revert\n        /* \"#utility.yul\":5757:6600   */\n    tag_84:\n        /* \"#utility.yul\":5885:5888   */\n      0x00\n        /* \"#utility.yul\":5914:5915   */\n      dup1\n        /* \"#utility.yul\":5947:5953   */\n      dup4\n        /* \"#utility.yul\":5941:5954   */\n      sload\n        /* \"#utility.yul\":5977:6013   */\n      tag_217\n        /* \"#utility.yul\":6003:6012   */\n      dup2\n        /* \"#utility.yul\":5977:6013   */\n      tag_133\n      jump\t// in\n    tag_217:\n        /* \"#utility.yul\":6032:6033   */\n      0x01\n        /* \"#utility.yul\":6049:6066   */\n      dup3\n      dup2\n      and\n        /* \"#utility.yul\":6075:6208   */\n      dup1\n      iszero\n      tag_219\n      jumpi\n        /* \"#utility.yul\":6222:6223   */\n      0x01\n        /* \"#utility.yul\":6217:6575   */\n      dup2\n      eq\n      tag_220\n      jumpi\n        /* \"#utility.yul\":6042:6575   */\n      jump(tag_218)\n        /* \"#utility.yul\":6075:6208   */\n    tag_219:\n      not(0xff)\n        /* \"#utility.yul\":6108:6132   */\n      dup5\n      and\n        /* \"#utility.yul\":6096:6133   */\n      dup8\n      mstore\n        /* \"#utility.yul\":6181:6195   */\n      dup3\n      iszero\n        /* \"#utility.yul\":6174:6196   */\n      iszero\n        /* \"#utility.yul\":6162:6197   */\n      dup4\n      mul\n        /* \"#utility.yul\":6153:6198   */\n      dup8\n      add\n      swap5\n      pop\n        /* \"#utility.yul\":6075:6208   */\n      jump(tag_218)\n        /* \"#utility.yul\":6217:6575   */\n    tag_220:\n        /* \"#utility.yul\":6248:6254   */\n      dup8\n        /* \"#utility.yul\":6245:6246   */\n      0x00\n        /* \"#utility.yul\":6238:6255   */\n      mstore\n        /* \"#utility.yul\":6278:6282   */\n      0x20\n        /* \"#utility.yul\":6323:6327   */\n      dup1\n        /* \"#utility.yul\":6320:6321   */\n      0x00\n        /* \"#utility.yul\":6310:6328   */\n      keccak256\n        /* \"#utility.yul\":6350:6351   */\n      0x00\n        /* \"#utility.yul\":6364:6529   */\n    tag_221:\n        /* \"#utility.yul\":6378:6384   */\n      dup6\n        /* \"#utility.yul\":6375:6376   */\n      dup2\n        /* \"#utility.yul\":6372:6385   */\n      lt\n        /* \"#utility.yul\":6364:6529   */\n      iszero\n      tag_223\n      jumpi\n        /* \"#utility.yul\":6456:6470   */\n      dup2\n      sload\n        /* \"#utility.yul\":6443:6454   */\n      dup11\n      dup3\n      add\n        /* \"#utility.yul\":6436:6471   */\n      mstore\n        /* \"#utility.yul\":6499:6515   */\n      swap1\n      dup5\n      add\n      swap1\n        /* \"#utility.yul\":6393:6403   */\n      dup3\n      add\n        /* \"#utility.yul\":6364:6529   */\n      jump(tag_221)\n    tag_223:\n        /* \"#utility.yul\":6368:6371   */\n      pop\n      pop\n      pop\n        /* \"#utility.yul\":6558:6564   */\n      dup3\n        /* \"#utility.yul\":6553:6556   */\n      dup8\n        /* \"#utility.yul\":6549:6565   */\n      add\n        /* \"#utility.yul\":6542:6565   */\n      swap5\n      pop\n        /* \"#utility.yul\":6042:6575   */\n    tag_218:\n      pop\n        /* \"#utility.yul\":6591:6594   */\n      swap3\n      swap7\n        /* \"#utility.yul\":5757:6600   */\n      swap6\n      pop\n      pop\n      pop\n      pop\n      pop\n      pop\n      jump\t// out\n        /* \"#utility.yul\":6813:7058   */\n    tag_96:\n        /* \"#utility.yul\":6880:6886   */\n      0x00\n        /* \"#utility.yul\":6933:6935   */\n      0x20\n        /* \"#utility.yul\":6921:6930   */\n      dup3\n        /* \"#utility.yul\":6912:6919   */\n      dup5\n        /* \"#utility.yul\":6908:6931   */\n      sub\n        /* \"#utility.yul\":6904:6936   */\n      slt\n        /* \"#utility.yul\":6901:6953   */\n      iszero\n      tag_226\n      jumpi\n        /* \"#utility.yul\":6949:6950   */\n      0x00\n        /* \"#utility.yul\":6946:6947   */\n      dup1\n        /* \"#utility.yul\":6939:6951   */\n      revert\n        /* \"#utility.yul\":6901:6953   */\n    tag_226:\n        /* \"#utility.yul\":6981:6990   */\n      dup2\n        /* \"#utility.yul\":6975:6991   */\n      mload\n        /* \"#utility.yul\":7000:7028   */\n      tag_227\n        /* \"#utility.yul\":7022:7027   */\n      dup2\n        /* \"#utility.yul\":7000:7028   */\n      tag_168\n      jump\t// in\n    tag_227:\n        /* \"#utility.yul\":7047:7052   */\n      swap4\n        /* \"#utility.yul\":6813:7058   */\n      swap3\n      pop\n      pop\n      pop\n      jump\t// out\n        /* \"#utility.yul\":7063:7469   */\n    tag_99:\n        /* \"#utility.yul\":7265:7267   */\n      0x20\n        /* \"#utility.yul\":7247:7268   */\n      dup1\n      dup3\n      mstore\n        /* \"#utility.yul\":7304:7306   */\n      0x2a\n        /* \"#utility.yul\":7284:7302   */\n      swap1\n      dup3\n      add\n        /* \"#utility.yul\":7277:7307   */\n      mstore\n        /* \"#utility.yul\":7343:7377   */\n      0x43616c6c6572206973206e6f7420616e2061646d696e206f72206261636b656e\n        /* \"#utility.yul\":7338:7340   */\n      0x40\n        /* \"#utility.yul\":7323:7341   */\n      dup3\n      add\n        /* \"#utility.yul\":7316:7378   */\n      mstore\n      shl(0xb1, 0x321030b2323932b9b997)\n        /* \"#utility.yul\":7409:7411   */\n      0x60\n        /* \"#utility.yul\":7394:7412   */\n      dup3\n      add\n        /* \"#utility.yul\":7387:7427   */\n      mstore\n        /* \"#utility.yul\":7459:7462   */\n      0x80\n        /* \"#utility.yul\":7444:7463   */\n      add\n      swap1\n        /* \"#utility.yul\":7063:7469   */\n      jump\t// out\n        /* \"#utility.yul\":7829:8347   */\n    tag_171:\n        /* \"#utility.yul\":7931:7933   */\n      0x1f\n        /* \"#utility.yul\":7926:7929   */\n      dup3\n        /* \"#utility.yul\":7923:7934   */\n      gt\n        /* \"#utility.yul\":7920:8341   */\n      iszero\n      tag_231\n      jumpi\n        /* \"#utility.yul\":7967:7972   */\n      dup1\n        /* \"#utility.yul\":7964:7965   */\n      0x00\n        /* \"#utility.yul\":7957:7973   */\n      mstore\n        /* \"#utility.yul\":8011:8015   */\n      0x20\n        /* \"#utility.yul\":8008:8009   */\n      0x00\n        /* \"#utility.yul\":7998:8016   */\n      keccak256\n        /* \"#utility.yul\":8081:8083   */\n      0x1f\n        /* \"#utility.yul\":8069:8079   */\n      dup5\n        /* \"#utility.yul\":8065:8084   */\n      add\n        /* \"#utility.yul\":8062:8063   */\n      0x05\n        /* \"#utility.yul\":8058:8085   */\n      shr\n        /* \"#utility.yul\":8052:8056   */\n      dup2\n        /* \"#utility.yul\":8048:8086   */\n      add\n        /* \"#utility.yul\":8117:8121   */\n      0x20\n        /* \"#utility.yul\":8105:8115   */\n      dup6\n        /* \"#utility.yul\":8102:8122   */\n      lt\n        /* \"#utility.yul\":8099:8146   */\n      iszero\n      tag_232\n      jumpi\n      pop\n        /* \"#utility.yul\":8140:8144   */\n      dup1\n        /* \"#utility.yul\":8099:8146   */\n    tag_232:\n        /* \"#utility.yul\":8195:8197   */\n      0x1f\n        /* \"#utility.yul\":8190:8193   */\n      dup5\n        /* \"#utility.yul\":8186:8198   */\n      add\n        /* \"#utility.yul\":8183:8184   */\n      0x05\n        /* \"#utility.yul\":8179:8199   */\n      shr\n        /* \"#utility.yul\":8173:8177   */\n      dup3\n        /* \"#utility.yul\":8169:8200   */\n      add\n        /* \"#utility.yul\":8159:8200   */\n      swap2\n      pop\n        /* \"#utility.yul\":8250:8331   */\n    tag_233:\n        /* \"#utility.yul\":8268:8270   */\n      dup2\n        /* \"#utility.yul\":8261:8266   */\n      dup2\n        /* \"#utility.yul\":8258:8271   */\n      lt\n        /* \"#utility.yul\":8250:8331   */\n      iszero\n      tag_235\n      jumpi\n        /* \"#utility.yul\":8327:8328   */\n      0x00\n        /* \"#utility.yul\":8313:8329   */\n      dup2\n      sstore\n        /* \"#utility.yul\":8294:8295   */\n      0x01\n        /* \"#utility.yul\":8283:8296   */\n      add\n        /* \"#utility.yul\":8250:8331   */\n      jump(tag_233)\n    tag_235:\n        /* \"#utility.yul\":8254:8257   */\n      pop\n      pop\n        /* \"#utility.yul\":7920:8341   */\n    tag_231:\n        /* \"#utility.yul\":7829:8347   */\n      pop\n      pop\n      pop\n      jump\t// out\n        /* \"#utility.yul\":8523:9868   */\n    tag_124:\n        /* \"#utility.yul\":8649:8652   */\n      dup2\n        /* \"#utility.yul\":8643:8653   */\n      mload\n        /* \"#utility.yul\":8676:8694   */\n      0xffffffffffffffff\n        /* \"#utility.yul\":8668:8674   */\n      dup2\n        /* \"#utility.yul\":8665:8695   */\n      gt\n        /* \"#utility.yul\":8662:8718   */\n      iszero\n      tag_239\n      jumpi\n        /* \"#utility.yul\":8698:8716   */\n      tag_239\n      tag_141\n      jump\t// in\n    tag_239:\n        /* \"#utility.yul\":8727:8824   */\n      tag_240\n        /* \"#utility.yul\":8817:8823   */\n      dup2\n        /* \"#utility.yul\":8777:8815   */\n      tag_241\n        /* \"#utility.yul\":8809:8813   */\n      dup5\n        /* \"#utility.yul\":8803:8814   */\n      sload\n        /* \"#utility.yul\":8777:8815   */\n      tag_133\n      jump\t// in\n    tag_241:\n        /* \"#utility.yul\":8771:8775   */\n      dup5\n        /* \"#utility.yul\":8727:8824   */\n      tag_171\n      jump\t// in\n    tag_240:\n        /* \"#utility.yul\":8879:8883   */\n      0x20\n      dup1\n        /* \"#utility.yul\":8936:8938   */\n      0x1f\n        /* \"#utility.yul\":8925:8939   */\n      dup4\n      gt\n        /* \"#utility.yul\":8953:8954   */\n      0x01\n        /* \"#utility.yul\":8948:9611   */\n      dup2\n      eq\n      tag_243\n      jumpi\n        /* \"#utility.yul\":9655:9656   */\n      0x00\n        /* \"#utility.yul\":9672:9678   */\n      dup5\n        /* \"#utility.yul\":9669:9758   */\n      iszero\n      tag_244\n      jumpi\n      pop\n        /* \"#utility.yul\":9724:9743   */\n      dup6\n      dup4\n      add\n        /* \"#utility.yul\":9718:9744   */\n      mload\n        /* \"#utility.yul\":9669:9758   */\n    tag_244:\n      not(0x00)\n        /* \"#utility.yul\":8480:8481   */\n      0x03\n        /* \"#utility.yul\":8476:8487   */\n      dup7\n      swap1\n      shl\n        /* \"#utility.yul\":8472:8496   */\n      shr\n        /* \"#utility.yul\":8468:8497   */\n      not\n        /* \"#utility.yul\":8458:8498   */\n      and\n        /* \"#utility.yul\":8504:8505   */\n      0x01\n        /* \"#utility.yul\":8500:8511   */\n      dup6\n      swap1\n      shl\n        /* \"#utility.yul\":8455:8512   */\n      or\n        /* \"#utility.yul\":9771:9852   */\n      dup6\n      sstore\n        /* \"#utility.yul\":8918:9862   */\n      jump(tag_242)\n        /* \"#utility.yul\":8948:9611   */\n    tag_243:\n        /* \"#utility.yul\":5704:5705   */\n      0x00\n        /* \"#utility.yul\":5697:5711   */\n      dup6\n      dup2\n      mstore\n        /* \"#utility.yul\":5741:5745   */\n      0x20\n        /* \"#utility.yul\":5728:5746   */\n      dup2\n      keccak256\n      not(0x1f)\n        /* \"#utility.yul\":8984:9004   */\n      dup7\n      and\n      swap2\n        /* \"#utility.yul\":9102:9338   */\n    tag_247:\n        /* \"#utility.yul\":9116:9123   */\n      dup3\n        /* \"#utility.yul\":9113:9114   */\n      dup2\n        /* \"#utility.yul\":9110:9124   */\n      lt\n        /* \"#utility.yul\":9102:9338   */\n      iszero\n      tag_249\n      jumpi\n        /* \"#utility.yul\":9205:9224   */\n      dup9\n      dup7\n      add\n        /* \"#utility.yul\":9199:9225   */\n      mload\n        /* \"#utility.yul\":9184:9226   */\n      dup3\n      sstore\n        /* \"#utility.yul\":9297:9324   */\n      swap5\n      dup5\n      add\n      swap5\n        /* \"#utility.yul\":9265:9266   */\n      0x01\n        /* \"#utility.yul\":9253:9267   */\n      swap1\n      swap2\n      add\n      swap1\n        /* \"#utility.yul\":9132:9151   */\n      dup5\n      add\n        /* \"#utility.yul\":9102:9338   */\n      jump(tag_247)\n    tag_249:\n        /* \"#utility.yul\":9106:9109   */\n      pop\n        /* \"#utility.yul\":9366:9372   */\n      dup6\n        /* \"#utility.yul\":9357:9364   */\n      dup3\n        /* \"#utility.yul\":9354:9373   */\n      lt\n        /* \"#utility.yul\":9351:9552   */\n      iszero\n      tag_250\n      jumpi\n        /* \"#utility.yul\":9427:9446   */\n      dup8\n      dup6\n      add\n        /* \"#utility.yul\":9421:9447   */\n      mload\n      not(0x00)\n        /* \"#utility.yul\":9510:9511   */\n      0x03\n        /* \"#utility.yul\":9506:9520   */\n      dup9\n      swap1\n      shl\n        /* \"#utility.yul\":9522:9525   */\n      0xf8\n        /* \"#utility.yul\":9502:9526   */\n      and\n        /* \"#utility.yul\":9498:9535   */\n      shr\n        /* \"#utility.yul\":9494:9536   */\n      not\n        /* \"#utility.yul\":9479:9537   */\n      and\n        /* \"#utility.yul\":9464:9538   */\n      dup2\n      sstore\n        /* \"#utility.yul\":9351:9552   */\n    tag_250:\n      pop\n      pop\n        /* \"#utility.yul\":9598:9599   */\n      0x01\n        /* \"#utility.yul\":9589:9595   */\n      dup5\n        /* \"#utility.yul\":9586:9587   */\n      0x01\n        /* \"#utility.yul\":9582:9596   */\n      shl\n        /* \"#utility.yul\":9578:9600   */\n      add\n        /* \"#utility.yul\":9572:9576   */\n      dup6\n        /* \"#utility.yul\":9565:9601   */\n      sstore\n        /* \"#utility.yul\":8918:9862   */\n    tag_242:\n      pop\n      pop\n      pop\n      pop\n        /* \"#utility.yul\":8523:9868   */\n      pop\n      pop\n      jump\t// out\n        /* \"#utility.yul\":9873:10190   */\n    tag_127:\n        /* \"#utility.yul\":10050:10052   */\n      0x40\n        /* \"#utility.yul\":10039:10048   */\n      dup2\n        /* \"#utility.yul\":10032:10053   */\n      mstore\n        /* \"#utility.yul\":10013:10017   */\n      0x00\n        /* \"#utility.yul\":10070:10115   */\n      tag_252\n        /* \"#utility.yul\":10111:10113   */\n      0x40\n        /* \"#utility.yul\":10100:10109   */\n      dup4\n        /* \"#utility.yul\":10096:10114   */\n      add\n        /* \"#utility.yul\":10088:10094   */\n      dup6\n        /* \"#utility.yul\":10070:10115   */\n      tag_169\n      jump\t// in\n    tag_252:\n        /* \"#utility.yul\":10062:10115   */\n      swap1\n      pop\n        /* \"#utility.yul\":10180:10181   */\n      0x01\n        /* \"#utility.yul\":10176:10177   */\n      dup1\n        /* \"#utility.yul\":10171:10174   */\n      0xa0\n        /* \"#utility.yul\":10167:10178   */\n      shl\n        /* \"#utility.yul\":10163:10182   */\n      sub\n        /* \"#utility.yul\":10155:10161   */\n      dup4\n        /* \"#utility.yul\":10151:10183   */\n      and\n        /* \"#utility.yul\":10146:10148   */\n      0x20\n        /* \"#utility.yul\":10135:10144   */\n      dup4\n        /* \"#utility.yul\":10131:10149   */\n      add\n        /* \"#utility.yul\":10124:10184   */\n      mstore\n        /* \"#utility.yul\":9873:10190   */\n      swap4\n      swap3\n      pop\n      pop\n      pop\n      jump\t// out\n        /* \"#utility.yul\":10195:10322   */\n    tag_148:\n        /* \"#utility.yul\":10256:10266   */\n      0x4e487b71\n        /* \"#utility.yul\":10251:10254   */\n      0xe0\n        /* \"#utility.yul\":10247:10267   */\n      shl\n        /* \"#utility.yul\":10244:10245   */\n      0x00\n        /* \"#utility.yul\":10237:10268   */\n      mstore\n        /* \"#utility.yul\":10287:10291   */\n      0x32\n        /* \"#utility.yul\":10284:10285   */\n      0x04\n        /* \"#utility.yul\":10277:10292   */\n      mstore\n        /* \"#utility.yul\":10311:10315   */\n      0x24\n        /* \"#utility.yul\":10308:10309   */\n      0x00\n        /* \"#utility.yul\":10301:10316   */\n      revert\n        /* \"#utility.yul\":10327:10572   */\n    tag_156:\n        /* \"#utility.yul\":10415:10419   */\n      0xff\n        /* \"#utility.yul\":10394:10406   */\n      dup2\n      dup2\n      and\n        /* \"#utility.yul\":10408:10420   */\n      dup4\n      dup3\n      and\n        /* \"#utility.yul\":10390:10421   */\n      add\n      swap1\n        /* \"#utility.yul\":10433:10446   */\n      dup2\n      gt\n        /* \"#utility.yul\":10430:10566   */\n      iszero\n      tag_78\n      jumpi\n        /* \"#utility.yul\":10488:10498   */\n      0x4e487b71\n        /* \"#utility.yul\":10483:10486   */\n      0xe0\n        /* \"#utility.yul\":10479:10499   */\n      shl\n        /* \"#utility.yul\":10476:10477   */\n      0x00\n        /* \"#utility.yul\":10469:10500   */\n      mstore\n        /* \"#utility.yul\":10523:10527   */\n      0x11\n        /* \"#utility.yul\":10520:10521   */\n      0x04\n        /* \"#utility.yul\":10513:10528   */\n      mstore\n        /* \"#utility.yul\":10551:10555   */\n      0x24\n        /* \"#utility.yul\":10548:10549   */\n      0x00\n        /* \"#utility.yul\":10541:10556   */\n      revert\n\n    auxdata: 0xa26469706673582212206b2b263ceb741ad6a1a7f43f9a412ba889f61247c5b1687124abf5d05f7efef864736f6c63430008190033\n}\n",
				"bytecode": {
					"linkReferences": {},
					"object": "6080604052348015600e575f80fd5b5060405161108e38038061108e833981016040819052602b91604e565b5f80546001600160a01b0319166001600160a01b03929092169190911790556079565b5f60208284031215605d575f80fd5b81516001600160a01b03811681146072575f80fd5b9392505050565b611008806100865f395ff3fe608060405234801561000f575f80fd5b50600436106100b1575f3560e01c8063c822d7f01161006e578063c822d7f014610188578063cb3e1fe71461019b578063cd367584146101c2578063e7705db6146101d5578063ea46f8e3146101fc578063f3f9f2671461020f575f80fd5b806320884f70146100b5578063518ab27b146100ca57806375b238fc146100f257806376082a5e1461012757806392c2becc1461014e578063a8b0773514610175575b5f80fd5b6100c86100c3366004610b2c565b61022f565b005b6100dd6100d8366004610b2c565b61025e565b60405190151581526020015b60405180910390f35b6101197fa49807205ce4d355092ef5a8a18f56e8913cf4a201fbe287825b095693c2177581565b6040519081526020016100e9565b6101197fb165298935924f540e4181c03493a5d686c54a0aaeb3f6216de85b7ffbba773881565b6101197f25cf2b509f2a7f322675b2a5322b182f44ad2c03ac941a0af17c9b178f5d5d5f81565b6100dd610183366004610b66565b610327565b6100dd610196366004610b2c565b6103a3565b6101197f8eb467f061ca67f42a2d2ca4a346fc9fb645efc0ba75056ee9f71c3a0ccc10a881565b6100c86101d0366004610bb8565b6103e7565b6101197f0ce23c3e399818cfee81a7ab0880f714e53d7672b08df0fa62f2843416e1ea0981565b6100c861020a366004610c07565b610539565b61022261021d366004610b2c565b610758565b6040516100e99190610cb3565b42600161023b8361087f565b6040516102489190610d0e565b9081526040519081900360200190206002015550565b5f816001816040516102709190610d0e565b9081526040519081900360200190206003015460ff166102ab5760405162461bcd60e51b81526004016102a290610d24565b60405180910390fd5b6001816040516102bb9190610d0e565b9081526040519081900360200190206001015460ff600160a01b909104161561031c5760405162461bcd60e51b81526020600482015260136024820152721058d8dbdd5b9d08189b1858dadb1a5cdd1959606a1b60448201526064016102a2565b600191505b50919050565b5f610331826109d3565b6040516020016103419190610d0e565b604051602081830303815290604052805190602001206001846040516103679190610d0e565b9081526040516020918190038201812061038392909101610d86565b604051602081830303815290604052805190602001201490505b92915050565b5f816001816040516103b59190610d0e565b9081526040519081900360200190206003015460ff1661031c5760405162461bcd60e51b81526004016102a290610d24565b5f546040516349e89cc760e11b81523360048201526001600160a01b03909116906393d1398e90602401602060405180830381865afa15801561042c573d5f803e3d5ffd5b505050506040513d601f19601f820116820180604052508101906104509190610df8565b61046c5760405162461bcd60e51b81526004016102a290610e1a565b8160018160405161047d9190610d0e565b9081526040519081900360200190206003015460ff166104af5760405162461bcd60e51b81526004016102a290610d24565b816001846040516104c09190610d0e565b9081526040519081900360200181206001018054921515600160a01b0260ff60a01b19909316929092179091556104f8908490610d0e565b6040519081900381208315158252907f62bfd135dde7dcb1853c9e9e971372460194c791876483c80577bf3028691e489060200160405180910390a2505050565b5f546040516349e89cc760e11b81523360048201526001600160a01b03909116906393d1398e90602401602060405180830381865afa15801561057e573d5f803e3d5ffd5b505050506040513d601f19601f820116820180604052508101906105a29190610df8565b6105be5760405162461bcd60e51b81526004016102a290610e1a565b5f6105c88461087f565b90505f6105d48461087f565b90506001826040516105e69190610d0e565b9081526040519081900360200190206003015460ff16156106495760405162461bcd60e51b815260206004820152601a60248201527f4163636f756e7420616c7265616479207265676973746572656400000000000060448201526064016102a2565b6040805160a0810182528281526001600160a01b03851660208201525f818301524260608201526001608082018190529151909190610689908590610d0e565b908152604051908190036020019020815181906106a69082610eb0565b5060208201516001820180546040808601511515600160a01b026001600160a81b03199092166001600160a01b0390941693909317179055606083015160028301556080909201516003909101805491151560ff1990921691909117905551610710908390610d0e565b60405180910390207f15fe06bcd718db76e0542b653589a63f11b9a7e090d89e436200f6faec8a0c108285604051610749929190610f70565b60405180910390a25050505050565b6040805160a08101825260608082525f6020830181905282840181905290820181905260808201529051600190610790908490610d0e565b90815260200160405180910390206040518060a00160405290815f820180546107b890610d54565b80601f01602080910402602001604051908101604052809291908181526020018280546107e490610d54565b801561082f5780601f106108065761010080835404028352916020019161082f565b820191905f5260205f20905b81548152906001019060200180831161081257829003601f168201915b505050918352505060018201546001600160a01b038116602083015260ff600160a01b90910481161515604083015260028301546060830152600390920154909116151560809091015292915050565b60605f8290505f815167ffffffffffffffff8111156108a0576108a0610a8f565b6040519080825280601f01601f1916602001820160405280156108ca576020820181803683370190505b5090505f5b82518110156109cb5760418382815181106108ec576108ec610f99565b016020015160f81c1080159061091c5750605a83828151811061091157610911610f99565b016020015160f81c11155b1561097d5782818151811061093357610933610f99565b602001015160f81c60f81b60f81c602061094d9190610fad565b60f81b82828151811061096257610962610f99565b60200101906001600160f81b03191690815f1a9053506109c3565b82818151811061098f5761098f610f99565b602001015160f81c60f81b8282815181106109ac576109ac610f99565b60200101906001600160f81b03191690815f1a9053505b6001016108cf565b509392505050565b60607f8eb467f061ca67f42a2d2ca4a346fc9fb645efc0ba75056ee9f71c3a0ccc10a88203610a20575050604080518082019091526008815267383937b23ab1b2b960c11b602082015290565b7f0ce23c3e399818cfee81a7ab0880f714e53d7672b08df0fa62f2843416e1ea098203610a6b5750506040805180820190915260088152673b32b934b334b2b960c11b602082015290565b505060408051808201909152600881526734b73b32b9ba37b960c11b602082015290565b634e487b7160e01b5f52604160045260245ffd5b5f82601f830112610ab2575f80fd5b813567ffffffffffffffff80821115610acd57610acd610a8f565b604051601f8301601f19908116603f01168101908282118183101715610af557610af5610a8f565b81604052838152866020858801011115610b0d575f80fd5b836020870160208301375f602085830101528094505050505092915050565b5f60208284031215610b3c575f80fd5b813567ffffffffffffffff811115610b52575f80fd5b610b5e84828501610aa3565b949350505050565b5f8060408385031215610b77575f80fd5b823567ffffffffffffffff811115610b8d575f80fd5b610b9985828601610aa3565b95602094909401359450505050565b8015158114610bb5575f80fd5b50565b5f8060408385031215610bc9575f80fd5b823567ffffffffffffffff811115610bdf575f80fd5b610beb85828601610aa3565b9250506020830135610bfc81610ba8565b809150509250929050565b5f805f60608486031215610c19575f80fd5b833567ffffffffffffffff80821115610c30575f80fd5b610c3c87838801610aa3565b94506020860135915080821115610c51575f80fd5b50610c5e86828701610aa3565b92505060408401356001600160a01b0381168114610c7a575f80fd5b809150509250925092565b5f81518084528060208401602086015e5f602082860101526020601f19601f83011685010191505092915050565b602081525f825160a06020840152610cce60c0840182610c85565b905060018060a01b036020850151166040840152604084015115156060840152606084015160808401526080840151151560a08401528091505092915050565b5f82518060208501845e5f920191825250919050565b6020808252601690820152751058d8dbdd5b9d081b9bdd081c9959da5cdd195c995960521b604082015260600190565b600181811c90821680610d6857607f821691505b60208210810361032157634e487b7160e01b5f52602260045260245ffd5b5f808354610d9381610d54565b60018281168015610dab5760018114610dc057610dec565b60ff1984168752821515830287019450610dec565b875f526020805f205f5b85811015610de35781548a820152908401908201610dca565b50505082870194505b50929695505050505050565b5f60208284031215610e08575f80fd5b8151610e1381610ba8565b9392505050565b6020808252602a908201527f43616c6c6572206973206e6f7420616e2061646d696e206f72206261636b656e604082015269321030b2323932b9b99760b11b606082015260800190565b601f821115610eab57805f5260205f20601f840160051c81016020851015610e895750805b601f840160051c820191505b81811015610ea8575f8155600101610e95565b50505b505050565b815167ffffffffffffffff811115610eca57610eca610a8f565b610ede81610ed88454610d54565b84610e64565b602080601f831160018114610f11575f8415610efa5750858301515b5f19600386901b1c1916600185901b178555610f68565b5f85815260208120601f198616915b82811015610f3f57888601518255948401946001909101908401610f20565b5085821015610f5c57878501515f19600388901b60f8161c191681555b505060018460011b0185555b505050505050565b604081525f610f826040830185610c85565b905060018060a01b03831660208301529392505050565b634e487b7160e01b5f52603260045260245ffd5b60ff818116838216019081111561039d57634e487b7160e01b5f52601160045260245ffdfea26469706673582212206b2b263ceb741ad6a1a7f43f9a412ba889f61247c5b1687124abf5d05f7efef864736f6c63430008190033",
					"opcodes": "PUSH1 0x80 PUSH1 0x40 MSTORE CALLVALUE DUP1 ISZERO PUSH1 0xE JUMPI PUSH0 DUP1 REVERT JUMPDEST POP PUSH1 0x40 MLOAD PUSH2 0x108E CODESIZE SUB DUP1 PUSH2 0x108E DUP4 CODECOPY DUP2 ADD PUSH1 0x40 DUP2 SWAP1 MSTORE PUSH1 0x2B SWAP2 PUSH1 0x4E JUMP JUMPDEST PUSH0 DUP1 SLOAD PUSH1 0x1 PUSH1 0x1 PUSH1 0xA0 SHL SUB NOT AND PUSH1 0x1 PUSH1 0x1 PUSH1 0xA0 SHL SUB SWAP3 SWAP1 SWAP3 AND SWAP2 SWAP1 SWAP2 OR SWAP1 SSTORE PUSH1 0x79 JUMP JUMPDEST PUSH0 PUSH1 0x20 DUP3 DUP5 SUB SLT ISZERO PUSH1 0x5D JUMPI PUSH0 DUP1 REVERT JUMPDEST DUP2 MLOAD PUSH1 0x1 PUSH1 0x1 PUSH1 0xA0 SHL SUB DUP2 AND DUP2 EQ PUSH1 0x72 JUMPI PUSH0 DUP1 REVERT JUMPDEST SWAP4 SWAP3 POP POP POP JUMP JUMPDEST PUSH2 0x1008 DUP1 PUSH2 0x86 PUSH0 CODECOPY PUSH0 RETURN INVALID PUSH1 0x80 PUSH1 0x40 MSTORE CALLVALUE DUP1 ISZERO PUSH2 0xF JUMPI PUSH0 DUP1 REVERT JUMPDEST POP PUSH1 0x4 CALLDATASIZE LT PUSH2 0xB1 JUMPI PUSH0 CALLDATALOAD PUSH1 0xE0 SHR DUP1 PUSH4 0xC822D7F0 GT PUSH2 0x6E JUMPI DUP1 PUSH4 0xC822D7F0 EQ PUSH2 0x188 JUMPI DUP1 PUSH4 0xCB3E1FE7 EQ PUSH2 0x19B JUMPI DUP1 PUSH4 0xCD367584 EQ PUSH2 0x1C2 JUMPI DUP1 PUSH4 0xE7705DB6 EQ PUSH2 0x1D5 JUMPI DUP1 PUSH4 0xEA46F8E3 EQ PUSH2 0x1FC JUMPI DUP1 PUSH4 0xF3F9F267 EQ PUSH2 0x20F JUMPI PUSH0 DUP1 REVERT JUMPDEST DUP1 PUSH4 0x20884F70 EQ PUSH2 0xB5 JUMPI DUP1 PUSH4 0x518AB27B EQ PUSH2 0xCA JUMPI DUP1 PUSH4 0x75B238FC EQ PUSH2 0xF2 JUMPI DUP1 PUSH4 0x76082A5E EQ PUSH2 0x127 JUMPI DUP1 PUSH4 0x92C2BECC EQ PUSH2 0x14E JUMPI DUP1 PUSH4 0xA8B07735 EQ PUSH2 0x175 JUMPI JUMPDEST PUSH0 DUP1 REVERT JUMPDEST PUSH2 0xC8 PUSH2 0xC3 CALLDATASIZE PUSH1 0x4 PUSH2 0xB2C JUMP JUMPDEST PUSH2 0x22F JUMP JUMPDEST STOP JUMPDEST PUSH2 0xDD PUSH2 0xD8 CALLDATASIZE PUSH1 0x4 PUSH2 0xB2C JUMP JUMPDEST PUSH2 0x25E JUMP JUMPDEST PUSH1 0x40 MLOAD SWAP1 ISZERO ISZERO DUP2 MSTORE PUSH1 0x20 ADD JUMPDEST PUSH1 0x40 MLOAD DUP1 SWAP2 SUB SWAP1 RETURN JUMPDEST PUSH2 0x119 PUSH32 0xA49807205CE4D355092EF5A8A18F56E8913CF4A201FBE287825B095693C21775 DUP2 JUMP JUMPDEST PUSH1 0x40 MLOAD SWAP1 DUP2 MSTORE PUSH1 0x20 ADD PUSH2 0xE9 JUMP JUMPDEST PUSH2 0x119 PUSH32 0xB165298935924F540E4181C03493A5D686C54A0AAEB3F6216DE85B7FFBBA7738 DUP2 JUMP JUMPDEST PUSH2 0x119 PUSH32 0x25CF2B509F2A7F322675B2A5322B182F44AD2C03AC941A0AF17C9B178F5D5D5F DUP2 JUMP JUMPDEST PUSH2 0xDD PUSH2 0x183 CALLDATASIZE PUSH1 0x4 PUSH2 0xB66 JUMP JUMPDEST PUSH2 0x327 JUMP JUMPDEST PUSH2 0xDD PUSH2 0x196 CALLDATASIZE PUSH1 0x4 PUSH2 0xB2C JUMP JUMPDEST PUSH2 0x3A3 JUMP JUMPDEST PUSH2 0x119 PUSH32 0x8EB467F061CA67F42A2D2CA4A346FC9FB645EFC0BA75056EE9F71C3A0CCC10A8 DUP2 JUMP JUMPDEST PUSH2 0xC8 PUSH2 0x1D0 CALLDATASIZE PUSH1 0x4 PUSH2 0xBB8 JUMP JUMPDEST PUSH2 0x3E7 JUMP JUMPDEST PUSH2 0x119 PUSH32 0xCE23C3E399818CFEE81A7AB0880F714E53D7672B08DF0FA62F2843416E1EA09 DUP2 JUMP JUMPDEST PUSH2 0xC8 PUSH2 0x20A CALLDATASIZE PUSH1 0x4 PUSH2 0xC07 JUMP JUMPDEST PUSH2 0x539 JUMP JUMPDEST PUSH2 0x222 PUSH2 0x21D CALLDATASIZE PUSH1 0x4 PUSH2 0xB2C JUMP JUMPDEST PUSH2 0x758 JUMP JUMPDEST PUSH1 0x40 MLOAD PUSH2 0xE9 SWAP2 SWAP1 PUSH2 0xCB3 JUMP JUMPDEST TIMESTAMP PUSH1 0x1 PUSH2 0x23B DUP4 PUSH2 0x87F JUMP JUMPDEST PUSH1 0x40 MLOAD PUSH2 0x248 SWAP2 SWAP1 PUSH2 0xD0E JUMP JUMPDEST SWAP1 DUP2 MSTORE PUSH1 0x40 MLOAD SWAP1 DUP2 SWAP1 SUB PUSH1 0x20 ADD SWAP1 KECCAK256 PUSH1 0x2 ADD SSTORE POP JUMP JUMPDEST PUSH0 DUP2 PUSH1 0x1 DUP2 PUSH1 0x40 MLOAD PUSH2 0x270 SWAP2 SWAP1 PUSH2 0xD0E JUMP JUMPDEST SWAP1 DUP2 MSTORE PUSH1 0x40 MLOAD SWAP1 DUP2 SWAP1 SUB PUSH1 0x20 ADD SWAP1 KECCAK256 PUSH1 0x3 ADD SLOAD PUSH1 0xFF AND PUSH2 0x2AB JUMPI PUSH1 0x40 MLOAD PUSH3 0x461BCD PUSH1 0xE5 SHL DUP2 MSTORE PUSH1 0x4 ADD PUSH2 0x2A2 SWAP1 PUSH2 0xD24 JUMP JUMPDEST PUSH1 0x40 MLOAD DUP1 SWAP2 SUB SWAP1 REVERT JUMPDEST PUSH1 0x1 DUP2 PUSH1 0x40 MLOAD PUSH2 0x2BB SWAP2 SWAP1 PUSH2 0xD0E JUMP JUMPDEST SWAP1 DUP2 MSTORE PUSH1 0x40 MLOAD SWAP1 DUP2 SWAP1 SUB PUSH1 0x20 ADD SWAP1 KECCAK256 PUSH1 0x1 ADD SLOAD PUSH1 0xFF PUSH1 0x1 PUSH1 0xA0 SHL SWAP1 SWAP2 DIV AND ISZERO PUSH2 0x31C JUMPI PUSH1 0x40 MLOAD PUSH3 0x461BCD PUSH1 0xE5 SHL DUP2 MSTORE PUSH1 0x20 PUSH1 0x4 DUP3 ADD MSTORE PUSH1 0x13 PUSH1 0x24 DUP3 ADD MSTORE PUSH19 0x1058D8DBDD5B9D08189B1858DADB1A5CDD1959 PUSH1 0x6A SHL PUSH1 0x44 DUP3 ADD MSTORE PUSH1 0x64 ADD PUSH2 0x2A2 JUMP JUMPDEST PUSH1 0x1 SWAP2 POP JUMPDEST POP SWAP2 SWAP1 POP JUMP JUMPDEST PUSH0 PUSH2 0x331 DUP3 PUSH2 0x9D3 JUMP JUMPDEST PUSH1 0x40 MLOAD PUSH1 0x20 ADD PUSH2 0x341 SWAP2 SWAP1 PUSH2 0xD0E JUMP JUMPDEST PUSH1 0x40 MLOAD PUSH1 0x20 DUP2 DUP4 SUB SUB DUP2 MSTORE SWAP1 PUSH1 0x40 MSTORE DUP1 MLOAD SWAP1 PUSH1 0x20 ADD KECCAK256 PUSH1 0x1 DUP5 PUSH1 0x40 MLOAD PUSH2 0x367 SWAP2 SWAP1 PUSH2 0xD0E JUMP JUMPDEST SWAP1 DUP2 MSTORE PUSH1 0x40 MLOAD PUSH1 0x20 SWAP2 DUP2 SWAP1 SUB DUP3 ADD DUP2 KECCAK256 PUSH2 0x383 SWAP3 SWAP1 SWAP2 ADD PUSH2 0xD86 JUMP JUMPDEST PUSH1 0x40 MLOAD PUSH1 0x20 DUP2 DUP4 SUB SUB DUP2 MSTORE SWAP1 PUSH1 0x40 MSTORE DUP1 MLOAD SWAP1 PUSH1 0x20 ADD KECCAK256 EQ SWAP1 POP JUMPDEST SWAP3 SWAP2 POP POP JUMP JUMPDEST PUSH0 DUP2 PUSH1 0x1 DUP2 PUSH1 0x40 MLOAD PUSH2 0x3B5 SWAP2 SWAP1 PUSH2 0xD0E JUMP JUMPDEST SWAP1 DUP2 MSTORE PUSH1 0x40 MLOAD SWAP1 DUP2 SWAP1 SUB PUSH1 0x20 ADD SWAP1 KECCAK256 PUSH1 0x3 ADD SLOAD PUSH1 0xFF AND PUSH2 0x31C JUMPI PUSH1 0x40 MLOAD PUSH3 0x461BCD PUSH1 0xE5 SHL DUP2 MSTORE PUSH1 0x4 ADD PUSH2 0x2A2 SWAP1 PUSH2 0xD24 JUMP JUMPDEST PUSH0 SLOAD PUSH1 0x40 MLOAD PUSH4 0x49E89CC7 PUSH1 0xE1 SHL DUP2 MSTORE CALLER PUSH1 0x4 DUP3 ADD MSTORE PUSH1 0x1 PUSH1 0x1 PUSH1 0xA0 SHL SUB SWAP1 SWAP2 AND SWAP1 PUSH4 0x93D1398E SWAP1 PUSH1 0x24 ADD PUSH1 0x20 PUSH1 0x40 MLOAD DUP1 DUP4 SUB DUP2 DUP7 GAS STATICCALL ISZERO DUP1 ISZERO PUSH2 0x42C JUMPI RETURNDATASIZE PUSH0 DUP1 RETURNDATACOPY RETURNDATASIZE PUSH0 REVERT JUMPDEST POP POP POP POP PUSH1 0x40 MLOAD RETURNDATASIZE PUSH1 0x1F NOT PUSH1 0x1F DUP3 ADD AND DUP3 ADD DUP1 PUSH1 0x40 MSTORE POP DUP2 ADD SWAP1 PUSH2 0x450 SWAP2 SWAP1 PUSH2 0xDF8 JUMP JUMPDEST PUSH2 0x46C JUMPI PUSH1 0x40 MLOAD PUSH3 0x461BCD PUSH1 0xE5 SHL DUP2 MSTORE PUSH1 0x4 ADD PUSH2 0x2A2 SWAP1 PUSH2 0xE1A JUMP JUMPDEST DUP2 PUSH1 0x1 DUP2 PUSH1 0x40 MLOAD PUSH2 0x47D SWAP2 SWAP1 PUSH2 0xD0E JUMP JUMPDEST SWAP1 DUP2 MSTORE PUSH1 0x40 MLOAD SWAP1 DUP2 SWAP1 SUB PUSH1 0x20 ADD SWAP1 KECCAK256 PUSH1 0x3 ADD SLOAD PUSH1 0xFF AND PUSH2 0x4AF JUMPI PUSH1 0x40 MLOAD PUSH3 0x461BCD PUSH1 0xE5 SHL DUP2 MSTORE PUSH1 0x4 ADD PUSH2 0x2A2 SWAP1 PUSH2 0xD24 JUMP JUMPDEST DUP2 PUSH1 0x1 DUP5 PUSH1 0x40 MLOAD PUSH2 0x4C0 SWAP2 SWAP1 PUSH2 0xD0E JUMP JUMPDEST SWAP1 DUP2 MSTORE PUSH1 0x40 MLOAD SWAP1 DUP2 SWAP1 SUB PUSH1 0x20 ADD DUP2 KECCAK256 PUSH1 0x1 ADD DUP1 SLOAD SWAP3 ISZERO ISZERO PUSH1 0x1 PUSH1 0xA0 SHL MUL PUSH1 0xFF PUSH1 0xA0 SHL NOT SWAP1 SWAP4 AND SWAP3 SWAP1 SWAP3 OR SWAP1 SWAP2 SSTORE PUSH2 0x4F8 SWAP1 DUP5 SWAP1 PUSH2 0xD0E JUMP JUMPDEST PUSH1 0x40 MLOAD SWAP1 DUP2 SWAP1 SUB DUP2 KECCAK256 DUP4 ISZERO ISZERO DUP3 MSTORE SWAP1 PUSH32 0x62BFD135DDE7DCB1853C9E9E971372460194C791876483C80577BF3028691E48 SWAP1 PUSH1 0x20 ADD PUSH1 0x40 MLOAD DUP1 SWAP2 SUB SWAP1 LOG2 POP POP POP JUMP JUMPDEST PUSH0 SLOAD PUSH1 0x40 MLOAD PUSH4 0x49E89CC7 PUSH1 0xE1 SHL DUP2 MSTORE CALLER PUSH1 0x4 DUP3 ADD MSTORE PUSH1 0x1 PUSH1 0x1 PUSH1 0xA0 SHL SUB SWAP1 SWAP2 AND SWAP1 PUSH4 0x93D1398E SWAP1 PUSH1 0x24 ADD PUSH1 0x20 PUSH1 0x40 MLOAD DUP1 DUP4 SUB DUP2 DUP7 GAS STATICCALL ISZERO DUP1 ISZERO PUSH2 0x57E JUMPI RETURNDATASIZE PUSH0 DUP1 RETURNDATACOPY RETURNDATASIZE PUSH0 REVERT JUMPDEST POP POP POP POP PUSH1 0x40 MLOAD RETURNDATASIZE PUSH1 0x1F NOT PUSH1 0x1F DUP3 ADD AND DUP3 ADD DUP1 PUSH1 0x40 MSTORE POP DUP2 ADD SWAP1 PUSH2 0x5A2 SWAP2 SWAP1 PUSH2 0xDF8 JUMP JUMPDEST PUSH2 0x5BE JUMPI PUSH1 0x40 MLOAD PUSH3 0x461BCD PUSH1 0xE5 SHL DUP2 MSTORE PUSH1 0x4 ADD PUSH2 0x2A2 SWAP1 PUSH2 0xE1A JUMP JUMPDEST PUSH0 PUSH2 0x5C8 DUP5 PUSH2 0x87F JUMP JUMPDEST SWAP1 POP PUSH0 PUSH2 0x5D4 DUP5 PUSH2 0x87F JUMP JUMPDEST SWAP1 POP PUSH1 0x1 DUP3 PUSH1 0x40 MLOAD PUSH2 0x5E6 SWAP2 SWAP1 PUSH2 0xD0E JUMP JUMPDEST SWAP1 DUP2 MSTORE PUSH1 0x40 MLOAD SWAP1 DUP2 SWAP1 SUB PUSH1 0x20 ADD SWAP1 KECCAK256 PUSH1 0x3 ADD SLOAD PUSH1 0xFF AND ISZERO PUSH2 0x649 JUMPI PUSH1 0x40 MLOAD PUSH3 0x461BCD PUSH1 0xE5 SHL DUP2 MSTORE PUSH1 0x20 PUSH1 0x4 DUP3 ADD MSTORE PUSH1 0x1A PUSH1 0x24 DUP3 ADD MSTORE PUSH32 0x4163636F756E7420616C72656164792072656769737465726564000000000000 PUSH1 0x44 DUP3 ADD MSTORE PUSH1 0x64 ADD PUSH2 0x2A2 JUMP JUMPDEST PUSH1 0x40 DUP1 MLOAD PUSH1 0xA0 DUP2 ADD DUP3 MSTORE DUP3 DUP2 MSTORE PUSH1 0x1 PUSH1 0x1 PUSH1 0xA0 SHL SUB DUP6 AND PUSH1 0x20 DUP3 ADD MSTORE PUSH0 DUP2 DUP4 ADD MSTORE TIMESTAMP PUSH1 0x60 DUP3 ADD MSTORE PUSH1 0x1 PUSH1 0x80 DUP3 ADD DUP2 SWAP1 MSTORE SWAP2 MLOAD SWAP1 SWAP2 SWAP1 PUSH2 0x689 SWAP1 DUP6 SWAP1 PUSH2 0xD0E JUMP JUMPDEST SWAP1 DUP2 MSTORE PUSH1 0x40 MLOAD SWAP1 DUP2 SWAP1 SUB PUSH1 0x20 ADD SWAP1 KECCAK256 DUP2 MLOAD DUP2 SWAP1 PUSH2 0x6A6 SWAP1 DUP3 PUSH2 0xEB0 JUMP JUMPDEST POP PUSH1 0x20 DUP3 ADD MLOAD PUSH1 0x1 DUP3 ADD DUP1 SLOAD PUSH1 0x40 DUP1 DUP7 ADD MLOAD ISZERO ISZERO PUSH1 0x1 PUSH1 0xA0 SHL MUL PUSH1 0x1 PUSH1 0x1 PUSH1 0xA8 SHL SUB NOT SWAP1 SWAP3 AND PUSH1 0x1 PUSH1 0x1 PUSH1 0xA0 SHL SUB SWAP1 SWAP5 AND SWAP4 SWAP1 SWAP4 OR OR SWAP1 SSTORE PUSH1 0x60 DUP4 ADD MLOAD PUSH1 0x2 DUP4 ADD SSTORE PUSH1 0x80 SWAP1 SWAP3 ADD MLOAD PUSH1 0x3 SWAP1 SWAP2 ADD DUP1 SLOAD SWAP2 ISZERO ISZERO PUSH1 0xFF NOT SWAP1 SWAP3 AND SWAP2 SWAP1 SWAP2 OR SWAP1 SSTORE MLOAD PUSH2 0x710 SWAP1 DUP4 SWAP1 PUSH2 0xD0E JUMP JUMPDEST PUSH1 0x40 MLOAD DUP1 SWAP2 SUB SWAP1 KECCAK256 PUSH32 0x15FE06BCD718DB76E0542B653589A63F11B9A7E090D89E436200F6FAEC8A0C10 DUP3 DUP6 PUSH1 0x40 MLOAD PUSH2 0x749 SWAP3 SWAP2 SWAP1 PUSH2 0xF70 JUMP JUMPDEST PUSH1 0x40 MLOAD DUP1 SWAP2 SUB SWAP1 LOG2 POP POP POP POP POP JUMP JUMPDEST PUSH1 0x40 DUP1 MLOAD PUSH1 0xA0 DUP2 ADD DUP3 MSTORE PUSH1 0x60 DUP1 DUP3 MSTORE PUSH0 PUSH1 0x20 DUP4 ADD DUP2 SWAP1 MSTORE DUP3 DUP5 ADD DUP2 SWAP1 MSTORE SWAP1 DUP3 ADD DUP2 SWAP1 MSTORE PUSH1 0x80 DUP3 ADD MSTORE SWAP1 MLOAD PUSH1 0x1 SWAP1 PUSH2 0x790 SWAP1 DUP5 SWAP1 PUSH2 0xD0E JUMP JUMPDEST SWAP1 DUP2 MSTORE PUSH1 0x20 ADD PUSH1 0x40 MLOAD DUP1 SWAP2 SUB SWAP1 KECCAK256 PUSH1 0x40 MLOAD DUP1 PUSH1 0xA0 ADD PUSH1 0x40 MSTORE SWAP1 DUP2 PUSH0 DUP3 ADD DUP1 SLOAD PUSH2 0x7B8 SWAP1 PUSH2 0xD54 JUMP JUMPDEST DUP1 PUSH1 0x1F ADD PUSH1 0x20 DUP1 SWAP2 DIV MUL PUSH1 0x20 ADD PUSH1 0x40 MLOAD SWAP1 DUP2 ADD PUSH1 0x40 MSTORE DUP1 SWAP3 SWAP2 SWAP1 DUP2 DUP2 MSTORE PUSH1 0x20 ADD DUP3 DUP1 SLOAD PUSH2 0x7E4 SWAP1 PUSH2 0xD54 JUMP JUMPDEST DUP1 ISZERO PUSH2 0x82F JUMPI DUP1 PUSH1 0x1F LT PUSH2 0x806 JUMPI PUSH2 0x100 DUP1 DUP4 SLOAD DIV MUL DUP4 MSTORE SWAP2 PUSH1 0x20 ADD SWAP2 PUSH2 0x82F JUMP JUMPDEST DUP3 ADD SWAP2 SWAP1 PUSH0 MSTORE PUSH1 0x20 PUSH0 KECCAK256 SWAP1 JUMPDEST DUP2 SLOAD DUP2 MSTORE SWAP1 PUSH1 0x1 ADD SWAP1 PUSH1 0x20 ADD DUP1 DUP4 GT PUSH2 0x812 JUMPI DUP3 SWAP1 SUB PUSH1 0x1F AND DUP3 ADD SWAP2 JUMPDEST POP POP POP SWAP2 DUP4 MSTORE POP POP PUSH1 0x1 DUP3 ADD SLOAD PUSH1 0x1 PUSH1 0x1 PUSH1 0xA0 SHL SUB DUP2 AND PUSH1 0x20 DUP4 ADD MSTORE PUSH1 0xFF PUSH1 0x1 PUSH1 0xA0 SHL SWAP1 SWAP2 DIV DUP2 AND ISZERO ISZERO PUSH1 0x40 DUP4 ADD MSTORE PUSH1 0x2 DUP4 ADD SLOAD PUSH1 0x60 DUP4 ADD MSTORE PUSH1 0x3 SWAP1 SWAP3 ADD SLOAD SWAP1 SWAP2 AND ISZERO ISZERO PUSH1 0x80 SWAP1 SWAP2 ADD MSTORE SWAP3 SWAP2 POP POP JUMP JUMPDEST PUSH1 0x60 PUSH0 DUP3 SWAP1 POP PUSH0 DUP2 MLOAD PUSH8 0xFFFFFFFFFFFFFFFF DUP2 GT ISZERO PUSH2 0x8A0 JUMPI PUSH2 0x8A0 PUSH2 0xA8F JUMP JUMPDEST PUSH1 0x40 MLOAD SWAP1 DUP1 DUP3 MSTORE DUP1 PUSH1 0x1F ADD PUSH1 0x1F NOT AND PUSH1 0x20 ADD DUP3 ADD PUSH1 0x40 MSTORE DUP1 ISZERO PUSH2 0x8CA JUMPI PUSH1 0x20 DUP3 ADD DUP2 DUP1 CALLDATASIZE DUP4 CALLDATACOPY ADD SWAP1 POP JUMPDEST POP SWAP1 POP PUSH0 JUMPDEST DUP3 MLOAD DUP2 LT ISZERO PUSH2 0x9CB JUMPI PUSH1 0x41 DUP4 DUP3 DUP2 MLOAD DUP2 LT PUSH2 0x8EC JUMPI PUSH2 0x8EC PUSH2 0xF99 JUMP JUMPDEST ADD PUSH1 0x20 ADD MLOAD PUSH1 0xF8 SHR LT DUP1 ISZERO SWAP1 PUSH2 0x91C JUMPI POP PUSH1 0x5A DUP4 DUP3 DUP2 MLOAD DUP2 LT PUSH2 0x911 JUMPI PUSH2 0x911 PUSH2 0xF99 JUMP JUMPDEST ADD PUSH1 0x20 ADD MLOAD PUSH1 0xF8 SHR GT ISZERO JUMPDEST ISZERO PUSH2 0x97D JUMPI DUP3 DUP2 DUP2 MLOAD DUP2 LT PUSH2 0x933 JUMPI PUSH2 0x933 PUSH2 0xF99 JUMP JUMPDEST PUSH1 0x20 ADD ADD MLOAD PUSH1 0xF8 SHR PUSH1 0xF8 SHL PUSH1 0xF8 SHR PUSH1 0x20 PUSH2 0x94D SWAP2 SWAP1 PUSH2 0xFAD JUMP JUMPDEST PUSH1 0xF8 SHL DUP3 DUP3 DUP2 MLOAD DUP2 LT PUSH2 0x962 JUMPI PUSH2 0x962 PUSH2 0xF99 JUMP JUMPDEST PUSH1 0x20 ADD ADD SWAP1 PUSH1 0x1 PUSH1 0x1 PUSH1 0xF8 SHL SUB NOT AND SWAP1 DUP2 PUSH0 BYTE SWAP1 MSTORE8 POP PUSH2 0x9C3 JUMP JUMPDEST DUP3 DUP2 DUP2 MLOAD DUP2 LT PUSH2 0x98F JUMPI PUSH2 0x98F PUSH2 0xF99 JUMP JUMPDEST PUSH1 0x20 ADD ADD MLOAD PUSH1 0xF8 SHR PUSH1 0xF8 SHL DUP3 DUP3 DUP2 MLOAD DUP2 LT PUSH2 0x9AC JUMPI PUSH2 0x9AC PUSH2 0xF99 JUMP JUMPDEST PUSH1 0x20 ADD ADD SWAP1 PUSH1 0x1 PUSH1 0x1 PUSH1 0xF8 SHL SUB NOT AND SWAP1 DUP2 PUSH0 BYTE SWAP1 MSTORE8 POP JUMPDEST PUSH1 0x1 ADD PUSH2 0x8CF JUMP JUMPDEST POP SWAP4 SWAP3 POP POP POP JUMP JUMPDEST PUSH1 0x60 PUSH32 0x8EB467F061CA67F42A2D2CA4A346FC9FB645EFC0BA75056EE9F71C3A0CCC10A8 DUP3 SUB PUSH2 0xA20 JUMPI POP POP PUSH1 0x40 DUP1 MLOAD DUP1 DUP3 ADD SWAP1 SWAP2 MSTORE PUSH1 0x8 DUP2 MSTORE PUSH8 0x383937B23AB1B2B9 PUSH1 0xC1 SHL PUSH1 0x20 DUP3 ADD MSTORE SWAP1 JUMP JUMPDEST PUSH32 0xCE23C3E399818CFEE81A7AB0880F714E53D7672B08DF0FA62F2843416E1EA09 DUP3 SUB PUSH2 0xA6B JUMPI POP POP PUSH1 0x40 DUP1 MLOAD DUP1 DUP3 ADD SWAP1 SWAP2 MSTORE PUSH1 0x8 DUP2 MSTORE PUSH8 0x3B32B934B334B2B9 PUSH1 0xC1 SHL PUSH1 0x20 DUP3 ADD MSTORE SWAP1 JUMP JUMPDEST POP POP PUSH1 0x40 DUP1 MLOAD DUP1 DUP3 ADD SWAP1 SWAP2 MSTORE PUSH1 0x8 DUP2 MSTORE PUSH8 0x34B73B32B9BA37B9 PUSH1 0xC1 SHL PUSH1 0x20 DUP3 ADD MSTORE SWAP1 JUMP JUMPDEST PUSH4 0x4E487B71 PUSH1 0xE0 SHL PUSH0 MSTORE PUSH1 0x41 PUSH1 0x4 MSTORE PUSH1 0x24 PUSH0 REVERT JUMPDEST PUSH0 DUP3 PUSH1 0x1F DUP4 ADD SLT PUSH2 0xAB2 JUMPI PUSH0 DUP1 REVERT JUMPDEST DUP2 CALLDATALOAD PUSH8 0xFFFFFFFFFFFFFFFF DUP1 DUP3 GT ISZERO PUSH2 0xACD JUMPI PUSH2 0xACD PUSH2 0xA8F JUMP JUMPDEST PUSH1 0x40 MLOAD PUSH1 0x1F DUP4 ADD PUSH1 0x1F NOT SWAP1 DUP2 AND PUSH1 0x3F ADD AND DUP2 ADD SWAP1 DUP3 DUP3 GT DUP2 DUP4 LT OR ISZERO PUSH2 0xAF5 JUMPI PUSH2 0xAF5 PUSH2 0xA8F JUMP JUMPDEST DUP2 PUSH1 0x40 MSTORE DUP4 DUP2 MSTORE DUP7 PUSH1 0x20 DUP6 DUP9 ADD ADD GT ISZERO PUSH2 0xB0D JUMPI PUSH0 DUP1 REVERT JUMPDEST DUP4 PUSH1 0x20 DUP8 ADD PUSH1 0x20 DUP4 ADD CALLDATACOPY PUSH0 PUSH1 0x20 DUP6 DUP4 ADD ADD MSTORE DUP1 SWAP5 POP POP POP POP POP SWAP3 SWAP2 POP POP JUMP JUMPDEST PUSH0 PUSH1 0x20 DUP3 DUP5 SUB SLT ISZERO PUSH2 0xB3C JUMPI PUSH0 DUP1 REVERT JUMPDEST DUP2 CALLDATALOAD PUSH8 0xFFFFFFFFFFFFFFFF DUP2 GT ISZERO PUSH2 0xB52 JUMPI PUSH0 DUP1 REVERT JUMPDEST PUSH2 0xB5E DUP5 DUP3 DUP6 ADD PUSH2 0xAA3 JUMP JUMPDEST SWAP5 SWAP4 POP POP POP POP JUMP JUMPDEST PUSH0 DUP1 PUSH1 0x40 DUP4 DUP6 SUB SLT ISZERO PUSH2 0xB77 JUMPI PUSH0 DUP1 REVERT JUMPDEST DUP3 CALLDATALOAD PUSH8 0xFFFFFFFFFFFFFFFF DUP2 GT ISZERO PUSH2 0xB8D JUMPI PUSH0 DUP1 REVERT JUMPDEST PUSH2 0xB99 DUP6 DUP3 DUP7 ADD PUSH2 0xAA3 JUMP JUMPDEST SWAP6 PUSH1 0x20 SWAP5 SWAP1 SWAP5 ADD CALLDATALOAD SWAP5 POP POP POP POP JUMP JUMPDEST DUP1 ISZERO ISZERO DUP2 EQ PUSH2 0xBB5 JUMPI PUSH0 DUP1 REVERT JUMPDEST POP JUMP JUMPDEST PUSH0 DUP1 PUSH1 0x40 DUP4 DUP6 SUB SLT ISZERO PUSH2 0xBC9 JUMPI PUSH0 DUP1 REVERT JUMPDEST DUP3 CALLDATALOAD PUSH8 0xFFFFFFFFFFFFFFFF DUP2 GT ISZERO PUSH2 0xBDF JUMPI PUSH0 DUP1 REVERT JUMPDEST PUSH2 0xBEB DUP6 DUP3 DUP7 ADD PUSH2 0xAA3 JUMP JUMPDEST SWAP3 POP POP PUSH1 0x20 DUP4 ADD CALLDATALOAD PUSH2 0xBFC DUP2 PUSH2 0xBA8 JUMP JUMPDEST DUP1 SWAP2 POP POP SWAP3 POP SWAP3 SWAP1 POP JUMP JUMPDEST PUSH0 DUP1 PUSH0 PUSH1 0x60 DUP5 DUP7 SUB SLT ISZERO PUSH2 0xC19 JUMPI PUSH0 DUP1 REVERT JUMPDEST DUP4 CALLDATALOAD PUSH8 0xFFFFFFFFFFFFFFFF DUP1 DUP3 GT ISZERO PUSH2 0xC30 JUMPI PUSH0 DUP1 REVERT JUMPDEST PUSH2 0xC3C DUP8 DUP4 DUP9 ADD PUSH2 0xAA3 JUMP JUMPDEST SWAP5 POP PUSH1 0x20 DUP7 ADD CALLDATALOAD SWAP2 POP DUP1 DUP3 GT ISZERO PUSH2 0xC51 JUMPI PUSH0 DUP1 REVERT JUMPDEST POP PUSH2 0xC5E DUP7 DUP3 DUP8 ADD PUSH2 0xAA3 JUMP JUMPDEST SWAP3 POP POP PUSH1 0x40 DUP5 ADD CALLDATALOAD PUSH1 0x1 PUSH1 0x1 PUSH1 0xA0 SHL SUB DUP2 AND DUP2 EQ PUSH2 0xC7A JUMPI PUSH0 DUP1 REVERT JUMPDEST DUP1 SWAP2 POP POP SWAP3 POP SWAP3 POP SWAP3 JUMP JUMPDEST PUSH0 DUP2 MLOAD DUP1 DUP5 MSTORE DUP1 PUSH1 0x20 DUP5 ADD PUSH1 0x20 DUP7 ADD MCOPY PUSH0 PUSH1 0x20 DUP3 DUP7 ADD ADD MSTORE PUSH1 0x20 PUSH1 0x1F NOT PUSH1 0x1F DUP4 ADD AND DUP6 ADD ADD SWAP2 POP POP SWAP3 SWAP2 POP POP JUMP JUMPDEST PUSH1 0x20 DUP2 MSTORE PUSH0 DUP3 MLOAD PUSH1 0xA0 PUSH1 0x20 DUP5 ADD MSTORE PUSH2 0xCCE PUSH1 0xC0 DUP5 ADD DUP3 PUSH2 0xC85 JUMP JUMPDEST SWAP1 POP PUSH1 0x1 DUP1 PUSH1 0xA0 SHL SUB PUSH1 0x20 DUP6 ADD MLOAD AND PUSH1 0x40 DUP5 ADD MSTORE PUSH1 0x40 DUP5 ADD MLOAD ISZERO ISZERO PUSH1 0x60 DUP5 ADD MSTORE PUSH1 0x60 DUP5 ADD MLOAD PUSH1 0x80 DUP5 ADD MSTORE PUSH1 0x80 DUP5 ADD MLOAD ISZERO ISZERO PUSH1 0xA0 DUP5 ADD MSTORE DUP1 SWAP2 POP POP SWAP3 SWAP2 POP POP JUMP JUMPDEST PUSH0 DUP3 MLOAD DUP1 PUSH1 0x20 DUP6 ADD DUP5 MCOPY PUSH0 SWAP3 ADD SWAP2 DUP3 MSTORE POP SWAP2 SWAP1 POP JUMP JUMPDEST PUSH1 0x20 DUP1 DUP3 MSTORE PUSH1 0x16 SWAP1 DUP3 ADD MSTORE PUSH22 0x1058D8DBDD5B9D081B9BDD081C9959DA5CDD195C9959 PUSH1 0x52 SHL PUSH1 0x40 DUP3 ADD MSTORE PUSH1 0x60 ADD SWAP1 JUMP JUMPDEST PUSH1 0x1 DUP2 DUP2 SHR SWAP1 DUP3 AND DUP1 PUSH2 0xD68 JUMPI PUSH1 0x7F DUP3 AND SWAP2 POP JUMPDEST PUSH1 0x20 DUP3 LT DUP2 SUB PUSH2 0x321 JUMPI PUSH4 0x4E487B71 PUSH1 0xE0 SHL PUSH0 MSTORE PUSH1 0x22 PUSH1 0x4 MSTORE PUSH1 0x24 PUSH0 REVERT JUMPDEST PUSH0 DUP1 DUP4 SLOAD PUSH2 0xD93 DUP2 PUSH2 0xD54 JUMP JUMPDEST PUSH1 0x1 DUP3 DUP2 AND DUP1 ISZERO PUSH2 0xDAB JUMPI PUSH1 0x1 DUP2 EQ PUSH2 0xDC0 JUMPI PUSH2 0xDEC JUMP JUMPDEST PUSH1 0xFF NOT DUP5 AND DUP8 MSTORE DUP3 ISZERO ISZERO DUP4 MUL DUP8 ADD SWAP5 POP PUSH2 0xDEC JUMP JUMPDEST DUP8 PUSH0 MSTORE PUSH1 0x20 DUP1 PUSH0 KECCAK256 PUSH0 JUMPDEST DUP6 DUP2 LT ISZERO PUSH2 0xDE3 JUMPI DUP2 SLOAD DUP11 DUP3 ADD MSTORE SWAP1 DUP5 ADD SWAP1 DUP3 ADD PUSH2 0xDCA JUMP JUMPDEST POP POP POP DUP3 DUP8 ADD SWAP5 POP JUMPDEST POP SWAP3 SWAP7 SWAP6 POP POP POP POP POP POP JUMP JUMPDEST PUSH0 PUSH1 0x20 DUP3 DUP5 SUB SLT ISZERO PUSH2 0xE08 JUMPI PUSH0 DUP1 REVERT JUMPDEST DUP2 MLOAD PUSH2 0xE13 DUP2 PUSH2 0xBA8 JUMP JUMPDEST SWAP4 SWAP3 POP POP POP JUMP JUMPDEST PUSH1 0x20 DUP1 DUP3 MSTORE PUSH1 0x2A SWAP1 DUP3 ADD MSTORE PUSH32 0x43616C6C6572206973206E6F7420616E2061646D696E206F72206261636B656E PUSH1 0x40 DUP3 ADD MSTORE PUSH10 0x321030B2323932B9B997 PUSH1 0xB1 SHL PUSH1 0x60 DUP3 ADD MSTORE PUSH1 0x80 ADD SWAP1 JUMP JUMPDEST PUSH1 0x1F DUP3 GT ISZERO PUSH2 0xEAB JUMPI DUP1 PUSH0 MSTORE PUSH1 0x20 PUSH0 KECCAK256 PUSH1 0x1F DUP5 ADD PUSH1 0x5 SHR DUP2 ADD PUSH1 0x20 DUP6 LT ISZERO PUSH2 0xE89 JUMPI POP DUP1 JUMPDEST PUSH1 0x1F DUP5 ADD PUSH1 0x5 SHR DUP3 ADD SWAP2 POP JUMPDEST DUP2 DUP2 LT ISZERO PUSH2 0xEA8 JUMPI PUSH0 DUP2 SSTORE PUSH1 0x1 ADD PUSH2 0xE95 JUMP JUMPDEST POP POP JUMPDEST POP POP POP JUMP JUMPDEST DUP2 MLOAD PUSH8 0xFFFFFFFFFFFFFFFF DUP2 GT ISZERO PUSH2 0xECA JUMPI PUSH2 0xECA PUSH2 0xA8F JUMP JUMPDEST PUSH2 0xEDE DUP2 PUSH2 0xED8 DUP5 SLOAD PUSH2 0xD54 JUMP JUMPDEST DUP5 PUSH2 0xE64 JUMP JUMPDEST PUSH1 0x20 DUP1 PUSH1 0x1F DUP4 GT PUSH1 0x1 DUP2 EQ PUSH2 0xF11 JUMPI PUSH0 DUP5 ISZERO PUSH2 0xEFA JUMPI POP DUP6 DUP4 ADD MLOAD JUMPDEST PUSH0 NOT PUSH1 0x3 DUP7 SWAP1 SHL SHR NOT AND PUSH1 0x1 DUP6 SWAP1 SHL OR DUP6 SSTORE PUSH2 0xF68 JUMP JUMPDEST PUSH0 DUP6 DUP2 MSTORE PUSH1 0x20 DUP2 KECCAK256 PUSH1 0x1F NOT DUP7 AND SWAP2 JUMPDEST DUP3 DUP2 LT ISZERO PUSH2 0xF3F JUMPI DUP9 DUP7 ADD MLOAD DUP3 SSTORE SWAP5 DUP5 ADD SWAP5 PUSH1 0x1 SWAP1 SWAP2 ADD SWAP1 DUP5 ADD PUSH2 0xF20 JUMP JUMPDEST POP DUP6 DUP3 LT ISZERO PUSH2 0xF5C JUMPI DUP8 DUP6 ADD MLOAD PUSH0 NOT PUSH1 0x3 DUP9 SWAP1 SHL PUSH1 0xF8 AND SHR NOT AND DUP2 SSTORE JUMPDEST POP POP PUSH1 0x1 DUP5 PUSH1 0x1 SHL ADD DUP6 SSTORE JUMPDEST POP POP POP POP POP POP JUMP JUMPDEST PUSH1 0x40 DUP2 MSTORE PUSH0 PUSH2 0xF82 PUSH1 0x40 DUP4 ADD DUP6 PUSH2 0xC85 JUMP JUMPDEST SWAP1 POP PUSH1 0x1 DUP1 PUSH1 0xA0 SHL SUB DUP4 AND PUSH1 0x20 DUP4 ADD MSTORE SWAP4 SWAP3 POP POP POP JUMP JUMPDEST PUSH4 0x4E487B71 PUSH1 0xE0 SHL PUSH0 MSTORE PUSH1 0x32 PUSH1 0x4 MSTORE PUSH1 0x24 PUSH0 REVERT JUMPDEST PUSH1 0xFF DUP2 DUP2 AND DUP4 DUP3 AND ADD SWAP1 DUP2 GT ISZERO PUSH2 0x39D JUMPI PUSH4 0x4E487B71 PUSH1 0xE0 SHL PUSH0 MSTORE PUSH1 0x11 PUSH1 0x4 MSTORE PUSH1 0x24 PUSH0 REVERT INVALID LOG2 PUSH5 0x6970667358 0x22 SLT KECCAK256 PUSH12 0x2B263CEB741AD6A1A7F43F9A COINBASE 0x2B 0xA8 DUP10 0xF6 SLT SELFBALANCE 0xC5 0xB1 PUSH9 0x7124ABF5D05F7EFEF8 PUSH5 0x736F6C6343 STOP ADDMOD NOT STOP CALLER "
				},
				"gasEstimates": {
					"creation": {
						"codeDepositCost": "820800",
						"executionCost": "infinite",
						"totalCost": "infinite"
					},
					"external": {
						"ADMIN_ROLE()": "239",
						"BACKEND_ROLE()": "283",
						"INVESTOR_ROLE()": "261",
						"PRODUCER_ROLE()": "216",
						"VERIFIER_ROLE()": "260",
						"blacklistAccount(string,bool)": "infinite",
						"getAccountData(string)": "infinite",
						"isNotBlacklisted(string)": "infinite",
						"isRegistered(string)": "infinite",
						"registerAccount(string,string,address)": "infinite",
						"updateLastActive(string)": "infinite",
						"verifyRole(string,bytes32)": "infinite"
					},
					"internal": {
						"_roleToString(bytes32)": "infinite",
						"_toLowerCase(string memory)": "infinite"
					}
				},
				"methodIdentifiers": {
					"ADMIN_ROLE()": "75b238fc",
					"BACKEND_ROLE()": "92c2becc",
					"INVESTOR_ROLE()": "76082a5e",
					"PRODUCER_ROLE()": "cb3e1fe7",
					"VERIFIER_ROLE()": "e7705db6",
					"blacklistAccount(string,bool)": "cd367584",
					"getAccountData(string)": "f3f9f267",
					"isNotBlacklisted(string)": "518ab27b",
					"isRegistered(string)": "c822d7f0",
					"registerAccount(string,string,address)": "ea46f8e3",
					"updateLastActive(string)": "20884f70",
					"verifyRole(string,bytes32)": "a8b07735"
				}
			},
			"storageLayout": {
				"storage": [
					{
						"astId": 476,
						"contract": "contracts/npc_credits/NPC_AccountManager.sol:NPC_AccountManager",
						"label": "roleManager",
						"offset": 0,
						"slot": "0",
						"type": "t_contract(NPC_RoleManager)1015"
					},
					{
						"astId": 492,
						"contract": "contracts/npc_credits/NPC_AccountManager.sol:NPC_AccountManager",
						"label": "accountData",
						"offset": 0,
						"slot": "1",
						"type": "t_mapping(t_string_memory_ptr,t_struct(AccountData)487_storage)"
					}
				],
				"types": {
					"t_address": {
						"encoding": "inplace",
						"label": "address",
						"numberOfBytes": "20"
					},
					"t_bool": {
						"encoding": "inplace",
						"label": "bool",
						"numberOfBytes": "1"
					},
					"t_contract(NPC_RoleManager)1015": {
						"encoding": "inplace",
						"label": "contract NPC_RoleManager",
						"numberOfBytes": "20"
					},
					"t_mapping(t_string_memory_ptr,t_struct(AccountData)487_storage)": {
						"encoding": "mapping",
						"key": "t_string_memory_ptr",
						"label": "mapping(string => struct NPC_AccountManager.AccountData)",
						"numberOfBytes": "32",
						"value": "t_struct(AccountData)487_storage"
					},
					"t_string_memory_ptr": {
						"encoding": "bytes",
						"label": "string",
						"numberOfBytes": "32"
					},
					"t_string_storage": {
						"encoding": "bytes",
						"label": "string",
						"numberOfBytes": "32"
					},
					"t_struct(AccountData)487_storage": {
						"encoding": "inplace",
						"label": "struct NPC_AccountManager.AccountData",
						"members": [
							{
								"astId": 478,
								"contract": "contracts/npc_credits/NPC_AccountManager.sol:NPC_AccountManager",
								"label": "role",
								"offset": 0,
								"slot": "0",
								"type": "t_string_storage"
							},
							{
								"astId": 480,
								"contract": "contracts/npc_credits/NPC_AccountManager.sol:NPC_AccountManager",
								"label": "txAddress",
								"offset": 0,
								"slot": "1",
								"type": "t_address"
							},
							{
								"astId": 482,
								"contract": "contracts/npc_credits/NPC_AccountManager.sol:NPC_AccountManager",
								"label": "isBlacklisted",
								"offset": 20,
								"slot": "1",
								"type": "t_bool"
							},
							{
								"astId": 484,
								"contract": "contracts/npc_credits/NPC_AccountManager.sol:NPC_AccountManager",
								"label": "lastActive",
								"offset": 0,
								"slot": "2",
								"type": "t_uint256"
							},
							{
								"astId": 486,
								"contract": "contracts/npc_credits/NPC_AccountManager.sol:NPC_AccountManager",
								"label": "registered",
								"offset": 0,
								"slot": "3",
								"type": "t_bool"
							}
						],
						"numberOfBytes": "128"
					},
					"t_uint256": {
						"encoding": "inplace",
						"label": "uint256",
						"numberOfBytes": "32"
					}
				}
			},
			"userdoc": {
				"kind": "user",
				"methods": {},
				"version": 1
			}
		}
	}
}