{
	"contracts/npc_credits/npcNFT.sol": {
		"NPCNFT": {
			"abi": [
				{
					"inputs": [],
					"stateMutability": "nonpayable",
					"type": "constructor"
				},
				{
					"inputs": [
						{
							"internalType": "address",
							"name": "sender",
							"type": "address"
						},
						{
							"internalType": "uint256",
							"name": "tokenId",
							"type": "uint256"
						},
						{
							"internalType": "address",
							"name": "owner",
							"type": "address"
						}
					],
					"name": "ERC721IncorrectOwner",
					"type": "error"
				},
				{
					"inputs": [
						{
							"internalType": "address",
							"name": "operator",
							"type": "address"
						},
						{
							"internalType": "uint256",
							"name": "tokenId",
							"type": "uint256"
						}
					],
					"name": "ERC721InsufficientApproval",
					"type": "error"
				},
				{
					"inputs": [
						{
							"internalType": "address",
							"name": "approver",
							"type": "address"
						}
					],
					"name": "ERC721InvalidApprover",
					"type": "error"
				},
				{
					"inputs": [
						{
							"internalType": "address",
							"name": "operator",
							"type": "address"
						}
					],
					"name": "ERC721InvalidOperator",
					"type": "error"
				},
				{
					"inputs": [
						{
							"internalType": "address",
							"name": "owner",
							"type": "address"
						}
					],
					"name": "ERC721InvalidOwner",
					"type": "error"
				},
				{
					"inputs": [
						{
							"internalType": "address",
							"name": "receiver",
							"type": "address"
						}
					],
					"name": "ERC721InvalidReceiver",
					"type": "error"
				},
				{
					"inputs": [
						{
							"internalType": "address",
							"name": "sender",
							"type": "address"
						}
					],
					"name": "ERC721InvalidSender",
					"type": "error"
				},
				{
					"inputs": [
						{
							"internalType": "uint256",
							"name": "tokenId",
							"type": "uint256"
						}
					],
					"name": "ERC721NonexistentToken",
					"type": "error"
				},
				{
					"inputs": [
						{
							"internalType": "address",
							"name": "owner",
							"type": "address"
						}
					],
					"name": "OwnableInvalidOwner",
					"type": "error"
				},
				{
					"inputs": [
						{
							"internalType": "address",
							"name": "account",
							"type": "address"
						}
					],
					"name": "OwnableUnauthorizedAccount",
					"type": "error"
				},
				{
					"anonymous": false,
					"inputs": [
						{
							"indexed": true,
							"internalType": "address",
							"name": "owner",
							"type": "address"
						},
						{
							"indexed": true,
							"internalType": "address",
							"name": "approved",
							"type": "address"
						},
						{
							"indexed": true,
							"internalType": "uint256",
							"name": "tokenId",
							"type": "uint256"
						}
					],
					"name": "Approval",
					"type": "event"
				},
				{
					"anonymous": false,
					"inputs": [
						{
							"indexed": true,
							"internalType": "address",
							"name": "owner",
							"type": "address"
						},
						{
							"indexed": true,
							"internalType": "address",
							"name": "operator",
							"type": "address"
						},
						{
							"indexed": false,
							"internalType": "bool",
							"name": "approved",
							"type": "bool"
						}
					],
					"name": "ApprovalForAll",
					"type": "event"
				},
				{
					"anonymous": false,
					"inputs": [
						{
							"indexed": true,
							"internalType": "uint256",
							"name": "tokenId",
							"type": "uint256"
						},
						{
							"indexed": false,
							"internalType": "string",
							"name": "creditType",
							"type": "string"
						},
						{
							"indexed": false,
							"internalType": "uint256",
							"name": "supplyLimit",
							"type": "uint256"
						}
					],
					"name": "CreditSupplyLimitUpdated",
					"type": "event"
				},
				{
					"anonymous": false,
					"inputs": [
						{
							"indexed": true,
							"internalType": "uint256",
							"name": "tokenId",
							"type": "uint256"
						},
						{
							"indexed": false,
							"internalType": "string[]",
							"name": "creditTypes",
							"type": "string[]"
						}
					],
					"name": "CreditTypesUpdated",
					"type": "event"
				},
				{
					"anonymous": false,
					"inputs": [
						{
							"indexed": true,
							"internalType": "address",
							"name": "previousOwner",
							"type": "address"
						},
						{
							"indexed": true,
							"internalType": "address",
							"name": "newOwner",
							"type": "address"
						}
					],
					"name": "OwnershipTransferred",
					"type": "event"
				},
				{
					"anonymous": false,
					"inputs": [
						{
							"indexed": true,
							"internalType": "address",
							"name": "from",
							"type": "address"
						},
						{
							"indexed": true,
							"internalType": "address",
							"name": "to",
							"type": "address"
						},
						{
							"indexed": true,
							"internalType": "uint256",
							"name": "tokenId",
							"type": "uint256"
						}
					],
					"name": "Transfer",
					"type": "event"
				},
				{
					"inputs": [
						{
							"internalType": "address",
							"name": "to",
							"type": "address"
						},
						{
							"internalType": "uint256",
							"name": "tokenId",
							"type": "uint256"
						}
					],
					"name": "approve",
					"outputs": [],
					"stateMutability": "nonpayable",
					"type": "function"
				},
				{
					"inputs": [
						{
							"internalType": "address",
							"name": "owner",
							"type": "address"
						}
					],
					"name": "balanceOf",
					"outputs": [
						{
							"internalType": "uint256",
							"name": "",
							"type": "uint256"
						}
					],
					"stateMutability": "view",
					"type": "function"
				},
				{
					"inputs": [
						{
							"internalType": "uint256",
							"name": "tokenId",
							"type": "uint256"
						}
					],
					"name": "getApproved",
					"outputs": [
						{
							"internalType": "address",
							"name": "",
							"type": "address"
						}
					],
					"stateMutability": "view",
					"type": "function"
				},
				{
					"inputs": [
						{
							"internalType": "uint256",
							"name": "tokenId",
							"type": "uint256"
						},
						{
							"internalType": "string",
							"name": "creditType",
							"type": "string"
						}
					],
					"name": "getCreditSupplyLimit",
					"outputs": [
						{
							"internalType": "uint256",
							"name": "",
							"type": "uint256"
						}
					],
					"stateMutability": "view",
					"type": "function"
				},
				{
					"inputs": [
						{
							"internalType": "uint256",
							"name": "tokenId",
							"type": "uint256"
						}
					],
					"name": "getCreditTypes",
					"outputs": [
						{
							"internalType": "string[]",
							"name": "",
							"type": "string[]"
						}
					],
					"stateMutability": "view",
					"type": "function"
				},
				{
					"inputs": [
						{
							"internalType": "address",
							"name": "owner",
							"type": "address"
						},
						{
							"internalType": "address",
							"name": "operator",
							"type": "address"
						}
					],
					"name": "isApprovedForAll",
					"outputs": [
						{
							"internalType": "bool",
							"name": "",
							"type": "bool"
						}
					],
					"stateMutability": "view",
					"type": "function"
				},
				{
					"inputs": [
						{
							"internalType": "address",
							"name": "to",
							"type": "address"
						},
						{
							"internalType": "string[]",
							"name": "creditTypes",
							"type": "string[]"
						},
						{
							"internalType": "uint256[]",
							"name": "creditSupplyLimits",
							"type": "uint256[]"
						}
					],
					"name": "mint",
					"outputs": [],
					"stateMutability": "nonpayable",
					"type": "function"
				},
				{
					"inputs": [],
					"name": "name",
					"outputs": [
						{
							"internalType": "string",
							"name": "",
							"type": "string"
						}
					],
					"stateMutability": "view",
					"type": "function"
				},
				{
					"inputs": [],
					"name": "owner",
					"outputs": [
						{
							"internalType": "address",
							"name": "",
							"type": "address"
						}
					],
					"stateMutability": "view",
					"type": "function"
				},
				{
					"inputs": [
						{
							"internalType": "uint256",
							"name": "tokenId",
							"type": "uint256"
						}
					],
					"name": "ownerOf",
					"outputs": [
						{
							"internalType": "address",
							"name": "",
							"type": "address"
						}
					],
					"stateMutability": "view",
					"type": "function"
				},
				{
					"inputs": [],
					"name": "renounceOwnership",
					"outputs": [],
					"stateMutability": "nonpayable",
					"type": "function"
				},
				{
					"inputs": [
						{
							"internalType": "address",
							"name": "from",
							"type": "address"
						},
						{
							"internalType": "address",
							"name": "to",
							"type": "address"
						},
						{
							"internalType": "uint256",
							"name": "tokenId",
							"type": "uint256"
						}
					],
					"name": "safeTransferFrom",
					"outputs": [],
					"stateMutability": "nonpayable",
					"type": "function"
				},
				{
					"inputs": [
						{
							"internalType": "address",
							"name": "from",
							"type": "address"
						},
						{
							"internalType": "address",
							"name": "to",
							"type": "address"
						},
						{
							"internalType": "uint256",
							"name": "tokenId",
							"type": "uint256"
						},
						{
							"internalType": "bytes",
							"name": "data",
							"type": "bytes"
						}
					],
					"name": "safeTransferFrom",
					"outputs": [],
					"stateMutability": "nonpayable",
					"type": "function"
				},
				{
					"inputs": [
						{
							"internalType": "address",
							"name": "operator",
							"type": "address"
						},
						{
							"internalType": "bool",
							"name": "approved",
							"type": "bool"
						}
					],
					"name": "setApprovalForAll",
					"outputs": [],
					"stateMutability": "nonpayable",
					"type": "function"
				},
				{
					"inputs": [
						{
							"internalType": "uint256",
							"name": "tokenId",
							"type": "uint256"
						},
						{
							"internalType": "string[]",
							"name": "creditTypes",
							"type": "string[]"
						},
						{
							"internalType": "uint256[]",
							"name": "creditSupplyLimits",
							"type": "uint256[]"
						}
					],
					"name": "setCreditTypesAndLimits",
					"outputs": [],
					"stateMutability": "nonpayable",
					"type": "function"
				},
				{
					"inputs": [
						{
							"internalType": "bytes4",
							"name": "interfaceId",
							"type": "bytes4"
						}
					],
					"name": "supportsInterface",
					"outputs": [
						{
							"internalType": "bool",
							"name": "",
							"type": "bool"
						}
					],
					"stateMutability": "view",
					"type": "function"
				},
				{
					"inputs": [],
					"name": "symbol",
					"outputs": [
						{
							"internalType": "string",
							"name": "",
							"type": "string"
						}
					],
					"stateMutability": "view",
					"type": "function"
				},
				{
					"inputs": [
						{
							"internalType": "uint256",
							"name": "tokenId",
							"type": "uint256"
						}
					],
					"name": "tokenURI",
					"outputs": [
						{
							"internalType": "string",
							"name": "",
							"type": "string"
						}
					],
					"stateMutability": "view",
					"type": "function"
				},
				{
					"inputs": [
						{
							"internalType": "address",
							"name": "from",
							"type": "address"
						},
						{
							"internalType": "address",
							"name": "to",
							"type": "address"
						},
						{
							"internalType": "uint256",
							"name": "tokenId",
							"type": "uint256"
						}
					],
					"name": "transferFrom",
					"outputs": [],
					"stateMutability": "nonpayable",
					"type": "function"
				},
				{
					"inputs": [
						{
							"internalType": "address",
							"name": "newOwner",
							"type": "address"
						}
					],
					"name": "transferOwnership",
					"outputs": [],
					"stateMutability": "nonpayable",
					"type": "function"
				}
			],
			"devdoc": {
				"errors": {
					"ERC721IncorrectOwner(address,uint256,address)": [
						{
							"details": "Indicates an error related to the ownership over a particular token. Used in transfers.",
							"params": {
								"owner": "Address of the current owner of a token.",
								"sender": "Address whose tokens are being transferred.",
								"tokenId": "Identifier number of a token."
							}
						}
					],
					"ERC721InsufficientApproval(address,uint256)": [
						{
							"details": "Indicates a failure with the `operator`’s approval. Used in transfers.",
							"params": {
								"operator": "Address that may be allowed to operate on tokens without being their owner.",
								"tokenId": "Identifier number of a token."
							}
						}
					],
					"ERC721InvalidApprover(address)": [
						{
							"details": "Indicates a failure with the `approver` of a token to be approved. Used in approvals.",
							"params": {
								"approver": "Address initiating an approval operation."
							}
						}
					],
					"ERC721InvalidOperator(address)": [
						{
							"details": "Indicates a failure with the `operator` to be approved. Used in approvals.",
							"params": {
								"operator": "Address that may be allowed to operate on tokens without being their owner."
							}
						}
					],
					"ERC721InvalidOwner(address)": [
						{
							"details": "Indicates that an address can't be an owner. For example, `address(0)` is a forbidden owner in EIP-20. Used in balance queries.",
							"params": {
								"owner": "Address of the current owner of a token."
							}
						}
					],
					"ERC721InvalidReceiver(address)": [
						{
							"details": "Indicates a failure with the token `receiver`. Used in transfers.",
							"params": {
								"receiver": "Address to which tokens are being transferred."
							}
						}
					],
					"ERC721InvalidSender(address)": [
						{
							"details": "Indicates a failure with the token `sender`. Used in transfers.",
							"params": {
								"sender": "Address whose tokens are being transferred."
							}
						}
					],
					"ERC721NonexistentToken(uint256)": [
						{
							"details": "Indicates a `tokenId` whose `owner` is the zero address.",
							"params": {
								"tokenId": "Identifier number of a token."
							}
						}
					],
					"OwnableInvalidOwner(address)": [
						{
							"details": "The owner is not a valid owner account. (eg. `address(0)`)"
						}
					],
					"OwnableUnauthorizedAccount(address)": [
						{
							"details": "The caller account is not authorized to perform an operation."
						}
					]
				},
				"events": {
					"Approval(address,address,uint256)": {
						"details": "Emitted when `owner` enables `approved` to manage the `tokenId` token."
					},
					"ApprovalForAll(address,address,bool)": {
						"details": "Emitted when `owner` enables or disables (`approved`) `operator` to manage all of its assets."
					},
					"Transfer(address,address,uint256)": {
						"details": "Emitted when `tokenId` token is transferred from `from` to `to`."
					}
				},
				"kind": "dev",
				"methods": {
					"approve(address,uint256)": {
						"details": "See {IERC721-approve}."
					},
					"balanceOf(address)": {
						"details": "See {IERC721-balanceOf}."
					},
					"getApproved(uint256)": {
						"details": "See {IERC721-getApproved}."
					},
					"getCreditSupplyLimit(uint256,string)": {
						"details": "Get the supply limit for a specific credit type of an NFT.",
						"params": {
							"creditType": "The credit type to get the supply limit for.",
							"tokenId": "The ID of the NFT."
						},
						"returns": {
							"_0": "The supply limit for the credit type."
						}
					},
					"getCreditTypes(uint256)": {
						"details": "Get the credit types associated with an NFT.",
						"params": {
							"tokenId": "The ID of the NFT."
						},
						"returns": {
							"_0": "The credit types associated with the NFT."
						}
					},
					"isApprovedForAll(address,address)": {
						"details": "See {IERC721-isApprovedForAll}."
					},
					"mint(address,string[],uint256[])": {
						"details": "Mint a new NFT with credit types and supply limits.",
						"params": {
							"creditSupplyLimits": "The supply limits for each credit type.",
							"creditTypes": "The types of credits associated with the NFT.",
							"to": "The address to mint the NFT to."
						}
					},
					"name()": {
						"details": "See {IERC721Metadata-name}."
					},
					"owner()": {
						"details": "Returns the address of the current owner."
					},
					"ownerOf(uint256)": {
						"details": "See {IERC721-ownerOf}."
					},
					"renounceOwnership()": {
						"details": "Leaves the contract without owner. It will not be possible to call `onlyOwner` functions. Can only be called by the current owner. NOTE: Renouncing ownership will leave the contract without an owner, thereby disabling any functionality that is only available to the owner."
					},
					"safeTransferFrom(address,address,uint256)": {
						"details": "See {IERC721-safeTransferFrom}."
					},
					"safeTransferFrom(address,address,uint256,bytes)": {
						"details": "See {IERC721-safeTransferFrom}."
					},
					"setApprovalForAll(address,bool)": {
						"details": "See {IERC721-setApprovalForAll}."
					},
					"setCreditTypesAndLimits(uint256,string[],uint256[])": {
						"details": "Set the credit types and supply limits for an NFT.",
						"params": {
							"creditSupplyLimits": "The new supply limits for each credit type.",
							"creditTypes": "The new types of credits associated with the NFT.",
							"tokenId": "The ID of the NFT."
						}
					},
					"supportsInterface(bytes4)": {
						"details": "See {IERC165-supportsInterface}."
					},
					"symbol()": {
						"details": "See {IERC721Metadata-symbol}."
					},
					"tokenURI(uint256)": {
						"details": "See {IERC721Metadata-tokenURI}."
					},
					"transferFrom(address,address,uint256)": {
						"details": "See {IERC721-transferFrom}."
					},
					"transferOwnership(address)": {
						"details": "Transfers ownership of the contract to a new account (`newOwner`). Can only be called by the current owner."
					}
				},
				"version": 1
			},
			"evm": {
				"assembly": "    /* \"contracts/npc_credits/npcNFT.sol\":175:3914  contract NPCNFT is ERC721, Ownable {... */\n  mstore(0x40, 0x80)\n    /* \"contracts/npc_credits/npcNFT.sol\":697:827  constructor() ERC721(\"NPCNFT\", \"NPC\") Ownable(msg.sender) {... */\n  callvalue\n  dup1\n  iszero\n  tag_1\n  jumpi\n  0x00\n  dup1\n  revert\ntag_1:\n  pop\n    /* \"contracts/npc_credits/npcNFT.sol\":743:753  msg.sender */\n  caller\n    /* \"@openzeppelin/contracts/token/ERC721/ERC721.sol\":1381:1494  constructor(string memory name_, string memory symbol_) {... */\n  mload(0x40)\n  dup1\n  0x40\n  add\n  0x40\n  mstore\n  dup1\n  0x06\n  dup2\n  mstore\n  0x20\n  add\n  shl(0xd2, 0x139410d39195)\n  dup2\n  mstore\n  pop\n  mload(0x40)\n  dup1\n  0x40\n  add\n  0x40\n  mstore\n  dup1\n  0x03\n  dup2\n  mstore\n  0x20\n  add\n  shl(0xe8, 0x4e5043)\n  dup2\n  mstore\n  pop\n    /* \"@openzeppelin/contracts/token/ERC721/ERC721.sol\":1455:1460  name_ */\n  dup2\n    /* \"@openzeppelin/contracts/token/ERC721/ERC721.sol\":1447:1452  _name */\n  0x00\n    /* \"@openzeppelin/contracts/token/ERC721/ERC721.sol\":1447:1460  _name = name_ */\n  swap1\n  dup2\n  tag_6\n  swap2\n  swap1\n  tag_7\n  jump\t// in\ntag_6:\n  pop\n    /* \"@openzeppelin/contracts/token/ERC721/ERC721.sol\":1470:1477  _symbol */\n  0x01\n    /* \"@openzeppelin/contracts/token/ERC721/ERC721.sol\":1470:1487  _symbol = symbol_ */\n  tag_8\n    /* \"@openzeppelin/contracts/token/ERC721/ERC721.sol\":1480:1487  symbol_ */\n  dup3\n    /* \"@openzeppelin/contracts/token/ERC721/ERC721.sol\":1470:1477  _symbol */\n  dup3\n    /* \"@openzeppelin/contracts/token/ERC721/ERC721.sol\":1470:1487  _symbol = symbol_ */\n  tag_7\n  jump\t// in\ntag_8:\n  pop\n  pop\n  pop\n  sub(shl(0xa0, 0x01), 0x01)\n    /* \"@openzeppelin/contracts/access/Ownable.sol\":1273:1299  initialOwner == address(0) */\n  dup2\n  and\n    /* \"@openzeppelin/contracts/access/Ownable.sol\":1269:1364  if (initialOwner == address(0)) {... */\n  tag_10\n  jumpi\n    /* \"@openzeppelin/contracts/access/Ownable.sol\":1322:1353  OwnableInvalidOwner(address(0)) */\n  mload(0x40)\n  shl(0xe0, 0x1e4fbdf7)\n  dup2\n  mstore\n    /* \"@openzeppelin/contracts/access/Ownable.sol\":1350:1351  0 */\n  0x00\n    /* \"@openzeppelin/contracts/access/Ownable.sol\":1322:1353  OwnableInvalidOwner(address(0)) */\n  0x04\n  dup3\n  add\n    /* \"#utility.yul\":2847:2898   */\n  mstore\n    /* \"#utility.yul\":2820:2838   */\n  0x24\n  add\n    /* \"@openzeppelin/contracts/access/Ownable.sol\":1322:1353  OwnableInvalidOwner(address(0)) */\n  mload(0x40)\n  dup1\n  swap2\n  sub\n  swap1\n  revert\n    /* \"@openzeppelin/contracts/access/Ownable.sol\":1269:1364  if (initialOwner == address(0)) {... */\ntag_10:\n    /* \"@openzeppelin/contracts/access/Ownable.sol\":1373:1405  _transferOwnership(initialOwner) */\n  tag_13\n    /* \"@openzeppelin/contracts/access/Ownable.sol\":1392:1404  initialOwner */\n  dup2\n    /* \"@openzeppelin/contracts/access/Ownable.sol\":1373:1391  _transferOwnership */\n  tag_14\n    /* \"@openzeppelin/contracts/access/Ownable.sol\":1373:1405  _transferOwnership(initialOwner) */\n  jump\t// in\ntag_13:\n  pop\n    /* \"contracts/npc_credits/npcNFT.sol\":784:785  0 */\n  0x00\n    /* \"contracts/npc_credits/npcNFT.sol\":766:781  _currentTokenId */\n  0x09\n    /* \"contracts/npc_credits/npcNFT.sol\":766:785  _currentTokenId = 0 */\n  sstore\n    /* \"contracts/npc_credits/npcNFT.sol\":175:3914  contract NPCNFT is ERC721, Ownable {... */\n  jump(tag_23)\n    /* \"@openzeppelin/contracts/access/Ownable.sol\":2912:3099  function _transferOwnership(address newOwner) internal virtual {... */\ntag_14:\n    /* \"@openzeppelin/contracts/access/Ownable.sol\":3004:3010  _owner */\n  0x06\n  dup1\n  sload\n  sub(shl(0xa0, 0x01), 0x01)\n    /* \"@openzeppelin/contracts/access/Ownable.sol\":3020:3037  _owner = newOwner */\n  dup4\n  dup2\n  and\n  not(sub(shl(0xa0, 0x01), 0x01))\n  dup4\n  and\n  dup2\n  or\n  swap1\n  swap4\n  sstore\n    /* \"@openzeppelin/contracts/access/Ownable.sol\":3052:3092  OwnershipTransferred(oldOwner, newOwner) */\n  mload(0x40)\n    /* \"@openzeppelin/contracts/access/Ownable.sol\":3004:3010  _owner */\n  swap2\n  and\n  swap2\n    /* \"@openzeppelin/contracts/access/Ownable.sol\":3020:3037  _owner = newOwner */\n  swap1\n    /* \"@openzeppelin/contracts/access/Ownable.sol\":3004:3010  _owner */\n  dup3\n  swap1\n    /* \"@openzeppelin/contracts/access/Ownable.sol\":3052:3092  OwnershipTransferred(oldOwner, newOwner) */\n  0x8be0079c531659141344cd1fd0a4f28419497f9722a3daafe3b4186f6b6457e0\n  swap1\n    /* \"@openzeppelin/contracts/access/Ownable.sol\":2985:3001  address oldOwner */\n  0x00\n  swap1\n    /* \"@openzeppelin/contracts/access/Ownable.sol\":3052:3092  OwnershipTransferred(oldOwner, newOwner) */\n  log3\n    /* \"@openzeppelin/contracts/access/Ownable.sol\":2975:3099  {... */\n  pop\n    /* \"@openzeppelin/contracts/access/Ownable.sol\":2912:3099  function _transferOwnership(address newOwner) internal virtual {... */\n  pop\n  jump\t// out\n    /* \"#utility.yul\":14:141   */\ntag_18:\n    /* \"#utility.yul\":75:85   */\n  0x4e487b71\n    /* \"#utility.yul\":70:73   */\n  0xe0\n    /* \"#utility.yul\":66:86   */\n  shl\n    /* \"#utility.yul\":63:64   */\n  0x00\n    /* \"#utility.yul\":56:87   */\n  mstore\n    /* \"#utility.yul\":106:110   */\n  0x41\n    /* \"#utility.yul\":103:104   */\n  0x04\n    /* \"#utility.yul\":96:111   */\n  mstore\n    /* \"#utility.yul\":130:134   */\n  0x24\n    /* \"#utility.yul\":127:128   */\n  0x00\n    /* \"#utility.yul\":120:135   */\n  revert\n    /* \"#utility.yul\":146:526   */\ntag_19:\n    /* \"#utility.yul\":225:226   */\n  0x01\n    /* \"#utility.yul\":221:233   */\n  dup2\n  dup2\n  shr\n  swap1\n    /* \"#utility.yul\":268:280   */\n  dup3\n  and\n  dup1\n    /* \"#utility.yul\":289:350   */\n  tag_26\n  jumpi\n    /* \"#utility.yul\":343:347   */\n  0x7f\n    /* \"#utility.yul\":335:341   */\n  dup3\n    /* \"#utility.yul\":331:348   */\n  and\n    /* \"#utility.yul\":321:348   */\n  swap2\n  pop\n    /* \"#utility.yul\":289:350   */\ntag_26:\n    /* \"#utility.yul\":396:398   */\n  0x20\n    /* \"#utility.yul\":388:394   */\n  dup3\n    /* \"#utility.yul\":385:399   */\n  lt\n    /* \"#utility.yul\":365:383   */\n  dup2\n    /* \"#utility.yul\":362:400   */\n  sub\n    /* \"#utility.yul\":359:520   */\n  tag_27\n  jumpi\n    /* \"#utility.yul\":442:452   */\n  0x4e487b71\n    /* \"#utility.yul\":437:440   */\n  0xe0\n    /* \"#utility.yul\":433:453   */\n  shl\n    /* \"#utility.yul\":430:431   */\n  0x00\n    /* \"#utility.yul\":423:454   */\n  mstore\n    /* \"#utility.yul\":477:481   */\n  0x22\n    /* \"#utility.yul\":474:475   */\n  0x04\n    /* \"#utility.yul\":467:482   */\n  mstore\n    /* \"#utility.yul\":505:509   */\n  0x24\n    /* \"#utility.yul\":502:503   */\n  0x00\n    /* \"#utility.yul\":495:510   */\n  revert\n    /* \"#utility.yul\":359:520   */\ntag_27:\n  pop\n    /* \"#utility.yul\":146:526   */\n  swap2\n  swap1\n  pop\n  jump\t// out\n    /* \"#utility.yul\":657:1175   */\ntag_21:\n    /* \"#utility.yul\":759:761   */\n  0x1f\n    /* \"#utility.yul\":754:757   */\n  dup3\n    /* \"#utility.yul\":751:762   */\n  gt\n    /* \"#utility.yul\":748:1169   */\n  iszero\n  tag_30\n  jumpi\n    /* \"#utility.yul\":795:800   */\n  dup1\n    /* \"#utility.yul\":792:793   */\n  0x00\n    /* \"#utility.yul\":785:801   */\n  mstore\n    /* \"#utility.yul\":839:843   */\n  0x20\n    /* \"#utility.yul\":836:837   */\n  0x00\n    /* \"#utility.yul\":826:844   */\n  keccak256\n    /* \"#utility.yul\":909:911   */\n  0x1f\n    /* \"#utility.yul\":897:907   */\n  dup5\n    /* \"#utility.yul\":893:912   */\n  add\n    /* \"#utility.yul\":890:891   */\n  0x05\n    /* \"#utility.yul\":886:913   */\n  shr\n    /* \"#utility.yul\":880:884   */\n  dup2\n    /* \"#utility.yul\":876:914   */\n  add\n    /* \"#utility.yul\":945:949   */\n  0x20\n    /* \"#utility.yul\":933:943   */\n  dup6\n    /* \"#utility.yul\":930:950   */\n  lt\n    /* \"#utility.yul\":927:974   */\n  iszero\n  tag_31\n  jumpi\n  pop\n    /* \"#utility.yul\":968:972   */\n  dup1\n    /* \"#utility.yul\":927:974   */\ntag_31:\n    /* \"#utility.yul\":1023:1025   */\n  0x1f\n    /* \"#utility.yul\":1018:1021   */\n  dup5\n    /* \"#utility.yul\":1014:1026   */\n  add\n    /* \"#utility.yul\":1011:1012   */\n  0x05\n    /* \"#utility.yul\":1007:1027   */\n  shr\n    /* \"#utility.yul\":1001:1005   */\n  dup3\n    /* \"#utility.yul\":997:1028   */\n  add\n    /* \"#utility.yul\":987:1028   */\n  swap2\n  pop\n    /* \"#utility.yul\":1078:1159   */\ntag_32:\n    /* \"#utility.yul\":1096:1098   */\n  dup2\n    /* \"#utility.yul\":1089:1094   */\n  dup2\n    /* \"#utility.yul\":1086:1099   */\n  lt\n    /* \"#utility.yul\":1078:1159   */\n  iszero\n  tag_34\n  jumpi\n    /* \"#utility.yul\":1155:1156   */\n  0x00\n    /* \"#utility.yul\":1141:1157   */\n  dup2\n  sstore\n    /* \"#utility.yul\":1122:1123   */\n  0x01\n    /* \"#utility.yul\":1111:1124   */\n  add\n    /* \"#utility.yul\":1078:1159   */\n  jump(tag_32)\ntag_34:\n    /* \"#utility.yul\":1082:1085   */\n  pop\n  pop\n    /* \"#utility.yul\":748:1169   */\ntag_30:\n    /* \"#utility.yul\":657:1175   */\n  pop\n  pop\n  pop\n  jump\t// out\n    /* \"#utility.yul\":1351:2696   */\ntag_7:\n    /* \"#utility.yul\":1471:1481   */\n  dup2\n  mload\n  sub(shl(0x40, 0x01), 0x01)\n    /* \"#utility.yul\":1493:1523   */\n  dup2\n  gt\n    /* \"#utility.yul\":1490:1546   */\n  iszero\n  tag_38\n  jumpi\n    /* \"#utility.yul\":1526:1544   */\n  tag_38\n  tag_18\n  jump\t// in\ntag_38:\n    /* \"#utility.yul\":1555:1652   */\n  tag_39\n    /* \"#utility.yul\":1645:1651   */\n  dup2\n    /* \"#utility.yul\":1605:1643   */\n  tag_40\n    /* \"#utility.yul\":1637:1641   */\n  dup5\n    /* \"#utility.yul\":1631:1642   */\n  sload\n    /* \"#utility.yul\":1605:1643   */\n  tag_19\n  jump\t// in\ntag_40:\n    /* \"#utility.yul\":1599:1603   */\n  dup5\n    /* \"#utility.yul\":1555:1652   */\n  tag_21\n  jump\t// in\ntag_39:\n    /* \"#utility.yul\":1707:1711   */\n  0x20\n  dup1\n    /* \"#utility.yul\":1764:1766   */\n  0x1f\n    /* \"#utility.yul\":1753:1767   */\n  dup4\n  gt\n    /* \"#utility.yul\":1781:1782   */\n  0x01\n    /* \"#utility.yul\":1776:2439   */\n  dup2\n  eq\n  tag_42\n  jumpi\n    /* \"#utility.yul\":2483:2484   */\n  0x00\n    /* \"#utility.yul\":2500:2506   */\n  dup5\n    /* \"#utility.yul\":2497:2586   */\n  iszero\n  tag_43\n  jumpi\n  pop\n    /* \"#utility.yul\":2552:2571   */\n  dup6\n  dup4\n  add\n    /* \"#utility.yul\":2546:2572   */\n  mload\n    /* \"#utility.yul\":2497:2586   */\ntag_43:\n  not(0x00)\n    /* \"#utility.yul\":1308:1309   */\n  0x03\n    /* \"#utility.yul\":1304:1315   */\n  dup7\n  swap1\n  shl\n    /* \"#utility.yul\":1300:1324   */\n  shr\n    /* \"#utility.yul\":1296:1325   */\n  not\n    /* \"#utility.yul\":1286:1326   */\n  and\n    /* \"#utility.yul\":1332:1333   */\n  0x01\n    /* \"#utility.yul\":1328:1339   */\n  dup6\n  swap1\n  shl\n    /* \"#utility.yul\":1283:1340   */\n  or\n    /* \"#utility.yul\":2599:2680   */\n  dup6\n  sstore\n    /* \"#utility.yul\":1746:2690   */\n  jump(tag_41)\n    /* \"#utility.yul\":1776:2439   */\ntag_42:\n    /* \"#utility.yul\":604:605   */\n  0x00\n    /* \"#utility.yul\":597:611   */\n  dup6\n  dup2\n  mstore\n    /* \"#utility.yul\":641:645   */\n  0x20\n    /* \"#utility.yul\":628:646   */\n  dup2\n  keccak256\n  not(0x1f)\n    /* \"#utility.yul\":1812:1832   */\n  dup7\n  and\n  swap2\n    /* \"#utility.yul\":1930:2166   */\ntag_46:\n    /* \"#utility.yul\":1944:1951   */\n  dup3\n    /* \"#utility.yul\":1941:1942   */\n  dup2\n    /* \"#utility.yul\":1938:1952   */\n  lt\n    /* \"#utility.yul\":1930:2166   */\n  iszero\n  tag_48\n  jumpi\n    /* \"#utility.yul\":2033:2052   */\n  dup9\n  dup7\n  add\n    /* \"#utility.yul\":2027:2053   */\n  mload\n    /* \"#utility.yul\":2012:2054   */\n  dup3\n  sstore\n    /* \"#utility.yul\":2125:2152   */\n  swap5\n  dup5\n  add\n  swap5\n    /* \"#utility.yul\":2093:2094   */\n  0x01\n    /* \"#utility.yul\":2081:2095   */\n  swap1\n  swap2\n  add\n  swap1\n    /* \"#utility.yul\":1960:1979   */\n  dup5\n  add\n    /* \"#utility.yul\":1930:2166   */\n  jump(tag_46)\ntag_48:\n    /* \"#utility.yul\":1934:1937   */\n  pop\n    /* \"#utility.yul\":2194:2200   */\n  dup6\n    /* \"#utility.yul\":2185:2192   */\n  dup3\n    /* \"#utility.yul\":2182:2201   */\n  lt\n    /* \"#utility.yul\":2179:2380   */\n  iszero\n  tag_49\n  jumpi\n    /* \"#utility.yul\":2255:2274   */\n  dup8\n  dup6\n  add\n    /* \"#utility.yul\":2249:2275   */\n  mload\n  not(0x00)\n    /* \"#utility.yul\":2338:2339   */\n  0x03\n    /* \"#utility.yul\":2334:2348   */\n  dup9\n  swap1\n  shl\n    /* \"#utility.yul\":2350:2353   */\n  0xf8\n    /* \"#utility.yul\":2330:2354   */\n  and\n    /* \"#utility.yul\":2326:2363   */\n  shr\n    /* \"#utility.yul\":2322:2364   */\n  not\n    /* \"#utility.yul\":2307:2365   */\n  and\n    /* \"#utility.yul\":2292:2366   */\n  dup2\n  sstore\n    /* \"#utility.yul\":2179:2380   */\ntag_49:\n  pop\n  pop\n    /* \"#utility.yul\":2426:2427   */\n  0x01\n    /* \"#utility.yul\":2417:2423   */\n  dup5\n    /* \"#utility.yul\":2414:2415   */\n  0x01\n    /* \"#utility.yul\":2410:2424   */\n  shl\n    /* \"#utility.yul\":2406:2428   */\n  add\n    /* \"#utility.yul\":2400:2404   */\n  dup6\n    /* \"#utility.yul\":2393:2429   */\n  sstore\n    /* \"#utility.yul\":1746:2690   */\ntag_41:\n  pop\n  pop\n  pop\n  pop\n    /* \"#utility.yul\":1351:2696   */\n  pop\n  pop\n  jump\t// out\n    /* \"#utility.yul\":2701:2904   */\ntag_23:\n    /* \"contracts/npc_credits/npcNFT.sol\":175:3914  contract NPCNFT is ERC721, Ownable {... */\n  dataSize(sub_0)\n  dup1\n  dataOffset(sub_0)\n  0x00\n  codecopy\n  0x00\n  return\nstop\n\nsub_0: assembly {\n        /* \"contracts/npc_credits/npcNFT.sol\":175:3914  contract NPCNFT is ERC721, Ownable {... */\n      mstore(0x40, 0x80)\n      callvalue\n      dup1\n      iszero\n      tag_1\n      jumpi\n      0x00\n      dup1\n      revert\n    tag_1:\n      pop\n      jumpi(tag_2, lt(calldatasize, 0x04))\n      shr(0xe0, calldataload(0x00))\n      dup1\n      0x7f177d31\n      gt\n      tag_23\n      jumpi\n      dup1\n      0xaf77af04\n      gt\n      tag_24\n      jumpi\n      dup1\n      0xaf77af04\n      eq\n      tag_18\n      jumpi\n      dup1\n      0xb88d4fde\n      eq\n      tag_19\n      jumpi\n      dup1\n      0xc87b56dd\n      eq\n      tag_20\n      jumpi\n      dup1\n      0xe985e9c5\n      eq\n      tag_21\n      jumpi\n      dup1\n      0xf2fde38b\n      eq\n      tag_22\n      jumpi\n      0x00\n      dup1\n      revert\n    tag_24:\n      dup1\n      0x7f177d31\n      eq\n      tag_13\n      jumpi\n      dup1\n      0x8a605436\n      eq\n      tag_14\n      jumpi\n      dup1\n      0x8da5cb5b\n      eq\n      tag_15\n      jumpi\n      dup1\n      0x95d89b41\n      eq\n      tag_16\n      jumpi\n      dup1\n      0xa22cb465\n      eq\n      tag_17\n      jumpi\n      0x00\n      dup1\n      revert\n    tag_23:\n      dup1\n      0x42842e0e\n      gt\n      tag_25\n      jumpi\n      dup1\n      0x42842e0e\n      eq\n      tag_8\n      jumpi\n      dup1\n      0x6352211e\n      eq\n      tag_9\n      jumpi\n      dup1\n      0x70a08231\n      eq\n      tag_10\n      jumpi\n      dup1\n      0x715018a6\n      eq\n      tag_11\n      jumpi\n      dup1\n      0x736dea81\n      eq\n      tag_12\n      jumpi\n      0x00\n      dup1\n      revert\n    tag_25:\n      dup1\n      0x01ffc9a7\n      eq\n      tag_3\n      jumpi\n      dup1\n      0x06fdde03\n      eq\n      tag_4\n      jumpi\n      dup1\n      0x081812fc\n      eq\n      tag_5\n      jumpi\n      dup1\n      0x095ea7b3\n      eq\n      tag_6\n      jumpi\n      dup1\n      0x23b872dd\n      eq\n      tag_7\n      jumpi\n    tag_2:\n      0x00\n      dup1\n      revert\n        /* \"@openzeppelin/contracts/token/ERC721/ERC721.sol\":1561:1861  function supportsInterface(bytes4 interfaceId) public view virtual override(ERC165, IERC165) returns (bool) {... */\n    tag_3:\n      tag_26\n      tag_27\n      calldatasize\n      0x04\n      tag_28\n      jump\t// in\n    tag_27:\n      tag_29\n      jump\t// in\n    tag_26:\n      mload(0x40)\n        /* \"#utility.yul\":565:579   */\n      swap1\n      iszero\n        /* \"#utility.yul\":558:580   */\n      iszero\n        /* \"#utility.yul\":540:581   */\n      dup2\n      mstore\n        /* \"#utility.yul\":528:530   */\n      0x20\n        /* \"#utility.yul\":513:531   */\n      add\n        /* \"@openzeppelin/contracts/token/ERC721/ERC721.sol\":1561:1861  function supportsInterface(bytes4 interfaceId) public view virtual override(ERC165, IERC165) returns (bool) {... */\n    tag_30:\n      mload(0x40)\n      dup1\n      swap2\n      sub\n      swap1\n      return\n        /* \"@openzeppelin/contracts/token/ERC721/ERC721.sol\":2365:2454  function name() public view virtual returns (string memory) {... */\n    tag_4:\n      tag_32\n      tag_33\n      jump\t// in\n    tag_32:\n      mload(0x40)\n      tag_30\n      swap2\n      swap1\n      tag_35\n      jump\t// in\n        /* \"@openzeppelin/contracts/token/ERC721/ERC721.sol\":3497:3651  function getApproved(uint256 tokenId) public view virtual returns (address) {... */\n    tag_5:\n      tag_36\n      tag_37\n      calldatasize\n      0x04\n      tag_38\n      jump\t// in\n    tag_37:\n      tag_39\n      jump\t// in\n    tag_36:\n      mload(0x40)\n      sub(shl(0xa0, 0x01), 0x01)\n        /* \"#utility.yul\":1482:1514   */\n      swap1\n      swap2\n      and\n        /* \"#utility.yul\":1464:1515   */\n      dup2\n      mstore\n        /* \"#utility.yul\":1452:1454   */\n      0x20\n        /* \"#utility.yul\":1437:1455   */\n      add\n        /* \"@openzeppelin/contracts/token/ERC721/ERC721.sol\":3497:3651  function getApproved(uint256 tokenId) public view virtual returns (address) {... */\n      tag_30\n        /* \"#utility.yul\":1318:1521   */\n      jump\n        /* \"@openzeppelin/contracts/token/ERC721/ERC721.sol\":3323:3436  function approve(address to, uint256 tokenId) public virtual {... */\n    tag_6:\n      tag_42\n      tag_43\n      calldatasize\n      0x04\n      tag_44\n      jump\t// in\n    tag_43:\n      tag_45\n      jump\t// in\n    tag_42:\n      stop\n        /* \"@openzeppelin/contracts/token/ERC721/ERC721.sol\":4143:4721  function transferFrom(address from, address to, uint256 tokenId) public virtual {... */\n    tag_7:\n      tag_42\n      tag_47\n      calldatasize\n      0x04\n      tag_48\n      jump\t// in\n    tag_47:\n      tag_49\n      jump\t// in\n        /* \"@openzeppelin/contracts/token/ERC721/ERC721.sol\":4787:4919  function safeTransferFrom(address from, address to, uint256 tokenId) public {... */\n    tag_8:\n      tag_42\n      tag_51\n      calldatasize\n      0x04\n      tag_48\n      jump\t// in\n    tag_51:\n      tag_52\n      jump\t// in\n        /* \"@openzeppelin/contracts/token/ERC721/ERC721.sol\":2185:2303  function ownerOf(uint256 tokenId) public view virtual returns (address) {... */\n    tag_9:\n      tag_36\n      tag_54\n      calldatasize\n      0x04\n      tag_38\n      jump\t// in\n    tag_54:\n      tag_55\n      jump\t// in\n        /* \"@openzeppelin/contracts/token/ERC721/ERC721.sol\":1920:2128  function balanceOf(address owner) public view virtual returns (uint256) {... */\n    tag_10:\n      tag_57\n      tag_58\n      calldatasize\n      0x04\n      tag_59\n      jump\t// in\n    tag_58:\n      tag_60\n      jump\t// in\n    tag_57:\n      mload(0x40)\n        /* \"#utility.yul\":2633:2658   */\n      swap1\n      dup2\n      mstore\n        /* \"#utility.yul\":2621:2623   */\n      0x20\n        /* \"#utility.yul\":2606:2624   */\n      add\n        /* \"@openzeppelin/contracts/token/ERC721/ERC721.sol\":1920:2128  function balanceOf(address owner) public view virtual returns (uint256) {... */\n      tag_30\n        /* \"#utility.yul\":2487:2664   */\n      jump\n        /* \"@openzeppelin/contracts/access/Ownable.sol\":2293:2394  function renounceOwnership() public virtual onlyOwner {... */\n    tag_11:\n      tag_42\n      tag_64\n      jump\t// in\n        /* \"contracts/npc_credits/npcNFT.sol\":2610:2783  function getCreditSupplyLimit(uint256 tokenId, string calldata creditType) external view returns (uint256) {... */\n    tag_12:\n      tag_57\n      tag_66\n      calldatasize\n      0x04\n      tag_67\n      jump\t// in\n    tag_66:\n      tag_68\n      jump\t// in\n        /* \"contracts/npc_credits/npcNFT.sol\":2217:2345  function getCreditTypes(uint256 tokenId) external view returns (string[] memory) {... */\n    tag_13:\n      tag_70\n      tag_71\n      calldatasize\n      0x04\n      tag_38\n      jump\t// in\n    tag_71:\n      tag_72\n      jump\t// in\n    tag_70:\n      mload(0x40)\n      tag_30\n      swap2\n      swap1\n      tag_74\n      jump\t// in\n        /* \"contracts/npc_credits/npcNFT.sol\":1115:2033  function mint(... */\n    tag_14:\n      tag_42\n      tag_76\n      calldatasize\n      0x04\n      tag_77\n      jump\t// in\n    tag_76:\n      tag_78\n      jump\t// in\n        /* \"@openzeppelin/contracts/access/Ownable.sol\":1638:1723  function owner() public view virtual returns (address) {... */\n    tag_15:\n        /* \"@openzeppelin/contracts/access/Ownable.sol\":1710:1716  _owner */\n      and(sub(shl(0xa0, 0x01), 0x01), sload(0x06))\n        /* \"@openzeppelin/contracts/access/Ownable.sol\":1638:1723  function owner() public view virtual returns (address) {... */\n      jump(tag_36)\n        /* \"@openzeppelin/contracts/token/ERC721/ERC721.sol\":2518:2611  function symbol() public view virtual returns (string memory) {... */\n    tag_16:\n      tag_32\n      tag_83\n      jump\t// in\n        /* \"@openzeppelin/contracts/token/ERC721/ERC721.sol\":3718:3862  function setApprovalForAll(address operator, bool approved) public virtual {... */\n    tag_17:\n      tag_42\n      tag_86\n      calldatasize\n      0x04\n      tag_87\n      jump\t// in\n    tag_86:\n      tag_88\n      jump\t// in\n        /* \"contracts/npc_credits/npcNFT.sol\":3070:3911  function setCreditTypesAndLimits(... */\n    tag_18:\n      tag_42\n      tag_90\n      calldatasize\n      0x04\n      tag_91\n      jump\t// in\n    tag_90:\n      tag_92\n      jump\t// in\n        /* \"@openzeppelin/contracts/token/ERC721/ERC721.sol\":4985:5193  function safeTransferFrom(address from, address to, uint256 tokenId, bytes memory data) public virtual {... */\n    tag_19:\n      tag_42\n      tag_94\n      calldatasize\n      0x04\n      tag_95\n      jump\t// in\n    tag_94:\n      tag_96\n      jump\t// in\n        /* \"@openzeppelin/contracts/token/ERC721/ERC721.sol\":2677:2932  function tokenURI(uint256 tokenId) public view virtual returns (string memory) {... */\n    tag_20:\n      tag_32\n      tag_98\n      calldatasize\n      0x04\n      tag_38\n      jump\t// in\n    tag_98:\n      tag_99\n      jump\t// in\n        /* \"@openzeppelin/contracts/token/ERC721/ERC721.sol\":3928:4081  function isApprovedForAll(address owner, address operator) public view virtual returns (bool) {... */\n    tag_21:\n      tag_26\n      tag_102\n      calldatasize\n      0x04\n      tag_103\n      jump\t// in\n    tag_102:\n      tag_104\n      jump\t// in\n        /* \"@openzeppelin/contracts/access/Ownable.sol\":2543:2758  function transferOwnership(address newOwner) public virtual onlyOwner {... */\n    tag_22:\n      tag_42\n      tag_107\n      calldatasize\n      0x04\n      tag_59\n      jump\t// in\n    tag_107:\n      tag_108\n      jump\t// in\n        /* \"@openzeppelin/contracts/token/ERC721/ERC721.sol\":1561:1861  function supportsInterface(bytes4 interfaceId) public view virtual override(ERC165, IERC165) returns (bool) {... */\n    tag_29:\n        /* \"@openzeppelin/contracts/token/ERC721/ERC721.sol\":1663:1667  bool */\n      0x00\n      not(sub(shl(0xe0, 0x01), 0x01))\n        /* \"@openzeppelin/contracts/token/ERC721/ERC721.sol\":1698:1738  interfaceId == type(IERC721).interfaceId */\n      dup3\n      and\n      shl(0xe0, 0x80ac58cd)\n      eq\n      dup1\n        /* \"@openzeppelin/contracts/token/ERC721/ERC721.sol\":1698:1802  interfaceId == type(IERC721).interfaceId ||... */\n      tag_110\n      jumpi\n      pop\n      not(sub(shl(0xe0, 0x01), 0x01))\n        /* \"@openzeppelin/contracts/token/ERC721/ERC721.sol\":1754:1802  interfaceId == type(IERC721Metadata).interfaceId */\n      dup3\n      and\n      shl(0xe0, 0x5b5e139f)\n      eq\n        /* \"@openzeppelin/contracts/token/ERC721/ERC721.sol\":1698:1802  interfaceId == type(IERC721).interfaceId ||... */\n    tag_110:\n        /* \"@openzeppelin/contracts/token/ERC721/ERC721.sol\":1698:1854  interfaceId == type(IERC721).interfaceId ||... */\n      dup1\n      tag_112\n      jumpi\n      pop\n      shl(0xe0, 0x01ffc9a7)\n      not(sub(shl(0xe0, 0x01), 0x01))\n        /* \"@openzeppelin/contracts/utils/introspection/ERC165.sol\":861:901  interfaceId == type(IERC165).interfaceId */\n      dup4\n      and\n      eq\n        /* \"@openzeppelin/contracts/token/ERC721/ERC721.sol\":1818:1854  super.supportsInterface(interfaceId) */\n    tag_112:\n        /* \"@openzeppelin/contracts/token/ERC721/ERC721.sol\":1679:1854  return... */\n      swap3\n        /* \"@openzeppelin/contracts/token/ERC721/ERC721.sol\":1561:1861  function supportsInterface(bytes4 interfaceId) public view virtual override(ERC165, IERC165) returns (bool) {... */\n      swap2\n      pop\n      pop\n      jump\t// out\n        /* \"@openzeppelin/contracts/token/ERC721/ERC721.sol\":2365:2454  function name() public view virtual returns (string memory) {... */\n    tag_33:\n        /* \"@openzeppelin/contracts/token/ERC721/ERC721.sol\":2410:2423  string memory */\n      0x60\n        /* \"@openzeppelin/contracts/token/ERC721/ERC721.sol\":2442:2447  _name */\n      0x00\n        /* \"@openzeppelin/contracts/token/ERC721/ERC721.sol\":2435:2447  return _name */\n      dup1\n      sload\n      tag_115\n      swap1\n      tag_116\n      jump\t// in\n    tag_115:\n      dup1\n      0x1f\n      add\n      0x20\n      dup1\n      swap2\n      div\n      mul\n      0x20\n      add\n      mload(0x40)\n      swap1\n      dup2\n      add\n      0x40\n      mstore\n      dup1\n      swap3\n      swap2\n      swap1\n      dup2\n      dup2\n      mstore\n      0x20\n      add\n      dup3\n      dup1\n      sload\n      tag_117\n      swap1\n      tag_116\n      jump\t// in\n    tag_117:\n      dup1\n      iszero\n      tag_118\n      jumpi\n      dup1\n      0x1f\n      lt\n      tag_119\n      jumpi\n      0x0100\n      dup1\n      dup4\n      sload\n      div\n      mul\n      dup4\n      mstore\n      swap2\n      0x20\n      add\n      swap2\n      jump(tag_118)\n    tag_119:\n      dup3\n      add\n      swap2\n      swap1\n      0x00\n      mstore\n      keccak256(0x00, 0x20)\n      swap1\n    tag_120:\n      dup2\n      sload\n      dup2\n      mstore\n      swap1\n      0x01\n      add\n      swap1\n      0x20\n      add\n      dup1\n      dup4\n      gt\n      tag_120\n      jumpi\n      dup3\n      swap1\n      sub\n      0x1f\n      and\n      dup3\n      add\n      swap2\n    tag_118:\n      pop\n      pop\n      pop\n      pop\n      pop\n      swap1\n      pop\n        /* \"@openzeppelin/contracts/token/ERC721/ERC721.sol\":2365:2454  function name() public view virtual returns (string memory) {... */\n      swap1\n      jump\t// out\n        /* \"@openzeppelin/contracts/token/ERC721/ERC721.sol\":3497:3651  function getApproved(uint256 tokenId) public view virtual returns (address) {... */\n    tag_39:\n        /* \"@openzeppelin/contracts/token/ERC721/ERC721.sol\":3564:3571  address */\n      0x00\n        /* \"@openzeppelin/contracts/token/ERC721/ERC721.sol\":3583:3605  _requireOwned(tokenId) */\n      tag_122\n        /* \"@openzeppelin/contracts/token/ERC721/ERC721.sol\":3597:3604  tokenId */\n      dup3\n        /* \"@openzeppelin/contracts/token/ERC721/ERC721.sol\":3583:3596  _requireOwned */\n      tag_123\n        /* \"@openzeppelin/contracts/token/ERC721/ERC721.sol\":3583:3605  _requireOwned(tokenId) */\n      jump\t// in\n    tag_122:\n      pop\n        /* \"@openzeppelin/contracts/token/ERC721/ERC721.sol\":6008:6015  address */\n      0x00\n        /* \"@openzeppelin/contracts/token/ERC721/ERC721.sol\":6034:6058  _tokenApprovals[tokenId] */\n      dup3\n      dup2\n      mstore\n        /* \"@openzeppelin/contracts/token/ERC721/ERC721.sol\":6034:6049  _tokenApprovals */\n      0x04\n        /* \"@openzeppelin/contracts/token/ERC721/ERC721.sol\":6034:6058  _tokenApprovals[tokenId] */\n      0x20\n      mstore\n      0x40\n      swap1\n      keccak256\n      sload\n      sub(shl(0xa0, 0x01), 0x01)\n      and\n        /* \"@openzeppelin/contracts/token/ERC721/ERC721.sol\":3623:3644  _getApproved(tokenId) */\n      tag_112\n        /* \"@openzeppelin/contracts/token/ERC721/ERC721.sol\":5938:6065  function _getApproved(uint256 tokenId) internal view virtual returns (address) {... */\n      jump\n        /* \"@openzeppelin/contracts/token/ERC721/ERC721.sol\":3323:3436  function approve(address to, uint256 tokenId) public virtual {... */\n    tag_45:\n        /* \"@openzeppelin/contracts/token/ERC721/ERC721.sol\":3394:3429  _approve(to, tokenId, _msgSender()) */\n      tag_127\n        /* \"@openzeppelin/contracts/token/ERC721/ERC721.sol\":3403:3405  to */\n      dup3\n        /* \"@openzeppelin/contracts/token/ERC721/ERC721.sol\":3407:3414  tokenId */\n      dup3\n        /* \"@openzeppelin/contracts/utils/Context.sol\":735:745  msg.sender */\n      caller\n        /* \"@openzeppelin/contracts/token/ERC721/ERC721.sol\":3394:3402  _approve */\n      tag_130\n        /* \"@openzeppelin/contracts/token/ERC721/ERC721.sol\":3394:3429  _approve(to, tokenId, _msgSender()) */\n      jump\t// in\n    tag_127:\n        /* \"@openzeppelin/contracts/token/ERC721/ERC721.sol\":3323:3436  function approve(address to, uint256 tokenId) public virtual {... */\n      pop\n      pop\n      jump\t// out\n        /* \"@openzeppelin/contracts/token/ERC721/ERC721.sol\":4143:4721  function transferFrom(address from, address to, uint256 tokenId) public virtual {... */\n    tag_49:\n      sub(shl(0xa0, 0x01), 0x01)\n        /* \"@openzeppelin/contracts/token/ERC721/ERC721.sol\":4237:4253  to == address(0) */\n      dup3\n      and\n        /* \"@openzeppelin/contracts/token/ERC721/ERC721.sol\":4233:4320  if (to == address(0)) {... */\n      tag_132\n      jumpi\n        /* \"@openzeppelin/contracts/token/ERC721/ERC721.sol\":4276:4309  ERC721InvalidReceiver(address(0)) */\n      mload(0x40)\n      shl(0xe1, 0x32505749)\n      dup2\n      mstore\n        /* \"@openzeppelin/contracts/token/ERC721/ERC721.sol\":4306:4307  0 */\n      0x00\n        /* \"@openzeppelin/contracts/token/ERC721/ERC721.sol\":4276:4309  ERC721InvalidReceiver(address(0)) */\n      0x04\n      dup3\n      add\n        /* \"#utility.yul\":1464:1515   */\n      mstore\n        /* \"#utility.yul\":1437:1455   */\n      0x24\n      add\n        /* \"@openzeppelin/contracts/token/ERC721/ERC721.sol\":4276:4309  ERC721InvalidReceiver(address(0)) */\n    tag_133:\n      mload(0x40)\n      dup1\n      swap2\n      sub\n      swap1\n      revert\n        /* \"@openzeppelin/contracts/token/ERC721/ERC721.sol\":4233:4320  if (to == address(0)) {... */\n    tag_132:\n        /* \"@openzeppelin/contracts/token/ERC721/ERC721.sol\":4538:4559  address previousOwner */\n      0x00\n        /* \"@openzeppelin/contracts/token/ERC721/ERC721.sol\":4562:4596  _update(to, tokenId, _msgSender()) */\n      tag_134\n        /* \"@openzeppelin/contracts/token/ERC721/ERC721.sol\":4570:4572  to */\n      dup4\n        /* \"@openzeppelin/contracts/token/ERC721/ERC721.sol\":4574:4581  tokenId */\n      dup4\n        /* \"@openzeppelin/contracts/utils/Context.sol\":735:745  msg.sender */\n      caller\n        /* \"@openzeppelin/contracts/token/ERC721/ERC721.sol\":4562:4569  _update */\n      tag_136\n        /* \"@openzeppelin/contracts/token/ERC721/ERC721.sol\":4562:4596  _update(to, tokenId, _msgSender()) */\n      jump\t// in\n    tag_134:\n        /* \"@openzeppelin/contracts/token/ERC721/ERC721.sol\":4538:4596  address previousOwner = _update(to, tokenId, _msgSender()) */\n      swap1\n      pop\n        /* \"@openzeppelin/contracts/token/ERC721/ERC721.sol\":4627:4631  from */\n      dup4\n      sub(shl(0xa0, 0x01), 0x01)\n        /* \"@openzeppelin/contracts/token/ERC721/ERC721.sol\":4610:4631  previousOwner != from */\n      and\n        /* \"@openzeppelin/contracts/token/ERC721/ERC721.sol\":4610:4623  previousOwner */\n      dup2\n      sub(shl(0xa0, 0x01), 0x01)\n        /* \"@openzeppelin/contracts/token/ERC721/ERC721.sol\":4610:4631  previousOwner != from */\n      and\n      eq\n        /* \"@openzeppelin/contracts/token/ERC721/ERC721.sol\":4606:4715  if (previousOwner != from) {... */\n      tag_137\n      jumpi\n        /* \"@openzeppelin/contracts/token/ERC721/ERC721.sol\":4654:4704  ERC721IncorrectOwner(from, tokenId, previousOwner) */\n      mload(0x40)\n      shl(0xe0, 0x64283d7b)\n      dup2\n      mstore\n      sub(shl(0xa0, 0x01), 0x01)\n        /* \"#utility.yul\":10524:10539   */\n      dup1\n      dup7\n      and\n        /* \"@openzeppelin/contracts/token/ERC721/ERC721.sol\":4654:4704  ERC721IncorrectOwner(from, tokenId, previousOwner) */\n      0x04\n      dup4\n      add\n        /* \"#utility.yul\":10506:10540   */\n      mstore\n        /* \"#utility.yul\":10556:10574   */\n      0x24\n      dup3\n      add\n        /* \"#utility.yul\":10549:10583   */\n      dup5\n      swap1\n      mstore\n        /* \"#utility.yul\":10619:10634   */\n      dup3\n      and\n        /* \"#utility.yul\":10599:10617   */\n      0x44\n      dup3\n      add\n        /* \"#utility.yul\":10592:10635   */\n      mstore\n        /* \"#utility.yul\":10441:10459   */\n      0x64\n      add\n        /* \"@openzeppelin/contracts/token/ERC721/ERC721.sol\":4654:4704  ERC721IncorrectOwner(from, tokenId, previousOwner) */\n      tag_133\n        /* \"#utility.yul\":10266:10641   */\n      jump\n        /* \"@openzeppelin/contracts/token/ERC721/ERC721.sol\":4606:4715  if (previousOwner != from) {... */\n    tag_137:\n        /* \"@openzeppelin/contracts/token/ERC721/ERC721.sol\":4223:4721  {... */\n      pop\n        /* \"@openzeppelin/contracts/token/ERC721/ERC721.sol\":4143:4721  function transferFrom(address from, address to, uint256 tokenId) public virtual {... */\n      pop\n      pop\n      pop\n      jump\t// out\n        /* \"@openzeppelin/contracts/token/ERC721/ERC721.sol\":4787:4919  function safeTransferFrom(address from, address to, uint256 tokenId) public {... */\n    tag_52:\n        /* \"@openzeppelin/contracts/token/ERC721/ERC721.sol\":4873:4912  safeTransferFrom(from, to, tokenId, \"\") */\n      tag_141\n        /* \"@openzeppelin/contracts/token/ERC721/ERC721.sol\":4890:4894  from */\n      dup4\n        /* \"@openzeppelin/contracts/token/ERC721/ERC721.sol\":4896:4898  to */\n      dup4\n        /* \"@openzeppelin/contracts/token/ERC721/ERC721.sol\":4900:4907  tokenId */\n      dup4\n        /* \"@openzeppelin/contracts/token/ERC721/ERC721.sol\":4873:4912  safeTransferFrom(from, to, tokenId, \"\") */\n      mload(0x40)\n      dup1\n      0x20\n      add\n      0x40\n      mstore\n      dup1\n      0x00\n      dup2\n      mstore\n      pop\n        /* \"@openzeppelin/contracts/token/ERC721/ERC721.sol\":4873:4889  safeTransferFrom */\n      tag_96\n        /* \"@openzeppelin/contracts/token/ERC721/ERC721.sol\":4873:4912  safeTransferFrom(from, to, tokenId, \"\") */\n      jump\t// in\n    tag_141:\n        /* \"@openzeppelin/contracts/token/ERC721/ERC721.sol\":4787:4919  function safeTransferFrom(address from, address to, uint256 tokenId) public {... */\n      pop\n      pop\n      pop\n      jump\t// out\n        /* \"@openzeppelin/contracts/token/ERC721/ERC721.sol\":2185:2303  function ownerOf(uint256 tokenId) public view virtual returns (address) {... */\n    tag_55:\n        /* \"@openzeppelin/contracts/token/ERC721/ERC721.sol\":2248:2255  address */\n      0x00\n        /* \"@openzeppelin/contracts/token/ERC721/ERC721.sol\":2274:2296  _requireOwned(tokenId) */\n      tag_112\n        /* \"@openzeppelin/contracts/token/ERC721/ERC721.sol\":2288:2295  tokenId */\n      dup3\n        /* \"@openzeppelin/contracts/token/ERC721/ERC721.sol\":2274:2287  _requireOwned */\n      tag_123\n        /* \"@openzeppelin/contracts/token/ERC721/ERC721.sol\":2274:2296  _requireOwned(tokenId) */\n      jump\t// in\n        /* \"@openzeppelin/contracts/token/ERC721/ERC721.sol\":1920:2128  function balanceOf(address owner) public view virtual returns (uint256) {... */\n    tag_60:\n        /* \"@openzeppelin/contracts/token/ERC721/ERC721.sol\":1983:1990  uint256 */\n      0x00\n      sub(shl(0xa0, 0x01), 0x01)\n        /* \"@openzeppelin/contracts/token/ERC721/ERC721.sol\":2006:2025  owner == address(0) */\n      dup3\n      and\n        /* \"@openzeppelin/contracts/token/ERC721/ERC721.sol\":2002:2089  if (owner == address(0)) {... */\n      tag_145\n      jumpi\n        /* \"@openzeppelin/contracts/token/ERC721/ERC721.sol\":2048:2078  ERC721InvalidOwner(address(0)) */\n      mload(0x40)\n      shl(0xe2, 0x22718ad9)\n      dup2\n      mstore\n        /* \"@openzeppelin/contracts/token/ERC721/ERC721.sol\":2075:2076  0 */\n      0x00\n        /* \"@openzeppelin/contracts/token/ERC721/ERC721.sol\":2048:2078  ERC721InvalidOwner(address(0)) */\n      0x04\n      dup3\n      add\n        /* \"#utility.yul\":1464:1515   */\n      mstore\n        /* \"#utility.yul\":1437:1455   */\n      0x24\n      add\n        /* \"@openzeppelin/contracts/token/ERC721/ERC721.sol\":2048:2078  ERC721InvalidOwner(address(0)) */\n      tag_133\n        /* \"#utility.yul\":1318:1521   */\n      jump\n        /* \"@openzeppelin/contracts/token/ERC721/ERC721.sol\":2002:2089  if (owner == address(0)) {... */\n    tag_145:\n      pop\n      sub(shl(0xa0, 0x01), 0x01)\n        /* \"@openzeppelin/contracts/token/ERC721/ERC721.sol\":2105:2121  _balances[owner] */\n      and\n      0x00\n      swap1\n      dup2\n      mstore\n        /* \"@openzeppelin/contracts/token/ERC721/ERC721.sol\":2105:2114  _balances */\n      0x03\n        /* \"@openzeppelin/contracts/token/ERC721/ERC721.sol\":2105:2121  _balances[owner] */\n      0x20\n      mstore\n      0x40\n      swap1\n      keccak256\n      sload\n      swap1\n        /* \"@openzeppelin/contracts/token/ERC721/ERC721.sol\":1920:2128  function balanceOf(address owner) public view virtual returns (uint256) {... */\n      jump\t// out\n        /* \"@openzeppelin/contracts/access/Ownable.sol\":2293:2394  function renounceOwnership() public virtual onlyOwner {... */\n    tag_64:\n        /* \"@openzeppelin/contracts/access/Ownable.sol\":1531:1544  _checkOwner() */\n      tag_148\n        /* \"@openzeppelin/contracts/access/Ownable.sol\":1531:1542  _checkOwner */\n      tag_149\n        /* \"@openzeppelin/contracts/access/Ownable.sol\":1531:1544  _checkOwner() */\n      jump\t// in\n    tag_148:\n        /* \"@openzeppelin/contracts/access/Ownable.sol\":2357:2387  _transferOwnership(address(0)) */\n      tag_151\n        /* \"@openzeppelin/contracts/access/Ownable.sol\":2384:2385  0 */\n      0x00\n        /* \"@openzeppelin/contracts/access/Ownable.sol\":2357:2375  _transferOwnership */\n      tag_152\n        /* \"@openzeppelin/contracts/access/Ownable.sol\":2357:2387  _transferOwnership(address(0)) */\n      jump\t// in\n    tag_151:\n        /* \"@openzeppelin/contracts/access/Ownable.sol\":2293:2394  function renounceOwnership() public virtual onlyOwner {... */\n      jump\t// out\n        /* \"contracts/npc_credits/npcNFT.sol\":2610:2783  function getCreditSupplyLimit(uint256 tokenId, string calldata creditType) external view returns (uint256) {... */\n    tag_68:\n        /* \"contracts/npc_credits/npcNFT.sol\":2708:2715  uint256 */\n      0x00\n        /* \"contracts/npc_credits/npcNFT.sol\":2735:2763  _creditSupplyLimits[tokenId] */\n      dup4\n      dup2\n      mstore\n        /* \"contracts/npc_credits/npcNFT.sol\":2735:2754  _creditSupplyLimits */\n      0x08\n        /* \"contracts/npc_credits/npcNFT.sol\":2735:2763  _creditSupplyLimits[tokenId] */\n      0x20\n      mstore\n      0x40\n      dup1\n      dup3\n      keccak256\n        /* \"contracts/npc_credits/npcNFT.sol\":2735:2775  _creditSupplyLimits[tokenId][creditType] */\n      swap1\n      mload\n      tag_154\n      swap1\n        /* \"contracts/npc_credits/npcNFT.sol\":2764:2774  creditType */\n      dup6\n      swap1\n      dup6\n      swap1\n        /* \"contracts/npc_credits/npcNFT.sol\":2735:2775  _creditSupplyLimits[tokenId][creditType] */\n      tag_155\n      jump\t// in\n    tag_154:\n      swap1\n      dup2\n      mstore\n      0x20\n      add\n      mload(0x40)\n      dup1\n      swap2\n      sub\n      swap1\n      keccak256\n      sload\n        /* \"contracts/npc_credits/npcNFT.sol\":2728:2775  return _creditSupplyLimits[tokenId][creditType] */\n      swap1\n      pop\n        /* \"contracts/npc_credits/npcNFT.sol\":2610:2783  function getCreditSupplyLimit(uint256 tokenId, string calldata creditType) external view returns (uint256) {... */\n      swap4\n      swap3\n      pop\n      pop\n      pop\n      jump\t// out\n        /* \"contracts/npc_credits/npcNFT.sol\":2217:2345  function getCreditTypes(uint256 tokenId) external view returns (string[] memory) {... */\n    tag_72:\n        /* \"contracts/npc_credits/npcNFT.sol\":2281:2296  string[] memory */\n      0x60\n        /* \"contracts/npc_credits/npcNFT.sol\":2316:2328  _creditTypes */\n      0x07\n        /* \"contracts/npc_credits/npcNFT.sol\":2316:2337  _creditTypes[tokenId] */\n      0x00\n        /* \"contracts/npc_credits/npcNFT.sol\":2329:2336  tokenId */\n      dup4\n        /* \"contracts/npc_credits/npcNFT.sol\":2316:2337  _creditTypes[tokenId] */\n      dup2\n      mstore\n      0x20\n      add\n      swap1\n      dup2\n      mstore\n      0x20\n      add\n      0x00\n      keccak256\n        /* \"contracts/npc_credits/npcNFT.sol\":2309:2337  return _creditTypes[tokenId] */\n      dup1\n      sload\n      dup1\n      0x20\n      mul\n      0x20\n      add\n      mload(0x40)\n      swap1\n      dup2\n      add\n      0x40\n      mstore\n      dup1\n      swap3\n      swap2\n      swap1\n      dup2\n      dup2\n      mstore\n      0x20\n      add\n      0x00\n      swap1\n    tag_157:\n      dup3\n      dup3\n      lt\n      iszero\n      tag_158\n      jumpi\n      dup4\n      dup3\n      swap1\n      0x00\n      mstore\n      keccak256(0x00, 0x20)\n      add\n      dup1\n      sload\n      tag_160\n      swap1\n      tag_116\n      jump\t// in\n    tag_160:\n      dup1\n      0x1f\n      add\n      0x20\n      dup1\n      swap2\n      div\n      mul\n      0x20\n      add\n      mload(0x40)\n      swap1\n      dup2\n      add\n      0x40\n      mstore\n      dup1\n      swap3\n      swap2\n      swap1\n      dup2\n      dup2\n      mstore\n      0x20\n      add\n      dup3\n      dup1\n      sload\n      tag_161\n      swap1\n      tag_116\n      jump\t// in\n    tag_161:\n      dup1\n      iszero\n      tag_162\n      jumpi\n      dup1\n      0x1f\n      lt\n      tag_163\n      jumpi\n      0x0100\n      dup1\n      dup4\n      sload\n      div\n      mul\n      dup4\n      mstore\n      swap2\n      0x20\n      add\n      swap2\n      jump(tag_162)\n    tag_163:\n      dup3\n      add\n      swap2\n      swap1\n      0x00\n      mstore\n      keccak256(0x00, 0x20)\n      swap1\n    tag_164:\n      dup2\n      sload\n      dup2\n      mstore\n      swap1\n      0x01\n      add\n      swap1\n      0x20\n      add\n      dup1\n      dup4\n      gt\n      tag_164\n      jumpi\n      dup3\n      swap1\n      sub\n      0x1f\n      and\n      dup3\n      add\n      swap2\n    tag_162:\n      pop\n      pop\n      pop\n      pop\n      pop\n      dup2\n      mstore\n      0x20\n      add\n      swap1\n      0x01\n      add\n      swap1\n      jump(tag_157)\n    tag_158:\n      pop\n      pop\n      pop\n      pop\n      swap1\n      pop\n        /* \"contracts/npc_credits/npcNFT.sol\":2217:2345  function getCreditTypes(uint256 tokenId) external view returns (string[] memory) {... */\n      swap2\n      swap1\n      pop\n      jump\t// out\n        /* \"contracts/npc_credits/npcNFT.sol\":1115:2033  function mint(... */\n    tag_78:\n        /* \"@openzeppelin/contracts/access/Ownable.sol\":1531:1544  _checkOwner() */\n      tag_166\n        /* \"@openzeppelin/contracts/access/Ownable.sol\":1531:1542  _checkOwner */\n      tag_149\n        /* \"@openzeppelin/contracts/access/Ownable.sol\":1531:1544  _checkOwner() */\n      jump\t// in\n    tag_166:\n        /* \"contracts/npc_credits/npcNFT.sol\":1299:1317  creditSupplyLimits */\n      dup1\n        /* \"contracts/npc_credits/npcNFT.sol\":1299:1324  creditSupplyLimits.length */\n      mload\n        /* \"contracts/npc_credits/npcNFT.sol\":1277:1288  creditTypes */\n      dup3\n        /* \"contracts/npc_credits/npcNFT.sol\":1277:1295  creditTypes.length */\n      mload\n        /* \"contracts/npc_credits/npcNFT.sol\":1277:1324  creditTypes.length == creditSupplyLimits.length */\n      eq\n        /* \"contracts/npc_credits/npcNFT.sol\":1269:1375  require(creditTypes.length == creditSupplyLimits.length, \"Credit types and supply limits length mismatch\") */\n      tag_168\n      jumpi\n      mload(0x40)\n      shl(0xe5, 0x461bcd)\n      dup2\n      mstore\n      0x04\n      add\n      tag_133\n      swap1\n      tag_170\n      jump\t// in\n    tag_168:\n        /* \"contracts/npc_credits/npcNFT.sol\":1388:1403  uint256 tokenId */\n      0x00\n        /* \"contracts/npc_credits/npcNFT.sol\":1406:1421  _currentTokenId */\n      sload(0x09)\n        /* \"contracts/npc_credits/npcNFT.sol\":1424:1425  1 */\n      0x01\n        /* \"contracts/npc_credits/npcNFT.sol\":1406:1425  _currentTokenId + 1 */\n      tag_171\n      swap2\n      swap1\n      tag_172\n      jump\t// in\n    tag_171:\n        /* \"contracts/npc_credits/npcNFT.sol\":1469:1484  _currentTokenId */\n      0x09\n        /* \"contracts/npc_credits/npcNFT.sol\":1469:1494  _currentTokenId = tokenId */\n      dup2\n      swap1\n      sstore\n        /* \"contracts/npc_credits/npcNFT.sol\":1388:1425  uint256 tokenId = _currentTokenId + 1 */\n      swap1\n      pop\n        /* \"contracts/npc_credits/npcNFT.sol\":1534:1552  _mint(to, tokenId) */\n      tag_173\n        /* \"contracts/npc_credits/npcNFT.sol\":1540:1542  to */\n      dup5\n        /* \"contracts/npc_credits/npcNFT.sol\":1388:1425  uint256 tokenId = _currentTokenId + 1 */\n      dup3\n        /* \"contracts/npc_credits/npcNFT.sol\":1534:1539  _mint */\n      tag_174\n        /* \"contracts/npc_credits/npcNFT.sol\":1534:1552  _mint(to, tokenId) */\n      jump\t// in\n    tag_173:\n        /* \"contracts/npc_credits/npcNFT.sol\":1609:1618  uint256 i */\n      0x00\n        /* \"contracts/npc_credits/npcNFT.sol\":1604:1805  for (uint256 i = 0; i < creditTypes.length; i++) {... */\n    tag_175:\n        /* \"contracts/npc_credits/npcNFT.sol\":1628:1639  creditTypes */\n      dup4\n        /* \"contracts/npc_credits/npcNFT.sol\":1628:1646  creditTypes.length */\n      mload\n        /* \"contracts/npc_credits/npcNFT.sol\":1624:1625  i */\n      dup2\n        /* \"contracts/npc_credits/npcNFT.sol\":1624:1646  i < creditTypes.length */\n      lt\n        /* \"contracts/npc_credits/npcNFT.sol\":1604:1805  for (uint256 i = 0; i < creditTypes.length; i++) {... */\n      iszero\n      tag_176\n      jumpi\n        /* \"contracts/npc_credits/npcNFT.sol\":1668:1689  _creditTypes[tokenId] */\n      0x00\n      dup3\n      dup2\n      mstore\n        /* \"contracts/npc_credits/npcNFT.sol\":1668:1680  _creditTypes */\n      0x07\n        /* \"contracts/npc_credits/npcNFT.sol\":1668:1689  _creditTypes[tokenId] */\n      0x20\n      mstore\n      0x40\n      swap1\n      keccak256\n        /* \"contracts/npc_credits/npcNFT.sol\":1695:1709  creditTypes[i] */\n      dup5\n      mload\n        /* \"contracts/npc_credits/npcNFT.sol\":1695:1706  creditTypes */\n      dup6\n      swap1\n        /* \"contracts/npc_credits/npcNFT.sol\":1707:1708  i */\n      dup4\n      swap1\n        /* \"contracts/npc_credits/npcNFT.sol\":1695:1709  creditTypes[i] */\n      dup2\n      lt\n      tag_179\n      jumpi\n      tag_179\n      tag_180\n      jump\t// in\n    tag_179:\n      0x20\n      swap1\n      dup2\n      mul\n      swap2\n      swap1\n      swap2\n      add\n      dup2\n      add\n      mload\n        /* \"contracts/npc_credits/npcNFT.sol\":1668:1710  _creditTypes[tokenId].push(creditTypes[i]) */\n      dup3\n      sload\n      0x01\n      dup2\n      add\n      dup5\n      sstore\n      0x00\n      swap4\n      dup5\n      mstore\n      swap2\n      swap1\n      swap3\n      keccak256\n      add\n      swap1\n      tag_182\n      swap1\n      dup3\n      tag_183\n      jump\t// in\n    tag_182:\n      pop\n        /* \"contracts/npc_credits/npcNFT.sol\":1772:1790  creditSupplyLimits */\n      dup3\n        /* \"contracts/npc_credits/npcNFT.sol\":1791:1792  i */\n      dup2\n        /* \"contracts/npc_credits/npcNFT.sol\":1772:1793  creditSupplyLimits[i] */\n      dup2\n      mload\n      dup2\n      lt\n      tag_185\n      jumpi\n      tag_185\n      tag_180\n      jump\t// in\n    tag_185:\n      0x20\n      mul\n      0x20\n      add\n      add\n      mload\n        /* \"contracts/npc_credits/npcNFT.sol\":1725:1744  _creditSupplyLimits */\n      0x08\n        /* \"contracts/npc_credits/npcNFT.sol\":1725:1753  _creditSupplyLimits[tokenId] */\n      0x00\n        /* \"contracts/npc_credits/npcNFT.sol\":1745:1752  tokenId */\n      dup5\n        /* \"contracts/npc_credits/npcNFT.sol\":1725:1753  _creditSupplyLimits[tokenId] */\n      dup2\n      mstore\n      0x20\n      add\n      swap1\n      dup2\n      mstore\n      0x20\n      add\n      0x00\n      keccak256\n        /* \"contracts/npc_credits/npcNFT.sol\":1754:1765  creditTypes */\n      dup6\n        /* \"contracts/npc_credits/npcNFT.sol\":1766:1767  i */\n      dup4\n        /* \"contracts/npc_credits/npcNFT.sol\":1754:1768  creditTypes[i] */\n      dup2\n      mload\n      dup2\n      lt\n      tag_187\n      jumpi\n      tag_187\n      tag_180\n      jump\t// in\n    tag_187:\n      0x20\n      mul\n      0x20\n      add\n      add\n      mload\n        /* \"contracts/npc_credits/npcNFT.sol\":1725:1769  _creditSupplyLimits[tokenId][creditTypes[i]] */\n      mload(0x40)\n      tag_188\n      swap2\n      swap1\n      tag_189\n      jump\t// in\n    tag_188:\n      swap1\n      dup2\n      mstore\n      mload(0x40)\n      swap1\n      dup2\n      swap1\n      sub\n      0x20\n      add\n      swap1\n      keccak256\n        /* \"contracts/npc_credits/npcNFT.sol\":1725:1793  _creditSupplyLimits[tokenId][creditTypes[i]] = creditSupplyLimits[i] */\n      sstore\n        /* \"contracts/npc_credits/npcNFT.sol\":1648:1651  i++ */\n      0x01\n      add\n        /* \"contracts/npc_credits/npcNFT.sol\":1604:1805  for (uint256 i = 0; i < creditTypes.length; i++) {... */\n      jump(tag_175)\n    tag_176:\n      pop\n        /* \"contracts/npc_credits/npcNFT.sol\":1841:1848  tokenId */\n      dup1\n        /* \"contracts/npc_credits/npcNFT.sol\":1822:1862  CreditTypesUpdated(tokenId, creditTypes) */\n      0xaaa3ef9b79affd1b4052e81dd38126a7a1dd22345b41b8866fbe06d6c5cb02fe\n        /* \"contracts/npc_credits/npcNFT.sol\":1850:1861  creditTypes */\n      dup5\n        /* \"contracts/npc_credits/npcNFT.sol\":1822:1862  CreditTypesUpdated(tokenId, creditTypes) */\n      mload(0x40)\n      tag_190\n      swap2\n      swap1\n      tag_74\n      jump\t// in\n    tag_190:\n      mload(0x40)\n      dup1\n      swap2\n      sub\n      swap1\n      log2\n        /* \"contracts/npc_credits/npcNFT.sol\":1878:1887  uint256 i */\n      0x00\n        /* \"contracts/npc_credits/npcNFT.sol\":1873:2026  for (uint256 i = 0; i < creditTypes.length; i++) {... */\n    tag_191:\n        /* \"contracts/npc_credits/npcNFT.sol\":1897:1908  creditTypes */\n      dup4\n        /* \"contracts/npc_credits/npcNFT.sol\":1897:1915  creditTypes.length */\n      mload\n        /* \"contracts/npc_credits/npcNFT.sol\":1893:1894  i */\n      dup2\n        /* \"contracts/npc_credits/npcNFT.sol\":1893:1915  i < creditTypes.length */\n      lt\n        /* \"contracts/npc_credits/npcNFT.sol\":1873:2026  for (uint256 i = 0; i < creditTypes.length; i++) {... */\n      iszero\n      tag_192\n      jumpi\n        /* \"contracts/npc_credits/npcNFT.sol\":1967:1974  tokenId */\n      dup2\n        /* \"contracts/npc_credits/npcNFT.sol\":1942:2014  CreditSupplyLimitUpdated(tokenId, creditTypes[i], creditSupplyLimits[i]) */\n      0xf09c4f8065057564478e900e30beeaa7be6409e52ad156a4067fdcab3e9ad5d0\n        /* \"contracts/npc_credits/npcNFT.sol\":1976:1987  creditTypes */\n      dup6\n        /* \"contracts/npc_credits/npcNFT.sol\":1988:1989  i */\n      dup4\n        /* \"contracts/npc_credits/npcNFT.sol\":1976:1990  creditTypes[i] */\n      dup2\n      mload\n      dup2\n      lt\n      tag_195\n      jumpi\n      tag_195\n      tag_180\n      jump\t// in\n    tag_195:\n      0x20\n      mul\n      0x20\n      add\n      add\n      mload\n        /* \"contracts/npc_credits/npcNFT.sol\":1992:2010  creditSupplyLimits */\n      dup6\n        /* \"contracts/npc_credits/npcNFT.sol\":2011:2012  i */\n      dup5\n        /* \"contracts/npc_credits/npcNFT.sol\":1992:2013  creditSupplyLimits[i] */\n      dup2\n      mload\n      dup2\n      lt\n      tag_197\n      jumpi\n      tag_197\n      tag_180\n      jump\t// in\n    tag_197:\n      0x20\n      mul\n      0x20\n      add\n      add\n      mload\n        /* \"contracts/npc_credits/npcNFT.sol\":1942:2014  CreditSupplyLimitUpdated(tokenId, creditTypes[i], creditSupplyLimits[i]) */\n      mload(0x40)\n      tag_198\n      swap3\n      swap2\n      swap1\n      tag_199\n      jump\t// in\n    tag_198:\n      mload(0x40)\n      dup1\n      swap2\n      sub\n      swap1\n      log2\n        /* \"contracts/npc_credits/npcNFT.sol\":1917:1920  i++ */\n      0x01\n      add\n        /* \"contracts/npc_credits/npcNFT.sol\":1873:2026  for (uint256 i = 0; i < creditTypes.length; i++) {... */\n      jump(tag_191)\n    tag_192:\n      pop\n        /* \"contracts/npc_credits/npcNFT.sol\":1258:2033  {... */\n      pop\n        /* \"contracts/npc_credits/npcNFT.sol\":1115:2033  function mint(... */\n      pop\n      pop\n      pop\n      jump\t// out\n        /* \"@openzeppelin/contracts/token/ERC721/ERC721.sol\":2518:2611  function symbol() public view virtual returns (string memory) {... */\n    tag_83:\n        /* \"@openzeppelin/contracts/token/ERC721/ERC721.sol\":2565:2578  string memory */\n      0x60\n        /* \"@openzeppelin/contracts/token/ERC721/ERC721.sol\":2597:2604  _symbol */\n      0x01\n        /* \"@openzeppelin/contracts/token/ERC721/ERC721.sol\":2590:2604  return _symbol */\n      dup1\n      sload\n      tag_115\n      swap1\n      tag_116\n      jump\t// in\n        /* \"@openzeppelin/contracts/token/ERC721/ERC721.sol\":3718:3862  function setApprovalForAll(address operator, bool approved) public virtual {... */\n    tag_88:\n        /* \"@openzeppelin/contracts/token/ERC721/ERC721.sol\":3803:3855  _setApprovalForAll(_msgSender(), operator, approved) */\n      tag_127\n        /* \"@openzeppelin/contracts/utils/Context.sol\":735:745  msg.sender */\n      caller\n        /* \"@openzeppelin/contracts/token/ERC721/ERC721.sol\":3836:3844  operator */\n      dup4\n        /* \"@openzeppelin/contracts/token/ERC721/ERC721.sol\":3846:3854  approved */\n      dup4\n        /* \"@openzeppelin/contracts/token/ERC721/ERC721.sol\":3803:3821  _setApprovalForAll */\n      tag_210\n        /* \"@openzeppelin/contracts/token/ERC721/ERC721.sol\":3803:3855  _setApprovalForAll(_msgSender(), operator, approved) */\n      jump\t// in\n        /* \"contracts/npc_credits/npcNFT.sol\":3070:3911  function setCreditTypesAndLimits(... */\n    tag_92:\n        /* \"@openzeppelin/contracts/access/Ownable.sol\":1531:1544  _checkOwner() */\n      tag_212\n        /* \"@openzeppelin/contracts/access/Ownable.sol\":1531:1542  _checkOwner */\n      tag_149\n        /* \"@openzeppelin/contracts/access/Ownable.sol\":1531:1544  _checkOwner() */\n      jump\t// in\n    tag_212:\n        /* \"contracts/npc_credits/npcNFT.sol\":3262:3309  creditTypes.length == creditSupplyLimits.length */\n      dup3\n      dup2\n      eq\n        /* \"contracts/npc_credits/npcNFT.sol\":3254:3360  require(creditTypes.length == creditSupplyLimits.length, \"Credit types and supply limits length mismatch\") */\n      tag_214\n      jumpi\n      mload(0x40)\n      shl(0xe5, 0x461bcd)\n      dup2\n      mstore\n      0x04\n      add\n      tag_133\n      swap1\n      tag_170\n      jump\t// in\n    tag_214:\n        /* \"contracts/npc_credits/npcNFT.sol\":3419:3440  _creditTypes[tokenId] */\n      0x00\n      dup6\n      dup2\n      mstore\n        /* \"contracts/npc_credits/npcNFT.sol\":3419:3431  _creditTypes */\n      0x07\n        /* \"contracts/npc_credits/npcNFT.sol\":3419:3440  _creditTypes[tokenId] */\n      0x20\n      mstore\n      0x40\n      dup2\n      keccak256\n        /* \"contracts/npc_credits/npcNFT.sol\":3412:3440  delete _creditTypes[tokenId] */\n      tag_216\n      swap2\n      tag_217\n      jump\t// in\n    tag_216:\n        /* \"contracts/npc_credits/npcNFT.sol\":3487:3496  uint256 i */\n      0x00\n        /* \"contracts/npc_credits/npcNFT.sol\":3482:3683  for (uint256 i = 0; i < creditTypes.length; i++) {... */\n    tag_218:\n        /* \"contracts/npc_credits/npcNFT.sol\":3502:3524  i < creditTypes.length */\n      dup4\n      dup2\n      lt\n        /* \"contracts/npc_credits/npcNFT.sol\":3482:3683  for (uint256 i = 0; i < creditTypes.length; i++) {... */\n      iszero\n      tag_219\n      jumpi\n        /* \"contracts/npc_credits/npcNFT.sol\":3546:3567  _creditTypes[tokenId] */\n      0x00\n      dup7\n      dup2\n      mstore\n        /* \"contracts/npc_credits/npcNFT.sol\":3546:3558  _creditTypes */\n      0x07\n        /* \"contracts/npc_credits/npcNFT.sol\":3546:3567  _creditTypes[tokenId] */\n      0x20\n      mstore\n      0x40\n      swap1\n      keccak256\n        /* \"contracts/npc_credits/npcNFT.sol\":3573:3584  creditTypes */\n      dup6\n      dup6\n        /* \"contracts/npc_credits/npcNFT.sol\":3585:3586  i */\n      dup4\n        /* \"contracts/npc_credits/npcNFT.sol\":3573:3587  creditTypes[i] */\n      dup2\n      dup2\n      lt\n      tag_222\n      jumpi\n      tag_222\n      tag_180\n      jump\t// in\n    tag_222:\n      swap1\n      pop\n      0x20\n      mul\n      dup2\n      add\n      swap1\n      tag_223\n      swap2\n      swap1\n      tag_224\n      jump\t// in\n    tag_223:\n        /* \"contracts/npc_credits/npcNFT.sol\":3546:3588  _creditTypes[tokenId].push(creditTypes[i]) */\n      dup3\n      sload\n      0x01\n      dup2\n      add\n      dup5\n      sstore\n      0x00\n      swap4\n      dup5\n      mstore\n      0x20\n      swap1\n      swap4\n      keccak256\n      swap1\n      swap3\n      add\n      swap2\n      tag_226\n      swap2\n      dup4\n      tag_227\n      jump\t// in\n    tag_226:\n      pop\n        /* \"contracts/npc_credits/npcNFT.sol\":3650:3668  creditSupplyLimits */\n      dup3\n      dup3\n        /* \"contracts/npc_credits/npcNFT.sol\":3669:3670  i */\n      dup3\n        /* \"contracts/npc_credits/npcNFT.sol\":3650:3671  creditSupplyLimits[i] */\n      dup2\n      dup2\n      lt\n      tag_229\n      jumpi\n      tag_229\n      tag_180\n      jump\t// in\n    tag_229:\n      swap1\n      pop\n      0x20\n      mul\n      add\n      calldataload\n        /* \"contracts/npc_credits/npcNFT.sol\":3603:3622  _creditSupplyLimits */\n      0x08\n        /* \"contracts/npc_credits/npcNFT.sol\":3603:3631  _creditSupplyLimits[tokenId] */\n      0x00\n        /* \"contracts/npc_credits/npcNFT.sol\":3623:3630  tokenId */\n      dup9\n        /* \"contracts/npc_credits/npcNFT.sol\":3603:3631  _creditSupplyLimits[tokenId] */\n      dup2\n      mstore\n      0x20\n      add\n      swap1\n      dup2\n      mstore\n      0x20\n      add\n      0x00\n      keccak256\n        /* \"contracts/npc_credits/npcNFT.sol\":3632:3643  creditTypes */\n      dup7\n      dup7\n        /* \"contracts/npc_credits/npcNFT.sol\":3644:3645  i */\n      dup5\n        /* \"contracts/npc_credits/npcNFT.sol\":3632:3646  creditTypes[i] */\n      dup2\n      dup2\n      lt\n      tag_231\n      jumpi\n      tag_231\n      tag_180\n      jump\t// in\n    tag_231:\n      swap1\n      pop\n      0x20\n      mul\n      dup2\n      add\n      swap1\n      tag_232\n      swap2\n      swap1\n      tag_224\n      jump\t// in\n    tag_232:\n        /* \"contracts/npc_credits/npcNFT.sol\":3603:3647  _creditSupplyLimits[tokenId][creditTypes[i]] */\n      mload(0x40)\n      tag_233\n      swap3\n      swap2\n      swap1\n      tag_155\n      jump\t// in\n    tag_233:\n      swap1\n      dup2\n      mstore\n      mload(0x40)\n      swap1\n      dup2\n      swap1\n      sub\n      0x20\n      add\n      swap1\n      keccak256\n        /* \"contracts/npc_credits/npcNFT.sol\":3603:3671  _creditSupplyLimits[tokenId][creditTypes[i]] = creditSupplyLimits[i] */\n      sstore\n        /* \"contracts/npc_credits/npcNFT.sol\":3526:3529  i++ */\n      0x01\n      add\n        /* \"contracts/npc_credits/npcNFT.sol\":3482:3683  for (uint256 i = 0; i < creditTypes.length; i++) {... */\n      jump(tag_218)\n    tag_219:\n      pop\n        /* \"contracts/npc_credits/npcNFT.sol\":3719:3726  tokenId */\n      dup5\n        /* \"contracts/npc_credits/npcNFT.sol\":3700:3740  CreditTypesUpdated(tokenId, creditTypes) */\n      0xaaa3ef9b79affd1b4052e81dd38126a7a1dd22345b41b8866fbe06d6c5cb02fe\n        /* \"contracts/npc_credits/npcNFT.sol\":3728:3739  creditTypes */\n      dup6\n      dup6\n        /* \"contracts/npc_credits/npcNFT.sol\":3700:3740  CreditTypesUpdated(tokenId, creditTypes) */\n      mload(0x40)\n      tag_234\n      swap3\n      swap2\n      swap1\n      tag_235\n      jump\t// in\n    tag_234:\n      mload(0x40)\n      dup1\n      swap2\n      sub\n      swap1\n      log2\n        /* \"contracts/npc_credits/npcNFT.sol\":3756:3765  uint256 i */\n      0x00\n        /* \"contracts/npc_credits/npcNFT.sol\":3751:3904  for (uint256 i = 0; i < creditTypes.length; i++) {... */\n    tag_236:\n        /* \"contracts/npc_credits/npcNFT.sol\":3771:3793  i < creditTypes.length */\n      dup4\n      dup2\n      lt\n        /* \"contracts/npc_credits/npcNFT.sol\":3751:3904  for (uint256 i = 0; i < creditTypes.length; i++) {... */\n      iszero\n      tag_237\n      jumpi\n        /* \"contracts/npc_credits/npcNFT.sol\":3845:3852  tokenId */\n      dup6\n        /* \"contracts/npc_credits/npcNFT.sol\":3820:3892  CreditSupplyLimitUpdated(tokenId, creditTypes[i], creditSupplyLimits[i]) */\n      0xf09c4f8065057564478e900e30beeaa7be6409e52ad156a4067fdcab3e9ad5d0\n        /* \"contracts/npc_credits/npcNFT.sol\":3854:3865  creditTypes */\n      dup7\n      dup7\n        /* \"contracts/npc_credits/npcNFT.sol\":3866:3867  i */\n      dup5\n        /* \"contracts/npc_credits/npcNFT.sol\":3854:3868  creditTypes[i] */\n      dup2\n      dup2\n      lt\n      tag_240\n      jumpi\n      tag_240\n      tag_180\n      jump\t// in\n    tag_240:\n      swap1\n      pop\n      0x20\n      mul\n      dup2\n      add\n      swap1\n      tag_241\n      swap2\n      swap1\n      tag_224\n      jump\t// in\n    tag_241:\n        /* \"contracts/npc_credits/npcNFT.sol\":3870:3888  creditSupplyLimits */\n      dup7\n      dup7\n        /* \"contracts/npc_credits/npcNFT.sol\":3889:3890  i */\n      dup7\n        /* \"contracts/npc_credits/npcNFT.sol\":3870:3891  creditSupplyLimits[i] */\n      dup2\n      dup2\n      lt\n      tag_243\n      jumpi\n      tag_243\n      tag_180\n      jump\t// in\n    tag_243:\n      swap1\n      pop\n      0x20\n      mul\n      add\n      calldataload\n        /* \"contracts/npc_credits/npcNFT.sol\":3820:3892  CreditSupplyLimitUpdated(tokenId, creditTypes[i], creditSupplyLimits[i]) */\n      mload(0x40)\n      tag_244\n      swap4\n      swap3\n      swap2\n      swap1\n      tag_245\n      jump\t// in\n    tag_244:\n      mload(0x40)\n      dup1\n      swap2\n      sub\n      swap1\n      log2\n        /* \"contracts/npc_credits/npcNFT.sol\":3795:3798  i++ */\n      0x01\n      add\n        /* \"contracts/npc_credits/npcNFT.sol\":3751:3904  for (uint256 i = 0; i < creditTypes.length; i++) {... */\n      jump(tag_236)\n    tag_237:\n      pop\n        /* \"contracts/npc_credits/npcNFT.sol\":3070:3911  function setCreditTypesAndLimits(... */\n      pop\n      pop\n      pop\n      pop\n      pop\n      jump\t// out\n        /* \"@openzeppelin/contracts/token/ERC721/ERC721.sol\":4985:5193  function safeTransferFrom(address from, address to, uint256 tokenId, bytes memory data) public virtual {... */\n    tag_96:\n        /* \"@openzeppelin/contracts/token/ERC721/ERC721.sol\":5098:5129  transferFrom(from, to, tokenId) */\n      tag_247\n        /* \"@openzeppelin/contracts/token/ERC721/ERC721.sol\":5111:5115  from */\n      dup5\n        /* \"@openzeppelin/contracts/token/ERC721/ERC721.sol\":5117:5119  to */\n      dup5\n        /* \"@openzeppelin/contracts/token/ERC721/ERC721.sol\":5121:5128  tokenId */\n      dup5\n        /* \"@openzeppelin/contracts/token/ERC721/ERC721.sol\":5098:5110  transferFrom */\n      tag_49\n        /* \"@openzeppelin/contracts/token/ERC721/ERC721.sol\":5098:5129  transferFrom(from, to, tokenId) */\n      jump\t// in\n    tag_247:\n        /* \"@openzeppelin/contracts/token/ERC721/ERC721.sol\":5139:5186  _checkOnERC721Received(from, to, tokenId, data) */\n      tag_137\n        /* \"@openzeppelin/contracts/token/ERC721/ERC721.sol\":5162:5166  from */\n      dup5\n        /* \"@openzeppelin/contracts/token/ERC721/ERC721.sol\":5168:5170  to */\n      dup5\n        /* \"@openzeppelin/contracts/token/ERC721/ERC721.sol\":5172:5179  tokenId */\n      dup5\n        /* \"@openzeppelin/contracts/token/ERC721/ERC721.sol\":5181:5185  data */\n      dup5\n        /* \"@openzeppelin/contracts/token/ERC721/ERC721.sol\":5139:5161  _checkOnERC721Received */\n      tag_249\n        /* \"@openzeppelin/contracts/token/ERC721/ERC721.sol\":5139:5186  _checkOnERC721Received(from, to, tokenId, data) */\n      jump\t// in\n        /* \"@openzeppelin/contracts/token/ERC721/ERC721.sol\":2677:2932  function tokenURI(uint256 tokenId) public view virtual returns (string memory) {... */\n    tag_99:\n        /* \"@openzeppelin/contracts/token/ERC721/ERC721.sol\":2741:2754  string memory */\n      0x60\n        /* \"@openzeppelin/contracts/token/ERC721/ERC721.sol\":2766:2788  _requireOwned(tokenId) */\n      tag_251\n        /* \"@openzeppelin/contracts/token/ERC721/ERC721.sol\":2780:2787  tokenId */\n      dup3\n        /* \"@openzeppelin/contracts/token/ERC721/ERC721.sol\":2766:2779  _requireOwned */\n      tag_123\n        /* \"@openzeppelin/contracts/token/ERC721/ERC721.sol\":2766:2788  _requireOwned(tokenId) */\n      jump\t// in\n    tag_251:\n      pop\n        /* \"@openzeppelin/contracts/token/ERC721/ERC721.sol\":2799:2820  string memory baseURI */\n      0x00\n        /* \"@openzeppelin/contracts/token/ERC721/ERC721.sol\":2823:2833  _baseURI() */\n      tag_252\n        /* \"@openzeppelin/contracts/token/ERC721/ERC721.sol\":3250:3259  return \"\" */\n      0x40\n      dup1\n      mload\n      0x20\n      dup2\n      add\n      swap1\n      swap2\n      mstore\n      0x00\n      dup2\n      mstore\n      swap1\n        /* \"@openzeppelin/contracts/token/ERC721/ERC721.sol\":3174:3266  function _baseURI() internal view virtual returns (string memory) {... */\n      jump\n        /* \"@openzeppelin/contracts/token/ERC721/ERC721.sol\":2823:2833  _baseURI() */\n    tag_252:\n        /* \"@openzeppelin/contracts/token/ERC721/ERC721.sol\":2799:2833  string memory baseURI = _baseURI() */\n      swap1\n      pop\n        /* \"@openzeppelin/contracts/token/ERC721/ERC721.sol\":2874:2875  0 */\n      0x00\n        /* \"@openzeppelin/contracts/token/ERC721/ERC721.sol\":2856:2863  baseURI */\n      dup2\n        /* \"@openzeppelin/contracts/token/ERC721/ERC721.sol\":2850:2871  bytes(baseURI).length */\n      mload\n        /* \"@openzeppelin/contracts/token/ERC721/ERC721.sol\":2850:2875  bytes(baseURI).length > 0 */\n      gt\n        /* \"@openzeppelin/contracts/token/ERC721/ERC721.sol\":2850:2925  bytes(baseURI).length > 0 ? string.concat(baseURI, tokenId.toString()) : \"\" */\n      tag_254\n      jumpi\n      mload(0x40)\n      dup1\n      0x20\n      add\n      0x40\n      mstore\n      dup1\n      0x00\n      dup2\n      mstore\n      pop\n      jump(tag_255)\n    tag_254:\n        /* \"@openzeppelin/contracts/token/ERC721/ERC721.sol\":2892:2899  baseURI */\n      dup1\n        /* \"@openzeppelin/contracts/token/ERC721/ERC721.sol\":2901:2919  tokenId.toString() */\n      tag_256\n        /* \"@openzeppelin/contracts/token/ERC721/ERC721.sol\":2901:2908  tokenId */\n      dup5\n        /* \"@openzeppelin/contracts/token/ERC721/ERC721.sol\":2901:2917  tokenId.toString */\n      tag_257\n        /* \"@openzeppelin/contracts/token/ERC721/ERC721.sol\":2901:2919  tokenId.toString() */\n      jump\t// in\n    tag_256:\n        /* \"@openzeppelin/contracts/token/ERC721/ERC721.sol\":2878:2920  string.concat(baseURI, tokenId.toString()) */\n      add(0x20, mload(0x40))\n      tag_258\n      swap3\n      swap2\n      swap1\n      tag_259\n      jump\t// in\n    tag_258:\n      mload(0x40)\n      0x20\n      dup2\n      dup4\n      sub\n      sub\n      dup2\n      mstore\n      swap1\n      0x40\n      mstore\n        /* \"@openzeppelin/contracts/token/ERC721/ERC721.sol\":2850:2925  bytes(baseURI).length > 0 ? string.concat(baseURI, tokenId.toString()) : \"\" */\n    tag_255:\n        /* \"@openzeppelin/contracts/token/ERC721/ERC721.sol\":2843:2925  return bytes(baseURI).length > 0 ? string.concat(baseURI, tokenId.toString()) : \"\" */\n      swap4\n        /* \"@openzeppelin/contracts/token/ERC721/ERC721.sol\":2677:2932  function tokenURI(uint256 tokenId) public view virtual returns (string memory) {... */\n      swap3\n      pop\n      pop\n      pop\n      jump\t// out\n        /* \"@openzeppelin/contracts/token/ERC721/ERC721.sol\":3928:4081  function isApprovedForAll(address owner, address operator) public view virtual returns (bool) {... */\n    tag_104:\n      sub(shl(0xa0, 0x01), 0x01)\n        /* \"@openzeppelin/contracts/token/ERC721/ERC721.sol\":4039:4064  _operatorApprovals[owner] */\n      swap2\n      dup3\n      and\n        /* \"@openzeppelin/contracts/token/ERC721/ERC721.sol\":4016:4020  bool */\n      0x00\n        /* \"@openzeppelin/contracts/token/ERC721/ERC721.sol\":4039:4064  _operatorApprovals[owner] */\n      swap1\n      dup2\n      mstore\n        /* \"@openzeppelin/contracts/token/ERC721/ERC721.sol\":4039:4057  _operatorApprovals */\n      0x05\n        /* \"@openzeppelin/contracts/token/ERC721/ERC721.sol\":4039:4064  _operatorApprovals[owner] */\n      0x20\n      swap1\n      dup2\n      mstore\n      0x40\n      dup1\n      dup4\n      keccak256\n        /* \"@openzeppelin/contracts/token/ERC721/ERC721.sol\":4039:4074  _operatorApprovals[owner][operator] */\n      swap4\n      swap1\n      swap5\n      and\n      dup3\n      mstore\n      swap2\n      swap1\n      swap2\n      mstore\n      keccak256\n      sload\n      0xff\n      and\n      swap1\n        /* \"@openzeppelin/contracts/token/ERC721/ERC721.sol\":3928:4081  function isApprovedForAll(address owner, address operator) public view virtual returns (bool) {... */\n      jump\t// out\n        /* \"@openzeppelin/contracts/access/Ownable.sol\":2543:2758  function transferOwnership(address newOwner) public virtual onlyOwner {... */\n    tag_108:\n        /* \"@openzeppelin/contracts/access/Ownable.sol\":1531:1544  _checkOwner() */\n      tag_262\n        /* \"@openzeppelin/contracts/access/Ownable.sol\":1531:1542  _checkOwner */\n      tag_149\n        /* \"@openzeppelin/contracts/access/Ownable.sol\":1531:1544  _checkOwner() */\n      jump\t// in\n    tag_262:\n      sub(shl(0xa0, 0x01), 0x01)\n        /* \"@openzeppelin/contracts/access/Ownable.sol\":2627:2649  newOwner == address(0) */\n      dup2\n      and\n        /* \"@openzeppelin/contracts/access/Ownable.sol\":2623:2714  if (newOwner == address(0)) {... */\n      tag_264\n      jumpi\n        /* \"@openzeppelin/contracts/access/Ownable.sol\":2672:2703  OwnableInvalidOwner(address(0)) */\n      mload(0x40)\n      shl(0xe0, 0x1e4fbdf7)\n      dup2\n      mstore\n        /* \"@openzeppelin/contracts/access/Ownable.sol\":2700:2701  0 */\n      0x00\n        /* \"@openzeppelin/contracts/access/Ownable.sol\":2672:2703  OwnableInvalidOwner(address(0)) */\n      0x04\n      dup3\n      add\n        /* \"#utility.yul\":1464:1515   */\n      mstore\n        /* \"#utility.yul\":1437:1455   */\n      0x24\n      add\n        /* \"@openzeppelin/contracts/access/Ownable.sol\":2672:2703  OwnableInvalidOwner(address(0)) */\n      tag_133\n        /* \"#utility.yul\":1318:1521   */\n      jump\n        /* \"@openzeppelin/contracts/access/Ownable.sol\":2623:2714  if (newOwner == address(0)) {... */\n    tag_264:\n        /* \"@openzeppelin/contracts/access/Ownable.sol\":2723:2751  _transferOwnership(newOwner) */\n      tag_266\n        /* \"@openzeppelin/contracts/access/Ownable.sol\":2742:2750  newOwner */\n      dup2\n        /* \"@openzeppelin/contracts/access/Ownable.sol\":2723:2741  _transferOwnership */\n      tag_152\n        /* \"@openzeppelin/contracts/access/Ownable.sol\":2723:2751  _transferOwnership(newOwner) */\n      jump\t// in\n    tag_266:\n        /* \"@openzeppelin/contracts/access/Ownable.sol\":2543:2758  function transferOwnership(address newOwner) public virtual onlyOwner {... */\n      pop\n      jump\t// out\n        /* \"@openzeppelin/contracts/token/ERC721/ERC721.sol\":16138:16379  function _requireOwned(uint256 tokenId) internal view returns (address) {... */\n    tag_123:\n        /* \"@openzeppelin/contracts/token/ERC721/ERC721.sol\":16201:16208  address */\n      0x00\n        /* \"@openzeppelin/contracts/token/ERC721/ERC721.sol\":5799:5815  _owners[tokenId] */\n      dup2\n      dup2\n      mstore\n        /* \"@openzeppelin/contracts/token/ERC721/ERC721.sol\":5799:5806  _owners */\n      0x02\n        /* \"@openzeppelin/contracts/token/ERC721/ERC721.sol\":5799:5815  _owners[tokenId] */\n      0x20\n      mstore\n      0x40\n      dup2\n      keccak256\n      sload\n      sub(shl(0xa0, 0x01), 0x01)\n      and\n      dup1\n        /* \"@openzeppelin/contracts/token/ERC721/ERC721.sol\":16263:16351  if (owner == address(0)) {... */\n      tag_112\n      jumpi\n        /* \"@openzeppelin/contracts/token/ERC721/ERC721.sol\":16309:16340  ERC721NonexistentToken(tokenId) */\n      mload(0x40)\n      shl(0xe0, 0x7e273289)\n      dup2\n      mstore\n      0x04\n      dup2\n      add\n        /* \"#utility.yul\":2633:2658   */\n      dup5\n      swap1\n      mstore\n        /* \"#utility.yul\":2606:2624   */\n      0x24\n      add\n        /* \"@openzeppelin/contracts/token/ERC721/ERC721.sol\":16309:16340  ERC721NonexistentToken(tokenId) */\n      tag_133\n        /* \"#utility.yul\":2487:2664   */\n      jump\n        /* \"@openzeppelin/contracts/token/ERC721/ERC721.sol\":14418:14538  function _approve(address to, uint256 tokenId, address auth) internal {... */\n    tag_130:\n        /* \"@openzeppelin/contracts/token/ERC721/ERC721.sol\":14498:14531  _approve(to, tokenId, auth, true) */\n      tag_141\n        /* \"@openzeppelin/contracts/token/ERC721/ERC721.sol\":14507:14509  to */\n      dup4\n        /* \"@openzeppelin/contracts/token/ERC721/ERC721.sol\":14511:14518  tokenId */\n      dup4\n        /* \"@openzeppelin/contracts/token/ERC721/ERC721.sol\":14520:14524  auth */\n      dup4\n        /* \"@openzeppelin/contracts/token/ERC721/ERC721.sol\":14526:14530  true */\n      0x01\n        /* \"@openzeppelin/contracts/token/ERC721/ERC721.sol\":14498:14506  _approve */\n      tag_277\n        /* \"@openzeppelin/contracts/token/ERC721/ERC721.sol\":14498:14531  _approve(to, tokenId, auth, true) */\n      jump\t// in\n        /* \"@openzeppelin/contracts/token/ERC721/ERC721.sol\":8838:9633  function _update(address to, uint256 tokenId, address auth) internal virtual returns (address) {... */\n    tag_136:\n        /* \"@openzeppelin/contracts/token/ERC721/ERC721.sol\":8924:8931  address */\n      0x00\n        /* \"@openzeppelin/contracts/token/ERC721/ERC721.sol\":5799:5815  _owners[tokenId] */\n      dup3\n      dup2\n      mstore\n        /* \"@openzeppelin/contracts/token/ERC721/ERC721.sol\":5799:5806  _owners */\n      0x02\n        /* \"@openzeppelin/contracts/token/ERC721/ERC721.sol\":5799:5815  _owners[tokenId] */\n      0x20\n      mstore\n      0x40\n      dup2\n      keccak256\n      sload\n      sub(shl(0xa0, 0x01), 0x01)\n      swap1\n      dup2\n      and\n      swap1\n        /* \"@openzeppelin/contracts/token/ERC721/ERC721.sol\":9035:9053  auth != address(0) */\n      dup4\n      and\n      iszero\n        /* \"@openzeppelin/contracts/token/ERC721/ERC721.sol\":9031:9117  if (auth != address(0)) {... */\n      tag_281\n      jumpi\n        /* \"@openzeppelin/contracts/token/ERC721/ERC721.sol\":9069:9106  _checkAuthorized(from, auth, tokenId) */\n      tag_281\n        /* \"@openzeppelin/contracts/token/ERC721/ERC721.sol\":9086:9090  from */\n      dup2\n        /* \"@openzeppelin/contracts/token/ERC721/ERC721.sol\":9092:9096  auth */\n      dup5\n        /* \"@openzeppelin/contracts/token/ERC721/ERC721.sol\":9098:9105  tokenId */\n      dup7\n        /* \"@openzeppelin/contracts/token/ERC721/ERC721.sol\":9069:9085  _checkAuthorized */\n      tag_282\n        /* \"@openzeppelin/contracts/token/ERC721/ERC721.sol\":9069:9106  _checkAuthorized(from, auth, tokenId) */\n      jump\t// in\n    tag_281:\n      sub(shl(0xa0, 0x01), 0x01)\n        /* \"@openzeppelin/contracts/token/ERC721/ERC721.sol\":9161:9179  from != address(0) */\n      dup2\n      and\n      iszero\n        /* \"@openzeppelin/contracts/token/ERC721/ERC721.sol\":9157:9413  if (from != address(0)) {... */\n      tag_283\n      jumpi\n        /* \"@openzeppelin/contracts/token/ERC721/ERC721.sol\":9277:9325  _approve(address(0), tokenId, address(0), false) */\n      tag_284\n        /* \"@openzeppelin/contracts/token/ERC721/ERC721.sol\":9294:9295  0 */\n      0x00\n        /* \"@openzeppelin/contracts/token/ERC721/ERC721.sol\":9298:9305  tokenId */\n      dup6\n        /* \"@openzeppelin/contracts/token/ERC721/ERC721.sol\":9315:9316  0 */\n      0x00\n        /* \"@openzeppelin/contracts/token/ERC721/ERC721.sol\":9319:9324  false */\n      dup1\n        /* \"@openzeppelin/contracts/token/ERC721/ERC721.sol\":9277:9285  _approve */\n      tag_277\n        /* \"@openzeppelin/contracts/token/ERC721/ERC721.sol\":9277:9325  _approve(address(0), tokenId, address(0), false) */\n      jump\t// in\n    tag_284:\n      sub(shl(0xa0, 0x01), 0x01)\n        /* \"@openzeppelin/contracts/token/ERC721/ERC721.sol\":9368:9383  _balances[from] */\n      dup2\n      and\n      0x00\n      swap1\n      dup2\n      mstore\n        /* \"@openzeppelin/contracts/token/ERC721/ERC721.sol\":9368:9377  _balances */\n      0x03\n        /* \"@openzeppelin/contracts/token/ERC721/ERC721.sol\":9368:9383  _balances[from] */\n      0x20\n      mstore\n      0x40\n      swap1\n      keccak256\n        /* \"@openzeppelin/contracts/token/ERC721/ERC721.sol\":9368:9388  _balances[from] -= 1 */\n      dup1\n      sload\n      not(0x00)\n      add\n      swap1\n      sstore\n        /* \"@openzeppelin/contracts/token/ERC721/ERC721.sol\":9157:9413  if (from != address(0)) {... */\n    tag_283:\n      sub(shl(0xa0, 0x01), 0x01)\n        /* \"@openzeppelin/contracts/token/ERC721/ERC721.sol\":9427:9443  to != address(0) */\n      dup6\n      and\n      iszero\n        /* \"@openzeppelin/contracts/token/ERC721/ERC721.sol\":9423:9530  if (to != address(0)) {... */\n      tag_285\n      jumpi\n      sub(shl(0xa0, 0x01), 0x01)\n        /* \"@openzeppelin/contracts/token/ERC721/ERC721.sol\":9487:9500  _balances[to] */\n      dup6\n      and\n      0x00\n      swap1\n      dup2\n      mstore\n        /* \"@openzeppelin/contracts/token/ERC721/ERC721.sol\":9487:9496  _balances */\n      0x03\n        /* \"@openzeppelin/contracts/token/ERC721/ERC721.sol\":9487:9500  _balances[to] */\n      0x20\n      mstore\n      0x40\n      swap1\n      keccak256\n        /* \"@openzeppelin/contracts/token/ERC721/ERC721.sol\":9487:9505  _balances[to] += 1 */\n      dup1\n      sload\n        /* \"@openzeppelin/contracts/token/ERC721/ERC721.sol\":9504:9505  1 */\n      0x01\n        /* \"@openzeppelin/contracts/token/ERC721/ERC721.sol\":9487:9505  _balances[to] += 1 */\n      add\n      swap1\n      sstore\n        /* \"@openzeppelin/contracts/token/ERC721/ERC721.sol\":9423:9530  if (to != address(0)) {... */\n    tag_285:\n        /* \"@openzeppelin/contracts/token/ERC721/ERC721.sol\":9540:9556  _owners[tokenId] */\n      0x00\n      dup5\n      dup2\n      mstore\n        /* \"@openzeppelin/contracts/token/ERC721/ERC721.sol\":9540:9547  _owners */\n      0x02\n        /* \"@openzeppelin/contracts/token/ERC721/ERC721.sol\":9540:9556  _owners[tokenId] */\n      0x20\n      mstore\n      0x40\n      dup1\n      dup3\n      keccak256\n        /* \"@openzeppelin/contracts/token/ERC721/ERC721.sol\":9540:9561  _owners[tokenId] = to */\n      dup1\n      sload\n      not(sub(shl(0xa0, 0x01), 0x01))\n      and\n      sub(shl(0xa0, 0x01), 0x01)\n      dup10\n      dup2\n      and\n      swap2\n      dup3\n      or\n      swap1\n      swap3\n      sstore\n        /* \"@openzeppelin/contracts/token/ERC721/ERC721.sol\":9577:9604  Transfer(from, to, tokenId) */\n      swap2\n      mload\n        /* \"@openzeppelin/contracts/token/ERC721/ERC721.sol\":9540:9556  _owners[tokenId] */\n      dup8\n      swap4\n        /* \"@openzeppelin/contracts/token/ERC721/ERC721.sol\":9577:9604  Transfer(from, to, tokenId) */\n      swap2\n      dup6\n      and\n      swap2\n      0xddf252ad1be2c89b69c2b068fc378daa952ba7f163c4a11628f55a4df523b3ef\n      swap2\n      log4\n        /* \"@openzeppelin/contracts/token/ERC721/ERC721.sol\":9622:9626  from */\n      swap5\n        /* \"@openzeppelin/contracts/token/ERC721/ERC721.sol\":8838:9633  function _update(address to, uint256 tokenId, address auth) internal virtual returns (address) {... */\n      swap4\n      pop\n      pop\n      pop\n      pop\n      jump\t// out\n        /* \"@openzeppelin/contracts/access/Ownable.sol\":1796:1958  function _checkOwner() internal view virtual {... */\n    tag_149:\n        /* \"@openzeppelin/contracts/access/Ownable.sol\":1710:1716  _owner */\n      and(sub(shl(0xa0, 0x01), 0x01), sload(0x06))\n        /* \"@openzeppelin/contracts/utils/Context.sol\":735:745  msg.sender */\n      caller\n        /* \"@openzeppelin/contracts/access/Ownable.sol\":1855:1878  owner() != _msgSender() */\n      eq\n        /* \"@openzeppelin/contracts/access/Ownable.sol\":1851:1952  if (owner() != _msgSender()) {... */\n      tag_151\n      jumpi\n        /* \"@openzeppelin/contracts/access/Ownable.sol\":1901:1941  OwnableUnauthorizedAccount(_msgSender()) */\n      mload(0x40)\n      shl(0xe0, 0x118cdaa7)\n      dup2\n      mstore\n        /* \"@openzeppelin/contracts/utils/Context.sol\":735:745  msg.sender */\n      caller\n        /* \"@openzeppelin/contracts/access/Ownable.sol\":1901:1941  OwnableUnauthorizedAccount(_msgSender()) */\n      0x04\n      dup3\n      add\n        /* \"#utility.yul\":1464:1515   */\n      mstore\n        /* \"#utility.yul\":1437:1455   */\n      0x24\n      add\n        /* \"@openzeppelin/contracts/access/Ownable.sol\":1901:1941  OwnableUnauthorizedAccount(_msgSender()) */\n      tag_133\n        /* \"#utility.yul\":1318:1521   */\n      jump\n        /* \"@openzeppelin/contracts/access/Ownable.sol\":2912:3099  function _transferOwnership(address newOwner) internal virtual {... */\n    tag_152:\n        /* \"@openzeppelin/contracts/access/Ownable.sol\":3004:3010  _owner */\n      0x06\n      dup1\n      sload\n      sub(shl(0xa0, 0x01), 0x01)\n        /* \"@openzeppelin/contracts/access/Ownable.sol\":3020:3037  _owner = newOwner */\n      dup4\n      dup2\n      and\n      not(sub(shl(0xa0, 0x01), 0x01))\n      dup4\n      and\n      dup2\n      or\n      swap1\n      swap4\n      sstore\n        /* \"@openzeppelin/contracts/access/Ownable.sol\":3052:3092  OwnershipTransferred(oldOwner, newOwner) */\n      mload(0x40)\n        /* \"@openzeppelin/contracts/access/Ownable.sol\":3004:3010  _owner */\n      swap2\n      and\n      swap2\n        /* \"@openzeppelin/contracts/access/Ownable.sol\":3020:3037  _owner = newOwner */\n      swap1\n        /* \"@openzeppelin/contracts/access/Ownable.sol\":3004:3010  _owner */\n      dup3\n      swap1\n        /* \"@openzeppelin/contracts/access/Ownable.sol\":3052:3092  OwnershipTransferred(oldOwner, newOwner) */\n      0x8be0079c531659141344cd1fd0a4f28419497f9722a3daafe3b4186f6b6457e0\n      swap1\n        /* \"@openzeppelin/contracts/access/Ownable.sol\":2985:3001  address oldOwner */\n      0x00\n      swap1\n        /* \"@openzeppelin/contracts/access/Ownable.sol\":3052:3092  OwnershipTransferred(oldOwner, newOwner) */\n      log3\n        /* \"@openzeppelin/contracts/access/Ownable.sol\":2975:3099  {... */\n      pop\n        /* \"@openzeppelin/contracts/access/Ownable.sol\":2912:3099  function _transferOwnership(address newOwner) internal virtual {... */\n      pop\n      jump\t// out\n        /* \"@openzeppelin/contracts/token/ERC721/ERC721.sol\":9955:10282  function _mint(address to, uint256 tokenId) internal {... */\n    tag_174:\n      sub(shl(0xa0, 0x01), 0x01)\n        /* \"@openzeppelin/contracts/token/ERC721/ERC721.sol\":10022:10038  to == address(0) */\n      dup3\n      and\n        /* \"@openzeppelin/contracts/token/ERC721/ERC721.sol\":10018:10105  if (to == address(0)) {... */\n      tag_294\n      jumpi\n        /* \"@openzeppelin/contracts/token/ERC721/ERC721.sol\":10061:10094  ERC721InvalidReceiver(address(0)) */\n      mload(0x40)\n      shl(0xe1, 0x32505749)\n      dup2\n      mstore\n        /* \"@openzeppelin/contracts/token/ERC721/ERC721.sol\":10091:10092  0 */\n      0x00\n        /* \"@openzeppelin/contracts/token/ERC721/ERC721.sol\":10061:10094  ERC721InvalidReceiver(address(0)) */\n      0x04\n      dup3\n      add\n        /* \"#utility.yul\":1464:1515   */\n      mstore\n        /* \"#utility.yul\":1437:1455   */\n      0x24\n      add\n        /* \"@openzeppelin/contracts/token/ERC721/ERC721.sol\":10061:10094  ERC721InvalidReceiver(address(0)) */\n      tag_133\n        /* \"#utility.yul\":1318:1521   */\n      jump\n        /* \"@openzeppelin/contracts/token/ERC721/ERC721.sol\":10018:10105  if (to == address(0)) {... */\n    tag_294:\n        /* \"@openzeppelin/contracts/token/ERC721/ERC721.sol\":10114:10135  address previousOwner */\n      0x00\n        /* \"@openzeppelin/contracts/token/ERC721/ERC721.sol\":10138:10170  _update(to, tokenId, address(0)) */\n      tag_296\n        /* \"@openzeppelin/contracts/token/ERC721/ERC721.sol\":10146:10148  to */\n      dup4\n        /* \"@openzeppelin/contracts/token/ERC721/ERC721.sol\":10150:10157  tokenId */\n      dup4\n        /* \"@openzeppelin/contracts/token/ERC721/ERC721.sol\":10167:10168  0 */\n      0x00\n        /* \"@openzeppelin/contracts/token/ERC721/ERC721.sol\":10138:10145  _update */\n      tag_136\n        /* \"@openzeppelin/contracts/token/ERC721/ERC721.sol\":10138:10170  _update(to, tokenId, address(0)) */\n      jump\t// in\n    tag_296:\n        /* \"@openzeppelin/contracts/token/ERC721/ERC721.sol\":10114:10170  address previousOwner = _update(to, tokenId, address(0)) */\n      swap1\n      pop\n      sub(shl(0xa0, 0x01), 0x01)\n        /* \"@openzeppelin/contracts/token/ERC721/ERC721.sol\":10184:10211  previousOwner != address(0) */\n      dup2\n      and\n      iszero\n        /* \"@openzeppelin/contracts/token/ERC721/ERC721.sol\":10180:10276  if (previousOwner != address(0)) {... */\n      tag_141\n      jumpi\n        /* \"@openzeppelin/contracts/token/ERC721/ERC721.sol\":10234:10265  ERC721InvalidSender(address(0)) */\n      mload(0x40)\n      shl(0xe1, 0x39e35637)\n      dup2\n      mstore\n        /* \"@openzeppelin/contracts/token/ERC721/ERC721.sol\":10262:10263  0 */\n      0x00\n        /* \"@openzeppelin/contracts/token/ERC721/ERC721.sol\":10234:10265  ERC721InvalidSender(address(0)) */\n      0x04\n      dup3\n      add\n        /* \"#utility.yul\":1464:1515   */\n      mstore\n        /* \"#utility.yul\":1437:1455   */\n      0x24\n      add\n        /* \"@openzeppelin/contracts/token/ERC721/ERC721.sol\":10234:10265  ERC721InvalidSender(address(0)) */\n      tag_133\n        /* \"#utility.yul\":1318:1521   */\n      jump\n        /* \"@openzeppelin/contracts/token/ERC721/ERC721.sol\":15591:15903  function _setApprovalForAll(address owner, address operator, bool approved) internal virtual {... */\n    tag_210:\n      sub(shl(0xa0, 0x01), 0x01)\n        /* \"@openzeppelin/contracts/token/ERC721/ERC721.sol\":15698:15720  operator == address(0) */\n      dup3\n      and\n        /* \"@openzeppelin/contracts/token/ERC721/ERC721.sol\":15694:15785  if (operator == address(0)) {... */\n      tag_300\n      jumpi\n        /* \"@openzeppelin/contracts/token/ERC721/ERC721.sol\":15743:15774  ERC721InvalidOperator(operator) */\n      mload(0x40)\n      shl(0xe3, 0x0b611743)\n      dup2\n      mstore\n      sub(shl(0xa0, 0x01), 0x01)\n        /* \"#utility.yul\":1482:1514   */\n      dup4\n      and\n        /* \"@openzeppelin/contracts/token/ERC721/ERC721.sol\":15743:15774  ERC721InvalidOperator(operator) */\n      0x04\n      dup3\n      add\n        /* \"#utility.yul\":1464:1515   */\n      mstore\n        /* \"#utility.yul\":1437:1455   */\n      0x24\n      add\n        /* \"@openzeppelin/contracts/token/ERC721/ERC721.sol\":15743:15774  ERC721InvalidOperator(operator) */\n      tag_133\n        /* \"#utility.yul\":1318:1521   */\n      jump\n        /* \"@openzeppelin/contracts/token/ERC721/ERC721.sol\":15694:15785  if (operator == address(0)) {... */\n    tag_300:\n      sub(shl(0xa0, 0x01), 0x01)\n        /* \"@openzeppelin/contracts/token/ERC721/ERC721.sol\":15794:15819  _operatorApprovals[owner] */\n      dup4\n      dup2\n      and\n      0x00\n      dup2\n      dup2\n      mstore\n        /* \"@openzeppelin/contracts/token/ERC721/ERC721.sol\":15794:15812  _operatorApprovals */\n      0x05\n        /* \"@openzeppelin/contracts/token/ERC721/ERC721.sol\":15794:15819  _operatorApprovals[owner] */\n      0x20\n      swap1\n      dup2\n      mstore\n      0x40\n      dup1\n      dup4\n      keccak256\n        /* \"@openzeppelin/contracts/token/ERC721/ERC721.sol\":15794:15829  _operatorApprovals[owner][operator] */\n      swap5\n      dup8\n      and\n      dup1\n      dup5\n      mstore\n      swap5\n      dup3\n      mstore\n      swap2\n      dup3\n      swap1\n      keccak256\n        /* \"@openzeppelin/contracts/token/ERC721/ERC721.sol\":15794:15840  _operatorApprovals[owner][operator] = approved */\n      dup1\n      sload\n      not(0xff)\n      and\n      dup7\n      iszero\n      iszero\n      swap1\n      dup2\n      or\n      swap1\n      swap2\n      sstore\n        /* \"@openzeppelin/contracts/token/ERC721/ERC721.sol\":15855:15896  ApprovalForAll(owner, operator, approved) */\n      swap2\n      mload\n        /* \"#utility.yul\":540:581   */\n      swap2\n      dup3\n      mstore\n        /* \"@openzeppelin/contracts/token/ERC721/ERC721.sol\":15855:15896  ApprovalForAll(owner, operator, approved) */\n      0x17307eab39ab6107e8899845ad3d59bd9653f200f220920489ca2b5937696c31\n      swap2\n        /* \"#utility.yul\":513:531   */\n      add\n        /* \"@openzeppelin/contracts/token/ERC721/ERC721.sol\":15855:15896  ApprovalForAll(owner, operator, approved) */\n      mload(0x40)\n      dup1\n      swap2\n      sub\n      swap1\n      log3\n        /* \"@openzeppelin/contracts/token/ERC721/ERC721.sol\":15591:15903  function _setApprovalForAll(address owner, address operator, bool approved) internal virtual {... */\n      pop\n      pop\n      pop\n      jump\t// out\n        /* \"@openzeppelin/contracts/token/ERC721/ERC721.sol\":16918:17700  function _checkOnERC721Received(address from, address to, uint256 tokenId, bytes memory data) private {... */\n    tag_249:\n      sub(shl(0xa0, 0x01), 0x01)\n        /* \"@openzeppelin/contracts/token/ERC721/ERC721.sol\":17034:17048  to.code.length */\n      dup4\n      and\n      extcodesize\n        /* \"@openzeppelin/contracts/token/ERC721/ERC721.sol\":17034:17052  to.code.length > 0 */\n      iszero\n        /* \"@openzeppelin/contracts/token/ERC721/ERC721.sol\":17030:17694  if (to.code.length > 0) {... */\n      tag_137\n      jumpi\n        /* \"@openzeppelin/contracts/token/ERC721/ERC721.sol\":17072:17143  IERC721Receiver(to).onERC721Received(_msgSender(), from, tokenId, data) */\n      mload(0x40)\n      shl(0xe1, 0x0a85bd01)\n      dup2\n      mstore\n      sub(shl(0xa0, 0x01), 0x01)\n        /* \"@openzeppelin/contracts/token/ERC721/ERC721.sol\":17072:17108  IERC721Receiver(to).onERC721Received */\n      dup5\n      and\n      swap1\n      0x150b7a02\n      swap1\n        /* \"@openzeppelin/contracts/token/ERC721/ERC721.sol\":17072:17143  IERC721Receiver(to).onERC721Received(_msgSender(), from, tokenId, data) */\n      tag_306\n      swap1\n        /* \"@openzeppelin/contracts/utils/Context.sol\":735:745  msg.sender */\n      caller\n      swap1\n        /* \"@openzeppelin/contracts/token/ERC721/ERC721.sol\":17123:17127  from */\n      dup9\n      swap1\n        /* \"@openzeppelin/contracts/token/ERC721/ERC721.sol\":17129:17136  tokenId */\n      dup8\n      swap1\n        /* \"@openzeppelin/contracts/token/ERC721/ERC721.sol\":17138:17142  data */\n      dup8\n      swap1\n        /* \"@openzeppelin/contracts/token/ERC721/ERC721.sol\":17072:17143  IERC721Receiver(to).onERC721Received(_msgSender(), from, tokenId, data) */\n      0x04\n      add\n      tag_307\n      jump\t// in\n    tag_306:\n      0x20\n      mload(0x40)\n      dup1\n      dup4\n      sub\n      dup2\n      0x00\n      dup8\n      gas\n      call\n      swap3\n      pop\n      pop\n      pop\n      dup1\n      iszero\n      tag_308\n      jumpi\n      pop\n      0x40\n      dup1\n      mload\n      0x1f\n      returndatasize\n      swap1\n      dup2\n      add\n      not(0x1f)\n      and\n      dup3\n      add\n      swap1\n      swap3\n      mstore\n      tag_309\n      swap2\n      dup2\n      add\n      swap1\n      tag_310\n      jump\t// in\n    tag_309:\n      0x01\n    tag_308:\n        /* \"@openzeppelin/contracts/token/ERC721/ERC721.sol\":17068:17684  try IERC721Receiver(to).onERC721Received(_msgSender(), from, tokenId, data) returns (bytes4 retval) {... */\n      tag_311\n      jumpi\n      returndatasize\n      dup1\n      dup1\n      iszero\n      tag_316\n      jumpi\n      mload(0x40)\n      swap2\n      pop\n      and(add(returndatasize, 0x3f), not(0x1f))\n      dup3\n      add\n      0x40\n      mstore\n      returndatasize\n      dup3\n      mstore\n      returndatasize\n      0x00\n      0x20\n      dup5\n      add\n      returndatacopy\n      jump(tag_315)\n    tag_316:\n      0x60\n      swap2\n      pop\n    tag_315:\n      pop\n        /* \"@openzeppelin/contracts/token/ERC721/ERC721.sol\":17381:17387  reason */\n      dup1\n        /* \"@openzeppelin/contracts/token/ERC721/ERC721.sol\":17381:17394  reason.length */\n      mload\n        /* \"@openzeppelin/contracts/token/ERC721/ERC721.sol\":17398:17399  0 */\n      0x00\n        /* \"@openzeppelin/contracts/token/ERC721/ERC721.sol\":17381:17399  reason.length == 0 */\n      sub\n        /* \"@openzeppelin/contracts/token/ERC721/ERC721.sol\":17377:17670  if (reason.length == 0) {... */\n      tag_317\n      jumpi\n        /* \"@openzeppelin/contracts/token/ERC721/ERC721.sol\":17430:17455  ERC721InvalidReceiver(to) */\n      mload(0x40)\n      shl(0xe1, 0x32505749)\n      dup2\n      mstore\n      sub(shl(0xa0, 0x01), 0x01)\n        /* \"#utility.yul\":1482:1514   */\n      dup6\n      and\n        /* \"@openzeppelin/contracts/token/ERC721/ERC721.sol\":17430:17455  ERC721InvalidReceiver(to) */\n      0x04\n      dup3\n      add\n        /* \"#utility.yul\":1464:1515   */\n      mstore\n        /* \"#utility.yul\":1437:1455   */\n      0x24\n      add\n        /* \"@openzeppelin/contracts/token/ERC721/ERC721.sol\":17430:17455  ERC721InvalidReceiver(to) */\n      tag_133\n        /* \"#utility.yul\":1318:1521   */\n      jump\n        /* \"@openzeppelin/contracts/token/ERC721/ERC721.sol\":17377:17670  if (reason.length == 0) {... */\n    tag_317:\n        /* \"@openzeppelin/contracts/token/ERC721/ERC721.sol\":17622:17628  reason */\n      dup1\n        /* \"@openzeppelin/contracts/token/ERC721/ERC721.sol\":17616:17629  mload(reason) */\n      mload\n        /* \"@openzeppelin/contracts/token/ERC721/ERC721.sol\":17607:17613  reason */\n      dup2\n        /* \"@openzeppelin/contracts/token/ERC721/ERC721.sol\":17603:17605  32 */\n      0x20\n        /* \"@openzeppelin/contracts/token/ERC721/ERC721.sol\":17599:17614  add(32, reason) */\n      add\n        /* \"@openzeppelin/contracts/token/ERC721/ERC721.sol\":17592:17630  revert(add(32, reason), mload(reason)) */\n      revert\n        /* \"@openzeppelin/contracts/token/ERC721/ERC721.sol\":17068:17684  try IERC721Receiver(to).onERC721Received(_msgSender(), from, tokenId, data) returns (bytes4 retval) {... */\n    tag_311:\n      not(sub(shl(0xe0, 0x01), 0x01))\n        /* \"@openzeppelin/contracts/token/ERC721/ERC721.sol\":17190:17241  retval != IERC721Receiver.onERC721Received.selector */\n      dup2\n      and\n      shl(0xe1, 0x0a85bd01)\n      eq\n        /* \"@openzeppelin/contracts/token/ERC721/ERC721.sol\":17186:17316  if (retval != IERC721Receiver.onERC721Received.selector) {... */\n      tag_192\n      jumpi\n        /* \"@openzeppelin/contracts/token/ERC721/ERC721.sol\":17272:17297  ERC721InvalidReceiver(to) */\n      mload(0x40)\n      shl(0xe1, 0x32505749)\n      dup2\n      mstore\n      sub(shl(0xa0, 0x01), 0x01)\n        /* \"#utility.yul\":1482:1514   */\n      dup6\n      and\n        /* \"@openzeppelin/contracts/token/ERC721/ERC721.sol\":17272:17297  ERC721InvalidReceiver(to) */\n      0x04\n      dup3\n      add\n        /* \"#utility.yul\":1464:1515   */\n      mstore\n        /* \"#utility.yul\":1437:1455   */\n      0x24\n      add\n        /* \"@openzeppelin/contracts/token/ERC721/ERC721.sol\":17272:17297  ERC721InvalidReceiver(to) */\n      tag_133\n        /* \"#utility.yul\":1318:1521   */\n      jump\n        /* \"@openzeppelin/contracts/utils/Strings.sol\":637:1335  function toString(uint256 value) internal pure returns (string memory) {... */\n    tag_257:\n        /* \"@openzeppelin/contracts/utils/Strings.sol\":693:706  string memory */\n      0x60\n        /* \"@openzeppelin/contracts/utils/Strings.sol\":742:756  uint256 length */\n      0x00\n        /* \"@openzeppelin/contracts/utils/Strings.sol\":759:776  Math.log10(value) */\n      tag_325\n        /* \"@openzeppelin/contracts/utils/Strings.sol\":770:775  value */\n      dup4\n        /* \"@openzeppelin/contracts/utils/Strings.sol\":759:769  Math.log10 */\n      tag_326\n        /* \"@openzeppelin/contracts/utils/Strings.sol\":759:776  Math.log10(value) */\n      jump\t// in\n    tag_325:\n        /* \"@openzeppelin/contracts/utils/Strings.sol\":779:780  1 */\n      0x01\n        /* \"@openzeppelin/contracts/utils/Strings.sol\":759:780  Math.log10(value) + 1 */\n      add\n        /* \"@openzeppelin/contracts/utils/Strings.sol\":742:780  uint256 length = Math.log10(value) + 1 */\n      swap1\n      pop\n        /* \"@openzeppelin/contracts/utils/Strings.sol\":794:814  string memory buffer */\n      0x00\n        /* \"@openzeppelin/contracts/utils/Strings.sol\":828:834  length */\n      dup2\n      sub(shl(0x40, 0x01), 0x01)\n        /* \"@openzeppelin/contracts/utils/Strings.sol\":817:835  new string(length) */\n      dup2\n      gt\n      iszero\n      tag_328\n      jumpi\n      tag_328\n      tag_329\n      jump\t// in\n    tag_328:\n      mload(0x40)\n      swap1\n      dup1\n      dup3\n      mstore\n      dup1\n      0x1f\n      add\n      not(0x1f)\n      and\n      0x20\n      add\n      dup3\n      add\n      0x40\n      mstore\n      dup1\n      iszero\n      tag_330\n      jumpi\n      0x20\n      dup3\n      add\n      dup2\n      dup1\n      calldatasize\n      dup4\n      calldatacopy\n      add\n      swap1\n      pop\n    tag_330:\n      pop\n        /* \"@openzeppelin/contracts/utils/Strings.sol\":794:835  string memory buffer = new string(length) */\n      swap1\n      pop\n        /* \"@openzeppelin/contracts/utils/Strings.sol\":955:983  add(buffer, add(32, length)) */\n      dup2\n      dup2\n      add\n        /* \"@openzeppelin/contracts/utils/Strings.sol\":971:973  32 */\n      0x20\n        /* \"@openzeppelin/contracts/utils/Strings.sol\":955:983  add(buffer, add(32, length)) */\n      add\n        /* \"@openzeppelin/contracts/utils/Strings.sol\":1010:1292  while (true) {... */\n    tag_331:\n      not(0x00)\n        /* \"@openzeppelin/contracts/utils/Strings.sol\":1041:1046  ptr-- */\n      add\n      shl(0x81, 0x181899199a1a9b1b9c1cb0b131b232b3)\n        /* \"@openzeppelin/contracts/utils/Strings.sol\":1175:1177  10 */\n      0x0a\n        /* \"@openzeppelin/contracts/utils/Strings.sol\":1164:1178  mod(value, 10) */\n      dup7\n      mod\n        /* \"@openzeppelin/contracts/utils/Strings.sol\":1159:1191  byte(mod(value, 10), HEX_DIGITS) */\n      byte\n        /* \"@openzeppelin/contracts/utils/Strings.sol\":1041:1046  ptr-- */\n      dup2\n        /* \"@openzeppelin/contracts/utils/Strings.sol\":1146:1192  mstore8(ptr, byte(mod(value, 10), HEX_DIGITS)) */\n      mstore8\n        /* \"@openzeppelin/contracts/utils/Strings.sol\":1236:1238  10 */\n      0x0a\n        /* \"@openzeppelin/contracts/utils/Strings.sol\":1227:1238  value /= 10 */\n      dup6\n      div\n      swap5\n      pop\n        /* \"@openzeppelin/contracts/utils/Strings.sol\":1256:1277  if (value == 0) break */\n      dup5\n        /* \"@openzeppelin/contracts/utils/Strings.sol\":1010:1292  while (true) {... */\n      tag_331\n        /* \"@openzeppelin/contracts/utils/Strings.sol\":1256:1277  if (value == 0) break */\n      jumpi\n      pop\n        /* \"@openzeppelin/contracts/utils/Strings.sol\":1312:1318  buffer */\n      swap4\n        /* \"@openzeppelin/contracts/utils/Strings.sol\":637:1335  function toString(uint256 value) internal pure returns (string memory) {... */\n      swap3\n      pop\n      pop\n      pop\n      jump\t// out\n        /* \"@openzeppelin/contracts/token/ERC721/ERC721.sol\":14720:15382  function _approve(address to, uint256 tokenId, address auth, bool emitEvent) internal virtual {... */\n    tag_277:\n        /* \"@openzeppelin/contracts/token/ERC721/ERC721.sol\":14880:14889  emitEvent */\n      dup1\n        /* \"@openzeppelin/contracts/token/ERC721/ERC721.sol\":14880:14911  emitEvent || auth != address(0) */\n      dup1\n      tag_339\n      jumpi\n      pop\n      sub(shl(0xa0, 0x01), 0x01)\n        /* \"@openzeppelin/contracts/token/ERC721/ERC721.sol\":14893:14911  auth != address(0) */\n      dup3\n      and\n      iszero\n      iszero\n        /* \"@openzeppelin/contracts/token/ERC721/ERC721.sol\":14880:14911  emitEvent || auth != address(0) */\n    tag_339:\n        /* \"@openzeppelin/contracts/token/ERC721/ERC721.sol\":14876:15336  if (emitEvent || auth != address(0)) {... */\n      iszero\n      tag_340\n      jumpi\n        /* \"@openzeppelin/contracts/token/ERC721/ERC721.sol\":14927:14940  address owner */\n      0x00\n        /* \"@openzeppelin/contracts/token/ERC721/ERC721.sol\":14943:14965  _requireOwned(tokenId) */\n      tag_341\n        /* \"@openzeppelin/contracts/token/ERC721/ERC721.sol\":14957:14964  tokenId */\n      dup5\n        /* \"@openzeppelin/contracts/token/ERC721/ERC721.sol\":14943:14956  _requireOwned */\n      tag_123\n        /* \"@openzeppelin/contracts/token/ERC721/ERC721.sol\":14943:14965  _requireOwned(tokenId) */\n      jump\t// in\n    tag_341:\n        /* \"@openzeppelin/contracts/token/ERC721/ERC721.sol\":14927:14965  address owner = _requireOwned(tokenId) */\n      swap1\n      pop\n      sub(shl(0xa0, 0x01), 0x01)\n        /* \"@openzeppelin/contracts/token/ERC721/ERC721.sol\":15093:15111  auth != address(0) */\n      dup4\n      and\n      iszero\n      dup1\n      iszero\n      swap1\n        /* \"@openzeppelin/contracts/token/ERC721/ERC721.sol\":15093:15128  auth != address(0) && owner != auth */\n      tag_342\n      jumpi\n      pop\n        /* \"@openzeppelin/contracts/token/ERC721/ERC721.sol\":15124:15128  auth */\n      dup3\n      sub(shl(0xa0, 0x01), 0x01)\n        /* \"@openzeppelin/contracts/token/ERC721/ERC721.sol\":15115:15128  owner != auth */\n      and\n        /* \"@openzeppelin/contracts/token/ERC721/ERC721.sol\":15115:15120  owner */\n      dup2\n      sub(shl(0xa0, 0x01), 0x01)\n        /* \"@openzeppelin/contracts/token/ERC721/ERC721.sol\":15115:15128  owner != auth */\n      and\n      eq\n      iszero\n        /* \"@openzeppelin/contracts/token/ERC721/ERC721.sol\":15093:15128  auth != address(0) && owner != auth */\n    tag_342:\n        /* \"@openzeppelin/contracts/token/ERC721/ERC721.sol\":15093:15162  auth != address(0) && owner != auth && !isApprovedForAll(owner, auth) */\n      dup1\n      iszero\n      tag_343\n      jumpi\n      pop\n        /* \"@openzeppelin/contracts/token/ERC721/ERC721.sol\":15133:15162  isApprovedForAll(owner, auth) */\n      tag_344\n        /* \"@openzeppelin/contracts/token/ERC721/ERC721.sol\":15150:15155  owner */\n      dup2\n        /* \"@openzeppelin/contracts/token/ERC721/ERC721.sol\":15157:15161  auth */\n      dup5\n        /* \"@openzeppelin/contracts/token/ERC721/ERC721.sol\":15133:15149  isApprovedForAll */\n      tag_104\n        /* \"@openzeppelin/contracts/token/ERC721/ERC721.sol\":15133:15162  isApprovedForAll(owner, auth) */\n      jump\t// in\n    tag_344:\n        /* \"@openzeppelin/contracts/token/ERC721/ERC721.sol\":15132:15162  !isApprovedForAll(owner, auth) */\n      iszero\n        /* \"@openzeppelin/contracts/token/ERC721/ERC721.sol\":15093:15162  auth != address(0) && owner != auth && !isApprovedForAll(owner, auth) */\n    tag_343:\n        /* \"@openzeppelin/contracts/token/ERC721/ERC721.sol\":15089:15231  if (auth != address(0) && owner != auth && !isApprovedForAll(owner, auth)) {... */\n      iszero\n      tag_345\n      jumpi\n        /* \"@openzeppelin/contracts/token/ERC721/ERC721.sol\":15189:15216  ERC721InvalidApprover(auth) */\n      mload(0x40)\n      shl(0xe0, 0xa9fbf51f)\n      dup2\n      mstore\n      sub(shl(0xa0, 0x01), 0x01)\n        /* \"#utility.yul\":1482:1514   */\n      dup5\n      and\n        /* \"@openzeppelin/contracts/token/ERC721/ERC721.sol\":15189:15216  ERC721InvalidApprover(auth) */\n      0x04\n      dup3\n      add\n        /* \"#utility.yul\":1464:1515   */\n      mstore\n        /* \"#utility.yul\":1437:1455   */\n      0x24\n      add\n        /* \"@openzeppelin/contracts/token/ERC721/ERC721.sol\":15189:15216  ERC721InvalidApprover(auth) */\n      tag_133\n        /* \"#utility.yul\":1318:1521   */\n      jump\n        /* \"@openzeppelin/contracts/token/ERC721/ERC721.sol\":15089:15231  if (auth != address(0) && owner != auth && !isApprovedForAll(owner, auth)) {... */\n    tag_345:\n        /* \"@openzeppelin/contracts/token/ERC721/ERC721.sol\":15249:15258  emitEvent */\n      dup2\n        /* \"@openzeppelin/contracts/token/ERC721/ERC721.sol\":15245:15326  if (emitEvent) {... */\n      iszero\n      tag_347\n      jumpi\n        /* \"@openzeppelin/contracts/token/ERC721/ERC721.sol\":15303:15310  tokenId */\n      dup4\n        /* \"@openzeppelin/contracts/token/ERC721/ERC721.sol\":15299:15301  to */\n      dup6\n      sub(shl(0xa0, 0x01), 0x01)\n        /* \"@openzeppelin/contracts/token/ERC721/ERC721.sol\":15283:15311  Approval(owner, to, tokenId) */\n      and\n        /* \"@openzeppelin/contracts/token/ERC721/ERC721.sol\":15292:15297  owner */\n      dup3\n      sub(shl(0xa0, 0x01), 0x01)\n        /* \"@openzeppelin/contracts/token/ERC721/ERC721.sol\":15283:15311  Approval(owner, to, tokenId) */\n      and\n      0x8c5be1e5ebec7d5bd14f71427d1e84f3dd0314c0f7b2291e5b200ac8c7c3b925\n      mload(0x40)\n      mload(0x40)\n      dup1\n      swap2\n      sub\n      swap1\n      log4\n        /* \"@openzeppelin/contracts/token/ERC721/ERC721.sol\":15245:15326  if (emitEvent) {... */\n    tag_347:\n        /* \"@openzeppelin/contracts/token/ERC721/ERC721.sol\":14913:15336  {... */\n      pop\n        /* \"@openzeppelin/contracts/token/ERC721/ERC721.sol\":14876:15336  if (emitEvent || auth != address(0)) {... */\n    tag_340:\n      pop\n      pop\n        /* \"@openzeppelin/contracts/token/ERC721/ERC721.sol\":15346:15370  _tokenApprovals[tokenId] */\n      0x00\n      swap1\n      dup2\n      mstore\n        /* \"@openzeppelin/contracts/token/ERC721/ERC721.sol\":15346:15361  _tokenApprovals */\n      0x04\n        /* \"@openzeppelin/contracts/token/ERC721/ERC721.sol\":15346:15370  _tokenApprovals[tokenId] */\n      0x20\n      mstore\n      0x40\n      swap1\n      keccak256\n        /* \"@openzeppelin/contracts/token/ERC721/ERC721.sol\":15346:15375  _tokenApprovals[tokenId] = to */\n      dup1\n      sload\n      not(sub(shl(0xa0, 0x01), 0x01))\n      and\n      sub(shl(0xa0, 0x01), 0x01)\n      swap3\n      swap1\n      swap3\n      and\n      swap2\n      swap1\n      swap2\n      or\n      swap1\n      sstore\n        /* \"@openzeppelin/contracts/token/ERC721/ERC721.sol\":14720:15382  function _approve(address to, uint256 tokenId, address auth, bool emitEvent) internal virtual {... */\n      jump\t// out\n        /* \"@openzeppelin/contracts/token/ERC721/ERC721.sol\":7082:7450  function _checkAuthorized(address owner, address spender, uint256 tokenId) internal view virtual {... */\n    tag_282:\n        /* \"@openzeppelin/contracts/token/ERC721/ERC721.sol\":7194:7232  _isAuthorized(owner, spender, tokenId) */\n      tag_349\n        /* \"@openzeppelin/contracts/token/ERC721/ERC721.sol\":7208:7213  owner */\n      dup4\n        /* \"@openzeppelin/contracts/token/ERC721/ERC721.sol\":7215:7222  spender */\n      dup4\n        /* \"@openzeppelin/contracts/token/ERC721/ERC721.sol\":7224:7231  tokenId */\n      dup4\n        /* \"@openzeppelin/contracts/token/ERC721/ERC721.sol\":7194:7207  _isAuthorized */\n      tag_350\n        /* \"@openzeppelin/contracts/token/ERC721/ERC721.sol\":7194:7232  _isAuthorized(owner, spender, tokenId) */\n      jump\t// in\n    tag_349:\n        /* \"@openzeppelin/contracts/token/ERC721/ERC721.sol\":7189:7444  if (!_isAuthorized(owner, spender, tokenId)) {... */\n      tag_141\n      jumpi\n      sub(shl(0xa0, 0x01), 0x01)\n        /* \"@openzeppelin/contracts/token/ERC721/ERC721.sol\":7252:7271  owner == address(0) */\n      dup4\n      and\n        /* \"@openzeppelin/contracts/token/ERC721/ERC721.sol\":7248:7434  if (owner == address(0)) {... */\n      tag_352\n      jumpi\n        /* \"@openzeppelin/contracts/token/ERC721/ERC721.sol\":7298:7329  ERC721NonexistentToken(tokenId) */\n      mload(0x40)\n      shl(0xe0, 0x7e273289)\n      dup2\n      mstore\n      0x04\n      dup2\n      add\n        /* \"#utility.yul\":2633:2658   */\n      dup3\n      swap1\n      mstore\n        /* \"#utility.yul\":2606:2624   */\n      0x24\n      add\n        /* \"@openzeppelin/contracts/token/ERC721/ERC721.sol\":7298:7329  ERC721NonexistentToken(tokenId) */\n      tag_133\n        /* \"#utility.yul\":2487:2664   */\n      jump\n        /* \"@openzeppelin/contracts/token/ERC721/ERC721.sol\":7248:7434  if (owner == address(0)) {... */\n    tag_352:\n        /* \"@openzeppelin/contracts/token/ERC721/ERC721.sol\":7375:7419  ERC721InsufficientApproval(spender, tokenId) */\n      mload(0x40)\n      shl(0xe0, 0x177e802f)\n      dup2\n      mstore\n      sub(shl(0xa0, 0x01), 0x01)\n        /* \"#utility.yul\":19503:19535   */\n      dup4\n      and\n        /* \"@openzeppelin/contracts/token/ERC721/ERC721.sol\":7375:7419  ERC721InsufficientApproval(spender, tokenId) */\n      0x04\n      dup3\n      add\n        /* \"#utility.yul\":19485:19536   */\n      mstore\n        /* \"#utility.yul\":19552:19570   */\n      0x24\n      dup2\n      add\n        /* \"#utility.yul\":19545:19579   */\n      dup3\n      swap1\n      mstore\n        /* \"#utility.yul\":19458:19476   */\n      0x44\n      add\n        /* \"@openzeppelin/contracts/token/ERC721/ERC721.sol\":7375:7419  ERC721InsufficientApproval(spender, tokenId) */\n      tag_133\n        /* \"#utility.yul\":19311:19585   */\n      jump\n        /* \"@openzeppelin/contracts/utils/math/Math.sol\":12214:13130  function log10(uint256 value) internal pure returns (uint256) {... */\n    tag_326:\n        /* \"@openzeppelin/contracts/utils/math/Math.sol\":12267:12274  uint256 */\n      0x00\n      dup1\n      shl(0x40, 0x184f03e93ff9f4daa797ed6e38ed64bf6a1f01)\n        /* \"@openzeppelin/contracts/utils/math/Math.sol\":12342:12359  value >= 10 ** 64 */\n      dup4\n      lt\n        /* \"@openzeppelin/contracts/utils/math/Math.sol\":12338:12441  if (value >= 10 ** 64) {... */\n      tag_358\n      jumpi\n      shl(0x40, 0x184f03e93ff9f4daa797ed6e38ed64bf6a1f01)\n        /* \"@openzeppelin/contracts/utils/math/Math.sol\":12379:12396  value /= 10 ** 64 */\n      dup4\n      div\n      swap3\n      pop\n        /* \"@openzeppelin/contracts/utils/math/Math.sol\":12424:12426  64 */\n      0x40\n        /* \"@openzeppelin/contracts/utils/math/Math.sol\":12414:12426  result += 64 */\n      add\n        /* \"@openzeppelin/contracts/utils/math/Math.sol\":12338:12441  if (value >= 10 ** 64) {... */\n    tag_358:\n        /* \"@openzeppelin/contracts/utils/math/Math.sol\":12467:12475  10 ** 32 */\n      0x04ee2d6d415b85acef8100000000\n        /* \"@openzeppelin/contracts/utils/math/Math.sol\":12458:12463  value */\n      dup4\n        /* \"@openzeppelin/contracts/utils/math/Math.sol\":12458:12475  value >= 10 ** 32 */\n      lt\n        /* \"@openzeppelin/contracts/utils/math/Math.sol\":12454:12557  if (value >= 10 ** 32) {... */\n      tag_361\n      jumpi\n        /* \"@openzeppelin/contracts/utils/math/Math.sol\":12504:12512  10 ** 32 */\n      0x04ee2d6d415b85acef8100000000\n        /* \"@openzeppelin/contracts/utils/math/Math.sol\":12495:12512  value /= 10 ** 32 */\n      dup4\n      div\n      swap3\n      pop\n        /* \"@openzeppelin/contracts/utils/math/Math.sol\":12540:12542  32 */\n      0x20\n        /* \"@openzeppelin/contracts/utils/math/Math.sol\":12530:12542  result += 32 */\n      add\n        /* \"@openzeppelin/contracts/utils/math/Math.sol\":12454:12557  if (value >= 10 ** 32) {... */\n    tag_361:\n        /* \"@openzeppelin/contracts/utils/math/Math.sol\":12583:12591  10 ** 16 */\n      0x2386f26fc10000\n        /* \"@openzeppelin/contracts/utils/math/Math.sol\":12574:12579  value */\n      dup4\n        /* \"@openzeppelin/contracts/utils/math/Math.sol\":12574:12591  value >= 10 ** 16 */\n      lt\n        /* \"@openzeppelin/contracts/utils/math/Math.sol\":12570:12673  if (value >= 10 ** 16) {... */\n      tag_364\n      jumpi\n        /* \"@openzeppelin/contracts/utils/math/Math.sol\":12620:12628  10 ** 16 */\n      0x2386f26fc10000\n        /* \"@openzeppelin/contracts/utils/math/Math.sol\":12611:12628  value /= 10 ** 16 */\n      dup4\n      div\n      swap3\n      pop\n        /* \"@openzeppelin/contracts/utils/math/Math.sol\":12656:12658  16 */\n      0x10\n        /* \"@openzeppelin/contracts/utils/math/Math.sol\":12646:12658  result += 16 */\n      add\n        /* \"@openzeppelin/contracts/utils/math/Math.sol\":12570:12673  if (value >= 10 ** 16) {... */\n    tag_364:\n        /* \"@openzeppelin/contracts/utils/math/Math.sol\":12699:12706  10 ** 8 */\n      0x05f5e100\n        /* \"@openzeppelin/contracts/utils/math/Math.sol\":12690:12695  value */\n      dup4\n        /* \"@openzeppelin/contracts/utils/math/Math.sol\":12690:12706  value >= 10 ** 8 */\n      lt\n        /* \"@openzeppelin/contracts/utils/math/Math.sol\":12686:12786  if (value >= 10 ** 8) {... */\n      tag_367\n      jumpi\n        /* \"@openzeppelin/contracts/utils/math/Math.sol\":12735:12742  10 ** 8 */\n      0x05f5e100\n        /* \"@openzeppelin/contracts/utils/math/Math.sol\":12726:12742  value /= 10 ** 8 */\n      dup4\n      div\n      swap3\n      pop\n        /* \"@openzeppelin/contracts/utils/math/Math.sol\":12770:12771  8 */\n      0x08\n        /* \"@openzeppelin/contracts/utils/math/Math.sol\":12760:12771  result += 8 */\n      add\n        /* \"@openzeppelin/contracts/utils/math/Math.sol\":12686:12786  if (value >= 10 ** 8) {... */\n    tag_367:\n        /* \"@openzeppelin/contracts/utils/math/Math.sol\":12812:12819  10 ** 4 */\n      0x2710\n        /* \"@openzeppelin/contracts/utils/math/Math.sol\":12803:12808  value */\n      dup4\n        /* \"@openzeppelin/contracts/utils/math/Math.sol\":12803:12819  value >= 10 ** 4 */\n      lt\n        /* \"@openzeppelin/contracts/utils/math/Math.sol\":12799:12899  if (value >= 10 ** 4) {... */\n      tag_370\n      jumpi\n        /* \"@openzeppelin/contracts/utils/math/Math.sol\":12848:12855  10 ** 4 */\n      0x2710\n        /* \"@openzeppelin/contracts/utils/math/Math.sol\":12839:12855  value /= 10 ** 4 */\n      dup4\n      div\n      swap3\n      pop\n        /* \"@openzeppelin/contracts/utils/math/Math.sol\":12883:12884  4 */\n      0x04\n        /* \"@openzeppelin/contracts/utils/math/Math.sol\":12873:12884  result += 4 */\n      add\n        /* \"@openzeppelin/contracts/utils/math/Math.sol\":12799:12899  if (value >= 10 ** 4) {... */\n    tag_370:\n        /* \"@openzeppelin/contracts/utils/math/Math.sol\":12925:12932  10 ** 2 */\n      0x64\n        /* \"@openzeppelin/contracts/utils/math/Math.sol\":12916:12921  value */\n      dup4\n        /* \"@openzeppelin/contracts/utils/math/Math.sol\":12916:12932  value >= 10 ** 2 */\n      lt\n        /* \"@openzeppelin/contracts/utils/math/Math.sol\":12912:13012  if (value >= 10 ** 2) {... */\n      tag_373\n      jumpi\n        /* \"@openzeppelin/contracts/utils/math/Math.sol\":12961:12968  10 ** 2 */\n      0x64\n        /* \"@openzeppelin/contracts/utils/math/Math.sol\":12952:12968  value /= 10 ** 2 */\n      dup4\n      div\n      swap3\n      pop\n        /* \"@openzeppelin/contracts/utils/math/Math.sol\":12996:12997  2 */\n      0x02\n        /* \"@openzeppelin/contracts/utils/math/Math.sol\":12986:12997  result += 2 */\n      add\n        /* \"@openzeppelin/contracts/utils/math/Math.sol\":12912:13012  if (value >= 10 ** 2) {... */\n    tag_373:\n        /* \"@openzeppelin/contracts/utils/math/Math.sol\":13038:13045  10 ** 1 */\n      0x0a\n        /* \"@openzeppelin/contracts/utils/math/Math.sol\":13029:13034  value */\n      dup4\n        /* \"@openzeppelin/contracts/utils/math/Math.sol\":13029:13045  value >= 10 ** 1 */\n      lt\n        /* \"@openzeppelin/contracts/utils/math/Math.sol\":13025:13091  if (value >= 10 ** 1) {... */\n      tag_112\n      jumpi\n        /* \"@openzeppelin/contracts/utils/math/Math.sol\":13075:13076  1 */\n      0x01\n        /* \"@openzeppelin/contracts/utils/math/Math.sol\":13065:13076  result += 1 */\n      add\n        /* \"@openzeppelin/contracts/utils/math/Math.sol\":13117:13123  result */\n      swap3\n        /* \"@openzeppelin/contracts/utils/math/Math.sol\":12214:13130  function log10(uint256 value) internal pure returns (uint256) {... */\n      swap2\n      pop\n      pop\n      jump\t// out\n        /* \"@openzeppelin/contracts/token/ERC721/ERC721.sol\":6376:6648  function _isAuthorized(address owner, address spender, uint256 tokenId) internal view virtual returns (bool) {... */\n    tag_350:\n        /* \"@openzeppelin/contracts/token/ERC721/ERC721.sol\":6479:6483  bool */\n      0x00\n      sub(shl(0xa0, 0x01), 0x01)\n        /* \"@openzeppelin/contracts/token/ERC721/ERC721.sol\":6514:6535  spender != address(0) */\n      dup4\n      and\n      iszero\n      dup1\n      iszero\n      swap1\n        /* \"@openzeppelin/contracts/token/ERC721/ERC721.sol\":6514:6641  spender != address(0) &&... */\n      tag_381\n      jumpi\n      pop\n        /* \"@openzeppelin/contracts/token/ERC721/ERC721.sol\":6561:6568  spender */\n      dup3\n      sub(shl(0xa0, 0x01), 0x01)\n        /* \"@openzeppelin/contracts/token/ERC721/ERC721.sol\":6552:6568  owner == spender */\n      and\n        /* \"@openzeppelin/contracts/token/ERC721/ERC721.sol\":6552:6557  owner */\n      dup5\n      sub(shl(0xa0, 0x01), 0x01)\n        /* \"@openzeppelin/contracts/token/ERC721/ERC721.sol\":6552:6568  owner == spender */\n      and\n      eq\n        /* \"@openzeppelin/contracts/token/ERC721/ERC721.sol\":6552:6604  owner == spender || isApprovedForAll(owner, spender) */\n      dup1\n      tag_380\n      jumpi\n      pop\n        /* \"@openzeppelin/contracts/token/ERC721/ERC721.sol\":6572:6604  isApprovedForAll(owner, spender) */\n      tag_380\n        /* \"@openzeppelin/contracts/token/ERC721/ERC721.sol\":6589:6594  owner */\n      dup5\n        /* \"@openzeppelin/contracts/token/ERC721/ERC721.sol\":6596:6603  spender */\n      dup5\n        /* \"@openzeppelin/contracts/token/ERC721/ERC721.sol\":6572:6588  isApprovedForAll */\n      tag_104\n        /* \"@openzeppelin/contracts/token/ERC721/ERC721.sol\":6572:6604  isApprovedForAll(owner, spender) */\n      jump\t// in\n    tag_380:\n        /* \"@openzeppelin/contracts/token/ERC721/ERC721.sol\":6552:6640  owner == spender || isApprovedForAll(owner, spender) || _getApproved(tokenId) == spender */\n      dup1\n      tag_381\n      jumpi\n      pop\n        /* \"@openzeppelin/contracts/token/ERC721/ERC721.sol\":6008:6015  address */\n      0x00\n        /* \"@openzeppelin/contracts/token/ERC721/ERC721.sol\":6034:6058  _tokenApprovals[tokenId] */\n      dup3\n      dup2\n      mstore\n        /* \"@openzeppelin/contracts/token/ERC721/ERC721.sol\":6034:6049  _tokenApprovals */\n      0x04\n        /* \"@openzeppelin/contracts/token/ERC721/ERC721.sol\":6034:6058  _tokenApprovals[tokenId] */\n      0x20\n      mstore\n      0x40\n      swap1\n      keccak256\n      sload\n      sub(shl(0xa0, 0x01), 0x01)\n        /* \"@openzeppelin/contracts/token/ERC721/ERC721.sol\":6608:6640  _getApproved(tokenId) == spender */\n      dup5\n      dup2\n      and\n        /* \"@openzeppelin/contracts/token/ERC721/ERC721.sol\":6034:6058  _tokenApprovals[tokenId] */\n      swap2\n      and\n        /* \"@openzeppelin/contracts/token/ERC721/ERC721.sol\":6608:6640  _getApproved(tokenId) == spender */\n      eq\n        /* \"@openzeppelin/contracts/token/ERC721/ERC721.sol\":6552:6640  owner == spender || isApprovedForAll(owner, spender) || _getApproved(tokenId) == spender */\n    tag_381:\n        /* \"@openzeppelin/contracts/token/ERC721/ERC721.sol\":6495:6641  return... */\n      swap5\n        /* \"@openzeppelin/contracts/token/ERC721/ERC721.sol\":6376:6648  function _isAuthorized(address owner, address spender, uint256 tokenId) internal view virtual returns (bool) {... */\n      swap4\n      pop\n      pop\n      pop\n      pop\n      jump\t// out\n    tag_217:\n      pop\n      dup1\n      sload\n      0x00\n      dup3\n      sstore\n      swap1\n      0x00\n      mstore\n      keccak256(0x00, 0x20)\n      swap1\n      dup2\n      add\n      swap1\n      tag_266\n      swap2\n      swap1\n    tag_385:\n      dup1\n      dup3\n      gt\n      iszero\n      tag_387\n      jumpi\n      0x00\n      tag_388\n      dup3\n      dup3\n      tag_389\n      jump\t// in\n    tag_388:\n      pop\n      0x01\n      add\n      jump(tag_385)\n    tag_387:\n      pop\n      swap1\n      jump\t// out\n    tag_389:\n      pop\n      dup1\n      sload\n      tag_390\n      swap1\n      tag_116\n      jump\t// in\n    tag_390:\n      0x00\n      dup3\n      sstore\n      dup1\n      0x1f\n      lt\n      tag_392\n      jumpi\n      pop\n      pop\n      jump\t// out\n    tag_392:\n      0x1f\n      add\n      0x20\n      swap1\n      div\n      swap1\n      0x00\n      mstore\n      keccak256(0x00, 0x20)\n      swap1\n      dup2\n      add\n      swap1\n      tag_266\n      swap2\n      swap1\n    tag_395:\n      dup1\n      dup3\n      gt\n      iszero\n      tag_387\n      jumpi\n      0x00\n      dup2\n      sstore\n      0x01\n      add\n      jump(tag_395)\n        /* \"#utility.yul\":14:145   */\n    tag_397:\n      not(sub(shl(0xe0, 0x01), 0x01))\n        /* \"#utility.yul\":88:120   */\n      dup2\n      and\n        /* \"#utility.yul\":78:121   */\n      dup2\n      eq\n        /* \"#utility.yul\":68:139   */\n      tag_266\n      jumpi\n        /* \"#utility.yul\":135:136   */\n      0x00\n        /* \"#utility.yul\":132:133   */\n      dup1\n        /* \"#utility.yul\":125:137   */\n      revert\n        /* \"#utility.yul\":150:395   */\n    tag_28:\n        /* \"#utility.yul\":208:214   */\n      0x00\n        /* \"#utility.yul\":261:263   */\n      0x20\n        /* \"#utility.yul\":249:258   */\n      dup3\n        /* \"#utility.yul\":240:247   */\n      dup5\n        /* \"#utility.yul\":236:259   */\n      sub\n        /* \"#utility.yul\":232:264   */\n      slt\n        /* \"#utility.yul\":229:281   */\n      iszero\n      tag_414\n      jumpi\n        /* \"#utility.yul\":277:278   */\n      0x00\n        /* \"#utility.yul\":274:275   */\n      dup1\n        /* \"#utility.yul\":267:279   */\n      revert\n        /* \"#utility.yul\":229:281   */\n    tag_414:\n        /* \"#utility.yul\":316:325   */\n      dup2\n        /* \"#utility.yul\":303:326   */\n      calldataload\n        /* \"#utility.yul\":335:365   */\n      tag_255\n        /* \"#utility.yul\":359:364   */\n      dup2\n        /* \"#utility.yul\":335:365   */\n      tag_397\n      jump\t// in\n        /* \"#utility.yul\":592:892   */\n    tag_398:\n        /* \"#utility.yul\":645:648   */\n      0x00\n        /* \"#utility.yul\":683:688   */\n      dup2\n        /* \"#utility.yul\":677:689   */\n      mload\n        /* \"#utility.yul\":710:716   */\n      dup1\n        /* \"#utility.yul\":705:708   */\n      dup5\n        /* \"#utility.yul\":698:717   */\n      mstore\n        /* \"#utility.yul\":766:772   */\n      dup1\n        /* \"#utility.yul\":759:763   */\n      0x20\n        /* \"#utility.yul\":752:757   */\n      dup5\n        /* \"#utility.yul\":748:764   */\n      add\n        /* \"#utility.yul\":741:745   */\n      0x20\n        /* \"#utility.yul\":736:739   */\n      dup7\n        /* \"#utility.yul\":732:746   */\n      add\n        /* \"#utility.yul\":726:773   */\n      mcopy\n        /* \"#utility.yul\":818:819   */\n      0x00\n        /* \"#utility.yul\":811:815   */\n      0x20\n        /* \"#utility.yul\":802:808   */\n      dup3\n        /* \"#utility.yul\":797:800   */\n      dup7\n        /* \"#utility.yul\":793:809   */\n      add\n        /* \"#utility.yul\":789:816   */\n      add\n        /* \"#utility.yul\":782:820   */\n      mstore\n        /* \"#utility.yul\":881:885   */\n      0x20\n        /* \"#utility.yul\":874:876   */\n      0x1f\n        /* \"#utility.yul\":870:877   */\n      not\n        /* \"#utility.yul\":865:867   */\n      0x1f\n        /* \"#utility.yul\":857:863   */\n      dup4\n        /* \"#utility.yul\":853:868   */\n      add\n        /* \"#utility.yul\":849:878   */\n      and\n        /* \"#utility.yul\":844:847   */\n      dup6\n        /* \"#utility.yul\":840:879   */\n      add\n        /* \"#utility.yul\":836:886   */\n      add\n        /* \"#utility.yul\":829:886   */\n      swap2\n      pop\n      pop\n        /* \"#utility.yul\":592:892   */\n      swap3\n      swap2\n      pop\n      pop\n      jump\t// out\n        /* \"#utility.yul\":897:1128   */\n    tag_35:\n        /* \"#utility.yul\":1046:1048   */\n      0x20\n        /* \"#utility.yul\":1035:1044   */\n      dup2\n        /* \"#utility.yul\":1028:1049   */\n      mstore\n        /* \"#utility.yul\":1009:1013   */\n      0x00\n        /* \"#utility.yul\":1066:1122   */\n      tag_255\n        /* \"#utility.yul\":1118:1120   */\n      0x20\n        /* \"#utility.yul\":1107:1116   */\n      dup4\n        /* \"#utility.yul\":1103:1121   */\n      add\n        /* \"#utility.yul\":1095:1101   */\n      dup5\n        /* \"#utility.yul\":1066:1122   */\n      tag_398\n      jump\t// in\n        /* \"#utility.yul\":1133:1313   */\n    tag_38:\n        /* \"#utility.yul\":1192:1198   */\n      0x00\n        /* \"#utility.yul\":1245:1247   */\n      0x20\n        /* \"#utility.yul\":1233:1242   */\n      dup3\n        /* \"#utility.yul\":1224:1231   */\n      dup5\n        /* \"#utility.yul\":1220:1243   */\n      sub\n        /* \"#utility.yul\":1216:1248   */\n      slt\n        /* \"#utility.yul\":1213:1265   */\n      iszero\n      tag_421\n      jumpi\n        /* \"#utility.yul\":1261:1262   */\n      0x00\n        /* \"#utility.yul\":1258:1259   */\n      dup1\n        /* \"#utility.yul\":1251:1263   */\n      revert\n        /* \"#utility.yul\":1213:1265   */\n    tag_421:\n      pop\n        /* \"#utility.yul\":1284:1307   */\n      calldataload\n      swap2\n        /* \"#utility.yul\":1133:1313   */\n      swap1\n      pop\n      jump\t// out\n        /* \"#utility.yul\":1526:1699   */\n    tag_399:\n        /* \"#utility.yul\":1594:1614   */\n      dup1\n      calldataload\n      sub(shl(0xa0, 0x01), 0x01)\n        /* \"#utility.yul\":1643:1674   */\n      dup2\n      and\n        /* \"#utility.yul\":1633:1675   */\n      dup2\n      eq\n        /* \"#utility.yul\":1623:1693   */\n      tag_424\n      jumpi\n        /* \"#utility.yul\":1689:1690   */\n      0x00\n        /* \"#utility.yul\":1686:1687   */\n      dup1\n        /* \"#utility.yul\":1679:1691   */\n      revert\n        /* \"#utility.yul\":1623:1693   */\n    tag_424:\n        /* \"#utility.yul\":1526:1699   */\n      swap2\n      swap1\n      pop\n      jump\t// out\n        /* \"#utility.yul\":1704:1958   */\n    tag_44:\n        /* \"#utility.yul\":1772:1778   */\n      0x00\n        /* \"#utility.yul\":1780:1786   */\n      dup1\n        /* \"#utility.yul\":1833:1835   */\n      0x40\n        /* \"#utility.yul\":1821:1830   */\n      dup4\n        /* \"#utility.yul\":1812:1819   */\n      dup6\n        /* \"#utility.yul\":1808:1831   */\n      sub\n        /* \"#utility.yul\":1804:1836   */\n      slt\n        /* \"#utility.yul\":1801:1853   */\n      iszero\n      tag_426\n      jumpi\n        /* \"#utility.yul\":1849:1850   */\n      0x00\n        /* \"#utility.yul\":1846:1847   */\n      dup1\n        /* \"#utility.yul\":1839:1851   */\n      revert\n        /* \"#utility.yul\":1801:1853   */\n    tag_426:\n        /* \"#utility.yul\":1872:1901   */\n      tag_427\n        /* \"#utility.yul\":1891:1900   */\n      dup4\n        /* \"#utility.yul\":1872:1901   */\n      tag_399\n      jump\t// in\n    tag_427:\n        /* \"#utility.yul\":1862:1901   */\n      swap5\n        /* \"#utility.yul\":1948:1950   */\n      0x20\n        /* \"#utility.yul\":1933:1951   */\n      swap4\n      swap1\n      swap4\n      add\n        /* \"#utility.yul\":1920:1952   */\n      calldataload\n      swap4\n      pop\n      pop\n      pop\n        /* \"#utility.yul\":1704:1958   */\n      jump\t// out\n        /* \"#utility.yul\":1963:2291   */\n    tag_48:\n        /* \"#utility.yul\":2040:2046   */\n      0x00\n        /* \"#utility.yul\":2048:2054   */\n      dup1\n        /* \"#utility.yul\":2056:2062   */\n      0x00\n        /* \"#utility.yul\":2109:2111   */\n      0x60\n        /* \"#utility.yul\":2097:2106   */\n      dup5\n        /* \"#utility.yul\":2088:2095   */\n      dup7\n        /* \"#utility.yul\":2084:2107   */\n      sub\n        /* \"#utility.yul\":2080:2112   */\n      slt\n        /* \"#utility.yul\":2077:2129   */\n      iszero\n      tag_429\n      jumpi\n        /* \"#utility.yul\":2125:2126   */\n      0x00\n        /* \"#utility.yul\":2122:2123   */\n      dup1\n        /* \"#utility.yul\":2115:2127   */\n      revert\n        /* \"#utility.yul\":2077:2129   */\n    tag_429:\n        /* \"#utility.yul\":2148:2177   */\n      tag_430\n        /* \"#utility.yul\":2167:2176   */\n      dup5\n        /* \"#utility.yul\":2148:2177   */\n      tag_399\n      jump\t// in\n    tag_430:\n        /* \"#utility.yul\":2138:2177   */\n      swap3\n      pop\n        /* \"#utility.yul\":2196:2234   */\n      tag_431\n        /* \"#utility.yul\":2230:2232   */\n      0x20\n        /* \"#utility.yul\":2219:2228   */\n      dup6\n        /* \"#utility.yul\":2215:2233   */\n      add\n        /* \"#utility.yul\":2196:2234   */\n      tag_399\n      jump\t// in\n    tag_431:\n        /* \"#utility.yul\":2186:2234   */\n      swap2\n      pop\n        /* \"#utility.yul\":2281:2283   */\n      0x40\n        /* \"#utility.yul\":2270:2279   */\n      dup5\n        /* \"#utility.yul\":2266:2284   */\n      add\n        /* \"#utility.yul\":2253:2285   */\n      calldataload\n        /* \"#utility.yul\":2243:2285   */\n      swap1\n      pop\n        /* \"#utility.yul\":1963:2291   */\n      swap3\n      pop\n      swap3\n      pop\n      swap3\n      jump\t// out\n        /* \"#utility.yul\":2296:2482   */\n    tag_59:\n        /* \"#utility.yul\":2355:2361   */\n      0x00\n        /* \"#utility.yul\":2408:2410   */\n      0x20\n        /* \"#utility.yul\":2396:2405   */\n      dup3\n        /* \"#utility.yul\":2387:2394   */\n      dup5\n        /* \"#utility.yul\":2383:2406   */\n      sub\n        /* \"#utility.yul\":2379:2411   */\n      slt\n        /* \"#utility.yul\":2376:2428   */\n      iszero\n      tag_433\n      jumpi\n        /* \"#utility.yul\":2424:2425   */\n      0x00\n        /* \"#utility.yul\":2421:2422   */\n      dup1\n        /* \"#utility.yul\":2414:2426   */\n      revert\n        /* \"#utility.yul\":2376:2428   */\n    tag_433:\n        /* \"#utility.yul\":2447:2476   */\n      tag_255\n        /* \"#utility.yul\":2466:2475   */\n      dup3\n        /* \"#utility.yul\":2447:2476   */\n      tag_399\n      jump\t// in\n        /* \"#utility.yul\":2669:3329   */\n    tag_67:\n        /* \"#utility.yul\":2749:2755   */\n      0x00\n        /* \"#utility.yul\":2757:2763   */\n      dup1\n        /* \"#utility.yul\":2765:2771   */\n      0x00\n        /* \"#utility.yul\":2818:2820   */\n      0x40\n        /* \"#utility.yul\":2806:2815   */\n      dup5\n        /* \"#utility.yul\":2797:2804   */\n      dup7\n        /* \"#utility.yul\":2793:2816   */\n      sub\n        /* \"#utility.yul\":2789:2821   */\n      slt\n        /* \"#utility.yul\":2786:2838   */\n      iszero\n      tag_437\n      jumpi\n        /* \"#utility.yul\":2834:2835   */\n      0x00\n        /* \"#utility.yul\":2831:2832   */\n      dup1\n        /* \"#utility.yul\":2824:2836   */\n      revert\n        /* \"#utility.yul\":2786:2838   */\n    tag_437:\n        /* \"#utility.yul\":2870:2879   */\n      dup4\n        /* \"#utility.yul\":2857:2880   */\n      calldataload\n        /* \"#utility.yul\":2847:2880   */\n      swap3\n      pop\n        /* \"#utility.yul\":2931:2933   */\n      0x20\n        /* \"#utility.yul\":2920:2929   */\n      dup5\n        /* \"#utility.yul\":2916:2934   */\n      add\n        /* \"#utility.yul\":2903:2935   */\n      calldataload\n      sub(shl(0x40, 0x01), 0x01)\n        /* \"#utility.yul\":2995:2997   */\n      dup1\n        /* \"#utility.yul\":2987:2993   */\n      dup3\n        /* \"#utility.yul\":2984:2998   */\n      gt\n        /* \"#utility.yul\":2981:3015   */\n      iszero\n      tag_438\n      jumpi\n        /* \"#utility.yul\":3011:3012   */\n      0x00\n        /* \"#utility.yul\":3008:3009   */\n      dup1\n        /* \"#utility.yul\":3001:3013   */\n      revert\n        /* \"#utility.yul\":2981:3015   */\n    tag_438:\n        /* \"#utility.yul\":3049:3055   */\n      dup2\n        /* \"#utility.yul\":3038:3047   */\n      dup7\n        /* \"#utility.yul\":3034:3056   */\n      add\n        /* \"#utility.yul\":3024:3056   */\n      swap2\n      pop\n        /* \"#utility.yul\":3094:3101   */\n      dup7\n        /* \"#utility.yul\":3087:3091   */\n      0x1f\n        /* \"#utility.yul\":3083:3085   */\n      dup4\n        /* \"#utility.yul\":3079:3092   */\n      add\n        /* \"#utility.yul\":3075:3102   */\n      slt\n        /* \"#utility.yul\":3065:3120   */\n      tag_439\n      jumpi\n        /* \"#utility.yul\":3116:3117   */\n      0x00\n        /* \"#utility.yul\":3113:3114   */\n      dup1\n        /* \"#utility.yul\":3106:3118   */\n      revert\n        /* \"#utility.yul\":3065:3120   */\n    tag_439:\n        /* \"#utility.yul\":3156:3158   */\n      dup2\n        /* \"#utility.yul\":3143:3159   */\n      calldataload\n        /* \"#utility.yul\":3182:3184   */\n      dup2\n        /* \"#utility.yul\":3174:3180   */\n      dup2\n        /* \"#utility.yul\":3171:3185   */\n      gt\n        /* \"#utility.yul\":3168:3202   */\n      iszero\n      tag_440\n      jumpi\n        /* \"#utility.yul\":3198:3199   */\n      0x00\n        /* \"#utility.yul\":3195:3196   */\n      dup1\n        /* \"#utility.yul\":3188:3200   */\n      revert\n        /* \"#utility.yul\":3168:3202   */\n    tag_440:\n        /* \"#utility.yul\":3243:3250   */\n      dup8\n        /* \"#utility.yul\":3238:3240   */\n      0x20\n        /* \"#utility.yul\":3229:3235   */\n      dup3\n        /* \"#utility.yul\":3225:3227   */\n      dup6\n        /* \"#utility.yul\":3221:3236   */\n      add\n        /* \"#utility.yul\":3217:3241   */\n      add\n        /* \"#utility.yul\":3214:3251   */\n      gt\n        /* \"#utility.yul\":3211:3268   */\n      iszero\n      tag_441\n      jumpi\n        /* \"#utility.yul\":3264:3265   */\n      0x00\n        /* \"#utility.yul\":3261:3262   */\n      dup1\n        /* \"#utility.yul\":3254:3266   */\n      revert\n        /* \"#utility.yul\":3211:3268   */\n    tag_441:\n        /* \"#utility.yul\":3295:3297   */\n      0x20\n        /* \"#utility.yul\":3291:3293   */\n      dup4\n        /* \"#utility.yul\":3287:3298   */\n      add\n        /* \"#utility.yul\":3277:3298   */\n      swap5\n      pop\n        /* \"#utility.yul\":3317:3323   */\n      dup1\n        /* \"#utility.yul\":3307:3323   */\n      swap4\n      pop\n      pop\n      pop\n      pop\n        /* \"#utility.yul\":2669:3329   */\n      swap3\n      pop\n      swap3\n      pop\n      swap3\n      jump\t// out\n        /* \"#utility.yul\":3334:4148   */\n    tag_74:\n        /* \"#utility.yul\":3496:3500   */\n      0x00\n        /* \"#utility.yul\":3525:3527   */\n      0x20\n        /* \"#utility.yul\":3565:3567   */\n      dup1\n        /* \"#utility.yul\":3554:3563   */\n      dup4\n        /* \"#utility.yul\":3550:3568   */\n      add\n        /* \"#utility.yul\":3595:3597   */\n      0x20\n        /* \"#utility.yul\":3584:3593   */\n      dup5\n        /* \"#utility.yul\":3577:3598   */\n      mstore\n        /* \"#utility.yul\":3618:3624   */\n      dup1\n        /* \"#utility.yul\":3653:3659   */\n      dup6\n        /* \"#utility.yul\":3647:3660   */\n      mload\n        /* \"#utility.yul\":3684:3690   */\n      dup1\n        /* \"#utility.yul\":3676:3682   */\n      dup4\n        /* \"#utility.yul\":3669:3691   */\n      mstore\n        /* \"#utility.yul\":3722:3724   */\n      0x40\n        /* \"#utility.yul\":3711:3720   */\n      dup7\n        /* \"#utility.yul\":3707:3725   */\n      add\n        /* \"#utility.yul\":3700:3725   */\n      swap2\n      pop\n        /* \"#utility.yul\":3784:3786   */\n      0x40\n        /* \"#utility.yul\":3774:3780   */\n      dup2\n        /* \"#utility.yul\":3771:3772   */\n      0x05\n        /* \"#utility.yul\":3767:3781   */\n      shl\n        /* \"#utility.yul\":3756:3765   */\n      dup8\n        /* \"#utility.yul\":3752:3782   */\n      add\n        /* \"#utility.yul\":3748:3787   */\n      add\n        /* \"#utility.yul\":3734:3787   */\n      swap3\n      pop\n        /* \"#utility.yul\":3822:3824   */\n      0x20\n        /* \"#utility.yul\":3814:3820   */\n      dup8\n        /* \"#utility.yul\":3810:3825   */\n      add\n        /* \"#utility.yul\":3843:3844   */\n      0x00\n        /* \"#utility.yul\":3853:4119   */\n    tag_443:\n        /* \"#utility.yul\":3867:3873   */\n      dup3\n        /* \"#utility.yul\":3864:3865   */\n      dup2\n        /* \"#utility.yul\":3861:3874   */\n      lt\n        /* \"#utility.yul\":3853:4119   */\n      iszero\n      tag_445\n      jumpi\n        /* \"#utility.yul\":3960:3962   */\n      0x3f\n        /* \"#utility.yul\":3956:3963   */\n      not\n        /* \"#utility.yul\":3944:3953   */\n      dup9\n        /* \"#utility.yul\":3936:3942   */\n      dup7\n        /* \"#utility.yul\":3932:3954   */\n      sub\n        /* \"#utility.yul\":3928:3964   */\n      add\n        /* \"#utility.yul\":3923:3926   */\n      dup5\n        /* \"#utility.yul\":3916:3965   */\n      mstore\n        /* \"#utility.yul\":3988:4039   */\n      tag_446\n        /* \"#utility.yul\":4032:4038   */\n      dup6\n        /* \"#utility.yul\":4023:4029   */\n      dup4\n        /* \"#utility.yul\":4017:4030   */\n      mload\n        /* \"#utility.yul\":3988:4039   */\n      tag_398\n      jump\t// in\n    tag_446:\n        /* \"#utility.yul\":3978:4039   */\n      swap5\n      pop\n        /* \"#utility.yul\":4097:4109   */\n      swap3\n      dup6\n      add\n      swap3\n        /* \"#utility.yul\":4062:4077   */\n      swap1\n      dup6\n      add\n      swap1\n        /* \"#utility.yul\":3889:3890   */\n      0x01\n        /* \"#utility.yul\":3882:3891   */\n      add\n        /* \"#utility.yul\":3853:4119   */\n      jump(tag_443)\n    tag_445:\n      pop\n        /* \"#utility.yul\":4136:4142   */\n      swap3\n      swap8\n        /* \"#utility.yul\":3334:4148   */\n      swap7\n      pop\n      pop\n      pop\n      pop\n      pop\n      pop\n      pop\n      jump\t// out\n        /* \"#utility.yul\":4153:4280   */\n    tag_329:\n        /* \"#utility.yul\":4214:4224   */\n      0x4e487b71\n        /* \"#utility.yul\":4209:4212   */\n      0xe0\n        /* \"#utility.yul\":4205:4225   */\n      shl\n        /* \"#utility.yul\":4202:4203   */\n      0x00\n        /* \"#utility.yul\":4195:4226   */\n      mstore\n        /* \"#utility.yul\":4245:4249   */\n      0x41\n        /* \"#utility.yul\":4242:4243   */\n      0x04\n        /* \"#utility.yul\":4235:4250   */\n      mstore\n        /* \"#utility.yul\":4269:4273   */\n      0x24\n        /* \"#utility.yul\":4266:4267   */\n      0x00\n        /* \"#utility.yul\":4259:4274   */\n      revert\n        /* \"#utility.yul\":4285:4560   */\n    tag_400:\n        /* \"#utility.yul\":4356:4358   */\n      0x40\n        /* \"#utility.yul\":4350:4359   */\n      mload\n        /* \"#utility.yul\":4421:4423   */\n      0x1f\n        /* \"#utility.yul\":4402:4415   */\n      dup3\n      add\n      not(0x1f)\n        /* \"#utility.yul\":4398:4425   */\n      and\n        /* \"#utility.yul\":4386:4426   */\n      dup2\n      add\n      sub(shl(0x40, 0x01), 0x01)\n        /* \"#utility.yul\":4441:4475   */\n      dup2\n      gt\n        /* \"#utility.yul\":4477:4499   */\n      dup3\n      dup3\n      lt\n        /* \"#utility.yul\":4438:4500   */\n      or\n        /* \"#utility.yul\":4435:4523   */\n      iszero\n      tag_450\n      jumpi\n        /* \"#utility.yul\":4503:4521   */\n      tag_450\n      tag_329\n      jump\t// in\n    tag_450:\n        /* \"#utility.yul\":4539:4541   */\n      0x40\n        /* \"#utility.yul\":4532:4554   */\n      mstore\n        /* \"#utility.yul\":4285:4560   */\n      swap2\n      swap1\n      pop\n      jump\t// out\n        /* \"#utility.yul\":4565:4747   */\n    tag_401:\n        /* \"#utility.yul\":4624:4628   */\n      0x00\n      sub(shl(0x40, 0x01), 0x01)\n        /* \"#utility.yul\":4649:4655   */\n      dup3\n        /* \"#utility.yul\":4646:4676   */\n      gt\n        /* \"#utility.yul\":4643:4699   */\n      iszero\n      tag_453\n      jumpi\n        /* \"#utility.yul\":4679:4697   */\n      tag_453\n      tag_329\n      jump\t// in\n    tag_453:\n      pop\n        /* \"#utility.yul\":4724:4725   */\n      0x05\n        /* \"#utility.yul\":4720:4734   */\n      shl\n        /* \"#utility.yul\":4736:4740   */\n      0x20\n        /* \"#utility.yul\":4716:4741   */\n      add\n      swap1\n        /* \"#utility.yul\":4565:4747   */\n      jump\t// out\n        /* \"#utility.yul\":4752:5159   */\n    tag_402:\n        /* \"#utility.yul\":4817:4822   */\n      0x00\n      sub(shl(0x40, 0x01), 0x01)\n        /* \"#utility.yul\":4843:4849   */\n      dup4\n        /* \"#utility.yul\":4840:4870   */\n      gt\n        /* \"#utility.yul\":4837:4893   */\n      iszero\n      tag_456\n      jumpi\n        /* \"#utility.yul\":4873:4891   */\n      tag_456\n      tag_329\n      jump\t// in\n    tag_456:\n        /* \"#utility.yul\":4911:4968   */\n      tag_457\n        /* \"#utility.yul\":4956:4958   */\n      0x1f\n        /* \"#utility.yul\":4935:4950   */\n      dup5\n      add\n      not(0x1f)\n        /* \"#utility.yul\":4931:4960   */\n      and\n        /* \"#utility.yul\":4962:4966   */\n      0x20\n        /* \"#utility.yul\":4927:4967   */\n      add\n        /* \"#utility.yul\":4911:4968   */\n      tag_400\n      jump\t// in\n    tag_457:\n        /* \"#utility.yul\":4902:4968   */\n      swap1\n      pop\n        /* \"#utility.yul\":4991:4997   */\n      dup3\n        /* \"#utility.yul\":4984:4989   */\n      dup2\n        /* \"#utility.yul\":4977:4998   */\n      mstore\n        /* \"#utility.yul\":5031:5034   */\n      dup4\n        /* \"#utility.yul\":5022:5028   */\n      dup4\n        /* \"#utility.yul\":5017:5020   */\n      dup4\n        /* \"#utility.yul\":5013:5029   */\n      add\n        /* \"#utility.yul\":5010:5035   */\n      gt\n        /* \"#utility.yul\":5007:5052   */\n      iszero\n      tag_458\n      jumpi\n        /* \"#utility.yul\":5048:5049   */\n      0x00\n        /* \"#utility.yul\":5045:5046   */\n      dup1\n        /* \"#utility.yul\":5038:5050   */\n      revert\n        /* \"#utility.yul\":5007:5052   */\n    tag_458:\n        /* \"#utility.yul\":5097:5103   */\n      dup3\n        /* \"#utility.yul\":5092:5095   */\n      dup3\n        /* \"#utility.yul\":5085:5089   */\n      0x20\n        /* \"#utility.yul\":5078:5083   */\n      dup4\n        /* \"#utility.yul\":5074:5090   */\n      add\n        /* \"#utility.yul\":5061:5104   */\n      calldatacopy\n        /* \"#utility.yul\":5151:5152   */\n      0x00\n        /* \"#utility.yul\":5144:5148   */\n      0x20\n        /* \"#utility.yul\":5135:5141   */\n      dup5\n        /* \"#utility.yul\":5128:5133   */\n      dup4\n        /* \"#utility.yul\":5124:5142   */\n      add\n        /* \"#utility.yul\":5120:5149   */\n      add\n        /* \"#utility.yul\":5113:5153   */\n      mstore\n        /* \"#utility.yul\":4752:5159   */\n      swap4\n      swap3\n      pop\n      pop\n      pop\n      jump\t// out\n        /* \"#utility.yul\":5164:5831   */\n    tag_403:\n        /* \"#utility.yul\":5218:5223   */\n      0x00\n        /* \"#utility.yul\":5271:5274   */\n      dup3\n        /* \"#utility.yul\":5264:5268   */\n      0x1f\n        /* \"#utility.yul\":5256:5262   */\n      dup4\n        /* \"#utility.yul\":5252:5269   */\n      add\n        /* \"#utility.yul\":5248:5275   */\n      slt\n        /* \"#utility.yul\":5238:5293   */\n      tag_460\n      jumpi\n        /* \"#utility.yul\":5289:5290   */\n      0x00\n        /* \"#utility.yul\":5286:5287   */\n      dup1\n        /* \"#utility.yul\":5279:5291   */\n      revert\n        /* \"#utility.yul\":5238:5293   */\n    tag_460:\n        /* \"#utility.yul\":5325:5331   */\n      dup2\n        /* \"#utility.yul\":5312:5332   */\n      calldataload\n        /* \"#utility.yul\":5351:5355   */\n      0x20\n        /* \"#utility.yul\":5375:5434   */\n      tag_461\n        /* \"#utility.yul\":5391:5433   */\n      tag_462\n        /* \"#utility.yul\":5430:5432   */\n      dup4\n        /* \"#utility.yul\":5391:5433   */\n      tag_401\n      jump\t// in\n    tag_462:\n        /* \"#utility.yul\":5375:5434   */\n      tag_400\n      jump\t// in\n    tag_461:\n        /* \"#utility.yul\":5456:5459   */\n      dup1\n        /* \"#utility.yul\":5480:5482   */\n      dup4\n        /* \"#utility.yul\":5475:5478   */\n      dup3\n        /* \"#utility.yul\":5468:5483   */\n      mstore\n        /* \"#utility.yul\":5508:5512   */\n      0x20\n        /* \"#utility.yul\":5503:5506   */\n      dup3\n        /* \"#utility.yul\":5499:5513   */\n      add\n        /* \"#utility.yul\":5492:5513   */\n      swap2\n      pop\n        /* \"#utility.yul\":5565:5569   */\n      0x20\n        /* \"#utility.yul\":5559:5561   */\n      dup5\n        /* \"#utility.yul\":5556:5557   */\n      0x05\n        /* \"#utility.yul\":5552:5562   */\n      shl\n        /* \"#utility.yul\":5544:5550   */\n      dup8\n        /* \"#utility.yul\":5540:5563   */\n      add\n        /* \"#utility.yul\":5536:5570   */\n      add\n        /* \"#utility.yul\":5522:5570   */\n      swap4\n      pop\n        /* \"#utility.yul\":5593:5596   */\n      dup7\n        /* \"#utility.yul\":5585:5591   */\n      dup5\n        /* \"#utility.yul\":5582:5597   */\n      gt\n        /* \"#utility.yul\":5579:5614   */\n      iszero\n      tag_463\n      jumpi\n        /* \"#utility.yul\":5610:5611   */\n      0x00\n        /* \"#utility.yul\":5607:5608   */\n      dup1\n        /* \"#utility.yul\":5600:5612   */\n      revert\n        /* \"#utility.yul\":5579:5614   */\n    tag_463:\n        /* \"#utility.yul\":5646:5650   */\n      0x20\n        /* \"#utility.yul\":5638:5644   */\n      dup7\n        /* \"#utility.yul\":5634:5651   */\n      add\n        /* \"#utility.yul\":5660:5802   */\n    tag_464:\n        /* \"#utility.yul\":5676:5682   */\n      dup5\n        /* \"#utility.yul\":5671:5674   */\n      dup2\n        /* \"#utility.yul\":5668:5683   */\n      lt\n        /* \"#utility.yul\":5660:5802   */\n      iszero\n      tag_466\n      jumpi\n        /* \"#utility.yul\":5742:5759   */\n      dup1\n      calldataload\n        /* \"#utility.yul\":5730:5760   */\n      dup4\n      mstore\n        /* \"#utility.yul\":5780:5792   */\n      swap2\n      dup4\n      add\n      swap2\n        /* \"#utility.yul\":5693:5705   */\n      dup4\n      add\n        /* \"#utility.yul\":5660:5802   */\n      jump(tag_464)\n    tag_466:\n      pop\n        /* \"#utility.yul\":5820:5825   */\n      swap7\n        /* \"#utility.yul\":5164:5831   */\n      swap6\n      pop\n      pop\n      pop\n      pop\n      pop\n      pop\n      jump\t// out\n        /* \"#utility.yul\":5836:7333   */\n    tag_77:\n        /* \"#utility.yul\":5973:5979   */\n      0x00\n        /* \"#utility.yul\":5981:5987   */\n      dup1\n        /* \"#utility.yul\":5989:5995   */\n      0x00\n        /* \"#utility.yul\":6042:6044   */\n      0x60\n        /* \"#utility.yul\":6030:6039   */\n      dup5\n        /* \"#utility.yul\":6021:6028   */\n      dup7\n        /* \"#utility.yul\":6017:6040   */\n      sub\n        /* \"#utility.yul\":6013:6045   */\n      slt\n        /* \"#utility.yul\":6010:6062   */\n      iszero\n      tag_468\n      jumpi\n        /* \"#utility.yul\":6058:6059   */\n      0x00\n        /* \"#utility.yul\":6055:6056   */\n      dup1\n        /* \"#utility.yul\":6048:6060   */\n      revert\n        /* \"#utility.yul\":6010:6062   */\n    tag_468:\n        /* \"#utility.yul\":6081:6110   */\n      tag_469\n        /* \"#utility.yul\":6100:6109   */\n      dup5\n        /* \"#utility.yul\":6081:6110   */\n      tag_399\n      jump\t// in\n    tag_469:\n        /* \"#utility.yul\":6071:6110   */\n      swap3\n      pop\n        /* \"#utility.yul\":6129:6131   */\n      0x20\n        /* \"#utility.yul\":6182:6184   */\n      dup1\n        /* \"#utility.yul\":6171:6180   */\n      dup6\n        /* \"#utility.yul\":6167:6185   */\n      add\n        /* \"#utility.yul\":6154:6186   */\n      calldataload\n      sub(shl(0x40, 0x01), 0x01)\n        /* \"#utility.yul\":6246:6248   */\n      dup1\n        /* \"#utility.yul\":6238:6244   */\n      dup3\n        /* \"#utility.yul\":6235:6249   */\n      gt\n        /* \"#utility.yul\":6232:6266   */\n      iszero\n      tag_470\n      jumpi\n        /* \"#utility.yul\":6262:6263   */\n      0x00\n        /* \"#utility.yul\":6259:6260   */\n      dup1\n        /* \"#utility.yul\":6252:6264   */\n      revert\n        /* \"#utility.yul\":6232:6266   */\n    tag_470:\n        /* \"#utility.yul\":6300:6306   */\n      dup2\n        /* \"#utility.yul\":6289:6298   */\n      dup8\n        /* \"#utility.yul\":6285:6307   */\n      add\n        /* \"#utility.yul\":6275:6307   */\n      swap2\n      pop\n        /* \"#utility.yul\":6345:6352   */\n      dup8\n        /* \"#utility.yul\":6338:6342   */\n      0x1f\n        /* \"#utility.yul\":6334:6336   */\n      dup4\n        /* \"#utility.yul\":6330:6343   */\n      add\n        /* \"#utility.yul\":6326:6353   */\n      slt\n        /* \"#utility.yul\":6316:6371   */\n      tag_471\n      jumpi\n        /* \"#utility.yul\":6367:6368   */\n      0x00\n        /* \"#utility.yul\":6364:6365   */\n      dup1\n        /* \"#utility.yul\":6357:6369   */\n      revert\n        /* \"#utility.yul\":6316:6371   */\n    tag_471:\n        /* \"#utility.yul\":6403:6405   */\n      dup2\n        /* \"#utility.yul\":6390:6406   */\n      calldataload\n        /* \"#utility.yul\":6426:6485   */\n      tag_472\n        /* \"#utility.yul\":6442:6484   */\n      tag_462\n        /* \"#utility.yul\":6481:6483   */\n      dup3\n        /* \"#utility.yul\":6442:6484   */\n      tag_401\n      jump\t// in\n        /* \"#utility.yul\":6426:6485   */\n    tag_472:\n        /* \"#utility.yul\":6519:6534   */\n      dup2\n      dup2\n      mstore\n        /* \"#utility.yul\":6601:6602   */\n      0x05\n        /* \"#utility.yul\":6597:6607   */\n      swap2\n      swap1\n      swap2\n      shl\n        /* \"#utility.yul\":6589:6608   */\n      dup4\n      add\n        /* \"#utility.yul\":6585:6613   */\n      dup5\n      add\n      swap1\n        /* \"#utility.yul\":6550:6562   */\n      dup5\n      dup2\n      add\n      swap1\n        /* \"#utility.yul\":6625:6644   */\n      dup11\n      dup4\n      gt\n        /* \"#utility.yul\":6622:6661   */\n      iszero\n      tag_474\n      jumpi\n        /* \"#utility.yul\":6657:6658   */\n      0x00\n        /* \"#utility.yul\":6654:6655   */\n      dup1\n        /* \"#utility.yul\":6647:6659   */\n      revert\n        /* \"#utility.yul\":6622:6661   */\n    tag_474:\n        /* \"#utility.yul\":6689:6691   */\n      dup6\n        /* \"#utility.yul\":6685:6687   */\n      dup6\n        /* \"#utility.yul\":6681:6692   */\n      add\n        /* \"#utility.yul\":6701:7119   */\n    tag_475:\n        /* \"#utility.yul\":6717:6723   */\n      dup4\n        /* \"#utility.yul\":6712:6715   */\n      dup2\n        /* \"#utility.yul\":6709:6724   */\n      lt\n        /* \"#utility.yul\":6701:7119   */\n      iszero\n      tag_477\n      jumpi\n        /* \"#utility.yul\":6803:6806   */\n      dup1\n        /* \"#utility.yul\":6790:6807   */\n      calldataload\n        /* \"#utility.yul\":6839:6841   */\n      dup6\n        /* \"#utility.yul\":6826:6837   */\n      dup2\n        /* \"#utility.yul\":6823:6842   */\n      gt\n        /* \"#utility.yul\":6820:6859   */\n      iszero\n      tag_478\n      jumpi\n        /* \"#utility.yul\":6855:6856   */\n      0x00\n        /* \"#utility.yul\":6852:6853   */\n      dup1\n        /* \"#utility.yul\":6845:6857   */\n      revert\n        /* \"#utility.yul\":6820:6859   */\n    tag_478:\n        /* \"#utility.yul\":6882:6902   */\n      dup7\n      add\n        /* \"#utility.yul\":6937:6939   */\n      0x3f\n        /* \"#utility.yul\":6929:6940   */\n      dup2\n      add\n        /* \"#utility.yul\":6925:6950   */\n      dup14\n      sgt\n        /* \"#utility.yul\":6915:6968   */\n      tag_479\n      jumpi\n        /* \"#utility.yul\":6964:6965   */\n      0x00\n        /* \"#utility.yul\":6961:6962   */\n      dup1\n        /* \"#utility.yul\":6954:6966   */\n      revert\n        /* \"#utility.yul\":6915:6968   */\n    tag_479:\n        /* \"#utility.yul\":6993:7076   */\n      tag_480\n        /* \"#utility.yul\":7068:7075   */\n      dup14\n        /* \"#utility.yul\":7062:7064   */\n      dup10\n        /* \"#utility.yul\":7058:7060   */\n      dup4\n        /* \"#utility.yul\":7054:7065   */\n      add\n        /* \"#utility.yul\":7041:7066   */\n      calldataload\n        /* \"#utility.yul\":7036:7038   */\n      0x40\n        /* \"#utility.yul\":7032:7034   */\n      dup5\n        /* \"#utility.yul\":7028:7039   */\n      add\n        /* \"#utility.yul\":6993:7076   */\n      tag_402\n      jump\t// in\n    tag_480:\n        /* \"#utility.yul\":6981:7077   */\n      dup5\n      mstore\n      pop\n        /* \"#utility.yul\":7097:7109   */\n      swap2\n      dup7\n      add\n      swap2\n        /* \"#utility.yul\":6734:6746   */\n      dup7\n      add\n        /* \"#utility.yul\":6701:7119   */\n      jump(tag_475)\n    tag_477:\n      pop\n        /* \"#utility.yul\":7138:7143   */\n      swap7\n      pop\n      pop\n      pop\n        /* \"#utility.yul\":7196:7198   */\n      0x40\n        /* \"#utility.yul\":7181:7199   */\n      dup8\n      add\n        /* \"#utility.yul\":7168:7200   */\n      calldataload\n      swap3\n      pop\n        /* \"#utility.yul\":7212:7228   */\n      dup1\n      dup4\n      gt\n        /* \"#utility.yul\":7209:7245   */\n      iszero\n      tag_481\n      jumpi\n        /* \"#utility.yul\":7241:7242   */\n      0x00\n        /* \"#utility.yul\":7238:7239   */\n      dup1\n        /* \"#utility.yul\":7231:7243   */\n      revert\n        /* \"#utility.yul\":7209:7245   */\n    tag_481:\n      pop\n      pop\n        /* \"#utility.yul\":7264:7327   */\n      tag_482\n        /* \"#utility.yul\":7319:7326   */\n      dup7\n        /* \"#utility.yul\":7308:7316   */\n      dup3\n        /* \"#utility.yul\":7297:7306   */\n      dup8\n        /* \"#utility.yul\":7293:7317   */\n      add\n        /* \"#utility.yul\":7264:7327   */\n      tag_403\n      jump\t// in\n    tag_482:\n        /* \"#utility.yul\":7254:7327   */\n      swap2\n      pop\n      pop\n        /* \"#utility.yul\":5836:7333   */\n      swap3\n      pop\n      swap3\n      pop\n      swap3\n      jump\t// out\n        /* \"#utility.yul\":7338:7685   */\n    tag_87:\n        /* \"#utility.yul\":7403:7409   */\n      0x00\n        /* \"#utility.yul\":7411:7417   */\n      dup1\n        /* \"#utility.yul\":7464:7466   */\n      0x40\n        /* \"#utility.yul\":7452:7461   */\n      dup4\n        /* \"#utility.yul\":7443:7450   */\n      dup6\n        /* \"#utility.yul\":7439:7462   */\n      sub\n        /* \"#utility.yul\":7435:7467   */\n      slt\n        /* \"#utility.yul\":7432:7484   */\n      iszero\n      tag_484\n      jumpi\n        /* \"#utility.yul\":7480:7481   */\n      0x00\n        /* \"#utility.yul\":7477:7478   */\n      dup1\n        /* \"#utility.yul\":7470:7482   */\n      revert\n        /* \"#utility.yul\":7432:7484   */\n    tag_484:\n        /* \"#utility.yul\":7503:7532   */\n      tag_485\n        /* \"#utility.yul\":7522:7531   */\n      dup4\n        /* \"#utility.yul\":7503:7532   */\n      tag_399\n      jump\t// in\n    tag_485:\n        /* \"#utility.yul\":7493:7532   */\n      swap2\n      pop\n        /* \"#utility.yul\":7582:7584   */\n      0x20\n        /* \"#utility.yul\":7571:7580   */\n      dup4\n        /* \"#utility.yul\":7567:7585   */\n      add\n        /* \"#utility.yul\":7554:7586   */\n      calldataload\n        /* \"#utility.yul\":7629:7634   */\n      dup1\n        /* \"#utility.yul\":7622:7635   */\n      iszero\n        /* \"#utility.yul\":7615:7636   */\n      iszero\n        /* \"#utility.yul\":7608:7613   */\n      dup2\n        /* \"#utility.yul\":7605:7637   */\n      eq\n        /* \"#utility.yul\":7595:7655   */\n      tag_486\n      jumpi\n        /* \"#utility.yul\":7651:7652   */\n      0x00\n        /* \"#utility.yul\":7648:7649   */\n      dup1\n        /* \"#utility.yul\":7641:7653   */\n      revert\n        /* \"#utility.yul\":7595:7655   */\n    tag_486:\n        /* \"#utility.yul\":7674:7679   */\n      dup1\n        /* \"#utility.yul\":7664:7679   */\n      swap2\n      pop\n      pop\n        /* \"#utility.yul\":7338:7685   */\n      swap3\n      pop\n      swap3\n      swap1\n      pop\n      jump\t// out\n        /* \"#utility.yul\":7690:8065   */\n    tag_404:\n        /* \"#utility.yul\":7761:7769   */\n      0x00\n        /* \"#utility.yul\":7771:7777   */\n      dup1\n        /* \"#utility.yul\":7825:7828   */\n      dup4\n        /* \"#utility.yul\":7818:7822   */\n      0x1f\n        /* \"#utility.yul\":7810:7816   */\n      dup5\n        /* \"#utility.yul\":7806:7823   */\n      add\n        /* \"#utility.yul\":7802:7829   */\n      slt\n        /* \"#utility.yul\":7792:7847   */\n      tag_488\n      jumpi\n        /* \"#utility.yul\":7843:7844   */\n      0x00\n        /* \"#utility.yul\":7840:7841   */\n      dup1\n        /* \"#utility.yul\":7833:7845   */\n      revert\n        /* \"#utility.yul\":7792:7847   */\n    tag_488:\n      pop\n        /* \"#utility.yul\":7866:7886   */\n      dup2\n      calldataload\n      sub(shl(0x40, 0x01), 0x01)\n        /* \"#utility.yul\":7898:7928   */\n      dup2\n      gt\n        /* \"#utility.yul\":7895:7945   */\n      iszero\n      tag_489\n      jumpi\n        /* \"#utility.yul\":7941:7942   */\n      0x00\n        /* \"#utility.yul\":7938:7939   */\n      dup1\n        /* \"#utility.yul\":7931:7943   */\n      revert\n        /* \"#utility.yul\":7895:7945   */\n    tag_489:\n        /* \"#utility.yul\":7978:7982   */\n      0x20\n        /* \"#utility.yul\":7970:7976   */\n      dup4\n        /* \"#utility.yul\":7966:7983   */\n      add\n        /* \"#utility.yul\":7954:7983   */\n      swap2\n      pop\n        /* \"#utility.yul\":8038:8041   */\n      dup4\n        /* \"#utility.yul\":8031:8035   */\n      0x20\n        /* \"#utility.yul\":8021:8027   */\n      dup3\n        /* \"#utility.yul\":8018:8019   */\n      0x05\n        /* \"#utility.yul\":8014:8028   */\n      shl\n        /* \"#utility.yul\":8006:8012   */\n      dup6\n        /* \"#utility.yul\":8002:8029   */\n      add\n        /* \"#utility.yul\":7998:8036   */\n      add\n        /* \"#utility.yul\":7995:8042   */\n      gt\n        /* \"#utility.yul\":7992:8059   */\n      iszero\n      tag_490\n      jumpi\n        /* \"#utility.yul\":8055:8056   */\n      0x00\n        /* \"#utility.yul\":8052:8053   */\n      dup1\n        /* \"#utility.yul\":8045:8057   */\n      revert\n        /* \"#utility.yul\":7992:8059   */\n    tag_490:\n        /* \"#utility.yul\":7690:8065   */\n      swap3\n      pop\n      swap3\n      swap1\n      pop\n      jump\t// out\n        /* \"#utility.yul\":8070:8939   */\n    tag_91:\n        /* \"#utility.yul\":8213:8219   */\n      0x00\n        /* \"#utility.yul\":8221:8227   */\n      dup1\n        /* \"#utility.yul\":8229:8235   */\n      0x00\n        /* \"#utility.yul\":8237:8243   */\n      dup1\n        /* \"#utility.yul\":8245:8251   */\n      0x00\n        /* \"#utility.yul\":8298:8300   */\n      0x60\n        /* \"#utility.yul\":8286:8295   */\n      dup7\n        /* \"#utility.yul\":8277:8284   */\n      dup9\n        /* \"#utility.yul\":8273:8296   */\n      sub\n        /* \"#utility.yul\":8269:8301   */\n      slt\n        /* \"#utility.yul\":8266:8318   */\n      iszero\n      tag_492\n      jumpi\n        /* \"#utility.yul\":8314:8315   */\n      0x00\n        /* \"#utility.yul\":8311:8312   */\n      dup1\n        /* \"#utility.yul\":8304:8316   */\n      revert\n        /* \"#utility.yul\":8266:8318   */\n    tag_492:\n        /* \"#utility.yul\":8350:8359   */\n      dup6\n        /* \"#utility.yul\":8337:8360   */\n      calldataload\n        /* \"#utility.yul\":8327:8360   */\n      swap5\n      pop\n        /* \"#utility.yul\":8411:8413   */\n      0x20\n        /* \"#utility.yul\":8400:8409   */\n      dup7\n        /* \"#utility.yul\":8396:8414   */\n      add\n        /* \"#utility.yul\":8383:8415   */\n      calldataload\n      sub(shl(0x40, 0x01), 0x01)\n        /* \"#utility.yul\":8475:8477   */\n      dup1\n        /* \"#utility.yul\":8467:8473   */\n      dup3\n        /* \"#utility.yul\":8464:8478   */\n      gt\n        /* \"#utility.yul\":8461:8495   */\n      iszero\n      tag_493\n      jumpi\n        /* \"#utility.yul\":8491:8492   */\n      0x00\n        /* \"#utility.yul\":8488:8489   */\n      dup1\n        /* \"#utility.yul\":8481:8493   */\n      revert\n        /* \"#utility.yul\":8461:8495   */\n    tag_493:\n        /* \"#utility.yul\":8530:8608   */\n      tag_494\n        /* \"#utility.yul\":8600:8607   */\n      dup10\n        /* \"#utility.yul\":8591:8597   */\n      dup4\n        /* \"#utility.yul\":8580:8589   */\n      dup11\n        /* \"#utility.yul\":8576:8598   */\n      add\n        /* \"#utility.yul\":8530:8608   */\n      tag_404\n      jump\t// in\n    tag_494:\n        /* \"#utility.yul\":8627:8635   */\n      swap1\n      swap7\n      pop\n        /* \"#utility.yul\":8504:8608   */\n      swap5\n      pop\n        /* \"#utility.yul\":8715:8717   */\n      0x40\n        /* \"#utility.yul\":8700:8718   */\n      dup9\n      add\n        /* \"#utility.yul\":8687:8719   */\n      calldataload\n      swap2\n      pop\n        /* \"#utility.yul\":8731:8747   */\n      dup1\n      dup3\n      gt\n        /* \"#utility.yul\":8728:8764   */\n      iszero\n      tag_495\n      jumpi\n        /* \"#utility.yul\":8760:8761   */\n      0x00\n        /* \"#utility.yul\":8757:8758   */\n      dup1\n        /* \"#utility.yul\":8750:8762   */\n      revert\n        /* \"#utility.yul\":8728:8764   */\n    tag_495:\n      pop\n        /* \"#utility.yul\":8799:8879   */\n      tag_496\n        /* \"#utility.yul\":8871:8878   */\n      dup9\n        /* \"#utility.yul\":8860:8868   */\n      dup3\n        /* \"#utility.yul\":8849:8858   */\n      dup10\n        /* \"#utility.yul\":8845:8869   */\n      add\n        /* \"#utility.yul\":8799:8879   */\n      tag_404\n      jump\t// in\n    tag_496:\n        /* \"#utility.yul\":8070:8939   */\n      swap7\n      swap10\n      swap6\n      swap9\n      pop\n      swap4\n      swap7\n      pop\n        /* \"#utility.yul\":8898:8906   */\n      swap3\n      swap5\n        /* \"#utility.yul\":8773:8879   */\n      swap4\n        /* \"#utility.yul\":8070:8939   */\n      swap3\n      pop\n      pop\n      pop\n      jump\t// out\n        /* \"#utility.yul\":8944:9611   */\n    tag_95:\n        /* \"#utility.yul\":9039:9045   */\n      0x00\n        /* \"#utility.yul\":9047:9053   */\n      dup1\n        /* \"#utility.yul\":9055:9061   */\n      0x00\n        /* \"#utility.yul\":9063:9069   */\n      dup1\n        /* \"#utility.yul\":9116:9119   */\n      0x80\n        /* \"#utility.yul\":9104:9113   */\n      dup6\n        /* \"#utility.yul\":9095:9102   */\n      dup8\n        /* \"#utility.yul\":9091:9114   */\n      sub\n        /* \"#utility.yul\":9087:9120   */\n      slt\n        /* \"#utility.yul\":9084:9137   */\n      iszero\n      tag_498\n      jumpi\n        /* \"#utility.yul\":9133:9134   */\n      0x00\n        /* \"#utility.yul\":9130:9131   */\n      dup1\n        /* \"#utility.yul\":9123:9135   */\n      revert\n        /* \"#utility.yul\":9084:9137   */\n    tag_498:\n        /* \"#utility.yul\":9156:9185   */\n      tag_499\n        /* \"#utility.yul\":9175:9184   */\n      dup6\n        /* \"#utility.yul\":9156:9185   */\n      tag_399\n      jump\t// in\n    tag_499:\n        /* \"#utility.yul\":9146:9185   */\n      swap4\n      pop\n        /* \"#utility.yul\":9204:9242   */\n      tag_500\n        /* \"#utility.yul\":9238:9240   */\n      0x20\n        /* \"#utility.yul\":9227:9236   */\n      dup7\n        /* \"#utility.yul\":9223:9241   */\n      add\n        /* \"#utility.yul\":9204:9242   */\n      tag_399\n      jump\t// in\n    tag_500:\n        /* \"#utility.yul\":9194:9242   */\n      swap3\n      pop\n        /* \"#utility.yul\":9289:9291   */\n      0x40\n        /* \"#utility.yul\":9278:9287   */\n      dup6\n        /* \"#utility.yul\":9274:9292   */\n      add\n        /* \"#utility.yul\":9261:9293   */\n      calldataload\n        /* \"#utility.yul\":9251:9293   */\n      swap2\n      pop\n        /* \"#utility.yul\":9344:9346   */\n      0x60\n        /* \"#utility.yul\":9333:9342   */\n      dup6\n        /* \"#utility.yul\":9329:9347   */\n      add\n        /* \"#utility.yul\":9316:9348   */\n      calldataload\n      sub(shl(0x40, 0x01), 0x01)\n        /* \"#utility.yul\":9363:9369   */\n      dup2\n        /* \"#utility.yul\":9360:9390   */\n      gt\n        /* \"#utility.yul\":9357:9407   */\n      iszero\n      tag_501\n      jumpi\n        /* \"#utility.yul\":9403:9404   */\n      0x00\n        /* \"#utility.yul\":9400:9401   */\n      dup1\n        /* \"#utility.yul\":9393:9405   */\n      revert\n        /* \"#utility.yul\":9357:9407   */\n    tag_501:\n        /* \"#utility.yul\":9426:9448   */\n      dup6\n      add\n        /* \"#utility.yul\":9479:9483   */\n      0x1f\n        /* \"#utility.yul\":9471:9484   */\n      dup2\n      add\n        /* \"#utility.yul\":9467:9494   */\n      dup8\n      sgt\n        /* \"#utility.yul\":9457:9512   */\n      tag_502\n      jumpi\n        /* \"#utility.yul\":9508:9509   */\n      0x00\n        /* \"#utility.yul\":9505:9506   */\n      dup1\n        /* \"#utility.yul\":9498:9510   */\n      revert\n        /* \"#utility.yul\":9457:9512   */\n    tag_502:\n        /* \"#utility.yul\":9531:9605   */\n      tag_503\n        /* \"#utility.yul\":9597:9604   */\n      dup8\n        /* \"#utility.yul\":9592:9594   */\n      dup3\n        /* \"#utility.yul\":9579:9595   */\n      calldataload\n        /* \"#utility.yul\":9574:9576   */\n      0x20\n        /* \"#utility.yul\":9570:9572   */\n      dup5\n        /* \"#utility.yul\":9566:9577   */\n      add\n        /* \"#utility.yul\":9531:9605   */\n      tag_402\n      jump\t// in\n    tag_503:\n        /* \"#utility.yul\":9521:9605   */\n      swap2\n      pop\n      pop\n        /* \"#utility.yul\":8944:9611   */\n      swap3\n      swap6\n      swap2\n      swap5\n      pop\n      swap3\n      pop\n      jump\t// out\n        /* \"#utility.yul\":9616:9876   */\n    tag_103:\n        /* \"#utility.yul\":9684:9690   */\n      0x00\n        /* \"#utility.yul\":9692:9698   */\n      dup1\n        /* \"#utility.yul\":9745:9747   */\n      0x40\n        /* \"#utility.yul\":9733:9742   */\n      dup4\n        /* \"#utility.yul\":9724:9731   */\n      dup6\n        /* \"#utility.yul\":9720:9743   */\n      sub\n        /* \"#utility.yul\":9716:9748   */\n      slt\n        /* \"#utility.yul\":9713:9765   */\n      iszero\n      tag_505\n      jumpi\n        /* \"#utility.yul\":9761:9762   */\n      0x00\n        /* \"#utility.yul\":9758:9759   */\n      dup1\n        /* \"#utility.yul\":9751:9763   */\n      revert\n        /* \"#utility.yul\":9713:9765   */\n    tag_505:\n        /* \"#utility.yul\":9784:9813   */\n      tag_506\n        /* \"#utility.yul\":9803:9812   */\n      dup4\n        /* \"#utility.yul\":9784:9813   */\n      tag_399\n      jump\t// in\n    tag_506:\n        /* \"#utility.yul\":9774:9813   */\n      swap2\n      pop\n        /* \"#utility.yul\":9832:9870   */\n      tag_507\n        /* \"#utility.yul\":9866:9868   */\n      0x20\n        /* \"#utility.yul\":9855:9864   */\n      dup5\n        /* \"#utility.yul\":9851:9869   */\n      add\n        /* \"#utility.yul\":9832:9870   */\n      tag_399\n      jump\t// in\n    tag_507:\n        /* \"#utility.yul\":9822:9870   */\n      swap1\n      pop\n        /* \"#utility.yul\":9616:9876   */\n      swap3\n      pop\n      swap3\n      swap1\n      pop\n      jump\t// out\n        /* \"#utility.yul\":9881:10261   */\n    tag_116:\n        /* \"#utility.yul\":9960:9961   */\n      0x01\n        /* \"#utility.yul\":9956:9968   */\n      dup2\n      dup2\n      shr\n      swap1\n        /* \"#utility.yul\":10003:10015   */\n      dup3\n      and\n      dup1\n        /* \"#utility.yul\":10024:10085   */\n      tag_509\n      jumpi\n        /* \"#utility.yul\":10078:10082   */\n      0x7f\n        /* \"#utility.yul\":10070:10076   */\n      dup3\n        /* \"#utility.yul\":10066:10083   */\n      and\n        /* \"#utility.yul\":10056:10083   */\n      swap2\n      pop\n        /* \"#utility.yul\":10024:10085   */\n    tag_509:\n        /* \"#utility.yul\":10131:10133   */\n      0x20\n        /* \"#utility.yul\":10123:10129   */\n      dup3\n        /* \"#utility.yul\":10120:10134   */\n      lt\n        /* \"#utility.yul\":10100:10118   */\n      dup2\n        /* \"#utility.yul\":10097:10135   */\n      sub\n        /* \"#utility.yul\":10094:10255   */\n      tag_510\n      jumpi\n        /* \"#utility.yul\":10177:10187   */\n      0x4e487b71\n        /* \"#utility.yul\":10172:10175   */\n      0xe0\n        /* \"#utility.yul\":10168:10188   */\n      shl\n        /* \"#utility.yul\":10165:10166   */\n      0x00\n        /* \"#utility.yul\":10158:10189   */\n      mstore\n        /* \"#utility.yul\":10212:10216   */\n      0x22\n        /* \"#utility.yul\":10209:10210   */\n      0x04\n        /* \"#utility.yul\":10202:10217   */\n      mstore\n        /* \"#utility.yul\":10240:10244   */\n      0x24\n        /* \"#utility.yul\":10237:10238   */\n      0x00\n        /* \"#utility.yul\":10230:10245   */\n      revert\n        /* \"#utility.yul\":10094:10255   */\n    tag_510:\n      pop\n        /* \"#utility.yul\":9881:10261   */\n      swap2\n      swap1\n      pop\n      jump\t// out\n        /* \"#utility.yul\":10646:10919   */\n    tag_155:\n        /* \"#utility.yul\":10831:10837   */\n      dup2\n        /* \"#utility.yul\":10823:10829   */\n      dup4\n        /* \"#utility.yul\":10818:10821   */\n      dup3\n        /* \"#utility.yul\":10805:10838   */\n      calldatacopy\n        /* \"#utility.yul\":10787:10790   */\n      0x00\n        /* \"#utility.yul\":10857:10873   */\n      swap2\n      add\n        /* \"#utility.yul\":10882:10895   */\n      swap1\n      dup2\n      mstore\n        /* \"#utility.yul\":10857:10873   */\n      swap2\n        /* \"#utility.yul\":10646:10919   */\n      swap1\n      pop\n      jump\t// out\n        /* \"#utility.yul\":10924:11334   */\n    tag_170:\n        /* \"#utility.yul\":11126:11128   */\n      0x20\n        /* \"#utility.yul\":11108:11129   */\n      dup1\n      dup3\n      mstore\n        /* \"#utility.yul\":11165:11167   */\n      0x2e\n        /* \"#utility.yul\":11145:11163   */\n      swap1\n      dup3\n      add\n        /* \"#utility.yul\":11138:11168   */\n      mstore\n        /* \"#utility.yul\":11204:11238   */\n      0x43726564697420747970657320616e6420737570706c79206c696d697473206c\n        /* \"#utility.yul\":11199:11201   */\n      0x40\n        /* \"#utility.yul\":11184:11202   */\n      dup3\n      add\n        /* \"#utility.yul\":11177:11239   */\n      mstore\n      shl(0x93, 0x0cadccee8d040dad2e6dac2e8c6d)\n        /* \"#utility.yul\":11270:11272   */\n      0x60\n        /* \"#utility.yul\":11255:11273   */\n      dup3\n      add\n        /* \"#utility.yul\":11248:11292   */\n      mstore\n        /* \"#utility.yul\":11324:11327   */\n      0x80\n        /* \"#utility.yul\":11309:11328   */\n      add\n      swap1\n        /* \"#utility.yul\":10924:11334   */\n      jump\t// out\n        /* \"#utility.yul\":11339:11561   */\n    tag_172:\n        /* \"#utility.yul\":11404:11413   */\n      dup1\n      dup3\n      add\n        /* \"#utility.yul\":11425:11435   */\n      dup1\n      dup3\n      gt\n        /* \"#utility.yul\":11422:11555   */\n      iszero\n      tag_112\n      jumpi\n        /* \"#utility.yul\":11477:11487   */\n      0x4e487b71\n        /* \"#utility.yul\":11472:11475   */\n      0xe0\n        /* \"#utility.yul\":11468:11488   */\n      shl\n        /* \"#utility.yul\":11465:11466   */\n      0x00\n        /* \"#utility.yul\":11458:11489   */\n      mstore\n        /* \"#utility.yul\":11512:11516   */\n      0x11\n        /* \"#utility.yul\":11509:11510   */\n      0x04\n        /* \"#utility.yul\":11502:11517   */\n      mstore\n        /* \"#utility.yul\":11540:11544   */\n      0x24\n        /* \"#utility.yul\":11537:11538   */\n      0x00\n        /* \"#utility.yul\":11530:11545   */\n      revert\n        /* \"#utility.yul\":11566:11693   */\n    tag_180:\n        /* \"#utility.yul\":11627:11637   */\n      0x4e487b71\n        /* \"#utility.yul\":11622:11625   */\n      0xe0\n        /* \"#utility.yul\":11618:11638   */\n      shl\n        /* \"#utility.yul\":11615:11616   */\n      0x00\n        /* \"#utility.yul\":11608:11639   */\n      mstore\n        /* \"#utility.yul\":11658:11662   */\n      0x32\n        /* \"#utility.yul\":11655:11656   */\n      0x04\n        /* \"#utility.yul\":11648:11663   */\n      mstore\n        /* \"#utility.yul\":11682:11686   */\n      0x24\n        /* \"#utility.yul\":11679:11680   */\n      0x00\n        /* \"#utility.yul\":11672:11687   */\n      revert\n        /* \"#utility.yul\":11824:12342   */\n    tag_406:\n        /* \"#utility.yul\":11926:11928   */\n      0x1f\n        /* \"#utility.yul\":11921:11924   */\n      dup3\n        /* \"#utility.yul\":11918:11929   */\n      gt\n        /* \"#utility.yul\":11915:12336   */\n      iszero\n      tag_141\n      jumpi\n        /* \"#utility.yul\":11962:11967   */\n      dup1\n        /* \"#utility.yul\":11959:11960   */\n      0x00\n        /* \"#utility.yul\":11952:11968   */\n      mstore\n        /* \"#utility.yul\":12006:12010   */\n      0x20\n        /* \"#utility.yul\":12003:12004   */\n      0x00\n        /* \"#utility.yul\":11993:12011   */\n      keccak256\n        /* \"#utility.yul\":12076:12078   */\n      0x1f\n        /* \"#utility.yul\":12064:12074   */\n      dup5\n        /* \"#utility.yul\":12060:12079   */\n      add\n        /* \"#utility.yul\":12057:12058   */\n      0x05\n        /* \"#utility.yul\":12053:12080   */\n      shr\n        /* \"#utility.yul\":12047:12051   */\n      dup2\n        /* \"#utility.yul\":12043:12081   */\n      add\n        /* \"#utility.yul\":12112:12116   */\n      0x20\n        /* \"#utility.yul\":12100:12110   */\n      dup6\n        /* \"#utility.yul\":12097:12117   */\n      lt\n        /* \"#utility.yul\":12094:12141   */\n      iszero\n      tag_520\n      jumpi\n      pop\n        /* \"#utility.yul\":12135:12139   */\n      dup1\n        /* \"#utility.yul\":12094:12141   */\n    tag_520:\n        /* \"#utility.yul\":12190:12192   */\n      0x1f\n        /* \"#utility.yul\":12185:12188   */\n      dup5\n        /* \"#utility.yul\":12181:12193   */\n      add\n        /* \"#utility.yul\":12178:12179   */\n      0x05\n        /* \"#utility.yul\":12174:12194   */\n      shr\n        /* \"#utility.yul\":12168:12172   */\n      dup3\n        /* \"#utility.yul\":12164:12195   */\n      add\n        /* \"#utility.yul\":12154:12195   */\n      swap2\n      pop\n        /* \"#utility.yul\":12245:12326   */\n    tag_521:\n        /* \"#utility.yul\":12263:12265   */\n      dup2\n        /* \"#utility.yul\":12256:12261   */\n      dup2\n        /* \"#utility.yul\":12253:12266   */\n      lt\n        /* \"#utility.yul\":12245:12326   */\n      iszero\n      tag_192\n      jumpi\n        /* \"#utility.yul\":12322:12323   */\n      0x00\n        /* \"#utility.yul\":12308:12324   */\n      dup2\n      sstore\n        /* \"#utility.yul\":12289:12290   */\n      0x01\n        /* \"#utility.yul\":12278:12291   */\n      add\n        /* \"#utility.yul\":12245:12326   */\n      jump(tag_521)\n        /* \"#utility.yul\":12518:13863   */\n    tag_183:\n        /* \"#utility.yul\":12644:12647   */\n      dup2\n        /* \"#utility.yul\":12638:12648   */\n      mload\n      sub(shl(0x40, 0x01), 0x01)\n        /* \"#utility.yul\":12663:12669   */\n      dup2\n        /* \"#utility.yul\":12660:12690   */\n      gt\n        /* \"#utility.yul\":12657:12713   */\n      iszero\n      tag_527\n      jumpi\n        /* \"#utility.yul\":12693:12711   */\n      tag_527\n      tag_329\n      jump\t// in\n    tag_527:\n        /* \"#utility.yul\":12722:12819   */\n      tag_528\n        /* \"#utility.yul\":12812:12818   */\n      dup2\n        /* \"#utility.yul\":12772:12810   */\n      tag_529\n        /* \"#utility.yul\":12804:12808   */\n      dup5\n        /* \"#utility.yul\":12798:12809   */\n      sload\n        /* \"#utility.yul\":12772:12810   */\n      tag_116\n      jump\t// in\n    tag_529:\n        /* \"#utility.yul\":12766:12770   */\n      dup5\n        /* \"#utility.yul\":12722:12819   */\n      tag_406\n      jump\t// in\n    tag_528:\n        /* \"#utility.yul\":12874:12878   */\n      0x20\n      dup1\n        /* \"#utility.yul\":12931:12933   */\n      0x1f\n        /* \"#utility.yul\":12920:12934   */\n      dup4\n      gt\n        /* \"#utility.yul\":12948:12949   */\n      0x01\n        /* \"#utility.yul\":12943:13606   */\n      dup2\n      eq\n      tag_531\n      jumpi\n        /* \"#utility.yul\":13650:13651   */\n      0x00\n        /* \"#utility.yul\":13667:13673   */\n      dup5\n        /* \"#utility.yul\":13664:13753   */\n      iszero\n      tag_532\n      jumpi\n      pop\n        /* \"#utility.yul\":13719:13738   */\n      dup6\n      dup4\n      add\n        /* \"#utility.yul\":13713:13739   */\n      mload\n        /* \"#utility.yul\":13664:13753   */\n    tag_532:\n      not(0x00)\n        /* \"#utility.yul\":12475:12476   */\n      0x03\n        /* \"#utility.yul\":12471:12482   */\n      dup7\n      swap1\n      shl\n        /* \"#utility.yul\":12467:12491   */\n      shr\n        /* \"#utility.yul\":12463:12492   */\n      not\n        /* \"#utility.yul\":12453:12493   */\n      and\n        /* \"#utility.yul\":12499:12500   */\n      0x01\n        /* \"#utility.yul\":12495:12506   */\n      dup6\n      swap1\n      shl\n        /* \"#utility.yul\":12450:12507   */\n      or\n        /* \"#utility.yul\":13766:13847   */\n      dup6\n      sstore\n        /* \"#utility.yul\":12913:13857   */\n      jump(tag_237)\n        /* \"#utility.yul\":12943:13606   */\n    tag_531:\n        /* \"#utility.yul\":11771:11772   */\n      0x00\n        /* \"#utility.yul\":11764:11778   */\n      dup6\n      dup2\n      mstore\n        /* \"#utility.yul\":11808:11812   */\n      0x20\n        /* \"#utility.yul\":11795:11813   */\n      dup2\n      keccak256\n      not(0x1f)\n        /* \"#utility.yul\":12979:12999   */\n      dup7\n      and\n      swap2\n        /* \"#utility.yul\":13097:13333   */\n    tag_535:\n        /* \"#utility.yul\":13111:13118   */\n      dup3\n        /* \"#utility.yul\":13108:13109   */\n      dup2\n        /* \"#utility.yul\":13105:13119   */\n      lt\n        /* \"#utility.yul\":13097:13333   */\n      iszero\n      tag_537\n      jumpi\n        /* \"#utility.yul\":13200:13219   */\n      dup9\n      dup7\n      add\n        /* \"#utility.yul\":13194:13220   */\n      mload\n        /* \"#utility.yul\":13179:13221   */\n      dup3\n      sstore\n        /* \"#utility.yul\":13292:13319   */\n      swap5\n      dup5\n      add\n      swap5\n        /* \"#utility.yul\":13260:13261   */\n      0x01\n        /* \"#utility.yul\":13248:13262   */\n      swap1\n      swap2\n      add\n      swap1\n        /* \"#utility.yul\":13127:13146   */\n      dup5\n      add\n        /* \"#utility.yul\":13097:13333   */\n      jump(tag_535)\n    tag_537:\n        /* \"#utility.yul\":13101:13104   */\n      pop\n        /* \"#utility.yul\":13361:13367   */\n      dup6\n        /* \"#utility.yul\":13352:13359   */\n      dup3\n        /* \"#utility.yul\":13349:13368   */\n      lt\n        /* \"#utility.yul\":13346:13547   */\n      iszero\n      tag_538\n      jumpi\n        /* \"#utility.yul\":13422:13441   */\n      dup8\n      dup6\n      add\n        /* \"#utility.yul\":13416:13442   */\n      mload\n      not(0x00)\n        /* \"#utility.yul\":13505:13506   */\n      0x03\n        /* \"#utility.yul\":13501:13515   */\n      dup9\n      swap1\n      shl\n        /* \"#utility.yul\":13517:13520   */\n      0xf8\n        /* \"#utility.yul\":13497:13521   */\n      and\n        /* \"#utility.yul\":13493:13530   */\n      shr\n        /* \"#utility.yul\":13489:13531   */\n      not\n        /* \"#utility.yul\":13474:13532   */\n      and\n        /* \"#utility.yul\":13459:13533   */\n      dup2\n      sstore\n        /* \"#utility.yul\":13346:13547   */\n    tag_538:\n      pop\n      pop\n      pop\n      pop\n      pop\n        /* \"#utility.yul\":13593:13594   */\n      0x01\n        /* \"#utility.yul\":13577:13591   */\n      swap1\n      dup2\n      shl\n        /* \"#utility.yul\":13573:13595   */\n      add\n        /* \"#utility.yul\":13560:13596   */\n      swap1\n      sstore\n      pop\n        /* \"#utility.yul\":12518:13863   */\n      jump\t// out\n        /* \"#utility.yul\":13868:14080   */\n    tag_408:\n        /* \"#utility.yul\":13910:13913   */\n      0x00\n        /* \"#utility.yul\":13948:13953   */\n      dup2\n        /* \"#utility.yul\":13942:13954   */\n      mload\n        /* \"#utility.yul\":13992:13998   */\n      dup1\n        /* \"#utility.yul\":13985:13989   */\n      0x20\n        /* \"#utility.yul\":13978:13983   */\n      dup5\n        /* \"#utility.yul\":13974:13990   */\n      add\n        /* \"#utility.yul\":13969:13972   */\n      dup6\n        /* \"#utility.yul\":13963:13999   */\n      mcopy\n        /* \"#utility.yul\":14054:14055   */\n      0x00\n        /* \"#utility.yul\":14018:14034   */\n      swap4\n      add\n        /* \"#utility.yul\":14043:14056   */\n      swap3\n      dup4\n      mstore\n      pop\n        /* \"#utility.yul\":14018:14034   */\n      swap1\n      swap2\n        /* \"#utility.yul\":13868:14080   */\n      swap1\n      pop\n      jump\t// out\n        /* \"#utility.yul\":14085:14277   */\n    tag_189:\n        /* \"#utility.yul\":14216:14219   */\n      0x00\n        /* \"#utility.yul\":14241:14271   */\n      tag_255\n        /* \"#utility.yul\":14267:14270   */\n      dup3\n        /* \"#utility.yul\":14259:14265   */\n      dup5\n        /* \"#utility.yul\":14241:14271   */\n      tag_408\n      jump\t// in\n        /* \"#utility.yul\":14282:14584   */\n    tag_199:\n        /* \"#utility.yul\":14459:14461   */\n      0x40\n        /* \"#utility.yul\":14448:14457   */\n      dup2\n        /* \"#utility.yul\":14441:14462   */\n      mstore\n        /* \"#utility.yul\":14422:14426   */\n      0x00\n        /* \"#utility.yul\":14479:14535   */\n      tag_543\n        /* \"#utility.yul\":14531:14533   */\n      0x40\n        /* \"#utility.yul\":14520:14529   */\n      dup4\n        /* \"#utility.yul\":14516:14534   */\n      add\n        /* \"#utility.yul\":14508:14514   */\n      dup6\n        /* \"#utility.yul\":14479:14535   */\n      tag_398\n      jump\t// in\n    tag_543:\n        /* \"#utility.yul\":14471:14535   */\n      swap1\n      pop\n        /* \"#utility.yul\":14571:14577   */\n      dup3\n        /* \"#utility.yul\":14566:14568   */\n      0x20\n        /* \"#utility.yul\":14555:14564   */\n      dup4\n        /* \"#utility.yul\":14551:14569   */\n      add\n        /* \"#utility.yul\":14544:14578   */\n      mstore\n        /* \"#utility.yul\":14282:14584   */\n      swap4\n      swap3\n      pop\n      pop\n      pop\n      jump\t// out\n        /* \"#utility.yul\":14589:15111   */\n    tag_224:\n        /* \"#utility.yul\":14667:14671   */\n      0x00\n        /* \"#utility.yul\":14673:14679   */\n      dup1\n        /* \"#utility.yul\":14733:14744   */\n      dup4\n        /* \"#utility.yul\":14720:14745   */\n      calldataload\n        /* \"#utility.yul\":14827:14829   */\n      0x1e\n        /* \"#utility.yul\":14823:14830   */\n      not\n        /* \"#utility.yul\":14812:14820   */\n      dup5\n        /* \"#utility.yul\":14796:14810   */\n      calldatasize\n        /* \"#utility.yul\":14792:14821   */\n      sub\n        /* \"#utility.yul\":14788:14831   */\n      add\n        /* \"#utility.yul\":14768:14786   */\n      dup2\n        /* \"#utility.yul\":14764:14832   */\n      slt\n        /* \"#utility.yul\":14754:14850   */\n      tag_545\n      jumpi\n        /* \"#utility.yul\":14846:14847   */\n      0x00\n        /* \"#utility.yul\":14843:14844   */\n      dup1\n        /* \"#utility.yul\":14836:14848   */\n      revert\n        /* \"#utility.yul\":14754:14850   */\n    tag_545:\n        /* \"#utility.yul\":14873:14906   */\n      dup4\n      add\n        /* \"#utility.yul\":14925:14945   */\n      dup1\n      calldataload\n      swap2\n      pop\n      sub(shl(0x40, 0x01), 0x01)\n        /* \"#utility.yul\":14957:14987   */\n      dup3\n      gt\n        /* \"#utility.yul\":14954:15004   */\n      iszero\n      tag_546\n      jumpi\n        /* \"#utility.yul\":15000:15001   */\n      0x00\n        /* \"#utility.yul\":14997:14998   */\n      dup1\n        /* \"#utility.yul\":14990:15002   */\n      revert\n        /* \"#utility.yul\":14954:15004   */\n    tag_546:\n        /* \"#utility.yul\":15033:15037   */\n      0x20\n        /* \"#utility.yul\":15021:15038   */\n      add\n      swap2\n      pop\n        /* \"#utility.yul\":15064:15078   */\n      calldatasize\n        /* \"#utility.yul\":15060:15087   */\n      dup2\n      swap1\n      sub\n        /* \"#utility.yul\":15050:15088   */\n      dup3\n      sgt\n        /* \"#utility.yul\":15047:15105   */\n      iszero\n      tag_490\n      jumpi\n        /* \"#utility.yul\":15101:15102   */\n      0x00\n        /* \"#utility.yul\":15098:15099   */\n      dup1\n        /* \"#utility.yul\":15091:15103   */\n      revert\n        /* \"#utility.yul\":15116:16314   */\n    tag_227:\n      sub(shl(0x40, 0x01), 0x01)\n        /* \"#utility.yul\":15235:15238   */\n      dup4\n        /* \"#utility.yul\":15232:15259   */\n      gt\n        /* \"#utility.yul\":15229:15282   */\n      iszero\n      tag_550\n      jumpi\n        /* \"#utility.yul\":15262:15280   */\n      tag_550\n      tag_329\n      jump\t// in\n    tag_550:\n        /* \"#utility.yul\":15291:15385   */\n      tag_551\n        /* \"#utility.yul\":15381:15384   */\n      dup4\n        /* \"#utility.yul\":15341:15379   */\n      tag_552\n        /* \"#utility.yul\":15373:15377   */\n      dup4\n        /* \"#utility.yul\":15367:15378   */\n      sload\n        /* \"#utility.yul\":15341:15379   */\n      tag_116\n      jump\t// in\n    tag_552:\n        /* \"#utility.yul\":15335:15339   */\n      dup4\n        /* \"#utility.yul\":15291:15385   */\n      tag_406\n      jump\t// in\n    tag_551:\n        /* \"#utility.yul\":15411:15412   */\n      0x00\n        /* \"#utility.yul\":15436:15438   */\n      0x1f\n        /* \"#utility.yul\":15431:15434   */\n      dup5\n        /* \"#utility.yul\":15428:15439   */\n      gt\n        /* \"#utility.yul\":15453:15454   */\n      0x01\n        /* \"#utility.yul\":15448:16056   */\n      dup2\n      eq\n      tag_554\n      jumpi\n        /* \"#utility.yul\":16100:16101   */\n      0x00\n        /* \"#utility.yul\":16117:16120   */\n      dup6\n        /* \"#utility.yul\":16114:16207   */\n      iszero\n      tag_555\n      jumpi\n      pop\n        /* \"#utility.yul\":16173:16192   */\n      dup4\n      dup3\n      add\n        /* \"#utility.yul\":16160:16193   */\n      calldataload\n        /* \"#utility.yul\":16114:16207   */\n    tag_555:\n      not(0x00)\n        /* \"#utility.yul\":12475:12476   */\n      0x03\n        /* \"#utility.yul\":12471:12482   */\n      dup8\n      swap1\n      shl\n        /* \"#utility.yul\":12467:12491   */\n      shr\n        /* \"#utility.yul\":12463:12492   */\n      not\n        /* \"#utility.yul\":12453:12493   */\n      and\n        /* \"#utility.yul\":12499:12500   */\n      0x01\n        /* \"#utility.yul\":12495:12506   */\n      dup7\n      swap1\n      shl\n        /* \"#utility.yul\":12450:12507   */\n      or\n        /* \"#utility.yul\":16220:16298   */\n      dup4\n      sstore\n        /* \"#utility.yul\":15421:16308   */\n      jump(tag_192)\n        /* \"#utility.yul\":15448:16056   */\n    tag_554:\n        /* \"#utility.yul\":11771:11772   */\n      0x00\n        /* \"#utility.yul\":11764:11778   */\n      dup4\n      dup2\n      mstore\n        /* \"#utility.yul\":11808:11812   */\n      0x20\n        /* \"#utility.yul\":11795:11813   */\n      dup2\n      keccak256\n      not(0x1f)\n        /* \"#utility.yul\":15484:15501   */\n      dup8\n      and\n      swap2\n        /* \"#utility.yul\":15599:15828   */\n    tag_558:\n        /* \"#utility.yul\":15613:15620   */\n      dup3\n        /* \"#utility.yul\":15610:15611   */\n      dup2\n        /* \"#utility.yul\":15607:15621   */\n      lt\n        /* \"#utility.yul\":15599:15828   */\n      iszero\n      tag_560\n      jumpi\n        /* \"#utility.yul\":15702:15721   */\n      dup7\n      dup6\n      add\n        /* \"#utility.yul\":15689:15722   */\n      calldataload\n        /* \"#utility.yul\":15674:15723   */\n      dup3\n      sstore\n        /* \"#utility.yul\":15809:15813   */\n      0x20\n        /* \"#utility.yul\":15794:15814   */\n      swap5\n      dup6\n      add\n      swap5\n        /* \"#utility.yul\":15762:15763   */\n      0x01\n        /* \"#utility.yul\":15750:15764   */\n      swap1\n      swap3\n      add\n      swap2\n        /* \"#utility.yul\":15629:15641   */\n      add\n        /* \"#utility.yul\":15599:15828   */\n      jump(tag_558)\n    tag_560:\n        /* \"#utility.yul\":15603:15606   */\n      pop\n        /* \"#utility.yul\":15856:15859   */\n      dup7\n        /* \"#utility.yul\":15847:15854   */\n      dup3\n        /* \"#utility.yul\":15844:15860   */\n      lt\n        /* \"#utility.yul\":15841:16000   */\n      iszero\n      tag_561\n      jumpi\n        /* \"#utility.yul\":15980:15981   */\n      0x00\n        /* \"#utility.yul\":15976:15982   */\n      not\n        /* \"#utility.yul\":15970:15973   */\n      0xf8\n        /* \"#utility.yul\":15964:15967   */\n      dup9\n        /* \"#utility.yul\":15961:15962   */\n      0x03\n        /* \"#utility.yul\":15957:15968   */\n      shl\n        /* \"#utility.yul\":15953:15974   */\n      and\n        /* \"#utility.yul\":15949:15983   */\n      shr\n        /* \"#utility.yul\":15945:15984   */\n      not\n        /* \"#utility.yul\":15932:15941   */\n      dup5\n        /* \"#utility.yul\":15927:15930   */\n      dup8\n        /* \"#utility.yul\":15923:15942   */\n      add\n        /* \"#utility.yul\":15910:15943   */\n      calldataload\n        /* \"#utility.yul\":15906:15985   */\n      and\n        /* \"#utility.yul\":15898:15904   */\n      dup2\n        /* \"#utility.yul\":15891:15986   */\n      sstore\n        /* \"#utility.yul\":15841:16000   */\n    tag_561:\n      pop\n      pop\n        /* \"#utility.yul\":16043:16044   */\n      0x01\n        /* \"#utility.yul\":16037:16040   */\n      dup6\n        /* \"#utility.yul\":16034:16035   */\n      0x01\n        /* \"#utility.yul\":16030:16041   */\n      shl\n        /* \"#utility.yul\":16026:16045   */\n      add\n        /* \"#utility.yul\":16020:16024   */\n      dup4\n        /* \"#utility.yul\":16013:16046   */\n      sstore\n        /* \"#utility.yul\":15421:16308   */\n      pop\n      pop\n        /* \"#utility.yul\":15116:16314   */\n      pop\n      pop\n      pop\n      jump\t// out\n        /* \"#utility.yul\":16319:16586   */\n    tag_409:\n        /* \"#utility.yul\":16408:16414   */\n      dup2\n        /* \"#utility.yul\":16403:16406   */\n      dup4\n        /* \"#utility.yul\":16396:16415   */\n      mstore\n        /* \"#utility.yul\":16460:16466   */\n      dup2\n        /* \"#utility.yul\":16453:16458   */\n      dup2\n        /* \"#utility.yul\":16446:16450   */\n      0x20\n        /* \"#utility.yul\":16441:16444   */\n      dup6\n        /* \"#utility.yul\":16437:16451   */\n      add\n        /* \"#utility.yul\":16424:16467   */\n      calldatacopy\n      pop\n        /* \"#utility.yul\":16512:16513   */\n      0x00\n        /* \"#utility.yul\":16487:16503   */\n      dup3\n      dup3\n      add\n        /* \"#utility.yul\":16505:16509   */\n      0x20\n        /* \"#utility.yul\":16483:16510   */\n      swap1\n      dup2\n      add\n        /* \"#utility.yul\":16476:16514   */\n      swap2\n      swap1\n      swap2\n      mstore\n        /* \"#utility.yul\":16568:16570   */\n      0x1f\n        /* \"#utility.yul\":16547:16562   */\n      swap1\n      swap2\n      add\n      not(0x1f)\n        /* \"#utility.yul\":16543:16572   */\n      and\n        /* \"#utility.yul\":16534:16573   */\n      swap1\n      swap2\n      add\n        /* \"#utility.yul\":16530:16580   */\n      add\n      swap1\n        /* \"#utility.yul\":16319:16586   */\n      jump\t// out\n        /* \"#utility.yul\":16591:17820   */\n    tag_235:\n        /* \"#utility.yul\":16794:16796   */\n      0x20\n        /* \"#utility.yul\":16846:16867   */\n      dup1\n      dup3\n      mstore\n        /* \"#utility.yul\":16819:16837   */\n      dup2\n      dup2\n      add\n        /* \"#utility.yul\":16902:16924   */\n      dup4\n      swap1\n      mstore\n      0x00\n      swap1\n        /* \"#utility.yul\":16955:16957   */\n      0x40\n        /* \"#utility.yul\":17004:17005   */\n      0x05\n        /* \"#utility.yul\":17000:17014   */\n      dup6\n      swap1\n      shl\n        /* \"#utility.yul\":16985:17015   */\n      dup5\n      add\n        /* \"#utility.yul\":16981:17020   */\n      dup2\n      add\n      swap1\n        /* \"#utility.yul\":16940:16958   */\n      dup5\n      add\n        /* \"#utility.yul\":17043:17049   */\n      dup7\n      dup5\n        /* \"#utility.yul\":17077:17791   */\n    tag_564:\n        /* \"#utility.yul\":17091:17097   */\n      dup8\n        /* \"#utility.yul\":17088:17089   */\n      dup2\n        /* \"#utility.yul\":17085:17098   */\n      lt\n        /* \"#utility.yul\":17077:17791   */\n      iszero\n      tag_566\n      jumpi\n        /* \"#utility.yul\":17156:17178   */\n      dup7\n      dup5\n      sub\n      not(0x3f)\n        /* \"#utility.yul\":17152:17188   */\n      add\n        /* \"#utility.yul\":17140:17189   */\n      dup4\n      mstore\n        /* \"#utility.yul\":17228:17248   */\n      dup2\n      calldataload\n        /* \"#utility.yul\":17303:17317   */\n      calldatasize\n        /* \"#utility.yul\":17299:17326   */\n      dup11\n      swap1\n      sub\n      not(0x1e)\n        /* \"#utility.yul\":17295:17336   */\n      add\n        /* \"#utility.yul\":17271:17337   */\n      dup2\n      slt\n        /* \"#utility.yul\":17261:17355   */\n      tag_567\n      jumpi\n        /* \"#utility.yul\":17351:17352   */\n      0x00\n        /* \"#utility.yul\":17348:17349   */\n      dup1\n        /* \"#utility.yul\":17341:17353   */\n      revert\n        /* \"#utility.yul\":17261:17355   */\n    tag_567:\n        /* \"#utility.yul\":17381:17412   */\n      dup10\n      add\n        /* \"#utility.yul\":17486:17500   */\n      dup6\n      dup2\n      add\n      swap1\n        /* \"#utility.yul\":17439:17458   */\n      calldataload\n      sub(shl(0x40, 0x01), 0x01)\n        /* \"#utility.yul\":17516:17546   */\n      dup2\n      gt\n        /* \"#utility.yul\":17513:17563   */\n      iszero\n      tag_568\n      jumpi\n        /* \"#utility.yul\":17559:17560   */\n      0x00\n        /* \"#utility.yul\":17556:17557   */\n      dup1\n        /* \"#utility.yul\":17549:17561   */\n      revert\n        /* \"#utility.yul\":17513:17563   */\n    tag_568:\n        /* \"#utility.yul\":17612:17618   */\n      dup1\n        /* \"#utility.yul\":17596:17610   */\n      calldatasize\n        /* \"#utility.yul\":17592:17619   */\n      sub\n        /* \"#utility.yul\":17583:17590   */\n      dup3\n        /* \"#utility.yul\":17579:17620   */\n      sgt\n        /* \"#utility.yul\":17576:17637   */\n      iszero\n      tag_569\n      jumpi\n        /* \"#utility.yul\":17633:17634   */\n      0x00\n        /* \"#utility.yul\":17630:17631   */\n      dup1\n        /* \"#utility.yul\":17623:17635   */\n      revert\n        /* \"#utility.yul\":17576:17637   */\n    tag_569:\n        /* \"#utility.yul\":17660:17711   */\n      tag_570\n        /* \"#utility.yul\":17704:17710   */\n      dup7\n        /* \"#utility.yul\":17696:17702   */\n      dup3\n        /* \"#utility.yul\":17687:17694   */\n      dup5\n        /* \"#utility.yul\":17660:17711   */\n      tag_409\n      jump\t// in\n    tag_570:\n        /* \"#utility.yul\":17650:17711   */\n      swap6\n      pop\n      pop\n      pop\n        /* \"#utility.yul\":17769:17781   */\n      swap2\n      dup5\n      add\n      swap2\n        /* \"#utility.yul\":17734:17749   */\n      swap1\n      dup5\n      add\n      swap1\n        /* \"#utility.yul\":17113:17114   */\n      0x01\n        /* \"#utility.yul\":17106:17115   */\n      add\n        /* \"#utility.yul\":17077:17791   */\n      jump(tag_564)\n    tag_566:\n      pop\n        /* \"#utility.yul\":17808:17814   */\n      swap2\n      swap8\n        /* \"#utility.yul\":16591:17820   */\n      swap7\n      pop\n      pop\n      pop\n      pop\n      pop\n      pop\n      pop\n      jump\t// out\n        /* \"#utility.yul\":17825:18143   */\n    tag_245:\n        /* \"#utility.yul\":18012:18014   */\n      0x40\n        /* \"#utility.yul\":18001:18010   */\n      dup2\n        /* \"#utility.yul\":17994:18015   */\n      mstore\n        /* \"#utility.yul\":17975:17979   */\n      0x00\n        /* \"#utility.yul\":18032:18094   */\n      tag_572\n        /* \"#utility.yul\":18090:18092   */\n      0x40\n        /* \"#utility.yul\":18079:18088   */\n      dup4\n        /* \"#utility.yul\":18075:18093   */\n      add\n        /* \"#utility.yul\":18067:18073   */\n      dup6\n        /* \"#utility.yul\":18059:18065   */\n      dup8\n        /* \"#utility.yul\":18032:18094   */\n      tag_409\n      jump\t// in\n    tag_572:\n        /* \"#utility.yul\":18024:18094   */\n      swap1\n      pop\n        /* \"#utility.yul\":18130:18136   */\n      dup3\n        /* \"#utility.yul\":18125:18127   */\n      0x20\n        /* \"#utility.yul\":18114:18123   */\n      dup4\n        /* \"#utility.yul\":18110:18128   */\n      add\n        /* \"#utility.yul\":18103:18137   */\n      mstore\n        /* \"#utility.yul\":17825:18143   */\n      swap5\n      swap4\n      pop\n      pop\n      pop\n      pop\n      jump\t// out\n        /* \"#utility.yul\":18148:18415   */\n    tag_259:\n        /* \"#utility.yul\":18327:18330   */\n      0x00\n        /* \"#utility.yul\":18352:18409   */\n      tag_381\n        /* \"#utility.yul\":18378:18408   */\n      tag_575\n        /* \"#utility.yul\":18404:18407   */\n      dup4\n        /* \"#utility.yul\":18396:18402   */\n      dup7\n        /* \"#utility.yul\":18378:18408   */\n      tag_408\n      jump\t// in\n    tag_575:\n        /* \"#utility.yul\":18370:18376   */\n      dup5\n        /* \"#utility.yul\":18352:18409   */\n      tag_408\n      jump\t// in\n        /* \"#utility.yul\":18420:18920   */\n    tag_307:\n      sub(shl(0xa0, 0x01), 0x01)\n        /* \"#utility.yul\":18689:18704   */\n      dup6\n      dup2\n      and\n        /* \"#utility.yul\":18671:18705   */\n      dup3\n      mstore\n        /* \"#utility.yul\":18741:18756   */\n      dup5\n      and\n        /* \"#utility.yul\":18736:18738   */\n      0x20\n        /* \"#utility.yul\":18721:18739   */\n      dup3\n      add\n        /* \"#utility.yul\":18714:18757   */\n      mstore\n        /* \"#utility.yul\":18788:18790   */\n      0x40\n        /* \"#utility.yul\":18773:18791   */\n      dup2\n      add\n        /* \"#utility.yul\":18766:18800   */\n      dup4\n      swap1\n      mstore\n        /* \"#utility.yul\":18836:18839   */\n      0x80\n        /* \"#utility.yul\":18831:18833   */\n      0x60\n        /* \"#utility.yul\":18816:18834   */\n      dup3\n      add\n        /* \"#utility.yul\":18809:18840   */\n      dup2\n      swap1\n      mstore\n        /* \"#utility.yul\":18614:18618   */\n      0x00\n      swap1\n        /* \"#utility.yul\":18857:18914   */\n      tag_577\n      swap1\n        /* \"#utility.yul\":18894:18913   */\n      dup4\n      add\n        /* \"#utility.yul\":18886:18892   */\n      dup5\n        /* \"#utility.yul\":18857:18914   */\n      tag_398\n      jump\t// in\n    tag_577:\n        /* \"#utility.yul\":18849:18914   */\n      swap7\n        /* \"#utility.yul\":18420:18920   */\n      swap6\n      pop\n      pop\n      pop\n      pop\n      pop\n      pop\n      jump\t// out\n        /* \"#utility.yul\":18925:19174   */\n    tag_310:\n        /* \"#utility.yul\":18994:19000   */\n      0x00\n        /* \"#utility.yul\":19047:19049   */\n      0x20\n        /* \"#utility.yul\":19035:19044   */\n      dup3\n        /* \"#utility.yul\":19026:19033   */\n      dup5\n        /* \"#utility.yul\":19022:19045   */\n      sub\n        /* \"#utility.yul\":19018:19050   */\n      slt\n        /* \"#utility.yul\":19015:19067   */\n      iszero\n      tag_579\n      jumpi\n        /* \"#utility.yul\":19063:19064   */\n      0x00\n        /* \"#utility.yul\":19060:19061   */\n      dup1\n        /* \"#utility.yul\":19053:19065   */\n      revert\n        /* \"#utility.yul\":19015:19067   */\n    tag_579:\n        /* \"#utility.yul\":19095:19104   */\n      dup2\n        /* \"#utility.yul\":19089:19105   */\n      mload\n        /* \"#utility.yul\":19114:19144   */\n      tag_255\n        /* \"#utility.yul\":19138:19143   */\n      dup2\n        /* \"#utility.yul\":19114:19144   */\n      tag_397\n      jump\t// in\n\n    auxdata: 0xa2646970667358221220e30b7d5a594251fbfba1c4a1de4c25049b8833901d14e92e289b3ee7ba5fab6764736f6c63430008190033\n}\n",
				"bytecode": {
					"linkReferences": {},
					"object": "608060405234801561000f575f80fd5b503360405180604001604052806006815260200165139410d3919560d21b815250604051806040016040528060038152602001624e504360e81b815250815f908161005a9190610193565b5060016100678282610193565b5050506001600160a01b03811661009757604051631e4fbdf760e01b81525f600482015260240160405180910390fd5b6100a0816100aa565b505f600955610252565b600680546001600160a01b038381166001600160a01b0319831681179093556040519116919082907f8be0079c531659141344cd1fd0a4f28419497f9722a3daafe3b4186f6b6457e0905f90a35050565b634e487b7160e01b5f52604160045260245ffd5b600181811c9082168061012357607f821691505b60208210810361014157634e487b7160e01b5f52602260045260245ffd5b50919050565b601f82111561018e57805f5260205f20601f840160051c8101602085101561016c5750805b601f840160051c820191505b8181101561018b575f8155600101610178565b50505b505050565b81516001600160401b038111156101ac576101ac6100fb565b6101c0816101ba845461010f565b84610147565b602080601f8311600181146101f3575f84156101dc5750858301515b5f19600386901b1c1916600185901b17855561024a565b5f85815260208120601f198616915b8281101561022157888601518255948401946001909101908401610202565b508582101561023e57878501515f19600388901b60f8161c191681555b505060018460011b0185555b505050505050565b611c708061025f5f395ff3fe608060405234801561000f575f80fd5b5060043610610127575f3560e01c80637f177d31116100a9578063af77af041161006e578063af77af041461027c578063b88d4fde1461028f578063c87b56dd146102a2578063e985e9c5146102b5578063f2fde38b146102c8575f80fd5b80637f177d311461021d5780638a6054361461023d5780638da5cb5b1461025057806395d89b4114610261578063a22cb46514610269575f80fd5b806342842e0e116100ef57806342842e0e146101bb5780636352211e146101ce57806370a08231146101e1578063715018a614610202578063736dea811461020a575f80fd5b806301ffc9a71461012b57806306fdde0314610153578063081812fc14610168578063095ea7b31461019357806323b872dd146101a8575b5f80fd5b61013e61013936600461125c565b6102db565b60405190151581526020015b60405180910390f35b61015b61032c565b60405161014a91906112a5565b61017b6101763660046112b7565b6103bb565b6040516001600160a01b03909116815260200161014a565b6101a66101a13660046112e9565b6103e2565b005b6101a66101b6366004611311565b6103f1565b6101a66101c9366004611311565b61047f565b61017b6101dc3660046112b7565b61049e565b6101f46101ef36600461134a565b6104a8565b60405190815260200161014a565b6101a66104ed565b6101f4610218366004611363565b610500565b61023061022b3660046112b7565b610535565b60405161014a91906113d7565b6101a661024b36600461155f565b61061a565b6006546001600160a01b031661017b565b61015b6107e2565b6101a661027736600461164e565b6107f1565b6101a661028a3660046116ce565b6107fc565b6101a661029d366004611741565b6109d3565b61015b6102b03660046112b7565b6109ea565b61013e6102c33660046117b7565b610a5b565b6101a66102d636600461134a565b610a88565b5f6001600160e01b031982166380ac58cd60e01b148061030b57506001600160e01b03198216635b5e139f60e01b145b8061032657506301ffc9a760e01b6001600160e01b03198316145b92915050565b60605f805461033a906117e8565b80601f0160208091040260200160405190810160405280929190818152602001828054610366906117e8565b80156103b15780601f10610388576101008083540402835291602001916103b1565b820191905f5260205f20905b81548152906001019060200180831161039457829003601f168201915b5050505050905090565b5f6103c582610ac5565b505f828152600460205260409020546001600160a01b0316610326565b6103ed828233610afd565b5050565b6001600160a01b03821661041f57604051633250574960e11b81525f60048201526024015b60405180910390fd5b5f61042b838333610b0a565b9050836001600160a01b0316816001600160a01b031614610479576040516364283d7b60e01b81526001600160a01b0380861660048301526024820184905282166044820152606401610416565b50505050565b61049983838360405180602001604052805f8152506109d3565b505050565b5f61032682610ac5565b5f6001600160a01b0382166104d2576040516322718ad960e21b81525f6004820152602401610416565b506001600160a01b03165f9081526003602052604090205490565b6104f5610bfc565b6104fe5f610c29565b565b5f83815260086020526040808220905161051d9085908590611820565b90815260200160405180910390205490509392505050565b606060075f8381526020019081526020015f20805480602002602001604051908101604052809291908181526020015f905b8282101561060f578382905f5260205f20018054610584906117e8565b80601f01602080910402602001604051908101604052809291908181526020018280546105b0906117e8565b80156105fb5780601f106105d2576101008083540402835291602001916105fb565b820191905f5260205f20905b8154815290600101906020018083116105de57829003601f168201915b505050505081526020019060010190610567565b505050509050919050565b610622610bfc565b80518251146106435760405162461bcd60e51b81526004016104169061182f565b5f6009546001610653919061187d565b600981905590506106648482610c7a565b5f5b8351811015610723575f82815260076020526040902084518590839081106106905761069061189c565b60209081029190910181015182546001810184555f9384529190922001906106b890826118f4565b508281815181106106cb576106cb61189c565b602002602001015160085f8481526020019081526020015f208583815181106106f6576106f661189c565b602002602001015160405161070b91906119c6565b90815260405190819003602001902055600101610666565b50807faaa3ef9b79affd1b4052e81dd38126a7a1dd22345b41b8866fbe06d6c5cb02fe8460405161075491906113d7565b60405180910390a25f5b83518110156107db57817ff09c4f8065057564478e900e30beeaa7be6409e52ad156a4067fdcab3e9ad5d085838151811061079b5761079b61189c565b60200260200101518584815181106107b5576107b561189c565b60200260200101516040516107cb9291906119d1565b60405180910390a260010161075e565b5050505050565b60606001805461033a906117e8565b6103ed338383610cdb565b610804610bfc565b8281146108235760405162461bcd60e51b81526004016104169061182f565b5f858152600760205260408120610839916111ca565b5f5b83811015610908575f8681526007602052604090208585838181106108625761086261189c565b905060200281019061087491906119f2565b82546001810184555f9384526020909320909201916108939183611a34565b508282828181106108a6576108a661189c565b9050602002013560085f8881526020019081526020015f208686848181106108d0576108d061189c565b90506020028101906108e291906119f2565b6040516108f0929190611820565b9081526040519081900360200190205560010161083b565b50847faaa3ef9b79affd1b4052e81dd38126a7a1dd22345b41b8866fbe06d6c5cb02fe858560405161093b929190611b15565b60405180910390a25f5b838110156109cb57857ff09c4f8065057564478e900e30beeaa7be6409e52ad156a4067fdcab3e9ad5d08686848181106109815761098161189c565b905060200281019061099391906119f2565b8686868181106109a5576109a561189c565b905060200201356040516109bb93929190611bac565b60405180910390a2600101610945565b505050505050565b6109de8484846103f1565b61047984848484610d79565b60606109f582610ac5565b505f610a0b60408051602081019091525f815290565b90505f815111610a295760405180602001604052805f815250610a54565b80610a3384610e98565b604051602001610a44929190611bcf565b6040516020818303038152906040525b9392505050565b6001600160a01b039182165f90815260056020908152604080832093909416825291909152205460ff1690565b610a90610bfc565b6001600160a01b038116610ab957604051631e4fbdf760e01b81525f6004820152602401610416565b610ac281610c29565b50565b5f818152600260205260408120546001600160a01b03168061032657604051637e27328960e01b815260048101849052602401610416565b6104998383836001610f27565b5f828152600260205260408120546001600160a01b0390811690831615610b3657610b3681848661102b565b6001600160a01b03811615610b7057610b515f855f80610f27565b6001600160a01b0381165f90815260036020526040902080545f190190555b6001600160a01b03851615610b9e576001600160a01b0385165f908152600360205260409020805460010190555b5f8481526002602052604080822080546001600160a01b0319166001600160a01b0389811691821790925591518793918516917fddf252ad1be2c89b69c2b068fc378daa952ba7f163c4a11628f55a4df523b3ef91a4949350505050565b6006546001600160a01b031633146104fe5760405163118cdaa760e01b8152336004820152602401610416565b600680546001600160a01b038381166001600160a01b0319831681179093556040519116919082907f8be0079c531659141344cd1fd0a4f28419497f9722a3daafe3b4186f6b6457e0905f90a35050565b6001600160a01b038216610ca357604051633250574960e11b81525f6004820152602401610416565b5f610caf83835f610b0a565b90506001600160a01b03811615610499576040516339e3563760e11b81525f6004820152602401610416565b6001600160a01b038216610d0d57604051630b61174360e31b81526001600160a01b0383166004820152602401610416565b6001600160a01b038381165f81815260056020908152604080832094871680845294825291829020805460ff191686151590811790915591519182527f17307eab39ab6107e8899845ad3d59bd9653f200f220920489ca2b5937696c31910160405180910390a3505050565b6001600160a01b0383163b1561047957604051630a85bd0160e11b81526001600160a01b0384169063150b7a0290610dbb903390889087908790600401611be3565b6020604051808303815f875af1925050508015610df5575060408051601f3d908101601f19168201909252610df291810190611c1f565b60015b610e5c573d808015610e22576040519150601f19603f3d011682016040523d82523d5f602084013e610e27565b606091505b5080515f03610e5457604051633250574960e11b81526001600160a01b0385166004820152602401610416565b805181602001fd5b6001600160e01b03198116630a85bd0160e11b146107db57604051633250574960e11b81526001600160a01b0385166004820152602401610416565b60605f610ea48361108f565b60010190505f816001600160401b03811115610ec257610ec2611439565b6040519080825280601f01601f191660200182016040528015610eec576020820181803683370190505b5090508181016020015b5f19016f181899199a1a9b1b9c1cb0b131b232b360811b600a86061a8153600a8504945084610ef657509392505050565b8080610f3b57506001600160a01b03821615155b15610ffc575f610f4a84610ac5565b90506001600160a01b03831615801590610f765750826001600160a01b0316816001600160a01b031614155b8015610f895750610f878184610a5b565b155b15610fb25760405163a9fbf51f60e01b81526001600160a01b0384166004820152602401610416565b8115610ffa5783856001600160a01b0316826001600160a01b03167f8c5be1e5ebec7d5bd14f71427d1e84f3dd0314c0f7b2291e5b200ac8c7c3b92560405160405180910390a45b505b50505f90815260046020526040902080546001600160a01b0319166001600160a01b0392909216919091179055565b611036838383611166565b610499576001600160a01b03831661106457604051637e27328960e01b815260048101829052602401610416565b60405163177e802f60e01b81526001600160a01b038316600482015260248101829052604401610416565b5f8072184f03e93ff9f4daa797ed6e38ed64bf6a1f0160401b83106110cd5772184f03e93ff9f4daa797ed6e38ed64bf6a1f0160401b830492506040015b6d04ee2d6d415b85acef810000000083106110f9576d04ee2d6d415b85acef8100000000830492506020015b662386f26fc10000831061111757662386f26fc10000830492506010015b6305f5e100831061112f576305f5e100830492506008015b612710831061114357612710830492506004015b60648310611155576064830492506002015b600a83106103265760010192915050565b5f6001600160a01b038316158015906111c25750826001600160a01b0316846001600160a01b0316148061119f575061119f8484610a5b565b806111c257505f828152600460205260409020546001600160a01b038481169116145b949350505050565b5080545f8255905f5260205f2090810190610ac291905b808211156111fd575f6111f48282611201565b506001016111e1565b5090565b50805461120d906117e8565b5f825580601f1061121c575050565b601f0160209004905f5260205f2090810190610ac291905b808211156111fd575f8155600101611234565b6001600160e01b031981168114610ac2575f80fd5b5f6020828403121561126c575f80fd5b8135610a5481611247565b5f81518084528060208401602086015e5f602082860101526020601f19601f83011685010191505092915050565b602081525f610a546020830184611277565b5f602082840312156112c7575f80fd5b5035919050565b80356001600160a01b03811681146112e4575f80fd5b919050565b5f80604083850312156112fa575f80fd5b611303836112ce565b946020939093013593505050565b5f805f60608486031215611323575f80fd5b61132c846112ce565b925061133a602085016112ce565b9150604084013590509250925092565b5f6020828403121561135a575f80fd5b610a54826112ce565b5f805f60408486031215611375575f80fd5b8335925060208401356001600160401b0380821115611392575f80fd5b818601915086601f8301126113a5575f80fd5b8135818111156113b3575f80fd5b8760208285010111156113c4575f80fd5b6020830194508093505050509250925092565b5f60208083016020845280855180835260408601915060408160051b8701019250602087015f5b8281101561142c57603f1988860301845261141a858351611277565b945092850192908501906001016113fe565b5092979650505050505050565b634e487b7160e01b5f52604160045260245ffd5b604051601f8201601f191681016001600160401b038111828210171561147557611475611439565b604052919050565b5f6001600160401b0382111561149557611495611439565b5060051b60200190565b5f6001600160401b038311156114b7576114b7611439565b6114ca601f8401601f191660200161144d565b90508281528383830111156114dd575f80fd5b828260208301375f602084830101529392505050565b5f82601f830112611502575f80fd5b813560206115176115128361147d565b61144d565b8083825260208201915060208460051b870101935086841115611538575f80fd5b602086015b84811015611554578035835291830191830161153d565b509695505050505050565b5f805f60608486031215611571575f80fd5b61157a846112ce565b92506020808501356001600160401b0380821115611596575f80fd5b818701915087601f8301126115a9575f80fd5b81356115b76115128261147d565b81815260059190911b8301840190848101908a8311156115d5575f80fd5b8585015b8381101561161e578035858111156115ef575f80fd5b8601603f81018d136115ff575f80fd5b6116108d898301356040840161149f565b8452509186019186016115d9565b50965050506040870135925080831115611636575f80fd5b5050611644868287016114f3565b9150509250925092565b5f806040838503121561165f575f80fd5b611668836112ce565b91506020830135801515811461167c575f80fd5b809150509250929050565b5f8083601f840112611697575f80fd5b5081356001600160401b038111156116ad575f80fd5b6020830191508360208260051b85010111156116c7575f80fd5b9250929050565b5f805f805f606086880312156116e2575f80fd5b8535945060208601356001600160401b03808211156116ff575f80fd5b61170b89838a01611687565b90965094506040880135915080821115611723575f80fd5b5061173088828901611687565b969995985093965092949392505050565b5f805f8060808587031215611754575f80fd5b61175d856112ce565b935061176b602086016112ce565b92506040850135915060608501356001600160401b0381111561178c575f80fd5b8501601f8101871361179c575f80fd5b6117ab8782356020840161149f565b91505092959194509250565b5f80604083850312156117c8575f80fd5b6117d1836112ce565b91506117df602084016112ce565b90509250929050565b600181811c908216806117fc57607f821691505b60208210810361181a57634e487b7160e01b5f52602260045260245ffd5b50919050565b818382375f9101908152919050565b6020808252602e908201527f43726564697420747970657320616e6420737570706c79206c696d697473206c60408201526d0cadccee8d040dad2e6dac2e8c6d60931b606082015260800190565b8082018082111561032657634e487b7160e01b5f52601160045260245ffd5b634e487b7160e01b5f52603260045260245ffd5b601f82111561049957805f5260205f20601f840160051c810160208510156118d55750805b601f840160051c820191505b818110156107db575f81556001016118e1565b81516001600160401b0381111561190d5761190d611439565b6119218161191b84546117e8565b846118b0565b602080601f831160018114611954575f841561193d5750858301515b5f19600386901b1c1916600185901b1785556109cb565b5f85815260208120601f198616915b8281101561198257888601518255948401946001909101908401611963565b508582101561199f57878501515f19600388901b60f8161c191681555b5050505050600190811b01905550565b5f81518060208401855e5f93019283525090919050565b5f610a5482846119af565b604081525f6119e36040830185611277565b90508260208301529392505050565b5f808335601e19843603018112611a07575f80fd5b8301803591506001600160401b03821115611a20575f80fd5b6020019150368190038213156116c7575f80fd5b6001600160401b03831115611a4b57611a4b611439565b611a5f83611a5983546117e8565b836118b0565b5f601f841160018114611a90575f8515611a795750838201355b5f19600387901b1c1916600186901b1783556107db565b5f83815260208120601f198716915b82811015611abf5786850135825560209485019460019092019101611a9f565b5086821015611adb575f1960f88860031b161c19848701351681555b505060018560011b0183555050505050565b81835281816020850137505f828201602090810191909152601f909101601f19169091010190565b60208082528181018390525f906040600585901b8401810190840186845b87811015611b9f57868403603f190183528135368a9003601e19018112611b58575f80fd5b890185810190356001600160401b03811115611b72575f80fd5b803603821315611b80575f80fd5b611b8b868284611aed565b955050509184019190840190600101611b33565b5091979650505050505050565b604081525f611bbf604083018587611aed565b9050826020830152949350505050565b5f6111c2611bdd83866119af565b846119af565b6001600160a01b03858116825284166020820152604081018390526080606082018190525f90611c1590830184611277565b9695505050505050565b5f60208284031215611c2f575f80fd5b8151610a548161124756fea2646970667358221220e30b7d5a594251fbfba1c4a1de4c25049b8833901d14e92e289b3ee7ba5fab6764736f6c63430008190033",
					"opcodes": "PUSH1 0x80 PUSH1 0x40 MSTORE CALLVALUE DUP1 ISZERO PUSH2 0xF JUMPI PUSH0 DUP1 REVERT JUMPDEST POP CALLER PUSH1 0x40 MLOAD DUP1 PUSH1 0x40 ADD PUSH1 0x40 MSTORE DUP1 PUSH1 0x6 DUP2 MSTORE PUSH1 0x20 ADD PUSH6 0x139410D39195 PUSH1 0xD2 SHL DUP2 MSTORE POP PUSH1 0x40 MLOAD DUP1 PUSH1 0x40 ADD PUSH1 0x40 MSTORE DUP1 PUSH1 0x3 DUP2 MSTORE PUSH1 0x20 ADD PUSH3 0x4E5043 PUSH1 0xE8 SHL DUP2 MSTORE POP DUP2 PUSH0 SWAP1 DUP2 PUSH2 0x5A SWAP2 SWAP1 PUSH2 0x193 JUMP JUMPDEST POP PUSH1 0x1 PUSH2 0x67 DUP3 DUP3 PUSH2 0x193 JUMP JUMPDEST POP POP POP PUSH1 0x1 PUSH1 0x1 PUSH1 0xA0 SHL SUB DUP2 AND PUSH2 0x97 JUMPI PUSH1 0x40 MLOAD PUSH4 0x1E4FBDF7 PUSH1 0xE0 SHL DUP2 MSTORE PUSH0 PUSH1 0x4 DUP3 ADD MSTORE PUSH1 0x24 ADD PUSH1 0x40 MLOAD DUP1 SWAP2 SUB SWAP1 REVERT JUMPDEST PUSH2 0xA0 DUP2 PUSH2 0xAA JUMP JUMPDEST POP PUSH0 PUSH1 0x9 SSTORE PUSH2 0x252 JUMP JUMPDEST PUSH1 0x6 DUP1 SLOAD PUSH1 0x1 PUSH1 0x1 PUSH1 0xA0 SHL SUB DUP4 DUP2 AND PUSH1 0x1 PUSH1 0x1 PUSH1 0xA0 SHL SUB NOT DUP4 AND DUP2 OR SWAP1 SWAP4 SSTORE PUSH1 0x40 MLOAD SWAP2 AND SWAP2 SWAP1 DUP3 SWAP1 PUSH32 0x8BE0079C531659141344CD1FD0A4F28419497F9722A3DAAFE3B4186F6B6457E0 SWAP1 PUSH0 SWAP1 LOG3 POP POP JUMP JUMPDEST PUSH4 0x4E487B71 PUSH1 0xE0 SHL PUSH0 MSTORE PUSH1 0x41 PUSH1 0x4 MSTORE PUSH1 0x24 PUSH0 REVERT JUMPDEST PUSH1 0x1 DUP2 DUP2 SHR SWAP1 DUP3 AND DUP1 PUSH2 0x123 JUMPI PUSH1 0x7F DUP3 AND SWAP2 POP JUMPDEST PUSH1 0x20 DUP3 LT DUP2 SUB PUSH2 0x141 JUMPI PUSH4 0x4E487B71 PUSH1 0xE0 SHL PUSH0 MSTORE PUSH1 0x22 PUSH1 0x4 MSTORE PUSH1 0x24 PUSH0 REVERT JUMPDEST POP SWAP2 SWAP1 POP JUMP JUMPDEST PUSH1 0x1F DUP3 GT ISZERO PUSH2 0x18E JUMPI DUP1 PUSH0 MSTORE PUSH1 0x20 PUSH0 KECCAK256 PUSH1 0x1F DUP5 ADD PUSH1 0x5 SHR DUP2 ADD PUSH1 0x20 DUP6 LT ISZERO PUSH2 0x16C JUMPI POP DUP1 JUMPDEST PUSH1 0x1F DUP5 ADD PUSH1 0x5 SHR DUP3 ADD SWAP2 POP JUMPDEST DUP2 DUP2 LT ISZERO PUSH2 0x18B JUMPI PUSH0 DUP2 SSTORE PUSH1 0x1 ADD PUSH2 0x178 JUMP JUMPDEST POP POP JUMPDEST POP POP POP JUMP JUMPDEST DUP2 MLOAD PUSH1 0x1 PUSH1 0x1 PUSH1 0x40 SHL SUB DUP2 GT ISZERO PUSH2 0x1AC JUMPI PUSH2 0x1AC PUSH2 0xFB JUMP JUMPDEST PUSH2 0x1C0 DUP2 PUSH2 0x1BA DUP5 SLOAD PUSH2 0x10F JUMP JUMPDEST DUP5 PUSH2 0x147 JUMP JUMPDEST PUSH1 0x20 DUP1 PUSH1 0x1F DUP4 GT PUSH1 0x1 DUP2 EQ PUSH2 0x1F3 JUMPI PUSH0 DUP5 ISZERO PUSH2 0x1DC JUMPI POP DUP6 DUP4 ADD MLOAD JUMPDEST PUSH0 NOT PUSH1 0x3 DUP7 SWAP1 SHL SHR NOT AND PUSH1 0x1 DUP6 SWAP1 SHL OR DUP6 SSTORE PUSH2 0x24A JUMP JUMPDEST PUSH0 DUP6 DUP2 MSTORE PUSH1 0x20 DUP2 KECCAK256 PUSH1 0x1F NOT DUP7 AND SWAP2 JUMPDEST DUP3 DUP2 LT ISZERO PUSH2 0x221 JUMPI DUP9 DUP7 ADD MLOAD DUP3 SSTORE SWAP5 DUP5 ADD SWAP5 PUSH1 0x1 SWAP1 SWAP2 ADD SWAP1 DUP5 ADD PUSH2 0x202 JUMP JUMPDEST POP DUP6 DUP3 LT ISZERO PUSH2 0x23E JUMPI DUP8 DUP6 ADD MLOAD PUSH0 NOT PUSH1 0x3 DUP9 SWAP1 SHL PUSH1 0xF8 AND SHR NOT AND DUP2 SSTORE JUMPDEST POP POP PUSH1 0x1 DUP5 PUSH1 0x1 SHL ADD DUP6 SSTORE JUMPDEST POP POP POP POP POP POP JUMP JUMPDEST PUSH2 0x1C70 DUP1 PUSH2 0x25F PUSH0 CODECOPY PUSH0 RETURN INVALID PUSH1 0x80 PUSH1 0x40 MSTORE CALLVALUE DUP1 ISZERO PUSH2 0xF JUMPI PUSH0 DUP1 REVERT JUMPDEST POP PUSH1 0x4 CALLDATASIZE LT PUSH2 0x127 JUMPI PUSH0 CALLDATALOAD PUSH1 0xE0 SHR DUP1 PUSH4 0x7F177D31 GT PUSH2 0xA9 JUMPI DUP1 PUSH4 0xAF77AF04 GT PUSH2 0x6E JUMPI DUP1 PUSH4 0xAF77AF04 EQ PUSH2 0x27C JUMPI DUP1 PUSH4 0xB88D4FDE EQ PUSH2 0x28F JUMPI DUP1 PUSH4 0xC87B56DD EQ PUSH2 0x2A2 JUMPI DUP1 PUSH4 0xE985E9C5 EQ PUSH2 0x2B5 JUMPI DUP1 PUSH4 0xF2FDE38B EQ PUSH2 0x2C8 JUMPI PUSH0 DUP1 REVERT JUMPDEST DUP1 PUSH4 0x7F177D31 EQ PUSH2 0x21D JUMPI DUP1 PUSH4 0x8A605436 EQ PUSH2 0x23D JUMPI DUP1 PUSH4 0x8DA5CB5B EQ PUSH2 0x250 JUMPI DUP1 PUSH4 0x95D89B41 EQ PUSH2 0x261 JUMPI DUP1 PUSH4 0xA22CB465 EQ PUSH2 0x269 JUMPI PUSH0 DUP1 REVERT JUMPDEST DUP1 PUSH4 0x42842E0E GT PUSH2 0xEF JUMPI DUP1 PUSH4 0x42842E0E EQ PUSH2 0x1BB JUMPI DUP1 PUSH4 0x6352211E EQ PUSH2 0x1CE JUMPI DUP1 PUSH4 0x70A08231 EQ PUSH2 0x1E1 JUMPI DUP1 PUSH4 0x715018A6 EQ PUSH2 0x202 JUMPI DUP1 PUSH4 0x736DEA81 EQ PUSH2 0x20A JUMPI PUSH0 DUP1 REVERT JUMPDEST DUP1 PUSH4 0x1FFC9A7 EQ PUSH2 0x12B JUMPI DUP1 PUSH4 0x6FDDE03 EQ PUSH2 0x153 JUMPI DUP1 PUSH4 0x81812FC EQ PUSH2 0x168 JUMPI DUP1 PUSH4 0x95EA7B3 EQ PUSH2 0x193 JUMPI DUP1 PUSH4 0x23B872DD EQ PUSH2 0x1A8 JUMPI JUMPDEST PUSH0 DUP1 REVERT JUMPDEST PUSH2 0x13E PUSH2 0x139 CALLDATASIZE PUSH1 0x4 PUSH2 0x125C JUMP JUMPDEST PUSH2 0x2DB JUMP JUMPDEST PUSH1 0x40 MLOAD SWAP1 ISZERO ISZERO DUP2 MSTORE PUSH1 0x20 ADD JUMPDEST PUSH1 0x40 MLOAD DUP1 SWAP2 SUB SWAP1 RETURN JUMPDEST PUSH2 0x15B PUSH2 0x32C JUMP JUMPDEST PUSH1 0x40 MLOAD PUSH2 0x14A SWAP2 SWAP1 PUSH2 0x12A5 JUMP JUMPDEST PUSH2 0x17B PUSH2 0x176 CALLDATASIZE PUSH1 0x4 PUSH2 0x12B7 JUMP JUMPDEST PUSH2 0x3BB JUMP JUMPDEST PUSH1 0x40 MLOAD PUSH1 0x1 PUSH1 0x1 PUSH1 0xA0 SHL SUB SWAP1 SWAP2 AND DUP2 MSTORE PUSH1 0x20 ADD PUSH2 0x14A JUMP JUMPDEST PUSH2 0x1A6 PUSH2 0x1A1 CALLDATASIZE PUSH1 0x4 PUSH2 0x12E9 JUMP JUMPDEST PUSH2 0x3E2 JUMP JUMPDEST STOP JUMPDEST PUSH2 0x1A6 PUSH2 0x1B6 CALLDATASIZE PUSH1 0x4 PUSH2 0x1311 JUMP JUMPDEST PUSH2 0x3F1 JUMP JUMPDEST PUSH2 0x1A6 PUSH2 0x1C9 CALLDATASIZE PUSH1 0x4 PUSH2 0x1311 JUMP JUMPDEST PUSH2 0x47F JUMP JUMPDEST PUSH2 0x17B PUSH2 0x1DC CALLDATASIZE PUSH1 0x4 PUSH2 0x12B7 JUMP JUMPDEST PUSH2 0x49E JUMP JUMPDEST PUSH2 0x1F4 PUSH2 0x1EF CALLDATASIZE PUSH1 0x4 PUSH2 0x134A JUMP JUMPDEST PUSH2 0x4A8 JUMP JUMPDEST PUSH1 0x40 MLOAD SWAP1 DUP2 MSTORE PUSH1 0x20 ADD PUSH2 0x14A JUMP JUMPDEST PUSH2 0x1A6 PUSH2 0x4ED JUMP JUMPDEST PUSH2 0x1F4 PUSH2 0x218 CALLDATASIZE PUSH1 0x4 PUSH2 0x1363 JUMP JUMPDEST PUSH2 0x500 JUMP JUMPDEST PUSH2 0x230 PUSH2 0x22B CALLDATASIZE PUSH1 0x4 PUSH2 0x12B7 JUMP JUMPDEST PUSH2 0x535 JUMP JUMPDEST PUSH1 0x40 MLOAD PUSH2 0x14A SWAP2 SWAP1 PUSH2 0x13D7 JUMP JUMPDEST PUSH2 0x1A6 PUSH2 0x24B CALLDATASIZE PUSH1 0x4 PUSH2 0x155F JUMP JUMPDEST PUSH2 0x61A JUMP JUMPDEST PUSH1 0x6 SLOAD PUSH1 0x1 PUSH1 0x1 PUSH1 0xA0 SHL SUB AND PUSH2 0x17B JUMP JUMPDEST PUSH2 0x15B PUSH2 0x7E2 JUMP JUMPDEST PUSH2 0x1A6 PUSH2 0x277 CALLDATASIZE PUSH1 0x4 PUSH2 0x164E JUMP JUMPDEST PUSH2 0x7F1 JUMP JUMPDEST PUSH2 0x1A6 PUSH2 0x28A CALLDATASIZE PUSH1 0x4 PUSH2 0x16CE JUMP JUMPDEST PUSH2 0x7FC JUMP JUMPDEST PUSH2 0x1A6 PUSH2 0x29D CALLDATASIZE PUSH1 0x4 PUSH2 0x1741 JUMP JUMPDEST PUSH2 0x9D3 JUMP JUMPDEST PUSH2 0x15B PUSH2 0x2B0 CALLDATASIZE PUSH1 0x4 PUSH2 0x12B7 JUMP JUMPDEST PUSH2 0x9EA JUMP JUMPDEST PUSH2 0x13E PUSH2 0x2C3 CALLDATASIZE PUSH1 0x4 PUSH2 0x17B7 JUMP JUMPDEST PUSH2 0xA5B JUMP JUMPDEST PUSH2 0x1A6 PUSH2 0x2D6 CALLDATASIZE PUSH1 0x4 PUSH2 0x134A JUMP JUMPDEST PUSH2 0xA88 JUMP JUMPDEST PUSH0 PUSH1 0x1 PUSH1 0x1 PUSH1 0xE0 SHL SUB NOT DUP3 AND PUSH4 0x80AC58CD PUSH1 0xE0 SHL EQ DUP1 PUSH2 0x30B JUMPI POP PUSH1 0x1 PUSH1 0x1 PUSH1 0xE0 SHL SUB NOT DUP3 AND PUSH4 0x5B5E139F PUSH1 0xE0 SHL EQ JUMPDEST DUP1 PUSH2 0x326 JUMPI POP PUSH4 0x1FFC9A7 PUSH1 0xE0 SHL PUSH1 0x1 PUSH1 0x1 PUSH1 0xE0 SHL SUB NOT DUP4 AND EQ JUMPDEST SWAP3 SWAP2 POP POP JUMP JUMPDEST PUSH1 0x60 PUSH0 DUP1 SLOAD PUSH2 0x33A SWAP1 PUSH2 0x17E8 JUMP JUMPDEST DUP1 PUSH1 0x1F ADD PUSH1 0x20 DUP1 SWAP2 DIV MUL PUSH1 0x20 ADD PUSH1 0x40 MLOAD SWAP1 DUP2 ADD PUSH1 0x40 MSTORE DUP1 SWAP3 SWAP2 SWAP1 DUP2 DUP2 MSTORE PUSH1 0x20 ADD DUP3 DUP1 SLOAD PUSH2 0x366 SWAP1 PUSH2 0x17E8 JUMP JUMPDEST DUP1 ISZERO PUSH2 0x3B1 JUMPI DUP1 PUSH1 0x1F LT PUSH2 0x388 JUMPI PUSH2 0x100 DUP1 DUP4 SLOAD DIV MUL DUP4 MSTORE SWAP2 PUSH1 0x20 ADD SWAP2 PUSH2 0x3B1 JUMP JUMPDEST DUP3 ADD SWAP2 SWAP1 PUSH0 MSTORE PUSH1 0x20 PUSH0 KECCAK256 SWAP1 JUMPDEST DUP2 SLOAD DUP2 MSTORE SWAP1 PUSH1 0x1 ADD SWAP1 PUSH1 0x20 ADD DUP1 DUP4 GT PUSH2 0x394 JUMPI DUP3 SWAP1 SUB PUSH1 0x1F AND DUP3 ADD SWAP2 JUMPDEST POP POP POP POP POP SWAP1 POP SWAP1 JUMP JUMPDEST PUSH0 PUSH2 0x3C5 DUP3 PUSH2 0xAC5 JUMP JUMPDEST POP PUSH0 DUP3 DUP2 MSTORE PUSH1 0x4 PUSH1 0x20 MSTORE PUSH1 0x40 SWAP1 KECCAK256 SLOAD PUSH1 0x1 PUSH1 0x1 PUSH1 0xA0 SHL SUB AND PUSH2 0x326 JUMP JUMPDEST PUSH2 0x3ED DUP3 DUP3 CALLER PUSH2 0xAFD JUMP JUMPDEST POP POP JUMP JUMPDEST PUSH1 0x1 PUSH1 0x1 PUSH1 0xA0 SHL SUB DUP3 AND PUSH2 0x41F JUMPI PUSH1 0x40 MLOAD PUSH4 0x32505749 PUSH1 0xE1 SHL DUP2 MSTORE PUSH0 PUSH1 0x4 DUP3 ADD MSTORE PUSH1 0x24 ADD JUMPDEST PUSH1 0x40 MLOAD DUP1 SWAP2 SUB SWAP1 REVERT JUMPDEST PUSH0 PUSH2 0x42B DUP4 DUP4 CALLER PUSH2 0xB0A JUMP JUMPDEST SWAP1 POP DUP4 PUSH1 0x1 PUSH1 0x1 PUSH1 0xA0 SHL SUB AND DUP2 PUSH1 0x1 PUSH1 0x1 PUSH1 0xA0 SHL SUB AND EQ PUSH2 0x479 JUMPI PUSH1 0x40 MLOAD PUSH4 0x64283D7B PUSH1 0xE0 SHL DUP2 MSTORE PUSH1 0x1 PUSH1 0x1 PUSH1 0xA0 SHL SUB DUP1 DUP7 AND PUSH1 0x4 DUP4 ADD MSTORE PUSH1 0x24 DUP3 ADD DUP5 SWAP1 MSTORE DUP3 AND PUSH1 0x44 DUP3 ADD MSTORE PUSH1 0x64 ADD PUSH2 0x416 JUMP JUMPDEST POP POP POP POP JUMP JUMPDEST PUSH2 0x499 DUP4 DUP4 DUP4 PUSH1 0x40 MLOAD DUP1 PUSH1 0x20 ADD PUSH1 0x40 MSTORE DUP1 PUSH0 DUP2 MSTORE POP PUSH2 0x9D3 JUMP JUMPDEST POP POP POP JUMP JUMPDEST PUSH0 PUSH2 0x326 DUP3 PUSH2 0xAC5 JUMP JUMPDEST PUSH0 PUSH1 0x1 PUSH1 0x1 PUSH1 0xA0 SHL SUB DUP3 AND PUSH2 0x4D2 JUMPI PUSH1 0x40 MLOAD PUSH4 0x22718AD9 PUSH1 0xE2 SHL DUP2 MSTORE PUSH0 PUSH1 0x4 DUP3 ADD MSTORE PUSH1 0x24 ADD PUSH2 0x416 JUMP JUMPDEST POP PUSH1 0x1 PUSH1 0x1 PUSH1 0xA0 SHL SUB AND PUSH0 SWAP1 DUP2 MSTORE PUSH1 0x3 PUSH1 0x20 MSTORE PUSH1 0x40 SWAP1 KECCAK256 SLOAD SWAP1 JUMP JUMPDEST PUSH2 0x4F5 PUSH2 0xBFC JUMP JUMPDEST PUSH2 0x4FE PUSH0 PUSH2 0xC29 JUMP JUMPDEST JUMP JUMPDEST PUSH0 DUP4 DUP2 MSTORE PUSH1 0x8 PUSH1 0x20 MSTORE PUSH1 0x40 DUP1 DUP3 KECCAK256 SWAP1 MLOAD PUSH2 0x51D SWAP1 DUP6 SWAP1 DUP6 SWAP1 PUSH2 0x1820 JUMP JUMPDEST SWAP1 DUP2 MSTORE PUSH1 0x20 ADD PUSH1 0x40 MLOAD DUP1 SWAP2 SUB SWAP1 KECCAK256 SLOAD SWAP1 POP SWAP4 SWAP3 POP POP POP JUMP JUMPDEST PUSH1 0x60 PUSH1 0x7 PUSH0 DUP4 DUP2 MSTORE PUSH1 0x20 ADD SWAP1 DUP2 MSTORE PUSH1 0x20 ADD PUSH0 KECCAK256 DUP1 SLOAD DUP1 PUSH1 0x20 MUL PUSH1 0x20 ADD PUSH1 0x40 MLOAD SWAP1 DUP2 ADD PUSH1 0x40 MSTORE DUP1 SWAP3 SWAP2 SWAP1 DUP2 DUP2 MSTORE PUSH1 0x20 ADD PUSH0 SWAP1 JUMPDEST DUP3 DUP3 LT ISZERO PUSH2 0x60F JUMPI DUP4 DUP3 SWAP1 PUSH0 MSTORE PUSH1 0x20 PUSH0 KECCAK256 ADD DUP1 SLOAD PUSH2 0x584 SWAP1 PUSH2 0x17E8 JUMP JUMPDEST DUP1 PUSH1 0x1F ADD PUSH1 0x20 DUP1 SWAP2 DIV MUL PUSH1 0x20 ADD PUSH1 0x40 MLOAD SWAP1 DUP2 ADD PUSH1 0x40 MSTORE DUP1 SWAP3 SWAP2 SWAP1 DUP2 DUP2 MSTORE PUSH1 0x20 ADD DUP3 DUP1 SLOAD PUSH2 0x5B0 SWAP1 PUSH2 0x17E8 JUMP JUMPDEST DUP1 ISZERO PUSH2 0x5FB JUMPI DUP1 PUSH1 0x1F LT PUSH2 0x5D2 JUMPI PUSH2 0x100 DUP1 DUP4 SLOAD DIV MUL DUP4 MSTORE SWAP2 PUSH1 0x20 ADD SWAP2 PUSH2 0x5FB JUMP JUMPDEST DUP3 ADD SWAP2 SWAP1 PUSH0 MSTORE PUSH1 0x20 PUSH0 KECCAK256 SWAP1 JUMPDEST DUP2 SLOAD DUP2 MSTORE SWAP1 PUSH1 0x1 ADD SWAP1 PUSH1 0x20 ADD DUP1 DUP4 GT PUSH2 0x5DE JUMPI DUP3 SWAP1 SUB PUSH1 0x1F AND DUP3 ADD SWAP2 JUMPDEST POP POP POP POP POP DUP2 MSTORE PUSH1 0x20 ADD SWAP1 PUSH1 0x1 ADD SWAP1 PUSH2 0x567 JUMP JUMPDEST POP POP POP POP SWAP1 POP SWAP2 SWAP1 POP JUMP JUMPDEST PUSH2 0x622 PUSH2 0xBFC JUMP JUMPDEST DUP1 MLOAD DUP3 MLOAD EQ PUSH2 0x643 JUMPI PUSH1 0x40 MLOAD PUSH3 0x461BCD PUSH1 0xE5 SHL DUP2 MSTORE PUSH1 0x4 ADD PUSH2 0x416 SWAP1 PUSH2 0x182F JUMP JUMPDEST PUSH0 PUSH1 0x9 SLOAD PUSH1 0x1 PUSH2 0x653 SWAP2 SWAP1 PUSH2 0x187D JUMP JUMPDEST PUSH1 0x9 DUP2 SWAP1 SSTORE SWAP1 POP PUSH2 0x664 DUP5 DUP3 PUSH2 0xC7A JUMP JUMPDEST PUSH0 JUMPDEST DUP4 MLOAD DUP2 LT ISZERO PUSH2 0x723 JUMPI PUSH0 DUP3 DUP2 MSTORE PUSH1 0x7 PUSH1 0x20 MSTORE PUSH1 0x40 SWAP1 KECCAK256 DUP5 MLOAD DUP6 SWAP1 DUP4 SWAP1 DUP2 LT PUSH2 0x690 JUMPI PUSH2 0x690 PUSH2 0x189C JUMP JUMPDEST PUSH1 0x20 SWAP1 DUP2 MUL SWAP2 SWAP1 SWAP2 ADD DUP2 ADD MLOAD DUP3 SLOAD PUSH1 0x1 DUP2 ADD DUP5 SSTORE PUSH0 SWAP4 DUP5 MSTORE SWAP2 SWAP1 SWAP3 KECCAK256 ADD SWAP1 PUSH2 0x6B8 SWAP1 DUP3 PUSH2 0x18F4 JUMP JUMPDEST POP DUP3 DUP2 DUP2 MLOAD DUP2 LT PUSH2 0x6CB JUMPI PUSH2 0x6CB PUSH2 0x189C JUMP JUMPDEST PUSH1 0x20 MUL PUSH1 0x20 ADD ADD MLOAD PUSH1 0x8 PUSH0 DUP5 DUP2 MSTORE PUSH1 0x20 ADD SWAP1 DUP2 MSTORE PUSH1 0x20 ADD PUSH0 KECCAK256 DUP6 DUP4 DUP2 MLOAD DUP2 LT PUSH2 0x6F6 JUMPI PUSH2 0x6F6 PUSH2 0x189C JUMP JUMPDEST PUSH1 0x20 MUL PUSH1 0x20 ADD ADD MLOAD PUSH1 0x40 MLOAD PUSH2 0x70B SWAP2 SWAP1 PUSH2 0x19C6 JUMP JUMPDEST SWAP1 DUP2 MSTORE PUSH1 0x40 MLOAD SWAP1 DUP2 SWAP1 SUB PUSH1 0x20 ADD SWAP1 KECCAK256 SSTORE PUSH1 0x1 ADD PUSH2 0x666 JUMP JUMPDEST POP DUP1 PUSH32 0xAAA3EF9B79AFFD1B4052E81DD38126A7A1DD22345B41B8866FBE06D6C5CB02FE DUP5 PUSH1 0x40 MLOAD PUSH2 0x754 SWAP2 SWAP1 PUSH2 0x13D7 JUMP JUMPDEST PUSH1 0x40 MLOAD DUP1 SWAP2 SUB SWAP1 LOG2 PUSH0 JUMPDEST DUP4 MLOAD DUP2 LT ISZERO PUSH2 0x7DB JUMPI DUP2 PUSH32 0xF09C4F8065057564478E900E30BEEAA7BE6409E52AD156A4067FDCAB3E9AD5D0 DUP6 DUP4 DUP2 MLOAD DUP2 LT PUSH2 0x79B JUMPI PUSH2 0x79B PUSH2 0x189C JUMP JUMPDEST PUSH1 0x20 MUL PUSH1 0x20 ADD ADD MLOAD DUP6 DUP5 DUP2 MLOAD DUP2 LT PUSH2 0x7B5 JUMPI PUSH2 0x7B5 PUSH2 0x189C JUMP JUMPDEST PUSH1 0x20 MUL PUSH1 0x20 ADD ADD MLOAD PUSH1 0x40 MLOAD PUSH2 0x7CB SWAP3 SWAP2 SWAP1 PUSH2 0x19D1 JUMP JUMPDEST PUSH1 0x40 MLOAD DUP1 SWAP2 SUB SWAP1 LOG2 PUSH1 0x1 ADD PUSH2 0x75E JUMP JUMPDEST POP POP POP POP POP JUMP JUMPDEST PUSH1 0x60 PUSH1 0x1 DUP1 SLOAD PUSH2 0x33A SWAP1 PUSH2 0x17E8 JUMP JUMPDEST PUSH2 0x3ED CALLER DUP4 DUP4 PUSH2 0xCDB JUMP JUMPDEST PUSH2 0x804 PUSH2 0xBFC JUMP JUMPDEST DUP3 DUP2 EQ PUSH2 0x823 JUMPI PUSH1 0x40 MLOAD PUSH3 0x461BCD PUSH1 0xE5 SHL DUP2 MSTORE PUSH1 0x4 ADD PUSH2 0x416 SWAP1 PUSH2 0x182F JUMP JUMPDEST PUSH0 DUP6 DUP2 MSTORE PUSH1 0x7 PUSH1 0x20 MSTORE PUSH1 0x40 DUP2 KECCAK256 PUSH2 0x839 SWAP2 PUSH2 0x11CA JUMP JUMPDEST PUSH0 JUMPDEST DUP4 DUP2 LT ISZERO PUSH2 0x908 JUMPI PUSH0 DUP7 DUP2 MSTORE PUSH1 0x7 PUSH1 0x20 MSTORE PUSH1 0x40 SWAP1 KECCAK256 DUP6 DUP6 DUP4 DUP2 DUP2 LT PUSH2 0x862 JUMPI PUSH2 0x862 PUSH2 0x189C JUMP JUMPDEST SWAP1 POP PUSH1 0x20 MUL DUP2 ADD SWAP1 PUSH2 0x874 SWAP2 SWAP1 PUSH2 0x19F2 JUMP JUMPDEST DUP3 SLOAD PUSH1 0x1 DUP2 ADD DUP5 SSTORE PUSH0 SWAP4 DUP5 MSTORE PUSH1 0x20 SWAP1 SWAP4 KECCAK256 SWAP1 SWAP3 ADD SWAP2 PUSH2 0x893 SWAP2 DUP4 PUSH2 0x1A34 JUMP JUMPDEST POP DUP3 DUP3 DUP3 DUP2 DUP2 LT PUSH2 0x8A6 JUMPI PUSH2 0x8A6 PUSH2 0x189C JUMP JUMPDEST SWAP1 POP PUSH1 0x20 MUL ADD CALLDATALOAD PUSH1 0x8 PUSH0 DUP9 DUP2 MSTORE PUSH1 0x20 ADD SWAP1 DUP2 MSTORE PUSH1 0x20 ADD PUSH0 KECCAK256 DUP7 DUP7 DUP5 DUP2 DUP2 LT PUSH2 0x8D0 JUMPI PUSH2 0x8D0 PUSH2 0x189C JUMP JUMPDEST SWAP1 POP PUSH1 0x20 MUL DUP2 ADD SWAP1 PUSH2 0x8E2 SWAP2 SWAP1 PUSH2 0x19F2 JUMP JUMPDEST PUSH1 0x40 MLOAD PUSH2 0x8F0 SWAP3 SWAP2 SWAP1 PUSH2 0x1820 JUMP JUMPDEST SWAP1 DUP2 MSTORE PUSH1 0x40 MLOAD SWAP1 DUP2 SWAP1 SUB PUSH1 0x20 ADD SWAP1 KECCAK256 SSTORE PUSH1 0x1 ADD PUSH2 0x83B JUMP JUMPDEST POP DUP5 PUSH32 0xAAA3EF9B79AFFD1B4052E81DD38126A7A1DD22345B41B8866FBE06D6C5CB02FE DUP6 DUP6 PUSH1 0x40 MLOAD PUSH2 0x93B SWAP3 SWAP2 SWAP1 PUSH2 0x1B15 JUMP JUMPDEST PUSH1 0x40 MLOAD DUP1 SWAP2 SUB SWAP1 LOG2 PUSH0 JUMPDEST DUP4 DUP2 LT ISZERO PUSH2 0x9CB JUMPI DUP6 PUSH32 0xF09C4F8065057564478E900E30BEEAA7BE6409E52AD156A4067FDCAB3E9AD5D0 DUP7 DUP7 DUP5 DUP2 DUP2 LT PUSH2 0x981 JUMPI PUSH2 0x981 PUSH2 0x189C JUMP JUMPDEST SWAP1 POP PUSH1 0x20 MUL DUP2 ADD SWAP1 PUSH2 0x993 SWAP2 SWAP1 PUSH2 0x19F2 JUMP JUMPDEST DUP7 DUP7 DUP7 DUP2 DUP2 LT PUSH2 0x9A5 JUMPI PUSH2 0x9A5 PUSH2 0x189C JUMP JUMPDEST SWAP1 POP PUSH1 0x20 MUL ADD CALLDATALOAD PUSH1 0x40 MLOAD PUSH2 0x9BB SWAP4 SWAP3 SWAP2 SWAP1 PUSH2 0x1BAC JUMP JUMPDEST PUSH1 0x40 MLOAD DUP1 SWAP2 SUB SWAP1 LOG2 PUSH1 0x1 ADD PUSH2 0x945 JUMP JUMPDEST POP POP POP POP POP POP JUMP JUMPDEST PUSH2 0x9DE DUP5 DUP5 DUP5 PUSH2 0x3F1 JUMP JUMPDEST PUSH2 0x479 DUP5 DUP5 DUP5 DUP5 PUSH2 0xD79 JUMP JUMPDEST PUSH1 0x60 PUSH2 0x9F5 DUP3 PUSH2 0xAC5 JUMP JUMPDEST POP PUSH0 PUSH2 0xA0B PUSH1 0x40 DUP1 MLOAD PUSH1 0x20 DUP2 ADD SWAP1 SWAP2 MSTORE PUSH0 DUP2 MSTORE SWAP1 JUMP JUMPDEST SWAP1 POP PUSH0 DUP2 MLOAD GT PUSH2 0xA29 JUMPI PUSH1 0x40 MLOAD DUP1 PUSH1 0x20 ADD PUSH1 0x40 MSTORE DUP1 PUSH0 DUP2 MSTORE POP PUSH2 0xA54 JUMP JUMPDEST DUP1 PUSH2 0xA33 DUP5 PUSH2 0xE98 JUMP JUMPDEST PUSH1 0x40 MLOAD PUSH1 0x20 ADD PUSH2 0xA44 SWAP3 SWAP2 SWAP1 PUSH2 0x1BCF JUMP JUMPDEST PUSH1 0x40 MLOAD PUSH1 0x20 DUP2 DUP4 SUB SUB DUP2 MSTORE SWAP1 PUSH1 0x40 MSTORE JUMPDEST SWAP4 SWAP3 POP POP POP JUMP JUMPDEST PUSH1 0x1 PUSH1 0x1 PUSH1 0xA0 SHL SUB SWAP2 DUP3 AND PUSH0 SWAP1 DUP2 MSTORE PUSH1 0x5 PUSH1 0x20 SWAP1 DUP2 MSTORE PUSH1 0x40 DUP1 DUP4 KECCAK256 SWAP4 SWAP1 SWAP5 AND DUP3 MSTORE SWAP2 SWAP1 SWAP2 MSTORE KECCAK256 SLOAD PUSH1 0xFF AND SWAP1 JUMP JUMPDEST PUSH2 0xA90 PUSH2 0xBFC JUMP JUMPDEST PUSH1 0x1 PUSH1 0x1 PUSH1 0xA0 SHL SUB DUP2 AND PUSH2 0xAB9 JUMPI PUSH1 0x40 MLOAD PUSH4 0x1E4FBDF7 PUSH1 0xE0 SHL DUP2 MSTORE PUSH0 PUSH1 0x4 DUP3 ADD MSTORE PUSH1 0x24 ADD PUSH2 0x416 JUMP JUMPDEST PUSH2 0xAC2 DUP2 PUSH2 0xC29 JUMP JUMPDEST POP JUMP JUMPDEST PUSH0 DUP2 DUP2 MSTORE PUSH1 0x2 PUSH1 0x20 MSTORE PUSH1 0x40 DUP2 KECCAK256 SLOAD PUSH1 0x1 PUSH1 0x1 PUSH1 0xA0 SHL SUB AND DUP1 PUSH2 0x326 JUMPI PUSH1 0x40 MLOAD PUSH4 0x7E273289 PUSH1 0xE0 SHL DUP2 MSTORE PUSH1 0x4 DUP2 ADD DUP5 SWAP1 MSTORE PUSH1 0x24 ADD PUSH2 0x416 JUMP JUMPDEST PUSH2 0x499 DUP4 DUP4 DUP4 PUSH1 0x1 PUSH2 0xF27 JUMP JUMPDEST PUSH0 DUP3 DUP2 MSTORE PUSH1 0x2 PUSH1 0x20 MSTORE PUSH1 0x40 DUP2 KECCAK256 SLOAD PUSH1 0x1 PUSH1 0x1 PUSH1 0xA0 SHL SUB SWAP1 DUP2 AND SWAP1 DUP4 AND ISZERO PUSH2 0xB36 JUMPI PUSH2 0xB36 DUP2 DUP5 DUP7 PUSH2 0x102B JUMP JUMPDEST PUSH1 0x1 PUSH1 0x1 PUSH1 0xA0 SHL SUB DUP2 AND ISZERO PUSH2 0xB70 JUMPI PUSH2 0xB51 PUSH0 DUP6 PUSH0 DUP1 PUSH2 0xF27 JUMP JUMPDEST PUSH1 0x1 PUSH1 0x1 PUSH1 0xA0 SHL SUB DUP2 AND PUSH0 SWAP1 DUP2 MSTORE PUSH1 0x3 PUSH1 0x20 MSTORE PUSH1 0x40 SWAP1 KECCAK256 DUP1 SLOAD PUSH0 NOT ADD SWAP1 SSTORE JUMPDEST PUSH1 0x1 PUSH1 0x1 PUSH1 0xA0 SHL SUB DUP6 AND ISZERO PUSH2 0xB9E JUMPI PUSH1 0x1 PUSH1 0x1 PUSH1 0xA0 SHL SUB DUP6 AND PUSH0 SWAP1 DUP2 MSTORE PUSH1 0x3 PUSH1 0x20 MSTORE PUSH1 0x40 SWAP1 KECCAK256 DUP1 SLOAD PUSH1 0x1 ADD SWAP1 SSTORE JUMPDEST PUSH0 DUP5 DUP2 MSTORE PUSH1 0x2 PUSH1 0x20 MSTORE PUSH1 0x40 DUP1 DUP3 KECCAK256 DUP1 SLOAD PUSH1 0x1 PUSH1 0x1 PUSH1 0xA0 SHL SUB NOT AND PUSH1 0x1 PUSH1 0x1 PUSH1 0xA0 SHL SUB DUP10 DUP2 AND SWAP2 DUP3 OR SWAP1 SWAP3 SSTORE SWAP2 MLOAD DUP8 SWAP4 SWAP2 DUP6 AND SWAP2 PUSH32 0xDDF252AD1BE2C89B69C2B068FC378DAA952BA7F163C4A11628F55A4DF523B3EF SWAP2 LOG4 SWAP5 SWAP4 POP POP POP POP JUMP JUMPDEST PUSH1 0x6 SLOAD PUSH1 0x1 PUSH1 0x1 PUSH1 0xA0 SHL SUB AND CALLER EQ PUSH2 0x4FE JUMPI PUSH1 0x40 MLOAD PUSH4 0x118CDAA7 PUSH1 0xE0 SHL DUP2 MSTORE CALLER PUSH1 0x4 DUP3 ADD MSTORE PUSH1 0x24 ADD PUSH2 0x416 JUMP JUMPDEST PUSH1 0x6 DUP1 SLOAD PUSH1 0x1 PUSH1 0x1 PUSH1 0xA0 SHL SUB DUP4 DUP2 AND PUSH1 0x1 PUSH1 0x1 PUSH1 0xA0 SHL SUB NOT DUP4 AND DUP2 OR SWAP1 SWAP4 SSTORE PUSH1 0x40 MLOAD SWAP2 AND SWAP2 SWAP1 DUP3 SWAP1 PUSH32 0x8BE0079C531659141344CD1FD0A4F28419497F9722A3DAAFE3B4186F6B6457E0 SWAP1 PUSH0 SWAP1 LOG3 POP POP JUMP JUMPDEST PUSH1 0x1 PUSH1 0x1 PUSH1 0xA0 SHL SUB DUP3 AND PUSH2 0xCA3 JUMPI PUSH1 0x40 MLOAD PUSH4 0x32505749 PUSH1 0xE1 SHL DUP2 MSTORE PUSH0 PUSH1 0x4 DUP3 ADD MSTORE PUSH1 0x24 ADD PUSH2 0x416 JUMP JUMPDEST PUSH0 PUSH2 0xCAF DUP4 DUP4 PUSH0 PUSH2 0xB0A JUMP JUMPDEST SWAP1 POP PUSH1 0x1 PUSH1 0x1 PUSH1 0xA0 SHL SUB DUP2 AND ISZERO PUSH2 0x499 JUMPI PUSH1 0x40 MLOAD PUSH4 0x39E35637 PUSH1 0xE1 SHL DUP2 MSTORE PUSH0 PUSH1 0x4 DUP3 ADD MSTORE PUSH1 0x24 ADD PUSH2 0x416 JUMP JUMPDEST PUSH1 0x1 PUSH1 0x1 PUSH1 0xA0 SHL SUB DUP3 AND PUSH2 0xD0D JUMPI PUSH1 0x40 MLOAD PUSH4 0xB611743 PUSH1 0xE3 SHL DUP2 MSTORE PUSH1 0x1 PUSH1 0x1 PUSH1 0xA0 SHL SUB DUP4 AND PUSH1 0x4 DUP3 ADD MSTORE PUSH1 0x24 ADD PUSH2 0x416 JUMP JUMPDEST PUSH1 0x1 PUSH1 0x1 PUSH1 0xA0 SHL SUB DUP4 DUP2 AND PUSH0 DUP2 DUP2 MSTORE PUSH1 0x5 PUSH1 0x20 SWAP1 DUP2 MSTORE PUSH1 0x40 DUP1 DUP4 KECCAK256 SWAP5 DUP8 AND DUP1 DUP5 MSTORE SWAP5 DUP3 MSTORE SWAP2 DUP3 SWAP1 KECCAK256 DUP1 SLOAD PUSH1 0xFF NOT AND DUP7 ISZERO ISZERO SWAP1 DUP2 OR SWAP1 SWAP2 SSTORE SWAP2 MLOAD SWAP2 DUP3 MSTORE PUSH32 0x17307EAB39AB6107E8899845AD3D59BD9653F200F220920489CA2B5937696C31 SWAP2 ADD PUSH1 0x40 MLOAD DUP1 SWAP2 SUB SWAP1 LOG3 POP POP POP JUMP JUMPDEST PUSH1 0x1 PUSH1 0x1 PUSH1 0xA0 SHL SUB DUP4 AND EXTCODESIZE ISZERO PUSH2 0x479 JUMPI PUSH1 0x40 MLOAD PUSH4 0xA85BD01 PUSH1 0xE1 SHL DUP2 MSTORE PUSH1 0x1 PUSH1 0x1 PUSH1 0xA0 SHL SUB DUP5 AND SWAP1 PUSH4 0x150B7A02 SWAP1 PUSH2 0xDBB SWAP1 CALLER SWAP1 DUP9 SWAP1 DUP8 SWAP1 DUP8 SWAP1 PUSH1 0x4 ADD PUSH2 0x1BE3 JUMP JUMPDEST PUSH1 0x20 PUSH1 0x40 MLOAD DUP1 DUP4 SUB DUP2 PUSH0 DUP8 GAS CALL SWAP3 POP POP POP DUP1 ISZERO PUSH2 0xDF5 JUMPI POP PUSH1 0x40 DUP1 MLOAD PUSH1 0x1F RETURNDATASIZE SWAP1 DUP2 ADD PUSH1 0x1F NOT AND DUP3 ADD SWAP1 SWAP3 MSTORE PUSH2 0xDF2 SWAP2 DUP2 ADD SWAP1 PUSH2 0x1C1F JUMP JUMPDEST PUSH1 0x1 JUMPDEST PUSH2 0xE5C JUMPI RETURNDATASIZE DUP1 DUP1 ISZERO PUSH2 0xE22 JUMPI PUSH1 0x40 MLOAD SWAP2 POP PUSH1 0x1F NOT PUSH1 0x3F RETURNDATASIZE ADD AND DUP3 ADD PUSH1 0x40 MSTORE RETURNDATASIZE DUP3 MSTORE RETURNDATASIZE PUSH0 PUSH1 0x20 DUP5 ADD RETURNDATACOPY PUSH2 0xE27 JUMP JUMPDEST PUSH1 0x60 SWAP2 POP JUMPDEST POP DUP1 MLOAD PUSH0 SUB PUSH2 0xE54 JUMPI PUSH1 0x40 MLOAD PUSH4 0x32505749 PUSH1 0xE1 SHL DUP2 MSTORE PUSH1 0x1 PUSH1 0x1 PUSH1 0xA0 SHL SUB DUP6 AND PUSH1 0x4 DUP3 ADD MSTORE PUSH1 0x24 ADD PUSH2 0x416 JUMP JUMPDEST DUP1 MLOAD DUP2 PUSH1 0x20 ADD REVERT JUMPDEST PUSH1 0x1 PUSH1 0x1 PUSH1 0xE0 SHL SUB NOT DUP2 AND PUSH4 0xA85BD01 PUSH1 0xE1 SHL EQ PUSH2 0x7DB JUMPI PUSH1 0x40 MLOAD PUSH4 0x32505749 PUSH1 0xE1 SHL DUP2 MSTORE PUSH1 0x1 PUSH1 0x1 PUSH1 0xA0 SHL SUB DUP6 AND PUSH1 0x4 DUP3 ADD MSTORE PUSH1 0x24 ADD PUSH2 0x416 JUMP JUMPDEST PUSH1 0x60 PUSH0 PUSH2 0xEA4 DUP4 PUSH2 0x108F JUMP JUMPDEST PUSH1 0x1 ADD SWAP1 POP PUSH0 DUP2 PUSH1 0x1 PUSH1 0x1 PUSH1 0x40 SHL SUB DUP2 GT ISZERO PUSH2 0xEC2 JUMPI PUSH2 0xEC2 PUSH2 0x1439 JUMP JUMPDEST PUSH1 0x40 MLOAD SWAP1 DUP1 DUP3 MSTORE DUP1 PUSH1 0x1F ADD PUSH1 0x1F NOT AND PUSH1 0x20 ADD DUP3 ADD PUSH1 0x40 MSTORE DUP1 ISZERO PUSH2 0xEEC JUMPI PUSH1 0x20 DUP3 ADD DUP2 DUP1 CALLDATASIZE DUP4 CALLDATACOPY ADD SWAP1 POP JUMPDEST POP SWAP1 POP DUP2 DUP2 ADD PUSH1 0x20 ADD JUMPDEST PUSH0 NOT ADD PUSH16 0x181899199A1A9B1B9C1CB0B131B232B3 PUSH1 0x81 SHL PUSH1 0xA DUP7 MOD BYTE DUP2 MSTORE8 PUSH1 0xA DUP6 DIV SWAP5 POP DUP5 PUSH2 0xEF6 JUMPI POP SWAP4 SWAP3 POP POP POP JUMP JUMPDEST DUP1 DUP1 PUSH2 0xF3B JUMPI POP PUSH1 0x1 PUSH1 0x1 PUSH1 0xA0 SHL SUB DUP3 AND ISZERO ISZERO JUMPDEST ISZERO PUSH2 0xFFC JUMPI PUSH0 PUSH2 0xF4A DUP5 PUSH2 0xAC5 JUMP JUMPDEST SWAP1 POP PUSH1 0x1 PUSH1 0x1 PUSH1 0xA0 SHL SUB DUP4 AND ISZERO DUP1 ISZERO SWAP1 PUSH2 0xF76 JUMPI POP DUP3 PUSH1 0x1 PUSH1 0x1 PUSH1 0xA0 SHL SUB AND DUP2 PUSH1 0x1 PUSH1 0x1 PUSH1 0xA0 SHL SUB AND EQ ISZERO JUMPDEST DUP1 ISZERO PUSH2 0xF89 JUMPI POP PUSH2 0xF87 DUP2 DUP5 PUSH2 0xA5B JUMP JUMPDEST ISZERO JUMPDEST ISZERO PUSH2 0xFB2 JUMPI PUSH1 0x40 MLOAD PUSH4 0xA9FBF51F PUSH1 0xE0 SHL DUP2 MSTORE PUSH1 0x1 PUSH1 0x1 PUSH1 0xA0 SHL SUB DUP5 AND PUSH1 0x4 DUP3 ADD MSTORE PUSH1 0x24 ADD PUSH2 0x416 JUMP JUMPDEST DUP2 ISZERO PUSH2 0xFFA JUMPI DUP4 DUP6 PUSH1 0x1 PUSH1 0x1 PUSH1 0xA0 SHL SUB AND DUP3 PUSH1 0x1 PUSH1 0x1 PUSH1 0xA0 SHL SUB AND PUSH32 0x8C5BE1E5EBEC7D5BD14F71427D1E84F3DD0314C0F7B2291E5B200AC8C7C3B925 PUSH1 0x40 MLOAD PUSH1 0x40 MLOAD DUP1 SWAP2 SUB SWAP1 LOG4 JUMPDEST POP JUMPDEST POP POP PUSH0 SWAP1 DUP2 MSTORE PUSH1 0x4 PUSH1 0x20 MSTORE PUSH1 0x40 SWAP1 KECCAK256 DUP1 SLOAD PUSH1 0x1 PUSH1 0x1 PUSH1 0xA0 SHL SUB NOT AND PUSH1 0x1 PUSH1 0x1 PUSH1 0xA0 SHL SUB SWAP3 SWAP1 SWAP3 AND SWAP2 SWAP1 SWAP2 OR SWAP1 SSTORE JUMP JUMPDEST PUSH2 0x1036 DUP4 DUP4 DUP4 PUSH2 0x1166 JUMP JUMPDEST PUSH2 0x499 JUMPI PUSH1 0x1 PUSH1 0x1 PUSH1 0xA0 SHL SUB DUP4 AND PUSH2 0x1064 JUMPI PUSH1 0x40 MLOAD PUSH4 0x7E273289 PUSH1 0xE0 SHL DUP2 MSTORE PUSH1 0x4 DUP2 ADD DUP3 SWAP1 MSTORE PUSH1 0x24 ADD PUSH2 0x416 JUMP JUMPDEST PUSH1 0x40 MLOAD PUSH4 0x177E802F PUSH1 0xE0 SHL DUP2 MSTORE PUSH1 0x1 PUSH1 0x1 PUSH1 0xA0 SHL SUB DUP4 AND PUSH1 0x4 DUP3 ADD MSTORE PUSH1 0x24 DUP2 ADD DUP3 SWAP1 MSTORE PUSH1 0x44 ADD PUSH2 0x416 JUMP JUMPDEST PUSH0 DUP1 PUSH19 0x184F03E93FF9F4DAA797ED6E38ED64BF6A1F01 PUSH1 0x40 SHL DUP4 LT PUSH2 0x10CD JUMPI PUSH19 0x184F03E93FF9F4DAA797ED6E38ED64BF6A1F01 PUSH1 0x40 SHL DUP4 DIV SWAP3 POP PUSH1 0x40 ADD JUMPDEST PUSH14 0x4EE2D6D415B85ACEF8100000000 DUP4 LT PUSH2 0x10F9 JUMPI PUSH14 0x4EE2D6D415B85ACEF8100000000 DUP4 DIV SWAP3 POP PUSH1 0x20 ADD JUMPDEST PUSH7 0x2386F26FC10000 DUP4 LT PUSH2 0x1117 JUMPI PUSH7 0x2386F26FC10000 DUP4 DIV SWAP3 POP PUSH1 0x10 ADD JUMPDEST PUSH4 0x5F5E100 DUP4 LT PUSH2 0x112F JUMPI PUSH4 0x5F5E100 DUP4 DIV SWAP3 POP PUSH1 0x8 ADD JUMPDEST PUSH2 0x2710 DUP4 LT PUSH2 0x1143 JUMPI PUSH2 0x2710 DUP4 DIV SWAP3 POP PUSH1 0x4 ADD JUMPDEST PUSH1 0x64 DUP4 LT PUSH2 0x1155 JUMPI PUSH1 0x64 DUP4 DIV SWAP3 POP PUSH1 0x2 ADD JUMPDEST PUSH1 0xA DUP4 LT PUSH2 0x326 JUMPI PUSH1 0x1 ADD SWAP3 SWAP2 POP POP JUMP JUMPDEST PUSH0 PUSH1 0x1 PUSH1 0x1 PUSH1 0xA0 SHL SUB DUP4 AND ISZERO DUP1 ISZERO SWAP1 PUSH2 0x11C2 JUMPI POP DUP3 PUSH1 0x1 PUSH1 0x1 PUSH1 0xA0 SHL SUB AND DUP5 PUSH1 0x1 PUSH1 0x1 PUSH1 0xA0 SHL SUB AND EQ DUP1 PUSH2 0x119F JUMPI POP PUSH2 0x119F DUP5 DUP5 PUSH2 0xA5B JUMP JUMPDEST DUP1 PUSH2 0x11C2 JUMPI POP PUSH0 DUP3 DUP2 MSTORE PUSH1 0x4 PUSH1 0x20 MSTORE PUSH1 0x40 SWAP1 KECCAK256 SLOAD PUSH1 0x1 PUSH1 0x1 PUSH1 0xA0 SHL SUB DUP5 DUP2 AND SWAP2 AND EQ JUMPDEST SWAP5 SWAP4 POP POP POP POP JUMP JUMPDEST POP DUP1 SLOAD PUSH0 DUP3 SSTORE SWAP1 PUSH0 MSTORE PUSH1 0x20 PUSH0 KECCAK256 SWAP1 DUP2 ADD SWAP1 PUSH2 0xAC2 SWAP2 SWAP1 JUMPDEST DUP1 DUP3 GT ISZERO PUSH2 0x11FD JUMPI PUSH0 PUSH2 0x11F4 DUP3 DUP3 PUSH2 0x1201 JUMP JUMPDEST POP PUSH1 0x1 ADD PUSH2 0x11E1 JUMP JUMPDEST POP SWAP1 JUMP JUMPDEST POP DUP1 SLOAD PUSH2 0x120D SWAP1 PUSH2 0x17E8 JUMP JUMPDEST PUSH0 DUP3 SSTORE DUP1 PUSH1 0x1F LT PUSH2 0x121C JUMPI POP POP JUMP JUMPDEST PUSH1 0x1F ADD PUSH1 0x20 SWAP1 DIV SWAP1 PUSH0 MSTORE PUSH1 0x20 PUSH0 KECCAK256 SWAP1 DUP2 ADD SWAP1 PUSH2 0xAC2 SWAP2 SWAP1 JUMPDEST DUP1 DUP3 GT ISZERO PUSH2 0x11FD JUMPI PUSH0 DUP2 SSTORE PUSH1 0x1 ADD PUSH2 0x1234 JUMP JUMPDEST PUSH1 0x1 PUSH1 0x1 PUSH1 0xE0 SHL SUB NOT DUP2 AND DUP2 EQ PUSH2 0xAC2 JUMPI PUSH0 DUP1 REVERT JUMPDEST PUSH0 PUSH1 0x20 DUP3 DUP5 SUB SLT ISZERO PUSH2 0x126C JUMPI PUSH0 DUP1 REVERT JUMPDEST DUP2 CALLDATALOAD PUSH2 0xA54 DUP2 PUSH2 0x1247 JUMP JUMPDEST PUSH0 DUP2 MLOAD DUP1 DUP5 MSTORE DUP1 PUSH1 0x20 DUP5 ADD PUSH1 0x20 DUP7 ADD MCOPY PUSH0 PUSH1 0x20 DUP3 DUP7 ADD ADD MSTORE PUSH1 0x20 PUSH1 0x1F NOT PUSH1 0x1F DUP4 ADD AND DUP6 ADD ADD SWAP2 POP POP SWAP3 SWAP2 POP POP JUMP JUMPDEST PUSH1 0x20 DUP2 MSTORE PUSH0 PUSH2 0xA54 PUSH1 0x20 DUP4 ADD DUP5 PUSH2 0x1277 JUMP JUMPDEST PUSH0 PUSH1 0x20 DUP3 DUP5 SUB SLT ISZERO PUSH2 0x12C7 JUMPI PUSH0 DUP1 REVERT JUMPDEST POP CALLDATALOAD SWAP2 SWAP1 POP JUMP JUMPDEST DUP1 CALLDATALOAD PUSH1 0x1 PUSH1 0x1 PUSH1 0xA0 SHL SUB DUP2 AND DUP2 EQ PUSH2 0x12E4 JUMPI PUSH0 DUP1 REVERT JUMPDEST SWAP2 SWAP1 POP JUMP JUMPDEST PUSH0 DUP1 PUSH1 0x40 DUP4 DUP6 SUB SLT ISZERO PUSH2 0x12FA JUMPI PUSH0 DUP1 REVERT JUMPDEST PUSH2 0x1303 DUP4 PUSH2 0x12CE JUMP JUMPDEST SWAP5 PUSH1 0x20 SWAP4 SWAP1 SWAP4 ADD CALLDATALOAD SWAP4 POP POP POP JUMP JUMPDEST PUSH0 DUP1 PUSH0 PUSH1 0x60 DUP5 DUP7 SUB SLT ISZERO PUSH2 0x1323 JUMPI PUSH0 DUP1 REVERT JUMPDEST PUSH2 0x132C DUP5 PUSH2 0x12CE JUMP JUMPDEST SWAP3 POP PUSH2 0x133A PUSH1 0x20 DUP6 ADD PUSH2 0x12CE JUMP JUMPDEST SWAP2 POP PUSH1 0x40 DUP5 ADD CALLDATALOAD SWAP1 POP SWAP3 POP SWAP3 POP SWAP3 JUMP JUMPDEST PUSH0 PUSH1 0x20 DUP3 DUP5 SUB SLT ISZERO PUSH2 0x135A JUMPI PUSH0 DUP1 REVERT JUMPDEST PUSH2 0xA54 DUP3 PUSH2 0x12CE JUMP JUMPDEST PUSH0 DUP1 PUSH0 PUSH1 0x40 DUP5 DUP7 SUB SLT ISZERO PUSH2 0x1375 JUMPI PUSH0 DUP1 REVERT JUMPDEST DUP4 CALLDATALOAD SWAP3 POP PUSH1 0x20 DUP5 ADD CALLDATALOAD PUSH1 0x1 PUSH1 0x1 PUSH1 0x40 SHL SUB DUP1 DUP3 GT ISZERO PUSH2 0x1392 JUMPI PUSH0 DUP1 REVERT JUMPDEST DUP2 DUP7 ADD SWAP2 POP DUP7 PUSH1 0x1F DUP4 ADD SLT PUSH2 0x13A5 JUMPI PUSH0 DUP1 REVERT JUMPDEST DUP2 CALLDATALOAD DUP2 DUP2 GT ISZERO PUSH2 0x13B3 JUMPI PUSH0 DUP1 REVERT JUMPDEST DUP8 PUSH1 0x20 DUP3 DUP6 ADD ADD GT ISZERO PUSH2 0x13C4 JUMPI PUSH0 DUP1 REVERT JUMPDEST PUSH1 0x20 DUP4 ADD SWAP5 POP DUP1 SWAP4 POP POP POP POP SWAP3 POP SWAP3 POP SWAP3 JUMP JUMPDEST PUSH0 PUSH1 0x20 DUP1 DUP4 ADD PUSH1 0x20 DUP5 MSTORE DUP1 DUP6 MLOAD DUP1 DUP4 MSTORE PUSH1 0x40 DUP7 ADD SWAP2 POP PUSH1 0x40 DUP2 PUSH1 0x5 SHL DUP8 ADD ADD SWAP3 POP PUSH1 0x20 DUP8 ADD PUSH0 JUMPDEST DUP3 DUP2 LT ISZERO PUSH2 0x142C JUMPI PUSH1 0x3F NOT DUP9 DUP7 SUB ADD DUP5 MSTORE PUSH2 0x141A DUP6 DUP4 MLOAD PUSH2 0x1277 JUMP JUMPDEST SWAP5 POP SWAP3 DUP6 ADD SWAP3 SWAP1 DUP6 ADD SWAP1 PUSH1 0x1 ADD PUSH2 0x13FE JUMP JUMPDEST POP SWAP3 SWAP8 SWAP7 POP POP POP POP POP POP POP JUMP JUMPDEST PUSH4 0x4E487B71 PUSH1 0xE0 SHL PUSH0 MSTORE PUSH1 0x41 PUSH1 0x4 MSTORE PUSH1 0x24 PUSH0 REVERT JUMPDEST PUSH1 0x40 MLOAD PUSH1 0x1F DUP3 ADD PUSH1 0x1F NOT AND DUP2 ADD PUSH1 0x1 PUSH1 0x1 PUSH1 0x40 SHL SUB DUP2 GT DUP3 DUP3 LT OR ISZERO PUSH2 0x1475 JUMPI PUSH2 0x1475 PUSH2 0x1439 JUMP JUMPDEST PUSH1 0x40 MSTORE SWAP2 SWAP1 POP JUMP JUMPDEST PUSH0 PUSH1 0x1 PUSH1 0x1 PUSH1 0x40 SHL SUB DUP3 GT ISZERO PUSH2 0x1495 JUMPI PUSH2 0x1495 PUSH2 0x1439 JUMP JUMPDEST POP PUSH1 0x5 SHL PUSH1 0x20 ADD SWAP1 JUMP JUMPDEST PUSH0 PUSH1 0x1 PUSH1 0x1 PUSH1 0x40 SHL SUB DUP4 GT ISZERO PUSH2 0x14B7 JUMPI PUSH2 0x14B7 PUSH2 0x1439 JUMP JUMPDEST PUSH2 0x14CA PUSH1 0x1F DUP5 ADD PUSH1 0x1F NOT AND PUSH1 0x20 ADD PUSH2 0x144D JUMP JUMPDEST SWAP1 POP DUP3 DUP2 MSTORE DUP4 DUP4 DUP4 ADD GT ISZERO PUSH2 0x14DD JUMPI PUSH0 DUP1 REVERT JUMPDEST DUP3 DUP3 PUSH1 0x20 DUP4 ADD CALLDATACOPY PUSH0 PUSH1 0x20 DUP5 DUP4 ADD ADD MSTORE SWAP4 SWAP3 POP POP POP JUMP JUMPDEST PUSH0 DUP3 PUSH1 0x1F DUP4 ADD SLT PUSH2 0x1502 JUMPI PUSH0 DUP1 REVERT JUMPDEST DUP2 CALLDATALOAD PUSH1 0x20 PUSH2 0x1517 PUSH2 0x1512 DUP4 PUSH2 0x147D JUMP JUMPDEST PUSH2 0x144D JUMP JUMPDEST DUP1 DUP4 DUP3 MSTORE PUSH1 0x20 DUP3 ADD SWAP2 POP PUSH1 0x20 DUP5 PUSH1 0x5 SHL DUP8 ADD ADD SWAP4 POP DUP7 DUP5 GT ISZERO PUSH2 0x1538 JUMPI PUSH0 DUP1 REVERT JUMPDEST PUSH1 0x20 DUP7 ADD JUMPDEST DUP5 DUP2 LT ISZERO PUSH2 0x1554 JUMPI DUP1 CALLDATALOAD DUP4 MSTORE SWAP2 DUP4 ADD SWAP2 DUP4 ADD PUSH2 0x153D JUMP JUMPDEST POP SWAP7 SWAP6 POP POP POP POP POP POP JUMP JUMPDEST PUSH0 DUP1 PUSH0 PUSH1 0x60 DUP5 DUP7 SUB SLT ISZERO PUSH2 0x1571 JUMPI PUSH0 DUP1 REVERT JUMPDEST PUSH2 0x157A DUP5 PUSH2 0x12CE JUMP JUMPDEST SWAP3 POP PUSH1 0x20 DUP1 DUP6 ADD CALLDATALOAD PUSH1 0x1 PUSH1 0x1 PUSH1 0x40 SHL SUB DUP1 DUP3 GT ISZERO PUSH2 0x1596 JUMPI PUSH0 DUP1 REVERT JUMPDEST DUP2 DUP8 ADD SWAP2 POP DUP8 PUSH1 0x1F DUP4 ADD SLT PUSH2 0x15A9 JUMPI PUSH0 DUP1 REVERT JUMPDEST DUP2 CALLDATALOAD PUSH2 0x15B7 PUSH2 0x1512 DUP3 PUSH2 0x147D JUMP JUMPDEST DUP2 DUP2 MSTORE PUSH1 0x5 SWAP2 SWAP1 SWAP2 SHL DUP4 ADD DUP5 ADD SWAP1 DUP5 DUP2 ADD SWAP1 DUP11 DUP4 GT ISZERO PUSH2 0x15D5 JUMPI PUSH0 DUP1 REVERT JUMPDEST DUP6 DUP6 ADD JUMPDEST DUP4 DUP2 LT ISZERO PUSH2 0x161E JUMPI DUP1 CALLDATALOAD DUP6 DUP2 GT ISZERO PUSH2 0x15EF JUMPI PUSH0 DUP1 REVERT JUMPDEST DUP7 ADD PUSH1 0x3F DUP2 ADD DUP14 SGT PUSH2 0x15FF JUMPI PUSH0 DUP1 REVERT JUMPDEST PUSH2 0x1610 DUP14 DUP10 DUP4 ADD CALLDATALOAD PUSH1 0x40 DUP5 ADD PUSH2 0x149F JUMP JUMPDEST DUP5 MSTORE POP SWAP2 DUP7 ADD SWAP2 DUP7 ADD PUSH2 0x15D9 JUMP JUMPDEST POP SWAP7 POP POP POP PUSH1 0x40 DUP8 ADD CALLDATALOAD SWAP3 POP DUP1 DUP4 GT ISZERO PUSH2 0x1636 JUMPI PUSH0 DUP1 REVERT JUMPDEST POP POP PUSH2 0x1644 DUP7 DUP3 DUP8 ADD PUSH2 0x14F3 JUMP JUMPDEST SWAP2 POP POP SWAP3 POP SWAP3 POP SWAP3 JUMP JUMPDEST PUSH0 DUP1 PUSH1 0x40 DUP4 DUP6 SUB SLT ISZERO PUSH2 0x165F JUMPI PUSH0 DUP1 REVERT JUMPDEST PUSH2 0x1668 DUP4 PUSH2 0x12CE JUMP JUMPDEST SWAP2 POP PUSH1 0x20 DUP4 ADD CALLDATALOAD DUP1 ISZERO ISZERO DUP2 EQ PUSH2 0x167C JUMPI PUSH0 DUP1 REVERT JUMPDEST DUP1 SWAP2 POP POP SWAP3 POP SWAP3 SWAP1 POP JUMP JUMPDEST PUSH0 DUP1 DUP4 PUSH1 0x1F DUP5 ADD SLT PUSH2 0x1697 JUMPI PUSH0 DUP1 REVERT JUMPDEST POP DUP2 CALLDATALOAD PUSH1 0x1 PUSH1 0x1 PUSH1 0x40 SHL SUB DUP2 GT ISZERO PUSH2 0x16AD JUMPI PUSH0 DUP1 REVERT JUMPDEST PUSH1 0x20 DUP4 ADD SWAP2 POP DUP4 PUSH1 0x20 DUP3 PUSH1 0x5 SHL DUP6 ADD ADD GT ISZERO PUSH2 0x16C7 JUMPI PUSH0 DUP1 REVERT JUMPDEST SWAP3 POP SWAP3 SWAP1 POP JUMP JUMPDEST PUSH0 DUP1 PUSH0 DUP1 PUSH0 PUSH1 0x60 DUP7 DUP9 SUB SLT ISZERO PUSH2 0x16E2 JUMPI PUSH0 DUP1 REVERT JUMPDEST DUP6 CALLDATALOAD SWAP5 POP PUSH1 0x20 DUP7 ADD CALLDATALOAD PUSH1 0x1 PUSH1 0x1 PUSH1 0x40 SHL SUB DUP1 DUP3 GT ISZERO PUSH2 0x16FF JUMPI PUSH0 DUP1 REVERT JUMPDEST PUSH2 0x170B DUP10 DUP4 DUP11 ADD PUSH2 0x1687 JUMP JUMPDEST SWAP1 SWAP7 POP SWAP5 POP PUSH1 0x40 DUP9 ADD CALLDATALOAD SWAP2 POP DUP1 DUP3 GT ISZERO PUSH2 0x1723 JUMPI PUSH0 DUP1 REVERT JUMPDEST POP PUSH2 0x1730 DUP9 DUP3 DUP10 ADD PUSH2 0x1687 JUMP JUMPDEST SWAP7 SWAP10 SWAP6 SWAP9 POP SWAP4 SWAP7 POP SWAP3 SWAP5 SWAP4 SWAP3 POP POP POP JUMP JUMPDEST PUSH0 DUP1 PUSH0 DUP1 PUSH1 0x80 DUP6 DUP8 SUB SLT ISZERO PUSH2 0x1754 JUMPI PUSH0 DUP1 REVERT JUMPDEST PUSH2 0x175D DUP6 PUSH2 0x12CE JUMP JUMPDEST SWAP4 POP PUSH2 0x176B PUSH1 0x20 DUP7 ADD PUSH2 0x12CE JUMP JUMPDEST SWAP3 POP PUSH1 0x40 DUP6 ADD CALLDATALOAD SWAP2 POP PUSH1 0x60 DUP6 ADD CALLDATALOAD PUSH1 0x1 PUSH1 0x1 PUSH1 0x40 SHL SUB DUP2 GT ISZERO PUSH2 0x178C JUMPI PUSH0 DUP1 REVERT JUMPDEST DUP6 ADD PUSH1 0x1F DUP2 ADD DUP8 SGT PUSH2 0x179C JUMPI PUSH0 DUP1 REVERT JUMPDEST PUSH2 0x17AB DUP8 DUP3 CALLDATALOAD PUSH1 0x20 DUP5 ADD PUSH2 0x149F JUMP JUMPDEST SWAP2 POP POP SWAP3 SWAP6 SWAP2 SWAP5 POP SWAP3 POP JUMP JUMPDEST PUSH0 DUP1 PUSH1 0x40 DUP4 DUP6 SUB SLT ISZERO PUSH2 0x17C8 JUMPI PUSH0 DUP1 REVERT JUMPDEST PUSH2 0x17D1 DUP4 PUSH2 0x12CE JUMP JUMPDEST SWAP2 POP PUSH2 0x17DF PUSH1 0x20 DUP5 ADD PUSH2 0x12CE JUMP JUMPDEST SWAP1 POP SWAP3 POP SWAP3 SWAP1 POP JUMP JUMPDEST PUSH1 0x1 DUP2 DUP2 SHR SWAP1 DUP3 AND DUP1 PUSH2 0x17FC JUMPI PUSH1 0x7F DUP3 AND SWAP2 POP JUMPDEST PUSH1 0x20 DUP3 LT DUP2 SUB PUSH2 0x181A JUMPI PUSH4 0x4E487B71 PUSH1 0xE0 SHL PUSH0 MSTORE PUSH1 0x22 PUSH1 0x4 MSTORE PUSH1 0x24 PUSH0 REVERT JUMPDEST POP SWAP2 SWAP1 POP JUMP JUMPDEST DUP2 DUP4 DUP3 CALLDATACOPY PUSH0 SWAP2 ADD SWAP1 DUP2 MSTORE SWAP2 SWAP1 POP JUMP JUMPDEST PUSH1 0x20 DUP1 DUP3 MSTORE PUSH1 0x2E SWAP1 DUP3 ADD MSTORE PUSH32 0x43726564697420747970657320616E6420737570706C79206C696D697473206C PUSH1 0x40 DUP3 ADD MSTORE PUSH14 0xCADCCEE8D040DAD2E6DAC2E8C6D PUSH1 0x93 SHL PUSH1 0x60 DUP3 ADD MSTORE PUSH1 0x80 ADD SWAP1 JUMP JUMPDEST DUP1 DUP3 ADD DUP1 DUP3 GT ISZERO PUSH2 0x326 JUMPI PUSH4 0x4E487B71 PUSH1 0xE0 SHL PUSH0 MSTORE PUSH1 0x11 PUSH1 0x4 MSTORE PUSH1 0x24 PUSH0 REVERT JUMPDEST PUSH4 0x4E487B71 PUSH1 0xE0 SHL PUSH0 MSTORE PUSH1 0x32 PUSH1 0x4 MSTORE PUSH1 0x24 PUSH0 REVERT JUMPDEST PUSH1 0x1F DUP3 GT ISZERO PUSH2 0x499 JUMPI DUP1 PUSH0 MSTORE PUSH1 0x20 PUSH0 KECCAK256 PUSH1 0x1F DUP5 ADD PUSH1 0x5 SHR DUP2 ADD PUSH1 0x20 DUP6 LT ISZERO PUSH2 0x18D5 JUMPI POP DUP1 JUMPDEST PUSH1 0x1F DUP5 ADD PUSH1 0x5 SHR DUP3 ADD SWAP2 POP JUMPDEST DUP2 DUP2 LT ISZERO PUSH2 0x7DB JUMPI PUSH0 DUP2 SSTORE PUSH1 0x1 ADD PUSH2 0x18E1 JUMP JUMPDEST DUP2 MLOAD PUSH1 0x1 PUSH1 0x1 PUSH1 0x40 SHL SUB DUP2 GT ISZERO PUSH2 0x190D JUMPI PUSH2 0x190D PUSH2 0x1439 JUMP JUMPDEST PUSH2 0x1921 DUP2 PUSH2 0x191B DUP5 SLOAD PUSH2 0x17E8 JUMP JUMPDEST DUP5 PUSH2 0x18B0 JUMP JUMPDEST PUSH1 0x20 DUP1 PUSH1 0x1F DUP4 GT PUSH1 0x1 DUP2 EQ PUSH2 0x1954 JUMPI PUSH0 DUP5 ISZERO PUSH2 0x193D JUMPI POP DUP6 DUP4 ADD MLOAD JUMPDEST PUSH0 NOT PUSH1 0x3 DUP7 SWAP1 SHL SHR NOT AND PUSH1 0x1 DUP6 SWAP1 SHL OR DUP6 SSTORE PUSH2 0x9CB JUMP JUMPDEST PUSH0 DUP6 DUP2 MSTORE PUSH1 0x20 DUP2 KECCAK256 PUSH1 0x1F NOT DUP7 AND SWAP2 JUMPDEST DUP3 DUP2 LT ISZERO PUSH2 0x1982 JUMPI DUP9 DUP7 ADD MLOAD DUP3 SSTORE SWAP5 DUP5 ADD SWAP5 PUSH1 0x1 SWAP1 SWAP2 ADD SWAP1 DUP5 ADD PUSH2 0x1963 JUMP JUMPDEST POP DUP6 DUP3 LT ISZERO PUSH2 0x199F JUMPI DUP8 DUP6 ADD MLOAD PUSH0 NOT PUSH1 0x3 DUP9 SWAP1 SHL PUSH1 0xF8 AND SHR NOT AND DUP2 SSTORE JUMPDEST POP POP POP POP POP PUSH1 0x1 SWAP1 DUP2 SHL ADD SWAP1 SSTORE POP JUMP JUMPDEST PUSH0 DUP2 MLOAD DUP1 PUSH1 0x20 DUP5 ADD DUP6 MCOPY PUSH0 SWAP4 ADD SWAP3 DUP4 MSTORE POP SWAP1 SWAP2 SWAP1 POP JUMP JUMPDEST PUSH0 PUSH2 0xA54 DUP3 DUP5 PUSH2 0x19AF JUMP JUMPDEST PUSH1 0x40 DUP2 MSTORE PUSH0 PUSH2 0x19E3 PUSH1 0x40 DUP4 ADD DUP6 PUSH2 0x1277 JUMP JUMPDEST SWAP1 POP DUP3 PUSH1 0x20 DUP4 ADD MSTORE SWAP4 SWAP3 POP POP POP JUMP JUMPDEST PUSH0 DUP1 DUP4 CALLDATALOAD PUSH1 0x1E NOT DUP5 CALLDATASIZE SUB ADD DUP2 SLT PUSH2 0x1A07 JUMPI PUSH0 DUP1 REVERT JUMPDEST DUP4 ADD DUP1 CALLDATALOAD SWAP2 POP PUSH1 0x1 PUSH1 0x1 PUSH1 0x40 SHL SUB DUP3 GT ISZERO PUSH2 0x1A20 JUMPI PUSH0 DUP1 REVERT JUMPDEST PUSH1 0x20 ADD SWAP2 POP CALLDATASIZE DUP2 SWAP1 SUB DUP3 SGT ISZERO PUSH2 0x16C7 JUMPI PUSH0 DUP1 REVERT JUMPDEST PUSH1 0x1 PUSH1 0x1 PUSH1 0x40 SHL SUB DUP4 GT ISZERO PUSH2 0x1A4B JUMPI PUSH2 0x1A4B PUSH2 0x1439 JUMP JUMPDEST PUSH2 0x1A5F DUP4 PUSH2 0x1A59 DUP4 SLOAD PUSH2 0x17E8 JUMP JUMPDEST DUP4 PUSH2 0x18B0 JUMP JUMPDEST PUSH0 PUSH1 0x1F DUP5 GT PUSH1 0x1 DUP2 EQ PUSH2 0x1A90 JUMPI PUSH0 DUP6 ISZERO PUSH2 0x1A79 JUMPI POP DUP4 DUP3 ADD CALLDATALOAD JUMPDEST PUSH0 NOT PUSH1 0x3 DUP8 SWAP1 SHL SHR NOT AND PUSH1 0x1 DUP7 SWAP1 SHL OR DUP4 SSTORE PUSH2 0x7DB JUMP JUMPDEST PUSH0 DUP4 DUP2 MSTORE PUSH1 0x20 DUP2 KECCAK256 PUSH1 0x1F NOT DUP8 AND SWAP2 JUMPDEST DUP3 DUP2 LT ISZERO PUSH2 0x1ABF JUMPI DUP7 DUP6 ADD CALLDATALOAD DUP3 SSTORE PUSH1 0x20 SWAP5 DUP6 ADD SWAP5 PUSH1 0x1 SWAP1 SWAP3 ADD SWAP2 ADD PUSH2 0x1A9F JUMP JUMPDEST POP DUP7 DUP3 LT ISZERO PUSH2 0x1ADB JUMPI PUSH0 NOT PUSH1 0xF8 DUP9 PUSH1 0x3 SHL AND SHR NOT DUP5 DUP8 ADD CALLDATALOAD AND DUP2 SSTORE JUMPDEST POP POP PUSH1 0x1 DUP6 PUSH1 0x1 SHL ADD DUP4 SSTORE POP POP POP POP POP JUMP JUMPDEST DUP2 DUP4 MSTORE DUP2 DUP2 PUSH1 0x20 DUP6 ADD CALLDATACOPY POP PUSH0 DUP3 DUP3 ADD PUSH1 0x20 SWAP1 DUP2 ADD SWAP2 SWAP1 SWAP2 MSTORE PUSH1 0x1F SWAP1 SWAP2 ADD PUSH1 0x1F NOT AND SWAP1 SWAP2 ADD ADD SWAP1 JUMP JUMPDEST PUSH1 0x20 DUP1 DUP3 MSTORE DUP2 DUP2 ADD DUP4 SWAP1 MSTORE PUSH0 SWAP1 PUSH1 0x40 PUSH1 0x5 DUP6 SWAP1 SHL DUP5 ADD DUP2 ADD SWAP1 DUP5 ADD DUP7 DUP5 JUMPDEST DUP8 DUP2 LT ISZERO PUSH2 0x1B9F JUMPI DUP7 DUP5 SUB PUSH1 0x3F NOT ADD DUP4 MSTORE DUP2 CALLDATALOAD CALLDATASIZE DUP11 SWAP1 SUB PUSH1 0x1E NOT ADD DUP2 SLT PUSH2 0x1B58 JUMPI PUSH0 DUP1 REVERT JUMPDEST DUP10 ADD DUP6 DUP2 ADD SWAP1 CALLDATALOAD PUSH1 0x1 PUSH1 0x1 PUSH1 0x40 SHL SUB DUP2 GT ISZERO PUSH2 0x1B72 JUMPI PUSH0 DUP1 REVERT JUMPDEST DUP1 CALLDATASIZE SUB DUP3 SGT ISZERO PUSH2 0x1B80 JUMPI PUSH0 DUP1 REVERT JUMPDEST PUSH2 0x1B8B DUP7 DUP3 DUP5 PUSH2 0x1AED JUMP JUMPDEST SWAP6 POP POP POP SWAP2 DUP5 ADD SWAP2 SWAP1 DUP5 ADD SWAP1 PUSH1 0x1 ADD PUSH2 0x1B33 JUMP JUMPDEST POP SWAP2 SWAP8 SWAP7 POP POP POP POP POP POP POP JUMP JUMPDEST PUSH1 0x40 DUP2 MSTORE PUSH0 PUSH2 0x1BBF PUSH1 0x40 DUP4 ADD DUP6 DUP8 PUSH2 0x1AED JUMP JUMPDEST SWAP1 POP DUP3 PUSH1 0x20 DUP4 ADD MSTORE SWAP5 SWAP4 POP POP POP POP JUMP JUMPDEST PUSH0 PUSH2 0x11C2 PUSH2 0x1BDD DUP4 DUP7 PUSH2 0x19AF JUMP JUMPDEST DUP5 PUSH2 0x19AF JUMP JUMPDEST PUSH1 0x1 PUSH1 0x1 PUSH1 0xA0 SHL SUB DUP6 DUP2 AND DUP3 MSTORE DUP5 AND PUSH1 0x20 DUP3 ADD MSTORE PUSH1 0x40 DUP2 ADD DUP4 SWAP1 MSTORE PUSH1 0x80 PUSH1 0x60 DUP3 ADD DUP2 SWAP1 MSTORE PUSH0 SWAP1 PUSH2 0x1C15 SWAP1 DUP4 ADD DUP5 PUSH2 0x1277 JUMP JUMPDEST SWAP7 SWAP6 POP POP POP POP POP POP JUMP JUMPDEST PUSH0 PUSH1 0x20 DUP3 DUP5 SUB SLT ISZERO PUSH2 0x1C2F JUMPI PUSH0 DUP1 REVERT JUMPDEST DUP2 MLOAD PUSH2 0xA54 DUP2 PUSH2 0x1247 JUMP INVALID LOG2 PUSH5 0x6970667358 0x22 SLT KECCAK256 0xE3 SIGNEXTEND PUSH30 0x5A594251FBFBA1C4A1DE4C25049B8833901D14E92E289B3EE7BA5FAB6764 PUSH20 0x6F6C634300081900330000000000000000000000 "
				},
				"gasEstimates": {
					"creation": {
						"codeDepositCost": "1456000",
						"executionCost": "infinite",
						"totalCost": "infinite"
					},
					"external": {
						"approve(address,uint256)": "31531",
						"balanceOf(address)": "2652",
						"getApproved(uint256)": "infinite",
						"getCreditSupplyLimit(uint256,string)": "infinite",
						"getCreditTypes(uint256)": "infinite",
						"isApprovedForAll(address,address)": "infinite",
						"mint(address,string[],uint256[])": "infinite",
						"name()": "infinite",
						"owner()": "2397",
						"ownerOf(uint256)": "infinite",
						"renounceOwnership()": "infinite",
						"safeTransferFrom(address,address,uint256)": "infinite",
						"safeTransferFrom(address,address,uint256,bytes)": "infinite",
						"setApprovalForAll(address,bool)": "26767",
						"setCreditTypesAndLimits(uint256,string[],uint256[])": "infinite",
						"supportsInterface(bytes4)": "531",
						"symbol()": "infinite",
						"tokenURI(uint256)": "infinite",
						"transferFrom(address,address,uint256)": "infinite",
						"transferOwnership(address)": "28443"
					}
				},
				"methodIdentifiers": {
					"approve(address,uint256)": "095ea7b3",
					"balanceOf(address)": "70a08231",
					"getApproved(uint256)": "081812fc",
					"getCreditSupplyLimit(uint256,string)": "736dea81",
					"getCreditTypes(uint256)": "7f177d31",
					"isApprovedForAll(address,address)": "e985e9c5",
					"mint(address,string[],uint256[])": "8a605436",
					"name()": "06fdde03",
					"owner()": "8da5cb5b",
					"ownerOf(uint256)": "6352211e",
					"renounceOwnership()": "715018a6",
					"safeTransferFrom(address,address,uint256)": "42842e0e",
					"safeTransferFrom(address,address,uint256,bytes)": "b88d4fde",
					"setApprovalForAll(address,bool)": "a22cb465",
					"setCreditTypesAndLimits(uint256,string[],uint256[])": "af77af04",
					"supportsInterface(bytes4)": "01ffc9a7",
					"symbol()": "95d89b41",
					"tokenURI(uint256)": "c87b56dd",
					"transferFrom(address,address,uint256)": "23b872dd",
					"transferOwnership(address)": "f2fde38b"
				}
			},
			"storageLayout": {
				"storage": [
					{
						"astId": 317,
						"contract": "contracts/npc_credits/npcNFT.sol:NPCNFT",
						"label": "_name",
						"offset": 0,
						"slot": "0",
						"type": "t_string_storage"
					},
					{
						"astId": 319,
						"contract": "contracts/npc_credits/npcNFT.sol:NPCNFT",
						"label": "_symbol",
						"offset": 0,
						"slot": "1",
						"type": "t_string_storage"
					},
					{
						"astId": 323,
						"contract": "contracts/npc_credits/npcNFT.sol:NPCNFT",
						"label": "_owners",
						"offset": 0,
						"slot": "2",
						"type": "t_mapping(t_uint256,t_address)"
					},
					{
						"astId": 327,
						"contract": "contracts/npc_credits/npcNFT.sol:NPCNFT",
						"label": "_balances",
						"offset": 0,
						"slot": "3",
						"type": "t_mapping(t_address,t_uint256)"
					},
					{
						"astId": 331,
						"contract": "contracts/npc_credits/npcNFT.sol:NPCNFT",
						"label": "_tokenApprovals",
						"offset": 0,
						"slot": "4",
						"type": "t_mapping(t_uint256,t_address)"
					},
					{
						"astId": 337,
						"contract": "contracts/npc_credits/npcNFT.sol:NPCNFT",
						"label": "_operatorApprovals",
						"offset": 0,
						"slot": "5",
						"type": "t_mapping(t_address,t_mapping(t_address,t_bool))"
					},
					{
						"astId": 8,
						"contract": "contracts/npc_credits/npcNFT.sol:NPCNFT",
						"label": "_owner",
						"offset": 0,
						"slot": "6",
						"type": "t_address"
					},
					{
						"astId": 2949,
						"contract": "contracts/npc_credits/npcNFT.sol:NPCNFT",
						"label": "_creditTypes",
						"offset": 0,
						"slot": "7",
						"type": "t_mapping(t_uint256,t_array(t_string_storage)dyn_storage)"
					},
					{
						"astId": 2955,
						"contract": "contracts/npc_credits/npcNFT.sol:NPCNFT",
						"label": "_creditSupplyLimits",
						"offset": 0,
						"slot": "8",
						"type": "t_mapping(t_uint256,t_mapping(t_string_memory_ptr,t_uint256))"
					},
					{
						"astId": 2957,
						"contract": "contracts/npc_credits/npcNFT.sol:NPCNFT",
						"label": "_currentTokenId",
						"offset": 0,
						"slot": "9",
						"type": "t_uint256"
					}
				],
				"types": {
					"t_address": {
						"encoding": "inplace",
						"label": "address",
						"numberOfBytes": "20"
					},
					"t_array(t_string_storage)dyn_storage": {
						"base": "t_string_storage",
						"encoding": "dynamic_array",
						"label": "string[]",
						"numberOfBytes": "32"
					},
					"t_bool": {
						"encoding": "inplace",
						"label": "bool",
						"numberOfBytes": "1"
					},
					"t_mapping(t_address,t_bool)": {
						"encoding": "mapping",
						"key": "t_address",
						"label": "mapping(address => bool)",
						"numberOfBytes": "32",
						"value": "t_bool"
					},
					"t_mapping(t_address,t_mapping(t_address,t_bool))": {
						"encoding": "mapping",
						"key": "t_address",
						"label": "mapping(address => mapping(address => bool))",
						"numberOfBytes": "32",
						"value": "t_mapping(t_address,t_bool)"
					},
					"t_mapping(t_address,t_uint256)": {
						"encoding": "mapping",
						"key": "t_address",
						"label": "mapping(address => uint256)",
						"numberOfBytes": "32",
						"value": "t_uint256"
					},
					"t_mapping(t_string_memory_ptr,t_uint256)": {
						"encoding": "mapping",
						"key": "t_string_memory_ptr",
						"label": "mapping(string => uint256)",
						"numberOfBytes": "32",
						"value": "t_uint256"
					},
					"t_mapping(t_uint256,t_address)": {
						"encoding": "mapping",
						"key": "t_uint256",
						"label": "mapping(uint256 => address)",
						"numberOfBytes": "32",
						"value": "t_address"
					},
					"t_mapping(t_uint256,t_array(t_string_storage)dyn_storage)": {
						"encoding": "mapping",
						"key": "t_uint256",
						"label": "mapping(uint256 => string[])",
						"numberOfBytes": "32",
						"value": "t_array(t_string_storage)dyn_storage"
					},
					"t_mapping(t_uint256,t_mapping(t_string_memory_ptr,t_uint256))": {
						"encoding": "mapping",
						"key": "t_uint256",
						"label": "mapping(uint256 => mapping(string => uint256))",
						"numberOfBytes": "32",
						"value": "t_mapping(t_string_memory_ptr,t_uint256)"
					},
					"t_string_memory_ptr": {
						"encoding": "bytes",
						"label": "string",
						"numberOfBytes": "32"
					},
					"t_string_storage": {
						"encoding": "bytes",
						"label": "string",
						"numberOfBytes": "32"
					},
					"t_uint256": {
						"encoding": "inplace",
						"label": "uint256",
						"numberOfBytes": "32"
					}
				}
			},
			"userdoc": {
				"kind": "user",
				"methods": {},
				"version": 1
			}
		}
	}
}