{
	"contracts/npc_marketplace/npc_marketplace_core.sol": {
		"MarketplaceCore": {
			"abi": [
				{
					"inputs": [],
					"stateMutability": "nonpayable",
					"type": "constructor"
				},
				{
					"inputs": [],
					"name": "AccessControlBadConfirmation",
					"type": "error"
				},
				{
					"inputs": [
						{
							"internalType": "address",
							"name": "account",
							"type": "address"
						},
						{
							"internalType": "bytes32",
							"name": "neededRole",
							"type": "bytes32"
						}
					],
					"name": "AccessControlUnauthorizedAccount",
					"type": "error"
				},
				{
					"anonymous": false,
					"inputs": [
						{
							"indexed": true,
							"internalType": "uint256",
							"name": "listingId",
							"type": "uint256"
						},
						{
							"indexed": true,
							"internalType": "address",
							"name": "seller",
							"type": "address"
						},
						{
							"indexed": true,
							"internalType": "address",
							"name": "tokenAddress",
							"type": "address"
						},
						{
							"indexed": false,
							"internalType": "uint256",
							"name": "tokenId",
							"type": "uint256"
						},
						{
							"indexed": false,
							"internalType": "uint256",
							"name": "price",
							"type": "uint256"
						}
					],
					"name": "Listed",
					"type": "event"
				},
				{
					"anonymous": false,
					"inputs": [
						{
							"indexed": true,
							"internalType": "uint256",
							"name": "listingId",
							"type": "uint256"
						}
					],
					"name": "ListingCancelled",
					"type": "event"
				},
				{
					"anonymous": false,
					"inputs": [
						{
							"indexed": true,
							"internalType": "bytes32",
							"name": "role",
							"type": "bytes32"
						},
						{
							"indexed": true,
							"internalType": "bytes32",
							"name": "previousAdminRole",
							"type": "bytes32"
						},
						{
							"indexed": true,
							"internalType": "bytes32",
							"name": "newAdminRole",
							"type": "bytes32"
						}
					],
					"name": "RoleAdminChanged",
					"type": "event"
				},
				{
					"anonymous": false,
					"inputs": [
						{
							"indexed": true,
							"internalType": "bytes32",
							"name": "role",
							"type": "bytes32"
						},
						{
							"indexed": true,
							"internalType": "address",
							"name": "account",
							"type": "address"
						},
						{
							"indexed": true,
							"internalType": "address",
							"name": "sender",
							"type": "address"
						}
					],
					"name": "RoleGranted",
					"type": "event"
				},
				{
					"anonymous": false,
					"inputs": [
						{
							"indexed": true,
							"internalType": "bytes32",
							"name": "role",
							"type": "bytes32"
						},
						{
							"indexed": true,
							"internalType": "address",
							"name": "account",
							"type": "address"
						},
						{
							"indexed": true,
							"internalType": "address",
							"name": "sender",
							"type": "address"
						}
					],
					"name": "RoleRevoked",
					"type": "event"
				},
				{
					"anonymous": false,
					"inputs": [
						{
							"indexed": true,
							"internalType": "uint256",
							"name": "listingId",
							"type": "uint256"
						},
						{
							"indexed": true,
							"internalType": "address",
							"name": "buyer",
							"type": "address"
						},
						{
							"indexed": true,
							"internalType": "address",
							"name": "tokenAddress",
							"type": "address"
						},
						{
							"indexed": false,
							"internalType": "uint256",
							"name": "tokenId",
							"type": "uint256"
						},
						{
							"indexed": false,
							"internalType": "uint256",
							"name": "price",
							"type": "uint256"
						}
					],
					"name": "Sale",
					"type": "event"
				},
				{
					"inputs": [],
					"name": "ADMIN_ROLE",
					"outputs": [
						{
							"internalType": "bytes32",
							"name": "",
							"type": "bytes32"
						}
					],
					"stateMutability": "view",
					"type": "function"
				},
				{
					"inputs": [],
					"name": "DEFAULT_ADMIN_ROLE",
					"outputs": [
						{
							"internalType": "bytes32",
							"name": "",
							"type": "bytes32"
						}
					],
					"stateMutability": "view",
					"type": "function"
				},
				{
					"inputs": [
						{
							"internalType": "uint256",
							"name": "listingId",
							"type": "uint256"
						}
					],
					"name": "buyNFT",
					"outputs": [],
					"stateMutability": "payable",
					"type": "function"
				},
				{
					"inputs": [
						{
							"internalType": "uint256",
							"name": "listingId",
							"type": "uint256"
						}
					],
					"name": "cancelListing",
					"outputs": [],
					"stateMutability": "nonpayable",
					"type": "function"
				},
				{
					"inputs": [
						{
							"internalType": "bytes32",
							"name": "role",
							"type": "bytes32"
						}
					],
					"name": "getRoleAdmin",
					"outputs": [
						{
							"internalType": "bytes32",
							"name": "",
							"type": "bytes32"
						}
					],
					"stateMutability": "view",
					"type": "function"
				},
				{
					"inputs": [
						{
							"internalType": "bytes32",
							"name": "role",
							"type": "bytes32"
						},
						{
							"internalType": "address",
							"name": "account",
							"type": "address"
						}
					],
					"name": "grantRole",
					"outputs": [],
					"stateMutability": "nonpayable",
					"type": "function"
				},
				{
					"inputs": [
						{
							"internalType": "bytes32",
							"name": "role",
							"type": "bytes32"
						},
						{
							"internalType": "address",
							"name": "account",
							"type": "address"
						}
					],
					"name": "hasRole",
					"outputs": [
						{
							"internalType": "bool",
							"name": "",
							"type": "bool"
						}
					],
					"stateMutability": "view",
					"type": "function"
				},
				{
					"inputs": [
						{
							"internalType": "address",
							"name": "tokenAddress",
							"type": "address"
						},
						{
							"internalType": "uint256",
							"name": "tokenId",
							"type": "uint256"
						},
						{
							"internalType": "uint256",
							"name": "price",
							"type": "uint256"
						}
					],
					"name": "listNFT",
					"outputs": [],
					"stateMutability": "payable",
					"type": "function"
				},
				{
					"inputs": [],
					"name": "listingFee",
					"outputs": [
						{
							"internalType": "uint256",
							"name": "",
							"type": "uint256"
						}
					],
					"stateMutability": "view",
					"type": "function"
				},
				{
					"inputs": [
						{
							"internalType": "uint256",
							"name": "",
							"type": "uint256"
						}
					],
					"name": "listings",
					"outputs": [
						{
							"internalType": "address",
							"name": "seller",
							"type": "address"
						},
						{
							"internalType": "address",
							"name": "tokenAddress",
							"type": "address"
						},
						{
							"internalType": "uint256",
							"name": "tokenId",
							"type": "uint256"
						},
						{
							"internalType": "uint256",
							"name": "price",
							"type": "uint256"
						}
					],
					"stateMutability": "view",
					"type": "function"
				},
				{
					"inputs": [
						{
							"internalType": "bytes32",
							"name": "role",
							"type": "bytes32"
						},
						{
							"internalType": "address",
							"name": "callerConfirmation",
							"type": "address"
						}
					],
					"name": "renounceRole",
					"outputs": [],
					"stateMutability": "nonpayable",
					"type": "function"
				},
				{
					"inputs": [
						{
							"internalType": "bytes32",
							"name": "role",
							"type": "bytes32"
						},
						{
							"internalType": "address",
							"name": "account",
							"type": "address"
						}
					],
					"name": "revokeRole",
					"outputs": [],
					"stateMutability": "nonpayable",
					"type": "function"
				},
				{
					"inputs": [
						{
							"internalType": "uint256",
							"name": "fee",
							"type": "uint256"
						}
					],
					"name": "setListingFee",
					"outputs": [],
					"stateMutability": "nonpayable",
					"type": "function"
				},
				{
					"inputs": [
						{
							"internalType": "bytes4",
							"name": "interfaceId",
							"type": "bytes4"
						}
					],
					"name": "supportsInterface",
					"outputs": [
						{
							"internalType": "bool",
							"name": "",
							"type": "bool"
						}
					],
					"stateMutability": "view",
					"type": "function"
				}
			],
			"devdoc": {
				"errors": {
					"AccessControlBadConfirmation()": [
						{
							"details": "The caller of a function is not the expected one. NOTE: Don't confuse with {AccessControlUnauthorizedAccount}."
						}
					],
					"AccessControlUnauthorizedAccount(address,bytes32)": [
						{
							"details": "The `account` is missing a role."
						}
					]
				},
				"events": {
					"RoleAdminChanged(bytes32,bytes32,bytes32)": {
						"details": "Emitted when `newAdminRole` is set as ``role``'s admin role, replacing `previousAdminRole` `DEFAULT_ADMIN_ROLE` is the starting admin for all roles, despite {RoleAdminChanged} not being emitted signaling this."
					},
					"RoleGranted(bytes32,address,address)": {
						"details": "Emitted when `account` is granted `role`. `sender` is the account that originated the contract call, an admin role bearer except when using {AccessControl-_setupRole}."
					},
					"RoleRevoked(bytes32,address,address)": {
						"details": "Emitted when `account` is revoked `role`. `sender` is the account that originated the contract call:   - if using `revokeRole`, it is the admin role bearer   - if using `renounceRole`, it is the role bearer (i.e. `account`)"
					}
				},
				"kind": "dev",
				"methods": {
					"getRoleAdmin(bytes32)": {
						"details": "Returns the admin role that controls `role`. See {grantRole} and {revokeRole}. To change a role's admin, use {_setRoleAdmin}."
					},
					"grantRole(bytes32,address)": {
						"details": "Grants `role` to `account`. If `account` had not been already granted `role`, emits a {RoleGranted} event. Requirements: - the caller must have ``role``'s admin role. May emit a {RoleGranted} event."
					},
					"hasRole(bytes32,address)": {
						"details": "Returns `true` if `account` has been granted `role`."
					},
					"renounceRole(bytes32,address)": {
						"details": "Revokes `role` from the calling account. Roles are often managed via {grantRole} and {revokeRole}: this function's purpose is to provide a mechanism for accounts to lose their privileges if they are compromised (such as when a trusted device is misplaced). If the calling account had been revoked `role`, emits a {RoleRevoked} event. Requirements: - the caller must be `callerConfirmation`. May emit a {RoleRevoked} event."
					},
					"revokeRole(bytes32,address)": {
						"details": "Revokes `role` from `account`. If `account` had been granted `role`, emits a {RoleRevoked} event. Requirements: - the caller must have ``role``'s admin role. May emit a {RoleRevoked} event."
					},
					"supportsInterface(bytes4)": {
						"details": "See {IERC165-supportsInterface}."
					}
				},
				"version": 1
			},
			"evm": {
				"assembly": "    /* \"contracts/npc_marketplace/npc_marketplace_core.sol\":300:3374  contract MarketplaceCore is ReentrancyGuard, AccessControl {... */\n  mstore(0x40, 0x80)\n    /* \"contracts/npc_marketplace/npc_marketplace_core.sol\":739:749  0.01 ether */\n  0x2386f26fc10000\n    /* \"contracts/npc_marketplace/npc_marketplace_core.sol\":711:749  uint256 public listingFee = 0.01 ether */\n  0x04\n  sstore\n    /* \"contracts/npc_marketplace/npc_marketplace_core.sol\":1077:1197  constructor() {... */\n  callvalue\n  dup1\n  iszero\n  tag_1\n  jumpi\n  0x00\n  dup1\n  revert\ntag_1:\n  pop\n    /* \"@openzeppelin/contracts/security/ReentrancyGuard.sol\":1716:1717  1 */\n  0x01\n    /* \"@openzeppelin/contracts/security/ReentrancyGuard.sol\":1821:1828  _status */\n  0x00\n    /* \"@openzeppelin/contracts/security/ReentrancyGuard.sol\":1821:1843  _status = _NOT_ENTERED */\n  dup2\n  swap1\n  sstore\n  pop\n    /* \"contracts/npc_marketplace/npc_marketplace_core.sol\":1102:1144  _grantRole(DEFAULT_ADMIN_ROLE, msg.sender) */\n  tag_6\n    /* \"@openzeppelin/contracts/access/AccessControl.sol\":2232:2236  0x00 */\n  0x00\n    /* \"contracts/npc_marketplace/npc_marketplace_core.sol\":1113:1131  DEFAULT_ADMIN_ROLE */\n  dup1\n  shl\n    /* \"contracts/npc_marketplace/npc_marketplace_core.sol\":1133:1143  msg.sender */\n  caller\n    /* \"contracts/npc_marketplace/npc_marketplace_core.sol\":1102:1112  _grantRole */\n  shl(0x20, tag_7)\n    /* \"contracts/npc_marketplace/npc_marketplace_core.sol\":1102:1144  _grantRole(DEFAULT_ADMIN_ROLE, msg.sender) */\n  0x20\n  shr\n  jump\t// in\ntag_6:\n  pop\n    /* \"contracts/npc_marketplace/npc_marketplace_core.sol\":1155:1189  _grantRole(ADMIN_ROLE, msg.sender) */\n  tag_8\n    /* \"contracts/npc_marketplace/npc_marketplace_core.sol\":494:517  keccak256(\"ADMIN_ROLE\") */\n  0xa49807205ce4d355092ef5a8a18f56e8913cf4a201fbe287825b095693c21775\n    /* \"contracts/npc_marketplace/npc_marketplace_core.sol\":1178:1188  msg.sender */\n  caller\n    /* \"contracts/npc_marketplace/npc_marketplace_core.sol\":1155:1165  _grantRole */\n  shl(0x20, tag_7)\n    /* \"contracts/npc_marketplace/npc_marketplace_core.sol\":1155:1189  _grantRole(ADMIN_ROLE, msg.sender) */\n  0x20\n  shr\n  jump\t// in\ntag_8:\n  pop\n    /* \"contracts/npc_marketplace/npc_marketplace_core.sol\":300:3374  contract MarketplaceCore is ReentrancyGuard, AccessControl {... */\n  jump(tag_9)\n    /* \"@openzeppelin/contracts/access/AccessControl.sol\":6179:6495  function _grantRole(bytes32 role, address account) internal virtual returns (bool) {... */\ntag_7:\n    /* \"@openzeppelin/contracts/access/AccessControl.sol\":6256:6260  bool */\n  0x00\n    /* \"@openzeppelin/contracts/access/AccessControl.sol\":6277:6299  hasRole(role, account) */\n  tag_11\n    /* \"@openzeppelin/contracts/access/AccessControl.sol\":6285:6289  role */\n  dup4\n    /* \"@openzeppelin/contracts/access/AccessControl.sol\":6291:6298  account */\n  dup4\n    /* \"@openzeppelin/contracts/access/AccessControl.sol\":6277:6284  hasRole */\n  shl(0x20, tag_12)\n    /* \"@openzeppelin/contracts/access/AccessControl.sol\":6277:6299  hasRole(role, account) */\n  0x20\n  shr\n  jump\t// in\ntag_11:\n    /* \"@openzeppelin/contracts/access/AccessControl.sol\":6272:6489  if (!hasRole(role, account)) {... */\n  tag_13\n  jumpi\n    /* \"@openzeppelin/contracts/access/AccessControl.sol\":6347:6351  true */\n  0x01\n    /* \"@openzeppelin/contracts/access/AccessControl.sol\":6315:6321  _roles */\n  dup1\n    /* \"@openzeppelin/contracts/access/AccessControl.sol\":6315:6327  _roles[role] */\n  0x00\n    /* \"@openzeppelin/contracts/access/AccessControl.sol\":6322:6326  role */\n  dup6\n    /* \"@openzeppelin/contracts/access/AccessControl.sol\":6315:6327  _roles[role] */\n  dup2\n  mstore\n  0x20\n  add\n  swap1\n  dup2\n  mstore\n  0x20\n  add\n  0x00\n  keccak256\n    /* \"@openzeppelin/contracts/access/AccessControl.sol\":6315:6335  _roles[role].hasRole */\n  0x00\n  add\n    /* \"@openzeppelin/contracts/access/AccessControl.sol\":6315:6344  _roles[role].hasRole[account] */\n  0x00\n    /* \"@openzeppelin/contracts/access/AccessControl.sol\":6336:6343  account */\n  dup5\n    /* \"@openzeppelin/contracts/access/AccessControl.sol\":6315:6344  _roles[role].hasRole[account] */\n  0xffffffffffffffffffffffffffffffffffffffff\n  and\n  0xffffffffffffffffffffffffffffffffffffffff\n  and\n  dup2\n  mstore\n  0x20\n  add\n  swap1\n  dup2\n  mstore\n  0x20\n  add\n  0x00\n  keccak256\n  0x00\n    /* \"@openzeppelin/contracts/access/AccessControl.sol\":6315:6351  _roles[role].hasRole[account] = true */\n  0x0100\n  exp\n  dup2\n  sload\n  dup2\n  0xff\n  mul\n  not\n  and\n  swap1\n  dup4\n  iszero\n  iszero\n  mul\n  or\n  swap1\n  sstore\n  pop\n    /* \"@openzeppelin/contracts/access/AccessControl.sol\":6397:6409  _msgSender() */\n  tag_14\n    /* \"@openzeppelin/contracts/access/AccessControl.sol\":6397:6407  _msgSender */\n  shl(0x20, tag_15)\n    /* \"@openzeppelin/contracts/access/AccessControl.sol\":6397:6409  _msgSender() */\n  0x20\n  shr\n  jump\t// in\ntag_14:\n    /* \"@openzeppelin/contracts/access/AccessControl.sol\":6370:6410  RoleGranted(role, account, _msgSender()) */\n  0xffffffffffffffffffffffffffffffffffffffff\n  and\n    /* \"@openzeppelin/contracts/access/AccessControl.sol\":6388:6395  account */\n  dup3\n    /* \"@openzeppelin/contracts/access/AccessControl.sol\":6370:6410  RoleGranted(role, account, _msgSender()) */\n  0xffffffffffffffffffffffffffffffffffffffff\n  and\n    /* \"@openzeppelin/contracts/access/AccessControl.sol\":6382:6386  role */\n  dup5\n    /* \"@openzeppelin/contracts/access/AccessControl.sol\":6370:6410  RoleGranted(role, account, _msgSender()) */\n  0x2f8788117e7eff1d82e926ec794901d17c78024a50270940304540a733656f0d\n  mload(0x40)\n  mload(0x40)\n  dup1\n  swap2\n  sub\n  swap1\n  log4\n    /* \"@openzeppelin/contracts/access/AccessControl.sol\":6431:6435  true */\n  0x01\n    /* \"@openzeppelin/contracts/access/AccessControl.sol\":6424:6435  return true */\n  swap1\n  pop\n  jump(tag_10)\n    /* \"@openzeppelin/contracts/access/AccessControl.sol\":6272:6489  if (!hasRole(role, account)) {... */\ntag_13:\n    /* \"@openzeppelin/contracts/access/AccessControl.sol\":6473:6478  false */\n  0x00\n    /* \"@openzeppelin/contracts/access/AccessControl.sol\":6466:6478  return false */\n  swap1\n  pop\n    /* \"@openzeppelin/contracts/access/AccessControl.sol\":6179:6495  function _grantRole(bytes32 role, address account) internal virtual returns (bool) {... */\ntag_10:\n  swap3\n  swap2\n  pop\n  pop\n  jump\t// out\n    /* \"@openzeppelin/contracts/access/AccessControl.sol\":2854:2990  function hasRole(bytes32 role, address account) public view virtual returns (bool) {... */\ntag_12:\n    /* \"@openzeppelin/contracts/access/AccessControl.sol\":2931:2935  bool */\n  0x00\n    /* \"@openzeppelin/contracts/access/AccessControl.sol\":2954:2960  _roles */\n  0x01\n    /* \"@openzeppelin/contracts/access/AccessControl.sol\":2954:2966  _roles[role] */\n  0x00\n    /* \"@openzeppelin/contracts/access/AccessControl.sol\":2961:2965  role */\n  dup5\n    /* \"@openzeppelin/contracts/access/AccessControl.sol\":2954:2966  _roles[role] */\n  dup2\n  mstore\n  0x20\n  add\n  swap1\n  dup2\n  mstore\n  0x20\n  add\n  0x00\n  keccak256\n    /* \"@openzeppelin/contracts/access/AccessControl.sol\":2954:2974  _roles[role].hasRole */\n  0x00\n  add\n    /* \"@openzeppelin/contracts/access/AccessControl.sol\":2954:2983  _roles[role].hasRole[account] */\n  0x00\n    /* \"@openzeppelin/contracts/access/AccessControl.sol\":2975:2982  account */\n  dup4\n    /* \"@openzeppelin/contracts/access/AccessControl.sol\":2954:2983  _roles[role].hasRole[account] */\n  0xffffffffffffffffffffffffffffffffffffffff\n  and\n  0xffffffffffffffffffffffffffffffffffffffff\n  and\n  dup2\n  mstore\n  0x20\n  add\n  swap1\n  dup2\n  mstore\n  0x20\n  add\n  0x00\n  keccak256\n  0x00\n  swap1\n  sload\n  swap1\n  0x0100\n  exp\n  swap1\n  div\n  0xff\n  and\n    /* \"@openzeppelin/contracts/access/AccessControl.sol\":2947:2983  return _roles[role].hasRole[account] */\n  swap1\n  pop\n    /* \"@openzeppelin/contracts/access/AccessControl.sol\":2854:2990  function hasRole(bytes32 role, address account) public view virtual returns (bool) {... */\n  swap3\n  swap2\n  pop\n  pop\n  jump\t// out\n    /* \"@openzeppelin/contracts/utils/Context.sol\":656:752  function _msgSender() internal view virtual returns (address) {... */\ntag_15:\n    /* \"@openzeppelin/contracts/utils/Context.sol\":709:716  address */\n  0x00\n    /* \"@openzeppelin/contracts/utils/Context.sol\":735:745  msg.sender */\n  caller\n    /* \"@openzeppelin/contracts/utils/Context.sol\":728:745  return msg.sender */\n  swap1\n  pop\n    /* \"@openzeppelin/contracts/utils/Context.sol\":656:752  function _msgSender() internal view virtual returns (address) {... */\n  swap1\n  jump\t// out\n    /* \"contracts/npc_marketplace/npc_marketplace_core.sol\":300:3374  contract MarketplaceCore is ReentrancyGuard, AccessControl {... */\ntag_9:\n  dataSize(sub_0)\n  dup1\n  dataOffset(sub_0)\n  0x00\n  codecopy\n  0x00\n  return\nstop\n\nsub_0: assembly {\n        /* \"contracts/npc_marketplace/npc_marketplace_core.sol\":300:3374  contract MarketplaceCore is ReentrancyGuard, AccessControl {... */\n      mstore(0x40, 0x80)\n      jumpi(tag_1, lt(calldatasize, 0x04))\n      shr(0xe0, calldataload(0x00))\n      dup1\n      0x6a1b7ecc\n      gt\n      tag_16\n      jumpi\n      dup1\n      0xa217fddf\n      gt\n      tag_17\n      jumpi\n      dup1\n      0xa217fddf\n      eq\n      tag_12\n      jumpi\n      dup1\n      0xad05f1b4\n      eq\n      tag_13\n      jumpi\n      dup1\n      0xd547741f\n      eq\n      tag_14\n      jumpi\n      dup1\n      0xde74e57b\n      eq\n      tag_15\n      jumpi\n      jump(tag_1)\n    tag_17:\n      dup1\n      0x6a1b7ecc\n      eq\n      tag_9\n      jumpi\n      dup1\n      0x75b238fc\n      eq\n      tag_10\n      jumpi\n      dup1\n      0x91d14854\n      eq\n      tag_11\n      jumpi\n      jump(tag_1)\n    tag_16:\n      dup1\n      0x2f2ff15d\n      gt\n      tag_18\n      jumpi\n      dup1\n      0x2f2ff15d\n      eq\n      tag_5\n      jumpi\n      dup1\n      0x305a67a8\n      eq\n      tag_6\n      jumpi\n      dup1\n      0x36568abe\n      eq\n      tag_7\n      jumpi\n      dup1\n      0x51ed8288\n      eq\n      tag_8\n      jumpi\n      jump(tag_1)\n    tag_18:\n      dup1\n      0x01ffc9a7\n      eq\n      tag_2\n      jumpi\n      dup1\n      0x131dbd09\n      eq\n      tag_3\n      jumpi\n      dup1\n      0x248a9ca3\n      eq\n      tag_4\n      jumpi\n    tag_1:\n      0x00\n      dup1\n      revert\n        /* \"@openzeppelin/contracts/access/AccessControl.sol\":2565:2767  function supportsInterface(bytes4 interfaceId) public view virtual override returns (bool) {... */\n    tag_2:\n      callvalue\n      dup1\n      iszero\n      tag_19\n      jumpi\n      0x00\n      dup1\n      revert\n    tag_19:\n      pop\n      tag_20\n      0x04\n      dup1\n      calldatasize\n      sub\n      dup2\n      add\n      swap1\n      tag_21\n      swap2\n      swap1\n      tag_22\n      jump\t// in\n    tag_21:\n      tag_23\n      jump\t// in\n    tag_20:\n      mload(0x40)\n      tag_24\n      swap2\n      swap1\n      tag_25\n      jump\t// in\n    tag_24:\n      mload(0x40)\n      dup1\n      swap2\n      sub\n      swap1\n      return\n        /* \"contracts/npc_marketplace/npc_marketplace_core.sol\":1331:1421  function setListingFee(uint256 fee) external onlyAdmin {... */\n    tag_3:\n      callvalue\n      dup1\n      iszero\n      tag_26\n      jumpi\n      0x00\n      dup1\n      revert\n    tag_26:\n      pop\n      tag_27\n      0x04\n      dup1\n      calldatasize\n      sub\n      dup2\n      add\n      swap1\n      tag_28\n      swap2\n      swap1\n      tag_29\n      jump\t// in\n    tag_28:\n      tag_30\n      jump\t// in\n    tag_27:\n      stop\n        /* \"@openzeppelin/contracts/access/AccessControl.sol\":3810:3930  function getRoleAdmin(bytes32 role) public view virtual returns (bytes32) {... */\n    tag_4:\n      callvalue\n      dup1\n      iszero\n      tag_31\n      jumpi\n      0x00\n      dup1\n      revert\n    tag_31:\n      pop\n      tag_32\n      0x04\n      dup1\n      calldatasize\n      sub\n      dup2\n      add\n      swap1\n      tag_33\n      swap2\n      swap1\n      tag_34\n      jump\t// in\n    tag_33:\n      tag_35\n      jump\t// in\n    tag_32:\n      mload(0x40)\n      tag_36\n      swap2\n      swap1\n      tag_37\n      jump\t// in\n    tag_36:\n      mload(0x40)\n      dup1\n      swap2\n      sub\n      swap1\n      return\n        /* \"@openzeppelin/contracts/access/AccessControl.sol\":4226:4362  function grantRole(bytes32 role, address account) public virtual onlyRole(getRoleAdmin(role)) {... */\n    tag_5:\n      callvalue\n      dup1\n      iszero\n      tag_38\n      jumpi\n      0x00\n      dup1\n      revert\n    tag_38:\n      pop\n      tag_39\n      0x04\n      dup1\n      calldatasize\n      sub\n      dup2\n      add\n      swap1\n      tag_40\n      swap2\n      swap1\n      tag_41\n      jump\t// in\n    tag_40:\n      tag_42\n      jump\t// in\n    tag_39:\n      stop\n        /* \"contracts/npc_marketplace/npc_marketplace_core.sol\":2255:2643  function cancelListing(uint256 listingId) external nonReentrant {... */\n    tag_6:\n      callvalue\n      dup1\n      iszero\n      tag_43\n      jumpi\n      0x00\n      dup1\n      revert\n    tag_43:\n      pop\n      tag_44\n      0x04\n      dup1\n      calldatasize\n      sub\n      dup2\n      add\n      swap1\n      tag_45\n      swap2\n      swap1\n      tag_29\n      jump\t// in\n    tag_45:\n      tag_46\n      jump\t// in\n    tag_44:\n      stop\n        /* \"@openzeppelin/contracts/access/AccessControl.sol\":5328:5573  function renounceRole(bytes32 role, address callerConfirmation) public virtual {... */\n    tag_7:\n      callvalue\n      dup1\n      iszero\n      tag_47\n      jumpi\n      0x00\n      dup1\n      revert\n    tag_47:\n      pop\n      tag_48\n      0x04\n      dup1\n      calldatasize\n      sub\n      dup2\n      add\n      swap1\n      tag_49\n      swap2\n      swap1\n      tag_41\n      jump\t// in\n    tag_49:\n      tag_50\n      jump\t// in\n    tag_48:\n      stop\n        /* \"contracts/npc_marketplace/npc_marketplace_core.sol\":2107:2243  function buyNFT(uint256 listingId) public payable virtual nonReentrant {... */\n    tag_8:\n      tag_51\n      0x04\n      dup1\n      calldatasize\n      sub\n      dup2\n      add\n      swap1\n      tag_52\n      swap2\n      swap1\n      tag_29\n      jump\t// in\n    tag_52:\n      tag_53\n      jump\t// in\n    tag_51:\n      stop\n        /* \"contracts/npc_marketplace/npc_marketplace_core.sol\":711:749  uint256 public listingFee = 0.01 ether */\n    tag_9:\n      callvalue\n      dup1\n      iszero\n      tag_54\n      jumpi\n      0x00\n      dup1\n      revert\n    tag_54:\n      pop\n      tag_55\n      tag_56\n      jump\t// in\n    tag_55:\n      mload(0x40)\n      tag_57\n      swap2\n      swap1\n      tag_58\n      jump\t// in\n    tag_57:\n      mload(0x40)\n      dup1\n      swap2\n      sub\n      swap1\n      return\n        /* \"contracts/npc_marketplace/npc_marketplace_core.sol\":457:517  bytes32 public constant ADMIN_ROLE = keccak256(\"ADMIN_ROLE\") */\n    tag_10:\n      callvalue\n      dup1\n      iszero\n      tag_59\n      jumpi\n      0x00\n      dup1\n      revert\n    tag_59:\n      pop\n      tag_60\n      tag_61\n      jump\t// in\n    tag_60:\n      mload(0x40)\n      tag_62\n      swap2\n      swap1\n      tag_37\n      jump\t// in\n    tag_62:\n      mload(0x40)\n      dup1\n      swap2\n      sub\n      swap1\n      return\n        /* \"@openzeppelin/contracts/access/AccessControl.sol\":2854:2990  function hasRole(bytes32 role, address account) public view virtual returns (bool) {... */\n    tag_11:\n      callvalue\n      dup1\n      iszero\n      tag_63\n      jumpi\n      0x00\n      dup1\n      revert\n    tag_63:\n      pop\n      tag_64\n      0x04\n      dup1\n      calldatasize\n      sub\n      dup2\n      add\n      swap1\n      tag_65\n      swap2\n      swap1\n      tag_41\n      jump\t// in\n    tag_65:\n      tag_66\n      jump\t// in\n    tag_64:\n      mload(0x40)\n      tag_67\n      swap2\n      swap1\n      tag_25\n      jump\t// in\n    tag_67:\n      mload(0x40)\n      dup1\n      swap2\n      sub\n      swap1\n      return\n        /* \"@openzeppelin/contracts/access/AccessControl.sol\":2187:2236  bytes32 public constant DEFAULT_ADMIN_ROLE = 0x00 */\n    tag_12:\n      callvalue\n      dup1\n      iszero\n      tag_68\n      jumpi\n      0x00\n      dup1\n      revert\n    tag_68:\n      pop\n      tag_69\n      tag_70\n      jump\t// in\n    tag_69:\n      mload(0x40)\n      tag_71\n      swap2\n      swap1\n      tag_37\n      jump\t// in\n    tag_71:\n      mload(0x40)\n      dup1\n      swap2\n      sub\n      swap1\n      return\n        /* \"contracts/npc_marketplace/npc_marketplace_core.sol\":1429:2099  function listNFT(address tokenAddress, uint256 tokenId, uint256 price) external payable nonReentrant {... */\n    tag_13:\n      tag_72\n      0x04\n      dup1\n      calldatasize\n      sub\n      dup2\n      add\n      swap1\n      tag_73\n      swap2\n      swap1\n      tag_74\n      jump\t// in\n    tag_73:\n      tag_75\n      jump\t// in\n    tag_72:\n      stop\n        /* \"@openzeppelin/contracts/access/AccessControl.sol\":4642:4780  function revokeRole(bytes32 role, address account) public virtual onlyRole(getRoleAdmin(role)) {... */\n    tag_14:\n      callvalue\n      dup1\n      iszero\n      tag_76\n      jumpi\n      0x00\n      dup1\n      revert\n    tag_76:\n      pop\n      tag_77\n      0x04\n      dup1\n      calldatasize\n      sub\n      dup2\n      add\n      swap1\n      tag_78\n      swap2\n      swap1\n      tag_41\n      jump\t// in\n    tag_78:\n      tag_79\n      jump\t// in\n    tag_77:\n      stop\n        /* \"contracts/npc_marketplace/npc_marketplace_core.sol\":661:704  mapping(uint256 => Listing) public listings */\n    tag_15:\n      callvalue\n      dup1\n      iszero\n      tag_80\n      jumpi\n      0x00\n      dup1\n      revert\n    tag_80:\n      pop\n      tag_81\n      0x04\n      dup1\n      calldatasize\n      sub\n      dup2\n      add\n      swap1\n      tag_82\n      swap2\n      swap1\n      tag_29\n      jump\t// in\n    tag_82:\n      tag_83\n      jump\t// in\n    tag_81:\n      mload(0x40)\n      tag_84\n      swap5\n      swap4\n      swap3\n      swap2\n      swap1\n      tag_85\n      jump\t// in\n    tag_84:\n      mload(0x40)\n      dup1\n      swap2\n      sub\n      swap1\n      return\n        /* \"@openzeppelin/contracts/access/AccessControl.sol\":2565:2767  function supportsInterface(bytes4 interfaceId) public view virtual override returns (bool) {... */\n    tag_23:\n        /* \"@openzeppelin/contracts/access/AccessControl.sol\":2650:2654  bool */\n      0x00\n        /* \"@openzeppelin/contracts/access/AccessControl.sol\":2688:2720  type(IAccessControl).interfaceId */\n      0x7965db0b00000000000000000000000000000000000000000000000000000000\n        /* \"@openzeppelin/contracts/access/AccessControl.sol\":2673:2720  interfaceId == type(IAccessControl).interfaceId */\n      not(0xffffffffffffffffffffffffffffffffffffffffffffffffffffffff)\n      and\n        /* \"@openzeppelin/contracts/access/AccessControl.sol\":2673:2684  interfaceId */\n      dup3\n        /* \"@openzeppelin/contracts/access/AccessControl.sol\":2673:2720  interfaceId == type(IAccessControl).interfaceId */\n      not(0xffffffffffffffffffffffffffffffffffffffffffffffffffffffff)\n      and\n      eq\n        /* \"@openzeppelin/contracts/access/AccessControl.sol\":2673:2760  interfaceId == type(IAccessControl).interfaceId || super.supportsInterface(interfaceId) */\n      dup1\n      tag_87\n      jumpi\n      pop\n        /* \"@openzeppelin/contracts/access/AccessControl.sol\":2724:2760  super.supportsInterface(interfaceId) */\n      tag_88\n        /* \"@openzeppelin/contracts/access/AccessControl.sol\":2748:2759  interfaceId */\n      dup3\n        /* \"@openzeppelin/contracts/access/AccessControl.sol\":2724:2747  super.supportsInterface */\n      tag_89\n        /* \"@openzeppelin/contracts/access/AccessControl.sol\":2724:2760  super.supportsInterface(interfaceId) */\n      jump\t// in\n    tag_88:\n        /* \"@openzeppelin/contracts/access/AccessControl.sol\":2673:2760  interfaceId == type(IAccessControl).interfaceId || super.supportsInterface(interfaceId) */\n    tag_87:\n        /* \"@openzeppelin/contracts/access/AccessControl.sol\":2666:2760  return interfaceId == type(IAccessControl).interfaceId || super.supportsInterface(interfaceId) */\n      swap1\n      pop\n        /* \"@openzeppelin/contracts/access/AccessControl.sol\":2565:2767  function supportsInterface(bytes4 interfaceId) public view virtual override returns (bool) {... */\n      swap2\n      swap1\n      pop\n      jump\t// out\n        /* \"contracts/npc_marketplace/npc_marketplace_core.sol\":1331:1421  function setListingFee(uint256 fee) external onlyAdmin {... */\n    tag_30:\n        /* \"contracts/npc_marketplace/npc_marketplace_core.sol\":1245:1276  hasRole(ADMIN_ROLE, msg.sender) */\n      tag_91\n        /* \"contracts/npc_marketplace/npc_marketplace_core.sol\":494:517  keccak256(\"ADMIN_ROLE\") */\n      0xa49807205ce4d355092ef5a8a18f56e8913cf4a201fbe287825b095693c21775\n        /* \"contracts/npc_marketplace/npc_marketplace_core.sol\":1265:1275  msg.sender */\n      caller\n        /* \"contracts/npc_marketplace/npc_marketplace_core.sol\":1245:1252  hasRole */\n      tag_66\n        /* \"contracts/npc_marketplace/npc_marketplace_core.sol\":1245:1276  hasRole(ADMIN_ROLE, msg.sender) */\n      jump\t// in\n    tag_91:\n        /* \"contracts/npc_marketplace/npc_marketplace_core.sol\":1237:1303  require(hasRole(ADMIN_ROLE, msg.sender), \"Caller is not an admin\") */\n      tag_92\n      jumpi\n      mload(0x40)\n      0x08c379a000000000000000000000000000000000000000000000000000000000\n      dup2\n      mstore\n      0x04\n      add\n      tag_93\n      swap1\n      tag_94\n      jump\t// in\n    tag_93:\n      mload(0x40)\n      dup1\n      swap2\n      sub\n      swap1\n      revert\n    tag_92:\n        /* \"contracts/npc_marketplace/npc_marketplace_core.sol\":1410:1413  fee */\n      dup1\n        /* \"contracts/npc_marketplace/npc_marketplace_core.sol\":1397:1407  listingFee */\n      0x04\n        /* \"contracts/npc_marketplace/npc_marketplace_core.sol\":1397:1413  listingFee = fee */\n      dup2\n      swap1\n      sstore\n      pop\n        /* \"contracts/npc_marketplace/npc_marketplace_core.sol\":1331:1421  function setListingFee(uint256 fee) external onlyAdmin {... */\n      pop\n      jump\t// out\n        /* \"@openzeppelin/contracts/access/AccessControl.sol\":3810:3930  function getRoleAdmin(bytes32 role) public view virtual returns (bytes32) {... */\n    tag_35:\n        /* \"@openzeppelin/contracts/access/AccessControl.sol\":3875:3882  bytes32 */\n      0x00\n        /* \"@openzeppelin/contracts/access/AccessControl.sol\":3901:3907  _roles */\n      0x01\n        /* \"@openzeppelin/contracts/access/AccessControl.sol\":3901:3913  _roles[role] */\n      0x00\n        /* \"@openzeppelin/contracts/access/AccessControl.sol\":3908:3912  role */\n      dup4\n        /* \"@openzeppelin/contracts/access/AccessControl.sol\":3901:3913  _roles[role] */\n      dup2\n      mstore\n      0x20\n      add\n      swap1\n      dup2\n      mstore\n      0x20\n      add\n      0x00\n      keccak256\n        /* \"@openzeppelin/contracts/access/AccessControl.sol\":3901:3923  _roles[role].adminRole */\n      0x01\n      add\n      sload\n        /* \"@openzeppelin/contracts/access/AccessControl.sol\":3894:3923  return _roles[role].adminRole */\n      swap1\n      pop\n        /* \"@openzeppelin/contracts/access/AccessControl.sol\":3810:3930  function getRoleAdmin(bytes32 role) public view virtual returns (bytes32) {... */\n      swap2\n      swap1\n      pop\n      jump\t// out\n        /* \"@openzeppelin/contracts/access/AccessControl.sol\":4226:4362  function grantRole(bytes32 role, address account) public virtual onlyRole(getRoleAdmin(role)) {... */\n    tag_42:\n        /* \"@openzeppelin/contracts/access/AccessControl.sol\":4300:4318  getRoleAdmin(role) */\n      tag_97\n        /* \"@openzeppelin/contracts/access/AccessControl.sol\":4313:4317  role */\n      dup3\n        /* \"@openzeppelin/contracts/access/AccessControl.sol\":4300:4312  getRoleAdmin */\n      tag_35\n        /* \"@openzeppelin/contracts/access/AccessControl.sol\":4300:4318  getRoleAdmin(role) */\n      jump\t// in\n    tag_97:\n        /* \"@openzeppelin/contracts/access/AccessControl.sol\":2464:2480  _checkRole(role) */\n      tag_99\n        /* \"@openzeppelin/contracts/access/AccessControl.sol\":2475:2479  role */\n      dup2\n        /* \"@openzeppelin/contracts/access/AccessControl.sol\":2464:2474  _checkRole */\n      tag_100\n        /* \"@openzeppelin/contracts/access/AccessControl.sol\":2464:2480  _checkRole(role) */\n      jump\t// in\n    tag_99:\n        /* \"@openzeppelin/contracts/access/AccessControl.sol\":4330:4355  _grantRole(role, account) */\n      tag_102\n        /* \"@openzeppelin/contracts/access/AccessControl.sol\":4341:4345  role */\n      dup4\n        /* \"@openzeppelin/contracts/access/AccessControl.sol\":4347:4354  account */\n      dup4\n        /* \"@openzeppelin/contracts/access/AccessControl.sol\":4330:4340  _grantRole */\n      tag_103\n        /* \"@openzeppelin/contracts/access/AccessControl.sol\":4330:4355  _grantRole(role, account) */\n      jump\t// in\n    tag_102:\n      pop\n        /* \"@openzeppelin/contracts/access/AccessControl.sol\":4226:4362  function grantRole(bytes32 role, address account) public virtual onlyRole(getRoleAdmin(role)) {... */\n      pop\n      pop\n      pop\n      jump\t// out\n        /* \"contracts/npc_marketplace/npc_marketplace_core.sol\":2255:2643  function cancelListing(uint256 listingId) external nonReentrant {... */\n    tag_46:\n        /* \"@openzeppelin/contracts/security/ReentrancyGuard.sol\":2261:2282  _nonReentrantBefore() */\n      tag_105\n        /* \"@openzeppelin/contracts/security/ReentrancyGuard.sol\":2261:2280  _nonReentrantBefore */\n      tag_106\n        /* \"@openzeppelin/contracts/security/ReentrancyGuard.sol\":2261:2282  _nonReentrantBefore() */\n      jump\t// in\n    tag_105:\n        /* \"contracts/npc_marketplace/npc_marketplace_core.sol\":2330:2352  Listing memory listing */\n      0x00\n        /* \"contracts/npc_marketplace/npc_marketplace_core.sol\":2355:2363  listings */\n      0x03\n        /* \"contracts/npc_marketplace/npc_marketplace_core.sol\":2355:2374  listings[listingId] */\n      0x00\n        /* \"contracts/npc_marketplace/npc_marketplace_core.sol\":2364:2373  listingId */\n      dup4\n        /* \"contracts/npc_marketplace/npc_marketplace_core.sol\":2355:2374  listings[listingId] */\n      dup2\n      mstore\n      0x20\n      add\n      swap1\n      dup2\n      mstore\n      0x20\n      add\n      0x00\n      keccak256\n        /* \"contracts/npc_marketplace/npc_marketplace_core.sol\":2330:2374  Listing memory listing = listings[listingId] */\n      mload(0x40)\n      dup1\n      0x80\n      add\n      0x40\n      mstore\n      swap1\n      dup2\n      0x00\n      dup3\n      add\n      0x00\n      swap1\n      sload\n      swap1\n      0x0100\n      exp\n      swap1\n      div\n      0xffffffffffffffffffffffffffffffffffffffff\n      and\n      0xffffffffffffffffffffffffffffffffffffffff\n      and\n      0xffffffffffffffffffffffffffffffffffffffff\n      and\n      dup2\n      mstore\n      0x20\n      add\n      0x01\n      dup3\n      add\n      0x00\n      swap1\n      sload\n      swap1\n      0x0100\n      exp\n      swap1\n      div\n      0xffffffffffffffffffffffffffffffffffffffff\n      and\n      0xffffffffffffffffffffffffffffffffffffffff\n      and\n      0xffffffffffffffffffffffffffffffffffffffff\n      and\n      dup2\n      mstore\n      0x20\n      add\n      0x02\n      dup3\n      add\n      sload\n      dup2\n      mstore\n      0x20\n      add\n      0x03\n      dup3\n      add\n      sload\n      dup2\n      mstore\n      pop\n      pop\n      swap1\n      pop\n        /* \"contracts/npc_marketplace/npc_marketplace_core.sol\":2411:2421  msg.sender */\n      caller\n        /* \"contracts/npc_marketplace/npc_marketplace_core.sol\":2393:2421  listing.seller == msg.sender */\n      0xffffffffffffffffffffffffffffffffffffffff\n      and\n        /* \"contracts/npc_marketplace/npc_marketplace_core.sol\":2393:2400  listing */\n      dup2\n        /* \"contracts/npc_marketplace/npc_marketplace_core.sol\":2393:2407  listing.seller */\n      0x00\n      add\n      mload\n        /* \"contracts/npc_marketplace/npc_marketplace_core.sol\":2393:2421  listing.seller == msg.sender */\n      0xffffffffffffffffffffffffffffffffffffffff\n      and\n      eq\n        /* \"contracts/npc_marketplace/npc_marketplace_core.sol\":2385:2450  require(listing.seller == msg.sender, \"Caller is not the seller\") */\n      tag_108\n      jumpi\n      mload(0x40)\n      0x08c379a000000000000000000000000000000000000000000000000000000000\n      dup2\n      mstore\n      0x04\n      add\n      tag_109\n      swap1\n      tag_110\n      jump\t// in\n    tag_109:\n      mload(0x40)\n      dup1\n      swap2\n      sub\n      swap1\n      revert\n    tag_108:\n        /* \"contracts/npc_marketplace/npc_marketplace_core.sol\":2470:2478  listings */\n      0x03\n        /* \"contracts/npc_marketplace/npc_marketplace_core.sol\":2470:2489  listings[listingId] */\n      0x00\n        /* \"contracts/npc_marketplace/npc_marketplace_core.sol\":2479:2488  listingId */\n      dup4\n        /* \"contracts/npc_marketplace/npc_marketplace_core.sol\":2470:2489  listings[listingId] */\n      dup2\n      mstore\n      0x20\n      add\n      swap1\n      dup2\n      mstore\n      0x20\n      add\n      0x00\n      keccak256\n      0x00\n        /* \"contracts/npc_marketplace/npc_marketplace_core.sol\":2463:2489  delete listings[listingId] */\n      dup1\n      dup3\n      add\n      exp(0x0100, 0x00)\n      dup2\n      sload\n      swap1\n      0xffffffffffffffffffffffffffffffffffffffff\n      mul\n      not\n      and\n      swap1\n      sstore\n      0x01\n      dup3\n      add\n      exp(0x0100, 0x00)\n      dup2\n      sload\n      swap1\n      0xffffffffffffffffffffffffffffffffffffffff\n      mul\n      not\n      and\n      swap1\n      sstore\n      0x02\n      dup3\n      add\n      0x00\n      swap1\n      sstore\n      0x03\n      dup3\n      add\n      0x00\n      swap1\n      sstore\n      pop\n      pop\n        /* \"contracts/npc_marketplace/npc_marketplace_core.sol\":2508:2515  listing */\n      dup1\n        /* \"contracts/npc_marketplace/npc_marketplace_core.sol\":2508:2528  listing.tokenAddress */\n      0x20\n      add\n      mload\n        /* \"contracts/npc_marketplace/npc_marketplace_core.sol\":2500:2542  IERC721(listing.tokenAddress).transferFrom */\n      0xffffffffffffffffffffffffffffffffffffffff\n      and\n      0x23b872dd\n        /* \"contracts/npc_marketplace/npc_marketplace_core.sol\":2551:2555  this */\n      address\n        /* \"contracts/npc_marketplace/npc_marketplace_core.sol\":2558:2565  listing */\n      dup4\n        /* \"contracts/npc_marketplace/npc_marketplace_core.sol\":2558:2572  listing.seller */\n      0x00\n      add\n      mload\n        /* \"contracts/npc_marketplace/npc_marketplace_core.sol\":2574:2581  listing */\n      dup5\n        /* \"contracts/npc_marketplace/npc_marketplace_core.sol\":2574:2589  listing.tokenId */\n      0x40\n      add\n      mload\n        /* \"contracts/npc_marketplace/npc_marketplace_core.sol\":2500:2590  IERC721(listing.tokenAddress).transferFrom(address(this), listing.seller, listing.tokenId) */\n      mload(0x40)\n      dup5\n      0xffffffff\n      and\n      0xe0\n      shl\n      dup2\n      mstore\n      0x04\n      add\n      tag_111\n      swap4\n      swap3\n      swap2\n      swap1\n      tag_112\n      jump\t// in\n    tag_111:\n      0x00\n      mload(0x40)\n      dup1\n      dup4\n      sub\n      dup2\n      0x00\n      dup8\n      dup1\n      extcodesize\n      iszero\n      dup1\n      iszero\n      tag_113\n      jumpi\n      0x00\n      dup1\n      revert\n    tag_113:\n      pop\n      gas\n      call\n      iszero\n      dup1\n      iszero\n      tag_115\n      jumpi\n      returndatasize\n      0x00\n      dup1\n      returndatacopy\n      revert(0x00, returndatasize)\n    tag_115:\n      pop\n      pop\n      pop\n      pop\n        /* \"contracts/npc_marketplace/npc_marketplace_core.sol\":2625:2634  listingId */\n      dup2\n        /* \"contracts/npc_marketplace/npc_marketplace_core.sol\":2608:2635  ListingCancelled(listingId) */\n      0x411aee90354c51b1b04cd563fcab2617142a9d50da19232d888547c8a1b7fd8a\n      mload(0x40)\n      mload(0x40)\n      dup1\n      swap2\n      sub\n      swap1\n      log2\n        /* \"contracts/npc_marketplace/npc_marketplace_core.sol\":2319:2643  {... */\n      pop\n        /* \"@openzeppelin/contracts/security/ReentrancyGuard.sol\":2303:2323  _nonReentrantAfter() */\n      tag_116\n        /* \"@openzeppelin/contracts/security/ReentrancyGuard.sol\":2303:2321  _nonReentrantAfter */\n      tag_117\n        /* \"@openzeppelin/contracts/security/ReentrancyGuard.sol\":2303:2323  _nonReentrantAfter() */\n      jump\t// in\n    tag_116:\n        /* \"contracts/npc_marketplace/npc_marketplace_core.sol\":2255:2643  function cancelListing(uint256 listingId) external nonReentrant {... */\n      pop\n      jump\t// out\n        /* \"@openzeppelin/contracts/access/AccessControl.sol\":5328:5573  function renounceRole(bytes32 role, address callerConfirmation) public virtual {... */\n    tag_50:\n        /* \"@openzeppelin/contracts/access/AccessControl.sol\":5443:5455  _msgSender() */\n      tag_119\n        /* \"@openzeppelin/contracts/access/AccessControl.sol\":5443:5453  _msgSender */\n      tag_120\n        /* \"@openzeppelin/contracts/access/AccessControl.sol\":5443:5455  _msgSender() */\n      jump\t// in\n    tag_119:\n        /* \"@openzeppelin/contracts/access/AccessControl.sol\":5421:5455  callerConfirmation != _msgSender() */\n      0xffffffffffffffffffffffffffffffffffffffff\n      and\n        /* \"@openzeppelin/contracts/access/AccessControl.sol\":5421:5439  callerConfirmation */\n      dup2\n        /* \"@openzeppelin/contracts/access/AccessControl.sol\":5421:5455  callerConfirmation != _msgSender() */\n      0xffffffffffffffffffffffffffffffffffffffff\n      and\n      eq\n        /* \"@openzeppelin/contracts/access/AccessControl.sol\":5417:5519  if (callerConfirmation != _msgSender()) {... */\n      tag_121\n      jumpi\n        /* \"@openzeppelin/contracts/access/AccessControl.sol\":5478:5508  AccessControlBadConfirmation() */\n      mload(0x40)\n      0x6697b23200000000000000000000000000000000000000000000000000000000\n      dup2\n      mstore\n      0x04\n      add\n      mload(0x40)\n      dup1\n      swap2\n      sub\n      swap1\n      revert\n        /* \"@openzeppelin/contracts/access/AccessControl.sol\":5417:5519  if (callerConfirmation != _msgSender()) {... */\n    tag_121:\n        /* \"@openzeppelin/contracts/access/AccessControl.sol\":5529:5566  _revokeRole(role, callerConfirmation) */\n      tag_122\n        /* \"@openzeppelin/contracts/access/AccessControl.sol\":5541:5545  role */\n      dup3\n        /* \"@openzeppelin/contracts/access/AccessControl.sol\":5547:5565  callerConfirmation */\n      dup3\n        /* \"@openzeppelin/contracts/access/AccessControl.sol\":5529:5540  _revokeRole */\n      tag_123\n        /* \"@openzeppelin/contracts/access/AccessControl.sol\":5529:5566  _revokeRole(role, callerConfirmation) */\n      jump\t// in\n    tag_122:\n      pop\n        /* \"@openzeppelin/contracts/access/AccessControl.sol\":5328:5573  function renounceRole(bytes32 role, address callerConfirmation) public virtual {... */\n      pop\n      pop\n      jump\t// out\n        /* \"contracts/npc_marketplace/npc_marketplace_core.sol\":2107:2243  function buyNFT(uint256 listingId) public payable virtual nonReentrant {... */\n    tag_53:\n        /* \"@openzeppelin/contracts/security/ReentrancyGuard.sol\":2261:2282  _nonReentrantBefore() */\n      tag_125\n        /* \"@openzeppelin/contracts/security/ReentrancyGuard.sol\":2261:2280  _nonReentrantBefore */\n      tag_106\n        /* \"@openzeppelin/contracts/security/ReentrancyGuard.sol\":2261:2282  _nonReentrantBefore() */\n      jump\t// in\n    tag_125:\n        /* \"contracts/npc_marketplace/npc_marketplace_core.sol\":2189:2235  _fulfilSale(listingId, msg.sender, msg.value ) */\n      tag_127\n        /* \"contracts/npc_marketplace/npc_marketplace_core.sol\":2201:2210  listingId */\n      dup2\n        /* \"contracts/npc_marketplace/npc_marketplace_core.sol\":2212:2222  msg.sender */\n      caller\n        /* \"contracts/npc_marketplace/npc_marketplace_core.sol\":2224:2233  msg.value */\n      callvalue\n        /* \"contracts/npc_marketplace/npc_marketplace_core.sol\":2189:2200  _fulfilSale */\n      tag_128\n        /* \"contracts/npc_marketplace/npc_marketplace_core.sol\":2189:2235  _fulfilSale(listingId, msg.sender, msg.value ) */\n      jump\t// in\n    tag_127:\n        /* \"@openzeppelin/contracts/security/ReentrancyGuard.sol\":2303:2323  _nonReentrantAfter() */\n      tag_129\n        /* \"@openzeppelin/contracts/security/ReentrancyGuard.sol\":2303:2321  _nonReentrantAfter */\n      tag_117\n        /* \"@openzeppelin/contracts/security/ReentrancyGuard.sol\":2303:2323  _nonReentrantAfter() */\n      jump\t// in\n    tag_129:\n        /* \"contracts/npc_marketplace/npc_marketplace_core.sol\":2107:2243  function buyNFT(uint256 listingId) public payable virtual nonReentrant {... */\n      pop\n      jump\t// out\n        /* \"contracts/npc_marketplace/npc_marketplace_core.sol\":711:749  uint256 public listingFee = 0.01 ether */\n    tag_56:\n      sload(0x04)\n      dup2\n      jump\t// out\n        /* \"contracts/npc_marketplace/npc_marketplace_core.sol\":457:517  bytes32 public constant ADMIN_ROLE = keccak256(\"ADMIN_ROLE\") */\n    tag_61:\n        /* \"contracts/npc_marketplace/npc_marketplace_core.sol\":494:517  keccak256(\"ADMIN_ROLE\") */\n      0xa49807205ce4d355092ef5a8a18f56e8913cf4a201fbe287825b095693c21775\n        /* \"contracts/npc_marketplace/npc_marketplace_core.sol\":457:517  bytes32 public constant ADMIN_ROLE = keccak256(\"ADMIN_ROLE\") */\n      dup2\n      jump\t// out\n        /* \"@openzeppelin/contracts/access/AccessControl.sol\":2854:2990  function hasRole(bytes32 role, address account) public view virtual returns (bool) {... */\n    tag_66:\n        /* \"@openzeppelin/contracts/access/AccessControl.sol\":2931:2935  bool */\n      0x00\n        /* \"@openzeppelin/contracts/access/AccessControl.sol\":2954:2960  _roles */\n      0x01\n        /* \"@openzeppelin/contracts/access/AccessControl.sol\":2954:2966  _roles[role] */\n      0x00\n        /* \"@openzeppelin/contracts/access/AccessControl.sol\":2961:2965  role */\n      dup5\n        /* \"@openzeppelin/contracts/access/AccessControl.sol\":2954:2966  _roles[role] */\n      dup2\n      mstore\n      0x20\n      add\n      swap1\n      dup2\n      mstore\n      0x20\n      add\n      0x00\n      keccak256\n        /* \"@openzeppelin/contracts/access/AccessControl.sol\":2954:2974  _roles[role].hasRole */\n      0x00\n      add\n        /* \"@openzeppelin/contracts/access/AccessControl.sol\":2954:2983  _roles[role].hasRole[account] */\n      0x00\n        /* \"@openzeppelin/contracts/access/AccessControl.sol\":2975:2982  account */\n      dup4\n        /* \"@openzeppelin/contracts/access/AccessControl.sol\":2954:2983  _roles[role].hasRole[account] */\n      0xffffffffffffffffffffffffffffffffffffffff\n      and\n      0xffffffffffffffffffffffffffffffffffffffff\n      and\n      dup2\n      mstore\n      0x20\n      add\n      swap1\n      dup2\n      mstore\n      0x20\n      add\n      0x00\n      keccak256\n      0x00\n      swap1\n      sload\n      swap1\n      0x0100\n      exp\n      swap1\n      div\n      0xff\n      and\n        /* \"@openzeppelin/contracts/access/AccessControl.sol\":2947:2983  return _roles[role].hasRole[account] */\n      swap1\n      pop\n        /* \"@openzeppelin/contracts/access/AccessControl.sol\":2854:2990  function hasRole(bytes32 role, address account) public view virtual returns (bool) {... */\n      swap3\n      swap2\n      pop\n      pop\n      jump\t// out\n        /* \"@openzeppelin/contracts/access/AccessControl.sol\":2187:2236  bytes32 public constant DEFAULT_ADMIN_ROLE = 0x00 */\n    tag_70:\n        /* \"@openzeppelin/contracts/access/AccessControl.sol\":2232:2236  0x00 */\n      0x00\n        /* \"@openzeppelin/contracts/access/AccessControl.sol\":2187:2236  bytes32 public constant DEFAULT_ADMIN_ROLE = 0x00 */\n      dup1\n      shl\n      dup2\n      jump\t// out\n        /* \"contracts/npc_marketplace/npc_marketplace_core.sol\":1429:2099  function listNFT(address tokenAddress, uint256 tokenId, uint256 price) external payable nonReentrant {... */\n    tag_75:\n        /* \"@openzeppelin/contracts/security/ReentrancyGuard.sol\":2261:2282  _nonReentrantBefore() */\n      tag_132\n        /* \"@openzeppelin/contracts/security/ReentrancyGuard.sol\":2261:2280  _nonReentrantBefore */\n      tag_106\n        /* \"@openzeppelin/contracts/security/ReentrancyGuard.sol\":2261:2282  _nonReentrantBefore() */\n      jump\t// in\n    tag_132:\n        /* \"contracts/npc_marketplace/npc_marketplace_core.sol\":1562:1572  listingFee */\n      sload(0x04)\n        /* \"contracts/npc_marketplace/npc_marketplace_core.sol\":1549:1558  msg.value */\n      callvalue\n        /* \"contracts/npc_marketplace/npc_marketplace_core.sol\":1549:1572  msg.value == listingFee */\n      eq\n        /* \"contracts/npc_marketplace/npc_marketplace_core.sol\":1541:1598  require(msg.value == listingFee, \"Incorrect listing fee\") */\n      tag_134\n      jumpi\n      mload(0x40)\n      0x08c379a000000000000000000000000000000000000000000000000000000000\n      dup2\n      mstore\n      0x04\n      add\n      tag_135\n      swap1\n      tag_136\n      jump\t// in\n    tag_135:\n      mload(0x40)\n      dup1\n      swap2\n      sub\n      swap1\n      revert\n    tag_134:\n        /* \"contracts/npc_marketplace/npc_marketplace_core.sol\":1659:1669  msg.sender */\n      caller\n        /* \"contracts/npc_marketplace/npc_marketplace_core.sol\":1617:1669  IERC721(tokenAddress).ownerOf(tokenId) == msg.sender */\n      0xffffffffffffffffffffffffffffffffffffffff\n      and\n        /* \"contracts/npc_marketplace/npc_marketplace_core.sol\":1625:1637  tokenAddress */\n      dup4\n        /* \"contracts/npc_marketplace/npc_marketplace_core.sol\":1617:1646  IERC721(tokenAddress).ownerOf */\n      0xffffffffffffffffffffffffffffffffffffffff\n      and\n      0x6352211e\n        /* \"contracts/npc_marketplace/npc_marketplace_core.sol\":1647:1654  tokenId */\n      dup5\n        /* \"contracts/npc_marketplace/npc_marketplace_core.sol\":1617:1655  IERC721(tokenAddress).ownerOf(tokenId) */\n      mload(0x40)\n      dup3\n      0xffffffff\n      and\n      0xe0\n      shl\n      dup2\n      mstore\n      0x04\n      add\n      tag_137\n      swap2\n      swap1\n      tag_58\n      jump\t// in\n    tag_137:\n      0x20\n      mload(0x40)\n      dup1\n      dup4\n      sub\n      dup2\n      dup7\n      gas\n      staticcall\n      iszero\n      dup1\n      iszero\n      tag_139\n      jumpi\n      returndatasize\n      0x00\n      dup1\n      returndatacopy\n      revert(0x00, returndatasize)\n    tag_139:\n      pop\n      pop\n      pop\n      pop\n      mload(0x40)\n      returndatasize\n      not(0x1f)\n      0x1f\n      dup3\n      add\n      and\n      dup3\n      add\n      dup1\n      0x40\n      mstore\n      pop\n      dup2\n      add\n      swap1\n      tag_140\n      swap2\n      swap1\n      tag_141\n      jump\t// in\n    tag_140:\n        /* \"contracts/npc_marketplace/npc_marketplace_core.sol\":1617:1669  IERC721(tokenAddress).ownerOf(tokenId) == msg.sender */\n      0xffffffffffffffffffffffffffffffffffffffff\n      and\n      eq\n        /* \"contracts/npc_marketplace/npc_marketplace_core.sol\":1609:1697  require(IERC721(tokenAddress).ownerOf(tokenId) == msg.sender, \"Caller is not the owner\") */\n      tag_142\n      jumpi\n      mload(0x40)\n      0x08c379a000000000000000000000000000000000000000000000000000000000\n      dup2\n      mstore\n      0x04\n      add\n      tag_143\n      swap1\n      tag_144\n      jump\t// in\n    tag_143:\n      mload(0x40)\n      dup1\n      swap2\n      sub\n      swap1\n      revert\n    tag_142:\n        /* \"contracts/npc_marketplace/npc_marketplace_core.sol\":1724:1725  0 */\n      0x00\n        /* \"contracts/npc_marketplace/npc_marketplace_core.sol\":1716:1721  price */\n      dup2\n        /* \"contracts/npc_marketplace/npc_marketplace_core.sol\":1716:1725  price > 0 */\n      gt\n        /* \"contracts/npc_marketplace/npc_marketplace_core.sol\":1708:1761  require(price > 0, \"Price must be greater than zero\") */\n      tag_145\n      jumpi\n      mload(0x40)\n      0x08c379a000000000000000000000000000000000000000000000000000000000\n      dup2\n      mstore\n      0x04\n      add\n      tag_146\n      swap1\n      tag_147\n      jump\t// in\n    tag_146:\n      mload(0x40)\n      dup1\n      swap2\n      sub\n      swap1\n      revert\n    tag_145:\n        /* \"contracts/npc_marketplace/npc_marketplace_core.sol\":1782:1794  tokenAddress */\n      dup3\n        /* \"contracts/npc_marketplace/npc_marketplace_core.sol\":1774:1808  IERC721(tokenAddress).transferFrom */\n      0xffffffffffffffffffffffffffffffffffffffff\n      and\n      0x23b872dd\n        /* \"contracts/npc_marketplace/npc_marketplace_core.sol\":1809:1819  msg.sender */\n      caller\n        /* \"contracts/npc_marketplace/npc_marketplace_core.sol\":1829:1833  this */\n      address\n        /* \"contracts/npc_marketplace/npc_marketplace_core.sol\":1836:1843  tokenId */\n      dup6\n        /* \"contracts/npc_marketplace/npc_marketplace_core.sol\":1774:1844  IERC721(tokenAddress).transferFrom(msg.sender, address(this), tokenId) */\n      mload(0x40)\n      dup5\n      0xffffffff\n      and\n      0xe0\n      shl\n      dup2\n      mstore\n      0x04\n      add\n      tag_148\n      swap4\n      swap3\n      swap2\n      swap1\n      tag_112\n      jump\t// in\n    tag_148:\n      0x00\n      mload(0x40)\n      dup1\n      dup4\n      sub\n      dup2\n      0x00\n      dup8\n      dup1\n      extcodesize\n      iszero\n      dup1\n      iszero\n      tag_149\n      jumpi\n      0x00\n      dup1\n      revert\n    tag_149:\n      pop\n      gas\n      call\n      iszero\n      dup1\n      iszero\n      tag_151\n      jumpi\n      returndatasize\n      0x00\n      dup1\n      returndatacopy\n      revert(0x00, returndatasize)\n    tag_151:\n      pop\n      pop\n      pop\n      pop\n        /* \"contracts/npc_marketplace/npc_marketplace_core.sol\":1857:1880  _listingIds.increment() */\n      tag_152\n        /* \"contracts/npc_marketplace/npc_marketplace_core.sol\":1857:1868  _listingIds */\n      0x02\n        /* \"contracts/npc_marketplace/npc_marketplace_core.sol\":1857:1878  _listingIds.increment */\n      tag_153\n        /* \"contracts/npc_marketplace/npc_marketplace_core.sol\":1857:1880  _listingIds.increment() */\n      jump\t// in\n    tag_152:\n        /* \"contracts/npc_marketplace/npc_marketplace_core.sol\":1891:1908  uint256 listingId */\n      0x00\n        /* \"contracts/npc_marketplace/npc_marketplace_core.sol\":1911:1932  _listingIds.current() */\n      tag_154\n        /* \"contracts/npc_marketplace/npc_marketplace_core.sol\":1911:1922  _listingIds */\n      0x02\n        /* \"contracts/npc_marketplace/npc_marketplace_core.sol\":1911:1930  _listingIds.current */\n      tag_155\n        /* \"contracts/npc_marketplace/npc_marketplace_core.sol\":1911:1932  _listingIds.current() */\n      jump\t// in\n    tag_154:\n        /* \"contracts/npc_marketplace/npc_marketplace_core.sol\":1891:1932  uint256 listingId = _listingIds.current() */\n      swap1\n      pop\n        /* \"contracts/npc_marketplace/npc_marketplace_core.sol\":1965:2014  Listing(msg.sender, tokenAddress, tokenId, price) */\n      mload(0x40)\n      dup1\n      0x80\n      add\n      0x40\n      mstore\n      dup1\n        /* \"contracts/npc_marketplace/npc_marketplace_core.sol\":1973:1983  msg.sender */\n      caller\n        /* \"contracts/npc_marketplace/npc_marketplace_core.sol\":1965:2014  Listing(msg.sender, tokenAddress, tokenId, price) */\n      0xffffffffffffffffffffffffffffffffffffffff\n      and\n      dup2\n      mstore\n      0x20\n      add\n        /* \"contracts/npc_marketplace/npc_marketplace_core.sol\":1985:1997  tokenAddress */\n      dup6\n        /* \"contracts/npc_marketplace/npc_marketplace_core.sol\":1965:2014  Listing(msg.sender, tokenAddress, tokenId, price) */\n      0xffffffffffffffffffffffffffffffffffffffff\n      and\n      dup2\n      mstore\n      0x20\n      add\n        /* \"contracts/npc_marketplace/npc_marketplace_core.sol\":1999:2006  tokenId */\n      dup5\n        /* \"contracts/npc_marketplace/npc_marketplace_core.sol\":1965:2014  Listing(msg.sender, tokenAddress, tokenId, price) */\n      dup2\n      mstore\n      0x20\n      add\n        /* \"contracts/npc_marketplace/npc_marketplace_core.sol\":2008:2013  price */\n      dup4\n        /* \"contracts/npc_marketplace/npc_marketplace_core.sol\":1965:2014  Listing(msg.sender, tokenAddress, tokenId, price) */\n      dup2\n      mstore\n      pop\n        /* \"contracts/npc_marketplace/npc_marketplace_core.sol\":1943:1951  listings */\n      0x03\n        /* \"contracts/npc_marketplace/npc_marketplace_core.sol\":1943:1962  listings[listingId] */\n      0x00\n        /* \"contracts/npc_marketplace/npc_marketplace_core.sol\":1952:1961  listingId */\n      dup4\n        /* \"contracts/npc_marketplace/npc_marketplace_core.sol\":1943:1962  listings[listingId] */\n      dup2\n      mstore\n      0x20\n      add\n      swap1\n      dup2\n      mstore\n      0x20\n      add\n      0x00\n      keccak256\n        /* \"contracts/npc_marketplace/npc_marketplace_core.sol\":1943:2014  listings[listingId] = Listing(msg.sender, tokenAddress, tokenId, price) */\n      0x00\n      dup3\n      add\n      mload\n      dup2\n      0x00\n      add\n      exp(0x0100, 0x00)\n      dup2\n      sload\n      dup2\n      0xffffffffffffffffffffffffffffffffffffffff\n      mul\n      not\n      and\n      swap1\n      dup4\n      0xffffffffffffffffffffffffffffffffffffffff\n      and\n      mul\n      or\n      swap1\n      sstore\n      pop\n      0x20\n      dup3\n      add\n      mload\n      dup2\n      0x01\n      add\n      exp(0x0100, 0x00)\n      dup2\n      sload\n      dup2\n      0xffffffffffffffffffffffffffffffffffffffff\n      mul\n      not\n      and\n      swap1\n      dup4\n      0xffffffffffffffffffffffffffffffffffffffff\n      and\n      mul\n      or\n      swap1\n      sstore\n      pop\n      0x40\n      dup3\n      add\n      mload\n      dup2\n      0x02\n      add\n      sstore\n      0x60\n      dup3\n      add\n      mload\n      dup2\n      0x03\n      add\n      sstore\n      swap1\n      pop\n      pop\n        /* \"contracts/npc_marketplace/npc_marketplace_core.sol\":2062:2074  tokenAddress */\n      dup4\n        /* \"contracts/npc_marketplace/npc_marketplace_core.sol\":2032:2091  Listed(listingId, msg.sender, tokenAddress, tokenId, price) */\n      0xffffffffffffffffffffffffffffffffffffffff\n      and\n        /* \"contracts/npc_marketplace/npc_marketplace_core.sol\":2050:2060  msg.sender */\n      caller\n        /* \"contracts/npc_marketplace/npc_marketplace_core.sol\":2032:2091  Listed(listingId, msg.sender, tokenAddress, tokenId, price) */\n      0xffffffffffffffffffffffffffffffffffffffff\n      and\n        /* \"contracts/npc_marketplace/npc_marketplace_core.sol\":2039:2048  listingId */\n      dup3\n        /* \"contracts/npc_marketplace/npc_marketplace_core.sol\":2032:2091  Listed(listingId, msg.sender, tokenAddress, tokenId, price) */\n      0x723f73331eaee88eec7fc68ef60ab6ed15e4b90d0472b55eb92fa43910bab6dd\n        /* \"contracts/npc_marketplace/npc_marketplace_core.sol\":2076:2083  tokenId */\n      dup7\n        /* \"contracts/npc_marketplace/npc_marketplace_core.sol\":2085:2090  price */\n      dup7\n        /* \"contracts/npc_marketplace/npc_marketplace_core.sol\":2032:2091  Listed(listingId, msg.sender, tokenAddress, tokenId, price) */\n      mload(0x40)\n      tag_156\n      swap3\n      swap2\n      swap1\n      tag_157\n      jump\t// in\n    tag_156:\n      mload(0x40)\n      dup1\n      swap2\n      sub\n      swap1\n      log4\n        /* \"contracts/npc_marketplace/npc_marketplace_core.sol\":1530:2099  {... */\n      pop\n        /* \"@openzeppelin/contracts/security/ReentrancyGuard.sol\":2303:2323  _nonReentrantAfter() */\n      tag_158\n        /* \"@openzeppelin/contracts/security/ReentrancyGuard.sol\":2303:2321  _nonReentrantAfter */\n      tag_117\n        /* \"@openzeppelin/contracts/security/ReentrancyGuard.sol\":2303:2323  _nonReentrantAfter() */\n      jump\t// in\n    tag_158:\n        /* \"contracts/npc_marketplace/npc_marketplace_core.sol\":1429:2099  function listNFT(address tokenAddress, uint256 tokenId, uint256 price) external payable nonReentrant {... */\n      pop\n      pop\n      pop\n      jump\t// out\n        /* \"@openzeppelin/contracts/access/AccessControl.sol\":4642:4780  function revokeRole(bytes32 role, address account) public virtual onlyRole(getRoleAdmin(role)) {... */\n    tag_79:\n        /* \"@openzeppelin/contracts/access/AccessControl.sol\":4717:4735  getRoleAdmin(role) */\n      tag_159\n        /* \"@openzeppelin/contracts/access/AccessControl.sol\":4730:4734  role */\n      dup3\n        /* \"@openzeppelin/contracts/access/AccessControl.sol\":4717:4729  getRoleAdmin */\n      tag_35\n        /* \"@openzeppelin/contracts/access/AccessControl.sol\":4717:4735  getRoleAdmin(role) */\n      jump\t// in\n    tag_159:\n        /* \"@openzeppelin/contracts/access/AccessControl.sol\":2464:2480  _checkRole(role) */\n      tag_161\n        /* \"@openzeppelin/contracts/access/AccessControl.sol\":2475:2479  role */\n      dup2\n        /* \"@openzeppelin/contracts/access/AccessControl.sol\":2464:2474  _checkRole */\n      tag_100\n        /* \"@openzeppelin/contracts/access/AccessControl.sol\":2464:2480  _checkRole(role) */\n      jump\t// in\n    tag_161:\n        /* \"@openzeppelin/contracts/access/AccessControl.sol\":4747:4773  _revokeRole(role, account) */\n      tag_163\n        /* \"@openzeppelin/contracts/access/AccessControl.sol\":4759:4763  role */\n      dup4\n        /* \"@openzeppelin/contracts/access/AccessControl.sol\":4765:4772  account */\n      dup4\n        /* \"@openzeppelin/contracts/access/AccessControl.sol\":4747:4758  _revokeRole */\n      tag_123\n        /* \"@openzeppelin/contracts/access/AccessControl.sol\":4747:4773  _revokeRole(role, account) */\n      jump\t// in\n    tag_163:\n      pop\n        /* \"@openzeppelin/contracts/access/AccessControl.sol\":4642:4780  function revokeRole(bytes32 role, address account) public virtual onlyRole(getRoleAdmin(role)) {... */\n      pop\n      pop\n      pop\n      jump\t// out\n        /* \"contracts/npc_marketplace/npc_marketplace_core.sol\":661:704  mapping(uint256 => Listing) public listings */\n    tag_83:\n      mstore(0x20, 0x03)\n      dup1\n      0x00\n      mstore\n      keccak256(0x00, 0x40)\n      0x00\n      swap2\n      pop\n      swap1\n      pop\n      dup1\n      0x00\n      add\n      0x00\n      swap1\n      sload\n      swap1\n      0x0100\n      exp\n      swap1\n      div\n      0xffffffffffffffffffffffffffffffffffffffff\n      and\n      swap1\n      dup1\n      0x01\n      add\n      0x00\n      swap1\n      sload\n      swap1\n      0x0100\n      exp\n      swap1\n      div\n      0xffffffffffffffffffffffffffffffffffffffff\n      and\n      swap1\n      dup1\n      0x02\n      add\n      sload\n      swap1\n      dup1\n      0x03\n      add\n      sload\n      swap1\n      pop\n      dup5\n      jump\t// out\n        /* \"@openzeppelin/contracts/utils/introspection/ERC165.sol\":762:908  function supportsInterface(bytes4 interfaceId) public view virtual returns (bool) {... */\n    tag_89:\n        /* \"@openzeppelin/contracts/utils/introspection/ERC165.sol\":838:842  bool */\n      0x00\n        /* \"@openzeppelin/contracts/utils/introspection/ERC165.sol\":876:901  type(IERC165).interfaceId */\n      0x01ffc9a700000000000000000000000000000000000000000000000000000000\n        /* \"@openzeppelin/contracts/utils/introspection/ERC165.sol\":861:901  interfaceId == type(IERC165).interfaceId */\n      not(0xffffffffffffffffffffffffffffffffffffffffffffffffffffffff)\n      and\n        /* \"@openzeppelin/contracts/utils/introspection/ERC165.sol\":861:872  interfaceId */\n      dup3\n        /* \"@openzeppelin/contracts/utils/introspection/ERC165.sol\":861:901  interfaceId == type(IERC165).interfaceId */\n      not(0xffffffffffffffffffffffffffffffffffffffffffffffffffffffff)\n      and\n      eq\n        /* \"@openzeppelin/contracts/utils/introspection/ERC165.sol\":854:901  return interfaceId == type(IERC165).interfaceId */\n      swap1\n      pop\n        /* \"@openzeppelin/contracts/utils/introspection/ERC165.sol\":762:908  function supportsInterface(bytes4 interfaceId) public view virtual returns (bool) {... */\n      swap2\n      swap1\n      pop\n      jump\t// out\n        /* \"@openzeppelin/contracts/access/AccessControl.sol\":3199:3302  function _checkRole(bytes32 role) internal view virtual {... */\n    tag_100:\n        /* \"@openzeppelin/contracts/access/AccessControl.sol\":3265:3295  _checkRole(role, _msgSender()) */\n      tag_166\n        /* \"@openzeppelin/contracts/access/AccessControl.sol\":3276:3280  role */\n      dup2\n        /* \"@openzeppelin/contracts/access/AccessControl.sol\":3282:3294  _msgSender() */\n      tag_167\n        /* \"@openzeppelin/contracts/access/AccessControl.sol\":3282:3292  _msgSender */\n      tag_120\n        /* \"@openzeppelin/contracts/access/AccessControl.sol\":3282:3294  _msgSender() */\n      jump\t// in\n    tag_167:\n        /* \"@openzeppelin/contracts/access/AccessControl.sol\":3265:3275  _checkRole */\n      tag_168\n        /* \"@openzeppelin/contracts/access/AccessControl.sol\":3265:3295  _checkRole(role, _msgSender()) */\n      jump\t// in\n    tag_166:\n        /* \"@openzeppelin/contracts/access/AccessControl.sol\":3199:3302  function _checkRole(bytes32 role) internal view virtual {... */\n      pop\n      jump\t// out\n        /* \"@openzeppelin/contracts/access/AccessControl.sol\":6179:6495  function _grantRole(bytes32 role, address account) internal virtual returns (bool) {... */\n    tag_103:\n        /* \"@openzeppelin/contracts/access/AccessControl.sol\":6256:6260  bool */\n      0x00\n        /* \"@openzeppelin/contracts/access/AccessControl.sol\":6277:6299  hasRole(role, account) */\n      tag_170\n        /* \"@openzeppelin/contracts/access/AccessControl.sol\":6285:6289  role */\n      dup4\n        /* \"@openzeppelin/contracts/access/AccessControl.sol\":6291:6298  account */\n      dup4\n        /* \"@openzeppelin/contracts/access/AccessControl.sol\":6277:6284  hasRole */\n      tag_66\n        /* \"@openzeppelin/contracts/access/AccessControl.sol\":6277:6299  hasRole(role, account) */\n      jump\t// in\n    tag_170:\n        /* \"@openzeppelin/contracts/access/AccessControl.sol\":6272:6489  if (!hasRole(role, account)) {... */\n      tag_171\n      jumpi\n        /* \"@openzeppelin/contracts/access/AccessControl.sol\":6347:6351  true */\n      0x01\n        /* \"@openzeppelin/contracts/access/AccessControl.sol\":6315:6321  _roles */\n      dup1\n        /* \"@openzeppelin/contracts/access/AccessControl.sol\":6315:6327  _roles[role] */\n      0x00\n        /* \"@openzeppelin/contracts/access/AccessControl.sol\":6322:6326  role */\n      dup6\n        /* \"@openzeppelin/contracts/access/AccessControl.sol\":6315:6327  _roles[role] */\n      dup2\n      mstore\n      0x20\n      add\n      swap1\n      dup2\n      mstore\n      0x20\n      add\n      0x00\n      keccak256\n        /* \"@openzeppelin/contracts/access/AccessControl.sol\":6315:6335  _roles[role].hasRole */\n      0x00\n      add\n        /* \"@openzeppelin/contracts/access/AccessControl.sol\":6315:6344  _roles[role].hasRole[account] */\n      0x00\n        /* \"@openzeppelin/contracts/access/AccessControl.sol\":6336:6343  account */\n      dup5\n        /* \"@openzeppelin/contracts/access/AccessControl.sol\":6315:6344  _roles[role].hasRole[account] */\n      0xffffffffffffffffffffffffffffffffffffffff\n      and\n      0xffffffffffffffffffffffffffffffffffffffff\n      and\n      dup2\n      mstore\n      0x20\n      add\n      swap1\n      dup2\n      mstore\n      0x20\n      add\n      0x00\n      keccak256\n      0x00\n        /* \"@openzeppelin/contracts/access/AccessControl.sol\":6315:6351  _roles[role].hasRole[account] = true */\n      0x0100\n      exp\n      dup2\n      sload\n      dup2\n      0xff\n      mul\n      not\n      and\n      swap1\n      dup4\n      iszero\n      iszero\n      mul\n      or\n      swap1\n      sstore\n      pop\n        /* \"@openzeppelin/contracts/access/AccessControl.sol\":6397:6409  _msgSender() */\n      tag_172\n        /* \"@openzeppelin/contracts/access/AccessControl.sol\":6397:6407  _msgSender */\n      tag_120\n        /* \"@openzeppelin/contracts/access/AccessControl.sol\":6397:6409  _msgSender() */\n      jump\t// in\n    tag_172:\n        /* \"@openzeppelin/contracts/access/AccessControl.sol\":6370:6410  RoleGranted(role, account, _msgSender()) */\n      0xffffffffffffffffffffffffffffffffffffffff\n      and\n        /* \"@openzeppelin/contracts/access/AccessControl.sol\":6388:6395  account */\n      dup3\n        /* \"@openzeppelin/contracts/access/AccessControl.sol\":6370:6410  RoleGranted(role, account, _msgSender()) */\n      0xffffffffffffffffffffffffffffffffffffffff\n      and\n        /* \"@openzeppelin/contracts/access/AccessControl.sol\":6382:6386  role */\n      dup5\n        /* \"@openzeppelin/contracts/access/AccessControl.sol\":6370:6410  RoleGranted(role, account, _msgSender()) */\n      0x2f8788117e7eff1d82e926ec794901d17c78024a50270940304540a733656f0d\n      mload(0x40)\n      mload(0x40)\n      dup1\n      swap2\n      sub\n      swap1\n      log4\n        /* \"@openzeppelin/contracts/access/AccessControl.sol\":6431:6435  true */\n      0x01\n        /* \"@openzeppelin/contracts/access/AccessControl.sol\":6424:6435  return true */\n      swap1\n      pop\n      jump(tag_169)\n        /* \"@openzeppelin/contracts/access/AccessControl.sol\":6272:6489  if (!hasRole(role, account)) {... */\n    tag_171:\n        /* \"@openzeppelin/contracts/access/AccessControl.sol\":6473:6478  false */\n      0x00\n        /* \"@openzeppelin/contracts/access/AccessControl.sol\":6466:6478  return false */\n      swap1\n      pop\n        /* \"@openzeppelin/contracts/access/AccessControl.sol\":6179:6495  function _grantRole(bytes32 role, address account) internal virtual returns (bool) {... */\n    tag_169:\n      swap3\n      swap2\n      pop\n      pop\n      jump\t// out\n        /* \"@openzeppelin/contracts/security/ReentrancyGuard.sol\":2336:2623  function _nonReentrantBefore() private {... */\n    tag_106:\n        /* \"@openzeppelin/contracts/security/ReentrancyGuard.sol\":1759:1760  2 */\n      0x02\n        /* \"@openzeppelin/contracts/security/ReentrancyGuard.sol\":2468:2475  _status */\n      sload(0x00)\n        /* \"@openzeppelin/contracts/security/ReentrancyGuard.sol\":2468:2487  _status != _ENTERED */\n      sub\n        /* \"@openzeppelin/contracts/security/ReentrancyGuard.sol\":2460:2523  require(_status != _ENTERED, \"ReentrancyGuard: reentrant call\") */\n      tag_175\n      jumpi\n      mload(0x40)\n      0x08c379a000000000000000000000000000000000000000000000000000000000\n      dup2\n      mstore\n      0x04\n      add\n      tag_176\n      swap1\n      tag_177\n      jump\t// in\n    tag_176:\n      mload(0x40)\n      dup1\n      swap2\n      sub\n      swap1\n      revert\n    tag_175:\n        /* \"@openzeppelin/contracts/security/ReentrancyGuard.sol\":1759:1760  2 */\n      0x02\n        /* \"@openzeppelin/contracts/security/ReentrancyGuard.sol\":2598:2605  _status */\n      0x00\n        /* \"@openzeppelin/contracts/security/ReentrancyGuard.sol\":2598:2616  _status = _ENTERED */\n      dup2\n      swap1\n      sstore\n      pop\n        /* \"@openzeppelin/contracts/security/ReentrancyGuard.sol\":2336:2623  function _nonReentrantBefore() private {... */\n      jump\t// out\n        /* \"@openzeppelin/contracts/security/ReentrancyGuard.sol\":2629:2838  function _nonReentrantAfter() private {... */\n    tag_117:\n        /* \"@openzeppelin/contracts/security/ReentrancyGuard.sol\":1716:1717  1 */\n      0x01\n        /* \"@openzeppelin/contracts/security/ReentrancyGuard.sol\":2809:2816  _status */\n      0x00\n        /* \"@openzeppelin/contracts/security/ReentrancyGuard.sol\":2809:2831  _status = _NOT_ENTERED */\n      dup2\n      swap1\n      sstore\n      pop\n        /* \"@openzeppelin/contracts/security/ReentrancyGuard.sol\":2629:2838  function _nonReentrantAfter() private {... */\n      jump\t// out\n        /* \"@openzeppelin/contracts/utils/Context.sol\":656:752  function _msgSender() internal view virtual returns (address) {... */\n    tag_120:\n        /* \"@openzeppelin/contracts/utils/Context.sol\":709:716  address */\n      0x00\n        /* \"@openzeppelin/contracts/utils/Context.sol\":735:745  msg.sender */\n      caller\n        /* \"@openzeppelin/contracts/utils/Context.sol\":728:745  return msg.sender */\n      swap1\n      pop\n        /* \"@openzeppelin/contracts/utils/Context.sol\":656:752  function _msgSender() internal view virtual returns (address) {... */\n      swap1\n      jump\t// out\n        /* \"@openzeppelin/contracts/access/AccessControl.sol\":6730:7047  function _revokeRole(bytes32 role, address account) internal virtual returns (bool) {... */\n    tag_123:\n        /* \"@openzeppelin/contracts/access/AccessControl.sol\":6808:6812  bool */\n      0x00\n        /* \"@openzeppelin/contracts/access/AccessControl.sol\":6828:6850  hasRole(role, account) */\n      tag_181\n        /* \"@openzeppelin/contracts/access/AccessControl.sol\":6836:6840  role */\n      dup4\n        /* \"@openzeppelin/contracts/access/AccessControl.sol\":6842:6849  account */\n      dup4\n        /* \"@openzeppelin/contracts/access/AccessControl.sol\":6828:6835  hasRole */\n      tag_66\n        /* \"@openzeppelin/contracts/access/AccessControl.sol\":6828:6850  hasRole(role, account) */\n      jump\t// in\n    tag_181:\n        /* \"@openzeppelin/contracts/access/AccessControl.sol\":6824:7041  if (hasRole(role, account)) {... */\n      iszero\n      tag_182\n      jumpi\n        /* \"@openzeppelin/contracts/access/AccessControl.sol\":6898:6903  false */\n      0x00\n        /* \"@openzeppelin/contracts/access/AccessControl.sol\":6866:6872  _roles */\n      0x01\n        /* \"@openzeppelin/contracts/access/AccessControl.sol\":6866:6878  _roles[role] */\n      0x00\n        /* \"@openzeppelin/contracts/access/AccessControl.sol\":6873:6877  role */\n      dup6\n        /* \"@openzeppelin/contracts/access/AccessControl.sol\":6866:6878  _roles[role] */\n      dup2\n      mstore\n      0x20\n      add\n      swap1\n      dup2\n      mstore\n      0x20\n      add\n      0x00\n      keccak256\n        /* \"@openzeppelin/contracts/access/AccessControl.sol\":6866:6886  _roles[role].hasRole */\n      0x00\n      add\n        /* \"@openzeppelin/contracts/access/AccessControl.sol\":6866:6895  _roles[role].hasRole[account] */\n      0x00\n        /* \"@openzeppelin/contracts/access/AccessControl.sol\":6887:6894  account */\n      dup5\n        /* \"@openzeppelin/contracts/access/AccessControl.sol\":6866:6895  _roles[role].hasRole[account] */\n      0xffffffffffffffffffffffffffffffffffffffff\n      and\n      0xffffffffffffffffffffffffffffffffffffffff\n      and\n      dup2\n      mstore\n      0x20\n      add\n      swap1\n      dup2\n      mstore\n      0x20\n      add\n      0x00\n      keccak256\n      0x00\n        /* \"@openzeppelin/contracts/access/AccessControl.sol\":6866:6903  _roles[role].hasRole[account] = false */\n      0x0100\n      exp\n      dup2\n      sload\n      dup2\n      0xff\n      mul\n      not\n      and\n      swap1\n      dup4\n      iszero\n      iszero\n      mul\n      or\n      swap1\n      sstore\n      pop\n        /* \"@openzeppelin/contracts/access/AccessControl.sol\":6949:6961  _msgSender() */\n      tag_183\n        /* \"@openzeppelin/contracts/access/AccessControl.sol\":6949:6959  _msgSender */\n      tag_120\n        /* \"@openzeppelin/contracts/access/AccessControl.sol\":6949:6961  _msgSender() */\n      jump\t// in\n    tag_183:\n        /* \"@openzeppelin/contracts/access/AccessControl.sol\":6922:6962  RoleRevoked(role, account, _msgSender()) */\n      0xffffffffffffffffffffffffffffffffffffffff\n      and\n        /* \"@openzeppelin/contracts/access/AccessControl.sol\":6940:6947  account */\n      dup3\n        /* \"@openzeppelin/contracts/access/AccessControl.sol\":6922:6962  RoleRevoked(role, account, _msgSender()) */\n      0xffffffffffffffffffffffffffffffffffffffff\n      and\n        /* \"@openzeppelin/contracts/access/AccessControl.sol\":6934:6938  role */\n      dup5\n        /* \"@openzeppelin/contracts/access/AccessControl.sol\":6922:6962  RoleRevoked(role, account, _msgSender()) */\n      0xf6391f5c32d9c69d2a47ea670b442974b53935d1edc7fd64eb21e047a839171b\n      mload(0x40)\n      mload(0x40)\n      dup1\n      swap2\n      sub\n      swap1\n      log4\n        /* \"@openzeppelin/contracts/access/AccessControl.sol\":6983:6987  true */\n      0x01\n        /* \"@openzeppelin/contracts/access/AccessControl.sol\":6976:6987  return true */\n      swap1\n      pop\n      jump(tag_180)\n        /* \"@openzeppelin/contracts/access/AccessControl.sol\":6824:7041  if (hasRole(role, account)) {... */\n    tag_182:\n        /* \"@openzeppelin/contracts/access/AccessControl.sol\":7025:7030  false */\n      0x00\n        /* \"@openzeppelin/contracts/access/AccessControl.sol\":7018:7030  return false */\n      swap1\n      pop\n        /* \"@openzeppelin/contracts/access/AccessControl.sol\":6730:7047  function _revokeRole(bytes32 role, address account) internal virtual returns (bool) {... */\n    tag_180:\n      swap3\n      swap2\n      pop\n      pop\n      jump\t// out\n        /* \"contracts/npc_marketplace/npc_marketplace_core.sol\":2735:3371  function _fulfilSale(uint256 listingId, address buyer, uint256 amount) internal nonReentrant {... */\n    tag_128:\n        /* \"@openzeppelin/contracts/security/ReentrancyGuard.sol\":2261:2282  _nonReentrantBefore() */\n      tag_186\n        /* \"@openzeppelin/contracts/security/ReentrancyGuard.sol\":2261:2280  _nonReentrantBefore */\n      tag_106\n        /* \"@openzeppelin/contracts/security/ReentrancyGuard.sol\":2261:2282  _nonReentrantBefore() */\n      jump\t// in\n    tag_186:\n        /* \"contracts/npc_marketplace/npc_marketplace_core.sol\":2839:2861  Listing memory listing */\n      0x00\n        /* \"contracts/npc_marketplace/npc_marketplace_core.sol\":2864:2872  listings */\n      0x03\n        /* \"contracts/npc_marketplace/npc_marketplace_core.sol\":2864:2883  listings[listingId] */\n      0x00\n        /* \"contracts/npc_marketplace/npc_marketplace_core.sol\":2873:2882  listingId */\n      dup6\n        /* \"contracts/npc_marketplace/npc_marketplace_core.sol\":2864:2883  listings[listingId] */\n      dup2\n      mstore\n      0x20\n      add\n      swap1\n      dup2\n      mstore\n      0x20\n      add\n      0x00\n      keccak256\n        /* \"contracts/npc_marketplace/npc_marketplace_core.sol\":2839:2883  Listing memory listing = listings[listingId] */\n      mload(0x40)\n      dup1\n      0x80\n      add\n      0x40\n      mstore\n      swap1\n      dup2\n      0x00\n      dup3\n      add\n      0x00\n      swap1\n      sload\n      swap1\n      0x0100\n      exp\n      swap1\n      div\n      0xffffffffffffffffffffffffffffffffffffffff\n      and\n      0xffffffffffffffffffffffffffffffffffffffff\n      and\n      0xffffffffffffffffffffffffffffffffffffffff\n      and\n      dup2\n      mstore\n      0x20\n      add\n      0x01\n      dup3\n      add\n      0x00\n      swap1\n      sload\n      swap1\n      0x0100\n      exp\n      swap1\n      div\n      0xffffffffffffffffffffffffffffffffffffffff\n      and\n      0xffffffffffffffffffffffffffffffffffffffff\n      and\n      0xffffffffffffffffffffffffffffffffffffffff\n      and\n      dup2\n      mstore\n      0x20\n      add\n      0x02\n      dup3\n      add\n      sload\n      dup2\n      mstore\n      0x20\n      add\n      0x03\n      dup3\n      add\n      sload\n      dup2\n      mstore\n      pop\n      pop\n      swap1\n      pop\n        /* \"contracts/npc_marketplace/npc_marketplace_core.sol\":2918:2919  0 */\n      0x00\n        /* \"contracts/npc_marketplace/npc_marketplace_core.sol\":2902:2909  listing */\n      dup2\n        /* \"contracts/npc_marketplace/npc_marketplace_core.sol\":2902:2915  listing.price */\n      0x60\n      add\n      mload\n        /* \"contracts/npc_marketplace/npc_marketplace_core.sol\":2902:2919  listing.price > 0 */\n      gt\n        /* \"contracts/npc_marketplace/npc_marketplace_core.sol\":2894:2942  require(listing.price > 0, \"Listing not active\") */\n      tag_188\n      jumpi\n      mload(0x40)\n      0x08c379a000000000000000000000000000000000000000000000000000000000\n      dup2\n      mstore\n      0x04\n      add\n      tag_189\n      swap1\n      tag_190\n      jump\t// in\n    tag_189:\n      mload(0x40)\n      dup1\n      swap2\n      sub\n      swap1\n      revert\n    tag_188:\n        /* \"contracts/npc_marketplace/npc_marketplace_core.sol\":2970:2977  listing */\n      dup1\n        /* \"contracts/npc_marketplace/npc_marketplace_core.sol\":2970:2984  listing.seller */\n      0x00\n      add\n      mload\n        /* \"contracts/npc_marketplace/npc_marketplace_core.sol\":2961:2984  buyer == listing.seller */\n      0xffffffffffffffffffffffffffffffffffffffff\n      and\n        /* \"contracts/npc_marketplace/npc_marketplace_core.sol\":2961:2966  buyer */\n      dup4\n        /* \"contracts/npc_marketplace/npc_marketplace_core.sol\":2961:2984  buyer == listing.seller */\n      0xffffffffffffffffffffffffffffffffffffffff\n      and\n      eq\n        /* \"contracts/npc_marketplace/npc_marketplace_core.sol\":2953:3012  require(buyer == listing.seller, \"Cannot sell to yourself\") */\n      tag_191\n      jumpi\n      mload(0x40)\n      0x08c379a000000000000000000000000000000000000000000000000000000000\n      dup2\n      mstore\n      0x04\n      add\n      tag_192\n      swap1\n      tag_193\n      jump\t// in\n    tag_192:\n      mload(0x40)\n      dup1\n      swap2\n      sub\n      swap1\n      revert\n    tag_191:\n        /* \"contracts/npc_marketplace/npc_marketplace_core.sol\":3041:3048  listing */\n      dup1\n        /* \"contracts/npc_marketplace/npc_marketplace_core.sol\":3041:3054  listing.price */\n      0x60\n      add\n      mload\n        /* \"contracts/npc_marketplace/npc_marketplace_core.sol\":3031:3037  amount */\n      dup3\n        /* \"contracts/npc_marketplace/npc_marketplace_core.sol\":3031:3054  amount == listing.price */\n      eq\n        /* \"contracts/npc_marketplace/npc_marketplace_core.sol\":3023:3075  require(amount == listing.price, \"Incorrect amount\") */\n      tag_194\n      jumpi\n      mload(0x40)\n      0x08c379a000000000000000000000000000000000000000000000000000000000\n      dup2\n      mstore\n      0x04\n      add\n      tag_195\n      swap1\n      tag_196\n      jump\t// in\n    tag_195:\n      mload(0x40)\n      dup1\n      swap2\n      sub\n      swap1\n      revert\n    tag_194:\n        /* \"contracts/npc_marketplace/npc_marketplace_core.sol\":3095:3103  listings */\n      0x03\n        /* \"contracts/npc_marketplace/npc_marketplace_core.sol\":3095:3114  listings[listingId] */\n      0x00\n        /* \"contracts/npc_marketplace/npc_marketplace_core.sol\":3104:3113  listingId */\n      dup6\n        /* \"contracts/npc_marketplace/npc_marketplace_core.sol\":3095:3114  listings[listingId] */\n      dup2\n      mstore\n      0x20\n      add\n      swap1\n      dup2\n      mstore\n      0x20\n      add\n      0x00\n      keccak256\n      0x00\n        /* \"contracts/npc_marketplace/npc_marketplace_core.sol\":3088:3114  delete listings[listingId] */\n      dup1\n      dup3\n      add\n      exp(0x0100, 0x00)\n      dup2\n      sload\n      swap1\n      0xffffffffffffffffffffffffffffffffffffffff\n      mul\n      not\n      and\n      swap1\n      sstore\n      0x01\n      dup3\n      add\n      exp(0x0100, 0x00)\n      dup2\n      sload\n      swap1\n      0xffffffffffffffffffffffffffffffffffffffff\n      mul\n      not\n      and\n      swap1\n      sstore\n      0x02\n      dup3\n      add\n      0x00\n      swap1\n      sstore\n      0x03\n      dup3\n      add\n      0x00\n      swap1\n      sstore\n      pop\n      pop\n        /* \"contracts/npc_marketplace/npc_marketplace_core.sol\":3133:3140  listing */\n      dup1\n        /* \"contracts/npc_marketplace/npc_marketplace_core.sol\":3133:3153  listing.tokenAddress */\n      0x20\n      add\n      mload\n        /* \"contracts/npc_marketplace/npc_marketplace_core.sol\":3125:3167  IERC721(listing.tokenAddress).transferFrom */\n      0xffffffffffffffffffffffffffffffffffffffff\n      and\n      0x23b872dd\n        /* \"contracts/npc_marketplace/npc_marketplace_core.sol\":3176:3180  this */\n      address\n        /* \"contracts/npc_marketplace/npc_marketplace_core.sol\":3183:3188  buyer */\n      dup6\n        /* \"contracts/npc_marketplace/npc_marketplace_core.sol\":3190:3197  listing */\n      dup5\n        /* \"contracts/npc_marketplace/npc_marketplace_core.sol\":3190:3205  listing.tokenId */\n      0x40\n      add\n      mload\n        /* \"contracts/npc_marketplace/npc_marketplace_core.sol\":3125:3206  IERC721(listing.tokenAddress).transferFrom(address(this), buyer, listing.tokenId) */\n      mload(0x40)\n      dup5\n      0xffffffff\n      and\n      0xe0\n      shl\n      dup2\n      mstore\n      0x04\n      add\n      tag_197\n      swap4\n      swap3\n      swap2\n      swap1\n      tag_112\n      jump\t// in\n    tag_197:\n      0x00\n      mload(0x40)\n      dup1\n      dup4\n      sub\n      dup2\n      0x00\n      dup8\n      dup1\n      extcodesize\n      iszero\n      dup1\n      iszero\n      tag_198\n      jumpi\n      0x00\n      dup1\n      revert\n    tag_198:\n      pop\n      gas\n      call\n      iszero\n      dup1\n      iszero\n      tag_200\n      jumpi\n      returndatasize\n      0x00\n      dup1\n      returndatacopy\n      revert(0x00, returndatasize)\n    tag_200:\n      pop\n      pop\n      pop\n      pop\n        /* \"contracts/npc_marketplace/npc_marketplace_core.sol\":3225:3232  listing */\n      dup1\n        /* \"contracts/npc_marketplace/npc_marketplace_core.sol\":3225:3239  listing.seller */\n      0x00\n      add\n      mload\n        /* \"contracts/npc_marketplace/npc_marketplace_core.sol\":3217:3249  payable(listing.seller).transfer */\n      0xffffffffffffffffffffffffffffffffffffffff\n      and\n        /* \"contracts/npc_marketplace/npc_marketplace_core.sol\":3217:3264  payable(listing.seller).transfer(listing.price) */\n      0x08fc\n        /* \"contracts/npc_marketplace/npc_marketplace_core.sol\":3250:3257  listing */\n      dup3\n        /* \"contracts/npc_marketplace/npc_marketplace_core.sol\":3250:3263  listing.price */\n      0x60\n      add\n      mload\n        /* \"contracts/npc_marketplace/npc_marketplace_core.sol\":3217:3264  payable(listing.seller).transfer(listing.price) */\n      swap1\n      dup2\n      iszero\n      mul\n      swap1\n      mload(0x40)\n      0x00\n      mload(0x40)\n      dup1\n      dup4\n      sub\n      dup2\n      dup6\n      dup9\n      dup9\n      call\n      swap4\n      pop\n      pop\n      pop\n      pop\n      iszero\n      dup1\n      iszero\n      tag_202\n      jumpi\n      returndatasize\n      0x00\n      dup1\n      returndatacopy\n      revert(0x00, returndatasize)\n    tag_202:\n      pop\n        /* \"contracts/npc_marketplace/npc_marketplace_core.sol\":3310:3317  listing */\n      dup1\n        /* \"contracts/npc_marketplace/npc_marketplace_core.sol\":3310:3330  listing.tokenAddress */\n      0x20\n      add\n      mload\n        /* \"contracts/npc_marketplace/npc_marketplace_core.sol\":3282:3363  Sale(listingId, msg.sender, listing.tokenAddress, listing.tokenId, listing.price) */\n      0xffffffffffffffffffffffffffffffffffffffff\n      and\n        /* \"contracts/npc_marketplace/npc_marketplace_core.sol\":3298:3308  msg.sender */\n      caller\n        /* \"contracts/npc_marketplace/npc_marketplace_core.sol\":3282:3363  Sale(listingId, msg.sender, listing.tokenAddress, listing.tokenId, listing.price) */\n      0xffffffffffffffffffffffffffffffffffffffff\n      and\n        /* \"contracts/npc_marketplace/npc_marketplace_core.sol\":3287:3296  listingId */\n      dup6\n        /* \"contracts/npc_marketplace/npc_marketplace_core.sol\":3282:3363  Sale(listingId, msg.sender, listing.tokenAddress, listing.tokenId, listing.price) */\n      0xf3debaf22196a6ddf52a60fa71058cd7edf5e25bb98f4e96c994a5d4a9b0dd3e\n        /* \"contracts/npc_marketplace/npc_marketplace_core.sol\":3332:3339  listing */\n      dup5\n        /* \"contracts/npc_marketplace/npc_marketplace_core.sol\":3332:3347  listing.tokenId */\n      0x40\n      add\n      mload\n        /* \"contracts/npc_marketplace/npc_marketplace_core.sol\":3349:3356  listing */\n      dup6\n        /* \"contracts/npc_marketplace/npc_marketplace_core.sol\":3349:3362  listing.price */\n      0x60\n      add\n      mload\n        /* \"contracts/npc_marketplace/npc_marketplace_core.sol\":3282:3363  Sale(listingId, msg.sender, listing.tokenAddress, listing.tokenId, listing.price) */\n      mload(0x40)\n      tag_203\n      swap3\n      swap2\n      swap1\n      tag_157\n      jump\t// in\n    tag_203:\n      mload(0x40)\n      dup1\n      swap2\n      sub\n      swap1\n      log4\n        /* \"contracts/npc_marketplace/npc_marketplace_core.sol\":2828:3371  {... */\n      pop\n        /* \"@openzeppelin/contracts/security/ReentrancyGuard.sol\":2303:2323  _nonReentrantAfter() */\n      tag_204\n        /* \"@openzeppelin/contracts/security/ReentrancyGuard.sol\":2303:2321  _nonReentrantAfter */\n      tag_117\n        /* \"@openzeppelin/contracts/security/ReentrancyGuard.sol\":2303:2323  _nonReentrantAfter() */\n      jump\t// in\n    tag_204:\n        /* \"contracts/npc_marketplace/npc_marketplace_core.sol\":2735:3371  function _fulfilSale(uint256 listingId, address buyer, uint256 amount) internal nonReentrant {... */\n      pop\n      pop\n      pop\n      jump\t// out\n        /* \"@openzeppelin/contracts/utils/Counters.sol\":945:1068  function increment(Counter storage counter) internal {... */\n    tag_153:\n        /* \"@openzeppelin/contracts/utils/Counters.sol\":1050:1051  1 */\n      0x01\n        /* \"@openzeppelin/contracts/utils/Counters.sol\":1032:1039  counter */\n      dup2\n        /* \"@openzeppelin/contracts/utils/Counters.sol\":1032:1046  counter._value */\n      0x00\n      add\n      0x00\n        /* \"@openzeppelin/contracts/utils/Counters.sol\":1032:1051  counter._value += 1 */\n      dup3\n      dup3\n      sload\n      add\n      swap3\n      pop\n      pop\n      dup2\n      swap1\n      sstore\n      pop\n        /* \"@openzeppelin/contracts/utils/Counters.sol\":945:1068  function increment(Counter storage counter) internal {... */\n      pop\n      jump\t// out\n        /* \"@openzeppelin/contracts/utils/Counters.sol\":827:939  function current(Counter storage counter) internal view returns (uint256) {... */\n    tag_155:\n        /* \"@openzeppelin/contracts/utils/Counters.sol\":892:899  uint256 */\n      0x00\n        /* \"@openzeppelin/contracts/utils/Counters.sol\":918:925  counter */\n      dup2\n        /* \"@openzeppelin/contracts/utils/Counters.sol\":918:932  counter._value */\n      0x00\n      add\n      sload\n        /* \"@openzeppelin/contracts/utils/Counters.sol\":911:932  return counter._value */\n      swap1\n      pop\n        /* \"@openzeppelin/contracts/utils/Counters.sol\":827:939  function current(Counter storage counter) internal view returns (uint256) {... */\n      swap2\n      swap1\n      pop\n      jump\t// out\n        /* \"@openzeppelin/contracts/access/AccessControl.sol\":3432:3629  function _checkRole(bytes32 role, address account) internal view virtual {... */\n    tag_168:\n        /* \"@openzeppelin/contracts/access/AccessControl.sol\":3520:3542  hasRole(role, account) */\n      tag_208\n        /* \"@openzeppelin/contracts/access/AccessControl.sol\":3528:3532  role */\n      dup3\n        /* \"@openzeppelin/contracts/access/AccessControl.sol\":3534:3541  account */\n      dup3\n        /* \"@openzeppelin/contracts/access/AccessControl.sol\":3520:3527  hasRole */\n      tag_66\n        /* \"@openzeppelin/contracts/access/AccessControl.sol\":3520:3542  hasRole(role, account) */\n      jump\t// in\n    tag_208:\n        /* \"@openzeppelin/contracts/access/AccessControl.sol\":3515:3623  if (!hasRole(role, account)) {... */\n      tag_209\n      jumpi\n        /* \"@openzeppelin/contracts/access/AccessControl.sol\":3598:3605  account */\n      dup1\n        /* \"@openzeppelin/contracts/access/AccessControl.sol\":3607:3611  role */\n      dup3\n        /* \"@openzeppelin/contracts/access/AccessControl.sol\":3565:3612  AccessControlUnauthorizedAccount(account, role) */\n      mload(0x40)\n      0xe2517d3f00000000000000000000000000000000000000000000000000000000\n      dup2\n      mstore\n      0x04\n      add\n      tag_210\n      swap3\n      swap2\n      swap1\n      tag_211\n      jump\t// in\n    tag_210:\n      mload(0x40)\n      dup1\n      swap2\n      sub\n      swap1\n      revert\n        /* \"@openzeppelin/contracts/access/AccessControl.sol\":3515:3623  if (!hasRole(role, account)) {... */\n    tag_209:\n        /* \"@openzeppelin/contracts/access/AccessControl.sol\":3432:3629  function _checkRole(bytes32 role, address account) internal view virtual {... */\n      pop\n      pop\n      jump\t// out\n        /* \"#utility.yul\":88:205   */\n    tag_213:\n        /* \"#utility.yul\":197:198   */\n      0x00\n        /* \"#utility.yul\":194:195   */\n      dup1\n        /* \"#utility.yul\":187:199   */\n      revert\n        /* \"#utility.yul\":334:483   */\n    tag_215:\n        /* \"#utility.yul\":370:377   */\n      0x00\n        /* \"#utility.yul\":410:476   */\n      0xffffffff00000000000000000000000000000000000000000000000000000000\n        /* \"#utility.yul\":403:408   */\n      dup3\n        /* \"#utility.yul\":399:477   */\n      and\n        /* \"#utility.yul\":388:477   */\n      swap1\n      pop\n        /* \"#utility.yul\":334:483   */\n      swap2\n      swap1\n      pop\n      jump\t// out\n        /* \"#utility.yul\":489:609   */\n    tag_216:\n        /* \"#utility.yul\":561:584   */\n      tag_259\n        /* \"#utility.yul\":578:583   */\n      dup2\n        /* \"#utility.yul\":561:584   */\n      tag_215\n      jump\t// in\n    tag_259:\n        /* \"#utility.yul\":554:559   */\n      dup2\n        /* \"#utility.yul\":551:585   */\n      eq\n        /* \"#utility.yul\":541:603   */\n      tag_260\n      jumpi\n        /* \"#utility.yul\":599:600   */\n      0x00\n        /* \"#utility.yul\":596:597   */\n      dup1\n        /* \"#utility.yul\":589:601   */\n      revert\n        /* \"#utility.yul\":541:603   */\n    tag_260:\n        /* \"#utility.yul\":489:609   */\n      pop\n      jump\t// out\n        /* \"#utility.yul\":615:752   */\n    tag_217:\n        /* \"#utility.yul\":660:665   */\n      0x00\n        /* \"#utility.yul\":698:704   */\n      dup2\n        /* \"#utility.yul\":685:705   */\n      calldataload\n        /* \"#utility.yul\":676:705   */\n      swap1\n      pop\n        /* \"#utility.yul\":714:746   */\n      tag_262\n        /* \"#utility.yul\":740:745   */\n      dup2\n        /* \"#utility.yul\":714:746   */\n      tag_216\n      jump\t// in\n    tag_262:\n        /* \"#utility.yul\":615:752   */\n      swap3\n      swap2\n      pop\n      pop\n      jump\t// out\n        /* \"#utility.yul\":758:1085   */\n    tag_22:\n        /* \"#utility.yul\":816:822   */\n      0x00\n        /* \"#utility.yul\":865:867   */\n      0x20\n        /* \"#utility.yul\":853:862   */\n      dup3\n        /* \"#utility.yul\":844:851   */\n      dup5\n        /* \"#utility.yul\":840:863   */\n      sub\n        /* \"#utility.yul\":836:868   */\n      slt\n        /* \"#utility.yul\":833:952   */\n      iszero\n      tag_264\n      jumpi\n        /* \"#utility.yul\":871:950   */\n      tag_265\n      tag_213\n      jump\t// in\n    tag_265:\n        /* \"#utility.yul\":833:952   */\n    tag_264:\n        /* \"#utility.yul\":991:992   */\n      0x00\n        /* \"#utility.yul\":1016:1068   */\n      tag_266\n        /* \"#utility.yul\":1060:1067   */\n      dup5\n        /* \"#utility.yul\":1051:1057   */\n      dup3\n        /* \"#utility.yul\":1040:1049   */\n      dup6\n        /* \"#utility.yul\":1036:1058   */\n      add\n        /* \"#utility.yul\":1016:1068   */\n      tag_217\n      jump\t// in\n    tag_266:\n        /* \"#utility.yul\":1006:1068   */\n      swap2\n      pop\n        /* \"#utility.yul\":962:1078   */\n      pop\n        /* \"#utility.yul\":758:1085   */\n      swap3\n      swap2\n      pop\n      pop\n      jump\t// out\n        /* \"#utility.yul\":1091:1181   */\n    tag_218:\n        /* \"#utility.yul\":1125:1132   */\n      0x00\n        /* \"#utility.yul\":1168:1173   */\n      dup2\n        /* \"#utility.yul\":1161:1174   */\n      iszero\n        /* \"#utility.yul\":1154:1175   */\n      iszero\n        /* \"#utility.yul\":1143:1175   */\n      swap1\n      pop\n        /* \"#utility.yul\":1091:1181   */\n      swap2\n      swap1\n      pop\n      jump\t// out\n        /* \"#utility.yul\":1187:1296   */\n    tag_219:\n        /* \"#utility.yul\":1268:1289   */\n      tag_269\n        /* \"#utility.yul\":1283:1288   */\n      dup2\n        /* \"#utility.yul\":1268:1289   */\n      tag_218\n      jump\t// in\n    tag_269:\n        /* \"#utility.yul\":1263:1266   */\n      dup3\n        /* \"#utility.yul\":1256:1290   */\n      mstore\n        /* \"#utility.yul\":1187:1296   */\n      pop\n      pop\n      jump\t// out\n        /* \"#utility.yul\":1302:1512   */\n    tag_25:\n        /* \"#utility.yul\":1389:1393   */\n      0x00\n        /* \"#utility.yul\":1427:1429   */\n      0x20\n        /* \"#utility.yul\":1416:1425   */\n      dup3\n        /* \"#utility.yul\":1412:1430   */\n      add\n        /* \"#utility.yul\":1404:1430   */\n      swap1\n      pop\n        /* \"#utility.yul\":1440:1505   */\n      tag_271\n        /* \"#utility.yul\":1502:1503   */\n      0x00\n        /* \"#utility.yul\":1491:1500   */\n      dup4\n        /* \"#utility.yul\":1487:1504   */\n      add\n        /* \"#utility.yul\":1478:1484   */\n      dup5\n        /* \"#utility.yul\":1440:1505   */\n      tag_219\n      jump\t// in\n    tag_271:\n        /* \"#utility.yul\":1302:1512   */\n      swap3\n      swap2\n      pop\n      pop\n      jump\t// out\n        /* \"#utility.yul\":1518:1595   */\n    tag_220:\n        /* \"#utility.yul\":1555:1562   */\n      0x00\n        /* \"#utility.yul\":1584:1589   */\n      dup2\n        /* \"#utility.yul\":1573:1589   */\n      swap1\n      pop\n        /* \"#utility.yul\":1518:1595   */\n      swap2\n      swap1\n      pop\n      jump\t// out\n        /* \"#utility.yul\":1601:1723   */\n    tag_221:\n        /* \"#utility.yul\":1674:1698   */\n      tag_274\n        /* \"#utility.yul\":1692:1697   */\n      dup2\n        /* \"#utility.yul\":1674:1698   */\n      tag_220\n      jump\t// in\n    tag_274:\n        /* \"#utility.yul\":1667:1672   */\n      dup2\n        /* \"#utility.yul\":1664:1699   */\n      eq\n        /* \"#utility.yul\":1654:1717   */\n      tag_275\n      jumpi\n        /* \"#utility.yul\":1713:1714   */\n      0x00\n        /* \"#utility.yul\":1710:1711   */\n      dup1\n        /* \"#utility.yul\":1703:1715   */\n      revert\n        /* \"#utility.yul\":1654:1717   */\n    tag_275:\n        /* \"#utility.yul\":1601:1723   */\n      pop\n      jump\t// out\n        /* \"#utility.yul\":1729:1868   */\n    tag_222:\n        /* \"#utility.yul\":1775:1780   */\n      0x00\n        /* \"#utility.yul\":1813:1819   */\n      dup2\n        /* \"#utility.yul\":1800:1820   */\n      calldataload\n        /* \"#utility.yul\":1791:1820   */\n      swap1\n      pop\n        /* \"#utility.yul\":1829:1862   */\n      tag_277\n        /* \"#utility.yul\":1856:1861   */\n      dup2\n        /* \"#utility.yul\":1829:1862   */\n      tag_221\n      jump\t// in\n    tag_277:\n        /* \"#utility.yul\":1729:1868   */\n      swap3\n      swap2\n      pop\n      pop\n      jump\t// out\n        /* \"#utility.yul\":1874:2203   */\n    tag_29:\n        /* \"#utility.yul\":1933:1939   */\n      0x00\n        /* \"#utility.yul\":1982:1984   */\n      0x20\n        /* \"#utility.yul\":1970:1979   */\n      dup3\n        /* \"#utility.yul\":1961:1968   */\n      dup5\n        /* \"#utility.yul\":1957:1980   */\n      sub\n        /* \"#utility.yul\":1953:1985   */\n      slt\n        /* \"#utility.yul\":1950:2069   */\n      iszero\n      tag_279\n      jumpi\n        /* \"#utility.yul\":1988:2067   */\n      tag_280\n      tag_213\n      jump\t// in\n    tag_280:\n        /* \"#utility.yul\":1950:2069   */\n    tag_279:\n        /* \"#utility.yul\":2108:2109   */\n      0x00\n        /* \"#utility.yul\":2133:2186   */\n      tag_281\n        /* \"#utility.yul\":2178:2185   */\n      dup5\n        /* \"#utility.yul\":2169:2175   */\n      dup3\n        /* \"#utility.yul\":2158:2167   */\n      dup6\n        /* \"#utility.yul\":2154:2176   */\n      add\n        /* \"#utility.yul\":2133:2186   */\n      tag_222\n      jump\t// in\n    tag_281:\n        /* \"#utility.yul\":2123:2186   */\n      swap2\n      pop\n        /* \"#utility.yul\":2079:2196   */\n      pop\n        /* \"#utility.yul\":1874:2203   */\n      swap3\n      swap2\n      pop\n      pop\n      jump\t// out\n        /* \"#utility.yul\":2209:2286   */\n    tag_223:\n        /* \"#utility.yul\":2246:2253   */\n      0x00\n        /* \"#utility.yul\":2275:2280   */\n      dup2\n        /* \"#utility.yul\":2264:2280   */\n      swap1\n      pop\n        /* \"#utility.yul\":2209:2286   */\n      swap2\n      swap1\n      pop\n      jump\t// out\n        /* \"#utility.yul\":2292:2414   */\n    tag_224:\n        /* \"#utility.yul\":2365:2389   */\n      tag_284\n        /* \"#utility.yul\":2383:2388   */\n      dup2\n        /* \"#utility.yul\":2365:2389   */\n      tag_223\n      jump\t// in\n    tag_284:\n        /* \"#utility.yul\":2358:2363   */\n      dup2\n        /* \"#utility.yul\":2355:2390   */\n      eq\n        /* \"#utility.yul\":2345:2408   */\n      tag_285\n      jumpi\n        /* \"#utility.yul\":2404:2405   */\n      0x00\n        /* \"#utility.yul\":2401:2402   */\n      dup1\n        /* \"#utility.yul\":2394:2406   */\n      revert\n        /* \"#utility.yul\":2345:2408   */\n    tag_285:\n        /* \"#utility.yul\":2292:2414   */\n      pop\n      jump\t// out\n        /* \"#utility.yul\":2420:2559   */\n    tag_225:\n        /* \"#utility.yul\":2466:2471   */\n      0x00\n        /* \"#utility.yul\":2504:2510   */\n      dup2\n        /* \"#utility.yul\":2491:2511   */\n      calldataload\n        /* \"#utility.yul\":2482:2511   */\n      swap1\n      pop\n        /* \"#utility.yul\":2520:2553   */\n      tag_287\n        /* \"#utility.yul\":2547:2552   */\n      dup2\n        /* \"#utility.yul\":2520:2553   */\n      tag_224\n      jump\t// in\n    tag_287:\n        /* \"#utility.yul\":2420:2559   */\n      swap3\n      swap2\n      pop\n      pop\n      jump\t// out\n        /* \"#utility.yul\":2565:2894   */\n    tag_34:\n        /* \"#utility.yul\":2624:2630   */\n      0x00\n        /* \"#utility.yul\":2673:2675   */\n      0x20\n        /* \"#utility.yul\":2661:2670   */\n      dup3\n        /* \"#utility.yul\":2652:2659   */\n      dup5\n        /* \"#utility.yul\":2648:2671   */\n      sub\n        /* \"#utility.yul\":2644:2676   */\n      slt\n        /* \"#utility.yul\":2641:2760   */\n      iszero\n      tag_289\n      jumpi\n        /* \"#utility.yul\":2679:2758   */\n      tag_290\n      tag_213\n      jump\t// in\n    tag_290:\n        /* \"#utility.yul\":2641:2760   */\n    tag_289:\n        /* \"#utility.yul\":2799:2800   */\n      0x00\n        /* \"#utility.yul\":2824:2877   */\n      tag_291\n        /* \"#utility.yul\":2869:2876   */\n      dup5\n        /* \"#utility.yul\":2860:2866   */\n      dup3\n        /* \"#utility.yul\":2849:2858   */\n      dup6\n        /* \"#utility.yul\":2845:2867   */\n      add\n        /* \"#utility.yul\":2824:2877   */\n      tag_225\n      jump\t// in\n    tag_291:\n        /* \"#utility.yul\":2814:2877   */\n      swap2\n      pop\n        /* \"#utility.yul\":2770:2887   */\n      pop\n        /* \"#utility.yul\":2565:2894   */\n      swap3\n      swap2\n      pop\n      pop\n      jump\t// out\n        /* \"#utility.yul\":2900:3018   */\n    tag_226:\n        /* \"#utility.yul\":2987:3011   */\n      tag_293\n        /* \"#utility.yul\":3005:3010   */\n      dup2\n        /* \"#utility.yul\":2987:3011   */\n      tag_223\n      jump\t// in\n    tag_293:\n        /* \"#utility.yul\":2982:2985   */\n      dup3\n        /* \"#utility.yul\":2975:3012   */\n      mstore\n        /* \"#utility.yul\":2900:3018   */\n      pop\n      pop\n      jump\t// out\n        /* \"#utility.yul\":3024:3246   */\n    tag_37:\n        /* \"#utility.yul\":3117:3121   */\n      0x00\n        /* \"#utility.yul\":3155:3157   */\n      0x20\n        /* \"#utility.yul\":3144:3153   */\n      dup3\n        /* \"#utility.yul\":3140:3158   */\n      add\n        /* \"#utility.yul\":3132:3158   */\n      swap1\n      pop\n        /* \"#utility.yul\":3168:3239   */\n      tag_295\n        /* \"#utility.yul\":3236:3237   */\n      0x00\n        /* \"#utility.yul\":3225:3234   */\n      dup4\n        /* \"#utility.yul\":3221:3238   */\n      add\n        /* \"#utility.yul\":3212:3218   */\n      dup5\n        /* \"#utility.yul\":3168:3239   */\n      tag_226\n      jump\t// in\n    tag_295:\n        /* \"#utility.yul\":3024:3246   */\n      swap3\n      swap2\n      pop\n      pop\n      jump\t// out\n        /* \"#utility.yul\":3252:3378   */\n    tag_227:\n        /* \"#utility.yul\":3289:3296   */\n      0x00\n        /* \"#utility.yul\":3329:3371   */\n      0xffffffffffffffffffffffffffffffffffffffff\n        /* \"#utility.yul\":3322:3327   */\n      dup3\n        /* \"#utility.yul\":3318:3372   */\n      and\n        /* \"#utility.yul\":3307:3372   */\n      swap1\n      pop\n        /* \"#utility.yul\":3252:3378   */\n      swap2\n      swap1\n      pop\n      jump\t// out\n        /* \"#utility.yul\":3384:3480   */\n    tag_228:\n        /* \"#utility.yul\":3421:3428   */\n      0x00\n        /* \"#utility.yul\":3450:3474   */\n      tag_298\n        /* \"#utility.yul\":3468:3473   */\n      dup3\n        /* \"#utility.yul\":3450:3474   */\n      tag_227\n      jump\t// in\n    tag_298:\n        /* \"#utility.yul\":3439:3474   */\n      swap1\n      pop\n        /* \"#utility.yul\":3384:3480   */\n      swap2\n      swap1\n      pop\n      jump\t// out\n        /* \"#utility.yul\":3486:3608   */\n    tag_229:\n        /* \"#utility.yul\":3559:3583   */\n      tag_300\n        /* \"#utility.yul\":3577:3582   */\n      dup2\n        /* \"#utility.yul\":3559:3583   */\n      tag_228\n      jump\t// in\n    tag_300:\n        /* \"#utility.yul\":3552:3557   */\n      dup2\n        /* \"#utility.yul\":3549:3584   */\n      eq\n        /* \"#utility.yul\":3539:3602   */\n      tag_301\n      jumpi\n        /* \"#utility.yul\":3598:3599   */\n      0x00\n        /* \"#utility.yul\":3595:3596   */\n      dup1\n        /* \"#utility.yul\":3588:3600   */\n      revert\n        /* \"#utility.yul\":3539:3602   */\n    tag_301:\n        /* \"#utility.yul\":3486:3608   */\n      pop\n      jump\t// out\n        /* \"#utility.yul\":3614:3753   */\n    tag_230:\n        /* \"#utility.yul\":3660:3665   */\n      0x00\n        /* \"#utility.yul\":3698:3704   */\n      dup2\n        /* \"#utility.yul\":3685:3705   */\n      calldataload\n        /* \"#utility.yul\":3676:3705   */\n      swap1\n      pop\n        /* \"#utility.yul\":3714:3747   */\n      tag_303\n        /* \"#utility.yul\":3741:3746   */\n      dup2\n        /* \"#utility.yul\":3714:3747   */\n      tag_229\n      jump\t// in\n    tag_303:\n        /* \"#utility.yul\":3614:3753   */\n      swap3\n      swap2\n      pop\n      pop\n      jump\t// out\n        /* \"#utility.yul\":3759:4233   */\n    tag_41:\n        /* \"#utility.yul\":3827:3833   */\n      0x00\n        /* \"#utility.yul\":3835:3841   */\n      dup1\n        /* \"#utility.yul\":3884:3886   */\n      0x40\n        /* \"#utility.yul\":3872:3881   */\n      dup4\n        /* \"#utility.yul\":3863:3870   */\n      dup6\n        /* \"#utility.yul\":3859:3882   */\n      sub\n        /* \"#utility.yul\":3855:3887   */\n      slt\n        /* \"#utility.yul\":3852:3971   */\n      iszero\n      tag_305\n      jumpi\n        /* \"#utility.yul\":3890:3969   */\n      tag_306\n      tag_213\n      jump\t// in\n    tag_306:\n        /* \"#utility.yul\":3852:3971   */\n    tag_305:\n        /* \"#utility.yul\":4010:4011   */\n      0x00\n        /* \"#utility.yul\":4035:4088   */\n      tag_307\n        /* \"#utility.yul\":4080:4087   */\n      dup6\n        /* \"#utility.yul\":4071:4077   */\n      dup3\n        /* \"#utility.yul\":4060:4069   */\n      dup7\n        /* \"#utility.yul\":4056:4078   */\n      add\n        /* \"#utility.yul\":4035:4088   */\n      tag_225\n      jump\t// in\n    tag_307:\n        /* \"#utility.yul\":4025:4088   */\n      swap3\n      pop\n        /* \"#utility.yul\":3981:4098   */\n      pop\n        /* \"#utility.yul\":4137:4139   */\n      0x20\n        /* \"#utility.yul\":4163:4216   */\n      tag_308\n        /* \"#utility.yul\":4208:4215   */\n      dup6\n        /* \"#utility.yul\":4199:4205   */\n      dup3\n        /* \"#utility.yul\":4188:4197   */\n      dup7\n        /* \"#utility.yul\":4184:4206   */\n      add\n        /* \"#utility.yul\":4163:4216   */\n      tag_230\n      jump\t// in\n    tag_308:\n        /* \"#utility.yul\":4153:4216   */\n      swap2\n      pop\n        /* \"#utility.yul\":4108:4226   */\n      pop\n        /* \"#utility.yul\":3759:4233   */\n      swap3\n      pop\n      swap3\n      swap1\n      pop\n      jump\t// out\n        /* \"#utility.yul\":4239:4357   */\n    tag_231:\n        /* \"#utility.yul\":4326:4350   */\n      tag_310\n        /* \"#utility.yul\":4344:4349   */\n      dup2\n        /* \"#utility.yul\":4326:4350   */\n      tag_220\n      jump\t// in\n    tag_310:\n        /* \"#utility.yul\":4321:4324   */\n      dup3\n        /* \"#utility.yul\":4314:4351   */\n      mstore\n        /* \"#utility.yul\":4239:4357   */\n      pop\n      pop\n      jump\t// out\n        /* \"#utility.yul\":4363:4585   */\n    tag_58:\n        /* \"#utility.yul\":4456:4460   */\n      0x00\n        /* \"#utility.yul\":4494:4496   */\n      0x20\n        /* \"#utility.yul\":4483:4492   */\n      dup3\n        /* \"#utility.yul\":4479:4497   */\n      add\n        /* \"#utility.yul\":4471:4497   */\n      swap1\n      pop\n        /* \"#utility.yul\":4507:4578   */\n      tag_312\n        /* \"#utility.yul\":4575:4576   */\n      0x00\n        /* \"#utility.yul\":4564:4573   */\n      dup4\n        /* \"#utility.yul\":4560:4577   */\n      add\n        /* \"#utility.yul\":4551:4557   */\n      dup5\n        /* \"#utility.yul\":4507:4578   */\n      tag_231\n      jump\t// in\n    tag_312:\n        /* \"#utility.yul\":4363:4585   */\n      swap3\n      swap2\n      pop\n      pop\n      jump\t// out\n        /* \"#utility.yul\":4591:5210   */\n    tag_74:\n        /* \"#utility.yul\":4668:4674   */\n      0x00\n        /* \"#utility.yul\":4676:4682   */\n      dup1\n        /* \"#utility.yul\":4684:4690   */\n      0x00\n        /* \"#utility.yul\":4733:4735   */\n      0x60\n        /* \"#utility.yul\":4721:4730   */\n      dup5\n        /* \"#utility.yul\":4712:4719   */\n      dup7\n        /* \"#utility.yul\":4708:4731   */\n      sub\n        /* \"#utility.yul\":4704:4736   */\n      slt\n        /* \"#utility.yul\":4701:4820   */\n      iszero\n      tag_314\n      jumpi\n        /* \"#utility.yul\":4739:4818   */\n      tag_315\n      tag_213\n      jump\t// in\n    tag_315:\n        /* \"#utility.yul\":4701:4820   */\n    tag_314:\n        /* \"#utility.yul\":4859:4860   */\n      0x00\n        /* \"#utility.yul\":4884:4937   */\n      tag_316\n        /* \"#utility.yul\":4929:4936   */\n      dup7\n        /* \"#utility.yul\":4920:4926   */\n      dup3\n        /* \"#utility.yul\":4909:4918   */\n      dup8\n        /* \"#utility.yul\":4905:4927   */\n      add\n        /* \"#utility.yul\":4884:4937   */\n      tag_230\n      jump\t// in\n    tag_316:\n        /* \"#utility.yul\":4874:4937   */\n      swap4\n      pop\n        /* \"#utility.yul\":4830:4947   */\n      pop\n        /* \"#utility.yul\":4986:4988   */\n      0x20\n        /* \"#utility.yul\":5012:5065   */\n      tag_317\n        /* \"#utility.yul\":5057:5064   */\n      dup7\n        /* \"#utility.yul\":5048:5054   */\n      dup3\n        /* \"#utility.yul\":5037:5046   */\n      dup8\n        /* \"#utility.yul\":5033:5055   */\n      add\n        /* \"#utility.yul\":5012:5065   */\n      tag_222\n      jump\t// in\n    tag_317:\n        /* \"#utility.yul\":5002:5065   */\n      swap3\n      pop\n        /* \"#utility.yul\":4957:5075   */\n      pop\n        /* \"#utility.yul\":5114:5116   */\n      0x40\n        /* \"#utility.yul\":5140:5193   */\n      tag_318\n        /* \"#utility.yul\":5185:5192   */\n      dup7\n        /* \"#utility.yul\":5176:5182   */\n      dup3\n        /* \"#utility.yul\":5165:5174   */\n      dup8\n        /* \"#utility.yul\":5161:5183   */\n      add\n        /* \"#utility.yul\":5140:5193   */\n      tag_222\n      jump\t// in\n    tag_318:\n        /* \"#utility.yul\":5130:5193   */\n      swap2\n      pop\n        /* \"#utility.yul\":5085:5203   */\n      pop\n        /* \"#utility.yul\":4591:5210   */\n      swap3\n      pop\n      swap3\n      pop\n      swap3\n      jump\t// out\n        /* \"#utility.yul\":5216:5334   */\n    tag_232:\n        /* \"#utility.yul\":5303:5327   */\n      tag_320\n        /* \"#utility.yul\":5321:5326   */\n      dup2\n        /* \"#utility.yul\":5303:5327   */\n      tag_228\n      jump\t// in\n    tag_320:\n        /* \"#utility.yul\":5298:5301   */\n      dup3\n        /* \"#utility.yul\":5291:5328   */\n      mstore\n        /* \"#utility.yul\":5216:5334   */\n      pop\n      pop\n      jump\t// out\n        /* \"#utility.yul\":5340:5893   */\n    tag_85:\n        /* \"#utility.yul\":5517:5521   */\n      0x00\n        /* \"#utility.yul\":5555:5558   */\n      0x80\n        /* \"#utility.yul\":5544:5553   */\n      dup3\n        /* \"#utility.yul\":5540:5559   */\n      add\n        /* \"#utility.yul\":5532:5559   */\n      swap1\n      pop\n        /* \"#utility.yul\":5569:5640   */\n      tag_322\n        /* \"#utility.yul\":5637:5638   */\n      0x00\n        /* \"#utility.yul\":5626:5635   */\n      dup4\n        /* \"#utility.yul\":5622:5639   */\n      add\n        /* \"#utility.yul\":5613:5619   */\n      dup8\n        /* \"#utility.yul\":5569:5640   */\n      tag_232\n      jump\t// in\n    tag_322:\n        /* \"#utility.yul\":5650:5722   */\n      tag_323\n        /* \"#utility.yul\":5718:5720   */\n      0x20\n        /* \"#utility.yul\":5707:5716   */\n      dup4\n        /* \"#utility.yul\":5703:5721   */\n      add\n        /* \"#utility.yul\":5694:5700   */\n      dup7\n        /* \"#utility.yul\":5650:5722   */\n      tag_232\n      jump\t// in\n    tag_323:\n        /* \"#utility.yul\":5732:5804   */\n      tag_324\n        /* \"#utility.yul\":5800:5802   */\n      0x40\n        /* \"#utility.yul\":5789:5798   */\n      dup4\n        /* \"#utility.yul\":5785:5803   */\n      add\n        /* \"#utility.yul\":5776:5782   */\n      dup6\n        /* \"#utility.yul\":5732:5804   */\n      tag_231\n      jump\t// in\n    tag_324:\n        /* \"#utility.yul\":5814:5886   */\n      tag_325\n        /* \"#utility.yul\":5882:5884   */\n      0x60\n        /* \"#utility.yul\":5871:5880   */\n      dup4\n        /* \"#utility.yul\":5867:5885   */\n      add\n        /* \"#utility.yul\":5858:5864   */\n      dup5\n        /* \"#utility.yul\":5814:5886   */\n      tag_231\n      jump\t// in\n    tag_325:\n        /* \"#utility.yul\":5340:5893   */\n      swap6\n      swap5\n      pop\n      pop\n      pop\n      pop\n      pop\n      jump\t// out\n        /* \"#utility.yul\":5899:6068   */\n    tag_233:\n        /* \"#utility.yul\":5983:5994   */\n      0x00\n        /* \"#utility.yul\":6017:6023   */\n      dup3\n        /* \"#utility.yul\":6012:6015   */\n      dup3\n        /* \"#utility.yul\":6005:6024   */\n      mstore\n        /* \"#utility.yul\":6057:6061   */\n      0x20\n        /* \"#utility.yul\":6052:6055   */\n      dup3\n        /* \"#utility.yul\":6048:6062   */\n      add\n        /* \"#utility.yul\":6033:6062   */\n      swap1\n      pop\n        /* \"#utility.yul\":5899:6068   */\n      swap3\n      swap2\n      pop\n      pop\n      jump\t// out\n        /* \"#utility.yul\":6074:6246   */\n    tag_234:\n        /* \"#utility.yul\":6214:6238   */\n      0x43616c6c6572206973206e6f7420616e2061646d696e00000000000000000000\n        /* \"#utility.yul\":6210:6211   */\n      0x00\n        /* \"#utility.yul\":6202:6208   */\n      dup3\n        /* \"#utility.yul\":6198:6212   */\n      add\n        /* \"#utility.yul\":6191:6239   */\n      mstore\n        /* \"#utility.yul\":6074:6246   */\n      pop\n      jump\t// out\n        /* \"#utility.yul\":6252:6618   */\n    tag_235:\n        /* \"#utility.yul\":6394:6397   */\n      0x00\n        /* \"#utility.yul\":6415:6482   */\n      tag_329\n        /* \"#utility.yul\":6479:6481   */\n      0x16\n        /* \"#utility.yul\":6474:6477   */\n      dup4\n        /* \"#utility.yul\":6415:6482   */\n      tag_233\n      jump\t// in\n    tag_329:\n        /* \"#utility.yul\":6408:6482   */\n      swap2\n      pop\n        /* \"#utility.yul\":6491:6584   */\n      tag_330\n        /* \"#utility.yul\":6580:6583   */\n      dup3\n        /* \"#utility.yul\":6491:6584   */\n      tag_234\n      jump\t// in\n    tag_330:\n        /* \"#utility.yul\":6609:6611   */\n      0x20\n        /* \"#utility.yul\":6604:6607   */\n      dup3\n        /* \"#utility.yul\":6600:6612   */\n      add\n        /* \"#utility.yul\":6593:6612   */\n      swap1\n      pop\n        /* \"#utility.yul\":6252:6618   */\n      swap2\n      swap1\n      pop\n      jump\t// out\n        /* \"#utility.yul\":6624:7043   */\n    tag_94:\n        /* \"#utility.yul\":6790:6794   */\n      0x00\n        /* \"#utility.yul\":6828:6830   */\n      0x20\n        /* \"#utility.yul\":6817:6826   */\n      dup3\n        /* \"#utility.yul\":6813:6831   */\n      add\n        /* \"#utility.yul\":6805:6831   */\n      swap1\n      pop\n        /* \"#utility.yul\":6877:6886   */\n      dup2\n        /* \"#utility.yul\":6871:6875   */\n      dup2\n        /* \"#utility.yul\":6867:6887   */\n      sub\n        /* \"#utility.yul\":6863:6864   */\n      0x00\n        /* \"#utility.yul\":6852:6861   */\n      dup4\n        /* \"#utility.yul\":6848:6865   */\n      add\n        /* \"#utility.yul\":6841:6888   */\n      mstore\n        /* \"#utility.yul\":6905:7036   */\n      tag_332\n        /* \"#utility.yul\":7031:7035   */\n      dup2\n        /* \"#utility.yul\":6905:7036   */\n      tag_235\n      jump\t// in\n    tag_332:\n        /* \"#utility.yul\":6897:7036   */\n      swap1\n      pop\n        /* \"#utility.yul\":6624:7043   */\n      swap2\n      swap1\n      pop\n      jump\t// out\n        /* \"#utility.yul\":7049:7223   */\n    tag_236:\n        /* \"#utility.yul\":7189:7215   */\n      0x43616c6c6572206973206e6f74207468652073656c6c65720000000000000000\n        /* \"#utility.yul\":7185:7186   */\n      0x00\n        /* \"#utility.yul\":7177:7183   */\n      dup3\n        /* \"#utility.yul\":7173:7187   */\n      add\n        /* \"#utility.yul\":7166:7216   */\n      mstore\n        /* \"#utility.yul\":7049:7223   */\n      pop\n      jump\t// out\n        /* \"#utility.yul\":7229:7595   */\n    tag_237:\n        /* \"#utility.yul\":7371:7374   */\n      0x00\n        /* \"#utility.yul\":7392:7459   */\n      tag_335\n        /* \"#utility.yul\":7456:7458   */\n      0x18\n        /* \"#utility.yul\":7451:7454   */\n      dup4\n        /* \"#utility.yul\":7392:7459   */\n      tag_233\n      jump\t// in\n    tag_335:\n        /* \"#utility.yul\":7385:7459   */\n      swap2\n      pop\n        /* \"#utility.yul\":7468:7561   */\n      tag_336\n        /* \"#utility.yul\":7557:7560   */\n      dup3\n        /* \"#utility.yul\":7468:7561   */\n      tag_236\n      jump\t// in\n    tag_336:\n        /* \"#utility.yul\":7586:7588   */\n      0x20\n        /* \"#utility.yul\":7581:7584   */\n      dup3\n        /* \"#utility.yul\":7577:7589   */\n      add\n        /* \"#utility.yul\":7570:7589   */\n      swap1\n      pop\n        /* \"#utility.yul\":7229:7595   */\n      swap2\n      swap1\n      pop\n      jump\t// out\n        /* \"#utility.yul\":7601:8020   */\n    tag_110:\n        /* \"#utility.yul\":7767:7771   */\n      0x00\n        /* \"#utility.yul\":7805:7807   */\n      0x20\n        /* \"#utility.yul\":7794:7803   */\n      dup3\n        /* \"#utility.yul\":7790:7808   */\n      add\n        /* \"#utility.yul\":7782:7808   */\n      swap1\n      pop\n        /* \"#utility.yul\":7854:7863   */\n      dup2\n        /* \"#utility.yul\":7848:7852   */\n      dup2\n        /* \"#utility.yul\":7844:7864   */\n      sub\n        /* \"#utility.yul\":7840:7841   */\n      0x00\n        /* \"#utility.yul\":7829:7838   */\n      dup4\n        /* \"#utility.yul\":7825:7842   */\n      add\n        /* \"#utility.yul\":7818:7865   */\n      mstore\n        /* \"#utility.yul\":7882:8013   */\n      tag_338\n        /* \"#utility.yul\":8008:8012   */\n      dup2\n        /* \"#utility.yul\":7882:8013   */\n      tag_237\n      jump\t// in\n    tag_338:\n        /* \"#utility.yul\":7874:8013   */\n      swap1\n      pop\n        /* \"#utility.yul\":7601:8020   */\n      swap2\n      swap1\n      pop\n      jump\t// out\n        /* \"#utility.yul\":8026:8468   */\n    tag_112:\n        /* \"#utility.yul\":8175:8179   */\n      0x00\n        /* \"#utility.yul\":8213:8215   */\n      0x60\n        /* \"#utility.yul\":8202:8211   */\n      dup3\n        /* \"#utility.yul\":8198:8216   */\n      add\n        /* \"#utility.yul\":8190:8216   */\n      swap1\n      pop\n        /* \"#utility.yul\":8226:8297   */\n      tag_340\n        /* \"#utility.yul\":8294:8295   */\n      0x00\n        /* \"#utility.yul\":8283:8292   */\n      dup4\n        /* \"#utility.yul\":8279:8296   */\n      add\n        /* \"#utility.yul\":8270:8276   */\n      dup7\n        /* \"#utility.yul\":8226:8297   */\n      tag_232\n      jump\t// in\n    tag_340:\n        /* \"#utility.yul\":8307:8379   */\n      tag_341\n        /* \"#utility.yul\":8375:8377   */\n      0x20\n        /* \"#utility.yul\":8364:8373   */\n      dup4\n        /* \"#utility.yul\":8360:8378   */\n      add\n        /* \"#utility.yul\":8351:8357   */\n      dup6\n        /* \"#utility.yul\":8307:8379   */\n      tag_232\n      jump\t// in\n    tag_341:\n        /* \"#utility.yul\":8389:8461   */\n      tag_342\n        /* \"#utility.yul\":8457:8459   */\n      0x40\n        /* \"#utility.yul\":8446:8455   */\n      dup4\n        /* \"#utility.yul\":8442:8460   */\n      add\n        /* \"#utility.yul\":8433:8439   */\n      dup5\n        /* \"#utility.yul\":8389:8461   */\n      tag_231\n      jump\t// in\n    tag_342:\n        /* \"#utility.yul\":8026:8468   */\n      swap5\n      swap4\n      pop\n      pop\n      pop\n      pop\n      jump\t// out\n        /* \"#utility.yul\":8474:8645   */\n    tag_238:\n        /* \"#utility.yul\":8614:8637   */\n      0x496e636f7272656374206c697374696e67206665650000000000000000000000\n        /* \"#utility.yul\":8610:8611   */\n      0x00\n        /* \"#utility.yul\":8602:8608   */\n      dup3\n        /* \"#utility.yul\":8598:8612   */\n      add\n        /* \"#utility.yul\":8591:8638   */\n      mstore\n        /* \"#utility.yul\":8474:8645   */\n      pop\n      jump\t// out\n        /* \"#utility.yul\":8651:9017   */\n    tag_239:\n        /* \"#utility.yul\":8793:8796   */\n      0x00\n        /* \"#utility.yul\":8814:8881   */\n      tag_345\n        /* \"#utility.yul\":8878:8880   */\n      0x15\n        /* \"#utility.yul\":8873:8876   */\n      dup4\n        /* \"#utility.yul\":8814:8881   */\n      tag_233\n      jump\t// in\n    tag_345:\n        /* \"#utility.yul\":8807:8881   */\n      swap2\n      pop\n        /* \"#utility.yul\":8890:8983   */\n      tag_346\n        /* \"#utility.yul\":8979:8982   */\n      dup3\n        /* \"#utility.yul\":8890:8983   */\n      tag_238\n      jump\t// in\n    tag_346:\n        /* \"#utility.yul\":9008:9010   */\n      0x20\n        /* \"#utility.yul\":9003:9006   */\n      dup3\n        /* \"#utility.yul\":8999:9011   */\n      add\n        /* \"#utility.yul\":8992:9011   */\n      swap1\n      pop\n        /* \"#utility.yul\":8651:9017   */\n      swap2\n      swap1\n      pop\n      jump\t// out\n        /* \"#utility.yul\":9023:9442   */\n    tag_136:\n        /* \"#utility.yul\":9189:9193   */\n      0x00\n        /* \"#utility.yul\":9227:9229   */\n      0x20\n        /* \"#utility.yul\":9216:9225   */\n      dup3\n        /* \"#utility.yul\":9212:9230   */\n      add\n        /* \"#utility.yul\":9204:9230   */\n      swap1\n      pop\n        /* \"#utility.yul\":9276:9285   */\n      dup2\n        /* \"#utility.yul\":9270:9274   */\n      dup2\n        /* \"#utility.yul\":9266:9286   */\n      sub\n        /* \"#utility.yul\":9262:9263   */\n      0x00\n        /* \"#utility.yul\":9251:9260   */\n      dup4\n        /* \"#utility.yul\":9247:9264   */\n      add\n        /* \"#utility.yul\":9240:9287   */\n      mstore\n        /* \"#utility.yul\":9304:9435   */\n      tag_348\n        /* \"#utility.yul\":9430:9434   */\n      dup2\n        /* \"#utility.yul\":9304:9435   */\n      tag_239\n      jump\t// in\n    tag_348:\n        /* \"#utility.yul\":9296:9435   */\n      swap1\n      pop\n        /* \"#utility.yul\":9023:9442   */\n      swap2\n      swap1\n      pop\n      jump\t// out\n        /* \"#utility.yul\":9448:9591   */\n    tag_240:\n        /* \"#utility.yul\":9505:9510   */\n      0x00\n        /* \"#utility.yul\":9536:9542   */\n      dup2\n        /* \"#utility.yul\":9530:9543   */\n      mload\n        /* \"#utility.yul\":9521:9543   */\n      swap1\n      pop\n        /* \"#utility.yul\":9552:9585   */\n      tag_350\n        /* \"#utility.yul\":9579:9584   */\n      dup2\n        /* \"#utility.yul\":9552:9585   */\n      tag_229\n      jump\t// in\n    tag_350:\n        /* \"#utility.yul\":9448:9591   */\n      swap3\n      swap2\n      pop\n      pop\n      jump\t// out\n        /* \"#utility.yul\":9597:9948   */\n    tag_141:\n        /* \"#utility.yul\":9667:9673   */\n      0x00\n        /* \"#utility.yul\":9716:9718   */\n      0x20\n        /* \"#utility.yul\":9704:9713   */\n      dup3\n        /* \"#utility.yul\":9695:9702   */\n      dup5\n        /* \"#utility.yul\":9691:9714   */\n      sub\n        /* \"#utility.yul\":9687:9719   */\n      slt\n        /* \"#utility.yul\":9684:9803   */\n      iszero\n      tag_352\n      jumpi\n        /* \"#utility.yul\":9722:9801   */\n      tag_353\n      tag_213\n      jump\t// in\n    tag_353:\n        /* \"#utility.yul\":9684:9803   */\n    tag_352:\n        /* \"#utility.yul\":9842:9843   */\n      0x00\n        /* \"#utility.yul\":9867:9931   */\n      tag_354\n        /* \"#utility.yul\":9923:9930   */\n      dup5\n        /* \"#utility.yul\":9914:9920   */\n      dup3\n        /* \"#utility.yul\":9903:9912   */\n      dup6\n        /* \"#utility.yul\":9899:9921   */\n      add\n        /* \"#utility.yul\":9867:9931   */\n      tag_240\n      jump\t// in\n    tag_354:\n        /* \"#utility.yul\":9857:9931   */\n      swap2\n      pop\n        /* \"#utility.yul\":9813:9941   */\n      pop\n        /* \"#utility.yul\":9597:9948   */\n      swap3\n      swap2\n      pop\n      pop\n      jump\t// out\n        /* \"#utility.yul\":9954:10127   */\n    tag_241:\n        /* \"#utility.yul\":10094:10119   */\n      0x43616c6c6572206973206e6f7420746865206f776e6572000000000000000000\n        /* \"#utility.yul\":10090:10091   */\n      0x00\n        /* \"#utility.yul\":10082:10088   */\n      dup3\n        /* \"#utility.yul\":10078:10092   */\n      add\n        /* \"#utility.yul\":10071:10120   */\n      mstore\n        /* \"#utility.yul\":9954:10127   */\n      pop\n      jump\t// out\n        /* \"#utility.yul\":10133:10499   */\n    tag_242:\n        /* \"#utility.yul\":10275:10278   */\n      0x00\n        /* \"#utility.yul\":10296:10363   */\n      tag_357\n        /* \"#utility.yul\":10360:10362   */\n      0x17\n        /* \"#utility.yul\":10355:10358   */\n      dup4\n        /* \"#utility.yul\":10296:10363   */\n      tag_233\n      jump\t// in\n    tag_357:\n        /* \"#utility.yul\":10289:10363   */\n      swap2\n      pop\n        /* \"#utility.yul\":10372:10465   */\n      tag_358\n        /* \"#utility.yul\":10461:10464   */\n      dup3\n        /* \"#utility.yul\":10372:10465   */\n      tag_241\n      jump\t// in\n    tag_358:\n        /* \"#utility.yul\":10490:10492   */\n      0x20\n        /* \"#utility.yul\":10485:10488   */\n      dup3\n        /* \"#utility.yul\":10481:10493   */\n      add\n        /* \"#utility.yul\":10474:10493   */\n      swap1\n      pop\n        /* \"#utility.yul\":10133:10499   */\n      swap2\n      swap1\n      pop\n      jump\t// out\n        /* \"#utility.yul\":10505:10924   */\n    tag_144:\n        /* \"#utility.yul\":10671:10675   */\n      0x00\n        /* \"#utility.yul\":10709:10711   */\n      0x20\n        /* \"#utility.yul\":10698:10707   */\n      dup3\n        /* \"#utility.yul\":10694:10712   */\n      add\n        /* \"#utility.yul\":10686:10712   */\n      swap1\n      pop\n        /* \"#utility.yul\":10758:10767   */\n      dup2\n        /* \"#utility.yul\":10752:10756   */\n      dup2\n        /* \"#utility.yul\":10748:10768   */\n      sub\n        /* \"#utility.yul\":10744:10745   */\n      0x00\n        /* \"#utility.yul\":10733:10742   */\n      dup4\n        /* \"#utility.yul\":10729:10746   */\n      add\n        /* \"#utility.yul\":10722:10769   */\n      mstore\n        /* \"#utility.yul\":10786:10917   */\n      tag_360\n        /* \"#utility.yul\":10912:10916   */\n      dup2\n        /* \"#utility.yul\":10786:10917   */\n      tag_242\n      jump\t// in\n    tag_360:\n        /* \"#utility.yul\":10778:10917   */\n      swap1\n      pop\n        /* \"#utility.yul\":10505:10924   */\n      swap2\n      swap1\n      pop\n      jump\t// out\n        /* \"#utility.yul\":10930:11111   */\n    tag_243:\n        /* \"#utility.yul\":11070:11103   */\n      0x5072696365206d7573742062652067726561746572207468616e207a65726f00\n        /* \"#utility.yul\":11066:11067   */\n      0x00\n        /* \"#utility.yul\":11058:11064   */\n      dup3\n        /* \"#utility.yul\":11054:11068   */\n      add\n        /* \"#utility.yul\":11047:11104   */\n      mstore\n        /* \"#utility.yul\":10930:11111   */\n      pop\n      jump\t// out\n        /* \"#utility.yul\":11117:11483   */\n    tag_244:\n        /* \"#utility.yul\":11259:11262   */\n      0x00\n        /* \"#utility.yul\":11280:11347   */\n      tag_363\n        /* \"#utility.yul\":11344:11346   */\n      0x1f\n        /* \"#utility.yul\":11339:11342   */\n      dup4\n        /* \"#utility.yul\":11280:11347   */\n      tag_233\n      jump\t// in\n    tag_363:\n        /* \"#utility.yul\":11273:11347   */\n      swap2\n      pop\n        /* \"#utility.yul\":11356:11449   */\n      tag_364\n        /* \"#utility.yul\":11445:11448   */\n      dup3\n        /* \"#utility.yul\":11356:11449   */\n      tag_243\n      jump\t// in\n    tag_364:\n        /* \"#utility.yul\":11474:11476   */\n      0x20\n        /* \"#utility.yul\":11469:11472   */\n      dup3\n        /* \"#utility.yul\":11465:11477   */\n      add\n        /* \"#utility.yul\":11458:11477   */\n      swap1\n      pop\n        /* \"#utility.yul\":11117:11483   */\n      swap2\n      swap1\n      pop\n      jump\t// out\n        /* \"#utility.yul\":11489:11908   */\n    tag_147:\n        /* \"#utility.yul\":11655:11659   */\n      0x00\n        /* \"#utility.yul\":11693:11695   */\n      0x20\n        /* \"#utility.yul\":11682:11691   */\n      dup3\n        /* \"#utility.yul\":11678:11696   */\n      add\n        /* \"#utility.yul\":11670:11696   */\n      swap1\n      pop\n        /* \"#utility.yul\":11742:11751   */\n      dup2\n        /* \"#utility.yul\":11736:11740   */\n      dup2\n        /* \"#utility.yul\":11732:11752   */\n      sub\n        /* \"#utility.yul\":11728:11729   */\n      0x00\n        /* \"#utility.yul\":11717:11726   */\n      dup4\n        /* \"#utility.yul\":11713:11730   */\n      add\n        /* \"#utility.yul\":11706:11753   */\n      mstore\n        /* \"#utility.yul\":11770:11901   */\n      tag_366\n        /* \"#utility.yul\":11896:11900   */\n      dup2\n        /* \"#utility.yul\":11770:11901   */\n      tag_244\n      jump\t// in\n    tag_366:\n        /* \"#utility.yul\":11762:11901   */\n      swap1\n      pop\n        /* \"#utility.yul\":11489:11908   */\n      swap2\n      swap1\n      pop\n      jump\t// out\n        /* \"#utility.yul\":11914:12246   */\n    tag_157:\n        /* \"#utility.yul\":12035:12039   */\n      0x00\n        /* \"#utility.yul\":12073:12075   */\n      0x40\n        /* \"#utility.yul\":12062:12071   */\n      dup3\n        /* \"#utility.yul\":12058:12076   */\n      add\n        /* \"#utility.yul\":12050:12076   */\n      swap1\n      pop\n        /* \"#utility.yul\":12086:12157   */\n      tag_368\n        /* \"#utility.yul\":12154:12155   */\n      0x00\n        /* \"#utility.yul\":12143:12152   */\n      dup4\n        /* \"#utility.yul\":12139:12156   */\n      add\n        /* \"#utility.yul\":12130:12136   */\n      dup6\n        /* \"#utility.yul\":12086:12157   */\n      tag_231\n      jump\t// in\n    tag_368:\n        /* \"#utility.yul\":12167:12239   */\n      tag_369\n        /* \"#utility.yul\":12235:12237   */\n      0x20\n        /* \"#utility.yul\":12224:12233   */\n      dup4\n        /* \"#utility.yul\":12220:12238   */\n      add\n        /* \"#utility.yul\":12211:12217   */\n      dup5\n        /* \"#utility.yul\":12167:12239   */\n      tag_231\n      jump\t// in\n    tag_369:\n        /* \"#utility.yul\":11914:12246   */\n      swap4\n      swap3\n      pop\n      pop\n      pop\n      jump\t// out\n        /* \"#utility.yul\":12252:12433   */\n    tag_245:\n        /* \"#utility.yul\":12392:12425   */\n      0x5265656e7472616e637947756172643a207265656e7472616e742063616c6c00\n        /* \"#utility.yul\":12388:12389   */\n      0x00\n        /* \"#utility.yul\":12380:12386   */\n      dup3\n        /* \"#utility.yul\":12376:12390   */\n      add\n        /* \"#utility.yul\":12369:12426   */\n      mstore\n        /* \"#utility.yul\":12252:12433   */\n      pop\n      jump\t// out\n        /* \"#utility.yul\":12439:12805   */\n    tag_246:\n        /* \"#utility.yul\":12581:12584   */\n      0x00\n        /* \"#utility.yul\":12602:12669   */\n      tag_372\n        /* \"#utility.yul\":12666:12668   */\n      0x1f\n        /* \"#utility.yul\":12661:12664   */\n      dup4\n        /* \"#utility.yul\":12602:12669   */\n      tag_233\n      jump\t// in\n    tag_372:\n        /* \"#utility.yul\":12595:12669   */\n      swap2\n      pop\n        /* \"#utility.yul\":12678:12771   */\n      tag_373\n        /* \"#utility.yul\":12767:12770   */\n      dup3\n        /* \"#utility.yul\":12678:12771   */\n      tag_245\n      jump\t// in\n    tag_373:\n        /* \"#utility.yul\":12796:12798   */\n      0x20\n        /* \"#utility.yul\":12791:12794   */\n      dup3\n        /* \"#utility.yul\":12787:12799   */\n      add\n        /* \"#utility.yul\":12780:12799   */\n      swap1\n      pop\n        /* \"#utility.yul\":12439:12805   */\n      swap2\n      swap1\n      pop\n      jump\t// out\n        /* \"#utility.yul\":12811:13230   */\n    tag_177:\n        /* \"#utility.yul\":12977:12981   */\n      0x00\n        /* \"#utility.yul\":13015:13017   */\n      0x20\n        /* \"#utility.yul\":13004:13013   */\n      dup3\n        /* \"#utility.yul\":13000:13018   */\n      add\n        /* \"#utility.yul\":12992:13018   */\n      swap1\n      pop\n        /* \"#utility.yul\":13064:13073   */\n      dup2\n        /* \"#utility.yul\":13058:13062   */\n      dup2\n        /* \"#utility.yul\":13054:13074   */\n      sub\n        /* \"#utility.yul\":13050:13051   */\n      0x00\n        /* \"#utility.yul\":13039:13048   */\n      dup4\n        /* \"#utility.yul\":13035:13052   */\n      add\n        /* \"#utility.yul\":13028:13075   */\n      mstore\n        /* \"#utility.yul\":13092:13223   */\n      tag_375\n        /* \"#utility.yul\":13218:13222   */\n      dup2\n        /* \"#utility.yul\":13092:13223   */\n      tag_246\n      jump\t// in\n    tag_375:\n        /* \"#utility.yul\":13084:13223   */\n      swap1\n      pop\n        /* \"#utility.yul\":12811:13230   */\n      swap2\n      swap1\n      pop\n      jump\t// out\n        /* \"#utility.yul\":13236:13404   */\n    tag_247:\n        /* \"#utility.yul\":13376:13396   */\n      0x4c697374696e67206e6f74206163746976650000000000000000000000000000\n        /* \"#utility.yul\":13372:13373   */\n      0x00\n        /* \"#utility.yul\":13364:13370   */\n      dup3\n        /* \"#utility.yul\":13360:13374   */\n      add\n        /* \"#utility.yul\":13353:13397   */\n      mstore\n        /* \"#utility.yul\":13236:13404   */\n      pop\n      jump\t// out\n        /* \"#utility.yul\":13410:13776   */\n    tag_248:\n        /* \"#utility.yul\":13552:13555   */\n      0x00\n        /* \"#utility.yul\":13573:13640   */\n      tag_378\n        /* \"#utility.yul\":13637:13639   */\n      0x12\n        /* \"#utility.yul\":13632:13635   */\n      dup4\n        /* \"#utility.yul\":13573:13640   */\n      tag_233\n      jump\t// in\n    tag_378:\n        /* \"#utility.yul\":13566:13640   */\n      swap2\n      pop\n        /* \"#utility.yul\":13649:13742   */\n      tag_379\n        /* \"#utility.yul\":13738:13741   */\n      dup3\n        /* \"#utility.yul\":13649:13742   */\n      tag_247\n      jump\t// in\n    tag_379:\n        /* \"#utility.yul\":13767:13769   */\n      0x20\n        /* \"#utility.yul\":13762:13765   */\n      dup3\n        /* \"#utility.yul\":13758:13770   */\n      add\n        /* \"#utility.yul\":13751:13770   */\n      swap1\n      pop\n        /* \"#utility.yul\":13410:13776   */\n      swap2\n      swap1\n      pop\n      jump\t// out\n        /* \"#utility.yul\":13782:14201   */\n    tag_190:\n        /* \"#utility.yul\":13948:13952   */\n      0x00\n        /* \"#utility.yul\":13986:13988   */\n      0x20\n        /* \"#utility.yul\":13975:13984   */\n      dup3\n        /* \"#utility.yul\":13971:13989   */\n      add\n        /* \"#utility.yul\":13963:13989   */\n      swap1\n      pop\n        /* \"#utility.yul\":14035:14044   */\n      dup2\n        /* \"#utility.yul\":14029:14033   */\n      dup2\n        /* \"#utility.yul\":14025:14045   */\n      sub\n        /* \"#utility.yul\":14021:14022   */\n      0x00\n        /* \"#utility.yul\":14010:14019   */\n      dup4\n        /* \"#utility.yul\":14006:14023   */\n      add\n        /* \"#utility.yul\":13999:14046   */\n      mstore\n        /* \"#utility.yul\":14063:14194   */\n      tag_381\n        /* \"#utility.yul\":14189:14193   */\n      dup2\n        /* \"#utility.yul\":14063:14194   */\n      tag_248\n      jump\t// in\n    tag_381:\n        /* \"#utility.yul\":14055:14194   */\n      swap1\n      pop\n        /* \"#utility.yul\":13782:14201   */\n      swap2\n      swap1\n      pop\n      jump\t// out\n        /* \"#utility.yul\":14207:14380   */\n    tag_249:\n        /* \"#utility.yul\":14347:14372   */\n      0x43616e6e6f742073656c6c20746f20796f757273656c66000000000000000000\n        /* \"#utility.yul\":14343:14344   */\n      0x00\n        /* \"#utility.yul\":14335:14341   */\n      dup3\n        /* \"#utility.yul\":14331:14345   */\n      add\n        /* \"#utility.yul\":14324:14373   */\n      mstore\n        /* \"#utility.yul\":14207:14380   */\n      pop\n      jump\t// out\n        /* \"#utility.yul\":14386:14752   */\n    tag_250:\n        /* \"#utility.yul\":14528:14531   */\n      0x00\n        /* \"#utility.yul\":14549:14616   */\n      tag_384\n        /* \"#utility.yul\":14613:14615   */\n      0x17\n        /* \"#utility.yul\":14608:14611   */\n      dup4\n        /* \"#utility.yul\":14549:14616   */\n      tag_233\n      jump\t// in\n    tag_384:\n        /* \"#utility.yul\":14542:14616   */\n      swap2\n      pop\n        /* \"#utility.yul\":14625:14718   */\n      tag_385\n        /* \"#utility.yul\":14714:14717   */\n      dup3\n        /* \"#utility.yul\":14625:14718   */\n      tag_249\n      jump\t// in\n    tag_385:\n        /* \"#utility.yul\":14743:14745   */\n      0x20\n        /* \"#utility.yul\":14738:14741   */\n      dup3\n        /* \"#utility.yul\":14734:14746   */\n      add\n        /* \"#utility.yul\":14727:14746   */\n      swap1\n      pop\n        /* \"#utility.yul\":14386:14752   */\n      swap2\n      swap1\n      pop\n      jump\t// out\n        /* \"#utility.yul\":14758:15177   */\n    tag_193:\n        /* \"#utility.yul\":14924:14928   */\n      0x00\n        /* \"#utility.yul\":14962:14964   */\n      0x20\n        /* \"#utility.yul\":14951:14960   */\n      dup3\n        /* \"#utility.yul\":14947:14965   */\n      add\n        /* \"#utility.yul\":14939:14965   */\n      swap1\n      pop\n        /* \"#utility.yul\":15011:15020   */\n      dup2\n        /* \"#utility.yul\":15005:15009   */\n      dup2\n        /* \"#utility.yul\":15001:15021   */\n      sub\n        /* \"#utility.yul\":14997:14998   */\n      0x00\n        /* \"#utility.yul\":14986:14995   */\n      dup4\n        /* \"#utility.yul\":14982:14999   */\n      add\n        /* \"#utility.yul\":14975:15022   */\n      mstore\n        /* \"#utility.yul\":15039:15170   */\n      tag_387\n        /* \"#utility.yul\":15165:15169   */\n      dup2\n        /* \"#utility.yul\":15039:15170   */\n      tag_250\n      jump\t// in\n    tag_387:\n        /* \"#utility.yul\":15031:15170   */\n      swap1\n      pop\n        /* \"#utility.yul\":14758:15177   */\n      swap2\n      swap1\n      pop\n      jump\t// out\n        /* \"#utility.yul\":15183:15349   */\n    tag_251:\n        /* \"#utility.yul\":15323:15341   */\n      0x496e636f727265637420616d6f756e7400000000000000000000000000000000\n        /* \"#utility.yul\":15319:15320   */\n      0x00\n        /* \"#utility.yul\":15311:15317   */\n      dup3\n        /* \"#utility.yul\":15307:15321   */\n      add\n        /* \"#utility.yul\":15300:15342   */\n      mstore\n        /* \"#utility.yul\":15183:15349   */\n      pop\n      jump\t// out\n        /* \"#utility.yul\":15355:15721   */\n    tag_252:\n        /* \"#utility.yul\":15497:15500   */\n      0x00\n        /* \"#utility.yul\":15518:15585   */\n      tag_390\n        /* \"#utility.yul\":15582:15584   */\n      0x10\n        /* \"#utility.yul\":15577:15580   */\n      dup4\n        /* \"#utility.yul\":15518:15585   */\n      tag_233\n      jump\t// in\n    tag_390:\n        /* \"#utility.yul\":15511:15585   */\n      swap2\n      pop\n        /* \"#utility.yul\":15594:15687   */\n      tag_391\n        /* \"#utility.yul\":15683:15686   */\n      dup3\n        /* \"#utility.yul\":15594:15687   */\n      tag_251\n      jump\t// in\n    tag_391:\n        /* \"#utility.yul\":15712:15714   */\n      0x20\n        /* \"#utility.yul\":15707:15710   */\n      dup3\n        /* \"#utility.yul\":15703:15715   */\n      add\n        /* \"#utility.yul\":15696:15715   */\n      swap1\n      pop\n        /* \"#utility.yul\":15355:15721   */\n      swap2\n      swap1\n      pop\n      jump\t// out\n        /* \"#utility.yul\":15727:16146   */\n    tag_196:\n        /* \"#utility.yul\":15893:15897   */\n      0x00\n        /* \"#utility.yul\":15931:15933   */\n      0x20\n        /* \"#utility.yul\":15920:15929   */\n      dup3\n        /* \"#utility.yul\":15916:15934   */\n      add\n        /* \"#utility.yul\":15908:15934   */\n      swap1\n      pop\n        /* \"#utility.yul\":15980:15989   */\n      dup2\n        /* \"#utility.yul\":15974:15978   */\n      dup2\n        /* \"#utility.yul\":15970:15990   */\n      sub\n        /* \"#utility.yul\":15966:15967   */\n      0x00\n        /* \"#utility.yul\":15955:15964   */\n      dup4\n        /* \"#utility.yul\":15951:15968   */\n      add\n        /* \"#utility.yul\":15944:15991   */\n      mstore\n        /* \"#utility.yul\":16008:16139   */\n      tag_393\n        /* \"#utility.yul\":16134:16138   */\n      dup2\n        /* \"#utility.yul\":16008:16139   */\n      tag_252\n      jump\t// in\n    tag_393:\n        /* \"#utility.yul\":16000:16139   */\n      swap1\n      pop\n        /* \"#utility.yul\":15727:16146   */\n      swap2\n      swap1\n      pop\n      jump\t// out\n        /* \"#utility.yul\":16152:16484   */\n    tag_211:\n        /* \"#utility.yul\":16273:16277   */\n      0x00\n        /* \"#utility.yul\":16311:16313   */\n      0x40\n        /* \"#utility.yul\":16300:16309   */\n      dup3\n        /* \"#utility.yul\":16296:16314   */\n      add\n        /* \"#utility.yul\":16288:16314   */\n      swap1\n      pop\n        /* \"#utility.yul\":16324:16395   */\n      tag_395\n        /* \"#utility.yul\":16392:16393   */\n      0x00\n        /* \"#utility.yul\":16381:16390   */\n      dup4\n        /* \"#utility.yul\":16377:16394   */\n      add\n        /* \"#utility.yul\":16368:16374   */\n      dup6\n        /* \"#utility.yul\":16324:16395   */\n      tag_232\n      jump\t// in\n    tag_395:\n        /* \"#utility.yul\":16405:16477   */\n      tag_396\n        /* \"#utility.yul\":16473:16475   */\n      0x20\n        /* \"#utility.yul\":16462:16471   */\n      dup4\n        /* \"#utility.yul\":16458:16476   */\n      add\n        /* \"#utility.yul\":16449:16455   */\n      dup5\n        /* \"#utility.yul\":16405:16477   */\n      tag_226\n      jump\t// in\n    tag_396:\n        /* \"#utility.yul\":16152:16484   */\n      swap4\n      swap3\n      pop\n      pop\n      pop\n      jump\t// out\n\n    auxdata: 0xa2646970667358221220ec279a103657075f7b52cf9e69783477309658d812dc378259daeec99a37f87e64736f6c63430008190033\n}\n",
				"bytecode": {
					"linkReferences": {},
					"object": "6080604052662386f26fc1000060045534801561001a575f80fd5b5060015f819055506100345f801b3361006b60201b60201c565b506100657fa49807205ce4d355092ef5a8a18f56e8913cf4a201fbe287825b095693c217753361006b60201b60201c565b506101cb565b5f61007c838361016060201b60201c565b610156576001805f8581526020019081526020015f205f015f8473ffffffffffffffffffffffffffffffffffffffff1673ffffffffffffffffffffffffffffffffffffffff1681526020019081526020015f205f6101000a81548160ff0219169083151502179055506100f36101c460201b60201c565b73ffffffffffffffffffffffffffffffffffffffff168273ffffffffffffffffffffffffffffffffffffffff16847f2f8788117e7eff1d82e926ec794901d17c78024a50270940304540a733656f0d60405160405180910390a46001905061015a565b5f90505b92915050565b5f60015f8481526020019081526020015f205f015f8373ffffffffffffffffffffffffffffffffffffffff1673ffffffffffffffffffffffffffffffffffffffff1681526020019081526020015f205f9054906101000a900460ff16905092915050565b5f33905090565b611a66806101d85f395ff3fe6080604052600436106100dc575f3560e01c80636a1b7ecc1161007e578063a217fddf11610058578063a217fddf146102a4578063ad05f1b4146102ce578063d547741f146102ea578063de74e57b14610312576100dc565b80636a1b7ecc1461021457806375b238fc1461023e57806391d1485414610268576100dc565b80632f2ff15d116100ba5780632f2ff15d14610180578063305a67a8146101a857806336568abe146101d057806351ed8288146101f8576100dc565b806301ffc9a7146100e0578063131dbd091461011c578063248a9ca314610144575b5f80fd5b3480156100eb575f80fd5b5061010660048036038101906101019190611312565b610351565b6040516101139190611357565b60405180910390f35b348015610127575f80fd5b50610142600480360381019061013d91906113a3565b6103ca565b005b34801561014f575f80fd5b5061016a60048036038101906101659190611401565b61043d565b604051610177919061143b565b60405180910390f35b34801561018b575f80fd5b506101a660048036038101906101a191906114ae565b61045a565b005b3480156101b3575f80fd5b506101ce60048036038101906101c991906113a3565b61047c565b005b3480156101db575f80fd5b506101f660048036038101906101f191906114ae565b6106ec565b005b610212600480360381019061020d91906113a3565b610767565b005b34801561021f575f80fd5b50610228610785565b60405161023591906114fb565b60405180910390f35b348015610249575f80fd5b5061025261078b565b60405161025f919061143b565b60405180910390f35b348015610273575f80fd5b5061028e600480360381019061028991906114ae565b6107af565b60405161029b9190611357565b60405180910390f35b3480156102af575f80fd5b506102b8610813565b6040516102c5919061143b565b60405180910390f35b6102e860048036038101906102e39190611514565b610819565b005b3480156102f5575f80fd5b50610310600480360381019061030b91906114ae565b610b82565b005b34801561031d575f80fd5b50610338600480360381019061033391906113a3565b610ba4565b6040516103489493929190611573565b60405180910390f35b5f7f7965db0b000000000000000000000000000000000000000000000000000000007bffffffffffffffffffffffffffffffffffffffffffffffffffffffff1916827bffffffffffffffffffffffffffffffffffffffffffffffffffffffff191614806103c357506103c282610c0e565b5b9050919050565b6103f47fa49807205ce4d355092ef5a8a18f56e8913cf4a201fbe287825b095693c21775336107af565b610433576040517f08c379a000000000000000000000000000000000000000000000000000000000815260040161042a90611610565b60405180910390fd5b8060048190555050565b5f60015f8381526020019081526020015f20600101549050919050565b6104638261043d565b61046c81610c77565b6104768383610c8b565b50505050565b610484610d74565b5f60035f8381526020019081526020015f206040518060800160405290815f82015f9054906101000a900473ffffffffffffffffffffffffffffffffffffffff1673ffffffffffffffffffffffffffffffffffffffff1673ffffffffffffffffffffffffffffffffffffffff168152602001600182015f9054906101000a900473ffffffffffffffffffffffffffffffffffffffff1673ffffffffffffffffffffffffffffffffffffffff1673ffffffffffffffffffffffffffffffffffffffff1681526020016002820154815260200160038201548152505090503373ffffffffffffffffffffffffffffffffffffffff16815f015173ffffffffffffffffffffffffffffffffffffffff16146105d1576040517f08c379a00000000000000000000000000000000000000000000000000000000081526004016105c890611678565b60405180910390fd5b60035f8381526020019081526020015f205f8082015f6101000a81549073ffffffffffffffffffffffffffffffffffffffff0219169055600182015f6101000a81549073ffffffffffffffffffffffffffffffffffffffff0219169055600282015f9055600382015f90555050806020015173ffffffffffffffffffffffffffffffffffffffff166323b872dd30835f015184604001516040518463ffffffff1660e01b815260040161068693929190611696565b5f604051808303815f87803b15801561069d575f80fd5b505af11580156106af573d5f803e3d5ffd5b50505050817f411aee90354c51b1b04cd563fcab2617142a9d50da19232d888547c8a1b7fd8a60405160405180910390a2506106e9610dc1565b50565b6106f4610dca565b73ffffffffffffffffffffffffffffffffffffffff168173ffffffffffffffffffffffffffffffffffffffff1614610758576040517f6697b23200000000000000000000000000000000000000000000000000000000815260040160405180910390fd5b6107628282610dd1565b505050565b61076f610d74565b61077a813334610ebb565b610782610dc1565b50565b60045481565b7fa49807205ce4d355092ef5a8a18f56e8913cf4a201fbe287825b095693c2177581565b5f60015f8481526020019081526020015f205f015f8373ffffffffffffffffffffffffffffffffffffffff1673ffffffffffffffffffffffffffffffffffffffff1681526020019081526020015f205f9054906101000a900460ff16905092915050565b5f801b81565b610821610d74565b6004543414610865576040517f08c379a000000000000000000000000000000000000000000000000000000000815260040161085c90611715565b60405180910390fd5b3373ffffffffffffffffffffffffffffffffffffffff168373ffffffffffffffffffffffffffffffffffffffff16636352211e846040518263ffffffff1660e01b81526004016108b591906114fb565b602060405180830381865afa1580156108d0573d5f803e3d5ffd5b505050506040513d601f19601f820116820180604052508101906108f49190611747565b73ffffffffffffffffffffffffffffffffffffffff161461094a576040517f08c379a0000000000000000000000000000000000000000000000000000000008152600401610941906117bc565b60405180910390fd5b5f811161098c576040517f08c379a000000000000000000000000000000000000000000000000000000000815260040161098390611824565b60405180910390fd5b8273ffffffffffffffffffffffffffffffffffffffff166323b872dd3330856040518463ffffffff1660e01b81526004016109c993929190611696565b5f604051808303815f87803b1580156109e0575f80fd5b505af11580156109f2573d5f803e3d5ffd5b50505050610a006002611248565b5f610a0b600261125c565b905060405180608001604052803373ffffffffffffffffffffffffffffffffffffffff1681526020018573ffffffffffffffffffffffffffffffffffffffff1681526020018481526020018381525060035f8381526020019081526020015f205f820151815f015f6101000a81548173ffffffffffffffffffffffffffffffffffffffff021916908373ffffffffffffffffffffffffffffffffffffffff1602179055506020820151816001015f6101000a81548173ffffffffffffffffffffffffffffffffffffffff021916908373ffffffffffffffffffffffffffffffffffffffff16021790555060408201518160020155606082015181600301559050508373ffffffffffffffffffffffffffffffffffffffff163373ffffffffffffffffffffffffffffffffffffffff16827f723f73331eaee88eec7fc68ef60ab6ed15e4b90d0472b55eb92fa43910bab6dd8686604051610b6c929190611842565b60405180910390a450610b7d610dc1565b505050565b610b8b8261043d565b610b9481610c77565b610b9e8383610dd1565b50505050565b6003602052805f5260405f205f91509050805f015f9054906101000a900473ffffffffffffffffffffffffffffffffffffffff1690806001015f9054906101000a900473ffffffffffffffffffffffffffffffffffffffff16908060020154908060030154905084565b5f7f01ffc9a7000000000000000000000000000000000000000000000000000000007bffffffffffffffffffffffffffffffffffffffffffffffffffffffff1916827bffffffffffffffffffffffffffffffffffffffffffffffffffffffff1916149050919050565b610c8881610c83610dca565b611268565b50565b5f610c9683836107af565b610d6a576001805f8581526020019081526020015f205f015f8473ffffffffffffffffffffffffffffffffffffffff1673ffffffffffffffffffffffffffffffffffffffff1681526020019081526020015f205f6101000a81548160ff021916908315150217905550610d07610dca565b73ffffffffffffffffffffffffffffffffffffffff168273ffffffffffffffffffffffffffffffffffffffff16847f2f8788117e7eff1d82e926ec794901d17c78024a50270940304540a733656f0d60405160405180910390a460019050610d6e565b5f90505b92915050565b60025f5403610db8576040517f08c379a0000000000000000000000000000000000000000000000000000000008152600401610daf906118b3565b60405180910390fd5b60025f81905550565b60015f81905550565b5f33905090565b5f610ddc83836107af565b15610eb1575f60015f8581526020019081526020015f205f015f8473ffffffffffffffffffffffffffffffffffffffff1673ffffffffffffffffffffffffffffffffffffffff1681526020019081526020015f205f6101000a81548160ff021916908315150217905550610e4e610dca565b73ffffffffffffffffffffffffffffffffffffffff168273ffffffffffffffffffffffffffffffffffffffff16847ff6391f5c32d9c69d2a47ea670b442974b53935d1edc7fd64eb21e047a839171b60405160405180910390a460019050610eb5565b5f90505b92915050565b610ec3610d74565b5f60035f8581526020019081526020015f206040518060800160405290815f82015f9054906101000a900473ffffffffffffffffffffffffffffffffffffffff1673ffffffffffffffffffffffffffffffffffffffff1673ffffffffffffffffffffffffffffffffffffffff168152602001600182015f9054906101000a900473ffffffffffffffffffffffffffffffffffffffff1673ffffffffffffffffffffffffffffffffffffffff1673ffffffffffffffffffffffffffffffffffffffff1681526020016002820154815260200160038201548152505090505f816060015111610fe5576040517f08c379a0000000000000000000000000000000000000000000000000000000008152600401610fdc9061191b565b60405180910390fd5b805f015173ffffffffffffffffffffffffffffffffffffffff168373ffffffffffffffffffffffffffffffffffffffff1614611056576040517f08c379a000000000000000000000000000000000000000000000000000000000815260040161104d90611983565b60405180910390fd5b8060600151821461109c576040517f08c379a0000000000000000000000000000000000000000000000000000000008152600401611093906119eb565b60405180910390fd5b60035f8581526020019081526020015f205f8082015f6101000a81549073ffffffffffffffffffffffffffffffffffffffff0219169055600182015f6101000a81549073ffffffffffffffffffffffffffffffffffffffff0219169055600282015f9055600382015f90555050806020015173ffffffffffffffffffffffffffffffffffffffff166323b872dd308584604001516040518463ffffffff1660e01b815260040161114e93929190611696565b5f604051808303815f87803b158015611165575f80fd5b505af1158015611177573d5f803e3d5ffd5b50505050805f015173ffffffffffffffffffffffffffffffffffffffff166108fc826060015190811502906040515f60405180830381858888f193505050501580156111c5573d5f803e3d5ffd5b50806020015173ffffffffffffffffffffffffffffffffffffffff163373ffffffffffffffffffffffffffffffffffffffff16857ff3debaf22196a6ddf52a60fa71058cd7edf5e25bb98f4e96c994a5d4a9b0dd3e84604001518560600151604051611232929190611842565b60405180910390a450611243610dc1565b505050565b6001815f015f828254019250508190555050565b5f815f01549050919050565b61127282826107af565b6112b55780826040517fe2517d3f0000000000000000000000000000000000000000000000000000000081526004016112ac929190611a09565b60405180910390fd5b5050565b5f80fd5b5f7fffffffff0000000000000000000000000000000000000000000000000000000082169050919050565b6112f1816112bd565b81146112fb575f80fd5b50565b5f8135905061130c816112e8565b92915050565b5f60208284031215611327576113266112b9565b5b5f611334848285016112fe565b91505092915050565b5f8115159050919050565b6113518161133d565b82525050565b5f60208201905061136a5f830184611348565b92915050565b5f819050919050565b61138281611370565b811461138c575f80fd5b50565b5f8135905061139d81611379565b92915050565b5f602082840312156113b8576113b76112b9565b5b5f6113c58482850161138f565b91505092915050565b5f819050919050565b6113e0816113ce565b81146113ea575f80fd5b50565b5f813590506113fb816113d7565b92915050565b5f60208284031215611416576114156112b9565b5b5f611423848285016113ed565b91505092915050565b611435816113ce565b82525050565b5f60208201905061144e5f83018461142c565b92915050565b5f73ffffffffffffffffffffffffffffffffffffffff82169050919050565b5f61147d82611454565b9050919050565b61148d81611473565b8114611497575f80fd5b50565b5f813590506114a881611484565b92915050565b5f80604083850312156114c4576114c36112b9565b5b5f6114d1858286016113ed565b92505060206114e28582860161149a565b9150509250929050565b6114f581611370565b82525050565b5f60208201905061150e5f8301846114ec565b92915050565b5f805f6060848603121561152b5761152a6112b9565b5b5f6115388682870161149a565b93505060206115498682870161138f565b925050604061155a8682870161138f565b9150509250925092565b61156d81611473565b82525050565b5f6080820190506115865f830187611564565b6115936020830186611564565b6115a060408301856114ec565b6115ad60608301846114ec565b95945050505050565b5f82825260208201905092915050565b7f43616c6c6572206973206e6f7420616e2061646d696e000000000000000000005f82015250565b5f6115fa6016836115b6565b9150611605826115c6565b602082019050919050565b5f6020820190508181035f830152611627816115ee565b9050919050565b7f43616c6c6572206973206e6f74207468652073656c6c657200000000000000005f82015250565b5f6116626018836115b6565b915061166d8261162e565b602082019050919050565b5f6020820190508181035f83015261168f81611656565b9050919050565b5f6060820190506116a95f830186611564565b6116b66020830185611564565b6116c360408301846114ec565b949350505050565b7f496e636f7272656374206c697374696e672066656500000000000000000000005f82015250565b5f6116ff6015836115b6565b915061170a826116cb565b602082019050919050565b5f6020820190508181035f83015261172c816116f3565b9050919050565b5f8151905061174181611484565b92915050565b5f6020828403121561175c5761175b6112b9565b5b5f61176984828501611733565b91505092915050565b7f43616c6c6572206973206e6f7420746865206f776e65720000000000000000005f82015250565b5f6117a66017836115b6565b91506117b182611772565b602082019050919050565b5f6020820190508181035f8301526117d38161179a565b9050919050565b7f5072696365206d7573742062652067726561746572207468616e207a65726f005f82015250565b5f61180e601f836115b6565b9150611819826117da565b602082019050919050565b5f6020820190508181035f83015261183b81611802565b9050919050565b5f6040820190506118555f8301856114ec565b61186260208301846114ec565b9392505050565b7f5265656e7472616e637947756172643a207265656e7472616e742063616c6c005f82015250565b5f61189d601f836115b6565b91506118a882611869565b602082019050919050565b5f6020820190508181035f8301526118ca81611891565b9050919050565b7f4c697374696e67206e6f742061637469766500000000000000000000000000005f82015250565b5f6119056012836115b6565b9150611910826118d1565b602082019050919050565b5f6020820190508181035f830152611932816118f9565b9050919050565b7f43616e6e6f742073656c6c20746f20796f757273656c660000000000000000005f82015250565b5f61196d6017836115b6565b915061197882611939565b602082019050919050565b5f6020820190508181035f83015261199a81611961565b9050919050565b7f496e636f727265637420616d6f756e74000000000000000000000000000000005f82015250565b5f6119d56010836115b6565b91506119e0826119a1565b602082019050919050565b5f6020820190508181035f830152611a02816119c9565b9050919050565b5f604082019050611a1c5f830185611564565b611a29602083018461142c565b939250505056fea2646970667358221220ec279a103657075f7b52cf9e69783477309658d812dc378259daeec99a37f87e64736f6c63430008190033",
					"opcodes": "PUSH1 0x80 PUSH1 0x40 MSTORE PUSH7 0x2386F26FC10000 PUSH1 0x4 SSTORE CALLVALUE DUP1 ISZERO PUSH2 0x1A JUMPI PUSH0 DUP1 REVERT JUMPDEST POP PUSH1 0x1 PUSH0 DUP2 SWAP1 SSTORE POP PUSH2 0x34 PUSH0 DUP1 SHL CALLER PUSH2 0x6B PUSH1 0x20 SHL PUSH1 0x20 SHR JUMP JUMPDEST POP PUSH2 0x65 PUSH32 0xA49807205CE4D355092EF5A8A18F56E8913CF4A201FBE287825B095693C21775 CALLER PUSH2 0x6B PUSH1 0x20 SHL PUSH1 0x20 SHR JUMP JUMPDEST POP PUSH2 0x1CB JUMP JUMPDEST PUSH0 PUSH2 0x7C DUP4 DUP4 PUSH2 0x160 PUSH1 0x20 SHL PUSH1 0x20 SHR JUMP JUMPDEST PUSH2 0x156 JUMPI PUSH1 0x1 DUP1 PUSH0 DUP6 DUP2 MSTORE PUSH1 0x20 ADD SWAP1 DUP2 MSTORE PUSH1 0x20 ADD PUSH0 KECCAK256 PUSH0 ADD PUSH0 DUP5 PUSH20 0xFFFFFFFFFFFFFFFFFFFFFFFFFFFFFFFFFFFFFFFF AND PUSH20 0xFFFFFFFFFFFFFFFFFFFFFFFFFFFFFFFFFFFFFFFF AND DUP2 MSTORE PUSH1 0x20 ADD SWAP1 DUP2 MSTORE PUSH1 0x20 ADD PUSH0 KECCAK256 PUSH0 PUSH2 0x100 EXP DUP2 SLOAD DUP2 PUSH1 0xFF MUL NOT AND SWAP1 DUP4 ISZERO ISZERO MUL OR SWAP1 SSTORE POP PUSH2 0xF3 PUSH2 0x1C4 PUSH1 0x20 SHL PUSH1 0x20 SHR JUMP JUMPDEST PUSH20 0xFFFFFFFFFFFFFFFFFFFFFFFFFFFFFFFFFFFFFFFF AND DUP3 PUSH20 0xFFFFFFFFFFFFFFFFFFFFFFFFFFFFFFFFFFFFFFFF AND DUP5 PUSH32 0x2F8788117E7EFF1D82E926EC794901D17C78024A50270940304540A733656F0D PUSH1 0x40 MLOAD PUSH1 0x40 MLOAD DUP1 SWAP2 SUB SWAP1 LOG4 PUSH1 0x1 SWAP1 POP PUSH2 0x15A JUMP JUMPDEST PUSH0 SWAP1 POP JUMPDEST SWAP3 SWAP2 POP POP JUMP JUMPDEST PUSH0 PUSH1 0x1 PUSH0 DUP5 DUP2 MSTORE PUSH1 0x20 ADD SWAP1 DUP2 MSTORE PUSH1 0x20 ADD PUSH0 KECCAK256 PUSH0 ADD PUSH0 DUP4 PUSH20 0xFFFFFFFFFFFFFFFFFFFFFFFFFFFFFFFFFFFFFFFF AND PUSH20 0xFFFFFFFFFFFFFFFFFFFFFFFFFFFFFFFFFFFFFFFF AND DUP2 MSTORE PUSH1 0x20 ADD SWAP1 DUP2 MSTORE PUSH1 0x20 ADD PUSH0 KECCAK256 PUSH0 SWAP1 SLOAD SWAP1 PUSH2 0x100 EXP SWAP1 DIV PUSH1 0xFF AND SWAP1 POP SWAP3 SWAP2 POP POP JUMP JUMPDEST PUSH0 CALLER SWAP1 POP SWAP1 JUMP JUMPDEST PUSH2 0x1A66 DUP1 PUSH2 0x1D8 PUSH0 CODECOPY PUSH0 RETURN INVALID PUSH1 0x80 PUSH1 0x40 MSTORE PUSH1 0x4 CALLDATASIZE LT PUSH2 0xDC JUMPI PUSH0 CALLDATALOAD PUSH1 0xE0 SHR DUP1 PUSH4 0x6A1B7ECC GT PUSH2 0x7E JUMPI DUP1 PUSH4 0xA217FDDF GT PUSH2 0x58 JUMPI DUP1 PUSH4 0xA217FDDF EQ PUSH2 0x2A4 JUMPI DUP1 PUSH4 0xAD05F1B4 EQ PUSH2 0x2CE JUMPI DUP1 PUSH4 0xD547741F EQ PUSH2 0x2EA JUMPI DUP1 PUSH4 0xDE74E57B EQ PUSH2 0x312 JUMPI PUSH2 0xDC JUMP JUMPDEST DUP1 PUSH4 0x6A1B7ECC EQ PUSH2 0x214 JUMPI DUP1 PUSH4 0x75B238FC EQ PUSH2 0x23E JUMPI DUP1 PUSH4 0x91D14854 EQ PUSH2 0x268 JUMPI PUSH2 0xDC JUMP JUMPDEST DUP1 PUSH4 0x2F2FF15D GT PUSH2 0xBA JUMPI DUP1 PUSH4 0x2F2FF15D EQ PUSH2 0x180 JUMPI DUP1 PUSH4 0x305A67A8 EQ PUSH2 0x1A8 JUMPI DUP1 PUSH4 0x36568ABE EQ PUSH2 0x1D0 JUMPI DUP1 PUSH4 0x51ED8288 EQ PUSH2 0x1F8 JUMPI PUSH2 0xDC JUMP JUMPDEST DUP1 PUSH4 0x1FFC9A7 EQ PUSH2 0xE0 JUMPI DUP1 PUSH4 0x131DBD09 EQ PUSH2 0x11C JUMPI DUP1 PUSH4 0x248A9CA3 EQ PUSH2 0x144 JUMPI JUMPDEST PUSH0 DUP1 REVERT JUMPDEST CALLVALUE DUP1 ISZERO PUSH2 0xEB JUMPI PUSH0 DUP1 REVERT JUMPDEST POP PUSH2 0x106 PUSH1 0x4 DUP1 CALLDATASIZE SUB DUP2 ADD SWAP1 PUSH2 0x101 SWAP2 SWAP1 PUSH2 0x1312 JUMP JUMPDEST PUSH2 0x351 JUMP JUMPDEST PUSH1 0x40 MLOAD PUSH2 0x113 SWAP2 SWAP1 PUSH2 0x1357 JUMP JUMPDEST PUSH1 0x40 MLOAD DUP1 SWAP2 SUB SWAP1 RETURN JUMPDEST CALLVALUE DUP1 ISZERO PUSH2 0x127 JUMPI PUSH0 DUP1 REVERT JUMPDEST POP PUSH2 0x142 PUSH1 0x4 DUP1 CALLDATASIZE SUB DUP2 ADD SWAP1 PUSH2 0x13D SWAP2 SWAP1 PUSH2 0x13A3 JUMP JUMPDEST PUSH2 0x3CA JUMP JUMPDEST STOP JUMPDEST CALLVALUE DUP1 ISZERO PUSH2 0x14F JUMPI PUSH0 DUP1 REVERT JUMPDEST POP PUSH2 0x16A PUSH1 0x4 DUP1 CALLDATASIZE SUB DUP2 ADD SWAP1 PUSH2 0x165 SWAP2 SWAP1 PUSH2 0x1401 JUMP JUMPDEST PUSH2 0x43D JUMP JUMPDEST PUSH1 0x40 MLOAD PUSH2 0x177 SWAP2 SWAP1 PUSH2 0x143B JUMP JUMPDEST PUSH1 0x40 MLOAD DUP1 SWAP2 SUB SWAP1 RETURN JUMPDEST CALLVALUE DUP1 ISZERO PUSH2 0x18B JUMPI PUSH0 DUP1 REVERT JUMPDEST POP PUSH2 0x1A6 PUSH1 0x4 DUP1 CALLDATASIZE SUB DUP2 ADD SWAP1 PUSH2 0x1A1 SWAP2 SWAP1 PUSH2 0x14AE JUMP JUMPDEST PUSH2 0x45A JUMP JUMPDEST STOP JUMPDEST CALLVALUE DUP1 ISZERO PUSH2 0x1B3 JUMPI PUSH0 DUP1 REVERT JUMPDEST POP PUSH2 0x1CE PUSH1 0x4 DUP1 CALLDATASIZE SUB DUP2 ADD SWAP1 PUSH2 0x1C9 SWAP2 SWAP1 PUSH2 0x13A3 JUMP JUMPDEST PUSH2 0x47C JUMP JUMPDEST STOP JUMPDEST CALLVALUE DUP1 ISZERO PUSH2 0x1DB JUMPI PUSH0 DUP1 REVERT JUMPDEST POP PUSH2 0x1F6 PUSH1 0x4 DUP1 CALLDATASIZE SUB DUP2 ADD SWAP1 PUSH2 0x1F1 SWAP2 SWAP1 PUSH2 0x14AE JUMP JUMPDEST PUSH2 0x6EC JUMP JUMPDEST STOP JUMPDEST PUSH2 0x212 PUSH1 0x4 DUP1 CALLDATASIZE SUB DUP2 ADD SWAP1 PUSH2 0x20D SWAP2 SWAP1 PUSH2 0x13A3 JUMP JUMPDEST PUSH2 0x767 JUMP JUMPDEST STOP JUMPDEST CALLVALUE DUP1 ISZERO PUSH2 0x21F JUMPI PUSH0 DUP1 REVERT JUMPDEST POP PUSH2 0x228 PUSH2 0x785 JUMP JUMPDEST PUSH1 0x40 MLOAD PUSH2 0x235 SWAP2 SWAP1 PUSH2 0x14FB JUMP JUMPDEST PUSH1 0x40 MLOAD DUP1 SWAP2 SUB SWAP1 RETURN JUMPDEST CALLVALUE DUP1 ISZERO PUSH2 0x249 JUMPI PUSH0 DUP1 REVERT JUMPDEST POP PUSH2 0x252 PUSH2 0x78B JUMP JUMPDEST PUSH1 0x40 MLOAD PUSH2 0x25F SWAP2 SWAP1 PUSH2 0x143B JUMP JUMPDEST PUSH1 0x40 MLOAD DUP1 SWAP2 SUB SWAP1 RETURN JUMPDEST CALLVALUE DUP1 ISZERO PUSH2 0x273 JUMPI PUSH0 DUP1 REVERT JUMPDEST POP PUSH2 0x28E PUSH1 0x4 DUP1 CALLDATASIZE SUB DUP2 ADD SWAP1 PUSH2 0x289 SWAP2 SWAP1 PUSH2 0x14AE JUMP JUMPDEST PUSH2 0x7AF JUMP JUMPDEST PUSH1 0x40 MLOAD PUSH2 0x29B SWAP2 SWAP1 PUSH2 0x1357 JUMP JUMPDEST PUSH1 0x40 MLOAD DUP1 SWAP2 SUB SWAP1 RETURN JUMPDEST CALLVALUE DUP1 ISZERO PUSH2 0x2AF JUMPI PUSH0 DUP1 REVERT JUMPDEST POP PUSH2 0x2B8 PUSH2 0x813 JUMP JUMPDEST PUSH1 0x40 MLOAD PUSH2 0x2C5 SWAP2 SWAP1 PUSH2 0x143B JUMP JUMPDEST PUSH1 0x40 MLOAD DUP1 SWAP2 SUB SWAP1 RETURN JUMPDEST PUSH2 0x2E8 PUSH1 0x4 DUP1 CALLDATASIZE SUB DUP2 ADD SWAP1 PUSH2 0x2E3 SWAP2 SWAP1 PUSH2 0x1514 JUMP JUMPDEST PUSH2 0x819 JUMP JUMPDEST STOP JUMPDEST CALLVALUE DUP1 ISZERO PUSH2 0x2F5 JUMPI PUSH0 DUP1 REVERT JUMPDEST POP PUSH2 0x310 PUSH1 0x4 DUP1 CALLDATASIZE SUB DUP2 ADD SWAP1 PUSH2 0x30B SWAP2 SWAP1 PUSH2 0x14AE JUMP JUMPDEST PUSH2 0xB82 JUMP JUMPDEST STOP JUMPDEST CALLVALUE DUP1 ISZERO PUSH2 0x31D JUMPI PUSH0 DUP1 REVERT JUMPDEST POP PUSH2 0x338 PUSH1 0x4 DUP1 CALLDATASIZE SUB DUP2 ADD SWAP1 PUSH2 0x333 SWAP2 SWAP1 PUSH2 0x13A3 JUMP JUMPDEST PUSH2 0xBA4 JUMP JUMPDEST PUSH1 0x40 MLOAD PUSH2 0x348 SWAP5 SWAP4 SWAP3 SWAP2 SWAP1 PUSH2 0x1573 JUMP JUMPDEST PUSH1 0x40 MLOAD DUP1 SWAP2 SUB SWAP1 RETURN JUMPDEST PUSH0 PUSH32 0x7965DB0B00000000000000000000000000000000000000000000000000000000 PUSH28 0xFFFFFFFFFFFFFFFFFFFFFFFFFFFFFFFFFFFFFFFFFFFFFFFFFFFFFFFF NOT AND DUP3 PUSH28 0xFFFFFFFFFFFFFFFFFFFFFFFFFFFFFFFFFFFFFFFFFFFFFFFFFFFFFFFF NOT AND EQ DUP1 PUSH2 0x3C3 JUMPI POP PUSH2 0x3C2 DUP3 PUSH2 0xC0E JUMP JUMPDEST JUMPDEST SWAP1 POP SWAP2 SWAP1 POP JUMP JUMPDEST PUSH2 0x3F4 PUSH32 0xA49807205CE4D355092EF5A8A18F56E8913CF4A201FBE287825B095693C21775 CALLER PUSH2 0x7AF JUMP JUMPDEST PUSH2 0x433 JUMPI PUSH1 0x40 MLOAD PUSH32 0x8C379A000000000000000000000000000000000000000000000000000000000 DUP2 MSTORE PUSH1 0x4 ADD PUSH2 0x42A SWAP1 PUSH2 0x1610 JUMP JUMPDEST PUSH1 0x40 MLOAD DUP1 SWAP2 SUB SWAP1 REVERT JUMPDEST DUP1 PUSH1 0x4 DUP2 SWAP1 SSTORE POP POP JUMP JUMPDEST PUSH0 PUSH1 0x1 PUSH0 DUP4 DUP2 MSTORE PUSH1 0x20 ADD SWAP1 DUP2 MSTORE PUSH1 0x20 ADD PUSH0 KECCAK256 PUSH1 0x1 ADD SLOAD SWAP1 POP SWAP2 SWAP1 POP JUMP JUMPDEST PUSH2 0x463 DUP3 PUSH2 0x43D JUMP JUMPDEST PUSH2 0x46C DUP2 PUSH2 0xC77 JUMP JUMPDEST PUSH2 0x476 DUP4 DUP4 PUSH2 0xC8B JUMP JUMPDEST POP POP POP POP JUMP JUMPDEST PUSH2 0x484 PUSH2 0xD74 JUMP JUMPDEST PUSH0 PUSH1 0x3 PUSH0 DUP4 DUP2 MSTORE PUSH1 0x20 ADD SWAP1 DUP2 MSTORE PUSH1 0x20 ADD PUSH0 KECCAK256 PUSH1 0x40 MLOAD DUP1 PUSH1 0x80 ADD PUSH1 0x40 MSTORE SWAP1 DUP2 PUSH0 DUP3 ADD PUSH0 SWAP1 SLOAD SWAP1 PUSH2 0x100 EXP SWAP1 DIV PUSH20 0xFFFFFFFFFFFFFFFFFFFFFFFFFFFFFFFFFFFFFFFF AND PUSH20 0xFFFFFFFFFFFFFFFFFFFFFFFFFFFFFFFFFFFFFFFF AND PUSH20 0xFFFFFFFFFFFFFFFFFFFFFFFFFFFFFFFFFFFFFFFF AND DUP2 MSTORE PUSH1 0x20 ADD PUSH1 0x1 DUP3 ADD PUSH0 SWAP1 SLOAD SWAP1 PUSH2 0x100 EXP SWAP1 DIV PUSH20 0xFFFFFFFFFFFFFFFFFFFFFFFFFFFFFFFFFFFFFFFF AND PUSH20 0xFFFFFFFFFFFFFFFFFFFFFFFFFFFFFFFFFFFFFFFF AND PUSH20 0xFFFFFFFFFFFFFFFFFFFFFFFFFFFFFFFFFFFFFFFF AND DUP2 MSTORE PUSH1 0x20 ADD PUSH1 0x2 DUP3 ADD SLOAD DUP2 MSTORE PUSH1 0x20 ADD PUSH1 0x3 DUP3 ADD SLOAD DUP2 MSTORE POP POP SWAP1 POP CALLER PUSH20 0xFFFFFFFFFFFFFFFFFFFFFFFFFFFFFFFFFFFFFFFF AND DUP2 PUSH0 ADD MLOAD PUSH20 0xFFFFFFFFFFFFFFFFFFFFFFFFFFFFFFFFFFFFFFFF AND EQ PUSH2 0x5D1 JUMPI PUSH1 0x40 MLOAD PUSH32 0x8C379A000000000000000000000000000000000000000000000000000000000 DUP2 MSTORE PUSH1 0x4 ADD PUSH2 0x5C8 SWAP1 PUSH2 0x1678 JUMP JUMPDEST PUSH1 0x40 MLOAD DUP1 SWAP2 SUB SWAP1 REVERT JUMPDEST PUSH1 0x3 PUSH0 DUP4 DUP2 MSTORE PUSH1 0x20 ADD SWAP1 DUP2 MSTORE PUSH1 0x20 ADD PUSH0 KECCAK256 PUSH0 DUP1 DUP3 ADD PUSH0 PUSH2 0x100 EXP DUP2 SLOAD SWAP1 PUSH20 0xFFFFFFFFFFFFFFFFFFFFFFFFFFFFFFFFFFFFFFFF MUL NOT AND SWAP1 SSTORE PUSH1 0x1 DUP3 ADD PUSH0 PUSH2 0x100 EXP DUP2 SLOAD SWAP1 PUSH20 0xFFFFFFFFFFFFFFFFFFFFFFFFFFFFFFFFFFFFFFFF MUL NOT AND SWAP1 SSTORE PUSH1 0x2 DUP3 ADD PUSH0 SWAP1 SSTORE PUSH1 0x3 DUP3 ADD PUSH0 SWAP1 SSTORE POP POP DUP1 PUSH1 0x20 ADD MLOAD PUSH20 0xFFFFFFFFFFFFFFFFFFFFFFFFFFFFFFFFFFFFFFFF AND PUSH4 0x23B872DD ADDRESS DUP4 PUSH0 ADD MLOAD DUP5 PUSH1 0x40 ADD MLOAD PUSH1 0x40 MLOAD DUP5 PUSH4 0xFFFFFFFF AND PUSH1 0xE0 SHL DUP2 MSTORE PUSH1 0x4 ADD PUSH2 0x686 SWAP4 SWAP3 SWAP2 SWAP1 PUSH2 0x1696 JUMP JUMPDEST PUSH0 PUSH1 0x40 MLOAD DUP1 DUP4 SUB DUP2 PUSH0 DUP8 DUP1 EXTCODESIZE ISZERO DUP1 ISZERO PUSH2 0x69D JUMPI PUSH0 DUP1 REVERT JUMPDEST POP GAS CALL ISZERO DUP1 ISZERO PUSH2 0x6AF JUMPI RETURNDATASIZE PUSH0 DUP1 RETURNDATACOPY RETURNDATASIZE PUSH0 REVERT JUMPDEST POP POP POP POP DUP2 PUSH32 0x411AEE90354C51B1B04CD563FCAB2617142A9D50DA19232D888547C8A1B7FD8A PUSH1 0x40 MLOAD PUSH1 0x40 MLOAD DUP1 SWAP2 SUB SWAP1 LOG2 POP PUSH2 0x6E9 PUSH2 0xDC1 JUMP JUMPDEST POP JUMP JUMPDEST PUSH2 0x6F4 PUSH2 0xDCA JUMP JUMPDEST PUSH20 0xFFFFFFFFFFFFFFFFFFFFFFFFFFFFFFFFFFFFFFFF AND DUP2 PUSH20 0xFFFFFFFFFFFFFFFFFFFFFFFFFFFFFFFFFFFFFFFF AND EQ PUSH2 0x758 JUMPI PUSH1 0x40 MLOAD PUSH32 0x6697B23200000000000000000000000000000000000000000000000000000000 DUP2 MSTORE PUSH1 0x4 ADD PUSH1 0x40 MLOAD DUP1 SWAP2 SUB SWAP1 REVERT JUMPDEST PUSH2 0x762 DUP3 DUP3 PUSH2 0xDD1 JUMP JUMPDEST POP POP POP JUMP JUMPDEST PUSH2 0x76F PUSH2 0xD74 JUMP JUMPDEST PUSH2 0x77A DUP2 CALLER CALLVALUE PUSH2 0xEBB JUMP JUMPDEST PUSH2 0x782 PUSH2 0xDC1 JUMP JUMPDEST POP JUMP JUMPDEST PUSH1 0x4 SLOAD DUP2 JUMP JUMPDEST PUSH32 0xA49807205CE4D355092EF5A8A18F56E8913CF4A201FBE287825B095693C21775 DUP2 JUMP JUMPDEST PUSH0 PUSH1 0x1 PUSH0 DUP5 DUP2 MSTORE PUSH1 0x20 ADD SWAP1 DUP2 MSTORE PUSH1 0x20 ADD PUSH0 KECCAK256 PUSH0 ADD PUSH0 DUP4 PUSH20 0xFFFFFFFFFFFFFFFFFFFFFFFFFFFFFFFFFFFFFFFF AND PUSH20 0xFFFFFFFFFFFFFFFFFFFFFFFFFFFFFFFFFFFFFFFF AND DUP2 MSTORE PUSH1 0x20 ADD SWAP1 DUP2 MSTORE PUSH1 0x20 ADD PUSH0 KECCAK256 PUSH0 SWAP1 SLOAD SWAP1 PUSH2 0x100 EXP SWAP1 DIV PUSH1 0xFF AND SWAP1 POP SWAP3 SWAP2 POP POP JUMP JUMPDEST PUSH0 DUP1 SHL DUP2 JUMP JUMPDEST PUSH2 0x821 PUSH2 0xD74 JUMP JUMPDEST PUSH1 0x4 SLOAD CALLVALUE EQ PUSH2 0x865 JUMPI PUSH1 0x40 MLOAD PUSH32 0x8C379A000000000000000000000000000000000000000000000000000000000 DUP2 MSTORE PUSH1 0x4 ADD PUSH2 0x85C SWAP1 PUSH2 0x1715 JUMP JUMPDEST PUSH1 0x40 MLOAD DUP1 SWAP2 SUB SWAP1 REVERT JUMPDEST CALLER PUSH20 0xFFFFFFFFFFFFFFFFFFFFFFFFFFFFFFFFFFFFFFFF AND DUP4 PUSH20 0xFFFFFFFFFFFFFFFFFFFFFFFFFFFFFFFFFFFFFFFF AND PUSH4 0x6352211E DUP5 PUSH1 0x40 MLOAD DUP3 PUSH4 0xFFFFFFFF AND PUSH1 0xE0 SHL DUP2 MSTORE PUSH1 0x4 ADD PUSH2 0x8B5 SWAP2 SWAP1 PUSH2 0x14FB JUMP JUMPDEST PUSH1 0x20 PUSH1 0x40 MLOAD DUP1 DUP4 SUB DUP2 DUP7 GAS STATICCALL ISZERO DUP1 ISZERO PUSH2 0x8D0 JUMPI RETURNDATASIZE PUSH0 DUP1 RETURNDATACOPY RETURNDATASIZE PUSH0 REVERT JUMPDEST POP POP POP POP PUSH1 0x40 MLOAD RETURNDATASIZE PUSH1 0x1F NOT PUSH1 0x1F DUP3 ADD AND DUP3 ADD DUP1 PUSH1 0x40 MSTORE POP DUP2 ADD SWAP1 PUSH2 0x8F4 SWAP2 SWAP1 PUSH2 0x1747 JUMP JUMPDEST PUSH20 0xFFFFFFFFFFFFFFFFFFFFFFFFFFFFFFFFFFFFFFFF AND EQ PUSH2 0x94A JUMPI PUSH1 0x40 MLOAD PUSH32 0x8C379A000000000000000000000000000000000000000000000000000000000 DUP2 MSTORE PUSH1 0x4 ADD PUSH2 0x941 SWAP1 PUSH2 0x17BC JUMP JUMPDEST PUSH1 0x40 MLOAD DUP1 SWAP2 SUB SWAP1 REVERT JUMPDEST PUSH0 DUP2 GT PUSH2 0x98C JUMPI PUSH1 0x40 MLOAD PUSH32 0x8C379A000000000000000000000000000000000000000000000000000000000 DUP2 MSTORE PUSH1 0x4 ADD PUSH2 0x983 SWAP1 PUSH2 0x1824 JUMP JUMPDEST PUSH1 0x40 MLOAD DUP1 SWAP2 SUB SWAP1 REVERT JUMPDEST DUP3 PUSH20 0xFFFFFFFFFFFFFFFFFFFFFFFFFFFFFFFFFFFFFFFF AND PUSH4 0x23B872DD CALLER ADDRESS DUP6 PUSH1 0x40 MLOAD DUP5 PUSH4 0xFFFFFFFF AND PUSH1 0xE0 SHL DUP2 MSTORE PUSH1 0x4 ADD PUSH2 0x9C9 SWAP4 SWAP3 SWAP2 SWAP1 PUSH2 0x1696 JUMP JUMPDEST PUSH0 PUSH1 0x40 MLOAD DUP1 DUP4 SUB DUP2 PUSH0 DUP8 DUP1 EXTCODESIZE ISZERO DUP1 ISZERO PUSH2 0x9E0 JUMPI PUSH0 DUP1 REVERT JUMPDEST POP GAS CALL ISZERO DUP1 ISZERO PUSH2 0x9F2 JUMPI RETURNDATASIZE PUSH0 DUP1 RETURNDATACOPY RETURNDATASIZE PUSH0 REVERT JUMPDEST POP POP POP POP PUSH2 0xA00 PUSH1 0x2 PUSH2 0x1248 JUMP JUMPDEST PUSH0 PUSH2 0xA0B PUSH1 0x2 PUSH2 0x125C JUMP JUMPDEST SWAP1 POP PUSH1 0x40 MLOAD DUP1 PUSH1 0x80 ADD PUSH1 0x40 MSTORE DUP1 CALLER PUSH20 0xFFFFFFFFFFFFFFFFFFFFFFFFFFFFFFFFFFFFFFFF AND DUP2 MSTORE PUSH1 0x20 ADD DUP6 PUSH20 0xFFFFFFFFFFFFFFFFFFFFFFFFFFFFFFFFFFFFFFFF AND DUP2 MSTORE PUSH1 0x20 ADD DUP5 DUP2 MSTORE PUSH1 0x20 ADD DUP4 DUP2 MSTORE POP PUSH1 0x3 PUSH0 DUP4 DUP2 MSTORE PUSH1 0x20 ADD SWAP1 DUP2 MSTORE PUSH1 0x20 ADD PUSH0 KECCAK256 PUSH0 DUP3 ADD MLOAD DUP2 PUSH0 ADD PUSH0 PUSH2 0x100 EXP DUP2 SLOAD DUP2 PUSH20 0xFFFFFFFFFFFFFFFFFFFFFFFFFFFFFFFFFFFFFFFF MUL NOT AND SWAP1 DUP4 PUSH20 0xFFFFFFFFFFFFFFFFFFFFFFFFFFFFFFFFFFFFFFFF AND MUL OR SWAP1 SSTORE POP PUSH1 0x20 DUP3 ADD MLOAD DUP2 PUSH1 0x1 ADD PUSH0 PUSH2 0x100 EXP DUP2 SLOAD DUP2 PUSH20 0xFFFFFFFFFFFFFFFFFFFFFFFFFFFFFFFFFFFFFFFF MUL NOT AND SWAP1 DUP4 PUSH20 0xFFFFFFFFFFFFFFFFFFFFFFFFFFFFFFFFFFFFFFFF AND MUL OR SWAP1 SSTORE POP PUSH1 0x40 DUP3 ADD MLOAD DUP2 PUSH1 0x2 ADD SSTORE PUSH1 0x60 DUP3 ADD MLOAD DUP2 PUSH1 0x3 ADD SSTORE SWAP1 POP POP DUP4 PUSH20 0xFFFFFFFFFFFFFFFFFFFFFFFFFFFFFFFFFFFFFFFF AND CALLER PUSH20 0xFFFFFFFFFFFFFFFFFFFFFFFFFFFFFFFFFFFFFFFF AND DUP3 PUSH32 0x723F73331EAEE88EEC7FC68EF60AB6ED15E4B90D0472B55EB92FA43910BAB6DD DUP7 DUP7 PUSH1 0x40 MLOAD PUSH2 0xB6C SWAP3 SWAP2 SWAP1 PUSH2 0x1842 JUMP JUMPDEST PUSH1 0x40 MLOAD DUP1 SWAP2 SUB SWAP1 LOG4 POP PUSH2 0xB7D PUSH2 0xDC1 JUMP JUMPDEST POP POP POP JUMP JUMPDEST PUSH2 0xB8B DUP3 PUSH2 0x43D JUMP JUMPDEST PUSH2 0xB94 DUP2 PUSH2 0xC77 JUMP JUMPDEST PUSH2 0xB9E DUP4 DUP4 PUSH2 0xDD1 JUMP JUMPDEST POP POP POP POP JUMP JUMPDEST PUSH1 0x3 PUSH1 0x20 MSTORE DUP1 PUSH0 MSTORE PUSH1 0x40 PUSH0 KECCAK256 PUSH0 SWAP2 POP SWAP1 POP DUP1 PUSH0 ADD PUSH0 SWAP1 SLOAD SWAP1 PUSH2 0x100 EXP SWAP1 DIV PUSH20 0xFFFFFFFFFFFFFFFFFFFFFFFFFFFFFFFFFFFFFFFF AND SWAP1 DUP1 PUSH1 0x1 ADD PUSH0 SWAP1 SLOAD SWAP1 PUSH2 0x100 EXP SWAP1 DIV PUSH20 0xFFFFFFFFFFFFFFFFFFFFFFFFFFFFFFFFFFFFFFFF AND SWAP1 DUP1 PUSH1 0x2 ADD SLOAD SWAP1 DUP1 PUSH1 0x3 ADD SLOAD SWAP1 POP DUP5 JUMP JUMPDEST PUSH0 PUSH32 0x1FFC9A700000000000000000000000000000000000000000000000000000000 PUSH28 0xFFFFFFFFFFFFFFFFFFFFFFFFFFFFFFFFFFFFFFFFFFFFFFFFFFFFFFFF NOT AND DUP3 PUSH28 0xFFFFFFFFFFFFFFFFFFFFFFFFFFFFFFFFFFFFFFFFFFFFFFFFFFFFFFFF NOT AND EQ SWAP1 POP SWAP2 SWAP1 POP JUMP JUMPDEST PUSH2 0xC88 DUP2 PUSH2 0xC83 PUSH2 0xDCA JUMP JUMPDEST PUSH2 0x1268 JUMP JUMPDEST POP JUMP JUMPDEST PUSH0 PUSH2 0xC96 DUP4 DUP4 PUSH2 0x7AF JUMP JUMPDEST PUSH2 0xD6A JUMPI PUSH1 0x1 DUP1 PUSH0 DUP6 DUP2 MSTORE PUSH1 0x20 ADD SWAP1 DUP2 MSTORE PUSH1 0x20 ADD PUSH0 KECCAK256 PUSH0 ADD PUSH0 DUP5 PUSH20 0xFFFFFFFFFFFFFFFFFFFFFFFFFFFFFFFFFFFFFFFF AND PUSH20 0xFFFFFFFFFFFFFFFFFFFFFFFFFFFFFFFFFFFFFFFF AND DUP2 MSTORE PUSH1 0x20 ADD SWAP1 DUP2 MSTORE PUSH1 0x20 ADD PUSH0 KECCAK256 PUSH0 PUSH2 0x100 EXP DUP2 SLOAD DUP2 PUSH1 0xFF MUL NOT AND SWAP1 DUP4 ISZERO ISZERO MUL OR SWAP1 SSTORE POP PUSH2 0xD07 PUSH2 0xDCA JUMP JUMPDEST PUSH20 0xFFFFFFFFFFFFFFFFFFFFFFFFFFFFFFFFFFFFFFFF AND DUP3 PUSH20 0xFFFFFFFFFFFFFFFFFFFFFFFFFFFFFFFFFFFFFFFF AND DUP5 PUSH32 0x2F8788117E7EFF1D82E926EC794901D17C78024A50270940304540A733656F0D PUSH1 0x40 MLOAD PUSH1 0x40 MLOAD DUP1 SWAP2 SUB SWAP1 LOG4 PUSH1 0x1 SWAP1 POP PUSH2 0xD6E JUMP JUMPDEST PUSH0 SWAP1 POP JUMPDEST SWAP3 SWAP2 POP POP JUMP JUMPDEST PUSH1 0x2 PUSH0 SLOAD SUB PUSH2 0xDB8 JUMPI PUSH1 0x40 MLOAD PUSH32 0x8C379A000000000000000000000000000000000000000000000000000000000 DUP2 MSTORE PUSH1 0x4 ADD PUSH2 0xDAF SWAP1 PUSH2 0x18B3 JUMP JUMPDEST PUSH1 0x40 MLOAD DUP1 SWAP2 SUB SWAP1 REVERT JUMPDEST PUSH1 0x2 PUSH0 DUP2 SWAP1 SSTORE POP JUMP JUMPDEST PUSH1 0x1 PUSH0 DUP2 SWAP1 SSTORE POP JUMP JUMPDEST PUSH0 CALLER SWAP1 POP SWAP1 JUMP JUMPDEST PUSH0 PUSH2 0xDDC DUP4 DUP4 PUSH2 0x7AF JUMP JUMPDEST ISZERO PUSH2 0xEB1 JUMPI PUSH0 PUSH1 0x1 PUSH0 DUP6 DUP2 MSTORE PUSH1 0x20 ADD SWAP1 DUP2 MSTORE PUSH1 0x20 ADD PUSH0 KECCAK256 PUSH0 ADD PUSH0 DUP5 PUSH20 0xFFFFFFFFFFFFFFFFFFFFFFFFFFFFFFFFFFFFFFFF AND PUSH20 0xFFFFFFFFFFFFFFFFFFFFFFFFFFFFFFFFFFFFFFFF AND DUP2 MSTORE PUSH1 0x20 ADD SWAP1 DUP2 MSTORE PUSH1 0x20 ADD PUSH0 KECCAK256 PUSH0 PUSH2 0x100 EXP DUP2 SLOAD DUP2 PUSH1 0xFF MUL NOT AND SWAP1 DUP4 ISZERO ISZERO MUL OR SWAP1 SSTORE POP PUSH2 0xE4E PUSH2 0xDCA JUMP JUMPDEST PUSH20 0xFFFFFFFFFFFFFFFFFFFFFFFFFFFFFFFFFFFFFFFF AND DUP3 PUSH20 0xFFFFFFFFFFFFFFFFFFFFFFFFFFFFFFFFFFFFFFFF AND DUP5 PUSH32 0xF6391F5C32D9C69D2A47EA670B442974B53935D1EDC7FD64EB21E047A839171B PUSH1 0x40 MLOAD PUSH1 0x40 MLOAD DUP1 SWAP2 SUB SWAP1 LOG4 PUSH1 0x1 SWAP1 POP PUSH2 0xEB5 JUMP JUMPDEST PUSH0 SWAP1 POP JUMPDEST SWAP3 SWAP2 POP POP JUMP JUMPDEST PUSH2 0xEC3 PUSH2 0xD74 JUMP JUMPDEST PUSH0 PUSH1 0x3 PUSH0 DUP6 DUP2 MSTORE PUSH1 0x20 ADD SWAP1 DUP2 MSTORE PUSH1 0x20 ADD PUSH0 KECCAK256 PUSH1 0x40 MLOAD DUP1 PUSH1 0x80 ADD PUSH1 0x40 MSTORE SWAP1 DUP2 PUSH0 DUP3 ADD PUSH0 SWAP1 SLOAD SWAP1 PUSH2 0x100 EXP SWAP1 DIV PUSH20 0xFFFFFFFFFFFFFFFFFFFFFFFFFFFFFFFFFFFFFFFF AND PUSH20 0xFFFFFFFFFFFFFFFFFFFFFFFFFFFFFFFFFFFFFFFF AND PUSH20 0xFFFFFFFFFFFFFFFFFFFFFFFFFFFFFFFFFFFFFFFF AND DUP2 MSTORE PUSH1 0x20 ADD PUSH1 0x1 DUP3 ADD PUSH0 SWAP1 SLOAD SWAP1 PUSH2 0x100 EXP SWAP1 DIV PUSH20 0xFFFFFFFFFFFFFFFFFFFFFFFFFFFFFFFFFFFFFFFF AND PUSH20 0xFFFFFFFFFFFFFFFFFFFFFFFFFFFFFFFFFFFFFFFF AND PUSH20 0xFFFFFFFFFFFFFFFFFFFFFFFFFFFFFFFFFFFFFFFF AND DUP2 MSTORE PUSH1 0x20 ADD PUSH1 0x2 DUP3 ADD SLOAD DUP2 MSTORE PUSH1 0x20 ADD PUSH1 0x3 DUP3 ADD SLOAD DUP2 MSTORE POP POP SWAP1 POP PUSH0 DUP2 PUSH1 0x60 ADD MLOAD GT PUSH2 0xFE5 JUMPI PUSH1 0x40 MLOAD PUSH32 0x8C379A000000000000000000000000000000000000000000000000000000000 DUP2 MSTORE PUSH1 0x4 ADD PUSH2 0xFDC SWAP1 PUSH2 0x191B JUMP JUMPDEST PUSH1 0x40 MLOAD DUP1 SWAP2 SUB SWAP1 REVERT JUMPDEST DUP1 PUSH0 ADD MLOAD PUSH20 0xFFFFFFFFFFFFFFFFFFFFFFFFFFFFFFFFFFFFFFFF AND DUP4 PUSH20 0xFFFFFFFFFFFFFFFFFFFFFFFFFFFFFFFFFFFFFFFF AND EQ PUSH2 0x1056 JUMPI PUSH1 0x40 MLOAD PUSH32 0x8C379A000000000000000000000000000000000000000000000000000000000 DUP2 MSTORE PUSH1 0x4 ADD PUSH2 0x104D SWAP1 PUSH2 0x1983 JUMP JUMPDEST PUSH1 0x40 MLOAD DUP1 SWAP2 SUB SWAP1 REVERT JUMPDEST DUP1 PUSH1 0x60 ADD MLOAD DUP3 EQ PUSH2 0x109C JUMPI PUSH1 0x40 MLOAD PUSH32 0x8C379A000000000000000000000000000000000000000000000000000000000 DUP2 MSTORE PUSH1 0x4 ADD PUSH2 0x1093 SWAP1 PUSH2 0x19EB JUMP JUMPDEST PUSH1 0x40 MLOAD DUP1 SWAP2 SUB SWAP1 REVERT JUMPDEST PUSH1 0x3 PUSH0 DUP6 DUP2 MSTORE PUSH1 0x20 ADD SWAP1 DUP2 MSTORE PUSH1 0x20 ADD PUSH0 KECCAK256 PUSH0 DUP1 DUP3 ADD PUSH0 PUSH2 0x100 EXP DUP2 SLOAD SWAP1 PUSH20 0xFFFFFFFFFFFFFFFFFFFFFFFFFFFFFFFFFFFFFFFF MUL NOT AND SWAP1 SSTORE PUSH1 0x1 DUP3 ADD PUSH0 PUSH2 0x100 EXP DUP2 SLOAD SWAP1 PUSH20 0xFFFFFFFFFFFFFFFFFFFFFFFFFFFFFFFFFFFFFFFF MUL NOT AND SWAP1 SSTORE PUSH1 0x2 DUP3 ADD PUSH0 SWAP1 SSTORE PUSH1 0x3 DUP3 ADD PUSH0 SWAP1 SSTORE POP POP DUP1 PUSH1 0x20 ADD MLOAD PUSH20 0xFFFFFFFFFFFFFFFFFFFFFFFFFFFFFFFFFFFFFFFF AND PUSH4 0x23B872DD ADDRESS DUP6 DUP5 PUSH1 0x40 ADD MLOAD PUSH1 0x40 MLOAD DUP5 PUSH4 0xFFFFFFFF AND PUSH1 0xE0 SHL DUP2 MSTORE PUSH1 0x4 ADD PUSH2 0x114E SWAP4 SWAP3 SWAP2 SWAP1 PUSH2 0x1696 JUMP JUMPDEST PUSH0 PUSH1 0x40 MLOAD DUP1 DUP4 SUB DUP2 PUSH0 DUP8 DUP1 EXTCODESIZE ISZERO DUP1 ISZERO PUSH2 0x1165 JUMPI PUSH0 DUP1 REVERT JUMPDEST POP GAS CALL ISZERO DUP1 ISZERO PUSH2 0x1177 JUMPI RETURNDATASIZE PUSH0 DUP1 RETURNDATACOPY RETURNDATASIZE PUSH0 REVERT JUMPDEST POP POP POP POP DUP1 PUSH0 ADD MLOAD PUSH20 0xFFFFFFFFFFFFFFFFFFFFFFFFFFFFFFFFFFFFFFFF AND PUSH2 0x8FC DUP3 PUSH1 0x60 ADD MLOAD SWAP1 DUP2 ISZERO MUL SWAP1 PUSH1 0x40 MLOAD PUSH0 PUSH1 0x40 MLOAD DUP1 DUP4 SUB DUP2 DUP6 DUP9 DUP9 CALL SWAP4 POP POP POP POP ISZERO DUP1 ISZERO PUSH2 0x11C5 JUMPI RETURNDATASIZE PUSH0 DUP1 RETURNDATACOPY RETURNDATASIZE PUSH0 REVERT JUMPDEST POP DUP1 PUSH1 0x20 ADD MLOAD PUSH20 0xFFFFFFFFFFFFFFFFFFFFFFFFFFFFFFFFFFFFFFFF AND CALLER PUSH20 0xFFFFFFFFFFFFFFFFFFFFFFFFFFFFFFFFFFFFFFFF AND DUP6 PUSH32 0xF3DEBAF22196A6DDF52A60FA71058CD7EDF5E25BB98F4E96C994A5D4A9B0DD3E DUP5 PUSH1 0x40 ADD MLOAD DUP6 PUSH1 0x60 ADD MLOAD PUSH1 0x40 MLOAD PUSH2 0x1232 SWAP3 SWAP2 SWAP1 PUSH2 0x1842 JUMP JUMPDEST PUSH1 0x40 MLOAD DUP1 SWAP2 SUB SWAP1 LOG4 POP PUSH2 0x1243 PUSH2 0xDC1 JUMP JUMPDEST POP POP POP JUMP JUMPDEST PUSH1 0x1 DUP2 PUSH0 ADD PUSH0 DUP3 DUP3 SLOAD ADD SWAP3 POP POP DUP2 SWAP1 SSTORE POP POP JUMP JUMPDEST PUSH0 DUP2 PUSH0 ADD SLOAD SWAP1 POP SWAP2 SWAP1 POP JUMP JUMPDEST PUSH2 0x1272 DUP3 DUP3 PUSH2 0x7AF JUMP JUMPDEST PUSH2 0x12B5 JUMPI DUP1 DUP3 PUSH1 0x40 MLOAD PUSH32 0xE2517D3F00000000000000000000000000000000000000000000000000000000 DUP2 MSTORE PUSH1 0x4 ADD PUSH2 0x12AC SWAP3 SWAP2 SWAP1 PUSH2 0x1A09 JUMP JUMPDEST PUSH1 0x40 MLOAD DUP1 SWAP2 SUB SWAP1 REVERT JUMPDEST POP POP JUMP JUMPDEST PUSH0 DUP1 REVERT JUMPDEST PUSH0 PUSH32 0xFFFFFFFF00000000000000000000000000000000000000000000000000000000 DUP3 AND SWAP1 POP SWAP2 SWAP1 POP JUMP JUMPDEST PUSH2 0x12F1 DUP2 PUSH2 0x12BD JUMP JUMPDEST DUP2 EQ PUSH2 0x12FB JUMPI PUSH0 DUP1 REVERT JUMPDEST POP JUMP JUMPDEST PUSH0 DUP2 CALLDATALOAD SWAP1 POP PUSH2 0x130C DUP2 PUSH2 0x12E8 JUMP JUMPDEST SWAP3 SWAP2 POP POP JUMP JUMPDEST PUSH0 PUSH1 0x20 DUP3 DUP5 SUB SLT ISZERO PUSH2 0x1327 JUMPI PUSH2 0x1326 PUSH2 0x12B9 JUMP JUMPDEST JUMPDEST PUSH0 PUSH2 0x1334 DUP5 DUP3 DUP6 ADD PUSH2 0x12FE JUMP JUMPDEST SWAP2 POP POP SWAP3 SWAP2 POP POP JUMP JUMPDEST PUSH0 DUP2 ISZERO ISZERO SWAP1 POP SWAP2 SWAP1 POP JUMP JUMPDEST PUSH2 0x1351 DUP2 PUSH2 0x133D JUMP JUMPDEST DUP3 MSTORE POP POP JUMP JUMPDEST PUSH0 PUSH1 0x20 DUP3 ADD SWAP1 POP PUSH2 0x136A PUSH0 DUP4 ADD DUP5 PUSH2 0x1348 JUMP JUMPDEST SWAP3 SWAP2 POP POP JUMP JUMPDEST PUSH0 DUP2 SWAP1 POP SWAP2 SWAP1 POP JUMP JUMPDEST PUSH2 0x1382 DUP2 PUSH2 0x1370 JUMP JUMPDEST DUP2 EQ PUSH2 0x138C JUMPI PUSH0 DUP1 REVERT JUMPDEST POP JUMP JUMPDEST PUSH0 DUP2 CALLDATALOAD SWAP1 POP PUSH2 0x139D DUP2 PUSH2 0x1379 JUMP JUMPDEST SWAP3 SWAP2 POP POP JUMP JUMPDEST PUSH0 PUSH1 0x20 DUP3 DUP5 SUB SLT ISZERO PUSH2 0x13B8 JUMPI PUSH2 0x13B7 PUSH2 0x12B9 JUMP JUMPDEST JUMPDEST PUSH0 PUSH2 0x13C5 DUP5 DUP3 DUP6 ADD PUSH2 0x138F JUMP JUMPDEST SWAP2 POP POP SWAP3 SWAP2 POP POP JUMP JUMPDEST PUSH0 DUP2 SWAP1 POP SWAP2 SWAP1 POP JUMP JUMPDEST PUSH2 0x13E0 DUP2 PUSH2 0x13CE JUMP JUMPDEST DUP2 EQ PUSH2 0x13EA JUMPI PUSH0 DUP1 REVERT JUMPDEST POP JUMP JUMPDEST PUSH0 DUP2 CALLDATALOAD SWAP1 POP PUSH2 0x13FB DUP2 PUSH2 0x13D7 JUMP JUMPDEST SWAP3 SWAP2 POP POP JUMP JUMPDEST PUSH0 PUSH1 0x20 DUP3 DUP5 SUB SLT ISZERO PUSH2 0x1416 JUMPI PUSH2 0x1415 PUSH2 0x12B9 JUMP JUMPDEST JUMPDEST PUSH0 PUSH2 0x1423 DUP5 DUP3 DUP6 ADD PUSH2 0x13ED JUMP JUMPDEST SWAP2 POP POP SWAP3 SWAP2 POP POP JUMP JUMPDEST PUSH2 0x1435 DUP2 PUSH2 0x13CE JUMP JUMPDEST DUP3 MSTORE POP POP JUMP JUMPDEST PUSH0 PUSH1 0x20 DUP3 ADD SWAP1 POP PUSH2 0x144E PUSH0 DUP4 ADD DUP5 PUSH2 0x142C JUMP JUMPDEST SWAP3 SWAP2 POP POP JUMP JUMPDEST PUSH0 PUSH20 0xFFFFFFFFFFFFFFFFFFFFFFFFFFFFFFFFFFFFFFFF DUP3 AND SWAP1 POP SWAP2 SWAP1 POP JUMP JUMPDEST PUSH0 PUSH2 0x147D DUP3 PUSH2 0x1454 JUMP JUMPDEST SWAP1 POP SWAP2 SWAP1 POP JUMP JUMPDEST PUSH2 0x148D DUP2 PUSH2 0x1473 JUMP JUMPDEST DUP2 EQ PUSH2 0x1497 JUMPI PUSH0 DUP1 REVERT JUMPDEST POP JUMP JUMPDEST PUSH0 DUP2 CALLDATALOAD SWAP1 POP PUSH2 0x14A8 DUP2 PUSH2 0x1484 JUMP JUMPDEST SWAP3 SWAP2 POP POP JUMP JUMPDEST PUSH0 DUP1 PUSH1 0x40 DUP4 DUP6 SUB SLT ISZERO PUSH2 0x14C4 JUMPI PUSH2 0x14C3 PUSH2 0x12B9 JUMP JUMPDEST JUMPDEST PUSH0 PUSH2 0x14D1 DUP6 DUP3 DUP7 ADD PUSH2 0x13ED JUMP JUMPDEST SWAP3 POP POP PUSH1 0x20 PUSH2 0x14E2 DUP6 DUP3 DUP7 ADD PUSH2 0x149A JUMP JUMPDEST SWAP2 POP POP SWAP3 POP SWAP3 SWAP1 POP JUMP JUMPDEST PUSH2 0x14F5 DUP2 PUSH2 0x1370 JUMP JUMPDEST DUP3 MSTORE POP POP JUMP JUMPDEST PUSH0 PUSH1 0x20 DUP3 ADD SWAP1 POP PUSH2 0x150E PUSH0 DUP4 ADD DUP5 PUSH2 0x14EC JUMP JUMPDEST SWAP3 SWAP2 POP POP JUMP JUMPDEST PUSH0 DUP1 PUSH0 PUSH1 0x60 DUP5 DUP7 SUB SLT ISZERO PUSH2 0x152B JUMPI PUSH2 0x152A PUSH2 0x12B9 JUMP JUMPDEST JUMPDEST PUSH0 PUSH2 0x1538 DUP7 DUP3 DUP8 ADD PUSH2 0x149A JUMP JUMPDEST SWAP4 POP POP PUSH1 0x20 PUSH2 0x1549 DUP7 DUP3 DUP8 ADD PUSH2 0x138F JUMP JUMPDEST SWAP3 POP POP PUSH1 0x40 PUSH2 0x155A DUP7 DUP3 DUP8 ADD PUSH2 0x138F JUMP JUMPDEST SWAP2 POP POP SWAP3 POP SWAP3 POP SWAP3 JUMP JUMPDEST PUSH2 0x156D DUP2 PUSH2 0x1473 JUMP JUMPDEST DUP3 MSTORE POP POP JUMP JUMPDEST PUSH0 PUSH1 0x80 DUP3 ADD SWAP1 POP PUSH2 0x1586 PUSH0 DUP4 ADD DUP8 PUSH2 0x1564 JUMP JUMPDEST PUSH2 0x1593 PUSH1 0x20 DUP4 ADD DUP7 PUSH2 0x1564 JUMP JUMPDEST PUSH2 0x15A0 PUSH1 0x40 DUP4 ADD DUP6 PUSH2 0x14EC JUMP JUMPDEST PUSH2 0x15AD PUSH1 0x60 DUP4 ADD DUP5 PUSH2 0x14EC JUMP JUMPDEST SWAP6 SWAP5 POP POP POP POP POP JUMP JUMPDEST PUSH0 DUP3 DUP3 MSTORE PUSH1 0x20 DUP3 ADD SWAP1 POP SWAP3 SWAP2 POP POP JUMP JUMPDEST PUSH32 0x43616C6C6572206973206E6F7420616E2061646D696E00000000000000000000 PUSH0 DUP3 ADD MSTORE POP JUMP JUMPDEST PUSH0 PUSH2 0x15FA PUSH1 0x16 DUP4 PUSH2 0x15B6 JUMP JUMPDEST SWAP2 POP PUSH2 0x1605 DUP3 PUSH2 0x15C6 JUMP JUMPDEST PUSH1 0x20 DUP3 ADD SWAP1 POP SWAP2 SWAP1 POP JUMP JUMPDEST PUSH0 PUSH1 0x20 DUP3 ADD SWAP1 POP DUP2 DUP2 SUB PUSH0 DUP4 ADD MSTORE PUSH2 0x1627 DUP2 PUSH2 0x15EE JUMP JUMPDEST SWAP1 POP SWAP2 SWAP1 POP JUMP JUMPDEST PUSH32 0x43616C6C6572206973206E6F74207468652073656C6C65720000000000000000 PUSH0 DUP3 ADD MSTORE POP JUMP JUMPDEST PUSH0 PUSH2 0x1662 PUSH1 0x18 DUP4 PUSH2 0x15B6 JUMP JUMPDEST SWAP2 POP PUSH2 0x166D DUP3 PUSH2 0x162E JUMP JUMPDEST PUSH1 0x20 DUP3 ADD SWAP1 POP SWAP2 SWAP1 POP JUMP JUMPDEST PUSH0 PUSH1 0x20 DUP3 ADD SWAP1 POP DUP2 DUP2 SUB PUSH0 DUP4 ADD MSTORE PUSH2 0x168F DUP2 PUSH2 0x1656 JUMP JUMPDEST SWAP1 POP SWAP2 SWAP1 POP JUMP JUMPDEST PUSH0 PUSH1 0x60 DUP3 ADD SWAP1 POP PUSH2 0x16A9 PUSH0 DUP4 ADD DUP7 PUSH2 0x1564 JUMP JUMPDEST PUSH2 0x16B6 PUSH1 0x20 DUP4 ADD DUP6 PUSH2 0x1564 JUMP JUMPDEST PUSH2 0x16C3 PUSH1 0x40 DUP4 ADD DUP5 PUSH2 0x14EC JUMP JUMPDEST SWAP5 SWAP4 POP POP POP POP JUMP JUMPDEST PUSH32 0x496E636F7272656374206C697374696E67206665650000000000000000000000 PUSH0 DUP3 ADD MSTORE POP JUMP JUMPDEST PUSH0 PUSH2 0x16FF PUSH1 0x15 DUP4 PUSH2 0x15B6 JUMP JUMPDEST SWAP2 POP PUSH2 0x170A DUP3 PUSH2 0x16CB JUMP JUMPDEST PUSH1 0x20 DUP3 ADD SWAP1 POP SWAP2 SWAP1 POP JUMP JUMPDEST PUSH0 PUSH1 0x20 DUP3 ADD SWAP1 POP DUP2 DUP2 SUB PUSH0 DUP4 ADD MSTORE PUSH2 0x172C DUP2 PUSH2 0x16F3 JUMP JUMPDEST SWAP1 POP SWAP2 SWAP1 POP JUMP JUMPDEST PUSH0 DUP2 MLOAD SWAP1 POP PUSH2 0x1741 DUP2 PUSH2 0x1484 JUMP JUMPDEST SWAP3 SWAP2 POP POP JUMP JUMPDEST PUSH0 PUSH1 0x20 DUP3 DUP5 SUB SLT ISZERO PUSH2 0x175C JUMPI PUSH2 0x175B PUSH2 0x12B9 JUMP JUMPDEST JUMPDEST PUSH0 PUSH2 0x1769 DUP5 DUP3 DUP6 ADD PUSH2 0x1733 JUMP JUMPDEST SWAP2 POP POP SWAP3 SWAP2 POP POP JUMP JUMPDEST PUSH32 0x43616C6C6572206973206E6F7420746865206F776E6572000000000000000000 PUSH0 DUP3 ADD MSTORE POP JUMP JUMPDEST PUSH0 PUSH2 0x17A6 PUSH1 0x17 DUP4 PUSH2 0x15B6 JUMP JUMPDEST SWAP2 POP PUSH2 0x17B1 DUP3 PUSH2 0x1772 JUMP JUMPDEST PUSH1 0x20 DUP3 ADD SWAP1 POP SWAP2 SWAP1 POP JUMP JUMPDEST PUSH0 PUSH1 0x20 DUP3 ADD SWAP1 POP DUP2 DUP2 SUB PUSH0 DUP4 ADD MSTORE PUSH2 0x17D3 DUP2 PUSH2 0x179A JUMP JUMPDEST SWAP1 POP SWAP2 SWAP1 POP JUMP JUMPDEST PUSH32 0x5072696365206D7573742062652067726561746572207468616E207A65726F00 PUSH0 DUP3 ADD MSTORE POP JUMP JUMPDEST PUSH0 PUSH2 0x180E PUSH1 0x1F DUP4 PUSH2 0x15B6 JUMP JUMPDEST SWAP2 POP PUSH2 0x1819 DUP3 PUSH2 0x17DA JUMP JUMPDEST PUSH1 0x20 DUP3 ADD SWAP1 POP SWAP2 SWAP1 POP JUMP JUMPDEST PUSH0 PUSH1 0x20 DUP3 ADD SWAP1 POP DUP2 DUP2 SUB PUSH0 DUP4 ADD MSTORE PUSH2 0x183B DUP2 PUSH2 0x1802 JUMP JUMPDEST SWAP1 POP SWAP2 SWAP1 POP JUMP JUMPDEST PUSH0 PUSH1 0x40 DUP3 ADD SWAP1 POP PUSH2 0x1855 PUSH0 DUP4 ADD DUP6 PUSH2 0x14EC JUMP JUMPDEST PUSH2 0x1862 PUSH1 0x20 DUP4 ADD DUP5 PUSH2 0x14EC JUMP JUMPDEST SWAP4 SWAP3 POP POP POP JUMP JUMPDEST PUSH32 0x5265656E7472616E637947756172643A207265656E7472616E742063616C6C00 PUSH0 DUP3 ADD MSTORE POP JUMP JUMPDEST PUSH0 PUSH2 0x189D PUSH1 0x1F DUP4 PUSH2 0x15B6 JUMP JUMPDEST SWAP2 POP PUSH2 0x18A8 DUP3 PUSH2 0x1869 JUMP JUMPDEST PUSH1 0x20 DUP3 ADD SWAP1 POP SWAP2 SWAP1 POP JUMP JUMPDEST PUSH0 PUSH1 0x20 DUP3 ADD SWAP1 POP DUP2 DUP2 SUB PUSH0 DUP4 ADD MSTORE PUSH2 0x18CA DUP2 PUSH2 0x1891 JUMP JUMPDEST SWAP1 POP SWAP2 SWAP1 POP JUMP JUMPDEST PUSH32 0x4C697374696E67206E6F74206163746976650000000000000000000000000000 PUSH0 DUP3 ADD MSTORE POP JUMP JUMPDEST PUSH0 PUSH2 0x1905 PUSH1 0x12 DUP4 PUSH2 0x15B6 JUMP JUMPDEST SWAP2 POP PUSH2 0x1910 DUP3 PUSH2 0x18D1 JUMP JUMPDEST PUSH1 0x20 DUP3 ADD SWAP1 POP SWAP2 SWAP1 POP JUMP JUMPDEST PUSH0 PUSH1 0x20 DUP3 ADD SWAP1 POP DUP2 DUP2 SUB PUSH0 DUP4 ADD MSTORE PUSH2 0x1932 DUP2 PUSH2 0x18F9 JUMP JUMPDEST SWAP1 POP SWAP2 SWAP1 POP JUMP JUMPDEST PUSH32 0x43616E6E6F742073656C6C20746F20796F757273656C66000000000000000000 PUSH0 DUP3 ADD MSTORE POP JUMP JUMPDEST PUSH0 PUSH2 0x196D PUSH1 0x17 DUP4 PUSH2 0x15B6 JUMP JUMPDEST SWAP2 POP PUSH2 0x1978 DUP3 PUSH2 0x1939 JUMP JUMPDEST PUSH1 0x20 DUP3 ADD SWAP1 POP SWAP2 SWAP1 POP JUMP JUMPDEST PUSH0 PUSH1 0x20 DUP3 ADD SWAP1 POP DUP2 DUP2 SUB PUSH0 DUP4 ADD MSTORE PUSH2 0x199A DUP2 PUSH2 0x1961 JUMP JUMPDEST SWAP1 POP SWAP2 SWAP1 POP JUMP JUMPDEST PUSH32 0x496E636F727265637420616D6F756E7400000000000000000000000000000000 PUSH0 DUP3 ADD MSTORE POP JUMP JUMPDEST PUSH0 PUSH2 0x19D5 PUSH1 0x10 DUP4 PUSH2 0x15B6 JUMP JUMPDEST SWAP2 POP PUSH2 0x19E0 DUP3 PUSH2 0x19A1 JUMP JUMPDEST PUSH1 0x20 DUP3 ADD SWAP1 POP SWAP2 SWAP1 POP JUMP JUMPDEST PUSH0 PUSH1 0x20 DUP3 ADD SWAP1 POP DUP2 DUP2 SUB PUSH0 DUP4 ADD MSTORE PUSH2 0x1A02 DUP2 PUSH2 0x19C9 JUMP JUMPDEST SWAP1 POP SWAP2 SWAP1 POP JUMP JUMPDEST PUSH0 PUSH1 0x40 DUP3 ADD SWAP1 POP PUSH2 0x1A1C PUSH0 DUP4 ADD DUP6 PUSH2 0x1564 JUMP JUMPDEST PUSH2 0x1A29 PUSH1 0x20 DUP4 ADD DUP5 PUSH2 0x142C JUMP JUMPDEST SWAP4 SWAP3 POP POP POP JUMP INVALID LOG2 PUSH5 0x6970667358 0x22 SLT KECCAK256 0xEC 0x27 SWAP11 LT CALLDATASIZE JUMPI SMOD PUSH0 PUSH28 0x52CF9E69783477309658D812DC378259DAEEC99A37F87E64736F6C63 NUMBER STOP ADDMOD NOT STOP CALLER "
				},
				"gasEstimates": {
					"creation": {
						"codeDepositCost": "1351600",
						"executionCost": "infinite",
						"totalCost": "infinite"
					},
					"external": {
						"ADMIN_ROLE()": "370",
						"DEFAULT_ADMIN_ROLE()": "352",
						"buyNFT(uint256)": "infinite",
						"cancelListing(uint256)": "infinite",
						"getRoleAdmin(bytes32)": "infinite",
						"grantRole(bytes32,address)": "infinite",
						"hasRole(bytes32,address)": "3189",
						"listNFT(address,uint256,uint256)": "infinite",
						"listingFee()": "2448",
						"listings(uint256)": "infinite",
						"renounceRole(bytes32,address)": "infinite",
						"revokeRole(bytes32,address)": "infinite",
						"setListingFee(uint256)": "24928",
						"supportsInterface(bytes4)": "741"
					},
					"internal": {
						"_fulfilSale(uint256,address,uint256)": "infinite"
					}
				},
				"methodIdentifiers": {
					"ADMIN_ROLE()": "75b238fc",
					"DEFAULT_ADMIN_ROLE()": "a217fddf",
					"buyNFT(uint256)": "51ed8288",
					"cancelListing(uint256)": "305a67a8",
					"getRoleAdmin(bytes32)": "248a9ca3",
					"grantRole(bytes32,address)": "2f2ff15d",
					"hasRole(bytes32,address)": "91d14854",
					"listNFT(address,uint256,uint256)": "ad05f1b4",
					"listingFee()": "6a1b7ecc",
					"listings(uint256)": "de74e57b",
					"renounceRole(bytes32,address)": "36568abe",
					"revokeRole(bytes32,address)": "d547741f",
					"setListingFee(uint256)": "131dbd09",
					"supportsInterface(bytes4)": "01ffc9a7"
				}
			},
			"storageLayout": {
				"storage": [
					{
						"astId": 389,
						"contract": "contracts/npc_marketplace/npc_marketplace_core.sol:MarketplaceCore",
						"label": "_status",
						"offset": 0,
						"slot": "0",
						"type": "t_uint256"
					},
					{
						"astId": 26,
						"contract": "contracts/npc_marketplace/npc_marketplace_core.sol:MarketplaceCore",
						"label": "_roles",
						"offset": 0,
						"slot": "1",
						"type": "t_mapping(t_bytes32,t_struct(RoleData)21_storage)"
					},
					{
						"astId": 938,
						"contract": "contracts/npc_marketplace/npc_marketplace_core.sol:MarketplaceCore",
						"label": "_listingIds",
						"offset": 0,
						"slot": "2",
						"type": "t_struct(Counter)596_storage"
					},
					{
						"astId": 957,
						"contract": "contracts/npc_marketplace/npc_marketplace_core.sol:MarketplaceCore",
						"label": "listings",
						"offset": 0,
						"slot": "3",
						"type": "t_mapping(t_uint256,t_struct(Listing)952_storage)"
					},
					{
						"astId": 960,
						"contract": "contracts/npc_marketplace/npc_marketplace_core.sol:MarketplaceCore",
						"label": "listingFee",
						"offset": 0,
						"slot": "4",
						"type": "t_uint256"
					}
				],
				"types": {
					"t_address": {
						"encoding": "inplace",
						"label": "address",
						"numberOfBytes": "20"
					},
					"t_bool": {
						"encoding": "inplace",
						"label": "bool",
						"numberOfBytes": "1"
					},
					"t_bytes32": {
						"encoding": "inplace",
						"label": "bytes32",
						"numberOfBytes": "32"
					},
					"t_mapping(t_address,t_bool)": {
						"encoding": "mapping",
						"key": "t_address",
						"label": "mapping(address => bool)",
						"numberOfBytes": "32",
						"value": "t_bool"
					},
					"t_mapping(t_bytes32,t_struct(RoleData)21_storage)": {
						"encoding": "mapping",
						"key": "t_bytes32",
						"label": "mapping(bytes32 => struct AccessControl.RoleData)",
						"numberOfBytes": "32",
						"value": "t_struct(RoleData)21_storage"
					},
					"t_mapping(t_uint256,t_struct(Listing)952_storage)": {
						"encoding": "mapping",
						"key": "t_uint256",
						"label": "mapping(uint256 => struct MarketplaceCore.Listing)",
						"numberOfBytes": "32",
						"value": "t_struct(Listing)952_storage"
					},
					"t_struct(Counter)596_storage": {
						"encoding": "inplace",
						"label": "struct Counters.Counter",
						"members": [
							{
								"astId": 595,
								"contract": "contracts/npc_marketplace/npc_marketplace_core.sol:MarketplaceCore",
								"label": "_value",
								"offset": 0,
								"slot": "0",
								"type": "t_uint256"
							}
						],
						"numberOfBytes": "32"
					},
					"t_struct(Listing)952_storage": {
						"encoding": "inplace",
						"label": "struct MarketplaceCore.Listing",
						"members": [
							{
								"astId": 945,
								"contract": "contracts/npc_marketplace/npc_marketplace_core.sol:MarketplaceCore",
								"label": "seller",
								"offset": 0,
								"slot": "0",
								"type": "t_address"
							},
							{
								"astId": 947,
								"contract": "contracts/npc_marketplace/npc_marketplace_core.sol:MarketplaceCore",
								"label": "tokenAddress",
								"offset": 0,
								"slot": "1",
								"type": "t_address"
							},
							{
								"astId": 949,
								"contract": "contracts/npc_marketplace/npc_marketplace_core.sol:MarketplaceCore",
								"label": "tokenId",
								"offset": 0,
								"slot": "2",
								"type": "t_uint256"
							},
							{
								"astId": 951,
								"contract": "contracts/npc_marketplace/npc_marketplace_core.sol:MarketplaceCore",
								"label": "price",
								"offset": 0,
								"slot": "3",
								"type": "t_uint256"
							}
						],
						"numberOfBytes": "128"
					},
					"t_struct(RoleData)21_storage": {
						"encoding": "inplace",
						"label": "struct AccessControl.RoleData",
						"members": [
							{
								"astId": 18,
								"contract": "contracts/npc_marketplace/npc_marketplace_core.sol:MarketplaceCore",
								"label": "hasRole",
								"offset": 0,
								"slot": "0",
								"type": "t_mapping(t_address,t_bool)"
							},
							{
								"astId": 20,
								"contract": "contracts/npc_marketplace/npc_marketplace_core.sol:MarketplaceCore",
								"label": "adminRole",
								"offset": 0,
								"slot": "1",
								"type": "t_bytes32"
							}
						],
						"numberOfBytes": "64"
					},
					"t_uint256": {
						"encoding": "inplace",
						"label": "uint256",
						"numberOfBytes": "32"
					}
				}
			},
			"userdoc": {
				"kind": "user",
				"methods": {},
				"version": 1
			}
		}
	}
}