{
	"contracts/npc_marketplace/npc_marketplace_bidding.sol": {
		"MarketplaceBidding": {
			"abi": [
				{
					"inputs": [],
					"name": "AccessControlBadConfirmation",
					"type": "error"
				},
				{
					"inputs": [
						{
							"internalType": "address",
							"name": "account",
							"type": "address"
						},
						{
							"internalType": "bytes32",
							"name": "neededRole",
							"type": "bytes32"
						}
					],
					"name": "AccessControlUnauthorizedAccount",
					"type": "error"
				},
				{
					"anonymous": false,
					"inputs": [
						{
							"indexed": true,
							"internalType": "uint256",
							"name": "listingId",
							"type": "uint256"
						},
						{
							"indexed": true,
							"internalType": "address",
							"name": "seller",
							"type": "address"
						},
						{
							"indexed": true,
							"internalType": "address",
							"name": "bidder",
							"type": "address"
						},
						{
							"indexed": false,
							"internalType": "uint256",
							"name": "amount",
							"type": "uint256"
						}
					],
					"name": "BidAccepted",
					"type": "event"
				},
				{
					"anonymous": false,
					"inputs": [
						{
							"indexed": true,
							"internalType": "uint256",
							"name": "listingId",
							"type": "uint256"
						},
						{
							"indexed": true,
							"internalType": "address",
							"name": "bidder",
							"type": "address"
						},
						{
							"indexed": false,
							"internalType": "uint256",
							"name": "amount",
							"type": "uint256"
						}
					],
					"name": "BidPlaced",
					"type": "event"
				},
				{
					"anonymous": false,
					"inputs": [
						{
							"indexed": true,
							"internalType": "uint256",
							"name": "listingId",
							"type": "uint256"
						},
						{
							"indexed": true,
							"internalType": "address",
							"name": "bidder",
							"type": "address"
						},
						{
							"indexed": false,
							"internalType": "uint256",
							"name": "amount",
							"type": "uint256"
						}
					],
					"name": "BidWithdrawn",
					"type": "event"
				},
				{
					"anonymous": false,
					"inputs": [
						{
							"indexed": true,
							"internalType": "uint256",
							"name": "listingId",
							"type": "uint256"
						},
						{
							"indexed": true,
							"internalType": "address",
							"name": "seller",
							"type": "address"
						},
						{
							"indexed": true,
							"internalType": "address",
							"name": "tokenAddress",
							"type": "address"
						},
						{
							"indexed": false,
							"internalType": "uint256",
							"name": "tokenId",
							"type": "uint256"
						},
						{
							"indexed": false,
							"internalType": "uint256",
							"name": "price",
							"type": "uint256"
						}
					],
					"name": "Listed",
					"type": "event"
				},
				{
					"anonymous": false,
					"inputs": [
						{
							"indexed": true,
							"internalType": "uint256",
							"name": "listingId",
							"type": "uint256"
						}
					],
					"name": "ListingCancelled",
					"type": "event"
				},
				{
					"anonymous": false,
					"inputs": [
						{
							"indexed": true,
							"internalType": "bytes32",
							"name": "role",
							"type": "bytes32"
						},
						{
							"indexed": true,
							"internalType": "bytes32",
							"name": "previousAdminRole",
							"type": "bytes32"
						},
						{
							"indexed": true,
							"internalType": "bytes32",
							"name": "newAdminRole",
							"type": "bytes32"
						}
					],
					"name": "RoleAdminChanged",
					"type": "event"
				},
				{
					"anonymous": false,
					"inputs": [
						{
							"indexed": true,
							"internalType": "bytes32",
							"name": "role",
							"type": "bytes32"
						},
						{
							"indexed": true,
							"internalType": "address",
							"name": "account",
							"type": "address"
						},
						{
							"indexed": true,
							"internalType": "address",
							"name": "sender",
							"type": "address"
						}
					],
					"name": "RoleGranted",
					"type": "event"
				},
				{
					"anonymous": false,
					"inputs": [
						{
							"indexed": true,
							"internalType": "bytes32",
							"name": "role",
							"type": "bytes32"
						},
						{
							"indexed": true,
							"internalType": "address",
							"name": "account",
							"type": "address"
						},
						{
							"indexed": true,
							"internalType": "address",
							"name": "sender",
							"type": "address"
						}
					],
					"name": "RoleRevoked",
					"type": "event"
				},
				{
					"anonymous": false,
					"inputs": [
						{
							"indexed": true,
							"internalType": "uint256",
							"name": "listingId",
							"type": "uint256"
						},
						{
							"indexed": true,
							"internalType": "address",
							"name": "buyer",
							"type": "address"
						},
						{
							"indexed": true,
							"internalType": "address",
							"name": "tokenAddress",
							"type": "address"
						},
						{
							"indexed": false,
							"internalType": "uint256",
							"name": "tokenId",
							"type": "uint256"
						},
						{
							"indexed": false,
							"internalType": "uint256",
							"name": "price",
							"type": "uint256"
						}
					],
					"name": "Sale",
					"type": "event"
				},
				{
					"inputs": [],
					"name": "ADMIN_ROLE",
					"outputs": [
						{
							"internalType": "bytes32",
							"name": "",
							"type": "bytes32"
						}
					],
					"stateMutability": "view",
					"type": "function"
				},
				{
					"inputs": [],
					"name": "DEFAULT_ADMIN_ROLE",
					"outputs": [
						{
							"internalType": "bytes32",
							"name": "",
							"type": "bytes32"
						}
					],
					"stateMutability": "view",
					"type": "function"
				},
				{
					"inputs": [
						{
							"internalType": "uint256",
							"name": "listingId",
							"type": "uint256"
						}
					],
					"name": "acceptBid",
					"outputs": [],
					"stateMutability": "nonpayable",
					"type": "function"
				},
				{
					"inputs": [
						{
							"internalType": "uint256",
							"name": "listingId",
							"type": "uint256"
						}
					],
					"name": "buyNFT",
					"outputs": [],
					"stateMutability": "payable",
					"type": "function"
				},
				{
					"inputs": [
						{
							"internalType": "uint256",
							"name": "listingId",
							"type": "uint256"
						}
					],
					"name": "cancelListing",
					"outputs": [],
					"stateMutability": "nonpayable",
					"type": "function"
				},
				{
					"inputs": [
						{
							"internalType": "bytes32",
							"name": "role",
							"type": "bytes32"
						}
					],
					"name": "getRoleAdmin",
					"outputs": [
						{
							"internalType": "bytes32",
							"name": "",
							"type": "bytes32"
						}
					],
					"stateMutability": "view",
					"type": "function"
				},
				{
					"inputs": [
						{
							"internalType": "bytes32",
							"name": "role",
							"type": "bytes32"
						},
						{
							"internalType": "address",
							"name": "account",
							"type": "address"
						}
					],
					"name": "grantRole",
					"outputs": [],
					"stateMutability": "nonpayable",
					"type": "function"
				},
				{
					"inputs": [
						{
							"internalType": "bytes32",
							"name": "role",
							"type": "bytes32"
						},
						{
							"internalType": "address",
							"name": "account",
							"type": "address"
						}
					],
					"name": "hasRole",
					"outputs": [
						{
							"internalType": "bool",
							"name": "",
							"type": "bool"
						}
					],
					"stateMutability": "view",
					"type": "function"
				},
				{
					"inputs": [
						{
							"internalType": "uint256",
							"name": "",
							"type": "uint256"
						}
					],
					"name": "highestBids",
					"outputs": [
						{
							"internalType": "address",
							"name": "bidder",
							"type": "address"
						},
						{
							"internalType": "uint256",
							"name": "amount",
							"type": "uint256"
						}
					],
					"stateMutability": "view",
					"type": "function"
				},
				{
					"inputs": [
						{
							"internalType": "address",
							"name": "tokenAddress",
							"type": "address"
						},
						{
							"internalType": "uint256",
							"name": "tokenId",
							"type": "uint256"
						},
						{
							"internalType": "uint256",
							"name": "price",
							"type": "uint256"
						}
					],
					"name": "listNFT",
					"outputs": [],
					"stateMutability": "payable",
					"type": "function"
				},
				{
					"inputs": [],
					"name": "listingFee",
					"outputs": [
						{
							"internalType": "uint256",
							"name": "",
							"type": "uint256"
						}
					],
					"stateMutability": "view",
					"type": "function"
				},
				{
					"inputs": [
						{
							"internalType": "uint256",
							"name": "",
							"type": "uint256"
						}
					],
					"name": "listings",
					"outputs": [
						{
							"internalType": "address",
							"name": "seller",
							"type": "address"
						},
						{
							"internalType": "address",
							"name": "tokenAddress",
							"type": "address"
						},
						{
							"internalType": "uint256",
							"name": "tokenId",
							"type": "uint256"
						},
						{
							"internalType": "uint256",
							"name": "price",
							"type": "uint256"
						}
					],
					"stateMutability": "view",
					"type": "function"
				},
				{
					"inputs": [
						{
							"internalType": "uint256",
							"name": "listingId",
							"type": "uint256"
						}
					],
					"name": "placeBid",
					"outputs": [],
					"stateMutability": "payable",
					"type": "function"
				},
				{
					"inputs": [
						{
							"internalType": "bytes32",
							"name": "role",
							"type": "bytes32"
						},
						{
							"internalType": "address",
							"name": "callerConfirmation",
							"type": "address"
						}
					],
					"name": "renounceRole",
					"outputs": [],
					"stateMutability": "nonpayable",
					"type": "function"
				},
				{
					"inputs": [
						{
							"internalType": "bytes32",
							"name": "role",
							"type": "bytes32"
						},
						{
							"internalType": "address",
							"name": "account",
							"type": "address"
						}
					],
					"name": "revokeRole",
					"outputs": [],
					"stateMutability": "nonpayable",
					"type": "function"
				},
				{
					"inputs": [
						{
							"internalType": "uint256",
							"name": "fee",
							"type": "uint256"
						}
					],
					"name": "setListingFee",
					"outputs": [],
					"stateMutability": "nonpayable",
					"type": "function"
				},
				{
					"inputs": [
						{
							"internalType": "bytes4",
							"name": "interfaceId",
							"type": "bytes4"
						}
					],
					"name": "supportsInterface",
					"outputs": [
						{
							"internalType": "bool",
							"name": "",
							"type": "bool"
						}
					],
					"stateMutability": "view",
					"type": "function"
				}
			],
			"devdoc": {
				"errors": {
					"AccessControlBadConfirmation()": [
						{
							"details": "The caller of a function is not the expected one. NOTE: Don't confuse with {AccessControlUnauthorizedAccount}."
						}
					],
					"AccessControlUnauthorizedAccount(address,bytes32)": [
						{
							"details": "The `account` is missing a role."
						}
					]
				},
				"events": {
					"RoleAdminChanged(bytes32,bytes32,bytes32)": {
						"details": "Emitted when `newAdminRole` is set as ``role``'s admin role, replacing `previousAdminRole` `DEFAULT_ADMIN_ROLE` is the starting admin for all roles, despite {RoleAdminChanged} not being emitted signaling this."
					},
					"RoleGranted(bytes32,address,address)": {
						"details": "Emitted when `account` is granted `role`. `sender` is the account that originated the contract call, an admin role bearer except when using {AccessControl-_setupRole}."
					},
					"RoleRevoked(bytes32,address,address)": {
						"details": "Emitted when `account` is revoked `role`. `sender` is the account that originated the contract call:   - if using `revokeRole`, it is the admin role bearer   - if using `renounceRole`, it is the role bearer (i.e. `account`)"
					}
				},
				"kind": "dev",
				"methods": {
					"getRoleAdmin(bytes32)": {
						"details": "Returns the admin role that controls `role`. See {grantRole} and {revokeRole}. To change a role's admin, use {_setRoleAdmin}."
					},
					"grantRole(bytes32,address)": {
						"details": "Grants `role` to `account`. If `account` had not been already granted `role`, emits a {RoleGranted} event. Requirements: - the caller must have ``role``'s admin role. May emit a {RoleGranted} event."
					},
					"hasRole(bytes32,address)": {
						"details": "Returns `true` if `account` has been granted `role`."
					},
					"renounceRole(bytes32,address)": {
						"details": "Revokes `role` from the calling account. Roles are often managed via {grantRole} and {revokeRole}: this function's purpose is to provide a mechanism for accounts to lose their privileges if they are compromised (such as when a trusted device is misplaced). If the calling account had been revoked `role`, emits a {RoleRevoked} event. Requirements: - the caller must be `callerConfirmation`. May emit a {RoleRevoked} event."
					},
					"revokeRole(bytes32,address)": {
						"details": "Revokes `role` from `account`. If `account` had been granted `role`, emits a {RoleRevoked} event. Requirements: - the caller must have ``role``'s admin role. May emit a {RoleRevoked} event."
					},
					"supportsInterface(bytes4)": {
						"details": "See {IERC165-supportsInterface}."
					}
				},
				"version": 1
			},
			"evm": {
				"assembly": "    /* \"contracts/npc_marketplace/npc_marketplace_bidding.sol\":100:2089  contract MarketplaceBidding is MarketplaceCore {... */\n  mstore(0x40, 0x80)\n    /* \"contracts/npc_marketplace/npc_marketplace_core.sol\":739:749  0.01 ether */\n  0x2386f26fc10000\n    /* \"contracts/npc_marketplace/npc_marketplace_core.sol\":711:749  uint256 public listingFee = 0.01 ether */\n  0x04\n  sstore\n    /* \"contracts/npc_marketplace/npc_marketplace_bidding.sol\":100:2089  contract MarketplaceBidding is MarketplaceCore {... */\n  callvalue\n  dup1\n  iszero\n  tag_1\n  jumpi\n  0x00\n  dup1\n  revert\ntag_1:\n  pop\n    /* \"@openzeppelin/contracts/security/ReentrancyGuard.sol\":1716:1717  1 */\n  0x01\n    /* \"@openzeppelin/contracts/security/ReentrancyGuard.sol\":1821:1828  _status */\n  0x00\n    /* \"@openzeppelin/contracts/security/ReentrancyGuard.sol\":1821:1843  _status = _NOT_ENTERED */\n  dup2\n  swap1\n  sstore\n  pop\n    /* \"contracts/npc_marketplace/npc_marketplace_core.sol\":1102:1144  _grantRole(DEFAULT_ADMIN_ROLE, msg.sender) */\n  tag_6\n    /* \"@openzeppelin/contracts/access/AccessControl.sol\":2232:2236  0x00 */\n  0x00\n    /* \"contracts/npc_marketplace/npc_marketplace_core.sol\":1113:1131  DEFAULT_ADMIN_ROLE */\n  dup1\n  shl\n    /* \"contracts/npc_marketplace/npc_marketplace_core.sol\":1133:1143  msg.sender */\n  caller\n    /* \"contracts/npc_marketplace/npc_marketplace_core.sol\":1102:1112  _grantRole */\n  shl(0x20, tag_7)\n    /* \"contracts/npc_marketplace/npc_marketplace_core.sol\":1102:1144  _grantRole(DEFAULT_ADMIN_ROLE, msg.sender) */\n  0x20\n  shr\n  jump\t// in\ntag_6:\n  pop\n    /* \"contracts/npc_marketplace/npc_marketplace_core.sol\":1155:1189  _grantRole(ADMIN_ROLE, msg.sender) */\n  tag_8\n    /* \"contracts/npc_marketplace/npc_marketplace_core.sol\":494:517  keccak256(\"ADMIN_ROLE\") */\n  0xa49807205ce4d355092ef5a8a18f56e8913cf4a201fbe287825b095693c21775\n    /* \"contracts/npc_marketplace/npc_marketplace_core.sol\":1178:1188  msg.sender */\n  caller\n    /* \"contracts/npc_marketplace/npc_marketplace_core.sol\":1155:1165  _grantRole */\n  shl(0x20, tag_7)\n    /* \"contracts/npc_marketplace/npc_marketplace_core.sol\":1155:1189  _grantRole(ADMIN_ROLE, msg.sender) */\n  0x20\n  shr\n  jump\t// in\ntag_8:\n  pop\n    /* \"contracts/npc_marketplace/npc_marketplace_bidding.sol\":100:2089  contract MarketplaceBidding is MarketplaceCore {... */\n  jump(tag_9)\n    /* \"@openzeppelin/contracts/access/AccessControl.sol\":6179:6495  function _grantRole(bytes32 role, address account) internal virtual returns (bool) {... */\ntag_7:\n    /* \"@openzeppelin/contracts/access/AccessControl.sol\":6256:6260  bool */\n  0x00\n    /* \"@openzeppelin/contracts/access/AccessControl.sol\":6277:6299  hasRole(role, account) */\n  tag_11\n    /* \"@openzeppelin/contracts/access/AccessControl.sol\":6285:6289  role */\n  dup4\n    /* \"@openzeppelin/contracts/access/AccessControl.sol\":6291:6298  account */\n  dup4\n    /* \"@openzeppelin/contracts/access/AccessControl.sol\":6277:6284  hasRole */\n  shl(0x20, tag_12)\n    /* \"@openzeppelin/contracts/access/AccessControl.sol\":6277:6299  hasRole(role, account) */\n  0x20\n  shr\n  jump\t// in\ntag_11:\n    /* \"@openzeppelin/contracts/access/AccessControl.sol\":6272:6489  if (!hasRole(role, account)) {... */\n  tag_13\n  jumpi\n    /* \"@openzeppelin/contracts/access/AccessControl.sol\":6347:6351  true */\n  0x01\n    /* \"@openzeppelin/contracts/access/AccessControl.sol\":6315:6321  _roles */\n  dup1\n    /* \"@openzeppelin/contracts/access/AccessControl.sol\":6315:6327  _roles[role] */\n  0x00\n    /* \"@openzeppelin/contracts/access/AccessControl.sol\":6322:6326  role */\n  dup6\n    /* \"@openzeppelin/contracts/access/AccessControl.sol\":6315:6327  _roles[role] */\n  dup2\n  mstore\n  0x20\n  add\n  swap1\n  dup2\n  mstore\n  0x20\n  add\n  0x00\n  keccak256\n    /* \"@openzeppelin/contracts/access/AccessControl.sol\":6315:6335  _roles[role].hasRole */\n  0x00\n  add\n    /* \"@openzeppelin/contracts/access/AccessControl.sol\":6315:6344  _roles[role].hasRole[account] */\n  0x00\n    /* \"@openzeppelin/contracts/access/AccessControl.sol\":6336:6343  account */\n  dup5\n    /* \"@openzeppelin/contracts/access/AccessControl.sol\":6315:6344  _roles[role].hasRole[account] */\n  0xffffffffffffffffffffffffffffffffffffffff\n  and\n  0xffffffffffffffffffffffffffffffffffffffff\n  and\n  dup2\n  mstore\n  0x20\n  add\n  swap1\n  dup2\n  mstore\n  0x20\n  add\n  0x00\n  keccak256\n  0x00\n    /* \"@openzeppelin/contracts/access/AccessControl.sol\":6315:6351  _roles[role].hasRole[account] = true */\n  0x0100\n  exp\n  dup2\n  sload\n  dup2\n  0xff\n  mul\n  not\n  and\n  swap1\n  dup4\n  iszero\n  iszero\n  mul\n  or\n  swap1\n  sstore\n  pop\n    /* \"@openzeppelin/contracts/access/AccessControl.sol\":6397:6409  _msgSender() */\n  tag_14\n    /* \"@openzeppelin/contracts/access/AccessControl.sol\":6397:6407  _msgSender */\n  shl(0x20, tag_15)\n    /* \"@openzeppelin/contracts/access/AccessControl.sol\":6397:6409  _msgSender() */\n  0x20\n  shr\n  jump\t// in\ntag_14:\n    /* \"@openzeppelin/contracts/access/AccessControl.sol\":6370:6410  RoleGranted(role, account, _msgSender()) */\n  0xffffffffffffffffffffffffffffffffffffffff\n  and\n    /* \"@openzeppelin/contracts/access/AccessControl.sol\":6388:6395  account */\n  dup3\n    /* \"@openzeppelin/contracts/access/AccessControl.sol\":6370:6410  RoleGranted(role, account, _msgSender()) */\n  0xffffffffffffffffffffffffffffffffffffffff\n  and\n    /* \"@openzeppelin/contracts/access/AccessControl.sol\":6382:6386  role */\n  dup5\n    /* \"@openzeppelin/contracts/access/AccessControl.sol\":6370:6410  RoleGranted(role, account, _msgSender()) */\n  0x2f8788117e7eff1d82e926ec794901d17c78024a50270940304540a733656f0d\n  mload(0x40)\n  mload(0x40)\n  dup1\n  swap2\n  sub\n  swap1\n  log4\n    /* \"@openzeppelin/contracts/access/AccessControl.sol\":6431:6435  true */\n  0x01\n    /* \"@openzeppelin/contracts/access/AccessControl.sol\":6424:6435  return true */\n  swap1\n  pop\n  jump(tag_10)\n    /* \"@openzeppelin/contracts/access/AccessControl.sol\":6272:6489  if (!hasRole(role, account)) {... */\ntag_13:\n    /* \"@openzeppelin/contracts/access/AccessControl.sol\":6473:6478  false */\n  0x00\n    /* \"@openzeppelin/contracts/access/AccessControl.sol\":6466:6478  return false */\n  swap1\n  pop\n    /* \"@openzeppelin/contracts/access/AccessControl.sol\":6179:6495  function _grantRole(bytes32 role, address account) internal virtual returns (bool) {... */\ntag_10:\n  swap3\n  swap2\n  pop\n  pop\n  jump\t// out\n    /* \"@openzeppelin/contracts/access/AccessControl.sol\":2854:2990  function hasRole(bytes32 role, address account) public view virtual returns (bool) {... */\ntag_12:\n    /* \"@openzeppelin/contracts/access/AccessControl.sol\":2931:2935  bool */\n  0x00\n    /* \"@openzeppelin/contracts/access/AccessControl.sol\":2954:2960  _roles */\n  0x01\n    /* \"@openzeppelin/contracts/access/AccessControl.sol\":2954:2966  _roles[role] */\n  0x00\n    /* \"@openzeppelin/contracts/access/AccessControl.sol\":2961:2965  role */\n  dup5\n    /* \"@openzeppelin/contracts/access/AccessControl.sol\":2954:2966  _roles[role] */\n  dup2\n  mstore\n  0x20\n  add\n  swap1\n  dup2\n  mstore\n  0x20\n  add\n  0x00\n  keccak256\n    /* \"@openzeppelin/contracts/access/AccessControl.sol\":2954:2974  _roles[role].hasRole */\n  0x00\n  add\n    /* \"@openzeppelin/contracts/access/AccessControl.sol\":2954:2983  _roles[role].hasRole[account] */\n  0x00\n    /* \"@openzeppelin/contracts/access/AccessControl.sol\":2975:2982  account */\n  dup4\n    /* \"@openzeppelin/contracts/access/AccessControl.sol\":2954:2983  _roles[role].hasRole[account] */\n  0xffffffffffffffffffffffffffffffffffffffff\n  and\n  0xffffffffffffffffffffffffffffffffffffffff\n  and\n  dup2\n  mstore\n  0x20\n  add\n  swap1\n  dup2\n  mstore\n  0x20\n  add\n  0x00\n  keccak256\n  0x00\n  swap1\n  sload\n  swap1\n  0x0100\n  exp\n  swap1\n  div\n  0xff\n  and\n    /* \"@openzeppelin/contracts/access/AccessControl.sol\":2947:2983  return _roles[role].hasRole[account] */\n  swap1\n  pop\n    /* \"@openzeppelin/contracts/access/AccessControl.sol\":2854:2990  function hasRole(bytes32 role, address account) public view virtual returns (bool) {... */\n  swap3\n  swap2\n  pop\n  pop\n  jump\t// out\n    /* \"@openzeppelin/contracts/utils/Context.sol\":656:752  function _msgSender() internal view virtual returns (address) {... */\ntag_15:\n    /* \"@openzeppelin/contracts/utils/Context.sol\":709:716  address */\n  0x00\n    /* \"@openzeppelin/contracts/utils/Context.sol\":735:745  msg.sender */\n  caller\n    /* \"@openzeppelin/contracts/utils/Context.sol\":728:745  return msg.sender */\n  swap1\n  pop\n    /* \"@openzeppelin/contracts/utils/Context.sol\":656:752  function _msgSender() internal view virtual returns (address) {... */\n  swap1\n  jump\t// out\n    /* \"contracts/npc_marketplace/npc_marketplace_bidding.sol\":100:2089  contract MarketplaceBidding is MarketplaceCore {... */\ntag_9:\n  dataSize(sub_0)\n  dup1\n  dataOffset(sub_0)\n  0x00\n  codecopy\n  0x00\n  return\nstop\n\nsub_0: assembly {\n        /* \"contracts/npc_marketplace/npc_marketplace_bidding.sol\":100:2089  contract MarketplaceBidding is MarketplaceCore {... */\n      mstore(0x40, 0x80)\n      jumpi(tag_1, lt(calldatasize, 0x04))\n      shr(0xe0, calldataload(0x00))\n      dup1\n      0x51ed8288\n      gt\n      tag_19\n      jumpi\n      dup1\n      0x9979ef45\n      gt\n      tag_20\n      jumpi\n      dup1\n      0x9979ef45\n      eq\n      tag_14\n      jumpi\n      dup1\n      0xa217fddf\n      eq\n      tag_15\n      jumpi\n      dup1\n      0xad05f1b4\n      eq\n      tag_16\n      jumpi\n      dup1\n      0xd547741f\n      eq\n      tag_17\n      jumpi\n      dup1\n      0xde74e57b\n      eq\n      tag_18\n      jumpi\n      jump(tag_1)\n    tag_20:\n      dup1\n      0x51ed8288\n      eq\n      tag_10\n      jumpi\n      dup1\n      0x6a1b7ecc\n      eq\n      tag_11\n      jumpi\n      dup1\n      0x75b238fc\n      eq\n      tag_12\n      jumpi\n      dup1\n      0x91d14854\n      eq\n      tag_13\n      jumpi\n      jump(tag_1)\n    tag_19:\n      dup1\n      0x2b1fd58a\n      gt\n      tag_21\n      jumpi\n      dup1\n      0x2b1fd58a\n      eq\n      tag_6\n      jumpi\n      dup1\n      0x2f2ff15d\n      eq\n      tag_7\n      jumpi\n      dup1\n      0x305a67a8\n      eq\n      tag_8\n      jumpi\n      dup1\n      0x36568abe\n      eq\n      tag_9\n      jumpi\n      jump(tag_1)\n    tag_21:\n      dup1\n      0x01ffc9a7\n      eq\n      tag_2\n      jumpi\n      dup1\n      0x111cb258\n      eq\n      tag_3\n      jumpi\n      dup1\n      0x131dbd09\n      eq\n      tag_4\n      jumpi\n      dup1\n      0x248a9ca3\n      eq\n      tag_5\n      jumpi\n    tag_1:\n      0x00\n      dup1\n      revert\n        /* \"@openzeppelin/contracts/access/AccessControl.sol\":2565:2767  function supportsInterface(bytes4 interfaceId) public view virtual override returns (bool) {... */\n    tag_2:\n      callvalue\n      dup1\n      iszero\n      tag_22\n      jumpi\n      0x00\n      dup1\n      revert\n    tag_22:\n      pop\n      tag_23\n      0x04\n      dup1\n      calldatasize\n      sub\n      dup2\n      add\n      swap1\n      tag_24\n      swap2\n      swap1\n      tag_25\n      jump\t// in\n    tag_24:\n      tag_26\n      jump\t// in\n    tag_23:\n      mload(0x40)\n      tag_27\n      swap2\n      swap1\n      tag_28\n      jump\t// in\n    tag_27:\n      mload(0x40)\n      dup1\n      swap2\n      sub\n      swap1\n      return\n        /* \"contracts/npc_marketplace/npc_marketplace_bidding.sol\":282:324  mapping(uint256 => Bid) public highestBids */\n    tag_3:\n      callvalue\n      dup1\n      iszero\n      tag_29\n      jumpi\n      0x00\n      dup1\n      revert\n    tag_29:\n      pop\n      tag_30\n      0x04\n      dup1\n      calldatasize\n      sub\n      dup2\n      add\n      swap1\n      tag_31\n      swap2\n      swap1\n      tag_32\n      jump\t// in\n    tag_31:\n      tag_33\n      jump\t// in\n    tag_30:\n      mload(0x40)\n      tag_34\n      swap3\n      swap2\n      swap1\n      tag_35\n      jump\t// in\n    tag_34:\n      mload(0x40)\n      dup1\n      swap2\n      sub\n      swap1\n      return\n        /* \"contracts/npc_marketplace/npc_marketplace_core.sol\":1331:1421  function setListingFee(uint256 fee) external onlyAdmin {... */\n    tag_4:\n      callvalue\n      dup1\n      iszero\n      tag_36\n      jumpi\n      0x00\n      dup1\n      revert\n    tag_36:\n      pop\n      tag_37\n      0x04\n      dup1\n      calldatasize\n      sub\n      dup2\n      add\n      swap1\n      tag_38\n      swap2\n      swap1\n      tag_32\n      jump\t// in\n    tag_38:\n      tag_39\n      jump\t// in\n    tag_37:\n      stop\n        /* \"@openzeppelin/contracts/access/AccessControl.sol\":3810:3930  function getRoleAdmin(bytes32 role) public view virtual returns (bytes32) {... */\n    tag_5:\n      callvalue\n      dup1\n      iszero\n      tag_40\n      jumpi\n      0x00\n      dup1\n      revert\n    tag_40:\n      pop\n      tag_41\n      0x04\n      dup1\n      calldatasize\n      sub\n      dup2\n      add\n      swap1\n      tag_42\n      swap2\n      swap1\n      tag_43\n      jump\t// in\n    tag_42:\n      tag_44\n      jump\t// in\n    tag_41:\n      mload(0x40)\n      tag_45\n      swap2\n      swap1\n      tag_46\n      jump\t// in\n    tag_45:\n      mload(0x40)\n      dup1\n      swap2\n      sub\n      swap1\n      return\n        /* \"contracts/npc_marketplace/npc_marketplace_bidding.sol\":1236:2012  function acceptBid(uint256 listingId) public virtual nonReentrant {... */\n    tag_6:\n      callvalue\n      dup1\n      iszero\n      tag_47\n      jumpi\n      0x00\n      dup1\n      revert\n    tag_47:\n      pop\n      tag_48\n      0x04\n      dup1\n      calldatasize\n      sub\n      dup2\n      add\n      swap1\n      tag_49\n      swap2\n      swap1\n      tag_32\n      jump\t// in\n    tag_49:\n      tag_50\n      jump\t// in\n    tag_48:\n      stop\n        /* \"@openzeppelin/contracts/access/AccessControl.sol\":4226:4362  function grantRole(bytes32 role, address account) public virtual onlyRole(getRoleAdmin(role)) {... */\n    tag_7:\n      callvalue\n      dup1\n      iszero\n      tag_51\n      jumpi\n      0x00\n      dup1\n      revert\n    tag_51:\n      pop\n      tag_52\n      0x04\n      dup1\n      calldatasize\n      sub\n      dup2\n      add\n      swap1\n      tag_53\n      swap2\n      swap1\n      tag_54\n      jump\t// in\n    tag_53:\n      tag_55\n      jump\t// in\n    tag_52:\n      stop\n        /* \"contracts/npc_marketplace/npc_marketplace_core.sol\":2255:2643  function cancelListing(uint256 listingId) external nonReentrant {... */\n    tag_8:\n      callvalue\n      dup1\n      iszero\n      tag_56\n      jumpi\n      0x00\n      dup1\n      revert\n    tag_56:\n      pop\n      tag_57\n      0x04\n      dup1\n      calldatasize\n      sub\n      dup2\n      add\n      swap1\n      tag_58\n      swap2\n      swap1\n      tag_32\n      jump\t// in\n    tag_58:\n      tag_59\n      jump\t// in\n    tag_57:\n      stop\n        /* \"@openzeppelin/contracts/access/AccessControl.sol\":5328:5573  function renounceRole(bytes32 role, address callerConfirmation) public virtual {... */\n    tag_9:\n      callvalue\n      dup1\n      iszero\n      tag_60\n      jumpi\n      0x00\n      dup1\n      revert\n    tag_60:\n      pop\n      tag_61\n      0x04\n      dup1\n      calldatasize\n      sub\n      dup2\n      add\n      swap1\n      tag_62\n      swap2\n      swap1\n      tag_54\n      jump\t// in\n    tag_62:\n      tag_63\n      jump\t// in\n    tag_61:\n      stop\n        /* \"contracts/npc_marketplace/npc_marketplace_core.sol\":2107:2243  function buyNFT(uint256 listingId) public payable virtual nonReentrant {... */\n    tag_10:\n      tag_64\n      0x04\n      dup1\n      calldatasize\n      sub\n      dup2\n      add\n      swap1\n      tag_65\n      swap2\n      swap1\n      tag_32\n      jump\t// in\n    tag_65:\n      tag_66\n      jump\t// in\n    tag_64:\n      stop\n        /* \"contracts/npc_marketplace/npc_marketplace_core.sol\":711:749  uint256 public listingFee = 0.01 ether */\n    tag_11:\n      callvalue\n      dup1\n      iszero\n      tag_67\n      jumpi\n      0x00\n      dup1\n      revert\n    tag_67:\n      pop\n      tag_68\n      tag_69\n      jump\t// in\n    tag_68:\n      mload(0x40)\n      tag_70\n      swap2\n      swap1\n      tag_71\n      jump\t// in\n    tag_70:\n      mload(0x40)\n      dup1\n      swap2\n      sub\n      swap1\n      return\n        /* \"contracts/npc_marketplace/npc_marketplace_core.sol\":457:517  bytes32 public constant ADMIN_ROLE = keccak256(\"ADMIN_ROLE\") */\n    tag_12:\n      callvalue\n      dup1\n      iszero\n      tag_72\n      jumpi\n      0x00\n      dup1\n      revert\n    tag_72:\n      pop\n      tag_73\n      tag_74\n      jump\t// in\n    tag_73:\n      mload(0x40)\n      tag_75\n      swap2\n      swap1\n      tag_46\n      jump\t// in\n    tag_75:\n      mload(0x40)\n      dup1\n      swap2\n      sub\n      swap1\n      return\n        /* \"@openzeppelin/contracts/access/AccessControl.sol\":2854:2990  function hasRole(bytes32 role, address account) public view virtual returns (bool) {... */\n    tag_13:\n      callvalue\n      dup1\n      iszero\n      tag_76\n      jumpi\n      0x00\n      dup1\n      revert\n    tag_76:\n      pop\n      tag_77\n      0x04\n      dup1\n      calldatasize\n      sub\n      dup2\n      add\n      swap1\n      tag_78\n      swap2\n      swap1\n      tag_54\n      jump\t// in\n    tag_78:\n      tag_79\n      jump\t// in\n    tag_77:\n      mload(0x40)\n      tag_80\n      swap2\n      swap1\n      tag_28\n      jump\t// in\n    tag_80:\n      mload(0x40)\n      dup1\n      swap2\n      sub\n      swap1\n      return\n        /* \"contracts/npc_marketplace/npc_marketplace_bidding.sol\":631:1228  function placeBid(uint256 listingId) public payable virtual nonReentrant {... */\n    tag_14:\n      tag_81\n      0x04\n      dup1\n      calldatasize\n      sub\n      dup2\n      add\n      swap1\n      tag_82\n      swap2\n      swap1\n      tag_32\n      jump\t// in\n    tag_82:\n      tag_83\n      jump\t// in\n    tag_81:\n      stop\n        /* \"@openzeppelin/contracts/access/AccessControl.sol\":2187:2236  bytes32 public constant DEFAULT_ADMIN_ROLE = 0x00 */\n    tag_15:\n      callvalue\n      dup1\n      iszero\n      tag_84\n      jumpi\n      0x00\n      dup1\n      revert\n    tag_84:\n      pop\n      tag_85\n      tag_86\n      jump\t// in\n    tag_85:\n      mload(0x40)\n      tag_87\n      swap2\n      swap1\n      tag_46\n      jump\t// in\n    tag_87:\n      mload(0x40)\n      dup1\n      swap2\n      sub\n      swap1\n      return\n        /* \"contracts/npc_marketplace/npc_marketplace_core.sol\":1429:2099  function listNFT(address tokenAddress, uint256 tokenId, uint256 price) external payable nonReentrant {... */\n    tag_16:\n      tag_88\n      0x04\n      dup1\n      calldatasize\n      sub\n      dup2\n      add\n      swap1\n      tag_89\n      swap2\n      swap1\n      tag_90\n      jump\t// in\n    tag_89:\n      tag_91\n      jump\t// in\n    tag_88:\n      stop\n        /* \"@openzeppelin/contracts/access/AccessControl.sol\":4642:4780  function revokeRole(bytes32 role, address account) public virtual onlyRole(getRoleAdmin(role)) {... */\n    tag_17:\n      callvalue\n      dup1\n      iszero\n      tag_92\n      jumpi\n      0x00\n      dup1\n      revert\n    tag_92:\n      pop\n      tag_93\n      0x04\n      dup1\n      calldatasize\n      sub\n      dup2\n      add\n      swap1\n      tag_94\n      swap2\n      swap1\n      tag_54\n      jump\t// in\n    tag_94:\n      tag_95\n      jump\t// in\n    tag_93:\n      stop\n        /* \"contracts/npc_marketplace/npc_marketplace_core.sol\":661:704  mapping(uint256 => Listing) public listings */\n    tag_18:\n      callvalue\n      dup1\n      iszero\n      tag_96\n      jumpi\n      0x00\n      dup1\n      revert\n    tag_96:\n      pop\n      tag_97\n      0x04\n      dup1\n      calldatasize\n      sub\n      dup2\n      add\n      swap1\n      tag_98\n      swap2\n      swap1\n      tag_32\n      jump\t// in\n    tag_98:\n      tag_99\n      jump\t// in\n    tag_97:\n      mload(0x40)\n      tag_100\n      swap5\n      swap4\n      swap3\n      swap2\n      swap1\n      tag_101\n      jump\t// in\n    tag_100:\n      mload(0x40)\n      dup1\n      swap2\n      sub\n      swap1\n      return\n        /* \"@openzeppelin/contracts/access/AccessControl.sol\":2565:2767  function supportsInterface(bytes4 interfaceId) public view virtual override returns (bool) {... */\n    tag_26:\n        /* \"@openzeppelin/contracts/access/AccessControl.sol\":2650:2654  bool */\n      0x00\n        /* \"@openzeppelin/contracts/access/AccessControl.sol\":2688:2720  type(IAccessControl).interfaceId */\n      0x7965db0b00000000000000000000000000000000000000000000000000000000\n        /* \"@openzeppelin/contracts/access/AccessControl.sol\":2673:2720  interfaceId == type(IAccessControl).interfaceId */\n      not(0xffffffffffffffffffffffffffffffffffffffffffffffffffffffff)\n      and\n        /* \"@openzeppelin/contracts/access/AccessControl.sol\":2673:2684  interfaceId */\n      dup3\n        /* \"@openzeppelin/contracts/access/AccessControl.sol\":2673:2720  interfaceId == type(IAccessControl).interfaceId */\n      not(0xffffffffffffffffffffffffffffffffffffffffffffffffffffffff)\n      and\n      eq\n        /* \"@openzeppelin/contracts/access/AccessControl.sol\":2673:2760  interfaceId == type(IAccessControl).interfaceId || super.supportsInterface(interfaceId) */\n      dup1\n      tag_103\n      jumpi\n      pop\n        /* \"@openzeppelin/contracts/access/AccessControl.sol\":2724:2760  super.supportsInterface(interfaceId) */\n      tag_104\n        /* \"@openzeppelin/contracts/access/AccessControl.sol\":2748:2759  interfaceId */\n      dup3\n        /* \"@openzeppelin/contracts/access/AccessControl.sol\":2724:2747  super.supportsInterface */\n      tag_105\n        /* \"@openzeppelin/contracts/access/AccessControl.sol\":2724:2760  super.supportsInterface(interfaceId) */\n      jump\t// in\n    tag_104:\n        /* \"@openzeppelin/contracts/access/AccessControl.sol\":2673:2760  interfaceId == type(IAccessControl).interfaceId || super.supportsInterface(interfaceId) */\n    tag_103:\n        /* \"@openzeppelin/contracts/access/AccessControl.sol\":2666:2760  return interfaceId == type(IAccessControl).interfaceId || super.supportsInterface(interfaceId) */\n      swap1\n      pop\n        /* \"@openzeppelin/contracts/access/AccessControl.sol\":2565:2767  function supportsInterface(bytes4 interfaceId) public view virtual override returns (bool) {... */\n      swap2\n      swap1\n      pop\n      jump\t// out\n        /* \"contracts/npc_marketplace/npc_marketplace_bidding.sol\":282:324  mapping(uint256 => Bid) public highestBids */\n    tag_33:\n      mstore(0x20, 0x05)\n      dup1\n      0x00\n      mstore\n      keccak256(0x00, 0x40)\n      0x00\n      swap2\n      pop\n      swap1\n      pop\n      dup1\n      0x00\n      add\n      0x00\n      swap1\n      sload\n      swap1\n      0x0100\n      exp\n      swap1\n      div\n      0xffffffffffffffffffffffffffffffffffffffff\n      and\n      swap1\n      dup1\n      0x01\n      add\n      sload\n      swap1\n      pop\n      dup3\n      jump\t// out\n        /* \"contracts/npc_marketplace/npc_marketplace_core.sol\":1331:1421  function setListingFee(uint256 fee) external onlyAdmin {... */\n    tag_39:\n        /* \"contracts/npc_marketplace/npc_marketplace_core.sol\":1245:1276  hasRole(ADMIN_ROLE, msg.sender) */\n      tag_107\n        /* \"contracts/npc_marketplace/npc_marketplace_core.sol\":494:517  keccak256(\"ADMIN_ROLE\") */\n      0xa49807205ce4d355092ef5a8a18f56e8913cf4a201fbe287825b095693c21775\n        /* \"contracts/npc_marketplace/npc_marketplace_core.sol\":1265:1275  msg.sender */\n      caller\n        /* \"contracts/npc_marketplace/npc_marketplace_core.sol\":1245:1252  hasRole */\n      tag_79\n        /* \"contracts/npc_marketplace/npc_marketplace_core.sol\":1245:1276  hasRole(ADMIN_ROLE, msg.sender) */\n      jump\t// in\n    tag_107:\n        /* \"contracts/npc_marketplace/npc_marketplace_core.sol\":1237:1303  require(hasRole(ADMIN_ROLE, msg.sender), \"Caller is not an admin\") */\n      tag_108\n      jumpi\n      mload(0x40)\n      0x08c379a000000000000000000000000000000000000000000000000000000000\n      dup2\n      mstore\n      0x04\n      add\n      tag_109\n      swap1\n      tag_110\n      jump\t// in\n    tag_109:\n      mload(0x40)\n      dup1\n      swap2\n      sub\n      swap1\n      revert\n    tag_108:\n        /* \"contracts/npc_marketplace/npc_marketplace_core.sol\":1410:1413  fee */\n      dup1\n        /* \"contracts/npc_marketplace/npc_marketplace_core.sol\":1397:1407  listingFee */\n      0x04\n        /* \"contracts/npc_marketplace/npc_marketplace_core.sol\":1397:1413  listingFee = fee */\n      dup2\n      swap1\n      sstore\n      pop\n        /* \"contracts/npc_marketplace/npc_marketplace_core.sol\":1331:1421  function setListingFee(uint256 fee) external onlyAdmin {... */\n      pop\n      jump\t// out\n        /* \"@openzeppelin/contracts/access/AccessControl.sol\":3810:3930  function getRoleAdmin(bytes32 role) public view virtual returns (bytes32) {... */\n    tag_44:\n        /* \"@openzeppelin/contracts/access/AccessControl.sol\":3875:3882  bytes32 */\n      0x00\n        /* \"@openzeppelin/contracts/access/AccessControl.sol\":3901:3907  _roles */\n      0x01\n        /* \"@openzeppelin/contracts/access/AccessControl.sol\":3901:3913  _roles[role] */\n      0x00\n        /* \"@openzeppelin/contracts/access/AccessControl.sol\":3908:3912  role */\n      dup4\n        /* \"@openzeppelin/contracts/access/AccessControl.sol\":3901:3913  _roles[role] */\n      dup2\n      mstore\n      0x20\n      add\n      swap1\n      dup2\n      mstore\n      0x20\n      add\n      0x00\n      keccak256\n        /* \"@openzeppelin/contracts/access/AccessControl.sol\":3901:3923  _roles[role].adminRole */\n      0x01\n      add\n      sload\n        /* \"@openzeppelin/contracts/access/AccessControl.sol\":3894:3923  return _roles[role].adminRole */\n      swap1\n      pop\n        /* \"@openzeppelin/contracts/access/AccessControl.sol\":3810:3930  function getRoleAdmin(bytes32 role) public view virtual returns (bytes32) {... */\n      swap2\n      swap1\n      pop\n      jump\t// out\n        /* \"contracts/npc_marketplace/npc_marketplace_bidding.sol\":1236:2012  function acceptBid(uint256 listingId) public virtual nonReentrant {... */\n    tag_50:\n        /* \"@openzeppelin/contracts/security/ReentrancyGuard.sol\":2261:2282  _nonReentrantBefore() */\n      tag_114\n        /* \"@openzeppelin/contracts/security/ReentrancyGuard.sol\":2261:2280  _nonReentrantBefore */\n      tag_115\n        /* \"@openzeppelin/contracts/security/ReentrancyGuard.sol\":2261:2282  _nonReentrantBefore() */\n      jump\t// in\n    tag_114:\n        /* \"contracts/npc_marketplace/npc_marketplace_bidding.sol\":1313:1335  Listing memory listing */\n      0x00\n        /* \"contracts/npc_marketplace/npc_marketplace_bidding.sol\":1338:1346  listings */\n      0x03\n        /* \"contracts/npc_marketplace/npc_marketplace_bidding.sol\":1338:1357  listings[listingId] */\n      0x00\n        /* \"contracts/npc_marketplace/npc_marketplace_bidding.sol\":1347:1356  listingId */\n      dup4\n        /* \"contracts/npc_marketplace/npc_marketplace_bidding.sol\":1338:1357  listings[listingId] */\n      dup2\n      mstore\n      0x20\n      add\n      swap1\n      dup2\n      mstore\n      0x20\n      add\n      0x00\n      keccak256\n        /* \"contracts/npc_marketplace/npc_marketplace_bidding.sol\":1313:1357  Listing memory listing = listings[listingId] */\n      mload(0x40)\n      dup1\n      0x80\n      add\n      0x40\n      mstore\n      swap1\n      dup2\n      0x00\n      dup3\n      add\n      0x00\n      swap1\n      sload\n      swap1\n      0x0100\n      exp\n      swap1\n      div\n      0xffffffffffffffffffffffffffffffffffffffff\n      and\n      0xffffffffffffffffffffffffffffffffffffffff\n      and\n      0xffffffffffffffffffffffffffffffffffffffff\n      and\n      dup2\n      mstore\n      0x20\n      add\n      0x01\n      dup3\n      add\n      0x00\n      swap1\n      sload\n      swap1\n      0x0100\n      exp\n      swap1\n      div\n      0xffffffffffffffffffffffffffffffffffffffff\n      and\n      0xffffffffffffffffffffffffffffffffffffffff\n      and\n      0xffffffffffffffffffffffffffffffffffffffff\n      and\n      dup2\n      mstore\n      0x20\n      add\n      0x02\n      dup3\n      add\n      sload\n      dup2\n      mstore\n      0x20\n      add\n      0x03\n      dup3\n      add\n      sload\n      dup2\n      mstore\n      pop\n      pop\n      swap1\n      pop\n        /* \"contracts/npc_marketplace/npc_marketplace_bidding.sol\":1368:1382  Bid memory bid */\n      0x00\n        /* \"contracts/npc_marketplace/npc_marketplace_bidding.sol\":1385:1396  highestBids */\n      0x05\n        /* \"contracts/npc_marketplace/npc_marketplace_bidding.sol\":1385:1407  highestBids[listingId] */\n      0x00\n        /* \"contracts/npc_marketplace/npc_marketplace_bidding.sol\":1397:1406  listingId */\n      dup5\n        /* \"contracts/npc_marketplace/npc_marketplace_bidding.sol\":1385:1407  highestBids[listingId] */\n      dup2\n      mstore\n      0x20\n      add\n      swap1\n      dup2\n      mstore\n      0x20\n      add\n      0x00\n      keccak256\n        /* \"contracts/npc_marketplace/npc_marketplace_bidding.sol\":1368:1407  Bid memory bid = highestBids[listingId] */\n      mload(0x40)\n      dup1\n      0x40\n      add\n      0x40\n      mstore\n      swap1\n      dup2\n      0x00\n      dup3\n      add\n      0x00\n      swap1\n      sload\n      swap1\n      0x0100\n      exp\n      swap1\n      div\n      0xffffffffffffffffffffffffffffffffffffffff\n      and\n      0xffffffffffffffffffffffffffffffffffffffff\n      and\n      0xffffffffffffffffffffffffffffffffffffffff\n      and\n      dup2\n      mstore\n      0x20\n      add\n      0x01\n      dup3\n      add\n      sload\n      dup2\n      mstore\n      pop\n      pop\n      swap1\n      pop\n        /* \"contracts/npc_marketplace/npc_marketplace_bidding.sol\":1444:1454  msg.sender */\n      caller\n        /* \"contracts/npc_marketplace/npc_marketplace_bidding.sol\":1426:1454  listing.seller == msg.sender */\n      0xffffffffffffffffffffffffffffffffffffffff\n      and\n        /* \"contracts/npc_marketplace/npc_marketplace_bidding.sol\":1426:1433  listing */\n      dup3\n        /* \"contracts/npc_marketplace/npc_marketplace_bidding.sol\":1426:1440  listing.seller */\n      0x00\n      add\n      mload\n        /* \"contracts/npc_marketplace/npc_marketplace_bidding.sol\":1426:1454  listing.seller == msg.sender */\n      0xffffffffffffffffffffffffffffffffffffffff\n      and\n      eq\n        /* \"contracts/npc_marketplace/npc_marketplace_bidding.sol\":1418:1483  require(listing.seller == msg.sender, \"Caller is not the seller\") */\n      tag_117\n      jumpi\n      mload(0x40)\n      0x08c379a000000000000000000000000000000000000000000000000000000000\n      dup2\n      mstore\n      0x04\n      add\n      tag_118\n      swap1\n      tag_119\n      jump\t// in\n    tag_118:\n      mload(0x40)\n      dup1\n      swap2\n      sub\n      swap1\n      revert\n    tag_117:\n        /* \"contracts/npc_marketplace/npc_marketplace_bidding.sol\":1518:1519  0 */\n      0x00\n        /* \"contracts/npc_marketplace/npc_marketplace_bidding.sol\":1502:1509  listing */\n      dup3\n        /* \"contracts/npc_marketplace/npc_marketplace_bidding.sol\":1502:1515  listing.price */\n      0x60\n      add\n      mload\n        /* \"contracts/npc_marketplace/npc_marketplace_bidding.sol\":1502:1519  listing.price > 0 */\n      gt\n        /* \"contracts/npc_marketplace/npc_marketplace_bidding.sol\":1494:1542  require(listing.price > 0, \"Listing not active\") */\n      tag_120\n      jumpi\n      mload(0x40)\n      0x08c379a000000000000000000000000000000000000000000000000000000000\n      dup2\n      mstore\n      0x04\n      add\n      tag_121\n      swap1\n      tag_122\n      jump\t// in\n    tag_121:\n      mload(0x40)\n      dup1\n      swap2\n      sub\n      swap1\n      revert\n    tag_120:\n        /* \"contracts/npc_marketplace/npc_marketplace_bidding.sol\":1574:1575  0 */\n      0x00\n        /* \"contracts/npc_marketplace/npc_marketplace_bidding.sol\":1561:1564  bid */\n      dup2\n        /* \"contracts/npc_marketplace/npc_marketplace_bidding.sol\":1561:1571  bid.amount */\n      0x20\n      add\n      mload\n        /* \"contracts/npc_marketplace/npc_marketplace_bidding.sol\":1561:1575  bid.amount > 0 */\n      gt\n        /* \"contracts/npc_marketplace/npc_marketplace_bidding.sol\":1553:1596  require(bid.amount > 0, \"No bid to accept\") */\n      tag_123\n      jumpi\n      mload(0x40)\n      0x08c379a000000000000000000000000000000000000000000000000000000000\n      dup2\n      mstore\n      0x04\n      add\n      tag_124\n      swap1\n      tag_125\n      jump\t// in\n    tag_124:\n      mload(0x40)\n      dup1\n      swap2\n      sub\n      swap1\n      revert\n    tag_123:\n        /* \"contracts/npc_marketplace/npc_marketplace_bidding.sol\":1616:1624  listings */\n      0x03\n        /* \"contracts/npc_marketplace/npc_marketplace_bidding.sol\":1616:1635  listings[listingId] */\n      0x00\n        /* \"contracts/npc_marketplace/npc_marketplace_bidding.sol\":1625:1634  listingId */\n      dup5\n        /* \"contracts/npc_marketplace/npc_marketplace_bidding.sol\":1616:1635  listings[listingId] */\n      dup2\n      mstore\n      0x20\n      add\n      swap1\n      dup2\n      mstore\n      0x20\n      add\n      0x00\n      keccak256\n      0x00\n        /* \"contracts/npc_marketplace/npc_marketplace_bidding.sol\":1609:1635  delete listings[listingId] */\n      dup1\n      dup3\n      add\n      exp(0x0100, 0x00)\n      dup2\n      sload\n      swap1\n      0xffffffffffffffffffffffffffffffffffffffff\n      mul\n      not\n      and\n      swap1\n      sstore\n      0x01\n      dup3\n      add\n      exp(0x0100, 0x00)\n      dup2\n      sload\n      swap1\n      0xffffffffffffffffffffffffffffffffffffffff\n      mul\n      not\n      and\n      swap1\n      sstore\n      0x02\n      dup3\n      add\n      0x00\n      swap1\n      sstore\n      0x03\n      dup3\n      add\n      0x00\n      swap1\n      sstore\n      pop\n      pop\n        /* \"contracts/npc_marketplace/npc_marketplace_bidding.sol\":1653:1664  highestBids */\n      0x05\n        /* \"contracts/npc_marketplace/npc_marketplace_bidding.sol\":1653:1675  highestBids[listingId] */\n      0x00\n        /* \"contracts/npc_marketplace/npc_marketplace_bidding.sol\":1665:1674  listingId */\n      dup5\n        /* \"contracts/npc_marketplace/npc_marketplace_bidding.sol\":1653:1675  highestBids[listingId] */\n      dup2\n      mstore\n      0x20\n      add\n      swap1\n      dup2\n      mstore\n      0x20\n      add\n      0x00\n      keccak256\n      0x00\n        /* \"contracts/npc_marketplace/npc_marketplace_bidding.sol\":1646:1675  delete highestBids[listingId] */\n      dup1\n      dup3\n      add\n      exp(0x0100, 0x00)\n      dup2\n      sload\n      swap1\n      0xffffffffffffffffffffffffffffffffffffffff\n      mul\n      not\n      and\n      swap1\n      sstore\n      0x01\n      dup3\n      add\n      0x00\n      swap1\n      sstore\n      pop\n      pop\n        /* \"contracts/npc_marketplace/npc_marketplace_bidding.sol\":1696:1703  listing */\n      dup2\n        /* \"contracts/npc_marketplace/npc_marketplace_bidding.sol\":1696:1716  listing.tokenAddress */\n      0x20\n      add\n      mload\n        /* \"contracts/npc_marketplace/npc_marketplace_bidding.sol\":1688:1730  IERC721(listing.tokenAddress).transferFrom */\n      0xffffffffffffffffffffffffffffffffffffffff\n      and\n      0x23b872dd\n        /* \"contracts/npc_marketplace/npc_marketplace_bidding.sol\":1739:1743  this */\n      address\n        /* \"contracts/npc_marketplace/npc_marketplace_bidding.sol\":1746:1749  bid */\n      dup4\n        /* \"contracts/npc_marketplace/npc_marketplace_bidding.sol\":1746:1756  bid.bidder */\n      0x00\n      add\n      mload\n        /* \"contracts/npc_marketplace/npc_marketplace_bidding.sol\":1758:1765  listing */\n      dup6\n        /* \"contracts/npc_marketplace/npc_marketplace_bidding.sol\":1758:1773  listing.tokenId */\n      0x40\n      add\n      mload\n        /* \"contracts/npc_marketplace/npc_marketplace_bidding.sol\":1688:1774  IERC721(listing.tokenAddress).transferFrom(address(this), bid.bidder, listing.tokenId) */\n      mload(0x40)\n      dup5\n      0xffffffff\n      and\n      0xe0\n      shl\n      dup2\n      mstore\n      0x04\n      add\n      tag_126\n      swap4\n      swap3\n      swap2\n      swap1\n      tag_127\n      jump\t// in\n    tag_126:\n      0x00\n      mload(0x40)\n      dup1\n      dup4\n      sub\n      dup2\n      0x00\n      dup8\n      dup1\n      extcodesize\n      iszero\n      dup1\n      iszero\n      tag_128\n      jumpi\n      0x00\n      dup1\n      revert\n    tag_128:\n      pop\n      gas\n      call\n      iszero\n      dup1\n      iszero\n      tag_130\n      jumpi\n      returndatasize\n      0x00\n      dup1\n      returndatacopy\n      revert(0x00, returndatasize)\n    tag_130:\n      pop\n      pop\n      pop\n      pop\n        /* \"contracts/npc_marketplace/npc_marketplace_bidding.sol\":1793:1800  listing */\n      dup2\n        /* \"contracts/npc_marketplace/npc_marketplace_bidding.sol\":1793:1807  listing.seller */\n      0x00\n      add\n      mload\n        /* \"contracts/npc_marketplace/npc_marketplace_bidding.sol\":1785:1817  payable(listing.seller).transfer */\n      0xffffffffffffffffffffffffffffffffffffffff\n      and\n        /* \"contracts/npc_marketplace/npc_marketplace_bidding.sol\":1785:1829  payable(listing.seller).transfer(bid.amount) */\n      0x08fc\n        /* \"contracts/npc_marketplace/npc_marketplace_bidding.sol\":1818:1821  bid */\n      dup3\n        /* \"contracts/npc_marketplace/npc_marketplace_bidding.sol\":1818:1828  bid.amount */\n      0x20\n      add\n      mload\n        /* \"contracts/npc_marketplace/npc_marketplace_bidding.sol\":1785:1829  payable(listing.seller).transfer(bid.amount) */\n      swap1\n      dup2\n      iszero\n      mul\n      swap1\n      mload(0x40)\n      0x00\n      mload(0x40)\n      dup1\n      dup4\n      sub\n      dup2\n      dup6\n      dup9\n      dup9\n      call\n      swap4\n      pop\n      pop\n      pop\n      pop\n      iszero\n      dup1\n      iszero\n      tag_132\n      jumpi\n      returndatasize\n      0x00\n      dup1\n      returndatacopy\n      revert(0x00, returndatasize)\n    tag_132:\n      pop\n        /* \"contracts/npc_marketplace/npc_marketplace_bidding.sol\":1882:1885  bid */\n      dup1\n        /* \"contracts/npc_marketplace/npc_marketplace_bidding.sol\":1882:1892  bid.bidder */\n      0x00\n      add\n      mload\n        /* \"contracts/npc_marketplace/npc_marketplace_bidding.sol\":1847:1905  BidAccepted(listingId, msg.sender, bid.bidder, bid.amount) */\n      0xffffffffffffffffffffffffffffffffffffffff\n      and\n        /* \"contracts/npc_marketplace/npc_marketplace_bidding.sol\":1870:1880  msg.sender */\n      caller\n        /* \"contracts/npc_marketplace/npc_marketplace_bidding.sol\":1847:1905  BidAccepted(listingId, msg.sender, bid.bidder, bid.amount) */\n      0xffffffffffffffffffffffffffffffffffffffff\n      and\n        /* \"contracts/npc_marketplace/npc_marketplace_bidding.sol\":1859:1868  listingId */\n      dup5\n        /* \"contracts/npc_marketplace/npc_marketplace_bidding.sol\":1847:1905  BidAccepted(listingId, msg.sender, bid.bidder, bid.amount) */\n      0xe6d56779a392535d3a591e92b65ba36f2ecc424bbf5220d0176a7da29385b504\n        /* \"contracts/npc_marketplace/npc_marketplace_bidding.sol\":1894:1897  bid */\n      dup5\n        /* \"contracts/npc_marketplace/npc_marketplace_bidding.sol\":1894:1904  bid.amount */\n      0x20\n      add\n      mload\n        /* \"contracts/npc_marketplace/npc_marketplace_bidding.sol\":1847:1905  BidAccepted(listingId, msg.sender, bid.bidder, bid.amount) */\n      mload(0x40)\n      tag_133\n      swap2\n      swap1\n      tag_71\n      jump\t// in\n    tag_133:\n      mload(0x40)\n      dup1\n      swap2\n      sub\n      swap1\n      log4\n        /* \"contracts/npc_marketplace/npc_marketplace_bidding.sol\":1949:1956  listing */\n      dup2\n        /* \"contracts/npc_marketplace/npc_marketplace_bidding.sol\":1949:1969  listing.tokenAddress */\n      0x20\n      add\n      mload\n        /* \"contracts/npc_marketplace/npc_marketplace_bidding.sol\":1921:2002  Sale(listingId, msg.sender, listing.tokenAddress, listing.tokenId, listing.price) */\n      0xffffffffffffffffffffffffffffffffffffffff\n      and\n        /* \"contracts/npc_marketplace/npc_marketplace_bidding.sol\":1937:1947  msg.sender */\n      caller\n        /* \"contracts/npc_marketplace/npc_marketplace_bidding.sol\":1921:2002  Sale(listingId, msg.sender, listing.tokenAddress, listing.tokenId, listing.price) */\n      0xffffffffffffffffffffffffffffffffffffffff\n      and\n        /* \"contracts/npc_marketplace/npc_marketplace_bidding.sol\":1926:1935  listingId */\n      dup5\n        /* \"contracts/npc_marketplace/npc_marketplace_bidding.sol\":1921:2002  Sale(listingId, msg.sender, listing.tokenAddress, listing.tokenId, listing.price) */\n      0xf3debaf22196a6ddf52a60fa71058cd7edf5e25bb98f4e96c994a5d4a9b0dd3e\n        /* \"contracts/npc_marketplace/npc_marketplace_bidding.sol\":1971:1978  listing */\n      dup6\n        /* \"contracts/npc_marketplace/npc_marketplace_bidding.sol\":1971:1986  listing.tokenId */\n      0x40\n      add\n      mload\n        /* \"contracts/npc_marketplace/npc_marketplace_bidding.sol\":1988:1995  listing */\n      dup7\n        /* \"contracts/npc_marketplace/npc_marketplace_bidding.sol\":1988:2001  listing.price */\n      0x60\n      add\n      mload\n        /* \"contracts/npc_marketplace/npc_marketplace_bidding.sol\":1921:2002  Sale(listingId, msg.sender, listing.tokenAddress, listing.tokenId, listing.price) */\n      mload(0x40)\n      tag_134\n      swap3\n      swap2\n      swap1\n      tag_135\n      jump\t// in\n    tag_134:\n      mload(0x40)\n      dup1\n      swap2\n      sub\n      swap1\n      log4\n        /* \"contracts/npc_marketplace/npc_marketplace_bidding.sol\":1302:2012  {... */\n      pop\n      pop\n        /* \"@openzeppelin/contracts/security/ReentrancyGuard.sol\":2303:2323  _nonReentrantAfter() */\n      tag_136\n        /* \"@openzeppelin/contracts/security/ReentrancyGuard.sol\":2303:2321  _nonReentrantAfter */\n      tag_137\n        /* \"@openzeppelin/contracts/security/ReentrancyGuard.sol\":2303:2323  _nonReentrantAfter() */\n      jump\t// in\n    tag_136:\n        /* \"contracts/npc_marketplace/npc_marketplace_bidding.sol\":1236:2012  function acceptBid(uint256 listingId) public virtual nonReentrant {... */\n      pop\n      jump\t// out\n        /* \"@openzeppelin/contracts/access/AccessControl.sol\":4226:4362  function grantRole(bytes32 role, address account) public virtual onlyRole(getRoleAdmin(role)) {... */\n    tag_55:\n        /* \"@openzeppelin/contracts/access/AccessControl.sol\":4300:4318  getRoleAdmin(role) */\n      tag_138\n        /* \"@openzeppelin/contracts/access/AccessControl.sol\":4313:4317  role */\n      dup3\n        /* \"@openzeppelin/contracts/access/AccessControl.sol\":4300:4312  getRoleAdmin */\n      tag_44\n        /* \"@openzeppelin/contracts/access/AccessControl.sol\":4300:4318  getRoleAdmin(role) */\n      jump\t// in\n    tag_138:\n        /* \"@openzeppelin/contracts/access/AccessControl.sol\":2464:2480  _checkRole(role) */\n      tag_140\n        /* \"@openzeppelin/contracts/access/AccessControl.sol\":2475:2479  role */\n      dup2\n        /* \"@openzeppelin/contracts/access/AccessControl.sol\":2464:2474  _checkRole */\n      tag_141\n        /* \"@openzeppelin/contracts/access/AccessControl.sol\":2464:2480  _checkRole(role) */\n      jump\t// in\n    tag_140:\n        /* \"@openzeppelin/contracts/access/AccessControl.sol\":4330:4355  _grantRole(role, account) */\n      tag_143\n        /* \"@openzeppelin/contracts/access/AccessControl.sol\":4341:4345  role */\n      dup4\n        /* \"@openzeppelin/contracts/access/AccessControl.sol\":4347:4354  account */\n      dup4\n        /* \"@openzeppelin/contracts/access/AccessControl.sol\":4330:4340  _grantRole */\n      tag_144\n        /* \"@openzeppelin/contracts/access/AccessControl.sol\":4330:4355  _grantRole(role, account) */\n      jump\t// in\n    tag_143:\n      pop\n        /* \"@openzeppelin/contracts/access/AccessControl.sol\":4226:4362  function grantRole(bytes32 role, address account) public virtual onlyRole(getRoleAdmin(role)) {... */\n      pop\n      pop\n      pop\n      jump\t// out\n        /* \"contracts/npc_marketplace/npc_marketplace_core.sol\":2255:2643  function cancelListing(uint256 listingId) external nonReentrant {... */\n    tag_59:\n        /* \"@openzeppelin/contracts/security/ReentrancyGuard.sol\":2261:2282  _nonReentrantBefore() */\n      tag_146\n        /* \"@openzeppelin/contracts/security/ReentrancyGuard.sol\":2261:2280  _nonReentrantBefore */\n      tag_115\n        /* \"@openzeppelin/contracts/security/ReentrancyGuard.sol\":2261:2282  _nonReentrantBefore() */\n      jump\t// in\n    tag_146:\n        /* \"contracts/npc_marketplace/npc_marketplace_core.sol\":2330:2352  Listing memory listing */\n      0x00\n        /* \"contracts/npc_marketplace/npc_marketplace_core.sol\":2355:2363  listings */\n      0x03\n        /* \"contracts/npc_marketplace/npc_marketplace_core.sol\":2355:2374  listings[listingId] */\n      0x00\n        /* \"contracts/npc_marketplace/npc_marketplace_core.sol\":2364:2373  listingId */\n      dup4\n        /* \"contracts/npc_marketplace/npc_marketplace_core.sol\":2355:2374  listings[listingId] */\n      dup2\n      mstore\n      0x20\n      add\n      swap1\n      dup2\n      mstore\n      0x20\n      add\n      0x00\n      keccak256\n        /* \"contracts/npc_marketplace/npc_marketplace_core.sol\":2330:2374  Listing memory listing = listings[listingId] */\n      mload(0x40)\n      dup1\n      0x80\n      add\n      0x40\n      mstore\n      swap1\n      dup2\n      0x00\n      dup3\n      add\n      0x00\n      swap1\n      sload\n      swap1\n      0x0100\n      exp\n      swap1\n      div\n      0xffffffffffffffffffffffffffffffffffffffff\n      and\n      0xffffffffffffffffffffffffffffffffffffffff\n      and\n      0xffffffffffffffffffffffffffffffffffffffff\n      and\n      dup2\n      mstore\n      0x20\n      add\n      0x01\n      dup3\n      add\n      0x00\n      swap1\n      sload\n      swap1\n      0x0100\n      exp\n      swap1\n      div\n      0xffffffffffffffffffffffffffffffffffffffff\n      and\n      0xffffffffffffffffffffffffffffffffffffffff\n      and\n      0xffffffffffffffffffffffffffffffffffffffff\n      and\n      dup2\n      mstore\n      0x20\n      add\n      0x02\n      dup3\n      add\n      sload\n      dup2\n      mstore\n      0x20\n      add\n      0x03\n      dup3\n      add\n      sload\n      dup2\n      mstore\n      pop\n      pop\n      swap1\n      pop\n        /* \"contracts/npc_marketplace/npc_marketplace_core.sol\":2411:2421  msg.sender */\n      caller\n        /* \"contracts/npc_marketplace/npc_marketplace_core.sol\":2393:2421  listing.seller == msg.sender */\n      0xffffffffffffffffffffffffffffffffffffffff\n      and\n        /* \"contracts/npc_marketplace/npc_marketplace_core.sol\":2393:2400  listing */\n      dup2\n        /* \"contracts/npc_marketplace/npc_marketplace_core.sol\":2393:2407  listing.seller */\n      0x00\n      add\n      mload\n        /* \"contracts/npc_marketplace/npc_marketplace_core.sol\":2393:2421  listing.seller == msg.sender */\n      0xffffffffffffffffffffffffffffffffffffffff\n      and\n      eq\n        /* \"contracts/npc_marketplace/npc_marketplace_core.sol\":2385:2450  require(listing.seller == msg.sender, \"Caller is not the seller\") */\n      tag_148\n      jumpi\n      mload(0x40)\n      0x08c379a000000000000000000000000000000000000000000000000000000000\n      dup2\n      mstore\n      0x04\n      add\n      tag_149\n      swap1\n      tag_119\n      jump\t// in\n    tag_149:\n      mload(0x40)\n      dup1\n      swap2\n      sub\n      swap1\n      revert\n    tag_148:\n        /* \"contracts/npc_marketplace/npc_marketplace_core.sol\":2470:2478  listings */\n      0x03\n        /* \"contracts/npc_marketplace/npc_marketplace_core.sol\":2470:2489  listings[listingId] */\n      0x00\n        /* \"contracts/npc_marketplace/npc_marketplace_core.sol\":2479:2488  listingId */\n      dup4\n        /* \"contracts/npc_marketplace/npc_marketplace_core.sol\":2470:2489  listings[listingId] */\n      dup2\n      mstore\n      0x20\n      add\n      swap1\n      dup2\n      mstore\n      0x20\n      add\n      0x00\n      keccak256\n      0x00\n        /* \"contracts/npc_marketplace/npc_marketplace_core.sol\":2463:2489  delete listings[listingId] */\n      dup1\n      dup3\n      add\n      exp(0x0100, 0x00)\n      dup2\n      sload\n      swap1\n      0xffffffffffffffffffffffffffffffffffffffff\n      mul\n      not\n      and\n      swap1\n      sstore\n      0x01\n      dup3\n      add\n      exp(0x0100, 0x00)\n      dup2\n      sload\n      swap1\n      0xffffffffffffffffffffffffffffffffffffffff\n      mul\n      not\n      and\n      swap1\n      sstore\n      0x02\n      dup3\n      add\n      0x00\n      swap1\n      sstore\n      0x03\n      dup3\n      add\n      0x00\n      swap1\n      sstore\n      pop\n      pop\n        /* \"contracts/npc_marketplace/npc_marketplace_core.sol\":2508:2515  listing */\n      dup1\n        /* \"contracts/npc_marketplace/npc_marketplace_core.sol\":2508:2528  listing.tokenAddress */\n      0x20\n      add\n      mload\n        /* \"contracts/npc_marketplace/npc_marketplace_core.sol\":2500:2542  IERC721(listing.tokenAddress).transferFrom */\n      0xffffffffffffffffffffffffffffffffffffffff\n      and\n      0x23b872dd\n        /* \"contracts/npc_marketplace/npc_marketplace_core.sol\":2551:2555  this */\n      address\n        /* \"contracts/npc_marketplace/npc_marketplace_core.sol\":2558:2565  listing */\n      dup4\n        /* \"contracts/npc_marketplace/npc_marketplace_core.sol\":2558:2572  listing.seller */\n      0x00\n      add\n      mload\n        /* \"contracts/npc_marketplace/npc_marketplace_core.sol\":2574:2581  listing */\n      dup5\n        /* \"contracts/npc_marketplace/npc_marketplace_core.sol\":2574:2589  listing.tokenId */\n      0x40\n      add\n      mload\n        /* \"contracts/npc_marketplace/npc_marketplace_core.sol\":2500:2590  IERC721(listing.tokenAddress).transferFrom(address(this), listing.seller, listing.tokenId) */\n      mload(0x40)\n      dup5\n      0xffffffff\n      and\n      0xe0\n      shl\n      dup2\n      mstore\n      0x04\n      add\n      tag_150\n      swap4\n      swap3\n      swap2\n      swap1\n      tag_127\n      jump\t// in\n    tag_150:\n      0x00\n      mload(0x40)\n      dup1\n      dup4\n      sub\n      dup2\n      0x00\n      dup8\n      dup1\n      extcodesize\n      iszero\n      dup1\n      iszero\n      tag_151\n      jumpi\n      0x00\n      dup1\n      revert\n    tag_151:\n      pop\n      gas\n      call\n      iszero\n      dup1\n      iszero\n      tag_153\n      jumpi\n      returndatasize\n      0x00\n      dup1\n      returndatacopy\n      revert(0x00, returndatasize)\n    tag_153:\n      pop\n      pop\n      pop\n      pop\n        /* \"contracts/npc_marketplace/npc_marketplace_core.sol\":2625:2634  listingId */\n      dup2\n        /* \"contracts/npc_marketplace/npc_marketplace_core.sol\":2608:2635  ListingCancelled(listingId) */\n      0x411aee90354c51b1b04cd563fcab2617142a9d50da19232d888547c8a1b7fd8a\n      mload(0x40)\n      mload(0x40)\n      dup1\n      swap2\n      sub\n      swap1\n      log2\n        /* \"contracts/npc_marketplace/npc_marketplace_core.sol\":2319:2643  {... */\n      pop\n        /* \"@openzeppelin/contracts/security/ReentrancyGuard.sol\":2303:2323  _nonReentrantAfter() */\n      tag_154\n        /* \"@openzeppelin/contracts/security/ReentrancyGuard.sol\":2303:2321  _nonReentrantAfter */\n      tag_137\n        /* \"@openzeppelin/contracts/security/ReentrancyGuard.sol\":2303:2323  _nonReentrantAfter() */\n      jump\t// in\n    tag_154:\n        /* \"contracts/npc_marketplace/npc_marketplace_core.sol\":2255:2643  function cancelListing(uint256 listingId) external nonReentrant {... */\n      pop\n      jump\t// out\n        /* \"@openzeppelin/contracts/access/AccessControl.sol\":5328:5573  function renounceRole(bytes32 role, address callerConfirmation) public virtual {... */\n    tag_63:\n        /* \"@openzeppelin/contracts/access/AccessControl.sol\":5443:5455  _msgSender() */\n      tag_156\n        /* \"@openzeppelin/contracts/access/AccessControl.sol\":5443:5453  _msgSender */\n      tag_157\n        /* \"@openzeppelin/contracts/access/AccessControl.sol\":5443:5455  _msgSender() */\n      jump\t// in\n    tag_156:\n        /* \"@openzeppelin/contracts/access/AccessControl.sol\":5421:5455  callerConfirmation != _msgSender() */\n      0xffffffffffffffffffffffffffffffffffffffff\n      and\n        /* \"@openzeppelin/contracts/access/AccessControl.sol\":5421:5439  callerConfirmation */\n      dup2\n        /* \"@openzeppelin/contracts/access/AccessControl.sol\":5421:5455  callerConfirmation != _msgSender() */\n      0xffffffffffffffffffffffffffffffffffffffff\n      and\n      eq\n        /* \"@openzeppelin/contracts/access/AccessControl.sol\":5417:5519  if (callerConfirmation != _msgSender()) {... */\n      tag_158\n      jumpi\n        /* \"@openzeppelin/contracts/access/AccessControl.sol\":5478:5508  AccessControlBadConfirmation() */\n      mload(0x40)\n      0x6697b23200000000000000000000000000000000000000000000000000000000\n      dup2\n      mstore\n      0x04\n      add\n      mload(0x40)\n      dup1\n      swap2\n      sub\n      swap1\n      revert\n        /* \"@openzeppelin/contracts/access/AccessControl.sol\":5417:5519  if (callerConfirmation != _msgSender()) {... */\n    tag_158:\n        /* \"@openzeppelin/contracts/access/AccessControl.sol\":5529:5566  _revokeRole(role, callerConfirmation) */\n      tag_159\n        /* \"@openzeppelin/contracts/access/AccessControl.sol\":5541:5545  role */\n      dup3\n        /* \"@openzeppelin/contracts/access/AccessControl.sol\":5547:5565  callerConfirmation */\n      dup3\n        /* \"@openzeppelin/contracts/access/AccessControl.sol\":5529:5540  _revokeRole */\n      tag_160\n        /* \"@openzeppelin/contracts/access/AccessControl.sol\":5529:5566  _revokeRole(role, callerConfirmation) */\n      jump\t// in\n    tag_159:\n      pop\n        /* \"@openzeppelin/contracts/access/AccessControl.sol\":5328:5573  function renounceRole(bytes32 role, address callerConfirmation) public virtual {... */\n      pop\n      pop\n      jump\t// out\n        /* \"contracts/npc_marketplace/npc_marketplace_core.sol\":2107:2243  function buyNFT(uint256 listingId) public payable virtual nonReentrant {... */\n    tag_66:\n        /* \"@openzeppelin/contracts/security/ReentrancyGuard.sol\":2261:2282  _nonReentrantBefore() */\n      tag_162\n        /* \"@openzeppelin/contracts/security/ReentrancyGuard.sol\":2261:2280  _nonReentrantBefore */\n      tag_115\n        /* \"@openzeppelin/contracts/security/ReentrancyGuard.sol\":2261:2282  _nonReentrantBefore() */\n      jump\t// in\n    tag_162:\n        /* \"contracts/npc_marketplace/npc_marketplace_core.sol\":2189:2235  _fulfilSale(listingId, msg.sender, msg.value ) */\n      tag_164\n        /* \"contracts/npc_marketplace/npc_marketplace_core.sol\":2201:2210  listingId */\n      dup2\n        /* \"contracts/npc_marketplace/npc_marketplace_core.sol\":2212:2222  msg.sender */\n      caller\n        /* \"contracts/npc_marketplace/npc_marketplace_core.sol\":2224:2233  msg.value */\n      callvalue\n        /* \"contracts/npc_marketplace/npc_marketplace_core.sol\":2189:2200  _fulfilSale */\n      tag_165\n        /* \"contracts/npc_marketplace/npc_marketplace_core.sol\":2189:2235  _fulfilSale(listingId, msg.sender, msg.value ) */\n      jump\t// in\n    tag_164:\n        /* \"@openzeppelin/contracts/security/ReentrancyGuard.sol\":2303:2323  _nonReentrantAfter() */\n      tag_166\n        /* \"@openzeppelin/contracts/security/ReentrancyGuard.sol\":2303:2321  _nonReentrantAfter */\n      tag_137\n        /* \"@openzeppelin/contracts/security/ReentrancyGuard.sol\":2303:2323  _nonReentrantAfter() */\n      jump\t// in\n    tag_166:\n        /* \"contracts/npc_marketplace/npc_marketplace_core.sol\":2107:2243  function buyNFT(uint256 listingId) public payable virtual nonReentrant {... */\n      pop\n      jump\t// out\n        /* \"contracts/npc_marketplace/npc_marketplace_core.sol\":711:749  uint256 public listingFee = 0.01 ether */\n    tag_69:\n      sload(0x04)\n      dup2\n      jump\t// out\n        /* \"contracts/npc_marketplace/npc_marketplace_core.sol\":457:517  bytes32 public constant ADMIN_ROLE = keccak256(\"ADMIN_ROLE\") */\n    tag_74:\n        /* \"contracts/npc_marketplace/npc_marketplace_core.sol\":494:517  keccak256(\"ADMIN_ROLE\") */\n      0xa49807205ce4d355092ef5a8a18f56e8913cf4a201fbe287825b095693c21775\n        /* \"contracts/npc_marketplace/npc_marketplace_core.sol\":457:517  bytes32 public constant ADMIN_ROLE = keccak256(\"ADMIN_ROLE\") */\n      dup2\n      jump\t// out\n        /* \"@openzeppelin/contracts/access/AccessControl.sol\":2854:2990  function hasRole(bytes32 role, address account) public view virtual returns (bool) {... */\n    tag_79:\n        /* \"@openzeppelin/contracts/access/AccessControl.sol\":2931:2935  bool */\n      0x00\n        /* \"@openzeppelin/contracts/access/AccessControl.sol\":2954:2960  _roles */\n      0x01\n        /* \"@openzeppelin/contracts/access/AccessControl.sol\":2954:2966  _roles[role] */\n      0x00\n        /* \"@openzeppelin/contracts/access/AccessControl.sol\":2961:2965  role */\n      dup5\n        /* \"@openzeppelin/contracts/access/AccessControl.sol\":2954:2966  _roles[role] */\n      dup2\n      mstore\n      0x20\n      add\n      swap1\n      dup2\n      mstore\n      0x20\n      add\n      0x00\n      keccak256\n        /* \"@openzeppelin/contracts/access/AccessControl.sol\":2954:2974  _roles[role].hasRole */\n      0x00\n      add\n        /* \"@openzeppelin/contracts/access/AccessControl.sol\":2954:2983  _roles[role].hasRole[account] */\n      0x00\n        /* \"@openzeppelin/contracts/access/AccessControl.sol\":2975:2982  account */\n      dup4\n        /* \"@openzeppelin/contracts/access/AccessControl.sol\":2954:2983  _roles[role].hasRole[account] */\n      0xffffffffffffffffffffffffffffffffffffffff\n      and\n      0xffffffffffffffffffffffffffffffffffffffff\n      and\n      dup2\n      mstore\n      0x20\n      add\n      swap1\n      dup2\n      mstore\n      0x20\n      add\n      0x00\n      keccak256\n      0x00\n      swap1\n      sload\n      swap1\n      0x0100\n      exp\n      swap1\n      div\n      0xff\n      and\n        /* \"@openzeppelin/contracts/access/AccessControl.sol\":2947:2983  return _roles[role].hasRole[account] */\n      swap1\n      pop\n        /* \"@openzeppelin/contracts/access/AccessControl.sol\":2854:2990  function hasRole(bytes32 role, address account) public view virtual returns (bool) {... */\n      swap3\n      swap2\n      pop\n      pop\n      jump\t// out\n        /* \"contracts/npc_marketplace/npc_marketplace_bidding.sol\":631:1228  function placeBid(uint256 listingId) public payable virtual nonReentrant {... */\n    tag_83:\n        /* \"@openzeppelin/contracts/security/ReentrancyGuard.sol\":2261:2282  _nonReentrantBefore() */\n      tag_169\n        /* \"@openzeppelin/contracts/security/ReentrancyGuard.sol\":2261:2280  _nonReentrantBefore */\n      tag_115\n        /* \"@openzeppelin/contracts/security/ReentrancyGuard.sol\":2261:2282  _nonReentrantBefore() */\n      jump\t// in\n    tag_169:\n        /* \"contracts/npc_marketplace/npc_marketplace_bidding.sol\":715:737  Listing memory listing */\n      0x00\n        /* \"contracts/npc_marketplace/npc_marketplace_bidding.sol\":740:748  listings */\n      0x03\n        /* \"contracts/npc_marketplace/npc_marketplace_bidding.sol\":740:759  listings[listingId] */\n      0x00\n        /* \"contracts/npc_marketplace/npc_marketplace_bidding.sol\":749:758  listingId */\n      dup4\n        /* \"contracts/npc_marketplace/npc_marketplace_bidding.sol\":740:759  listings[listingId] */\n      dup2\n      mstore\n      0x20\n      add\n      swap1\n      dup2\n      mstore\n      0x20\n      add\n      0x00\n      keccak256\n        /* \"contracts/npc_marketplace/npc_marketplace_bidding.sol\":715:759  Listing memory listing = listings[listingId] */\n      mload(0x40)\n      dup1\n      0x80\n      add\n      0x40\n      mstore\n      swap1\n      dup2\n      0x00\n      dup3\n      add\n      0x00\n      swap1\n      sload\n      swap1\n      0x0100\n      exp\n      swap1\n      div\n      0xffffffffffffffffffffffffffffffffffffffff\n      and\n      0xffffffffffffffffffffffffffffffffffffffff\n      and\n      0xffffffffffffffffffffffffffffffffffffffff\n      and\n      dup2\n      mstore\n      0x20\n      add\n      0x01\n      dup3\n      add\n      0x00\n      swap1\n      sload\n      swap1\n      0x0100\n      exp\n      swap1\n      div\n      0xffffffffffffffffffffffffffffffffffffffff\n      and\n      0xffffffffffffffffffffffffffffffffffffffff\n      and\n      0xffffffffffffffffffffffffffffffffffffffff\n      and\n      dup2\n      mstore\n      0x20\n      add\n      0x02\n      dup3\n      add\n      sload\n      dup2\n      mstore\n      0x20\n      add\n      0x03\n      dup3\n      add\n      sload\n      dup2\n      mstore\n      pop\n      pop\n      swap1\n      pop\n        /* \"contracts/npc_marketplace/npc_marketplace_bidding.sol\":794:795  0 */\n      0x00\n        /* \"contracts/npc_marketplace/npc_marketplace_bidding.sol\":778:785  listing */\n      dup2\n        /* \"contracts/npc_marketplace/npc_marketplace_bidding.sol\":778:791  listing.price */\n      0x60\n      add\n      mload\n        /* \"contracts/npc_marketplace/npc_marketplace_bidding.sol\":778:795  listing.price > 0 */\n      gt\n        /* \"contracts/npc_marketplace/npc_marketplace_bidding.sol\":770:818  require(listing.price > 0, \"Listing not active\") */\n      tag_171\n      jumpi\n      mload(0x40)\n      0x08c379a000000000000000000000000000000000000000000000000000000000\n      dup2\n      mstore\n      0x04\n      add\n      tag_172\n      swap1\n      tag_122\n      jump\t// in\n    tag_172:\n      mload(0x40)\n      dup1\n      swap2\n      sub\n      swap1\n      revert\n    tag_171:\n        /* \"contracts/npc_marketplace/npc_marketplace_bidding.sol\":849:860  highestBids */\n      0x05\n        /* \"contracts/npc_marketplace/npc_marketplace_bidding.sol\":849:871  highestBids[listingId] */\n      0x00\n        /* \"contracts/npc_marketplace/npc_marketplace_bidding.sol\":861:870  listingId */\n      dup4\n        /* \"contracts/npc_marketplace/npc_marketplace_bidding.sol\":849:871  highestBids[listingId] */\n      dup2\n      mstore\n      0x20\n      add\n      swap1\n      dup2\n      mstore\n      0x20\n      add\n      0x00\n      keccak256\n        /* \"contracts/npc_marketplace/npc_marketplace_bidding.sol\":849:878  highestBids[listingId].amount */\n      0x01\n      add\n      sload\n        /* \"contracts/npc_marketplace/npc_marketplace_bidding.sol\":837:846  msg.value */\n      callvalue\n        /* \"contracts/npc_marketplace/npc_marketplace_bidding.sol\":837:878  msg.value > highestBids[listingId].amount */\n      gt\n        /* \"contracts/npc_marketplace/npc_marketplace_bidding.sol\":829:894  require(msg.value > highestBids[listingId].amount, \"Bid too low\") */\n      tag_173\n      jumpi\n      mload(0x40)\n      0x08c379a000000000000000000000000000000000000000000000000000000000\n      dup2\n      mstore\n      0x04\n      add\n      tag_174\n      swap1\n      tag_175\n      jump\t// in\n    tag_174:\n      mload(0x40)\n      dup1\n      swap2\n      sub\n      swap1\n      revert\n    tag_173:\n        /* \"contracts/npc_marketplace/npc_marketplace_bidding.sol\":990:991  0 */\n      0x00\n        /* \"contracts/npc_marketplace/npc_marketplace_bidding.sol\":958:969  highestBids */\n      0x05\n        /* \"contracts/npc_marketplace/npc_marketplace_bidding.sol\":958:980  highestBids[listingId] */\n      0x00\n        /* \"contracts/npc_marketplace/npc_marketplace_bidding.sol\":970:979  listingId */\n      dup5\n        /* \"contracts/npc_marketplace/npc_marketplace_bidding.sol\":958:980  highestBids[listingId] */\n      dup2\n      mstore\n      0x20\n      add\n      swap1\n      dup2\n      mstore\n      0x20\n      add\n      0x00\n      keccak256\n        /* \"contracts/npc_marketplace/npc_marketplace_bidding.sol\":958:987  highestBids[listingId].amount */\n      0x01\n      add\n      sload\n        /* \"contracts/npc_marketplace/npc_marketplace_bidding.sol\":958:991  highestBids[listingId].amount > 0 */\n      gt\n        /* \"contracts/npc_marketplace/npc_marketplace_bidding.sol\":954:1098  if (highestBids[listingId].amount > 0) {... */\n      iszero\n      tag_176\n      jumpi\n        /* \"contracts/npc_marketplace/npc_marketplace_bidding.sol\":1016:1027  highestBids */\n      0x05\n        /* \"contracts/npc_marketplace/npc_marketplace_bidding.sol\":1016:1038  highestBids[listingId] */\n      0x00\n        /* \"contracts/npc_marketplace/npc_marketplace_bidding.sol\":1028:1037  listingId */\n      dup4\n        /* \"contracts/npc_marketplace/npc_marketplace_bidding.sol\":1016:1038  highestBids[listingId] */\n      dup2\n      mstore\n      0x20\n      add\n      swap1\n      dup2\n      mstore\n      0x20\n      add\n      0x00\n      keccak256\n        /* \"contracts/npc_marketplace/npc_marketplace_bidding.sol\":1016:1045  highestBids[listingId].bidder */\n      0x00\n      add\n      0x00\n      swap1\n      sload\n      swap1\n      0x0100\n      exp\n      swap1\n      div\n      0xffffffffffffffffffffffffffffffffffffffff\n      and\n        /* \"contracts/npc_marketplace/npc_marketplace_bidding.sol\":1008:1055  payable(highestBids[listingId].bidder).transfer */\n      0xffffffffffffffffffffffffffffffffffffffff\n      and\n        /* \"contracts/npc_marketplace/npc_marketplace_bidding.sol\":1008:1086  payable(highestBids[listingId].bidder).transfer(highestBids[listingId].amount) */\n      0x08fc\n        /* \"contracts/npc_marketplace/npc_marketplace_bidding.sol\":1056:1067  highestBids */\n      0x05\n        /* \"contracts/npc_marketplace/npc_marketplace_bidding.sol\":1056:1078  highestBids[listingId] */\n      0x00\n        /* \"contracts/npc_marketplace/npc_marketplace_bidding.sol\":1068:1077  listingId */\n      dup6\n        /* \"contracts/npc_marketplace/npc_marketplace_bidding.sol\":1056:1078  highestBids[listingId] */\n      dup2\n      mstore\n      0x20\n      add\n      swap1\n      dup2\n      mstore\n      0x20\n      add\n      0x00\n      keccak256\n        /* \"contracts/npc_marketplace/npc_marketplace_bidding.sol\":1056:1085  highestBids[listingId].amount */\n      0x01\n      add\n      sload\n        /* \"contracts/npc_marketplace/npc_marketplace_bidding.sol\":1008:1086  payable(highestBids[listingId].bidder).transfer(highestBids[listingId].amount) */\n      swap1\n      dup2\n      iszero\n      mul\n      swap1\n      mload(0x40)\n      0x00\n      mload(0x40)\n      dup1\n      dup4\n      sub\n      dup2\n      dup6\n      dup9\n      dup9\n      call\n      swap4\n      pop\n      pop\n      pop\n      pop\n      iszero\n      dup1\n      iszero\n      tag_178\n      jumpi\n      returndatasize\n      0x00\n      dup1\n      returndatacopy\n      revert(0x00, returndatasize)\n    tag_178:\n      pop\n        /* \"contracts/npc_marketplace/npc_marketplace_bidding.sol\":954:1098  if (highestBids[listingId].amount > 0) {... */\n    tag_176:\n        /* \"contracts/npc_marketplace/npc_marketplace_bidding.sol\":1135:1161  Bid(msg.sender, msg.value) */\n      mload(0x40)\n      dup1\n      0x40\n      add\n      0x40\n      mstore\n      dup1\n        /* \"contracts/npc_marketplace/npc_marketplace_bidding.sol\":1139:1149  msg.sender */\n      caller\n        /* \"contracts/npc_marketplace/npc_marketplace_bidding.sol\":1135:1161  Bid(msg.sender, msg.value) */\n      0xffffffffffffffffffffffffffffffffffffffff\n      and\n      dup2\n      mstore\n      0x20\n      add\n        /* \"contracts/npc_marketplace/npc_marketplace_bidding.sol\":1151:1160  msg.value */\n      callvalue\n        /* \"contracts/npc_marketplace/npc_marketplace_bidding.sol\":1135:1161  Bid(msg.sender, msg.value) */\n      dup2\n      mstore\n      pop\n        /* \"contracts/npc_marketplace/npc_marketplace_bidding.sol\":1110:1121  highestBids */\n      0x05\n        /* \"contracts/npc_marketplace/npc_marketplace_bidding.sol\":1110:1132  highestBids[listingId] */\n      0x00\n        /* \"contracts/npc_marketplace/npc_marketplace_bidding.sol\":1122:1131  listingId */\n      dup5\n        /* \"contracts/npc_marketplace/npc_marketplace_bidding.sol\":1110:1132  highestBids[listingId] */\n      dup2\n      mstore\n      0x20\n      add\n      swap1\n      dup2\n      mstore\n      0x20\n      add\n      0x00\n      keccak256\n        /* \"contracts/npc_marketplace/npc_marketplace_bidding.sol\":1110:1161  highestBids[listingId] = Bid(msg.sender, msg.value) */\n      0x00\n      dup3\n      add\n      mload\n      dup2\n      0x00\n      add\n      exp(0x0100, 0x00)\n      dup2\n      sload\n      dup2\n      0xffffffffffffffffffffffffffffffffffffffff\n      mul\n      not\n      and\n      swap1\n      dup4\n      0xffffffffffffffffffffffffffffffffffffffff\n      and\n      mul\n      or\n      swap1\n      sstore\n      pop\n      0x20\n      dup3\n      add\n      mload\n      dup2\n      0x01\n      add\n      sstore\n      swap1\n      pop\n      pop\n        /* \"contracts/npc_marketplace/npc_marketplace_bidding.sol\":1198:1208  msg.sender */\n      caller\n        /* \"contracts/npc_marketplace/npc_marketplace_bidding.sol\":1177:1220  BidPlaced(listingId, msg.sender, msg.value) */\n      0xffffffffffffffffffffffffffffffffffffffff\n      and\n        /* \"contracts/npc_marketplace/npc_marketplace_bidding.sol\":1187:1196  listingId */\n      dup3\n        /* \"contracts/npc_marketplace/npc_marketplace_bidding.sol\":1177:1220  BidPlaced(listingId, msg.sender, msg.value) */\n      0x0e54eff26401bf69b81b26f60bd85ef47f5d85275c1d268d84f68d6897431c47\n        /* \"contracts/npc_marketplace/npc_marketplace_bidding.sol\":1210:1219  msg.value */\n      callvalue\n        /* \"contracts/npc_marketplace/npc_marketplace_bidding.sol\":1177:1220  BidPlaced(listingId, msg.sender, msg.value) */\n      mload(0x40)\n      tag_179\n      swap2\n      swap1\n      tag_71\n      jump\t// in\n    tag_179:\n      mload(0x40)\n      dup1\n      swap2\n      sub\n      swap1\n      log3\n        /* \"contracts/npc_marketplace/npc_marketplace_bidding.sol\":704:1228  {... */\n      pop\n        /* \"@openzeppelin/contracts/security/ReentrancyGuard.sol\":2303:2323  _nonReentrantAfter() */\n      tag_180\n        /* \"@openzeppelin/contracts/security/ReentrancyGuard.sol\":2303:2321  _nonReentrantAfter */\n      tag_137\n        /* \"@openzeppelin/contracts/security/ReentrancyGuard.sol\":2303:2323  _nonReentrantAfter() */\n      jump\t// in\n    tag_180:\n        /* \"contracts/npc_marketplace/npc_marketplace_bidding.sol\":631:1228  function placeBid(uint256 listingId) public payable virtual nonReentrant {... */\n      pop\n      jump\t// out\n        /* \"@openzeppelin/contracts/access/AccessControl.sol\":2187:2236  bytes32 public constant DEFAULT_ADMIN_ROLE = 0x00 */\n    tag_86:\n        /* \"@openzeppelin/contracts/access/AccessControl.sol\":2232:2236  0x00 */\n      0x00\n        /* \"@openzeppelin/contracts/access/AccessControl.sol\":2187:2236  bytes32 public constant DEFAULT_ADMIN_ROLE = 0x00 */\n      dup1\n      shl\n      dup2\n      jump\t// out\n        /* \"contracts/npc_marketplace/npc_marketplace_core.sol\":1429:2099  function listNFT(address tokenAddress, uint256 tokenId, uint256 price) external payable nonReentrant {... */\n    tag_91:\n        /* \"@openzeppelin/contracts/security/ReentrancyGuard.sol\":2261:2282  _nonReentrantBefore() */\n      tag_182\n        /* \"@openzeppelin/contracts/security/ReentrancyGuard.sol\":2261:2280  _nonReentrantBefore */\n      tag_115\n        /* \"@openzeppelin/contracts/security/ReentrancyGuard.sol\":2261:2282  _nonReentrantBefore() */\n      jump\t// in\n    tag_182:\n        /* \"contracts/npc_marketplace/npc_marketplace_core.sol\":1562:1572  listingFee */\n      sload(0x04)\n        /* \"contracts/npc_marketplace/npc_marketplace_core.sol\":1549:1558  msg.value */\n      callvalue\n        /* \"contracts/npc_marketplace/npc_marketplace_core.sol\":1549:1572  msg.value == listingFee */\n      eq\n        /* \"contracts/npc_marketplace/npc_marketplace_core.sol\":1541:1598  require(msg.value == listingFee, \"Incorrect listing fee\") */\n      tag_184\n      jumpi\n      mload(0x40)\n      0x08c379a000000000000000000000000000000000000000000000000000000000\n      dup2\n      mstore\n      0x04\n      add\n      tag_185\n      swap1\n      tag_186\n      jump\t// in\n    tag_185:\n      mload(0x40)\n      dup1\n      swap2\n      sub\n      swap1\n      revert\n    tag_184:\n        /* \"contracts/npc_marketplace/npc_marketplace_core.sol\":1659:1669  msg.sender */\n      caller\n        /* \"contracts/npc_marketplace/npc_marketplace_core.sol\":1617:1669  IERC721(tokenAddress).ownerOf(tokenId) == msg.sender */\n      0xffffffffffffffffffffffffffffffffffffffff\n      and\n        /* \"contracts/npc_marketplace/npc_marketplace_core.sol\":1625:1637  tokenAddress */\n      dup4\n        /* \"contracts/npc_marketplace/npc_marketplace_core.sol\":1617:1646  IERC721(tokenAddress).ownerOf */\n      0xffffffffffffffffffffffffffffffffffffffff\n      and\n      0x6352211e\n        /* \"contracts/npc_marketplace/npc_marketplace_core.sol\":1647:1654  tokenId */\n      dup5\n        /* \"contracts/npc_marketplace/npc_marketplace_core.sol\":1617:1655  IERC721(tokenAddress).ownerOf(tokenId) */\n      mload(0x40)\n      dup3\n      0xffffffff\n      and\n      0xe0\n      shl\n      dup2\n      mstore\n      0x04\n      add\n      tag_187\n      swap2\n      swap1\n      tag_71\n      jump\t// in\n    tag_187:\n      0x20\n      mload(0x40)\n      dup1\n      dup4\n      sub\n      dup2\n      dup7\n      gas\n      staticcall\n      iszero\n      dup1\n      iszero\n      tag_189\n      jumpi\n      returndatasize\n      0x00\n      dup1\n      returndatacopy\n      revert(0x00, returndatasize)\n    tag_189:\n      pop\n      pop\n      pop\n      pop\n      mload(0x40)\n      returndatasize\n      not(0x1f)\n      0x1f\n      dup3\n      add\n      and\n      dup3\n      add\n      dup1\n      0x40\n      mstore\n      pop\n      dup2\n      add\n      swap1\n      tag_190\n      swap2\n      swap1\n      tag_191\n      jump\t// in\n    tag_190:\n        /* \"contracts/npc_marketplace/npc_marketplace_core.sol\":1617:1669  IERC721(tokenAddress).ownerOf(tokenId) == msg.sender */\n      0xffffffffffffffffffffffffffffffffffffffff\n      and\n      eq\n        /* \"contracts/npc_marketplace/npc_marketplace_core.sol\":1609:1697  require(IERC721(tokenAddress).ownerOf(tokenId) == msg.sender, \"Caller is not the owner\") */\n      tag_192\n      jumpi\n      mload(0x40)\n      0x08c379a000000000000000000000000000000000000000000000000000000000\n      dup2\n      mstore\n      0x04\n      add\n      tag_193\n      swap1\n      tag_194\n      jump\t// in\n    tag_193:\n      mload(0x40)\n      dup1\n      swap2\n      sub\n      swap1\n      revert\n    tag_192:\n        /* \"contracts/npc_marketplace/npc_marketplace_core.sol\":1724:1725  0 */\n      0x00\n        /* \"contracts/npc_marketplace/npc_marketplace_core.sol\":1716:1721  price */\n      dup2\n        /* \"contracts/npc_marketplace/npc_marketplace_core.sol\":1716:1725  price > 0 */\n      gt\n        /* \"contracts/npc_marketplace/npc_marketplace_core.sol\":1708:1761  require(price > 0, \"Price must be greater than zero\") */\n      tag_195\n      jumpi\n      mload(0x40)\n      0x08c379a000000000000000000000000000000000000000000000000000000000\n      dup2\n      mstore\n      0x04\n      add\n      tag_196\n      swap1\n      tag_197\n      jump\t// in\n    tag_196:\n      mload(0x40)\n      dup1\n      swap2\n      sub\n      swap1\n      revert\n    tag_195:\n        /* \"contracts/npc_marketplace/npc_marketplace_core.sol\":1782:1794  tokenAddress */\n      dup3\n        /* \"contracts/npc_marketplace/npc_marketplace_core.sol\":1774:1808  IERC721(tokenAddress).transferFrom */\n      0xffffffffffffffffffffffffffffffffffffffff\n      and\n      0x23b872dd\n        /* \"contracts/npc_marketplace/npc_marketplace_core.sol\":1809:1819  msg.sender */\n      caller\n        /* \"contracts/npc_marketplace/npc_marketplace_core.sol\":1829:1833  this */\n      address\n        /* \"contracts/npc_marketplace/npc_marketplace_core.sol\":1836:1843  tokenId */\n      dup6\n        /* \"contracts/npc_marketplace/npc_marketplace_core.sol\":1774:1844  IERC721(tokenAddress).transferFrom(msg.sender, address(this), tokenId) */\n      mload(0x40)\n      dup5\n      0xffffffff\n      and\n      0xe0\n      shl\n      dup2\n      mstore\n      0x04\n      add\n      tag_198\n      swap4\n      swap3\n      swap2\n      swap1\n      tag_127\n      jump\t// in\n    tag_198:\n      0x00\n      mload(0x40)\n      dup1\n      dup4\n      sub\n      dup2\n      0x00\n      dup8\n      dup1\n      extcodesize\n      iszero\n      dup1\n      iszero\n      tag_199\n      jumpi\n      0x00\n      dup1\n      revert\n    tag_199:\n      pop\n      gas\n      call\n      iszero\n      dup1\n      iszero\n      tag_201\n      jumpi\n      returndatasize\n      0x00\n      dup1\n      returndatacopy\n      revert(0x00, returndatasize)\n    tag_201:\n      pop\n      pop\n      pop\n      pop\n        /* \"contracts/npc_marketplace/npc_marketplace_core.sol\":1857:1880  _listingIds.increment() */\n      tag_202\n        /* \"contracts/npc_marketplace/npc_marketplace_core.sol\":1857:1868  _listingIds */\n      0x02\n        /* \"contracts/npc_marketplace/npc_marketplace_core.sol\":1857:1878  _listingIds.increment */\n      tag_203\n        /* \"contracts/npc_marketplace/npc_marketplace_core.sol\":1857:1880  _listingIds.increment() */\n      jump\t// in\n    tag_202:\n        /* \"contracts/npc_marketplace/npc_marketplace_core.sol\":1891:1908  uint256 listingId */\n      0x00\n        /* \"contracts/npc_marketplace/npc_marketplace_core.sol\":1911:1932  _listingIds.current() */\n      tag_204\n        /* \"contracts/npc_marketplace/npc_marketplace_core.sol\":1911:1922  _listingIds */\n      0x02\n        /* \"contracts/npc_marketplace/npc_marketplace_core.sol\":1911:1930  _listingIds.current */\n      tag_205\n        /* \"contracts/npc_marketplace/npc_marketplace_core.sol\":1911:1932  _listingIds.current() */\n      jump\t// in\n    tag_204:\n        /* \"contracts/npc_marketplace/npc_marketplace_core.sol\":1891:1932  uint256 listingId = _listingIds.current() */\n      swap1\n      pop\n        /* \"contracts/npc_marketplace/npc_marketplace_core.sol\":1965:2014  Listing(msg.sender, tokenAddress, tokenId, price) */\n      mload(0x40)\n      dup1\n      0x80\n      add\n      0x40\n      mstore\n      dup1\n        /* \"contracts/npc_marketplace/npc_marketplace_core.sol\":1973:1983  msg.sender */\n      caller\n        /* \"contracts/npc_marketplace/npc_marketplace_core.sol\":1965:2014  Listing(msg.sender, tokenAddress, tokenId, price) */\n      0xffffffffffffffffffffffffffffffffffffffff\n      and\n      dup2\n      mstore\n      0x20\n      add\n        /* \"contracts/npc_marketplace/npc_marketplace_core.sol\":1985:1997  tokenAddress */\n      dup6\n        /* \"contracts/npc_marketplace/npc_marketplace_core.sol\":1965:2014  Listing(msg.sender, tokenAddress, tokenId, price) */\n      0xffffffffffffffffffffffffffffffffffffffff\n      and\n      dup2\n      mstore\n      0x20\n      add\n        /* \"contracts/npc_marketplace/npc_marketplace_core.sol\":1999:2006  tokenId */\n      dup5\n        /* \"contracts/npc_marketplace/npc_marketplace_core.sol\":1965:2014  Listing(msg.sender, tokenAddress, tokenId, price) */\n      dup2\n      mstore\n      0x20\n      add\n        /* \"contracts/npc_marketplace/npc_marketplace_core.sol\":2008:2013  price */\n      dup4\n        /* \"contracts/npc_marketplace/npc_marketplace_core.sol\":1965:2014  Listing(msg.sender, tokenAddress, tokenId, price) */\n      dup2\n      mstore\n      pop\n        /* \"contracts/npc_marketplace/npc_marketplace_core.sol\":1943:1951  listings */\n      0x03\n        /* \"contracts/npc_marketplace/npc_marketplace_core.sol\":1943:1962  listings[listingId] */\n      0x00\n        /* \"contracts/npc_marketplace/npc_marketplace_core.sol\":1952:1961  listingId */\n      dup4\n        /* \"contracts/npc_marketplace/npc_marketplace_core.sol\":1943:1962  listings[listingId] */\n      dup2\n      mstore\n      0x20\n      add\n      swap1\n      dup2\n      mstore\n      0x20\n      add\n      0x00\n      keccak256\n        /* \"contracts/npc_marketplace/npc_marketplace_core.sol\":1943:2014  listings[listingId] = Listing(msg.sender, tokenAddress, tokenId, price) */\n      0x00\n      dup3\n      add\n      mload\n      dup2\n      0x00\n      add\n      exp(0x0100, 0x00)\n      dup2\n      sload\n      dup2\n      0xffffffffffffffffffffffffffffffffffffffff\n      mul\n      not\n      and\n      swap1\n      dup4\n      0xffffffffffffffffffffffffffffffffffffffff\n      and\n      mul\n      or\n      swap1\n      sstore\n      pop\n      0x20\n      dup3\n      add\n      mload\n      dup2\n      0x01\n      add\n      exp(0x0100, 0x00)\n      dup2\n      sload\n      dup2\n      0xffffffffffffffffffffffffffffffffffffffff\n      mul\n      not\n      and\n      swap1\n      dup4\n      0xffffffffffffffffffffffffffffffffffffffff\n      and\n      mul\n      or\n      swap1\n      sstore\n      pop\n      0x40\n      dup3\n      add\n      mload\n      dup2\n      0x02\n      add\n      sstore\n      0x60\n      dup3\n      add\n      mload\n      dup2\n      0x03\n      add\n      sstore\n      swap1\n      pop\n      pop\n        /* \"contracts/npc_marketplace/npc_marketplace_core.sol\":2062:2074  tokenAddress */\n      dup4\n        /* \"contracts/npc_marketplace/npc_marketplace_core.sol\":2032:2091  Listed(listingId, msg.sender, tokenAddress, tokenId, price) */\n      0xffffffffffffffffffffffffffffffffffffffff\n      and\n        /* \"contracts/npc_marketplace/npc_marketplace_core.sol\":2050:2060  msg.sender */\n      caller\n        /* \"contracts/npc_marketplace/npc_marketplace_core.sol\":2032:2091  Listed(listingId, msg.sender, tokenAddress, tokenId, price) */\n      0xffffffffffffffffffffffffffffffffffffffff\n      and\n        /* \"contracts/npc_marketplace/npc_marketplace_core.sol\":2039:2048  listingId */\n      dup3\n        /* \"contracts/npc_marketplace/npc_marketplace_core.sol\":2032:2091  Listed(listingId, msg.sender, tokenAddress, tokenId, price) */\n      0x723f73331eaee88eec7fc68ef60ab6ed15e4b90d0472b55eb92fa43910bab6dd\n        /* \"contracts/npc_marketplace/npc_marketplace_core.sol\":2076:2083  tokenId */\n      dup7\n        /* \"contracts/npc_marketplace/npc_marketplace_core.sol\":2085:2090  price */\n      dup7\n        /* \"contracts/npc_marketplace/npc_marketplace_core.sol\":2032:2091  Listed(listingId, msg.sender, tokenAddress, tokenId, price) */\n      mload(0x40)\n      tag_206\n      swap3\n      swap2\n      swap1\n      tag_135\n      jump\t// in\n    tag_206:\n      mload(0x40)\n      dup1\n      swap2\n      sub\n      swap1\n      log4\n        /* \"contracts/npc_marketplace/npc_marketplace_core.sol\":1530:2099  {... */\n      pop\n        /* \"@openzeppelin/contracts/security/ReentrancyGuard.sol\":2303:2323  _nonReentrantAfter() */\n      tag_207\n        /* \"@openzeppelin/contracts/security/ReentrancyGuard.sol\":2303:2321  _nonReentrantAfter */\n      tag_137\n        /* \"@openzeppelin/contracts/security/ReentrancyGuard.sol\":2303:2323  _nonReentrantAfter() */\n      jump\t// in\n    tag_207:\n        /* \"contracts/npc_marketplace/npc_marketplace_core.sol\":1429:2099  function listNFT(address tokenAddress, uint256 tokenId, uint256 price) external payable nonReentrant {... */\n      pop\n      pop\n      pop\n      jump\t// out\n        /* \"@openzeppelin/contracts/access/AccessControl.sol\":4642:4780  function revokeRole(bytes32 role, address account) public virtual onlyRole(getRoleAdmin(role)) {... */\n    tag_95:\n        /* \"@openzeppelin/contracts/access/AccessControl.sol\":4717:4735  getRoleAdmin(role) */\n      tag_208\n        /* \"@openzeppelin/contracts/access/AccessControl.sol\":4730:4734  role */\n      dup3\n        /* \"@openzeppelin/contracts/access/AccessControl.sol\":4717:4729  getRoleAdmin */\n      tag_44\n        /* \"@openzeppelin/contracts/access/AccessControl.sol\":4717:4735  getRoleAdmin(role) */\n      jump\t// in\n    tag_208:\n        /* \"@openzeppelin/contracts/access/AccessControl.sol\":2464:2480  _checkRole(role) */\n      tag_210\n        /* \"@openzeppelin/contracts/access/AccessControl.sol\":2475:2479  role */\n      dup2\n        /* \"@openzeppelin/contracts/access/AccessControl.sol\":2464:2474  _checkRole */\n      tag_141\n        /* \"@openzeppelin/contracts/access/AccessControl.sol\":2464:2480  _checkRole(role) */\n      jump\t// in\n    tag_210:\n        /* \"@openzeppelin/contracts/access/AccessControl.sol\":4747:4773  _revokeRole(role, account) */\n      tag_212\n        /* \"@openzeppelin/contracts/access/AccessControl.sol\":4759:4763  role */\n      dup4\n        /* \"@openzeppelin/contracts/access/AccessControl.sol\":4765:4772  account */\n      dup4\n        /* \"@openzeppelin/contracts/access/AccessControl.sol\":4747:4758  _revokeRole */\n      tag_160\n        /* \"@openzeppelin/contracts/access/AccessControl.sol\":4747:4773  _revokeRole(role, account) */\n      jump\t// in\n    tag_212:\n      pop\n        /* \"@openzeppelin/contracts/access/AccessControl.sol\":4642:4780  function revokeRole(bytes32 role, address account) public virtual onlyRole(getRoleAdmin(role)) {... */\n      pop\n      pop\n      pop\n      jump\t// out\n        /* \"contracts/npc_marketplace/npc_marketplace_core.sol\":661:704  mapping(uint256 => Listing) public listings */\n    tag_99:\n      mstore(0x20, 0x03)\n      dup1\n      0x00\n      mstore\n      keccak256(0x00, 0x40)\n      0x00\n      swap2\n      pop\n      swap1\n      pop\n      dup1\n      0x00\n      add\n      0x00\n      swap1\n      sload\n      swap1\n      0x0100\n      exp\n      swap1\n      div\n      0xffffffffffffffffffffffffffffffffffffffff\n      and\n      swap1\n      dup1\n      0x01\n      add\n      0x00\n      swap1\n      sload\n      swap1\n      0x0100\n      exp\n      swap1\n      div\n      0xffffffffffffffffffffffffffffffffffffffff\n      and\n      swap1\n      dup1\n      0x02\n      add\n      sload\n      swap1\n      dup1\n      0x03\n      add\n      sload\n      swap1\n      pop\n      dup5\n      jump\t// out\n        /* \"@openzeppelin/contracts/utils/introspection/ERC165.sol\":762:908  function supportsInterface(bytes4 interfaceId) public view virtual returns (bool) {... */\n    tag_105:\n        /* \"@openzeppelin/contracts/utils/introspection/ERC165.sol\":838:842  bool */\n      0x00\n        /* \"@openzeppelin/contracts/utils/introspection/ERC165.sol\":876:901  type(IERC165).interfaceId */\n      0x01ffc9a700000000000000000000000000000000000000000000000000000000\n        /* \"@openzeppelin/contracts/utils/introspection/ERC165.sol\":861:901  interfaceId == type(IERC165).interfaceId */\n      not(0xffffffffffffffffffffffffffffffffffffffffffffffffffffffff)\n      and\n        /* \"@openzeppelin/contracts/utils/introspection/ERC165.sol\":861:872  interfaceId */\n      dup3\n        /* \"@openzeppelin/contracts/utils/introspection/ERC165.sol\":861:901  interfaceId == type(IERC165).interfaceId */\n      not(0xffffffffffffffffffffffffffffffffffffffffffffffffffffffff)\n      and\n      eq\n        /* \"@openzeppelin/contracts/utils/introspection/ERC165.sol\":854:901  return interfaceId == type(IERC165).interfaceId */\n      swap1\n      pop\n        /* \"@openzeppelin/contracts/utils/introspection/ERC165.sol\":762:908  function supportsInterface(bytes4 interfaceId) public view virtual returns (bool) {... */\n      swap2\n      swap1\n      pop\n      jump\t// out\n        /* \"@openzeppelin/contracts/security/ReentrancyGuard.sol\":2336:2623  function _nonReentrantBefore() private {... */\n    tag_115:\n        /* \"@openzeppelin/contracts/security/ReentrancyGuard.sol\":1759:1760  2 */\n      0x02\n        /* \"@openzeppelin/contracts/security/ReentrancyGuard.sol\":2468:2475  _status */\n      sload(0x00)\n        /* \"@openzeppelin/contracts/security/ReentrancyGuard.sol\":2468:2487  _status != _ENTERED */\n      sub\n        /* \"@openzeppelin/contracts/security/ReentrancyGuard.sol\":2460:2523  require(_status != _ENTERED, \"ReentrancyGuard: reentrant call\") */\n      tag_215\n      jumpi\n      mload(0x40)\n      0x08c379a000000000000000000000000000000000000000000000000000000000\n      dup2\n      mstore\n      0x04\n      add\n      tag_216\n      swap1\n      tag_217\n      jump\t// in\n    tag_216:\n      mload(0x40)\n      dup1\n      swap2\n      sub\n      swap1\n      revert\n    tag_215:\n        /* \"@openzeppelin/contracts/security/ReentrancyGuard.sol\":1759:1760  2 */\n      0x02\n        /* \"@openzeppelin/contracts/security/ReentrancyGuard.sol\":2598:2605  _status */\n      0x00\n        /* \"@openzeppelin/contracts/security/ReentrancyGuard.sol\":2598:2616  _status = _ENTERED */\n      dup2\n      swap1\n      sstore\n      pop\n        /* \"@openzeppelin/contracts/security/ReentrancyGuard.sol\":2336:2623  function _nonReentrantBefore() private {... */\n      jump\t// out\n        /* \"@openzeppelin/contracts/security/ReentrancyGuard.sol\":2629:2838  function _nonReentrantAfter() private {... */\n    tag_137:\n        /* \"@openzeppelin/contracts/security/ReentrancyGuard.sol\":1716:1717  1 */\n      0x01\n        /* \"@openzeppelin/contracts/security/ReentrancyGuard.sol\":2809:2816  _status */\n      0x00\n        /* \"@openzeppelin/contracts/security/ReentrancyGuard.sol\":2809:2831  _status = _NOT_ENTERED */\n      dup2\n      swap1\n      sstore\n      pop\n        /* \"@openzeppelin/contracts/security/ReentrancyGuard.sol\":2629:2838  function _nonReentrantAfter() private {... */\n      jump\t// out\n        /* \"@openzeppelin/contracts/access/AccessControl.sol\":3199:3302  function _checkRole(bytes32 role) internal view virtual {... */\n    tag_141:\n        /* \"@openzeppelin/contracts/access/AccessControl.sol\":3265:3295  _checkRole(role, _msgSender()) */\n      tag_220\n        /* \"@openzeppelin/contracts/access/AccessControl.sol\":3276:3280  role */\n      dup2\n        /* \"@openzeppelin/contracts/access/AccessControl.sol\":3282:3294  _msgSender() */\n      tag_221\n        /* \"@openzeppelin/contracts/access/AccessControl.sol\":3282:3292  _msgSender */\n      tag_157\n        /* \"@openzeppelin/contracts/access/AccessControl.sol\":3282:3294  _msgSender() */\n      jump\t// in\n    tag_221:\n        /* \"@openzeppelin/contracts/access/AccessControl.sol\":3265:3275  _checkRole */\n      tag_222\n        /* \"@openzeppelin/contracts/access/AccessControl.sol\":3265:3295  _checkRole(role, _msgSender()) */\n      jump\t// in\n    tag_220:\n        /* \"@openzeppelin/contracts/access/AccessControl.sol\":3199:3302  function _checkRole(bytes32 role) internal view virtual {... */\n      pop\n      jump\t// out\n        /* \"@openzeppelin/contracts/access/AccessControl.sol\":6179:6495  function _grantRole(bytes32 role, address account) internal virtual returns (bool) {... */\n    tag_144:\n        /* \"@openzeppelin/contracts/access/AccessControl.sol\":6256:6260  bool */\n      0x00\n        /* \"@openzeppelin/contracts/access/AccessControl.sol\":6277:6299  hasRole(role, account) */\n      tag_224\n        /* \"@openzeppelin/contracts/access/AccessControl.sol\":6285:6289  role */\n      dup4\n        /* \"@openzeppelin/contracts/access/AccessControl.sol\":6291:6298  account */\n      dup4\n        /* \"@openzeppelin/contracts/access/AccessControl.sol\":6277:6284  hasRole */\n      tag_79\n        /* \"@openzeppelin/contracts/access/AccessControl.sol\":6277:6299  hasRole(role, account) */\n      jump\t// in\n    tag_224:\n        /* \"@openzeppelin/contracts/access/AccessControl.sol\":6272:6489  if (!hasRole(role, account)) {... */\n      tag_225\n      jumpi\n        /* \"@openzeppelin/contracts/access/AccessControl.sol\":6347:6351  true */\n      0x01\n        /* \"@openzeppelin/contracts/access/AccessControl.sol\":6315:6321  _roles */\n      dup1\n        /* \"@openzeppelin/contracts/access/AccessControl.sol\":6315:6327  _roles[role] */\n      0x00\n        /* \"@openzeppelin/contracts/access/AccessControl.sol\":6322:6326  role */\n      dup6\n        /* \"@openzeppelin/contracts/access/AccessControl.sol\":6315:6327  _roles[role] */\n      dup2\n      mstore\n      0x20\n      add\n      swap1\n      dup2\n      mstore\n      0x20\n      add\n      0x00\n      keccak256\n        /* \"@openzeppelin/contracts/access/AccessControl.sol\":6315:6335  _roles[role].hasRole */\n      0x00\n      add\n        /* \"@openzeppelin/contracts/access/AccessControl.sol\":6315:6344  _roles[role].hasRole[account] */\n      0x00\n        /* \"@openzeppelin/contracts/access/AccessControl.sol\":6336:6343  account */\n      dup5\n        /* \"@openzeppelin/contracts/access/AccessControl.sol\":6315:6344  _roles[role].hasRole[account] */\n      0xffffffffffffffffffffffffffffffffffffffff\n      and\n      0xffffffffffffffffffffffffffffffffffffffff\n      and\n      dup2\n      mstore\n      0x20\n      add\n      swap1\n      dup2\n      mstore\n      0x20\n      add\n      0x00\n      keccak256\n      0x00\n        /* \"@openzeppelin/contracts/access/AccessControl.sol\":6315:6351  _roles[role].hasRole[account] = true */\n      0x0100\n      exp\n      dup2\n      sload\n      dup2\n      0xff\n      mul\n      not\n      and\n      swap1\n      dup4\n      iszero\n      iszero\n      mul\n      or\n      swap1\n      sstore\n      pop\n        /* \"@openzeppelin/contracts/access/AccessControl.sol\":6397:6409  _msgSender() */\n      tag_226\n        /* \"@openzeppelin/contracts/access/AccessControl.sol\":6397:6407  _msgSender */\n      tag_157\n        /* \"@openzeppelin/contracts/access/AccessControl.sol\":6397:6409  _msgSender() */\n      jump\t// in\n    tag_226:\n        /* \"@openzeppelin/contracts/access/AccessControl.sol\":6370:6410  RoleGranted(role, account, _msgSender()) */\n      0xffffffffffffffffffffffffffffffffffffffff\n      and\n        /* \"@openzeppelin/contracts/access/AccessControl.sol\":6388:6395  account */\n      dup3\n        /* \"@openzeppelin/contracts/access/AccessControl.sol\":6370:6410  RoleGranted(role, account, _msgSender()) */\n      0xffffffffffffffffffffffffffffffffffffffff\n      and\n        /* \"@openzeppelin/contracts/access/AccessControl.sol\":6382:6386  role */\n      dup5\n        /* \"@openzeppelin/contracts/access/AccessControl.sol\":6370:6410  RoleGranted(role, account, _msgSender()) */\n      0x2f8788117e7eff1d82e926ec794901d17c78024a50270940304540a733656f0d\n      mload(0x40)\n      mload(0x40)\n      dup1\n      swap2\n      sub\n      swap1\n      log4\n        /* \"@openzeppelin/contracts/access/AccessControl.sol\":6431:6435  true */\n      0x01\n        /* \"@openzeppelin/contracts/access/AccessControl.sol\":6424:6435  return true */\n      swap1\n      pop\n      jump(tag_223)\n        /* \"@openzeppelin/contracts/access/AccessControl.sol\":6272:6489  if (!hasRole(role, account)) {... */\n    tag_225:\n        /* \"@openzeppelin/contracts/access/AccessControl.sol\":6473:6478  false */\n      0x00\n        /* \"@openzeppelin/contracts/access/AccessControl.sol\":6466:6478  return false */\n      swap1\n      pop\n        /* \"@openzeppelin/contracts/access/AccessControl.sol\":6179:6495  function _grantRole(bytes32 role, address account) internal virtual returns (bool) {... */\n    tag_223:\n      swap3\n      swap2\n      pop\n      pop\n      jump\t// out\n        /* \"@openzeppelin/contracts/utils/Context.sol\":656:752  function _msgSender() internal view virtual returns (address) {... */\n    tag_157:\n        /* \"@openzeppelin/contracts/utils/Context.sol\":709:716  address */\n      0x00\n        /* \"@openzeppelin/contracts/utils/Context.sol\":735:745  msg.sender */\n      caller\n        /* \"@openzeppelin/contracts/utils/Context.sol\":728:745  return msg.sender */\n      swap1\n      pop\n        /* \"@openzeppelin/contracts/utils/Context.sol\":656:752  function _msgSender() internal view virtual returns (address) {... */\n      swap1\n      jump\t// out\n        /* \"@openzeppelin/contracts/access/AccessControl.sol\":6730:7047  function _revokeRole(bytes32 role, address account) internal virtual returns (bool) {... */\n    tag_160:\n        /* \"@openzeppelin/contracts/access/AccessControl.sol\":6808:6812  bool */\n      0x00\n        /* \"@openzeppelin/contracts/access/AccessControl.sol\":6828:6850  hasRole(role, account) */\n      tag_230\n        /* \"@openzeppelin/contracts/access/AccessControl.sol\":6836:6840  role */\n      dup4\n        /* \"@openzeppelin/contracts/access/AccessControl.sol\":6842:6849  account */\n      dup4\n        /* \"@openzeppelin/contracts/access/AccessControl.sol\":6828:6835  hasRole */\n      tag_79\n        /* \"@openzeppelin/contracts/access/AccessControl.sol\":6828:6850  hasRole(role, account) */\n      jump\t// in\n    tag_230:\n        /* \"@openzeppelin/contracts/access/AccessControl.sol\":6824:7041  if (hasRole(role, account)) {... */\n      iszero\n      tag_231\n      jumpi\n        /* \"@openzeppelin/contracts/access/AccessControl.sol\":6898:6903  false */\n      0x00\n        /* \"@openzeppelin/contracts/access/AccessControl.sol\":6866:6872  _roles */\n      0x01\n        /* \"@openzeppelin/contracts/access/AccessControl.sol\":6866:6878  _roles[role] */\n      0x00\n        /* \"@openzeppelin/contracts/access/AccessControl.sol\":6873:6877  role */\n      dup6\n        /* \"@openzeppelin/contracts/access/AccessControl.sol\":6866:6878  _roles[role] */\n      dup2\n      mstore\n      0x20\n      add\n      swap1\n      dup2\n      mstore\n      0x20\n      add\n      0x00\n      keccak256\n        /* \"@openzeppelin/contracts/access/AccessControl.sol\":6866:6886  _roles[role].hasRole */\n      0x00\n      add\n        /* \"@openzeppelin/contracts/access/AccessControl.sol\":6866:6895  _roles[role].hasRole[account] */\n      0x00\n        /* \"@openzeppelin/contracts/access/AccessControl.sol\":6887:6894  account */\n      dup5\n        /* \"@openzeppelin/contracts/access/AccessControl.sol\":6866:6895  _roles[role].hasRole[account] */\n      0xffffffffffffffffffffffffffffffffffffffff\n      and\n      0xffffffffffffffffffffffffffffffffffffffff\n      and\n      dup2\n      mstore\n      0x20\n      add\n      swap1\n      dup2\n      mstore\n      0x20\n      add\n      0x00\n      keccak256\n      0x00\n        /* \"@openzeppelin/contracts/access/AccessControl.sol\":6866:6903  _roles[role].hasRole[account] = false */\n      0x0100\n      exp\n      dup2\n      sload\n      dup2\n      0xff\n      mul\n      not\n      and\n      swap1\n      dup4\n      iszero\n      iszero\n      mul\n      or\n      swap1\n      sstore\n      pop\n        /* \"@openzeppelin/contracts/access/AccessControl.sol\":6949:6961  _msgSender() */\n      tag_232\n        /* \"@openzeppelin/contracts/access/AccessControl.sol\":6949:6959  _msgSender */\n      tag_157\n        /* \"@openzeppelin/contracts/access/AccessControl.sol\":6949:6961  _msgSender() */\n      jump\t// in\n    tag_232:\n        /* \"@openzeppelin/contracts/access/AccessControl.sol\":6922:6962  RoleRevoked(role, account, _msgSender()) */\n      0xffffffffffffffffffffffffffffffffffffffff\n      and\n        /* \"@openzeppelin/contracts/access/AccessControl.sol\":6940:6947  account */\n      dup3\n        /* \"@openzeppelin/contracts/access/AccessControl.sol\":6922:6962  RoleRevoked(role, account, _msgSender()) */\n      0xffffffffffffffffffffffffffffffffffffffff\n      and\n        /* \"@openzeppelin/contracts/access/AccessControl.sol\":6934:6938  role */\n      dup5\n        /* \"@openzeppelin/contracts/access/AccessControl.sol\":6922:6962  RoleRevoked(role, account, _msgSender()) */\n      0xf6391f5c32d9c69d2a47ea670b442974b53935d1edc7fd64eb21e047a839171b\n      mload(0x40)\n      mload(0x40)\n      dup1\n      swap2\n      sub\n      swap1\n      log4\n        /* \"@openzeppelin/contracts/access/AccessControl.sol\":6983:6987  true */\n      0x01\n        /* \"@openzeppelin/contracts/access/AccessControl.sol\":6976:6987  return true */\n      swap1\n      pop\n      jump(tag_229)\n        /* \"@openzeppelin/contracts/access/AccessControl.sol\":6824:7041  if (hasRole(role, account)) {... */\n    tag_231:\n        /* \"@openzeppelin/contracts/access/AccessControl.sol\":7025:7030  false */\n      0x00\n        /* \"@openzeppelin/contracts/access/AccessControl.sol\":7018:7030  return false */\n      swap1\n      pop\n        /* \"@openzeppelin/contracts/access/AccessControl.sol\":6730:7047  function _revokeRole(bytes32 role, address account) internal virtual returns (bool) {... */\n    tag_229:\n      swap3\n      swap2\n      pop\n      pop\n      jump\t// out\n        /* \"contracts/npc_marketplace/npc_marketplace_core.sol\":2735:3371  function _fulfilSale(uint256 listingId, address buyer, uint256 amount) internal nonReentrant {... */\n    tag_165:\n        /* \"@openzeppelin/contracts/security/ReentrancyGuard.sol\":2261:2282  _nonReentrantBefore() */\n      tag_235\n        /* \"@openzeppelin/contracts/security/ReentrancyGuard.sol\":2261:2280  _nonReentrantBefore */\n      tag_115\n        /* \"@openzeppelin/contracts/security/ReentrancyGuard.sol\":2261:2282  _nonReentrantBefore() */\n      jump\t// in\n    tag_235:\n        /* \"contracts/npc_marketplace/npc_marketplace_core.sol\":2839:2861  Listing memory listing */\n      0x00\n        /* \"contracts/npc_marketplace/npc_marketplace_core.sol\":2864:2872  listings */\n      0x03\n        /* \"contracts/npc_marketplace/npc_marketplace_core.sol\":2864:2883  listings[listingId] */\n      0x00\n        /* \"contracts/npc_marketplace/npc_marketplace_core.sol\":2873:2882  listingId */\n      dup6\n        /* \"contracts/npc_marketplace/npc_marketplace_core.sol\":2864:2883  listings[listingId] */\n      dup2\n      mstore\n      0x20\n      add\n      swap1\n      dup2\n      mstore\n      0x20\n      add\n      0x00\n      keccak256\n        /* \"contracts/npc_marketplace/npc_marketplace_core.sol\":2839:2883  Listing memory listing = listings[listingId] */\n      mload(0x40)\n      dup1\n      0x80\n      add\n      0x40\n      mstore\n      swap1\n      dup2\n      0x00\n      dup3\n      add\n      0x00\n      swap1\n      sload\n      swap1\n      0x0100\n      exp\n      swap1\n      div\n      0xffffffffffffffffffffffffffffffffffffffff\n      and\n      0xffffffffffffffffffffffffffffffffffffffff\n      and\n      0xffffffffffffffffffffffffffffffffffffffff\n      and\n      dup2\n      mstore\n      0x20\n      add\n      0x01\n      dup3\n      add\n      0x00\n      swap1\n      sload\n      swap1\n      0x0100\n      exp\n      swap1\n      div\n      0xffffffffffffffffffffffffffffffffffffffff\n      and\n      0xffffffffffffffffffffffffffffffffffffffff\n      and\n      0xffffffffffffffffffffffffffffffffffffffff\n      and\n      dup2\n      mstore\n      0x20\n      add\n      0x02\n      dup3\n      add\n      sload\n      dup2\n      mstore\n      0x20\n      add\n      0x03\n      dup3\n      add\n      sload\n      dup2\n      mstore\n      pop\n      pop\n      swap1\n      pop\n        /* \"contracts/npc_marketplace/npc_marketplace_core.sol\":2918:2919  0 */\n      0x00\n        /* \"contracts/npc_marketplace/npc_marketplace_core.sol\":2902:2909  listing */\n      dup2\n        /* \"contracts/npc_marketplace/npc_marketplace_core.sol\":2902:2915  listing.price */\n      0x60\n      add\n      mload\n        /* \"contracts/npc_marketplace/npc_marketplace_core.sol\":2902:2919  listing.price > 0 */\n      gt\n        /* \"contracts/npc_marketplace/npc_marketplace_core.sol\":2894:2942  require(listing.price > 0, \"Listing not active\") */\n      tag_237\n      jumpi\n      mload(0x40)\n      0x08c379a000000000000000000000000000000000000000000000000000000000\n      dup2\n      mstore\n      0x04\n      add\n      tag_238\n      swap1\n      tag_122\n      jump\t// in\n    tag_238:\n      mload(0x40)\n      dup1\n      swap2\n      sub\n      swap1\n      revert\n    tag_237:\n        /* \"contracts/npc_marketplace/npc_marketplace_core.sol\":2970:2977  listing */\n      dup1\n        /* \"contracts/npc_marketplace/npc_marketplace_core.sol\":2970:2984  listing.seller */\n      0x00\n      add\n      mload\n        /* \"contracts/npc_marketplace/npc_marketplace_core.sol\":2961:2984  buyer == listing.seller */\n      0xffffffffffffffffffffffffffffffffffffffff\n      and\n        /* \"contracts/npc_marketplace/npc_marketplace_core.sol\":2961:2966  buyer */\n      dup4\n        /* \"contracts/npc_marketplace/npc_marketplace_core.sol\":2961:2984  buyer == listing.seller */\n      0xffffffffffffffffffffffffffffffffffffffff\n      and\n      eq\n        /* \"contracts/npc_marketplace/npc_marketplace_core.sol\":2953:3012  require(buyer == listing.seller, \"Cannot sell to yourself\") */\n      tag_239\n      jumpi\n      mload(0x40)\n      0x08c379a000000000000000000000000000000000000000000000000000000000\n      dup2\n      mstore\n      0x04\n      add\n      tag_240\n      swap1\n      tag_241\n      jump\t// in\n    tag_240:\n      mload(0x40)\n      dup1\n      swap2\n      sub\n      swap1\n      revert\n    tag_239:\n        /* \"contracts/npc_marketplace/npc_marketplace_core.sol\":3041:3048  listing */\n      dup1\n        /* \"contracts/npc_marketplace/npc_marketplace_core.sol\":3041:3054  listing.price */\n      0x60\n      add\n      mload\n        /* \"contracts/npc_marketplace/npc_marketplace_core.sol\":3031:3037  amount */\n      dup3\n        /* \"contracts/npc_marketplace/npc_marketplace_core.sol\":3031:3054  amount == listing.price */\n      eq\n        /* \"contracts/npc_marketplace/npc_marketplace_core.sol\":3023:3075  require(amount == listing.price, \"Incorrect amount\") */\n      tag_242\n      jumpi\n      mload(0x40)\n      0x08c379a000000000000000000000000000000000000000000000000000000000\n      dup2\n      mstore\n      0x04\n      add\n      tag_243\n      swap1\n      tag_244\n      jump\t// in\n    tag_243:\n      mload(0x40)\n      dup1\n      swap2\n      sub\n      swap1\n      revert\n    tag_242:\n        /* \"contracts/npc_marketplace/npc_marketplace_core.sol\":3095:3103  listings */\n      0x03\n        /* \"contracts/npc_marketplace/npc_marketplace_core.sol\":3095:3114  listings[listingId] */\n      0x00\n        /* \"contracts/npc_marketplace/npc_marketplace_core.sol\":3104:3113  listingId */\n      dup6\n        /* \"contracts/npc_marketplace/npc_marketplace_core.sol\":3095:3114  listings[listingId] */\n      dup2\n      mstore\n      0x20\n      add\n      swap1\n      dup2\n      mstore\n      0x20\n      add\n      0x00\n      keccak256\n      0x00\n        /* \"contracts/npc_marketplace/npc_marketplace_core.sol\":3088:3114  delete listings[listingId] */\n      dup1\n      dup3\n      add\n      exp(0x0100, 0x00)\n      dup2\n      sload\n      swap1\n      0xffffffffffffffffffffffffffffffffffffffff\n      mul\n      not\n      and\n      swap1\n      sstore\n      0x01\n      dup3\n      add\n      exp(0x0100, 0x00)\n      dup2\n      sload\n      swap1\n      0xffffffffffffffffffffffffffffffffffffffff\n      mul\n      not\n      and\n      swap1\n      sstore\n      0x02\n      dup3\n      add\n      0x00\n      swap1\n      sstore\n      0x03\n      dup3\n      add\n      0x00\n      swap1\n      sstore\n      pop\n      pop\n        /* \"contracts/npc_marketplace/npc_marketplace_core.sol\":3133:3140  listing */\n      dup1\n        /* \"contracts/npc_marketplace/npc_marketplace_core.sol\":3133:3153  listing.tokenAddress */\n      0x20\n      add\n      mload\n        /* \"contracts/npc_marketplace/npc_marketplace_core.sol\":3125:3167  IERC721(listing.tokenAddress).transferFrom */\n      0xffffffffffffffffffffffffffffffffffffffff\n      and\n      0x23b872dd\n        /* \"contracts/npc_marketplace/npc_marketplace_core.sol\":3176:3180  this */\n      address\n        /* \"contracts/npc_marketplace/npc_marketplace_core.sol\":3183:3188  buyer */\n      dup6\n        /* \"contracts/npc_marketplace/npc_marketplace_core.sol\":3190:3197  listing */\n      dup5\n        /* \"contracts/npc_marketplace/npc_marketplace_core.sol\":3190:3205  listing.tokenId */\n      0x40\n      add\n      mload\n        /* \"contracts/npc_marketplace/npc_marketplace_core.sol\":3125:3206  IERC721(listing.tokenAddress).transferFrom(address(this), buyer, listing.tokenId) */\n      mload(0x40)\n      dup5\n      0xffffffff\n      and\n      0xe0\n      shl\n      dup2\n      mstore\n      0x04\n      add\n      tag_245\n      swap4\n      swap3\n      swap2\n      swap1\n      tag_127\n      jump\t// in\n    tag_245:\n      0x00\n      mload(0x40)\n      dup1\n      dup4\n      sub\n      dup2\n      0x00\n      dup8\n      dup1\n      extcodesize\n      iszero\n      dup1\n      iszero\n      tag_246\n      jumpi\n      0x00\n      dup1\n      revert\n    tag_246:\n      pop\n      gas\n      call\n      iszero\n      dup1\n      iszero\n      tag_248\n      jumpi\n      returndatasize\n      0x00\n      dup1\n      returndatacopy\n      revert(0x00, returndatasize)\n    tag_248:\n      pop\n      pop\n      pop\n      pop\n        /* \"contracts/npc_marketplace/npc_marketplace_core.sol\":3225:3232  listing */\n      dup1\n        /* \"contracts/npc_marketplace/npc_marketplace_core.sol\":3225:3239  listing.seller */\n      0x00\n      add\n      mload\n        /* \"contracts/npc_marketplace/npc_marketplace_core.sol\":3217:3249  payable(listing.seller).transfer */\n      0xffffffffffffffffffffffffffffffffffffffff\n      and\n        /* \"contracts/npc_marketplace/npc_marketplace_core.sol\":3217:3264  payable(listing.seller).transfer(listing.price) */\n      0x08fc\n        /* \"contracts/npc_marketplace/npc_marketplace_core.sol\":3250:3257  listing */\n      dup3\n        /* \"contracts/npc_marketplace/npc_marketplace_core.sol\":3250:3263  listing.price */\n      0x60\n      add\n      mload\n        /* \"contracts/npc_marketplace/npc_marketplace_core.sol\":3217:3264  payable(listing.seller).transfer(listing.price) */\n      swap1\n      dup2\n      iszero\n      mul\n      swap1\n      mload(0x40)\n      0x00\n      mload(0x40)\n      dup1\n      dup4\n      sub\n      dup2\n      dup6\n      dup9\n      dup9\n      call\n      swap4\n      pop\n      pop\n      pop\n      pop\n      iszero\n      dup1\n      iszero\n      tag_250\n      jumpi\n      returndatasize\n      0x00\n      dup1\n      returndatacopy\n      revert(0x00, returndatasize)\n    tag_250:\n      pop\n        /* \"contracts/npc_marketplace/npc_marketplace_core.sol\":3310:3317  listing */\n      dup1\n        /* \"contracts/npc_marketplace/npc_marketplace_core.sol\":3310:3330  listing.tokenAddress */\n      0x20\n      add\n      mload\n        /* \"contracts/npc_marketplace/npc_marketplace_core.sol\":3282:3363  Sale(listingId, msg.sender, listing.tokenAddress, listing.tokenId, listing.price) */\n      0xffffffffffffffffffffffffffffffffffffffff\n      and\n        /* \"contracts/npc_marketplace/npc_marketplace_core.sol\":3298:3308  msg.sender */\n      caller\n        /* \"contracts/npc_marketplace/npc_marketplace_core.sol\":3282:3363  Sale(listingId, msg.sender, listing.tokenAddress, listing.tokenId, listing.price) */\n      0xffffffffffffffffffffffffffffffffffffffff\n      and\n        /* \"contracts/npc_marketplace/npc_marketplace_core.sol\":3287:3296  listingId */\n      dup6\n        /* \"contracts/npc_marketplace/npc_marketplace_core.sol\":3282:3363  Sale(listingId, msg.sender, listing.tokenAddress, listing.tokenId, listing.price) */\n      0xf3debaf22196a6ddf52a60fa71058cd7edf5e25bb98f4e96c994a5d4a9b0dd3e\n        /* \"contracts/npc_marketplace/npc_marketplace_core.sol\":3332:3339  listing */\n      dup5\n        /* \"contracts/npc_marketplace/npc_marketplace_core.sol\":3332:3347  listing.tokenId */\n      0x40\n      add\n      mload\n        /* \"contracts/npc_marketplace/npc_marketplace_core.sol\":3349:3356  listing */\n      dup6\n        /* \"contracts/npc_marketplace/npc_marketplace_core.sol\":3349:3362  listing.price */\n      0x60\n      add\n      mload\n        /* \"contracts/npc_marketplace/npc_marketplace_core.sol\":3282:3363  Sale(listingId, msg.sender, listing.tokenAddress, listing.tokenId, listing.price) */\n      mload(0x40)\n      tag_251\n      swap3\n      swap2\n      swap1\n      tag_135\n      jump\t// in\n    tag_251:\n      mload(0x40)\n      dup1\n      swap2\n      sub\n      swap1\n      log4\n        /* \"contracts/npc_marketplace/npc_marketplace_core.sol\":2828:3371  {... */\n      pop\n        /* \"@openzeppelin/contracts/security/ReentrancyGuard.sol\":2303:2323  _nonReentrantAfter() */\n      tag_252\n        /* \"@openzeppelin/contracts/security/ReentrancyGuard.sol\":2303:2321  _nonReentrantAfter */\n      tag_137\n        /* \"@openzeppelin/contracts/security/ReentrancyGuard.sol\":2303:2323  _nonReentrantAfter() */\n      jump\t// in\n    tag_252:\n        /* \"contracts/npc_marketplace/npc_marketplace_core.sol\":2735:3371  function _fulfilSale(uint256 listingId, address buyer, uint256 amount) internal nonReentrant {... */\n      pop\n      pop\n      pop\n      jump\t// out\n        /* \"@openzeppelin/contracts/utils/Counters.sol\":945:1068  function increment(Counter storage counter) internal {... */\n    tag_203:\n        /* \"@openzeppelin/contracts/utils/Counters.sol\":1050:1051  1 */\n      0x01\n        /* \"@openzeppelin/contracts/utils/Counters.sol\":1032:1039  counter */\n      dup2\n        /* \"@openzeppelin/contracts/utils/Counters.sol\":1032:1046  counter._value */\n      0x00\n      add\n      0x00\n        /* \"@openzeppelin/contracts/utils/Counters.sol\":1032:1051  counter._value += 1 */\n      dup3\n      dup3\n      sload\n      add\n      swap3\n      pop\n      pop\n      dup2\n      swap1\n      sstore\n      pop\n        /* \"@openzeppelin/contracts/utils/Counters.sol\":945:1068  function increment(Counter storage counter) internal {... */\n      pop\n      jump\t// out\n        /* \"@openzeppelin/contracts/utils/Counters.sol\":827:939  function current(Counter storage counter) internal view returns (uint256) {... */\n    tag_205:\n        /* \"@openzeppelin/contracts/utils/Counters.sol\":892:899  uint256 */\n      0x00\n        /* \"@openzeppelin/contracts/utils/Counters.sol\":918:925  counter */\n      dup2\n        /* \"@openzeppelin/contracts/utils/Counters.sol\":918:932  counter._value */\n      0x00\n      add\n      sload\n        /* \"@openzeppelin/contracts/utils/Counters.sol\":911:932  return counter._value */\n      swap1\n      pop\n        /* \"@openzeppelin/contracts/utils/Counters.sol\":827:939  function current(Counter storage counter) internal view returns (uint256) {... */\n      swap2\n      swap1\n      pop\n      jump\t// out\n        /* \"@openzeppelin/contracts/access/AccessControl.sol\":3432:3629  function _checkRole(bytes32 role, address account) internal view virtual {... */\n    tag_222:\n        /* \"@openzeppelin/contracts/access/AccessControl.sol\":3520:3542  hasRole(role, account) */\n      tag_256\n        /* \"@openzeppelin/contracts/access/AccessControl.sol\":3528:3532  role */\n      dup3\n        /* \"@openzeppelin/contracts/access/AccessControl.sol\":3534:3541  account */\n      dup3\n        /* \"@openzeppelin/contracts/access/AccessControl.sol\":3520:3527  hasRole */\n      tag_79\n        /* \"@openzeppelin/contracts/access/AccessControl.sol\":3520:3542  hasRole(role, account) */\n      jump\t// in\n    tag_256:\n        /* \"@openzeppelin/contracts/access/AccessControl.sol\":3515:3623  if (!hasRole(role, account)) {... */\n      tag_257\n      jumpi\n        /* \"@openzeppelin/contracts/access/AccessControl.sol\":3598:3605  account */\n      dup1\n        /* \"@openzeppelin/contracts/access/AccessControl.sol\":3607:3611  role */\n      dup3\n        /* \"@openzeppelin/contracts/access/AccessControl.sol\":3565:3612  AccessControlUnauthorizedAccount(account, role) */\n      mload(0x40)\n      0xe2517d3f00000000000000000000000000000000000000000000000000000000\n      dup2\n      mstore\n      0x04\n      add\n      tag_258\n      swap3\n      swap2\n      swap1\n      tag_259\n      jump\t// in\n    tag_258:\n      mload(0x40)\n      dup1\n      swap2\n      sub\n      swap1\n      revert\n        /* \"@openzeppelin/contracts/access/AccessControl.sol\":3515:3623  if (!hasRole(role, account)) {... */\n    tag_257:\n        /* \"@openzeppelin/contracts/access/AccessControl.sol\":3432:3629  function _checkRole(bytes32 role, address account) internal view virtual {... */\n      pop\n      pop\n      jump\t// out\n        /* \"#utility.yul\":88:205   */\n    tag_261:\n        /* \"#utility.yul\":197:198   */\n      0x00\n        /* \"#utility.yul\":194:195   */\n      dup1\n        /* \"#utility.yul\":187:199   */\n      revert\n        /* \"#utility.yul\":334:483   */\n    tag_263:\n        /* \"#utility.yul\":370:377   */\n      0x00\n        /* \"#utility.yul\":410:476   */\n      0xffffffff00000000000000000000000000000000000000000000000000000000\n        /* \"#utility.yul\":403:408   */\n      dup3\n        /* \"#utility.yul\":399:477   */\n      and\n        /* \"#utility.yul\":388:477   */\n      swap1\n      pop\n        /* \"#utility.yul\":334:483   */\n      swap2\n      swap1\n      pop\n      jump\t// out\n        /* \"#utility.yul\":489:609   */\n    tag_264:\n        /* \"#utility.yul\":561:584   */\n      tag_311\n        /* \"#utility.yul\":578:583   */\n      dup2\n        /* \"#utility.yul\":561:584   */\n      tag_263\n      jump\t// in\n    tag_311:\n        /* \"#utility.yul\":554:559   */\n      dup2\n        /* \"#utility.yul\":551:585   */\n      eq\n        /* \"#utility.yul\":541:603   */\n      tag_312\n      jumpi\n        /* \"#utility.yul\":599:600   */\n      0x00\n        /* \"#utility.yul\":596:597   */\n      dup1\n        /* \"#utility.yul\":589:601   */\n      revert\n        /* \"#utility.yul\":541:603   */\n    tag_312:\n        /* \"#utility.yul\":489:609   */\n      pop\n      jump\t// out\n        /* \"#utility.yul\":615:752   */\n    tag_265:\n        /* \"#utility.yul\":660:665   */\n      0x00\n        /* \"#utility.yul\":698:704   */\n      dup2\n        /* \"#utility.yul\":685:705   */\n      calldataload\n        /* \"#utility.yul\":676:705   */\n      swap1\n      pop\n        /* \"#utility.yul\":714:746   */\n      tag_314\n        /* \"#utility.yul\":740:745   */\n      dup2\n        /* \"#utility.yul\":714:746   */\n      tag_264\n      jump\t// in\n    tag_314:\n        /* \"#utility.yul\":615:752   */\n      swap3\n      swap2\n      pop\n      pop\n      jump\t// out\n        /* \"#utility.yul\":758:1085   */\n    tag_25:\n        /* \"#utility.yul\":816:822   */\n      0x00\n        /* \"#utility.yul\":865:867   */\n      0x20\n        /* \"#utility.yul\":853:862   */\n      dup3\n        /* \"#utility.yul\":844:851   */\n      dup5\n        /* \"#utility.yul\":840:863   */\n      sub\n        /* \"#utility.yul\":836:868   */\n      slt\n        /* \"#utility.yul\":833:952   */\n      iszero\n      tag_316\n      jumpi\n        /* \"#utility.yul\":871:950   */\n      tag_317\n      tag_261\n      jump\t// in\n    tag_317:\n        /* \"#utility.yul\":833:952   */\n    tag_316:\n        /* \"#utility.yul\":991:992   */\n      0x00\n        /* \"#utility.yul\":1016:1068   */\n      tag_318\n        /* \"#utility.yul\":1060:1067   */\n      dup5\n        /* \"#utility.yul\":1051:1057   */\n      dup3\n        /* \"#utility.yul\":1040:1049   */\n      dup6\n        /* \"#utility.yul\":1036:1058   */\n      add\n        /* \"#utility.yul\":1016:1068   */\n      tag_265\n      jump\t// in\n    tag_318:\n        /* \"#utility.yul\":1006:1068   */\n      swap2\n      pop\n        /* \"#utility.yul\":962:1078   */\n      pop\n        /* \"#utility.yul\":758:1085   */\n      swap3\n      swap2\n      pop\n      pop\n      jump\t// out\n        /* \"#utility.yul\":1091:1181   */\n    tag_266:\n        /* \"#utility.yul\":1125:1132   */\n      0x00\n        /* \"#utility.yul\":1168:1173   */\n      dup2\n        /* \"#utility.yul\":1161:1174   */\n      iszero\n        /* \"#utility.yul\":1154:1175   */\n      iszero\n        /* \"#utility.yul\":1143:1175   */\n      swap1\n      pop\n        /* \"#utility.yul\":1091:1181   */\n      swap2\n      swap1\n      pop\n      jump\t// out\n        /* \"#utility.yul\":1187:1296   */\n    tag_267:\n        /* \"#utility.yul\":1268:1289   */\n      tag_321\n        /* \"#utility.yul\":1283:1288   */\n      dup2\n        /* \"#utility.yul\":1268:1289   */\n      tag_266\n      jump\t// in\n    tag_321:\n        /* \"#utility.yul\":1263:1266   */\n      dup3\n        /* \"#utility.yul\":1256:1290   */\n      mstore\n        /* \"#utility.yul\":1187:1296   */\n      pop\n      pop\n      jump\t// out\n        /* \"#utility.yul\":1302:1512   */\n    tag_28:\n        /* \"#utility.yul\":1389:1393   */\n      0x00\n        /* \"#utility.yul\":1427:1429   */\n      0x20\n        /* \"#utility.yul\":1416:1425   */\n      dup3\n        /* \"#utility.yul\":1412:1430   */\n      add\n        /* \"#utility.yul\":1404:1430   */\n      swap1\n      pop\n        /* \"#utility.yul\":1440:1505   */\n      tag_323\n        /* \"#utility.yul\":1502:1503   */\n      0x00\n        /* \"#utility.yul\":1491:1500   */\n      dup4\n        /* \"#utility.yul\":1487:1504   */\n      add\n        /* \"#utility.yul\":1478:1484   */\n      dup5\n        /* \"#utility.yul\":1440:1505   */\n      tag_267\n      jump\t// in\n    tag_323:\n        /* \"#utility.yul\":1302:1512   */\n      swap3\n      swap2\n      pop\n      pop\n      jump\t// out\n        /* \"#utility.yul\":1518:1595   */\n    tag_268:\n        /* \"#utility.yul\":1555:1562   */\n      0x00\n        /* \"#utility.yul\":1584:1589   */\n      dup2\n        /* \"#utility.yul\":1573:1589   */\n      swap1\n      pop\n        /* \"#utility.yul\":1518:1595   */\n      swap2\n      swap1\n      pop\n      jump\t// out\n        /* \"#utility.yul\":1601:1723   */\n    tag_269:\n        /* \"#utility.yul\":1674:1698   */\n      tag_326\n        /* \"#utility.yul\":1692:1697   */\n      dup2\n        /* \"#utility.yul\":1674:1698   */\n      tag_268\n      jump\t// in\n    tag_326:\n        /* \"#utility.yul\":1667:1672   */\n      dup2\n        /* \"#utility.yul\":1664:1699   */\n      eq\n        /* \"#utility.yul\":1654:1717   */\n      tag_327\n      jumpi\n        /* \"#utility.yul\":1713:1714   */\n      0x00\n        /* \"#utility.yul\":1710:1711   */\n      dup1\n        /* \"#utility.yul\":1703:1715   */\n      revert\n        /* \"#utility.yul\":1654:1717   */\n    tag_327:\n        /* \"#utility.yul\":1601:1723   */\n      pop\n      jump\t// out\n        /* \"#utility.yul\":1729:1868   */\n    tag_270:\n        /* \"#utility.yul\":1775:1780   */\n      0x00\n        /* \"#utility.yul\":1813:1819   */\n      dup2\n        /* \"#utility.yul\":1800:1820   */\n      calldataload\n        /* \"#utility.yul\":1791:1820   */\n      swap1\n      pop\n        /* \"#utility.yul\":1829:1862   */\n      tag_329\n        /* \"#utility.yul\":1856:1861   */\n      dup2\n        /* \"#utility.yul\":1829:1862   */\n      tag_269\n      jump\t// in\n    tag_329:\n        /* \"#utility.yul\":1729:1868   */\n      swap3\n      swap2\n      pop\n      pop\n      jump\t// out\n        /* \"#utility.yul\":1874:2203   */\n    tag_32:\n        /* \"#utility.yul\":1933:1939   */\n      0x00\n        /* \"#utility.yul\":1982:1984   */\n      0x20\n        /* \"#utility.yul\":1970:1979   */\n      dup3\n        /* \"#utility.yul\":1961:1968   */\n      dup5\n        /* \"#utility.yul\":1957:1980   */\n      sub\n        /* \"#utility.yul\":1953:1985   */\n      slt\n        /* \"#utility.yul\":1950:2069   */\n      iszero\n      tag_331\n      jumpi\n        /* \"#utility.yul\":1988:2067   */\n      tag_332\n      tag_261\n      jump\t// in\n    tag_332:\n        /* \"#utility.yul\":1950:2069   */\n    tag_331:\n        /* \"#utility.yul\":2108:2109   */\n      0x00\n        /* \"#utility.yul\":2133:2186   */\n      tag_333\n        /* \"#utility.yul\":2178:2185   */\n      dup5\n        /* \"#utility.yul\":2169:2175   */\n      dup3\n        /* \"#utility.yul\":2158:2167   */\n      dup6\n        /* \"#utility.yul\":2154:2176   */\n      add\n        /* \"#utility.yul\":2133:2186   */\n      tag_270\n      jump\t// in\n    tag_333:\n        /* \"#utility.yul\":2123:2186   */\n      swap2\n      pop\n        /* \"#utility.yul\":2079:2196   */\n      pop\n        /* \"#utility.yul\":1874:2203   */\n      swap3\n      swap2\n      pop\n      pop\n      jump\t// out\n        /* \"#utility.yul\":2209:2335   */\n    tag_271:\n        /* \"#utility.yul\":2246:2253   */\n      0x00\n        /* \"#utility.yul\":2286:2328   */\n      0xffffffffffffffffffffffffffffffffffffffff\n        /* \"#utility.yul\":2279:2284   */\n      dup3\n        /* \"#utility.yul\":2275:2329   */\n      and\n        /* \"#utility.yul\":2264:2329   */\n      swap1\n      pop\n        /* \"#utility.yul\":2209:2335   */\n      swap2\n      swap1\n      pop\n      jump\t// out\n        /* \"#utility.yul\":2341:2437   */\n    tag_272:\n        /* \"#utility.yul\":2378:2385   */\n      0x00\n        /* \"#utility.yul\":2407:2431   */\n      tag_336\n        /* \"#utility.yul\":2425:2430   */\n      dup3\n        /* \"#utility.yul\":2407:2431   */\n      tag_271\n      jump\t// in\n    tag_336:\n        /* \"#utility.yul\":2396:2431   */\n      swap1\n      pop\n        /* \"#utility.yul\":2341:2437   */\n      swap2\n      swap1\n      pop\n      jump\t// out\n        /* \"#utility.yul\":2443:2561   */\n    tag_273:\n        /* \"#utility.yul\":2530:2554   */\n      tag_338\n        /* \"#utility.yul\":2548:2553   */\n      dup2\n        /* \"#utility.yul\":2530:2554   */\n      tag_272\n      jump\t// in\n    tag_338:\n        /* \"#utility.yul\":2525:2528   */\n      dup3\n        /* \"#utility.yul\":2518:2555   */\n      mstore\n        /* \"#utility.yul\":2443:2561   */\n      pop\n      pop\n      jump\t// out\n        /* \"#utility.yul\":2567:2685   */\n    tag_274:\n        /* \"#utility.yul\":2654:2678   */\n      tag_340\n        /* \"#utility.yul\":2672:2677   */\n      dup2\n        /* \"#utility.yul\":2654:2678   */\n      tag_268\n      jump\t// in\n    tag_340:\n        /* \"#utility.yul\":2649:2652   */\n      dup3\n        /* \"#utility.yul\":2642:2679   */\n      mstore\n        /* \"#utility.yul\":2567:2685   */\n      pop\n      pop\n      jump\t// out\n        /* \"#utility.yul\":2691:3023   */\n    tag_35:\n        /* \"#utility.yul\":2812:2816   */\n      0x00\n        /* \"#utility.yul\":2850:2852   */\n      0x40\n        /* \"#utility.yul\":2839:2848   */\n      dup3\n        /* \"#utility.yul\":2835:2853   */\n      add\n        /* \"#utility.yul\":2827:2853   */\n      swap1\n      pop\n        /* \"#utility.yul\":2863:2934   */\n      tag_342\n        /* \"#utility.yul\":2931:2932   */\n      0x00\n        /* \"#utility.yul\":2920:2929   */\n      dup4\n        /* \"#utility.yul\":2916:2933   */\n      add\n        /* \"#utility.yul\":2907:2913   */\n      dup6\n        /* \"#utility.yul\":2863:2934   */\n      tag_273\n      jump\t// in\n    tag_342:\n        /* \"#utility.yul\":2944:3016   */\n      tag_343\n        /* \"#utility.yul\":3012:3014   */\n      0x20\n        /* \"#utility.yul\":3001:3010   */\n      dup4\n        /* \"#utility.yul\":2997:3015   */\n      add\n        /* \"#utility.yul\":2988:2994   */\n      dup5\n        /* \"#utility.yul\":2944:3016   */\n      tag_274\n      jump\t// in\n    tag_343:\n        /* \"#utility.yul\":2691:3023   */\n      swap4\n      swap3\n      pop\n      pop\n      pop\n      jump\t// out\n        /* \"#utility.yul\":3029:3106   */\n    tag_275:\n        /* \"#utility.yul\":3066:3073   */\n      0x00\n        /* \"#utility.yul\":3095:3100   */\n      dup2\n        /* \"#utility.yul\":3084:3100   */\n      swap1\n      pop\n        /* \"#utility.yul\":3029:3106   */\n      swap2\n      swap1\n      pop\n      jump\t// out\n        /* \"#utility.yul\":3112:3234   */\n    tag_276:\n        /* \"#utility.yul\":3185:3209   */\n      tag_346\n        /* \"#utility.yul\":3203:3208   */\n      dup2\n        /* \"#utility.yul\":3185:3209   */\n      tag_275\n      jump\t// in\n    tag_346:\n        /* \"#utility.yul\":3178:3183   */\n      dup2\n        /* \"#utility.yul\":3175:3210   */\n      eq\n        /* \"#utility.yul\":3165:3228   */\n      tag_347\n      jumpi\n        /* \"#utility.yul\":3224:3225   */\n      0x00\n        /* \"#utility.yul\":3221:3222   */\n      dup1\n        /* \"#utility.yul\":3214:3226   */\n      revert\n        /* \"#utility.yul\":3165:3228   */\n    tag_347:\n        /* \"#utility.yul\":3112:3234   */\n      pop\n      jump\t// out\n        /* \"#utility.yul\":3240:3379   */\n    tag_277:\n        /* \"#utility.yul\":3286:3291   */\n      0x00\n        /* \"#utility.yul\":3324:3330   */\n      dup2\n        /* \"#utility.yul\":3311:3331   */\n      calldataload\n        /* \"#utility.yul\":3302:3331   */\n      swap1\n      pop\n        /* \"#utility.yul\":3340:3373   */\n      tag_349\n        /* \"#utility.yul\":3367:3372   */\n      dup2\n        /* \"#utility.yul\":3340:3373   */\n      tag_276\n      jump\t// in\n    tag_349:\n        /* \"#utility.yul\":3240:3379   */\n      swap3\n      swap2\n      pop\n      pop\n      jump\t// out\n        /* \"#utility.yul\":3385:3714   */\n    tag_43:\n        /* \"#utility.yul\":3444:3450   */\n      0x00\n        /* \"#utility.yul\":3493:3495   */\n      0x20\n        /* \"#utility.yul\":3481:3490   */\n      dup3\n        /* \"#utility.yul\":3472:3479   */\n      dup5\n        /* \"#utility.yul\":3468:3491   */\n      sub\n        /* \"#utility.yul\":3464:3496   */\n      slt\n        /* \"#utility.yul\":3461:3580   */\n      iszero\n      tag_351\n      jumpi\n        /* \"#utility.yul\":3499:3578   */\n      tag_352\n      tag_261\n      jump\t// in\n    tag_352:\n        /* \"#utility.yul\":3461:3580   */\n    tag_351:\n        /* \"#utility.yul\":3619:3620   */\n      0x00\n        /* \"#utility.yul\":3644:3697   */\n      tag_353\n        /* \"#utility.yul\":3689:3696   */\n      dup5\n        /* \"#utility.yul\":3680:3686   */\n      dup3\n        /* \"#utility.yul\":3669:3678   */\n      dup6\n        /* \"#utility.yul\":3665:3687   */\n      add\n        /* \"#utility.yul\":3644:3697   */\n      tag_277\n      jump\t// in\n    tag_353:\n        /* \"#utility.yul\":3634:3697   */\n      swap2\n      pop\n        /* \"#utility.yul\":3590:3707   */\n      pop\n        /* \"#utility.yul\":3385:3714   */\n      swap3\n      swap2\n      pop\n      pop\n      jump\t// out\n        /* \"#utility.yul\":3720:3838   */\n    tag_278:\n        /* \"#utility.yul\":3807:3831   */\n      tag_355\n        /* \"#utility.yul\":3825:3830   */\n      dup2\n        /* \"#utility.yul\":3807:3831   */\n      tag_275\n      jump\t// in\n    tag_355:\n        /* \"#utility.yul\":3802:3805   */\n      dup3\n        /* \"#utility.yul\":3795:3832   */\n      mstore\n        /* \"#utility.yul\":3720:3838   */\n      pop\n      pop\n      jump\t// out\n        /* \"#utility.yul\":3844:4066   */\n    tag_46:\n        /* \"#utility.yul\":3937:3941   */\n      0x00\n        /* \"#utility.yul\":3975:3977   */\n      0x20\n        /* \"#utility.yul\":3964:3973   */\n      dup3\n        /* \"#utility.yul\":3960:3978   */\n      add\n        /* \"#utility.yul\":3952:3978   */\n      swap1\n      pop\n        /* \"#utility.yul\":3988:4059   */\n      tag_357\n        /* \"#utility.yul\":4056:4057   */\n      0x00\n        /* \"#utility.yul\":4045:4054   */\n      dup4\n        /* \"#utility.yul\":4041:4058   */\n      add\n        /* \"#utility.yul\":4032:4038   */\n      dup5\n        /* \"#utility.yul\":3988:4059   */\n      tag_278\n      jump\t// in\n    tag_357:\n        /* \"#utility.yul\":3844:4066   */\n      swap3\n      swap2\n      pop\n      pop\n      jump\t// out\n        /* \"#utility.yul\":4072:4194   */\n    tag_279:\n        /* \"#utility.yul\":4145:4169   */\n      tag_359\n        /* \"#utility.yul\":4163:4168   */\n      dup2\n        /* \"#utility.yul\":4145:4169   */\n      tag_272\n      jump\t// in\n    tag_359:\n        /* \"#utility.yul\":4138:4143   */\n      dup2\n        /* \"#utility.yul\":4135:4170   */\n      eq\n        /* \"#utility.yul\":4125:4188   */\n      tag_360\n      jumpi\n        /* \"#utility.yul\":4184:4185   */\n      0x00\n        /* \"#utility.yul\":4181:4182   */\n      dup1\n        /* \"#utility.yul\":4174:4186   */\n      revert\n        /* \"#utility.yul\":4125:4188   */\n    tag_360:\n        /* \"#utility.yul\":4072:4194   */\n      pop\n      jump\t// out\n        /* \"#utility.yul\":4200:4339   */\n    tag_280:\n        /* \"#utility.yul\":4246:4251   */\n      0x00\n        /* \"#utility.yul\":4284:4290   */\n      dup2\n        /* \"#utility.yul\":4271:4291   */\n      calldataload\n        /* \"#utility.yul\":4262:4291   */\n      swap1\n      pop\n        /* \"#utility.yul\":4300:4333   */\n      tag_362\n        /* \"#utility.yul\":4327:4332   */\n      dup2\n        /* \"#utility.yul\":4300:4333   */\n      tag_279\n      jump\t// in\n    tag_362:\n        /* \"#utility.yul\":4200:4339   */\n      swap3\n      swap2\n      pop\n      pop\n      jump\t// out\n        /* \"#utility.yul\":4345:4819   */\n    tag_54:\n        /* \"#utility.yul\":4413:4419   */\n      0x00\n        /* \"#utility.yul\":4421:4427   */\n      dup1\n        /* \"#utility.yul\":4470:4472   */\n      0x40\n        /* \"#utility.yul\":4458:4467   */\n      dup4\n        /* \"#utility.yul\":4449:4456   */\n      dup6\n        /* \"#utility.yul\":4445:4468   */\n      sub\n        /* \"#utility.yul\":4441:4473   */\n      slt\n        /* \"#utility.yul\":4438:4557   */\n      iszero\n      tag_364\n      jumpi\n        /* \"#utility.yul\":4476:4555   */\n      tag_365\n      tag_261\n      jump\t// in\n    tag_365:\n        /* \"#utility.yul\":4438:4557   */\n    tag_364:\n        /* \"#utility.yul\":4596:4597   */\n      0x00\n        /* \"#utility.yul\":4621:4674   */\n      tag_366\n        /* \"#utility.yul\":4666:4673   */\n      dup6\n        /* \"#utility.yul\":4657:4663   */\n      dup3\n        /* \"#utility.yul\":4646:4655   */\n      dup7\n        /* \"#utility.yul\":4642:4664   */\n      add\n        /* \"#utility.yul\":4621:4674   */\n      tag_277\n      jump\t// in\n    tag_366:\n        /* \"#utility.yul\":4611:4674   */\n      swap3\n      pop\n        /* \"#utility.yul\":4567:4684   */\n      pop\n        /* \"#utility.yul\":4723:4725   */\n      0x20\n        /* \"#utility.yul\":4749:4802   */\n      tag_367\n        /* \"#utility.yul\":4794:4801   */\n      dup6\n        /* \"#utility.yul\":4785:4791   */\n      dup3\n        /* \"#utility.yul\":4774:4783   */\n      dup7\n        /* \"#utility.yul\":4770:4792   */\n      add\n        /* \"#utility.yul\":4749:4802   */\n      tag_280\n      jump\t// in\n    tag_367:\n        /* \"#utility.yul\":4739:4802   */\n      swap2\n      pop\n        /* \"#utility.yul\":4694:4812   */\n      pop\n        /* \"#utility.yul\":4345:4819   */\n      swap3\n      pop\n      swap3\n      swap1\n      pop\n      jump\t// out\n        /* \"#utility.yul\":4825:5047   */\n    tag_71:\n        /* \"#utility.yul\":4918:4922   */\n      0x00\n        /* \"#utility.yul\":4956:4958   */\n      0x20\n        /* \"#utility.yul\":4945:4954   */\n      dup3\n        /* \"#utility.yul\":4941:4959   */\n      add\n        /* \"#utility.yul\":4933:4959   */\n      swap1\n      pop\n        /* \"#utility.yul\":4969:5040   */\n      tag_369\n        /* \"#utility.yul\":5037:5038   */\n      0x00\n        /* \"#utility.yul\":5026:5035   */\n      dup4\n        /* \"#utility.yul\":5022:5039   */\n      add\n        /* \"#utility.yul\":5013:5019   */\n      dup5\n        /* \"#utility.yul\":4969:5040   */\n      tag_274\n      jump\t// in\n    tag_369:\n        /* \"#utility.yul\":4825:5047   */\n      swap3\n      swap2\n      pop\n      pop\n      jump\t// out\n        /* \"#utility.yul\":5053:5672   */\n    tag_90:\n        /* \"#utility.yul\":5130:5136   */\n      0x00\n        /* \"#utility.yul\":5138:5144   */\n      dup1\n        /* \"#utility.yul\":5146:5152   */\n      0x00\n        /* \"#utility.yul\":5195:5197   */\n      0x60\n        /* \"#utility.yul\":5183:5192   */\n      dup5\n        /* \"#utility.yul\":5174:5181   */\n      dup7\n        /* \"#utility.yul\":5170:5193   */\n      sub\n        /* \"#utility.yul\":5166:5198   */\n      slt\n        /* \"#utility.yul\":5163:5282   */\n      iszero\n      tag_371\n      jumpi\n        /* \"#utility.yul\":5201:5280   */\n      tag_372\n      tag_261\n      jump\t// in\n    tag_372:\n        /* \"#utility.yul\":5163:5282   */\n    tag_371:\n        /* \"#utility.yul\":5321:5322   */\n      0x00\n        /* \"#utility.yul\":5346:5399   */\n      tag_373\n        /* \"#utility.yul\":5391:5398   */\n      dup7\n        /* \"#utility.yul\":5382:5388   */\n      dup3\n        /* \"#utility.yul\":5371:5380   */\n      dup8\n        /* \"#utility.yul\":5367:5389   */\n      add\n        /* \"#utility.yul\":5346:5399   */\n      tag_280\n      jump\t// in\n    tag_373:\n        /* \"#utility.yul\":5336:5399   */\n      swap4\n      pop\n        /* \"#utility.yul\":5292:5409   */\n      pop\n        /* \"#utility.yul\":5448:5450   */\n      0x20\n        /* \"#utility.yul\":5474:5527   */\n      tag_374\n        /* \"#utility.yul\":5519:5526   */\n      dup7\n        /* \"#utility.yul\":5510:5516   */\n      dup3\n        /* \"#utility.yul\":5499:5508   */\n      dup8\n        /* \"#utility.yul\":5495:5517   */\n      add\n        /* \"#utility.yul\":5474:5527   */\n      tag_270\n      jump\t// in\n    tag_374:\n        /* \"#utility.yul\":5464:5527   */\n      swap3\n      pop\n        /* \"#utility.yul\":5419:5537   */\n      pop\n        /* \"#utility.yul\":5576:5578   */\n      0x40\n        /* \"#utility.yul\":5602:5655   */\n      tag_375\n        /* \"#utility.yul\":5647:5654   */\n      dup7\n        /* \"#utility.yul\":5638:5644   */\n      dup3\n        /* \"#utility.yul\":5627:5636   */\n      dup8\n        /* \"#utility.yul\":5623:5645   */\n      add\n        /* \"#utility.yul\":5602:5655   */\n      tag_270\n      jump\t// in\n    tag_375:\n        /* \"#utility.yul\":5592:5655   */\n      swap2\n      pop\n        /* \"#utility.yul\":5547:5665   */\n      pop\n        /* \"#utility.yul\":5053:5672   */\n      swap3\n      pop\n      swap3\n      pop\n      swap3\n      jump\t// out\n        /* \"#utility.yul\":5678:6231   */\n    tag_101:\n        /* \"#utility.yul\":5855:5859   */\n      0x00\n        /* \"#utility.yul\":5893:5896   */\n      0x80\n        /* \"#utility.yul\":5882:5891   */\n      dup3\n        /* \"#utility.yul\":5878:5897   */\n      add\n        /* \"#utility.yul\":5870:5897   */\n      swap1\n      pop\n        /* \"#utility.yul\":5907:5978   */\n      tag_377\n        /* \"#utility.yul\":5975:5976   */\n      0x00\n        /* \"#utility.yul\":5964:5973   */\n      dup4\n        /* \"#utility.yul\":5960:5977   */\n      add\n        /* \"#utility.yul\":5951:5957   */\n      dup8\n        /* \"#utility.yul\":5907:5978   */\n      tag_273\n      jump\t// in\n    tag_377:\n        /* \"#utility.yul\":5988:6060   */\n      tag_378\n        /* \"#utility.yul\":6056:6058   */\n      0x20\n        /* \"#utility.yul\":6045:6054   */\n      dup4\n        /* \"#utility.yul\":6041:6059   */\n      add\n        /* \"#utility.yul\":6032:6038   */\n      dup7\n        /* \"#utility.yul\":5988:6060   */\n      tag_273\n      jump\t// in\n    tag_378:\n        /* \"#utility.yul\":6070:6142   */\n      tag_379\n        /* \"#utility.yul\":6138:6140   */\n      0x40\n        /* \"#utility.yul\":6127:6136   */\n      dup4\n        /* \"#utility.yul\":6123:6141   */\n      add\n        /* \"#utility.yul\":6114:6120   */\n      dup6\n        /* \"#utility.yul\":6070:6142   */\n      tag_274\n      jump\t// in\n    tag_379:\n        /* \"#utility.yul\":6152:6224   */\n      tag_380\n        /* \"#utility.yul\":6220:6222   */\n      0x60\n        /* \"#utility.yul\":6209:6218   */\n      dup4\n        /* \"#utility.yul\":6205:6223   */\n      add\n        /* \"#utility.yul\":6196:6202   */\n      dup5\n        /* \"#utility.yul\":6152:6224   */\n      tag_274\n      jump\t// in\n    tag_380:\n        /* \"#utility.yul\":5678:6231   */\n      swap6\n      swap5\n      pop\n      pop\n      pop\n      pop\n      pop\n      jump\t// out\n        /* \"#utility.yul\":6237:6406   */\n    tag_281:\n        /* \"#utility.yul\":6321:6332   */\n      0x00\n        /* \"#utility.yul\":6355:6361   */\n      dup3\n        /* \"#utility.yul\":6350:6353   */\n      dup3\n        /* \"#utility.yul\":6343:6362   */\n      mstore\n        /* \"#utility.yul\":6395:6399   */\n      0x20\n        /* \"#utility.yul\":6390:6393   */\n      dup3\n        /* \"#utility.yul\":6386:6400   */\n      add\n        /* \"#utility.yul\":6371:6400   */\n      swap1\n      pop\n        /* \"#utility.yul\":6237:6406   */\n      swap3\n      swap2\n      pop\n      pop\n      jump\t// out\n        /* \"#utility.yul\":6412:6584   */\n    tag_282:\n        /* \"#utility.yul\":6552:6576   */\n      0x43616c6c6572206973206e6f7420616e2061646d696e00000000000000000000\n        /* \"#utility.yul\":6548:6549   */\n      0x00\n        /* \"#utility.yul\":6540:6546   */\n      dup3\n        /* \"#utility.yul\":6536:6550   */\n      add\n        /* \"#utility.yul\":6529:6577   */\n      mstore\n        /* \"#utility.yul\":6412:6584   */\n      pop\n      jump\t// out\n        /* \"#utility.yul\":6590:6956   */\n    tag_283:\n        /* \"#utility.yul\":6732:6735   */\n      0x00\n        /* \"#utility.yul\":6753:6820   */\n      tag_384\n        /* \"#utility.yul\":6817:6819   */\n      0x16\n        /* \"#utility.yul\":6812:6815   */\n      dup4\n        /* \"#utility.yul\":6753:6820   */\n      tag_281\n      jump\t// in\n    tag_384:\n        /* \"#utility.yul\":6746:6820   */\n      swap2\n      pop\n        /* \"#utility.yul\":6829:6922   */\n      tag_385\n        /* \"#utility.yul\":6918:6921   */\n      dup3\n        /* \"#utility.yul\":6829:6922   */\n      tag_282\n      jump\t// in\n    tag_385:\n        /* \"#utility.yul\":6947:6949   */\n      0x20\n        /* \"#utility.yul\":6942:6945   */\n      dup3\n        /* \"#utility.yul\":6938:6950   */\n      add\n        /* \"#utility.yul\":6931:6950   */\n      swap1\n      pop\n        /* \"#utility.yul\":6590:6956   */\n      swap2\n      swap1\n      pop\n      jump\t// out\n        /* \"#utility.yul\":6962:7381   */\n    tag_110:\n        /* \"#utility.yul\":7128:7132   */\n      0x00\n        /* \"#utility.yul\":7166:7168   */\n      0x20\n        /* \"#utility.yul\":7155:7164   */\n      dup3\n        /* \"#utility.yul\":7151:7169   */\n      add\n        /* \"#utility.yul\":7143:7169   */\n      swap1\n      pop\n        /* \"#utility.yul\":7215:7224   */\n      dup2\n        /* \"#utility.yul\":7209:7213   */\n      dup2\n        /* \"#utility.yul\":7205:7225   */\n      sub\n        /* \"#utility.yul\":7201:7202   */\n      0x00\n        /* \"#utility.yul\":7190:7199   */\n      dup4\n        /* \"#utility.yul\":7186:7203   */\n      add\n        /* \"#utility.yul\":7179:7226   */\n      mstore\n        /* \"#utility.yul\":7243:7374   */\n      tag_387\n        /* \"#utility.yul\":7369:7373   */\n      dup2\n        /* \"#utility.yul\":7243:7374   */\n      tag_283\n      jump\t// in\n    tag_387:\n        /* \"#utility.yul\":7235:7374   */\n      swap1\n      pop\n        /* \"#utility.yul\":6962:7381   */\n      swap2\n      swap1\n      pop\n      jump\t// out\n        /* \"#utility.yul\":7387:7561   */\n    tag_284:\n        /* \"#utility.yul\":7527:7553   */\n      0x43616c6c6572206973206e6f74207468652073656c6c65720000000000000000\n        /* \"#utility.yul\":7523:7524   */\n      0x00\n        /* \"#utility.yul\":7515:7521   */\n      dup3\n        /* \"#utility.yul\":7511:7525   */\n      add\n        /* \"#utility.yul\":7504:7554   */\n      mstore\n        /* \"#utility.yul\":7387:7561   */\n      pop\n      jump\t// out\n        /* \"#utility.yul\":7567:7933   */\n    tag_285:\n        /* \"#utility.yul\":7709:7712   */\n      0x00\n        /* \"#utility.yul\":7730:7797   */\n      tag_390\n        /* \"#utility.yul\":7794:7796   */\n      0x18\n        /* \"#utility.yul\":7789:7792   */\n      dup4\n        /* \"#utility.yul\":7730:7797   */\n      tag_281\n      jump\t// in\n    tag_390:\n        /* \"#utility.yul\":7723:7797   */\n      swap2\n      pop\n        /* \"#utility.yul\":7806:7899   */\n      tag_391\n        /* \"#utility.yul\":7895:7898   */\n      dup3\n        /* \"#utility.yul\":7806:7899   */\n      tag_284\n      jump\t// in\n    tag_391:\n        /* \"#utility.yul\":7924:7926   */\n      0x20\n        /* \"#utility.yul\":7919:7922   */\n      dup3\n        /* \"#utility.yul\":7915:7927   */\n      add\n        /* \"#utility.yul\":7908:7927   */\n      swap1\n      pop\n        /* \"#utility.yul\":7567:7933   */\n      swap2\n      swap1\n      pop\n      jump\t// out\n        /* \"#utility.yul\":7939:8358   */\n    tag_119:\n        /* \"#utility.yul\":8105:8109   */\n      0x00\n        /* \"#utility.yul\":8143:8145   */\n      0x20\n        /* \"#utility.yul\":8132:8141   */\n      dup3\n        /* \"#utility.yul\":8128:8146   */\n      add\n        /* \"#utility.yul\":8120:8146   */\n      swap1\n      pop\n        /* \"#utility.yul\":8192:8201   */\n      dup2\n        /* \"#utility.yul\":8186:8190   */\n      dup2\n        /* \"#utility.yul\":8182:8202   */\n      sub\n        /* \"#utility.yul\":8178:8179   */\n      0x00\n        /* \"#utility.yul\":8167:8176   */\n      dup4\n        /* \"#utility.yul\":8163:8180   */\n      add\n        /* \"#utility.yul\":8156:8203   */\n      mstore\n        /* \"#utility.yul\":8220:8351   */\n      tag_393\n        /* \"#utility.yul\":8346:8350   */\n      dup2\n        /* \"#utility.yul\":8220:8351   */\n      tag_285\n      jump\t// in\n    tag_393:\n        /* \"#utility.yul\":8212:8351   */\n      swap1\n      pop\n        /* \"#utility.yul\":7939:8358   */\n      swap2\n      swap1\n      pop\n      jump\t// out\n        /* \"#utility.yul\":8364:8532   */\n    tag_286:\n        /* \"#utility.yul\":8504:8524   */\n      0x4c697374696e67206e6f74206163746976650000000000000000000000000000\n        /* \"#utility.yul\":8500:8501   */\n      0x00\n        /* \"#utility.yul\":8492:8498   */\n      dup3\n        /* \"#utility.yul\":8488:8502   */\n      add\n        /* \"#utility.yul\":8481:8525   */\n      mstore\n        /* \"#utility.yul\":8364:8532   */\n      pop\n      jump\t// out\n        /* \"#utility.yul\":8538:8904   */\n    tag_287:\n        /* \"#utility.yul\":8680:8683   */\n      0x00\n        /* \"#utility.yul\":8701:8768   */\n      tag_396\n        /* \"#utility.yul\":8765:8767   */\n      0x12\n        /* \"#utility.yul\":8760:8763   */\n      dup4\n        /* \"#utility.yul\":8701:8768   */\n      tag_281\n      jump\t// in\n    tag_396:\n        /* \"#utility.yul\":8694:8768   */\n      swap2\n      pop\n        /* \"#utility.yul\":8777:8870   */\n      tag_397\n        /* \"#utility.yul\":8866:8869   */\n      dup3\n        /* \"#utility.yul\":8777:8870   */\n      tag_286\n      jump\t// in\n    tag_397:\n        /* \"#utility.yul\":8895:8897   */\n      0x20\n        /* \"#utility.yul\":8890:8893   */\n      dup3\n        /* \"#utility.yul\":8886:8898   */\n      add\n        /* \"#utility.yul\":8879:8898   */\n      swap1\n      pop\n        /* \"#utility.yul\":8538:8904   */\n      swap2\n      swap1\n      pop\n      jump\t// out\n        /* \"#utility.yul\":8910:9329   */\n    tag_122:\n        /* \"#utility.yul\":9076:9080   */\n      0x00\n        /* \"#utility.yul\":9114:9116   */\n      0x20\n        /* \"#utility.yul\":9103:9112   */\n      dup3\n        /* \"#utility.yul\":9099:9117   */\n      add\n        /* \"#utility.yul\":9091:9117   */\n      swap1\n      pop\n        /* \"#utility.yul\":9163:9172   */\n      dup2\n        /* \"#utility.yul\":9157:9161   */\n      dup2\n        /* \"#utility.yul\":9153:9173   */\n      sub\n        /* \"#utility.yul\":9149:9150   */\n      0x00\n        /* \"#utility.yul\":9138:9147   */\n      dup4\n        /* \"#utility.yul\":9134:9151   */\n      add\n        /* \"#utility.yul\":9127:9174   */\n      mstore\n        /* \"#utility.yul\":9191:9322   */\n      tag_399\n        /* \"#utility.yul\":9317:9321   */\n      dup2\n        /* \"#utility.yul\":9191:9322   */\n      tag_287\n      jump\t// in\n    tag_399:\n        /* \"#utility.yul\":9183:9322   */\n      swap1\n      pop\n        /* \"#utility.yul\":8910:9329   */\n      swap2\n      swap1\n      pop\n      jump\t// out\n        /* \"#utility.yul\":9335:9501   */\n    tag_288:\n        /* \"#utility.yul\":9475:9493   */\n      0x4e6f2062696420746f2061636365707400000000000000000000000000000000\n        /* \"#utility.yul\":9471:9472   */\n      0x00\n        /* \"#utility.yul\":9463:9469   */\n      dup3\n        /* \"#utility.yul\":9459:9473   */\n      add\n        /* \"#utility.yul\":9452:9494   */\n      mstore\n        /* \"#utility.yul\":9335:9501   */\n      pop\n      jump\t// out\n        /* \"#utility.yul\":9507:9873   */\n    tag_289:\n        /* \"#utility.yul\":9649:9652   */\n      0x00\n        /* \"#utility.yul\":9670:9737   */\n      tag_402\n        /* \"#utility.yul\":9734:9736   */\n      0x10\n        /* \"#utility.yul\":9729:9732   */\n      dup4\n        /* \"#utility.yul\":9670:9737   */\n      tag_281\n      jump\t// in\n    tag_402:\n        /* \"#utility.yul\":9663:9737   */\n      swap2\n      pop\n        /* \"#utility.yul\":9746:9839   */\n      tag_403\n        /* \"#utility.yul\":9835:9838   */\n      dup3\n        /* \"#utility.yul\":9746:9839   */\n      tag_288\n      jump\t// in\n    tag_403:\n        /* \"#utility.yul\":9864:9866   */\n      0x20\n        /* \"#utility.yul\":9859:9862   */\n      dup3\n        /* \"#utility.yul\":9855:9867   */\n      add\n        /* \"#utility.yul\":9848:9867   */\n      swap1\n      pop\n        /* \"#utility.yul\":9507:9873   */\n      swap2\n      swap1\n      pop\n      jump\t// out\n        /* \"#utility.yul\":9879:10298   */\n    tag_125:\n        /* \"#utility.yul\":10045:10049   */\n      0x00\n        /* \"#utility.yul\":10083:10085   */\n      0x20\n        /* \"#utility.yul\":10072:10081   */\n      dup3\n        /* \"#utility.yul\":10068:10086   */\n      add\n        /* \"#utility.yul\":10060:10086   */\n      swap1\n      pop\n        /* \"#utility.yul\":10132:10141   */\n      dup2\n        /* \"#utility.yul\":10126:10130   */\n      dup2\n        /* \"#utility.yul\":10122:10142   */\n      sub\n        /* \"#utility.yul\":10118:10119   */\n      0x00\n        /* \"#utility.yul\":10107:10116   */\n      dup4\n        /* \"#utility.yul\":10103:10120   */\n      add\n        /* \"#utility.yul\":10096:10143   */\n      mstore\n        /* \"#utility.yul\":10160:10291   */\n      tag_405\n        /* \"#utility.yul\":10286:10290   */\n      dup2\n        /* \"#utility.yul\":10160:10291   */\n      tag_289\n      jump\t// in\n    tag_405:\n        /* \"#utility.yul\":10152:10291   */\n      swap1\n      pop\n        /* \"#utility.yul\":9879:10298   */\n      swap2\n      swap1\n      pop\n      jump\t// out\n        /* \"#utility.yul\":10304:10746   */\n    tag_127:\n        /* \"#utility.yul\":10453:10457   */\n      0x00\n        /* \"#utility.yul\":10491:10493   */\n      0x60\n        /* \"#utility.yul\":10480:10489   */\n      dup3\n        /* \"#utility.yul\":10476:10494   */\n      add\n        /* \"#utility.yul\":10468:10494   */\n      swap1\n      pop\n        /* \"#utility.yul\":10504:10575   */\n      tag_407\n        /* \"#utility.yul\":10572:10573   */\n      0x00\n        /* \"#utility.yul\":10561:10570   */\n      dup4\n        /* \"#utility.yul\":10557:10574   */\n      add\n        /* \"#utility.yul\":10548:10554   */\n      dup7\n        /* \"#utility.yul\":10504:10575   */\n      tag_273\n      jump\t// in\n    tag_407:\n        /* \"#utility.yul\":10585:10657   */\n      tag_408\n        /* \"#utility.yul\":10653:10655   */\n      0x20\n        /* \"#utility.yul\":10642:10651   */\n      dup4\n        /* \"#utility.yul\":10638:10656   */\n      add\n        /* \"#utility.yul\":10629:10635   */\n      dup6\n        /* \"#utility.yul\":10585:10657   */\n      tag_273\n      jump\t// in\n    tag_408:\n        /* \"#utility.yul\":10667:10739   */\n      tag_409\n        /* \"#utility.yul\":10735:10737   */\n      0x40\n        /* \"#utility.yul\":10724:10733   */\n      dup4\n        /* \"#utility.yul\":10720:10738   */\n      add\n        /* \"#utility.yul\":10711:10717   */\n      dup5\n        /* \"#utility.yul\":10667:10739   */\n      tag_274\n      jump\t// in\n    tag_409:\n        /* \"#utility.yul\":10304:10746   */\n      swap5\n      swap4\n      pop\n      pop\n      pop\n      pop\n      jump\t// out\n        /* \"#utility.yul\":10752:11084   */\n    tag_135:\n        /* \"#utility.yul\":10873:10877   */\n      0x00\n        /* \"#utility.yul\":10911:10913   */\n      0x40\n        /* \"#utility.yul\":10900:10909   */\n      dup3\n        /* \"#utility.yul\":10896:10914   */\n      add\n        /* \"#utility.yul\":10888:10914   */\n      swap1\n      pop\n        /* \"#utility.yul\":10924:10995   */\n      tag_411\n        /* \"#utility.yul\":10992:10993   */\n      0x00\n        /* \"#utility.yul\":10981:10990   */\n      dup4\n        /* \"#utility.yul\":10977:10994   */\n      add\n        /* \"#utility.yul\":10968:10974   */\n      dup6\n        /* \"#utility.yul\":10924:10995   */\n      tag_274\n      jump\t// in\n    tag_411:\n        /* \"#utility.yul\":11005:11077   */\n      tag_412\n        /* \"#utility.yul\":11073:11075   */\n      0x20\n        /* \"#utility.yul\":11062:11071   */\n      dup4\n        /* \"#utility.yul\":11058:11076   */\n      add\n        /* \"#utility.yul\":11049:11055   */\n      dup5\n        /* \"#utility.yul\":11005:11077   */\n      tag_274\n      jump\t// in\n    tag_412:\n        /* \"#utility.yul\":10752:11084   */\n      swap4\n      swap3\n      pop\n      pop\n      pop\n      jump\t// out\n        /* \"#utility.yul\":11090:11251   */\n    tag_290:\n        /* \"#utility.yul\":11230:11243   */\n      0x42696420746f6f206c6f77000000000000000000000000000000000000000000\n        /* \"#utility.yul\":11226:11227   */\n      0x00\n        /* \"#utility.yul\":11218:11224   */\n      dup3\n        /* \"#utility.yul\":11214:11228   */\n      add\n        /* \"#utility.yul\":11207:11244   */\n      mstore\n        /* \"#utility.yul\":11090:11251   */\n      pop\n      jump\t// out\n        /* \"#utility.yul\":11257:11623   */\n    tag_291:\n        /* \"#utility.yul\":11399:11402   */\n      0x00\n        /* \"#utility.yul\":11420:11487   */\n      tag_415\n        /* \"#utility.yul\":11484:11486   */\n      0x0b\n        /* \"#utility.yul\":11479:11482   */\n      dup4\n        /* \"#utility.yul\":11420:11487   */\n      tag_281\n      jump\t// in\n    tag_415:\n        /* \"#utility.yul\":11413:11487   */\n      swap2\n      pop\n        /* \"#utility.yul\":11496:11589   */\n      tag_416\n        /* \"#utility.yul\":11585:11588   */\n      dup3\n        /* \"#utility.yul\":11496:11589   */\n      tag_290\n      jump\t// in\n    tag_416:\n        /* \"#utility.yul\":11614:11616   */\n      0x20\n        /* \"#utility.yul\":11609:11612   */\n      dup3\n        /* \"#utility.yul\":11605:11617   */\n      add\n        /* \"#utility.yul\":11598:11617   */\n      swap1\n      pop\n        /* \"#utility.yul\":11257:11623   */\n      swap2\n      swap1\n      pop\n      jump\t// out\n        /* \"#utility.yul\":11629:12048   */\n    tag_175:\n        /* \"#utility.yul\":11795:11799   */\n      0x00\n        /* \"#utility.yul\":11833:11835   */\n      0x20\n        /* \"#utility.yul\":11822:11831   */\n      dup3\n        /* \"#utility.yul\":11818:11836   */\n      add\n        /* \"#utility.yul\":11810:11836   */\n      swap1\n      pop\n        /* \"#utility.yul\":11882:11891   */\n      dup2\n        /* \"#utility.yul\":11876:11880   */\n      dup2\n        /* \"#utility.yul\":11872:11892   */\n      sub\n        /* \"#utility.yul\":11868:11869   */\n      0x00\n        /* \"#utility.yul\":11857:11866   */\n      dup4\n        /* \"#utility.yul\":11853:11870   */\n      add\n        /* \"#utility.yul\":11846:11893   */\n      mstore\n        /* \"#utility.yul\":11910:12041   */\n      tag_418\n        /* \"#utility.yul\":12036:12040   */\n      dup2\n        /* \"#utility.yul\":11910:12041   */\n      tag_291\n      jump\t// in\n    tag_418:\n        /* \"#utility.yul\":11902:12041   */\n      swap1\n      pop\n        /* \"#utility.yul\":11629:12048   */\n      swap2\n      swap1\n      pop\n      jump\t// out\n        /* \"#utility.yul\":12054:12225   */\n    tag_292:\n        /* \"#utility.yul\":12194:12217   */\n      0x496e636f7272656374206c697374696e67206665650000000000000000000000\n        /* \"#utility.yul\":12190:12191   */\n      0x00\n        /* \"#utility.yul\":12182:12188   */\n      dup3\n        /* \"#utility.yul\":12178:12192   */\n      add\n        /* \"#utility.yul\":12171:12218   */\n      mstore\n        /* \"#utility.yul\":12054:12225   */\n      pop\n      jump\t// out\n        /* \"#utility.yul\":12231:12597   */\n    tag_293:\n        /* \"#utility.yul\":12373:12376   */\n      0x00\n        /* \"#utility.yul\":12394:12461   */\n      tag_421\n        /* \"#utility.yul\":12458:12460   */\n      0x15\n        /* \"#utility.yul\":12453:12456   */\n      dup4\n        /* \"#utility.yul\":12394:12461   */\n      tag_281\n      jump\t// in\n    tag_421:\n        /* \"#utility.yul\":12387:12461   */\n      swap2\n      pop\n        /* \"#utility.yul\":12470:12563   */\n      tag_422\n        /* \"#utility.yul\":12559:12562   */\n      dup3\n        /* \"#utility.yul\":12470:12563   */\n      tag_292\n      jump\t// in\n    tag_422:\n        /* \"#utility.yul\":12588:12590   */\n      0x20\n        /* \"#utility.yul\":12583:12586   */\n      dup3\n        /* \"#utility.yul\":12579:12591   */\n      add\n        /* \"#utility.yul\":12572:12591   */\n      swap1\n      pop\n        /* \"#utility.yul\":12231:12597   */\n      swap2\n      swap1\n      pop\n      jump\t// out\n        /* \"#utility.yul\":12603:13022   */\n    tag_186:\n        /* \"#utility.yul\":12769:12773   */\n      0x00\n        /* \"#utility.yul\":12807:12809   */\n      0x20\n        /* \"#utility.yul\":12796:12805   */\n      dup3\n        /* \"#utility.yul\":12792:12810   */\n      add\n        /* \"#utility.yul\":12784:12810   */\n      swap1\n      pop\n        /* \"#utility.yul\":12856:12865   */\n      dup2\n        /* \"#utility.yul\":12850:12854   */\n      dup2\n        /* \"#utility.yul\":12846:12866   */\n      sub\n        /* \"#utility.yul\":12842:12843   */\n      0x00\n        /* \"#utility.yul\":12831:12840   */\n      dup4\n        /* \"#utility.yul\":12827:12844   */\n      add\n        /* \"#utility.yul\":12820:12867   */\n      mstore\n        /* \"#utility.yul\":12884:13015   */\n      tag_424\n        /* \"#utility.yul\":13010:13014   */\n      dup2\n        /* \"#utility.yul\":12884:13015   */\n      tag_293\n      jump\t// in\n    tag_424:\n        /* \"#utility.yul\":12876:13015   */\n      swap1\n      pop\n        /* \"#utility.yul\":12603:13022   */\n      swap2\n      swap1\n      pop\n      jump\t// out\n        /* \"#utility.yul\":13028:13171   */\n    tag_294:\n        /* \"#utility.yul\":13085:13090   */\n      0x00\n        /* \"#utility.yul\":13116:13122   */\n      dup2\n        /* \"#utility.yul\":13110:13123   */\n      mload\n        /* \"#utility.yul\":13101:13123   */\n      swap1\n      pop\n        /* \"#utility.yul\":13132:13165   */\n      tag_426\n        /* \"#utility.yul\":13159:13164   */\n      dup2\n        /* \"#utility.yul\":13132:13165   */\n      tag_279\n      jump\t// in\n    tag_426:\n        /* \"#utility.yul\":13028:13171   */\n      swap3\n      swap2\n      pop\n      pop\n      jump\t// out\n        /* \"#utility.yul\":13177:13528   */\n    tag_191:\n        /* \"#utility.yul\":13247:13253   */\n      0x00\n        /* \"#utility.yul\":13296:13298   */\n      0x20\n        /* \"#utility.yul\":13284:13293   */\n      dup3\n        /* \"#utility.yul\":13275:13282   */\n      dup5\n        /* \"#utility.yul\":13271:13294   */\n      sub\n        /* \"#utility.yul\":13267:13299   */\n      slt\n        /* \"#utility.yul\":13264:13383   */\n      iszero\n      tag_428\n      jumpi\n        /* \"#utility.yul\":13302:13381   */\n      tag_429\n      tag_261\n      jump\t// in\n    tag_429:\n        /* \"#utility.yul\":13264:13383   */\n    tag_428:\n        /* \"#utility.yul\":13422:13423   */\n      0x00\n        /* \"#utility.yul\":13447:13511   */\n      tag_430\n        /* \"#utility.yul\":13503:13510   */\n      dup5\n        /* \"#utility.yul\":13494:13500   */\n      dup3\n        /* \"#utility.yul\":13483:13492   */\n      dup6\n        /* \"#utility.yul\":13479:13501   */\n      add\n        /* \"#utility.yul\":13447:13511   */\n      tag_294\n      jump\t// in\n    tag_430:\n        /* \"#utility.yul\":13437:13511   */\n      swap2\n      pop\n        /* \"#utility.yul\":13393:13521   */\n      pop\n        /* \"#utility.yul\":13177:13528   */\n      swap3\n      swap2\n      pop\n      pop\n      jump\t// out\n        /* \"#utility.yul\":13534:13707   */\n    tag_295:\n        /* \"#utility.yul\":13674:13699   */\n      0x43616c6c6572206973206e6f7420746865206f776e6572000000000000000000\n        /* \"#utility.yul\":13670:13671   */\n      0x00\n        /* \"#utility.yul\":13662:13668   */\n      dup3\n        /* \"#utility.yul\":13658:13672   */\n      add\n        /* \"#utility.yul\":13651:13700   */\n      mstore\n        /* \"#utility.yul\":13534:13707   */\n      pop\n      jump\t// out\n        /* \"#utility.yul\":13713:14079   */\n    tag_296:\n        /* \"#utility.yul\":13855:13858   */\n      0x00\n        /* \"#utility.yul\":13876:13943   */\n      tag_433\n        /* \"#utility.yul\":13940:13942   */\n      0x17\n        /* \"#utility.yul\":13935:13938   */\n      dup4\n        /* \"#utility.yul\":13876:13943   */\n      tag_281\n      jump\t// in\n    tag_433:\n        /* \"#utility.yul\":13869:13943   */\n      swap2\n      pop\n        /* \"#utility.yul\":13952:14045   */\n      tag_434\n        /* \"#utility.yul\":14041:14044   */\n      dup3\n        /* \"#utility.yul\":13952:14045   */\n      tag_295\n      jump\t// in\n    tag_434:\n        /* \"#utility.yul\":14070:14072   */\n      0x20\n        /* \"#utility.yul\":14065:14068   */\n      dup3\n        /* \"#utility.yul\":14061:14073   */\n      add\n        /* \"#utility.yul\":14054:14073   */\n      swap1\n      pop\n        /* \"#utility.yul\":13713:14079   */\n      swap2\n      swap1\n      pop\n      jump\t// out\n        /* \"#utility.yul\":14085:14504   */\n    tag_194:\n        /* \"#utility.yul\":14251:14255   */\n      0x00\n        /* \"#utility.yul\":14289:14291   */\n      0x20\n        /* \"#utility.yul\":14278:14287   */\n      dup3\n        /* \"#utility.yul\":14274:14292   */\n      add\n        /* \"#utility.yul\":14266:14292   */\n      swap1\n      pop\n        /* \"#utility.yul\":14338:14347   */\n      dup2\n        /* \"#utility.yul\":14332:14336   */\n      dup2\n        /* \"#utility.yul\":14328:14348   */\n      sub\n        /* \"#utility.yul\":14324:14325   */\n      0x00\n        /* \"#utility.yul\":14313:14322   */\n      dup4\n        /* \"#utility.yul\":14309:14326   */\n      add\n        /* \"#utility.yul\":14302:14349   */\n      mstore\n        /* \"#utility.yul\":14366:14497   */\n      tag_436\n        /* \"#utility.yul\":14492:14496   */\n      dup2\n        /* \"#utility.yul\":14366:14497   */\n      tag_296\n      jump\t// in\n    tag_436:\n        /* \"#utility.yul\":14358:14497   */\n      swap1\n      pop\n        /* \"#utility.yul\":14085:14504   */\n      swap2\n      swap1\n      pop\n      jump\t// out\n        /* \"#utility.yul\":14510:14691   */\n    tag_297:\n        /* \"#utility.yul\":14650:14683   */\n      0x5072696365206d7573742062652067726561746572207468616e207a65726f00\n        /* \"#utility.yul\":14646:14647   */\n      0x00\n        /* \"#utility.yul\":14638:14644   */\n      dup3\n        /* \"#utility.yul\":14634:14648   */\n      add\n        /* \"#utility.yul\":14627:14684   */\n      mstore\n        /* \"#utility.yul\":14510:14691   */\n      pop\n      jump\t// out\n        /* \"#utility.yul\":14697:15063   */\n    tag_298:\n        /* \"#utility.yul\":14839:14842   */\n      0x00\n        /* \"#utility.yul\":14860:14927   */\n      tag_439\n        /* \"#utility.yul\":14924:14926   */\n      0x1f\n        /* \"#utility.yul\":14919:14922   */\n      dup4\n        /* \"#utility.yul\":14860:14927   */\n      tag_281\n      jump\t// in\n    tag_439:\n        /* \"#utility.yul\":14853:14927   */\n      swap2\n      pop\n        /* \"#utility.yul\":14936:15029   */\n      tag_440\n        /* \"#utility.yul\":15025:15028   */\n      dup3\n        /* \"#utility.yul\":14936:15029   */\n      tag_297\n      jump\t// in\n    tag_440:\n        /* \"#utility.yul\":15054:15056   */\n      0x20\n        /* \"#utility.yul\":15049:15052   */\n      dup3\n        /* \"#utility.yul\":15045:15057   */\n      add\n        /* \"#utility.yul\":15038:15057   */\n      swap1\n      pop\n        /* \"#utility.yul\":14697:15063   */\n      swap2\n      swap1\n      pop\n      jump\t// out\n        /* \"#utility.yul\":15069:15488   */\n    tag_197:\n        /* \"#utility.yul\":15235:15239   */\n      0x00\n        /* \"#utility.yul\":15273:15275   */\n      0x20\n        /* \"#utility.yul\":15262:15271   */\n      dup3\n        /* \"#utility.yul\":15258:15276   */\n      add\n        /* \"#utility.yul\":15250:15276   */\n      swap1\n      pop\n        /* \"#utility.yul\":15322:15331   */\n      dup2\n        /* \"#utility.yul\":15316:15320   */\n      dup2\n        /* \"#utility.yul\":15312:15332   */\n      sub\n        /* \"#utility.yul\":15308:15309   */\n      0x00\n        /* \"#utility.yul\":15297:15306   */\n      dup4\n        /* \"#utility.yul\":15293:15310   */\n      add\n        /* \"#utility.yul\":15286:15333   */\n      mstore\n        /* \"#utility.yul\":15350:15481   */\n      tag_442\n        /* \"#utility.yul\":15476:15480   */\n      dup2\n        /* \"#utility.yul\":15350:15481   */\n      tag_298\n      jump\t// in\n    tag_442:\n        /* \"#utility.yul\":15342:15481   */\n      swap1\n      pop\n        /* \"#utility.yul\":15069:15488   */\n      swap2\n      swap1\n      pop\n      jump\t// out\n        /* \"#utility.yul\":15494:15675   */\n    tag_299:\n        /* \"#utility.yul\":15634:15667   */\n      0x5265656e7472616e637947756172643a207265656e7472616e742063616c6c00\n        /* \"#utility.yul\":15630:15631   */\n      0x00\n        /* \"#utility.yul\":15622:15628   */\n      dup3\n        /* \"#utility.yul\":15618:15632   */\n      add\n        /* \"#utility.yul\":15611:15668   */\n      mstore\n        /* \"#utility.yul\":15494:15675   */\n      pop\n      jump\t// out\n        /* \"#utility.yul\":15681:16047   */\n    tag_300:\n        /* \"#utility.yul\":15823:15826   */\n      0x00\n        /* \"#utility.yul\":15844:15911   */\n      tag_445\n        /* \"#utility.yul\":15908:15910   */\n      0x1f\n        /* \"#utility.yul\":15903:15906   */\n      dup4\n        /* \"#utility.yul\":15844:15911   */\n      tag_281\n      jump\t// in\n    tag_445:\n        /* \"#utility.yul\":15837:15911   */\n      swap2\n      pop\n        /* \"#utility.yul\":15920:16013   */\n      tag_446\n        /* \"#utility.yul\":16009:16012   */\n      dup3\n        /* \"#utility.yul\":15920:16013   */\n      tag_299\n      jump\t// in\n    tag_446:\n        /* \"#utility.yul\":16038:16040   */\n      0x20\n        /* \"#utility.yul\":16033:16036   */\n      dup3\n        /* \"#utility.yul\":16029:16041   */\n      add\n        /* \"#utility.yul\":16022:16041   */\n      swap1\n      pop\n        /* \"#utility.yul\":15681:16047   */\n      swap2\n      swap1\n      pop\n      jump\t// out\n        /* \"#utility.yul\":16053:16472   */\n    tag_217:\n        /* \"#utility.yul\":16219:16223   */\n      0x00\n        /* \"#utility.yul\":16257:16259   */\n      0x20\n        /* \"#utility.yul\":16246:16255   */\n      dup3\n        /* \"#utility.yul\":16242:16260   */\n      add\n        /* \"#utility.yul\":16234:16260   */\n      swap1\n      pop\n        /* \"#utility.yul\":16306:16315   */\n      dup2\n        /* \"#utility.yul\":16300:16304   */\n      dup2\n        /* \"#utility.yul\":16296:16316   */\n      sub\n        /* \"#utility.yul\":16292:16293   */\n      0x00\n        /* \"#utility.yul\":16281:16290   */\n      dup4\n        /* \"#utility.yul\":16277:16294   */\n      add\n        /* \"#utility.yul\":16270:16317   */\n      mstore\n        /* \"#utility.yul\":16334:16465   */\n      tag_448\n        /* \"#utility.yul\":16460:16464   */\n      dup2\n        /* \"#utility.yul\":16334:16465   */\n      tag_300\n      jump\t// in\n    tag_448:\n        /* \"#utility.yul\":16326:16465   */\n      swap1\n      pop\n        /* \"#utility.yul\":16053:16472   */\n      swap2\n      swap1\n      pop\n      jump\t// out\n        /* \"#utility.yul\":16478:16651   */\n    tag_301:\n        /* \"#utility.yul\":16618:16643   */\n      0x43616e6e6f742073656c6c20746f20796f757273656c66000000000000000000\n        /* \"#utility.yul\":16614:16615   */\n      0x00\n        /* \"#utility.yul\":16606:16612   */\n      dup3\n        /* \"#utility.yul\":16602:16616   */\n      add\n        /* \"#utility.yul\":16595:16644   */\n      mstore\n        /* \"#utility.yul\":16478:16651   */\n      pop\n      jump\t// out\n        /* \"#utility.yul\":16657:17023   */\n    tag_302:\n        /* \"#utility.yul\":16799:16802   */\n      0x00\n        /* \"#utility.yul\":16820:16887   */\n      tag_451\n        /* \"#utility.yul\":16884:16886   */\n      0x17\n        /* \"#utility.yul\":16879:16882   */\n      dup4\n        /* \"#utility.yul\":16820:16887   */\n      tag_281\n      jump\t// in\n    tag_451:\n        /* \"#utility.yul\":16813:16887   */\n      swap2\n      pop\n        /* \"#utility.yul\":16896:16989   */\n      tag_452\n        /* \"#utility.yul\":16985:16988   */\n      dup3\n        /* \"#utility.yul\":16896:16989   */\n      tag_301\n      jump\t// in\n    tag_452:\n        /* \"#utility.yul\":17014:17016   */\n      0x20\n        /* \"#utility.yul\":17009:17012   */\n      dup3\n        /* \"#utility.yul\":17005:17017   */\n      add\n        /* \"#utility.yul\":16998:17017   */\n      swap1\n      pop\n        /* \"#utility.yul\":16657:17023   */\n      swap2\n      swap1\n      pop\n      jump\t// out\n        /* \"#utility.yul\":17029:17448   */\n    tag_241:\n        /* \"#utility.yul\":17195:17199   */\n      0x00\n        /* \"#utility.yul\":17233:17235   */\n      0x20\n        /* \"#utility.yul\":17222:17231   */\n      dup3\n        /* \"#utility.yul\":17218:17236   */\n      add\n        /* \"#utility.yul\":17210:17236   */\n      swap1\n      pop\n        /* \"#utility.yul\":17282:17291   */\n      dup2\n        /* \"#utility.yul\":17276:17280   */\n      dup2\n        /* \"#utility.yul\":17272:17292   */\n      sub\n        /* \"#utility.yul\":17268:17269   */\n      0x00\n        /* \"#utility.yul\":17257:17266   */\n      dup4\n        /* \"#utility.yul\":17253:17270   */\n      add\n        /* \"#utility.yul\":17246:17293   */\n      mstore\n        /* \"#utility.yul\":17310:17441   */\n      tag_454\n        /* \"#utility.yul\":17436:17440   */\n      dup2\n        /* \"#utility.yul\":17310:17441   */\n      tag_302\n      jump\t// in\n    tag_454:\n        /* \"#utility.yul\":17302:17441   */\n      swap1\n      pop\n        /* \"#utility.yul\":17029:17448   */\n      swap2\n      swap1\n      pop\n      jump\t// out\n        /* \"#utility.yul\":17454:17620   */\n    tag_303:\n        /* \"#utility.yul\":17594:17612   */\n      0x496e636f727265637420616d6f756e7400000000000000000000000000000000\n        /* \"#utility.yul\":17590:17591   */\n      0x00\n        /* \"#utility.yul\":17582:17588   */\n      dup3\n        /* \"#utility.yul\":17578:17592   */\n      add\n        /* \"#utility.yul\":17571:17613   */\n      mstore\n        /* \"#utility.yul\":17454:17620   */\n      pop\n      jump\t// out\n        /* \"#utility.yul\":17626:17992   */\n    tag_304:\n        /* \"#utility.yul\":17768:17771   */\n      0x00\n        /* \"#utility.yul\":17789:17856   */\n      tag_457\n        /* \"#utility.yul\":17853:17855   */\n      0x10\n        /* \"#utility.yul\":17848:17851   */\n      dup4\n        /* \"#utility.yul\":17789:17856   */\n      tag_281\n      jump\t// in\n    tag_457:\n        /* \"#utility.yul\":17782:17856   */\n      swap2\n      pop\n        /* \"#utility.yul\":17865:17958   */\n      tag_458\n        /* \"#utility.yul\":17954:17957   */\n      dup3\n        /* \"#utility.yul\":17865:17958   */\n      tag_303\n      jump\t// in\n    tag_458:\n        /* \"#utility.yul\":17983:17985   */\n      0x20\n        /* \"#utility.yul\":17978:17981   */\n      dup3\n        /* \"#utility.yul\":17974:17986   */\n      add\n        /* \"#utility.yul\":17967:17986   */\n      swap1\n      pop\n        /* \"#utility.yul\":17626:17992   */\n      swap2\n      swap1\n      pop\n      jump\t// out\n        /* \"#utility.yul\":17998:18417   */\n    tag_244:\n        /* \"#utility.yul\":18164:18168   */\n      0x00\n        /* \"#utility.yul\":18202:18204   */\n      0x20\n        /* \"#utility.yul\":18191:18200   */\n      dup3\n        /* \"#utility.yul\":18187:18205   */\n      add\n        /* \"#utility.yul\":18179:18205   */\n      swap1\n      pop\n        /* \"#utility.yul\":18251:18260   */\n      dup2\n        /* \"#utility.yul\":18245:18249   */\n      dup2\n        /* \"#utility.yul\":18241:18261   */\n      sub\n        /* \"#utility.yul\":18237:18238   */\n      0x00\n        /* \"#utility.yul\":18226:18235   */\n      dup4\n        /* \"#utility.yul\":18222:18239   */\n      add\n        /* \"#utility.yul\":18215:18262   */\n      mstore\n        /* \"#utility.yul\":18279:18410   */\n      tag_460\n        /* \"#utility.yul\":18405:18409   */\n      dup2\n        /* \"#utility.yul\":18279:18410   */\n      tag_304\n      jump\t// in\n    tag_460:\n        /* \"#utility.yul\":18271:18410   */\n      swap1\n      pop\n        /* \"#utility.yul\":17998:18417   */\n      swap2\n      swap1\n      pop\n      jump\t// out\n        /* \"#utility.yul\":18423:18755   */\n    tag_259:\n        /* \"#utility.yul\":18544:18548   */\n      0x00\n        /* \"#utility.yul\":18582:18584   */\n      0x40\n        /* \"#utility.yul\":18571:18580   */\n      dup3\n        /* \"#utility.yul\":18567:18585   */\n      add\n        /* \"#utility.yul\":18559:18585   */\n      swap1\n      pop\n        /* \"#utility.yul\":18595:18666   */\n      tag_462\n        /* \"#utility.yul\":18663:18664   */\n      0x00\n        /* \"#utility.yul\":18652:18661   */\n      dup4\n        /* \"#utility.yul\":18648:18665   */\n      add\n        /* \"#utility.yul\":18639:18645   */\n      dup6\n        /* \"#utility.yul\":18595:18666   */\n      tag_273\n      jump\t// in\n    tag_462:\n        /* \"#utility.yul\":18676:18748   */\n      tag_463\n        /* \"#utility.yul\":18744:18746   */\n      0x20\n        /* \"#utility.yul\":18733:18742   */\n      dup4\n        /* \"#utility.yul\":18729:18747   */\n      add\n        /* \"#utility.yul\":18720:18726   */\n      dup5\n        /* \"#utility.yul\":18676:18748   */\n      tag_278\n      jump\t// in\n    tag_463:\n        /* \"#utility.yul\":18423:18755   */\n      swap4\n      swap3\n      pop\n      pop\n      pop\n      jump\t// out\n\n    auxdata: 0xa2646970667358221220748cc3291b0b633ad9274083a6a760be12d2b86502eee3b8a23d9c9dd19a1ca864736f6c63430008190033\n}\n",
				"bytecode": {
					"linkReferences": {},
					"object": "6080604052662386f26fc1000060045534801561001a575f80fd5b5060015f819055506100345f801b3361006b60201b60201c565b506100657fa49807205ce4d355092ef5a8a18f56e8913cf4a201fbe287825b095693c217753361006b60201b60201c565b506101cb565b5f61007c838361016060201b60201c565b610156576001805f8581526020019081526020015f205f015f8473ffffffffffffffffffffffffffffffffffffffff1673ffffffffffffffffffffffffffffffffffffffff1681526020019081526020015f205f6101000a81548160ff0219169083151502179055506100f36101c460201b60201c565b73ffffffffffffffffffffffffffffffffffffffff168273ffffffffffffffffffffffffffffffffffffffff16847f2f8788117e7eff1d82e926ec794901d17c78024a50270940304540a733656f0d60405160405180910390a46001905061015a565b5f90505b92915050565b5f60015f8481526020019081526020015f205f015f8373ffffffffffffffffffffffffffffffffffffffff1673ffffffffffffffffffffffffffffffffffffffff1681526020019081526020015f205f9054906101000a900460ff16905092915050565b5f33905090565b612406806101d85f395ff3fe6080604052600436106100fd575f3560e01c806351ed8288116100945780639979ef45116100635780639979ef451461032a578063a217fddf14610346578063ad05f1b414610370578063d547741f1461038c578063de74e57b146103b4576100fd565b806351ed82881461027e5780636a1b7ecc1461029a57806375b238fc146102c457806391d14854146102ee576100fd565b80632b1fd58a116100d05780632b1fd58a146101de5780632f2ff15d14610206578063305a67a81461022e57806336568abe14610256576100fd565b806301ffc9a714610101578063111cb2581461013d578063131dbd091461017a578063248a9ca3146101a2575b5f80fd5b34801561010c575f80fd5b5061012760048036038101906101229190611bbb565b6103f3565b6040516101349190611c00565b60405180910390f35b348015610148575f80fd5b50610163600480360381019061015e9190611c4c565b61046c565b604051610171929190611cc5565b60405180910390f35b348015610185575f80fd5b506101a0600480360381019061019b9190611c4c565b6104ab565b005b3480156101ad575f80fd5b506101c860048036038101906101c39190611d1f565b61051e565b6040516101d59190611d59565b60405180910390f35b3480156101e9575f80fd5b5061020460048036038101906101ff9190611c4c565b61053b565b005b348015610211575f80fd5b5061022c60048036038101906102279190611d9c565b6109f4565b005b348015610239575f80fd5b50610254600480360381019061024f9190611c4c565b610a16565b005b348015610261575f80fd5b5061027c60048036038101906102779190611d9c565b610c86565b005b61029860048036038101906102939190611c4c565b610d01565b005b3480156102a5575f80fd5b506102ae610d1f565b6040516102bb9190611dda565b60405180910390f35b3480156102cf575f80fd5b506102d8610d25565b6040516102e59190611d59565b60405180910390f35b3480156102f9575f80fd5b50610314600480360381019061030f9190611d9c565b610d49565b6040516103219190611c00565b60405180910390f35b610344600480360381019061033f9190611c4c565b610dad565b005b348015610351575f80fd5b5061035a6110bc565b6040516103679190611d59565b60405180910390f35b61038a60048036038101906103859190611df3565b6110c2565b005b348015610397575f80fd5b506103b260048036038101906103ad9190611d9c565b61142b565b005b3480156103bf575f80fd5b506103da60048036038101906103d59190611c4c565b61144d565b6040516103ea9493929190611e43565b60405180910390f35b5f7f7965db0b000000000000000000000000000000000000000000000000000000007bffffffffffffffffffffffffffffffffffffffffffffffffffffffff1916827bffffffffffffffffffffffffffffffffffffffffffffffffffffffff191614806104655750610464826114b7565b5b9050919050565b6005602052805f5260405f205f91509050805f015f9054906101000a900473ffffffffffffffffffffffffffffffffffffffff16908060010154905082565b6104d57fa49807205ce4d355092ef5a8a18f56e8913cf4a201fbe287825b095693c2177533610d49565b610514576040517f08c379a000000000000000000000000000000000000000000000000000000000815260040161050b90611ee0565b60405180910390fd5b8060048190555050565b5f60015f8381526020019081526020015f20600101549050919050565b610543611520565b5f60035f8381526020019081526020015f206040518060800160405290815f82015f9054906101000a900473ffffffffffffffffffffffffffffffffffffffff1673ffffffffffffffffffffffffffffffffffffffff1673ffffffffffffffffffffffffffffffffffffffff168152602001600182015f9054906101000a900473ffffffffffffffffffffffffffffffffffffffff1673ffffffffffffffffffffffffffffffffffffffff1673ffffffffffffffffffffffffffffffffffffffff1681526020016002820154815260200160038201548152505090505f60055f8481526020019081526020015f206040518060400160405290815f82015f9054906101000a900473ffffffffffffffffffffffffffffffffffffffff1673ffffffffffffffffffffffffffffffffffffffff1673ffffffffffffffffffffffffffffffffffffffff16815260200160018201548152505090503373ffffffffffffffffffffffffffffffffffffffff16825f015173ffffffffffffffffffffffffffffffffffffffff161461070d576040517f08c379a000000000000000000000000000000000000000000000000000000000815260040161070490611f48565b60405180910390fd5b5f826060015111610753576040517f08c379a000000000000000000000000000000000000000000000000000000000815260040161074a90611fb0565b60405180910390fd5b5f816020015111610799576040517f08c379a000000000000000000000000000000000000000000000000000000000815260040161079090612018565b60405180910390fd5b60035f8481526020019081526020015f205f8082015f6101000a81549073ffffffffffffffffffffffffffffffffffffffff0219169055600182015f6101000a81549073ffffffffffffffffffffffffffffffffffffffff0219169055600282015f9055600382015f9055505060055f8481526020019081526020015f205f8082015f6101000a81549073ffffffffffffffffffffffffffffffffffffffff0219169055600182015f90555050816020015173ffffffffffffffffffffffffffffffffffffffff166323b872dd30835f015185604001516040518463ffffffff1660e01b815260040161088e93929190612036565b5f604051808303815f87803b1580156108a5575f80fd5b505af11580156108b7573d5f803e3d5ffd5b50505050815f015173ffffffffffffffffffffffffffffffffffffffff166108fc826020015190811502906040515f60405180830381858888f19350505050158015610905573d5f803e3d5ffd5b50805f015173ffffffffffffffffffffffffffffffffffffffff163373ffffffffffffffffffffffffffffffffffffffff16847fe6d56779a392535d3a591e92b65ba36f2ecc424bbf5220d0176a7da29385b504846020015160405161096b9190611dda565b60405180910390a4816020015173ffffffffffffffffffffffffffffffffffffffff163373ffffffffffffffffffffffffffffffffffffffff16847ff3debaf22196a6ddf52a60fa71058cd7edf5e25bb98f4e96c994a5d4a9b0dd3e856040015186606001516040516109df92919061206b565b60405180910390a450506109f161156d565b50565b6109fd8261051e565b610a0681611576565b610a10838361158a565b50505050565b610a1e611520565b5f60035f8381526020019081526020015f206040518060800160405290815f82015f9054906101000a900473ffffffffffffffffffffffffffffffffffffffff1673ffffffffffffffffffffffffffffffffffffffff1673ffffffffffffffffffffffffffffffffffffffff168152602001600182015f9054906101000a900473ffffffffffffffffffffffffffffffffffffffff1673ffffffffffffffffffffffffffffffffffffffff1673ffffffffffffffffffffffffffffffffffffffff1681526020016002820154815260200160038201548152505090503373ffffffffffffffffffffffffffffffffffffffff16815f015173ffffffffffffffffffffffffffffffffffffffff1614610b6b576040517f08c379a0000000000000000000000000000000000000000000000000000000008152600401610b6290611f48565b60405180910390fd5b60035f8381526020019081526020015f205f8082015f6101000a81549073ffffffffffffffffffffffffffffffffffffffff0219169055600182015f6101000a81549073ffffffffffffffffffffffffffffffffffffffff0219169055600282015f9055600382015f90555050806020015173ffffffffffffffffffffffffffffffffffffffff166323b872dd30835f015184604001516040518463ffffffff1660e01b8152600401610c2093929190612036565b5f604051808303815f87803b158015610c37575f80fd5b505af1158015610c49573d5f803e3d5ffd5b50505050817f411aee90354c51b1b04cd563fcab2617142a9d50da19232d888547c8a1b7fd8a60405160405180910390a250610c8361156d565b50565b610c8e611673565b73ffffffffffffffffffffffffffffffffffffffff168173ffffffffffffffffffffffffffffffffffffffff1614610cf2576040517f6697b23200000000000000000000000000000000000000000000000000000000815260040160405180910390fd5b610cfc828261167a565b505050565b610d09611520565b610d14813334611764565b610d1c61156d565b50565b60045481565b7fa49807205ce4d355092ef5a8a18f56e8913cf4a201fbe287825b095693c2177581565b5f60015f8481526020019081526020015f205f015f8373ffffffffffffffffffffffffffffffffffffffff1673ffffffffffffffffffffffffffffffffffffffff1681526020019081526020015f205f9054906101000a900460ff16905092915050565b610db5611520565b5f60035f8381526020019081526020015f206040518060800160405290815f82015f9054906101000a900473ffffffffffffffffffffffffffffffffffffffff1673ffffffffffffffffffffffffffffffffffffffff1673ffffffffffffffffffffffffffffffffffffffff168152602001600182015f9054906101000a900473ffffffffffffffffffffffffffffffffffffffff1673ffffffffffffffffffffffffffffffffffffffff1673ffffffffffffffffffffffffffffffffffffffff1681526020016002820154815260200160038201548152505090505f816060015111610ed7576040517f08c379a0000000000000000000000000000000000000000000000000000000008152600401610ece90611fb0565b60405180910390fd5b60055f8381526020019081526020015f20600101543411610f2d576040517f08c379a0000000000000000000000000000000000000000000000000000000008152600401610f24906120dc565b60405180910390fd5b5f60055f8481526020019081526020015f20600101541115610fd45760055f8381526020019081526020015f205f015f9054906101000a900473ffffffffffffffffffffffffffffffffffffffff1673ffffffffffffffffffffffffffffffffffffffff166108fc60055f8581526020019081526020015f206001015490811502906040515f60405180830381858888f19350505050158015610fd2573d5f803e3d5ffd5b505b60405180604001604052803373ffffffffffffffffffffffffffffffffffffffff1681526020013481525060055f8481526020019081526020015f205f820151815f015f6101000a81548173ffffffffffffffffffffffffffffffffffffffff021916908373ffffffffffffffffffffffffffffffffffffffff160217905550602082015181600101559050503373ffffffffffffffffffffffffffffffffffffffff16827f0e54eff26401bf69b81b26f60bd85ef47f5d85275c1d268d84f68d6897431c47346040516110a89190611dda565b60405180910390a3506110b961156d565b50565b5f801b81565b6110ca611520565b600454341461110e576040517f08c379a000000000000000000000000000000000000000000000000000000000815260040161110590612144565b60405180910390fd5b3373ffffffffffffffffffffffffffffffffffffffff168373ffffffffffffffffffffffffffffffffffffffff16636352211e846040518263ffffffff1660e01b815260040161115e9190611dda565b602060405180830381865afa158015611179573d5f803e3d5ffd5b505050506040513d601f19601f8201168201806040525081019061119d9190612176565b73ffffffffffffffffffffffffffffffffffffffff16146111f3576040517f08c379a00000000000000000000000000000000000000000000000000000000081526004016111ea906121eb565b60405180910390fd5b5f8111611235576040517f08c379a000000000000000000000000000000000000000000000000000000000815260040161122c90612253565b60405180910390fd5b8273ffffffffffffffffffffffffffffffffffffffff166323b872dd3330856040518463ffffffff1660e01b815260040161127293929190612036565b5f604051808303815f87803b158015611289575f80fd5b505af115801561129b573d5f803e3d5ffd5b505050506112a96002611af1565b5f6112b46002611b05565b905060405180608001604052803373ffffffffffffffffffffffffffffffffffffffff1681526020018573ffffffffffffffffffffffffffffffffffffffff1681526020018481526020018381525060035f8381526020019081526020015f205f820151815f015f6101000a81548173ffffffffffffffffffffffffffffffffffffffff021916908373ffffffffffffffffffffffffffffffffffffffff1602179055506020820151816001015f6101000a81548173ffffffffffffffffffffffffffffffffffffffff021916908373ffffffffffffffffffffffffffffffffffffffff16021790555060408201518160020155606082015181600301559050508373ffffffffffffffffffffffffffffffffffffffff163373ffffffffffffffffffffffffffffffffffffffff16827f723f73331eaee88eec7fc68ef60ab6ed15e4b90d0472b55eb92fa43910bab6dd868660405161141592919061206b565b60405180910390a45061142661156d565b505050565b6114348261051e565b61143d81611576565b611447838361167a565b50505050565b6003602052805f5260405f205f91509050805f015f9054906101000a900473ffffffffffffffffffffffffffffffffffffffff1690806001015f9054906101000a900473ffffffffffffffffffffffffffffffffffffffff16908060020154908060030154905084565b5f7f01ffc9a7000000000000000000000000000000000000000000000000000000007bffffffffffffffffffffffffffffffffffffffffffffffffffffffff1916827bffffffffffffffffffffffffffffffffffffffffffffffffffffffff1916149050919050565b60025f5403611564576040517f08c379a000000000000000000000000000000000000000000000000000000000815260040161155b906122bb565b60405180910390fd5b60025f81905550565b60015f81905550565b61158781611582611673565b611b11565b50565b5f6115958383610d49565b611669576001805f8581526020019081526020015f205f015f8473ffffffffffffffffffffffffffffffffffffffff1673ffffffffffffffffffffffffffffffffffffffff1681526020019081526020015f205f6101000a81548160ff021916908315150217905550611606611673565b73ffffffffffffffffffffffffffffffffffffffff168273ffffffffffffffffffffffffffffffffffffffff16847f2f8788117e7eff1d82e926ec794901d17c78024a50270940304540a733656f0d60405160405180910390a46001905061166d565b5f90505b92915050565b5f33905090565b5f6116858383610d49565b1561175a575f60015f8581526020019081526020015f205f015f8473ffffffffffffffffffffffffffffffffffffffff1673ffffffffffffffffffffffffffffffffffffffff1681526020019081526020015f205f6101000a81548160ff0219169083151502179055506116f7611673565b73ffffffffffffffffffffffffffffffffffffffff168273ffffffffffffffffffffffffffffffffffffffff16847ff6391f5c32d9c69d2a47ea670b442974b53935d1edc7fd64eb21e047a839171b60405160405180910390a46001905061175e565b5f90505b92915050565b61176c611520565b5f60035f8581526020019081526020015f206040518060800160405290815f82015f9054906101000a900473ffffffffffffffffffffffffffffffffffffffff1673ffffffffffffffffffffffffffffffffffffffff1673ffffffffffffffffffffffffffffffffffffffff168152602001600182015f9054906101000a900473ffffffffffffffffffffffffffffffffffffffff1673ffffffffffffffffffffffffffffffffffffffff1673ffffffffffffffffffffffffffffffffffffffff1681526020016002820154815260200160038201548152505090505f81606001511161188e576040517f08c379a000000000000000000000000000000000000000000000000000000000815260040161188590611fb0565b60405180910390fd5b805f015173ffffffffffffffffffffffffffffffffffffffff168373ffffffffffffffffffffffffffffffffffffffff16146118ff576040517f08c379a00000000000000000000000000000000000000000000000000000000081526004016118f690612323565b60405180910390fd5b80606001518214611945576040517f08c379a000000000000000000000000000000000000000000000000000000000815260040161193c9061238b565b60405180910390fd5b60035f8581526020019081526020015f205f8082015f6101000a81549073ffffffffffffffffffffffffffffffffffffffff0219169055600182015f6101000a81549073ffffffffffffffffffffffffffffffffffffffff0219169055600282015f9055600382015f90555050806020015173ffffffffffffffffffffffffffffffffffffffff166323b872dd308584604001516040518463ffffffff1660e01b81526004016119f793929190612036565b5f604051808303815f87803b158015611a0e575f80fd5b505af1158015611a20573d5f803e3d5ffd5b50505050805f015173ffffffffffffffffffffffffffffffffffffffff166108fc826060015190811502906040515f60405180830381858888f19350505050158015611a6e573d5f803e3d5ffd5b50806020015173ffffffffffffffffffffffffffffffffffffffff163373ffffffffffffffffffffffffffffffffffffffff16857ff3debaf22196a6ddf52a60fa71058cd7edf5e25bb98f4e96c994a5d4a9b0dd3e84604001518560600151604051611adb92919061206b565b60405180910390a450611aec61156d565b505050565b6001815f015f828254019250508190555050565b5f815f01549050919050565b611b1b8282610d49565b611b5e5780826040517fe2517d3f000000000000000000000000000000000000000000000000000000008152600401611b559291906123a9565b60405180910390fd5b5050565b5f80fd5b5f7fffffffff0000000000000000000000000000000000000000000000000000000082169050919050565b611b9a81611b66565b8114611ba4575f80fd5b50565b5f81359050611bb581611b91565b92915050565b5f60208284031215611bd057611bcf611b62565b5b5f611bdd84828501611ba7565b91505092915050565b5f8115159050919050565b611bfa81611be6565b82525050565b5f602082019050611c135f830184611bf1565b92915050565b5f819050919050565b611c2b81611c19565b8114611c35575f80fd5b50565b5f81359050611c4681611c22565b92915050565b5f60208284031215611c6157611c60611b62565b5b5f611c6e84828501611c38565b91505092915050565b5f73ffffffffffffffffffffffffffffffffffffffff82169050919050565b5f611ca082611c77565b9050919050565b611cb081611c96565b82525050565b611cbf81611c19565b82525050565b5f604082019050611cd85f830185611ca7565b611ce56020830184611cb6565b9392505050565b5f819050919050565b611cfe81611cec565b8114611d08575f80fd5b50565b5f81359050611d1981611cf5565b92915050565b5f60208284031215611d3457611d33611b62565b5b5f611d4184828501611d0b565b91505092915050565b611d5381611cec565b82525050565b5f602082019050611d6c5f830184611d4a565b92915050565b611d7b81611c96565b8114611d85575f80fd5b50565b5f81359050611d9681611d72565b92915050565b5f8060408385031215611db257611db1611b62565b5b5f611dbf85828601611d0b565b9250506020611dd085828601611d88565b9150509250929050565b5f602082019050611ded5f830184611cb6565b92915050565b5f805f60608486031215611e0a57611e09611b62565b5b5f611e1786828701611d88565b9350506020611e2886828701611c38565b9250506040611e3986828701611c38565b9150509250925092565b5f608082019050611e565f830187611ca7565b611e636020830186611ca7565b611e706040830185611cb6565b611e7d6060830184611cb6565b95945050505050565b5f82825260208201905092915050565b7f43616c6c6572206973206e6f7420616e2061646d696e000000000000000000005f82015250565b5f611eca601683611e86565b9150611ed582611e96565b602082019050919050565b5f6020820190508181035f830152611ef781611ebe565b9050919050565b7f43616c6c6572206973206e6f74207468652073656c6c657200000000000000005f82015250565b5f611f32601883611e86565b9150611f3d82611efe565b602082019050919050565b5f6020820190508181035f830152611f5f81611f26565b9050919050565b7f4c697374696e67206e6f742061637469766500000000000000000000000000005f82015250565b5f611f9a601283611e86565b9150611fa582611f66565b602082019050919050565b5f6020820190508181035f830152611fc781611f8e565b9050919050565b7f4e6f2062696420746f20616363657074000000000000000000000000000000005f82015250565b5f612002601083611e86565b915061200d82611fce565b602082019050919050565b5f6020820190508181035f83015261202f81611ff6565b9050919050565b5f6060820190506120495f830186611ca7565b6120566020830185611ca7565b6120636040830184611cb6565b949350505050565b5f60408201905061207e5f830185611cb6565b61208b6020830184611cb6565b9392505050565b7f42696420746f6f206c6f770000000000000000000000000000000000000000005f82015250565b5f6120c6600b83611e86565b91506120d182612092565b602082019050919050565b5f6020820190508181035f8301526120f3816120ba565b9050919050565b7f496e636f7272656374206c697374696e672066656500000000000000000000005f82015250565b5f61212e601583611e86565b9150612139826120fa565b602082019050919050565b5f6020820190508181035f83015261215b81612122565b9050919050565b5f8151905061217081611d72565b92915050565b5f6020828403121561218b5761218a611b62565b5b5f61219884828501612162565b91505092915050565b7f43616c6c6572206973206e6f7420746865206f776e65720000000000000000005f82015250565b5f6121d5601783611e86565b91506121e0826121a1565b602082019050919050565b5f6020820190508181035f830152612202816121c9565b9050919050565b7f5072696365206d7573742062652067726561746572207468616e207a65726f005f82015250565b5f61223d601f83611e86565b915061224882612209565b602082019050919050565b5f6020820190508181035f83015261226a81612231565b9050919050565b7f5265656e7472616e637947756172643a207265656e7472616e742063616c6c005f82015250565b5f6122a5601f83611e86565b91506122b082612271565b602082019050919050565b5f6020820190508181035f8301526122d281612299565b9050919050565b7f43616e6e6f742073656c6c20746f20796f757273656c660000000000000000005f82015250565b5f61230d601783611e86565b9150612318826122d9565b602082019050919050565b5f6020820190508181035f83015261233a81612301565b9050919050565b7f496e636f727265637420616d6f756e74000000000000000000000000000000005f82015250565b5f612375601083611e86565b915061238082612341565b602082019050919050565b5f6020820190508181035f8301526123a281612369565b9050919050565b5f6040820190506123bc5f830185611ca7565b6123c96020830184611d4a565b939250505056fea2646970667358221220748cc3291b0b633ad9274083a6a760be12d2b86502eee3b8a23d9c9dd19a1ca864736f6c63430008190033",
					"opcodes": "PUSH1 0x80 PUSH1 0x40 MSTORE PUSH7 0x2386F26FC10000 PUSH1 0x4 SSTORE CALLVALUE DUP1 ISZERO PUSH2 0x1A JUMPI PUSH0 DUP1 REVERT JUMPDEST POP PUSH1 0x1 PUSH0 DUP2 SWAP1 SSTORE POP PUSH2 0x34 PUSH0 DUP1 SHL CALLER PUSH2 0x6B PUSH1 0x20 SHL PUSH1 0x20 SHR JUMP JUMPDEST POP PUSH2 0x65 PUSH32 0xA49807205CE4D355092EF5A8A18F56E8913CF4A201FBE287825B095693C21775 CALLER PUSH2 0x6B PUSH1 0x20 SHL PUSH1 0x20 SHR JUMP JUMPDEST POP PUSH2 0x1CB JUMP JUMPDEST PUSH0 PUSH2 0x7C DUP4 DUP4 PUSH2 0x160 PUSH1 0x20 SHL PUSH1 0x20 SHR JUMP JUMPDEST PUSH2 0x156 JUMPI PUSH1 0x1 DUP1 PUSH0 DUP6 DUP2 MSTORE PUSH1 0x20 ADD SWAP1 DUP2 MSTORE PUSH1 0x20 ADD PUSH0 KECCAK256 PUSH0 ADD PUSH0 DUP5 PUSH20 0xFFFFFFFFFFFFFFFFFFFFFFFFFFFFFFFFFFFFFFFF AND PUSH20 0xFFFFFFFFFFFFFFFFFFFFFFFFFFFFFFFFFFFFFFFF AND DUP2 MSTORE PUSH1 0x20 ADD SWAP1 DUP2 MSTORE PUSH1 0x20 ADD PUSH0 KECCAK256 PUSH0 PUSH2 0x100 EXP DUP2 SLOAD DUP2 PUSH1 0xFF MUL NOT AND SWAP1 DUP4 ISZERO ISZERO MUL OR SWAP1 SSTORE POP PUSH2 0xF3 PUSH2 0x1C4 PUSH1 0x20 SHL PUSH1 0x20 SHR JUMP JUMPDEST PUSH20 0xFFFFFFFFFFFFFFFFFFFFFFFFFFFFFFFFFFFFFFFF AND DUP3 PUSH20 0xFFFFFFFFFFFFFFFFFFFFFFFFFFFFFFFFFFFFFFFF AND DUP5 PUSH32 0x2F8788117E7EFF1D82E926EC794901D17C78024A50270940304540A733656F0D PUSH1 0x40 MLOAD PUSH1 0x40 MLOAD DUP1 SWAP2 SUB SWAP1 LOG4 PUSH1 0x1 SWAP1 POP PUSH2 0x15A JUMP JUMPDEST PUSH0 SWAP1 POP JUMPDEST SWAP3 SWAP2 POP POP JUMP JUMPDEST PUSH0 PUSH1 0x1 PUSH0 DUP5 DUP2 MSTORE PUSH1 0x20 ADD SWAP1 DUP2 MSTORE PUSH1 0x20 ADD PUSH0 KECCAK256 PUSH0 ADD PUSH0 DUP4 PUSH20 0xFFFFFFFFFFFFFFFFFFFFFFFFFFFFFFFFFFFFFFFF AND PUSH20 0xFFFFFFFFFFFFFFFFFFFFFFFFFFFFFFFFFFFFFFFF AND DUP2 MSTORE PUSH1 0x20 ADD SWAP1 DUP2 MSTORE PUSH1 0x20 ADD PUSH0 KECCAK256 PUSH0 SWAP1 SLOAD SWAP1 PUSH2 0x100 EXP SWAP1 DIV PUSH1 0xFF AND SWAP1 POP SWAP3 SWAP2 POP POP JUMP JUMPDEST PUSH0 CALLER SWAP1 POP SWAP1 JUMP JUMPDEST PUSH2 0x2406 DUP1 PUSH2 0x1D8 PUSH0 CODECOPY PUSH0 RETURN INVALID PUSH1 0x80 PUSH1 0x40 MSTORE PUSH1 0x4 CALLDATASIZE LT PUSH2 0xFD JUMPI PUSH0 CALLDATALOAD PUSH1 0xE0 SHR DUP1 PUSH4 0x51ED8288 GT PUSH2 0x94 JUMPI DUP1 PUSH4 0x9979EF45 GT PUSH2 0x63 JUMPI DUP1 PUSH4 0x9979EF45 EQ PUSH2 0x32A JUMPI DUP1 PUSH4 0xA217FDDF EQ PUSH2 0x346 JUMPI DUP1 PUSH4 0xAD05F1B4 EQ PUSH2 0x370 JUMPI DUP1 PUSH4 0xD547741F EQ PUSH2 0x38C JUMPI DUP1 PUSH4 0xDE74E57B EQ PUSH2 0x3B4 JUMPI PUSH2 0xFD JUMP JUMPDEST DUP1 PUSH4 0x51ED8288 EQ PUSH2 0x27E JUMPI DUP1 PUSH4 0x6A1B7ECC EQ PUSH2 0x29A JUMPI DUP1 PUSH4 0x75B238FC EQ PUSH2 0x2C4 JUMPI DUP1 PUSH4 0x91D14854 EQ PUSH2 0x2EE JUMPI PUSH2 0xFD JUMP JUMPDEST DUP1 PUSH4 0x2B1FD58A GT PUSH2 0xD0 JUMPI DUP1 PUSH4 0x2B1FD58A EQ PUSH2 0x1DE JUMPI DUP1 PUSH4 0x2F2FF15D EQ PUSH2 0x206 JUMPI DUP1 PUSH4 0x305A67A8 EQ PUSH2 0x22E JUMPI DUP1 PUSH4 0x36568ABE EQ PUSH2 0x256 JUMPI PUSH2 0xFD JUMP JUMPDEST DUP1 PUSH4 0x1FFC9A7 EQ PUSH2 0x101 JUMPI DUP1 PUSH4 0x111CB258 EQ PUSH2 0x13D JUMPI DUP1 PUSH4 0x131DBD09 EQ PUSH2 0x17A JUMPI DUP1 PUSH4 0x248A9CA3 EQ PUSH2 0x1A2 JUMPI JUMPDEST PUSH0 DUP1 REVERT JUMPDEST CALLVALUE DUP1 ISZERO PUSH2 0x10C JUMPI PUSH0 DUP1 REVERT JUMPDEST POP PUSH2 0x127 PUSH1 0x4 DUP1 CALLDATASIZE SUB DUP2 ADD SWAP1 PUSH2 0x122 SWAP2 SWAP1 PUSH2 0x1BBB JUMP JUMPDEST PUSH2 0x3F3 JUMP JUMPDEST PUSH1 0x40 MLOAD PUSH2 0x134 SWAP2 SWAP1 PUSH2 0x1C00 JUMP JUMPDEST PUSH1 0x40 MLOAD DUP1 SWAP2 SUB SWAP1 RETURN JUMPDEST CALLVALUE DUP1 ISZERO PUSH2 0x148 JUMPI PUSH0 DUP1 REVERT JUMPDEST POP PUSH2 0x163 PUSH1 0x4 DUP1 CALLDATASIZE SUB DUP2 ADD SWAP1 PUSH2 0x15E SWAP2 SWAP1 PUSH2 0x1C4C JUMP JUMPDEST PUSH2 0x46C JUMP JUMPDEST PUSH1 0x40 MLOAD PUSH2 0x171 SWAP3 SWAP2 SWAP1 PUSH2 0x1CC5 JUMP JUMPDEST PUSH1 0x40 MLOAD DUP1 SWAP2 SUB SWAP1 RETURN JUMPDEST CALLVALUE DUP1 ISZERO PUSH2 0x185 JUMPI PUSH0 DUP1 REVERT JUMPDEST POP PUSH2 0x1A0 PUSH1 0x4 DUP1 CALLDATASIZE SUB DUP2 ADD SWAP1 PUSH2 0x19B SWAP2 SWAP1 PUSH2 0x1C4C JUMP JUMPDEST PUSH2 0x4AB JUMP JUMPDEST STOP JUMPDEST CALLVALUE DUP1 ISZERO PUSH2 0x1AD JUMPI PUSH0 DUP1 REVERT JUMPDEST POP PUSH2 0x1C8 PUSH1 0x4 DUP1 CALLDATASIZE SUB DUP2 ADD SWAP1 PUSH2 0x1C3 SWAP2 SWAP1 PUSH2 0x1D1F JUMP JUMPDEST PUSH2 0x51E JUMP JUMPDEST PUSH1 0x40 MLOAD PUSH2 0x1D5 SWAP2 SWAP1 PUSH2 0x1D59 JUMP JUMPDEST PUSH1 0x40 MLOAD DUP1 SWAP2 SUB SWAP1 RETURN JUMPDEST CALLVALUE DUP1 ISZERO PUSH2 0x1E9 JUMPI PUSH0 DUP1 REVERT JUMPDEST POP PUSH2 0x204 PUSH1 0x4 DUP1 CALLDATASIZE SUB DUP2 ADD SWAP1 PUSH2 0x1FF SWAP2 SWAP1 PUSH2 0x1C4C JUMP JUMPDEST PUSH2 0x53B JUMP JUMPDEST STOP JUMPDEST CALLVALUE DUP1 ISZERO PUSH2 0x211 JUMPI PUSH0 DUP1 REVERT JUMPDEST POP PUSH2 0x22C PUSH1 0x4 DUP1 CALLDATASIZE SUB DUP2 ADD SWAP1 PUSH2 0x227 SWAP2 SWAP1 PUSH2 0x1D9C JUMP JUMPDEST PUSH2 0x9F4 JUMP JUMPDEST STOP JUMPDEST CALLVALUE DUP1 ISZERO PUSH2 0x239 JUMPI PUSH0 DUP1 REVERT JUMPDEST POP PUSH2 0x254 PUSH1 0x4 DUP1 CALLDATASIZE SUB DUP2 ADD SWAP1 PUSH2 0x24F SWAP2 SWAP1 PUSH2 0x1C4C JUMP JUMPDEST PUSH2 0xA16 JUMP JUMPDEST STOP JUMPDEST CALLVALUE DUP1 ISZERO PUSH2 0x261 JUMPI PUSH0 DUP1 REVERT JUMPDEST POP PUSH2 0x27C PUSH1 0x4 DUP1 CALLDATASIZE SUB DUP2 ADD SWAP1 PUSH2 0x277 SWAP2 SWAP1 PUSH2 0x1D9C JUMP JUMPDEST PUSH2 0xC86 JUMP JUMPDEST STOP JUMPDEST PUSH2 0x298 PUSH1 0x4 DUP1 CALLDATASIZE SUB DUP2 ADD SWAP1 PUSH2 0x293 SWAP2 SWAP1 PUSH2 0x1C4C JUMP JUMPDEST PUSH2 0xD01 JUMP JUMPDEST STOP JUMPDEST CALLVALUE DUP1 ISZERO PUSH2 0x2A5 JUMPI PUSH0 DUP1 REVERT JUMPDEST POP PUSH2 0x2AE PUSH2 0xD1F JUMP JUMPDEST PUSH1 0x40 MLOAD PUSH2 0x2BB SWAP2 SWAP1 PUSH2 0x1DDA JUMP JUMPDEST PUSH1 0x40 MLOAD DUP1 SWAP2 SUB SWAP1 RETURN JUMPDEST CALLVALUE DUP1 ISZERO PUSH2 0x2CF JUMPI PUSH0 DUP1 REVERT JUMPDEST POP PUSH2 0x2D8 PUSH2 0xD25 JUMP JUMPDEST PUSH1 0x40 MLOAD PUSH2 0x2E5 SWAP2 SWAP1 PUSH2 0x1D59 JUMP JUMPDEST PUSH1 0x40 MLOAD DUP1 SWAP2 SUB SWAP1 RETURN JUMPDEST CALLVALUE DUP1 ISZERO PUSH2 0x2F9 JUMPI PUSH0 DUP1 REVERT JUMPDEST POP PUSH2 0x314 PUSH1 0x4 DUP1 CALLDATASIZE SUB DUP2 ADD SWAP1 PUSH2 0x30F SWAP2 SWAP1 PUSH2 0x1D9C JUMP JUMPDEST PUSH2 0xD49 JUMP JUMPDEST PUSH1 0x40 MLOAD PUSH2 0x321 SWAP2 SWAP1 PUSH2 0x1C00 JUMP JUMPDEST PUSH1 0x40 MLOAD DUP1 SWAP2 SUB SWAP1 RETURN JUMPDEST PUSH2 0x344 PUSH1 0x4 DUP1 CALLDATASIZE SUB DUP2 ADD SWAP1 PUSH2 0x33F SWAP2 SWAP1 PUSH2 0x1C4C JUMP JUMPDEST PUSH2 0xDAD JUMP JUMPDEST STOP JUMPDEST CALLVALUE DUP1 ISZERO PUSH2 0x351 JUMPI PUSH0 DUP1 REVERT JUMPDEST POP PUSH2 0x35A PUSH2 0x10BC JUMP JUMPDEST PUSH1 0x40 MLOAD PUSH2 0x367 SWAP2 SWAP1 PUSH2 0x1D59 JUMP JUMPDEST PUSH1 0x40 MLOAD DUP1 SWAP2 SUB SWAP1 RETURN JUMPDEST PUSH2 0x38A PUSH1 0x4 DUP1 CALLDATASIZE SUB DUP2 ADD SWAP1 PUSH2 0x385 SWAP2 SWAP1 PUSH2 0x1DF3 JUMP JUMPDEST PUSH2 0x10C2 JUMP JUMPDEST STOP JUMPDEST CALLVALUE DUP1 ISZERO PUSH2 0x397 JUMPI PUSH0 DUP1 REVERT JUMPDEST POP PUSH2 0x3B2 PUSH1 0x4 DUP1 CALLDATASIZE SUB DUP2 ADD SWAP1 PUSH2 0x3AD SWAP2 SWAP1 PUSH2 0x1D9C JUMP JUMPDEST PUSH2 0x142B JUMP JUMPDEST STOP JUMPDEST CALLVALUE DUP1 ISZERO PUSH2 0x3BF JUMPI PUSH0 DUP1 REVERT JUMPDEST POP PUSH2 0x3DA PUSH1 0x4 DUP1 CALLDATASIZE SUB DUP2 ADD SWAP1 PUSH2 0x3D5 SWAP2 SWAP1 PUSH2 0x1C4C JUMP JUMPDEST PUSH2 0x144D JUMP JUMPDEST PUSH1 0x40 MLOAD PUSH2 0x3EA SWAP5 SWAP4 SWAP3 SWAP2 SWAP1 PUSH2 0x1E43 JUMP JUMPDEST PUSH1 0x40 MLOAD DUP1 SWAP2 SUB SWAP1 RETURN JUMPDEST PUSH0 PUSH32 0x7965DB0B00000000000000000000000000000000000000000000000000000000 PUSH28 0xFFFFFFFFFFFFFFFFFFFFFFFFFFFFFFFFFFFFFFFFFFFFFFFFFFFFFFFF NOT AND DUP3 PUSH28 0xFFFFFFFFFFFFFFFFFFFFFFFFFFFFFFFFFFFFFFFFFFFFFFFFFFFFFFFF NOT AND EQ DUP1 PUSH2 0x465 JUMPI POP PUSH2 0x464 DUP3 PUSH2 0x14B7 JUMP JUMPDEST JUMPDEST SWAP1 POP SWAP2 SWAP1 POP JUMP JUMPDEST PUSH1 0x5 PUSH1 0x20 MSTORE DUP1 PUSH0 MSTORE PUSH1 0x40 PUSH0 KECCAK256 PUSH0 SWAP2 POP SWAP1 POP DUP1 PUSH0 ADD PUSH0 SWAP1 SLOAD SWAP1 PUSH2 0x100 EXP SWAP1 DIV PUSH20 0xFFFFFFFFFFFFFFFFFFFFFFFFFFFFFFFFFFFFFFFF AND SWAP1 DUP1 PUSH1 0x1 ADD SLOAD SWAP1 POP DUP3 JUMP JUMPDEST PUSH2 0x4D5 PUSH32 0xA49807205CE4D355092EF5A8A18F56E8913CF4A201FBE287825B095693C21775 CALLER PUSH2 0xD49 JUMP JUMPDEST PUSH2 0x514 JUMPI PUSH1 0x40 MLOAD PUSH32 0x8C379A000000000000000000000000000000000000000000000000000000000 DUP2 MSTORE PUSH1 0x4 ADD PUSH2 0x50B SWAP1 PUSH2 0x1EE0 JUMP JUMPDEST PUSH1 0x40 MLOAD DUP1 SWAP2 SUB SWAP1 REVERT JUMPDEST DUP1 PUSH1 0x4 DUP2 SWAP1 SSTORE POP POP JUMP JUMPDEST PUSH0 PUSH1 0x1 PUSH0 DUP4 DUP2 MSTORE PUSH1 0x20 ADD SWAP1 DUP2 MSTORE PUSH1 0x20 ADD PUSH0 KECCAK256 PUSH1 0x1 ADD SLOAD SWAP1 POP SWAP2 SWAP1 POP JUMP JUMPDEST PUSH2 0x543 PUSH2 0x1520 JUMP JUMPDEST PUSH0 PUSH1 0x3 PUSH0 DUP4 DUP2 MSTORE PUSH1 0x20 ADD SWAP1 DUP2 MSTORE PUSH1 0x20 ADD PUSH0 KECCAK256 PUSH1 0x40 MLOAD DUP1 PUSH1 0x80 ADD PUSH1 0x40 MSTORE SWAP1 DUP2 PUSH0 DUP3 ADD PUSH0 SWAP1 SLOAD SWAP1 PUSH2 0x100 EXP SWAP1 DIV PUSH20 0xFFFFFFFFFFFFFFFFFFFFFFFFFFFFFFFFFFFFFFFF AND PUSH20 0xFFFFFFFFFFFFFFFFFFFFFFFFFFFFFFFFFFFFFFFF AND PUSH20 0xFFFFFFFFFFFFFFFFFFFFFFFFFFFFFFFFFFFFFFFF AND DUP2 MSTORE PUSH1 0x20 ADD PUSH1 0x1 DUP3 ADD PUSH0 SWAP1 SLOAD SWAP1 PUSH2 0x100 EXP SWAP1 DIV PUSH20 0xFFFFFFFFFFFFFFFFFFFFFFFFFFFFFFFFFFFFFFFF AND PUSH20 0xFFFFFFFFFFFFFFFFFFFFFFFFFFFFFFFFFFFFFFFF AND PUSH20 0xFFFFFFFFFFFFFFFFFFFFFFFFFFFFFFFFFFFFFFFF AND DUP2 MSTORE PUSH1 0x20 ADD PUSH1 0x2 DUP3 ADD SLOAD DUP2 MSTORE PUSH1 0x20 ADD PUSH1 0x3 DUP3 ADD SLOAD DUP2 MSTORE POP POP SWAP1 POP PUSH0 PUSH1 0x5 PUSH0 DUP5 DUP2 MSTORE PUSH1 0x20 ADD SWAP1 DUP2 MSTORE PUSH1 0x20 ADD PUSH0 KECCAK256 PUSH1 0x40 MLOAD DUP1 PUSH1 0x40 ADD PUSH1 0x40 MSTORE SWAP1 DUP2 PUSH0 DUP3 ADD PUSH0 SWAP1 SLOAD SWAP1 PUSH2 0x100 EXP SWAP1 DIV PUSH20 0xFFFFFFFFFFFFFFFFFFFFFFFFFFFFFFFFFFFFFFFF AND PUSH20 0xFFFFFFFFFFFFFFFFFFFFFFFFFFFFFFFFFFFFFFFF AND PUSH20 0xFFFFFFFFFFFFFFFFFFFFFFFFFFFFFFFFFFFFFFFF AND DUP2 MSTORE PUSH1 0x20 ADD PUSH1 0x1 DUP3 ADD SLOAD DUP2 MSTORE POP POP SWAP1 POP CALLER PUSH20 0xFFFFFFFFFFFFFFFFFFFFFFFFFFFFFFFFFFFFFFFF AND DUP3 PUSH0 ADD MLOAD PUSH20 0xFFFFFFFFFFFFFFFFFFFFFFFFFFFFFFFFFFFFFFFF AND EQ PUSH2 0x70D JUMPI PUSH1 0x40 MLOAD PUSH32 0x8C379A000000000000000000000000000000000000000000000000000000000 DUP2 MSTORE PUSH1 0x4 ADD PUSH2 0x704 SWAP1 PUSH2 0x1F48 JUMP JUMPDEST PUSH1 0x40 MLOAD DUP1 SWAP2 SUB SWAP1 REVERT JUMPDEST PUSH0 DUP3 PUSH1 0x60 ADD MLOAD GT PUSH2 0x753 JUMPI PUSH1 0x40 MLOAD PUSH32 0x8C379A000000000000000000000000000000000000000000000000000000000 DUP2 MSTORE PUSH1 0x4 ADD PUSH2 0x74A SWAP1 PUSH2 0x1FB0 JUMP JUMPDEST PUSH1 0x40 MLOAD DUP1 SWAP2 SUB SWAP1 REVERT JUMPDEST PUSH0 DUP2 PUSH1 0x20 ADD MLOAD GT PUSH2 0x799 JUMPI PUSH1 0x40 MLOAD PUSH32 0x8C379A000000000000000000000000000000000000000000000000000000000 DUP2 MSTORE PUSH1 0x4 ADD PUSH2 0x790 SWAP1 PUSH2 0x2018 JUMP JUMPDEST PUSH1 0x40 MLOAD DUP1 SWAP2 SUB SWAP1 REVERT JUMPDEST PUSH1 0x3 PUSH0 DUP5 DUP2 MSTORE PUSH1 0x20 ADD SWAP1 DUP2 MSTORE PUSH1 0x20 ADD PUSH0 KECCAK256 PUSH0 DUP1 DUP3 ADD PUSH0 PUSH2 0x100 EXP DUP2 SLOAD SWAP1 PUSH20 0xFFFFFFFFFFFFFFFFFFFFFFFFFFFFFFFFFFFFFFFF MUL NOT AND SWAP1 SSTORE PUSH1 0x1 DUP3 ADD PUSH0 PUSH2 0x100 EXP DUP2 SLOAD SWAP1 PUSH20 0xFFFFFFFFFFFFFFFFFFFFFFFFFFFFFFFFFFFFFFFF MUL NOT AND SWAP1 SSTORE PUSH1 0x2 DUP3 ADD PUSH0 SWAP1 SSTORE PUSH1 0x3 DUP3 ADD PUSH0 SWAP1 SSTORE POP POP PUSH1 0x5 PUSH0 DUP5 DUP2 MSTORE PUSH1 0x20 ADD SWAP1 DUP2 MSTORE PUSH1 0x20 ADD PUSH0 KECCAK256 PUSH0 DUP1 DUP3 ADD PUSH0 PUSH2 0x100 EXP DUP2 SLOAD SWAP1 PUSH20 0xFFFFFFFFFFFFFFFFFFFFFFFFFFFFFFFFFFFFFFFF MUL NOT AND SWAP1 SSTORE PUSH1 0x1 DUP3 ADD PUSH0 SWAP1 SSTORE POP POP DUP2 PUSH1 0x20 ADD MLOAD PUSH20 0xFFFFFFFFFFFFFFFFFFFFFFFFFFFFFFFFFFFFFFFF AND PUSH4 0x23B872DD ADDRESS DUP4 PUSH0 ADD MLOAD DUP6 PUSH1 0x40 ADD MLOAD PUSH1 0x40 MLOAD DUP5 PUSH4 0xFFFFFFFF AND PUSH1 0xE0 SHL DUP2 MSTORE PUSH1 0x4 ADD PUSH2 0x88E SWAP4 SWAP3 SWAP2 SWAP1 PUSH2 0x2036 JUMP JUMPDEST PUSH0 PUSH1 0x40 MLOAD DUP1 DUP4 SUB DUP2 PUSH0 DUP8 DUP1 EXTCODESIZE ISZERO DUP1 ISZERO PUSH2 0x8A5 JUMPI PUSH0 DUP1 REVERT JUMPDEST POP GAS CALL ISZERO DUP1 ISZERO PUSH2 0x8B7 JUMPI RETURNDATASIZE PUSH0 DUP1 RETURNDATACOPY RETURNDATASIZE PUSH0 REVERT JUMPDEST POP POP POP POP DUP2 PUSH0 ADD MLOAD PUSH20 0xFFFFFFFFFFFFFFFFFFFFFFFFFFFFFFFFFFFFFFFF AND PUSH2 0x8FC DUP3 PUSH1 0x20 ADD MLOAD SWAP1 DUP2 ISZERO MUL SWAP1 PUSH1 0x40 MLOAD PUSH0 PUSH1 0x40 MLOAD DUP1 DUP4 SUB DUP2 DUP6 DUP9 DUP9 CALL SWAP4 POP POP POP POP ISZERO DUP1 ISZERO PUSH2 0x905 JUMPI RETURNDATASIZE PUSH0 DUP1 RETURNDATACOPY RETURNDATASIZE PUSH0 REVERT JUMPDEST POP DUP1 PUSH0 ADD MLOAD PUSH20 0xFFFFFFFFFFFFFFFFFFFFFFFFFFFFFFFFFFFFFFFF AND CALLER PUSH20 0xFFFFFFFFFFFFFFFFFFFFFFFFFFFFFFFFFFFFFFFF AND DUP5 PUSH32 0xE6D56779A392535D3A591E92B65BA36F2ECC424BBF5220D0176A7DA29385B504 DUP5 PUSH1 0x20 ADD MLOAD PUSH1 0x40 MLOAD PUSH2 0x96B SWAP2 SWAP1 PUSH2 0x1DDA JUMP JUMPDEST PUSH1 0x40 MLOAD DUP1 SWAP2 SUB SWAP1 LOG4 DUP2 PUSH1 0x20 ADD MLOAD PUSH20 0xFFFFFFFFFFFFFFFFFFFFFFFFFFFFFFFFFFFFFFFF AND CALLER PUSH20 0xFFFFFFFFFFFFFFFFFFFFFFFFFFFFFFFFFFFFFFFF AND DUP5 PUSH32 0xF3DEBAF22196A6DDF52A60FA71058CD7EDF5E25BB98F4E96C994A5D4A9B0DD3E DUP6 PUSH1 0x40 ADD MLOAD DUP7 PUSH1 0x60 ADD MLOAD PUSH1 0x40 MLOAD PUSH2 0x9DF SWAP3 SWAP2 SWAP1 PUSH2 0x206B JUMP JUMPDEST PUSH1 0x40 MLOAD DUP1 SWAP2 SUB SWAP1 LOG4 POP POP PUSH2 0x9F1 PUSH2 0x156D JUMP JUMPDEST POP JUMP JUMPDEST PUSH2 0x9FD DUP3 PUSH2 0x51E JUMP JUMPDEST PUSH2 0xA06 DUP2 PUSH2 0x1576 JUMP JUMPDEST PUSH2 0xA10 DUP4 DUP4 PUSH2 0x158A JUMP JUMPDEST POP POP POP POP JUMP JUMPDEST PUSH2 0xA1E PUSH2 0x1520 JUMP JUMPDEST PUSH0 PUSH1 0x3 PUSH0 DUP4 DUP2 MSTORE PUSH1 0x20 ADD SWAP1 DUP2 MSTORE PUSH1 0x20 ADD PUSH0 KECCAK256 PUSH1 0x40 MLOAD DUP1 PUSH1 0x80 ADD PUSH1 0x40 MSTORE SWAP1 DUP2 PUSH0 DUP3 ADD PUSH0 SWAP1 SLOAD SWAP1 PUSH2 0x100 EXP SWAP1 DIV PUSH20 0xFFFFFFFFFFFFFFFFFFFFFFFFFFFFFFFFFFFFFFFF AND PUSH20 0xFFFFFFFFFFFFFFFFFFFFFFFFFFFFFFFFFFFFFFFF AND PUSH20 0xFFFFFFFFFFFFFFFFFFFFFFFFFFFFFFFFFFFFFFFF AND DUP2 MSTORE PUSH1 0x20 ADD PUSH1 0x1 DUP3 ADD PUSH0 SWAP1 SLOAD SWAP1 PUSH2 0x100 EXP SWAP1 DIV PUSH20 0xFFFFFFFFFFFFFFFFFFFFFFFFFFFFFFFFFFFFFFFF AND PUSH20 0xFFFFFFFFFFFFFFFFFFFFFFFFFFFFFFFFFFFFFFFF AND PUSH20 0xFFFFFFFFFFFFFFFFFFFFFFFFFFFFFFFFFFFFFFFF AND DUP2 MSTORE PUSH1 0x20 ADD PUSH1 0x2 DUP3 ADD SLOAD DUP2 MSTORE PUSH1 0x20 ADD PUSH1 0x3 DUP3 ADD SLOAD DUP2 MSTORE POP POP SWAP1 POP CALLER PUSH20 0xFFFFFFFFFFFFFFFFFFFFFFFFFFFFFFFFFFFFFFFF AND DUP2 PUSH0 ADD MLOAD PUSH20 0xFFFFFFFFFFFFFFFFFFFFFFFFFFFFFFFFFFFFFFFF AND EQ PUSH2 0xB6B JUMPI PUSH1 0x40 MLOAD PUSH32 0x8C379A000000000000000000000000000000000000000000000000000000000 DUP2 MSTORE PUSH1 0x4 ADD PUSH2 0xB62 SWAP1 PUSH2 0x1F48 JUMP JUMPDEST PUSH1 0x40 MLOAD DUP1 SWAP2 SUB SWAP1 REVERT JUMPDEST PUSH1 0x3 PUSH0 DUP4 DUP2 MSTORE PUSH1 0x20 ADD SWAP1 DUP2 MSTORE PUSH1 0x20 ADD PUSH0 KECCAK256 PUSH0 DUP1 DUP3 ADD PUSH0 PUSH2 0x100 EXP DUP2 SLOAD SWAP1 PUSH20 0xFFFFFFFFFFFFFFFFFFFFFFFFFFFFFFFFFFFFFFFF MUL NOT AND SWAP1 SSTORE PUSH1 0x1 DUP3 ADD PUSH0 PUSH2 0x100 EXP DUP2 SLOAD SWAP1 PUSH20 0xFFFFFFFFFFFFFFFFFFFFFFFFFFFFFFFFFFFFFFFF MUL NOT AND SWAP1 SSTORE PUSH1 0x2 DUP3 ADD PUSH0 SWAP1 SSTORE PUSH1 0x3 DUP3 ADD PUSH0 SWAP1 SSTORE POP POP DUP1 PUSH1 0x20 ADD MLOAD PUSH20 0xFFFFFFFFFFFFFFFFFFFFFFFFFFFFFFFFFFFFFFFF AND PUSH4 0x23B872DD ADDRESS DUP4 PUSH0 ADD MLOAD DUP5 PUSH1 0x40 ADD MLOAD PUSH1 0x40 MLOAD DUP5 PUSH4 0xFFFFFFFF AND PUSH1 0xE0 SHL DUP2 MSTORE PUSH1 0x4 ADD PUSH2 0xC20 SWAP4 SWAP3 SWAP2 SWAP1 PUSH2 0x2036 JUMP JUMPDEST PUSH0 PUSH1 0x40 MLOAD DUP1 DUP4 SUB DUP2 PUSH0 DUP8 DUP1 EXTCODESIZE ISZERO DUP1 ISZERO PUSH2 0xC37 JUMPI PUSH0 DUP1 REVERT JUMPDEST POP GAS CALL ISZERO DUP1 ISZERO PUSH2 0xC49 JUMPI RETURNDATASIZE PUSH0 DUP1 RETURNDATACOPY RETURNDATASIZE PUSH0 REVERT JUMPDEST POP POP POP POP DUP2 PUSH32 0x411AEE90354C51B1B04CD563FCAB2617142A9D50DA19232D888547C8A1B7FD8A PUSH1 0x40 MLOAD PUSH1 0x40 MLOAD DUP1 SWAP2 SUB SWAP1 LOG2 POP PUSH2 0xC83 PUSH2 0x156D JUMP JUMPDEST POP JUMP JUMPDEST PUSH2 0xC8E PUSH2 0x1673 JUMP JUMPDEST PUSH20 0xFFFFFFFFFFFFFFFFFFFFFFFFFFFFFFFFFFFFFFFF AND DUP2 PUSH20 0xFFFFFFFFFFFFFFFFFFFFFFFFFFFFFFFFFFFFFFFF AND EQ PUSH2 0xCF2 JUMPI PUSH1 0x40 MLOAD PUSH32 0x6697B23200000000000000000000000000000000000000000000000000000000 DUP2 MSTORE PUSH1 0x4 ADD PUSH1 0x40 MLOAD DUP1 SWAP2 SUB SWAP1 REVERT JUMPDEST PUSH2 0xCFC DUP3 DUP3 PUSH2 0x167A JUMP JUMPDEST POP POP POP JUMP JUMPDEST PUSH2 0xD09 PUSH2 0x1520 JUMP JUMPDEST PUSH2 0xD14 DUP2 CALLER CALLVALUE PUSH2 0x1764 JUMP JUMPDEST PUSH2 0xD1C PUSH2 0x156D JUMP JUMPDEST POP JUMP JUMPDEST PUSH1 0x4 SLOAD DUP2 JUMP JUMPDEST PUSH32 0xA49807205CE4D355092EF5A8A18F56E8913CF4A201FBE287825B095693C21775 DUP2 JUMP JUMPDEST PUSH0 PUSH1 0x1 PUSH0 DUP5 DUP2 MSTORE PUSH1 0x20 ADD SWAP1 DUP2 MSTORE PUSH1 0x20 ADD PUSH0 KECCAK256 PUSH0 ADD PUSH0 DUP4 PUSH20 0xFFFFFFFFFFFFFFFFFFFFFFFFFFFFFFFFFFFFFFFF AND PUSH20 0xFFFFFFFFFFFFFFFFFFFFFFFFFFFFFFFFFFFFFFFF AND DUP2 MSTORE PUSH1 0x20 ADD SWAP1 DUP2 MSTORE PUSH1 0x20 ADD PUSH0 KECCAK256 PUSH0 SWAP1 SLOAD SWAP1 PUSH2 0x100 EXP SWAP1 DIV PUSH1 0xFF AND SWAP1 POP SWAP3 SWAP2 POP POP JUMP JUMPDEST PUSH2 0xDB5 PUSH2 0x1520 JUMP JUMPDEST PUSH0 PUSH1 0x3 PUSH0 DUP4 DUP2 MSTORE PUSH1 0x20 ADD SWAP1 DUP2 MSTORE PUSH1 0x20 ADD PUSH0 KECCAK256 PUSH1 0x40 MLOAD DUP1 PUSH1 0x80 ADD PUSH1 0x40 MSTORE SWAP1 DUP2 PUSH0 DUP3 ADD PUSH0 SWAP1 SLOAD SWAP1 PUSH2 0x100 EXP SWAP1 DIV PUSH20 0xFFFFFFFFFFFFFFFFFFFFFFFFFFFFFFFFFFFFFFFF AND PUSH20 0xFFFFFFFFFFFFFFFFFFFFFFFFFFFFFFFFFFFFFFFF AND PUSH20 0xFFFFFFFFFFFFFFFFFFFFFFFFFFFFFFFFFFFFFFFF AND DUP2 MSTORE PUSH1 0x20 ADD PUSH1 0x1 DUP3 ADD PUSH0 SWAP1 SLOAD SWAP1 PUSH2 0x100 EXP SWAP1 DIV PUSH20 0xFFFFFFFFFFFFFFFFFFFFFFFFFFFFFFFFFFFFFFFF AND PUSH20 0xFFFFFFFFFFFFFFFFFFFFFFFFFFFFFFFFFFFFFFFF AND PUSH20 0xFFFFFFFFFFFFFFFFFFFFFFFFFFFFFFFFFFFFFFFF AND DUP2 MSTORE PUSH1 0x20 ADD PUSH1 0x2 DUP3 ADD SLOAD DUP2 MSTORE PUSH1 0x20 ADD PUSH1 0x3 DUP3 ADD SLOAD DUP2 MSTORE POP POP SWAP1 POP PUSH0 DUP2 PUSH1 0x60 ADD MLOAD GT PUSH2 0xED7 JUMPI PUSH1 0x40 MLOAD PUSH32 0x8C379A000000000000000000000000000000000000000000000000000000000 DUP2 MSTORE PUSH1 0x4 ADD PUSH2 0xECE SWAP1 PUSH2 0x1FB0 JUMP JUMPDEST PUSH1 0x40 MLOAD DUP1 SWAP2 SUB SWAP1 REVERT JUMPDEST PUSH1 0x5 PUSH0 DUP4 DUP2 MSTORE PUSH1 0x20 ADD SWAP1 DUP2 MSTORE PUSH1 0x20 ADD PUSH0 KECCAK256 PUSH1 0x1 ADD SLOAD CALLVALUE GT PUSH2 0xF2D JUMPI PUSH1 0x40 MLOAD PUSH32 0x8C379A000000000000000000000000000000000000000000000000000000000 DUP2 MSTORE PUSH1 0x4 ADD PUSH2 0xF24 SWAP1 PUSH2 0x20DC JUMP JUMPDEST PUSH1 0x40 MLOAD DUP1 SWAP2 SUB SWAP1 REVERT JUMPDEST PUSH0 PUSH1 0x5 PUSH0 DUP5 DUP2 MSTORE PUSH1 0x20 ADD SWAP1 DUP2 MSTORE PUSH1 0x20 ADD PUSH0 KECCAK256 PUSH1 0x1 ADD SLOAD GT ISZERO PUSH2 0xFD4 JUMPI PUSH1 0x5 PUSH0 DUP4 DUP2 MSTORE PUSH1 0x20 ADD SWAP1 DUP2 MSTORE PUSH1 0x20 ADD PUSH0 KECCAK256 PUSH0 ADD PUSH0 SWAP1 SLOAD SWAP1 PUSH2 0x100 EXP SWAP1 DIV PUSH20 0xFFFFFFFFFFFFFFFFFFFFFFFFFFFFFFFFFFFFFFFF AND PUSH20 0xFFFFFFFFFFFFFFFFFFFFFFFFFFFFFFFFFFFFFFFF AND PUSH2 0x8FC PUSH1 0x5 PUSH0 DUP6 DUP2 MSTORE PUSH1 0x20 ADD SWAP1 DUP2 MSTORE PUSH1 0x20 ADD PUSH0 KECCAK256 PUSH1 0x1 ADD SLOAD SWAP1 DUP2 ISZERO MUL SWAP1 PUSH1 0x40 MLOAD PUSH0 PUSH1 0x40 MLOAD DUP1 DUP4 SUB DUP2 DUP6 DUP9 DUP9 CALL SWAP4 POP POP POP POP ISZERO DUP1 ISZERO PUSH2 0xFD2 JUMPI RETURNDATASIZE PUSH0 DUP1 RETURNDATACOPY RETURNDATASIZE PUSH0 REVERT JUMPDEST POP JUMPDEST PUSH1 0x40 MLOAD DUP1 PUSH1 0x40 ADD PUSH1 0x40 MSTORE DUP1 CALLER PUSH20 0xFFFFFFFFFFFFFFFFFFFFFFFFFFFFFFFFFFFFFFFF AND DUP2 MSTORE PUSH1 0x20 ADD CALLVALUE DUP2 MSTORE POP PUSH1 0x5 PUSH0 DUP5 DUP2 MSTORE PUSH1 0x20 ADD SWAP1 DUP2 MSTORE PUSH1 0x20 ADD PUSH0 KECCAK256 PUSH0 DUP3 ADD MLOAD DUP2 PUSH0 ADD PUSH0 PUSH2 0x100 EXP DUP2 SLOAD DUP2 PUSH20 0xFFFFFFFFFFFFFFFFFFFFFFFFFFFFFFFFFFFFFFFF MUL NOT AND SWAP1 DUP4 PUSH20 0xFFFFFFFFFFFFFFFFFFFFFFFFFFFFFFFFFFFFFFFF AND MUL OR SWAP1 SSTORE POP PUSH1 0x20 DUP3 ADD MLOAD DUP2 PUSH1 0x1 ADD SSTORE SWAP1 POP POP CALLER PUSH20 0xFFFFFFFFFFFFFFFFFFFFFFFFFFFFFFFFFFFFFFFF AND DUP3 PUSH32 0xE54EFF26401BF69B81B26F60BD85EF47F5D85275C1D268D84F68D6897431C47 CALLVALUE PUSH1 0x40 MLOAD PUSH2 0x10A8 SWAP2 SWAP1 PUSH2 0x1DDA JUMP JUMPDEST PUSH1 0x40 MLOAD DUP1 SWAP2 SUB SWAP1 LOG3 POP PUSH2 0x10B9 PUSH2 0x156D JUMP JUMPDEST POP JUMP JUMPDEST PUSH0 DUP1 SHL DUP2 JUMP JUMPDEST PUSH2 0x10CA PUSH2 0x1520 JUMP JUMPDEST PUSH1 0x4 SLOAD CALLVALUE EQ PUSH2 0x110E JUMPI PUSH1 0x40 MLOAD PUSH32 0x8C379A000000000000000000000000000000000000000000000000000000000 DUP2 MSTORE PUSH1 0x4 ADD PUSH2 0x1105 SWAP1 PUSH2 0x2144 JUMP JUMPDEST PUSH1 0x40 MLOAD DUP1 SWAP2 SUB SWAP1 REVERT JUMPDEST CALLER PUSH20 0xFFFFFFFFFFFFFFFFFFFFFFFFFFFFFFFFFFFFFFFF AND DUP4 PUSH20 0xFFFFFFFFFFFFFFFFFFFFFFFFFFFFFFFFFFFFFFFF AND PUSH4 0x6352211E DUP5 PUSH1 0x40 MLOAD DUP3 PUSH4 0xFFFFFFFF AND PUSH1 0xE0 SHL DUP2 MSTORE PUSH1 0x4 ADD PUSH2 0x115E SWAP2 SWAP1 PUSH2 0x1DDA JUMP JUMPDEST PUSH1 0x20 PUSH1 0x40 MLOAD DUP1 DUP4 SUB DUP2 DUP7 GAS STATICCALL ISZERO DUP1 ISZERO PUSH2 0x1179 JUMPI RETURNDATASIZE PUSH0 DUP1 RETURNDATACOPY RETURNDATASIZE PUSH0 REVERT JUMPDEST POP POP POP POP PUSH1 0x40 MLOAD RETURNDATASIZE PUSH1 0x1F NOT PUSH1 0x1F DUP3 ADD AND DUP3 ADD DUP1 PUSH1 0x40 MSTORE POP DUP2 ADD SWAP1 PUSH2 0x119D SWAP2 SWAP1 PUSH2 0x2176 JUMP JUMPDEST PUSH20 0xFFFFFFFFFFFFFFFFFFFFFFFFFFFFFFFFFFFFFFFF AND EQ PUSH2 0x11F3 JUMPI PUSH1 0x40 MLOAD PUSH32 0x8C379A000000000000000000000000000000000000000000000000000000000 DUP2 MSTORE PUSH1 0x4 ADD PUSH2 0x11EA SWAP1 PUSH2 0x21EB JUMP JUMPDEST PUSH1 0x40 MLOAD DUP1 SWAP2 SUB SWAP1 REVERT JUMPDEST PUSH0 DUP2 GT PUSH2 0x1235 JUMPI PUSH1 0x40 MLOAD PUSH32 0x8C379A000000000000000000000000000000000000000000000000000000000 DUP2 MSTORE PUSH1 0x4 ADD PUSH2 0x122C SWAP1 PUSH2 0x2253 JUMP JUMPDEST PUSH1 0x40 MLOAD DUP1 SWAP2 SUB SWAP1 REVERT JUMPDEST DUP3 PUSH20 0xFFFFFFFFFFFFFFFFFFFFFFFFFFFFFFFFFFFFFFFF AND PUSH4 0x23B872DD CALLER ADDRESS DUP6 PUSH1 0x40 MLOAD DUP5 PUSH4 0xFFFFFFFF AND PUSH1 0xE0 SHL DUP2 MSTORE PUSH1 0x4 ADD PUSH2 0x1272 SWAP4 SWAP3 SWAP2 SWAP1 PUSH2 0x2036 JUMP JUMPDEST PUSH0 PUSH1 0x40 MLOAD DUP1 DUP4 SUB DUP2 PUSH0 DUP8 DUP1 EXTCODESIZE ISZERO DUP1 ISZERO PUSH2 0x1289 JUMPI PUSH0 DUP1 REVERT JUMPDEST POP GAS CALL ISZERO DUP1 ISZERO PUSH2 0x129B JUMPI RETURNDATASIZE PUSH0 DUP1 RETURNDATACOPY RETURNDATASIZE PUSH0 REVERT JUMPDEST POP POP POP POP PUSH2 0x12A9 PUSH1 0x2 PUSH2 0x1AF1 JUMP JUMPDEST PUSH0 PUSH2 0x12B4 PUSH1 0x2 PUSH2 0x1B05 JUMP JUMPDEST SWAP1 POP PUSH1 0x40 MLOAD DUP1 PUSH1 0x80 ADD PUSH1 0x40 MSTORE DUP1 CALLER PUSH20 0xFFFFFFFFFFFFFFFFFFFFFFFFFFFFFFFFFFFFFFFF AND DUP2 MSTORE PUSH1 0x20 ADD DUP6 PUSH20 0xFFFFFFFFFFFFFFFFFFFFFFFFFFFFFFFFFFFFFFFF AND DUP2 MSTORE PUSH1 0x20 ADD DUP5 DUP2 MSTORE PUSH1 0x20 ADD DUP4 DUP2 MSTORE POP PUSH1 0x3 PUSH0 DUP4 DUP2 MSTORE PUSH1 0x20 ADD SWAP1 DUP2 MSTORE PUSH1 0x20 ADD PUSH0 KECCAK256 PUSH0 DUP3 ADD MLOAD DUP2 PUSH0 ADD PUSH0 PUSH2 0x100 EXP DUP2 SLOAD DUP2 PUSH20 0xFFFFFFFFFFFFFFFFFFFFFFFFFFFFFFFFFFFFFFFF MUL NOT AND SWAP1 DUP4 PUSH20 0xFFFFFFFFFFFFFFFFFFFFFFFFFFFFFFFFFFFFFFFF AND MUL OR SWAP1 SSTORE POP PUSH1 0x20 DUP3 ADD MLOAD DUP2 PUSH1 0x1 ADD PUSH0 PUSH2 0x100 EXP DUP2 SLOAD DUP2 PUSH20 0xFFFFFFFFFFFFFFFFFFFFFFFFFFFFFFFFFFFFFFFF MUL NOT AND SWAP1 DUP4 PUSH20 0xFFFFFFFFFFFFFFFFFFFFFFFFFFFFFFFFFFFFFFFF AND MUL OR SWAP1 SSTORE POP PUSH1 0x40 DUP3 ADD MLOAD DUP2 PUSH1 0x2 ADD SSTORE PUSH1 0x60 DUP3 ADD MLOAD DUP2 PUSH1 0x3 ADD SSTORE SWAP1 POP POP DUP4 PUSH20 0xFFFFFFFFFFFFFFFFFFFFFFFFFFFFFFFFFFFFFFFF AND CALLER PUSH20 0xFFFFFFFFFFFFFFFFFFFFFFFFFFFFFFFFFFFFFFFF AND DUP3 PUSH32 0x723F73331EAEE88EEC7FC68EF60AB6ED15E4B90D0472B55EB92FA43910BAB6DD DUP7 DUP7 PUSH1 0x40 MLOAD PUSH2 0x1415 SWAP3 SWAP2 SWAP1 PUSH2 0x206B JUMP JUMPDEST PUSH1 0x40 MLOAD DUP1 SWAP2 SUB SWAP1 LOG4 POP PUSH2 0x1426 PUSH2 0x156D JUMP JUMPDEST POP POP POP JUMP JUMPDEST PUSH2 0x1434 DUP3 PUSH2 0x51E JUMP JUMPDEST PUSH2 0x143D DUP2 PUSH2 0x1576 JUMP JUMPDEST PUSH2 0x1447 DUP4 DUP4 PUSH2 0x167A JUMP JUMPDEST POP POP POP POP JUMP JUMPDEST PUSH1 0x3 PUSH1 0x20 MSTORE DUP1 PUSH0 MSTORE PUSH1 0x40 PUSH0 KECCAK256 PUSH0 SWAP2 POP SWAP1 POP DUP1 PUSH0 ADD PUSH0 SWAP1 SLOAD SWAP1 PUSH2 0x100 EXP SWAP1 DIV PUSH20 0xFFFFFFFFFFFFFFFFFFFFFFFFFFFFFFFFFFFFFFFF AND SWAP1 DUP1 PUSH1 0x1 ADD PUSH0 SWAP1 SLOAD SWAP1 PUSH2 0x100 EXP SWAP1 DIV PUSH20 0xFFFFFFFFFFFFFFFFFFFFFFFFFFFFFFFFFFFFFFFF AND SWAP1 DUP1 PUSH1 0x2 ADD SLOAD SWAP1 DUP1 PUSH1 0x3 ADD SLOAD SWAP1 POP DUP5 JUMP JUMPDEST PUSH0 PUSH32 0x1FFC9A700000000000000000000000000000000000000000000000000000000 PUSH28 0xFFFFFFFFFFFFFFFFFFFFFFFFFFFFFFFFFFFFFFFFFFFFFFFFFFFFFFFF NOT AND DUP3 PUSH28 0xFFFFFFFFFFFFFFFFFFFFFFFFFFFFFFFFFFFFFFFFFFFFFFFFFFFFFFFF NOT AND EQ SWAP1 POP SWAP2 SWAP1 POP JUMP JUMPDEST PUSH1 0x2 PUSH0 SLOAD SUB PUSH2 0x1564 JUMPI PUSH1 0x40 MLOAD PUSH32 0x8C379A000000000000000000000000000000000000000000000000000000000 DUP2 MSTORE PUSH1 0x4 ADD PUSH2 0x155B SWAP1 PUSH2 0x22BB JUMP JUMPDEST PUSH1 0x40 MLOAD DUP1 SWAP2 SUB SWAP1 REVERT JUMPDEST PUSH1 0x2 PUSH0 DUP2 SWAP1 SSTORE POP JUMP JUMPDEST PUSH1 0x1 PUSH0 DUP2 SWAP1 SSTORE POP JUMP JUMPDEST PUSH2 0x1587 DUP2 PUSH2 0x1582 PUSH2 0x1673 JUMP JUMPDEST PUSH2 0x1B11 JUMP JUMPDEST POP JUMP JUMPDEST PUSH0 PUSH2 0x1595 DUP4 DUP4 PUSH2 0xD49 JUMP JUMPDEST PUSH2 0x1669 JUMPI PUSH1 0x1 DUP1 PUSH0 DUP6 DUP2 MSTORE PUSH1 0x20 ADD SWAP1 DUP2 MSTORE PUSH1 0x20 ADD PUSH0 KECCAK256 PUSH0 ADD PUSH0 DUP5 PUSH20 0xFFFFFFFFFFFFFFFFFFFFFFFFFFFFFFFFFFFFFFFF AND PUSH20 0xFFFFFFFFFFFFFFFFFFFFFFFFFFFFFFFFFFFFFFFF AND DUP2 MSTORE PUSH1 0x20 ADD SWAP1 DUP2 MSTORE PUSH1 0x20 ADD PUSH0 KECCAK256 PUSH0 PUSH2 0x100 EXP DUP2 SLOAD DUP2 PUSH1 0xFF MUL NOT AND SWAP1 DUP4 ISZERO ISZERO MUL OR SWAP1 SSTORE POP PUSH2 0x1606 PUSH2 0x1673 JUMP JUMPDEST PUSH20 0xFFFFFFFFFFFFFFFFFFFFFFFFFFFFFFFFFFFFFFFF AND DUP3 PUSH20 0xFFFFFFFFFFFFFFFFFFFFFFFFFFFFFFFFFFFFFFFF AND DUP5 PUSH32 0x2F8788117E7EFF1D82E926EC794901D17C78024A50270940304540A733656F0D PUSH1 0x40 MLOAD PUSH1 0x40 MLOAD DUP1 SWAP2 SUB SWAP1 LOG4 PUSH1 0x1 SWAP1 POP PUSH2 0x166D JUMP JUMPDEST PUSH0 SWAP1 POP JUMPDEST SWAP3 SWAP2 POP POP JUMP JUMPDEST PUSH0 CALLER SWAP1 POP SWAP1 JUMP JUMPDEST PUSH0 PUSH2 0x1685 DUP4 DUP4 PUSH2 0xD49 JUMP JUMPDEST ISZERO PUSH2 0x175A JUMPI PUSH0 PUSH1 0x1 PUSH0 DUP6 DUP2 MSTORE PUSH1 0x20 ADD SWAP1 DUP2 MSTORE PUSH1 0x20 ADD PUSH0 KECCAK256 PUSH0 ADD PUSH0 DUP5 PUSH20 0xFFFFFFFFFFFFFFFFFFFFFFFFFFFFFFFFFFFFFFFF AND PUSH20 0xFFFFFFFFFFFFFFFFFFFFFFFFFFFFFFFFFFFFFFFF AND DUP2 MSTORE PUSH1 0x20 ADD SWAP1 DUP2 MSTORE PUSH1 0x20 ADD PUSH0 KECCAK256 PUSH0 PUSH2 0x100 EXP DUP2 SLOAD DUP2 PUSH1 0xFF MUL NOT AND SWAP1 DUP4 ISZERO ISZERO MUL OR SWAP1 SSTORE POP PUSH2 0x16F7 PUSH2 0x1673 JUMP JUMPDEST PUSH20 0xFFFFFFFFFFFFFFFFFFFFFFFFFFFFFFFFFFFFFFFF AND DUP3 PUSH20 0xFFFFFFFFFFFFFFFFFFFFFFFFFFFFFFFFFFFFFFFF AND DUP5 PUSH32 0xF6391F5C32D9C69D2A47EA670B442974B53935D1EDC7FD64EB21E047A839171B PUSH1 0x40 MLOAD PUSH1 0x40 MLOAD DUP1 SWAP2 SUB SWAP1 LOG4 PUSH1 0x1 SWAP1 POP PUSH2 0x175E JUMP JUMPDEST PUSH0 SWAP1 POP JUMPDEST SWAP3 SWAP2 POP POP JUMP JUMPDEST PUSH2 0x176C PUSH2 0x1520 JUMP JUMPDEST PUSH0 PUSH1 0x3 PUSH0 DUP6 DUP2 MSTORE PUSH1 0x20 ADD SWAP1 DUP2 MSTORE PUSH1 0x20 ADD PUSH0 KECCAK256 PUSH1 0x40 MLOAD DUP1 PUSH1 0x80 ADD PUSH1 0x40 MSTORE SWAP1 DUP2 PUSH0 DUP3 ADD PUSH0 SWAP1 SLOAD SWAP1 PUSH2 0x100 EXP SWAP1 DIV PUSH20 0xFFFFFFFFFFFFFFFFFFFFFFFFFFFFFFFFFFFFFFFF AND PUSH20 0xFFFFFFFFFFFFFFFFFFFFFFFFFFFFFFFFFFFFFFFF AND PUSH20 0xFFFFFFFFFFFFFFFFFFFFFFFFFFFFFFFFFFFFFFFF AND DUP2 MSTORE PUSH1 0x20 ADD PUSH1 0x1 DUP3 ADD PUSH0 SWAP1 SLOAD SWAP1 PUSH2 0x100 EXP SWAP1 DIV PUSH20 0xFFFFFFFFFFFFFFFFFFFFFFFFFFFFFFFFFFFFFFFF AND PUSH20 0xFFFFFFFFFFFFFFFFFFFFFFFFFFFFFFFFFFFFFFFF AND PUSH20 0xFFFFFFFFFFFFFFFFFFFFFFFFFFFFFFFFFFFFFFFF AND DUP2 MSTORE PUSH1 0x20 ADD PUSH1 0x2 DUP3 ADD SLOAD DUP2 MSTORE PUSH1 0x20 ADD PUSH1 0x3 DUP3 ADD SLOAD DUP2 MSTORE POP POP SWAP1 POP PUSH0 DUP2 PUSH1 0x60 ADD MLOAD GT PUSH2 0x188E JUMPI PUSH1 0x40 MLOAD PUSH32 0x8C379A000000000000000000000000000000000000000000000000000000000 DUP2 MSTORE PUSH1 0x4 ADD PUSH2 0x1885 SWAP1 PUSH2 0x1FB0 JUMP JUMPDEST PUSH1 0x40 MLOAD DUP1 SWAP2 SUB SWAP1 REVERT JUMPDEST DUP1 PUSH0 ADD MLOAD PUSH20 0xFFFFFFFFFFFFFFFFFFFFFFFFFFFFFFFFFFFFFFFF AND DUP4 PUSH20 0xFFFFFFFFFFFFFFFFFFFFFFFFFFFFFFFFFFFFFFFF AND EQ PUSH2 0x18FF JUMPI PUSH1 0x40 MLOAD PUSH32 0x8C379A000000000000000000000000000000000000000000000000000000000 DUP2 MSTORE PUSH1 0x4 ADD PUSH2 0x18F6 SWAP1 PUSH2 0x2323 JUMP JUMPDEST PUSH1 0x40 MLOAD DUP1 SWAP2 SUB SWAP1 REVERT JUMPDEST DUP1 PUSH1 0x60 ADD MLOAD DUP3 EQ PUSH2 0x1945 JUMPI PUSH1 0x40 MLOAD PUSH32 0x8C379A000000000000000000000000000000000000000000000000000000000 DUP2 MSTORE PUSH1 0x4 ADD PUSH2 0x193C SWAP1 PUSH2 0x238B JUMP JUMPDEST PUSH1 0x40 MLOAD DUP1 SWAP2 SUB SWAP1 REVERT JUMPDEST PUSH1 0x3 PUSH0 DUP6 DUP2 MSTORE PUSH1 0x20 ADD SWAP1 DUP2 MSTORE PUSH1 0x20 ADD PUSH0 KECCAK256 PUSH0 DUP1 DUP3 ADD PUSH0 PUSH2 0x100 EXP DUP2 SLOAD SWAP1 PUSH20 0xFFFFFFFFFFFFFFFFFFFFFFFFFFFFFFFFFFFFFFFF MUL NOT AND SWAP1 SSTORE PUSH1 0x1 DUP3 ADD PUSH0 PUSH2 0x100 EXP DUP2 SLOAD SWAP1 PUSH20 0xFFFFFFFFFFFFFFFFFFFFFFFFFFFFFFFFFFFFFFFF MUL NOT AND SWAP1 SSTORE PUSH1 0x2 DUP3 ADD PUSH0 SWAP1 SSTORE PUSH1 0x3 DUP3 ADD PUSH0 SWAP1 SSTORE POP POP DUP1 PUSH1 0x20 ADD MLOAD PUSH20 0xFFFFFFFFFFFFFFFFFFFFFFFFFFFFFFFFFFFFFFFF AND PUSH4 0x23B872DD ADDRESS DUP6 DUP5 PUSH1 0x40 ADD MLOAD PUSH1 0x40 MLOAD DUP5 PUSH4 0xFFFFFFFF AND PUSH1 0xE0 SHL DUP2 MSTORE PUSH1 0x4 ADD PUSH2 0x19F7 SWAP4 SWAP3 SWAP2 SWAP1 PUSH2 0x2036 JUMP JUMPDEST PUSH0 PUSH1 0x40 MLOAD DUP1 DUP4 SUB DUP2 PUSH0 DUP8 DUP1 EXTCODESIZE ISZERO DUP1 ISZERO PUSH2 0x1A0E JUMPI PUSH0 DUP1 REVERT JUMPDEST POP GAS CALL ISZERO DUP1 ISZERO PUSH2 0x1A20 JUMPI RETURNDATASIZE PUSH0 DUP1 RETURNDATACOPY RETURNDATASIZE PUSH0 REVERT JUMPDEST POP POP POP POP DUP1 PUSH0 ADD MLOAD PUSH20 0xFFFFFFFFFFFFFFFFFFFFFFFFFFFFFFFFFFFFFFFF AND PUSH2 0x8FC DUP3 PUSH1 0x60 ADD MLOAD SWAP1 DUP2 ISZERO MUL SWAP1 PUSH1 0x40 MLOAD PUSH0 PUSH1 0x40 MLOAD DUP1 DUP4 SUB DUP2 DUP6 DUP9 DUP9 CALL SWAP4 POP POP POP POP ISZERO DUP1 ISZERO PUSH2 0x1A6E JUMPI RETURNDATASIZE PUSH0 DUP1 RETURNDATACOPY RETURNDATASIZE PUSH0 REVERT JUMPDEST POP DUP1 PUSH1 0x20 ADD MLOAD PUSH20 0xFFFFFFFFFFFFFFFFFFFFFFFFFFFFFFFFFFFFFFFF AND CALLER PUSH20 0xFFFFFFFFFFFFFFFFFFFFFFFFFFFFFFFFFFFFFFFF AND DUP6 PUSH32 0xF3DEBAF22196A6DDF52A60FA71058CD7EDF5E25BB98F4E96C994A5D4A9B0DD3E DUP5 PUSH1 0x40 ADD MLOAD DUP6 PUSH1 0x60 ADD MLOAD PUSH1 0x40 MLOAD PUSH2 0x1ADB SWAP3 SWAP2 SWAP1 PUSH2 0x206B JUMP JUMPDEST PUSH1 0x40 MLOAD DUP1 SWAP2 SUB SWAP1 LOG4 POP PUSH2 0x1AEC PUSH2 0x156D JUMP JUMPDEST POP POP POP JUMP JUMPDEST PUSH1 0x1 DUP2 PUSH0 ADD PUSH0 DUP3 DUP3 SLOAD ADD SWAP3 POP POP DUP2 SWAP1 SSTORE POP POP JUMP JUMPDEST PUSH0 DUP2 PUSH0 ADD SLOAD SWAP1 POP SWAP2 SWAP1 POP JUMP JUMPDEST PUSH2 0x1B1B DUP3 DUP3 PUSH2 0xD49 JUMP JUMPDEST PUSH2 0x1B5E JUMPI DUP1 DUP3 PUSH1 0x40 MLOAD PUSH32 0xE2517D3F00000000000000000000000000000000000000000000000000000000 DUP2 MSTORE PUSH1 0x4 ADD PUSH2 0x1B55 SWAP3 SWAP2 SWAP1 PUSH2 0x23A9 JUMP JUMPDEST PUSH1 0x40 MLOAD DUP1 SWAP2 SUB SWAP1 REVERT JUMPDEST POP POP JUMP JUMPDEST PUSH0 DUP1 REVERT JUMPDEST PUSH0 PUSH32 0xFFFFFFFF00000000000000000000000000000000000000000000000000000000 DUP3 AND SWAP1 POP SWAP2 SWAP1 POP JUMP JUMPDEST PUSH2 0x1B9A DUP2 PUSH2 0x1B66 JUMP JUMPDEST DUP2 EQ PUSH2 0x1BA4 JUMPI PUSH0 DUP1 REVERT JUMPDEST POP JUMP JUMPDEST PUSH0 DUP2 CALLDATALOAD SWAP1 POP PUSH2 0x1BB5 DUP2 PUSH2 0x1B91 JUMP JUMPDEST SWAP3 SWAP2 POP POP JUMP JUMPDEST PUSH0 PUSH1 0x20 DUP3 DUP5 SUB SLT ISZERO PUSH2 0x1BD0 JUMPI PUSH2 0x1BCF PUSH2 0x1B62 JUMP JUMPDEST JUMPDEST PUSH0 PUSH2 0x1BDD DUP5 DUP3 DUP6 ADD PUSH2 0x1BA7 JUMP JUMPDEST SWAP2 POP POP SWAP3 SWAP2 POP POP JUMP JUMPDEST PUSH0 DUP2 ISZERO ISZERO SWAP1 POP SWAP2 SWAP1 POP JUMP JUMPDEST PUSH2 0x1BFA DUP2 PUSH2 0x1BE6 JUMP JUMPDEST DUP3 MSTORE POP POP JUMP JUMPDEST PUSH0 PUSH1 0x20 DUP3 ADD SWAP1 POP PUSH2 0x1C13 PUSH0 DUP4 ADD DUP5 PUSH2 0x1BF1 JUMP JUMPDEST SWAP3 SWAP2 POP POP JUMP JUMPDEST PUSH0 DUP2 SWAP1 POP SWAP2 SWAP1 POP JUMP JUMPDEST PUSH2 0x1C2B DUP2 PUSH2 0x1C19 JUMP JUMPDEST DUP2 EQ PUSH2 0x1C35 JUMPI PUSH0 DUP1 REVERT JUMPDEST POP JUMP JUMPDEST PUSH0 DUP2 CALLDATALOAD SWAP1 POP PUSH2 0x1C46 DUP2 PUSH2 0x1C22 JUMP JUMPDEST SWAP3 SWAP2 POP POP JUMP JUMPDEST PUSH0 PUSH1 0x20 DUP3 DUP5 SUB SLT ISZERO PUSH2 0x1C61 JUMPI PUSH2 0x1C60 PUSH2 0x1B62 JUMP JUMPDEST JUMPDEST PUSH0 PUSH2 0x1C6E DUP5 DUP3 DUP6 ADD PUSH2 0x1C38 JUMP JUMPDEST SWAP2 POP POP SWAP3 SWAP2 POP POP JUMP JUMPDEST PUSH0 PUSH20 0xFFFFFFFFFFFFFFFFFFFFFFFFFFFFFFFFFFFFFFFF DUP3 AND SWAP1 POP SWAP2 SWAP1 POP JUMP JUMPDEST PUSH0 PUSH2 0x1CA0 DUP3 PUSH2 0x1C77 JUMP JUMPDEST SWAP1 POP SWAP2 SWAP1 POP JUMP JUMPDEST PUSH2 0x1CB0 DUP2 PUSH2 0x1C96 JUMP JUMPDEST DUP3 MSTORE POP POP JUMP JUMPDEST PUSH2 0x1CBF DUP2 PUSH2 0x1C19 JUMP JUMPDEST DUP3 MSTORE POP POP JUMP JUMPDEST PUSH0 PUSH1 0x40 DUP3 ADD SWAP1 POP PUSH2 0x1CD8 PUSH0 DUP4 ADD DUP6 PUSH2 0x1CA7 JUMP JUMPDEST PUSH2 0x1CE5 PUSH1 0x20 DUP4 ADD DUP5 PUSH2 0x1CB6 JUMP JUMPDEST SWAP4 SWAP3 POP POP POP JUMP JUMPDEST PUSH0 DUP2 SWAP1 POP SWAP2 SWAP1 POP JUMP JUMPDEST PUSH2 0x1CFE DUP2 PUSH2 0x1CEC JUMP JUMPDEST DUP2 EQ PUSH2 0x1D08 JUMPI PUSH0 DUP1 REVERT JUMPDEST POP JUMP JUMPDEST PUSH0 DUP2 CALLDATALOAD SWAP1 POP PUSH2 0x1D19 DUP2 PUSH2 0x1CF5 JUMP JUMPDEST SWAP3 SWAP2 POP POP JUMP JUMPDEST PUSH0 PUSH1 0x20 DUP3 DUP5 SUB SLT ISZERO PUSH2 0x1D34 JUMPI PUSH2 0x1D33 PUSH2 0x1B62 JUMP JUMPDEST JUMPDEST PUSH0 PUSH2 0x1D41 DUP5 DUP3 DUP6 ADD PUSH2 0x1D0B JUMP JUMPDEST SWAP2 POP POP SWAP3 SWAP2 POP POP JUMP JUMPDEST PUSH2 0x1D53 DUP2 PUSH2 0x1CEC JUMP JUMPDEST DUP3 MSTORE POP POP JUMP JUMPDEST PUSH0 PUSH1 0x20 DUP3 ADD SWAP1 POP PUSH2 0x1D6C PUSH0 DUP4 ADD DUP5 PUSH2 0x1D4A JUMP JUMPDEST SWAP3 SWAP2 POP POP JUMP JUMPDEST PUSH2 0x1D7B DUP2 PUSH2 0x1C96 JUMP JUMPDEST DUP2 EQ PUSH2 0x1D85 JUMPI PUSH0 DUP1 REVERT JUMPDEST POP JUMP JUMPDEST PUSH0 DUP2 CALLDATALOAD SWAP1 POP PUSH2 0x1D96 DUP2 PUSH2 0x1D72 JUMP JUMPDEST SWAP3 SWAP2 POP POP JUMP JUMPDEST PUSH0 DUP1 PUSH1 0x40 DUP4 DUP6 SUB SLT ISZERO PUSH2 0x1DB2 JUMPI PUSH2 0x1DB1 PUSH2 0x1B62 JUMP JUMPDEST JUMPDEST PUSH0 PUSH2 0x1DBF DUP6 DUP3 DUP7 ADD PUSH2 0x1D0B JUMP JUMPDEST SWAP3 POP POP PUSH1 0x20 PUSH2 0x1DD0 DUP6 DUP3 DUP7 ADD PUSH2 0x1D88 JUMP JUMPDEST SWAP2 POP POP SWAP3 POP SWAP3 SWAP1 POP JUMP JUMPDEST PUSH0 PUSH1 0x20 DUP3 ADD SWAP1 POP PUSH2 0x1DED PUSH0 DUP4 ADD DUP5 PUSH2 0x1CB6 JUMP JUMPDEST SWAP3 SWAP2 POP POP JUMP JUMPDEST PUSH0 DUP1 PUSH0 PUSH1 0x60 DUP5 DUP7 SUB SLT ISZERO PUSH2 0x1E0A JUMPI PUSH2 0x1E09 PUSH2 0x1B62 JUMP JUMPDEST JUMPDEST PUSH0 PUSH2 0x1E17 DUP7 DUP3 DUP8 ADD PUSH2 0x1D88 JUMP JUMPDEST SWAP4 POP POP PUSH1 0x20 PUSH2 0x1E28 DUP7 DUP3 DUP8 ADD PUSH2 0x1C38 JUMP JUMPDEST SWAP3 POP POP PUSH1 0x40 PUSH2 0x1E39 DUP7 DUP3 DUP8 ADD PUSH2 0x1C38 JUMP JUMPDEST SWAP2 POP POP SWAP3 POP SWAP3 POP SWAP3 JUMP JUMPDEST PUSH0 PUSH1 0x80 DUP3 ADD SWAP1 POP PUSH2 0x1E56 PUSH0 DUP4 ADD DUP8 PUSH2 0x1CA7 JUMP JUMPDEST PUSH2 0x1E63 PUSH1 0x20 DUP4 ADD DUP7 PUSH2 0x1CA7 JUMP JUMPDEST PUSH2 0x1E70 PUSH1 0x40 DUP4 ADD DUP6 PUSH2 0x1CB6 JUMP JUMPDEST PUSH2 0x1E7D PUSH1 0x60 DUP4 ADD DUP5 PUSH2 0x1CB6 JUMP JUMPDEST SWAP6 SWAP5 POP POP POP POP POP JUMP JUMPDEST PUSH0 DUP3 DUP3 MSTORE PUSH1 0x20 DUP3 ADD SWAP1 POP SWAP3 SWAP2 POP POP JUMP JUMPDEST PUSH32 0x43616C6C6572206973206E6F7420616E2061646D696E00000000000000000000 PUSH0 DUP3 ADD MSTORE POP JUMP JUMPDEST PUSH0 PUSH2 0x1ECA PUSH1 0x16 DUP4 PUSH2 0x1E86 JUMP JUMPDEST SWAP2 POP PUSH2 0x1ED5 DUP3 PUSH2 0x1E96 JUMP JUMPDEST PUSH1 0x20 DUP3 ADD SWAP1 POP SWAP2 SWAP1 POP JUMP JUMPDEST PUSH0 PUSH1 0x20 DUP3 ADD SWAP1 POP DUP2 DUP2 SUB PUSH0 DUP4 ADD MSTORE PUSH2 0x1EF7 DUP2 PUSH2 0x1EBE JUMP JUMPDEST SWAP1 POP SWAP2 SWAP1 POP JUMP JUMPDEST PUSH32 0x43616C6C6572206973206E6F74207468652073656C6C65720000000000000000 PUSH0 DUP3 ADD MSTORE POP JUMP JUMPDEST PUSH0 PUSH2 0x1F32 PUSH1 0x18 DUP4 PUSH2 0x1E86 JUMP JUMPDEST SWAP2 POP PUSH2 0x1F3D DUP3 PUSH2 0x1EFE JUMP JUMPDEST PUSH1 0x20 DUP3 ADD SWAP1 POP SWAP2 SWAP1 POP JUMP JUMPDEST PUSH0 PUSH1 0x20 DUP3 ADD SWAP1 POP DUP2 DUP2 SUB PUSH0 DUP4 ADD MSTORE PUSH2 0x1F5F DUP2 PUSH2 0x1F26 JUMP JUMPDEST SWAP1 POP SWAP2 SWAP1 POP JUMP JUMPDEST PUSH32 0x4C697374696E67206E6F74206163746976650000000000000000000000000000 PUSH0 DUP3 ADD MSTORE POP JUMP JUMPDEST PUSH0 PUSH2 0x1F9A PUSH1 0x12 DUP4 PUSH2 0x1E86 JUMP JUMPDEST SWAP2 POP PUSH2 0x1FA5 DUP3 PUSH2 0x1F66 JUMP JUMPDEST PUSH1 0x20 DUP3 ADD SWAP1 POP SWAP2 SWAP1 POP JUMP JUMPDEST PUSH0 PUSH1 0x20 DUP3 ADD SWAP1 POP DUP2 DUP2 SUB PUSH0 DUP4 ADD MSTORE PUSH2 0x1FC7 DUP2 PUSH2 0x1F8E JUMP JUMPDEST SWAP1 POP SWAP2 SWAP1 POP JUMP JUMPDEST PUSH32 0x4E6F2062696420746F2061636365707400000000000000000000000000000000 PUSH0 DUP3 ADD MSTORE POP JUMP JUMPDEST PUSH0 PUSH2 0x2002 PUSH1 0x10 DUP4 PUSH2 0x1E86 JUMP JUMPDEST SWAP2 POP PUSH2 0x200D DUP3 PUSH2 0x1FCE JUMP JUMPDEST PUSH1 0x20 DUP3 ADD SWAP1 POP SWAP2 SWAP1 POP JUMP JUMPDEST PUSH0 PUSH1 0x20 DUP3 ADD SWAP1 POP DUP2 DUP2 SUB PUSH0 DUP4 ADD MSTORE PUSH2 0x202F DUP2 PUSH2 0x1FF6 JUMP JUMPDEST SWAP1 POP SWAP2 SWAP1 POP JUMP JUMPDEST PUSH0 PUSH1 0x60 DUP3 ADD SWAP1 POP PUSH2 0x2049 PUSH0 DUP4 ADD DUP7 PUSH2 0x1CA7 JUMP JUMPDEST PUSH2 0x2056 PUSH1 0x20 DUP4 ADD DUP6 PUSH2 0x1CA7 JUMP JUMPDEST PUSH2 0x2063 PUSH1 0x40 DUP4 ADD DUP5 PUSH2 0x1CB6 JUMP JUMPDEST SWAP5 SWAP4 POP POP POP POP JUMP JUMPDEST PUSH0 PUSH1 0x40 DUP3 ADD SWAP1 POP PUSH2 0x207E PUSH0 DUP4 ADD DUP6 PUSH2 0x1CB6 JUMP JUMPDEST PUSH2 0x208B PUSH1 0x20 DUP4 ADD DUP5 PUSH2 0x1CB6 JUMP JUMPDEST SWAP4 SWAP3 POP POP POP JUMP JUMPDEST PUSH32 0x42696420746F6F206C6F77000000000000000000000000000000000000000000 PUSH0 DUP3 ADD MSTORE POP JUMP JUMPDEST PUSH0 PUSH2 0x20C6 PUSH1 0xB DUP4 PUSH2 0x1E86 JUMP JUMPDEST SWAP2 POP PUSH2 0x20D1 DUP3 PUSH2 0x2092 JUMP JUMPDEST PUSH1 0x20 DUP3 ADD SWAP1 POP SWAP2 SWAP1 POP JUMP JUMPDEST PUSH0 PUSH1 0x20 DUP3 ADD SWAP1 POP DUP2 DUP2 SUB PUSH0 DUP4 ADD MSTORE PUSH2 0x20F3 DUP2 PUSH2 0x20BA JUMP JUMPDEST SWAP1 POP SWAP2 SWAP1 POP JUMP JUMPDEST PUSH32 0x496E636F7272656374206C697374696E67206665650000000000000000000000 PUSH0 DUP3 ADD MSTORE POP JUMP JUMPDEST PUSH0 PUSH2 0x212E PUSH1 0x15 DUP4 PUSH2 0x1E86 JUMP JUMPDEST SWAP2 POP PUSH2 0x2139 DUP3 PUSH2 0x20FA JUMP JUMPDEST PUSH1 0x20 DUP3 ADD SWAP1 POP SWAP2 SWAP1 POP JUMP JUMPDEST PUSH0 PUSH1 0x20 DUP3 ADD SWAP1 POP DUP2 DUP2 SUB PUSH0 DUP4 ADD MSTORE PUSH2 0x215B DUP2 PUSH2 0x2122 JUMP JUMPDEST SWAP1 POP SWAP2 SWAP1 POP JUMP JUMPDEST PUSH0 DUP2 MLOAD SWAP1 POP PUSH2 0x2170 DUP2 PUSH2 0x1D72 JUMP JUMPDEST SWAP3 SWAP2 POP POP JUMP JUMPDEST PUSH0 PUSH1 0x20 DUP3 DUP5 SUB SLT ISZERO PUSH2 0x218B JUMPI PUSH2 0x218A PUSH2 0x1B62 JUMP JUMPDEST JUMPDEST PUSH0 PUSH2 0x2198 DUP5 DUP3 DUP6 ADD PUSH2 0x2162 JUMP JUMPDEST SWAP2 POP POP SWAP3 SWAP2 POP POP JUMP JUMPDEST PUSH32 0x43616C6C6572206973206E6F7420746865206F776E6572000000000000000000 PUSH0 DUP3 ADD MSTORE POP JUMP JUMPDEST PUSH0 PUSH2 0x21D5 PUSH1 0x17 DUP4 PUSH2 0x1E86 JUMP JUMPDEST SWAP2 POP PUSH2 0x21E0 DUP3 PUSH2 0x21A1 JUMP JUMPDEST PUSH1 0x20 DUP3 ADD SWAP1 POP SWAP2 SWAP1 POP JUMP JUMPDEST PUSH0 PUSH1 0x20 DUP3 ADD SWAP1 POP DUP2 DUP2 SUB PUSH0 DUP4 ADD MSTORE PUSH2 0x2202 DUP2 PUSH2 0x21C9 JUMP JUMPDEST SWAP1 POP SWAP2 SWAP1 POP JUMP JUMPDEST PUSH32 0x5072696365206D7573742062652067726561746572207468616E207A65726F00 PUSH0 DUP3 ADD MSTORE POP JUMP JUMPDEST PUSH0 PUSH2 0x223D PUSH1 0x1F DUP4 PUSH2 0x1E86 JUMP JUMPDEST SWAP2 POP PUSH2 0x2248 DUP3 PUSH2 0x2209 JUMP JUMPDEST PUSH1 0x20 DUP3 ADD SWAP1 POP SWAP2 SWAP1 POP JUMP JUMPDEST PUSH0 PUSH1 0x20 DUP3 ADD SWAP1 POP DUP2 DUP2 SUB PUSH0 DUP4 ADD MSTORE PUSH2 0x226A DUP2 PUSH2 0x2231 JUMP JUMPDEST SWAP1 POP SWAP2 SWAP1 POP JUMP JUMPDEST PUSH32 0x5265656E7472616E637947756172643A207265656E7472616E742063616C6C00 PUSH0 DUP3 ADD MSTORE POP JUMP JUMPDEST PUSH0 PUSH2 0x22A5 PUSH1 0x1F DUP4 PUSH2 0x1E86 JUMP JUMPDEST SWAP2 POP PUSH2 0x22B0 DUP3 PUSH2 0x2271 JUMP JUMPDEST PUSH1 0x20 DUP3 ADD SWAP1 POP SWAP2 SWAP1 POP JUMP JUMPDEST PUSH0 PUSH1 0x20 DUP3 ADD SWAP1 POP DUP2 DUP2 SUB PUSH0 DUP4 ADD MSTORE PUSH2 0x22D2 DUP2 PUSH2 0x2299 JUMP JUMPDEST SWAP1 POP SWAP2 SWAP1 POP JUMP JUMPDEST PUSH32 0x43616E6E6F742073656C6C20746F20796F757273656C66000000000000000000 PUSH0 DUP3 ADD MSTORE POP JUMP JUMPDEST PUSH0 PUSH2 0x230D PUSH1 0x17 DUP4 PUSH2 0x1E86 JUMP JUMPDEST SWAP2 POP PUSH2 0x2318 DUP3 PUSH2 0x22D9 JUMP JUMPDEST PUSH1 0x20 DUP3 ADD SWAP1 POP SWAP2 SWAP1 POP JUMP JUMPDEST PUSH0 PUSH1 0x20 DUP3 ADD SWAP1 POP DUP2 DUP2 SUB PUSH0 DUP4 ADD MSTORE PUSH2 0x233A DUP2 PUSH2 0x2301 JUMP JUMPDEST SWAP1 POP SWAP2 SWAP1 POP JUMP JUMPDEST PUSH32 0x496E636F727265637420616D6F756E7400000000000000000000000000000000 PUSH0 DUP3 ADD MSTORE POP JUMP JUMPDEST PUSH0 PUSH2 0x2375 PUSH1 0x10 DUP4 PUSH2 0x1E86 JUMP JUMPDEST SWAP2 POP PUSH2 0x2380 DUP3 PUSH2 0x2341 JUMP JUMPDEST PUSH1 0x20 DUP3 ADD SWAP1 POP SWAP2 SWAP1 POP JUMP JUMPDEST PUSH0 PUSH1 0x20 DUP3 ADD SWAP1 POP DUP2 DUP2 SUB PUSH0 DUP4 ADD MSTORE PUSH2 0x23A2 DUP2 PUSH2 0x2369 JUMP JUMPDEST SWAP1 POP SWAP2 SWAP1 POP JUMP JUMPDEST PUSH0 PUSH1 0x40 DUP3 ADD SWAP1 POP PUSH2 0x23BC PUSH0 DUP4 ADD DUP6 PUSH2 0x1CA7 JUMP JUMPDEST PUSH2 0x23C9 PUSH1 0x20 DUP4 ADD DUP5 PUSH2 0x1D4A JUMP JUMPDEST SWAP4 SWAP3 POP POP POP JUMP INVALID LOG2 PUSH5 0x6970667358 0x22 SLT KECCAK256 PUSH21 0x8CC3291B0B633AD9274083A6A760BE12D2B86502EE 0xE3 0xB8 LOG2 RETURNDATASIZE SWAP13 SWAP14 0xD1 SWAP11 SHR 0xA8 PUSH5 0x736F6C6343 STOP ADDMOD NOT STOP CALLER "
				},
				"gasEstimates": {
					"creation": {
						"codeDepositCost": "1844400",
						"executionCost": "infinite",
						"totalCost": "infinite"
					},
					"external": {
						"ADMIN_ROLE()": "392",
						"DEFAULT_ADMIN_ROLE()": "374",
						"acceptBid(uint256)": "infinite",
						"buyNFT(uint256)": "infinite",
						"cancelListing(uint256)": "infinite",
						"getRoleAdmin(bytes32)": "infinite",
						"grantRole(bytes32,address)": "infinite",
						"hasRole(bytes32,address)": "3211",
						"highestBids(uint256)": "infinite",
						"listNFT(address,uint256,uint256)": "infinite",
						"listingFee()": "2470",
						"listings(uint256)": "infinite",
						"placeBid(uint256)": "infinite",
						"renounceRole(bytes32,address)": "infinite",
						"revokeRole(bytes32,address)": "infinite",
						"setListingFee(uint256)": "24950",
						"supportsInterface(bytes4)": "741"
					}
				},
				"methodIdentifiers": {
					"ADMIN_ROLE()": "75b238fc",
					"DEFAULT_ADMIN_ROLE()": "a217fddf",
					"acceptBid(uint256)": "2b1fd58a",
					"buyNFT(uint256)": "51ed8288",
					"cancelListing(uint256)": "305a67a8",
					"getRoleAdmin(bytes32)": "248a9ca3",
					"grantRole(bytes32,address)": "2f2ff15d",
					"hasRole(bytes32,address)": "91d14854",
					"highestBids(uint256)": "111cb258",
					"listNFT(address,uint256,uint256)": "ad05f1b4",
					"listingFee()": "6a1b7ecc",
					"listings(uint256)": "de74e57b",
					"placeBid(uint256)": "9979ef45",
					"renounceRole(bytes32,address)": "36568abe",
					"revokeRole(bytes32,address)": "d547741f",
					"setListingFee(uint256)": "131dbd09",
					"supportsInterface(bytes4)": "01ffc9a7"
				}
			},
			"storageLayout": {
				"storage": [
					{
						"astId": 389,
						"contract": "contracts/npc_marketplace/npc_marketplace_bidding.sol:MarketplaceBidding",
						"label": "_status",
						"offset": 0,
						"slot": "0",
						"type": "t_uint256"
					},
					{
						"astId": 26,
						"contract": "contracts/npc_marketplace/npc_marketplace_bidding.sol:MarketplaceBidding",
						"label": "_roles",
						"offset": 0,
						"slot": "1",
						"type": "t_mapping(t_bytes32,t_struct(RoleData)21_storage)"
					},
					{
						"astId": 938,
						"contract": "contracts/npc_marketplace/npc_marketplace_bidding.sol:MarketplaceBidding",
						"label": "_listingIds",
						"offset": 0,
						"slot": "2",
						"type": "t_struct(Counter)596_storage"
					},
					{
						"astId": 957,
						"contract": "contracts/npc_marketplace/npc_marketplace_bidding.sol:MarketplaceBidding",
						"label": "listings",
						"offset": 0,
						"slot": "3",
						"type": "t_mapping(t_uint256,t_struct(Listing)952_storage)"
					},
					{
						"astId": 960,
						"contract": "contracts/npc_marketplace/npc_marketplace_bidding.sol:MarketplaceBidding",
						"label": "listingFee",
						"offset": 0,
						"slot": "4",
						"type": "t_uint256"
					},
					{
						"astId": 715,
						"contract": "contracts/npc_marketplace/npc_marketplace_bidding.sol:MarketplaceBidding",
						"label": "highestBids",
						"offset": 0,
						"slot": "5",
						"type": "t_mapping(t_uint256,t_struct(Bid)710_storage)"
					}
				],
				"types": {
					"t_address": {
						"encoding": "inplace",
						"label": "address",
						"numberOfBytes": "20"
					},
					"t_bool": {
						"encoding": "inplace",
						"label": "bool",
						"numberOfBytes": "1"
					},
					"t_bytes32": {
						"encoding": "inplace",
						"label": "bytes32",
						"numberOfBytes": "32"
					},
					"t_mapping(t_address,t_bool)": {
						"encoding": "mapping",
						"key": "t_address",
						"label": "mapping(address => bool)",
						"numberOfBytes": "32",
						"value": "t_bool"
					},
					"t_mapping(t_bytes32,t_struct(RoleData)21_storage)": {
						"encoding": "mapping",
						"key": "t_bytes32",
						"label": "mapping(bytes32 => struct AccessControl.RoleData)",
						"numberOfBytes": "32",
						"value": "t_struct(RoleData)21_storage"
					},
					"t_mapping(t_uint256,t_struct(Bid)710_storage)": {
						"encoding": "mapping",
						"key": "t_uint256",
						"label": "mapping(uint256 => struct MarketplaceBidding.Bid)",
						"numberOfBytes": "32",
						"value": "t_struct(Bid)710_storage"
					},
					"t_mapping(t_uint256,t_struct(Listing)952_storage)": {
						"encoding": "mapping",
						"key": "t_uint256",
						"label": "mapping(uint256 => struct MarketplaceCore.Listing)",
						"numberOfBytes": "32",
						"value": "t_struct(Listing)952_storage"
					},
					"t_struct(Bid)710_storage": {
						"encoding": "inplace",
						"label": "struct MarketplaceBidding.Bid",
						"members": [
							{
								"astId": 707,
								"contract": "contracts/npc_marketplace/npc_marketplace_bidding.sol:MarketplaceBidding",
								"label": "bidder",
								"offset": 0,
								"slot": "0",
								"type": "t_address"
							},
							{
								"astId": 709,
								"contract": "contracts/npc_marketplace/npc_marketplace_bidding.sol:MarketplaceBidding",
								"label": "amount",
								"offset": 0,
								"slot": "1",
								"type": "t_uint256"
							}
						],
						"numberOfBytes": "64"
					},
					"t_struct(Counter)596_storage": {
						"encoding": "inplace",
						"label": "struct Counters.Counter",
						"members": [
							{
								"astId": 595,
								"contract": "contracts/npc_marketplace/npc_marketplace_bidding.sol:MarketplaceBidding",
								"label": "_value",
								"offset": 0,
								"slot": "0",
								"type": "t_uint256"
							}
						],
						"numberOfBytes": "32"
					},
					"t_struct(Listing)952_storage": {
						"encoding": "inplace",
						"label": "struct MarketplaceCore.Listing",
						"members": [
							{
								"astId": 945,
								"contract": "contracts/npc_marketplace/npc_marketplace_bidding.sol:MarketplaceBidding",
								"label": "seller",
								"offset": 0,
								"slot": "0",
								"type": "t_address"
							},
							{
								"astId": 947,
								"contract": "contracts/npc_marketplace/npc_marketplace_bidding.sol:MarketplaceBidding",
								"label": "tokenAddress",
								"offset": 0,
								"slot": "1",
								"type": "t_address"
							},
							{
								"astId": 949,
								"contract": "contracts/npc_marketplace/npc_marketplace_bidding.sol:MarketplaceBidding",
								"label": "tokenId",
								"offset": 0,
								"slot": "2",
								"type": "t_uint256"
							},
							{
								"astId": 951,
								"contract": "contracts/npc_marketplace/npc_marketplace_bidding.sol:MarketplaceBidding",
								"label": "price",
								"offset": 0,
								"slot": "3",
								"type": "t_uint256"
							}
						],
						"numberOfBytes": "128"
					},
					"t_struct(RoleData)21_storage": {
						"encoding": "inplace",
						"label": "struct AccessControl.RoleData",
						"members": [
							{
								"astId": 18,
								"contract": "contracts/npc_marketplace/npc_marketplace_bidding.sol:MarketplaceBidding",
								"label": "hasRole",
								"offset": 0,
								"slot": "0",
								"type": "t_mapping(t_address,t_bool)"
							},
							{
								"astId": 20,
								"contract": "contracts/npc_marketplace/npc_marketplace_bidding.sol:MarketplaceBidding",
								"label": "adminRole",
								"offset": 0,
								"slot": "1",
								"type": "t_bytes32"
							}
						],
						"numberOfBytes": "64"
					},
					"t_uint256": {
						"encoding": "inplace",
						"label": "uint256",
						"numberOfBytes": "32"
					}
				}
			},
			"userdoc": {
				"kind": "user",
				"methods": {},
				"version": 1
			}
		}
	}
}